{
  "_format": "hh-sol-artifact-1",
  "contractName": "DQMiningStakeMine",
  "sourceName": "src/DQMiningStakeMine.sol",
  "abi": [
    {
      "inputs": [
        {
          "internalType": "address",
          "name": "_dqToken",
          "type": "address"
        },
        {
          "internalType": "address",
          "name": "_stakeCore",
          "type": "address"
        },
        {
          "internalType": "address",
          "name": "_foundation",
          "type": "address"
        },
        {
          "internalType": "address",
          "name": "_founder",
          "type": "address"
        }
      ],
      "stateMutability": "nonpayable",
      "type": "constructor"
    },
    {
      "inputs": [
        {
          "internalType": "address",
          "name": "owner",
          "type": "address"
        }
      ],
      "name": "OwnableInvalidOwner",
      "type": "error"
    },
    {
      "inputs": [
        {
          "internalType": "address",
          "name": "account",
          "type": "address"
        }
      ],
      "name": "OwnableUnauthorizedAccount",
      "type": "error"
    },
    {
      "inputs": [],
      "name": "ReentrancyGuardReentrantCall",
      "type": "error"
    },
    {
      "anonymous": false,
      "inputs": [
        {
          "indexed": false,
          "internalType": "address",
          "name": "stakeCore",
          "type": "address"
        },
        {
          "indexed": false,
          "internalType": "address",
          "name": "foundation",
          "type": "address"
        },
        {
          "indexed": false,
          "internalType": "address",
          "name": "founder",
          "type": "address"
        },
        {
          "indexed": false,
          "internalType": "address",
          "name": "dLevelPool",
          "type": "address"
        }
      ],
      "name": "AddressesUpdated",
      "type": "event"
    },
    {
      "anonymous": false,
      "inputs": [
        {
          "indexed": false,
          "internalType": "uint256",
          "name": "amount",
          "type": "uint256"
        },
        {
          "indexed": false,
          "internalType": "bool",
          "name": "success",
          "type": "bool"
        }
      ],
      "name": "DLevelRewardNotified",
      "type": "event"
    },
    {
      "anonymous": false,
      "inputs": [
        {
          "indexed": true,
          "internalType": "address",
          "name": "to",
          "type": "address"
        },
        {
          "indexed": false,
          "internalType": "uint256",
          "name": "amount",
          "type": "uint256"
        },
        {
          "indexed": false,
          "internalType": "string",
          "name": "category",
          "type": "string"
        }
      ],
      "name": "Distributed",
      "type": "event"
    },
    {
      "anonymous": false,
      "inputs": [
        {
          "indexed": false,
          "internalType": "uint256",
          "name": "initialSupply",
          "type": "uint256"
        }
      ],
      "name": "InitialSupplySet",
      "type": "event"
    },
    {
      "anonymous": false,
      "inputs": [
        {
          "indexed": false,
          "internalType": "uint256",
          "name": "amount",
          "type": "uint256"
        },
        {
          "indexed": false,
          "internalType": "bool",
          "name": "success",
          "type": "bool"
        }
      ],
      "name": "LPRewardNotified",
      "type": "event"
    },
    {
      "anonymous": false,
      "inputs": [
        {
          "indexed": false,
          "internalType": "uint256",
          "name": "releaseAmount",
          "type": "uint256"
        },
        {
          "indexed": false,
          "internalType": "uint256",
          "name": "burnAmount",
          "type": "uint256"
        },
        {
          "indexed": false,
          "internalType": "uint256",
          "name": "distributeAmount",
          "type": "uint256"
        },
        {
          "indexed": false,
          "internalType": "uint256",
          "name": "burnRate",
          "type": "uint256"
        },
        {
          "indexed": false,
          "internalType": "uint256",
          "name": "timestamp",
          "type": "uint256"
        }
      ],
      "name": "Mined",
      "type": "event"
    },
    {
      "anonymous": false,
      "inputs": [
        {
          "indexed": false,
          "internalType": "uint256",
          "name": "amount",
          "type": "uint256"
        },
        {
          "indexed": false,
          "internalType": "bool",
          "name": "success",
          "type": "bool"
        }
      ],
      "name": "NodeRewardNotified",
      "type": "event"
    },
    {
      "anonymous": false,
      "inputs": [
        {
          "indexed": true,
          "internalType": "address",
          "name": "previousOwner",
          "type": "address"
        },
        {
          "indexed": true,
          "internalType": "address",
          "name": "newOwner",
          "type": "address"
        }
      ],
      "name": "OwnershipTransferred",
      "type": "event"
    },
    {
      "inputs": [],
      "name": "BURN_DECAY_RATE",
      "outputs": [
        {
          "internalType": "uint256",
          "name": "",
          "type": "uint256"
        }
      ],
      "stateMutability": "view",
      "type": "function"
    },
    {
      "inputs": [],
      "name": "DAILY_RELEASE_RATE",
      "outputs": [
        {
          "internalType": "uint256",
          "name": "",
          "type": "uint256"
        }
      ],
      "stateMutability": "view",
      "type": "function"
    },
    {
      "inputs": [],
      "name": "MAX_BURN_RATE",
      "outputs": [
        {
          "internalType": "uint256",
          "name": "",
          "type": "uint256"
        }
      ],
      "stateMutability": "view",
      "type": "function"
    },
    {
      "inputs": [],
      "name": "MIN_BURN_RATE",
      "outputs": [
        {
          "internalType": "uint256",
          "name": "",
          "type": "uint256"
        }
      ],
      "stateMutability": "view",
      "type": "function"
    },
    {
      "inputs": [],
      "name": "adminContract",
      "outputs": [
        {
          "internalType": "address",
          "name": "",
          "type": "address"
        }
      ],
      "stateMutability": "view",
      "type": "function"
    },
    {
      "inputs": [],
      "name": "dLevelPool",
      "outputs": [
        {
          "internalType": "address",
          "name": "",
          "type": "address"
        }
      ],
      "stateMutability": "view",
      "type": "function"
    },
    {
      "inputs": [],
      "name": "dLevelRatio",
      "outputs": [
        {
          "internalType": "uint256",
          "name": "",
          "type": "uint256"
        }
      ],
      "stateMutability": "view",
      "type": "function"
    },
    {
      "inputs": [],
      "name": "dqToken",
      "outputs": [
        {
          "internalType": "contract IERC20",
          "name": "",
          "type": "address"
        }
      ],
      "stateMutability": "view",
      "type": "function"
    },
    {
      "inputs": [
        {
          "internalType": "address",
          "name": "token",
          "type": "address"
        },
        {
          "internalType": "address",
          "name": "to",
          "type": "address"
        },
        {
          "internalType": "uint256",
          "name": "amount",
          "type": "uint256"
        }
      ],
      "name": "emergencyWithdraw",
      "outputs": [],
      "stateMutability": "nonpayable",
      "type": "function"
    },
    {
      "inputs": [],
      "name": "foundation",
      "outputs": [
        {
          "internalType": "address",
          "name": "",
          "type": "address"
        }
      ],
      "stateMutability": "view",
      "type": "function"
    },
    {
      "inputs": [],
      "name": "foundationRatio",
      "outputs": [
        {
          "internalType": "uint256",
          "name": "",
          "type": "uint256"
        }
      ],
      "stateMutability": "view",
      "type": "function"
    },
    {
      "inputs": [],
      "name": "founder",
      "outputs": [
        {
          "internalType": "address",
          "name": "",
          "type": "address"
        }
      ],
      "stateMutability": "view",
      "type": "function"
    },
    {
      "inputs": [],
      "name": "founderRatio",
      "outputs": [
        {
          "internalType": "uint256",
          "name": "",
          "type": "uint256"
        }
      ],
      "stateMutability": "view",
      "type": "function"
    },
    {
      "inputs": [],
      "name": "getMineInfo",
      "outputs": [
        {
          "internalType": "uint256",
          "name": "releaseAmount",
          "type": "uint256"
        },
        {
          "internalType": "uint256",
          "name": "currentBurnRate",
          "type": "uint256"
        },
        {
          "internalType": "uint256",
          "name": "nextBurnRate",
          "type": "uint256"
        },
        {
          "internalType": "bool",
          "name": "canMine",
          "type": "bool"
        }
      ],
      "stateMutability": "view",
      "type": "function"
    },
    {
      "inputs": [],
      "name": "getNextMineInfo",
      "outputs": [
        {
          "internalType": "uint256",
          "name": "nextMineTime",
          "type": "uint256"
        },
        {
          "internalType": "uint256",
          "name": "currentBurnRate",
          "type": "uint256"
        },
        {
          "internalType": "uint256",
          "name": "estimatedRelease",
          "type": "uint256"
        },
        {
          "internalType": "uint256",
          "name": "estimatedBurn",
          "type": "uint256"
        },
        {
          "internalType": "uint256",
          "name": "estimatedDistribute",
          "type": "uint256"
        }
      ],
      "stateMutability": "view",
      "type": "function"
    },
    {
      "inputs": [],
      "name": "getPoolBalance",
      "outputs": [
        {
          "internalType": "uint256",
          "name": "",
          "type": "uint256"
        }
      ],
      "stateMutability": "view",
      "type": "function"
    },
    {
      "inputs": [],
      "name": "initialTotalSupply",
      "outputs": [
        {
          "internalType": "uint256",
          "name": "",
          "type": "uint256"
        }
      ],
      "stateMutability": "view",
      "type": "function"
    },
    {
      "inputs": [],
      "name": "lastMineTime",
      "outputs": [
        {
          "internalType": "uint256",
          "name": "",
          "type": "uint256"
        }
      ],
      "stateMutability": "view",
      "type": "function"
    },
    {
      "inputs": [],
      "name": "lpRatio",
      "outputs": [
        {
          "internalType": "uint256",
          "name": "",
          "type": "uint256"
        }
      ],
      "stateMutability": "view",
      "type": "function"
    },
    {
      "inputs": [],
      "name": "mine",
      "outputs": [],
      "stateMutability": "nonpayable",
      "type": "function"
    },
    {
      "inputs": [],
      "name": "mineDays",
      "outputs": [
        {
          "internalType": "uint256",
          "name": "",
          "type": "uint256"
        }
      ],
      "stateMutability": "view",
      "type": "function"
    },
    {
      "inputs": [],
      "name": "nodeRatio",
      "outputs": [
        {
          "internalType": "uint256",
          "name": "",
          "type": "uint256"
        }
      ],
      "stateMutability": "view",
      "type": "function"
    },
    {
      "inputs": [],
      "name": "owner",
      "outputs": [
        {
          "internalType": "address",
          "name": "",
          "type": "address"
        }
      ],
      "stateMutability": "view",
      "type": "function"
    },
    {
      "inputs": [],
      "name": "renounceOwnership",
      "outputs": [],
      "stateMutability": "nonpayable",
      "type": "function"
    },
    {
      "inputs": [
        {
          "internalType": "address",
          "name": "_stakeCore",
          "type": "address"
        },
        {
          "internalType": "address",
          "name": "_foundation",
          "type": "address"
        },
        {
          "internalType": "address",
          "name": "_founder",
          "type": "address"
        },
        {
          "internalType": "address",
          "name": "_dLevelPool",
          "type": "address"
        }
      ],
      "name": "setAddresses",
      "outputs": [],
      "stateMutability": "nonpayable",
      "type": "function"
    },
    {
      "inputs": [
        {
          "internalType": "address",
          "name": "_admin",
          "type": "address"
        }
      ],
      "name": "setAdminContract",
      "outputs": [],
      "stateMutability": "nonpayable",
      "type": "function"
    },
    {
      "inputs": [
        {
          "internalType": "address",
          "name": "_dLevelPool",
          "type": "address"
        }
      ],
      "name": "setDLevelPool",
      "outputs": [],
      "stateMutability": "nonpayable",
      "type": "function"
    },
    {
      "inputs": [
        {
          "internalType": "uint256",
          "name": "_initialTotalSupply",
          "type": "uint256"
        }
      ],
      "name": "setInitialTotalSupply",
      "outputs": [],
      "stateMutability": "nonpayable",
      "type": "function"
    },
    {
      "inputs": [
        {
          "internalType": "uint256",
          "name": "_time",
          "type": "uint256"
        }
      ],
      "name": "setLastMineTime",
      "outputs": [],
      "stateMutability": "nonpayable",
      "type": "function"
    },
    {
      "inputs": [
        {
          "internalType": "address",
          "name": "_partner",
          "type": "address"
        }
      ],
      "name": "setPartnerAddress",
      "outputs": [],
      "stateMutability": "nonpayable",
      "type": "function"
    },
    {
      "inputs": [
        {
          "internalType": "uint256",
          "name": "_lp",
          "type": "uint256"
        },
        {
          "internalType": "uint256",
          "name": "_node",
          "type": "uint256"
        },
        {
          "internalType": "uint256",
          "name": "_dLevel",
          "type": "uint256"
        },
        {
          "internalType": "uint256",
          "name": "_foundation",
          "type": "uint256"
        },
        {
          "internalType": "uint256",
          "name": "_founder",
          "type": "uint256"
        }
      ],
      "name": "setRatios",
      "outputs": [],
      "stateMutability": "nonpayable",
      "type": "function"
    },
    {
      "inputs": [],
      "name": "stakeCore",
      "outputs": [
        {
          "internalType": "address",
          "name": "",
          "type": "address"
        }
      ],
      "stateMutability": "view",
      "type": "function"
    },
    {
      "inputs": [],
      "name": "totalBurned",
      "outputs": [
        {
          "internalType": "uint256",
          "name": "",
          "type": "uint256"
        }
      ],
      "stateMutability": "view",
      "type": "function"
    },
    {
      "inputs": [],
      "name": "totalDistributed",
      "outputs": [
        {
          "internalType": "uint256",
          "name": "",
          "type": "uint256"
        }
      ],
      "stateMutability": "view",
      "type": "function"
    },
    {
      "inputs": [],
      "name": "totalMined",
      "outputs": [
        {
          "internalType": "uint256",
          "name": "",
          "type": "uint256"
        }
      ],
      "stateMutability": "view",
      "type": "function"
    },
    {
      "inputs": [
        {
          "internalType": "address",
          "name": "newOwner",
          "type": "address"
        }
      ],
      "name": "transferOwnership",
      "outputs": [],
      "stateMutability": "nonpayable",
      "type": "function"
    },
    {
      "inputs": [
        {
          "internalType": "address",
          "name": "to",
          "type": "address"
        },
        {
          "internalType": "uint256",
          "name": "amount",
          "type": "uint256"
        }
      ],
      "name": "withdrawNodeReward",
      "outputs": [],
      "stateMutability": "nonpayable",
      "type": "function"
    },
    {
      "stateMutability": "payable",
      "type": "receive"
    }
  ],
  "bytecode": "0x60806040526117706007556105dc6008556105786009556101f4600a55610258600b5534801561002d575f5ffd5b50604051611f07380380611f0783398101604081905261004c91610160565b338061007157604051631e4fbdf760e01b81525f600482015260240160405180910390fd5b61007a816100f6565b5060017f9b779b17422d0df92223018b32b4d1fa46e071723d6817e2486d003becc55f0055600180546001600160a01b039586166001600160a01b031991821617909155600280549486169482169490941790935560038054928516928416929092179091556004805491909316911617905542600c556101b1565b5f80546001600160a01b038381166001600160a01b0319831681178455604051919092169283917f8be0079c531659141344cd1fd0a4f28419497f9722a3daafe3b4186f6b6457e09190a35050565b80516001600160a01b038116811461015b575f5ffd5b919050565b5f5f5f5f60808587031215610173575f5ffd5b61017c85610145565b935061018a60208601610145565b925061019860408601610145565b91506101a660608601610145565b905092959194509250565b611d49806101be5f395ff3fe608060405260043610610215575f3560e01c80638da5cb5b1161011e578063d89135cd116100a8578063f043369b1161006d578063f043369b146105b9578063f0c9e87a146105d8578063f2fde38b146105ed578063f70b6f8c1461060c578063f98f573514610621575f5ffd5b8063d89135cd1461053d578063e078e9f714610552578063e63ea40814610571578063eaf2d02f14610590578063efca2eed146105a4575f5ffd5b8063a10770af116100ee578063a10770af1461049a578063abc474f5146104d6578063abd70aa2146104f5578063b91e315114610509578063c05c5e941461051e575f5ffd5b80638da5cb5b1461041f57806397dec9901461043b57806399f4b251146104505780639a18b29014610464575f5ffd5b8063405655ef1161019f578063514398421161016f57806351439842146103a35780635556db65146103b857806363a812f9146103cd578063715018a6146103ec57806384aab02f14610400575f5ffd5b8063405655ef1461033157806341fbb050146103465780634a945f8d146103655780634d853ee514610384575f5ffd5b80632e6e800b116101e55780632e6e800b1461029d578063311028af146102bc57806334ce4fb6146102d1578063395efb61146103085780633aa0666a1461031c575f5ffd5b80630307d88f146102205780632a29936c146102415780632a7cb1f3146102695780632db67cc81461027e575f5ffd5b3661021c57005b5f5ffd5b34801561022b575f5ffd5b5061023f61023a366004611ac8565b610640565b005b34801561024c575f5ffd5b50610256600a5481565b6040519081526020015b60405180910390f35b348015610274575f5ffd5b50610256600b5481565b348015610289575f5ffd5b5061023f610298366004611ae8565b61066a565b3480156102a8575f5ffd5b5061023f6102b7366004611ac8565b6106cb565b3480156102c7575f5ffd5b5061025660115481565b3480156102dc575f5ffd5b506005546102f0906001600160a01b031681565b6040516001600160a01b039091168152602001610260565b348015610313575f5ffd5b50610256603281565b348015610327575f5ffd5b50610256611f4081565b34801561033c575f5ffd5b50610256600c5481565b348015610351575f5ffd5b506003546102f0906001600160a01b031681565b348015610370575f5ffd5b5061023f61037f366004611aff565b6106f5565b34801561038f575f5ffd5b506004546102f0906001600160a01b031681565b3480156103ae575f5ffd5b5061025660105481565b3480156103c3575f5ffd5b50610256600d5481565b3480156103d8575f5ffd5b5061023f6103e7366004611ac8565b610799565b3480156103f7575f5ffd5b5061023f6107c3565b34801561040b575f5ffd5b506002546102f0906001600160a01b031681565b34801561042a575f5ffd5b505f546001600160a01b03166102f0565b348015610446575f5ffd5b5061025660095481565b34801561045b575f5ffd5b5061023f6107d6565b34801561046f575f5ffd5b50610478610d03565b6040805194855260208501939093529183015215156060820152608001610260565b3480156104a5575f5ffd5b506104ae610d71565b604080519586526020860194909452928401919091526060830152608082015260a001610260565b3480156104e1575f5ffd5b5061023f6104f0366004611b50565b610ded565b348015610500575f5ffd5b50610256610f74565b348015610514575f5ffd5b5061025660085481565b348015610529575f5ffd5b506006546102f0906001600160a01b031681565b348015610548575f5ffd5b50610256600e5481565b34801561055d575f5ffd5b5061023f61056c366004611b78565b611025565b34801561057c575f5ffd5b5061023f61058b366004611baf565b6110b0565b34801561059b575f5ffd5b50610256600d81565b3480156105af575f5ffd5b50610256600f5481565b3480156105c4575f5ffd5b506001546102f0906001600160a01b031681565b3480156105e3575f5ffd5b50610256610bb881565b3480156105f8575f5ffd5b5061023f610607366004611ac8565b61116f565b348015610617575f5ffd5b5061025660075481565b34801561062c575f5ffd5b5061023f61063b366004611ae8565b6111ac565b61064861122d565b600580546001600160a01b0319166001600160a01b0392909216919091179055565b5f546001600160a01b031633148061068c57506006546001600160a01b031633145b6106c65760405162461bcd60e51b815260206004820152600660248201526510b7bbb732b960d11b60448201526064015b60405180910390fd5b600c55565b6106d361122d565b600480546001600160a01b0319166001600160a01b0392909216919091179055565b6106fd61122d565b600280546001600160a01b038681166001600160a01b031992831681179093556003805487831690841681179091556004805487841690851681179091556005805493871693909416831790935560408051948552602085019190915283019190915260608201527fe7f1e29027b4298553dad8ade3a393a72a03cb9d19367a50a09b7e4ad9f7c796906080015b60405180910390a150505050565b6107a161122d565b600680546001600160a01b0319166001600160a01b0392909216919091179055565b6107cb61122d565b6107d45f611259565b565b6107de6112a8565b5f601154116108285760405162461bcd60e51b8152602060048201526016602482015275125b9a5d1a585b081cdd5c1c1b1e481b9bdd081cd95d60521b60448201526064016106bd565b600c546108389062015180611bfd565b4210156108735760405162461bcd60e51b8152602060048201526009602482015268546f6f206561726c7960b81b60448201526064016106bd565b5f600d546011546108849190611c16565b9050805f03610897575042600c55610cda565b5f6127106108a6600d84611c29565b6108b09190611c40565b9050805f036108c457505042600c55610cda565b818111156108cf5750805b5f6108d86112d6565b90505f6127106108e88385611c29565b6108f29190611c40565b90505f6108ff8285611c16565b905042600c8190555083600d5f8282546109199190611bfd565b9250508190555081600e5f8282546109319190611bfd565b9250508190555080600f5f8282546109499190611bfd565b909155505060108054905f61095d83611c5f565b909155505060408051600580825260c082019092525f916020820160a080368337505060408051600580825260c082019092529293505f9291506020820160a080368337505060025484519293506001600160a01b0316918491505f906109c6576109c6611c77565b60200260200101906001600160a01b031690816001600160a01b031681525050612710600754846109f79190611c29565b610a019190611c40565b815f81518110610a1357610a13611c77565b6020026020010181815250503082600181518110610a3357610a33611c77565b60200260200101906001600160a01b031690816001600160a01b03168152505061271060085484610a649190611c29565b610a6e9190611c40565b81600181518110610a8157610a81611c77565b602090810291909101015260055482516001600160a01b039091169083906002908110610ab057610ab0611c77565b60200260200101906001600160a01b031690816001600160a01b03168152505061271060095484610ae19190611c29565b610aeb9190611c40565b81600281518110610afe57610afe611c77565b60209081029190910101526003805483516001600160a01b039091169184918110610b2b57610b2b611c77565b60200260200101906001600160a01b031690816001600160a01b031681525050612710600a5484610b5c9190611c29565b610b669190611c40565b81600381518110610b7957610b79611c77565b60209081029190910101526004805483516001600160a01b039091169184918110610ba657610ba6611c77565b60200260200101906001600160a01b031690816001600160a01b03168152505080600381518110610bd957610bd9611c77565b602002602001015181600281518110610bf457610bf4611c77565b602002602001015182600181518110610c0f57610c0f611c77565b6020026020010151835f81518110610c2957610c29611c77565b602002602001015186610c3c9190611c16565b610c469190611c16565b610c509190611c16565b610c5a9190611c16565b81600481518110610c6d57610c6d611c77565b602002602001018181525050610c84848383611309565b6040805187815260208101869052908101849052606081018690524260808201527fd48591c0b38848057d65c072802d9172b5a51fd2c4ea6e6729276c0efe2399d59060a00160405180910390a1505050505050505b6107d460017f9b779b17422d0df92223018b32b4d1fa46e071723d6817e2486d003becc55f0055565b5f5f5f5f610d0f6112d6565b9250610bb88311610d2257610bb8610d2d565b610d2d603284611c16565b9150600c5462015180610d409190611bfd565b42101590505f610d4e610f74565b9050612710610d5e600d83611c29565b610d689190611c40565b94505090919293565b5f5f5f5f5f600c5462015180610d879190611bfd565b9450610d916112d6565b93505f600d54601154610da49190611c16565b9050612710610db4600d83611c29565b610dbe9190611c40565b9350612710610dcd8686611c29565b610dd79190611c40565b9250610de38385611c16565b9150509091929394565b5f546001600160a01b0316331480610e0f57506002546001600160a01b031633145b610e4c5760405162461bcd60e51b815260206004820152600e60248201526d139bdd08185d5d1a1bdc9a5e995960921b60448201526064016106bd565b6001546040516370a0823160e01b815230600482015282916001600160a01b0316906370a0823190602401602060405180830381865afa158015610e92573d5f5f3e3d5ffd5b505050506040513d601f19601f82011682018060405250810190610eb69190611c8b565b1015610efb5760405162461bcd60e51b8152602060048201526014602482015273496e73756666696369656e742062616c616e636560601b60448201526064016106bd565b60015460405163a9059cbb60e01b81526001600160a01b038481166004830152602482018490529091169063a9059cbb906044016020604051808303815f875af1158015610f4b573d5f5f3e3d5ffd5b505050506040513d601f19601f82011682018060405250810190610f6f9190611ca2565b505050565b60015460408051600481526024810182526020810180516001600160e01b031663258d975160e21b17905290515f92839283926001600160a01b0390921691610fbd9190611cc1565b5f60405180830381855afa9150503d805f8114610ff5576040519150601f19603f3d011682016040523d82523d5f602084013e610ffa565b606091505b50915091508161100a575f61101e565b8080602001905181019061101e9190611c8b565b9250505090565b61102d61122d565b80828461103a8789611bfd565b6110449190611bfd565b61104e9190611bfd565b6110589190611bfd565b612710146110995760405162461bcd60e51b815260206004820152600e60248201526d496e76616c696420726174696f7360901b60448201526064016106bd565b600794909455600892909255600955600a55600b55565b6110b861122d565b6001600160a01b0383166110ff576040516001600160a01b0383169082156108fc029083905f818181858888f193505050501580156110f9573d5f5f3e3d5ffd5b50505050565b60405163a9059cbb60e01b81526001600160a01b0383811660048301526024820183905284169063a9059cbb906044016020604051808303815f875af115801561114b573d5f5f3e3d5ffd5b505050506040513d601f19601f820116820180604052508101906110f99190611ca2565b61117761122d565b6001600160a01b0381166111a057604051631e4fbdf760e01b81525f60048201526024016106bd565b6111a981611259565b50565b6111b461122d565b601154156111f25760405162461bcd60e51b815260206004820152600b60248201526a105b1c9958591e481cd95d60aa1b60448201526064016106bd565b60118190556040518181527f9f3cb42384148de58b723104e79108cdd974b2185b03421f201530f9cefb1fda9060200160405180910390a150565b5f546001600160a01b031633146107d45760405163118cdaa760e01b81523360048201526024016106bd565b5f80546001600160a01b038381166001600160a01b0319831681178455604051919092169283917f8be0079c531659141344cd1fd0a4f28419497f9722a3daafe3b4186f6b6457e09190a35050565b6112b061197b565b60027f9b779b17422d0df92223018b32b4d1fa46e071723d6817e2486d003becc55f0055565b5f5f60326010546112e79190611c29565b6112f390611f40611c16565b9050610bb88110156113045750610bb85b919050565b82156113df57600154604051602481018590525f916001600160a01b03169060440160408051601f198184030181529181526020820180516001600160e01b03166343f691c560e11b179052516113609190611cc1565b5f604051808303815f865af19150503d805f8114611399576040519150601f19603f3d011682016040523d82523d5f602084013e61139e565b606091505b50509050806113dd5760405162461bcd60e51b815260206004820152600b60248201526a109d5c9b8819985a5b195960aa1b60448201526064016106bd565b505b5f5b82518110156115e4575f8282815181106113fd576113fd611c77565b602002602001015111801561143d57505f6001600160a01b031683828151811061142957611429611c77565b60200260200101516001600160a01b031614155b156115dc5760015483515f916001600160a01b03169085908490811061146557611465611c77565b602002602001015184848151811061147f5761147f611c77565b60209081029190910101516040516001600160a01b039092166024830152604482015260640160408051601f198184030181529181526020820180516001600160e01b0316632ca22b5160e11b179052516114da9190611cc1565b5f604051808303815f865af19150503d805f8114611513576040519150601f19603f3d011682016040523d82523d5f602084013e611518565b606091505b505090508061155d5760405162461bcd60e51b8152602060048201526011602482015270111a5cdd1c9a589d5d194819985a5b1959607a1b60448201526064016106bd565b83828151811061156f5761156f611c77565b60200260200101516001600160a01b03167f47714254e397bde20b4476b8b5286e7544e5a68bd543b61696f2d497dea02eb78484815181106115b3576115b3611c77565b60200260200101516115c4856119bd565b6040516115d2929190611cd7565b60405180910390a2505b6001016113e1565b505f815f815181106115f8576115f8611c77565b602002602001015111156117175760025481515f916001600160a01b0316908390839061162757611627611c77565b602002602001015160405160240161164191815260200190565b60408051601f198184030181529181526020820180516001600160e01b031663450b545760e01b179052516116769190611cc1565b5f604051808303815f865af19150503d805f81146116af576040519150601f19603f3d011682016040523d82523d5f602084013e6116b4565b606091505b505090507f3c04558e842d268d4273a64c5ebde7c15342daa33aefce8a06737d4bc6570256825f815181106116eb576116eb611c77565b60200260200101518260405161170d9291909182521515602082015260400190565b60405180910390a1505b5f8160018151811061172b5761172b611c77565b6020026020010151111561184e5760025481515f916001600160a01b0316908390600190811061175d5761175d611c77565b602002602001015160405160240161177791815260200190565b60408051601f198184030181529181526020820180516001600160e01b031663235d866b60e11b179052516117ac9190611cc1565b5f604051808303815f865af19150503d805f81146117e5576040519150601f19603f3d011682016040523d82523d5f602084013e6117ea565b606091505b505090507fda3976d8961ac1d5b7605b7c053d2ca5ed7a00aac0d26813141c9f58fe00f6c68260018151811061182257611822611c77565b6020026020010151826040516118449291909182521515602082015260400190565b60405180910390a1505b5f8160028151811061186257611862611c77565b60200260200101511115610f6f576002805482515f926001600160a01b03909216918491811061189457611894611c77565b60200260200101516040516024016118ae91815260200190565b60408051601f198184030181529181526020820180516001600160e01b0316633e42ddb160e11b179052516118e39190611cc1565b5f604051808303815f865af19150503d805f811461191c576040519150601f19603f3d011682016040523d82523d5f602084013e611921565b606091505b505090507ff12f589d3db83bf5fb8345750b59dda75dc9fe19db32370b51799312a41d77c18260028151811061195957611959611c77565b60200260200101518260405161078b9291909182521515602082015260400190565b7f9b779b17422d0df92223018b32b4d1fa46e071723d6817e2486d003becc55f00546002036107d457604051633ee5aeb560e01b815260040160405180910390fd5b6060815f036119e457505060408051808201909152600281526104c560f41b602082015290565b81600103611a0c5750506040805180820190915260048152634e6f646560e01b602082015290565b81600203611a365750506040805180820190915260068152651113195d995b60d21b602082015290565b81600303611a6457505060408051808201909152600a8152692337bab73230ba34b7b760b11b602082015290565b81600403611a8f5750506040805180820190915260078152662337bab73232b960c91b602082015290565b50506040805180820190915260078152662ab735b737bbb760c91b602082015290565b80356001600160a01b0381168114611304575f5ffd5b5f60208284031215611ad8575f5ffd5b611ae182611ab2565b9392505050565b5f60208284031215611af8575f5ffd5b5035919050565b5f5f5f5f60808587031215611b12575f5ffd5b611b1b85611ab2565b9350611b2960208601611ab2565b9250611b3760408601611ab2565b9150611b4560608601611ab2565b905092959194509250565b5f5f60408385031215611b61575f5ffd5b611b6a83611ab2565b946020939093013593505050565b5f5f5f5f5f60a08688031215611b8c575f5ffd5b505083359560208501359550604085013594606081013594506080013592509050565b5f5f5f60608486031215611bc1575f5ffd5b611bca84611ab2565b9250611bd860208501611ab2565b929592945050506040919091013590565b634e487b7160e01b5f52601160045260245ffd5b80820180821115611c1057611c10611be9565b92915050565b81810381811115611c1057611c10611be9565b8082028115828204841417611c1057611c10611be9565b5f82611c5a57634e487b7160e01b5f52601260045260245ffd5b500490565b5f60018201611c7057611c70611be9565b5060010190565b634e487b7160e01b5f52603260045260245ffd5b5f60208284031215611c9b575f5ffd5b5051919050565b5f60208284031215611cb2575f5ffd5b81518015158114611ae1575f5ffd5b5f82518060208501845e5f920191825250919050565b828152604060208201525f82518060408401528060208501606085015e5f606082850101526060601f19601f830116840101915050939250505056fea264697066735822122049cddf345aa034e0a2486e58a73c1f103a1fc5dc4a8da91f26f1a7f943fc360064736f6c63430008230033",
  "linkReferences": {},
  "deployedLinkReferences": {}
}