{
  "_format": "hh-sol-artifact-1",
  "contractName": "MockERC20Token",
  "sourceName": "src/mocks/DQMiningTestMocks.sol",
  "abi": [
    {
      "anonymous": false,
      "inputs": [
        {
          "indexed": true,
          "internalType": "address",
          "name": "owner",
          "type": "address"
        },
        {
          "indexed": true,
          "internalType": "address",
          "name": "spender",
          "type": "address"
        },
        {
          "indexed": false,
          "internalType": "uint256",
          "name": "value",
          "type": "uint256"
        }
      ],
      "name": "Approval",
      "type": "event"
    },
    {
      "anonymous": false,
      "inputs": [
        {
          "indexed": true,
          "internalType": "address",
          "name": "from",
          "type": "address"
        },
        {
          "indexed": true,
          "internalType": "address",
          "name": "to",
          "type": "address"
        },
        {
          "indexed": false,
          "internalType": "uint256",
          "name": "value",
          "type": "uint256"
        }
      ],
      "name": "Transfer",
      "type": "event"
    },
    {
      "inputs": [
        {
          "internalType": "address",
          "name": "",
          "type": "address"
        },
        {
          "internalType": "address",
          "name": "",
          "type": "address"
        }
      ],
      "name": "allowance",
      "outputs": [
        {
          "internalType": "uint256",
          "name": "",
          "type": "uint256"
        }
      ],
      "stateMutability": "view",
      "type": "function"
    },
    {
      "inputs": [
        {
          "internalType": "address",
          "name": "spender",
          "type": "address"
        },
        {
          "internalType": "uint256",
          "name": "amount",
          "type": "uint256"
        }
      ],
      "name": "approve",
      "outputs": [
        {
          "internalType": "bool",
          "name": "",
          "type": "bool"
        }
      ],
      "stateMutability": "nonpayable",
      "type": "function"
    },
    {
      "inputs": [
        {
          "internalType": "address",
          "name": "",
          "type": "address"
        }
      ],
      "name": "balanceOf",
      "outputs": [
        {
          "internalType": "uint256",
          "name": "",
          "type": "uint256"
        }
      ],
      "stateMutability": "view",
      "type": "function"
    },
    {
      "inputs": [
        {
          "internalType": "uint256",
          "name": "amount",
          "type": "uint256"
        }
      ],
      "name": "burn",
      "outputs": [],
      "stateMutability": "nonpayable",
      "type": "function"
    },
    {
      "inputs": [
        {
          "internalType": "uint256",
          "name": "amount",
          "type": "uint256"
        }
      ],
      "name": "burnFromPool",
      "outputs": [],
      "stateMutability": "nonpayable",
      "type": "function"
    },
    {
      "inputs": [],
      "name": "decimals",
      "outputs": [
        {
          "internalType": "uint8",
          "name": "",
          "type": "uint8"
        }
      ],
      "stateMutability": "view",
      "type": "function"
    },
    {
      "inputs": [
        {
          "internalType": "address",
          "name": "to",
          "type": "address"
        },
        {
          "internalType": "uint256",
          "name": "amount",
          "type": "uint256"
        }
      ],
      "name": "distributeFromPool",
      "outputs": [],
      "stateMutability": "nonpayable",
      "type": "function"
    },
    {
      "inputs": [
        {
          "internalType": "string",
          "name": "_name",
          "type": "string"
        },
        {
          "internalType": "string",
          "name": "_symbol",
          "type": "string"
        },
        {
          "internalType": "uint8",
          "name": "_decimals",
          "type": "uint8"
        }
      ],
      "name": "initialize",
      "outputs": [],
      "stateMutability": "nonpayable",
      "type": "function"
    },
    {
      "inputs": [
        {
          "internalType": "address",
          "name": "to",
          "type": "address"
        },
        {
          "internalType": "uint256",
          "name": "amount",
          "type": "uint256"
        }
      ],
      "name": "mint",
      "outputs": [],
      "stateMutability": "nonpayable",
      "type": "function"
    },
    {
      "inputs": [],
      "name": "name",
      "outputs": [
        {
          "internalType": "string",
          "name": "",
          "type": "string"
        }
      ],
      "stateMutability": "view",
      "type": "function"
    },
    {
      "inputs": [],
      "name": "symbol",
      "outputs": [
        {
          "internalType": "string",
          "name": "",
          "type": "string"
        }
      ],
      "stateMutability": "view",
      "type": "function"
    },
    {
      "inputs": [],
      "name": "totalSupply",
      "outputs": [
        {
          "internalType": "uint256",
          "name": "",
          "type": "uint256"
        }
      ],
      "stateMutability": "view",
      "type": "function"
    },
    {
      "inputs": [
        {
          "internalType": "address",
          "name": "to",
          "type": "address"
        },
        {
          "internalType": "uint256",
          "name": "amount",
          "type": "uint256"
        }
      ],
      "name": "transfer",
      "outputs": [
        {
          "internalType": "bool",
          "name": "",
          "type": "bool"
        }
      ],
      "stateMutability": "nonpayable",
      "type": "function"
    },
    {
      "inputs": [
        {
          "internalType": "address",
          "name": "from",
          "type": "address"
        },
        {
          "internalType": "address",
          "name": "to",
          "type": "address"
        },
        {
          "internalType": "uint256",
          "name": "amount",
          "type": "uint256"
        }
      ],
      "name": "transferFrom",
      "outputs": [
        {
          "internalType": "bool",
          "name": "",
          "type": "bool"
        }
      ],
      "stateMutability": "nonpayable",
      "type": "function"
    }
  ],
  "bytecode": "0x6080604052348015600e575f5ffd5b50610c8f8061001c5f395ff3fe608060405234801561000f575f5ffd5b50600436106100e5575f3560e01c806342966c681161008857806387ed238a1161006357806387ed238a146101e057806395d89b41146101f3578063a9059cbb146101fb578063dd62ed3e1461020e575f5ffd5b806342966c681461019b578063594456a2146101ae57806370a08231146101c1575f5ffd5b806318160ddd116100c357806318160ddd1461013f57806323b872dd14610156578063313ce5671461016957806340c10f1914610188575f5ffd5b806306fdde03146100e9578063095ea7b3146101075780631624f6c61461012a575b5f5ffd5b6100f1610238565b6040516100fe919061087b565b60405180910390f35b61011a6101153660046108cb565b6102c3565b60405190151581526020016100fe565b61013d610138366004610992565b61032f565b005b61014860035481565b6040519081526020016100fe565b61011a610164366004610a0f565b6103b3565b6002546101769060ff1681565b60405160ff90911681526020016100fe565b61013d6101963660046108cb565b6104a1565b61013d6101a9366004610a49565b610517565b61013d6101bc3660046108cb565b6105d7565b6101486101cf366004610a60565b60046020525f908152604090205481565b61013d6101ee366004610a49565b610704565b6100f1610762565b61011a6102093660046108cb565b61076f565b61014861021c366004610a80565b600560209081525f928352604080842090915290825290205481565b5f805461024490610ab1565b80601f016020809104026020016040519081016040528092919081815260200182805461027090610ab1565b80156102bb5780601f10610292576101008083540402835291602001916102bb565b820191905f5260205f20905b81548152906001019060200180831161029e57829003601f168201915b505050505081565b335f8181526005602090815260408083206001600160a01b038716808552925280832085905551919290917f8c5be1e5ebec7d5bd14f71427d1e84f3dd0314c0f7b2291e5b200ac8c7c3b9259061031d9086815260200190565b60405180910390a35060015b92915050565b60065460ff16156103755760405162461bcd60e51b815260206004820152600b60248201526a1a5b9a5d1a585b1a5e995960aa1b60448201526064015b60405180910390fd5b6006805460ff191660011790555f61038d8482610b40565b50600161039a8382610b40565b506002805460ff191660ff929092169190911790555050565b6001600160a01b0383165f9081526005602090815260408083203384529091528120548281101561041f5760405162461bcd60e51b8152602060048201526016602482015275696e73756666696369656e7420616c6c6f77616e636560501b604482015260640161036c565b5f19811461048b576104318382610c13565b6001600160a01b0386165f81815260056020908152604080832033808552908352928190208590555193845290927f8c5be1e5ebec7d5bd14f71427d1e84f3dd0314c0f7b2291e5b200ac8c7c3b925910160405180910390a35b610496858585610784565b506001949350505050565b6001600160a01b0382165f90815260046020526040812080548392906104c8908490610c26565b925050819055508060035f8282546104e09190610c26565b90915550506040518181526001600160a01b038316905f905f516020610c3a5f395f51905f52906020015b60405180910390a35050565b335f908152600460205260409020548111156105755760405162461bcd60e51b815260206004820152601b60248201527f6275726e20616d6f756e7420657863656564732062616c616e63650000000000604482015260640161036c565b335f9081526004602052604081208054839290610593908490610c13565b925050819055508060035f8282546105ab9190610c13565b90915550506040518181525f9033905f516020610c3a5f395f51905f529060200160405180910390a350565b6001600160a01b03821661062d5760405162461bcd60e51b815260206004820152601d60248201527f6469737472696275746546726f6d506f6f6c3a207a65726f2061646472000000604482015260640161036c565b335f9081526004602052604090205481111561068b5760405162461bcd60e51b815260206004820181905260248201527f6469737472696275746546726f6d506f6f6c3a20696e73756666696369656e74604482015260640161036c565b335f90815260046020526040812080548392906106a9908490610c13565b90915550506001600160a01b0382165f90815260046020526040812080548392906106d5908490610c26565b90915550506040518181526001600160a01b0383169033905f516020610c3a5f395f51905f529060200161050b565b335f908152600460205260409020548111156105755760405162461bcd60e51b815260206004820152601a60248201527f6275726e46726f6d506f6f6c3a20696e73756666696369656e74000000000000604482015260640161036c565b6001805461024490610ab1565b5f61077b338484610784565b50600192915050565b6001600160a01b0383165f908152600460205260409020548111156107e25760405162461bcd60e51b8152602060048201526014602482015273696e73756666696369656e742062616c616e636560601b604482015260640161036c565b6001600160a01b0383165f9081526004602052604081208054839290610809908490610c13565b90915550506001600160a01b0382165f9081526004602052604081208054839290610835908490610c26565b92505081905550816001600160a01b0316836001600160a01b03165f516020610c3a5f395f51905f528360405161086e91815260200190565b60405180910390a3505050565b602081525f82518060208401528060208501604085015e5f604082850101526040601f19601f83011684010191505092915050565b80356001600160a01b03811681146108c6575f5ffd5b919050565b5f5f604083850312156108dc575f5ffd5b6108e5836108b0565b946020939093013593505050565b634e487b7160e01b5f52604160045260245ffd5b5f82601f830112610916575f5ffd5b813567ffffffffffffffff811115610930576109306108f3565b604051601f8201601f19908116603f0116810167ffffffffffffffff8111828210171561095f5761095f6108f3565b604052818152838201602001851015610976575f5ffd5b816020850160208301375f918101602001919091529392505050565b5f5f5f606084860312156109a4575f5ffd5b833567ffffffffffffffff8111156109ba575f5ffd5b6109c686828701610907565b935050602084013567ffffffffffffffff8111156109e2575f5ffd5b6109ee86828701610907565b925050604084013560ff81168114610a04575f5ffd5b809150509250925092565b5f5f5f60608486031215610a21575f5ffd5b610a2a846108b0565b9250610a38602085016108b0565b929592945050506040919091013590565b5f60208284031215610a59575f5ffd5b5035919050565b5f60208284031215610a70575f5ffd5b610a79826108b0565b9392505050565b5f5f60408385031215610a91575f5ffd5b610a9a836108b0565b9150610aa8602084016108b0565b90509250929050565b600181811c90821680610ac557607f821691505b602082108103610ae357634e487b7160e01b5f52602260045260245ffd5b50919050565b601f821115610b3b5782821115610b3b57805f5260205f20601f840160051c6020851015610b1457505f5b90810190601f840160051c035f5b81811015610b37575f83820155600101610b22565b5050505b505050565b815167ffffffffffffffff811115610b5a57610b5a6108f3565b610b6e81610b688454610ab1565b84610ae9565b6020601f821160018114610ba0575f8315610b895750848201515b5f19600385901b1c1916600184901b178455610bf8565b5f84815260208120601f198516915b82811015610bcf5787850151825560209485019460019092019101610baf565b5084821015610bec57868401515f19600387901b60f8161c191681555b505060018360011b0184555b5050505050565b634e487b7160e01b5f52601160045260245ffd5b8181038181111561032957610329610bff565b8082018082111561032957610329610bff56feddf252ad1be2c89b69c2b068fc378daa952ba7f163c4a11628f55a4df523b3efa2646970667358221220b528cffd71e203e47e87567d598637d3f0aa192759080b7bce14fee2738ceb4164736f6c63430008230033",
  "linkReferences": {},
  "deployedLinkReferences": {}
}