{
  "_format": "hh-sol-artifact-1",
  "contractName": "MockPancakeRouterV3",
  "sourceName": "src/mocks/DQMiningTestMocks.sol",
  "abi": [
    {
      "inputs": [
        {
          "internalType": "address",
          "name": "tokenA",
          "type": "address"
        },
        {
          "internalType": "address",
          "name": "tokenB",
          "type": "address"
        },
        {
          "internalType": "uint256",
          "name": "amountADesired",
          "type": "uint256"
        },
        {
          "internalType": "uint256",
          "name": "amountBDesired",
          "type": "uint256"
        },
        {
          "internalType": "uint256",
          "name": "",
          "type": "uint256"
        },
        {
          "internalType": "uint256",
          "name": "",
          "type": "uint256"
        },
        {
          "internalType": "address",
          "name": "to",
          "type": "address"
        },
        {
          "internalType": "uint256",
          "name": "",
          "type": "uint256"
        }
      ],
      "name": "addLiquidity",
      "outputs": [
        {
          "internalType": "uint256",
          "name": "amountA",
          "type": "uint256"
        },
        {
          "internalType": "uint256",
          "name": "amountB",
          "type": "uint256"
        },
        {
          "internalType": "uint256",
          "name": "liquidity",
          "type": "uint256"
        }
      ],
      "stateMutability": "nonpayable",
      "type": "function"
    },
    {
      "inputs": [
        {
          "internalType": "uint256",
          "name": "amountIn",
          "type": "uint256"
        },
        {
          "internalType": "address[]",
          "name": "path",
          "type": "address[]"
        }
      ],
      "name": "getAmountsOut",
      "outputs": [
        {
          "internalType": "uint256[]",
          "name": "amounts",
          "type": "uint256[]"
        }
      ],
      "stateMutability": "pure",
      "type": "function"
    },
    {
      "inputs": [
        {
          "internalType": "address",
          "name": "_lpToken",
          "type": "address"
        }
      ],
      "name": "initialize",
      "outputs": [],
      "stateMutability": "nonpayable",
      "type": "function"
    },
    {
      "inputs": [],
      "name": "lpToken",
      "outputs": [
        {
          "internalType": "address",
          "name": "",
          "type": "address"
        }
      ],
      "stateMutability": "view",
      "type": "function"
    },
    {
      "inputs": [
        {
          "internalType": "uint256",
          "name": "amountIn",
          "type": "uint256"
        },
        {
          "internalType": "uint256",
          "name": "",
          "type": "uint256"
        },
        {
          "internalType": "address[]",
          "name": "path",
          "type": "address[]"
        },
        {
          "internalType": "address",
          "name": "to",
          "type": "address"
        },
        {
          "internalType": "uint256",
          "name": "",
          "type": "uint256"
        }
      ],
      "name": "swapExactTokensForTokensSupportingFeeOnTransferTokens",
      "outputs": [],
      "stateMutability": "nonpayable",
      "type": "function"
    }
  ],
  "bytecode": "0x6080604052348015600e575f5ffd5b506107208061001c5f395ff3fe608060405234801561000f575f5ffd5b5060043610610055575f3560e01c80635c11d795146100595780635fcbd2851461006e578063c4d66de81461009d578063d06ca61f146100b0578063e8e33700146100d0575b5f5ffd5b61006c61006736600461051b565b6100fe565b005b5f54610080906001600160a01b031681565b6040516001600160a01b0390911681526020015b60405180910390f35b61006c6100ab366004610588565b61022b565b6100c36100be3660046105a8565b61029e565b60405161009491906105f0565b6100e36100de366004610632565b61033c565b60408051938452602084019290925290820152606001610094565b83835f818110610110576101106106a3565b90506020020160208101906101259190610588565b6040516323b872dd60e01b8152336004820152306024820152604481018890526001600160a01b0391909116906323b872dd906064016020604051808303815f875af1158015610177573d5f5f3e3d5ffd5b505050506040513d601f19601f8201168201806040525081019061019b91906106b7565b50838360018181106101af576101af6106a3565b90506020020160208101906101c49190610588565b6040516340c10f1960e01b81526001600160a01b0384811660048301526024820189905291909116906340c10f19906044015f604051808303815f87803b15801561020d575f5ffd5b505af115801561021f573d5f5f3e3d5ffd5b50505050505050505050565b5f54600160a01b900460ff16156102765760405162461bcd60e51b815260206004820152600b60248201526a1a5b9a5d1a585b1a5e995960aa1b604482015260640160405180910390fd5b5f80546001600160a01b039092166001600160a81b031990921691909117600160a01b179055565b60608167ffffffffffffffff8111156102b9576102b96106d6565b6040519080825280602002602001820160405280156102e2578160200160208202803683370190505b50905083815f815181106102f8576102f86106a3565b602090810291909101015260015b828110156103345784828281518110610321576103216106a3565b6020908102919091010152600101610306565b509392505050565b6040516323b872dd60e01b8152336004820152306024820152604481018790525f90819081906001600160a01b038c16906323b872dd906064016020604051808303815f875af1158015610392573d5f5f3e3d5ffd5b505050506040513d601f19601f820116820180604052508101906103b691906106b7565b506040516323b872dd60e01b8152336004820152306024820152604481018990526001600160a01b038b16906323b872dd906064016020604051808303815f875af1158015610407573d5f5f3e3d5ffd5b505050506040513d601f19601f8201168201806040525081019061042b91906106b7565b5088925087915087891061043f5787610441565b885b905080156104aa575f546040516340c10f1960e01b81526001600160a01b03878116600483015260248201849052909116906340c10f19906044015f604051808303815f87803b158015610493575f5ffd5b505af11580156104a5573d5f5f3e3d5ffd5b505050505b985098509895505050505050565b5f5f83601f8401126104c8575f5ffd5b50813567ffffffffffffffff8111156104df575f5ffd5b6020830191508360208260051b85010111156104f9575f5ffd5b9250929050565b80356001600160a01b0381168114610516575f5ffd5b919050565b5f5f5f5f5f5f60a08789031215610530575f5ffd5b8635955060208701359450604087013567ffffffffffffffff811115610554575f5ffd5b61056089828a016104b8565b9095509350610573905060608801610500565b95989497509295919493608090920135925050565b5f60208284031215610598575f5ffd5b6105a182610500565b9392505050565b5f5f5f604084860312156105ba575f5ffd5b83359250602084013567ffffffffffffffff8111156105d7575f5ffd5b6105e3868287016104b8565b9497909650939450505050565b602080825282518282018190525f918401906040840190835b81811015610627578351835260209384019390920191600101610609565b509095945050505050565b5f5f5f5f5f5f5f5f610100898b03121561064a575f5ffd5b61065389610500565b975061066160208a01610500565b965060408901359550606089013594506080890135935060a0890135925061068b60c08a01610500565b979a969950949793969295919450919260e001359150565b634e487b7160e01b5f52603260045260245ffd5b5f602082840312156106c7575f5ffd5b815180151581146105a1575f5ffd5b634e487b7160e01b5f52604160045260245ffdfea26469706673582212206b1899de3c7a4b1de62bfa1f17d2caf3226b289613d580fa5b6608bdd072310764736f6c63430008230033",
  "linkReferences": {},
  "deployedLinkReferences": {}
}