{
  "_format": "hh-sol-artifact-1",
  "contractName": "MockDQCard",
  "sourceName": "src/mocks/DQMiningTestMocks.sol",
  "abi": [
    {
      "inputs": [],
      "name": "PRICE_A",
      "outputs": [
        {
          "internalType": "uint256",
          "name": "",
          "type": "uint256"
        }
      ],
      "stateMutability": "view",
      "type": "function"
    },
    {
      "inputs": [],
      "name": "PRICE_B",
      "outputs": [
        {
          "internalType": "uint256",
          "name": "",
          "type": "uint256"
        }
      ],
      "stateMutability": "view",
      "type": "function"
    },
    {
      "inputs": [],
      "name": "PRICE_C",
      "outputs": [
        {
          "internalType": "uint256",
          "name": "",
          "type": "uint256"
        }
      ],
      "stateMutability": "view",
      "type": "function"
    },
    {
      "inputs": [
        {
          "internalType": "address",
          "name": "owner",
          "type": "address"
        }
      ],
      "name": "balanceOf",
      "outputs": [
        {
          "internalType": "uint256",
          "name": "",
          "type": "uint256"
        }
      ],
      "stateMutability": "view",
      "type": "function"
    },
    {
      "inputs": [
        {
          "internalType": "uint256",
          "name": "",
          "type": "uint256"
        }
      ],
      "name": "cardType",
      "outputs": [
        {
          "internalType": "uint256",
          "name": "",
          "type": "uint256"
        }
      ],
      "stateMutability": "view",
      "type": "function"
    },
    {
      "inputs": [
        {
          "internalType": "uint256",
          "name": "_type",
          "type": "uint256"
        }
      ],
      "name": "getCardPrice",
      "outputs": [
        {
          "internalType": "uint256",
          "name": "",
          "type": "uint256"
        }
      ],
      "stateMutability": "pure",
      "type": "function"
    },
    {
      "inputs": [
        {
          "internalType": "address",
          "name": "to",
          "type": "address"
        },
        {
          "internalType": "uint256",
          "name": "_type",
          "type": "uint256"
        }
      ],
      "name": "mintByOwner",
      "outputs": [],
      "stateMutability": "nonpayable",
      "type": "function"
    },
    {
      "inputs": [
        {
          "internalType": "address",
          "name": "owner",
          "type": "address"
        },
        {
          "internalType": "uint256",
          "name": "index",
          "type": "uint256"
        }
      ],
      "name": "tokenOfOwnerByIndex",
      "outputs": [
        {
          "internalType": "uint256",
          "name": "",
          "type": "uint256"
        }
      ],
      "stateMutability": "view",
      "type": "function"
    },
    {
      "inputs": [],
      "name": "totalA",
      "outputs": [
        {
          "internalType": "uint256",
          "name": "",
          "type": "uint256"
        }
      ],
      "stateMutability": "view",
      "type": "function"
    },
    {
      "inputs": [],
      "name": "totalB",
      "outputs": [
        {
          "internalType": "uint256",
          "name": "",
          "type": "uint256"
        }
      ],
      "stateMutability": "view",
      "type": "function"
    },
    {
      "inputs": [],
      "name": "totalC",
      "outputs": [
        {
          "internalType": "uint256",
          "name": "",
          "type": "uint256"
        }
      ],
      "stateMutability": "view",
      "type": "function"
    }
  ],
  "bytecode": "0x6080604052348015600e575f5ffd5b506103e68061001c5f395ff3fe608060405234801561000f575f5ffd5b50600436106100a6575f3560e01c80636866537d1161006e5780636866537d1461010d57806370a082311461012057806373cda3e414610148578063b629640b14610159578063d15dfe2d14610161578063fcf49adf1461016a575f5ffd5b806313eeea08146100aa578063193491b5146100cc5780632f745c59146100d55780633542aee2146100e857806353d79447146100fd575b5f5ffd5b6100ba681b1ae4d6e2ef50000081565b60405190815260200160405180910390f35b6100ba60015481565b6100ba6100e336600461031e565b610189565b6100fb6100f636600461031e565b6101c4565b005b6100ba685150ae84a8cdf0000081565b6100ba61011b366004610346565b6102c1565b6100ba61012e36600461035d565b6001600160a01b03165f9081526004602052604090205490565b6100ba69010f0cf064dd5920000081565b6100ba5f5481565b6100ba60025481565b6100ba610178366004610346565b60056020525f908152604090205481565b6001600160a01b0382165f9081526004602052604081208054839081106101b2576101b261037d565b905f5260205f20015490505b92915050565b600181101580156101d6575060038111155b6102155760405162461bcd60e51b815260206004820152600c60248201526b696e76616c6964207479706560a01b604482015260640160405180910390fd5b600160035f8282546102279190610391565b90915550506001600160a01b0382165f908152600460209081526040808320600380548254600181810185559387528587200155548452600590925290912082905581900361028c5760015f5f8282546102819190610391565b909155506102bd9050565b806002036102a5576001805f8282546102819190610391565b600160025f8282546102b79190610391565b90915550505b5050565b5f816001036102da5750681b1ae4d6e2ef500000919050565b816002036102f25750685150ae84a8cdf00000919050565b5069010f0cf064dd59200000919050565b80356001600160a01b0381168114610319575f5ffd5b919050565b5f5f6040838503121561032f575f5ffd5b61033883610303565b946020939093013593505050565b5f60208284031215610356575f5ffd5b5035919050565b5f6020828403121561036d575f5ffd5b61037682610303565b9392505050565b634e487b7160e01b5f52603260045260245ffd5b808201808211156101be57634e487b7160e01b5f52601160045260245ffdfea26469706673582212203aebe3c8f50f89ca8a3d0dcca4ff47bfb397e8687138f54480b4d651c8229a3964736f6c63430008230033",
  "linkReferences": {},
  "deployedLinkReferences": {}
}