{
  "_format": "hh-sol-artifact-1",
  "contractName": "MockDQMiningStake",
  "sourceName": "src/mocks/DQMiningTestMocks.sol",
  "abi": [
    {
      "inputs": [],
      "stateMutability": "nonpayable",
      "type": "constructor"
    },
    {
      "inputs": [],
      "name": "PARTNER",
      "outputs": [
        {
          "internalType": "address",
          "name": "",
          "type": "address"
        }
      ],
      "stateMutability": "view",
      "type": "function"
    },
    {
      "inputs": [
        {
          "internalType": "address",
          "name": "u",
          "type": "address"
        },
        {
          "internalType": "uint256",
          "name": "a",
          "type": "uint256"
        },
        {
          "internalType": "uint256",
          "name": "t",
          "type": "uint256"
        }
      ],
      "name": "addLP",
      "outputs": [],
      "stateMutability": "nonpayable",
      "type": "function"
    },
    {
      "inputs": [
        {
          "internalType": "address",
          "name": "",
          "type": "address"
        }
      ],
      "name": "claimD",
      "outputs": [],
      "stateMutability": "nonpayable",
      "type": "function"
    },
    {
      "inputs": [
        {
          "internalType": "address",
          "name": "",
          "type": "address"
        }
      ],
      "name": "claimFee",
      "outputs": [],
      "stateMutability": "nonpayable",
      "type": "function"
    },
    {
      "inputs": [
        {
          "internalType": "address",
          "name": "",
          "type": "address"
        }
      ],
      "name": "claimLP",
      "outputs": [],
      "stateMutability": "nonpayable",
      "type": "function"
    },
    {
      "inputs": [
        {
          "internalType": "address",
          "name": "",
          "type": "address"
        }
      ],
      "name": "claimNft",
      "outputs": [],
      "stateMutability": "nonpayable",
      "type": "function"
    },
    {
      "inputs": [
        {
          "internalType": "address",
          "name": "",
          "type": "address"
        }
      ],
      "name": "claimPbnb",
      "outputs": [],
      "stateMutability": "nonpayable",
      "type": "function"
    },
    {
      "inputs": [
        {
          "internalType": "address",
          "name": "",
          "type": "address"
        }
      ],
      "name": "claimPdq",
      "outputs": [],
      "stateMutability": "nonpayable",
      "type": "function"
    },
    {
      "inputs": [
        {
          "internalType": "address",
          "name": "",
          "type": "address"
        },
        {
          "internalType": "uint256",
          "name": "",
          "type": "uint256"
        }
      ],
      "name": "clmS",
      "outputs": [],
      "stateMutability": "nonpayable",
      "type": "function"
    },
    {
      "inputs": [
        {
          "internalType": "address",
          "name": "",
          "type": "address"
        }
      ],
      "name": "dLevels",
      "outputs": [
        {
          "internalType": "uint8",
          "name": "",
          "type": "uint8"
        }
      ],
      "stateMutability": "view",
      "type": "function"
    },
    {
      "inputs": [
        {
          "internalType": "uint256",
          "name": "",
          "type": "uint256"
        }
      ],
      "name": "distDQFee",
      "outputs": [],
      "stateMutability": "nonpayable",
      "type": "function"
    },
    {
      "inputs": [
        {
          "internalType": "uint256",
          "name": "",
          "type": "uint256"
        }
      ],
      "name": "distLP",
      "outputs": [],
      "stateMutability": "nonpayable",
      "type": "function"
    },
    {
      "inputs": [
        {
          "internalType": "uint256",
          "name": "",
          "type": "uint256"
        }
      ],
      "name": "distNFT",
      "outputs": [],
      "stateMutability": "payable",
      "type": "function"
    },
    {
      "inputs": [
        {
          "internalType": "uint256",
          "name": "",
          "type": "uint256"
        }
      ],
      "name": "distP",
      "outputs": [],
      "stateMutability": "nonpayable",
      "type": "function"
    },
    {
      "inputs": [
        {
          "internalType": "address",
          "name": "",
          "type": "address"
        }
      ],
      "name": "lpD",
      "outputs": [
        {
          "internalType": "uint256",
          "name": "",
          "type": "uint256"
        }
      ],
      "stateMutability": "view",
      "type": "function"
    },
    {
      "inputs": [
        {
          "internalType": "address",
          "name": "",
          "type": "address"
        }
      ],
      "name": "lpS",
      "outputs": [
        {
          "internalType": "uint256",
          "name": "",
          "type": "uint256"
        }
      ],
      "stateMutability": "view",
      "type": "function"
    },
    {
      "inputs": [
        {
          "internalType": "address",
          "name": "",
          "type": "address"
        }
      ],
      "name": "lpT",
      "outputs": [
        {
          "internalType": "uint256",
          "name": "",
          "type": "uint256"
        }
      ],
      "stateMutability": "view",
      "type": "function"
    },
    {
      "inputs": [],
      "name": "mine",
      "outputs": [],
      "stateMutability": "nonpayable",
      "type": "function"
    },
    {
      "inputs": [],
      "name": "partner",
      "outputs": [
        {
          "internalType": "address",
          "name": "",
          "type": "address"
        }
      ],
      "stateMutability": "view",
      "type": "function"
    },
    {
      "inputs": [
        {
          "internalType": "address",
          "name": "_user",
          "type": "address"
        },
        {
          "internalType": "uint8",
          "name": "_level",
          "type": "uint8"
        }
      ],
      "name": "registerDLevel",
      "outputs": [],
      "stateMutability": "nonpayable",
      "type": "function"
    },
    {
      "inputs": [
        {
          "internalType": "address",
          "name": "",
          "type": "address"
        },
        {
          "internalType": "uint256",
          "name": "",
          "type": "uint256"
        },
        {
          "internalType": "uint256",
          "name": "",
          "type": "uint256"
        }
      ],
      "name": "stake",
      "outputs": [],
      "stateMutability": "nonpayable",
      "type": "function"
    },
    {
      "inputs": [
        {
          "internalType": "address",
          "name": "",
          "type": "address"
        },
        {
          "internalType": "uint256",
          "name": "",
          "type": "uint256"
        }
      ],
      "name": "unstake",
      "outputs": [],
      "stateMutability": "nonpayable",
      "type": "function"
    },
    {
      "inputs": [
        {
          "internalType": "address",
          "name": "",
          "type": "address"
        },
        {
          "internalType": "uint256",
          "name": "",
          "type": "uint256"
        }
      ],
      "name": "withdraw",
      "outputs": [],
      "stateMutability": "nonpayable",
      "type": "function"
    },
    {
      "inputs": [
        {
          "internalType": "address",
          "name": "_u",
          "type": "address"
        }
      ],
      "name": "withdrawLP",
      "outputs": [],
      "stateMutability": "nonpayable",
      "type": "function"
    }
  ],
  "bytecode": "0x608060405234801561001057600080fd5b50600480546001600160a01b03191661beef17905561054d806100346000396000f3fe60806040526004361061014a5760003560e01c8063b1d78e0e116100b6578063c579535a1161006f578063c579535a1461035f578063d3c6bc4b1461014f578063e74b5b73146101cf578063e8bbb75b146101cf578063ebebcf3d14610394578063f3fef3a31461023a57600080fd5b8063b1d78e0e146102b2578063be10862b146102df578063be75f46b146101cf578063c1226893146101cf578063c2a672e01461023a578063c3e98e611461031757600080fd5b8063328db0fa11610108578063328db0fa146101f857806353f1daa11461023a5780636ebc51e1146101cf5780638652d31c1461025957806399f4b251146102795780639bd769aa1461028557600080fd5b80622e6df81461014f5780630c51b88f1461016f5780631956c0921461018f578063230fb41e1461014f57806324d83d03146101cf57806331aedf9b146101ea575b600080fd5b34801561015b57600080fd5b5061016d61016a3660046103ff565b50565b005b34801561017b57600080fd5b5061016d61018a366004610434565b505050565b34801561019b57600080fd5b506101bc6101aa366004610467565b60026020526000908152604090205481565b6040519081526020015b60405180910390f35b3480156101db57600080fd5b5061016d61016a366004610467565b61016d61016a3660046103ff565b34801561020457600080fd5b50610228610213366004610467565b60036020526000908152604090205460ff1681565b60405160ff90911681526020016101c6565b34801561024657600080fd5b5061016d610255366004610489565b5050565b34801561026557600080fd5b5061016d610274366004610434565b6103b2565b34801561016d57600080fd5b34801561029157600080fd5b506101bc6102a0366004610467565b60006020819052908152604090205481565b3480156102be57600080fd5b506101bc6102cd366004610467565b60016020526000908152604090205481565b3480156102eb57600080fd5b506004546102ff906001600160a01b031681565b6040516001600160a01b0390911681526020016101c6565b34801561032357600080fd5b5061016d6103323660046104b3565b6001600160a01b03919091166000908152600360205260409020805460ff191660ff909216919091179055565b34801561036b57600080fd5b5061016d61037a366004610467565b6001600160a01b0316600090815260208190526040812055565b3480156103a057600080fd5b506004546001600160a01b03166102ff565b6001600160a01b038316600090815260208190526040812080548492906103da9084906104f0565b90915550506001600160a01b0390921660009081526001602052604090209190915550565b60006020828403121561041157600080fd5b5035919050565b80356001600160a01b038116811461042f57600080fd5b919050565b60008060006060848603121561044957600080fd5b61045284610418565b95602085013595506040909401359392505050565b60006020828403121561047957600080fd5b61048282610418565b9392505050565b6000806040838503121561049c57600080fd5b6104a583610418565b946020939093013593505050565b600080604083850312156104c657600080fd5b6104cf83610418565b9150602083013560ff811681146104e557600080fd5b809150509250929050565b8082018082111561051157634e487b7160e01b600052601160045260246000fd5b9291505056fea2646970667358221220e69810bf69072b19a0edca743ceeaadb2a8228cf503b459cd93e6f96839ccb9d64736f6c63430008140033",
  "linkReferences": {},
  "deployedLinkReferences": {}
}