{
  "_format": "hh-sol-artifact-1",
  "contractName": "MockPancakeRouter",
  "sourceName": "src/mocks/DQMiningTestMocks.sol",
  "abi": [
    {
      "inputs": [
        {
          "internalType": "address",
          "name": "tokenA",
          "type": "address"
        },
        {
          "internalType": "address",
          "name": "tokenB",
          "type": "address"
        },
        {
          "internalType": "uint256",
          "name": "amountADesired",
          "type": "uint256"
        },
        {
          "internalType": "uint256",
          "name": "amountBDesired",
          "type": "uint256"
        },
        {
          "internalType": "uint256",
          "name": "",
          "type": "uint256"
        },
        {
          "internalType": "uint256",
          "name": "",
          "type": "uint256"
        },
        {
          "internalType": "address",
          "name": "",
          "type": "address"
        },
        {
          "internalType": "uint256",
          "name": "",
          "type": "uint256"
        }
      ],
      "name": "addLiquidity",
      "outputs": [
        {
          "internalType": "uint256",
          "name": "amountA",
          "type": "uint256"
        },
        {
          "internalType": "uint256",
          "name": "amountB",
          "type": "uint256"
        },
        {
          "internalType": "uint256",
          "name": "liquidity",
          "type": "uint256"
        }
      ],
      "stateMutability": "nonpayable",
      "type": "function"
    },
    {
      "inputs": [
        {
          "internalType": "uint256",
          "name": "amountIn",
          "type": "uint256"
        },
        {
          "internalType": "address[]",
          "name": "path",
          "type": "address[]"
        }
      ],
      "name": "getAmountsOut",
      "outputs": [
        {
          "internalType": "uint256[]",
          "name": "amounts",
          "type": "uint256[]"
        }
      ],
      "stateMutability": "pure",
      "type": "function"
    },
    {
      "inputs": [
        {
          "internalType": "uint256",
          "name": "amountIn",
          "type": "uint256"
        },
        {
          "internalType": "uint256",
          "name": "",
          "type": "uint256"
        },
        {
          "internalType": "address[]",
          "name": "path",
          "type": "address[]"
        },
        {
          "internalType": "address",
          "name": "to",
          "type": "address"
        },
        {
          "internalType": "uint256",
          "name": "",
          "type": "uint256"
        }
      ],
      "name": "swapExactTokensForTokensSupportingFeeOnTransferTokens",
      "outputs": [],
      "stateMutability": "nonpayable",
      "type": "function"
    }
  ],
  "bytecode": "0x608060405234801561001057600080fd5b50610656806100206000396000f3fe608060405234801561001057600080fd5b50600436106100415760003560e01c80635c11d79514610046578063d06ca61f1461005b578063e8e3370014610084575b600080fd5b610059610054366004610415565b6100b2565b005b61006e610069366004610485565b6101e8565b60405161007b91906104d1565b60405180910390f35b610097610092366004610515565b610291565b6040805193845260208401929092529082015260600161007b565b838360008181106100c5576100c5610589565b90506020020160208101906100da919061059f565b6040516323b872dd60e01b8152336004820152306024820152604481018890526001600160a01b0391909116906323b872dd906064016020604051808303816000875af115801561012f573d6000803e3d6000fd5b505050506040513d601f19601f8201168201806040525081019061015391906105c1565b508383600181811061016757610167610589565b905060200201602081019061017c919061059f565b6040516340c10f1960e01b81526001600160a01b0384811660048301526024820189905291909116906340c10f1990604401600060405180830381600087803b1580156101c857600080fd5b505af11580156101dc573d6000803e3d6000fd5b50505050505050505050565b60608167ffffffffffffffff811115610203576102036105e3565b60405190808252806020026020018201604052801561022c578160200160208202803683370190505b509050838160008151811061024357610243610589565b602090810291909101015260015b82811015610289578482828151811061026c5761026c610589565b602090810291909101015280610281816105f9565b915050610251565b509392505050565b6040516323b872dd60e01b815233600482015230602482015260448101879052600090819081906001600160a01b038c16906323b872dd906064016020604051808303816000875af11580156102eb573d6000803e3d6000fd5b505050506040513d601f19601f8201168201806040525081019061030f91906105c1565b506040516323b872dd60e01b8152336004820152306024820152604481018990526001600160a01b038b16906323b872dd906064016020604051808303816000875af1158015610363573d6000803e3d6000fd5b505050506040513d601f19601f8201168201806040525081019061038791906105c1565b5088925087915087891061039b578761039d565b885b9050985098509895505050505050565b60008083601f8401126103bf57600080fd5b50813567ffffffffffffffff8111156103d757600080fd5b6020830191508360208260051b85010111156103f257600080fd5b9250929050565b80356001600160a01b038116811461041057600080fd5b919050565b60008060008060008060a0878903121561042e57600080fd5b8635955060208701359450604087013567ffffffffffffffff81111561045357600080fd5b61045f89828a016103ad565b90955093506104729050606088016103f9565b9150608087013590509295509295509295565b60008060006040848603121561049a57600080fd5b83359250602084013567ffffffffffffffff8111156104b857600080fd5b6104c4868287016103ad565b9497909650939450505050565b6020808252825182820181905260009190848201906040850190845b81811015610509578351835292840192918401916001016104ed565b50909695505050505050565b600080600080600080600080610100898b03121561053257600080fd5b61053b896103f9565b975061054960208a016103f9565b965060408901359550606089013594506080890135935060a0890135925061057360c08a016103f9565b915060e089013590509295985092959890939650565b634e487b7160e01b600052603260045260246000fd5b6000602082840312156105b157600080fd5b6105ba826103f9565b9392505050565b6000602082840312156105d357600080fd5b815180151581146105ba57600080fd5b634e487b7160e01b600052604160045260246000fd5b60006001820161061957634e487b7160e01b600052601160045260246000fd5b506001019056fea2646970667358221220d2b4ae9ffa262037bc190444bf6ba0dad463a33a6feab08acaaba8646c5cb51e64736f6c63430008140033",
  "linkReferences": {},
  "deployedLinkReferences": {}
}