{
  "_format": "hh-sol-artifact-1",
  "contractName": "MockPairToken",
  "sourceName": "src/mocks/DQMiningTestMocks.sol",
  "abi": [
    {
      "anonymous": false,
      "inputs": [
        {
          "indexed": true,
          "internalType": "address",
          "name": "owner",
          "type": "address"
        },
        {
          "indexed": true,
          "internalType": "address",
          "name": "spender",
          "type": "address"
        },
        {
          "indexed": false,
          "internalType": "uint256",
          "name": "value",
          "type": "uint256"
        }
      ],
      "name": "Approval",
      "type": "event"
    },
    {
      "anonymous": false,
      "inputs": [
        {
          "indexed": true,
          "internalType": "address",
          "name": "from",
          "type": "address"
        },
        {
          "indexed": true,
          "internalType": "address",
          "name": "to",
          "type": "address"
        },
        {
          "indexed": false,
          "internalType": "uint256",
          "name": "value",
          "type": "uint256"
        }
      ],
      "name": "Transfer",
      "type": "event"
    },
    {
      "inputs": [
        {
          "internalType": "address",
          "name": "",
          "type": "address"
        },
        {
          "internalType": "address",
          "name": "",
          "type": "address"
        }
      ],
      "name": "allowance",
      "outputs": [
        {
          "internalType": "uint256",
          "name": "",
          "type": "uint256"
        }
      ],
      "stateMutability": "view",
      "type": "function"
    },
    {
      "inputs": [
        {
          "internalType": "address",
          "name": "spender",
          "type": "address"
        },
        {
          "internalType": "uint256",
          "name": "amount",
          "type": "uint256"
        }
      ],
      "name": "approve",
      "outputs": [
        {
          "internalType": "bool",
          "name": "",
          "type": "bool"
        }
      ],
      "stateMutability": "nonpayable",
      "type": "function"
    },
    {
      "inputs": [
        {
          "internalType": "address",
          "name": "",
          "type": "address"
        }
      ],
      "name": "balanceOf",
      "outputs": [
        {
          "internalType": "uint256",
          "name": "",
          "type": "uint256"
        }
      ],
      "stateMutability": "view",
      "type": "function"
    },
    {
      "inputs": [
        {
          "internalType": "address",
          "name": "from",
          "type": "address"
        },
        {
          "internalType": "uint256",
          "name": "amount",
          "type": "uint256"
        }
      ],
      "name": "burn",
      "outputs": [],
      "stateMutability": "nonpayable",
      "type": "function"
    },
    {
      "inputs": [],
      "name": "decimals",
      "outputs": [
        {
          "internalType": "uint8",
          "name": "",
          "type": "uint8"
        }
      ],
      "stateMutability": "view",
      "type": "function"
    },
    {
      "inputs": [
        {
          "internalType": "string",
          "name": "_name",
          "type": "string"
        },
        {
          "internalType": "string",
          "name": "_symbol",
          "type": "string"
        }
      ],
      "name": "initialize",
      "outputs": [],
      "stateMutability": "nonpayable",
      "type": "function"
    },
    {
      "inputs": [
        {
          "internalType": "address",
          "name": "to",
          "type": "address"
        },
        {
          "internalType": "uint256",
          "name": "amount",
          "type": "uint256"
        }
      ],
      "name": "mint",
      "outputs": [],
      "stateMutability": "nonpayable",
      "type": "function"
    },
    {
      "inputs": [],
      "name": "name",
      "outputs": [
        {
          "internalType": "string",
          "name": "",
          "type": "string"
        }
      ],
      "stateMutability": "view",
      "type": "function"
    },
    {
      "inputs": [],
      "name": "symbol",
      "outputs": [
        {
          "internalType": "string",
          "name": "",
          "type": "string"
        }
      ],
      "stateMutability": "view",
      "type": "function"
    },
    {
      "inputs": [],
      "name": "sync",
      "outputs": [],
      "stateMutability": "nonpayable",
      "type": "function"
    },
    {
      "inputs": [],
      "name": "totalSupply",
      "outputs": [
        {
          "internalType": "uint256",
          "name": "",
          "type": "uint256"
        }
      ],
      "stateMutability": "view",
      "type": "function"
    },
    {
      "inputs": [
        {
          "internalType": "address",
          "name": "to",
          "type": "address"
        },
        {
          "internalType": "uint256",
          "name": "amount",
          "type": "uint256"
        }
      ],
      "name": "transfer",
      "outputs": [
        {
          "internalType": "bool",
          "name": "",
          "type": "bool"
        }
      ],
      "stateMutability": "nonpayable",
      "type": "function"
    },
    {
      "inputs": [
        {
          "internalType": "address",
          "name": "from",
          "type": "address"
        },
        {
          "internalType": "address",
          "name": "to",
          "type": "address"
        },
        {
          "internalType": "uint256",
          "name": "amount",
          "type": "uint256"
        }
      ],
      "name": "transferFrom",
      "outputs": [
        {
          "internalType": "bool",
          "name": "",
          "type": "bool"
        }
      ],
      "stateMutability": "nonpayable",
      "type": "function"
    }
  ],
  "bytecode": "0x6080604052348015600e575f5ffd5b50610a6a8061001c5f395ff3fe608060405234801561000f575f5ffd5b50600436106100cb575f3560e01c80634cd88b76116100885780639dc29fac116100635780639dc29fac146101a3578063a9059cbb146101b6578063dd62ed3e146101c9578063fff6cae914610167575f5ffd5b80634cd88b761461016957806370a082311461017c57806395d89b411461019b575f5ffd5b806306fdde03146100cf578063095ea7b3146100ed57806318160ddd1461011057806323b872dd14610127578063313ce5671461013a57806340c10f1914610154575b5f5ffd5b6100d76101f3565b6040516100e491906106a6565b60405180910390f35b6101006100fb3660046106f6565b61027e565b60405190151581526020016100e4565b61011960025481565b6040519081526020016100e4565b61010061013536600461071e565b6102ea565b610142601281565b60405160ff90911681526020016100e4565b6101676101623660046106f6565b6103a7565b005b6101676101773660046107f7565b610430565b61011961018a36600461085c565b60036020525f908152604090205481565b6100d761049b565b6101676101b13660046106f6565b6104a8565b6101006101c43660046106f6565b610587565b6101196101d736600461087c565b600460209081525f928352604080842090915290825290205481565b5f80546101ff906108ad565b80601f016020809104026020016040519081016040528092919081815260200182805461022b906108ad565b80156102765780601f1061024d57610100808354040283529160200191610276565b820191905f5260205f20905b81548152906001019060200180831161025957829003601f168201915b505050505081565b335f8181526004602090815260408083206001600160a01b038716808552925280832085905551919290917f8c5be1e5ebec7d5bd14f71427d1e84f3dd0314c0f7b2291e5b200ac8c7c3b925906102d89086815260200190565b60405180910390a35060015b92915050565b6001600160a01b0383165f9081526004602090815260408083203384529091528120548281101561035b5760405162461bcd60e51b8152602060048201526016602482015275696e73756666696369656e7420616c6c6f77616e636560501b60448201526064015b60405180910390fd5b5f1981146103915761036d83826108f9565b6001600160a01b0386165f9081526004602090815260408083203384529091529020555b61039c85858561059c565b506001949350505050565b6001600160a01b0382165f90815260036020526040812080548392906103ce90849061090c565b925050819055508060025f8282546103e6919061090c565b90915550506040518181526001600160a01b038316905f907fddf252ad1be2c89b69c2b068fc378daa952ba7f163c4a11628f55a4df523b3ef906020015b60405180910390a35050565b60055460ff16156104715760405162461bcd60e51b815260206004820152600b60248201526a1a5b9a5d1a585b1a5e995960aa1b6044820152606401610352565b6005805460ff191660011790555f6104898382610975565b5060016104968282610975565b505050565b600180546101ff906108ad565b6001600160a01b0382165f908152600360205260409020548111156105065760405162461bcd60e51b81526020600482015260146024820152736275726e20657863656564732062616c616e636560601b6044820152606401610352565b6001600160a01b0382165f908152600360205260408120805483929061052d9084906108f9565b925050819055508060025f82825461054591906108f9565b90915550506040518181525f906001600160a01b038416907fddf252ad1be2c89b69c2b068fc378daa952ba7f163c4a11628f55a4df523b3ef90602001610424565b5f61059333848461059c565b50600192915050565b6001600160a01b0383165f908152600360205260409020548111156105fa5760405162461bcd60e51b8152602060048201526014602482015273696e73756666696369656e742062616c616e636560601b6044820152606401610352565b6001600160a01b0383165f90815260036020526040812080548392906106219084906108f9565b90915550506001600160a01b0382165f908152600360205260408120805483929061064d90849061090c565b92505081905550816001600160a01b0316836001600160a01b03167fddf252ad1be2c89b69c2b068fc378daa952ba7f163c4a11628f55a4df523b3ef8360405161069991815260200190565b60405180910390a3505050565b602081525f82518060208401528060208501604085015e5f604082850101526040601f19601f83011684010191505092915050565b80356001600160a01b03811681146106f1575f5ffd5b919050565b5f5f60408385031215610707575f5ffd5b610710836106db565b946020939093013593505050565b5f5f5f60608486031215610730575f5ffd5b610739846106db565b9250610747602085016106db565b929592945050506040919091013590565b634e487b7160e01b5f52604160045260245ffd5b5f82601f83011261077b575f5ffd5b813567ffffffffffffffff81111561079557610795610758565b604051601f8201601f19908116603f0116810167ffffffffffffffff811182821017156107c4576107c4610758565b6040528181528382016020018510156107db575f5ffd5b816020850160208301375f918101602001919091529392505050565b5f5f60408385031215610808575f5ffd5b823567ffffffffffffffff81111561081e575f5ffd5b61082a8582860161076c565b925050602083013567ffffffffffffffff811115610846575f5ffd5b6108528582860161076c565b9150509250929050565b5f6020828403121561086c575f5ffd5b610875826106db565b9392505050565b5f5f6040838503121561088d575f5ffd5b610896836106db565b91506108a4602084016106db565b90509250929050565b600181811c908216806108c157607f821691505b6020821081036108df57634e487b7160e01b5f52602260045260245ffd5b50919050565b634e487b7160e01b5f52601160045260245ffd5b818103818111156102e4576102e46108e5565b808201808211156102e4576102e46108e5565b601f821115610496578282111561049657805f5260205f20601f840160051c602085101561094a57505f5b90810190601f840160051c035f5b8181101561096d575f83820155600101610958565b505050505050565b815167ffffffffffffffff81111561098f5761098f610758565b6109a38161099d84546108ad565b8461091f565b6020601f8211600181146109d5575f83156109be5750848201515b5f19600385901b1c1916600184901b178455610a2d565b5f84815260208120601f198516915b82811015610a0457878501518255602094850194600190920191016109e4565b5084821015610a2157868401515f19600387901b60f8161c191681555b505060018360011b0184555b505050505056fea26469706673582212209b0cd603a7337d62146c41254fd9ef9b2acd06038427ed27922aa74c260128d564736f6c63430008230033",
  "linkReferences": {},
  "deployedLinkReferences": {}
}