{
  "_format": "hh-sol-artifact-1",
  "contractName": "MockPancakeRouter",
  "sourceName": "src/mocks/DQMiningTestMocks.sol",
  "abi": [
    {
      "inputs": [
        {
          "internalType": "address",
          "name": "tokenA",
          "type": "address"
        },
        {
          "internalType": "address",
          "name": "tokenB",
          "type": "address"
        },
        {
          "internalType": "uint256",
          "name": "amountADesired",
          "type": "uint256"
        },
        {
          "internalType": "uint256",
          "name": "amountBDesired",
          "type": "uint256"
        },
        {
          "internalType": "uint256",
          "name": "",
          "type": "uint256"
        },
        {
          "internalType": "uint256",
          "name": "",
          "type": "uint256"
        },
        {
          "internalType": "address",
          "name": "",
          "type": "address"
        },
        {
          "internalType": "uint256",
          "name": "",
          "type": "uint256"
        }
      ],
      "name": "addLiquidity",
      "outputs": [
        {
          "internalType": "uint256",
          "name": "amountA",
          "type": "uint256"
        },
        {
          "internalType": "uint256",
          "name": "amountB",
          "type": "uint256"
        },
        {
          "internalType": "uint256",
          "name": "liquidity",
          "type": "uint256"
        }
      ],
      "stateMutability": "nonpayable",
      "type": "function"
    },
    {
      "inputs": [
        {
          "internalType": "uint256",
          "name": "amountIn",
          "type": "uint256"
        },
        {
          "internalType": "address[]",
          "name": "path",
          "type": "address[]"
        }
      ],
      "name": "getAmountsOut",
      "outputs": [
        {
          "internalType": "uint256[]",
          "name": "amounts",
          "type": "uint256[]"
        }
      ],
      "stateMutability": "pure",
      "type": "function"
    },
    {
      "inputs": [
        {
          "internalType": "uint256",
          "name": "amountIn",
          "type": "uint256"
        },
        {
          "internalType": "uint256",
          "name": "",
          "type": "uint256"
        },
        {
          "internalType": "address[]",
          "name": "path",
          "type": "address[]"
        },
        {
          "internalType": "address",
          "name": "to",
          "type": "address"
        },
        {
          "internalType": "uint256",
          "name": "",
          "type": "uint256"
        }
      ],
      "name": "swapExactTokensForTokensSupportingFeeOnTransferTokens",
      "outputs": [],
      "stateMutability": "nonpayable",
      "type": "function"
    }
  ],
  "bytecode": "0x6080604052348015600e575f5ffd5b506105f78061001c5f395ff3fe608060405234801561000f575f5ffd5b506004361061003f575f3560e01c80635c11d79514610043578063d06ca61f14610058578063e8e3370014610081575b5f5ffd5b6100566100513660046103f2565b6100af565b005b61006b61006636600461045f565b6101dc565b60405161007891906104a7565b60405180910390f35b61009461008f3660046104e9565b61027a565b60408051938452602084019290925290820152606001610078565b83835f8181106100c1576100c161055a565b90506020020160208101906100d6919061056e565b6040516323b872dd60e01b8152336004820152306024820152604481018890526001600160a01b0391909116906323b872dd906064016020604051808303815f875af1158015610128573d5f5f3e3d5ffd5b505050506040513d601f19601f8201168201806040525081019061014c919061058e565b50838360018181106101605761016061055a565b9050602002016020810190610175919061056e565b6040516340c10f1960e01b81526001600160a01b0384811660048301526024820189905291909116906340c10f19906044015f604051808303815f87803b1580156101be575f5ffd5b505af11580156101d0573d5f5f3e3d5ffd5b50505050505050505050565b60608167ffffffffffffffff8111156101f7576101f76105ad565b604051908082528060200260200182016040528015610220578160200160208202803683370190505b50905083815f815181106102365761023661055a565b602090810291909101015260015b82811015610272578482828151811061025f5761025f61055a565b6020908102919091010152600101610244565b509392505050565b6040516323b872dd60e01b8152336004820152306024820152604481018790525f90819081906001600160a01b038c16906323b872dd906064016020604051808303815f875af11580156102d0573d5f5f3e3d5ffd5b505050506040513d601f19601f820116820180604052508101906102f4919061058e565b506040516323b872dd60e01b8152336004820152306024820152604481018990526001600160a01b038b16906323b872dd906064016020604051808303815f875af1158015610345573d5f5f3e3d5ffd5b505050506040513d601f19601f82011682018060405250810190610369919061058e565b5088925087915087891061037d578761037f565b885b9050985098509895505050505050565b5f5f83601f84011261039f575f5ffd5b50813567ffffffffffffffff8111156103b6575f5ffd5b6020830191508360208260051b85010111156103d0575f5ffd5b9250929050565b80356001600160a01b03811681146103ed575f5ffd5b919050565b5f5f5f5f5f5f60a08789031215610407575f5ffd5b8635955060208701359450604087013567ffffffffffffffff81111561042b575f5ffd5b61043789828a0161038f565b909550935061044a9050606088016103d7565b95989497509295919493608090920135925050565b5f5f5f60408486031215610471575f5ffd5b83359250602084013567ffffffffffffffff81111561048e575f5ffd5b61049a8682870161038f565b9497909650939450505050565b602080825282518282018190525f918401906040840190835b818110156104de5783518352602093840193909201916001016104c0565b509095945050505050565b5f5f5f5f5f5f5f5f610100898b031215610501575f5ffd5b61050a896103d7565b975061051860208a016103d7565b965060408901359550606089013594506080890135935060a0890135925061054260c08a016103d7565b979a969950949793969295919450919260e001359150565b634e487b7160e01b5f52603260045260245ffd5b5f6020828403121561057e575f5ffd5b610587826103d7565b9392505050565b5f6020828403121561059e575f5ffd5b81518015158114610587575f5ffd5b634e487b7160e01b5f52604160045260245ffdfea264697066735822122090cc06b65d96b69a2be0ed29f9aa23fdea023833160472e3407a54a3d73d681c64736f6c63430008230033",
  "linkReferences": {},
  "deployedLinkReferences": {}
}