{
  "_format": "hh-sol-artifact-1",
  "contractName": "DQLPMigrator",
  "sourceName": "src/DQLPMigrator.sol",
  "abi": [
    {
      "inputs": [],
      "name": "ReentrancyGuardReentrantCall",
      "type": "error"
    },
    {
      "inputs": [
        {
          "internalType": "address",
          "name": "token",
          "type": "address"
        }
      ],
      "name": "SafeERC20FailedOperation",
      "type": "error"
    },
    {
      "anonymous": false,
      "inputs": [
        {
          "indexed": true,
          "internalType": "address",
          "name": "user",
          "type": "address"
        },
        {
          "indexed": false,
          "internalType": "uint256",
          "name": "oldAmount",
          "type": "uint256"
        },
        {
          "indexed": false,
          "internalType": "uint256",
          "name": "newAmount",
          "type": "uint256"
        }
      ],
      "name": "Migrated",
      "type": "event"
    },
    {
      "anonymous": false,
      "inputs": [
        {
          "indexed": true,
          "internalType": "address",
          "name": "user",
          "type": "address"
        },
        {
          "indexed": false,
          "internalType": "uint256",
          "name": "oldAmount",
          "type": "uint256"
        },
        {
          "indexed": false,
          "internalType": "uint256",
          "name": "newAmount",
          "type": "uint256"
        }
      ],
      "name": "MigratedAndStaked",
      "type": "event"
    },
    {
      "anonymous": false,
      "inputs": [
        {
          "indexed": false,
          "internalType": "bool",
          "name": "active",
          "type": "bool"
        }
      ],
      "name": "MigrationToggled",
      "type": "event"
    },
    {
      "anonymous": false,
      "inputs": [
        {
          "indexed": false,
          "internalType": "address",
          "name": "newLP",
          "type": "address"
        }
      ],
      "name": "NewLPSet",
      "type": "event"
    },
    {
      "anonymous": false,
      "inputs": [
        {
          "indexed": false,
          "internalType": "address",
          "name": "oldLP",
          "type": "address"
        }
      ],
      "name": "OldLPSet",
      "type": "event"
    },
    {
      "anonymous": false,
      "inputs": [
        {
          "indexed": false,
          "internalType": "uint256",
          "name": "rate",
          "type": "uint256"
        }
      ],
      "name": "RateSet",
      "type": "event"
    },
    {
      "inputs": [],
      "name": "OWNER",
      "outputs": [
        {
          "internalType": "address",
          "name": "",
          "type": "address"
        }
      ],
      "stateMutability": "view",
      "type": "function"
    },
    {
      "inputs": [],
      "name": "RATE_DENOMINATOR",
      "outputs": [
        {
          "internalType": "uint256",
          "name": "",
          "type": "uint256"
        }
      ],
      "stateMutability": "view",
      "type": "function"
    },
    {
      "inputs": [],
      "name": "adminContract",
      "outputs": [
        {
          "internalType": "address",
          "name": "",
          "type": "address"
        }
      ],
      "stateMutability": "view",
      "type": "function"
    },
    {
      "inputs": [],
      "name": "getConfig",
      "outputs": [
        {
          "internalType": "address",
          "name": "_oldLP",
          "type": "address"
        },
        {
          "internalType": "address",
          "name": "_newLP",
          "type": "address"
        },
        {
          "internalType": "uint256",
          "name": "rate",
          "type": "uint256"
        },
        {
          "internalType": "bool",
          "name": "active",
          "type": "bool"
        },
        {
          "internalType": "uint256",
          "name": "newLPBalance",
          "type": "uint256"
        }
      ],
      "stateMutability": "view",
      "type": "function"
    },
    {
      "inputs": [
        {
          "internalType": "address",
          "name": "_user",
          "type": "address"
        }
      ],
      "name": "getUserMigrated",
      "outputs": [
        {
          "internalType": "uint256",
          "name": "",
          "type": "uint256"
        }
      ],
      "stateMutability": "view",
      "type": "function"
    },
    {
      "inputs": [
        {
          "internalType": "uint256",
          "name": "_amount",
          "type": "uint256"
        }
      ],
      "name": "migrate",
      "outputs": [],
      "stateMutability": "nonpayable",
      "type": "function"
    },
    {
      "inputs": [
        {
          "internalType": "uint256",
          "name": "_amount",
          "type": "uint256"
        }
      ],
      "name": "migrateAndStake",
      "outputs": [],
      "stateMutability": "nonpayable",
      "type": "function"
    },
    {
      "inputs": [
        {
          "internalType": "address",
          "name": "",
          "type": "address"
        }
      ],
      "name": "migratedAmount",
      "outputs": [
        {
          "internalType": "uint256",
          "name": "",
          "type": "uint256"
        }
      ],
      "stateMutability": "view",
      "type": "function"
    },
    {
      "inputs": [],
      "name": "migrationActive",
      "outputs": [
        {
          "internalType": "bool",
          "name": "",
          "type": "bool"
        }
      ],
      "stateMutability": "view",
      "type": "function"
    },
    {
      "inputs": [],
      "name": "migrationRate",
      "outputs": [
        {
          "internalType": "uint256",
          "name": "",
          "type": "uint256"
        }
      ],
      "stateMutability": "view",
      "type": "function"
    },
    {
      "inputs": [],
      "name": "newLP",
      "outputs": [
        {
          "internalType": "address",
          "name": "",
          "type": "address"
        }
      ],
      "stateMutability": "view",
      "type": "function"
    },
    {
      "inputs": [],
      "name": "newStakeContract",
      "outputs": [
        {
          "internalType": "address",
          "name": "",
          "type": "address"
        }
      ],
      "stateMutability": "view",
      "type": "function"
    },
    {
      "inputs": [],
      "name": "oldLP",
      "outputs": [
        {
          "internalType": "address",
          "name": "",
          "type": "address"
        }
      ],
      "stateMutability": "view",
      "type": "function"
    },
    {
      "inputs": [
        {
          "internalType": "address",
          "name": "_admin",
          "type": "address"
        }
      ],
      "name": "setAdminContract",
      "outputs": [],
      "stateMutability": "nonpayable",
      "type": "function"
    },
    {
      "inputs": [
        {
          "internalType": "uint256",
          "name": "_rate",
          "type": "uint256"
        }
      ],
      "name": "setMigrationRate",
      "outputs": [],
      "stateMutability": "nonpayable",
      "type": "function"
    },
    {
      "inputs": [
        {
          "internalType": "address",
          "name": "_lp",
          "type": "address"
        }
      ],
      "name": "setNewLP",
      "outputs": [],
      "stateMutability": "nonpayable",
      "type": "function"
    },
    {
      "inputs": [
        {
          "internalType": "address",
          "name": "_contract",
          "type": "address"
        }
      ],
      "name": "setNewStakeContract",
      "outputs": [],
      "stateMutability": "nonpayable",
      "type": "function"
    },
    {
      "inputs": [
        {
          "internalType": "address",
          "name": "_lp",
          "type": "address"
        }
      ],
      "name": "setOldLP",
      "outputs": [],
      "stateMutability": "nonpayable",
      "type": "function"
    },
    {
      "inputs": [
        {
          "internalType": "bool",
          "name": "_active",
          "type": "bool"
        }
      ],
      "name": "toggleMigration",
      "outputs": [],
      "stateMutability": "nonpayable",
      "type": "function"
    },
    {
      "inputs": [
        {
          "internalType": "address",
          "name": "_token",
          "type": "address"
        },
        {
          "internalType": "address",
          "name": "_to",
          "type": "address"
        },
        {
          "internalType": "uint256",
          "name": "_amount",
          "type": "uint256"
        }
      ],
      "name": "withdrawToken",
      "outputs": [],
      "stateMutability": "nonpayable",
      "type": "function"
    },
    {
      "stateMutability": "payable",
      "type": "receive"
    }
  ],
  "bytecode": "0x60806040526127106004556005805460ff19169055348015601e575f5ffd5b5060017f9b779b17422d0df92223018b32b4d1fa46e071723d6817e2486d003becc55f00556110e8806100505f395ff3fe60806040526004361061011e575f3560e01c80635823cf901161009d5780639b348356116100625780639b3483561461036a578063c05c5e941461039e578063c3f909d4146103bd578063e4a007d314610406578063e51a81e314610425575f5ffd5b80635823cf901461029557806363a812f9146102d1578063705f15571461030d5780637efad8e01461032c5780638ed6b01614610341575f5ffd5b8063283c184a116100e3578063283c184a146101ef5780632f584b481461021a578063454b06081461023857806348c698f5146102575780635167c65014610276575f5ffd5b806301e3366714610129578063091f47121461014a578063117803e31461017257806313f3ac28146101b157806319938358146101d0575f5ffd5b3661012557005b5f5ffd5b348015610134575f5ffd5b50610148610143366004610f72565b610444565b005b348015610155575f5ffd5b5061015f60045481565b6040519081526020015b60405180910390f35b34801561017d575f5ffd5b5061019973274acc6397349f21179ed6258a54b2a11b28faf581565b6040516001600160a01b039091168152602001610169565b3480156101bc575f5ffd5b506101486101cb366004610fac565b6104c5565b3480156101db575f5ffd5b50600254610199906001600160a01b031681565b3480156101fa575f5ffd5b5061015f610209366004610fc3565b60066020525f908152604090205481565b348015610225575f5ffd5b505f54610199906001600160a01b031681565b348015610243575f5ffd5b50610148610252366004610fac565b610546565b348015610262575f5ffd5b50610148610271366004610fc3565b6107c1565b348015610281575f5ffd5b50610148610290366004610fc3565b61084c565b3480156102a0575f5ffd5b506101486102af366004610fc3565b600280546001600160a01b0319166001600160a01b0392909216919091179055565b3480156102dc575f5ffd5b506101486102eb366004610fc3565b600380546001600160a01b0319166001600160a01b0392909216919091179055565b348015610318575f5ffd5b50610148610327366004610fe3565b6108d8565b348015610337575f5ffd5b5061015f61271081565b34801561034c575f5ffd5b5060055461035a9060ff1681565b6040519015158152602001610169565b348015610375575f5ffd5b5061015f610384366004610fc3565b6001600160a01b03165f9081526006602052604090205490565b3480156103a9575f5ffd5b50600354610199906001600160a01b031681565b3480156103c8575f5ffd5b506103d1610919565b604080516001600160a01b0396871681529590941660208601529284019190915215156060830152608082015260a001610169565b348015610411575f5ffd5b50610148610420366004610fac565b6109ba565b348015610430575f5ffd5b50600154610199906001600160a01b031681565b5f546001600160a01b0384811691161480159061046f57506001546001600160a01b03848116911614155b6104ac5760405162461bcd60e51b815260206004820152600960248201526821776974686472617760b81b60448201526064015b60405180910390fd5b6104c06001600160a01b0384168383610d2f565b505050565b5f811180156104d657506127108111155b61050a5760405162461bcd60e51b8152602060048201526005602482015264217261746560d81b60448201526064016104a3565b60048190556040518181527faaeb483bfbd8cfd510c2bf9558f92d3b588e733adf62f05e2e3de2486d13279d906020015b60405180910390a150565b61054e610d64565b60055460ff1661058a5760405162461bcd60e51b81526020600482015260076024820152662161637469766560c81b60448201526064016104a3565b5f546001600160a01b0316158015906105ad57506001546001600160a01b031615155b6105e25760405162461bcd60e51b81526004016104a390602080825260049082015263085cd95d60e21b604082015260600190565b5f811161061b5760405162461bcd60e51b815260206004820152600760248201526608585b5bdd5b9d60ca1b60448201526064016104a3565b5f54610632906001600160a01b0316333084610d7f565b5f612710600454836106449190611016565b61064e9190611033565b90505f811161068a5760405162461bcd60e51b81526020600482015260086024820152670858dbdb9d995c9d60c21b60448201526064016104a3565b6001546040516370a0823160e01b81523060048201525f916001600160a01b0316906370a0823190602401602060405180830381865afa1580156106d0573d5f5f3e3d5ffd5b505050506040513d601f19601f820116820180604052508101906106f49190611052565b9050818110156107315760405162461bcd60e51b81526020600482015260086024820152672162616c616e636560c01b60448201526064016104a3565b335f908152600660205260408120805485929061074f908490611069565b909155505060015461076b906001600160a01b03163384610d2f565b604080518481526020810184905233917fd083678824038160bef3975359ab29f19c3f0e9bcf9d7ead540a492d4d678b63910160405180910390a250506107be60015f5160206110935f395f51905f5255565b50565b6001600160a01b0381166107ff5760405162461bcd60e51b8152602060048201526005602482015264217a65726f60d81b60448201526064016104a3565b5f80546001600160a01b0319166001600160a01b0383169081179091556040519081527fb59a69b9800ece80f4c8ac29d9c12d43d258ee4fca5329456fed0925a59d577d9060200161053b565b6001600160a01b03811661088a5760405162461bcd60e51b8152602060048201526005602482015264217a65726f60d81b60448201526064016104a3565b600180546001600160a01b0319166001600160a01b0383169081179091556040519081527f6cedd5f50351efbc40be01a919f6320ffe3e8270d9d277b886a78f30e3d087689060200161053b565b6005805460ff19168215159081179091556040519081527fc49df724d61730c654abe785c51de447cfcef80bf52e1373255163a3950dcfbd9060200161053b565b5f80546001546004546005546001600160a01b03938416949390921692909160ff169083610947575f6109b1565b6001546040516370a0823160e01b81523060048201526001600160a01b03909116906370a0823190602401602060405180830381865afa15801561098d573d5f5f3e3d5ffd5b505050506040513d601f19601f820116820180604052508101906109b19190611052565b90509091929394565b6109c2610d64565b60055460ff166109fe5760405162461bcd60e51b81526020600482015260076024820152662161637469766560c81b60448201526064016104a3565b5f546001600160a01b031615801590610a2157506001546001600160a01b031615155b610a565760405162461bcd60e51b81526004016104a390602080825260049082015263085cd95d60e21b604082015260600190565b6002546001600160a01b0316610a975760405162461bcd60e51b8152602060048201526006602482015265217374616b6560d01b60448201526064016104a3565b5f8111610ad05760405162461bcd60e51b815260206004820152600760248201526608585b5bdd5b9d60ca1b60448201526064016104a3565b5f54610ae7906001600160a01b0316333084610d7f565b5f61271060045483610af99190611016565b610b039190611033565b90505f8111610b3f5760405162461bcd60e51b81526020600482015260086024820152670858dbdb9d995c9d60c21b60448201526064016104a3565b6001546040516370a0823160e01b81523060048201525f916001600160a01b0316906370a0823190602401602060405180830381865afa158015610b85573d5f5f3e3d5ffd5b505050506040513d601f19601f82011682018060405250810190610ba99190611052565b905081811015610be65760405162461bcd60e51b81526020600482015260086024820152672162616c616e636560c01b60448201526064016104a3565b335f9081526006602052604081208054859290610c04908490611069565b9091555050600254600154610c26916001600160a01b03918216911684610dbb565b600254604051336024820152604481018490525f916001600160a01b03169060640160408051601f198184030181529181526020820180516001600160e01b0316630a7d7b2f60e31b17905251610c7d919061107c565b5f604051808303815f865af19150503d805f8114610cb6576040519150601f19603f3d011682016040523d82523d5f602084013e610cbb565b606091505b5050905080610cdb57600154610cdb906001600160a01b03163385610d2f565b604080518581526020810185905233917fa765cfff7dac344d93f79437ecb800fddf70c06c32a6282d347329ec978cbdfe910160405180910390a25050506107be60015f5160206110935f395f51905f5255565b610d3c8383836001610e0d565b6104c057604051635274afe760e01b81526001600160a01b03841660048201526024016104a3565b610d6c610e6f565b60025f5160206110935f395f51905f5255565b610d8d848484846001610ea0565b610db557604051635274afe760e01b81526001600160a01b03851660048201526024016104a3565b50505050565b610dc78383835f610f0d565b6104c057610dd883835f6001610f0d565b610e0057604051635274afe760e01b81526001600160a01b03841660048201526024016104a3565b610d3c8383836001610f0d565b60405163a9059cbb60e01b5f8181526001600160a01b038616600452602485905291602083604481808b5af1925060015f51148316610e63578383151615610e57573d5f823e3d81fd5b5f873b113d1516831692505b60405250949350505050565b5f5160206110935f395f51905f5254600203610e9e57604051633ee5aeb560e01b815260040160405180910390fd5b565b6040516323b872dd60e01b5f8181526001600160a01b038781166004528616602452604485905291602083606481808c5af1925060015f51148316610efc578383151615610ef0573d5f823e3d81fd5b5f883b113d1516831692505b604052505f60605295945050505050565b60405163095ea7b360e01b5f8181526001600160a01b038616600452602485905291602083604481808b5af1925060015f51148316610e63578383151615610e57573d5f823e3d81fd5b80356001600160a01b0381168114610f6d575f5ffd5b919050565b5f5f5f60608486031215610f84575f5ffd5b610f8d84610f57565b9250610f9b60208501610f57565b929592945050506040919091013590565b5f60208284031215610fbc575f5ffd5b5035919050565b5f60208284031215610fd3575f5ffd5b610fdc82610f57565b9392505050565b5f60208284031215610ff3575f5ffd5b81358015158114610fdc575f5ffd5b634e487b7160e01b5f52601160045260245ffd5b808202811582820484141761102d5761102d611002565b92915050565b5f8261104d57634e487b7160e01b5f52601260045260245ffd5b500490565b5f60208284031215611062575f5ffd5b5051919050565b8082018082111561102d5761102d611002565b5f82518060208501845e5f92019182525091905056fe9b779b17422d0df92223018b32b4d1fa46e071723d6817e2486d003becc55f00a2646970667358221220ce4a0c39f37008c35af142e66f0a67d705a10b3bff8aa2181573dcd19bdf1e3d64736f6c63430008230033",
  "linkReferences": {},
  "deployedLinkReferences": {}
}