{"src/mocks/DQMiningTestMocks.sol":{"MockDQMCoreForStake":{"abi":[{"inputs":[{"internalType":"address","name":"","type":"address"}],"name":"blacklist","outputs":[{"internalType":"bool","name":"","type":"bool"}],"stateMutability":"view","type":"function"},{"inputs":[{"internalType":"address","name":"","type":"address"}],"name":"getUserEnergy","outputs":[{"internalType":"uint256","name":"","type":"uint256"}],"stateMutability":"view","type":"function"},{"inputs":[{"internalType":"address","name":"user","type":"address"}],"name":"getUserTotalInvest","outputs":[{"internalType":"uint256","name":"","type":"uint256"}],"stateMutability":"view","type":"function"},{"inputs":[{"internalType":"address","name":"user","type":"address"}],"name":"isBlacklisted","outputs":[{"internalType":"bool","name":"","type":"bool"}],"stateMutability":"view","type":"function"},{"inputs":[{"internalType":"address","name":"","type":"address"},{"internalType":"address","name":"","type":"address"}],"name":"setReferrer","outputs":[],"stateMutability":"nonpayable","type":"function"},{"inputs":[{"internalType":"address","name":"user","type":"address"},{"internalType":"uint256","name":"amount","type":"uint256"}],"name":"setTotalInvest","outputs":[],"stateMutability":"nonpayable","type":"function"},{"inputs":[{"internalType":"address","name":"","type":"address"}],"name":"totalInvest","outputs":[{"internalType":"uint256","name":"","type":"uint256"}],"stateMutability":"view","type":"function"}],"evm":{"bytecode":{"linkReferences":{},"object":"6080604052348015600e575f5ffd5b5061024f8061001c5f395ff3fe608060405234801561000f575f5ffd5b506004361061007a575f3560e01c8063879077c711610058578063879077c714610103578063bbddaca314610116578063f9f92be414610128578063fe575a871461015a575f5ffd5b806313b0dec71461007e5780635fd98f38146100b9578063776756aa146100d8575b5f5ffd5b6100a661008c3660046101a0565b6001600160a01b03165f9081526020819052604090205490565b6040519081526020015b60405180910390f35b6100a66100c73660046101a0565b5f6020819052908152604090205481565b6101016100e63660046101c0565b6001600160a01b039091165f90815260208190526040902055565b005b6100a66101113660046101a0565b505f90565b6101016101243660046101e8565b5050565b61014a6101363660046101a0565b60016020525f908152604090205460ff1681565b60405190151581526020016100b0565b61014a6101683660046101a0565b6001600160a01b03165f9081526001602052604090205460ff1690565b80356001600160a01b038116811461019b575f5ffd5b919050565b5f602082840312156101b0575f5ffd5b6101b982610185565b9392505050565b5f5f604083850312156101d1575f5ffd5b6101da83610185565b946020939093013593505050565b5f5f604083850312156101f9575f5ffd5b61020283610185565b915061021060208401610185565b9050925092905056fea26469706673582212205239b80c48b5905aee07849bf5a966bbb7bb0f1e323ee1e41a659f3f45f34fcb64736f6c63430008230033","opcodes":"PUSH1 0x80 PUSH1 0x40 MSTORE CALLVALUE DUP1 ISZERO PUSH1 0xE JUMPI PUSH0 PUSH0 REVERT JUMPDEST POP PUSH2 0x24F DUP1 PUSH2 0x1C PUSH0 CODECOPY PUSH0 RETURN INVALID PUSH1 0x80 PUSH1 0x40 MSTORE CALLVALUE DUP1 ISZERO PUSH2 0xF JUMPI PUSH0 PUSH0 REVERT JUMPDEST POP PUSH1 0x4 CALLDATASIZE LT PUSH2 0x7A JUMPI PUSH0 CALLDATALOAD PUSH1 0xE0 SHR DUP1 PUSH4 0x879077C7 GT PUSH2 0x58 JUMPI DUP1 PUSH4 0x879077C7 EQ PUSH2 0x103 JUMPI DUP1 PUSH4 0xBBDDACA3 EQ PUSH2 0x116 JUMPI DUP1 PUSH4 0xF9F92BE4 EQ PUSH2 0x128 JUMPI DUP1 PUSH4 0xFE575A87 EQ PUSH2 0x15A JUMPI PUSH0 PUSH0 REVERT JUMPDEST DUP1 PUSH4 0x13B0DEC7 EQ PUSH2 0x7E JUMPI DUP1 PUSH4 0x5FD98F38 EQ PUSH2 0xB9 JUMPI DUP1 PUSH4 0x776756AA EQ PUSH2 0xD8 JUMPI JUMPDEST PUSH0 PUSH0 REVERT JUMPDEST PUSH2 0xA6 PUSH2 0x8C CALLDATASIZE PUSH1 0x4 PUSH2 0x1A0 JUMP JUMPDEST PUSH1 0x1 PUSH1 0x1 PUSH1 0xA0 SHL SUB AND PUSH0 SWAP1 DUP2 MSTORE PUSH1 0x20 DUP2 SWAP1 MSTORE PUSH1 0x40 SWAP1 KECCAK256 SLOAD SWAP1 JUMP JUMPDEST PUSH1 0x40 MLOAD SWAP1 DUP2 MSTORE PUSH1 0x20 ADD JUMPDEST PUSH1 0x40 MLOAD DUP1 SWAP2 SUB SWAP1 RETURN JUMPDEST PUSH2 0xA6 PUSH2 0xC7 CALLDATASIZE PUSH1 0x4 PUSH2 0x1A0 JUMP JUMPDEST PUSH0 PUSH1 0x20 DUP2 SWAP1 MSTORE SWAP1 DUP2 MSTORE PUSH1 0x40 SWAP1 KECCAK256 SLOAD DUP2 JUMP JUMPDEST PUSH2 0x101 PUSH2 0xE6 CALLDATASIZE PUSH1 0x4 PUSH2 0x1C0 JUMP JUMPDEST PUSH1 0x1 PUSH1 0x1 PUSH1 0xA0 SHL SUB SWAP1 SWAP2 AND PUSH0 SWAP1 DUP2 MSTORE PUSH1 0x20 DUP2 SWAP1 MSTORE PUSH1 0x40 SWAP1 KECCAK256 SSTORE JUMP JUMPDEST STOP JUMPDEST PUSH2 0xA6 PUSH2 0x111 CALLDATASIZE PUSH1 0x4 PUSH2 0x1A0 JUMP JUMPDEST POP PUSH0 SWAP1 JUMP JUMPDEST PUSH2 0x101 PUSH2 0x124 CALLDATASIZE PUSH1 0x4 PUSH2 0x1E8 JUMP JUMPDEST POP POP JUMP JUMPDEST PUSH2 0x14A PUSH2 0x136 CALLDATASIZE PUSH1 0x4 PUSH2 0x1A0 JUMP JUMPDEST PUSH1 0x1 PUSH1 0x20 MSTORE PUSH0 SWAP1 DUP2 MSTORE PUSH1 0x40 SWAP1 KECCAK256 SLOAD PUSH1 0xFF AND DUP2 JUMP JUMPDEST PUSH1 0x40 MLOAD SWAP1 ISZERO ISZERO DUP2 MSTORE PUSH1 0x20 ADD PUSH2 0xB0 JUMP JUMPDEST PUSH2 0x14A PUSH2 0x168 CALLDATASIZE PUSH1 0x4 PUSH2 0x1A0 JUMP JUMPDEST PUSH1 0x1 PUSH1 0x1 PUSH1 0xA0 SHL SUB AND PUSH0 SWAP1 DUP2 MSTORE PUSH1 0x1 PUSH1 0x20 MSTORE PUSH1 0x40 SWAP1 KECCAK256 SLOAD PUSH1 0xFF AND SWAP1 JUMP JUMPDEST DUP1 CALLDATALOAD PUSH1 0x1 PUSH1 0x1 PUSH1 0xA0 SHL SUB DUP2 AND DUP2 EQ PUSH2 0x19B JUMPI PUSH0 PUSH0 REVERT JUMPDEST SWAP2 SWAP1 POP JUMP JUMPDEST PUSH0 PUSH1 0x20 DUP3 DUP5 SUB SLT ISZERO PUSH2 0x1B0 JUMPI PUSH0 PUSH0 REVERT JUMPDEST PUSH2 0x1B9 DUP3 PUSH2 0x185 JUMP JUMPDEST SWAP4 SWAP3 POP POP POP JUMP JUMPDEST PUSH0 PUSH0 PUSH1 0x40 DUP4 DUP6 SUB SLT ISZERO PUSH2 0x1D1 JUMPI PUSH0 PUSH0 REVERT JUMPDEST PUSH2 0x1DA DUP4 PUSH2 0x185 JUMP JUMPDEST SWAP5 PUSH1 0x20 SWAP4 SWAP1 SWAP4 ADD CALLDATALOAD SWAP4 POP POP POP JUMP JUMPDEST PUSH0 PUSH0 PUSH1 0x40 DUP4 DUP6 SUB SLT ISZERO PUSH2 0x1F9 JUMPI PUSH0 PUSH0 REVERT JUMPDEST PUSH2 0x202 DUP4 PUSH2 0x185 JUMP JUMPDEST SWAP2 POP PUSH2 0x210 PUSH1 0x20 DUP5 ADD PUSH2 0x185 JUMP JUMPDEST SWAP1 POP SWAP3 POP SWAP3 SWAP1 POP JUMP INVALID LOG2 PUSH5 0x6970667358 0x22 SLT KECCAK256 MSTORE CODECOPY 0xB8 0xC BASEFEE 0xB5 SWAP1 GAS RETURNCONTRACT 0x7 DUP5 SWAP12 CREATE2 0xA9 PUSH7 0xBBB7BB0F1E323E RJUMPI 0xE41A PUSH6 0x9F3F45F34FCB PUSH5 0x736F6C6343 STOP ADDMOD 0x23 STOP CALLER "},"methodIdentifiers":{"blacklist(address)":"f9f92be4","getUserEnergy(address)":"879077c7","getUserTotalInvest(address)":"13b0dec7","isBlacklisted(address)":"fe575a87","setReferrer(address,address)":"bbddaca3","setTotalInvest(address,uint256)":"776756aa","totalInvest(address)":"5fd98f38"}}}}}