{"src/mocks/DQMiningTestMocks.sol":{"MockPancakeRouterV3":{"abi":[{"inputs":[{"internalType":"address","name":"tokenA","type":"address"},{"internalType":"address","name":"tokenB","type":"address"},{"internalType":"uint256","name":"amountADesired","type":"uint256"},{"internalType":"uint256","name":"amountBDesired","type":"uint256"},{"internalType":"uint256","name":"","type":"uint256"},{"internalType":"uint256","name":"","type":"uint256"},{"internalType":"address","name":"to","type":"address"},{"internalType":"uint256","name":"","type":"uint256"}],"name":"addLiquidity","outputs":[{"internalType":"uint256","name":"amountA","type":"uint256"},{"internalType":"uint256","name":"amountB","type":"uint256"},{"internalType":"uint256","name":"liquidity","type":"uint256"}],"stateMutability":"nonpayable","type":"function"},{"inputs":[{"internalType":"uint256","name":"amountIn","type":"uint256"},{"internalType":"address[]","name":"path","type":"address[]"}],"name":"getAmountsOut","outputs":[{"internalType":"uint256[]","name":"amounts","type":"uint256[]"}],"stateMutability":"pure","type":"function"},{"inputs":[{"internalType":"address","name":"_lpToken","type":"address"}],"name":"initialize","outputs":[],"stateMutability":"nonpayable","type":"function"},{"inputs":[],"name":"lpToken","outputs":[{"internalType":"address","name":"","type":"address"}],"stateMutability":"view","type":"function"},{"inputs":[{"internalType":"uint256","name":"amountIn","type":"uint256"},{"internalType":"uint256","name":"","type":"uint256"},{"internalType":"address[]","name":"path","type":"address[]"},{"internalType":"address","name":"to","type":"address"},{"internalType":"uint256","name":"","type":"uint256"}],"name":"swapExactTokensForTokensSupportingFeeOnTransferTokens","outputs":[],"stateMutability":"nonpayable","type":"function"}],"evm":{"bytecode":{"linkReferences":{},"object":"6080604052348015600e575f5ffd5b506107208061001c5f395ff3fe608060405234801561000f575f5ffd5b5060043610610055575f3560e01c80635c11d795146100595780635fcbd2851461006e578063c4d66de81461009d578063d06ca61f146100b0578063e8e33700146100d0575b5f5ffd5b61006c61006736600461051b565b6100fe565b005b5f54610080906001600160a01b031681565b6040516001600160a01b0390911681526020015b60405180910390f35b61006c6100ab366004610588565b61022b565b6100c36100be3660046105a8565b61029e565b60405161009491906105f0565b6100e36100de366004610632565b61033c565b60408051938452602084019290925290820152606001610094565b83835f818110610110576101106106a3565b90506020020160208101906101259190610588565b6040516323b872dd60e01b8152336004820152306024820152604481018890526001600160a01b0391909116906323b872dd906064016020604051808303815f875af1158015610177573d5f5f3e3d5ffd5b505050506040513d601f19601f8201168201806040525081019061019b91906106b7565b50838360018181106101af576101af6106a3565b90506020020160208101906101c49190610588565b6040516340c10f1960e01b81526001600160a01b0384811660048301526024820189905291909116906340c10f19906044015f604051808303815f87803b15801561020d575f5ffd5b505af115801561021f573d5f5f3e3d5ffd5b50505050505050505050565b5f54600160a01b900460ff16156102765760405162461bcd60e51b815260206004820152600b60248201526a1a5b9a5d1a585b1a5e995960aa1b604482015260640160405180910390fd5b5f80546001600160a01b039092166001600160a81b031990921691909117600160a01b179055565b60608167ffffffffffffffff8111156102b9576102b96106d6565b6040519080825280602002602001820160405280156102e2578160200160208202803683370190505b50905083815f815181106102f8576102f86106a3565b602090810291909101015260015b828110156103345784828281518110610321576103216106a3565b6020908102919091010152600101610306565b509392505050565b6040516323b872dd60e01b8152336004820152306024820152604481018790525f90819081906001600160a01b038c16906323b872dd906064016020604051808303815f875af1158015610392573d5f5f3e3d5ffd5b505050506040513d601f19601f820116820180604052508101906103b691906106b7565b506040516323b872dd60e01b8152336004820152306024820152604481018990526001600160a01b038b16906323b872dd906064016020604051808303815f875af1158015610407573d5f5f3e3d5ffd5b505050506040513d601f19601f8201168201806040525081019061042b91906106b7565b5088925087915087891061043f5787610441565b885b905080156104aa575f546040516340c10f1960e01b81526001600160a01b03878116600483015260248201849052909116906340c10f19906044015f604051808303815f87803b158015610493575f5ffd5b505af11580156104a5573d5f5f3e3d5ffd5b505050505b985098509895505050505050565b5f5f83601f8401126104c8575f5ffd5b50813567ffffffffffffffff8111156104df575f5ffd5b6020830191508360208260051b85010111156104f9575f5ffd5b9250929050565b80356001600160a01b0381168114610516575f5ffd5b919050565b5f5f5f5f5f5f60a08789031215610530575f5ffd5b8635955060208701359450604087013567ffffffffffffffff811115610554575f5ffd5b61056089828a016104b8565b9095509350610573905060608801610500565b95989497509295919493608090920135925050565b5f60208284031215610598575f5ffd5b6105a182610500565b9392505050565b5f5f5f604084860312156105ba575f5ffd5b83359250602084013567ffffffffffffffff8111156105d7575f5ffd5b6105e3868287016104b8565b9497909650939450505050565b602080825282518282018190525f918401906040840190835b81811015610627578351835260209384019390920191600101610609565b509095945050505050565b5f5f5f5f5f5f5f5f610100898b03121561064a575f5ffd5b61065389610500565b975061066160208a01610500565b965060408901359550606089013594506080890135935060a0890135925061068b60c08a01610500565b979a969950949793969295919450919260e001359150565b634e487b7160e01b5f52603260045260245ffd5b5f602082840312156106c7575f5ffd5b815180151581146105a1575f5ffd5b634e487b7160e01b5f52604160045260245ffdfea26469706673582212206b1899de3c7a4b1de62bfa1f17d2caf3226b289613d580fa5b6608bdd072310764736f6c63430008230033","opcodes":"PUSH1 0x80 PUSH1 0x40 MSTORE CALLVALUE DUP1 ISZERO PUSH1 0xE JUMPI PUSH0 PUSH0 REVERT JUMPDEST POP PUSH2 0x720 DUP1 PUSH2 0x1C PUSH0 CODECOPY PUSH0 RETURN INVALID PUSH1 0x80 PUSH1 0x40 MSTORE CALLVALUE DUP1 ISZERO PUSH2 0xF JUMPI PUSH0 PUSH0 REVERT JUMPDEST POP PUSH1 0x4 CALLDATASIZE LT PUSH2 0x55 JUMPI PUSH0 CALLDATALOAD PUSH1 0xE0 SHR DUP1 PUSH4 0x5C11D795 EQ PUSH2 0x59 JUMPI DUP1 PUSH4 0x5FCBD285 EQ PUSH2 0x6E JUMPI DUP1 PUSH4 0xC4D66DE8 EQ PUSH2 0x9D JUMPI DUP1 PUSH4 0xD06CA61F EQ PUSH2 0xB0 JUMPI DUP1 PUSH4 0xE8E33700 EQ PUSH2 0xD0 JUMPI JUMPDEST PUSH0 PUSH0 REVERT JUMPDEST PUSH2 0x6C PUSH2 0x67 CALLDATASIZE PUSH1 0x4 PUSH2 0x51B JUMP JUMPDEST PUSH2 0xFE JUMP JUMPDEST STOP JUMPDEST PUSH0 SLOAD PUSH2 0x80 SWAP1 PUSH1 0x1 PUSH1 0x1 PUSH1 0xA0 SHL SUB AND DUP2 JUMP JUMPDEST PUSH1 0x40 MLOAD PUSH1 0x1 PUSH1 0x1 PUSH1 0xA0 SHL SUB SWAP1 SWAP2 AND DUP2 MSTORE PUSH1 0x20 ADD JUMPDEST PUSH1 0x40 MLOAD DUP1 SWAP2 SUB SWAP1 RETURN JUMPDEST PUSH2 0x6C PUSH2 0xAB CALLDATASIZE PUSH1 0x4 PUSH2 0x588 JUMP JUMPDEST PUSH2 0x22B JUMP JUMPDEST PUSH2 0xC3 PUSH2 0xBE CALLDATASIZE PUSH1 0x4 PUSH2 0x5A8 JUMP JUMPDEST PUSH2 0x29E JUMP JUMPDEST PUSH1 0x40 MLOAD PUSH2 0x94 SWAP2 SWAP1 PUSH2 0x5F0 JUMP JUMPDEST PUSH2 0xE3 PUSH2 0xDE CALLDATASIZE PUSH1 0x4 PUSH2 0x632 JUMP JUMPDEST PUSH2 0x33C JUMP JUMPDEST PUSH1 0x40 DUP1 MLOAD SWAP4 DUP5 MSTORE PUSH1 0x20 DUP5 ADD SWAP3 SWAP1 SWAP3 MSTORE SWAP1 DUP3 ADD MSTORE PUSH1 0x60 ADD PUSH2 0x94 JUMP JUMPDEST DUP4 DUP4 PUSH0 DUP2 DUP2 LT PUSH2 0x110 JUMPI PUSH2 0x110 PUSH2 0x6A3 JUMP JUMPDEST SWAP1 POP PUSH1 0x20 MUL ADD PUSH1 0x20 DUP2 ADD SWAP1 PUSH2 0x125 SWAP2 SWAP1 PUSH2 0x588 JUMP JUMPDEST PUSH1 0x40 MLOAD PUSH4 0x23B872DD PUSH1 0xE0 SHL DUP2 MSTORE CALLER PUSH1 0x4 DUP3 ADD MSTORE ADDRESS PUSH1 0x24 DUP3 ADD MSTORE PUSH1 0x44 DUP2 ADD DUP9 SWAP1 MSTORE PUSH1 0x1 PUSH1 0x1 PUSH1 0xA0 SHL SUB SWAP2 SWAP1 SWAP2 AND SWAP1 PUSH4 0x23B872DD SWAP1 PUSH1 0x64 ADD PUSH1 0x20 PUSH1 0x40 MLOAD DUP1 DUP4 SUB DUP2 PUSH0 DUP8 GAS CALL ISZERO DUP1 ISZERO PUSH2 0x177 JUMPI RETURNDATASIZE PUSH0 PUSH0 RETURNDATACOPY RETURNDATASIZE PUSH0 REVERT JUMPDEST POP POP POP POP PUSH1 0x40 MLOAD RETURNDATASIZE PUSH1 0x1F NOT PUSH1 0x1F DUP3 ADD AND DUP3 ADD DUP1 PUSH1 0x40 MSTORE POP DUP2 ADD SWAP1 PUSH2 0x19B SWAP2 SWAP1 PUSH2 0x6B7 JUMP JUMPDEST POP DUP4 DUP4 PUSH1 0x1 DUP2 DUP2 LT PUSH2 0x1AF JUMPI PUSH2 0x1AF PUSH2 0x6A3 JUMP JUMPDEST SWAP1 POP PUSH1 0x20 MUL ADD PUSH1 0x20 DUP2 ADD SWAP1 PUSH2 0x1C4 SWAP2 SWAP1 PUSH2 0x588 JUMP JUMPDEST PUSH1 0x40 MLOAD PUSH4 0x40C10F19 PUSH1 0xE0 SHL DUP2 MSTORE PUSH1 0x1 PUSH1 0x1 PUSH1 0xA0 SHL SUB DUP5 DUP2 AND PUSH1 0x4 DUP4 ADD MSTORE PUSH1 0x24 DUP3 ADD DUP10 SWAP1 MSTORE SWAP2 SWAP1 SWAP2 AND SWAP1 PUSH4 0x40C10F19 SWAP1 PUSH1 0x44 ADD PUSH0 PUSH1 0x40 MLOAD DUP1 DUP4 SUB DUP2 PUSH0 DUP8 DUP1 EXTCODESIZE ISZERO DUP1 ISZERO PUSH2 0x20D JUMPI PUSH0 PUSH0 REVERT JUMPDEST POP GAS CALL ISZERO DUP1 ISZERO PUSH2 0x21F JUMPI RETURNDATASIZE PUSH0 PUSH0 RETURNDATACOPY RETURNDATASIZE PUSH0 REVERT JUMPDEST POP POP POP POP POP POP POP POP POP POP JUMP JUMPDEST PUSH0 SLOAD PUSH1 0x1 PUSH1 0xA0 SHL SWAP1 DIV PUSH1 0xFF AND ISZERO PUSH2 0x276 JUMPI PUSH1 0x40 MLOAD PUSH3 0x461BCD PUSH1 0xE5 SHL DUP2 MSTORE PUSH1 0x20 PUSH1 0x4 DUP3 ADD MSTORE PUSH1 0xB PUSH1 0x24 DUP3 ADD MSTORE PUSH11 0x1A5B9A5D1A585B1A5E9959 PUSH1 0xAA SHL PUSH1 0x44 DUP3 ADD MSTORE PUSH1 0x64 ADD PUSH1 0x40 MLOAD DUP1 SWAP2 SUB SWAP1 REVERT JUMPDEST PUSH0 DUP1 SLOAD PUSH1 0x1 PUSH1 0x1 PUSH1 0xA0 SHL SUB SWAP1 SWAP3 AND PUSH1 0x1 PUSH1 0x1 PUSH1 0xA8 SHL SUB NOT SWAP1 SWAP3 AND SWAP2 SWAP1 SWAP2 OR PUSH1 0x1 PUSH1 0xA0 SHL OR SWAP1 SSTORE JUMP JUMPDEST PUSH1 0x60 DUP2 PUSH8 0xFFFFFFFFFFFFFFFF DUP2 GT ISZERO PUSH2 0x2B9 JUMPI PUSH2 0x2B9 PUSH2 0x6D6 JUMP JUMPDEST PUSH1 0x40 MLOAD SWAP1 DUP1 DUP3 MSTORE DUP1 PUSH1 0x20 MUL PUSH1 0x20 ADD DUP3 ADD PUSH1 0x40 MSTORE DUP1 ISZERO PUSH2 0x2E2 JUMPI DUP2 PUSH1 0x20 ADD PUSH1 0x20 DUP3 MUL DUP1 CALLDATASIZE DUP4 CALLDATACOPY ADD SWAP1 POP JUMPDEST POP SWAP1 POP DUP4 DUP2 PUSH0 DUP2 MLOAD DUP2 LT PUSH2 0x2F8 JUMPI PUSH2 0x2F8 PUSH2 0x6A3 JUMP JUMPDEST PUSH1 0x20 SWAP1 DUP2 MUL SWAP2 SWAP1 SWAP2 ADD ADD MSTORE PUSH1 0x1 JUMPDEST DUP3 DUP2 LT ISZERO PUSH2 0x334 JUMPI DUP5 DUP3 DUP3 DUP2 MLOAD DUP2 LT PUSH2 0x321 JUMPI PUSH2 0x321 PUSH2 0x6A3 JUMP JUMPDEST PUSH1 0x20 SWAP1 DUP2 MUL SWAP2 SWAP1 SWAP2 ADD ADD MSTORE PUSH1 0x1 ADD PUSH2 0x306 JUMP JUMPDEST POP SWAP4 SWAP3 POP POP POP JUMP JUMPDEST PUSH1 0x40 MLOAD PUSH4 0x23B872DD PUSH1 0xE0 SHL DUP2 MSTORE CALLER PUSH1 0x4 DUP3 ADD MSTORE ADDRESS PUSH1 0x24 DUP3 ADD MSTORE PUSH1 0x44 DUP2 ADD DUP8 SWAP1 MSTORE PUSH0 SWAP1 DUP2 SWAP1 DUP2 SWAP1 PUSH1 0x1 PUSH1 0x1 PUSH1 0xA0 SHL SUB DUP13 AND SWAP1 PUSH4 0x23B872DD SWAP1 PUSH1 0x64 ADD PUSH1 0x20 PUSH1 0x40 MLOAD DUP1 DUP4 SUB DUP2 PUSH0 DUP8 GAS CALL ISZERO DUP1 ISZERO PUSH2 0x392 JUMPI RETURNDATASIZE PUSH0 PUSH0 RETURNDATACOPY RETURNDATASIZE PUSH0 REVERT JUMPDEST POP POP POP POP PUSH1 0x40 MLOAD RETURNDATASIZE PUSH1 0x1F NOT PUSH1 0x1F DUP3 ADD AND DUP3 ADD DUP1 PUSH1 0x40 MSTORE POP DUP2 ADD SWAP1 PUSH2 0x3B6 SWAP2 SWAP1 PUSH2 0x6B7 JUMP JUMPDEST POP PUSH1 0x40 MLOAD PUSH4 0x23B872DD PUSH1 0xE0 SHL DUP2 MSTORE CALLER PUSH1 0x4 DUP3 ADD MSTORE ADDRESS PUSH1 0x24 DUP3 ADD MSTORE PUSH1 0x44 DUP2 ADD DUP10 SWAP1 MSTORE PUSH1 0x1 PUSH1 0x1 PUSH1 0xA0 SHL SUB DUP12 AND SWAP1 PUSH4 0x23B872DD SWAP1 PUSH1 0x64 ADD PUSH1 0x20 PUSH1 0x40 MLOAD DUP1 DUP4 SUB DUP2 PUSH0 DUP8 GAS CALL ISZERO DUP1 ISZERO PUSH2 0x407 JUMPI RETURNDATASIZE PUSH0 PUSH0 RETURNDATACOPY RETURNDATASIZE PUSH0 REVERT JUMPDEST POP POP POP POP PUSH1 0x40 MLOAD RETURNDATASIZE PUSH1 0x1F NOT PUSH1 0x1F DUP3 ADD AND DUP3 ADD DUP1 PUSH1 0x40 MSTORE POP DUP2 ADD SWAP1 PUSH2 0x42B SWAP2 SWAP1 PUSH2 0x6B7 JUMP JUMPDEST POP DUP9 SWAP3 POP DUP8 SWAP2 POP DUP8 DUP10 LT PUSH2 0x43F JUMPI DUP8 PUSH2 0x441 JUMP JUMPDEST DUP9 JUMPDEST SWAP1 POP DUP1 ISZERO PUSH2 0x4AA JUMPI PUSH0 SLOAD PUSH1 0x40 MLOAD PUSH4 0x40C10F19 PUSH1 0xE0 SHL DUP2 MSTORE PUSH1 0x1 PUSH1 0x1 PUSH1 0xA0 SHL SUB DUP8 DUP2 AND PUSH1 0x4 DUP4 ADD MSTORE PUSH1 0x24 DUP3 ADD DUP5 SWAP1 MSTORE SWAP1 SWAP2 AND SWAP1 PUSH4 0x40C10F19 SWAP1 PUSH1 0x44 ADD PUSH0 PUSH1 0x40 MLOAD DUP1 DUP4 SUB DUP2 PUSH0 DUP8 DUP1 EXTCODESIZE ISZERO DUP1 ISZERO PUSH2 0x493 JUMPI PUSH0 PUSH0 REVERT JUMPDEST POP GAS CALL ISZERO DUP1 ISZERO PUSH2 0x4A5 JUMPI RETURNDATASIZE PUSH0 PUSH0 RETURNDATACOPY RETURNDATASIZE PUSH0 REVERT JUMPDEST POP POP POP POP JUMPDEST SWAP9 POP SWAP9 POP SWAP9 SWAP6 POP POP POP POP POP POP JUMP JUMPDEST PUSH0 PUSH0 DUP4 PUSH1 0x1F DUP5 ADD SLT PUSH2 0x4C8 JUMPI PUSH0 PUSH0 REVERT JUMPDEST POP DUP2 CALLDATALOAD PUSH8 0xFFFFFFFFFFFFFFFF DUP2 GT ISZERO PUSH2 0x4DF JUMPI PUSH0 PUSH0 REVERT JUMPDEST PUSH1 0x20 DUP4 ADD SWAP2 POP DUP4 PUSH1 0x20 DUP3 PUSH1 0x5 SHL DUP6 ADD ADD GT ISZERO PUSH2 0x4F9 JUMPI PUSH0 PUSH0 REVERT JUMPDEST SWAP3 POP SWAP3 SWAP1 POP JUMP JUMPDEST DUP1 CALLDATALOAD PUSH1 0x1 PUSH1 0x1 PUSH1 0xA0 SHL SUB DUP2 AND DUP2 EQ PUSH2 0x516 JUMPI PUSH0 PUSH0 REVERT JUMPDEST SWAP2 SWAP1 POP JUMP JUMPDEST PUSH0 PUSH0 PUSH0 PUSH0 PUSH0 PUSH0 PUSH1 0xA0 DUP8 DUP10 SUB SLT ISZERO PUSH2 0x530 JUMPI PUSH0 PUSH0 REVERT JUMPDEST DUP7 CALLDATALOAD SWAP6 POP PUSH1 0x20 DUP8 ADD CALLDATALOAD SWAP5 POP PUSH1 0x40 DUP8 ADD CALLDATALOAD PUSH8 0xFFFFFFFFFFFFFFFF DUP2 GT ISZERO PUSH2 0x554 JUMPI PUSH0 PUSH0 REVERT JUMPDEST PUSH2 0x560 DUP10 DUP3 DUP11 ADD PUSH2 0x4B8 JUMP JUMPDEST SWAP1 SWAP6 POP SWAP4 POP PUSH2 0x573 SWAP1 POP PUSH1 0x60 DUP9 ADD PUSH2 0x500 JUMP JUMPDEST SWAP6 SWAP9 SWAP5 SWAP8 POP SWAP3 SWAP6 SWAP2 SWAP5 SWAP4 PUSH1 0x80 SWAP1 SWAP3 ADD CALLDATALOAD SWAP3 POP POP JUMP JUMPDEST PUSH0 PUSH1 0x20 DUP3 DUP5 SUB SLT ISZERO PUSH2 0x598 JUMPI PUSH0 PUSH0 REVERT JUMPDEST PUSH2 0x5A1 DUP3 PUSH2 0x500 JUMP JUMPDEST SWAP4 SWAP3 POP POP POP JUMP JUMPDEST PUSH0 PUSH0 PUSH0 PUSH1 0x40 DUP5 DUP7 SUB SLT ISZERO PUSH2 0x5BA JUMPI PUSH0 PUSH0 REVERT JUMPDEST DUP4 CALLDATALOAD SWAP3 POP PUSH1 0x20 DUP5 ADD CALLDATALOAD PUSH8 0xFFFFFFFFFFFFFFFF DUP2 GT ISZERO PUSH2 0x5D7 JUMPI PUSH0 PUSH0 REVERT JUMPDEST PUSH2 0x5E3 DUP7 DUP3 DUP8 ADD PUSH2 0x4B8 JUMP JUMPDEST SWAP5 SWAP8 SWAP1 SWAP7 POP SWAP4 SWAP5 POP POP POP POP JUMP JUMPDEST PUSH1 0x20 DUP1 DUP3 MSTORE DUP3 MLOAD DUP3 DUP3 ADD DUP2 SWAP1 MSTORE PUSH0 SWAP2 DUP5 ADD SWAP1 PUSH1 0x40 DUP5 ADD SWAP1 DUP4 JUMPDEST DUP2 DUP2 LT ISZERO PUSH2 0x627 JUMPI DUP4 MLOAD DUP4 MSTORE PUSH1 0x20 SWAP4 DUP5 ADD SWAP4 SWAP1 SWAP3 ADD SWAP2 PUSH1 0x1 ADD PUSH2 0x609 JUMP JUMPDEST POP SWAP1 SWAP6 SWAP5 POP POP POP POP POP JUMP JUMPDEST PUSH0 PUSH0 PUSH0 PUSH0 PUSH0 PUSH0 PUSH0 PUSH0 PUSH2 0x100 DUP10 DUP12 SUB SLT ISZERO PUSH2 0x64A JUMPI PUSH0 PUSH0 REVERT JUMPDEST PUSH2 0x653 DUP10 PUSH2 0x500 JUMP JUMPDEST SWAP8 POP PUSH2 0x661 PUSH1 0x20 DUP11 ADD PUSH2 0x500 JUMP JUMPDEST SWAP7 POP PUSH1 0x40 DUP10 ADD CALLDATALOAD SWAP6 POP PUSH1 0x60 DUP10 ADD CALLDATALOAD SWAP5 POP PUSH1 0x80 DUP10 ADD CALLDATALOAD SWAP4 POP PUSH1 0xA0 DUP10 ADD CALLDATALOAD SWAP3 POP PUSH2 0x68B PUSH1 0xC0 DUP11 ADD PUSH2 0x500 JUMP JUMPDEST SWAP8 SWAP11 SWAP7 SWAP10 POP SWAP5 SWAP8 SWAP4 SWAP7 SWAP3 SWAP6 SWAP2 SWAP5 POP SWAP2 SWAP3 PUSH1 0xE0 ADD CALLDATALOAD SWAP2 POP JUMP JUMPDEST PUSH4 0x4E487B71 PUSH1 0xE0 SHL PUSH0 MSTORE PUSH1 0x32 PUSH1 0x4 MSTORE PUSH1 0x24 PUSH0 REVERT JUMPDEST PUSH0 PUSH1 0x20 DUP3 DUP5 SUB SLT ISZERO PUSH2 0x6C7 JUMPI PUSH0 PUSH0 REVERT JUMPDEST DUP2 MLOAD DUP1 ISZERO ISZERO DUP2 EQ PUSH2 0x5A1 JUMPI PUSH0 PUSH0 REVERT JUMPDEST PUSH4 0x4E487B71 PUSH1 0xE0 SHL PUSH0 MSTORE PUSH1 0x41 PUSH1 0x4 MSTORE PUSH1 0x24 PUSH0 REVERT INVALID LOG2 PUSH5 0x6970667358 0x22 SLT KECCAK256 PUSH12 0x1899DE3C7A4B1DE62BFA1F17 0xD2 0xCA RETURN 0x22 PUSH12 0x289613D580FA5B6608BDD072 BALANCE SMOD PUSH5 0x736F6C6343 STOP ADDMOD 0x23 STOP CALLER "},"methodIdentifiers":{"addLiquidity(address,address,uint256,uint256,uint256,uint256,address,uint256)":"e8e33700","getAmountsOut(uint256,address[])":"d06ca61f","initialize(address)":"c4d66de8","lpToken()":"5fcbd285","swapExactTokensForTokensSupportingFeeOnTransferTokens(uint256,uint256,address[],address,uint256)":"5c11d795"}}}}}