{"src/mocks/DQMiningTestMocks.sol":{"MockDQCard":{"abi":[{"inputs":[],"name":"PRICE_A","outputs":[{"internalType":"uint256","name":"","type":"uint256"}],"stateMutability":"view","type":"function"},{"inputs":[],"name":"PRICE_B","outputs":[{"internalType":"uint256","name":"","type":"uint256"}],"stateMutability":"view","type":"function"},{"inputs":[],"name":"PRICE_C","outputs":[{"internalType":"uint256","name":"","type":"uint256"}],"stateMutability":"view","type":"function"},{"inputs":[{"internalType":"address","name":"owner","type":"address"}],"name":"balanceOf","outputs":[{"internalType":"uint256","name":"","type":"uint256"}],"stateMutability":"view","type":"function"},{"inputs":[{"internalType":"uint256","name":"","type":"uint256"}],"name":"cardType","outputs":[{"internalType":"uint256","name":"","type":"uint256"}],"stateMutability":"view","type":"function"},{"inputs":[{"internalType":"uint256","name":"_type","type":"uint256"}],"name":"getCardPrice","outputs":[{"internalType":"uint256","name":"","type":"uint256"}],"stateMutability":"pure","type":"function"},{"inputs":[{"internalType":"address","name":"to","type":"address"},{"internalType":"uint256","name":"_type","type":"uint256"}],"name":"mintByOwner","outputs":[],"stateMutability":"nonpayable","type":"function"},{"inputs":[{"internalType":"address","name":"owner","type":"address"},{"internalType":"uint256","name":"index","type":"uint256"}],"name":"tokenOfOwnerByIndex","outputs":[{"internalType":"uint256","name":"","type":"uint256"}],"stateMutability":"view","type":"function"},{"inputs":[],"name":"totalA","outputs":[{"internalType":"uint256","name":"","type":"uint256"}],"stateMutability":"view","type":"function"},{"inputs":[],"name":"totalB","outputs":[{"internalType":"uint256","name":"","type":"uint256"}],"stateMutability":"view","type":"function"},{"inputs":[],"name":"totalC","outputs":[{"internalType":"uint256","name":"","type":"uint256"}],"stateMutability":"view","type":"function"}],"evm":{"bytecode":{"linkReferences":{},"object":"6080604052348015600e575f5ffd5b506103e68061001c5f395ff3fe608060405234801561000f575f5ffd5b50600436106100a6575f3560e01c80636866537d1161006e5780636866537d1461010d57806370a082311461012057806373cda3e414610148578063b629640b14610159578063d15dfe2d14610161578063fcf49adf1461016a575f5ffd5b806313eeea08146100aa578063193491b5146100cc5780632f745c59146100d55780633542aee2146100e857806353d79447146100fd575b5f5ffd5b6100ba681b1ae4d6e2ef50000081565b60405190815260200160405180910390f35b6100ba60015481565b6100ba6100e336600461031e565b610189565b6100fb6100f636600461031e565b6101c4565b005b6100ba685150ae84a8cdf0000081565b6100ba61011b366004610346565b6102c1565b6100ba61012e36600461035d565b6001600160a01b03165f9081526004602052604090205490565b6100ba69010f0cf064dd5920000081565b6100ba5f5481565b6100ba60025481565b6100ba610178366004610346565b60056020525f908152604090205481565b6001600160a01b0382165f9081526004602052604081208054839081106101b2576101b261037d565b905f5260205f20015490505b92915050565b600181101580156101d6575060038111155b6102155760405162461bcd60e51b815260206004820152600c60248201526b696e76616c6964207479706560a01b604482015260640160405180910390fd5b600160035f8282546102279190610391565b90915550506001600160a01b0382165f908152600460209081526040808320600380548254600181810185559387528587200155548452600590925290912082905581900361028c5760015f5f8282546102819190610391565b909155506102bd9050565b806002036102a5576001805f8282546102819190610391565b600160025f8282546102b79190610391565b90915550505b5050565b5f816001036102da5750681b1ae4d6e2ef500000919050565b816002036102f25750685150ae84a8cdf00000919050565b5069010f0cf064dd59200000919050565b80356001600160a01b0381168114610319575f5ffd5b919050565b5f5f6040838503121561032f575f5ffd5b61033883610303565b946020939093013593505050565b5f60208284031215610356575f5ffd5b5035919050565b5f6020828403121561036d575f5ffd5b61037682610303565b9392505050565b634e487b7160e01b5f52603260045260245ffd5b808201808211156101be57634e487b7160e01b5f52601160045260245ffdfea26469706673582212203aebe3c8f50f89ca8a3d0dcca4ff47bfb397e8687138f54480b4d651c8229a3964736f6c63430008230033","opcodes":"PUSH1 0x80 PUSH1 0x40 MSTORE CALLVALUE DUP1 ISZERO PUSH1 0xE JUMPI PUSH0 PUSH0 REVERT JUMPDEST POP PUSH2 0x3E6 DUP1 PUSH2 0x1C PUSH0 CODECOPY PUSH0 RETURN INVALID PUSH1 0x80 PUSH1 0x40 MSTORE CALLVALUE DUP1 ISZERO PUSH2 0xF JUMPI PUSH0 PUSH0 REVERT JUMPDEST POP PUSH1 0x4 CALLDATASIZE LT PUSH2 0xA6 JUMPI PUSH0 CALLDATALOAD PUSH1 0xE0 SHR DUP1 PUSH4 0x6866537D GT PUSH2 0x6E JUMPI DUP1 PUSH4 0x6866537D EQ PUSH2 0x10D JUMPI DUP1 PUSH4 0x70A08231 EQ PUSH2 0x120 JUMPI DUP1 PUSH4 0x73CDA3E4 EQ PUSH2 0x148 JUMPI DUP1 PUSH4 0xB629640B EQ PUSH2 0x159 JUMPI DUP1 PUSH4 0xD15DFE2D EQ PUSH2 0x161 JUMPI DUP1 PUSH4 0xFCF49ADF EQ PUSH2 0x16A JUMPI PUSH0 PUSH0 REVERT JUMPDEST DUP1 PUSH4 0x13EEEA08 EQ PUSH2 0xAA JUMPI DUP1 PUSH4 0x193491B5 EQ PUSH2 0xCC JUMPI DUP1 PUSH4 0x2F745C59 EQ PUSH2 0xD5 JUMPI DUP1 PUSH4 0x3542AEE2 EQ PUSH2 0xE8 JUMPI DUP1 PUSH4 0x53D79447 EQ PUSH2 0xFD JUMPI JUMPDEST PUSH0 PUSH0 REVERT JUMPDEST PUSH2 0xBA PUSH9 0x1B1AE4D6E2EF500000 DUP2 JUMP JUMPDEST PUSH1 0x40 MLOAD SWAP1 DUP2 MSTORE PUSH1 0x20 ADD PUSH1 0x40 MLOAD DUP1 SWAP2 SUB SWAP1 RETURN JUMPDEST PUSH2 0xBA PUSH1 0x1 SLOAD DUP2 JUMP JUMPDEST PUSH2 0xBA PUSH2 0xE3 CALLDATASIZE PUSH1 0x4 PUSH2 0x31E JUMP JUMPDEST PUSH2 0x189 JUMP JUMPDEST PUSH2 0xFB PUSH2 0xF6 CALLDATASIZE PUSH1 0x4 PUSH2 0x31E JUMP JUMPDEST PUSH2 0x1C4 JUMP JUMPDEST STOP JUMPDEST PUSH2 0xBA PUSH9 0x5150AE84A8CDF00000 DUP2 JUMP JUMPDEST PUSH2 0xBA PUSH2 0x11B CALLDATASIZE PUSH1 0x4 PUSH2 0x346 JUMP JUMPDEST PUSH2 0x2C1 JUMP JUMPDEST PUSH2 0xBA PUSH2 0x12E CALLDATASIZE PUSH1 0x4 PUSH2 0x35D JUMP JUMPDEST PUSH1 0x1 PUSH1 0x1 PUSH1 0xA0 SHL SUB AND PUSH0 SWAP1 DUP2 MSTORE PUSH1 0x4 PUSH1 0x20 MSTORE PUSH1 0x40 SWAP1 KECCAK256 SLOAD SWAP1 JUMP JUMPDEST PUSH2 0xBA PUSH10 0x10F0CF064DD59200000 DUP2 JUMP JUMPDEST PUSH2 0xBA PUSH0 SLOAD DUP2 JUMP JUMPDEST PUSH2 0xBA PUSH1 0x2 SLOAD DUP2 JUMP JUMPDEST PUSH2 0xBA PUSH2 0x178 CALLDATASIZE PUSH1 0x4 PUSH2 0x346 JUMP JUMPDEST PUSH1 0x5 PUSH1 0x20 MSTORE PUSH0 SWAP1 DUP2 MSTORE PUSH1 0x40 SWAP1 KECCAK256 SLOAD DUP2 JUMP JUMPDEST PUSH1 0x1 PUSH1 0x1 PUSH1 0xA0 SHL SUB DUP3 AND PUSH0 SWAP1 DUP2 MSTORE PUSH1 0x4 PUSH1 0x20 MSTORE PUSH1 0x40 DUP2 KECCAK256 DUP1 SLOAD DUP4 SWAP1 DUP2 LT PUSH2 0x1B2 JUMPI PUSH2 0x1B2 PUSH2 0x37D JUMP JUMPDEST SWAP1 PUSH0 MSTORE PUSH1 0x20 PUSH0 KECCAK256 ADD SLOAD SWAP1 POP JUMPDEST SWAP3 SWAP2 POP POP JUMP JUMPDEST PUSH1 0x1 DUP2 LT ISZERO DUP1 ISZERO PUSH2 0x1D6 JUMPI POP PUSH1 0x3 DUP2 GT ISZERO JUMPDEST PUSH2 0x215 JUMPI PUSH1 0x40 MLOAD PUSH3 0x461BCD PUSH1 0xE5 SHL DUP2 MSTORE PUSH1 0x20 PUSH1 0x4 DUP3 ADD MSTORE PUSH1 0xC PUSH1 0x24 DUP3 ADD MSTORE PUSH12 0x696E76616C69642074797065 PUSH1 0xA0 SHL PUSH1 0x44 DUP3 ADD MSTORE PUSH1 0x64 ADD PUSH1 0x40 MLOAD DUP1 SWAP2 SUB SWAP1 REVERT JUMPDEST PUSH1 0x1 PUSH1 0x3 PUSH0 DUP3 DUP3 SLOAD PUSH2 0x227 SWAP2 SWAP1 PUSH2 0x391 JUMP JUMPDEST SWAP1 SWAP2 SSTORE POP POP PUSH1 0x1 PUSH1 0x1 PUSH1 0xA0 SHL SUB DUP3 AND PUSH0 SWAP1 DUP2 MSTORE PUSH1 0x4 PUSH1 0x20 SWAP1 DUP2 MSTORE PUSH1 0x40 DUP1 DUP4 KECCAK256 PUSH1 0x3 DUP1 SLOAD DUP3 SLOAD PUSH1 0x1 DUP2 DUP2 ADD DUP6 SSTORE SWAP4 DUP8 MSTORE DUP6 DUP8 KECCAK256 ADD SSTORE SLOAD DUP5 MSTORE PUSH1 0x5 SWAP1 SWAP3 MSTORE SWAP1 SWAP2 KECCAK256 DUP3 SWAP1 SSTORE DUP2 SWAP1 SUB PUSH2 0x28C JUMPI PUSH1 0x1 PUSH0 PUSH0 DUP3 DUP3 SLOAD PUSH2 0x281 SWAP2 SWAP1 PUSH2 0x391 JUMP JUMPDEST SWAP1 SWAP2 SSTORE POP PUSH2 0x2BD SWAP1 POP JUMP JUMPDEST DUP1 PUSH1 0x2 SUB PUSH2 0x2A5 JUMPI PUSH1 0x1 DUP1 PUSH0 DUP3 DUP3 SLOAD PUSH2 0x281 SWAP2 SWAP1 PUSH2 0x391 JUMP JUMPDEST PUSH1 0x1 PUSH1 0x2 PUSH0 DUP3 DUP3 SLOAD PUSH2 0x2B7 SWAP2 SWAP1 PUSH2 0x391 JUMP JUMPDEST SWAP1 SWAP2 SSTORE POP POP JUMPDEST POP POP JUMP JUMPDEST PUSH0 DUP2 PUSH1 0x1 SUB PUSH2 0x2DA JUMPI POP PUSH9 0x1B1AE4D6E2EF500000 SWAP2 SWAP1 POP JUMP JUMPDEST DUP2 PUSH1 0x2 SUB PUSH2 0x2F2 JUMPI POP PUSH9 0x5150AE84A8CDF00000 SWAP2 SWAP1 POP JUMP JUMPDEST POP PUSH10 0x10F0CF064DD59200000 SWAP2 SWAP1 POP JUMP JUMPDEST DUP1 CALLDATALOAD PUSH1 0x1 PUSH1 0x1 PUSH1 0xA0 SHL SUB DUP2 AND DUP2 EQ PUSH2 0x319 JUMPI PUSH0 PUSH0 REVERT JUMPDEST SWAP2 SWAP1 POP JUMP JUMPDEST PUSH0 PUSH0 PUSH1 0x40 DUP4 DUP6 SUB SLT ISZERO PUSH2 0x32F JUMPI PUSH0 PUSH0 REVERT JUMPDEST PUSH2 0x338 DUP4 PUSH2 0x303 JUMP JUMPDEST SWAP5 PUSH1 0x20 SWAP4 SWAP1 SWAP4 ADD CALLDATALOAD SWAP4 POP POP POP JUMP JUMPDEST PUSH0 PUSH1 0x20 DUP3 DUP5 SUB SLT ISZERO PUSH2 0x356 JUMPI PUSH0 PUSH0 REVERT JUMPDEST POP CALLDATALOAD SWAP2 SWAP1 POP JUMP JUMPDEST PUSH0 PUSH1 0x20 DUP3 DUP5 SUB SLT ISZERO PUSH2 0x36D JUMPI PUSH0 PUSH0 REVERT JUMPDEST PUSH2 0x376 DUP3 PUSH2 0x303 JUMP JUMPDEST SWAP4 SWAP3 POP POP POP JUMP JUMPDEST PUSH4 0x4E487B71 PUSH1 0xE0 SHL PUSH0 MSTORE PUSH1 0x32 PUSH1 0x4 MSTORE PUSH1 0x24 PUSH0 REVERT JUMPDEST DUP1 DUP3 ADD DUP1 DUP3 GT ISZERO PUSH2 0x1BE JUMPI PUSH4 0x4E487B71 PUSH1 0xE0 SHL PUSH0 MSTORE PUSH1 0x11 PUSH1 0x4 MSTORE PUSH1 0x24 PUSH0 REVERT INVALID LOG2 PUSH5 0x6970667358 0x22 SLT KECCAK256 GASPRICE 0xEB CALLF 0xC8F5 0xF DUP10 0xCA DUP11 RETURNDATASIZE 0xD 0xCC LOG4 SELFDESTRUCT SELFBALANCE 0xBF 0xB3 SWAP8 0xE8 PUSH9 0x7138F54480B4D651C8 0x22 SWAP11 CODECOPY PUSH5 0x736F6C6343 STOP ADDMOD 0x23 STOP CALLER "},"methodIdentifiers":{"PRICE_A()":"13eeea08","PRICE_B()":"53d79447","PRICE_C()":"73cda3e4","balanceOf(address)":"70a08231","cardType(uint256)":"fcf49adf","getCardPrice(uint256)":"6866537d","mintByOwner(address,uint256)":"3542aee2","tokenOfOwnerByIndex(address,uint256)":"2f745c59","totalA()":"b629640b","totalB()":"193491b5","totalC()":"d15dfe2d"}}}}}