{"src/mocks/DQMiningTestMocks.sol":{"MockMineContract":{"abi":[{"inputs":[{"internalType":"uint256","name":"","type":"uint256"}],"name":"distributeDRankReward","outputs":[],"stateMutability":"nonpayable","type":"function"},{"inputs":[{"internalType":"uint256","name":"","type":"uint256"}],"name":"distributeLPReward","outputs":[],"stateMutability":"nonpayable","type":"function"},{"inputs":[{"internalType":"uint256","name":"","type":"uint256"}],"name":"distributeNodeReward","outputs":[],"stateMutability":"nonpayable","type":"function"}],"evm":{"bytecode":{"linkReferences":{},"object":"6080604052348015600e575f5ffd5b50609a80601a5f395ff3fe6080604052348015600e575f5ffd5b5060043610603a575f3560e01c8063450b545714603e57806346bb0cd614603e5780637c85bb6214603e575b5f5ffd5b604c6049366004604e565b50565b005b5f60208284031215605d575f5ffd5b503591905056fea2646970667358221220073cddd97f4348c2d9f515d3e777b3cc474ccc5d753cffc45ca422b76254ec6164736f6c63430008230033","opcodes":"PUSH1 0x80 PUSH1 0x40 MSTORE CALLVALUE DUP1 ISZERO PUSH1 0xE JUMPI PUSH0 PUSH0 REVERT JUMPDEST POP PUSH1 0x9A DUP1 PUSH1 0x1A PUSH0 CODECOPY PUSH0 RETURN INVALID PUSH1 0x80 PUSH1 0x40 MSTORE CALLVALUE DUP1 ISZERO PUSH1 0xE JUMPI PUSH0 PUSH0 REVERT JUMPDEST POP PUSH1 0x4 CALLDATASIZE LT PUSH1 0x3A JUMPI PUSH0 CALLDATALOAD PUSH1 0xE0 SHR DUP1 PUSH4 0x450B5457 EQ PUSH1 0x3E JUMPI DUP1 PUSH4 0x46BB0CD6 EQ PUSH1 0x3E JUMPI DUP1 PUSH4 0x7C85BB62 EQ PUSH1 0x3E JUMPI JUMPDEST PUSH0 PUSH0 REVERT JUMPDEST PUSH1 0x4C PUSH1 0x49 CALLDATASIZE PUSH1 0x4 PUSH1 0x4E JUMP JUMPDEST POP JUMP JUMPDEST STOP JUMPDEST PUSH0 PUSH1 0x20 DUP3 DUP5 SUB SLT ISZERO PUSH1 0x5D JUMPI PUSH0 PUSH0 REVERT JUMPDEST POP CALLDATALOAD SWAP2 SWAP1 POP JUMP INVALID LOG2 PUSH5 0x6970667358 0x22 SLT KECCAK256 SMOD EXTCODECOPY 0xDD 0xD9 PUSH32 0x4348C2D9F515D3E777B3CC474CCC5D753CFFC45CA422B76254EC6164736F6C63 NUMBER STOP ADDMOD 0x23 STOP CALLER "},"methodIdentifiers":{"distributeDRankReward(uint256)":"7c85bb62","distributeLPReward(uint256)":"450b5457","distributeNodeReward(uint256)":"46bb0cd6"}}}}}