{"src/mocks/DQMiningTestMocks.sol":{"MockPancakeRouter":{"abi":[{"inputs":[{"internalType":"address","name":"tokenA","type":"address"},{"internalType":"address","name":"tokenB","type":"address"},{"internalType":"uint256","name":"amountADesired","type":"uint256"},{"internalType":"uint256","name":"amountBDesired","type":"uint256"},{"internalType":"uint256","name":"","type":"uint256"},{"internalType":"uint256","name":"","type":"uint256"},{"internalType":"address","name":"","type":"address"},{"internalType":"uint256","name":"","type":"uint256"}],"name":"addLiquidity","outputs":[{"internalType":"uint256","name":"amountA","type":"uint256"},{"internalType":"uint256","name":"amountB","type":"uint256"},{"internalType":"uint256","name":"liquidity","type":"uint256"}],"stateMutability":"nonpayable","type":"function"},{"inputs":[{"internalType":"uint256","name":"amountIn","type":"uint256"},{"internalType":"address[]","name":"path","type":"address[]"}],"name":"getAmountsOut","outputs":[{"internalType":"uint256[]","name":"amounts","type":"uint256[]"}],"stateMutability":"pure","type":"function"},{"inputs":[{"internalType":"uint256","name":"amountIn","type":"uint256"},{"internalType":"uint256","name":"","type":"uint256"},{"internalType":"address[]","name":"path","type":"address[]"},{"internalType":"address","name":"to","type":"address"},{"internalType":"uint256","name":"","type":"uint256"}],"name":"swapExactTokensForTokensSupportingFeeOnTransferTokens","outputs":[],"stateMutability":"nonpayable","type":"function"}],"evm":{"bytecode":{"linkReferences":{},"object":"6080604052348015600e575f5ffd5b506105f78061001c5f395ff3fe608060405234801561000f575f5ffd5b506004361061003f575f3560e01c80635c11d79514610043578063d06ca61f14610058578063e8e3370014610081575b5f5ffd5b6100566100513660046103f2565b6100af565b005b61006b61006636600461045f565b6101dc565b60405161007891906104a7565b60405180910390f35b61009461008f3660046104e9565b61027a565b60408051938452602084019290925290820152606001610078565b83835f8181106100c1576100c161055a565b90506020020160208101906100d6919061056e565b6040516323b872dd60e01b8152336004820152306024820152604481018890526001600160a01b0391909116906323b872dd906064016020604051808303815f875af1158015610128573d5f5f3e3d5ffd5b505050506040513d601f19601f8201168201806040525081019061014c919061058e565b50838360018181106101605761016061055a565b9050602002016020810190610175919061056e565b6040516340c10f1960e01b81526001600160a01b0384811660048301526024820189905291909116906340c10f19906044015f604051808303815f87803b1580156101be575f5ffd5b505af11580156101d0573d5f5f3e3d5ffd5b50505050505050505050565b60608167ffffffffffffffff8111156101f7576101f76105ad565b604051908082528060200260200182016040528015610220578160200160208202803683370190505b50905083815f815181106102365761023661055a565b602090810291909101015260015b82811015610272578482828151811061025f5761025f61055a565b6020908102919091010152600101610244565b509392505050565b6040516323b872dd60e01b8152336004820152306024820152604481018790525f90819081906001600160a01b038c16906323b872dd906064016020604051808303815f875af11580156102d0573d5f5f3e3d5ffd5b505050506040513d601f19601f820116820180604052508101906102f4919061058e565b506040516323b872dd60e01b8152336004820152306024820152604481018990526001600160a01b038b16906323b872dd906064016020604051808303815f875af1158015610345573d5f5f3e3d5ffd5b505050506040513d601f19601f82011682018060405250810190610369919061058e565b5088925087915087891061037d578761037f565b885b9050985098509895505050505050565b5f5f83601f84011261039f575f5ffd5b50813567ffffffffffffffff8111156103b6575f5ffd5b6020830191508360208260051b85010111156103d0575f5ffd5b9250929050565b80356001600160a01b03811681146103ed575f5ffd5b919050565b5f5f5f5f5f5f60a08789031215610407575f5ffd5b8635955060208701359450604087013567ffffffffffffffff81111561042b575f5ffd5b61043789828a0161038f565b909550935061044a9050606088016103d7565b95989497509295919493608090920135925050565b5f5f5f60408486031215610471575f5ffd5b83359250602084013567ffffffffffffffff81111561048e575f5ffd5b61049a8682870161038f565b9497909650939450505050565b602080825282518282018190525f918401906040840190835b818110156104de5783518352602093840193909201916001016104c0565b509095945050505050565b5f5f5f5f5f5f5f5f610100898b031215610501575f5ffd5b61050a896103d7565b975061051860208a016103d7565b965060408901359550606089013594506080890135935060a0890135925061054260c08a016103d7565b979a969950949793969295919450919260e001359150565b634e487b7160e01b5f52603260045260245ffd5b5f6020828403121561057e575f5ffd5b610587826103d7565b9392505050565b5f6020828403121561059e575f5ffd5b81518015158114610587575f5ffd5b634e487b7160e01b5f52604160045260245ffdfea264697066735822122090cc06b65d96b69a2be0ed29f9aa23fdea023833160472e3407a54a3d73d681c64736f6c63430008230033","opcodes":"PUSH1 0x80 PUSH1 0x40 MSTORE CALLVALUE DUP1 ISZERO PUSH1 0xE JUMPI PUSH0 PUSH0 REVERT JUMPDEST POP PUSH2 0x5F7 DUP1 PUSH2 0x1C PUSH0 CODECOPY PUSH0 RETURN INVALID PUSH1 0x80 PUSH1 0x40 MSTORE CALLVALUE DUP1 ISZERO PUSH2 0xF JUMPI PUSH0 PUSH0 REVERT JUMPDEST POP PUSH1 0x4 CALLDATASIZE LT PUSH2 0x3F JUMPI PUSH0 CALLDATALOAD PUSH1 0xE0 SHR DUP1 PUSH4 0x5C11D795 EQ PUSH2 0x43 JUMPI DUP1 PUSH4 0xD06CA61F EQ PUSH2 0x58 JUMPI DUP1 PUSH4 0xE8E33700 EQ PUSH2 0x81 JUMPI JUMPDEST PUSH0 PUSH0 REVERT JUMPDEST PUSH2 0x56 PUSH2 0x51 CALLDATASIZE PUSH1 0x4 PUSH2 0x3F2 JUMP JUMPDEST PUSH2 0xAF JUMP JUMPDEST STOP JUMPDEST PUSH2 0x6B PUSH2 0x66 CALLDATASIZE PUSH1 0x4 PUSH2 0x45F JUMP JUMPDEST PUSH2 0x1DC JUMP JUMPDEST PUSH1 0x40 MLOAD PUSH2 0x78 SWAP2 SWAP1 PUSH2 0x4A7 JUMP JUMPDEST PUSH1 0x40 MLOAD DUP1 SWAP2 SUB SWAP1 RETURN JUMPDEST PUSH2 0x94 PUSH2 0x8F CALLDATASIZE PUSH1 0x4 PUSH2 0x4E9 JUMP JUMPDEST PUSH2 0x27A JUMP JUMPDEST PUSH1 0x40 DUP1 MLOAD SWAP4 DUP5 MSTORE PUSH1 0x20 DUP5 ADD SWAP3 SWAP1 SWAP3 MSTORE SWAP1 DUP3 ADD MSTORE PUSH1 0x60 ADD PUSH2 0x78 JUMP JUMPDEST DUP4 DUP4 PUSH0 DUP2 DUP2 LT PUSH2 0xC1 JUMPI PUSH2 0xC1 PUSH2 0x55A JUMP JUMPDEST SWAP1 POP PUSH1 0x20 MUL ADD PUSH1 0x20 DUP2 ADD SWAP1 PUSH2 0xD6 SWAP2 SWAP1 PUSH2 0x56E JUMP JUMPDEST PUSH1 0x40 MLOAD PUSH4 0x23B872DD PUSH1 0xE0 SHL DUP2 MSTORE CALLER PUSH1 0x4 DUP3 ADD MSTORE ADDRESS PUSH1 0x24 DUP3 ADD MSTORE PUSH1 0x44 DUP2 ADD DUP9 SWAP1 MSTORE PUSH1 0x1 PUSH1 0x1 PUSH1 0xA0 SHL SUB SWAP2 SWAP1 SWAP2 AND SWAP1 PUSH4 0x23B872DD SWAP1 PUSH1 0x64 ADD PUSH1 0x20 PUSH1 0x40 MLOAD DUP1 DUP4 SUB DUP2 PUSH0 DUP8 GAS CALL ISZERO DUP1 ISZERO PUSH2 0x128 JUMPI RETURNDATASIZE PUSH0 PUSH0 RETURNDATACOPY RETURNDATASIZE PUSH0 REVERT JUMPDEST POP POP POP POP PUSH1 0x40 MLOAD RETURNDATASIZE PUSH1 0x1F NOT PUSH1 0x1F DUP3 ADD AND DUP3 ADD DUP1 PUSH1 0x40 MSTORE POP DUP2 ADD SWAP1 PUSH2 0x14C SWAP2 SWAP1 PUSH2 0x58E JUMP JUMPDEST POP DUP4 DUP4 PUSH1 0x1 DUP2 DUP2 LT PUSH2 0x160 JUMPI PUSH2 0x160 PUSH2 0x55A JUMP JUMPDEST SWAP1 POP PUSH1 0x20 MUL ADD PUSH1 0x20 DUP2 ADD SWAP1 PUSH2 0x175 SWAP2 SWAP1 PUSH2 0x56E JUMP JUMPDEST PUSH1 0x40 MLOAD PUSH4 0x40C10F19 PUSH1 0xE0 SHL DUP2 MSTORE PUSH1 0x1 PUSH1 0x1 PUSH1 0xA0 SHL SUB DUP5 DUP2 AND PUSH1 0x4 DUP4 ADD MSTORE PUSH1 0x24 DUP3 ADD DUP10 SWAP1 MSTORE SWAP2 SWAP1 SWAP2 AND SWAP1 PUSH4 0x40C10F19 SWAP1 PUSH1 0x44 ADD PUSH0 PUSH1 0x40 MLOAD DUP1 DUP4 SUB DUP2 PUSH0 DUP8 DUP1 EXTCODESIZE ISZERO DUP1 ISZERO PUSH2 0x1BE JUMPI PUSH0 PUSH0 REVERT JUMPDEST POP GAS CALL ISZERO DUP1 ISZERO PUSH2 0x1D0 JUMPI RETURNDATASIZE PUSH0 PUSH0 RETURNDATACOPY RETURNDATASIZE PUSH0 REVERT JUMPDEST POP POP POP POP POP POP POP POP POP POP JUMP JUMPDEST PUSH1 0x60 DUP2 PUSH8 0xFFFFFFFFFFFFFFFF DUP2 GT ISZERO PUSH2 0x1F7 JUMPI PUSH2 0x1F7 PUSH2 0x5AD JUMP JUMPDEST PUSH1 0x40 MLOAD SWAP1 DUP1 DUP3 MSTORE DUP1 PUSH1 0x20 MUL PUSH1 0x20 ADD DUP3 ADD PUSH1 0x40 MSTORE DUP1 ISZERO PUSH2 0x220 JUMPI DUP2 PUSH1 0x20 ADD PUSH1 0x20 DUP3 MUL DUP1 CALLDATASIZE DUP4 CALLDATACOPY ADD SWAP1 POP JUMPDEST POP SWAP1 POP DUP4 DUP2 PUSH0 DUP2 MLOAD DUP2 LT PUSH2 0x236 JUMPI PUSH2 0x236 PUSH2 0x55A JUMP JUMPDEST PUSH1 0x20 SWAP1 DUP2 MUL SWAP2 SWAP1 SWAP2 ADD ADD MSTORE PUSH1 0x1 JUMPDEST DUP3 DUP2 LT ISZERO PUSH2 0x272 JUMPI DUP5 DUP3 DUP3 DUP2 MLOAD DUP2 LT PUSH2 0x25F JUMPI PUSH2 0x25F PUSH2 0x55A JUMP JUMPDEST PUSH1 0x20 SWAP1 DUP2 MUL SWAP2 SWAP1 SWAP2 ADD ADD MSTORE PUSH1 0x1 ADD PUSH2 0x244 JUMP JUMPDEST POP SWAP4 SWAP3 POP POP POP JUMP JUMPDEST PUSH1 0x40 MLOAD PUSH4 0x23B872DD PUSH1 0xE0 SHL DUP2 MSTORE CALLER PUSH1 0x4 DUP3 ADD MSTORE ADDRESS PUSH1 0x24 DUP3 ADD MSTORE PUSH1 0x44 DUP2 ADD DUP8 SWAP1 MSTORE PUSH0 SWAP1 DUP2 SWAP1 DUP2 SWAP1 PUSH1 0x1 PUSH1 0x1 PUSH1 0xA0 SHL SUB DUP13 AND SWAP1 PUSH4 0x23B872DD SWAP1 PUSH1 0x64 ADD PUSH1 0x20 PUSH1 0x40 MLOAD DUP1 DUP4 SUB DUP2 PUSH0 DUP8 GAS CALL ISZERO DUP1 ISZERO PUSH2 0x2D0 JUMPI RETURNDATASIZE PUSH0 PUSH0 RETURNDATACOPY RETURNDATASIZE PUSH0 REVERT JUMPDEST POP POP POP POP PUSH1 0x40 MLOAD RETURNDATASIZE PUSH1 0x1F NOT PUSH1 0x1F DUP3 ADD AND DUP3 ADD DUP1 PUSH1 0x40 MSTORE POP DUP2 ADD SWAP1 PUSH2 0x2F4 SWAP2 SWAP1 PUSH2 0x58E JUMP JUMPDEST POP PUSH1 0x40 MLOAD PUSH4 0x23B872DD PUSH1 0xE0 SHL DUP2 MSTORE CALLER PUSH1 0x4 DUP3 ADD MSTORE ADDRESS PUSH1 0x24 DUP3 ADD MSTORE PUSH1 0x44 DUP2 ADD DUP10 SWAP1 MSTORE PUSH1 0x1 PUSH1 0x1 PUSH1 0xA0 SHL SUB DUP12 AND SWAP1 PUSH4 0x23B872DD SWAP1 PUSH1 0x64 ADD PUSH1 0x20 PUSH1 0x40 MLOAD DUP1 DUP4 SUB DUP2 PUSH0 DUP8 GAS CALL ISZERO DUP1 ISZERO PUSH2 0x345 JUMPI RETURNDATASIZE PUSH0 PUSH0 RETURNDATACOPY RETURNDATASIZE PUSH0 REVERT JUMPDEST POP POP POP POP PUSH1 0x40 MLOAD RETURNDATASIZE PUSH1 0x1F NOT PUSH1 0x1F DUP3 ADD AND DUP3 ADD DUP1 PUSH1 0x40 MSTORE POP DUP2 ADD SWAP1 PUSH2 0x369 SWAP2 SWAP1 PUSH2 0x58E JUMP JUMPDEST POP DUP9 SWAP3 POP DUP8 SWAP2 POP DUP8 DUP10 LT PUSH2 0x37D JUMPI DUP8 PUSH2 0x37F JUMP JUMPDEST DUP9 JUMPDEST SWAP1 POP SWAP9 POP SWAP9 POP SWAP9 SWAP6 POP POP POP POP POP POP JUMP JUMPDEST PUSH0 PUSH0 DUP4 PUSH1 0x1F DUP5 ADD SLT PUSH2 0x39F JUMPI PUSH0 PUSH0 REVERT JUMPDEST POP DUP2 CALLDATALOAD PUSH8 0xFFFFFFFFFFFFFFFF DUP2 GT ISZERO PUSH2 0x3B6 JUMPI PUSH0 PUSH0 REVERT JUMPDEST PUSH1 0x20 DUP4 ADD SWAP2 POP DUP4 PUSH1 0x20 DUP3 PUSH1 0x5 SHL DUP6 ADD ADD GT ISZERO PUSH2 0x3D0 JUMPI PUSH0 PUSH0 REVERT JUMPDEST SWAP3 POP SWAP3 SWAP1 POP JUMP JUMPDEST DUP1 CALLDATALOAD PUSH1 0x1 PUSH1 0x1 PUSH1 0xA0 SHL SUB DUP2 AND DUP2 EQ PUSH2 0x3ED JUMPI PUSH0 PUSH0 REVERT JUMPDEST SWAP2 SWAP1 POP JUMP JUMPDEST PUSH0 PUSH0 PUSH0 PUSH0 PUSH0 PUSH0 PUSH1 0xA0 DUP8 DUP10 SUB SLT ISZERO PUSH2 0x407 JUMPI PUSH0 PUSH0 REVERT JUMPDEST DUP7 CALLDATALOAD SWAP6 POP PUSH1 0x20 DUP8 ADD CALLDATALOAD SWAP5 POP PUSH1 0x40 DUP8 ADD CALLDATALOAD PUSH8 0xFFFFFFFFFFFFFFFF DUP2 GT ISZERO PUSH2 0x42B JUMPI PUSH0 PUSH0 REVERT JUMPDEST PUSH2 0x437 DUP10 DUP3 DUP11 ADD PUSH2 0x38F JUMP JUMPDEST SWAP1 SWAP6 POP SWAP4 POP PUSH2 0x44A SWAP1 POP PUSH1 0x60 DUP9 ADD PUSH2 0x3D7 JUMP JUMPDEST SWAP6 SWAP9 SWAP5 SWAP8 POP SWAP3 SWAP6 SWAP2 SWAP5 SWAP4 PUSH1 0x80 SWAP1 SWAP3 ADD CALLDATALOAD SWAP3 POP POP JUMP JUMPDEST PUSH0 PUSH0 PUSH0 PUSH1 0x40 DUP5 DUP7 SUB SLT ISZERO PUSH2 0x471 JUMPI PUSH0 PUSH0 REVERT JUMPDEST DUP4 CALLDATALOAD SWAP3 POP PUSH1 0x20 DUP5 ADD CALLDATALOAD PUSH8 0xFFFFFFFFFFFFFFFF DUP2 GT ISZERO PUSH2 0x48E JUMPI PUSH0 PUSH0 REVERT JUMPDEST PUSH2 0x49A DUP7 DUP3 DUP8 ADD PUSH2 0x38F JUMP JUMPDEST SWAP5 SWAP8 SWAP1 SWAP7 POP SWAP4 SWAP5 POP POP POP POP JUMP JUMPDEST PUSH1 0x20 DUP1 DUP3 MSTORE DUP3 MLOAD DUP3 DUP3 ADD DUP2 SWAP1 MSTORE PUSH0 SWAP2 DUP5 ADD SWAP1 PUSH1 0x40 DUP5 ADD SWAP1 DUP4 JUMPDEST DUP2 DUP2 LT ISZERO PUSH2 0x4DE JUMPI DUP4 MLOAD DUP4 MSTORE PUSH1 0x20 SWAP4 DUP5 ADD SWAP4 SWAP1 SWAP3 ADD SWAP2 PUSH1 0x1 ADD PUSH2 0x4C0 JUMP JUMPDEST POP SWAP1 SWAP6 SWAP5 POP POP POP POP POP JUMP JUMPDEST PUSH0 PUSH0 PUSH0 PUSH0 PUSH0 PUSH0 PUSH0 PUSH0 PUSH2 0x100 DUP10 DUP12 SUB SLT ISZERO PUSH2 0x501 JUMPI PUSH0 PUSH0 REVERT JUMPDEST PUSH2 0x50A DUP10 PUSH2 0x3D7 JUMP JUMPDEST SWAP8 POP PUSH2 0x518 PUSH1 0x20 DUP11 ADD PUSH2 0x3D7 JUMP JUMPDEST SWAP7 POP PUSH1 0x40 DUP10 ADD CALLDATALOAD SWAP6 POP PUSH1 0x60 DUP10 ADD CALLDATALOAD SWAP5 POP PUSH1 0x80 DUP10 ADD CALLDATALOAD SWAP4 POP PUSH1 0xA0 DUP10 ADD CALLDATALOAD SWAP3 POP PUSH2 0x542 PUSH1 0xC0 DUP11 ADD PUSH2 0x3D7 JUMP JUMPDEST SWAP8 SWAP11 SWAP7 SWAP10 POP SWAP5 SWAP8 SWAP4 SWAP7 SWAP3 SWAP6 SWAP2 SWAP5 POP SWAP2 SWAP3 PUSH1 0xE0 ADD CALLDATALOAD SWAP2 POP JUMP JUMPDEST PUSH4 0x4E487B71 PUSH1 0xE0 SHL PUSH0 MSTORE PUSH1 0x32 PUSH1 0x4 MSTORE PUSH1 0x24 PUSH0 REVERT JUMPDEST PUSH0 PUSH1 0x20 DUP3 DUP5 SUB SLT ISZERO PUSH2 0x57E JUMPI PUSH0 PUSH0 REVERT JUMPDEST PUSH2 0x587 DUP3 PUSH2 0x3D7 JUMP JUMPDEST SWAP4 SWAP3 POP POP POP JUMP JUMPDEST PUSH0 PUSH1 0x20 DUP3 DUP5 SUB SLT ISZERO PUSH2 0x59E JUMPI PUSH0 PUSH0 REVERT JUMPDEST DUP2 MLOAD DUP1 ISZERO ISZERO DUP2 EQ PUSH2 0x587 JUMPI PUSH0 PUSH0 REVERT JUMPDEST PUSH4 0x4E487B71 PUSH1 0xE0 SHL PUSH0 MSTORE PUSH1 0x41 PUSH1 0x4 MSTORE PUSH1 0x24 PUSH0 REVERT INVALID LOG2 PUSH5 0x6970667358 0x22 SLT KECCAK256 SWAP1 0xCC MOD 0xB6 TSTORE SWAP7 0xB6 SWAP11 0x2B RJUMP 0xED29 EXTDELEGATECALL 0xAA 0x23 REVERT 0xEA MUL CODESIZE CALLER AND DIV PUSH19 0xE3407A54A3D73D681C64736F6C634300082300 CALLER "},"methodIdentifiers":{"addLiquidity(address,address,uint256,uint256,uint256,uint256,address,uint256)":"e8e33700","getAmountsOut(uint256,address[])":"d06ca61f","swapExactTokensForTokensSupportingFeeOnTransferTokens(uint256,uint256,address[],address,uint256)":"5c11d795"}}}}}