{"src/mocks/DQMiningTestMocks.sol":{"MockDQMiningStake":{"abi":[{"inputs":[],"stateMutability":"nonpayable","type":"constructor"},{"inputs":[],"name":"PARTNER","outputs":[{"internalType":"address","name":"","type":"address"}],"stateMutability":"view","type":"function"},{"inputs":[{"internalType":"address","name":"u","type":"address"},{"internalType":"uint256","name":"a","type":"uint256"},{"internalType":"uint256","name":"t","type":"uint256"}],"name":"addLP","outputs":[],"stateMutability":"nonpayable","type":"function"},{"inputs":[{"internalType":"address","name":"","type":"address"}],"name":"claimD","outputs":[],"stateMutability":"nonpayable","type":"function"},{"inputs":[{"internalType":"address","name":"","type":"address"}],"name":"claimFee","outputs":[],"stateMutability":"nonpayable","type":"function"},{"inputs":[{"internalType":"address","name":"","type":"address"}],"name":"claimLP","outputs":[],"stateMutability":"nonpayable","type":"function"},{"inputs":[{"internalType":"address","name":"","type":"address"}],"name":"claimNft","outputs":[],"stateMutability":"nonpayable","type":"function"},{"inputs":[{"internalType":"address","name":"","type":"address"}],"name":"claimPbnb","outputs":[],"stateMutability":"nonpayable","type":"function"},{"inputs":[{"internalType":"address","name":"","type":"address"}],"name":"claimPdq","outputs":[],"stateMutability":"nonpayable","type":"function"},{"inputs":[{"internalType":"address","name":"","type":"address"},{"internalType":"uint256","name":"","type":"uint256"}],"name":"clmS","outputs":[],"stateMutability":"nonpayable","type":"function"},{"inputs":[{"internalType":"address","name":"","type":"address"}],"name":"dLevels","outputs":[{"internalType":"uint8","name":"","type":"uint8"}],"stateMutability":"view","type":"function"},{"inputs":[{"internalType":"uint256","name":"","type":"uint256"}],"name":"distDQFee","outputs":[],"stateMutability":"nonpayable","type":"function"},{"inputs":[{"internalType":"uint256","name":"","type":"uint256"}],"name":"distLP","outputs":[],"stateMutability":"nonpayable","type":"function"},{"inputs":[{"internalType":"uint256","name":"","type":"uint256"}],"name":"distNFT","outputs":[],"stateMutability":"payable","type":"function"},{"inputs":[{"internalType":"uint256","name":"","type":"uint256"}],"name":"distP","outputs":[],"stateMutability":"nonpayable","type":"function"},{"inputs":[{"internalType":"address","name":"","type":"address"}],"name":"lpD","outputs":[{"internalType":"uint256","name":"","type":"uint256"}],"stateMutability":"view","type":"function"},{"inputs":[{"internalType":"address","name":"","type":"address"}],"name":"lpS","outputs":[{"internalType":"uint256","name":"","type":"uint256"}],"stateMutability":"view","type":"function"},{"inputs":[{"internalType":"address","name":"","type":"address"}],"name":"lpT","outputs":[{"internalType":"uint256","name":"","type":"uint256"}],"stateMutability":"view","type":"function"},{"inputs":[],"name":"mine","outputs":[],"stateMutability":"nonpayable","type":"function"},{"inputs":[],"name":"partner","outputs":[{"internalType":"address","name":"","type":"address"}],"stateMutability":"view","type":"function"},{"inputs":[{"internalType":"address","name":"_user","type":"address"},{"internalType":"uint8","name":"_level","type":"uint8"}],"name":"registerDLevel","outputs":[],"stateMutability":"nonpayable","type":"function"},{"inputs":[{"internalType":"address","name":"","type":"address"},{"internalType":"uint256","name":"","type":"uint256"},{"internalType":"uint256","name":"","type":"uint256"}],"name":"stake","outputs":[],"stateMutability":"nonpayable","type":"function"},{"inputs":[{"internalType":"address","name":"","type":"address"},{"internalType":"uint256","name":"","type":"uint256"}],"name":"unstake","outputs":[],"stateMutability":"nonpayable","type":"function"},{"inputs":[{"internalType":"address","name":"","type":"address"},{"internalType":"uint256","name":"","type":"uint256"}],"name":"withdraw","outputs":[],"stateMutability":"nonpayable","type":"function"},{"inputs":[{"internalType":"address","name":"_u","type":"address"}],"name":"withdrawLP","outputs":[],"stateMutability":"nonpayable","type":"function"}],"evm":{"bytecode":{"linkReferences":{},"object":"6080604052348015600e575f5ffd5b50600480546001600160a01b03191661beef179055610523806100305f395ff3fe608060405260043610610146575f3560e01c8063b1d78e0e116100b3578063c579535a1161006d578063c579535a14610349578063d3c6bc4b1461014a578063e74b5b73146101c6578063e8bbb75b146101c6578063ebebcf3d1461037c578063f3fef3a31461022e575f5ffd5b8063b1d78e0e146102a1578063be10862b146102cc578063be75f46b146101c6578063c1226893146101c6578063c2a672e01461022e578063c3e98e6114610303575f5ffd5b8063328db0fa11610104578063328db0fa146101ee57806353f1daa11461022e5780636ebc51e1146101c65780638652d31c1461024c57806399f4b2511461026b5780639bd769aa14610276575f5ffd5b80622e6df81461014a5780630c51b88f146101695780631956c09214610188578063230fb41e1461014a57806324d83d03146101c657806331aedf9b146101e0575b5f5ffd5b348015610155575f5ffd5b506101676101643660046103e4565b50565b005b348015610174575f5ffd5b50610167610183366004610416565b505050565b348015610193575f5ffd5b506101b36101a2366004610446565b60026020525f908152604090205481565b6040519081526020015b60405180910390f35b3480156101d1575f5ffd5b50610167610164366004610446565b6101676101643660046103e4565b3480156101f9575f5ffd5b5061021c610208366004610446565b60036020525f908152604090205460ff1681565b60405160ff90911681526020016101bd565b348015610239575f5ffd5b50610167610248366004610466565b5050565b348015610257575f5ffd5b50610167610266366004610416565b610399565b348015610167575f5ffd5b348015610281575f5ffd5b506101b3610290366004610446565b5f6020819052908152604090205481565b3480156102ac575f5ffd5b506101b36102bb366004610446565b60016020525f908152604090205481565b3480156102d7575f5ffd5b506004546102eb906001600160a01b031681565b6040516001600160a01b0390911681526020016101bd565b34801561030e575f5ffd5b5061016761031d36600461048e565b6001600160a01b03919091165f908152600360205260409020805460ff191660ff909216919091179055565b348015610354575f5ffd5b50610167610363366004610446565b6001600160a01b03165f90815260208190526040812055565b348015610387575f5ffd5b506004546001600160a01b03166102eb565b6001600160a01b0383165f90815260208190526040812080548492906103c09084906104c8565b90915550506001600160a01b039092165f9081526001602052604090209190915550565b5f602082840312156103f4575f5ffd5b5035919050565b80356001600160a01b0381168114610411575f5ffd5b919050565b5f5f5f60608486031215610428575f5ffd5b610431846103fb565b95602085013595506040909401359392505050565b5f60208284031215610456575f5ffd5b61045f826103fb565b9392505050565b5f5f60408385031215610477575f5ffd5b610480836103fb565b946020939093013593505050565b5f5f6040838503121561049f575f5ffd5b6104a8836103fb565b9150602083013560ff811681146104bd575f5ffd5b809150509250929050565b808201808211156104e757634e487b7160e01b5f52601160045260245ffd5b9291505056fea2646970667358221220fd876fa2e4642bb8cea695235d3afe09e6b309376456667e88b75a361c6e03da64736f6c63430008230033","opcodes":"PUSH1 0x80 PUSH1 0x40 MSTORE CALLVALUE DUP1 ISZERO PUSH1 0xE JUMPI PUSH0 PUSH0 REVERT JUMPDEST POP PUSH1 0x4 DUP1 SLOAD PUSH1 0x1 PUSH1 0x1 PUSH1 0xA0 SHL SUB NOT AND PUSH2 0xBEEF OR SWAP1 SSTORE PUSH2 0x523 DUP1 PUSH2 0x30 PUSH0 CODECOPY PUSH0 RETURN INVALID PUSH1 0x80 PUSH1 0x40 MSTORE PUSH1 0x4 CALLDATASIZE LT PUSH2 0x146 JUMPI PUSH0 CALLDATALOAD PUSH1 0xE0 SHR DUP1 PUSH4 0xB1D78E0E GT PUSH2 0xB3 JUMPI DUP1 PUSH4 0xC579535A GT PUSH2 0x6D JUMPI DUP1 PUSH4 0xC579535A EQ PUSH2 0x349 JUMPI DUP1 PUSH4 0xD3C6BC4B EQ PUSH2 0x14A JUMPI DUP1 PUSH4 0xE74B5B73 EQ PUSH2 0x1C6 JUMPI DUP1 PUSH4 0xE8BBB75B EQ PUSH2 0x1C6 JUMPI DUP1 PUSH4 0xEBEBCF3D EQ PUSH2 0x37C JUMPI DUP1 PUSH4 0xF3FEF3A3 EQ PUSH2 0x22E JUMPI PUSH0 PUSH0 REVERT JUMPDEST DUP1 PUSH4 0xB1D78E0E EQ PUSH2 0x2A1 JUMPI DUP1 PUSH4 0xBE10862B EQ PUSH2 0x2CC JUMPI DUP1 PUSH4 0xBE75F46B EQ PUSH2 0x1C6 JUMPI DUP1 PUSH4 0xC1226893 EQ PUSH2 0x1C6 JUMPI DUP1 PUSH4 0xC2A672E0 EQ PUSH2 0x22E JUMPI DUP1 PUSH4 0xC3E98E61 EQ PUSH2 0x303 JUMPI PUSH0 PUSH0 REVERT JUMPDEST DUP1 PUSH4 0x328DB0FA GT PUSH2 0x104 JUMPI DUP1 PUSH4 0x328DB0FA EQ PUSH2 0x1EE JUMPI DUP1 PUSH4 0x53F1DAA1 EQ PUSH2 0x22E JUMPI DUP1 PUSH4 0x6EBC51E1 EQ PUSH2 0x1C6 JUMPI DUP1 PUSH4 0x8652D31C EQ PUSH2 0x24C JUMPI DUP1 PUSH4 0x99F4B251 EQ PUSH2 0x26B JUMPI DUP1 PUSH4 0x9BD769AA EQ PUSH2 0x276 JUMPI PUSH0 PUSH0 REVERT JUMPDEST DUP1 PUSH3 0x2E6DF8 EQ PUSH2 0x14A JUMPI DUP1 PUSH4 0xC51B88F EQ PUSH2 0x169 JUMPI DUP1 PUSH4 0x1956C092 EQ PUSH2 0x188 JUMPI DUP1 PUSH4 0x230FB41E EQ PUSH2 0x14A JUMPI DUP1 PUSH4 0x24D83D03 EQ PUSH2 0x1C6 JUMPI DUP1 PUSH4 0x31AEDF9B EQ PUSH2 0x1E0 JUMPI JUMPDEST PUSH0 PUSH0 REVERT JUMPDEST CALLVALUE DUP1 ISZERO PUSH2 0x155 JUMPI PUSH0 PUSH0 REVERT JUMPDEST POP PUSH2 0x167 PUSH2 0x164 CALLDATASIZE PUSH1 0x4 PUSH2 0x3E4 JUMP JUMPDEST POP JUMP JUMPDEST STOP JUMPDEST CALLVALUE DUP1 ISZERO PUSH2 0x174 JUMPI PUSH0 PUSH0 REVERT JUMPDEST POP PUSH2 0x167 PUSH2 0x183 CALLDATASIZE PUSH1 0x4 PUSH2 0x416 JUMP JUMPDEST POP POP POP JUMP JUMPDEST CALLVALUE DUP1 ISZERO PUSH2 0x193 JUMPI PUSH0 PUSH0 REVERT JUMPDEST POP PUSH2 0x1B3 PUSH2 0x1A2 CALLDATASIZE PUSH1 0x4 PUSH2 0x446 JUMP JUMPDEST PUSH1 0x2 PUSH1 0x20 MSTORE PUSH0 SWAP1 DUP2 MSTORE PUSH1 0x40 SWAP1 KECCAK256 SLOAD DUP2 JUMP JUMPDEST PUSH1 0x40 MLOAD SWAP1 DUP2 MSTORE PUSH1 0x20 ADD JUMPDEST PUSH1 0x40 MLOAD DUP1 SWAP2 SUB SWAP1 RETURN JUMPDEST CALLVALUE DUP1 ISZERO PUSH2 0x1D1 JUMPI PUSH0 PUSH0 REVERT JUMPDEST POP PUSH2 0x167 PUSH2 0x164 CALLDATASIZE PUSH1 0x4 PUSH2 0x446 JUMP JUMPDEST PUSH2 0x167 PUSH2 0x164 CALLDATASIZE PUSH1 0x4 PUSH2 0x3E4 JUMP JUMPDEST CALLVALUE DUP1 ISZERO PUSH2 0x1F9 JUMPI PUSH0 PUSH0 REVERT JUMPDEST POP PUSH2 0x21C PUSH2 0x208 CALLDATASIZE PUSH1 0x4 PUSH2 0x446 JUMP JUMPDEST PUSH1 0x3 PUSH1 0x20 MSTORE PUSH0 SWAP1 DUP2 MSTORE PUSH1 0x40 SWAP1 KECCAK256 SLOAD PUSH1 0xFF AND DUP2 JUMP JUMPDEST PUSH1 0x40 MLOAD PUSH1 0xFF SWAP1 SWAP2 AND DUP2 MSTORE PUSH1 0x20 ADD PUSH2 0x1BD JUMP JUMPDEST CALLVALUE DUP1 ISZERO PUSH2 0x239 JUMPI PUSH0 PUSH0 REVERT JUMPDEST POP PUSH2 0x167 PUSH2 0x248 CALLDATASIZE PUSH1 0x4 PUSH2 0x466 JUMP JUMPDEST POP POP JUMP JUMPDEST CALLVALUE DUP1 ISZERO PUSH2 0x257 JUMPI PUSH0 PUSH0 REVERT JUMPDEST POP PUSH2 0x167 PUSH2 0x266 CALLDATASIZE PUSH1 0x4 PUSH2 0x416 JUMP JUMPDEST PUSH2 0x399 JUMP JUMPDEST CALLVALUE DUP1 ISZERO PUSH2 0x167 JUMPI PUSH0 PUSH0 REVERT JUMPDEST CALLVALUE DUP1 ISZERO PUSH2 0x281 JUMPI PUSH0 PUSH0 REVERT JUMPDEST POP PUSH2 0x1B3 PUSH2 0x290 CALLDATASIZE PUSH1 0x4 PUSH2 0x446 JUMP JUMPDEST PUSH0 PUSH1 0x20 DUP2 SWAP1 MSTORE SWAP1 DUP2 MSTORE PUSH1 0x40 SWAP1 KECCAK256 SLOAD DUP2 JUMP JUMPDEST CALLVALUE DUP1 ISZERO PUSH2 0x2AC JUMPI PUSH0 PUSH0 REVERT JUMPDEST POP PUSH2 0x1B3 PUSH2 0x2BB CALLDATASIZE PUSH1 0x4 PUSH2 0x446 JUMP JUMPDEST PUSH1 0x1 PUSH1 0x20 MSTORE PUSH0 SWAP1 DUP2 MSTORE PUSH1 0x40 SWAP1 KECCAK256 SLOAD DUP2 JUMP JUMPDEST CALLVALUE DUP1 ISZERO PUSH2 0x2D7 JUMPI PUSH0 PUSH0 REVERT JUMPDEST POP PUSH1 0x4 SLOAD PUSH2 0x2EB SWAP1 PUSH1 0x1 PUSH1 0x1 PUSH1 0xA0 SHL SUB AND DUP2 JUMP JUMPDEST PUSH1 0x40 MLOAD PUSH1 0x1 PUSH1 0x1 PUSH1 0xA0 SHL SUB SWAP1 SWAP2 AND DUP2 MSTORE PUSH1 0x20 ADD PUSH2 0x1BD JUMP JUMPDEST CALLVALUE DUP1 ISZERO PUSH2 0x30E JUMPI PUSH0 PUSH0 REVERT JUMPDEST POP PUSH2 0x167 PUSH2 0x31D CALLDATASIZE PUSH1 0x4 PUSH2 0x48E JUMP JUMPDEST PUSH1 0x1 PUSH1 0x1 PUSH1 0xA0 SHL SUB SWAP2 SWAP1 SWAP2 AND PUSH0 SWAP1 DUP2 MSTORE PUSH1 0x3 PUSH1 0x20 MSTORE PUSH1 0x40 SWAP1 KECCAK256 DUP1 SLOAD PUSH1 0xFF NOT AND PUSH1 0xFF SWAP1 SWAP3 AND SWAP2 SWAP1 SWAP2 OR SWAP1 SSTORE JUMP JUMPDEST CALLVALUE DUP1 ISZERO PUSH2 0x354 JUMPI PUSH0 PUSH0 REVERT JUMPDEST POP PUSH2 0x167 PUSH2 0x363 CALLDATASIZE PUSH1 0x4 PUSH2 0x446 JUMP JUMPDEST PUSH1 0x1 PUSH1 0x1 PUSH1 0xA0 SHL SUB AND PUSH0 SWAP1 DUP2 MSTORE PUSH1 0x20 DUP2 SWAP1 MSTORE PUSH1 0x40 DUP2 KECCAK256 SSTORE JUMP JUMPDEST CALLVALUE DUP1 ISZERO PUSH2 0x387 JUMPI PUSH0 PUSH0 REVERT JUMPDEST POP PUSH1 0x4 SLOAD PUSH1 0x1 PUSH1 0x1 PUSH1 0xA0 SHL SUB AND PUSH2 0x2EB JUMP JUMPDEST PUSH1 0x1 PUSH1 0x1 PUSH1 0xA0 SHL SUB DUP4 AND PUSH0 SWAP1 DUP2 MSTORE PUSH1 0x20 DUP2 SWAP1 MSTORE PUSH1 0x40 DUP2 KECCAK256 DUP1 SLOAD DUP5 SWAP3 SWAP1 PUSH2 0x3C0 SWAP1 DUP5 SWAP1 PUSH2 0x4C8 JUMP JUMPDEST SWAP1 SWAP2 SSTORE POP POP PUSH1 0x1 PUSH1 0x1 PUSH1 0xA0 SHL SUB SWAP1 SWAP3 AND PUSH0 SWAP1 DUP2 MSTORE PUSH1 0x1 PUSH1 0x20 MSTORE PUSH1 0x40 SWAP1 KECCAK256 SWAP2 SWAP1 SWAP2 SSTORE POP JUMP JUMPDEST PUSH0 PUSH1 0x20 DUP3 DUP5 SUB SLT ISZERO PUSH2 0x3F4 JUMPI PUSH0 PUSH0 REVERT JUMPDEST POP CALLDATALOAD SWAP2 SWAP1 POP JUMP JUMPDEST DUP1 CALLDATALOAD PUSH1 0x1 PUSH1 0x1 PUSH1 0xA0 SHL SUB DUP2 AND DUP2 EQ PUSH2 0x411 JUMPI PUSH0 PUSH0 REVERT JUMPDEST SWAP2 SWAP1 POP JUMP JUMPDEST PUSH0 PUSH0 PUSH0 PUSH1 0x60 DUP5 DUP7 SUB SLT ISZERO PUSH2 0x428 JUMPI PUSH0 PUSH0 REVERT JUMPDEST PUSH2 0x431 DUP5 PUSH2 0x3FB JUMP JUMPDEST SWAP6 PUSH1 0x20 DUP6 ADD CALLDATALOAD SWAP6 POP PUSH1 0x40 SWAP1 SWAP5 ADD CALLDATALOAD SWAP4 SWAP3 POP POP POP JUMP JUMPDEST PUSH0 PUSH1 0x20 DUP3 DUP5 SUB SLT ISZERO PUSH2 0x456 JUMPI PUSH0 PUSH0 REVERT JUMPDEST PUSH2 0x45F DUP3 PUSH2 0x3FB JUMP JUMPDEST SWAP4 SWAP3 POP POP POP JUMP JUMPDEST PUSH0 PUSH0 PUSH1 0x40 DUP4 DUP6 SUB SLT ISZERO PUSH2 0x477 JUMPI PUSH0 PUSH0 REVERT JUMPDEST PUSH2 0x480 DUP4 PUSH2 0x3FB JUMP JUMPDEST SWAP5 PUSH1 0x20 SWAP4 SWAP1 SWAP4 ADD CALLDATALOAD SWAP4 POP POP POP JUMP JUMPDEST PUSH0 PUSH0 PUSH1 0x40 DUP4 DUP6 SUB SLT ISZERO PUSH2 0x49F JUMPI PUSH0 PUSH0 REVERT JUMPDEST PUSH2 0x4A8 DUP4 PUSH2 0x3FB JUMP JUMPDEST SWAP2 POP PUSH1 0x20 DUP4 ADD CALLDATALOAD PUSH1 0xFF DUP2 AND DUP2 EQ PUSH2 0x4BD JUMPI PUSH0 PUSH0 REVERT JUMPDEST DUP1 SWAP2 POP POP SWAP3 POP SWAP3 SWAP1 POP JUMP JUMPDEST DUP1 DUP3 ADD DUP1 DUP3 GT ISZERO PUSH2 0x4E7 JUMPI PUSH4 0x4E487B71 PUSH1 0xE0 SHL PUSH0 MSTORE PUSH1 0x11 PUSH1 0x4 MSTORE PUSH1 0x24 PUSH0 REVERT JUMPDEST SWAP3 SWAP2 POP POP JUMP INVALID LOG2 PUSH5 0x6970667358 0x22 SLT KECCAK256 REVERT DUP8 PUSH16 0xA2E4642BB8CEA695235D3AFE09E6B309 CALLDATACOPY PUSH5 0x56667E88B7 GAS CALLDATASIZE SHR PUSH15 0x3DA64736F6C634300082300330000 "},"methodIdentifiers":{"PARTNER()":"ebebcf3d","addLP(address,uint256,uint256)":"8652d31c","claimD(address)":"e74b5b73","claimFee(address)":"6ebc51e1","claimLP(address)":"e8bbb75b","claimNft(address)":"24d83d03","claimPbnb(address)":"c1226893","claimPdq(address)":"be75f46b","clmS(address,uint256)":"53f1daa1","dLevels(address)":"328db0fa","distDQFee(uint256)":"002e6df8","distLP(uint256)":"d3c6bc4b","distNFT(uint256)":"31aedf9b","distP(uint256)":"230fb41e","lpD(address)":"1956c092","lpS(address)":"9bd769aa","lpT(address)":"b1d78e0e","mine()":"99f4b251","partner()":"be10862b","registerDLevel(address,uint8)":"c3e98e61","stake(address,uint256,uint256)":"0c51b88f","unstake(address,uint256)":"c2a672e0","withdraw(address,uint256)":"f3fef3a3","withdrawLP(address)":"c579535a"}}}}}