{"src/mocks/DQMiningTestMocks.sol":{"MockDQCard":{"abi":[{"inputs":[],"name":"PRICE_A","outputs":[{"internalType":"uint256","name":"","type":"uint256"}],"stateMutability":"view","type":"function"},{"inputs":[],"name":"PRICE_B","outputs":[{"internalType":"uint256","name":"","type":"uint256"}],"stateMutability":"view","type":"function"},{"inputs":[],"name":"PRICE_C","outputs":[{"internalType":"uint256","name":"","type":"uint256"}],"stateMutability":"view","type":"function"},{"inputs":[{"internalType":"address","name":"owner","type":"address"}],"name":"balanceOf","outputs":[{"internalType":"uint256","name":"","type":"uint256"}],"stateMutability":"view","type":"function"},{"inputs":[{"internalType":"uint256","name":"","type":"uint256"}],"name":"cardType","outputs":[{"internalType":"uint256","name":"","type":"uint256"}],"stateMutability":"view","type":"function"},{"inputs":[{"internalType":"uint256","name":"_type","type":"uint256"}],"name":"getCardPrice","outputs":[{"internalType":"uint256","name":"","type":"uint256"}],"stateMutability":"pure","type":"function"},{"inputs":[{"internalType":"address","name":"to","type":"address"},{"internalType":"uint256","name":"_type","type":"uint256"}],"name":"mintByOwner","outputs":[],"stateMutability":"nonpayable","type":"function"},{"inputs":[{"internalType":"address","name":"owner","type":"address"},{"internalType":"uint256","name":"index","type":"uint256"}],"name":"tokenOfOwnerByIndex","outputs":[{"internalType":"uint256","name":"","type":"uint256"}],"stateMutability":"view","type":"function"},{"inputs":[],"name":"totalA","outputs":[{"internalType":"uint256","name":"","type":"uint256"}],"stateMutability":"view","type":"function"},{"inputs":[],"name":"totalB","outputs":[{"internalType":"uint256","name":"","type":"uint256"}],"stateMutability":"view","type":"function"},{"inputs":[],"name":"totalC","outputs":[{"internalType":"uint256","name":"","type":"uint256"}],"stateMutability":"view","type":"function"}],"evm":{"bytecode":{"linkReferences":{},"object":"6080806040523461001657610464908161001c8239f35b600080fdfe6080604081815260048036101561001557600080fd5b600092833560e01c90816313eeea081461038a57508063193491b51461036b5780632f745c59146103255780633542aee2146101ae57806353d794471461018a5780636866537d1461016057806370a082311461012b57806373cda3e414610106578063b629640b146100e9578063d15dfe2d146100c65763fcf49adf1461009c57600080fd5b346100c25760203660031901126100c25760209282913581526005845220549051908152f35b8280fd5b5050346100e557816003193601126100e5576020906002549051908152f35b5080fd5b5050346100e557816003193601126100e557602091549051908152f35b5050346100e557816003193601126100e5576020905169010f0cf064dd592000008152f35b50346100c25760203660031901126100c25760209282916001600160a01b036101526103ad565b168252845220549051908152f35b5091346101875760203660031901126101875750610180602092356103f6565b9051908152f35b80fd5b5050346100e557816003193601126100e55760209051685150ae84a8cdf000008152f35b5090346100c257806003193601126100c2576101c86103ad565b90602490813590600193848310158061031a575b156102e957600354908582018092116102d75760038290556001600160a01b031687526020869052818720805490680100000000000000008210156102c5578161022d9188879695940181556103c8565b819291549060031b600019811b9283911b1691191617905560035487526005602052862055828114600014610283575090918354928301809311610272575050815580f35b634e487b7160e01b84526011905282fd5b6002036102ae5781549282840180941161029d5750505580f35b634e487b7160e01b85526011905283fd5b909160025492830180931161027257505060025580f35b634e487b7160e01b8952604188528589fd5b634e487b7160e01b8852601187528488fd5b815162461bcd60e51b8152602081880152600c818601526b696e76616c6964207479706560a01b6044820152606490fd5b5060038311156101dc565b50346100c257816003193601126100c25760209261035d916001600160a01b0361034d6103ad565b16825284528260243591206103c8565b91905490519160031b1c8152f35b5050346100e557816003193601126100e5576020906001549051908152f35b8490346100e557816003193601126100e55780681b1ae4d6e2ef50000060209252f35b600435906001600160a01b03821682036103c357565b600080fd5b80548210156103e05760005260206000200190600090565b634e487b7160e01b600052603260045260246000fd5b60018114610420576002146104135769010f0cf064dd5920000090565b685150ae84a8cdf0000090565b50681b1ae4d6e2ef5000009056fea26469706673582212202c43ce45e0f6f9a306f5ab74b2bde16e8801e5fb5ab1214c6e4c4a6d010498e164736f6c63430008110033","opcodes":"PUSH1 0x80 DUP1 PUSH1 0x40 MSTORE CALLVALUE PUSH2 0x16 JUMPI PUSH2 0x464 SWAP1 DUP2 PUSH2 0x1C DUP3 CODECOPY RETURN JUMPDEST PUSH1 0x0 DUP1 REVERT INVALID PUSH1 0x80 PUSH1 0x40 DUP2 DUP2 MSTORE PUSH1 0x4 DUP1 CALLDATASIZE LT ISZERO PUSH2 0x15 JUMPI PUSH1 0x0 DUP1 REVERT JUMPDEST PUSH1 0x0 SWAP3 DUP4 CALLDATALOAD PUSH1 0xE0 SHR SWAP1 DUP2 PUSH4 0x13EEEA08 EQ PUSH2 0x38A JUMPI POP DUP1 PUSH4 0x193491B5 EQ PUSH2 0x36B JUMPI DUP1 PUSH4 0x2F745C59 EQ PUSH2 0x325 JUMPI DUP1 PUSH4 0x3542AEE2 EQ PUSH2 0x1AE JUMPI DUP1 PUSH4 0x53D79447 EQ PUSH2 0x18A JUMPI DUP1 PUSH4 0x6866537D EQ PUSH2 0x160 JUMPI DUP1 PUSH4 0x70A08231 EQ PUSH2 0x12B JUMPI DUP1 PUSH4 0x73CDA3E4 EQ PUSH2 0x106 JUMPI DUP1 PUSH4 0xB629640B EQ PUSH2 0xE9 JUMPI DUP1 PUSH4 0xD15DFE2D EQ PUSH2 0xC6 JUMPI PUSH4 0xFCF49ADF EQ PUSH2 0x9C JUMPI PUSH1 0x0 DUP1 REVERT JUMPDEST CALLVALUE PUSH2 0xC2 JUMPI PUSH1 0x20 CALLDATASIZE PUSH1 0x3 NOT ADD SLT PUSH2 0xC2 JUMPI PUSH1 0x20 SWAP3 DUP3 SWAP2 CALLDATALOAD DUP2 MSTORE PUSH1 0x5 DUP5 MSTORE KECCAK256 SLOAD SWAP1 MLOAD SWAP1 DUP2 MSTORE RETURN JUMPDEST DUP3 DUP1 REVERT JUMPDEST POP POP CALLVALUE PUSH2 0xE5 JUMPI DUP2 PUSH1 0x3 NOT CALLDATASIZE ADD SLT PUSH2 0xE5 JUMPI PUSH1 0x20 SWAP1 PUSH1 0x2 SLOAD SWAP1 MLOAD SWAP1 DUP2 MSTORE RETURN JUMPDEST POP DUP1 REVERT JUMPDEST POP POP CALLVALUE PUSH2 0xE5 JUMPI DUP2 PUSH1 0x3 NOT CALLDATASIZE ADD SLT PUSH2 0xE5 JUMPI PUSH1 0x20 SWAP2 SLOAD SWAP1 MLOAD SWAP1 DUP2 MSTORE RETURN JUMPDEST POP POP CALLVALUE PUSH2 0xE5 JUMPI DUP2 PUSH1 0x3 NOT CALLDATASIZE ADD SLT PUSH2 0xE5 JUMPI PUSH1 0x20 SWAP1 MLOAD PUSH10 0x10F0CF064DD59200000 DUP2 MSTORE RETURN JUMPDEST POP CALLVALUE PUSH2 0xC2 JUMPI PUSH1 0x20 CALLDATASIZE PUSH1 0x3 NOT ADD SLT PUSH2 0xC2 JUMPI PUSH1 0x20 SWAP3 DUP3 SWAP2 PUSH1 0x1 PUSH1 0x1 PUSH1 0xA0 SHL SUB PUSH2 0x152 PUSH2 0x3AD JUMP JUMPDEST AND DUP3 MSTORE DUP5 MSTORE KECCAK256 SLOAD SWAP1 MLOAD SWAP1 DUP2 MSTORE RETURN JUMPDEST POP SWAP2 CALLVALUE PUSH2 0x187 JUMPI PUSH1 0x20 CALLDATASIZE PUSH1 0x3 NOT ADD SLT PUSH2 0x187 JUMPI POP PUSH2 0x180 PUSH1 0x20 SWAP3 CALLDATALOAD PUSH2 0x3F6 JUMP JUMPDEST SWAP1 MLOAD SWAP1 DUP2 MSTORE RETURN JUMPDEST DUP1 REVERT JUMPDEST POP POP CALLVALUE PUSH2 0xE5 JUMPI DUP2 PUSH1 0x3 NOT CALLDATASIZE ADD SLT PUSH2 0xE5 JUMPI PUSH1 0x20 SWAP1 MLOAD PUSH9 0x5150AE84A8CDF00000 DUP2 MSTORE RETURN JUMPDEST POP SWAP1 CALLVALUE PUSH2 0xC2 JUMPI DUP1 PUSH1 0x3 NOT CALLDATASIZE ADD SLT PUSH2 0xC2 JUMPI PUSH2 0x1C8 PUSH2 0x3AD JUMP JUMPDEST SWAP1 PUSH1 0x24 SWAP1 DUP2 CALLDATALOAD SWAP1 PUSH1 0x1 SWAP4 DUP5 DUP4 LT ISZERO DUP1 PUSH2 0x31A JUMPI JUMPDEST ISZERO PUSH2 0x2E9 JUMPI PUSH1 0x3 SLOAD SWAP1 DUP6 DUP3 ADD DUP1 SWAP3 GT PUSH2 0x2D7 JUMPI PUSH1 0x3 DUP3 SWAP1 SSTORE PUSH1 0x1 PUSH1 0x1 PUSH1 0xA0 SHL SUB AND DUP8 MSTORE PUSH1 0x20 DUP7 SWAP1 MSTORE DUP2 DUP8 KECCAK256 DUP1 SLOAD SWAP1 PUSH9 0x10000000000000000 DUP3 LT ISZERO PUSH2 0x2C5 JUMPI DUP2 PUSH2 0x22D SWAP2 DUP9 DUP8 SWAP7 SWAP6 SWAP5 ADD DUP2 SSTORE PUSH2 0x3C8 JUMP JUMPDEST DUP2 SWAP3 SWAP2 SLOAD SWAP1 PUSH1 0x3 SHL PUSH1 0x0 NOT DUP2 SHL SWAP3 DUP4 SWAP2 SHL AND SWAP2 NOT AND OR SWAP1 SSTORE PUSH1 0x3 SLOAD DUP8 MSTORE PUSH1 0x5 PUSH1 0x20 MSTORE DUP7 KECCAK256 SSTORE DUP3 DUP2 EQ PUSH1 0x0 EQ PUSH2 0x283 JUMPI POP SWAP1 SWAP2 DUP4 SLOAD SWAP3 DUP4 ADD DUP1 SWAP4 GT PUSH2 0x272 JUMPI POP POP DUP2 SSTORE DUP1 RETURN JUMPDEST PUSH4 0x4E487B71 PUSH1 0xE0 SHL DUP5 MSTORE PUSH1 0x11 SWAP1 MSTORE DUP3 REVERT JUMPDEST PUSH1 0x2 SUB PUSH2 0x2AE JUMPI DUP2 SLOAD SWAP3 DUP3 DUP5 ADD DUP1 SWAP5 GT PUSH2 0x29D JUMPI POP POP SSTORE DUP1 RETURN JUMPDEST PUSH4 0x4E487B71 PUSH1 0xE0 SHL DUP6 MSTORE PUSH1 0x11 SWAP1 MSTORE DUP4 REVERT JUMPDEST SWAP1 SWAP2 PUSH1 0x2 SLOAD SWAP3 DUP4 ADD DUP1 SWAP4 GT PUSH2 0x272 JUMPI POP POP PUSH1 0x2 SSTORE DUP1 RETURN JUMPDEST PUSH4 0x4E487B71 PUSH1 0xE0 SHL DUP10 MSTORE PUSH1 0x41 DUP9 MSTORE DUP6 DUP10 REVERT JUMPDEST PUSH4 0x4E487B71 PUSH1 0xE0 SHL DUP9 MSTORE PUSH1 0x11 DUP8 MSTORE DUP5 DUP9 REVERT JUMPDEST DUP2 MLOAD PUSH3 0x461BCD PUSH1 0xE5 SHL DUP2 MSTORE PUSH1 0x20 DUP2 DUP9 ADD MSTORE PUSH1 0xC DUP2 DUP7 ADD MSTORE PUSH12 0x696E76616C69642074797065 PUSH1 0xA0 SHL PUSH1 0x44 DUP3 ADD MSTORE PUSH1 0x64 SWAP1 REVERT JUMPDEST POP PUSH1 0x3 DUP4 GT ISZERO PUSH2 0x1DC JUMP JUMPDEST POP CALLVALUE PUSH2 0xC2 JUMPI DUP2 PUSH1 0x3 NOT CALLDATASIZE ADD SLT PUSH2 0xC2 JUMPI PUSH1 0x20 SWAP3 PUSH2 0x35D SWAP2 PUSH1 0x1 PUSH1 0x1 PUSH1 0xA0 SHL SUB PUSH2 0x34D PUSH2 0x3AD JUMP JUMPDEST AND DUP3 MSTORE DUP5 MSTORE DUP3 PUSH1 0x24 CALLDATALOAD SWAP2 KECCAK256 PUSH2 0x3C8 JUMP JUMPDEST SWAP2 SWAP1 SLOAD SWAP1 MLOAD SWAP2 PUSH1 0x3 SHL SHR DUP2 MSTORE RETURN JUMPDEST POP POP CALLVALUE PUSH2 0xE5 JUMPI DUP2 PUSH1 0x3 NOT CALLDATASIZE ADD SLT PUSH2 0xE5 JUMPI PUSH1 0x20 SWAP1 PUSH1 0x1 SLOAD SWAP1 MLOAD SWAP1 DUP2 MSTORE RETURN JUMPDEST DUP5 SWAP1 CALLVALUE PUSH2 0xE5 JUMPI DUP2 PUSH1 0x3 NOT CALLDATASIZE ADD SLT PUSH2 0xE5 JUMPI DUP1 PUSH9 0x1B1AE4D6E2EF500000 PUSH1 0x20 SWAP3 MSTORE RETURN JUMPDEST PUSH1 0x4 CALLDATALOAD SWAP1 PUSH1 0x1 PUSH1 0x1 PUSH1 0xA0 SHL SUB DUP3 AND DUP3 SUB PUSH2 0x3C3 JUMPI JUMP JUMPDEST PUSH1 0x0 DUP1 REVERT JUMPDEST DUP1 SLOAD DUP3 LT ISZERO PUSH2 0x3E0 JUMPI PUSH1 0x0 MSTORE PUSH1 0x20 PUSH1 0x0 KECCAK256 ADD SWAP1 PUSH1 0x0 SWAP1 JUMP JUMPDEST PUSH4 0x4E487B71 PUSH1 0xE0 SHL PUSH1 0x0 MSTORE PUSH1 0x32 PUSH1 0x4 MSTORE PUSH1 0x24 PUSH1 0x0 REVERT JUMPDEST PUSH1 0x1 DUP2 EQ PUSH2 0x420 JUMPI PUSH1 0x2 EQ PUSH2 0x413 JUMPI PUSH10 0x10F0CF064DD59200000 SWAP1 JUMP JUMPDEST PUSH9 0x5150AE84A8CDF00000 SWAP1 JUMP JUMPDEST POP PUSH9 0x1B1AE4D6E2EF500000 SWAP1 JUMP INVALID LOG2 PUSH5 0x6970667358 0x22 SLT KECCAK256 0x2C NUMBER 0xCE GASLIMIT 0xE0 0xF6 0xF9 LOG3 MOD CREATE2 0xAB PUSH21 0xB2BDE16E8801E5FB5AB1214C6E4C4A6D010498E164 PUSH20 0x6F6C634300081100330000000000000000000000 "},"methodIdentifiers":{"PRICE_A()":"13eeea08","PRICE_B()":"53d79447","PRICE_C()":"73cda3e4","balanceOf(address)":"70a08231","cardType(uint256)":"fcf49adf","getCardPrice(uint256)":"6866537d","mintByOwner(address,uint256)":"3542aee2","tokenOfOwnerByIndex(address,uint256)":"2f745c59","totalA()":"b629640b","totalB()":"193491b5","totalC()":"d15dfe2d"}}}}}