{"src/mocks/DQMiningTestMocks.sol":{"MockPancakeRouterV3":{"abi":[{"inputs":[{"internalType":"address","name":"tokenA","type":"address"},{"internalType":"address","name":"tokenB","type":"address"},{"internalType":"uint256","name":"amountADesired","type":"uint256"},{"internalType":"uint256","name":"amountBDesired","type":"uint256"},{"internalType":"uint256","name":"","type":"uint256"},{"internalType":"uint256","name":"","type":"uint256"},{"internalType":"address","name":"to","type":"address"},{"internalType":"uint256","name":"","type":"uint256"}],"name":"addLiquidity","outputs":[{"internalType":"uint256","name":"amountA","type":"uint256"},{"internalType":"uint256","name":"amountB","type":"uint256"},{"internalType":"uint256","name":"liquidity","type":"uint256"}],"stateMutability":"nonpayable","type":"function"},{"inputs":[{"internalType":"uint256","name":"amountIn","type":"uint256"},{"internalType":"address[]","name":"path","type":"address[]"}],"name":"getAmountsOut","outputs":[{"internalType":"uint256[]","name":"amounts","type":"uint256[]"}],"stateMutability":"pure","type":"function"},{"inputs":[{"internalType":"address","name":"_lpToken","type":"address"}],"name":"initialize","outputs":[],"stateMutability":"nonpayable","type":"function"},{"inputs":[],"name":"lpToken","outputs":[{"internalType":"address","name":"","type":"address"}],"stateMutability":"view","type":"function"},{"inputs":[{"internalType":"uint256","name":"amountIn","type":"uint256"},{"internalType":"uint256","name":"","type":"uint256"},{"internalType":"address[]","name":"path","type":"address[]"},{"internalType":"address","name":"to","type":"address"},{"internalType":"uint256","name":"","type":"uint256"}],"name":"swapExactTokensForTokensSupportingFeeOnTransferTokens","outputs":[],"stateMutability":"nonpayable","type":"function"}],"evm":{"bytecode":{"linkReferences":{},"object":"608080604052346100165761067d908161001c8239f35b600080fdfe608060408181526004908136101561001657600080fd5b600092833560e01c9081635c11d795146103fe575080635fcbd285146103d2578063c4d66de814610355578063d06ca61f1461022e5763e8e337001461005b57600080fd5b346101c0576101003660031901126101c0576100756105a1565b6001600160a01b03602435818116949193929085900361022957604435946064359260c4359186831683036102295785516323b872dd60e01b8082523384830190815230602080830191909152604082018c90529691929187918391908290036060019082908f908e165af1801561021f5790869291610202575b50875190815233848201908152306020820152604081018890529092839182908d90829060600103925af180156101f8576101cb575b50838710156101c45786955b8661014c575b505050606095508251948552840152820152f35b908891825416803b156101c05786516340c10f1960e01b81526001600160a01b0390941691840191825260208201889052839182908490829060400103925af180156101b65761019e575b8080610138565b6101a887916105b7565b6101b25785610197565b8580fd5b84513d89823e3d90fd5b8280fd5b8395610132565b6101ea90843d86116101f1575b6101e281836105e1565b81019061062f565b5038610126565b503d6101d8565b86513d8b823e3d90fd5b61021890833d85116101f1576101e281836105e1565b50386100f0565b88513d8d823e3d90fd5b600080fd5b5090346101c057816003193601126101c057803592602491823567ffffffffffffffff81116101c0576102649036908301610570565b92905061027083610603565b9261027d865194856105e1565b80845261028981610603565b9460209384860196601f190136883785511561034257888799979695949652600196875b8481106102ec5750505050508451948186019282875251809352850195925b8281106102d95785870386f35b83518752958101959281019284016102cc565b869795969a989a5181101561032e5781878260051b8a010152600019811461031c578a01999799969594966102ad565b634e487b7160e01b8652601183528386fd5b83603284634e487b7160e01b600052526000fd5b603290634e487b7160e01b600052526000fd5b50346101c05760203660031901126101c05761036f6105a1565b9183549160ff8360a01c166103a15750506001600160a81b0319166001600160a01b0390911617600160a01b17815580f35b906020606492519162461bcd60e51b8352820152600b60248201526a1a5b9a5d1a585b1a5e995960aa1b6044820152fd5b8382346103fa57816003193601126103fa57905490516001600160a01b039091168152602090f35b5080fd5b90503461051a5760a036600319011261051a5782359060443567ffffffffffffffff81116101b2576104339036908601610570565b606435926001600160a01b03929190838516850361056c5781156105595760208189818c8161048d8c8b6104668c61061b565b6323b872dd60e01b8552339785019788523060208901526040880192909252169460600190565b03925af1801561054f57610531575b506001101561051e57906104b56020889594930161061b565b1690813b1561051a5784516340c10f1960e01b81526001600160a01b039091169581019586526020860192909252909384919082908490829060400103925af19081156105115750610505575080f35b61050e906105b7565b80f35b513d84823e3d90fd5b8380fd5b634e487b7160e01b875260328652602487fd5b6105489060203d81116101f1576101e281836105e1565b503861049c565b87513d8b823e3d90fd5b634e487b7160e01b895260328852602489fd5b8880fd5b9181601f840112156102295782359167ffffffffffffffff8311610229576020808501948460051b01011161022957565b600435906001600160a01b038216820361022957565b67ffffffffffffffff81116105cb57604052565b634e487b7160e01b600052604160045260246000fd5b90601f8019910116810190811067ffffffffffffffff8211176105cb57604052565b67ffffffffffffffff81116105cb5760051b60200190565b356001600160a01b03811681036102295790565b9081602091031261022957518015158103610229579056fea2646970667358221220569604943fd6331e46b10e9ef4f5a8c3e442ccdfeaa6cc1d9a7102c7f9610b4864736f6c63430008110033","opcodes":"PUSH1 0x80 DUP1 PUSH1 0x40 MSTORE CALLVALUE PUSH2 0x16 JUMPI PUSH2 0x67D SWAP1 DUP2 PUSH2 0x1C DUP3 CODECOPY RETURN JUMPDEST PUSH1 0x0 DUP1 REVERT INVALID PUSH1 0x80 PUSH1 0x40 DUP2 DUP2 MSTORE PUSH1 0x4 SWAP1 DUP2 CALLDATASIZE LT ISZERO PUSH2 0x16 JUMPI PUSH1 0x0 DUP1 REVERT JUMPDEST PUSH1 0x0 SWAP3 DUP4 CALLDATALOAD PUSH1 0xE0 SHR SWAP1 DUP2 PUSH4 0x5C11D795 EQ PUSH2 0x3FE JUMPI POP DUP1 PUSH4 0x5FCBD285 EQ PUSH2 0x3D2 JUMPI DUP1 PUSH4 0xC4D66DE8 EQ PUSH2 0x355 JUMPI DUP1 PUSH4 0xD06CA61F EQ PUSH2 0x22E JUMPI PUSH4 0xE8E33700 EQ PUSH2 0x5B JUMPI PUSH1 0x0 DUP1 REVERT JUMPDEST CALLVALUE PUSH2 0x1C0 JUMPI PUSH2 0x100 CALLDATASIZE PUSH1 0x3 NOT ADD SLT PUSH2 0x1C0 JUMPI PUSH2 0x75 PUSH2 0x5A1 JUMP JUMPDEST PUSH1 0x1 PUSH1 0x1 PUSH1 0xA0 SHL SUB PUSH1 0x24 CALLDATALOAD DUP2 DUP2 AND SWAP5 SWAP2 SWAP4 SWAP3 SWAP1 DUP6 SWAP1 SUB PUSH2 0x229 JUMPI PUSH1 0x44 CALLDATALOAD SWAP5 PUSH1 0x64 CALLDATALOAD SWAP3 PUSH1 0xC4 CALLDATALOAD SWAP2 DUP7 DUP4 AND DUP4 SUB PUSH2 0x229 JUMPI DUP6 MLOAD PUSH4 0x23B872DD PUSH1 0xE0 SHL DUP1 DUP3 MSTORE CALLER DUP5 DUP4 ADD SWAP1 DUP2 MSTORE ADDRESS PUSH1 0x20 DUP1 DUP4 ADD SWAP2 SWAP1 SWAP2 MSTORE PUSH1 0x40 DUP3 ADD DUP13 SWAP1 MSTORE SWAP7 SWAP2 SWAP3 SWAP2 DUP8 SWAP2 DUP4 SWAP2 SWAP1 DUP3 SWAP1 SUB PUSH1 0x60 ADD SWAP1 DUP3 SWAP1 DUP16 SWAP1 DUP15 AND GAS CALL DUP1 ISZERO PUSH2 0x21F JUMPI SWAP1 DUP7 SWAP3 SWAP2 PUSH2 0x202 JUMPI JUMPDEST POP DUP8 MLOAD SWAP1 DUP2 MSTORE CALLER DUP5 DUP3 ADD SWAP1 DUP2 MSTORE ADDRESS PUSH1 0x20 DUP3 ADD MSTORE PUSH1 0x40 DUP2 ADD DUP9 SWAP1 MSTORE SWAP1 SWAP3 DUP4 SWAP2 DUP3 SWAP1 DUP14 SWAP1 DUP3 SWAP1 PUSH1 0x60 ADD SUB SWAP3 GAS CALL DUP1 ISZERO PUSH2 0x1F8 JUMPI PUSH2 0x1CB JUMPI JUMPDEST POP DUP4 DUP8 LT ISZERO PUSH2 0x1C4 JUMPI DUP7 SWAP6 JUMPDEST DUP7 PUSH2 0x14C JUMPI JUMPDEST POP POP POP PUSH1 0x60 SWAP6 POP DUP3 MLOAD SWAP5 DUP6 MSTORE DUP5 ADD MSTORE DUP3 ADD MSTORE RETURN JUMPDEST SWAP1 DUP9 SWAP2 DUP3 SLOAD AND DUP1 EXTCODESIZE ISZERO PUSH2 0x1C0 JUMPI DUP7 MLOAD PUSH4 0x40C10F19 PUSH1 0xE0 SHL DUP2 MSTORE PUSH1 0x1 PUSH1 0x1 PUSH1 0xA0 SHL SUB SWAP1 SWAP5 AND SWAP2 DUP5 ADD SWAP2 DUP3 MSTORE PUSH1 0x20 DUP3 ADD DUP9 SWAP1 MSTORE DUP4 SWAP2 DUP3 SWAP1 DUP5 SWAP1 DUP3 SWAP1 PUSH1 0x40 ADD SUB SWAP3 GAS CALL DUP1 ISZERO PUSH2 0x1B6 JUMPI PUSH2 0x19E JUMPI JUMPDEST DUP1 DUP1 PUSH2 0x138 JUMP JUMPDEST PUSH2 0x1A8 DUP8 SWAP2 PUSH2 0x5B7 JUMP JUMPDEST PUSH2 0x1B2 JUMPI DUP6 PUSH2 0x197 JUMP JUMPDEST DUP6 DUP1 REVERT JUMPDEST DUP5 MLOAD RETURNDATASIZE DUP10 DUP3 RETURNDATACOPY RETURNDATASIZE SWAP1 REVERT JUMPDEST DUP3 DUP1 REVERT JUMPDEST DUP4 SWAP6 PUSH2 0x132 JUMP JUMPDEST PUSH2 0x1EA SWAP1 DUP5 RETURNDATASIZE DUP7 GT PUSH2 0x1F1 JUMPI JUMPDEST PUSH2 0x1E2 DUP2 DUP4 PUSH2 0x5E1 JUMP JUMPDEST DUP2 ADD SWAP1 PUSH2 0x62F JUMP JUMPDEST POP CODESIZE PUSH2 0x126 JUMP JUMPDEST POP RETURNDATASIZE PUSH2 0x1D8 JUMP JUMPDEST DUP7 MLOAD RETURNDATASIZE DUP12 DUP3 RETURNDATACOPY RETURNDATASIZE SWAP1 REVERT JUMPDEST PUSH2 0x218 SWAP1 DUP4 RETURNDATASIZE DUP6 GT PUSH2 0x1F1 JUMPI PUSH2 0x1E2 DUP2 DUP4 PUSH2 0x5E1 JUMP JUMPDEST POP CODESIZE PUSH2 0xF0 JUMP JUMPDEST DUP9 MLOAD RETURNDATASIZE DUP14 DUP3 RETURNDATACOPY RETURNDATASIZE SWAP1 REVERT JUMPDEST PUSH1 0x0 DUP1 REVERT JUMPDEST POP SWAP1 CALLVALUE PUSH2 0x1C0 JUMPI DUP2 PUSH1 0x3 NOT CALLDATASIZE ADD SLT PUSH2 0x1C0 JUMPI DUP1 CALLDATALOAD SWAP3 PUSH1 0x24 SWAP2 DUP3 CALLDATALOAD PUSH8 0xFFFFFFFFFFFFFFFF DUP2 GT PUSH2 0x1C0 JUMPI PUSH2 0x264 SWAP1 CALLDATASIZE SWAP1 DUP4 ADD PUSH2 0x570 JUMP JUMPDEST SWAP3 SWAP1 POP PUSH2 0x270 DUP4 PUSH2 0x603 JUMP JUMPDEST SWAP3 PUSH2 0x27D DUP7 MLOAD SWAP5 DUP6 PUSH2 0x5E1 JUMP JUMPDEST DUP1 DUP5 MSTORE PUSH2 0x289 DUP2 PUSH2 0x603 JUMP JUMPDEST SWAP5 PUSH1 0x20 SWAP4 DUP5 DUP7 ADD SWAP7 PUSH1 0x1F NOT ADD CALLDATASIZE DUP9 CALLDATACOPY DUP6 MLOAD ISZERO PUSH2 0x342 JUMPI DUP9 DUP8 SWAP10 SWAP8 SWAP7 SWAP6 SWAP5 SWAP7 MSTORE PUSH1 0x1 SWAP7 DUP8 JUMPDEST DUP5 DUP2 LT PUSH2 0x2EC JUMPI POP POP POP POP POP DUP5 MLOAD SWAP5 DUP2 DUP7 ADD SWAP3 DUP3 DUP8 MSTORE MLOAD DUP1 SWAP4 MSTORE DUP6 ADD SWAP6 SWAP3 JUMPDEST DUP3 DUP2 LT PUSH2 0x2D9 JUMPI DUP6 DUP8 SUB DUP7 RETURN JUMPDEST DUP4 MLOAD DUP8 MSTORE SWAP6 DUP2 ADD SWAP6 SWAP3 DUP2 ADD SWAP3 DUP5 ADD PUSH2 0x2CC JUMP JUMPDEST DUP7 SWAP8 SWAP6 SWAP7 SWAP11 SWAP9 SWAP11 MLOAD DUP2 LT ISZERO PUSH2 0x32E JUMPI DUP2 DUP8 DUP3 PUSH1 0x5 SHL DUP11 ADD ADD MSTORE PUSH1 0x0 NOT DUP2 EQ PUSH2 0x31C JUMPI DUP11 ADD SWAP10 SWAP8 SWAP10 SWAP7 SWAP6 SWAP5 SWAP7 PUSH2 0x2AD JUMP JUMPDEST PUSH4 0x4E487B71 PUSH1 0xE0 SHL DUP7 MSTORE PUSH1 0x11 DUP4 MSTORE DUP4 DUP7 REVERT JUMPDEST DUP4 PUSH1 0x32 DUP5 PUSH4 0x4E487B71 PUSH1 0xE0 SHL PUSH1 0x0 MSTORE MSTORE PUSH1 0x0 REVERT JUMPDEST PUSH1 0x32 SWAP1 PUSH4 0x4E487B71 PUSH1 0xE0 SHL PUSH1 0x0 MSTORE MSTORE PUSH1 0x0 REVERT JUMPDEST POP CALLVALUE PUSH2 0x1C0 JUMPI PUSH1 0x20 CALLDATASIZE PUSH1 0x3 NOT ADD SLT PUSH2 0x1C0 JUMPI PUSH2 0x36F PUSH2 0x5A1 JUMP JUMPDEST SWAP2 DUP4 SLOAD SWAP2 PUSH1 0xFF DUP4 PUSH1 0xA0 SHR AND PUSH2 0x3A1 JUMPI POP POP PUSH1 0x1 PUSH1 0x1 PUSH1 0xA8 SHL SUB NOT AND PUSH1 0x1 PUSH1 0x1 PUSH1 0xA0 SHL SUB SWAP1 SWAP2 AND OR PUSH1 0x1 PUSH1 0xA0 SHL OR DUP2 SSTORE DUP1 RETURN JUMPDEST SWAP1 PUSH1 0x20 PUSH1 0x64 SWAP3 MLOAD SWAP2 PUSH3 0x461BCD PUSH1 0xE5 SHL DUP4 MSTORE DUP3 ADD MSTORE PUSH1 0xB PUSH1 0x24 DUP3 ADD MSTORE PUSH11 0x1A5B9A5D1A585B1A5E9959 PUSH1 0xAA SHL PUSH1 0x44 DUP3 ADD MSTORE REVERT JUMPDEST DUP4 DUP3 CALLVALUE PUSH2 0x3FA JUMPI DUP2 PUSH1 0x3 NOT CALLDATASIZE ADD SLT PUSH2 0x3FA JUMPI SWAP1 SLOAD SWAP1 MLOAD PUSH1 0x1 PUSH1 0x1 PUSH1 0xA0 SHL SUB SWAP1 SWAP2 AND DUP2 MSTORE PUSH1 0x20 SWAP1 RETURN JUMPDEST POP DUP1 REVERT JUMPDEST SWAP1 POP CALLVALUE PUSH2 0x51A JUMPI PUSH1 0xA0 CALLDATASIZE PUSH1 0x3 NOT ADD SLT PUSH2 0x51A JUMPI DUP3 CALLDATALOAD SWAP1 PUSH1 0x44 CALLDATALOAD PUSH8 0xFFFFFFFFFFFFFFFF DUP2 GT PUSH2 0x1B2 JUMPI PUSH2 0x433 SWAP1 CALLDATASIZE SWAP1 DUP7 ADD PUSH2 0x570 JUMP JUMPDEST PUSH1 0x64 CALLDATALOAD SWAP3 PUSH1 0x1 PUSH1 0x1 PUSH1 0xA0 SHL SUB SWAP3 SWAP2 SWAP1 DUP4 DUP6 AND DUP6 SUB PUSH2 0x56C JUMPI DUP2 ISZERO PUSH2 0x559 JUMPI PUSH1 0x20 DUP2 DUP10 DUP2 DUP13 DUP2 PUSH2 0x48D DUP13 DUP12 PUSH2 0x466 DUP13 PUSH2 0x61B JUMP JUMPDEST PUSH4 0x23B872DD PUSH1 0xE0 SHL DUP6 MSTORE CALLER SWAP8 DUP6 ADD SWAP8 DUP9 MSTORE ADDRESS PUSH1 0x20 DUP10 ADD MSTORE PUSH1 0x40 DUP9 ADD SWAP3 SWAP1 SWAP3 MSTORE AND SWAP5 PUSH1 0x60 ADD SWAP1 JUMP JUMPDEST SUB SWAP3 GAS CALL DUP1 ISZERO PUSH2 0x54F JUMPI PUSH2 0x531 JUMPI JUMPDEST POP PUSH1 0x1 LT ISZERO PUSH2 0x51E JUMPI SWAP1 PUSH2 0x4B5 PUSH1 0x20 DUP9 SWAP6 SWAP5 SWAP4 ADD PUSH2 0x61B JUMP JUMPDEST AND SWAP1 DUP2 EXTCODESIZE ISZERO PUSH2 0x51A JUMPI DUP5 MLOAD PUSH4 0x40C10F19 PUSH1 0xE0 SHL DUP2 MSTORE PUSH1 0x1 PUSH1 0x1 PUSH1 0xA0 SHL SUB SWAP1 SWAP2 AND SWAP6 DUP2 ADD SWAP6 DUP7 MSTORE PUSH1 0x20 DUP7 ADD SWAP3 SWAP1 SWAP3 MSTORE SWAP1 SWAP4 DUP5 SWAP2 SWAP1 DUP3 SWAP1 DUP5 SWAP1 DUP3 SWAP1 PUSH1 0x40 ADD SUB SWAP3 GAS CALL SWAP1 DUP2 ISZERO PUSH2 0x511 JUMPI POP PUSH2 0x505 JUMPI POP DUP1 RETURN JUMPDEST PUSH2 0x50E SWAP1 PUSH2 0x5B7 JUMP JUMPDEST DUP1 RETURN JUMPDEST MLOAD RETURNDATASIZE DUP5 DUP3 RETURNDATACOPY RETURNDATASIZE SWAP1 REVERT JUMPDEST DUP4 DUP1 REVERT JUMPDEST PUSH4 0x4E487B71 PUSH1 0xE0 SHL DUP8 MSTORE PUSH1 0x32 DUP7 MSTORE PUSH1 0x24 DUP8 REVERT JUMPDEST PUSH2 0x548 SWAP1 PUSH1 0x20 RETURNDATASIZE DUP2 GT PUSH2 0x1F1 JUMPI PUSH2 0x1E2 DUP2 DUP4 PUSH2 0x5E1 JUMP JUMPDEST POP CODESIZE PUSH2 0x49C JUMP JUMPDEST DUP8 MLOAD RETURNDATASIZE DUP12 DUP3 RETURNDATACOPY RETURNDATASIZE SWAP1 REVERT JUMPDEST PUSH4 0x4E487B71 PUSH1 0xE0 SHL DUP10 MSTORE PUSH1 0x32 DUP9 MSTORE PUSH1 0x24 DUP10 REVERT JUMPDEST DUP9 DUP1 REVERT JUMPDEST SWAP2 DUP2 PUSH1 0x1F DUP5 ADD SLT ISZERO PUSH2 0x229 JUMPI DUP3 CALLDATALOAD SWAP2 PUSH8 0xFFFFFFFFFFFFFFFF DUP4 GT PUSH2 0x229 JUMPI PUSH1 0x20 DUP1 DUP6 ADD SWAP5 DUP5 PUSH1 0x5 SHL ADD ADD GT PUSH2 0x229 JUMPI JUMP JUMPDEST PUSH1 0x4 CALLDATALOAD SWAP1 PUSH1 0x1 PUSH1 0x1 PUSH1 0xA0 SHL SUB DUP3 AND DUP3 SUB PUSH2 0x229 JUMPI JUMP JUMPDEST PUSH8 0xFFFFFFFFFFFFFFFF DUP2 GT PUSH2 0x5CB JUMPI PUSH1 0x40 MSTORE JUMP JUMPDEST PUSH4 0x4E487B71 PUSH1 0xE0 SHL PUSH1 0x0 MSTORE PUSH1 0x41 PUSH1 0x4 MSTORE PUSH1 0x24 PUSH1 0x0 REVERT JUMPDEST SWAP1 PUSH1 0x1F DUP1 NOT SWAP2 ADD AND DUP2 ADD SWAP1 DUP2 LT PUSH8 0xFFFFFFFFFFFFFFFF DUP3 GT OR PUSH2 0x5CB JUMPI PUSH1 0x40 MSTORE JUMP JUMPDEST PUSH8 0xFFFFFFFFFFFFFFFF DUP2 GT PUSH2 0x5CB JUMPI PUSH1 0x5 SHL PUSH1 0x20 ADD SWAP1 JUMP JUMPDEST CALLDATALOAD PUSH1 0x1 PUSH1 0x1 PUSH1 0xA0 SHL SUB DUP2 AND DUP2 SUB PUSH2 0x229 JUMPI SWAP1 JUMP JUMPDEST SWAP1 DUP2 PUSH1 0x20 SWAP2 SUB SLT PUSH2 0x229 JUMPI MLOAD DUP1 ISZERO ISZERO DUP2 SUB PUSH2 0x229 JUMPI SWAP1 JUMP INVALID LOG2 PUSH5 0x6970667358 0x22 SLT KECCAK256 JUMP SWAP7 DIV SWAP5 EXTCODEHASH 0xD6 CALLER 0x1E CHAINID 0xB1 0xE SWAP15 DELEGATECALL CREATE2 0xA8 0xC3 0xE4 TIMESTAMP 0xCC 0xDF 0xEA 0xA6 0xCC SAR SWAP11 PUSH18 0x2C7F9610B4864736F6C6343000811003300 "},"methodIdentifiers":{"addLiquidity(address,address,uint256,uint256,uint256,uint256,address,uint256)":"e8e33700","getAmountsOut(uint256,address[])":"d06ca61f","initialize(address)":"c4d66de8","lpToken()":"5fcbd285","swapExactTokensForTokensSupportingFeeOnTransferTokens(uint256,uint256,address[],address,uint256)":"5c11d795"}}}}}