{"src/mocks/DQMiningTestMocks.sol":{"MockERC20Token":{"abi":[{"anonymous":false,"inputs":[{"indexed":true,"internalType":"address","name":"owner","type":"address"},{"indexed":true,"internalType":"address","name":"spender","type":"address"},{"indexed":false,"internalType":"uint256","name":"value","type":"uint256"}],"name":"Approval","type":"event"},{"anonymous":false,"inputs":[{"indexed":true,"internalType":"address","name":"from","type":"address"},{"indexed":true,"internalType":"address","name":"to","type":"address"},{"indexed":false,"internalType":"uint256","name":"value","type":"uint256"}],"name":"Transfer","type":"event"},{"inputs":[{"internalType":"address","name":"","type":"address"},{"internalType":"address","name":"","type":"address"}],"name":"allowance","outputs":[{"internalType":"uint256","name":"","type":"uint256"}],"stateMutability":"view","type":"function"},{"inputs":[{"internalType":"address","name":"spender","type":"address"},{"internalType":"uint256","name":"amount","type":"uint256"}],"name":"approve","outputs":[{"internalType":"bool","name":"","type":"bool"}],"stateMutability":"nonpayable","type":"function"},{"inputs":[{"internalType":"address","name":"","type":"address"}],"name":"balanceOf","outputs":[{"internalType":"uint256","name":"","type":"uint256"}],"stateMutability":"view","type":"function"},{"inputs":[{"internalType":"uint256","name":"amount","type":"uint256"}],"name":"burn","outputs":[],"stateMutability":"nonpayable","type":"function"},{"inputs":[],"name":"decimals","outputs":[{"internalType":"uint8","name":"","type":"uint8"}],"stateMutability":"view","type":"function"},{"inputs":[{"internalType":"string","name":"_name","type":"string"},{"internalType":"string","name":"_symbol","type":"string"},{"internalType":"uint8","name":"_decimals","type":"uint8"}],"name":"initialize","outputs":[],"stateMutability":"nonpayable","type":"function"},{"inputs":[{"internalType":"address","name":"to","type":"address"},{"internalType":"uint256","name":"amount","type":"uint256"}],"name":"mint","outputs":[],"stateMutability":"nonpayable","type":"function"},{"inputs":[],"name":"name","outputs":[{"internalType":"string","name":"","type":"string"}],"stateMutability":"view","type":"function"},{"inputs":[],"name":"symbol","outputs":[{"internalType":"string","name":"","type":"string"}],"stateMutability":"view","type":"function"},{"inputs":[],"name":"totalSupply","outputs":[{"internalType":"uint256","name":"","type":"uint256"}],"stateMutability":"view","type":"function"},{"inputs":[{"internalType":"address","name":"to","type":"address"},{"internalType":"uint256","name":"amount","type":"uint256"}],"name":"transfer","outputs":[{"internalType":"bool","name":"","type":"bool"}],"stateMutability":"nonpayable","type":"function"},{"inputs":[{"internalType":"address","name":"from","type":"address"},{"internalType":"address","name":"to","type":"address"},{"internalType":"uint256","name":"amount","type":"uint256"}],"name":"transferFrom","outputs":[{"internalType":"bool","name":"","type":"bool"}],"stateMutability":"nonpayable","type":"function"}],"evm":{"bytecode":{"linkReferences":{},"object":"6080806040523461001657610ba3908161001c8239f35b600080fdfe608060408181526004918236101561001657600080fd5b600092833560e01c91826306fdde031461089857508163095ea7b3146108275781631624f6c6146104c757816318160ddd146104a857816323b872dd1461039d578163313ce5671461037b5783826340c10f19146102fe5750816342966c681461023e57816370a08231146102045750806395d89b4114610126578063a9059cbb146100f65763dd62ed3e146100ab57600080fd5b346100f257806003193601126100f257806020926100c76109f9565b6100cf610a14565b6001600160a01b0391821683526005865283832091168252845220549051908152f35b5080fd5b50346100f257806003193601126100f25760209061011f6101156109f9565b6024359033610ab1565b5160018152f35b50346100f257816003193601126100f2578051908260018054916101498361093e565b808652928281169081156101dc5750600114610180575b5050506101728261017c940383610978565b51918291826109b0565b0390f35b94508085527fb10e2d527612073b26eecdfd717e6a320cf44b4afac2b0732d9fcbe2b7fa0cf65b8286106101c45750505061017282602061017c9582010194610160565b805460208787018101919091529095019481016101a7565b61017c97508693506020925061017294915060ff191682840152151560051b82010194610160565b90503461023a57602036600319011261023a5760209282916001600160a01b0361022c6109f9565b168252845220549051908152f35b8280fd5b839150346100f25760203660031901126100f257803590338352806020528184842054106102bb5792829333845260205280832061027d838254610aa4565b905561028b82600354610aa4565b600355519081527fddf252ad1be2c89b69c2b068fc378daa952ba7f163c4a11628f55a4df523b3ef60203392a380f35b606490602085519162461bcd60e51b8352820152601b60248201527f6275726e20616d6f756e7420657863656564732062616c616e636500000000006044820152fd5b915091346100f257806003193601126100f25760207fddf252ad1be2c89b69c2b068fc378daa952ba7f163c4a11628f55a4df523b3ef9161033d6109f9565b6001600160a01b03168085529482528084208054602435929190610362908490610a81565b905561037082600354610a81565b60035551908152a380f35b5050346100f257816003193601126100f25760209060ff600254169051908152f35b9190503461023a57606036600319011261023a576103b96109f9565b6103c1610a14565b6044359160018060a01b038116808752602095600587528588203389528752858820549085821061046c57509480969761011f9686600019820361040a575b5050505050610ab1565b61041391610aa4565b83825260058a528282203383528a528282205582815260058952818120338252895220549086519182527f8c5be1e5ebec7d5bd14f71427d1e84f3dd0314c0f7b2291e5b200ac8c7c3b925883393a33885818086610400565b865162461bcd60e51b81529081018890526016602482015275696e73756666696369656e7420616c6c6f77616e636560501b6044820152606490fd5b5050346100f257816003193601126100f2576020906003549051908152f35b9190503461023a57606036600319011261023a5767ffffffffffffffff918035838111610823576104fb9036908301610a2a565b9260243581811161081f576105139036908401610a2a565b936044359460ff861680960361081b576006549460ff86166107eb57506001938460ff198097161760065582518481116107d857806105528a5461093e565b94601f9586811161076b575b506020908683116001146106ee578b926106e3575b5050600019600383901b1c191690861b1788555b81519384116106d0575090829161059e855461093e565b828111610661575b5060209183116001146105e45787926105d9575b5050600019600383901b1c191690821b1790555b600254161760025580f35b0151905038806105ba565b8488528493507fb10e2d527612073b26eecdfd717e6a320cf44b4afac2b0732d9fcbe2b7fa0cf69190601f198416895b81811061064957508411610630575b505050811b0190556105ce565b015160001960f88460031b161c19169055388080610623565b82840151855587969094019360209384019301610614565b909192508488527fb10e2d527612073b26eecdfd717e6a320cf44b4afac2b0732d9fcbe2b7fa0cf68380860160051c820192602087106106c7575b91869588929594930160051c01915b8281106106b95750506105a6565b8a81558695508791016106ab565b9250819261069c565b634e487b7160e01b885260419052602487fd5b015190503880610573565b8b80528893507f290decd9548b62a8d60345a988386fc84ba6bc95484008f6362f93160ef3e5639190601f1984168d5b8181106107535750841161073a575b505050811b018855610587565b015160001960f88460031b161c1916905538808061072d565b8284015185558b96909401936020938401930161071e565b9091508a80527f290decd9548b62a8d60345a988386fc84ba6bc95484008f6362f93160ef3e5638680850160051c820192602086106107cf575b918a91869594930160051c01915b8281106107c157505061055e565b8d81558594508a91016107b3565b925081926107a5565b634e487b7160e01b895260418252602489fd5b5162461bcd60e51b8152602081860152600b60248201526a1a5b9a5d1a585b1a5e995960aa1b6044820152606490fd5b8680fd5b8580fd5b8480fd5b5050346100f257806003193601126100f257602091816108456109f9565b91602435918291338152600587528181209460018060a01b0316948582528752205582519081527f8c5be1e5ebec7d5bd14f71427d1e84f3dd0314c0f7b2291e5b200ac8c7c3b925843392a35160018152f35b8490843461023a578260031936011261023a578280546108b78161093e565b808552916001918083169081156101dc57506001146108e2575050506101728261017c940383610978565b80809650527f290decd9548b62a8d60345a988386fc84ba6bc95484008f6362f93160ef3e5635b8286106109265750505061017282602061017c9582010194610160565b80546020878701810191909152909501948101610909565b90600182811c9216801561096e575b602083101461095857565b634e487b7160e01b600052602260045260246000fd5b91607f169161094d565b90601f8019910116810190811067ffffffffffffffff82111761099a57604052565b634e487b7160e01b600052604160045260246000fd5b6020808252825181830181905290939260005b8281106109e557505060409293506000838284010152601f8019910116010190565b8181018601518482016040015285016109c3565b600435906001600160a01b0382168203610a0f57565b600080fd5b602435906001600160a01b0382168203610a0f57565b81601f82011215610a0f5780359067ffffffffffffffff821161099a5760405192610a5f601f8401601f191660200185610978565b82845260208383010111610a0f57816000926020809301838601378301015290565b91908201809211610a8e57565b634e487b7160e01b600052601160045260246000fd5b91908203918211610a8e57565b9060018060a01b0380921691600093838552600460205280604086205410610b315760406020927fddf252ad1be2c89b69c2b068fc378daa952ba7f163c4a11628f55a4df523b3ef9486885260048552828820610b0f858254610aa4565b905516958681526004845220610b26828254610a81565b9055604051908152a3565b60405162461bcd60e51b8152602060048201526014602482015273696e73756666696369656e742062616c616e636560601b6044820152606490fdfea26469706673582212200e2c115ef5d5f28341eea7f3a62f3ffdf3b6cd3c1b094e4085f570b8a7f6c82b64736f6c63430008110033","opcodes":"PUSH1 0x80 DUP1 PUSH1 0x40 MSTORE CALLVALUE PUSH2 0x16 JUMPI PUSH2 0xBA3 SWAP1 DUP2 PUSH2 0x1C DUP3 CODECOPY RETURN JUMPDEST PUSH1 0x0 DUP1 REVERT INVALID PUSH1 0x80 PUSH1 0x40 DUP2 DUP2 MSTORE PUSH1 0x4 SWAP2 DUP3 CALLDATASIZE LT ISZERO PUSH2 0x16 JUMPI PUSH1 0x0 DUP1 REVERT JUMPDEST PUSH1 0x0 SWAP3 DUP4 CALLDATALOAD PUSH1 0xE0 SHR SWAP2 DUP3 PUSH4 0x6FDDE03 EQ PUSH2 0x898 JUMPI POP DUP2 PUSH4 0x95EA7B3 EQ PUSH2 0x827 JUMPI DUP2 PUSH4 0x1624F6C6 EQ PUSH2 0x4C7 JUMPI DUP2 PUSH4 0x18160DDD EQ PUSH2 0x4A8 JUMPI DUP2 PUSH4 0x23B872DD EQ PUSH2 0x39D JUMPI DUP2 PUSH4 0x313CE567 EQ PUSH2 0x37B JUMPI DUP4 DUP3 PUSH4 0x40C10F19 EQ PUSH2 0x2FE JUMPI POP DUP2 PUSH4 0x42966C68 EQ PUSH2 0x23E JUMPI DUP2 PUSH4 0x70A08231 EQ PUSH2 0x204 JUMPI POP DUP1 PUSH4 0x95D89B41 EQ PUSH2 0x126 JUMPI DUP1 PUSH4 0xA9059CBB EQ PUSH2 0xF6 JUMPI PUSH4 0xDD62ED3E EQ PUSH2 0xAB JUMPI PUSH1 0x0 DUP1 REVERT JUMPDEST CALLVALUE PUSH2 0xF2 JUMPI DUP1 PUSH1 0x3 NOT CALLDATASIZE ADD SLT PUSH2 0xF2 JUMPI DUP1 PUSH1 0x20 SWAP3 PUSH2 0xC7 PUSH2 0x9F9 JUMP JUMPDEST PUSH2 0xCF PUSH2 0xA14 JUMP JUMPDEST PUSH1 0x1 PUSH1 0x1 PUSH1 0xA0 SHL SUB SWAP2 DUP3 AND DUP4 MSTORE PUSH1 0x5 DUP7 MSTORE DUP4 DUP4 KECCAK256 SWAP2 AND DUP3 MSTORE DUP5 MSTORE KECCAK256 SLOAD SWAP1 MLOAD SWAP1 DUP2 MSTORE RETURN JUMPDEST POP DUP1 REVERT JUMPDEST POP CALLVALUE PUSH2 0xF2 JUMPI DUP1 PUSH1 0x3 NOT CALLDATASIZE ADD SLT PUSH2 0xF2 JUMPI PUSH1 0x20 SWAP1 PUSH2 0x11F PUSH2 0x115 PUSH2 0x9F9 JUMP JUMPDEST PUSH1 0x24 CALLDATALOAD SWAP1 CALLER PUSH2 0xAB1 JUMP JUMPDEST MLOAD PUSH1 0x1 DUP2 MSTORE RETURN JUMPDEST POP CALLVALUE PUSH2 0xF2 JUMPI DUP2 PUSH1 0x3 NOT CALLDATASIZE ADD SLT PUSH2 0xF2 JUMPI DUP1 MLOAD SWAP1 DUP3 PUSH1 0x1 DUP1 SLOAD SWAP2 PUSH2 0x149 DUP4 PUSH2 0x93E JUMP JUMPDEST DUP1 DUP7 MSTORE SWAP3 DUP3 DUP2 AND SWAP1 DUP2 ISZERO PUSH2 0x1DC JUMPI POP PUSH1 0x1 EQ PUSH2 0x180 JUMPI JUMPDEST POP POP POP PUSH2 0x172 DUP3 PUSH2 0x17C SWAP5 SUB DUP4 PUSH2 0x978 JUMP JUMPDEST MLOAD SWAP2 DUP3 SWAP2 DUP3 PUSH2 0x9B0 JUMP JUMPDEST SUB SWAP1 RETURN JUMPDEST SWAP5 POP DUP1 DUP6 MSTORE PUSH32 0xB10E2D527612073B26EECDFD717E6A320CF44B4AFAC2B0732D9FCBE2B7FA0CF6 JUMPDEST DUP3 DUP7 LT PUSH2 0x1C4 JUMPI POP POP POP PUSH2 0x172 DUP3 PUSH1 0x20 PUSH2 0x17C SWAP6 DUP3 ADD ADD SWAP5 PUSH2 0x160 JUMP JUMPDEST DUP1 SLOAD PUSH1 0x20 DUP8 DUP8 ADD DUP2 ADD SWAP2 SWAP1 SWAP2 MSTORE SWAP1 SWAP6 ADD SWAP5 DUP2 ADD PUSH2 0x1A7 JUMP JUMPDEST PUSH2 0x17C SWAP8 POP DUP7 SWAP4 POP PUSH1 0x20 SWAP3 POP PUSH2 0x172 SWAP5 SWAP2 POP PUSH1 0xFF NOT AND DUP3 DUP5 ADD MSTORE ISZERO ISZERO PUSH1 0x5 SHL DUP3 ADD ADD SWAP5 PUSH2 0x160 JUMP JUMPDEST SWAP1 POP CALLVALUE PUSH2 0x23A JUMPI PUSH1 0x20 CALLDATASIZE PUSH1 0x3 NOT ADD SLT PUSH2 0x23A JUMPI PUSH1 0x20 SWAP3 DUP3 SWAP2 PUSH1 0x1 PUSH1 0x1 PUSH1 0xA0 SHL SUB PUSH2 0x22C PUSH2 0x9F9 JUMP JUMPDEST AND DUP3 MSTORE DUP5 MSTORE KECCAK256 SLOAD SWAP1 MLOAD SWAP1 DUP2 MSTORE RETURN JUMPDEST DUP3 DUP1 REVERT JUMPDEST DUP4 SWAP2 POP CALLVALUE PUSH2 0xF2 JUMPI PUSH1 0x20 CALLDATASIZE PUSH1 0x3 NOT ADD SLT PUSH2 0xF2 JUMPI DUP1 CALLDATALOAD SWAP1 CALLER DUP4 MSTORE DUP1 PUSH1 0x20 MSTORE DUP2 DUP5 DUP5 KECCAK256 SLOAD LT PUSH2 0x2BB JUMPI SWAP3 DUP3 SWAP4 CALLER DUP5 MSTORE PUSH1 0x20 MSTORE DUP1 DUP4 KECCAK256 PUSH2 0x27D DUP4 DUP3 SLOAD PUSH2 0xAA4 JUMP JUMPDEST SWAP1 SSTORE PUSH2 0x28B DUP3 PUSH1 0x3 SLOAD PUSH2 0xAA4 JUMP JUMPDEST PUSH1 0x3 SSTORE MLOAD SWAP1 DUP2 MSTORE PUSH32 0xDDF252AD1BE2C89B69C2B068FC378DAA952BA7F163C4A11628F55A4DF523B3EF PUSH1 0x20 CALLER SWAP3 LOG3 DUP1 RETURN JUMPDEST PUSH1 0x64 SWAP1 PUSH1 0x20 DUP6 MLOAD SWAP2 PUSH3 0x461BCD PUSH1 0xE5 SHL DUP4 MSTORE DUP3 ADD MSTORE PUSH1 0x1B PUSH1 0x24 DUP3 ADD MSTORE PUSH32 0x6275726E20616D6F756E7420657863656564732062616C616E63650000000000 PUSH1 0x44 DUP3 ADD MSTORE REVERT JUMPDEST SWAP2 POP SWAP2 CALLVALUE PUSH2 0xF2 JUMPI DUP1 PUSH1 0x3 NOT CALLDATASIZE ADD SLT PUSH2 0xF2 JUMPI PUSH1 0x20 PUSH32 0xDDF252AD1BE2C89B69C2B068FC378DAA952BA7F163C4A11628F55A4DF523B3EF SWAP2 PUSH2 0x33D PUSH2 0x9F9 JUMP JUMPDEST PUSH1 0x1 PUSH1 0x1 PUSH1 0xA0 SHL SUB AND DUP1 DUP6 MSTORE SWAP5 DUP3 MSTORE DUP1 DUP5 KECCAK256 DUP1 SLOAD PUSH1 0x24 CALLDATALOAD SWAP3 SWAP2 SWAP1 PUSH2 0x362 SWAP1 DUP5 SWAP1 PUSH2 0xA81 JUMP JUMPDEST SWAP1 SSTORE PUSH2 0x370 DUP3 PUSH1 0x3 SLOAD PUSH2 0xA81 JUMP JUMPDEST PUSH1 0x3 SSTORE MLOAD SWAP1 DUP2 MSTORE LOG3 DUP1 RETURN JUMPDEST POP POP CALLVALUE PUSH2 0xF2 JUMPI DUP2 PUSH1 0x3 NOT CALLDATASIZE ADD SLT PUSH2 0xF2 JUMPI PUSH1 0x20 SWAP1 PUSH1 0xFF PUSH1 0x2 SLOAD AND SWAP1 MLOAD SWAP1 DUP2 MSTORE RETURN JUMPDEST SWAP2 SWAP1 POP CALLVALUE PUSH2 0x23A JUMPI PUSH1 0x60 CALLDATASIZE PUSH1 0x3 NOT ADD SLT PUSH2 0x23A JUMPI PUSH2 0x3B9 PUSH2 0x9F9 JUMP JUMPDEST PUSH2 0x3C1 PUSH2 0xA14 JUMP JUMPDEST PUSH1 0x44 CALLDATALOAD SWAP2 PUSH1 0x1 DUP1 PUSH1 0xA0 SHL SUB DUP2 AND DUP1 DUP8 MSTORE PUSH1 0x20 SWAP6 PUSH1 0x5 DUP8 MSTORE DUP6 DUP9 KECCAK256 CALLER DUP10 MSTORE DUP8 MSTORE DUP6 DUP9 KECCAK256 SLOAD SWAP1 DUP6 DUP3 LT PUSH2 0x46C JUMPI POP SWAP5 DUP1 SWAP7 SWAP8 PUSH2 0x11F SWAP7 DUP7 PUSH1 0x0 NOT DUP3 SUB PUSH2 0x40A JUMPI JUMPDEST POP POP POP POP POP PUSH2 0xAB1 JUMP JUMPDEST PUSH2 0x413 SWAP2 PUSH2 0xAA4 JUMP JUMPDEST DUP4 DUP3 MSTORE PUSH1 0x5 DUP11 MSTORE DUP3 DUP3 KECCAK256 CALLER DUP4 MSTORE DUP11 MSTORE DUP3 DUP3 KECCAK256 SSTORE DUP3 DUP2 MSTORE PUSH1 0x5 DUP10 MSTORE DUP2 DUP2 KECCAK256 CALLER DUP3 MSTORE DUP10 MSTORE KECCAK256 SLOAD SWAP1 DUP7 MLOAD SWAP2 DUP3 MSTORE PUSH32 0x8C5BE1E5EBEC7D5BD14F71427D1E84F3DD0314C0F7B2291E5B200AC8C7C3B925 DUP9 CALLER SWAP4 LOG3 CODESIZE DUP6 DUP2 DUP1 DUP7 PUSH2 0x400 JUMP JUMPDEST DUP7 MLOAD PUSH3 0x461BCD PUSH1 0xE5 SHL DUP2 MSTORE SWAP1 DUP2 ADD DUP9 SWAP1 MSTORE PUSH1 0x16 PUSH1 0x24 DUP3 ADD MSTORE PUSH22 0x696E73756666696369656E7420616C6C6F77616E6365 PUSH1 0x50 SHL PUSH1 0x44 DUP3 ADD MSTORE PUSH1 0x64 SWAP1 REVERT JUMPDEST POP POP CALLVALUE PUSH2 0xF2 JUMPI DUP2 PUSH1 0x3 NOT CALLDATASIZE ADD SLT PUSH2 0xF2 JUMPI PUSH1 0x20 SWAP1 PUSH1 0x3 SLOAD SWAP1 MLOAD SWAP1 DUP2 MSTORE RETURN JUMPDEST SWAP2 SWAP1 POP CALLVALUE PUSH2 0x23A JUMPI PUSH1 0x60 CALLDATASIZE PUSH1 0x3 NOT ADD SLT PUSH2 0x23A JUMPI PUSH8 0xFFFFFFFFFFFFFFFF SWAP2 DUP1 CALLDATALOAD DUP4 DUP2 GT PUSH2 0x823 JUMPI PUSH2 0x4FB SWAP1 CALLDATASIZE SWAP1 DUP4 ADD PUSH2 0xA2A JUMP JUMPDEST SWAP3 PUSH1 0x24 CALLDATALOAD DUP2 DUP2 GT PUSH2 0x81F JUMPI PUSH2 0x513 SWAP1 CALLDATASIZE SWAP1 DUP5 ADD PUSH2 0xA2A JUMP JUMPDEST SWAP4 PUSH1 0x44 CALLDATALOAD SWAP5 PUSH1 0xFF DUP7 AND DUP1 SWAP7 SUB PUSH2 0x81B JUMPI PUSH1 0x6 SLOAD SWAP5 PUSH1 0xFF DUP7 AND PUSH2 0x7EB JUMPI POP PUSH1 0x1 SWAP4 DUP5 PUSH1 0xFF NOT DUP1 SWAP8 AND OR PUSH1 0x6 SSTORE DUP3 MLOAD DUP5 DUP2 GT PUSH2 0x7D8 JUMPI DUP1 PUSH2 0x552 DUP11 SLOAD PUSH2 0x93E JUMP JUMPDEST SWAP5 PUSH1 0x1F SWAP6 DUP7 DUP2 GT PUSH2 0x76B JUMPI JUMPDEST POP PUSH1 0x20 SWAP1 DUP7 DUP4 GT PUSH1 0x1 EQ PUSH2 0x6EE JUMPI DUP12 SWAP3 PUSH2 0x6E3 JUMPI JUMPDEST POP POP PUSH1 0x0 NOT PUSH1 0x3 DUP4 SWAP1 SHL SHR NOT AND SWAP1 DUP7 SHL OR DUP9 SSTORE JUMPDEST DUP2 MLOAD SWAP4 DUP5 GT PUSH2 0x6D0 JUMPI POP SWAP1 DUP3 SWAP2 PUSH2 0x59E DUP6 SLOAD PUSH2 0x93E JUMP JUMPDEST DUP3 DUP2 GT PUSH2 0x661 JUMPI JUMPDEST POP PUSH1 0x20 SWAP2 DUP4 GT PUSH1 0x1 EQ PUSH2 0x5E4 JUMPI DUP8 SWAP3 PUSH2 0x5D9 JUMPI JUMPDEST POP POP PUSH1 0x0 NOT PUSH1 0x3 DUP4 SWAP1 SHL SHR NOT AND SWAP1 DUP3 SHL OR SWAP1 SSTORE JUMPDEST PUSH1 0x2 SLOAD AND OR PUSH1 0x2 SSTORE DUP1 RETURN JUMPDEST ADD MLOAD SWAP1 POP CODESIZE DUP1 PUSH2 0x5BA JUMP JUMPDEST DUP5 DUP9 MSTORE DUP5 SWAP4 POP PUSH32 0xB10E2D527612073B26EECDFD717E6A320CF44B4AFAC2B0732D9FCBE2B7FA0CF6 SWAP2 SWAP1 PUSH1 0x1F NOT DUP5 AND DUP10 JUMPDEST DUP2 DUP2 LT PUSH2 0x649 JUMPI POP DUP5 GT PUSH2 0x630 JUMPI JUMPDEST POP POP POP DUP2 SHL ADD SWAP1 SSTORE PUSH2 0x5CE JUMP JUMPDEST ADD MLOAD PUSH1 0x0 NOT PUSH1 0xF8 DUP5 PUSH1 0x3 SHL AND SHR NOT AND SWAP1 SSTORE CODESIZE DUP1 DUP1 PUSH2 0x623 JUMP JUMPDEST DUP3 DUP5 ADD MLOAD DUP6 SSTORE DUP8 SWAP7 SWAP1 SWAP5 ADD SWAP4 PUSH1 0x20 SWAP4 DUP5 ADD SWAP4 ADD PUSH2 0x614 JUMP JUMPDEST SWAP1 SWAP2 SWAP3 POP DUP5 DUP9 MSTORE PUSH32 0xB10E2D527612073B26EECDFD717E6A320CF44B4AFAC2B0732D9FCBE2B7FA0CF6 DUP4 DUP1 DUP7 ADD PUSH1 0x5 SHR DUP3 ADD SWAP3 PUSH1 0x20 DUP8 LT PUSH2 0x6C7 JUMPI JUMPDEST SWAP2 DUP7 SWAP6 DUP9 SWAP3 SWAP6 SWAP5 SWAP4 ADD PUSH1 0x5 SHR ADD SWAP2 JUMPDEST DUP3 DUP2 LT PUSH2 0x6B9 JUMPI POP POP PUSH2 0x5A6 JUMP JUMPDEST DUP11 DUP2 SSTORE DUP7 SWAP6 POP DUP8 SWAP2 ADD PUSH2 0x6AB JUMP JUMPDEST SWAP3 POP DUP2 SWAP3 PUSH2 0x69C JUMP JUMPDEST PUSH4 0x4E487B71 PUSH1 0xE0 SHL DUP9 MSTORE PUSH1 0x41 SWAP1 MSTORE PUSH1 0x24 DUP8 REVERT JUMPDEST ADD MLOAD SWAP1 POP CODESIZE DUP1 PUSH2 0x573 JUMP JUMPDEST DUP12 DUP1 MSTORE DUP9 SWAP4 POP PUSH32 0x290DECD9548B62A8D60345A988386FC84BA6BC95484008F6362F93160EF3E563 SWAP2 SWAP1 PUSH1 0x1F NOT DUP5 AND DUP14 JUMPDEST DUP2 DUP2 LT PUSH2 0x753 JUMPI POP DUP5 GT PUSH2 0x73A JUMPI JUMPDEST POP POP POP DUP2 SHL ADD DUP9 SSTORE PUSH2 0x587 JUMP JUMPDEST ADD MLOAD PUSH1 0x0 NOT PUSH1 0xF8 DUP5 PUSH1 0x3 SHL AND SHR NOT AND SWAP1 SSTORE CODESIZE DUP1 DUP1 PUSH2 0x72D JUMP JUMPDEST DUP3 DUP5 ADD MLOAD DUP6 SSTORE DUP12 SWAP7 SWAP1 SWAP5 ADD SWAP4 PUSH1 0x20 SWAP4 DUP5 ADD SWAP4 ADD PUSH2 0x71E JUMP JUMPDEST SWAP1 SWAP2 POP DUP11 DUP1 MSTORE PUSH32 0x290DECD9548B62A8D60345A988386FC84BA6BC95484008F6362F93160EF3E563 DUP7 DUP1 DUP6 ADD PUSH1 0x5 SHR DUP3 ADD SWAP3 PUSH1 0x20 DUP7 LT PUSH2 0x7CF JUMPI JUMPDEST SWAP2 DUP11 SWAP2 DUP7 SWAP6 SWAP5 SWAP4 ADD PUSH1 0x5 SHR ADD SWAP2 JUMPDEST DUP3 DUP2 LT PUSH2 0x7C1 JUMPI POP POP PUSH2 0x55E JUMP JUMPDEST DUP14 DUP2 SSTORE DUP6 SWAP5 POP DUP11 SWAP2 ADD PUSH2 0x7B3 JUMP JUMPDEST SWAP3 POP DUP2 SWAP3 PUSH2 0x7A5 JUMP JUMPDEST PUSH4 0x4E487B71 PUSH1 0xE0 SHL DUP10 MSTORE PUSH1 0x41 DUP3 MSTORE PUSH1 0x24 DUP10 REVERT JUMPDEST MLOAD PUSH3 0x461BCD PUSH1 0xE5 SHL DUP2 MSTORE PUSH1 0x20 DUP2 DUP7 ADD MSTORE PUSH1 0xB PUSH1 0x24 DUP3 ADD MSTORE PUSH11 0x1A5B9A5D1A585B1A5E9959 PUSH1 0xAA SHL PUSH1 0x44 DUP3 ADD MSTORE PUSH1 0x64 SWAP1 REVERT JUMPDEST DUP7 DUP1 REVERT JUMPDEST DUP6 DUP1 REVERT JUMPDEST DUP5 DUP1 REVERT JUMPDEST POP POP CALLVALUE PUSH2 0xF2 JUMPI DUP1 PUSH1 0x3 NOT CALLDATASIZE ADD SLT PUSH2 0xF2 JUMPI PUSH1 0x20 SWAP2 DUP2 PUSH2 0x845 PUSH2 0x9F9 JUMP JUMPDEST SWAP2 PUSH1 0x24 CALLDATALOAD SWAP2 DUP3 SWAP2 CALLER DUP2 MSTORE PUSH1 0x5 DUP8 MSTORE DUP2 DUP2 KECCAK256 SWAP5 PUSH1 0x1 DUP1 PUSH1 0xA0 SHL SUB AND SWAP5 DUP6 DUP3 MSTORE DUP8 MSTORE KECCAK256 SSTORE DUP3 MLOAD SWAP1 DUP2 MSTORE PUSH32 0x8C5BE1E5EBEC7D5BD14F71427D1E84F3DD0314C0F7B2291E5B200AC8C7C3B925 DUP5 CALLER SWAP3 LOG3 MLOAD PUSH1 0x1 DUP2 MSTORE RETURN JUMPDEST DUP5 SWAP1 DUP5 CALLVALUE PUSH2 0x23A JUMPI DUP3 PUSH1 0x3 NOT CALLDATASIZE ADD SLT PUSH2 0x23A JUMPI DUP3 DUP1 SLOAD PUSH2 0x8B7 DUP2 PUSH2 0x93E JUMP JUMPDEST DUP1 DUP6 MSTORE SWAP2 PUSH1 0x1 SWAP2 DUP1 DUP4 AND SWAP1 DUP2 ISZERO PUSH2 0x1DC JUMPI POP PUSH1 0x1 EQ PUSH2 0x8E2 JUMPI POP POP POP PUSH2 0x172 DUP3 PUSH2 0x17C SWAP5 SUB DUP4 PUSH2 0x978 JUMP JUMPDEST DUP1 DUP1 SWAP7 POP MSTORE PUSH32 0x290DECD9548B62A8D60345A988386FC84BA6BC95484008F6362F93160EF3E563 JUMPDEST DUP3 DUP7 LT PUSH2 0x926 JUMPI POP POP POP PUSH2 0x172 DUP3 PUSH1 0x20 PUSH2 0x17C SWAP6 DUP3 ADD ADD SWAP5 PUSH2 0x160 JUMP JUMPDEST DUP1 SLOAD PUSH1 0x20 DUP8 DUP8 ADD DUP2 ADD SWAP2 SWAP1 SWAP2 MSTORE SWAP1 SWAP6 ADD SWAP5 DUP2 ADD PUSH2 0x909 JUMP JUMPDEST SWAP1 PUSH1 0x1 DUP3 DUP2 SHR SWAP3 AND DUP1 ISZERO PUSH2 0x96E JUMPI JUMPDEST PUSH1 0x20 DUP4 LT EQ PUSH2 0x958 JUMPI JUMP JUMPDEST PUSH4 0x4E487B71 PUSH1 0xE0 SHL PUSH1 0x0 MSTORE PUSH1 0x22 PUSH1 0x4 MSTORE PUSH1 0x24 PUSH1 0x0 REVERT JUMPDEST SWAP2 PUSH1 0x7F AND SWAP2 PUSH2 0x94D JUMP JUMPDEST SWAP1 PUSH1 0x1F DUP1 NOT SWAP2 ADD AND DUP2 ADD SWAP1 DUP2 LT PUSH8 0xFFFFFFFFFFFFFFFF DUP3 GT OR PUSH2 0x99A JUMPI PUSH1 0x40 MSTORE JUMP JUMPDEST PUSH4 0x4E487B71 PUSH1 0xE0 SHL PUSH1 0x0 MSTORE PUSH1 0x41 PUSH1 0x4 MSTORE PUSH1 0x24 PUSH1 0x0 REVERT JUMPDEST PUSH1 0x20 DUP1 DUP3 MSTORE DUP3 MLOAD DUP2 DUP4 ADD DUP2 SWAP1 MSTORE SWAP1 SWAP4 SWAP3 PUSH1 0x0 JUMPDEST DUP3 DUP2 LT PUSH2 0x9E5 JUMPI POP POP PUSH1 0x40 SWAP3 SWAP4 POP PUSH1 0x0 DUP4 DUP3 DUP5 ADD ADD MSTORE PUSH1 0x1F DUP1 NOT SWAP2 ADD AND ADD ADD SWAP1 JUMP JUMPDEST DUP2 DUP2 ADD DUP7 ADD MLOAD DUP5 DUP3 ADD PUSH1 0x40 ADD MSTORE DUP6 ADD PUSH2 0x9C3 JUMP JUMPDEST PUSH1 0x4 CALLDATALOAD SWAP1 PUSH1 0x1 PUSH1 0x1 PUSH1 0xA0 SHL SUB DUP3 AND DUP3 SUB PUSH2 0xA0F JUMPI JUMP JUMPDEST PUSH1 0x0 DUP1 REVERT JUMPDEST PUSH1 0x24 CALLDATALOAD SWAP1 PUSH1 0x1 PUSH1 0x1 PUSH1 0xA0 SHL SUB DUP3 AND DUP3 SUB PUSH2 0xA0F JUMPI JUMP JUMPDEST DUP2 PUSH1 0x1F DUP3 ADD SLT ISZERO PUSH2 0xA0F JUMPI DUP1 CALLDATALOAD SWAP1 PUSH8 0xFFFFFFFFFFFFFFFF DUP3 GT PUSH2 0x99A JUMPI PUSH1 0x40 MLOAD SWAP3 PUSH2 0xA5F PUSH1 0x1F DUP5 ADD PUSH1 0x1F NOT AND PUSH1 0x20 ADD DUP6 PUSH2 0x978 JUMP JUMPDEST DUP3 DUP5 MSTORE PUSH1 0x20 DUP4 DUP4 ADD ADD GT PUSH2 0xA0F JUMPI DUP2 PUSH1 0x0 SWAP3 PUSH1 0x20 DUP1 SWAP4 ADD DUP4 DUP7 ADD CALLDATACOPY DUP4 ADD ADD MSTORE SWAP1 JUMP JUMPDEST SWAP2 SWAP1 DUP3 ADD DUP1 SWAP3 GT PUSH2 0xA8E JUMPI JUMP JUMPDEST PUSH4 0x4E487B71 PUSH1 0xE0 SHL PUSH1 0x0 MSTORE PUSH1 0x11 PUSH1 0x4 MSTORE PUSH1 0x24 PUSH1 0x0 REVERT JUMPDEST SWAP2 SWAP1 DUP3 SUB SWAP2 DUP3 GT PUSH2 0xA8E JUMPI JUMP JUMPDEST SWAP1 PUSH1 0x1 DUP1 PUSH1 0xA0 SHL SUB DUP1 SWAP3 AND SWAP2 PUSH1 0x0 SWAP4 DUP4 DUP6 MSTORE PUSH1 0x4 PUSH1 0x20 MSTORE DUP1 PUSH1 0x40 DUP7 KECCAK256 SLOAD LT PUSH2 0xB31 JUMPI PUSH1 0x40 PUSH1 0x20 SWAP3 PUSH32 0xDDF252AD1BE2C89B69C2B068FC378DAA952BA7F163C4A11628F55A4DF523B3EF SWAP5 DUP7 DUP9 MSTORE PUSH1 0x4 DUP6 MSTORE DUP3 DUP9 KECCAK256 PUSH2 0xB0F DUP6 DUP3 SLOAD PUSH2 0xAA4 JUMP JUMPDEST SWAP1 SSTORE AND SWAP6 DUP7 DUP2 MSTORE PUSH1 0x4 DUP5 MSTORE KECCAK256 PUSH2 0xB26 DUP3 DUP3 SLOAD PUSH2 0xA81 JUMP JUMPDEST SWAP1 SSTORE PUSH1 0x40 MLOAD SWAP1 DUP2 MSTORE LOG3 JUMP JUMPDEST PUSH1 0x40 MLOAD PUSH3 0x461BCD PUSH1 0xE5 SHL DUP2 MSTORE PUSH1 0x20 PUSH1 0x4 DUP3 ADD MSTORE PUSH1 0x14 PUSH1 0x24 DUP3 ADD MSTORE PUSH20 0x696E73756666696369656E742062616C616E6365 PUSH1 0x60 SHL PUSH1 0x44 DUP3 ADD MSTORE PUSH1 0x64 SWAP1 REVERT INVALID LOG2 PUSH5 0x6970667358 0x22 SLT KECCAK256 0xE 0x2C GT 0x5E CREATE2 0xD5 CALLCODE DUP4 COINBASE 0xEE 0xA7 RETURN 0xA6 0x2F EXTCODEHASH REVERT RETURN 0xB6 0xCD EXTCODECOPY SHL MULMOD 0x4E BLOCKHASH DUP6 CREATE2 PUSH17 0xB8A7F6C82B64736F6C6343000811003300 "},"methodIdentifiers":{"allowance(address,address)":"dd62ed3e","approve(address,uint256)":"095ea7b3","balanceOf(address)":"70a08231","burn(uint256)":"42966c68","decimals()":"313ce567","initialize(string,string,uint8)":"1624f6c6","mint(address,uint256)":"40c10f19","name()":"06fdde03","symbol()":"95d89b41","totalSupply()":"18160ddd","transfer(address,uint256)":"a9059cbb","transferFrom(address,address,uint256)":"23b872dd"}}}}}