{"src/DQMS.sol":{"DQMiningStakeV3":{"abi":[{"inputs":[],"stateMutability":"nonpayable","type":"constructor"},{"anonymous":false,"inputs":[{"indexed":true,"internalType":"address","name":"u","type":"address"},{"indexed":false,"internalType":"uint256","name":"a","type":"uint256"}],"name":"ClaimReward","type":"event"},{"anonymous":false,"inputs":[{"indexed":true,"internalType":"address","name":"u","type":"address"},{"indexed":false,"internalType":"uint256","name":"a","type":"uint256"}],"name":"Deposit","type":"event"},{"anonymous":false,"inputs":[{"indexed":true,"internalType":"address","name":"u","type":"address"},{"indexed":false,"internalType":"uint256","name":"e","type":"uint256"}],"name":"EnergyChanged","type":"event"},{"anonymous":false,"inputs":[{"indexed":true,"internalType":"address","name":"u","type":"address"},{"indexed":false,"internalType":"uint256","name":"a","type":"uint256"}],"name":"LPRemoved","type":"event"},{"anonymous":false,"inputs":[{"indexed":true,"internalType":"address","name":"u","type":"address"},{"indexed":false,"internalType":"uint256","name":"a","type":"uint256"},{"indexed":false,"internalType":"uint256","name":"i","type":"uint256"}],"name":"Stake","type":"event"},{"anonymous":false,"inputs":[{"indexed":true,"internalType":"address","name":"u","type":"address"},{"indexed":false,"internalType":"uint256","name":"v","type":"uint256"}],"name":"TeamInvestChanged","type":"event"},{"anonymous":false,"inputs":[{"indexed":true,"internalType":"address","name":"u","type":"address"},{"indexed":false,"internalType":"uint256","name":"a","type":"uint256"},{"indexed":false,"internalType":"uint256","name":"i","type":"uint256"}],"name":"Unstake","type":"event"},{"inputs":[],"name":"BD","outputs":[{"internalType":"uint256","name":"","type":"uint256"}],"stateMutability":"view","type":"function"},{"inputs":[],"name":"CLAIM_GAS_FEE","outputs":[{"internalType":"uint256","name":"","type":"uint256"}],"stateMutability":"view","type":"function"},{"inputs":[],"name":"DQ_CARD","outputs":[{"internalType":"address","name":"","type":"address"}],"stateMutability":"view","type":"function"},{"inputs":[],"name":"DQ_TOKEN","outputs":[{"internalType":"address","name":"","type":"address"}],"stateMutability":"view","type":"function"},{"inputs":[],"name":"D_LEVEL_RATE","outputs":[{"internalType":"uint256","name":"","type":"uint256"}],"stateMutability":"view","type":"function"},{"inputs":[],"name":"F180","outputs":[{"internalType":"uint256","name":"","type":"uint256"}],"stateMutability":"view","type":"function"},{"inputs":[],"name":"F60","outputs":[{"internalType":"uint256","name":"","type":"uint256"}],"stateMutability":"view","type":"function"},{"inputs":[],"name":"FOUNDATION","outputs":[{"internalType":"address","name":"","type":"address"}],"stateMutability":"view","type":"function"},{"inputs":[],"name":"FOUNDATION_RATE","outputs":[{"internalType":"uint256","name":"","type":"uint256"}],"stateMutability":"view","type":"function"},{"inputs":[],"name":"IB","outputs":[{"internalType":"uint256","name":"","type":"uint256"}],"stateMutability":"view","type":"function"},{"inputs":[],"name":"INITIAL_SUPPLY","outputs":[{"internalType":"uint256","name":"","type":"uint256"}],"stateMutability":"view","type":"function"},{"inputs":[],"name":"LP_RATE","outputs":[{"internalType":"uint256","name":"","type":"uint256"}],"stateMutability":"view","type":"function"},{"inputs":[],"name":"MB","outputs":[{"internalType":"uint256","name":"","type":"uint256"}],"stateMutability":"view","type":"function"},{"inputs":[],"name":"NFT_RATE","outputs":[{"internalType":"uint256","name":"","type":"uint256"}],"stateMutability":"view","type":"function"},{"inputs":[],"name":"OWNER","outputs":[{"internalType":"address","name":"","type":"address"}],"stateMutability":"view","type":"function"},{"inputs":[],"name":"PARTNER","outputs":[{"internalType":"address","name":"","type":"address"}],"stateMutability":"view","type":"function"},{"inputs":[],"name":"ROUTER","outputs":[{"internalType":"address","name":"","type":"address"}],"stateMutability":"view","type":"function"},{"inputs":[],"name":"RT","outputs":[{"internalType":"uint256","name":"","type":"uint256"}],"stateMutability":"view","type":"function"},{"inputs":[],"name":"SOL","outputs":[{"internalType":"address","name":"","type":"address"}],"stateMutability":"view","type":"function"},{"inputs":[{"internalType":"uint256","name":"","type":"uint256"}],"name":"SP","outputs":[{"internalType":"uint256","name":"","type":"uint256"}],"stateMutability":"view","type":"function"},{"inputs":[{"internalType":"address","name":"_p","type":"address"},{"internalType":"address","name":"_c","type":"address"}],"name":"addChild","outputs":[],"stateMutability":"nonpayable","type":"function"},{"inputs":[{"internalType":"address","name":"_u","type":"address"},{"internalType":"uint256","name":"_a","type":"uint256"}],"name":"addDirectSales","outputs":[],"stateMutability":"nonpayable","type":"function"},{"inputs":[{"internalType":"address","name":"_u","type":"address"},{"internalType":"uint256","name":"_a","type":"uint256"}],"name":"addEnergy","outputs":[],"stateMutability":"nonpayable","type":"function"},{"inputs":[{"internalType":"address","name":"_u","type":"address"},{"internalType":"uint256","name":"_a","type":"uint256"},{"internalType":"uint256","name":"_t","type":"uint256"}],"name":"addLP","outputs":[],"stateMutability":"nonpayable","type":"function"},{"inputs":[{"internalType":"uint256","name":"_amount","type":"uint256"}],"name":"addPendingBurn","outputs":[],"stateMutability":"nonpayable","type":"function"},{"inputs":[{"internalType":"address","name":"_u","type":"address"},{"internalType":"uint256","name":"_a","type":"uint256"}],"name":"addPendingSOL","outputs":[],"stateMutability":"nonpayable","type":"function"},{"inputs":[{"internalType":"address","name":"_u","type":"address"},{"internalType":"uint256","name":"_a","type":"uint256"}],"name":"addTeamInvest","outputs":[],"stateMutability":"nonpayable","type":"function"},{"inputs":[{"internalType":"address","name":"_u","type":"address"}],"name":"adminWithdrawLP","outputs":[],"stateMutability":"nonpayable","type":"function"},{"inputs":[{"internalType":"address","name":"u","type":"address"},{"internalType":"bool","name":"s","type":"bool"}],"name":"bl","outputs":[],"stateMutability":"nonpayable","type":"function"},{"inputs":[],"name":"br","outputs":[{"internalType":"uint256","name":"","type":"uint256"}],"stateMutability":"view","type":"function"},{"inputs":[{"internalType":"address","name":"_u","type":"address"}],"name":"claimD","outputs":[],"stateMutability":"nonpayable","type":"function"},{"inputs":[],"name":"claimDLevelReward","outputs":[],"stateMutability":"payable","type":"function"},{"inputs":[{"internalType":"address","name":"_u","type":"address"}],"name":"claimFee","outputs":[],"stateMutability":"nonpayable","type":"function"},{"inputs":[],"name":"claimGasFee","outputs":[{"internalType":"uint256","name":"","type":"uint256"}],"stateMutability":"view","type":"function"},{"inputs":[{"internalType":"address","name":"_u","type":"address"}],"name":"claimLP","outputs":[],"stateMutability":"nonpayable","type":"function"},{"inputs":[{"internalType":"address","name":"_u","type":"address"}],"name":"claimNft","outputs":[],"stateMutability":"nonpayable","type":"function"},{"inputs":[{"internalType":"address","name":"_u","type":"address"}],"name":"claimPbnb","outputs":[],"stateMutability":"nonpayable","type":"function"},{"inputs":[{"internalType":"address","name":"_u","type":"address"}],"name":"claimPdq","outputs":[],"stateMutability":"nonpayable","type":"function"},{"inputs":[{"internalType":"address","name":"_u","type":"address"}],"name":"claimStakeReward","outputs":[],"stateMutability":"nonpayable","type":"function"},{"inputs":[{"internalType":"address","name":"_u","type":"address"}],"name":"clearUserLPRemovalFee","outputs":[],"stateMutability":"nonpayable","type":"function"},{"inputs":[{"internalType":"address","name":"_u","type":"address"},{"internalType":"uint256","name":"_i","type":"uint256"}],"name":"clmS","outputs":[],"stateMutability":"nonpayable","type":"function"},{"inputs":[{"internalType":"uint256","name":"","type":"uint256"}],"name":"dLevelAccReward","outputs":[{"internalType":"uint256","name":"","type":"uint256"}],"stateMutability":"view","type":"function"},{"inputs":[{"internalType":"uint256","name":"","type":"uint256"}],"name":"dLevelCount","outputs":[{"internalType":"uint256","name":"","type":"uint256"}],"stateMutability":"view","type":"function"},{"inputs":[{"internalType":"address","name":"","type":"address"}],"name":"dLevelRewardDebt","outputs":[{"internalType":"uint256","name":"","type":"uint256"}],"stateMutability":"view","type":"function"},{"inputs":[],"name":"dc","outputs":[{"internalType":"contract IDQCard","name":"","type":"address"}],"stateMutability":"view","type":"function"},{"inputs":[{"internalType":"address","name":"","type":"address"}],"name":"dd","outputs":[{"internalType":"uint256","name":"","type":"uint256"}],"stateMutability":"view","type":"function"},{"inputs":[{"internalType":"uint256","name":"_amount","type":"uint256"}],"name":"distDQFee","outputs":[],"stateMutability":"nonpayable","type":"function"},{"inputs":[{"internalType":"uint256","name":"_f","type":"uint256"}],"name":"distLP","outputs":[],"stateMutability":"nonpayable","type":"function"},{"inputs":[{"internalType":"uint256","name":"_f","type":"uint256"}],"name":"distNFT","outputs":[],"stateMutability":"payable","type":"function"},{"inputs":[{"internalType":"uint256","name":"_f","type":"uint256"}],"name":"distP","outputs":[],"stateMutability":"nonpayable","type":"function"},{"inputs":[{"internalType":"address","name":"_u","type":"address"},{"internalType":"uint256","name":"_a","type":"uint256"}],"name":"distReward","outputs":[],"stateMutability":"nonpayable","type":"function"},{"inputs":[{"internalType":"address","name":"","type":"address"}],"name":"dl","outputs":[{"internalType":"uint8","name":"","type":"uint8"}],"stateMutability":"view","type":"function"},{"inputs":[],"name":"dq","outputs":[{"internalType":"contract IDQToken","name":"","type":"address"}],"stateMutability":"view","type":"function"},{"inputs":[],"name":"energyMul","outputs":[{"internalType":"uint256","name":"","type":"uint256"}],"stateMutability":"view","type":"function"},{"inputs":[],"name":"feeRecipient","outputs":[{"internalType":"address","name":"","type":"address"}],"stateMutability":"view","type":"function"},{"inputs":[{"internalType":"address","name":"_u","type":"address"}],"name":"forceRemoveLP","outputs":[],"stateMutability":"nonpayable","type":"function"},{"inputs":[],"name":"fp","outputs":[{"internalType":"uint256","name":"","type":"uint256"}],"stateMutability":"view","type":"function"},{"inputs":[{"internalType":"address","name":"_u","type":"address"},{"internalType":"uint256","name":"_i","type":"uint256"}],"name":"getChild","outputs":[{"internalType":"address","name":"","type":"address"}],"stateMutability":"view","type":"function"},{"inputs":[{"internalType":"address","name":"_u","type":"address"}],"name":"getChildCount","outputs":[{"internalType":"uint256","name":"","type":"uint256"}],"stateMutability":"view","type":"function"},{"inputs":[{"internalType":"address","name":"_u","type":"address"}],"name":"getDLevel","outputs":[{"internalType":"uint8","name":"","type":"uint8"}],"stateMutability":"view","type":"function"},{"inputs":[{"internalType":"address","name":"_u","type":"address"}],"name":"getDLevelReward","outputs":[{"internalType":"uint256","name":"","type":"uint256"}],"stateMutability":"view","type":"function"},{"inputs":[{"internalType":"address","name":"_u","type":"address"}],"name":"getDirectSales","outputs":[{"internalType":"uint256","name":"","type":"uint256"}],"stateMutability":"view","type":"function"},{"inputs":[{"internalType":"address","name":"_u","type":"address"}],"name":"getEnergy","outputs":[{"internalType":"uint256","name":"","type":"uint256"}],"stateMutability":"view","type":"function"},{"inputs":[{"internalType":"address","name":"_u","type":"address"}],"name":"getPartnerReward","outputs":[{"internalType":"uint256","name":"dqReward","type":"uint256"},{"internalType":"uint256","name":"solReward","type":"uint256"}],"stateMutability":"view","type":"function"},{"inputs":[{"internalType":"address","name":"_u","type":"address"}],"name":"getPendingSOL","outputs":[{"internalType":"uint256","name":"","type":"uint256"}],"stateMutability":"view","type":"function"},{"inputs":[{"internalType":"address","name":"_u","type":"address"},{"internalType":"uint256","name":"_i","type":"uint256"}],"name":"getStk","outputs":[{"internalType":"uint256","name":"","type":"uint256"},{"internalType":"uint256","name":"","type":"uint256"}],"stateMutability":"view","type":"function"},{"inputs":[{"internalType":"address","name":"_u","type":"address"}],"name":"getTeamInvest","outputs":[{"internalType":"uint256","name":"","type":"uint256"}],"stateMutability":"view","type":"function"},{"inputs":[{"internalType":"address","name":"_u","type":"address"}],"name":"getUserLPRemovalFee","outputs":[{"internalType":"uint256","name":"","type":"uint256"}],"stateMutability":"view","type":"function"},{"inputs":[{"internalType":"address","name":"_u","type":"address"}],"name":"getValidAddressCount","outputs":[{"internalType":"uint256","name":"","type":"uint256"}],"stateMutability":"view","type":"function"},{"inputs":[{"internalType":"address","name":"_u","type":"address"},{"internalType":"address","name":"_r","type":"address"},{"internalType":"uint256","name":"_total","type":"uint256"},{"internalType":"uint256","name":"_team","type":"uint256"},{"internalType":"uint8","name":"_level","type":"uint8"},{"internalType":"uint256","name":"_energy","type":"uint256"}],"name":"importUser","outputs":[],"stateMutability":"nonpayable","type":"function"},{"inputs":[{"internalType":"address","name":"","type":"address"}],"name":"isB","outputs":[{"internalType":"bool","name":"","type":"bool"}],"stateMutability":"view","type":"function"},{"inputs":[{"internalType":"uint8","name":"","type":"uint8"},{"internalType":"address","name":"","type":"address"}],"name":"isDLevel","outputs":[{"internalType":"bool","name":"","type":"bool"}],"stateMutability":"view","type":"function"},{"inputs":[],"name":"lA","outputs":[{"internalType":"uint256","name":"","type":"uint256"}],"stateMutability":"view","type":"function"},{"inputs":[{"internalType":"address","name":"","type":"address"}],"name":"lF","outputs":[{"internalType":"uint256","name":"","type":"uint256"}],"stateMutability":"view","type":"function"},{"inputs":[{"internalType":"address","name":"","type":"address"}],"name":"lpD","outputs":[{"internalType":"uint256","name":"","type":"uint256"}],"stateMutability":"view","type":"function"},{"inputs":[],"name":"lpPair","outputs":[{"internalType":"address","name":"","type":"address"}],"stateMutability":"view","type":"function"},{"inputs":[{"internalType":"address","name":"","type":"address"}],"name":"lpS","outputs":[{"internalType":"uint256","name":"","type":"uint256"}],"stateMutability":"view","type":"function"},{"inputs":[{"internalType":"address","name":"","type":"address"}],"name":"lpT","outputs":[{"internalType":"uint256","name":"","type":"uint256"}],"stateMutability":"view","type":"function"},{"inputs":[],"name":"lt","outputs":[{"internalType":"uint256","name":"","type":"uint256"}],"stateMutability":"view","type":"function"},{"inputs":[],"name":"mc","outputs":[{"internalType":"address","name":"","type":"address"}],"stateMutability":"view","type":"function"},{"inputs":[{"internalType":"uint256","name":"","type":"uint256"}],"name":"mgrRates","outputs":[{"internalType":"uint8","name":"","type":"uint8"}],"stateMutability":"view","type":"function"},{"inputs":[{"internalType":"uint256","name":"","type":"uint256"}],"name":"mgrThresh","outputs":[{"internalType":"uint256","name":"","type":"uint256"}],"stateMutability":"view","type":"function"},{"inputs":[],"name":"mine","outputs":[],"stateMutability":"nonpayable","type":"function"},{"inputs":[],"name":"miningContract","outputs":[{"internalType":"address","name":"","type":"address"}],"stateMutability":"view","type":"function"},{"inputs":[{"internalType":"uint256","name":"","type":"uint256"}],"name":"nA","outputs":[{"internalType":"uint256","name":"","type":"uint256"}],"stateMutability":"view","type":"function"},{"inputs":[{"internalType":"address","name":"","type":"address"}],"name":"nD0","outputs":[{"internalType":"uint256","name":"","type":"uint256"}],"stateMutability":"view","type":"function"},{"inputs":[{"internalType":"address","name":"","type":"address"}],"name":"nD1","outputs":[{"internalType":"uint256","name":"","type":"uint256"}],"stateMutability":"view","type":"function"},{"inputs":[{"internalType":"address","name":"","type":"address"}],"name":"nD2","outputs":[{"internalType":"uint256","name":"","type":"uint256"}],"stateMutability":"view","type":"function"},{"inputs":[{"internalType":"uint256","name":"","type":"uint256"}],"name":"nodePrices","outputs":[{"internalType":"uint256","name":"","type":"uint256"}],"stateMutability":"view","type":"function"},{"inputs":[{"internalType":"uint256","name":"","type":"uint256"}],"name":"nodeReq","outputs":[{"internalType":"uint256","name":"","type":"uint256"}],"stateMutability":"view","type":"function"},{"inputs":[{"internalType":"address","name":"_u","type":"address"},{"internalType":"uint256","name":"_amount","type":"uint256"}],"name":"notifyLPRemoved","outputs":[],"stateMutability":"nonpayable","type":"function"},{"inputs":[],"name":"pBA","outputs":[{"internalType":"uint256","name":"","type":"uint256"}],"stateMutability":"view","type":"function"},{"inputs":[],"name":"pDA","outputs":[{"internalType":"uint256","name":"","type":"uint256"}],"stateMutability":"view","type":"function"},{"inputs":[],"name":"pendingBurnAmount","outputs":[{"internalType":"uint256","name":"","type":"uint256"}],"stateMutability":"view","type":"function"},{"inputs":[{"internalType":"address","name":"_user","type":"address"},{"internalType":"uint8","name":"_newLevel","type":"uint8"}],"name":"registerDLevel","outputs":[],"stateMutability":"nonpayable","type":"function"},{"inputs":[{"internalType":"address","name":"_u","type":"address"},{"internalType":"address","name":"_r","type":"address"}],"name":"registerUser","outputs":[],"stateMutability":"nonpayable","type":"function"},{"inputs":[],"name":"releasedSupply","outputs":[{"internalType":"uint256","name":"","type":"uint256"}],"stateMutability":"view","type":"function"},{"inputs":[{"internalType":"address","name":"_p","type":"address"},{"internalType":"address","name":"_c","type":"address"}],"name":"removeChild","outputs":[],"stateMutability":"nonpayable","type":"function"},{"inputs":[{"internalType":"uint256","name":"","type":"uint256"}],"name":"sA","outputs":[{"internalType":"uint256","name":"","type":"uint256"}],"stateMutability":"view","type":"function"},{"inputs":[{"internalType":"address","name":"","type":"address"},{"internalType":"uint256","name":"","type":"uint256"}],"name":"sAmt","outputs":[{"internalType":"uint256","name":"","type":"uint256"}],"stateMutability":"view","type":"function"},{"inputs":[{"internalType":"address","name":"","type":"address"},{"internalType":"uint256","name":"","type":"uint256"}],"name":"sDebt","outputs":[{"internalType":"uint256","name":"","type":"uint256"}],"stateMutability":"view","type":"function"},{"inputs":[{"internalType":"address","name":"_dq","type":"address"},{"internalType":"address","name":"_dc","type":"address"},{"internalType":"address","name":"_lpPair","type":"address"}],"name":"setAddresses","outputs":[],"stateMutability":"nonpayable","type":"function"},{"inputs":[{"internalType":"uint256","name":"_fee","type":"uint256"}],"name":"setClaimGasFee","outputs":[],"stateMutability":"nonpayable","type":"function"},{"inputs":[{"internalType":"address","name":"_user","type":"address"},{"internalType":"uint8","name":"_newLevel","type":"uint8"}],"name":"setDLevelByOwner","outputs":[],"stateMutability":"nonpayable","type":"function"},{"inputs":[{"internalType":"address","name":"_addr","type":"address"}],"name":"setDQCard","outputs":[],"stateMutability":"nonpayable","type":"function"},{"inputs":[{"internalType":"address","name":"_u","type":"address"},{"internalType":"uint256","name":"_e","type":"uint256"}],"name":"setEnergy","outputs":[],"stateMutability":"nonpayable","type":"function"},{"inputs":[{"internalType":"uint256","name":"_m","type":"uint256"}],"name":"setEnergyMul","outputs":[],"stateMutability":"nonpayable","type":"function"},{"inputs":[{"internalType":"address","name":"_addr","type":"address"}],"name":"setFeeRecipient","outputs":[],"stateMutability":"nonpayable","type":"function"},{"inputs":[{"internalType":"address","name":"_pair","type":"address"}],"name":"setLpPair","outputs":[],"stateMutability":"nonpayable","type":"function"},{"inputs":[{"internalType":"address","name":"a","type":"address"}],"name":"setM","outputs":[],"stateMutability":"nonpayable","type":"function"},{"inputs":[{"internalType":"address","name":"_addr","type":"address"}],"name":"setMiningContract","outputs":[],"stateMutability":"nonpayable","type":"function"},{"inputs":[{"internalType":"address","name":"_u","type":"address"},{"internalType":"uint256","name":"_p","type":"uint256"}],"name":"setPendingSOL","outputs":[],"stateMutability":"nonpayable","type":"function"},{"inputs":[{"internalType":"address","name":"_u","type":"address"},{"internalType":"uint256","name":"_v","type":"uint256"}],"name":"setTeamInvest","outputs":[],"stateMutability":"nonpayable","type":"function"},{"inputs":[{"internalType":"address","name":"_u","type":"address"},{"internalType":"uint256","name":"_c","type":"uint256"}],"name":"setValidAddress","outputs":[],"stateMutability":"nonpayable","type":"function"},{"inputs":[{"internalType":"address","name":"_u","type":"address"},{"internalType":"uint256","name":"_a","type":"uint256"},{"internalType":"uint256","name":"_i","type":"uint256"}],"name":"stake","outputs":[],"stateMutability":"nonpayable","type":"function"},{"inputs":[{"internalType":"address","name":"_u","type":"address"},{"internalType":"uint256","name":"_a","type":"uint256"}],"name":"subEnergy","outputs":[],"stateMutability":"nonpayable","type":"function"},{"inputs":[{"internalType":"address","name":"_u","type":"address"},{"internalType":"uint256","name":"_amount","type":"uint256"}],"name":"subPendingBurn","outputs":[],"stateMutability":"nonpayable","type":"function"},{"inputs":[{"internalType":"address","name":"_u","type":"address"},{"internalType":"uint256","name":"_a","type":"uint256"}],"name":"subPendingSOL","outputs":[],"stateMutability":"nonpayable","type":"function"},{"inputs":[],"name":"tLP","outputs":[{"internalType":"uint256","name":"","type":"uint256"}],"stateMutability":"view","type":"function"},{"inputs":[{"internalType":"uint256","name":"","type":"uint256"}],"name":"tS","outputs":[{"internalType":"uint256","name":"","type":"uint256"}],"stateMutability":"view","type":"function"},{"inputs":[{"internalType":"address","name":"_u","type":"address"},{"internalType":"uint256","name":"_i","type":"uint256"}],"name":"unstake","outputs":[],"stateMutability":"nonpayable","type":"function"},{"inputs":[{"internalType":"address","name":"_u","type":"address"},{"internalType":"uint256","name":"_a","type":"uint256"}],"name":"updateTeam","outputs":[],"stateMutability":"nonpayable","type":"function"},{"inputs":[{"internalType":"address","name":"_u","type":"address"}],"name":"updateValidAddress","outputs":[],"stateMutability":"nonpayable","type":"function"},{"inputs":[{"internalType":"address","name":"","type":"address"}],"name":"userDLevel","outputs":[{"internalType":"uint8","name":"","type":"uint8"}],"stateMutability":"view","type":"function"},{"inputs":[{"internalType":"address","name":"","type":"address"}],"name":"userDirectSales","outputs":[{"internalType":"uint256","name":"","type":"uint256"}],"stateMutability":"view","type":"function"},{"inputs":[{"internalType":"address","name":"","type":"address"}],"name":"userEnergy","outputs":[{"internalType":"uint256","name":"","type":"uint256"}],"stateMutability":"view","type":"function"},{"inputs":[{"internalType":"address","name":"","type":"address"}],"name":"userLPRemovalFee","outputs":[{"internalType":"uint256","name":"","type":"uint256"}],"stateMutability":"view","type":"function"},{"inputs":[{"internalType":"address","name":"","type":"address"}],"name":"userLevel","outputs":[{"internalType":"uint8","name":"","type":"uint8"}],"stateMutability":"view","type":"function"},{"inputs":[{"internalType":"address","name":"","type":"address"},{"internalType":"uint256","name":"","type":"uint256"}],"name":"userNftF","outputs":[{"internalType":"uint256","name":"","type":"uint256"}],"stateMutability":"view","type":"function"},{"inputs":[{"internalType":"address","name":"","type":"address"}],"name":"userPBD","outputs":[{"internalType":"uint256","name":"","type":"uint256"}],"stateMutability":"view","type":"function"},{"inputs":[{"internalType":"address","name":"","type":"address"}],"name":"userPDD","outputs":[{"internalType":"uint256","name":"","type":"uint256"}],"stateMutability":"view","type":"function"},{"inputs":[{"internalType":"address","name":"","type":"address"}],"name":"userPendingSOL","outputs":[{"internalType":"uint256","name":"","type":"uint256"}],"stateMutability":"view","type":"function"},{"inputs":[{"internalType":"address","name":"","type":"address"}],"name":"userReferrer","outputs":[{"internalType":"address","name":"","type":"address"}],"stateMutability":"view","type":"function"},{"inputs":[{"internalType":"address","name":"","type":"address"}],"name":"userTeamInvest","outputs":[{"internalType":"uint256","name":"","type":"uint256"}],"stateMutability":"view","type":"function"},{"inputs":[{"internalType":"address","name":"","type":"address"}],"name":"userTotalInvest","outputs":[{"internalType":"uint256","name":"","type":"uint256"}],"stateMutability":"view","type":"function"},{"inputs":[{"internalType":"address","name":"","type":"address"}],"name":"userValidAddressCount","outputs":[{"internalType":"uint256","name":"","type":"uint256"}],"stateMutability":"view","type":"function"},{"inputs":[{"internalType":"address","name":"_u","type":"address"},{"internalType":"uint256","name":"_a","type":"uint256"}],"name":"withdraw","outputs":[],"stateMutability":"nonpayable","type":"function"},{"inputs":[],"name":"withdrawBNB","outputs":[],"stateMutability":"nonpayable","type":"function"},{"inputs":[{"internalType":"uint256","name":"_amount","type":"uint256"}],"name":"withdrawDQ","outputs":[],"stateMutability":"nonpayable","type":"function"},{"inputs":[{"internalType":"address","name":"_u","type":"address"}],"name":"withdrawLP","outputs":[],"stateMutability":"nonpayable","type":"function"},{"inputs":[{"internalType":"address","name":"_u","type":"address"}],"name":"withdrawLPByM","outputs":[],"stateMutability":"nonpayable","type":"function"},{"inputs":[{"internalType":"uint256","name":"_amount","type":"uint256"}],"name":"withdrawSOL","outputs":[],"stateMutability":"nonpayable","type":"function"},{"stateMutability":"payable","type":"receive"}],"evm":{"bytecode":{"linkReferences":{},"object":"604060808152346200025d5760016000818155652d79883d20006009556200002662000262565b90601e82526020605a8184015260b4858401526101686060840152600b549260049384600b5580851062000232575b50600b83528183209085845b8681106200021b5750505050611f406039556003806048556200008362000298565b6064815260c883820152610258878201526107d060608201526117706080820152614e2060a082015285845b600681106200020357505050620000c562000298565b60058152600a83820152600f878201526014606082015260196080820152601e60a08201528391845b878560068310620001da575050505050604f556200010b62000262565b828152681b1ae4d6e2ef50000082820152685150ae84a8cdf000008682015269010f0cf064dd59200000606082015284835b858110620001bd575050506200015262000262565b828152600582820152600a8682015260146060820152915b838110620001a757600680546001600160a01b03191673274acc6397349f21179ed6258a54b2a11b28faf517905585516153119081620002b98239f35b825160ff1660548201559181019184016200016a565b82516001600160501b03166050820155918301918691016200013d565b909192939460ff90818751169185871b90811b9283911b169119161794019101919091620000ee565b8461ffff8451169301928160490155018690620000af565b8461ffff8451169301928185015501869062000061565b600b8452858584862092830192015b8281106200025157505062000055565b85815501869062000241565b600080fd5b60405190608082016001600160401b038111838210176200028257604052565b634e487b7160e01b600052604160045260246000fd5b6040519060c082016001600160401b03811183821017620002825760405256fe60406080815260049081361015610020575b5050361561001e57600080fd5b005b600091823560e01c9081622e6df8146134e257816301990eee146134c657816301a74937146134905781630354adb21461342c5781630691cc6a1461340d57816306e46610146133de5781630c51b88f1461333a5781630c6727fa14610b5e5781630d88d8b8146131c35781630db576a414613113578163117803e3146130ea5781631346b315146130b25781631956c0921461307a5781631d111d131461300d57816320c36ca114612f9c578163226d587214612789578163230fb41e14612f6a57816324d83d0314612ce6578163259256b314612c1e578163275afa8214612b9c578163280e31cc14612b605781632aa36e9d14612ab35781632e2678d414612a875781632e30e85b14612a685781632ff2e9dc14612a40578163316eab5114612a1457816331aedf9b146129e7578163321776a814612995578163327cf9be1461297457816332fe7b2614612945578163363bf9641461286657816337cbe1b2146128475781633de47a93146128285781633e4c7b02146118115781633ffcca1b146127c157816343962b0614612789578163452ed4f11461276057816346904840146127375781634a63e2221461271b5781634bf71ffd146126f45781634e0be991146126c15783826350dc9baa146126825750816350f5b30b1461264a57816353f1daa1146125f45781635733101b1461248457816357c8e9f31461244c578163589a36c2146123e957816359af312b146123ad5781635a4a6c8d146123815781635dcbb65a1461233357816365df2e51146123045781636c7bb9a9146122c85781636c8857c1146115225781636e8e8af5146122905781636ebc51e11461202b5781636f3ca9ff1461200f578163702f532114611fbd57816372288a9714611f525781637243e74614611f2557816374ea738314611ed75781637935eca114611e965781637a89e26914611dee5781637c1a6b0d14611dc55781637c3fcc3814611d8a5781637f45db6414611d6e5781638152cb1614611cf85781638273124714611cba578163827a7c1414611bf7578163834cc1ea14611ac257816383fb0651146115e75781638586079914611a8a5781638652d31c14611a13578163865eef32146119cd57816388f72e3d1461198857816389cc1a171461195c5781638b298b5a146119205781638bd0ba67146118c85781638c650b1b146118a95781638f62b56e146118715781638fc0f5eb1461187157816391564697146118495781639658c1e014610a5e578163992159301461181157816399f4b251146116575781639a9eeefb1461161f5781639ab362ea146115e75781639bd769aa146115af5781639d4c8eed146115775781639f77fb591461155a578163a11d594214611522578163a1b61a60146114f6578163a22ca2a6146114d7578163a28ee081146114b8578163a35f942a146113fb57838263a577e0401461138c57508163a5f98b6214611370578163a7f7879b14611344578163a862b8521461124b578163ab4ef8951461122e578163ad82659c14611205578163b01ba306146111c4578163b1d78e0e1461118c578163b813c6271461116d578163b82ae4e6146110a3578163ba9194c41461106b578163be75f46b14610ff0578163c122689314610f6b578163c2a672e014610e80578163c3e98e6114610e4157838263c579535a14610db957508163c5d3293e14610d8d578163c5d43fee14610d1d578163c663618914610cdd578163c71a83f414610caa578163c889178414610c8b578163c9f9b74514610c4a578163cae9eae914610bda578163cb65819814610bbe578163cb7956b014610b95578163ce86703a14610b5e578163d296cc4314610b1d578163d3c6bc4b14610aeb578163d6f4496a14610a9a578163d76ebb7b14610a5e578163d79d894614610a13578163d8a531a6146109ea578163db228a3b146109ce578163df0babc714610996578163e1d214fc14610977578163e55f27a814610940578163e62420d9146108f4578163e74b5b73146108bd578163e74b981b1461086c578163e7e043d514610843578163e8bbb75b14610809578163ea8b24ca14610787578163ebebcf3d14610758578163f3fef3a3146106eb578163f54f83b2146106bb57508063f6f3435914610684578063fa058d83146106665763fc04771a03610011573461066257816003193601126106625760209051600d8152f35b5080fd5b50346106625781600319360112610662576020906030549051908152f35b50346106625760203660031901126106625760209181906001600160a01b036106ab613514565b1681526035845220549051908152f35b9050346106e75760203660031901126106e7573560068110156106e75760209250604901549051908152f35b8280fd5b50503461066257806003193601126106625761075590610709613514565b6024359160018060a01b0361072381600354163314614488565b82168086528160205261073b82872054851115615289565b855280602052842061074e8382546139ec565b9055614e80565b80f35b5050346106625781600319360112610662576020905173803b79b608455808c2f752c588804c3f5bf676a38152f35b9050346106e757816003193601126106e75760207f3ee8d2ba081cc1285c74565158c4311f33a0e81c7fbef54f437af73e64ac4d8e916107c5613514565b6107da60018060a01b03809354163314613697565b1692838552603e82528085206107f360243582546139df565b9055838552603e8252808520549051908152a280f35b833461084057602036600319011261084057610755610826613514565b61083b60018060a01b03600354163314614488565b614506565b80fd5b50503461066257816003193601126106625760015490516001600160a01b039091168152602090f35b833461084057602036600319011261084057610886613514565b61089f6000805160206152bc83398151915233146135c2565b60018060a01b03166001600160601b0360a01b600654161760065580f35b8334610840576020366003190112610840576107556108da613514565b6108ef60018060a01b03600354163314614488565b614a97565b5050346106625780600319360112610662576020916001600160a01b0390610931908261091f613514565b16815260468552836024359120613594565b92905490519260031b1c168152f35b83346108405760203660031901126108405761075561095d613514565b61097260018060a01b03600354163314614488565b6145da565b5050346106625781600319360112610662576020906015549051908152f35b5050346106625760203660031901126106625760209181906001600160a01b036109be613514565b168152602f845220549051908152f35b50503461066257816003193601126106625760209051600f8152f35b50503461066257816003193601126106625760085490516001600160a01b039091168152602090f35b505034610662578060031936011261066257610a2d613514565b6001600160a01b03168252601c602052808220602435906003821015610a5a576020935001549051908152f35b8380fd5b5050346106625760203660031901126106625760209160ff9082906001600160a01b03610a89613514565b168152602e85522054169051908152f35b833461084057602036600319011261084057610ab4613514565b610acd6000805160206152bc83398151915233146135c2565b60018060a01b03166001600160601b0360a01b600354161760035580f35b8390346106625760203660031901126106625761075590610b1760018060a01b03600354163314614488565b356144ba565b50503461066257806003193601126106625760209181906001600160a01b03610b44613514565b168152605884528181206024358252845220549051908152f35b5050346106625760203660031901126106625760209181906001600160a01b03610b86613514565b16815281845220549051908152f35b50503461066257816003193601126106625760035490516001600160a01b039091168152602090f35b5050346106625781600319360112610662576020905160058152f35b9050346106e757816003193601126106e75760207f3ee8d2ba081cc1285c74565158c4311f33a0e81c7fbef54f437af73e64ac4d8e91610c18613514565b9054602435916001600160a01b0391610c349083163314613697565b1693848652603e8352818187205551908152a280f35b50503461066257806003193601126106625760209181906001600160a01b03610c71613514565b168152605984528181206024358252845220549051908152f35b505034610662578160031936011261066257602090605a549051908152f35b83903461066257602036600319011261066257610cd66000805160206152bc83398151915233146135c2565b3560095580f35b9050346106e757816003193601126106e757610cf7613514565b610d0c60018060a01b03809354163314613697565b168252806020526024359082205580f35b9050346106e757816003193601126106e75760207f27bf157905718b64ccf52ef99d6fb057abea9cda88264eebee01c2dd5b07735e91610d5b613514565b9054602435916001600160a01b0391610d779083163314613697565b1693848652603d8352818187205551908152a280f35b9050346106e75760203660031901126106e7578035908110156106e75760209250605401549051908152f35b808434610e3e57602080600319360112610e3a57601890610dd8613514565b6003546001600160a01b039190610df29083163314614488565b1680855260478252610e0a60ff8587205416156146ee565b80855260168252610e1f8486205415156145a6565b84526016815283838120556017815283838120555281205580f35b5050fd5b50fd5b5050346106625736600319011261084057610755610e5d613514565b610e6561356a565b90610e7b60018060a01b03600354163314614488565b614b6c565b838334610662578060031936011261066257610e9a613514565b6003546001600160a01b0392919060243590610eb99085163314614488565b85811091610ec68361518b565b8481169485875260586020528487208388526020528487205493610eeb851515614624565b8688526058602052858820848952602052878681205515610f5857838392610f4a927ff960dbf9e5d0682f7a298ed974e33a28b4464914b7a2bfac12ae419a9afeb280979695601001610f3f8482546139ec565b905560015416614f4b565b82519182526020820152a280f35b634e487b7160e01b875260328852602487fd5b50503461066257602036600319011261066257610f86613514565b9060018060a01b03610f9d81600354163314614488565b64e8d4a51000603154049216908184526033602052610fbf81852054846139ec565b9283610fc9578480f35b610fe69285526033602052818520558060205283209182546139df565b9055388080808480f35b5050346106625760203660031901126106625761100b613514565b9060018060a01b0361102281600354163314614488565b64e8d4a5100060305404921690818452603260205261104481852054846139ec565b928361104e578480f35b610fe69285526032602052818520558060205283209182546139df565b5050346106625760203660031901126106625760209181906001600160a01b03611093613514565b1681526034845220549051908152f35b9050346106e75760c03660031901126106e7576110be613514565b916110c761352a565b6084359260ff841680940361116857546001600160a01b039485916110ef9083163314613697565b169283865260209460438652838720921691826001600160601b0360a01b8254161790556044855260443583872055603e855260643583872055604585528286209060ff19825416179055603d845260a435828620558061114e578480f35b61115f936046918652528320613953565b50388080808480f35b600080fd5b505034610662578160031936011261066257602090600a549051908152f35b5050346106625760203660031901126106625760209181906001600160a01b036111b4613514565b1681526018845220549051908152f35b9050346106e757816003193601126106e7576111de613514565b6111f360018060a01b03809354163314613697565b168252603f6020526024359082205580f35b50503461066257816003193601126106625760025490516001600160a01b039091168152602090f35b50503461066257816003193601126106625760209051610bb88152f35b838334610662576020366003190112610662578254833593906001600160a01b0390811633148015611337575b611281906135f7565b605e850294808604605e1490151715611324576064849504906112a682605a546139df565b605a55816112b2578480f35b60075416803b15611320576024859285519687938492630852cd8d60e31b8452878401525af18015611316576112ea575b8084938480f35b67ffffffffffffffff83116113035750528180806112e3565b634e487b7160e01b845260419052602483fd5b82513d86823e3d90fd5b8480fd5b634e487b7160e01b845260118252602484fd5b5060075481163314611278565b9050346106e75760203660031901126106e7573560088110156106e75760209250602501549051908152f35b5050346106625781600319360112610662576020905160af8152f35b92915034610e3a5781600319360112610e3a576113a7613514565b9054602435916001600160a01b03916113c39083163314613697565b1690818452826020528284205481116000146113e6575082528060205281205580f35b926113f6929150209182546139ec565b905580f35b9050346106e75760203660031901126106e757611416613514565b906114306000805160206152bc83398151915233146135c2565b600554916001600160a01b0390818416611487571692831561145f5750506001600160a01b0319161760055580f35b906020606492519162461bcd60e51b83528201526002602482015261021360f41b6044820152fd5b845162461bcd60e51b8152602081850152600b60248201526a185b1c9958591e481cd95d60aa1b6044820152606490fd5b5050346106625781600319360112610662576020906048549051908152f35b505034610662578160031936011261066257602090603a549051908152f35b9050346106e75760203660031901126106e7578035908110156106e75760209250605001549051908152f35b5050346106625760203660031901126106625760209181906001600160a01b0361154a613514565b1681526041845220549051908152f35b50503461066257816003193601126106625760209051611f408152f35b5050346106625760203660031901126106625760209181906001600160a01b0361159f613514565b1681526046845220549051908152f35b5050346106625760203660031901126106625760209181906001600160a01b036115d7613514565b1681526016845220549051908152f35b5050346106625760203660031901126106625760209181906001600160a01b0361160f613514565b168152603f845220549051908152f35b5050346106625760203660031901126106625760209181906001600160a01b03611647613514565b1681526037845220549051908152f35b919050346106e757826003193601126106e7576003546001600160a01b03906116839082163314614488565b603a546201518081018091116117cc5742106117e657603954610bb8808211156117df575060311981019081116117cc575b60395542603a5560015416908051926370a0823160e01b845230818501526020938481602481875afa9081156117c2578691611791575b50600d810290808204600d149015171561177e576127108691049384611710575080f35b859261dead926044928651978895869463a9059cbb60e01b865285015260248401525af19081156117755750611747575b80808480f35b8161176692903d1061176e575b61175e818361371b565b810190614fff565b503880611741565b503d611754565b513d85823e3d90fd5b634e487b7160e01b865260118252602486fd5b90508481813d83116117bb575b6117a8818361371b565b810103126117b75751386116ec565b8580fd5b503d61179e565b83513d88823e3d90fd5b634e487b7160e01b855260118452602485fd5b90506116b5565b815162461bcd60e51b815260208185015260056024820152642174696d6560d81b6044820152606490fd5b5050346106625760203660031901126106625760209181906001600160a01b03611839613514565b1681526042845220549051908152f35b9050346106e757826003193601126106e7575490516001600160a01b03909116815260209150f35b5050346106625760203660031901126106625760209181906001600160a01b03611899613514565b168152603d845220549051908152f35b505034610662578160031936011261066257602090603c549051908152f35b9050346106e757816003193601126106e75761190a61191c926118e9613514565b926118f261352a565b905490936001600160a01b0393849283163314613697565b16855260466020528420911690613953565b5080f35b5050346106625760203660031901126106625760209160ff9082906001600160a01b0361194b613514565b168152603885522054169051908152f35b9050346106e75760203660031901126106e7578035908110156106e75760209250600c01549051908152f35b9050346106e757816003193601126106e7576119a2613514565b6119b760018060a01b03809354163314613697565b1682528060205281206113f660243582546139df565b9050346106e757816003193601126106e7576119e7613514565b6119fc60018060a01b03809354163314613697565b168252604160205281206113f660243582546139df565b50503461066257611a7990611a2736613540565b90929160018060a01b0390611a4182600354163314614488565b168086526016602052828620611a588582546139df565b90558552601860205281852054811115611a7f57905b8420556015546139df565b60155580f35b508084205490611a6e565b5050346106625760203660031901126106625760209181906001600160a01b03611ab2613514565b1681526044845220549051908152f35b9050346106e757816003193601126106e757611adc613514565b9160243590611afa6000805160206152bc83398151915233146135c2565b6001600160a01b03841693611b1085151561362b565b611b1b831515614624565b84865260209360168552838388205410611bc9575090611b5e837f4d56ba0e2aefaff6b9c6ff6079c000e9e2f3e1fdb0f3df37fc71466016df493f959493614656565b85875260168452818720611b738482546139ec565b905580611bac575b50848652601683528086205415611b95575b51908152a280f35b601783528581812055601883528581812055611b8d565b85875260428452611bc18288209182546139df565b905538611b7b565b825162461bcd60e51b815290810185905260086024820152672162616c616e636560c01b6044820152606490fd5b9050346106e75760203660031901126106e757803590611c266000805160206152bc83398151915233146135c2565b611c31821515614624565b8251906370a0823160e01b8252309082015260208160248173570a5d26f7765ecb712c0924e4de545b89fd43df5afa92831561177557508392611c85575b50611c7f61075592821115615289565b33614e80565b91506020823d8211611cb2575b81611c9f6020938361371b565b810103126106e757905190611c7f611c6f565b3d9150611c92565b5050346106625760203660031901126106625760209160ff9082906001600160a01b03611ce5613514565b1681526047855220541690519015158152f35b919050346106e757602080600319360112610a5a57611d15613514565b5033845260478152611d2d60ff8386205416156146ee565b835b838110611d3a578480f35b611d5a9033865260588352838620818752835283862054611d5f57613688565b611d2f565b611d6981336151bc565b613688565b50503461066257816003193601126106625760209051603c8152f35b505034610662576020366003190112610662576020916001600160a01b0390829082611db4613514565b168152604385522054169051908152f35b50503461066257816003193601126106625760075490516001600160a01b039091168152602090f35b919050346106e757806003193601126106e75760207f27bf157905718b64ccf52ef99d6fb057abea9cda88264eebee01c2dd5b07735e91611e2d613514565b9354602435946001600160a01b0391611e499083163314613697565b1693848652603d8352818620548111600014611e815750838552603d825284818120555b838552603d8252808520549051908152a280f35b611e8f8287209182546139ec565b9055611e6d565b9050346106e757816003193601126106e757611eb0613514565b611ec560018060a01b03809354163314613697565b168252603e6020526024359082205580f35b8390346106625760203660031901126106625780546001600160a01b031633148015611f0e575b611f07906135f7565b3560485580f35b50336000805160206152bc83398151915214611efe565b50503461066257602036600319011261066257602090611f4b611f46613514565b614c26565b9051908152f35b82843461084057602036600319011261084057611fb1611f70613514565b8364e8d4a5100093611f9c85603054049360018060a01b031693848352603260205283832054906139ec565b946031540492815260336020522054906139ec565b82519182526020820152f35b83903461066257602036600319011261066257611fd8613514565b611ff16000805160206152bc83398151915233146135c2565b81546001600160a01b0319166001600160a01b039190911617905580f35b50503461066257816003193601126106625760209051600a8152f35b919050346106e75760209081600319360112610a5a57612049613514565b9260018060a01b03600390612062818354163314614488565b8060085416918451916370a0823160e01b8352871693848184015260249087848381885afa938415612286578a94612253575b50979392919089988a955b8487106120e55750505050505050836120b7578480f35b610fe692829186526034815285828120556035815285828120556036815285828120555283209182546139df565b909192939495998b6121208b8d8c5180938192632f745c5960e01b8352888a840160209093929193604081019460018060a01b031681520152565b03818c5afa90811561221c578291612226575b508a519063fcf49adf60e01b8252858201528b8187818c5afa90811561221c5782918d918d94916121ec575b506001810361219157508a82526034905220546121869161218091906139df565b9a613688565b9594939291906120a0565b91925050600281036121b65750612186918a8260358e8d6121809652522054906139df565b919b9186146121ca575b5061218690613688565b612186919b8a8260368e8d6121e39652522054906139df565b9a90508b6121c0565b93505082813d8311612215575b612203818361371b565b81010312610840578b8b92513861215f565b503d6121f9565b8b513d84823e3d90fd5b90508b81813d831161224c575b61223d818361371b565b81010312610662575138612133565b503d612233565b9093508781813d831161227f575b61226b818361371b565b8101031261227b57519238612095565b8980fd5b503d612261565b87513d8c823e3d90fd5b5050346106625760203660031901126106625760209181906001600160a01b036122b8613514565b168152603b845220549051908152f35b839150346106625760203660031901126106625735906006821015610840575060ff60209260f88360051c604f015491519360031b161c168152f35b5050346106625781600319360112610662576020905173a0f045cde45ca1aee2033356170b46a1ff3b72028152f35b9050346106e75760203660031901126106e75735600b548110156106e757600b602093527f0175b7a638427703f0dbe7bb9bbf987a2551717b34e79f33b5b1008d1fa01db901549051908152f35b9050346106e75760203660031901126106e7573560038110156106e75760209250601901549051908152f35b919050346106e75736600319011261066257610755906123e06123ce613514565b91546001600160a01b03163314613697565b60243590613b1c565b505034610662578060031936011261066257612403613514565b9060243591821515809303610a5a5761242b6000805160206152bc83398151915233146135c2565b60018060a01b03168352604760205282209060ff8019835416911617905580f35b5050346106625760203660031901126106625760209181906001600160a01b03612474613514565b1681526036845220549051908152f35b8383816003193601126106625760028254146125b25760028255338252602090604782526124b860ff8285205416156146ee565b338352602e825260ff818420541691821561258b576009543410612564576124df8361365f565b60088110156125515760250154338552602f825282852054612500916139ec565b928361250f575b846001815580f35b6125189061365f565b6008811015612551576125459394955090829160250154338752602f8252828720555283209182546139df565b90558082808080612507565b634e487b7160e01b855260328652602485fd5b84606492519162461bcd60e51b8352818301526024820152632166656560e01b6044820152fd5b8490606492519162461bcd60e51b83528201526002602482015261085960f21b6044820152fd5b5162461bcd60e51b8152602081840152601f60248201527f5265656e7472616e637947756172643a207265656e7472616e742063616c6c006044820152606490fd5b5050346106625780600319360112610662576107559061264160ff612617613514565b9260018060a01b0361262e81600354163314614488565b84168652604760205285205416156146ee565b602435906151bc565b5050346106625760203660031901126106625760209181906001600160a01b03612672613514565b1681526033845220549051908152f35b92915034610e3a576020366003190112610e3a5761269e613514565b6126b360018060a01b03809354163314613697565b168252604260205281205580f35b9050346106e757816003193601126106e7576126e261191c926118e9613514565b168552604660205284209116906139f9565b83903461066257602036600319011261066257610755906127166123ce613514565b61373d565b5050346106625781600319360112610662576020905160148152f35b50503461066257816003193601126106625760065490516001600160a01b039091168152602090f35b50503461066257816003193601126106625760055490516001600160a01b039091168152602090f35b5050346106625760203660031901126106625760209181906001600160a01b036127b1613514565b168152603e845220549051908152f35b8334610840576020366003190112610840576127db613514565b6127f46000805160206152bc83398151915233146135c2565b6001600160a01b031661280881151561362b565b6001600160601b0360a01b81816008541617600855600254161760025580f35b5050346106625781600319360112610662576020906014549051908152f35b5050346106625781600319360112610662576020906031549051908152f35b833461084057606036600319011261084057612880613514565b61288861352a565b6001600160a01b0360443581811693919290849003611320578280926128bd6000805160206152bc83398151915233146135c2565b1680612922575b5016806128ff575b5060055490811615806128f6575b6128e2578280f35b6001600160a01b0319161760055581808280f35b508115156128da565b6001600160601b0360a01b818160085416176008556002541617600255836128cc565b6001600160601b0360a01b818160075416176007556001541617600155856128c4565b505034610662578160031936011261066257602090517310ed43c718714eb63d5aa57b78b54704e256024e8152f35b50503461066257816003193601126106625760209051652d79883d20008152f35b9050346106e757816003193601126106e7573560ff81168091036106e7578160209360ff926129c261352a565b908252602d86528282206001600160a01b039091168252855220549151911615158152f35b839060203660031901126106625761075590612a0e60018060a01b03600354163314614488565b3561471f565b9050346106e75760203660031901126106e7578035908110156106e75760209250601001549051908152f35b505034610662578160031936011261066257602090516c01431e0fae6d7217caa00000008152f35b5050346106625781600319360112610662576020906009549051908152f35b9050346106e75760203660031901126106e7573560088110156106e75760209250601d01549051908152f35b90508234610840578260031936011261084057612ace613514565b906024359160018060a01b031691828252602093605885528583208284528552858320549080831015612b4d575090612b3164e8d4a51000612b1788959484600c015490613ae9565b0485845260598752848420838552875284842054906139ec565b9382526058855282822090825284522054918351928352820152f35b634e487b7160e01b845260329052602483fd5b5050346106625760203660031901126106625760209160ff9082906001600160a01b03612b8b613514565b168152604585522054169051908152f35b9050346106e757816003193601126106e75760207f27bf157905718b64ccf52ef99d6fb057abea9cda88264eebee01c2dd5b07735e91612bda613514565b612bef60018060a01b03809354163314613697565b1692838552603d8252808520612c0860243582546139df565b9055838552603d8252808520549051908152a280f35b9050346106e75760203660031901126106e757803590612c4d6000805160206152bc83398151915233146135c2565b612c58821515614624565b60015483516370a0823160e01b815230928101929092526001600160a01b031690602081602481855afa938415612cdd57508493612ca8575b50612ca161075593831115615289565b3390614f4b565b92506020833d8211612cd5575b81612cc26020938361371b565b81010312610a5a57915191612ca1612c91565b3d9150612cb5565b513d86823e3d90fd5b919050346106e75760209081600319360112610a5a57612d04613514565b9260018060a01b03600390612d1d818354163314614488565b8060085416918451916370a0823160e01b8352871693848184015260249087848381885afa938415612286578a94612f3b575b50979392919089988a955b848710612da5575050505050505083612d72578480f35b610fe6928291601954908752601c825282872055601a5460018388200155601b54600283882001555283209182546139df565b909192939495998b612de08b8d8c5180938192632f745c5960e01b8352888a840160209093929193604081019460018060a01b031681520152565b03818c5afa90811561221c578291612f0e575b508a519063fcf49adf60e01b8252858201528b8187818c5afa90811561221c57918c8c928c948391612ed9575b50600190808203612e5d57505092612e529492612e4c92601c61218096601954948352522054906139ec565b906139df565b959493929190612d5b565b929350935050600290818114600014612e9457505091612e4c8a612180938d8f96601c612e5298601a5495835252200154906139ec565b889193509d939d14612eac575b5050612e5290613688565b9b612e4c8a612ed193612e52959f8f908f91601c90601b5495835252200154906139ec565b9a908c612ea1565b93505090925081813d8311612f07575b612ef3818361371b565b810103126106625789918c8c925138612e20565b503d612ee9565b90508b81813d8311612f34575b612f25818361371b565b81010312610662575138612df3565b503d612f1b565b9093508781813d8311612f63575b612f53818361371b565b8101031261227b57519238612d50565b503d612f49565b8390346106625760203660031901126106625761075590612f9660018060a01b03600354163314614488565b35614a6f565b919050346106e757806003193601126106e757612fb7613514565b9060243592612fd160018060a01b03809254163314613697565b83151580612ff7575b612fe2578480f35b610fe6921684528060205283209182546139ec565b5080831685528160205283828620541015612fda565b5050346106625781600319360112610662576130386000805160206152bc83398151915233146135c2565b818080804780156130498115615289565b6006546001600160a01b0316908390613071575bf115613067575080f35b51903d90823e3d90fd5b506108fc61305d565b5050346106625760203660031901126106625760209181906001600160a01b036130a2613514565b1681526017845220549051908152f35b5050346106625760203660031901126106625760209181906001600160a01b036130da613514565b1681526032845220549051908152f35b505034610662578160031936011261066257602090516000805160206152bc8339815191528152f35b919050346106e757602080600319360112610a5a57613130613514565b6131496000805160206152bc83398151915233146135c2565b6001600160a01b031661315d81151561362b565b808552601682528285205493841561319a57509160188592611a7995948452601681528383812055601781528383812055528120556015546139ec565b835162461bcd60e51b815290810183905260036024820152620216c760ec1b6044820152606490fd5b8383346106625780600319360112610662576131dd613514565b906131e661356a565b916132006000805160206152bc83398151915233146135c2565b6001600160a01b0316808452602e60209081528285205491929160ff168015158061332f575b6132ab575b5060ff841692831515806132a0575b613242578580f35b838652602d8252828620818752825261326a8387209560ff199660018882541617905561365f565b6008811015610f5857602e939495969750601d016132888154613688565b90558652528320918254161790558082808080808580f35b50600884111561323a565b808652602d8252828620848752825260ff83872054161561322b57808652602d82528286208487528252828620805460ff191690556132e99061365f565b600881101561331c57601d0180548015613309576000190190558661322b565b634e487b7160e01b875260118852602487fd5b634e487b7160e01b865260328752602486fd5b506008811115613226565b8383346106625761334a36613540565b6003549293926001600160a01b03906133669082163314614488565b868210946133738661518b565b169384865260586020528386208287526020528386206133948482546139df565b9055156125515790817f5af417134f72a9d41143ace85b0a26dce6f550f894f2cbc1eeee8810603d91b693926010016133ce8382546139df565b905582519182526020820152a280f35b5050346106625781600319360112610662576020905173570a5d26f7765ecb712c0924e4de545b89fd43df8152f35b5050346106625781600319360112610662576020906039549051908152f35b919050346106e757806003193601126106e75761344b906118e9613514565b16918285526043602052818520931692836001600160601b0360a01b82541617905582613476578380f35b61348892845260466020528320613953565b503880808380f35b8334610840576020366003190112610840576107556134ad613514565b6109726000805160206152bc83398151915233146135c2565b5050346106625781600319360112610662576020905160328152f35b839034610662576020366003190112610662576107559061350e60018060a01b03600354163314614488565b35614c90565b600435906001600160a01b038216820361116857565b602435906001600160a01b038216820361116857565b6060906003190112611168576004356001600160a01b038116810361116857906024359060443590565b6024359060ff8216820361116857565b6001600160a01b0316600090815260436020526040902090565b80548210156135ac5760005260206000200190600090565b634e487b7160e01b600052603260045260246000fd5b156135c957565b60405162461bcd60e51b815260206004820152600660248201526510b7bbb732b960d11b6044820152606490fd5b156135fe57565b60405162461bcd60e51b8152602060048201526005602482015264042c2eae8d60db1b6044820152606490fd5b1561363257565b60405162461bcd60e51b815260206004820152600560248201526410b0b2323960d91b6044820152606490fd5b60ff6000199116019060ff821161367257565b634e487b7160e01b600052601160045260246000fd5b60001981146136725760010190565b1561369e57565b60405162461bcd60e51b8152602060048201526007602482015266216d696e696e6760c81b6044820152606490fd5b60c0810190811067ffffffffffffffff8211176136e957604052565b634e487b7160e01b600052604160045260246000fd5b6040810190811067ffffffffffffffff8211176136e957604052565b90601f8019910116810190811067ffffffffffffffff8211176136e957604052565b600854604080516370a0823160e01b81526001600160a01b038481166004808401829052909593946020949360249390911685828581845afa91821561394857600092613919575b50811561390f57600094855b8381106138205750505050821515806137eb575b6137b2575b505050505050565b808310156137d857505090603f91605401549360005252600020553880808080806137aa565b603290634e487b7160e01b600052526000fd5b5085600052603f845284600020548184101561380c578360540154116137a5565b50603290634e487b7160e01b600052526000fd5b8851632f745c5960e01b81526001600160a01b038316868201908152602081018390528990829081906040010381875afa9081156138d7576000916138e2575b5089519063fcf49adf60e01b82528682015288818881875afa9081156138d7576000916138aa575b508781116138a0575b5061389b90613688565b613791565b965061389b613891565b908982813d83116138d0575b6138c0818361371b565b8101031261084057505138613888565b503d6138b6565b8a513d6000823e3d90fd5b908982813d8311613908575b6138f8818361371b565b8101031261084057505138613860565b503d6138ee565b5050505050505050565b90918682813d8311613941575b613930818361371b565b810103126108405750519038613785565b503d613926565b87513d6000823e3d90fd5b919060018301600090828252806020526040822054156000146139d957845494680100000000000000008610156139c557836139b561399c886001604098999a01855584613594565b819391549060031b600019811b9283911b169119161790565b9055549382526020522055600190565b634e487b7160e01b83526041600452602483fd5b50925050565b9190820180921161367257565b9190820391821161367257565b90600182019060009281845282602052604084205490811515600014613ae25760001991808301818111613ace57825490848201918211613aba57808203613a85575b50505080548015613a7157820191613a548383613594565b909182549160031b1b191690555582526020526040812055600190565b634e487b7160e01b86526031600452602486fd5b613aa5613a9561399c9386613594565b90549060031b1c92839286613594565b90558652846020526040862055388080613a3c565b634e487b7160e01b88526011600452602488fd5b634e487b7160e01b87526011600452602487fd5b5050505090565b8181029291811591840414171561367257565b8115613b06570490565b634e487b7160e01b600052601260045260246000fd5b90918215613eaa576001600160a01b0382811660008181526043602052604090205490911692908315613ea357603285029485046032036136725760648504601e606487040204601e146064860415171561367257613b7a84614255565b80613e83575b613e3e575b600093919352604360205260018060a01b036040600020541660405160ff604f548181168352818160081c166020840152818160101c166040840152818160181c166060840152818160201c16608084015260281c1660a0820152613be9816136cd565b6000906001935b600660ff861611613e30576001600160a01b03841615613df9576001600160a01b0384166000908152603e6020526040812054979096875b6001600160a01b038716600090815260466020526040902054811015613c9457613c56816040600020613594565b60018060a01b0391549060031b1c16600052603e602052604060002054898111613c8a575b50613c8590613688565b613c28565b9850613c85613c7b565b5093979296909594919281811115613ded57613cb891613cb3916139ec565b614408565b60ff81168015159081613ddf575b50613d02575b506001600160a01b03908116600090815260436020526040902054169260ff908116908114613672576001019395919490613bf0565b60ff613d1c81613d1581949b959b61365f565b1689613eaf565b5116911680821115613dd05760ff8183031161367257613d4b60ff60649284035b1682601e818d040204613ae9565b0480151580613dae575b613d62575b509538613ccc565b60018060a01b038816600052603d6020526040600020613d838282546139ec565b905560018060a01b0388166000526040602052613da660406000209182546139df565b905538613d5a565b506001600160a01b0388166000908152603d6020526040902054811115613d55565b506064613d4b60ff6000613d3d565b905060ff8616101538613cc6565b5050613cb86000614408565b9593505050509290925b600f60648304029160648082048404600f14910415171561367257613e2e9260646001930491613ed2565b565b959350505050929092613e03565b83600052603d60205260406000206064601e818804020490613e618282546139ec565b9055846000526040602052613e7c60406000209182546139df565b9055613b85565b5083600052603d6020526064601e81870402046040600020541015613b80565b5050915050565b915050565b9060068110156135ac5760051b0190565b60ff60019116019060ff821161367257565b91909260ff811693600f851180159081614244575b6137aa57613f9982613fa692613e2e986001613f18613fac9760018060a01b03166000526041602052604060002090565b54101580614239575b8061422a575b80614207575b15613fb25750506001600160a01b0381166000908152603d602052604090205b613f588782546139ec565b90556001600160a01b0381166000908152604060208190529020613f7d8782546139df565b90556001600160a01b0316600090815260436020526040902090565b546001600160a01b031690565b91613ec0565b92613ed2565b6001600160a01b0383166000908152604160205260409020600290541015806141fc575b806141ed575b806141ca575b1561400c5750506001600160a01b0381166000908152603d60205260409020613f588782546139ec565b6001600160a01b0383166000908152604160205260409020600390541015806141bf575b806141b0575b8061418d575b156140605750506001600160a01b0381166000908152603d60205260409020613f4d565b6001600160a01b03831660009081526041602052604090206004905410159081614181575b5080614172575b8061414f575b156140bb57506001600160a01b0381166000908152603d60205260409020613f588782546139ec565b6001600160a01b03821660009081526041602052604090206005905410159081614147575b5080614138575b80614115575b1561357a576001600160a01b0381166000908152603d60205260409020613f588782546139ec565b506001600160a01b0381166000908152603d6020526040902086905410156140ed565b5061414281614255565b6140e7565b9050386140e0565b506001600160a01b0382166000908152603d602052604090208790541015614092565b5061417c82614255565b61408c565b600c9150111538614085565b506001600160a01b0383166000908152603d60205260409020889054101561403c565b506141ba83614255565b614036565b506009811115614030565b506001600160a01b0383166000908152603d602052604090208890541015613fe2565b506141f783614255565b613fdc565b506006811115613fd6565b506001600160a01b0383166000908152603d602052604090208890541015613f2d565b5061423483614255565b613f27565b506003811115613f21565b506001600160a01b03821615613ee7565b600854604080516370a0823160e01b81526001600160a01b03848116600480840182905295946024949360209390911683828781845afa9182156143fd576000926143ce575b5081156143c157600096875b8381106142d2575050505090603f91600052526000205492808310156137d857505060540154111590565b8651632f745c5960e01b81526001600160a01b038316818c01908152602081018390528790829081906040010381875afa90811561438957600091614394575b5087519063fcf49adf60e01b82528b82015286818a81875afa9081156143895760009161435c575b50898111614352575b5061434d90613688565b6142a7565b985061434d614343565b908782813d8311614382575b614372818361371b565b810103126108405750513861433a565b503d614368565b88513d6000823e3d90fd5b908782813d83116143ba575b6143aa818361371b565b8101031261084057505138614312565b503d6143a0565b5050505050505050600090565b90918482813d83116143f6575b6143e5818361371b565b81010312610840575051903861429b565b503d6143db565b85513d6000823e3d90fd5b6040519060496000835b6006821061447257505050614426826136cd565b60065b60ff60018183161061446957614449906144428361365f565b1684613eaf565b518210156144635760ff1680156136725760001901614429565b91505090565b50505050600090565b6001602081928554815201930191019091614412565b1561448f57565b60405162461bcd60e51b81526020600482015260036024820152620216f760ec1b6044820152606490fd5b80158080156144fc575b6144f85764e8d4a51000808302928304141715613672576144eb6144f39160155490613afc565b6014546139df565b601455565b5050565b50601554156144c4565b6001600160a01b031660008181526016602052604080822054156145a1576014549164e8d4a5100093614553856145408585205487613ae9565b04828452601760205284842054906139ec565b948561456157505050505050565b61457a6145949583855260166020528585205490613ae9565b0490825260176020528282205581602052209182546139df565b90553880808080806137aa565b505050565b156145ad57565b60405162461bcd60e51b815260206004820152600560248201526406e6f204c560dc1b6044820152606490fd5b6001600160a01b03166000818152601660205260408120549091906146009015156145a6565b81526016602052806040812055601760205280604081205560186020526040812055565b1561462b57565b606460405162461bcd60e51b815260206004820152600460248201526308585b5d60e21b6044820152fd5b6001600160a01b031660009081526018602052604081205490919080156146d157624f1a0061468582426139ec565b106146d15761469862ed4e0091426139ec565b106146a1575090565b90600a820291808304600a14901517156146bd57506064900490565b634e487b7160e01b81526011600452602490fd5b50906014820291808304601414901517156146bd57506064900490565b156146f557565b60405162461bcd60e51b8152602060048201526002602482015261189b60f21b6044820152606490fd5b8015614a6c576008546040805163b629640b60e01b81529092916004916020916001600160a01b03169082818581855afa908115614a6157600091614a34575b50855163027ddd4160e31b815283818681865afa90811561394857600091614a05575b5061478c91613ae9565b94805163193491b560e01b815283818681865afa9081156149fa576000916149cd575b5081516353d7944760e01b815284818781875afa9081156149935760009161499e575b506147dc91613ae9565b9281519263d15dfe2d60e01b845281848781845afa938415614993579086929160009561495d575b508190845193848092631cf368f960e21b82525afa9283156149535750600092614922575b505061483491613ae9565b93806148d8575b508061488e575b508261484d57505050565b64e8d4a510008083029283040361487957506148749161486c91613afc565b601b546139df565b601b55565b601190634e487b7160e01b6000525260246000fd5b64e8d4a51000830264e8d4a50fff19848204016148c3576148ba916148b291613afc565b601a546139df565b601a5538614842565b601183634e487b7160e01b6000525260246000fd5b64e8d4a51000840264e8d4a50fff198582040161490d57614904916148fc91613afc565b6019546139df565b6019553861483b565b601184634e487b7160e01b6000525260246000fd5b81819392933d831161494c575b614939818361371b565b8101031261084057505161483438614829565b503d61492f565b513d6000823e3d90fd5b9180935082819692963d831161498c575b614978818361371b565b810103126108405750519285919081614804565b503d61496e565b83513d6000823e3d90fd5b908582813d83116149c6575b6149b4818361371b565b810103126108405750516147dc6147d2565b503d6149aa565b908482813d83116149f3575b6149e3818361371b565b81010312610840575051386147af565b503d6149d9565b82513d6000823e3d90fd5b908482813d8311614a2d575b614a1b818361371b565b8101031261084057505161478c614782565b503d614a11565b908382813d8311614a5a575b614a4a818361371b565b810103126108405750513861475f565b503d614a40565b86513d6000823e3d90fd5b50565b8015614a6c5764e8d4a510008082029182040361367257614a92906030546139df565b603055565b6001600160a01b03166000818152602e602052604081205460ff169182158015614b4f575b6145a157614ac98361365f565b6008811015614b3b5760250154818352602f6020526040832054614aec916139ec565b9283614af9575b50505050565b614b029061365f565b6008811015614b3b5791604091614b309360250154908252602f6020528282205581602052209182546139df565b905538808080614af3565b634e487b7160e01b83526032600452602483fd5b50614b598361365f565b6008811015614b3b57601d015415614abc565b60ff82169182156145a157614bd19160018060a01b0316926001600094808652602090602e825260409160ff8389205416614c01575b602e81528288209460ff199581878254161790558852602d81528288209188525285209182541617905561365f565b906008821015614bed5750601d01614be98154613688565b9055565b634e487b7160e01b81526032600452602490fd5b8288205460ff168852602d81528288208289528152828820805460ff19169055614ba2565b6001600160a01b03166000818152602e60205260408120549092919060ff1680156144f857614c549061365f565b6008811015614c7c57614c79929360409160250154928152602f6020522054906139ec565b90565b634e487b7160e01b84526032600452602484fd5b8015614a6c57600181811c816000925b614e0b575b546001600160a01b031692614cba92506139ec565b604051906020928383019163a9059cbb60e01b835273803b79b608455808c2f752c588804c3f5bf676a36024850152604484015260448352608083019183831067ffffffffffffffff8411176136e95760008091614d7b9585604052614d1f866136ff565b8786527f5361666545524332303a206c6f772d6c6576656c2063616c6c206661696c656460a0820152519082855af13d15614e03573d91614d5f83614fe3565b92614d6d604051948561371b565b83523d60008785013e6150fc565b805190828215928315614deb575b50505015614d945750565b6084906040519062461bcd60e51b82526004820152602a60248201527f5361666545524332303a204552433230206f7065726174696f6e20646964206e6044820152691bdd081cdd58d8d9595960b21b6064820152fd5b614dfb9350820181019101614fff565b388281614d89565b6060916150fc565b60049283811015614e7a5781929381601001549081614e37575b5050614e3090613688565b9291614ca0565b9091925064e8d4a5100090818602918683041486151715614879575091614e62614e30928594613afc565b614e7182600c019182546139df565b90559038614e25565b50614ca5565b60405163a9059cbb60e01b60208083019182526001600160a01b039390931660248301526044808301949094529281529091614d7b91906000908190614ec760648561371b565b60405193614ed4856136ff565b8685527f5361666545524332303a206c6f772d6c6576656c2063616c6c206661696c65648786015251908273570a5d26f7765ecb712c0924e4de545b89fd43df5af13d15614f43573d90614f2782614fe3565b91614f35604051938461371b565b82523d60008684013e615017565b606090615017565b60405163a9059cbb60e01b60208083019182526001600160a01b039490941660248301526044808301959095529381529192614d7b92916000908190614f9260648661371b565b60018060a01b03169260405194614fa8866136ff565b8786527f5361666545524332303a206c6f772d6c6576656c2063616c6c206661696c656488870152519082855af13d15614e03573d91614d5f835b67ffffffffffffffff81116136e957601f01601f191660200190565b90816020910312611168575180151581036111685790565b9091901561508d575080511561502a5790565b73570a5d26f7765ecb712c0924e4de545b89fd43df3b156150485790565b60405162461bcd60e51b815260206004820152601d60248201527f416464726573733a2063616c6c20746f206e6f6e2d636f6e74726163740000006044820152606490fd5b81511561509d5750805190602001fd5b6040519062461bcd60e51b82528160208060048301528251908160248401526000935b8285106150e3575050604492506000838284010152601f80199101168101030190fd5b84810182015186860160440152938101938593506150c0565b919290156151195750815115615110575090565b3b156150485790565b82519091501561512c5750805190602001fd5b6040519062461bcd60e51b82528160208060048301528251908160248401526000935b828510615172575050604492506000838284010152601f80199101168101030190fd5b848101820151868601604401529381019385935061514f565b1561519257565b60405162461bcd60e51b8152602060048201526002602482015261216960f01b6044820152606490fd5b6001600160a01b03166000818152605860209081526040808320858452825280832054939594939092916004851015614b3b5784959661522895600c015495869361520e64e8d4a51000988992613ae9565b0482865260598452868620898752845286862054906139ec565b9687615238575050505050505050565b61527a96615259879584885260588652868820848952865286882054613ae9565b049082865260598452848620908652835283852055835252209182546139df565b9055388080808080808061390f565b1561529057565b606460405162461bcd60e51b81526020600482015260046024820152630858985b60e21b6044820152fdfe000000000000000000000000274acc6397349f21179ed6258a54b2a11b28faf5a2646970667358221220be291b27f50b16c82250ae8ae7713606781676b417b23925b48bdc7976ea93da64736f6c63430008110033","opcodes":"PUSH1 0x40 PUSH1 0x80 DUP2 MSTORE CALLVALUE PUSH3 0x25D JUMPI PUSH1 0x1 PUSH1 0x0 DUP2 DUP2 SSTORE PUSH6 0x2D79883D2000 PUSH1 0x9 SSTORE PUSH3 0x26 PUSH3 0x262 JUMP JUMPDEST SWAP1 PUSH1 0x1E DUP3 MSTORE PUSH1 0x20 PUSH1 0x5A DUP2 DUP5 ADD MSTORE PUSH1 0xB4 DUP6 DUP5 ADD MSTORE PUSH2 0x168 PUSH1 0x60 DUP5 ADD MSTORE PUSH1 0xB SLOAD SWAP3 PUSH1 0x4 SWAP4 DUP5 PUSH1 0xB SSTORE DUP1 DUP6 LT PUSH3 0x232 JUMPI JUMPDEST POP PUSH1 0xB DUP4 MSTORE DUP2 DUP4 KECCAK256 SWAP1 DUP6 DUP5 JUMPDEST DUP7 DUP2 LT PUSH3 0x21B JUMPI POP POP POP POP PUSH2 0x1F40 PUSH1 0x39 SSTORE PUSH1 0x3 DUP1 PUSH1 0x48 SSTORE PUSH3 0x83 PUSH3 0x298 JUMP JUMPDEST PUSH1 0x64 DUP2 MSTORE PUSH1 0xC8 DUP4 DUP3 ADD MSTORE PUSH2 0x258 DUP8 DUP3 ADD MSTORE PUSH2 0x7D0 PUSH1 0x60 DUP3 ADD MSTORE PUSH2 0x1770 PUSH1 0x80 DUP3 ADD MSTORE PUSH2 0x4E20 PUSH1 0xA0 DUP3 ADD MSTORE DUP6 DUP5 JUMPDEST PUSH1 0x6 DUP2 LT PUSH3 0x203 JUMPI POP POP POP PUSH3 0xC5 PUSH3 0x298 JUMP JUMPDEST PUSH1 0x5 DUP2 MSTORE PUSH1 0xA DUP4 DUP3 ADD MSTORE PUSH1 0xF DUP8 DUP3 ADD MSTORE PUSH1 0x14 PUSH1 0x60 DUP3 ADD MSTORE PUSH1 0x19 PUSH1 0x80 DUP3 ADD MSTORE PUSH1 0x1E PUSH1 0xA0 DUP3 ADD MSTORE DUP4 SWAP2 DUP5 JUMPDEST DUP8 DUP6 PUSH1 0x6 DUP4 LT PUSH3 0x1DA JUMPI POP POP POP POP POP PUSH1 0x4F SSTORE PUSH3 0x10B PUSH3 0x262 JUMP JUMPDEST DUP3 DUP2 MSTORE PUSH9 0x1B1AE4D6E2EF500000 DUP3 DUP3 ADD MSTORE PUSH9 0x5150AE84A8CDF00000 DUP7 DUP3 ADD MSTORE PUSH10 0x10F0CF064DD59200000 PUSH1 0x60 DUP3 ADD MSTORE DUP5 DUP4 JUMPDEST DUP6 DUP2 LT PUSH3 0x1BD JUMPI POP POP POP PUSH3 0x152 PUSH3 0x262 JUMP JUMPDEST DUP3 DUP2 MSTORE PUSH1 0x5 DUP3 DUP3 ADD MSTORE PUSH1 0xA DUP7 DUP3 ADD MSTORE PUSH1 0x14 PUSH1 0x60 DUP3 ADD MSTORE SWAP2 JUMPDEST DUP4 DUP2 LT PUSH3 0x1A7 JUMPI PUSH1 0x6 DUP1 SLOAD PUSH1 0x1 PUSH1 0x1 PUSH1 0xA0 SHL SUB NOT AND PUSH20 0x274ACC6397349F21179ED6258A54B2A11B28FAF5 OR SWAP1 SSTORE DUP6 MLOAD PUSH2 0x5311 SWAP1 DUP2 PUSH3 0x2B9 DUP3 CODECOPY RETURN JUMPDEST DUP3 MLOAD PUSH1 0xFF AND PUSH1 0x54 DUP3 ADD SSTORE SWAP2 DUP2 ADD SWAP2 DUP5 ADD PUSH3 0x16A JUMP JUMPDEST DUP3 MLOAD PUSH1 0x1 PUSH1 0x1 PUSH1 0x50 SHL SUB AND PUSH1 0x50 DUP3 ADD SSTORE SWAP2 DUP4 ADD SWAP2 DUP7 SWAP2 ADD PUSH3 0x13D JUMP JUMPDEST SWAP1 SWAP2 SWAP3 SWAP4 SWAP5 PUSH1 0xFF SWAP1 DUP2 DUP8 MLOAD AND SWAP2 DUP6 DUP8 SHL SWAP1 DUP2 SHL SWAP3 DUP4 SWAP2 SHL AND SWAP2 NOT AND OR SWAP5 ADD SWAP2 ADD SWAP2 SWAP1 SWAP2 PUSH3 0xEE JUMP JUMPDEST DUP5 PUSH2 0xFFFF DUP5 MLOAD AND SWAP4 ADD SWAP3 DUP2 PUSH1 0x49 ADD SSTORE ADD DUP7 SWAP1 PUSH3 0xAF JUMP JUMPDEST DUP5 PUSH2 0xFFFF DUP5 MLOAD AND SWAP4 ADD SWAP3 DUP2 DUP6 ADD SSTORE ADD DUP7 SWAP1 PUSH3 0x61 JUMP JUMPDEST PUSH1 0xB DUP5 MSTORE DUP6 DUP6 DUP5 DUP7 KECCAK256 SWAP3 DUP4 ADD SWAP3 ADD JUMPDEST DUP3 DUP2 LT PUSH3 0x251 JUMPI POP POP PUSH3 0x55 JUMP JUMPDEST DUP6 DUP2 SSTORE ADD DUP7 SWAP1 PUSH3 0x241 JUMP JUMPDEST PUSH1 0x0 DUP1 REVERT JUMPDEST PUSH1 0x40 MLOAD SWAP1 PUSH1 0x80 DUP3 ADD PUSH1 0x1 PUSH1 0x1 PUSH1 0x40 SHL SUB DUP2 GT DUP4 DUP3 LT OR PUSH3 0x282 JUMPI PUSH1 0x40 MSTORE JUMP JUMPDEST PUSH4 0x4E487B71 PUSH1 0xE0 SHL PUSH1 0x0 MSTORE PUSH1 0x41 PUSH1 0x4 MSTORE PUSH1 0x24 PUSH1 0x0 REVERT JUMPDEST PUSH1 0x40 MLOAD SWAP1 PUSH1 0xC0 DUP3 ADD PUSH1 0x1 PUSH1 0x1 PUSH1 0x40 SHL SUB DUP2 GT DUP4 DUP3 LT OR PUSH3 0x282 JUMPI PUSH1 0x40 MSTORE JUMP INVALID PUSH1 0x40 PUSH1 0x80 DUP2 MSTORE PUSH1 0x4 SWAP1 DUP2 CALLDATASIZE LT ISZERO PUSH2 0x20 JUMPI JUMPDEST POP POP CALLDATASIZE ISZERO PUSH2 0x1E JUMPI PUSH1 0x0 DUP1 REVERT JUMPDEST STOP JUMPDEST PUSH1 0x0 SWAP2 DUP3 CALLDATALOAD PUSH1 0xE0 SHR SWAP1 DUP2 PUSH3 0x2E6DF8 EQ PUSH2 0x34E2 JUMPI DUP2 PUSH4 0x1990EEE EQ PUSH2 0x34C6 JUMPI DUP2 PUSH4 0x1A74937 EQ PUSH2 0x3490 JUMPI DUP2 PUSH4 0x354ADB2 EQ PUSH2 0x342C JUMPI DUP2 PUSH4 0x691CC6A EQ PUSH2 0x340D JUMPI DUP2 PUSH4 0x6E46610 EQ PUSH2 0x33DE JUMPI DUP2 PUSH4 0xC51B88F EQ PUSH2 0x333A JUMPI DUP2 PUSH4 0xC6727FA EQ PUSH2 0xB5E JUMPI DUP2 PUSH4 0xD88D8B8 EQ PUSH2 0x31C3 JUMPI DUP2 PUSH4 0xDB576A4 EQ PUSH2 0x3113 JUMPI DUP2 PUSH4 0x117803E3 EQ PUSH2 0x30EA JUMPI DUP2 PUSH4 0x1346B315 EQ PUSH2 0x30B2 JUMPI DUP2 PUSH4 0x1956C092 EQ PUSH2 0x307A JUMPI DUP2 PUSH4 0x1D111D13 EQ PUSH2 0x300D JUMPI DUP2 PUSH4 0x20C36CA1 EQ PUSH2 0x2F9C JUMPI DUP2 PUSH4 0x226D5872 EQ PUSH2 0x2789 JUMPI DUP2 PUSH4 0x230FB41E EQ PUSH2 0x2F6A JUMPI DUP2 PUSH4 0x24D83D03 EQ PUSH2 0x2CE6 JUMPI DUP2 PUSH4 0x259256B3 EQ PUSH2 0x2C1E JUMPI DUP2 PUSH4 0x275AFA82 EQ PUSH2 0x2B9C JUMPI DUP2 PUSH4 0x280E31CC EQ PUSH2 0x2B60 JUMPI DUP2 PUSH4 0x2AA36E9D EQ PUSH2 0x2AB3 JUMPI DUP2 PUSH4 0x2E2678D4 EQ PUSH2 0x2A87 JUMPI DUP2 PUSH4 0x2E30E85B EQ PUSH2 0x2A68 JUMPI DUP2 PUSH4 0x2FF2E9DC EQ PUSH2 0x2A40 JUMPI DUP2 PUSH4 0x316EAB51 EQ PUSH2 0x2A14 JUMPI DUP2 PUSH4 0x31AEDF9B EQ PUSH2 0x29E7 JUMPI DUP2 PUSH4 0x321776A8 EQ PUSH2 0x2995 JUMPI DUP2 PUSH4 0x327CF9BE EQ PUSH2 0x2974 JUMPI DUP2 PUSH4 0x32FE7B26 EQ PUSH2 0x2945 JUMPI DUP2 PUSH4 0x363BF964 EQ PUSH2 0x2866 JUMPI DUP2 PUSH4 0x37CBE1B2 EQ PUSH2 0x2847 JUMPI DUP2 PUSH4 0x3DE47A93 EQ PUSH2 0x2828 JUMPI DUP2 PUSH4 0x3E4C7B02 EQ PUSH2 0x1811 JUMPI DUP2 PUSH4 0x3FFCCA1B EQ PUSH2 0x27C1 JUMPI DUP2 PUSH4 0x43962B06 EQ PUSH2 0x2789 JUMPI DUP2 PUSH4 0x452ED4F1 EQ PUSH2 0x2760 JUMPI DUP2 PUSH4 0x46904840 EQ PUSH2 0x2737 JUMPI DUP2 PUSH4 0x4A63E222 EQ PUSH2 0x271B JUMPI DUP2 PUSH4 0x4BF71FFD EQ PUSH2 0x26F4 JUMPI DUP2 PUSH4 0x4E0BE991 EQ PUSH2 0x26C1 JUMPI DUP4 DUP3 PUSH4 0x50DC9BAA EQ PUSH2 0x2682 JUMPI POP DUP2 PUSH4 0x50F5B30B EQ PUSH2 0x264A JUMPI DUP2 PUSH4 0x53F1DAA1 EQ PUSH2 0x25F4 JUMPI DUP2 PUSH4 0x5733101B EQ PUSH2 0x2484 JUMPI DUP2 PUSH4 0x57C8E9F3 EQ PUSH2 0x244C JUMPI DUP2 PUSH4 0x589A36C2 EQ PUSH2 0x23E9 JUMPI DUP2 PUSH4 0x59AF312B EQ PUSH2 0x23AD JUMPI DUP2 PUSH4 0x5A4A6C8D EQ PUSH2 0x2381 JUMPI DUP2 PUSH4 0x5DCBB65A EQ PUSH2 0x2333 JUMPI DUP2 PUSH4 0x65DF2E51 EQ PUSH2 0x2304 JUMPI DUP2 PUSH4 0x6C7BB9A9 EQ PUSH2 0x22C8 JUMPI DUP2 PUSH4 0x6C8857C1 EQ PUSH2 0x1522 JUMPI DUP2 PUSH4 0x6E8E8AF5 EQ PUSH2 0x2290 JUMPI DUP2 PUSH4 0x6EBC51E1 EQ PUSH2 0x202B JUMPI DUP2 PUSH4 0x6F3CA9FF EQ PUSH2 0x200F JUMPI DUP2 PUSH4 0x702F5321 EQ PUSH2 0x1FBD JUMPI DUP2 PUSH4 0x72288A97 EQ PUSH2 0x1F52 JUMPI DUP2 PUSH4 0x7243E746 EQ PUSH2 0x1F25 JUMPI DUP2 PUSH4 0x74EA7383 EQ PUSH2 0x1ED7 JUMPI DUP2 PUSH4 0x7935ECA1 EQ PUSH2 0x1E96 JUMPI DUP2 PUSH4 0x7A89E269 EQ PUSH2 0x1DEE JUMPI DUP2 PUSH4 0x7C1A6B0D EQ PUSH2 0x1DC5 JUMPI DUP2 PUSH4 0x7C3FCC38 EQ PUSH2 0x1D8A JUMPI DUP2 PUSH4 0x7F45DB64 EQ PUSH2 0x1D6E JUMPI DUP2 PUSH4 0x8152CB16 EQ PUSH2 0x1CF8 JUMPI DUP2 PUSH4 0x82731247 EQ PUSH2 0x1CBA JUMPI DUP2 PUSH4 0x827A7C14 EQ PUSH2 0x1BF7 JUMPI DUP2 PUSH4 0x834CC1EA EQ PUSH2 0x1AC2 JUMPI DUP2 PUSH4 0x83FB0651 EQ PUSH2 0x15E7 JUMPI DUP2 PUSH4 0x85860799 EQ PUSH2 0x1A8A JUMPI DUP2 PUSH4 0x8652D31C EQ PUSH2 0x1A13 JUMPI DUP2 PUSH4 0x865EEF32 EQ PUSH2 0x19CD JUMPI DUP2 PUSH4 0x88F72E3D EQ PUSH2 0x1988 JUMPI DUP2 PUSH4 0x89CC1A17 EQ PUSH2 0x195C JUMPI DUP2 PUSH4 0x8B298B5A EQ PUSH2 0x1920 JUMPI DUP2 PUSH4 0x8BD0BA67 EQ PUSH2 0x18C8 JUMPI DUP2 PUSH4 0x8C650B1B EQ PUSH2 0x18A9 JUMPI DUP2 PUSH4 0x8F62B56E EQ PUSH2 0x1871 JUMPI DUP2 PUSH4 0x8FC0F5EB EQ PUSH2 0x1871 JUMPI DUP2 PUSH4 0x91564697 EQ PUSH2 0x1849 JUMPI DUP2 PUSH4 0x9658C1E0 EQ PUSH2 0xA5E JUMPI DUP2 PUSH4 0x99215930 EQ PUSH2 0x1811 JUMPI DUP2 PUSH4 0x99F4B251 EQ PUSH2 0x1657 JUMPI DUP2 PUSH4 0x9A9EEEFB EQ PUSH2 0x161F JUMPI DUP2 PUSH4 0x9AB362EA EQ PUSH2 0x15E7 JUMPI DUP2 PUSH4 0x9BD769AA EQ PUSH2 0x15AF JUMPI DUP2 PUSH4 0x9D4C8EED EQ PUSH2 0x1577 JUMPI DUP2 PUSH4 0x9F77FB59 EQ PUSH2 0x155A JUMPI DUP2 PUSH4 0xA11D5942 EQ PUSH2 0x1522 JUMPI DUP2 PUSH4 0xA1B61A60 EQ PUSH2 0x14F6 JUMPI DUP2 PUSH4 0xA22CA2A6 EQ PUSH2 0x14D7 JUMPI DUP2 PUSH4 0xA28EE081 EQ PUSH2 0x14B8 JUMPI DUP2 PUSH4 0xA35F942A EQ PUSH2 0x13FB JUMPI DUP4 DUP3 PUSH4 0xA577E040 EQ PUSH2 0x138C JUMPI POP DUP2 PUSH4 0xA5F98B62 EQ PUSH2 0x1370 JUMPI DUP2 PUSH4 0xA7F7879B EQ PUSH2 0x1344 JUMPI DUP2 PUSH4 0xA862B852 EQ PUSH2 0x124B JUMPI DUP2 PUSH4 0xAB4EF895 EQ PUSH2 0x122E JUMPI DUP2 PUSH4 0xAD82659C EQ PUSH2 0x1205 JUMPI DUP2 PUSH4 0xB01BA306 EQ PUSH2 0x11C4 JUMPI DUP2 PUSH4 0xB1D78E0E EQ PUSH2 0x118C JUMPI DUP2 PUSH4 0xB813C627 EQ PUSH2 0x116D JUMPI DUP2 PUSH4 0xB82AE4E6 EQ PUSH2 0x10A3 JUMPI DUP2 PUSH4 0xBA9194C4 EQ PUSH2 0x106B JUMPI DUP2 PUSH4 0xBE75F46B EQ PUSH2 0xFF0 JUMPI DUP2 PUSH4 0xC1226893 EQ PUSH2 0xF6B JUMPI DUP2 PUSH4 0xC2A672E0 EQ PUSH2 0xE80 JUMPI DUP2 PUSH4 0xC3E98E61 EQ PUSH2 0xE41 JUMPI DUP4 DUP3 PUSH4 0xC579535A EQ PUSH2 0xDB9 JUMPI POP DUP2 PUSH4 0xC5D3293E EQ PUSH2 0xD8D JUMPI DUP2 PUSH4 0xC5D43FEE EQ PUSH2 0xD1D JUMPI DUP2 PUSH4 0xC6636189 EQ PUSH2 0xCDD JUMPI DUP2 PUSH4 0xC71A83F4 EQ PUSH2 0xCAA JUMPI DUP2 PUSH4 0xC8891784 EQ PUSH2 0xC8B JUMPI DUP2 PUSH4 0xC9F9B745 EQ PUSH2 0xC4A JUMPI DUP2 PUSH4 0xCAE9EAE9 EQ PUSH2 0xBDA JUMPI DUP2 PUSH4 0xCB658198 EQ PUSH2 0xBBE JUMPI DUP2 PUSH4 0xCB7956B0 EQ PUSH2 0xB95 JUMPI DUP2 PUSH4 0xCE86703A EQ PUSH2 0xB5E JUMPI DUP2 PUSH4 0xD296CC43 EQ PUSH2 0xB1D JUMPI DUP2 PUSH4 0xD3C6BC4B EQ PUSH2 0xAEB JUMPI DUP2 PUSH4 0xD6F4496A EQ PUSH2 0xA9A JUMPI DUP2 PUSH4 0xD76EBB7B EQ PUSH2 0xA5E JUMPI DUP2 PUSH4 0xD79D8946 EQ PUSH2 0xA13 JUMPI DUP2 PUSH4 0xD8A531A6 EQ PUSH2 0x9EA JUMPI DUP2 PUSH4 0xDB228A3B EQ PUSH2 0x9CE JUMPI DUP2 PUSH4 0xDF0BABC7 EQ PUSH2 0x996 JUMPI DUP2 PUSH4 0xE1D214FC EQ PUSH2 0x977 JUMPI DUP2 PUSH4 0xE55F27A8 EQ PUSH2 0x940 JUMPI DUP2 PUSH4 0xE62420D9 EQ PUSH2 0x8F4 JUMPI DUP2 PUSH4 0xE74B5B73 EQ PUSH2 0x8BD JUMPI DUP2 PUSH4 0xE74B981B EQ PUSH2 0x86C JUMPI DUP2 PUSH4 0xE7E043D5 EQ PUSH2 0x843 JUMPI DUP2 PUSH4 0xE8BBB75B EQ PUSH2 0x809 JUMPI DUP2 PUSH4 0xEA8B24CA EQ PUSH2 0x787 JUMPI DUP2 PUSH4 0xEBEBCF3D EQ PUSH2 0x758 JUMPI DUP2 PUSH4 0xF3FEF3A3 EQ PUSH2 0x6EB JUMPI DUP2 PUSH4 0xF54F83B2 EQ PUSH2 0x6BB JUMPI POP DUP1 PUSH4 0xF6F34359 EQ PUSH2 0x684 JUMPI DUP1 PUSH4 0xFA058D83 EQ PUSH2 0x666 JUMPI PUSH4 0xFC04771A SUB PUSH2 0x11 JUMPI CALLVALUE PUSH2 0x662 JUMPI DUP2 PUSH1 0x3 NOT CALLDATASIZE ADD SLT PUSH2 0x662 JUMPI PUSH1 0x20 SWAP1 MLOAD PUSH1 0xD DUP2 MSTORE RETURN JUMPDEST POP DUP1 REVERT JUMPDEST POP CALLVALUE PUSH2 0x662 JUMPI DUP2 PUSH1 0x3 NOT CALLDATASIZE ADD SLT PUSH2 0x662 JUMPI PUSH1 0x20 SWAP1 PUSH1 0x30 SLOAD SWAP1 MLOAD SWAP1 DUP2 MSTORE RETURN JUMPDEST POP CALLVALUE PUSH2 0x662 JUMPI PUSH1 0x20 CALLDATASIZE PUSH1 0x3 NOT ADD SLT PUSH2 0x662 JUMPI PUSH1 0x20 SWAP2 DUP2 SWAP1 PUSH1 0x1 PUSH1 0x1 PUSH1 0xA0 SHL SUB PUSH2 0x6AB PUSH2 0x3514 JUMP JUMPDEST AND DUP2 MSTORE PUSH1 0x35 DUP5 MSTORE KECCAK256 SLOAD SWAP1 MLOAD SWAP1 DUP2 MSTORE RETURN JUMPDEST SWAP1 POP CALLVALUE PUSH2 0x6E7 JUMPI PUSH1 0x20 CALLDATASIZE PUSH1 0x3 NOT ADD SLT PUSH2 0x6E7 JUMPI CALLDATALOAD PUSH1 0x6 DUP2 LT ISZERO PUSH2 0x6E7 JUMPI PUSH1 0x20 SWAP3 POP PUSH1 0x49 ADD SLOAD SWAP1 MLOAD SWAP1 DUP2 MSTORE RETURN JUMPDEST DUP3 DUP1 REVERT JUMPDEST POP POP CALLVALUE PUSH2 0x662 JUMPI DUP1 PUSH1 0x3 NOT CALLDATASIZE ADD SLT PUSH2 0x662 JUMPI PUSH2 0x755 SWAP1 PUSH2 0x709 PUSH2 0x3514 JUMP JUMPDEST PUSH1 0x24 CALLDATALOAD SWAP2 PUSH1 0x1 DUP1 PUSH1 0xA0 SHL SUB PUSH2 0x723 DUP2 PUSH1 0x3 SLOAD AND CALLER EQ PUSH2 0x4488 JUMP JUMPDEST DUP3 AND DUP1 DUP7 MSTORE DUP2 PUSH1 0x20 MSTORE PUSH2 0x73B DUP3 DUP8 KECCAK256 SLOAD DUP6 GT ISZERO PUSH2 0x5289 JUMP JUMPDEST DUP6 MSTORE DUP1 PUSH1 0x20 MSTORE DUP5 KECCAK256 PUSH2 0x74E DUP4 DUP3 SLOAD PUSH2 0x39EC JUMP JUMPDEST SWAP1 SSTORE PUSH2 0x4E80 JUMP JUMPDEST DUP1 RETURN JUMPDEST POP POP CALLVALUE PUSH2 0x662 JUMPI DUP2 PUSH1 0x3 NOT CALLDATASIZE ADD SLT PUSH2 0x662 JUMPI PUSH1 0x20 SWAP1 MLOAD PUSH20 0x803B79B608455808C2F752C588804C3F5BF676A3 DUP2 MSTORE RETURN JUMPDEST SWAP1 POP CALLVALUE PUSH2 0x6E7 JUMPI DUP2 PUSH1 0x3 NOT CALLDATASIZE ADD SLT PUSH2 0x6E7 JUMPI PUSH1 0x20 PUSH32 0x3EE8D2BA081CC1285C74565158C4311F33A0E81C7FBEF54F437AF73E64AC4D8E SWAP2 PUSH2 0x7C5 PUSH2 0x3514 JUMP JUMPDEST PUSH2 0x7DA PUSH1 0x1 DUP1 PUSH1 0xA0 SHL SUB DUP1 SWAP4 SLOAD AND CALLER EQ PUSH2 0x3697 JUMP JUMPDEST AND SWAP3 DUP4 DUP6 MSTORE PUSH1 0x3E DUP3 MSTORE DUP1 DUP6 KECCAK256 PUSH2 0x7F3 PUSH1 0x24 CALLDATALOAD DUP3 SLOAD PUSH2 0x39DF JUMP JUMPDEST SWAP1 SSTORE DUP4 DUP6 MSTORE PUSH1 0x3E DUP3 MSTORE DUP1 DUP6 KECCAK256 SLOAD SWAP1 MLOAD SWAP1 DUP2 MSTORE LOG2 DUP1 RETURN JUMPDEST DUP4 CALLVALUE PUSH2 0x840 JUMPI PUSH1 0x20 CALLDATASIZE PUSH1 0x3 NOT ADD SLT PUSH2 0x840 JUMPI PUSH2 0x755 PUSH2 0x826 PUSH2 0x3514 JUMP JUMPDEST PUSH2 0x83B PUSH1 0x1 DUP1 PUSH1 0xA0 SHL SUB PUSH1 0x3 SLOAD AND CALLER EQ PUSH2 0x4488 JUMP JUMPDEST PUSH2 0x4506 JUMP JUMPDEST DUP1 REVERT JUMPDEST POP POP CALLVALUE PUSH2 0x662 JUMPI DUP2 PUSH1 0x3 NOT CALLDATASIZE ADD SLT PUSH2 0x662 JUMPI PUSH1 0x1 SLOAD SWAP1 MLOAD PUSH1 0x1 PUSH1 0x1 PUSH1 0xA0 SHL SUB SWAP1 SWAP2 AND DUP2 MSTORE PUSH1 0x20 SWAP1 RETURN JUMPDEST DUP4 CALLVALUE PUSH2 0x840 JUMPI PUSH1 0x20 CALLDATASIZE PUSH1 0x3 NOT ADD SLT PUSH2 0x840 JUMPI PUSH2 0x886 PUSH2 0x3514 JUMP JUMPDEST PUSH2 0x89F PUSH1 0x0 DUP1 MLOAD PUSH1 0x20 PUSH2 0x52BC DUP4 CODECOPY DUP2 MLOAD SWAP2 MSTORE CALLER EQ PUSH2 0x35C2 JUMP JUMPDEST PUSH1 0x1 DUP1 PUSH1 0xA0 SHL SUB AND PUSH1 0x1 PUSH1 0x1 PUSH1 0x60 SHL SUB PUSH1 0xA0 SHL PUSH1 0x6 SLOAD AND OR PUSH1 0x6 SSTORE DUP1 RETURN JUMPDEST DUP4 CALLVALUE PUSH2 0x840 JUMPI PUSH1 0x20 CALLDATASIZE PUSH1 0x3 NOT ADD SLT PUSH2 0x840 JUMPI PUSH2 0x755 PUSH2 0x8DA PUSH2 0x3514 JUMP JUMPDEST PUSH2 0x8EF PUSH1 0x1 DUP1 PUSH1 0xA0 SHL SUB PUSH1 0x3 SLOAD AND CALLER EQ PUSH2 0x4488 JUMP JUMPDEST PUSH2 0x4A97 JUMP JUMPDEST POP POP CALLVALUE PUSH2 0x662 JUMPI DUP1 PUSH1 0x3 NOT CALLDATASIZE ADD SLT PUSH2 0x662 JUMPI PUSH1 0x20 SWAP2 PUSH1 0x1 PUSH1 0x1 PUSH1 0xA0 SHL SUB SWAP1 PUSH2 0x931 SWAP1 DUP3 PUSH2 0x91F PUSH2 0x3514 JUMP JUMPDEST AND DUP2 MSTORE PUSH1 0x46 DUP6 MSTORE DUP4 PUSH1 0x24 CALLDATALOAD SWAP2 KECCAK256 PUSH2 0x3594 JUMP JUMPDEST SWAP3 SWAP1 SLOAD SWAP1 MLOAD SWAP3 PUSH1 0x3 SHL SHR AND DUP2 MSTORE RETURN JUMPDEST DUP4 CALLVALUE PUSH2 0x840 JUMPI PUSH1 0x20 CALLDATASIZE PUSH1 0x3 NOT ADD SLT PUSH2 0x840 JUMPI PUSH2 0x755 PUSH2 0x95D PUSH2 0x3514 JUMP JUMPDEST PUSH2 0x972 PUSH1 0x1 DUP1 PUSH1 0xA0 SHL SUB PUSH1 0x3 SLOAD AND CALLER EQ PUSH2 0x4488 JUMP JUMPDEST PUSH2 0x45DA JUMP JUMPDEST POP POP CALLVALUE PUSH2 0x662 JUMPI DUP2 PUSH1 0x3 NOT CALLDATASIZE ADD SLT PUSH2 0x662 JUMPI PUSH1 0x20 SWAP1 PUSH1 0x15 SLOAD SWAP1 MLOAD SWAP1 DUP2 MSTORE RETURN JUMPDEST POP POP CALLVALUE PUSH2 0x662 JUMPI PUSH1 0x20 CALLDATASIZE PUSH1 0x3 NOT ADD SLT PUSH2 0x662 JUMPI PUSH1 0x20 SWAP2 DUP2 SWAP1 PUSH1 0x1 PUSH1 0x1 PUSH1 0xA0 SHL SUB PUSH2 0x9BE PUSH2 0x3514 JUMP JUMPDEST AND DUP2 MSTORE PUSH1 0x2F DUP5 MSTORE KECCAK256 SLOAD SWAP1 MLOAD SWAP1 DUP2 MSTORE RETURN JUMPDEST POP POP CALLVALUE PUSH2 0x662 JUMPI DUP2 PUSH1 0x3 NOT CALLDATASIZE ADD SLT PUSH2 0x662 JUMPI PUSH1 0x20 SWAP1 MLOAD PUSH1 0xF DUP2 MSTORE RETURN JUMPDEST POP POP CALLVALUE PUSH2 0x662 JUMPI DUP2 PUSH1 0x3 NOT CALLDATASIZE ADD SLT PUSH2 0x662 JUMPI PUSH1 0x8 SLOAD SWAP1 MLOAD PUSH1 0x1 PUSH1 0x1 PUSH1 0xA0 SHL SUB SWAP1 SWAP2 AND DUP2 MSTORE PUSH1 0x20 SWAP1 RETURN JUMPDEST POP POP CALLVALUE PUSH2 0x662 JUMPI DUP1 PUSH1 0x3 NOT CALLDATASIZE ADD SLT PUSH2 0x662 JUMPI PUSH2 0xA2D PUSH2 0x3514 JUMP JUMPDEST PUSH1 0x1 PUSH1 0x1 PUSH1 0xA0 SHL SUB AND DUP3 MSTORE PUSH1 0x1C PUSH1 0x20 MSTORE DUP1 DUP3 KECCAK256 PUSH1 0x24 CALLDATALOAD SWAP1 PUSH1 0x3 DUP3 LT ISZERO PUSH2 0xA5A JUMPI PUSH1 0x20 SWAP4 POP ADD SLOAD SWAP1 MLOAD SWAP1 DUP2 MSTORE RETURN JUMPDEST DUP4 DUP1 REVERT JUMPDEST POP POP CALLVALUE PUSH2 0x662 JUMPI PUSH1 0x20 CALLDATASIZE PUSH1 0x3 NOT ADD SLT PUSH2 0x662 JUMPI PUSH1 0x20 SWAP2 PUSH1 0xFF SWAP1 DUP3 SWAP1 PUSH1 0x1 PUSH1 0x1 PUSH1 0xA0 SHL SUB PUSH2 0xA89 PUSH2 0x3514 JUMP JUMPDEST AND DUP2 MSTORE PUSH1 0x2E DUP6 MSTORE KECCAK256 SLOAD AND SWAP1 MLOAD SWAP1 DUP2 MSTORE RETURN JUMPDEST DUP4 CALLVALUE PUSH2 0x840 JUMPI PUSH1 0x20 CALLDATASIZE PUSH1 0x3 NOT ADD SLT PUSH2 0x840 JUMPI PUSH2 0xAB4 PUSH2 0x3514 JUMP JUMPDEST PUSH2 0xACD PUSH1 0x0 DUP1 MLOAD PUSH1 0x20 PUSH2 0x52BC DUP4 CODECOPY DUP2 MLOAD SWAP2 MSTORE CALLER EQ PUSH2 0x35C2 JUMP JUMPDEST PUSH1 0x1 DUP1 PUSH1 0xA0 SHL SUB AND PUSH1 0x1 PUSH1 0x1 PUSH1 0x60 SHL SUB PUSH1 0xA0 SHL PUSH1 0x3 SLOAD AND OR PUSH1 0x3 SSTORE DUP1 RETURN JUMPDEST DUP4 SWAP1 CALLVALUE PUSH2 0x662 JUMPI PUSH1 0x20 CALLDATASIZE PUSH1 0x3 NOT ADD SLT PUSH2 0x662 JUMPI PUSH2 0x755 SWAP1 PUSH2 0xB17 PUSH1 0x1 DUP1 PUSH1 0xA0 SHL SUB PUSH1 0x3 SLOAD AND CALLER EQ PUSH2 0x4488 JUMP JUMPDEST CALLDATALOAD PUSH2 0x44BA JUMP JUMPDEST POP POP CALLVALUE PUSH2 0x662 JUMPI DUP1 PUSH1 0x3 NOT CALLDATASIZE ADD SLT PUSH2 0x662 JUMPI PUSH1 0x20 SWAP2 DUP2 SWAP1 PUSH1 0x1 PUSH1 0x1 PUSH1 0xA0 SHL SUB PUSH2 0xB44 PUSH2 0x3514 JUMP JUMPDEST AND DUP2 MSTORE PUSH1 0x58 DUP5 MSTORE DUP2 DUP2 KECCAK256 PUSH1 0x24 CALLDATALOAD DUP3 MSTORE DUP5 MSTORE KECCAK256 SLOAD SWAP1 MLOAD SWAP1 DUP2 MSTORE RETURN JUMPDEST POP POP CALLVALUE PUSH2 0x662 JUMPI PUSH1 0x20 CALLDATASIZE PUSH1 0x3 NOT ADD SLT PUSH2 0x662 JUMPI PUSH1 0x20 SWAP2 DUP2 SWAP1 PUSH1 0x1 PUSH1 0x1 PUSH1 0xA0 SHL SUB PUSH2 0xB86 PUSH2 0x3514 JUMP JUMPDEST AND DUP2 MSTORE DUP2 DUP5 MSTORE KECCAK256 SLOAD SWAP1 MLOAD SWAP1 DUP2 MSTORE RETURN JUMPDEST POP POP CALLVALUE PUSH2 0x662 JUMPI DUP2 PUSH1 0x3 NOT CALLDATASIZE ADD SLT PUSH2 0x662 JUMPI PUSH1 0x3 SLOAD SWAP1 MLOAD PUSH1 0x1 PUSH1 0x1 PUSH1 0xA0 SHL SUB SWAP1 SWAP2 AND DUP2 MSTORE PUSH1 0x20 SWAP1 RETURN JUMPDEST POP POP CALLVALUE PUSH2 0x662 JUMPI DUP2 PUSH1 0x3 NOT CALLDATASIZE ADD SLT PUSH2 0x662 JUMPI PUSH1 0x20 SWAP1 MLOAD PUSH1 0x5 DUP2 MSTORE RETURN JUMPDEST SWAP1 POP CALLVALUE PUSH2 0x6E7 JUMPI DUP2 PUSH1 0x3 NOT CALLDATASIZE ADD SLT PUSH2 0x6E7 JUMPI PUSH1 0x20 PUSH32 0x3EE8D2BA081CC1285C74565158C4311F33A0E81C7FBEF54F437AF73E64AC4D8E SWAP2 PUSH2 0xC18 PUSH2 0x3514 JUMP JUMPDEST SWAP1 SLOAD PUSH1 0x24 CALLDATALOAD SWAP2 PUSH1 0x1 PUSH1 0x1 PUSH1 0xA0 SHL SUB SWAP2 PUSH2 0xC34 SWAP1 DUP4 AND CALLER EQ PUSH2 0x3697 JUMP JUMPDEST AND SWAP4 DUP5 DUP7 MSTORE PUSH1 0x3E DUP4 MSTORE DUP2 DUP2 DUP8 KECCAK256 SSTORE MLOAD SWAP1 DUP2 MSTORE LOG2 DUP1 RETURN JUMPDEST POP POP CALLVALUE PUSH2 0x662 JUMPI DUP1 PUSH1 0x3 NOT CALLDATASIZE ADD SLT PUSH2 0x662 JUMPI PUSH1 0x20 SWAP2 DUP2 SWAP1 PUSH1 0x1 PUSH1 0x1 PUSH1 0xA0 SHL SUB PUSH2 0xC71 PUSH2 0x3514 JUMP JUMPDEST AND DUP2 MSTORE PUSH1 0x59 DUP5 MSTORE DUP2 DUP2 KECCAK256 PUSH1 0x24 CALLDATALOAD DUP3 MSTORE DUP5 MSTORE KECCAK256 SLOAD SWAP1 MLOAD SWAP1 DUP2 MSTORE RETURN JUMPDEST POP POP CALLVALUE PUSH2 0x662 JUMPI DUP2 PUSH1 0x3 NOT CALLDATASIZE ADD SLT PUSH2 0x662 JUMPI PUSH1 0x20 SWAP1 PUSH1 0x5A SLOAD SWAP1 MLOAD SWAP1 DUP2 MSTORE RETURN JUMPDEST DUP4 SWAP1 CALLVALUE PUSH2 0x662 JUMPI PUSH1 0x20 CALLDATASIZE PUSH1 0x3 NOT ADD SLT PUSH2 0x662 JUMPI PUSH2 0xCD6 PUSH1 0x0 DUP1 MLOAD PUSH1 0x20 PUSH2 0x52BC DUP4 CODECOPY DUP2 MLOAD SWAP2 MSTORE CALLER EQ PUSH2 0x35C2 JUMP JUMPDEST CALLDATALOAD PUSH1 0x9 SSTORE DUP1 RETURN JUMPDEST SWAP1 POP CALLVALUE PUSH2 0x6E7 JUMPI DUP2 PUSH1 0x3 NOT CALLDATASIZE ADD SLT PUSH2 0x6E7 JUMPI PUSH2 0xCF7 PUSH2 0x3514 JUMP JUMPDEST PUSH2 0xD0C PUSH1 0x1 DUP1 PUSH1 0xA0 SHL SUB DUP1 SWAP4 SLOAD AND CALLER EQ PUSH2 0x3697 JUMP JUMPDEST AND DUP3 MSTORE DUP1 PUSH1 0x20 MSTORE PUSH1 0x24 CALLDATALOAD SWAP1 DUP3 KECCAK256 SSTORE DUP1 RETURN JUMPDEST SWAP1 POP CALLVALUE PUSH2 0x6E7 JUMPI DUP2 PUSH1 0x3 NOT CALLDATASIZE ADD SLT PUSH2 0x6E7 JUMPI PUSH1 0x20 PUSH32 0x27BF157905718B64CCF52EF99D6FB057ABEA9CDA88264EEBEE01C2DD5B07735E SWAP2 PUSH2 0xD5B PUSH2 0x3514 JUMP JUMPDEST SWAP1 SLOAD PUSH1 0x24 CALLDATALOAD SWAP2 PUSH1 0x1 PUSH1 0x1 PUSH1 0xA0 SHL SUB SWAP2 PUSH2 0xD77 SWAP1 DUP4 AND CALLER EQ PUSH2 0x3697 JUMP JUMPDEST AND SWAP4 DUP5 DUP7 MSTORE PUSH1 0x3D DUP4 MSTORE DUP2 DUP2 DUP8 KECCAK256 SSTORE MLOAD SWAP1 DUP2 MSTORE LOG2 DUP1 RETURN JUMPDEST SWAP1 POP CALLVALUE PUSH2 0x6E7 JUMPI PUSH1 0x20 CALLDATASIZE PUSH1 0x3 NOT ADD SLT PUSH2 0x6E7 JUMPI DUP1 CALLDATALOAD SWAP1 DUP2 LT ISZERO PUSH2 0x6E7 JUMPI PUSH1 0x20 SWAP3 POP PUSH1 0x54 ADD SLOAD SWAP1 MLOAD SWAP1 DUP2 MSTORE RETURN JUMPDEST DUP1 DUP5 CALLVALUE PUSH2 0xE3E JUMPI PUSH1 0x20 DUP1 PUSH1 0x3 NOT CALLDATASIZE ADD SLT PUSH2 0xE3A JUMPI PUSH1 0x18 SWAP1 PUSH2 0xDD8 PUSH2 0x3514 JUMP JUMPDEST PUSH1 0x3 SLOAD PUSH1 0x1 PUSH1 0x1 PUSH1 0xA0 SHL SUB SWAP2 SWAP1 PUSH2 0xDF2 SWAP1 DUP4 AND CALLER EQ PUSH2 0x4488 JUMP JUMPDEST AND DUP1 DUP6 MSTORE PUSH1 0x47 DUP3 MSTORE PUSH2 0xE0A PUSH1 0xFF DUP6 DUP8 KECCAK256 SLOAD AND ISZERO PUSH2 0x46EE JUMP JUMPDEST DUP1 DUP6 MSTORE PUSH1 0x16 DUP3 MSTORE PUSH2 0xE1F DUP5 DUP7 KECCAK256 SLOAD ISZERO ISZERO PUSH2 0x45A6 JUMP JUMPDEST DUP5 MSTORE PUSH1 0x16 DUP2 MSTORE DUP4 DUP4 DUP2 KECCAK256 SSTORE PUSH1 0x17 DUP2 MSTORE DUP4 DUP4 DUP2 KECCAK256 SSTORE MSTORE DUP2 KECCAK256 SSTORE DUP1 RETURN JUMPDEST POP POP REVERT JUMPDEST POP REVERT JUMPDEST POP POP CALLVALUE PUSH2 0x662 JUMPI CALLDATASIZE PUSH1 0x3 NOT ADD SLT PUSH2 0x840 JUMPI PUSH2 0x755 PUSH2 0xE5D PUSH2 0x3514 JUMP JUMPDEST PUSH2 0xE65 PUSH2 0x356A JUMP JUMPDEST SWAP1 PUSH2 0xE7B PUSH1 0x1 DUP1 PUSH1 0xA0 SHL SUB PUSH1 0x3 SLOAD AND CALLER EQ PUSH2 0x4488 JUMP JUMPDEST PUSH2 0x4B6C JUMP JUMPDEST DUP4 DUP4 CALLVALUE PUSH2 0x662 JUMPI DUP1 PUSH1 0x3 NOT CALLDATASIZE ADD SLT PUSH2 0x662 JUMPI PUSH2 0xE9A PUSH2 0x3514 JUMP JUMPDEST PUSH1 0x3 SLOAD PUSH1 0x1 PUSH1 0x1 PUSH1 0xA0 SHL SUB SWAP3 SWAP2 SWAP1 PUSH1 0x24 CALLDATALOAD SWAP1 PUSH2 0xEB9 SWAP1 DUP6 AND CALLER EQ PUSH2 0x4488 JUMP JUMPDEST DUP6 DUP2 LT SWAP2 PUSH2 0xEC6 DUP4 PUSH2 0x518B JUMP JUMPDEST DUP5 DUP2 AND SWAP5 DUP6 DUP8 MSTORE PUSH1 0x58 PUSH1 0x20 MSTORE DUP5 DUP8 KECCAK256 DUP4 DUP9 MSTORE PUSH1 0x20 MSTORE DUP5 DUP8 KECCAK256 SLOAD SWAP4 PUSH2 0xEEB DUP6 ISZERO ISZERO PUSH2 0x4624 JUMP JUMPDEST DUP7 DUP9 MSTORE PUSH1 0x58 PUSH1 0x20 MSTORE DUP6 DUP9 KECCAK256 DUP5 DUP10 MSTORE PUSH1 0x20 MSTORE DUP8 DUP7 DUP2 KECCAK256 SSTORE ISZERO PUSH2 0xF58 JUMPI DUP4 DUP4 SWAP3 PUSH2 0xF4A SWAP3 PUSH32 0xF960DBF9E5D0682F7A298ED974E33A28B4464914B7A2BFAC12AE419A9AFEB280 SWAP8 SWAP7 SWAP6 PUSH1 0x10 ADD PUSH2 0xF3F DUP5 DUP3 SLOAD PUSH2 0x39EC JUMP JUMPDEST SWAP1 SSTORE PUSH1 0x1 SLOAD AND PUSH2 0x4F4B JUMP JUMPDEST DUP3 MLOAD SWAP2 DUP3 MSTORE PUSH1 0x20 DUP3 ADD MSTORE LOG2 DUP1 RETURN JUMPDEST PUSH4 0x4E487B71 PUSH1 0xE0 SHL DUP8 MSTORE PUSH1 0x32 DUP9 MSTORE PUSH1 0x24 DUP8 REVERT JUMPDEST POP POP CALLVALUE PUSH2 0x662 JUMPI PUSH1 0x20 CALLDATASIZE PUSH1 0x3 NOT ADD SLT PUSH2 0x662 JUMPI PUSH2 0xF86 PUSH2 0x3514 JUMP JUMPDEST SWAP1 PUSH1 0x1 DUP1 PUSH1 0xA0 SHL SUB PUSH2 0xF9D DUP2 PUSH1 0x3 SLOAD AND CALLER EQ PUSH2 0x4488 JUMP JUMPDEST PUSH5 0xE8D4A51000 PUSH1 0x31 SLOAD DIV SWAP3 AND SWAP1 DUP2 DUP5 MSTORE PUSH1 0x33 PUSH1 0x20 MSTORE PUSH2 0xFBF DUP2 DUP6 KECCAK256 SLOAD DUP5 PUSH2 0x39EC JUMP JUMPDEST SWAP3 DUP4 PUSH2 0xFC9 JUMPI DUP5 DUP1 RETURN JUMPDEST PUSH2 0xFE6 SWAP3 DUP6 MSTORE PUSH1 0x33 PUSH1 0x20 MSTORE DUP2 DUP6 KECCAK256 SSTORE DUP1 PUSH1 0x20 MSTORE DUP4 KECCAK256 SWAP2 DUP3 SLOAD PUSH2 0x39DF JUMP JUMPDEST SWAP1 SSTORE CODESIZE DUP1 DUP1 DUP1 DUP5 DUP1 RETURN JUMPDEST POP POP CALLVALUE PUSH2 0x662 JUMPI PUSH1 0x20 CALLDATASIZE PUSH1 0x3 NOT ADD SLT PUSH2 0x662 JUMPI PUSH2 0x100B PUSH2 0x3514 JUMP JUMPDEST SWAP1 PUSH1 0x1 DUP1 PUSH1 0xA0 SHL SUB PUSH2 0x1022 DUP2 PUSH1 0x3 SLOAD AND CALLER EQ PUSH2 0x4488 JUMP JUMPDEST PUSH5 0xE8D4A51000 PUSH1 0x30 SLOAD DIV SWAP3 AND SWAP1 DUP2 DUP5 MSTORE PUSH1 0x32 PUSH1 0x20 MSTORE PUSH2 0x1044 DUP2 DUP6 KECCAK256 SLOAD DUP5 PUSH2 0x39EC JUMP JUMPDEST SWAP3 DUP4 PUSH2 0x104E JUMPI DUP5 DUP1 RETURN JUMPDEST PUSH2 0xFE6 SWAP3 DUP6 MSTORE PUSH1 0x32 PUSH1 0x20 MSTORE DUP2 DUP6 KECCAK256 SSTORE DUP1 PUSH1 0x20 MSTORE DUP4 KECCAK256 SWAP2 DUP3 SLOAD PUSH2 0x39DF JUMP JUMPDEST POP POP CALLVALUE PUSH2 0x662 JUMPI PUSH1 0x20 CALLDATASIZE PUSH1 0x3 NOT ADD SLT PUSH2 0x662 JUMPI PUSH1 0x20 SWAP2 DUP2 SWAP1 PUSH1 0x1 PUSH1 0x1 PUSH1 0xA0 SHL SUB PUSH2 0x1093 PUSH2 0x3514 JUMP JUMPDEST AND DUP2 MSTORE PUSH1 0x34 DUP5 MSTORE KECCAK256 SLOAD SWAP1 MLOAD SWAP1 DUP2 MSTORE RETURN JUMPDEST SWAP1 POP CALLVALUE PUSH2 0x6E7 JUMPI PUSH1 0xC0 CALLDATASIZE PUSH1 0x3 NOT ADD SLT PUSH2 0x6E7 JUMPI PUSH2 0x10BE PUSH2 0x3514 JUMP JUMPDEST SWAP2 PUSH2 0x10C7 PUSH2 0x352A JUMP JUMPDEST PUSH1 0x84 CALLDATALOAD SWAP3 PUSH1 0xFF DUP5 AND DUP1 SWAP5 SUB PUSH2 0x1168 JUMPI SLOAD PUSH1 0x1 PUSH1 0x1 PUSH1 0xA0 SHL SUB SWAP5 DUP6 SWAP2 PUSH2 0x10EF SWAP1 DUP4 AND CALLER EQ PUSH2 0x3697 JUMP JUMPDEST AND SWAP3 DUP4 DUP7 MSTORE PUSH1 0x20 SWAP5 PUSH1 0x43 DUP7 MSTORE DUP4 DUP8 KECCAK256 SWAP3 AND SWAP2 DUP3 PUSH1 0x1 PUSH1 0x1 PUSH1 0x60 SHL SUB PUSH1 0xA0 SHL DUP3 SLOAD AND OR SWAP1 SSTORE PUSH1 0x44 DUP6 MSTORE PUSH1 0x44 CALLDATALOAD DUP4 DUP8 KECCAK256 SSTORE PUSH1 0x3E DUP6 MSTORE PUSH1 0x64 CALLDATALOAD DUP4 DUP8 KECCAK256 SSTORE PUSH1 0x45 DUP6 MSTORE DUP3 DUP7 KECCAK256 SWAP1 PUSH1 0xFF NOT DUP3 SLOAD AND OR SWAP1 SSTORE PUSH1 0x3D DUP5 MSTORE PUSH1 0xA4 CALLDATALOAD DUP3 DUP7 KECCAK256 SSTORE DUP1 PUSH2 0x114E JUMPI DUP5 DUP1 RETURN JUMPDEST PUSH2 0x115F SWAP4 PUSH1 0x46 SWAP2 DUP7 MSTORE MSTORE DUP4 KECCAK256 PUSH2 0x3953 JUMP JUMPDEST POP CODESIZE DUP1 DUP1 DUP1 DUP5 DUP1 RETURN JUMPDEST PUSH1 0x0 DUP1 REVERT JUMPDEST POP POP CALLVALUE PUSH2 0x662 JUMPI DUP2 PUSH1 0x3 NOT CALLDATASIZE ADD SLT PUSH2 0x662 JUMPI PUSH1 0x20 SWAP1 PUSH1 0xA SLOAD SWAP1 MLOAD SWAP1 DUP2 MSTORE RETURN JUMPDEST POP POP CALLVALUE PUSH2 0x662 JUMPI PUSH1 0x20 CALLDATASIZE PUSH1 0x3 NOT ADD SLT PUSH2 0x662 JUMPI PUSH1 0x20 SWAP2 DUP2 SWAP1 PUSH1 0x1 PUSH1 0x1 PUSH1 0xA0 SHL SUB PUSH2 0x11B4 PUSH2 0x3514 JUMP JUMPDEST AND DUP2 MSTORE PUSH1 0x18 DUP5 MSTORE KECCAK256 SLOAD SWAP1 MLOAD SWAP1 DUP2 MSTORE RETURN JUMPDEST SWAP1 POP CALLVALUE PUSH2 0x6E7 JUMPI DUP2 PUSH1 0x3 NOT CALLDATASIZE ADD SLT PUSH2 0x6E7 JUMPI PUSH2 0x11DE PUSH2 0x3514 JUMP JUMPDEST PUSH2 0x11F3 PUSH1 0x1 DUP1 PUSH1 0xA0 SHL SUB DUP1 SWAP4 SLOAD AND CALLER EQ PUSH2 0x3697 JUMP JUMPDEST AND DUP3 MSTORE PUSH1 0x3F PUSH1 0x20 MSTORE PUSH1 0x24 CALLDATALOAD SWAP1 DUP3 KECCAK256 SSTORE DUP1 RETURN JUMPDEST POP POP CALLVALUE PUSH2 0x662 JUMPI DUP2 PUSH1 0x3 NOT CALLDATASIZE ADD SLT PUSH2 0x662 JUMPI PUSH1 0x2 SLOAD SWAP1 MLOAD PUSH1 0x1 PUSH1 0x1 PUSH1 0xA0 SHL SUB SWAP1 SWAP2 AND DUP2 MSTORE PUSH1 0x20 SWAP1 RETURN JUMPDEST POP POP CALLVALUE PUSH2 0x662 JUMPI DUP2 PUSH1 0x3 NOT CALLDATASIZE ADD SLT PUSH2 0x662 JUMPI PUSH1 0x20 SWAP1 MLOAD PUSH2 0xBB8 DUP2 MSTORE RETURN JUMPDEST DUP4 DUP4 CALLVALUE PUSH2 0x662 JUMPI PUSH1 0x20 CALLDATASIZE PUSH1 0x3 NOT ADD SLT PUSH2 0x662 JUMPI DUP3 SLOAD DUP4 CALLDATALOAD SWAP4 SWAP1 PUSH1 0x1 PUSH1 0x1 PUSH1 0xA0 SHL SUB SWAP1 DUP2 AND CALLER EQ DUP1 ISZERO PUSH2 0x1337 JUMPI JUMPDEST PUSH2 0x1281 SWAP1 PUSH2 0x35F7 JUMP JUMPDEST PUSH1 0x5E DUP6 MUL SWAP5 DUP1 DUP7 DIV PUSH1 0x5E EQ SWAP1 ISZERO OR ISZERO PUSH2 0x1324 JUMPI PUSH1 0x64 DUP5 SWAP6 DIV SWAP1 PUSH2 0x12A6 DUP3 PUSH1 0x5A SLOAD PUSH2 0x39DF JUMP JUMPDEST PUSH1 0x5A SSTORE DUP2 PUSH2 0x12B2 JUMPI DUP5 DUP1 RETURN JUMPDEST PUSH1 0x7 SLOAD AND DUP1 EXTCODESIZE ISZERO PUSH2 0x1320 JUMPI PUSH1 0x24 DUP6 SWAP3 DUP6 MLOAD SWAP7 DUP8 SWAP4 DUP5 SWAP3 PUSH4 0x852CD8D PUSH1 0xE3 SHL DUP5 MSTORE DUP8 DUP5 ADD MSTORE GAS CALL DUP1 ISZERO PUSH2 0x1316 JUMPI PUSH2 0x12EA JUMPI JUMPDEST DUP1 DUP5 SWAP4 DUP5 DUP1 RETURN JUMPDEST PUSH8 0xFFFFFFFFFFFFFFFF DUP4 GT PUSH2 0x1303 JUMPI POP MSTORE DUP2 DUP1 DUP1 PUSH2 0x12E3 JUMP JUMPDEST PUSH4 0x4E487B71 PUSH1 0xE0 SHL DUP5 MSTORE PUSH1 0x41 SWAP1 MSTORE PUSH1 0x24 DUP4 REVERT JUMPDEST DUP3 MLOAD RETURNDATASIZE DUP7 DUP3 RETURNDATACOPY RETURNDATASIZE SWAP1 REVERT JUMPDEST DUP5 DUP1 REVERT JUMPDEST PUSH4 0x4E487B71 PUSH1 0xE0 SHL DUP5 MSTORE PUSH1 0x11 DUP3 MSTORE PUSH1 0x24 DUP5 REVERT JUMPDEST POP PUSH1 0x7 SLOAD DUP2 AND CALLER EQ PUSH2 0x1278 JUMP JUMPDEST SWAP1 POP CALLVALUE PUSH2 0x6E7 JUMPI PUSH1 0x20 CALLDATASIZE PUSH1 0x3 NOT ADD SLT PUSH2 0x6E7 JUMPI CALLDATALOAD PUSH1 0x8 DUP2 LT ISZERO PUSH2 0x6E7 JUMPI PUSH1 0x20 SWAP3 POP PUSH1 0x25 ADD SLOAD SWAP1 MLOAD SWAP1 DUP2 MSTORE RETURN JUMPDEST POP POP CALLVALUE PUSH2 0x662 JUMPI DUP2 PUSH1 0x3 NOT CALLDATASIZE ADD SLT PUSH2 0x662 JUMPI PUSH1 0x20 SWAP1 MLOAD PUSH1 0xAF DUP2 MSTORE RETURN JUMPDEST SWAP3 SWAP2 POP CALLVALUE PUSH2 0xE3A JUMPI DUP2 PUSH1 0x3 NOT CALLDATASIZE ADD SLT PUSH2 0xE3A JUMPI PUSH2 0x13A7 PUSH2 0x3514 JUMP JUMPDEST SWAP1 SLOAD PUSH1 0x24 CALLDATALOAD SWAP2 PUSH1 0x1 PUSH1 0x1 PUSH1 0xA0 SHL SUB SWAP2 PUSH2 0x13C3 SWAP1 DUP4 AND CALLER EQ PUSH2 0x3697 JUMP JUMPDEST AND SWAP1 DUP2 DUP5 MSTORE DUP3 PUSH1 0x20 MSTORE DUP3 DUP5 KECCAK256 SLOAD DUP2 GT PUSH1 0x0 EQ PUSH2 0x13E6 JUMPI POP DUP3 MSTORE DUP1 PUSH1 0x20 MSTORE DUP2 KECCAK256 SSTORE DUP1 RETURN JUMPDEST SWAP3 PUSH2 0x13F6 SWAP3 SWAP2 POP KECCAK256 SWAP2 DUP3 SLOAD PUSH2 0x39EC JUMP JUMPDEST SWAP1 SSTORE DUP1 RETURN JUMPDEST SWAP1 POP CALLVALUE PUSH2 0x6E7 JUMPI PUSH1 0x20 CALLDATASIZE PUSH1 0x3 NOT ADD SLT PUSH2 0x6E7 JUMPI PUSH2 0x1416 PUSH2 0x3514 JUMP JUMPDEST SWAP1 PUSH2 0x1430 PUSH1 0x0 DUP1 MLOAD PUSH1 0x20 PUSH2 0x52BC DUP4 CODECOPY DUP2 MLOAD SWAP2 MSTORE CALLER EQ PUSH2 0x35C2 JUMP JUMPDEST PUSH1 0x5 SLOAD SWAP2 PUSH1 0x1 PUSH1 0x1 PUSH1 0xA0 SHL SUB SWAP1 DUP2 DUP5 AND PUSH2 0x1487 JUMPI AND SWAP3 DUP4 ISZERO PUSH2 0x145F JUMPI POP POP PUSH1 0x1 PUSH1 0x1 PUSH1 0xA0 SHL SUB NOT AND OR PUSH1 0x5 SSTORE DUP1 RETURN JUMPDEST SWAP1 PUSH1 0x20 PUSH1 0x64 SWAP3 MLOAD SWAP2 PUSH3 0x461BCD PUSH1 0xE5 SHL DUP4 MSTORE DUP3 ADD MSTORE PUSH1 0x2 PUSH1 0x24 DUP3 ADD MSTORE PUSH2 0x213 PUSH1 0xF4 SHL PUSH1 0x44 DUP3 ADD MSTORE REVERT JUMPDEST DUP5 MLOAD PUSH3 0x461BCD PUSH1 0xE5 SHL DUP2 MSTORE PUSH1 0x20 DUP2 DUP6 ADD MSTORE PUSH1 0xB PUSH1 0x24 DUP3 ADD MSTORE PUSH11 0x185B1C9958591E481CD95D PUSH1 0xAA SHL PUSH1 0x44 DUP3 ADD MSTORE PUSH1 0x64 SWAP1 REVERT JUMPDEST POP POP CALLVALUE PUSH2 0x662 JUMPI DUP2 PUSH1 0x3 NOT CALLDATASIZE ADD SLT PUSH2 0x662 JUMPI PUSH1 0x20 SWAP1 PUSH1 0x48 SLOAD SWAP1 MLOAD SWAP1 DUP2 MSTORE RETURN JUMPDEST POP POP CALLVALUE PUSH2 0x662 JUMPI DUP2 PUSH1 0x3 NOT CALLDATASIZE ADD SLT PUSH2 0x662 JUMPI PUSH1 0x20 SWAP1 PUSH1 0x3A SLOAD SWAP1 MLOAD SWAP1 DUP2 MSTORE RETURN JUMPDEST SWAP1 POP CALLVALUE PUSH2 0x6E7 JUMPI PUSH1 0x20 CALLDATASIZE PUSH1 0x3 NOT ADD SLT PUSH2 0x6E7 JUMPI DUP1 CALLDATALOAD SWAP1 DUP2 LT ISZERO PUSH2 0x6E7 JUMPI PUSH1 0x20 SWAP3 POP PUSH1 0x50 ADD SLOAD SWAP1 MLOAD SWAP1 DUP2 MSTORE RETURN JUMPDEST POP POP CALLVALUE PUSH2 0x662 JUMPI PUSH1 0x20 CALLDATASIZE PUSH1 0x3 NOT ADD SLT PUSH2 0x662 JUMPI PUSH1 0x20 SWAP2 DUP2 SWAP1 PUSH1 0x1 PUSH1 0x1 PUSH1 0xA0 SHL SUB PUSH2 0x154A PUSH2 0x3514 JUMP JUMPDEST AND DUP2 MSTORE PUSH1 0x41 DUP5 MSTORE KECCAK256 SLOAD SWAP1 MLOAD SWAP1 DUP2 MSTORE RETURN JUMPDEST POP POP CALLVALUE PUSH2 0x662 JUMPI DUP2 PUSH1 0x3 NOT CALLDATASIZE ADD SLT PUSH2 0x662 JUMPI PUSH1 0x20 SWAP1 MLOAD PUSH2 0x1F40 DUP2 MSTORE RETURN JUMPDEST POP POP CALLVALUE PUSH2 0x662 JUMPI PUSH1 0x20 CALLDATASIZE PUSH1 0x3 NOT ADD SLT PUSH2 0x662 JUMPI PUSH1 0x20 SWAP2 DUP2 SWAP1 PUSH1 0x1 PUSH1 0x1 PUSH1 0xA0 SHL SUB PUSH2 0x159F PUSH2 0x3514 JUMP JUMPDEST AND DUP2 MSTORE PUSH1 0x46 DUP5 MSTORE KECCAK256 SLOAD SWAP1 MLOAD SWAP1 DUP2 MSTORE RETURN JUMPDEST POP POP CALLVALUE PUSH2 0x662 JUMPI PUSH1 0x20 CALLDATASIZE PUSH1 0x3 NOT ADD SLT PUSH2 0x662 JUMPI PUSH1 0x20 SWAP2 DUP2 SWAP1 PUSH1 0x1 PUSH1 0x1 PUSH1 0xA0 SHL SUB PUSH2 0x15D7 PUSH2 0x3514 JUMP JUMPDEST AND DUP2 MSTORE PUSH1 0x16 DUP5 MSTORE KECCAK256 SLOAD SWAP1 MLOAD SWAP1 DUP2 MSTORE RETURN JUMPDEST POP POP CALLVALUE PUSH2 0x662 JUMPI PUSH1 0x20 CALLDATASIZE PUSH1 0x3 NOT ADD SLT PUSH2 0x662 JUMPI PUSH1 0x20 SWAP2 DUP2 SWAP1 PUSH1 0x1 PUSH1 0x1 PUSH1 0xA0 SHL SUB PUSH2 0x160F PUSH2 0x3514 JUMP JUMPDEST AND DUP2 MSTORE PUSH1 0x3F DUP5 MSTORE KECCAK256 SLOAD SWAP1 MLOAD SWAP1 DUP2 MSTORE RETURN JUMPDEST POP POP CALLVALUE PUSH2 0x662 JUMPI PUSH1 0x20 CALLDATASIZE PUSH1 0x3 NOT ADD SLT PUSH2 0x662 JUMPI PUSH1 0x20 SWAP2 DUP2 SWAP1 PUSH1 0x1 PUSH1 0x1 PUSH1 0xA0 SHL SUB PUSH2 0x1647 PUSH2 0x3514 JUMP JUMPDEST AND DUP2 MSTORE PUSH1 0x37 DUP5 MSTORE KECCAK256 SLOAD SWAP1 MLOAD SWAP1 DUP2 MSTORE RETURN JUMPDEST SWAP2 SWAP1 POP CALLVALUE PUSH2 0x6E7 JUMPI DUP3 PUSH1 0x3 NOT CALLDATASIZE ADD SLT PUSH2 0x6E7 JUMPI PUSH1 0x3 SLOAD PUSH1 0x1 PUSH1 0x1 PUSH1 0xA0 SHL SUB SWAP1 PUSH2 0x1683 SWAP1 DUP3 AND CALLER EQ PUSH2 0x4488 JUMP JUMPDEST PUSH1 0x3A SLOAD PUSH3 0x15180 DUP2 ADD DUP1 SWAP2 GT PUSH2 0x17CC JUMPI TIMESTAMP LT PUSH2 0x17E6 JUMPI PUSH1 0x39 SLOAD PUSH2 0xBB8 DUP1 DUP3 GT ISZERO PUSH2 0x17DF JUMPI POP PUSH1 0x31 NOT DUP2 ADD SWAP1 DUP2 GT PUSH2 0x17CC JUMPI JUMPDEST PUSH1 0x39 SSTORE TIMESTAMP PUSH1 0x3A SSTORE PUSH1 0x1 SLOAD AND SWAP1 DUP1 MLOAD SWAP3 PUSH4 0x70A08231 PUSH1 0xE0 SHL DUP5 MSTORE ADDRESS DUP2 DUP6 ADD MSTORE PUSH1 0x20 SWAP4 DUP5 DUP2 PUSH1 0x24 DUP2 DUP8 GAS STATICCALL SWAP1 DUP2 ISZERO PUSH2 0x17C2 JUMPI DUP7 SWAP2 PUSH2 0x1791 JUMPI JUMPDEST POP PUSH1 0xD DUP2 MUL SWAP1 DUP1 DUP3 DIV PUSH1 0xD EQ SWAP1 ISZERO OR ISZERO PUSH2 0x177E JUMPI PUSH2 0x2710 DUP7 SWAP2 DIV SWAP4 DUP5 PUSH2 0x1710 JUMPI POP DUP1 RETURN JUMPDEST DUP6 SWAP3 PUSH2 0xDEAD SWAP3 PUSH1 0x44 SWAP3 DUP7 MLOAD SWAP8 DUP9 SWAP6 DUP7 SWAP5 PUSH4 0xA9059CBB PUSH1 0xE0 SHL DUP7 MSTORE DUP6 ADD MSTORE PUSH1 0x24 DUP5 ADD MSTORE GAS CALL SWAP1 DUP2 ISZERO PUSH2 0x1775 JUMPI POP PUSH2 0x1747 JUMPI JUMPDEST DUP1 DUP1 DUP5 DUP1 RETURN JUMPDEST DUP2 PUSH2 0x1766 SWAP3 SWAP1 RETURNDATASIZE LT PUSH2 0x176E JUMPI JUMPDEST PUSH2 0x175E DUP2 DUP4 PUSH2 0x371B JUMP JUMPDEST DUP2 ADD SWAP1 PUSH2 0x4FFF JUMP JUMPDEST POP CODESIZE DUP1 PUSH2 0x1741 JUMP JUMPDEST POP RETURNDATASIZE PUSH2 0x1754 JUMP JUMPDEST MLOAD RETURNDATASIZE DUP6 DUP3 RETURNDATACOPY RETURNDATASIZE SWAP1 REVERT JUMPDEST PUSH4 0x4E487B71 PUSH1 0xE0 SHL DUP7 MSTORE PUSH1 0x11 DUP3 MSTORE PUSH1 0x24 DUP7 REVERT JUMPDEST SWAP1 POP DUP5 DUP2 DUP2 RETURNDATASIZE DUP4 GT PUSH2 0x17BB JUMPI JUMPDEST PUSH2 0x17A8 DUP2 DUP4 PUSH2 0x371B JUMP JUMPDEST DUP2 ADD SUB SLT PUSH2 0x17B7 JUMPI MLOAD CODESIZE PUSH2 0x16EC JUMP JUMPDEST DUP6 DUP1 REVERT JUMPDEST POP RETURNDATASIZE PUSH2 0x179E JUMP JUMPDEST DUP4 MLOAD RETURNDATASIZE DUP9 DUP3 RETURNDATACOPY RETURNDATASIZE SWAP1 REVERT JUMPDEST PUSH4 0x4E487B71 PUSH1 0xE0 SHL DUP6 MSTORE PUSH1 0x11 DUP5 MSTORE PUSH1 0x24 DUP6 REVERT JUMPDEST SWAP1 POP PUSH2 0x16B5 JUMP JUMPDEST DUP2 MLOAD PUSH3 0x461BCD PUSH1 0xE5 SHL DUP2 MSTORE PUSH1 0x20 DUP2 DUP6 ADD MSTORE PUSH1 0x5 PUSH1 0x24 DUP3 ADD MSTORE PUSH5 0x2174696D65 PUSH1 0xD8 SHL PUSH1 0x44 DUP3 ADD MSTORE PUSH1 0x64 SWAP1 REVERT JUMPDEST POP POP CALLVALUE PUSH2 0x662 JUMPI PUSH1 0x20 CALLDATASIZE PUSH1 0x3 NOT ADD SLT PUSH2 0x662 JUMPI PUSH1 0x20 SWAP2 DUP2 SWAP1 PUSH1 0x1 PUSH1 0x1 PUSH1 0xA0 SHL SUB PUSH2 0x1839 PUSH2 0x3514 JUMP JUMPDEST AND DUP2 MSTORE PUSH1 0x42 DUP5 MSTORE KECCAK256 SLOAD SWAP1 MLOAD SWAP1 DUP2 MSTORE RETURN JUMPDEST SWAP1 POP CALLVALUE PUSH2 0x6E7 JUMPI DUP3 PUSH1 0x3 NOT CALLDATASIZE ADD SLT PUSH2 0x6E7 JUMPI SLOAD SWAP1 MLOAD PUSH1 0x1 PUSH1 0x1 PUSH1 0xA0 SHL SUB SWAP1 SWAP2 AND DUP2 MSTORE PUSH1 0x20 SWAP2 POP RETURN JUMPDEST POP POP CALLVALUE PUSH2 0x662 JUMPI PUSH1 0x20 CALLDATASIZE PUSH1 0x3 NOT ADD SLT PUSH2 0x662 JUMPI PUSH1 0x20 SWAP2 DUP2 SWAP1 PUSH1 0x1 PUSH1 0x1 PUSH1 0xA0 SHL SUB PUSH2 0x1899 PUSH2 0x3514 JUMP JUMPDEST AND DUP2 MSTORE PUSH1 0x3D DUP5 MSTORE KECCAK256 SLOAD SWAP1 MLOAD SWAP1 DUP2 MSTORE RETURN JUMPDEST POP POP CALLVALUE PUSH2 0x662 JUMPI DUP2 PUSH1 0x3 NOT CALLDATASIZE ADD SLT PUSH2 0x662 JUMPI PUSH1 0x20 SWAP1 PUSH1 0x3C SLOAD SWAP1 MLOAD SWAP1 DUP2 MSTORE RETURN JUMPDEST SWAP1 POP CALLVALUE PUSH2 0x6E7 JUMPI DUP2 PUSH1 0x3 NOT CALLDATASIZE ADD SLT PUSH2 0x6E7 JUMPI PUSH2 0x190A PUSH2 0x191C SWAP3 PUSH2 0x18E9 PUSH2 0x3514 JUMP JUMPDEST SWAP3 PUSH2 0x18F2 PUSH2 0x352A JUMP JUMPDEST SWAP1 SLOAD SWAP1 SWAP4 PUSH1 0x1 PUSH1 0x1 PUSH1 0xA0 SHL SUB SWAP4 DUP5 SWAP3 DUP4 AND CALLER EQ PUSH2 0x3697 JUMP JUMPDEST AND DUP6 MSTORE PUSH1 0x46 PUSH1 0x20 MSTORE DUP5 KECCAK256 SWAP2 AND SWAP1 PUSH2 0x3953 JUMP JUMPDEST POP DUP1 RETURN JUMPDEST POP POP CALLVALUE PUSH2 0x662 JUMPI PUSH1 0x20 CALLDATASIZE PUSH1 0x3 NOT ADD SLT PUSH2 0x662 JUMPI PUSH1 0x20 SWAP2 PUSH1 0xFF SWAP1 DUP3 SWAP1 PUSH1 0x1 PUSH1 0x1 PUSH1 0xA0 SHL SUB PUSH2 0x194B PUSH2 0x3514 JUMP JUMPDEST AND DUP2 MSTORE PUSH1 0x38 DUP6 MSTORE KECCAK256 SLOAD AND SWAP1 MLOAD SWAP1 DUP2 MSTORE RETURN JUMPDEST SWAP1 POP CALLVALUE PUSH2 0x6E7 JUMPI PUSH1 0x20 CALLDATASIZE PUSH1 0x3 NOT ADD SLT PUSH2 0x6E7 JUMPI DUP1 CALLDATALOAD SWAP1 DUP2 LT ISZERO PUSH2 0x6E7 JUMPI PUSH1 0x20 SWAP3 POP PUSH1 0xC ADD SLOAD SWAP1 MLOAD SWAP1 DUP2 MSTORE RETURN JUMPDEST SWAP1 POP CALLVALUE PUSH2 0x6E7 JUMPI DUP2 PUSH1 0x3 NOT CALLDATASIZE ADD SLT PUSH2 0x6E7 JUMPI PUSH2 0x19A2 PUSH2 0x3514 JUMP JUMPDEST PUSH2 0x19B7 PUSH1 0x1 DUP1 PUSH1 0xA0 SHL SUB DUP1 SWAP4 SLOAD AND CALLER EQ PUSH2 0x3697 JUMP JUMPDEST AND DUP3 MSTORE DUP1 PUSH1 0x20 MSTORE DUP2 KECCAK256 PUSH2 0x13F6 PUSH1 0x24 CALLDATALOAD DUP3 SLOAD PUSH2 0x39DF JUMP JUMPDEST SWAP1 POP CALLVALUE PUSH2 0x6E7 JUMPI DUP2 PUSH1 0x3 NOT CALLDATASIZE ADD SLT PUSH2 0x6E7 JUMPI PUSH2 0x19E7 PUSH2 0x3514 JUMP JUMPDEST PUSH2 0x19FC PUSH1 0x1 DUP1 PUSH1 0xA0 SHL SUB DUP1 SWAP4 SLOAD AND CALLER EQ PUSH2 0x3697 JUMP JUMPDEST AND DUP3 MSTORE PUSH1 0x41 PUSH1 0x20 MSTORE DUP2 KECCAK256 PUSH2 0x13F6 PUSH1 0x24 CALLDATALOAD DUP3 SLOAD PUSH2 0x39DF JUMP JUMPDEST POP POP CALLVALUE PUSH2 0x662 JUMPI PUSH2 0x1A79 SWAP1 PUSH2 0x1A27 CALLDATASIZE PUSH2 0x3540 JUMP JUMPDEST SWAP1 SWAP3 SWAP2 PUSH1 0x1 DUP1 PUSH1 0xA0 SHL SUB SWAP1 PUSH2 0x1A41 DUP3 PUSH1 0x3 SLOAD AND CALLER EQ PUSH2 0x4488 JUMP JUMPDEST AND DUP1 DUP7 MSTORE PUSH1 0x16 PUSH1 0x20 MSTORE DUP3 DUP7 KECCAK256 PUSH2 0x1A58 DUP6 DUP3 SLOAD PUSH2 0x39DF JUMP JUMPDEST SWAP1 SSTORE DUP6 MSTORE PUSH1 0x18 PUSH1 0x20 MSTORE DUP2 DUP6 KECCAK256 SLOAD DUP2 GT ISZERO PUSH2 0x1A7F JUMPI SWAP1 JUMPDEST DUP5 KECCAK256 SSTORE PUSH1 0x15 SLOAD PUSH2 0x39DF JUMP JUMPDEST PUSH1 0x15 SSTORE DUP1 RETURN JUMPDEST POP DUP1 DUP5 KECCAK256 SLOAD SWAP1 PUSH2 0x1A6E JUMP JUMPDEST POP POP CALLVALUE PUSH2 0x662 JUMPI PUSH1 0x20 CALLDATASIZE PUSH1 0x3 NOT ADD SLT PUSH2 0x662 JUMPI PUSH1 0x20 SWAP2 DUP2 SWAP1 PUSH1 0x1 PUSH1 0x1 PUSH1 0xA0 SHL SUB PUSH2 0x1AB2 PUSH2 0x3514 JUMP JUMPDEST AND DUP2 MSTORE PUSH1 0x44 DUP5 MSTORE KECCAK256 SLOAD SWAP1 MLOAD SWAP1 DUP2 MSTORE RETURN JUMPDEST SWAP1 POP CALLVALUE PUSH2 0x6E7 JUMPI DUP2 PUSH1 0x3 NOT CALLDATASIZE ADD SLT PUSH2 0x6E7 JUMPI PUSH2 0x1ADC PUSH2 0x3514 JUMP JUMPDEST SWAP2 PUSH1 0x24 CALLDATALOAD SWAP1 PUSH2 0x1AFA PUSH1 0x0 DUP1 MLOAD PUSH1 0x20 PUSH2 0x52BC DUP4 CODECOPY DUP2 MLOAD SWAP2 MSTORE CALLER EQ PUSH2 0x35C2 JUMP JUMPDEST PUSH1 0x1 PUSH1 0x1 PUSH1 0xA0 SHL SUB DUP5 AND SWAP4 PUSH2 0x1B10 DUP6 ISZERO ISZERO PUSH2 0x362B JUMP JUMPDEST PUSH2 0x1B1B DUP4 ISZERO ISZERO PUSH2 0x4624 JUMP JUMPDEST DUP5 DUP7 MSTORE PUSH1 0x20 SWAP4 PUSH1 0x16 DUP6 MSTORE DUP4 DUP4 DUP9 KECCAK256 SLOAD LT PUSH2 0x1BC9 JUMPI POP SWAP1 PUSH2 0x1B5E DUP4 PUSH32 0x4D56BA0E2AEFAFF6B9C6FF6079C000E9E2F3E1FDB0F3DF37FC71466016DF493F SWAP6 SWAP5 SWAP4 PUSH2 0x4656 JUMP JUMPDEST DUP6 DUP8 MSTORE PUSH1 0x16 DUP5 MSTORE DUP2 DUP8 KECCAK256 PUSH2 0x1B73 DUP5 DUP3 SLOAD PUSH2 0x39EC JUMP JUMPDEST SWAP1 SSTORE DUP1 PUSH2 0x1BAC JUMPI JUMPDEST POP DUP5 DUP7 MSTORE PUSH1 0x16 DUP4 MSTORE DUP1 DUP7 KECCAK256 SLOAD ISZERO PUSH2 0x1B95 JUMPI JUMPDEST MLOAD SWAP1 DUP2 MSTORE LOG2 DUP1 RETURN JUMPDEST PUSH1 0x17 DUP4 MSTORE DUP6 DUP2 DUP2 KECCAK256 SSTORE PUSH1 0x18 DUP4 MSTORE DUP6 DUP2 DUP2 KECCAK256 SSTORE PUSH2 0x1B8D JUMP JUMPDEST DUP6 DUP8 MSTORE PUSH1 0x42 DUP5 MSTORE PUSH2 0x1BC1 DUP3 DUP9 KECCAK256 SWAP2 DUP3 SLOAD PUSH2 0x39DF JUMP JUMPDEST SWAP1 SSTORE CODESIZE PUSH2 0x1B7B JUMP JUMPDEST DUP3 MLOAD PUSH3 0x461BCD PUSH1 0xE5 SHL DUP2 MSTORE SWAP1 DUP2 ADD DUP6 SWAP1 MSTORE PUSH1 0x8 PUSH1 0x24 DUP3 ADD MSTORE PUSH8 0x2162616C616E6365 PUSH1 0xC0 SHL PUSH1 0x44 DUP3 ADD MSTORE PUSH1 0x64 SWAP1 REVERT JUMPDEST SWAP1 POP CALLVALUE PUSH2 0x6E7 JUMPI PUSH1 0x20 CALLDATASIZE PUSH1 0x3 NOT ADD SLT PUSH2 0x6E7 JUMPI DUP1 CALLDATALOAD SWAP1 PUSH2 0x1C26 PUSH1 0x0 DUP1 MLOAD PUSH1 0x20 PUSH2 0x52BC DUP4 CODECOPY DUP2 MLOAD SWAP2 MSTORE CALLER EQ PUSH2 0x35C2 JUMP JUMPDEST PUSH2 0x1C31 DUP3 ISZERO ISZERO PUSH2 0x4624 JUMP JUMPDEST DUP3 MLOAD SWAP1 PUSH4 0x70A08231 PUSH1 0xE0 SHL DUP3 MSTORE ADDRESS SWAP1 DUP3 ADD MSTORE PUSH1 0x20 DUP2 PUSH1 0x24 DUP2 PUSH20 0x570A5D26F7765ECB712C0924E4DE545B89FD43DF GAS STATICCALL SWAP3 DUP4 ISZERO PUSH2 0x1775 JUMPI POP DUP4 SWAP3 PUSH2 0x1C85 JUMPI JUMPDEST POP PUSH2 0x1C7F PUSH2 0x755 SWAP3 DUP3 GT ISZERO PUSH2 0x5289 JUMP JUMPDEST CALLER PUSH2 0x4E80 JUMP JUMPDEST SWAP2 POP PUSH1 0x20 DUP3 RETURNDATASIZE DUP3 GT PUSH2 0x1CB2 JUMPI JUMPDEST DUP2 PUSH2 0x1C9F PUSH1 0x20 SWAP4 DUP4 PUSH2 0x371B JUMP JUMPDEST DUP2 ADD SUB SLT PUSH2 0x6E7 JUMPI SWAP1 MLOAD SWAP1 PUSH2 0x1C7F PUSH2 0x1C6F JUMP JUMPDEST RETURNDATASIZE SWAP2 POP PUSH2 0x1C92 JUMP JUMPDEST POP POP CALLVALUE PUSH2 0x662 JUMPI PUSH1 0x20 CALLDATASIZE PUSH1 0x3 NOT ADD SLT PUSH2 0x662 JUMPI PUSH1 0x20 SWAP2 PUSH1 0xFF SWAP1 DUP3 SWAP1 PUSH1 0x1 PUSH1 0x1 PUSH1 0xA0 SHL SUB PUSH2 0x1CE5 PUSH2 0x3514 JUMP JUMPDEST AND DUP2 MSTORE PUSH1 0x47 DUP6 MSTORE KECCAK256 SLOAD AND SWAP1 MLOAD SWAP1 ISZERO ISZERO DUP2 MSTORE RETURN JUMPDEST SWAP2 SWAP1 POP CALLVALUE PUSH2 0x6E7 JUMPI PUSH1 0x20 DUP1 PUSH1 0x3 NOT CALLDATASIZE ADD SLT PUSH2 0xA5A JUMPI PUSH2 0x1D15 PUSH2 0x3514 JUMP JUMPDEST POP CALLER DUP5 MSTORE PUSH1 0x47 DUP2 MSTORE PUSH2 0x1D2D PUSH1 0xFF DUP4 DUP7 KECCAK256 SLOAD AND ISZERO PUSH2 0x46EE JUMP JUMPDEST DUP4 JUMPDEST DUP4 DUP2 LT PUSH2 0x1D3A JUMPI DUP5 DUP1 RETURN JUMPDEST PUSH2 0x1D5A SWAP1 CALLER DUP7 MSTORE PUSH1 0x58 DUP4 MSTORE DUP4 DUP7 KECCAK256 DUP2 DUP8 MSTORE DUP4 MSTORE DUP4 DUP7 KECCAK256 SLOAD PUSH2 0x1D5F JUMPI PUSH2 0x3688 JUMP JUMPDEST PUSH2 0x1D2F JUMP JUMPDEST PUSH2 0x1D69 DUP2 CALLER PUSH2 0x51BC JUMP JUMPDEST PUSH2 0x3688 JUMP JUMPDEST POP POP CALLVALUE PUSH2 0x662 JUMPI DUP2 PUSH1 0x3 NOT CALLDATASIZE ADD SLT PUSH2 0x662 JUMPI PUSH1 0x20 SWAP1 MLOAD PUSH1 0x3C DUP2 MSTORE RETURN JUMPDEST POP POP CALLVALUE PUSH2 0x662 JUMPI PUSH1 0x20 CALLDATASIZE PUSH1 0x3 NOT ADD SLT PUSH2 0x662 JUMPI PUSH1 0x20 SWAP2 PUSH1 0x1 PUSH1 0x1 PUSH1 0xA0 SHL SUB SWAP1 DUP3 SWAP1 DUP3 PUSH2 0x1DB4 PUSH2 0x3514 JUMP JUMPDEST AND DUP2 MSTORE PUSH1 0x43 DUP6 MSTORE KECCAK256 SLOAD AND SWAP1 MLOAD SWAP1 DUP2 MSTORE RETURN JUMPDEST POP POP CALLVALUE PUSH2 0x662 JUMPI DUP2 PUSH1 0x3 NOT CALLDATASIZE ADD SLT PUSH2 0x662 JUMPI PUSH1 0x7 SLOAD SWAP1 MLOAD PUSH1 0x1 PUSH1 0x1 PUSH1 0xA0 SHL SUB SWAP1 SWAP2 AND DUP2 MSTORE PUSH1 0x20 SWAP1 RETURN JUMPDEST SWAP2 SWAP1 POP CALLVALUE PUSH2 0x6E7 JUMPI DUP1 PUSH1 0x3 NOT CALLDATASIZE ADD SLT PUSH2 0x6E7 JUMPI PUSH1 0x20 PUSH32 0x27BF157905718B64CCF52EF99D6FB057ABEA9CDA88264EEBEE01C2DD5B07735E SWAP2 PUSH2 0x1E2D PUSH2 0x3514 JUMP JUMPDEST SWAP4 SLOAD PUSH1 0x24 CALLDATALOAD SWAP5 PUSH1 0x1 PUSH1 0x1 PUSH1 0xA0 SHL SUB SWAP2 PUSH2 0x1E49 SWAP1 DUP4 AND CALLER EQ PUSH2 0x3697 JUMP JUMPDEST AND SWAP4 DUP5 DUP7 MSTORE PUSH1 0x3D DUP4 MSTORE DUP2 DUP7 KECCAK256 SLOAD DUP2 GT PUSH1 0x0 EQ PUSH2 0x1E81 JUMPI POP DUP4 DUP6 MSTORE PUSH1 0x3D DUP3 MSTORE DUP5 DUP2 DUP2 KECCAK256 SSTORE JUMPDEST DUP4 DUP6 MSTORE PUSH1 0x3D DUP3 MSTORE DUP1 DUP6 KECCAK256 SLOAD SWAP1 MLOAD SWAP1 DUP2 MSTORE LOG2 DUP1 RETURN JUMPDEST PUSH2 0x1E8F DUP3 DUP8 KECCAK256 SWAP2 DUP3 SLOAD PUSH2 0x39EC JUMP JUMPDEST SWAP1 SSTORE PUSH2 0x1E6D JUMP JUMPDEST SWAP1 POP CALLVALUE PUSH2 0x6E7 JUMPI DUP2 PUSH1 0x3 NOT CALLDATASIZE ADD SLT PUSH2 0x6E7 JUMPI PUSH2 0x1EB0 PUSH2 0x3514 JUMP JUMPDEST PUSH2 0x1EC5 PUSH1 0x1 DUP1 PUSH1 0xA0 SHL SUB DUP1 SWAP4 SLOAD AND CALLER EQ PUSH2 0x3697 JUMP JUMPDEST AND DUP3 MSTORE PUSH1 0x3E PUSH1 0x20 MSTORE PUSH1 0x24 CALLDATALOAD SWAP1 DUP3 KECCAK256 SSTORE DUP1 RETURN JUMPDEST DUP4 SWAP1 CALLVALUE PUSH2 0x662 JUMPI PUSH1 0x20 CALLDATASIZE PUSH1 0x3 NOT ADD SLT PUSH2 0x662 JUMPI DUP1 SLOAD PUSH1 0x1 PUSH1 0x1 PUSH1 0xA0 SHL SUB AND CALLER EQ DUP1 ISZERO PUSH2 0x1F0E JUMPI JUMPDEST PUSH2 0x1F07 SWAP1 PUSH2 0x35F7 JUMP JUMPDEST CALLDATALOAD PUSH1 0x48 SSTORE DUP1 RETURN JUMPDEST POP CALLER PUSH1 0x0 DUP1 MLOAD PUSH1 0x20 PUSH2 0x52BC DUP4 CODECOPY DUP2 MLOAD SWAP2 MSTORE EQ PUSH2 0x1EFE JUMP JUMPDEST POP POP CALLVALUE PUSH2 0x662 JUMPI PUSH1 0x20 CALLDATASIZE PUSH1 0x3 NOT ADD SLT PUSH2 0x662 JUMPI PUSH1 0x20 SWAP1 PUSH2 0x1F4B PUSH2 0x1F46 PUSH2 0x3514 JUMP JUMPDEST PUSH2 0x4C26 JUMP JUMPDEST SWAP1 MLOAD SWAP1 DUP2 MSTORE RETURN JUMPDEST DUP3 DUP5 CALLVALUE PUSH2 0x840 JUMPI PUSH1 0x20 CALLDATASIZE PUSH1 0x3 NOT ADD SLT PUSH2 0x840 JUMPI PUSH2 0x1FB1 PUSH2 0x1F70 PUSH2 0x3514 JUMP JUMPDEST DUP4 PUSH5 0xE8D4A51000 SWAP4 PUSH2 0x1F9C DUP6 PUSH1 0x30 SLOAD DIV SWAP4 PUSH1 0x1 DUP1 PUSH1 0xA0 SHL SUB AND SWAP4 DUP5 DUP4 MSTORE PUSH1 0x32 PUSH1 0x20 MSTORE DUP4 DUP4 KECCAK256 SLOAD SWAP1 PUSH2 0x39EC JUMP JUMPDEST SWAP5 PUSH1 0x31 SLOAD DIV SWAP3 DUP2 MSTORE PUSH1 0x33 PUSH1 0x20 MSTORE KECCAK256 SLOAD SWAP1 PUSH2 0x39EC JUMP JUMPDEST DUP3 MLOAD SWAP2 DUP3 MSTORE PUSH1 0x20 DUP3 ADD MSTORE RETURN JUMPDEST DUP4 SWAP1 CALLVALUE PUSH2 0x662 JUMPI PUSH1 0x20 CALLDATASIZE PUSH1 0x3 NOT ADD SLT PUSH2 0x662 JUMPI PUSH2 0x1FD8 PUSH2 0x3514 JUMP JUMPDEST PUSH2 0x1FF1 PUSH1 0x0 DUP1 MLOAD PUSH1 0x20 PUSH2 0x52BC DUP4 CODECOPY DUP2 MLOAD SWAP2 MSTORE CALLER EQ PUSH2 0x35C2 JUMP JUMPDEST DUP2 SLOAD PUSH1 0x1 PUSH1 0x1 PUSH1 0xA0 SHL SUB NOT AND PUSH1 0x1 PUSH1 0x1 PUSH1 0xA0 SHL SUB SWAP2 SWAP1 SWAP2 AND OR SWAP1 SSTORE DUP1 RETURN JUMPDEST POP POP CALLVALUE PUSH2 0x662 JUMPI DUP2 PUSH1 0x3 NOT CALLDATASIZE ADD SLT PUSH2 0x662 JUMPI PUSH1 0x20 SWAP1 MLOAD PUSH1 0xA DUP2 MSTORE RETURN JUMPDEST SWAP2 SWAP1 POP CALLVALUE PUSH2 0x6E7 JUMPI PUSH1 0x20 SWAP1 DUP2 PUSH1 0x3 NOT CALLDATASIZE ADD SLT PUSH2 0xA5A JUMPI PUSH2 0x2049 PUSH2 0x3514 JUMP JUMPDEST SWAP3 PUSH1 0x1 DUP1 PUSH1 0xA0 SHL SUB PUSH1 0x3 SWAP1 PUSH2 0x2062 DUP2 DUP4 SLOAD AND CALLER EQ PUSH2 0x4488 JUMP JUMPDEST DUP1 PUSH1 0x8 SLOAD AND SWAP2 DUP5 MLOAD SWAP2 PUSH4 0x70A08231 PUSH1 0xE0 SHL DUP4 MSTORE DUP8 AND SWAP4 DUP5 DUP2 DUP5 ADD MSTORE PUSH1 0x24 SWAP1 DUP8 DUP5 DUP4 DUP2 DUP9 GAS STATICCALL SWAP4 DUP5 ISZERO PUSH2 0x2286 JUMPI DUP11 SWAP5 PUSH2 0x2253 JUMPI JUMPDEST POP SWAP8 SWAP4 SWAP3 SWAP2 SWAP1 DUP10 SWAP9 DUP11 SWAP6 JUMPDEST DUP5 DUP8 LT PUSH2 0x20E5 JUMPI POP POP POP POP POP POP POP DUP4 PUSH2 0x20B7 JUMPI DUP5 DUP1 RETURN JUMPDEST PUSH2 0xFE6 SWAP3 DUP3 SWAP2 DUP7 MSTORE PUSH1 0x34 DUP2 MSTORE DUP6 DUP3 DUP2 KECCAK256 SSTORE PUSH1 0x35 DUP2 MSTORE DUP6 DUP3 DUP2 KECCAK256 SSTORE PUSH1 0x36 DUP2 MSTORE DUP6 DUP3 DUP2 KECCAK256 SSTORE MSTORE DUP4 KECCAK256 SWAP2 DUP3 SLOAD PUSH2 0x39DF JUMP JUMPDEST SWAP1 SWAP2 SWAP3 SWAP4 SWAP5 SWAP6 SWAP10 DUP12 PUSH2 0x2120 DUP12 DUP14 DUP13 MLOAD DUP1 SWAP4 DUP2 SWAP3 PUSH4 0x2F745C59 PUSH1 0xE0 SHL DUP4 MSTORE DUP9 DUP11 DUP5 ADD PUSH1 0x20 SWAP1 SWAP4 SWAP3 SWAP2 SWAP4 PUSH1 0x40 DUP2 ADD SWAP5 PUSH1 0x1 DUP1 PUSH1 0xA0 SHL SUB AND DUP2 MSTORE ADD MSTORE JUMP JUMPDEST SUB DUP2 DUP13 GAS STATICCALL SWAP1 DUP2 ISZERO PUSH2 0x221C JUMPI DUP3 SWAP2 PUSH2 0x2226 JUMPI JUMPDEST POP DUP11 MLOAD SWAP1 PUSH4 0xFCF49ADF PUSH1 0xE0 SHL DUP3 MSTORE DUP6 DUP3 ADD MSTORE DUP12 DUP2 DUP8 DUP2 DUP13 GAS STATICCALL SWAP1 DUP2 ISZERO PUSH2 0x221C JUMPI DUP3 SWAP2 DUP14 SWAP2 DUP14 SWAP5 SWAP2 PUSH2 0x21EC JUMPI JUMPDEST POP PUSH1 0x1 DUP2 SUB PUSH2 0x2191 JUMPI POP DUP11 DUP3 MSTORE PUSH1 0x34 SWAP1 MSTORE KECCAK256 SLOAD PUSH2 0x2186 SWAP2 PUSH2 0x2180 SWAP2 SWAP1 PUSH2 0x39DF JUMP JUMPDEST SWAP11 PUSH2 0x3688 JUMP JUMPDEST SWAP6 SWAP5 SWAP4 SWAP3 SWAP2 SWAP1 PUSH2 0x20A0 JUMP JUMPDEST SWAP2 SWAP3 POP POP PUSH1 0x2 DUP2 SUB PUSH2 0x21B6 JUMPI POP PUSH2 0x2186 SWAP2 DUP11 DUP3 PUSH1 0x35 DUP15 DUP14 PUSH2 0x2180 SWAP7 MSTORE MSTORE KECCAK256 SLOAD SWAP1 PUSH2 0x39DF JUMP JUMPDEST SWAP2 SWAP12 SWAP2 DUP7 EQ PUSH2 0x21CA JUMPI JUMPDEST POP PUSH2 0x2186 SWAP1 PUSH2 0x3688 JUMP JUMPDEST PUSH2 0x2186 SWAP2 SWAP12 DUP11 DUP3 PUSH1 0x36 DUP15 DUP14 PUSH2 0x21E3 SWAP7 MSTORE MSTORE KECCAK256 SLOAD SWAP1 PUSH2 0x39DF JUMP JUMPDEST SWAP11 SWAP1 POP DUP12 PUSH2 0x21C0 JUMP JUMPDEST SWAP4 POP POP DUP3 DUP2 RETURNDATASIZE DUP4 GT PUSH2 0x2215 JUMPI JUMPDEST PUSH2 0x2203 DUP2 DUP4 PUSH2 0x371B JUMP JUMPDEST DUP2 ADD SUB SLT PUSH2 0x840 JUMPI DUP12 DUP12 SWAP3 MLOAD CODESIZE PUSH2 0x215F JUMP JUMPDEST POP RETURNDATASIZE PUSH2 0x21F9 JUMP JUMPDEST DUP12 MLOAD RETURNDATASIZE DUP5 DUP3 RETURNDATACOPY RETURNDATASIZE SWAP1 REVERT JUMPDEST SWAP1 POP DUP12 DUP2 DUP2 RETURNDATASIZE DUP4 GT PUSH2 0x224C JUMPI JUMPDEST PUSH2 0x223D DUP2 DUP4 PUSH2 0x371B JUMP JUMPDEST DUP2 ADD SUB SLT PUSH2 0x662 JUMPI MLOAD CODESIZE PUSH2 0x2133 JUMP JUMPDEST POP RETURNDATASIZE PUSH2 0x2233 JUMP JUMPDEST SWAP1 SWAP4 POP DUP8 DUP2 DUP2 RETURNDATASIZE DUP4 GT PUSH2 0x227F JUMPI JUMPDEST PUSH2 0x226B DUP2 DUP4 PUSH2 0x371B JUMP JUMPDEST DUP2 ADD SUB SLT PUSH2 0x227B JUMPI MLOAD SWAP3 CODESIZE PUSH2 0x2095 JUMP JUMPDEST DUP10 DUP1 REVERT JUMPDEST POP RETURNDATASIZE PUSH2 0x2261 JUMP JUMPDEST DUP8 MLOAD RETURNDATASIZE DUP13 DUP3 RETURNDATACOPY RETURNDATASIZE SWAP1 REVERT JUMPDEST POP POP CALLVALUE PUSH2 0x662 JUMPI PUSH1 0x20 CALLDATASIZE PUSH1 0x3 NOT ADD SLT PUSH2 0x662 JUMPI PUSH1 0x20 SWAP2 DUP2 SWAP1 PUSH1 0x1 PUSH1 0x1 PUSH1 0xA0 SHL SUB PUSH2 0x22B8 PUSH2 0x3514 JUMP JUMPDEST AND DUP2 MSTORE PUSH1 0x3B DUP5 MSTORE KECCAK256 SLOAD SWAP1 MLOAD SWAP1 DUP2 MSTORE RETURN JUMPDEST DUP4 SWAP2 POP CALLVALUE PUSH2 0x662 JUMPI PUSH1 0x20 CALLDATASIZE PUSH1 0x3 NOT ADD SLT PUSH2 0x662 JUMPI CALLDATALOAD SWAP1 PUSH1 0x6 DUP3 LT ISZERO PUSH2 0x840 JUMPI POP PUSH1 0xFF PUSH1 0x20 SWAP3 PUSH1 0xF8 DUP4 PUSH1 0x5 SHR PUSH1 0x4F ADD SLOAD SWAP2 MLOAD SWAP4 PUSH1 0x3 SHL AND SHR AND DUP2 MSTORE RETURN JUMPDEST POP POP CALLVALUE PUSH2 0x662 JUMPI DUP2 PUSH1 0x3 NOT CALLDATASIZE ADD SLT PUSH2 0x662 JUMPI PUSH1 0x20 SWAP1 MLOAD PUSH20 0xA0F045CDE45CA1AEE2033356170B46A1FF3B7202 DUP2 MSTORE RETURN JUMPDEST SWAP1 POP CALLVALUE PUSH2 0x6E7 JUMPI PUSH1 0x20 CALLDATASIZE PUSH1 0x3 NOT ADD SLT PUSH2 0x6E7 JUMPI CALLDATALOAD PUSH1 0xB SLOAD DUP2 LT ISZERO PUSH2 0x6E7 JUMPI PUSH1 0xB PUSH1 0x20 SWAP4 MSTORE PUSH32 0x175B7A638427703F0DBE7BB9BBF987A2551717B34E79F33B5B1008D1FA01DB9 ADD SLOAD SWAP1 MLOAD SWAP1 DUP2 MSTORE RETURN JUMPDEST SWAP1 POP CALLVALUE PUSH2 0x6E7 JUMPI PUSH1 0x20 CALLDATASIZE PUSH1 0x3 NOT ADD SLT PUSH2 0x6E7 JUMPI CALLDATALOAD PUSH1 0x3 DUP2 LT ISZERO PUSH2 0x6E7 JUMPI PUSH1 0x20 SWAP3 POP PUSH1 0x19 ADD SLOAD SWAP1 MLOAD SWAP1 DUP2 MSTORE RETURN JUMPDEST SWAP2 SWAP1 POP CALLVALUE PUSH2 0x6E7 JUMPI CALLDATASIZE PUSH1 0x3 NOT ADD SLT PUSH2 0x662 JUMPI PUSH2 0x755 SWAP1 PUSH2 0x23E0 PUSH2 0x23CE PUSH2 0x3514 JUMP JUMPDEST SWAP2 SLOAD PUSH1 0x1 PUSH1 0x1 PUSH1 0xA0 SHL SUB AND CALLER EQ PUSH2 0x3697 JUMP JUMPDEST PUSH1 0x24 CALLDATALOAD SWAP1 PUSH2 0x3B1C JUMP JUMPDEST POP POP CALLVALUE PUSH2 0x662 JUMPI DUP1 PUSH1 0x3 NOT CALLDATASIZE ADD SLT PUSH2 0x662 JUMPI PUSH2 0x2403 PUSH2 0x3514 JUMP JUMPDEST SWAP1 PUSH1 0x24 CALLDATALOAD SWAP2 DUP3 ISZERO ISZERO DUP1 SWAP4 SUB PUSH2 0xA5A JUMPI PUSH2 0x242B PUSH1 0x0 DUP1 MLOAD PUSH1 0x20 PUSH2 0x52BC DUP4 CODECOPY DUP2 MLOAD SWAP2 MSTORE CALLER EQ PUSH2 0x35C2 JUMP JUMPDEST PUSH1 0x1 DUP1 PUSH1 0xA0 SHL SUB AND DUP4 MSTORE PUSH1 0x47 PUSH1 0x20 MSTORE DUP3 KECCAK256 SWAP1 PUSH1 0xFF DUP1 NOT DUP4 SLOAD AND SWAP2 AND OR SWAP1 SSTORE DUP1 RETURN JUMPDEST POP POP CALLVALUE PUSH2 0x662 JUMPI PUSH1 0x20 CALLDATASIZE PUSH1 0x3 NOT ADD SLT PUSH2 0x662 JUMPI PUSH1 0x20 SWAP2 DUP2 SWAP1 PUSH1 0x1 PUSH1 0x1 PUSH1 0xA0 SHL SUB PUSH2 0x2474 PUSH2 0x3514 JUMP JUMPDEST AND DUP2 MSTORE PUSH1 0x36 DUP5 MSTORE KECCAK256 SLOAD SWAP1 MLOAD SWAP1 DUP2 MSTORE RETURN JUMPDEST DUP4 DUP4 DUP2 PUSH1 0x3 NOT CALLDATASIZE ADD SLT PUSH2 0x662 JUMPI PUSH1 0x2 DUP3 SLOAD EQ PUSH2 0x25B2 JUMPI PUSH1 0x2 DUP3 SSTORE CALLER DUP3 MSTORE PUSH1 0x20 SWAP1 PUSH1 0x47 DUP3 MSTORE PUSH2 0x24B8 PUSH1 0xFF DUP3 DUP6 KECCAK256 SLOAD AND ISZERO PUSH2 0x46EE JUMP JUMPDEST CALLER DUP4 MSTORE PUSH1 0x2E DUP3 MSTORE PUSH1 0xFF DUP2 DUP5 KECCAK256 SLOAD AND SWAP2 DUP3 ISZERO PUSH2 0x258B JUMPI PUSH1 0x9 SLOAD CALLVALUE LT PUSH2 0x2564 JUMPI PUSH2 0x24DF DUP4 PUSH2 0x365F JUMP JUMPDEST PUSH1 0x8 DUP2 LT ISZERO PUSH2 0x2551 JUMPI PUSH1 0x25 ADD SLOAD CALLER DUP6 MSTORE PUSH1 0x2F DUP3 MSTORE DUP3 DUP6 KECCAK256 SLOAD PUSH2 0x2500 SWAP2 PUSH2 0x39EC JUMP JUMPDEST SWAP3 DUP4 PUSH2 0x250F JUMPI JUMPDEST DUP5 PUSH1 0x1 DUP2 SSTORE DUP1 RETURN JUMPDEST PUSH2 0x2518 SWAP1 PUSH2 0x365F JUMP JUMPDEST PUSH1 0x8 DUP2 LT ISZERO PUSH2 0x2551 JUMPI PUSH2 0x2545 SWAP4 SWAP5 SWAP6 POP SWAP1 DUP3 SWAP2 PUSH1 0x25 ADD SLOAD CALLER DUP8 MSTORE PUSH1 0x2F DUP3 MSTORE DUP3 DUP8 KECCAK256 SSTORE MSTORE DUP4 KECCAK256 SWAP2 DUP3 SLOAD PUSH2 0x39DF JUMP JUMPDEST SWAP1 SSTORE DUP1 DUP3 DUP1 DUP1 DUP1 PUSH2 0x2507 JUMP JUMPDEST PUSH4 0x4E487B71 PUSH1 0xE0 SHL DUP6 MSTORE PUSH1 0x32 DUP7 MSTORE PUSH1 0x24 DUP6 REVERT JUMPDEST DUP5 PUSH1 0x64 SWAP3 MLOAD SWAP2 PUSH3 0x461BCD PUSH1 0xE5 SHL DUP4 MSTORE DUP2 DUP4 ADD MSTORE PUSH1 0x24 DUP3 ADD MSTORE PUSH4 0x21666565 PUSH1 0xE0 SHL PUSH1 0x44 DUP3 ADD MSTORE REVERT JUMPDEST DUP5 SWAP1 PUSH1 0x64 SWAP3 MLOAD SWAP2 PUSH3 0x461BCD PUSH1 0xE5 SHL DUP4 MSTORE DUP3 ADD MSTORE PUSH1 0x2 PUSH1 0x24 DUP3 ADD MSTORE PUSH2 0x859 PUSH1 0xF2 SHL PUSH1 0x44 DUP3 ADD MSTORE REVERT JUMPDEST MLOAD PUSH3 0x461BCD PUSH1 0xE5 SHL DUP2 MSTORE PUSH1 0x20 DUP2 DUP5 ADD MSTORE PUSH1 0x1F PUSH1 0x24 DUP3 ADD MSTORE PUSH32 0x5265656E7472616E637947756172643A207265656E7472616E742063616C6C00 PUSH1 0x44 DUP3 ADD MSTORE PUSH1 0x64 SWAP1 REVERT JUMPDEST POP POP CALLVALUE PUSH2 0x662 JUMPI DUP1 PUSH1 0x3 NOT CALLDATASIZE ADD SLT PUSH2 0x662 JUMPI PUSH2 0x755 SWAP1 PUSH2 0x2641 PUSH1 0xFF PUSH2 0x2617 PUSH2 0x3514 JUMP JUMPDEST SWAP3 PUSH1 0x1 DUP1 PUSH1 0xA0 SHL SUB PUSH2 0x262E DUP2 PUSH1 0x3 SLOAD AND CALLER EQ PUSH2 0x4488 JUMP JUMPDEST DUP5 AND DUP7 MSTORE PUSH1 0x47 PUSH1 0x20 MSTORE DUP6 KECCAK256 SLOAD AND ISZERO PUSH2 0x46EE JUMP JUMPDEST PUSH1 0x24 CALLDATALOAD SWAP1 PUSH2 0x51BC JUMP JUMPDEST POP POP CALLVALUE PUSH2 0x662 JUMPI PUSH1 0x20 CALLDATASIZE PUSH1 0x3 NOT ADD SLT PUSH2 0x662 JUMPI PUSH1 0x20 SWAP2 DUP2 SWAP1 PUSH1 0x1 PUSH1 0x1 PUSH1 0xA0 SHL SUB PUSH2 0x2672 PUSH2 0x3514 JUMP JUMPDEST AND DUP2 MSTORE PUSH1 0x33 DUP5 MSTORE KECCAK256 SLOAD SWAP1 MLOAD SWAP1 DUP2 MSTORE RETURN JUMPDEST SWAP3 SWAP2 POP CALLVALUE PUSH2 0xE3A JUMPI PUSH1 0x20 CALLDATASIZE PUSH1 0x3 NOT ADD SLT PUSH2 0xE3A JUMPI PUSH2 0x269E PUSH2 0x3514 JUMP JUMPDEST PUSH2 0x26B3 PUSH1 0x1 DUP1 PUSH1 0xA0 SHL SUB DUP1 SWAP4 SLOAD AND CALLER EQ PUSH2 0x3697 JUMP JUMPDEST AND DUP3 MSTORE PUSH1 0x42 PUSH1 0x20 MSTORE DUP2 KECCAK256 SSTORE DUP1 RETURN JUMPDEST SWAP1 POP CALLVALUE PUSH2 0x6E7 JUMPI DUP2 PUSH1 0x3 NOT CALLDATASIZE ADD SLT PUSH2 0x6E7 JUMPI PUSH2 0x26E2 PUSH2 0x191C SWAP3 PUSH2 0x18E9 PUSH2 0x3514 JUMP JUMPDEST AND DUP6 MSTORE PUSH1 0x46 PUSH1 0x20 MSTORE DUP5 KECCAK256 SWAP2 AND SWAP1 PUSH2 0x39F9 JUMP JUMPDEST DUP4 SWAP1 CALLVALUE PUSH2 0x662 JUMPI PUSH1 0x20 CALLDATASIZE PUSH1 0x3 NOT ADD SLT PUSH2 0x662 JUMPI PUSH2 0x755 SWAP1 PUSH2 0x2716 PUSH2 0x23CE PUSH2 0x3514 JUMP JUMPDEST PUSH2 0x373D JUMP JUMPDEST POP POP CALLVALUE PUSH2 0x662 JUMPI DUP2 PUSH1 0x3 NOT CALLDATASIZE ADD SLT PUSH2 0x662 JUMPI PUSH1 0x20 SWAP1 MLOAD PUSH1 0x14 DUP2 MSTORE RETURN JUMPDEST POP POP CALLVALUE PUSH2 0x662 JUMPI DUP2 PUSH1 0x3 NOT CALLDATASIZE ADD SLT PUSH2 0x662 JUMPI PUSH1 0x6 SLOAD SWAP1 MLOAD PUSH1 0x1 PUSH1 0x1 PUSH1 0xA0 SHL SUB SWAP1 SWAP2 AND DUP2 MSTORE PUSH1 0x20 SWAP1 RETURN JUMPDEST POP POP CALLVALUE PUSH2 0x662 JUMPI DUP2 PUSH1 0x3 NOT CALLDATASIZE ADD SLT PUSH2 0x662 JUMPI PUSH1 0x5 SLOAD SWAP1 MLOAD PUSH1 0x1 PUSH1 0x1 PUSH1 0xA0 SHL SUB SWAP1 SWAP2 AND DUP2 MSTORE PUSH1 0x20 SWAP1 RETURN JUMPDEST POP POP CALLVALUE PUSH2 0x662 JUMPI PUSH1 0x20 CALLDATASIZE PUSH1 0x3 NOT ADD SLT PUSH2 0x662 JUMPI PUSH1 0x20 SWAP2 DUP2 SWAP1 PUSH1 0x1 PUSH1 0x1 PUSH1 0xA0 SHL SUB PUSH2 0x27B1 PUSH2 0x3514 JUMP JUMPDEST AND DUP2 MSTORE PUSH1 0x3E DUP5 MSTORE KECCAK256 SLOAD SWAP1 MLOAD SWAP1 DUP2 MSTORE RETURN JUMPDEST DUP4 CALLVALUE PUSH2 0x840 JUMPI PUSH1 0x20 CALLDATASIZE PUSH1 0x3 NOT ADD SLT PUSH2 0x840 JUMPI PUSH2 0x27DB PUSH2 0x3514 JUMP JUMPDEST PUSH2 0x27F4 PUSH1 0x0 DUP1 MLOAD PUSH1 0x20 PUSH2 0x52BC DUP4 CODECOPY DUP2 MLOAD SWAP2 MSTORE CALLER EQ PUSH2 0x35C2 JUMP JUMPDEST PUSH1 0x1 PUSH1 0x1 PUSH1 0xA0 SHL SUB AND PUSH2 0x2808 DUP2 ISZERO ISZERO PUSH2 0x362B JUMP JUMPDEST PUSH1 0x1 PUSH1 0x1 PUSH1 0x60 SHL SUB PUSH1 0xA0 SHL DUP2 DUP2 PUSH1 0x8 SLOAD AND OR PUSH1 0x8 SSTORE PUSH1 0x2 SLOAD AND OR PUSH1 0x2 SSTORE DUP1 RETURN JUMPDEST POP POP CALLVALUE PUSH2 0x662 JUMPI DUP2 PUSH1 0x3 NOT CALLDATASIZE ADD SLT PUSH2 0x662 JUMPI PUSH1 0x20 SWAP1 PUSH1 0x14 SLOAD SWAP1 MLOAD SWAP1 DUP2 MSTORE RETURN JUMPDEST POP POP CALLVALUE PUSH2 0x662 JUMPI DUP2 PUSH1 0x3 NOT CALLDATASIZE ADD SLT PUSH2 0x662 JUMPI PUSH1 0x20 SWAP1 PUSH1 0x31 SLOAD SWAP1 MLOAD SWAP1 DUP2 MSTORE RETURN JUMPDEST DUP4 CALLVALUE PUSH2 0x840 JUMPI PUSH1 0x60 CALLDATASIZE PUSH1 0x3 NOT ADD SLT PUSH2 0x840 JUMPI PUSH2 0x2880 PUSH2 0x3514 JUMP JUMPDEST PUSH2 0x2888 PUSH2 0x352A JUMP JUMPDEST PUSH1 0x1 PUSH1 0x1 PUSH1 0xA0 SHL SUB PUSH1 0x44 CALLDATALOAD DUP2 DUP2 AND SWAP4 SWAP2 SWAP3 SWAP1 DUP5 SWAP1 SUB PUSH2 0x1320 JUMPI DUP3 DUP1 SWAP3 PUSH2 0x28BD PUSH1 0x0 DUP1 MLOAD PUSH1 0x20 PUSH2 0x52BC DUP4 CODECOPY DUP2 MLOAD SWAP2 MSTORE CALLER EQ PUSH2 0x35C2 JUMP JUMPDEST AND DUP1 PUSH2 0x2922 JUMPI JUMPDEST POP AND DUP1 PUSH2 0x28FF JUMPI JUMPDEST POP PUSH1 0x5 SLOAD SWAP1 DUP2 AND ISZERO DUP1 PUSH2 0x28F6 JUMPI JUMPDEST PUSH2 0x28E2 JUMPI DUP3 DUP1 RETURN JUMPDEST PUSH1 0x1 PUSH1 0x1 PUSH1 0xA0 SHL SUB NOT AND OR PUSH1 0x5 SSTORE DUP2 DUP1 DUP3 DUP1 RETURN JUMPDEST POP DUP2 ISZERO ISZERO PUSH2 0x28DA JUMP JUMPDEST PUSH1 0x1 PUSH1 0x1 PUSH1 0x60 SHL SUB PUSH1 0xA0 SHL DUP2 DUP2 PUSH1 0x8 SLOAD AND OR PUSH1 0x8 SSTORE PUSH1 0x2 SLOAD AND OR PUSH1 0x2 SSTORE DUP4 PUSH2 0x28CC JUMP JUMPDEST PUSH1 0x1 PUSH1 0x1 PUSH1 0x60 SHL SUB PUSH1 0xA0 SHL DUP2 DUP2 PUSH1 0x7 SLOAD AND OR PUSH1 0x7 SSTORE PUSH1 0x1 SLOAD AND OR PUSH1 0x1 SSTORE DUP6 PUSH2 0x28C4 JUMP JUMPDEST POP POP CALLVALUE PUSH2 0x662 JUMPI DUP2 PUSH1 0x3 NOT CALLDATASIZE ADD SLT PUSH2 0x662 JUMPI PUSH1 0x20 SWAP1 MLOAD PUSH20 0x10ED43C718714EB63D5AA57B78B54704E256024E DUP2 MSTORE RETURN JUMPDEST POP POP CALLVALUE PUSH2 0x662 JUMPI DUP2 PUSH1 0x3 NOT CALLDATASIZE ADD SLT PUSH2 0x662 JUMPI PUSH1 0x20 SWAP1 MLOAD PUSH6 0x2D79883D2000 DUP2 MSTORE RETURN JUMPDEST SWAP1 POP CALLVALUE PUSH2 0x6E7 JUMPI DUP2 PUSH1 0x3 NOT CALLDATASIZE ADD SLT PUSH2 0x6E7 JUMPI CALLDATALOAD PUSH1 0xFF DUP2 AND DUP1 SWAP2 SUB PUSH2 0x6E7 JUMPI DUP2 PUSH1 0x20 SWAP4 PUSH1 0xFF SWAP3 PUSH2 0x29C2 PUSH2 0x352A JUMP JUMPDEST SWAP1 DUP3 MSTORE PUSH1 0x2D DUP7 MSTORE DUP3 DUP3 KECCAK256 PUSH1 0x1 PUSH1 0x1 PUSH1 0xA0 SHL SUB SWAP1 SWAP2 AND DUP3 MSTORE DUP6 MSTORE KECCAK256 SLOAD SWAP2 MLOAD SWAP2 AND ISZERO ISZERO DUP2 MSTORE RETURN JUMPDEST DUP4 SWAP1 PUSH1 0x20 CALLDATASIZE PUSH1 0x3 NOT ADD SLT PUSH2 0x662 JUMPI PUSH2 0x755 SWAP1 PUSH2 0x2A0E PUSH1 0x1 DUP1 PUSH1 0xA0 SHL SUB PUSH1 0x3 SLOAD AND CALLER EQ PUSH2 0x4488 JUMP JUMPDEST CALLDATALOAD PUSH2 0x471F JUMP JUMPDEST SWAP1 POP CALLVALUE PUSH2 0x6E7 JUMPI PUSH1 0x20 CALLDATASIZE PUSH1 0x3 NOT ADD SLT PUSH2 0x6E7 JUMPI DUP1 CALLDATALOAD SWAP1 DUP2 LT ISZERO PUSH2 0x6E7 JUMPI PUSH1 0x20 SWAP3 POP PUSH1 0x10 ADD SLOAD SWAP1 MLOAD SWAP1 DUP2 MSTORE RETURN JUMPDEST POP POP CALLVALUE PUSH2 0x662 JUMPI DUP2 PUSH1 0x3 NOT CALLDATASIZE ADD SLT PUSH2 0x662 JUMPI PUSH1 0x20 SWAP1 MLOAD PUSH13 0x1431E0FAE6D7217CAA0000000 DUP2 MSTORE RETURN JUMPDEST POP POP CALLVALUE PUSH2 0x662 JUMPI DUP2 PUSH1 0x3 NOT CALLDATASIZE ADD SLT PUSH2 0x662 JUMPI PUSH1 0x20 SWAP1 PUSH1 0x9 SLOAD SWAP1 MLOAD SWAP1 DUP2 MSTORE RETURN JUMPDEST SWAP1 POP CALLVALUE PUSH2 0x6E7 JUMPI PUSH1 0x20 CALLDATASIZE PUSH1 0x3 NOT ADD SLT PUSH2 0x6E7 JUMPI CALLDATALOAD PUSH1 0x8 DUP2 LT ISZERO PUSH2 0x6E7 JUMPI PUSH1 0x20 SWAP3 POP PUSH1 0x1D ADD SLOAD SWAP1 MLOAD SWAP1 DUP2 MSTORE RETURN JUMPDEST SWAP1 POP DUP3 CALLVALUE PUSH2 0x840 JUMPI DUP3 PUSH1 0x3 NOT CALLDATASIZE ADD SLT PUSH2 0x840 JUMPI PUSH2 0x2ACE PUSH2 0x3514 JUMP JUMPDEST SWAP1 PUSH1 0x24 CALLDATALOAD SWAP2 PUSH1 0x1 DUP1 PUSH1 0xA0 SHL SUB AND SWAP2 DUP3 DUP3 MSTORE PUSH1 0x20 SWAP4 PUSH1 0x58 DUP6 MSTORE DUP6 DUP4 KECCAK256 DUP3 DUP5 MSTORE DUP6 MSTORE DUP6 DUP4 KECCAK256 SLOAD SWAP1 DUP1 DUP4 LT ISZERO PUSH2 0x2B4D JUMPI POP SWAP1 PUSH2 0x2B31 PUSH5 0xE8D4A51000 PUSH2 0x2B17 DUP9 SWAP6 SWAP5 DUP5 PUSH1 0xC ADD SLOAD SWAP1 PUSH2 0x3AE9 JUMP JUMPDEST DIV DUP6 DUP5 MSTORE PUSH1 0x59 DUP8 MSTORE DUP5 DUP5 KECCAK256 DUP4 DUP6 MSTORE DUP8 MSTORE DUP5 DUP5 KECCAK256 SLOAD SWAP1 PUSH2 0x39EC JUMP JUMPDEST SWAP4 DUP3 MSTORE PUSH1 0x58 DUP6 MSTORE DUP3 DUP3 KECCAK256 SWAP1 DUP3 MSTORE DUP5 MSTORE KECCAK256 SLOAD SWAP2 DUP4 MLOAD SWAP3 DUP4 MSTORE DUP3 ADD MSTORE RETURN JUMPDEST PUSH4 0x4E487B71 PUSH1 0xE0 SHL DUP5 MSTORE PUSH1 0x32 SWAP1 MSTORE PUSH1 0x24 DUP4 REVERT JUMPDEST POP POP CALLVALUE PUSH2 0x662 JUMPI PUSH1 0x20 CALLDATASIZE PUSH1 0x3 NOT ADD SLT PUSH2 0x662 JUMPI PUSH1 0x20 SWAP2 PUSH1 0xFF SWAP1 DUP3 SWAP1 PUSH1 0x1 PUSH1 0x1 PUSH1 0xA0 SHL SUB PUSH2 0x2B8B PUSH2 0x3514 JUMP JUMPDEST AND DUP2 MSTORE PUSH1 0x45 DUP6 MSTORE KECCAK256 SLOAD AND SWAP1 MLOAD SWAP1 DUP2 MSTORE RETURN JUMPDEST SWAP1 POP CALLVALUE PUSH2 0x6E7 JUMPI DUP2 PUSH1 0x3 NOT CALLDATASIZE ADD SLT PUSH2 0x6E7 JUMPI PUSH1 0x20 PUSH32 0x27BF157905718B64CCF52EF99D6FB057ABEA9CDA88264EEBEE01C2DD5B07735E SWAP2 PUSH2 0x2BDA PUSH2 0x3514 JUMP JUMPDEST PUSH2 0x2BEF PUSH1 0x1 DUP1 PUSH1 0xA0 SHL SUB DUP1 SWAP4 SLOAD AND CALLER EQ PUSH2 0x3697 JUMP JUMPDEST AND SWAP3 DUP4 DUP6 MSTORE PUSH1 0x3D DUP3 MSTORE DUP1 DUP6 KECCAK256 PUSH2 0x2C08 PUSH1 0x24 CALLDATALOAD DUP3 SLOAD PUSH2 0x39DF JUMP JUMPDEST SWAP1 SSTORE DUP4 DUP6 MSTORE PUSH1 0x3D DUP3 MSTORE DUP1 DUP6 KECCAK256 SLOAD SWAP1 MLOAD SWAP1 DUP2 MSTORE LOG2 DUP1 RETURN JUMPDEST SWAP1 POP CALLVALUE PUSH2 0x6E7 JUMPI PUSH1 0x20 CALLDATASIZE PUSH1 0x3 NOT ADD SLT PUSH2 0x6E7 JUMPI DUP1 CALLDATALOAD SWAP1 PUSH2 0x2C4D PUSH1 0x0 DUP1 MLOAD PUSH1 0x20 PUSH2 0x52BC DUP4 CODECOPY DUP2 MLOAD SWAP2 MSTORE CALLER EQ PUSH2 0x35C2 JUMP JUMPDEST PUSH2 0x2C58 DUP3 ISZERO ISZERO PUSH2 0x4624 JUMP JUMPDEST PUSH1 0x1 SLOAD DUP4 MLOAD PUSH4 0x70A08231 PUSH1 0xE0 SHL DUP2 MSTORE ADDRESS SWAP3 DUP2 ADD SWAP3 SWAP1 SWAP3 MSTORE PUSH1 0x1 PUSH1 0x1 PUSH1 0xA0 SHL SUB AND SWAP1 PUSH1 0x20 DUP2 PUSH1 0x24 DUP2 DUP6 GAS STATICCALL SWAP4 DUP5 ISZERO PUSH2 0x2CDD JUMPI POP DUP5 SWAP4 PUSH2 0x2CA8 JUMPI JUMPDEST POP PUSH2 0x2CA1 PUSH2 0x755 SWAP4 DUP4 GT ISZERO PUSH2 0x5289 JUMP JUMPDEST CALLER SWAP1 PUSH2 0x4F4B JUMP JUMPDEST SWAP3 POP PUSH1 0x20 DUP4 RETURNDATASIZE DUP3 GT PUSH2 0x2CD5 JUMPI JUMPDEST DUP2 PUSH2 0x2CC2 PUSH1 0x20 SWAP4 DUP4 PUSH2 0x371B JUMP JUMPDEST DUP2 ADD SUB SLT PUSH2 0xA5A JUMPI SWAP2 MLOAD SWAP2 PUSH2 0x2CA1 PUSH2 0x2C91 JUMP JUMPDEST RETURNDATASIZE SWAP2 POP PUSH2 0x2CB5 JUMP JUMPDEST MLOAD RETURNDATASIZE DUP7 DUP3 RETURNDATACOPY RETURNDATASIZE SWAP1 REVERT JUMPDEST SWAP2 SWAP1 POP CALLVALUE PUSH2 0x6E7 JUMPI PUSH1 0x20 SWAP1 DUP2 PUSH1 0x3 NOT CALLDATASIZE ADD SLT PUSH2 0xA5A JUMPI PUSH2 0x2D04 PUSH2 0x3514 JUMP JUMPDEST SWAP3 PUSH1 0x1 DUP1 PUSH1 0xA0 SHL SUB PUSH1 0x3 SWAP1 PUSH2 0x2D1D DUP2 DUP4 SLOAD AND CALLER EQ PUSH2 0x4488 JUMP JUMPDEST DUP1 PUSH1 0x8 SLOAD AND SWAP2 DUP5 MLOAD SWAP2 PUSH4 0x70A08231 PUSH1 0xE0 SHL DUP4 MSTORE DUP8 AND SWAP4 DUP5 DUP2 DUP5 ADD MSTORE PUSH1 0x24 SWAP1 DUP8 DUP5 DUP4 DUP2 DUP9 GAS STATICCALL SWAP4 DUP5 ISZERO PUSH2 0x2286 JUMPI DUP11 SWAP5 PUSH2 0x2F3B JUMPI JUMPDEST POP SWAP8 SWAP4 SWAP3 SWAP2 SWAP1 DUP10 SWAP9 DUP11 SWAP6 JUMPDEST DUP5 DUP8 LT PUSH2 0x2DA5 JUMPI POP POP POP POP POP POP POP DUP4 PUSH2 0x2D72 JUMPI DUP5 DUP1 RETURN JUMPDEST PUSH2 0xFE6 SWAP3 DUP3 SWAP2 PUSH1 0x19 SLOAD SWAP1 DUP8 MSTORE PUSH1 0x1C DUP3 MSTORE DUP3 DUP8 KECCAK256 SSTORE PUSH1 0x1A SLOAD PUSH1 0x1 DUP4 DUP9 KECCAK256 ADD SSTORE PUSH1 0x1B SLOAD PUSH1 0x2 DUP4 DUP9 KECCAK256 ADD SSTORE MSTORE DUP4 KECCAK256 SWAP2 DUP3 SLOAD PUSH2 0x39DF JUMP JUMPDEST SWAP1 SWAP2 SWAP3 SWAP4 SWAP5 SWAP6 SWAP10 DUP12 PUSH2 0x2DE0 DUP12 DUP14 DUP13 MLOAD DUP1 SWAP4 DUP2 SWAP3 PUSH4 0x2F745C59 PUSH1 0xE0 SHL DUP4 MSTORE DUP9 DUP11 DUP5 ADD PUSH1 0x20 SWAP1 SWAP4 SWAP3 SWAP2 SWAP4 PUSH1 0x40 DUP2 ADD SWAP5 PUSH1 0x1 DUP1 PUSH1 0xA0 SHL SUB AND DUP2 MSTORE ADD MSTORE JUMP JUMPDEST SUB DUP2 DUP13 GAS STATICCALL SWAP1 DUP2 ISZERO PUSH2 0x221C JUMPI DUP3 SWAP2 PUSH2 0x2F0E JUMPI JUMPDEST POP DUP11 MLOAD SWAP1 PUSH4 0xFCF49ADF PUSH1 0xE0 SHL DUP3 MSTORE DUP6 DUP3 ADD MSTORE DUP12 DUP2 DUP8 DUP2 DUP13 GAS STATICCALL SWAP1 DUP2 ISZERO PUSH2 0x221C JUMPI SWAP2 DUP13 DUP13 SWAP3 DUP13 SWAP5 DUP4 SWAP2 PUSH2 0x2ED9 JUMPI JUMPDEST POP PUSH1 0x1 SWAP1 DUP1 DUP3 SUB PUSH2 0x2E5D JUMPI POP POP SWAP3 PUSH2 0x2E52 SWAP5 SWAP3 PUSH2 0x2E4C SWAP3 PUSH1 0x1C PUSH2 0x2180 SWAP7 PUSH1 0x19 SLOAD SWAP5 DUP4 MSTORE MSTORE KECCAK256 SLOAD SWAP1 PUSH2 0x39EC JUMP JUMPDEST SWAP1 PUSH2 0x39DF JUMP JUMPDEST SWAP6 SWAP5 SWAP4 SWAP3 SWAP2 SWAP1 PUSH2 0x2D5B JUMP JUMPDEST SWAP3 SWAP4 POP SWAP4 POP POP PUSH1 0x2 SWAP1 DUP2 DUP2 EQ PUSH1 0x0 EQ PUSH2 0x2E94 JUMPI POP POP SWAP2 PUSH2 0x2E4C DUP11 PUSH2 0x2180 SWAP4 DUP14 DUP16 SWAP7 PUSH1 0x1C PUSH2 0x2E52 SWAP9 PUSH1 0x1A SLOAD SWAP6 DUP4 MSTORE MSTORE KECCAK256 ADD SLOAD SWAP1 PUSH2 0x39EC JUMP JUMPDEST DUP9 SWAP2 SWAP4 POP SWAP14 SWAP4 SWAP14 EQ PUSH2 0x2EAC JUMPI JUMPDEST POP POP PUSH2 0x2E52 SWAP1 PUSH2 0x3688 JUMP JUMPDEST SWAP12 PUSH2 0x2E4C DUP11 PUSH2 0x2ED1 SWAP4 PUSH2 0x2E52 SWAP6 SWAP16 DUP16 SWAP1 DUP16 SWAP2 PUSH1 0x1C SWAP1 PUSH1 0x1B SLOAD SWAP6 DUP4 MSTORE MSTORE KECCAK256 ADD SLOAD SWAP1 PUSH2 0x39EC JUMP JUMPDEST SWAP11 SWAP1 DUP13 PUSH2 0x2EA1 JUMP JUMPDEST SWAP4 POP POP SWAP1 SWAP3 POP DUP2 DUP2 RETURNDATASIZE DUP4 GT PUSH2 0x2F07 JUMPI JUMPDEST PUSH2 0x2EF3 DUP2 DUP4 PUSH2 0x371B JUMP JUMPDEST DUP2 ADD SUB SLT PUSH2 0x662 JUMPI DUP10 SWAP2 DUP13 DUP13 SWAP3 MLOAD CODESIZE PUSH2 0x2E20 JUMP JUMPDEST POP RETURNDATASIZE PUSH2 0x2EE9 JUMP JUMPDEST SWAP1 POP DUP12 DUP2 DUP2 RETURNDATASIZE DUP4 GT PUSH2 0x2F34 JUMPI JUMPDEST PUSH2 0x2F25 DUP2 DUP4 PUSH2 0x371B JUMP JUMPDEST DUP2 ADD SUB SLT PUSH2 0x662 JUMPI MLOAD CODESIZE PUSH2 0x2DF3 JUMP JUMPDEST POP RETURNDATASIZE PUSH2 0x2F1B JUMP JUMPDEST SWAP1 SWAP4 POP DUP8 DUP2 DUP2 RETURNDATASIZE DUP4 GT PUSH2 0x2F63 JUMPI JUMPDEST PUSH2 0x2F53 DUP2 DUP4 PUSH2 0x371B JUMP JUMPDEST DUP2 ADD SUB SLT PUSH2 0x227B JUMPI MLOAD SWAP3 CODESIZE PUSH2 0x2D50 JUMP JUMPDEST POP RETURNDATASIZE PUSH2 0x2F49 JUMP JUMPDEST DUP4 SWAP1 CALLVALUE PUSH2 0x662 JUMPI PUSH1 0x20 CALLDATASIZE PUSH1 0x3 NOT ADD SLT PUSH2 0x662 JUMPI PUSH2 0x755 SWAP1 PUSH2 0x2F96 PUSH1 0x1 DUP1 PUSH1 0xA0 SHL SUB PUSH1 0x3 SLOAD AND CALLER EQ PUSH2 0x4488 JUMP JUMPDEST CALLDATALOAD PUSH2 0x4A6F JUMP JUMPDEST SWAP2 SWAP1 POP CALLVALUE PUSH2 0x6E7 JUMPI DUP1 PUSH1 0x3 NOT CALLDATASIZE ADD SLT PUSH2 0x6E7 JUMPI PUSH2 0x2FB7 PUSH2 0x3514 JUMP JUMPDEST SWAP1 PUSH1 0x24 CALLDATALOAD SWAP3 PUSH2 0x2FD1 PUSH1 0x1 DUP1 PUSH1 0xA0 SHL SUB DUP1 SWAP3 SLOAD AND CALLER EQ PUSH2 0x3697 JUMP JUMPDEST DUP4 ISZERO ISZERO DUP1 PUSH2 0x2FF7 JUMPI JUMPDEST PUSH2 0x2FE2 JUMPI DUP5 DUP1 RETURN JUMPDEST PUSH2 0xFE6 SWAP3 AND DUP5 MSTORE DUP1 PUSH1 0x20 MSTORE DUP4 KECCAK256 SWAP2 DUP3 SLOAD PUSH2 0x39EC JUMP JUMPDEST POP DUP1 DUP4 AND DUP6 MSTORE DUP2 PUSH1 0x20 MSTORE DUP4 DUP3 DUP7 KECCAK256 SLOAD LT ISZERO PUSH2 0x2FDA JUMP JUMPDEST POP POP CALLVALUE PUSH2 0x662 JUMPI DUP2 PUSH1 0x3 NOT CALLDATASIZE ADD SLT PUSH2 0x662 JUMPI PUSH2 0x3038 PUSH1 0x0 DUP1 MLOAD PUSH1 0x20 PUSH2 0x52BC DUP4 CODECOPY DUP2 MLOAD SWAP2 MSTORE CALLER EQ PUSH2 0x35C2 JUMP JUMPDEST DUP2 DUP1 DUP1 DUP1 SELFBALANCE DUP1 ISZERO PUSH2 0x3049 DUP2 ISZERO PUSH2 0x5289 JUMP JUMPDEST PUSH1 0x6 SLOAD PUSH1 0x1 PUSH1 0x1 PUSH1 0xA0 SHL SUB AND SWAP1 DUP4 SWAP1 PUSH2 0x3071 JUMPI JUMPDEST CALL ISZERO PUSH2 0x3067 JUMPI POP DUP1 RETURN JUMPDEST MLOAD SWAP1 RETURNDATASIZE SWAP1 DUP3 RETURNDATACOPY RETURNDATASIZE SWAP1 REVERT JUMPDEST POP PUSH2 0x8FC PUSH2 0x305D JUMP JUMPDEST POP POP CALLVALUE PUSH2 0x662 JUMPI PUSH1 0x20 CALLDATASIZE PUSH1 0x3 NOT ADD SLT PUSH2 0x662 JUMPI PUSH1 0x20 SWAP2 DUP2 SWAP1 PUSH1 0x1 PUSH1 0x1 PUSH1 0xA0 SHL SUB PUSH2 0x30A2 PUSH2 0x3514 JUMP JUMPDEST AND DUP2 MSTORE PUSH1 0x17 DUP5 MSTORE KECCAK256 SLOAD SWAP1 MLOAD SWAP1 DUP2 MSTORE RETURN JUMPDEST POP POP CALLVALUE PUSH2 0x662 JUMPI PUSH1 0x20 CALLDATASIZE PUSH1 0x3 NOT ADD SLT PUSH2 0x662 JUMPI PUSH1 0x20 SWAP2 DUP2 SWAP1 PUSH1 0x1 PUSH1 0x1 PUSH1 0xA0 SHL SUB PUSH2 0x30DA PUSH2 0x3514 JUMP JUMPDEST AND DUP2 MSTORE PUSH1 0x32 DUP5 MSTORE KECCAK256 SLOAD SWAP1 MLOAD SWAP1 DUP2 MSTORE RETURN JUMPDEST POP POP CALLVALUE PUSH2 0x662 JUMPI DUP2 PUSH1 0x3 NOT CALLDATASIZE ADD SLT PUSH2 0x662 JUMPI PUSH1 0x20 SWAP1 MLOAD PUSH1 0x0 DUP1 MLOAD PUSH1 0x20 PUSH2 0x52BC DUP4 CODECOPY DUP2 MLOAD SWAP2 MSTORE DUP2 MSTORE RETURN JUMPDEST SWAP2 SWAP1 POP CALLVALUE PUSH2 0x6E7 JUMPI PUSH1 0x20 DUP1 PUSH1 0x3 NOT CALLDATASIZE ADD SLT PUSH2 0xA5A JUMPI PUSH2 0x3130 PUSH2 0x3514 JUMP JUMPDEST PUSH2 0x3149 PUSH1 0x0 DUP1 MLOAD PUSH1 0x20 PUSH2 0x52BC DUP4 CODECOPY DUP2 MLOAD SWAP2 MSTORE CALLER EQ PUSH2 0x35C2 JUMP JUMPDEST PUSH1 0x1 PUSH1 0x1 PUSH1 0xA0 SHL SUB AND PUSH2 0x315D DUP2 ISZERO ISZERO PUSH2 0x362B JUMP JUMPDEST DUP1 DUP6 MSTORE PUSH1 0x16 DUP3 MSTORE DUP3 DUP6 KECCAK256 SLOAD SWAP4 DUP5 ISZERO PUSH2 0x319A JUMPI POP SWAP2 PUSH1 0x18 DUP6 SWAP3 PUSH2 0x1A79 SWAP6 SWAP5 DUP5 MSTORE PUSH1 0x16 DUP2 MSTORE DUP4 DUP4 DUP2 KECCAK256 SSTORE PUSH1 0x17 DUP2 MSTORE DUP4 DUP4 DUP2 KECCAK256 SSTORE MSTORE DUP2 KECCAK256 SSTORE PUSH1 0x15 SLOAD PUSH2 0x39EC JUMP JUMPDEST DUP4 MLOAD PUSH3 0x461BCD PUSH1 0xE5 SHL DUP2 MSTORE SWAP1 DUP2 ADD DUP4 SWAP1 MSTORE PUSH1 0x3 PUSH1 0x24 DUP3 ADD MSTORE PUSH3 0x216C7 PUSH1 0xEC SHL PUSH1 0x44 DUP3 ADD MSTORE PUSH1 0x64 SWAP1 REVERT JUMPDEST DUP4 DUP4 CALLVALUE PUSH2 0x662 JUMPI DUP1 PUSH1 0x3 NOT CALLDATASIZE ADD SLT PUSH2 0x662 JUMPI PUSH2 0x31DD PUSH2 0x3514 JUMP JUMPDEST SWAP1 PUSH2 0x31E6 PUSH2 0x356A JUMP JUMPDEST SWAP2 PUSH2 0x3200 PUSH1 0x0 DUP1 MLOAD PUSH1 0x20 PUSH2 0x52BC DUP4 CODECOPY DUP2 MLOAD SWAP2 MSTORE CALLER EQ PUSH2 0x35C2 JUMP JUMPDEST PUSH1 0x1 PUSH1 0x1 PUSH1 0xA0 SHL SUB AND DUP1 DUP5 MSTORE PUSH1 0x2E PUSH1 0x20 SWAP1 DUP2 MSTORE DUP3 DUP6 KECCAK256 SLOAD SWAP2 SWAP3 SWAP2 PUSH1 0xFF AND DUP1 ISZERO ISZERO DUP1 PUSH2 0x332F JUMPI JUMPDEST PUSH2 0x32AB JUMPI JUMPDEST POP PUSH1 0xFF DUP5 AND SWAP3 DUP4 ISZERO ISZERO DUP1 PUSH2 0x32A0 JUMPI JUMPDEST PUSH2 0x3242 JUMPI DUP6 DUP1 RETURN JUMPDEST DUP4 DUP7 MSTORE PUSH1 0x2D DUP3 MSTORE DUP3 DUP7 KECCAK256 DUP2 DUP8 MSTORE DUP3 MSTORE PUSH2 0x326A DUP4 DUP8 KECCAK256 SWAP6 PUSH1 0xFF NOT SWAP7 PUSH1 0x1 DUP9 DUP3 SLOAD AND OR SWAP1 SSTORE PUSH2 0x365F JUMP JUMPDEST PUSH1 0x8 DUP2 LT ISZERO PUSH2 0xF58 JUMPI PUSH1 0x2E SWAP4 SWAP5 SWAP6 SWAP7 SWAP8 POP PUSH1 0x1D ADD PUSH2 0x3288 DUP2 SLOAD PUSH2 0x3688 JUMP JUMPDEST SWAP1 SSTORE DUP7 MSTORE MSTORE DUP4 KECCAK256 SWAP2 DUP3 SLOAD AND OR SWAP1 SSTORE DUP1 DUP3 DUP1 DUP1 DUP1 DUP1 DUP6 DUP1 RETURN JUMPDEST POP PUSH1 0x8 DUP5 GT ISZERO PUSH2 0x323A JUMP JUMPDEST DUP1 DUP7 MSTORE PUSH1 0x2D DUP3 MSTORE DUP3 DUP7 KECCAK256 DUP5 DUP8 MSTORE DUP3 MSTORE PUSH1 0xFF DUP4 DUP8 KECCAK256 SLOAD AND ISZERO PUSH2 0x322B JUMPI DUP1 DUP7 MSTORE PUSH1 0x2D DUP3 MSTORE DUP3 DUP7 KECCAK256 DUP5 DUP8 MSTORE DUP3 MSTORE DUP3 DUP7 KECCAK256 DUP1 SLOAD PUSH1 0xFF NOT AND SWAP1 SSTORE PUSH2 0x32E9 SWAP1 PUSH2 0x365F JUMP JUMPDEST PUSH1 0x8 DUP2 LT ISZERO PUSH2 0x331C JUMPI PUSH1 0x1D ADD DUP1 SLOAD DUP1 ISZERO PUSH2 0x3309 JUMPI PUSH1 0x0 NOT ADD SWAP1 SSTORE DUP7 PUSH2 0x322B JUMP JUMPDEST PUSH4 0x4E487B71 PUSH1 0xE0 SHL DUP8 MSTORE PUSH1 0x11 DUP9 MSTORE PUSH1 0x24 DUP8 REVERT JUMPDEST PUSH4 0x4E487B71 PUSH1 0xE0 SHL DUP7 MSTORE PUSH1 0x32 DUP8 MSTORE PUSH1 0x24 DUP7 REVERT JUMPDEST POP PUSH1 0x8 DUP2 GT ISZERO PUSH2 0x3226 JUMP JUMPDEST DUP4 DUP4 CALLVALUE PUSH2 0x662 JUMPI PUSH2 0x334A CALLDATASIZE PUSH2 0x3540 JUMP JUMPDEST PUSH1 0x3 SLOAD SWAP3 SWAP4 SWAP3 PUSH1 0x1 PUSH1 0x1 PUSH1 0xA0 SHL SUB SWAP1 PUSH2 0x3366 SWAP1 DUP3 AND CALLER EQ PUSH2 0x4488 JUMP JUMPDEST DUP7 DUP3 LT SWAP5 PUSH2 0x3373 DUP7 PUSH2 0x518B JUMP JUMPDEST AND SWAP4 DUP5 DUP7 MSTORE PUSH1 0x58 PUSH1 0x20 MSTORE DUP4 DUP7 KECCAK256 DUP3 DUP8 MSTORE PUSH1 0x20 MSTORE DUP4 DUP7 KECCAK256 PUSH2 0x3394 DUP5 DUP3 SLOAD PUSH2 0x39DF JUMP JUMPDEST SWAP1 SSTORE ISZERO PUSH2 0x2551 JUMPI SWAP1 DUP2 PUSH32 0x5AF417134F72A9D41143ACE85B0A26DCE6F550F894F2CBC1EEEE8810603D91B6 SWAP4 SWAP3 PUSH1 0x10 ADD PUSH2 0x33CE DUP4 DUP3 SLOAD PUSH2 0x39DF JUMP JUMPDEST SWAP1 SSTORE DUP3 MLOAD SWAP2 DUP3 MSTORE PUSH1 0x20 DUP3 ADD MSTORE LOG2 DUP1 RETURN JUMPDEST POP POP CALLVALUE PUSH2 0x662 JUMPI DUP2 PUSH1 0x3 NOT CALLDATASIZE ADD SLT PUSH2 0x662 JUMPI PUSH1 0x20 SWAP1 MLOAD PUSH20 0x570A5D26F7765ECB712C0924E4DE545B89FD43DF DUP2 MSTORE RETURN JUMPDEST POP POP CALLVALUE PUSH2 0x662 JUMPI DUP2 PUSH1 0x3 NOT CALLDATASIZE ADD SLT PUSH2 0x662 JUMPI PUSH1 0x20 SWAP1 PUSH1 0x39 SLOAD SWAP1 MLOAD SWAP1 DUP2 MSTORE RETURN JUMPDEST SWAP2 SWAP1 POP CALLVALUE PUSH2 0x6E7 JUMPI DUP1 PUSH1 0x3 NOT CALLDATASIZE ADD SLT PUSH2 0x6E7 JUMPI PUSH2 0x344B SWAP1 PUSH2 0x18E9 PUSH2 0x3514 JUMP JUMPDEST AND SWAP2 DUP3 DUP6 MSTORE PUSH1 0x43 PUSH1 0x20 MSTORE DUP2 DUP6 KECCAK256 SWAP4 AND SWAP3 DUP4 PUSH1 0x1 PUSH1 0x1 PUSH1 0x60 SHL SUB PUSH1 0xA0 SHL DUP3 SLOAD AND OR SWAP1 SSTORE DUP3 PUSH2 0x3476 JUMPI DUP4 DUP1 RETURN JUMPDEST PUSH2 0x3488 SWAP3 DUP5 MSTORE PUSH1 0x46 PUSH1 0x20 MSTORE DUP4 KECCAK256 PUSH2 0x3953 JUMP JUMPDEST POP CODESIZE DUP1 DUP1 DUP4 DUP1 RETURN JUMPDEST DUP4 CALLVALUE PUSH2 0x840 JUMPI PUSH1 0x20 CALLDATASIZE PUSH1 0x3 NOT ADD SLT PUSH2 0x840 JUMPI PUSH2 0x755 PUSH2 0x34AD PUSH2 0x3514 JUMP JUMPDEST PUSH2 0x972 PUSH1 0x0 DUP1 MLOAD PUSH1 0x20 PUSH2 0x52BC DUP4 CODECOPY DUP2 MLOAD SWAP2 MSTORE CALLER EQ PUSH2 0x35C2 JUMP JUMPDEST POP POP CALLVALUE PUSH2 0x662 JUMPI DUP2 PUSH1 0x3 NOT CALLDATASIZE ADD SLT PUSH2 0x662 JUMPI PUSH1 0x20 SWAP1 MLOAD PUSH1 0x32 DUP2 MSTORE RETURN JUMPDEST DUP4 SWAP1 CALLVALUE PUSH2 0x662 JUMPI PUSH1 0x20 CALLDATASIZE PUSH1 0x3 NOT ADD SLT PUSH2 0x662 JUMPI PUSH2 0x755 SWAP1 PUSH2 0x350E PUSH1 0x1 DUP1 PUSH1 0xA0 SHL SUB PUSH1 0x3 SLOAD AND CALLER EQ PUSH2 0x4488 JUMP JUMPDEST CALLDATALOAD PUSH2 0x4C90 JUMP JUMPDEST PUSH1 0x4 CALLDATALOAD SWAP1 PUSH1 0x1 PUSH1 0x1 PUSH1 0xA0 SHL SUB DUP3 AND DUP3 SUB PUSH2 0x1168 JUMPI JUMP JUMPDEST PUSH1 0x24 CALLDATALOAD SWAP1 PUSH1 0x1 PUSH1 0x1 PUSH1 0xA0 SHL SUB DUP3 AND DUP3 SUB PUSH2 0x1168 JUMPI JUMP JUMPDEST PUSH1 0x60 SWAP1 PUSH1 0x3 NOT ADD SLT PUSH2 0x1168 JUMPI PUSH1 0x4 CALLDATALOAD PUSH1 0x1 PUSH1 0x1 PUSH1 0xA0 SHL SUB DUP2 AND DUP2 SUB PUSH2 0x1168 JUMPI SWAP1 PUSH1 0x24 CALLDATALOAD SWAP1 PUSH1 0x44 CALLDATALOAD SWAP1 JUMP JUMPDEST PUSH1 0x24 CALLDATALOAD SWAP1 PUSH1 0xFF DUP3 AND DUP3 SUB PUSH2 0x1168 JUMPI JUMP JUMPDEST PUSH1 0x1 PUSH1 0x1 PUSH1 0xA0 SHL SUB AND PUSH1 0x0 SWAP1 DUP2 MSTORE PUSH1 0x43 PUSH1 0x20 MSTORE PUSH1 0x40 SWAP1 KECCAK256 SWAP1 JUMP JUMPDEST DUP1 SLOAD DUP3 LT ISZERO PUSH2 0x35AC JUMPI PUSH1 0x0 MSTORE PUSH1 0x20 PUSH1 0x0 KECCAK256 ADD SWAP1 PUSH1 0x0 SWAP1 JUMP JUMPDEST PUSH4 0x4E487B71 PUSH1 0xE0 SHL PUSH1 0x0 MSTORE PUSH1 0x32 PUSH1 0x4 MSTORE PUSH1 0x24 PUSH1 0x0 REVERT JUMPDEST ISZERO PUSH2 0x35C9 JUMPI JUMP JUMPDEST PUSH1 0x40 MLOAD PUSH3 0x461BCD PUSH1 0xE5 SHL DUP2 MSTORE PUSH1 0x20 PUSH1 0x4 DUP3 ADD MSTORE PUSH1 0x6 PUSH1 0x24 DUP3 ADD MSTORE PUSH6 0x10B7BBB732B9 PUSH1 0xD1 SHL PUSH1 0x44 DUP3 ADD MSTORE PUSH1 0x64 SWAP1 REVERT JUMPDEST ISZERO PUSH2 0x35FE JUMPI JUMP JUMPDEST PUSH1 0x40 MLOAD PUSH3 0x461BCD PUSH1 0xE5 SHL DUP2 MSTORE PUSH1 0x20 PUSH1 0x4 DUP3 ADD MSTORE PUSH1 0x5 PUSH1 0x24 DUP3 ADD MSTORE PUSH5 0x42C2EAE8D PUSH1 0xDB SHL PUSH1 0x44 DUP3 ADD MSTORE PUSH1 0x64 SWAP1 REVERT JUMPDEST ISZERO PUSH2 0x3632 JUMPI JUMP JUMPDEST PUSH1 0x40 MLOAD PUSH3 0x461BCD PUSH1 0xE5 SHL DUP2 MSTORE PUSH1 0x20 PUSH1 0x4 DUP3 ADD MSTORE PUSH1 0x5 PUSH1 0x24 DUP3 ADD MSTORE PUSH5 0x10B0B23239 PUSH1 0xD9 SHL PUSH1 0x44 DUP3 ADD MSTORE PUSH1 0x64 SWAP1 REVERT JUMPDEST PUSH1 0xFF PUSH1 0x0 NOT SWAP2 AND ADD SWAP1 PUSH1 0xFF DUP3 GT PUSH2 0x3672 JUMPI JUMP JUMPDEST PUSH4 0x4E487B71 PUSH1 0xE0 SHL PUSH1 0x0 MSTORE PUSH1 0x11 PUSH1 0x4 MSTORE PUSH1 0x24 PUSH1 0x0 REVERT JUMPDEST PUSH1 0x0 NOT DUP2 EQ PUSH2 0x3672 JUMPI PUSH1 0x1 ADD SWAP1 JUMP JUMPDEST ISZERO PUSH2 0x369E JUMPI JUMP JUMPDEST PUSH1 0x40 MLOAD PUSH3 0x461BCD PUSH1 0xE5 SHL DUP2 MSTORE PUSH1 0x20 PUSH1 0x4 DUP3 ADD MSTORE PUSH1 0x7 PUSH1 0x24 DUP3 ADD MSTORE PUSH7 0x216D696E696E67 PUSH1 0xC8 SHL PUSH1 0x44 DUP3 ADD MSTORE PUSH1 0x64 SWAP1 REVERT JUMPDEST PUSH1 0xC0 DUP2 ADD SWAP1 DUP2 LT PUSH8 0xFFFFFFFFFFFFFFFF DUP3 GT OR PUSH2 0x36E9 JUMPI PUSH1 0x40 MSTORE JUMP JUMPDEST PUSH4 0x4E487B71 PUSH1 0xE0 SHL PUSH1 0x0 MSTORE PUSH1 0x41 PUSH1 0x4 MSTORE PUSH1 0x24 PUSH1 0x0 REVERT JUMPDEST PUSH1 0x40 DUP2 ADD SWAP1 DUP2 LT PUSH8 0xFFFFFFFFFFFFFFFF DUP3 GT OR PUSH2 0x36E9 JUMPI PUSH1 0x40 MSTORE JUMP JUMPDEST SWAP1 PUSH1 0x1F DUP1 NOT SWAP2 ADD AND DUP2 ADD SWAP1 DUP2 LT PUSH8 0xFFFFFFFFFFFFFFFF DUP3 GT OR PUSH2 0x36E9 JUMPI PUSH1 0x40 MSTORE JUMP JUMPDEST PUSH1 0x8 SLOAD PUSH1 0x40 DUP1 MLOAD PUSH4 0x70A08231 PUSH1 0xE0 SHL DUP2 MSTORE PUSH1 0x1 PUSH1 0x1 PUSH1 0xA0 SHL SUB DUP5 DUP2 AND PUSH1 0x4 DUP1 DUP5 ADD DUP3 SWAP1 MSTORE SWAP1 SWAP6 SWAP4 SWAP5 PUSH1 0x20 SWAP5 SWAP4 PUSH1 0x24 SWAP4 SWAP1 SWAP2 AND DUP6 DUP3 DUP6 DUP2 DUP5 GAS STATICCALL SWAP2 DUP3 ISZERO PUSH2 0x3948 JUMPI PUSH1 0x0 SWAP3 PUSH2 0x3919 JUMPI JUMPDEST POP DUP2 ISZERO PUSH2 0x390F JUMPI PUSH1 0x0 SWAP5 DUP6 JUMPDEST DUP4 DUP2 LT PUSH2 0x3820 JUMPI POP POP POP POP DUP3 ISZERO ISZERO DUP1 PUSH2 0x37EB JUMPI JUMPDEST PUSH2 0x37B2 JUMPI JUMPDEST POP POP POP POP POP POP JUMP JUMPDEST DUP1 DUP4 LT ISZERO PUSH2 0x37D8 JUMPI POP POP SWAP1 PUSH1 0x3F SWAP2 PUSH1 0x54 ADD SLOAD SWAP4 PUSH1 0x0 MSTORE MSTORE PUSH1 0x0 KECCAK256 SSTORE CODESIZE DUP1 DUP1 DUP1 DUP1 DUP1 PUSH2 0x37AA JUMP JUMPDEST PUSH1 0x32 SWAP1 PUSH4 0x4E487B71 PUSH1 0xE0 SHL PUSH1 0x0 MSTORE MSTORE PUSH1 0x0 REVERT JUMPDEST POP DUP6 PUSH1 0x0 MSTORE PUSH1 0x3F DUP5 MSTORE DUP5 PUSH1 0x0 KECCAK256 SLOAD DUP2 DUP5 LT ISZERO PUSH2 0x380C JUMPI DUP4 PUSH1 0x54 ADD SLOAD GT PUSH2 0x37A5 JUMP JUMPDEST POP PUSH1 0x32 SWAP1 PUSH4 0x4E487B71 PUSH1 0xE0 SHL PUSH1 0x0 MSTORE MSTORE PUSH1 0x0 REVERT JUMPDEST DUP9 MLOAD PUSH4 0x2F745C59 PUSH1 0xE0 SHL DUP2 MSTORE PUSH1 0x1 PUSH1 0x1 PUSH1 0xA0 SHL SUB DUP4 AND DUP7 DUP3 ADD SWAP1 DUP2 MSTORE PUSH1 0x20 DUP2 ADD DUP4 SWAP1 MSTORE DUP10 SWAP1 DUP3 SWAP1 DUP2 SWAP1 PUSH1 0x40 ADD SUB DUP2 DUP8 GAS STATICCALL SWAP1 DUP2 ISZERO PUSH2 0x38D7 JUMPI PUSH1 0x0 SWAP2 PUSH2 0x38E2 JUMPI JUMPDEST POP DUP10 MLOAD SWAP1 PUSH4 0xFCF49ADF PUSH1 0xE0 SHL DUP3 MSTORE DUP7 DUP3 ADD MSTORE DUP9 DUP2 DUP9 DUP2 DUP8 GAS STATICCALL SWAP1 DUP2 ISZERO PUSH2 0x38D7 JUMPI PUSH1 0x0 SWAP2 PUSH2 0x38AA JUMPI JUMPDEST POP DUP8 DUP2 GT PUSH2 0x38A0 JUMPI JUMPDEST POP PUSH2 0x389B SWAP1 PUSH2 0x3688 JUMP JUMPDEST PUSH2 0x3791 JUMP JUMPDEST SWAP7 POP PUSH2 0x389B PUSH2 0x3891 JUMP JUMPDEST SWAP1 DUP10 DUP3 DUP2 RETURNDATASIZE DUP4 GT PUSH2 0x38D0 JUMPI JUMPDEST PUSH2 0x38C0 DUP2 DUP4 PUSH2 0x371B JUMP JUMPDEST DUP2 ADD SUB SLT PUSH2 0x840 JUMPI POP MLOAD CODESIZE PUSH2 0x3888 JUMP JUMPDEST POP RETURNDATASIZE PUSH2 0x38B6 JUMP JUMPDEST DUP11 MLOAD RETURNDATASIZE PUSH1 0x0 DUP3 RETURNDATACOPY RETURNDATASIZE SWAP1 REVERT JUMPDEST SWAP1 DUP10 DUP3 DUP2 RETURNDATASIZE DUP4 GT PUSH2 0x3908 JUMPI JUMPDEST PUSH2 0x38F8 DUP2 DUP4 PUSH2 0x371B JUMP JUMPDEST DUP2 ADD SUB SLT PUSH2 0x840 JUMPI POP MLOAD CODESIZE PUSH2 0x3860 JUMP JUMPDEST POP RETURNDATASIZE PUSH2 0x38EE JUMP JUMPDEST POP POP POP POP POP POP POP POP JUMP JUMPDEST SWAP1 SWAP2 DUP7 DUP3 DUP2 RETURNDATASIZE DUP4 GT PUSH2 0x3941 JUMPI JUMPDEST PUSH2 0x3930 DUP2 DUP4 PUSH2 0x371B JUMP JUMPDEST DUP2 ADD SUB SLT PUSH2 0x840 JUMPI POP MLOAD SWAP1 CODESIZE PUSH2 0x3785 JUMP JUMPDEST POP RETURNDATASIZE PUSH2 0x3926 JUMP JUMPDEST DUP8 MLOAD RETURNDATASIZE PUSH1 0x0 DUP3 RETURNDATACOPY RETURNDATASIZE SWAP1 REVERT JUMPDEST SWAP2 SWAP1 PUSH1 0x1 DUP4 ADD PUSH1 0x0 SWAP1 DUP3 DUP3 MSTORE DUP1 PUSH1 0x20 MSTORE PUSH1 0x40 DUP3 KECCAK256 SLOAD ISZERO PUSH1 0x0 EQ PUSH2 0x39D9 JUMPI DUP5 SLOAD SWAP5 PUSH9 0x10000000000000000 DUP7 LT ISZERO PUSH2 0x39C5 JUMPI DUP4 PUSH2 0x39B5 PUSH2 0x399C DUP9 PUSH1 0x1 PUSH1 0x40 SWAP9 SWAP10 SWAP11 ADD DUP6 SSTORE DUP5 PUSH2 0x3594 JUMP JUMPDEST DUP2 SWAP4 SWAP2 SLOAD SWAP1 PUSH1 0x3 SHL PUSH1 0x0 NOT DUP2 SHL SWAP3 DUP4 SWAP2 SHL AND SWAP2 NOT AND OR SWAP1 JUMP JUMPDEST SWAP1 SSTORE SLOAD SWAP4 DUP3 MSTORE PUSH1 0x20 MSTORE KECCAK256 SSTORE PUSH1 0x1 SWAP1 JUMP JUMPDEST PUSH4 0x4E487B71 PUSH1 0xE0 SHL DUP4 MSTORE PUSH1 0x41 PUSH1 0x4 MSTORE PUSH1 0x24 DUP4 REVERT JUMPDEST POP SWAP3 POP POP JUMP JUMPDEST SWAP2 SWAP1 DUP3 ADD DUP1 SWAP3 GT PUSH2 0x3672 JUMPI JUMP JUMPDEST SWAP2 SWAP1 DUP3 SUB SWAP2 DUP3 GT PUSH2 0x3672 JUMPI JUMP JUMPDEST SWAP1 PUSH1 0x1 DUP3 ADD SWAP1 PUSH1 0x0 SWAP3 DUP2 DUP5 MSTORE DUP3 PUSH1 0x20 MSTORE PUSH1 0x40 DUP5 KECCAK256 SLOAD SWAP1 DUP2 ISZERO ISZERO PUSH1 0x0 EQ PUSH2 0x3AE2 JUMPI PUSH1 0x0 NOT SWAP2 DUP1 DUP4 ADD DUP2 DUP2 GT PUSH2 0x3ACE JUMPI DUP3 SLOAD SWAP1 DUP5 DUP3 ADD SWAP2 DUP3 GT PUSH2 0x3ABA JUMPI DUP1 DUP3 SUB PUSH2 0x3A85 JUMPI JUMPDEST POP POP POP DUP1 SLOAD DUP1 ISZERO PUSH2 0x3A71 JUMPI DUP3 ADD SWAP2 PUSH2 0x3A54 DUP4 DUP4 PUSH2 0x3594 JUMP JUMPDEST SWAP1 SWAP2 DUP3 SLOAD SWAP2 PUSH1 0x3 SHL SHL NOT AND SWAP1 SSTORE SSTORE DUP3 MSTORE PUSH1 0x20 MSTORE PUSH1 0x40 DUP2 KECCAK256 SSTORE PUSH1 0x1 SWAP1 JUMP JUMPDEST PUSH4 0x4E487B71 PUSH1 0xE0 SHL DUP7 MSTORE PUSH1 0x31 PUSH1 0x4 MSTORE PUSH1 0x24 DUP7 REVERT JUMPDEST PUSH2 0x3AA5 PUSH2 0x3A95 PUSH2 0x399C SWAP4 DUP7 PUSH2 0x3594 JUMP JUMPDEST SWAP1 SLOAD SWAP1 PUSH1 0x3 SHL SHR SWAP3 DUP4 SWAP3 DUP7 PUSH2 0x3594 JUMP JUMPDEST SWAP1 SSTORE DUP7 MSTORE DUP5 PUSH1 0x20 MSTORE PUSH1 0x40 DUP7 KECCAK256 SSTORE CODESIZE DUP1 DUP1 PUSH2 0x3A3C JUMP JUMPDEST PUSH4 0x4E487B71 PUSH1 0xE0 SHL DUP9 MSTORE PUSH1 0x11 PUSH1 0x4 MSTORE PUSH1 0x24 DUP9 REVERT JUMPDEST PUSH4 0x4E487B71 PUSH1 0xE0 SHL DUP8 MSTORE PUSH1 0x11 PUSH1 0x4 MSTORE PUSH1 0x24 DUP8 REVERT JUMPDEST POP POP POP POP SWAP1 JUMP JUMPDEST DUP2 DUP2 MUL SWAP3 SWAP2 DUP2 ISZERO SWAP2 DUP5 DIV EQ OR ISZERO PUSH2 0x3672 JUMPI JUMP JUMPDEST DUP2 ISZERO PUSH2 0x3B06 JUMPI DIV SWAP1 JUMP JUMPDEST PUSH4 0x4E487B71 PUSH1 0xE0 SHL PUSH1 0x0 MSTORE PUSH1 0x12 PUSH1 0x4 MSTORE PUSH1 0x24 PUSH1 0x0 REVERT JUMPDEST SWAP1 SWAP2 DUP3 ISZERO PUSH2 0x3EAA JUMPI PUSH1 0x1 PUSH1 0x1 PUSH1 0xA0 SHL SUB DUP3 DUP2 AND PUSH1 0x0 DUP2 DUP2 MSTORE PUSH1 0x43 PUSH1 0x20 MSTORE PUSH1 0x40 SWAP1 KECCAK256 SLOAD SWAP1 SWAP2 AND SWAP3 SWAP1 DUP4 ISZERO PUSH2 0x3EA3 JUMPI PUSH1 0x32 DUP6 MUL SWAP5 DUP6 DIV PUSH1 0x32 SUB PUSH2 0x3672 JUMPI PUSH1 0x64 DUP6 DIV PUSH1 0x1E PUSH1 0x64 DUP8 DIV MUL DIV PUSH1 0x1E EQ PUSH1 0x64 DUP7 DIV ISZERO OR ISZERO PUSH2 0x3672 JUMPI PUSH2 0x3B7A DUP5 PUSH2 0x4255 JUMP JUMPDEST DUP1 PUSH2 0x3E83 JUMPI JUMPDEST PUSH2 0x3E3E JUMPI JUMPDEST PUSH1 0x0 SWAP4 SWAP2 SWAP4 MSTORE PUSH1 0x43 PUSH1 0x20 MSTORE PUSH1 0x1 DUP1 PUSH1 0xA0 SHL SUB PUSH1 0x40 PUSH1 0x0 KECCAK256 SLOAD AND PUSH1 0x40 MLOAD PUSH1 0xFF PUSH1 0x4F SLOAD DUP2 DUP2 AND DUP4 MSTORE DUP2 DUP2 PUSH1 0x8 SHR AND PUSH1 0x20 DUP5 ADD MSTORE DUP2 DUP2 PUSH1 0x10 SHR AND PUSH1 0x40 DUP5 ADD MSTORE DUP2 DUP2 PUSH1 0x18 SHR AND PUSH1 0x60 DUP5 ADD MSTORE DUP2 DUP2 PUSH1 0x20 SHR AND PUSH1 0x80 DUP5 ADD MSTORE PUSH1 0x28 SHR AND PUSH1 0xA0 DUP3 ADD MSTORE PUSH2 0x3BE9 DUP2 PUSH2 0x36CD JUMP JUMPDEST PUSH1 0x0 SWAP1 PUSH1 0x1 SWAP4 JUMPDEST PUSH1 0x6 PUSH1 0xFF DUP7 AND GT PUSH2 0x3E30 JUMPI PUSH1 0x1 PUSH1 0x1 PUSH1 0xA0 SHL SUB DUP5 AND ISZERO PUSH2 0x3DF9 JUMPI PUSH1 0x1 PUSH1 0x1 PUSH1 0xA0 SHL SUB DUP5 AND PUSH1 0x0 SWAP1 DUP2 MSTORE PUSH1 0x3E PUSH1 0x20 MSTORE PUSH1 0x40 DUP2 KECCAK256 SLOAD SWAP8 SWAP1 SWAP7 DUP8 JUMPDEST PUSH1 0x1 PUSH1 0x1 PUSH1 0xA0 SHL SUB DUP8 AND PUSH1 0x0 SWAP1 DUP2 MSTORE PUSH1 0x46 PUSH1 0x20 MSTORE PUSH1 0x40 SWAP1 KECCAK256 SLOAD DUP2 LT ISZERO PUSH2 0x3C94 JUMPI PUSH2 0x3C56 DUP2 PUSH1 0x40 PUSH1 0x0 KECCAK256 PUSH2 0x3594 JUMP JUMPDEST PUSH1 0x1 DUP1 PUSH1 0xA0 SHL SUB SWAP2 SLOAD SWAP1 PUSH1 0x3 SHL SHR AND PUSH1 0x0 MSTORE PUSH1 0x3E PUSH1 0x20 MSTORE PUSH1 0x40 PUSH1 0x0 KECCAK256 SLOAD DUP10 DUP2 GT PUSH2 0x3C8A JUMPI JUMPDEST POP PUSH2 0x3C85 SWAP1 PUSH2 0x3688 JUMP JUMPDEST PUSH2 0x3C28 JUMP JUMPDEST SWAP9 POP PUSH2 0x3C85 PUSH2 0x3C7B JUMP JUMPDEST POP SWAP4 SWAP8 SWAP3 SWAP7 SWAP1 SWAP6 SWAP5 SWAP2 SWAP3 DUP2 DUP2 GT ISZERO PUSH2 0x3DED JUMPI PUSH2 0x3CB8 SWAP2 PUSH2 0x3CB3 SWAP2 PUSH2 0x39EC JUMP JUMPDEST PUSH2 0x4408 JUMP JUMPDEST PUSH1 0xFF DUP2 AND DUP1 ISZERO ISZERO SWAP1 DUP2 PUSH2 0x3DDF JUMPI JUMPDEST POP PUSH2 0x3D02 JUMPI JUMPDEST POP PUSH1 0x1 PUSH1 0x1 PUSH1 0xA0 SHL SUB SWAP1 DUP2 AND PUSH1 0x0 SWAP1 DUP2 MSTORE PUSH1 0x43 PUSH1 0x20 MSTORE PUSH1 0x40 SWAP1 KECCAK256 SLOAD AND SWAP3 PUSH1 0xFF SWAP1 DUP2 AND SWAP1 DUP2 EQ PUSH2 0x3672 JUMPI PUSH1 0x1 ADD SWAP4 SWAP6 SWAP2 SWAP5 SWAP1 PUSH2 0x3BF0 JUMP JUMPDEST PUSH1 0xFF PUSH2 0x3D1C DUP2 PUSH2 0x3D15 DUP2 SWAP5 SWAP12 SWAP6 SWAP12 PUSH2 0x365F JUMP JUMPDEST AND DUP10 PUSH2 0x3EAF JUMP JUMPDEST MLOAD AND SWAP2 AND DUP1 DUP3 GT ISZERO PUSH2 0x3DD0 JUMPI PUSH1 0xFF DUP2 DUP4 SUB GT PUSH2 0x3672 JUMPI PUSH2 0x3D4B PUSH1 0xFF PUSH1 0x64 SWAP3 DUP5 SUB JUMPDEST AND DUP3 PUSH1 0x1E DUP2 DUP14 DIV MUL DIV PUSH2 0x3AE9 JUMP JUMPDEST DIV DUP1 ISZERO ISZERO DUP1 PUSH2 0x3DAE JUMPI JUMPDEST PUSH2 0x3D62 JUMPI JUMPDEST POP SWAP6 CODESIZE PUSH2 0x3CCC JUMP JUMPDEST PUSH1 0x1 DUP1 PUSH1 0xA0 SHL SUB DUP9 AND PUSH1 0x0 MSTORE PUSH1 0x3D PUSH1 0x20 MSTORE PUSH1 0x40 PUSH1 0x0 KECCAK256 PUSH2 0x3D83 DUP3 DUP3 SLOAD PUSH2 0x39EC JUMP JUMPDEST SWAP1 SSTORE PUSH1 0x1 DUP1 PUSH1 0xA0 SHL SUB DUP9 AND PUSH1 0x0 MSTORE PUSH1 0x40 PUSH1 0x20 MSTORE PUSH2 0x3DA6 PUSH1 0x40 PUSH1 0x0 KECCAK256 SWAP2 DUP3 SLOAD PUSH2 0x39DF JUMP JUMPDEST SWAP1 SSTORE CODESIZE PUSH2 0x3D5A JUMP JUMPDEST POP PUSH1 0x1 PUSH1 0x1 PUSH1 0xA0 SHL SUB DUP9 AND PUSH1 0x0 SWAP1 DUP2 MSTORE PUSH1 0x3D PUSH1 0x20 MSTORE PUSH1 0x40 SWAP1 KECCAK256 SLOAD DUP2 GT ISZERO PUSH2 0x3D55 JUMP JUMPDEST POP PUSH1 0x64 PUSH2 0x3D4B PUSH1 0xFF PUSH1 0x0 PUSH2 0x3D3D JUMP JUMPDEST SWAP1 POP PUSH1 0xFF DUP7 AND LT ISZERO CODESIZE PUSH2 0x3CC6 JUMP JUMPDEST POP POP PUSH2 0x3CB8 PUSH1 0x0 PUSH2 0x4408 JUMP JUMPDEST SWAP6 SWAP4 POP POP POP POP SWAP3 SWAP1 SWAP3 JUMPDEST PUSH1 0xF PUSH1 0x64 DUP4 DIV MUL SWAP2 PUSH1 0x64 DUP1 DUP3 DIV DUP5 DIV PUSH1 0xF EQ SWAP2 DIV ISZERO OR ISZERO PUSH2 0x3672 JUMPI PUSH2 0x3E2E SWAP3 PUSH1 0x64 PUSH1 0x1 SWAP4 DIV SWAP2 PUSH2 0x3ED2 JUMP JUMPDEST JUMP JUMPDEST SWAP6 SWAP4 POP POP POP POP SWAP3 SWAP1 SWAP3 PUSH2 0x3E03 JUMP JUMPDEST DUP4 PUSH1 0x0 MSTORE PUSH1 0x3D PUSH1 0x20 MSTORE PUSH1 0x40 PUSH1 0x0 KECCAK256 PUSH1 0x64 PUSH1 0x1E DUP2 DUP9 DIV MUL DIV SWAP1 PUSH2 0x3E61 DUP3 DUP3 SLOAD PUSH2 0x39EC JUMP JUMPDEST SWAP1 SSTORE DUP5 PUSH1 0x0 MSTORE PUSH1 0x40 PUSH1 0x20 MSTORE PUSH2 0x3E7C PUSH1 0x40 PUSH1 0x0 KECCAK256 SWAP2 DUP3 SLOAD PUSH2 0x39DF JUMP JUMPDEST SWAP1 SSTORE PUSH2 0x3B85 JUMP JUMPDEST POP DUP4 PUSH1 0x0 MSTORE PUSH1 0x3D PUSH1 0x20 MSTORE PUSH1 0x64 PUSH1 0x1E DUP2 DUP8 DIV MUL DIV PUSH1 0x40 PUSH1 0x0 KECCAK256 SLOAD LT ISZERO PUSH2 0x3B80 JUMP JUMPDEST POP POP SWAP2 POP POP JUMP JUMPDEST SWAP2 POP POP JUMP JUMPDEST SWAP1 PUSH1 0x6 DUP2 LT ISZERO PUSH2 0x35AC JUMPI PUSH1 0x5 SHL ADD SWAP1 JUMP JUMPDEST PUSH1 0xFF PUSH1 0x1 SWAP2 AND ADD SWAP1 PUSH1 0xFF DUP3 GT PUSH2 0x3672 JUMPI JUMP JUMPDEST SWAP2 SWAP1 SWAP3 PUSH1 0xFF DUP2 AND SWAP4 PUSH1 0xF DUP6 GT DUP1 ISZERO SWAP1 DUP2 PUSH2 0x4244 JUMPI JUMPDEST PUSH2 0x37AA JUMPI PUSH2 0x3F99 DUP3 PUSH2 0x3FA6 SWAP3 PUSH2 0x3E2E SWAP9 PUSH1 0x1 PUSH2 0x3F18 PUSH2 0x3FAC SWAP8 PUSH1 0x1 DUP1 PUSH1 0xA0 SHL SUB AND PUSH1 0x0 MSTORE PUSH1 0x41 PUSH1 0x20 MSTORE PUSH1 0x40 PUSH1 0x0 KECCAK256 SWAP1 JUMP JUMPDEST SLOAD LT ISZERO DUP1 PUSH2 0x4239 JUMPI JUMPDEST DUP1 PUSH2 0x422A JUMPI JUMPDEST DUP1 PUSH2 0x4207 JUMPI JUMPDEST ISZERO PUSH2 0x3FB2 JUMPI POP POP PUSH1 0x1 PUSH1 0x1 PUSH1 0xA0 SHL SUB DUP2 AND PUSH1 0x0 SWAP1 DUP2 MSTORE PUSH1 0x3D PUSH1 0x20 MSTORE PUSH1 0x40 SWAP1 KECCAK256 JUMPDEST PUSH2 0x3F58 DUP8 DUP3 SLOAD PUSH2 0x39EC JUMP JUMPDEST SWAP1 SSTORE PUSH1 0x1 PUSH1 0x1 PUSH1 0xA0 SHL SUB DUP2 AND PUSH1 0x0 SWAP1 DUP2 MSTORE PUSH1 0x40 PUSH1 0x20 DUP2 SWAP1 MSTORE SWAP1 KECCAK256 PUSH2 0x3F7D DUP8 DUP3 SLOAD PUSH2 0x39DF JUMP JUMPDEST SWAP1 SSTORE PUSH1 0x1 PUSH1 0x1 PUSH1 0xA0 SHL SUB AND PUSH1 0x0 SWAP1 DUP2 MSTORE PUSH1 0x43 PUSH1 0x20 MSTORE PUSH1 0x40 SWAP1 KECCAK256 SWAP1 JUMP JUMPDEST SLOAD PUSH1 0x1 PUSH1 0x1 PUSH1 0xA0 SHL SUB AND SWAP1 JUMP JUMPDEST SWAP2 PUSH2 0x3EC0 JUMP JUMPDEST SWAP3 PUSH2 0x3ED2 JUMP JUMPDEST PUSH1 0x1 PUSH1 0x1 PUSH1 0xA0 SHL SUB DUP4 AND PUSH1 0x0 SWAP1 DUP2 MSTORE PUSH1 0x41 PUSH1 0x20 MSTORE PUSH1 0x40 SWAP1 KECCAK256 PUSH1 0x2 SWAP1 SLOAD LT ISZERO DUP1 PUSH2 0x41FC JUMPI JUMPDEST DUP1 PUSH2 0x41ED JUMPI JUMPDEST DUP1 PUSH2 0x41CA JUMPI JUMPDEST ISZERO PUSH2 0x400C JUMPI POP POP PUSH1 0x1 PUSH1 0x1 PUSH1 0xA0 SHL SUB DUP2 AND PUSH1 0x0 SWAP1 DUP2 MSTORE PUSH1 0x3D PUSH1 0x20 MSTORE PUSH1 0x40 SWAP1 KECCAK256 PUSH2 0x3F58 DUP8 DUP3 SLOAD PUSH2 0x39EC JUMP JUMPDEST PUSH1 0x1 PUSH1 0x1 PUSH1 0xA0 SHL SUB DUP4 AND PUSH1 0x0 SWAP1 DUP2 MSTORE PUSH1 0x41 PUSH1 0x20 MSTORE PUSH1 0x40 SWAP1 KECCAK256 PUSH1 0x3 SWAP1 SLOAD LT ISZERO DUP1 PUSH2 0x41BF JUMPI JUMPDEST DUP1 PUSH2 0x41B0 JUMPI JUMPDEST DUP1 PUSH2 0x418D JUMPI JUMPDEST ISZERO PUSH2 0x4060 JUMPI POP POP PUSH1 0x1 PUSH1 0x1 PUSH1 0xA0 SHL SUB DUP2 AND PUSH1 0x0 SWAP1 DUP2 MSTORE PUSH1 0x3D PUSH1 0x20 MSTORE PUSH1 0x40 SWAP1 KECCAK256 PUSH2 0x3F4D JUMP JUMPDEST PUSH1 0x1 PUSH1 0x1 PUSH1 0xA0 SHL SUB DUP4 AND PUSH1 0x0 SWAP1 DUP2 MSTORE PUSH1 0x41 PUSH1 0x20 MSTORE PUSH1 0x40 SWAP1 KECCAK256 PUSH1 0x4 SWAP1 SLOAD LT ISZERO SWAP1 DUP2 PUSH2 0x4181 JUMPI JUMPDEST POP DUP1 PUSH2 0x4172 JUMPI JUMPDEST DUP1 PUSH2 0x414F JUMPI JUMPDEST ISZERO PUSH2 0x40BB JUMPI POP PUSH1 0x1 PUSH1 0x1 PUSH1 0xA0 SHL SUB DUP2 AND PUSH1 0x0 SWAP1 DUP2 MSTORE PUSH1 0x3D PUSH1 0x20 MSTORE PUSH1 0x40 SWAP1 KECCAK256 PUSH2 0x3F58 DUP8 DUP3 SLOAD PUSH2 0x39EC JUMP JUMPDEST PUSH1 0x1 PUSH1 0x1 PUSH1 0xA0 SHL SUB DUP3 AND PUSH1 0x0 SWAP1 DUP2 MSTORE PUSH1 0x41 PUSH1 0x20 MSTORE PUSH1 0x40 SWAP1 KECCAK256 PUSH1 0x5 SWAP1 SLOAD LT ISZERO SWAP1 DUP2 PUSH2 0x4147 JUMPI JUMPDEST POP DUP1 PUSH2 0x4138 JUMPI JUMPDEST DUP1 PUSH2 0x4115 JUMPI JUMPDEST ISZERO PUSH2 0x357A JUMPI PUSH1 0x1 PUSH1 0x1 PUSH1 0xA0 SHL SUB DUP2 AND PUSH1 0x0 SWAP1 DUP2 MSTORE PUSH1 0x3D PUSH1 0x20 MSTORE PUSH1 0x40 SWAP1 KECCAK256 PUSH2 0x3F58 DUP8 DUP3 SLOAD PUSH2 0x39EC JUMP JUMPDEST POP PUSH1 0x1 PUSH1 0x1 PUSH1 0xA0 SHL SUB DUP2 AND PUSH1 0x0 SWAP1 DUP2 MSTORE PUSH1 0x3D PUSH1 0x20 MSTORE PUSH1 0x40 SWAP1 KECCAK256 DUP7 SWAP1 SLOAD LT ISZERO PUSH2 0x40ED JUMP JUMPDEST POP PUSH2 0x4142 DUP2 PUSH2 0x4255 JUMP JUMPDEST PUSH2 0x40E7 JUMP JUMPDEST SWAP1 POP CODESIZE PUSH2 0x40E0 JUMP JUMPDEST POP PUSH1 0x1 PUSH1 0x1 PUSH1 0xA0 SHL SUB DUP3 AND PUSH1 0x0 SWAP1 DUP2 MSTORE PUSH1 0x3D PUSH1 0x20 MSTORE PUSH1 0x40 SWAP1 KECCAK256 DUP8 SWAP1 SLOAD LT ISZERO PUSH2 0x4092 JUMP JUMPDEST POP PUSH2 0x417C DUP3 PUSH2 0x4255 JUMP JUMPDEST PUSH2 0x408C JUMP JUMPDEST PUSH1 0xC SWAP2 POP GT ISZERO CODESIZE PUSH2 0x4085 JUMP JUMPDEST POP PUSH1 0x1 PUSH1 0x1 PUSH1 0xA0 SHL SUB DUP4 AND PUSH1 0x0 SWAP1 DUP2 MSTORE PUSH1 0x3D PUSH1 0x20 MSTORE PUSH1 0x40 SWAP1 KECCAK256 DUP9 SWAP1 SLOAD LT ISZERO PUSH2 0x403C JUMP JUMPDEST POP PUSH2 0x41BA DUP4 PUSH2 0x4255 JUMP JUMPDEST PUSH2 0x4036 JUMP JUMPDEST POP PUSH1 0x9 DUP2 GT ISZERO PUSH2 0x4030 JUMP JUMPDEST POP PUSH1 0x1 PUSH1 0x1 PUSH1 0xA0 SHL SUB DUP4 AND PUSH1 0x0 SWAP1 DUP2 MSTORE PUSH1 0x3D PUSH1 0x20 MSTORE PUSH1 0x40 SWAP1 KECCAK256 DUP9 SWAP1 SLOAD LT ISZERO PUSH2 0x3FE2 JUMP JUMPDEST POP PUSH2 0x41F7 DUP4 PUSH2 0x4255 JUMP JUMPDEST PUSH2 0x3FDC JUMP JUMPDEST POP PUSH1 0x6 DUP2 GT ISZERO PUSH2 0x3FD6 JUMP JUMPDEST POP PUSH1 0x1 PUSH1 0x1 PUSH1 0xA0 SHL SUB DUP4 AND PUSH1 0x0 SWAP1 DUP2 MSTORE PUSH1 0x3D PUSH1 0x20 MSTORE PUSH1 0x40 SWAP1 KECCAK256 DUP9 SWAP1 SLOAD LT ISZERO PUSH2 0x3F2D JUMP JUMPDEST POP PUSH2 0x4234 DUP4 PUSH2 0x4255 JUMP JUMPDEST PUSH2 0x3F27 JUMP JUMPDEST POP PUSH1 0x3 DUP2 GT ISZERO PUSH2 0x3F21 JUMP JUMPDEST POP PUSH1 0x1 PUSH1 0x1 PUSH1 0xA0 SHL SUB DUP3 AND ISZERO PUSH2 0x3EE7 JUMP JUMPDEST PUSH1 0x8 SLOAD PUSH1 0x40 DUP1 MLOAD PUSH4 0x70A08231 PUSH1 0xE0 SHL DUP2 MSTORE PUSH1 0x1 PUSH1 0x1 PUSH1 0xA0 SHL SUB DUP5 DUP2 AND PUSH1 0x4 DUP1 DUP5 ADD DUP3 SWAP1 MSTORE SWAP6 SWAP5 PUSH1 0x24 SWAP5 SWAP4 PUSH1 0x20 SWAP4 SWAP1 SWAP2 AND DUP4 DUP3 DUP8 DUP2 DUP5 GAS STATICCALL SWAP2 DUP3 ISZERO PUSH2 0x43FD JUMPI PUSH1 0x0 SWAP3 PUSH2 0x43CE JUMPI JUMPDEST POP DUP2 ISZERO PUSH2 0x43C1 JUMPI PUSH1 0x0 SWAP7 DUP8 JUMPDEST DUP4 DUP2 LT PUSH2 0x42D2 JUMPI POP POP POP POP SWAP1 PUSH1 0x3F SWAP2 PUSH1 0x0 MSTORE MSTORE PUSH1 0x0 KECCAK256 SLOAD SWAP3 DUP1 DUP4 LT ISZERO PUSH2 0x37D8 JUMPI POP POP PUSH1 0x54 ADD SLOAD GT ISZERO SWAP1 JUMP JUMPDEST DUP7 MLOAD PUSH4 0x2F745C59 PUSH1 0xE0 SHL DUP2 MSTORE PUSH1 0x1 PUSH1 0x1 PUSH1 0xA0 SHL SUB DUP4 AND DUP2 DUP13 ADD SWAP1 DUP2 MSTORE PUSH1 0x20 DUP2 ADD DUP4 SWAP1 MSTORE DUP8 SWAP1 DUP3 SWAP1 DUP2 SWAP1 PUSH1 0x40 ADD SUB DUP2 DUP8 GAS STATICCALL SWAP1 DUP2 ISZERO PUSH2 0x4389 JUMPI PUSH1 0x0 SWAP2 PUSH2 0x4394 JUMPI JUMPDEST POP DUP8 MLOAD SWAP1 PUSH4 0xFCF49ADF PUSH1 0xE0 SHL DUP3 MSTORE DUP12 DUP3 ADD MSTORE DUP7 DUP2 DUP11 DUP2 DUP8 GAS STATICCALL SWAP1 DUP2 ISZERO PUSH2 0x4389 JUMPI PUSH1 0x0 SWAP2 PUSH2 0x435C JUMPI JUMPDEST POP DUP10 DUP2 GT PUSH2 0x4352 JUMPI JUMPDEST POP PUSH2 0x434D SWAP1 PUSH2 0x3688 JUMP JUMPDEST PUSH2 0x42A7 JUMP JUMPDEST SWAP9 POP PUSH2 0x434D PUSH2 0x4343 JUMP JUMPDEST SWAP1 DUP8 DUP3 DUP2 RETURNDATASIZE DUP4 GT PUSH2 0x4382 JUMPI JUMPDEST PUSH2 0x4372 DUP2 DUP4 PUSH2 0x371B JUMP JUMPDEST DUP2 ADD SUB SLT PUSH2 0x840 JUMPI POP MLOAD CODESIZE PUSH2 0x433A JUMP JUMPDEST POP RETURNDATASIZE PUSH2 0x4368 JUMP JUMPDEST DUP9 MLOAD RETURNDATASIZE PUSH1 0x0 DUP3 RETURNDATACOPY RETURNDATASIZE SWAP1 REVERT JUMPDEST SWAP1 DUP8 DUP3 DUP2 RETURNDATASIZE DUP4 GT PUSH2 0x43BA JUMPI JUMPDEST PUSH2 0x43AA DUP2 DUP4 PUSH2 0x371B JUMP JUMPDEST DUP2 ADD SUB SLT PUSH2 0x840 JUMPI POP MLOAD CODESIZE PUSH2 0x4312 JUMP JUMPDEST POP RETURNDATASIZE PUSH2 0x43A0 JUMP JUMPDEST POP POP POP POP POP POP POP POP PUSH1 0x0 SWAP1 JUMP JUMPDEST SWAP1 SWAP2 DUP5 DUP3 DUP2 RETURNDATASIZE DUP4 GT PUSH2 0x43F6 JUMPI JUMPDEST PUSH2 0x43E5 DUP2 DUP4 PUSH2 0x371B JUMP JUMPDEST DUP2 ADD SUB SLT PUSH2 0x840 JUMPI POP MLOAD SWAP1 CODESIZE PUSH2 0x429B JUMP JUMPDEST POP RETURNDATASIZE PUSH2 0x43DB JUMP JUMPDEST DUP6 MLOAD RETURNDATASIZE PUSH1 0x0 DUP3 RETURNDATACOPY RETURNDATASIZE SWAP1 REVERT JUMPDEST PUSH1 0x40 MLOAD SWAP1 PUSH1 0x49 PUSH1 0x0 DUP4 JUMPDEST PUSH1 0x6 DUP3 LT PUSH2 0x4472 JUMPI POP POP POP PUSH2 0x4426 DUP3 PUSH2 0x36CD JUMP JUMPDEST PUSH1 0x6 JUMPDEST PUSH1 0xFF PUSH1 0x1 DUP2 DUP4 AND LT PUSH2 0x4469 JUMPI PUSH2 0x4449 SWAP1 PUSH2 0x4442 DUP4 PUSH2 0x365F JUMP JUMPDEST AND DUP5 PUSH2 0x3EAF JUMP JUMPDEST MLOAD DUP3 LT ISZERO PUSH2 0x4463 JUMPI PUSH1 0xFF AND DUP1 ISZERO PUSH2 0x3672 JUMPI PUSH1 0x0 NOT ADD PUSH2 0x4429 JUMP JUMPDEST SWAP2 POP POP SWAP1 JUMP JUMPDEST POP POP POP POP PUSH1 0x0 SWAP1 JUMP JUMPDEST PUSH1 0x1 PUSH1 0x20 DUP2 SWAP3 DUP6 SLOAD DUP2 MSTORE ADD SWAP4 ADD SWAP2 ADD SWAP1 SWAP2 PUSH2 0x4412 JUMP JUMPDEST ISZERO PUSH2 0x448F JUMPI JUMP JUMPDEST PUSH1 0x40 MLOAD PUSH3 0x461BCD PUSH1 0xE5 SHL DUP2 MSTORE PUSH1 0x20 PUSH1 0x4 DUP3 ADD MSTORE PUSH1 0x3 PUSH1 0x24 DUP3 ADD MSTORE PUSH3 0x216F7 PUSH1 0xEC SHL PUSH1 0x44 DUP3 ADD MSTORE PUSH1 0x64 SWAP1 REVERT JUMPDEST DUP1 ISZERO DUP1 DUP1 ISZERO PUSH2 0x44FC JUMPI JUMPDEST PUSH2 0x44F8 JUMPI PUSH5 0xE8D4A51000 DUP1 DUP4 MUL SWAP3 DUP4 DIV EQ OR ISZERO PUSH2 0x3672 JUMPI PUSH2 0x44EB PUSH2 0x44F3 SWAP2 PUSH1 0x15 SLOAD SWAP1 PUSH2 0x3AFC JUMP JUMPDEST PUSH1 0x14 SLOAD PUSH2 0x39DF JUMP JUMPDEST PUSH1 0x14 SSTORE JUMP JUMPDEST POP POP JUMP JUMPDEST POP PUSH1 0x15 SLOAD ISZERO PUSH2 0x44C4 JUMP JUMPDEST PUSH1 0x1 PUSH1 0x1 PUSH1 0xA0 SHL SUB AND PUSH1 0x0 DUP2 DUP2 MSTORE PUSH1 0x16 PUSH1 0x20 MSTORE PUSH1 0x40 DUP1 DUP3 KECCAK256 SLOAD ISZERO PUSH2 0x45A1 JUMPI PUSH1 0x14 SLOAD SWAP2 PUSH5 0xE8D4A51000 SWAP4 PUSH2 0x4553 DUP6 PUSH2 0x4540 DUP6 DUP6 KECCAK256 SLOAD DUP8 PUSH2 0x3AE9 JUMP JUMPDEST DIV DUP3 DUP5 MSTORE PUSH1 0x17 PUSH1 0x20 MSTORE DUP5 DUP5 KECCAK256 SLOAD SWAP1 PUSH2 0x39EC JUMP JUMPDEST SWAP5 DUP6 PUSH2 0x4561 JUMPI POP POP POP POP POP POP JUMP JUMPDEST PUSH2 0x457A PUSH2 0x4594 SWAP6 DUP4 DUP6 MSTORE PUSH1 0x16 PUSH1 0x20 MSTORE DUP6 DUP6 KECCAK256 SLOAD SWAP1 PUSH2 0x3AE9 JUMP JUMPDEST DIV SWAP1 DUP3 MSTORE PUSH1 0x17 PUSH1 0x20 MSTORE DUP3 DUP3 KECCAK256 SSTORE DUP2 PUSH1 0x20 MSTORE KECCAK256 SWAP2 DUP3 SLOAD PUSH2 0x39DF JUMP JUMPDEST SWAP1 SSTORE CODESIZE DUP1 DUP1 DUP1 DUP1 DUP1 PUSH2 0x37AA JUMP JUMPDEST POP POP POP JUMP JUMPDEST ISZERO PUSH2 0x45AD JUMPI JUMP JUMPDEST PUSH1 0x40 MLOAD PUSH3 0x461BCD PUSH1 0xE5 SHL DUP2 MSTORE PUSH1 0x20 PUSH1 0x4 DUP3 ADD MSTORE PUSH1 0x5 PUSH1 0x24 DUP3 ADD MSTORE PUSH5 0x6E6F204C5 PUSH1 0xDC SHL PUSH1 0x44 DUP3 ADD MSTORE PUSH1 0x64 SWAP1 REVERT JUMPDEST PUSH1 0x1 PUSH1 0x1 PUSH1 0xA0 SHL SUB AND PUSH1 0x0 DUP2 DUP2 MSTORE PUSH1 0x16 PUSH1 0x20 MSTORE PUSH1 0x40 DUP2 KECCAK256 SLOAD SWAP1 SWAP2 SWAP1 PUSH2 0x4600 SWAP1 ISZERO ISZERO PUSH2 0x45A6 JUMP JUMPDEST DUP2 MSTORE PUSH1 0x16 PUSH1 0x20 MSTORE DUP1 PUSH1 0x40 DUP2 KECCAK256 SSTORE PUSH1 0x17 PUSH1 0x20 MSTORE DUP1 PUSH1 0x40 DUP2 KECCAK256 SSTORE PUSH1 0x18 PUSH1 0x20 MSTORE PUSH1 0x40 DUP2 KECCAK256 SSTORE JUMP JUMPDEST ISZERO PUSH2 0x462B JUMPI JUMP JUMPDEST PUSH1 0x64 PUSH1 0x40 MLOAD PUSH3 0x461BCD PUSH1 0xE5 SHL DUP2 MSTORE PUSH1 0x20 PUSH1 0x4 DUP3 ADD MSTORE PUSH1 0x4 PUSH1 0x24 DUP3 ADD MSTORE PUSH4 0x8585B5D PUSH1 0xE2 SHL PUSH1 0x44 DUP3 ADD MSTORE REVERT JUMPDEST PUSH1 0x1 PUSH1 0x1 PUSH1 0xA0 SHL SUB AND PUSH1 0x0 SWAP1 DUP2 MSTORE PUSH1 0x18 PUSH1 0x20 MSTORE PUSH1 0x40 DUP2 KECCAK256 SLOAD SWAP1 SWAP2 SWAP1 DUP1 ISZERO PUSH2 0x46D1 JUMPI PUSH3 0x4F1A00 PUSH2 0x4685 DUP3 TIMESTAMP PUSH2 0x39EC JUMP JUMPDEST LT PUSH2 0x46D1 JUMPI PUSH2 0x4698 PUSH3 0xED4E00 SWAP2 TIMESTAMP PUSH2 0x39EC JUMP JUMPDEST LT PUSH2 0x46A1 JUMPI POP SWAP1 JUMP JUMPDEST SWAP1 PUSH1 0xA DUP3 MUL SWAP2 DUP1 DUP4 DIV PUSH1 0xA EQ SWAP1 ISZERO OR ISZERO PUSH2 0x46BD JUMPI POP PUSH1 0x64 SWAP1 DIV SWAP1 JUMP JUMPDEST PUSH4 0x4E487B71 PUSH1 0xE0 SHL DUP2 MSTORE PUSH1 0x11 PUSH1 0x4 MSTORE PUSH1 0x24 SWAP1 REVERT JUMPDEST POP SWAP1 PUSH1 0x14 DUP3 MUL SWAP2 DUP1 DUP4 DIV PUSH1 0x14 EQ SWAP1 ISZERO OR ISZERO PUSH2 0x46BD JUMPI POP PUSH1 0x64 SWAP1 DIV SWAP1 JUMP JUMPDEST ISZERO PUSH2 0x46F5 JUMPI JUMP JUMPDEST PUSH1 0x40 MLOAD PUSH3 0x461BCD PUSH1 0xE5 SHL DUP2 MSTORE PUSH1 0x20 PUSH1 0x4 DUP3 ADD MSTORE PUSH1 0x2 PUSH1 0x24 DUP3 ADD MSTORE PUSH2 0x189B PUSH1 0xF2 SHL PUSH1 0x44 DUP3 ADD MSTORE PUSH1 0x64 SWAP1 REVERT JUMPDEST DUP1 ISZERO PUSH2 0x4A6C JUMPI PUSH1 0x8 SLOAD PUSH1 0x40 DUP1 MLOAD PUSH4 0xB629640B PUSH1 0xE0 SHL DUP2 MSTORE SWAP1 SWAP3 SWAP2 PUSH1 0x4 SWAP2 PUSH1 0x20 SWAP2 PUSH1 0x1 PUSH1 0x1 PUSH1 0xA0 SHL SUB AND SWAP1 DUP3 DUP2 DUP6 DUP2 DUP6 GAS STATICCALL SWAP1 DUP2 ISZERO PUSH2 0x4A61 JUMPI PUSH1 0x0 SWAP2 PUSH2 0x4A34 JUMPI JUMPDEST POP DUP6 MLOAD PUSH4 0x27DDD41 PUSH1 0xE3 SHL DUP2 MSTORE DUP4 DUP2 DUP7 DUP2 DUP7 GAS STATICCALL SWAP1 DUP2 ISZERO PUSH2 0x3948 JUMPI PUSH1 0x0 SWAP2 PUSH2 0x4A05 JUMPI JUMPDEST POP PUSH2 0x478C SWAP2 PUSH2 0x3AE9 JUMP JUMPDEST SWAP5 DUP1 MLOAD PUSH4 0x193491B5 PUSH1 0xE0 SHL DUP2 MSTORE DUP4 DUP2 DUP7 DUP2 DUP7 GAS STATICCALL SWAP1 DUP2 ISZERO PUSH2 0x49FA JUMPI PUSH1 0x0 SWAP2 PUSH2 0x49CD JUMPI JUMPDEST POP DUP2 MLOAD PUSH4 0x53D79447 PUSH1 0xE0 SHL DUP2 MSTORE DUP5 DUP2 DUP8 DUP2 DUP8 GAS STATICCALL SWAP1 DUP2 ISZERO PUSH2 0x4993 JUMPI PUSH1 0x0 SWAP2 PUSH2 0x499E JUMPI JUMPDEST POP PUSH2 0x47DC SWAP2 PUSH2 0x3AE9 JUMP JUMPDEST SWAP3 DUP2 MLOAD SWAP3 PUSH4 0xD15DFE2D PUSH1 0xE0 SHL DUP5 MSTORE DUP2 DUP5 DUP8 DUP2 DUP5 GAS STATICCALL SWAP4 DUP5 ISZERO PUSH2 0x4993 JUMPI SWAP1 DUP7 SWAP3 SWAP2 PUSH1 0x0 SWAP6 PUSH2 0x495D JUMPI JUMPDEST POP DUP2 SWAP1 DUP5 MLOAD SWAP4 DUP5 DUP1 SWAP3 PUSH4 0x1CF368F9 PUSH1 0xE2 SHL DUP3 MSTORE GAS STATICCALL SWAP3 DUP4 ISZERO PUSH2 0x4953 JUMPI POP PUSH1 0x0 SWAP3 PUSH2 0x4922 JUMPI JUMPDEST POP POP PUSH2 0x4834 SWAP2 PUSH2 0x3AE9 JUMP JUMPDEST SWAP4 DUP1 PUSH2 0x48D8 JUMPI JUMPDEST POP DUP1 PUSH2 0x488E JUMPI JUMPDEST POP DUP3 PUSH2 0x484D JUMPI POP POP POP JUMP JUMPDEST PUSH5 0xE8D4A51000 DUP1 DUP4 MUL SWAP3 DUP4 DIV SUB PUSH2 0x4879 JUMPI POP PUSH2 0x4874 SWAP2 PUSH2 0x486C SWAP2 PUSH2 0x3AFC JUMP JUMPDEST PUSH1 0x1B SLOAD PUSH2 0x39DF JUMP JUMPDEST PUSH1 0x1B SSTORE JUMP JUMPDEST PUSH1 0x11 SWAP1 PUSH4 0x4E487B71 PUSH1 0xE0 SHL PUSH1 0x0 MSTORE MSTORE PUSH1 0x24 PUSH1 0x0 REVERT JUMPDEST PUSH5 0xE8D4A51000 DUP4 MUL PUSH5 0xE8D4A50FFF NOT DUP5 DUP3 DIV ADD PUSH2 0x48C3 JUMPI PUSH2 0x48BA SWAP2 PUSH2 0x48B2 SWAP2 PUSH2 0x3AFC JUMP JUMPDEST PUSH1 0x1A SLOAD PUSH2 0x39DF JUMP JUMPDEST PUSH1 0x1A SSTORE CODESIZE PUSH2 0x4842 JUMP JUMPDEST PUSH1 0x11 DUP4 PUSH4 0x4E487B71 PUSH1 0xE0 SHL PUSH1 0x0 MSTORE MSTORE PUSH1 0x24 PUSH1 0x0 REVERT JUMPDEST PUSH5 0xE8D4A51000 DUP5 MUL PUSH5 0xE8D4A50FFF NOT DUP6 DUP3 DIV ADD PUSH2 0x490D JUMPI PUSH2 0x4904 SWAP2 PUSH2 0x48FC SWAP2 PUSH2 0x3AFC JUMP JUMPDEST PUSH1 0x19 SLOAD PUSH2 0x39DF JUMP JUMPDEST PUSH1 0x19 SSTORE CODESIZE PUSH2 0x483B JUMP JUMPDEST PUSH1 0x11 DUP5 PUSH4 0x4E487B71 PUSH1 0xE0 SHL PUSH1 0x0 MSTORE MSTORE PUSH1 0x24 PUSH1 0x0 REVERT JUMPDEST DUP2 DUP2 SWAP4 SWAP3 SWAP4 RETURNDATASIZE DUP4 GT PUSH2 0x494C JUMPI JUMPDEST PUSH2 0x4939 DUP2 DUP4 PUSH2 0x371B JUMP JUMPDEST DUP2 ADD SUB SLT PUSH2 0x840 JUMPI POP MLOAD PUSH2 0x4834 CODESIZE PUSH2 0x4829 JUMP JUMPDEST POP RETURNDATASIZE PUSH2 0x492F JUMP JUMPDEST MLOAD RETURNDATASIZE PUSH1 0x0 DUP3 RETURNDATACOPY RETURNDATASIZE SWAP1 REVERT JUMPDEST SWAP2 DUP1 SWAP4 POP DUP3 DUP2 SWAP7 SWAP3 SWAP7 RETURNDATASIZE DUP4 GT PUSH2 0x498C JUMPI JUMPDEST PUSH2 0x4978 DUP2 DUP4 PUSH2 0x371B JUMP JUMPDEST DUP2 ADD SUB SLT PUSH2 0x840 JUMPI POP MLOAD SWAP3 DUP6 SWAP2 SWAP1 DUP2 PUSH2 0x4804 JUMP JUMPDEST POP RETURNDATASIZE PUSH2 0x496E JUMP JUMPDEST DUP4 MLOAD RETURNDATASIZE PUSH1 0x0 DUP3 RETURNDATACOPY RETURNDATASIZE SWAP1 REVERT JUMPDEST SWAP1 DUP6 DUP3 DUP2 RETURNDATASIZE DUP4 GT PUSH2 0x49C6 JUMPI JUMPDEST PUSH2 0x49B4 DUP2 DUP4 PUSH2 0x371B JUMP JUMPDEST DUP2 ADD SUB SLT PUSH2 0x840 JUMPI POP MLOAD PUSH2 0x47DC PUSH2 0x47D2 JUMP JUMPDEST POP RETURNDATASIZE PUSH2 0x49AA JUMP JUMPDEST SWAP1 DUP5 DUP3 DUP2 RETURNDATASIZE DUP4 GT PUSH2 0x49F3 JUMPI JUMPDEST PUSH2 0x49E3 DUP2 DUP4 PUSH2 0x371B JUMP JUMPDEST DUP2 ADD SUB SLT PUSH2 0x840 JUMPI POP MLOAD CODESIZE PUSH2 0x47AF JUMP JUMPDEST POP RETURNDATASIZE PUSH2 0x49D9 JUMP JUMPDEST DUP3 MLOAD RETURNDATASIZE PUSH1 0x0 DUP3 RETURNDATACOPY RETURNDATASIZE SWAP1 REVERT JUMPDEST SWAP1 DUP5 DUP3 DUP2 RETURNDATASIZE DUP4 GT PUSH2 0x4A2D JUMPI JUMPDEST PUSH2 0x4A1B DUP2 DUP4 PUSH2 0x371B JUMP JUMPDEST DUP2 ADD SUB SLT PUSH2 0x840 JUMPI POP MLOAD PUSH2 0x478C PUSH2 0x4782 JUMP JUMPDEST POP RETURNDATASIZE PUSH2 0x4A11 JUMP JUMPDEST SWAP1 DUP4 DUP3 DUP2 RETURNDATASIZE DUP4 GT PUSH2 0x4A5A JUMPI JUMPDEST PUSH2 0x4A4A DUP2 DUP4 PUSH2 0x371B JUMP JUMPDEST DUP2 ADD SUB SLT PUSH2 0x840 JUMPI POP MLOAD CODESIZE PUSH2 0x475F JUMP JUMPDEST POP RETURNDATASIZE PUSH2 0x4A40 JUMP JUMPDEST DUP7 MLOAD RETURNDATASIZE PUSH1 0x0 DUP3 RETURNDATACOPY RETURNDATASIZE SWAP1 REVERT JUMPDEST POP JUMP JUMPDEST DUP1 ISZERO PUSH2 0x4A6C JUMPI PUSH5 0xE8D4A51000 DUP1 DUP3 MUL SWAP2 DUP3 DIV SUB PUSH2 0x3672 JUMPI PUSH2 0x4A92 SWAP1 PUSH1 0x30 SLOAD PUSH2 0x39DF JUMP JUMPDEST PUSH1 0x30 SSTORE JUMP JUMPDEST PUSH1 0x1 PUSH1 0x1 PUSH1 0xA0 SHL SUB AND PUSH1 0x0 DUP2 DUP2 MSTORE PUSH1 0x2E PUSH1 0x20 MSTORE PUSH1 0x40 DUP2 KECCAK256 SLOAD PUSH1 0xFF AND SWAP2 DUP3 ISZERO DUP1 ISZERO PUSH2 0x4B4F JUMPI JUMPDEST PUSH2 0x45A1 JUMPI PUSH2 0x4AC9 DUP4 PUSH2 0x365F JUMP JUMPDEST PUSH1 0x8 DUP2 LT ISZERO PUSH2 0x4B3B JUMPI PUSH1 0x25 ADD SLOAD DUP2 DUP4 MSTORE PUSH1 0x2F PUSH1 0x20 MSTORE PUSH1 0x40 DUP4 KECCAK256 SLOAD PUSH2 0x4AEC SWAP2 PUSH2 0x39EC JUMP JUMPDEST SWAP3 DUP4 PUSH2 0x4AF9 JUMPI JUMPDEST POP POP POP POP JUMP JUMPDEST PUSH2 0x4B02 SWAP1 PUSH2 0x365F JUMP JUMPDEST PUSH1 0x8 DUP2 LT ISZERO PUSH2 0x4B3B JUMPI SWAP2 PUSH1 0x40 SWAP2 PUSH2 0x4B30 SWAP4 PUSH1 0x25 ADD SLOAD SWAP1 DUP3 MSTORE PUSH1 0x2F PUSH1 0x20 MSTORE DUP3 DUP3 KECCAK256 SSTORE DUP2 PUSH1 0x20 MSTORE KECCAK256 SWAP2 DUP3 SLOAD PUSH2 0x39DF JUMP JUMPDEST SWAP1 SSTORE CODESIZE DUP1 DUP1 DUP1 PUSH2 0x4AF3 JUMP JUMPDEST PUSH4 0x4E487B71 PUSH1 0xE0 SHL DUP4 MSTORE PUSH1 0x32 PUSH1 0x4 MSTORE PUSH1 0x24 DUP4 REVERT JUMPDEST POP PUSH2 0x4B59 DUP4 PUSH2 0x365F JUMP JUMPDEST PUSH1 0x8 DUP2 LT ISZERO PUSH2 0x4B3B JUMPI PUSH1 0x1D ADD SLOAD ISZERO PUSH2 0x4ABC JUMP JUMPDEST PUSH1 0xFF DUP3 AND SWAP2 DUP3 ISZERO PUSH2 0x45A1 JUMPI PUSH2 0x4BD1 SWAP2 PUSH1 0x1 DUP1 PUSH1 0xA0 SHL SUB AND SWAP3 PUSH1 0x1 PUSH1 0x0 SWAP5 DUP1 DUP7 MSTORE PUSH1 0x20 SWAP1 PUSH1 0x2E DUP3 MSTORE PUSH1 0x40 SWAP2 PUSH1 0xFF DUP4 DUP10 KECCAK256 SLOAD AND PUSH2 0x4C01 JUMPI JUMPDEST PUSH1 0x2E DUP2 MSTORE DUP3 DUP9 KECCAK256 SWAP5 PUSH1 0xFF NOT SWAP6 DUP2 DUP8 DUP3 SLOAD AND OR SWAP1 SSTORE DUP9 MSTORE PUSH1 0x2D DUP2 MSTORE DUP3 DUP9 KECCAK256 SWAP2 DUP9 MSTORE MSTORE DUP6 KECCAK256 SWAP2 DUP3 SLOAD AND OR SWAP1 SSTORE PUSH2 0x365F JUMP JUMPDEST SWAP1 PUSH1 0x8 DUP3 LT ISZERO PUSH2 0x4BED JUMPI POP PUSH1 0x1D ADD PUSH2 0x4BE9 DUP2 SLOAD PUSH2 0x3688 JUMP JUMPDEST SWAP1 SSTORE JUMP JUMPDEST PUSH4 0x4E487B71 PUSH1 0xE0 SHL DUP2 MSTORE PUSH1 0x32 PUSH1 0x4 MSTORE PUSH1 0x24 SWAP1 REVERT JUMPDEST DUP3 DUP9 KECCAK256 SLOAD PUSH1 0xFF AND DUP9 MSTORE PUSH1 0x2D DUP2 MSTORE DUP3 DUP9 KECCAK256 DUP3 DUP10 MSTORE DUP2 MSTORE DUP3 DUP9 KECCAK256 DUP1 SLOAD PUSH1 0xFF NOT AND SWAP1 SSTORE PUSH2 0x4BA2 JUMP JUMPDEST PUSH1 0x1 PUSH1 0x1 PUSH1 0xA0 SHL SUB AND PUSH1 0x0 DUP2 DUP2 MSTORE PUSH1 0x2E PUSH1 0x20 MSTORE PUSH1 0x40 DUP2 KECCAK256 SLOAD SWAP1 SWAP3 SWAP2 SWAP1 PUSH1 0xFF AND DUP1 ISZERO PUSH2 0x44F8 JUMPI PUSH2 0x4C54 SWAP1 PUSH2 0x365F JUMP JUMPDEST PUSH1 0x8 DUP2 LT ISZERO PUSH2 0x4C7C JUMPI PUSH2 0x4C79 SWAP3 SWAP4 PUSH1 0x40 SWAP2 PUSH1 0x25 ADD SLOAD SWAP3 DUP2 MSTORE PUSH1 0x2F PUSH1 0x20 MSTORE KECCAK256 SLOAD SWAP1 PUSH2 0x39EC JUMP JUMPDEST SWAP1 JUMP JUMPDEST PUSH4 0x4E487B71 PUSH1 0xE0 SHL DUP5 MSTORE PUSH1 0x32 PUSH1 0x4 MSTORE PUSH1 0x24 DUP5 REVERT JUMPDEST DUP1 ISZERO PUSH2 0x4A6C JUMPI PUSH1 0x1 DUP2 DUP2 SHR DUP2 PUSH1 0x0 SWAP3 JUMPDEST PUSH2 0x4E0B JUMPI JUMPDEST SLOAD PUSH1 0x1 PUSH1 0x1 PUSH1 0xA0 SHL SUB AND SWAP3 PUSH2 0x4CBA SWAP3 POP PUSH2 0x39EC JUMP JUMPDEST PUSH1 0x40 MLOAD SWAP1 PUSH1 0x20 SWAP3 DUP4 DUP4 ADD SWAP2 PUSH4 0xA9059CBB PUSH1 0xE0 SHL DUP4 MSTORE PUSH20 0x803B79B608455808C2F752C588804C3F5BF676A3 PUSH1 0x24 DUP6 ADD MSTORE PUSH1 0x44 DUP5 ADD MSTORE PUSH1 0x44 DUP4 MSTORE PUSH1 0x80 DUP4 ADD SWAP2 DUP4 DUP4 LT PUSH8 0xFFFFFFFFFFFFFFFF DUP5 GT OR PUSH2 0x36E9 JUMPI PUSH1 0x0 DUP1 SWAP2 PUSH2 0x4D7B SWAP6 DUP6 PUSH1 0x40 MSTORE PUSH2 0x4D1F DUP7 PUSH2 0x36FF JUMP JUMPDEST DUP8 DUP7 MSTORE PUSH32 0x5361666545524332303A206C6F772D6C6576656C2063616C6C206661696C6564 PUSH1 0xA0 DUP3 ADD MSTORE MLOAD SWAP1 DUP3 DUP6 GAS CALL RETURNDATASIZE ISZERO PUSH2 0x4E03 JUMPI RETURNDATASIZE SWAP2 PUSH2 0x4D5F DUP4 PUSH2 0x4FE3 JUMP JUMPDEST SWAP3 PUSH2 0x4D6D PUSH1 0x40 MLOAD SWAP5 DUP6 PUSH2 0x371B JUMP JUMPDEST DUP4 MSTORE RETURNDATASIZE PUSH1 0x0 DUP8 DUP6 ADD RETURNDATACOPY PUSH2 0x50FC JUMP JUMPDEST DUP1 MLOAD SWAP1 DUP3 DUP3 ISZERO SWAP3 DUP4 ISZERO PUSH2 0x4DEB JUMPI JUMPDEST POP POP POP ISZERO PUSH2 0x4D94 JUMPI POP JUMP JUMPDEST PUSH1 0x84 SWAP1 PUSH1 0x40 MLOAD SWAP1 PUSH3 0x461BCD PUSH1 0xE5 SHL DUP3 MSTORE PUSH1 0x4 DUP3 ADD MSTORE PUSH1 0x2A PUSH1 0x24 DUP3 ADD MSTORE PUSH32 0x5361666545524332303A204552433230206F7065726174696F6E20646964206E PUSH1 0x44 DUP3 ADD MSTORE PUSH10 0x1BDD081CDD58D8D95959 PUSH1 0xB2 SHL PUSH1 0x64 DUP3 ADD MSTORE REVERT JUMPDEST PUSH2 0x4DFB SWAP4 POP DUP3 ADD DUP2 ADD SWAP2 ADD PUSH2 0x4FFF JUMP JUMPDEST CODESIZE DUP3 DUP2 PUSH2 0x4D89 JUMP JUMPDEST PUSH1 0x60 SWAP2 PUSH2 0x50FC JUMP JUMPDEST PUSH1 0x4 SWAP3 DUP4 DUP2 LT ISZERO PUSH2 0x4E7A JUMPI DUP2 SWAP3 SWAP4 DUP2 PUSH1 0x10 ADD SLOAD SWAP1 DUP2 PUSH2 0x4E37 JUMPI JUMPDEST POP POP PUSH2 0x4E30 SWAP1 PUSH2 0x3688 JUMP JUMPDEST SWAP3 SWAP2 PUSH2 0x4CA0 JUMP JUMPDEST SWAP1 SWAP2 SWAP3 POP PUSH5 0xE8D4A51000 SWAP1 DUP2 DUP7 MUL SWAP2 DUP7 DUP4 DIV EQ DUP7 ISZERO OR ISZERO PUSH2 0x4879 JUMPI POP SWAP2 PUSH2 0x4E62 PUSH2 0x4E30 SWAP3 DUP6 SWAP5 PUSH2 0x3AFC JUMP JUMPDEST PUSH2 0x4E71 DUP3 PUSH1 0xC ADD SWAP2 DUP3 SLOAD PUSH2 0x39DF JUMP JUMPDEST SWAP1 SSTORE SWAP1 CODESIZE PUSH2 0x4E25 JUMP JUMPDEST POP PUSH2 0x4CA5 JUMP JUMPDEST PUSH1 0x40 MLOAD PUSH4 0xA9059CBB PUSH1 0xE0 SHL PUSH1 0x20 DUP1 DUP4 ADD SWAP2 DUP3 MSTORE PUSH1 0x1 PUSH1 0x1 PUSH1 0xA0 SHL SUB SWAP4 SWAP1 SWAP4 AND PUSH1 0x24 DUP4 ADD MSTORE PUSH1 0x44 DUP1 DUP4 ADD SWAP5 SWAP1 SWAP5 MSTORE SWAP3 DUP2 MSTORE SWAP1 SWAP2 PUSH2 0x4D7B SWAP2 SWAP1 PUSH1 0x0 SWAP1 DUP2 SWAP1 PUSH2 0x4EC7 PUSH1 0x64 DUP6 PUSH2 0x371B JUMP JUMPDEST PUSH1 0x40 MLOAD SWAP4 PUSH2 0x4ED4 DUP6 PUSH2 0x36FF JUMP JUMPDEST DUP7 DUP6 MSTORE PUSH32 0x5361666545524332303A206C6F772D6C6576656C2063616C6C206661696C6564 DUP8 DUP7 ADD MSTORE MLOAD SWAP1 DUP3 PUSH20 0x570A5D26F7765ECB712C0924E4DE545B89FD43DF GAS CALL RETURNDATASIZE ISZERO PUSH2 0x4F43 JUMPI RETURNDATASIZE SWAP1 PUSH2 0x4F27 DUP3 PUSH2 0x4FE3 JUMP JUMPDEST SWAP2 PUSH2 0x4F35 PUSH1 0x40 MLOAD SWAP4 DUP5 PUSH2 0x371B JUMP JUMPDEST DUP3 MSTORE RETURNDATASIZE PUSH1 0x0 DUP7 DUP5 ADD RETURNDATACOPY PUSH2 0x5017 JUMP JUMPDEST PUSH1 0x60 SWAP1 PUSH2 0x5017 JUMP JUMPDEST PUSH1 0x40 MLOAD PUSH4 0xA9059CBB PUSH1 0xE0 SHL PUSH1 0x20 DUP1 DUP4 ADD SWAP2 DUP3 MSTORE PUSH1 0x1 PUSH1 0x1 PUSH1 0xA0 SHL SUB SWAP5 SWAP1 SWAP5 AND PUSH1 0x24 DUP4 ADD MSTORE PUSH1 0x44 DUP1 DUP4 ADD SWAP6 SWAP1 SWAP6 MSTORE SWAP4 DUP2 MSTORE SWAP2 SWAP3 PUSH2 0x4D7B SWAP3 SWAP2 PUSH1 0x0 SWAP1 DUP2 SWAP1 PUSH2 0x4F92 PUSH1 0x64 DUP7 PUSH2 0x371B JUMP JUMPDEST PUSH1 0x1 DUP1 PUSH1 0xA0 SHL SUB AND SWAP3 PUSH1 0x40 MLOAD SWAP5 PUSH2 0x4FA8 DUP7 PUSH2 0x36FF JUMP JUMPDEST DUP8 DUP7 MSTORE PUSH32 0x5361666545524332303A206C6F772D6C6576656C2063616C6C206661696C6564 DUP9 DUP8 ADD MSTORE MLOAD SWAP1 DUP3 DUP6 GAS CALL RETURNDATASIZE ISZERO PUSH2 0x4E03 JUMPI RETURNDATASIZE SWAP2 PUSH2 0x4D5F DUP4 JUMPDEST PUSH8 0xFFFFFFFFFFFFFFFF DUP2 GT PUSH2 0x36E9 JUMPI PUSH1 0x1F ADD PUSH1 0x1F NOT AND PUSH1 0x20 ADD SWAP1 JUMP JUMPDEST SWAP1 DUP2 PUSH1 0x20 SWAP2 SUB SLT PUSH2 0x1168 JUMPI MLOAD DUP1 ISZERO ISZERO DUP2 SUB PUSH2 0x1168 JUMPI SWAP1 JUMP JUMPDEST SWAP1 SWAP2 SWAP1 ISZERO PUSH2 0x508D JUMPI POP DUP1 MLOAD ISZERO PUSH2 0x502A JUMPI SWAP1 JUMP JUMPDEST PUSH20 0x570A5D26F7765ECB712C0924E4DE545B89FD43DF EXTCODESIZE ISZERO PUSH2 0x5048 JUMPI SWAP1 JUMP JUMPDEST PUSH1 0x40 MLOAD PUSH3 0x461BCD PUSH1 0xE5 SHL DUP2 MSTORE PUSH1 0x20 PUSH1 0x4 DUP3 ADD MSTORE PUSH1 0x1D PUSH1 0x24 DUP3 ADD MSTORE PUSH32 0x416464726573733A2063616C6C20746F206E6F6E2D636F6E7472616374000000 PUSH1 0x44 DUP3 ADD MSTORE PUSH1 0x64 SWAP1 REVERT JUMPDEST DUP2 MLOAD ISZERO PUSH2 0x509D JUMPI POP DUP1 MLOAD SWAP1 PUSH1 0x20 ADD REVERT JUMPDEST PUSH1 0x40 MLOAD SWAP1 PUSH3 0x461BCD PUSH1 0xE5 SHL DUP3 MSTORE DUP2 PUSH1 0x20 DUP1 PUSH1 0x4 DUP4 ADD MSTORE DUP3 MLOAD SWAP1 DUP2 PUSH1 0x24 DUP5 ADD MSTORE PUSH1 0x0 SWAP4 JUMPDEST DUP3 DUP6 LT PUSH2 0x50E3 JUMPI POP POP PUSH1 0x44 SWAP3 POP PUSH1 0x0 DUP4 DUP3 DUP5 ADD ADD MSTORE PUSH1 0x1F DUP1 NOT SWAP2 ADD AND DUP2 ADD SUB ADD SWAP1 REVERT JUMPDEST DUP5 DUP2 ADD DUP3 ADD MLOAD DUP7 DUP7 ADD PUSH1 0x44 ADD MSTORE SWAP4 DUP2 ADD SWAP4 DUP6 SWAP4 POP PUSH2 0x50C0 JUMP JUMPDEST SWAP2 SWAP3 SWAP1 ISZERO PUSH2 0x5119 JUMPI POP DUP2 MLOAD ISZERO PUSH2 0x5110 JUMPI POP SWAP1 JUMP JUMPDEST EXTCODESIZE ISZERO PUSH2 0x5048 JUMPI SWAP1 JUMP JUMPDEST DUP3 MLOAD SWAP1 SWAP2 POP ISZERO PUSH2 0x512C JUMPI POP DUP1 MLOAD SWAP1 PUSH1 0x20 ADD REVERT JUMPDEST PUSH1 0x40 MLOAD SWAP1 PUSH3 0x461BCD PUSH1 0xE5 SHL DUP3 MSTORE DUP2 PUSH1 0x20 DUP1 PUSH1 0x4 DUP4 ADD MSTORE DUP3 MLOAD SWAP1 DUP2 PUSH1 0x24 DUP5 ADD MSTORE PUSH1 0x0 SWAP4 JUMPDEST DUP3 DUP6 LT PUSH2 0x5172 JUMPI POP POP PUSH1 0x44 SWAP3 POP PUSH1 0x0 DUP4 DUP3 DUP5 ADD ADD MSTORE PUSH1 0x1F DUP1 NOT SWAP2 ADD AND DUP2 ADD SUB ADD SWAP1 REVERT JUMPDEST DUP5 DUP2 ADD DUP3 ADD MLOAD DUP7 DUP7 ADD PUSH1 0x44 ADD MSTORE SWAP4 DUP2 ADD SWAP4 DUP6 SWAP4 POP PUSH2 0x514F JUMP JUMPDEST ISZERO PUSH2 0x5192 JUMPI JUMP JUMPDEST PUSH1 0x40 MLOAD PUSH3 0x461BCD PUSH1 0xE5 SHL DUP2 MSTORE PUSH1 0x20 PUSH1 0x4 DUP3 ADD MSTORE PUSH1 0x2 PUSH1 0x24 DUP3 ADD MSTORE PUSH2 0x2169 PUSH1 0xF0 SHL PUSH1 0x44 DUP3 ADD MSTORE PUSH1 0x64 SWAP1 REVERT JUMPDEST PUSH1 0x1 PUSH1 0x1 PUSH1 0xA0 SHL SUB AND PUSH1 0x0 DUP2 DUP2 MSTORE PUSH1 0x58 PUSH1 0x20 SWAP1 DUP2 MSTORE PUSH1 0x40 DUP1 DUP4 KECCAK256 DUP6 DUP5 MSTORE DUP3 MSTORE DUP1 DUP4 KECCAK256 SLOAD SWAP4 SWAP6 SWAP5 SWAP4 SWAP1 SWAP3 SWAP2 PUSH1 0x4 DUP6 LT ISZERO PUSH2 0x4B3B JUMPI DUP5 SWAP6 SWAP7 PUSH2 0x5228 SWAP6 PUSH1 0xC ADD SLOAD SWAP6 DUP7 SWAP4 PUSH2 0x520E PUSH5 0xE8D4A51000 SWAP9 DUP10 SWAP3 PUSH2 0x3AE9 JUMP JUMPDEST DIV DUP3 DUP7 MSTORE PUSH1 0x59 DUP5 MSTORE DUP7 DUP7 KECCAK256 DUP10 DUP8 MSTORE DUP5 MSTORE DUP7 DUP7 KECCAK256 SLOAD SWAP1 PUSH2 0x39EC JUMP JUMPDEST SWAP7 DUP8 PUSH2 0x5238 JUMPI POP POP POP POP POP POP POP POP JUMP JUMPDEST PUSH2 0x527A SWAP7 PUSH2 0x5259 DUP8 SWAP6 DUP5 DUP9 MSTORE PUSH1 0x58 DUP7 MSTORE DUP7 DUP9 KECCAK256 DUP5 DUP10 MSTORE DUP7 MSTORE DUP7 DUP9 KECCAK256 SLOAD PUSH2 0x3AE9 JUMP JUMPDEST DIV SWAP1 DUP3 DUP7 MSTORE PUSH1 0x59 DUP5 MSTORE DUP5 DUP7 KECCAK256 SWAP1 DUP7 MSTORE DUP4 MSTORE DUP4 DUP6 KECCAK256 SSTORE DUP4 MSTORE MSTORE KECCAK256 SWAP2 DUP3 SLOAD PUSH2 0x39DF JUMP JUMPDEST SWAP1 SSTORE CODESIZE DUP1 DUP1 DUP1 DUP1 DUP1 DUP1 DUP1 PUSH2 0x390F JUMP JUMPDEST ISZERO PUSH2 0x5290 JUMPI JUMP JUMPDEST PUSH1 0x64 PUSH1 0x40 MLOAD PUSH3 0x461BCD PUSH1 0xE5 SHL DUP2 MSTORE PUSH1 0x20 PUSH1 0x4 DUP3 ADD MSTORE PUSH1 0x4 PUSH1 0x24 DUP3 ADD MSTORE PUSH4 0x858985B PUSH1 0xE2 SHL PUSH1 0x44 DUP3 ADD MSTORE REVERT INVALID STOP STOP STOP STOP STOP STOP STOP STOP STOP STOP STOP STOP 0x27 0x4A 0xCC PUSH4 0x97349F21 OR SWAP15 0xD6 0x25 DUP11 SLOAD 0xB2 LOG1 SHL 0x28 STATICCALL CREATE2 LOG2 PUSH5 0x6970667358 0x22 SLT KECCAK256 0xBE 0x29 SHL 0x27 CREATE2 SIGNEXTEND AND 0xC8 0x22 POP 0xAE DUP11 0xE7 PUSH18 0x3606781676B417B23925B48BDC7976EA93DA PUSH5 0x736F6C6343 STOP ADDMOD GT STOP CALLER "},"methodIdentifiers":{"BD()":"01990eee","CLAIM_GAS_FEE()":"327cf9be","DQ_CARD()":"ad82659c","DQ_TOKEN()":"e7e043d5","D_LEVEL_RATE()":"a5f98b62","F180()":"6f3ca9ff","F60()":"4a63e222","FOUNDATION()":"65df2e51","FOUNDATION_RATE()":"cb658198","IB()":"9f77fb59","INITIAL_SUPPLY()":"2ff2e9dc","LP_RATE()":"7f45db64","MB()":"ab4ef895","NFT_RATE()":"db228a3b","OWNER()":"117803e3","PARTNER()":"ebebcf3d","ROUTER()":"32fe7b26","RT()":"fc04771a","SOL()":"06e46610","SP(uint256)":"5dcbb65a","addChild(address,address)":"8bd0ba67","addDirectSales(address,uint256)":"865eef32","addEnergy(address,uint256)":"275afa82","addLP(address,uint256,uint256)":"8652d31c","addPendingBurn(uint256)":"a862b852","addPendingSOL(address,uint256)":"88f72e3d","addTeamInvest(address,uint256)":"ea8b24ca","adminWithdrawLP(address)":"01a74937","bl(address,bool)":"589a36c2","br()":"0691cc6a","claimD(address)":"e74b5b73","claimDLevelReward()":"5733101b","claimFee(address)":"6ebc51e1","claimGasFee()":"2e30e85b","claimLP(address)":"e8bbb75b","claimNft(address)":"24d83d03","claimPbnb(address)":"c1226893","claimPdq(address)":"be75f46b","claimStakeReward(address)":"8152cb16","clearUserLPRemovalFee(address)":"50dc9baa","clmS(address,uint256)":"53f1daa1","dLevelAccReward(uint256)":"a7f7879b","dLevelCount(uint256)":"2e2678d4","dLevelRewardDebt(address)":"df0babc7","dc()":"d8a531a6","dd(address)":"9a9eeefb","distDQFee(uint256)":"002e6df8","distLP(uint256)":"d3c6bc4b","distNFT(uint256)":"31aedf9b","distP(uint256)":"230fb41e","distReward(address,uint256)":"59af312b","dl(address)":"8b298b5a","dq()":"7c1a6b0d","energyMul()":"a28ee081","feeRecipient()":"46904840","forceRemoveLP(address)":"0db576a4","fp()":"8c650b1b","getChild(address,uint256)":"e62420d9","getChildCount(address)":"9d4c8eed","getDLevel(address)":"d76ebb7b","getDLevelReward(address)":"7243e746","getDirectSales(address)":"6c8857c1","getEnergy(address)":"8fc0f5eb","getPartnerReward(address)":"72288a97","getPendingSOL(address)":"0c6727fa","getStk(address,uint256)":"2aa36e9d","getTeamInvest(address)":"43962b06","getUserLPRemovalFee(address)":"99215930","getValidAddressCount(address)":"9ab362ea","importUser(address,address,uint256,uint256,uint8,uint256)":"b82ae4e6","isB(address)":"82731247","isDLevel(uint8,address)":"321776a8","lA()":"3de47a93","lF(address)":"6e8e8af5","lpD(address)":"1956c092","lpPair()":"452ed4f1","lpS(address)":"9bd769aa","lpT(address)":"b1d78e0e","lt()":"a22ca2a6","mc()":"cb7956b0","mgrRates(uint256)":"6c7bb9a9","mgrThresh(uint256)":"f54f83b2","mine()":"99f4b251","miningContract()":"91564697","nA(uint256)":"5a4a6c8d","nD0(address)":"ba9194c4","nD1(address)":"f6f34359","nD2(address)":"57c8e9f3","nodePrices(uint256)":"a1b61a60","nodeReq(uint256)":"c5d3293e","notifyLPRemoved(address,uint256)":"834cc1ea","pBA()":"37cbe1b2","pDA()":"fa058d83","pendingBurnAmount()":"c8891784","registerDLevel(address,uint8)":"c3e98e61","registerUser(address,address)":"0354adb2","releasedSupply()":"b813c627","removeChild(address,address)":"4e0be991","sA(uint256)":"89cc1a17","sAmt(address,uint256)":"d296cc43","sDebt(address,uint256)":"c9f9b745","setAddresses(address,address,address)":"363bf964","setClaimGasFee(uint256)":"c71a83f4","setDLevelByOwner(address,uint8)":"0d88d8b8","setDQCard(address)":"3ffcca1b","setEnergy(address,uint256)":"c5d43fee","setEnergyMul(uint256)":"74ea7383","setFeeRecipient(address)":"e74b981b","setLpPair(address)":"a35f942a","setM(address)":"d6f4496a","setMiningContract(address)":"702f5321","setPendingSOL(address,uint256)":"c6636189","setTeamInvest(address,uint256)":"cae9eae9","setValidAddress(address,uint256)":"b01ba306","stake(address,uint256,uint256)":"0c51b88f","subEnergy(address,uint256)":"7a89e269","subPendingBurn(address,uint256)":"20c36ca1","subPendingSOL(address,uint256)":"a577e040","tLP()":"e1d214fc","tS(uint256)":"316eab51","unstake(address,uint256)":"c2a672e0","updateTeam(address,uint256)":"7935eca1","updateValidAddress(address)":"4bf71ffd","userDLevel(address)":"9658c1e0","userDirectSales(address)":"a11d5942","userEnergy(address)":"8f62b56e","userLPRemovalFee(address)":"3e4c7b02","userLevel(address)":"280e31cc","userNftF(address,uint256)":"d79d8946","userPBD(address)":"50f5b30b","userPDD(address)":"1346b315","userPendingSOL(address)":"ce86703a","userReferrer(address)":"7c3fcc38","userTeamInvest(address)":"226d5872","userTotalInvest(address)":"85860799","userValidAddressCount(address)":"83fb0651","withdraw(address,uint256)":"f3fef3a3","withdrawBNB()":"1d111d13","withdrawDQ(uint256)":"259256b3","withdrawLP(address)":"c579535a","withdrawLPByM(address)":"e55f27a8","withdrawSOL(uint256)":"827a7c14"}}}}}