{"src/DQM.sol":{"DQMiningV3":{"abi":[{"inputs":[],"stateMutability":"nonpayable","type":"constructor"},{"anonymous":false,"inputs":[{"indexed":true,"internalType":"address","name":"user","type":"address"},{"indexed":false,"internalType":"uint256","name":"amount","type":"uint256"},{"indexed":false,"internalType":"uint256","name":"fee","type":"uint256"}],"name":"ClaimReward","type":"event"},{"anonymous":false,"inputs":[{"indexed":true,"internalType":"address","name":"u","type":"address"},{"indexed":false,"internalType":"uint256","name":"a","type":"uint256"}],"name":"Deposit","type":"event"},{"anonymous":false,"inputs":[{"indexed":true,"internalType":"address","name":"u","type":"address"},{"indexed":true,"internalType":"address","name":"r","type":"address"}],"name":"Register","type":"event"},{"anonymous":false,"inputs":[{"indexed":true,"internalType":"address","name":"user","type":"address"},{"indexed":false,"internalType":"uint256","name":"amount","type":"uint256"},{"indexed":false,"internalType":"uint256","name":"energyAdded","type":"uint256"}],"name":"ReinvestSOL","type":"event"},{"anonymous":false,"inputs":[{"indexed":true,"internalType":"address","name":"u","type":"address"},{"indexed":false,"internalType":"uint256","name":"d","type":"uint256"},{"indexed":false,"internalType":"uint256","name":"s","type":"uint256"},{"indexed":false,"internalType":"uint256","name":"b","type":"uint256"},{"indexed":false,"internalType":"uint256","name":"f","type":"uint256"}],"name":"SellDQ","type":"event"},{"anonymous":false,"inputs":[{"indexed":true,"internalType":"address","name":"u","type":"address"},{"indexed":false,"internalType":"uint256","name":"s","type":"uint256"},{"indexed":false,"internalType":"uint256","name":"d","type":"uint256"},{"indexed":false,"internalType":"uint256","name":"l","type":"uint256"}],"name":"SwapAndAddLP","type":"event"},{"anonymous":false,"inputs":[{"indexed":true,"internalType":"address","name":"to","type":"address"},{"indexed":false,"internalType":"uint256","name":"amount","type":"uint256"}],"name":"WithdrawBNB","type":"event"},{"inputs":[],"name":"BURN_STOP_THRESHOLD","outputs":[{"internalType":"uint256","name":"","type":"uint256"}],"stateMutability":"view","type":"function"},{"inputs":[],"name":"BUY_FEE","outputs":[{"internalType":"address","name":"","type":"address"}],"stateMutability":"view","type":"function"},{"inputs":[],"name":"CLAIM_BNB_FEE","outputs":[{"internalType":"uint256","name":"","type":"uint256"}],"stateMutability":"view","type":"function"},{"inputs":[],"name":"DAILY_LIMIT","outputs":[{"internalType":"uint256","name":"","type":"uint256"}],"stateMutability":"view","type":"function"},{"inputs":[],"name":"DAO","outputs":[{"internalType":"address","name":"","type":"address"}],"stateMutability":"view","type":"function"},{"inputs":[],"name":"DAO_RATE","outputs":[{"internalType":"uint256","name":"","type":"uint256"}],"stateMutability":"view","type":"function"},{"inputs":[],"name":"DIRECT_RATE","outputs":[{"internalType":"uint256","name":"","type":"uint256"}],"stateMutability":"view","type":"function"},{"inputs":[],"name":"ENERGY_MUL","outputs":[{"internalType":"uint256","name":"","type":"uint256"}],"stateMutability":"view","type":"function"},{"inputs":[],"name":"FEE_FOUNDATION_RATE","outputs":[{"internalType":"uint256","name":"","type":"uint256"}],"stateMutability":"view","type":"function"},{"inputs":[],"name":"FEE_NODE_RATE","outputs":[{"internalType":"uint256","name":"","type":"uint256"}],"stateMutability":"view","type":"function"},{"inputs":[],"name":"FEE_PARTNER_RATE","outputs":[{"internalType":"uint256","name":"","type":"uint256"}],"stateMutability":"view","type":"function"},{"inputs":[],"name":"FOUNDATION","outputs":[{"internalType":"address","name":"","type":"address"}],"stateMutability":"view","type":"function"},{"inputs":[],"name":"INITIAL_SUPPLY","outputs":[{"internalType":"uint256","name":"","type":"uint256"}],"stateMutability":"view","type":"function"},{"inputs":[],"name":"INS","outputs":[{"internalType":"address","name":"","type":"address"}],"stateMutability":"view","type":"function"},{"inputs":[],"name":"INS_RATE","outputs":[{"internalType":"uint256","name":"","type":"uint256"}],"stateMutability":"view","type":"function"},{"inputs":[],"name":"INVEST_MIN","outputs":[{"internalType":"uint256","name":"","type":"uint256"}],"stateMutability":"view","type":"function"},{"inputs":[],"name":"MGR_RATE","outputs":[{"internalType":"uint256","name":"","type":"uint256"}],"stateMutability":"view","type":"function"},{"inputs":[],"name":"OP","outputs":[{"internalType":"address","name":"","type":"address"}],"stateMutability":"view","type":"function"},{"inputs":[],"name":"OP_RATE","outputs":[{"internalType":"uint256","name":"","type":"uint256"}],"stateMutability":"view","type":"function"},{"inputs":[],"name":"OWNER","outputs":[{"internalType":"address","name":"","type":"address"}],"stateMutability":"view","type":"function"},{"inputs":[],"name":"PHASE_STEP","outputs":[{"internalType":"uint256","name":"","type":"uint256"}],"stateMutability":"view","type":"function"},{"inputs":[],"name":"ROUTER","outputs":[{"internalType":"address","name":"","type":"address"}],"stateMutability":"view","type":"function"},{"inputs":[],"name":"SEE_RATE","outputs":[{"internalType":"uint256","name":"","type":"uint256"}],"stateMutability":"view","type":"function"},{"inputs":[],"name":"SELL_FEE","outputs":[{"internalType":"uint256","name":"","type":"uint256"}],"stateMutability":"view","type":"function"},{"inputs":[],"name":"SLIPPAGE","outputs":[{"internalType":"uint256","name":"","type":"uint256"}],"stateMutability":"view","type":"function"},{"inputs":[],"name":"SOL","outputs":[{"internalType":"address","name":"","type":"address"}],"stateMutability":"view","type":"function"},{"inputs":[],"name":"STAKE_OP","outputs":[{"internalType":"address","name":"","type":"address"}],"stateMutability":"view","type":"function"},{"inputs":[],"name":"WITHDRAW_FEE","outputs":[{"internalType":"uint256","name":"","type":"uint256"}],"stateMutability":"view","type":"function"},{"inputs":[{"internalType":"address","name":"_u","type":"address"}],"name":"addToBlacklist","outputs":[],"stateMutability":"nonpayable","type":"function"},{"inputs":[{"internalType":"uint256","name":"_a","type":"uint256"}],"name":"adminWithdrawDQ","outputs":[],"stateMutability":"nonpayable","type":"function"},{"inputs":[{"internalType":"uint256","name":"_a","type":"uint256"}],"name":"adminWithdrawSOL","outputs":[],"stateMutability":"nonpayable","type":"function"},{"inputs":[],"name":"advancePhase","outputs":[],"stateMutability":"nonpayable","type":"function"},{"inputs":[{"internalType":"uint256","name":"","type":"uint256"}],"name":"allUsers","outputs":[{"internalType":"address","name":"","type":"address"}],"stateMutability":"view","type":"function"},{"inputs":[],"name":"approveRouter","outputs":[],"stateMutability":"nonpayable","type":"function"},{"inputs":[{"internalType":"address","name":"","type":"address"}],"name":"authorized","outputs":[{"internalType":"bool","name":"","type":"bool"}],"stateMutability":"view","type":"function"},{"inputs":[{"internalType":"uint256","name":"_t","type":"uint256"}],"name":"buyNode","outputs":[],"stateMutability":"nonpayable","type":"function"},{"inputs":[],"name":"claimDTeam","outputs":[],"stateMutability":"nonpayable","type":"function"},{"inputs":[],"name":"claimFee","outputs":[],"stateMutability":"nonpayable","type":"function"},{"inputs":[],"name":"claimLP","outputs":[],"stateMutability":"nonpayable","type":"function"},{"inputs":[],"name":"claimNft","outputs":[],"stateMutability":"nonpayable","type":"function"},{"inputs":[],"name":"claimPartnerBNB","outputs":[],"stateMutability":"nonpayable","type":"function"},{"inputs":[],"name":"claimPartnerDQ","outputs":[],"stateMutability":"nonpayable","type":"function"},{"inputs":[],"name":"claimReward","outputs":[],"stateMutability":"nonpayable","type":"function"},{"inputs":[{"internalType":"uint256","name":"_periodIndex","type":"uint256"}],"name":"claimStakeReward","outputs":[],"stateMutability":"nonpayable","type":"function"},{"inputs":[],"name":"currentPhase","outputs":[{"internalType":"uint256","name":"","type":"uint256"}],"stateMutability":"view","type":"function"},{"inputs":[{"internalType":"address","name":"","type":"address"}],"name":"dailyDeposit","outputs":[{"internalType":"uint256","name":"","type":"uint256"}],"stateMutability":"view","type":"function"},{"inputs":[{"internalType":"address","name":"_user","type":"address"},{"internalType":"uint256","name":"_a","type":"uint256"}],"name":"depositForUser","outputs":[],"stateMutability":"nonpayable","type":"function"},{"inputs":[{"internalType":"uint256","name":"_a","type":"uint256"}],"name":"depositSOL","outputs":[],"stateMutability":"nonpayable","type":"function"},{"inputs":[{"internalType":"address","name":"","type":"address"}],"name":"depositWhiteList","outputs":[{"internalType":"bool","name":"","type":"bool"}],"stateMutability":"view","type":"function"},{"inputs":[{"internalType":"uint256","name":"_amount","type":"uint256"}],"name":"distributeFeeToNFT","outputs":[],"stateMutability":"nonpayable","type":"function"},{"inputs":[],"name":"dqCard","outputs":[{"internalType":"contract IDQCard","name":"","type":"address"}],"stateMutability":"view","type":"function"},{"inputs":[],"name":"dqToken","outputs":[{"internalType":"contract IDQToken","name":"","type":"address"}],"stateMutability":"view","type":"function"},{"inputs":[],"name":"getAllUsersLength","outputs":[{"internalType":"uint256","name":"","type":"uint256"}],"stateMutability":"view","type":"function"},{"inputs":[],"name":"getDailyLimit","outputs":[{"internalType":"uint256","name":"","type":"uint256"}],"stateMutability":"view","type":"function"},{"inputs":[{"internalType":"address","name":"_u","type":"address"}],"name":"getPendingSOL","outputs":[{"internalType":"uint256","name":"","type":"uint256"}],"stateMutability":"view","type":"function"},{"inputs":[{"internalType":"address","name":"_u","type":"address"}],"name":"getTeamSize","outputs":[{"internalType":"uint256","name":"","type":"uint256"}],"stateMutability":"view","type":"function"},{"inputs":[{"internalType":"address","name":"_u","type":"address"}],"name":"getUser","outputs":[{"internalType":"address","name":"referrer","type":"address"},{"internalType":"uint256","name":"directCount","type":"uint256"},{"internalType":"uint8","name":"level","type":"uint8"},{"internalType":"uint256","name":"totalInvest","type":"uint256"}],"stateMutability":"view","type":"function"},{"inputs":[{"internalType":"address","name":"_u","type":"address"}],"name":"getUserStake","outputs":[{"internalType":"uint256","name":"teamInvest","type":"uint256"},{"internalType":"uint256","name":"energy","type":"uint256"},{"internalType":"uint256","name":"pendingSOL","type":"uint256"}],"stateMutability":"view","type":"function"},{"inputs":[{"internalType":"address","name":"_auth","type":"address"}],"name":"grantAuth","outputs":[],"stateMutability":"nonpayable","type":"function"},{"inputs":[{"internalType":"address[]","name":"_u","type":"address[]"},{"internalType":"uint8[]","name":"_t","type":"uint8[]"}],"name":"importNodes","outputs":[],"stateMutability":"nonpayable","type":"function"},{"inputs":[{"internalType":"address","name":"_u","type":"address"},{"internalType":"address","name":"_r","type":"address"}],"name":"importUser","outputs":[],"stateMutability":"nonpayable","type":"function"},{"inputs":[{"internalType":"address[]","name":"_u","type":"address[]"},{"internalType":"address[]","name":"_r","type":"address[]"}],"name":"importUsers","outputs":[],"stateMutability":"nonpayable","type":"function"},{"inputs":[{"internalType":"address","name":"","type":"address"}],"name":"isBlacklisted","outputs":[{"internalType":"bool","name":"","type":"bool"}],"stateMutability":"view","type":"function"},{"inputs":[],"name":"mineBlock","outputs":[],"stateMutability":"nonpayable","type":"function"},{"inputs":[],"name":"nftPendingSOL","outputs":[{"internalType":"uint256","name":"","type":"uint256"}],"stateMutability":"view","type":"function"},{"inputs":[{"internalType":"uint256","name":"","type":"uint256"}],"name":"nodePrices","outputs":[{"internalType":"uint256","name":"","type":"uint256"}],"stateMutability":"view","type":"function"},{"inputs":[],"name":"partnerPendingSOL","outputs":[{"internalType":"uint256","name":"","type":"uint256"}],"stateMutability":"view","type":"function"},{"inputs":[{"internalType":"address","name":"_r","type":"address"}],"name":"register","outputs":[],"stateMutability":"nonpayable","type":"function"},{"inputs":[{"internalType":"uint256","name":"_a","type":"uint256"}],"name":"reinvest","outputs":[],"stateMutability":"nonpayable","type":"function"},{"inputs":[{"internalType":"address","name":"_u","type":"address"}],"name":"removeFromBlacklist","outputs":[],"stateMutability":"nonpayable","type":"function"},{"inputs":[{"internalType":"address","name":"_auth","type":"address"}],"name":"revokeAuth","outputs":[],"stateMutability":"nonpayable","type":"function"},{"inputs":[{"internalType":"uint256","name":"_dq","type":"uint256"}],"name":"sellDQForSOL","outputs":[{"internalType":"uint256","name":"solOut","type":"uint256"}],"stateMutability":"nonpayable","type":"function"},{"inputs":[{"internalType":"address","name":"_addr","type":"address"}],"name":"setDQCard","outputs":[],"stateMutability":"nonpayable","type":"function"},{"inputs":[{"internalType":"address","name":"_addr","type":"address"}],"name":"setDQToken","outputs":[],"stateMutability":"nonpayable","type":"function"},{"inputs":[{"internalType":"address","name":"_u","type":"address"},{"internalType":"bool","name":"_s","type":"bool"}],"name":"setDepositWhiteList","outputs":[],"stateMutability":"nonpayable","type":"function"},{"inputs":[{"internalType":"address","name":"_addr","type":"address"}],"name":"setFoundation","outputs":[],"stateMutability":"nonpayable","type":"function"},{"inputs":[{"internalType":"address[]","name":"_u","type":"address[]"},{"internalType":"uint8[]","name":"_lvl","type":"uint8[]"}],"name":"setNodesDLevel","outputs":[],"stateMutability":"nonpayable","type":"function"},{"inputs":[{"internalType":"address[]","name":"_u","type":"address[]"},{"internalType":"uint8[]","name":"_lvl","type":"uint8[]"}],"name":"setNodesLevel","outputs":[],"stateMutability":"nonpayable","type":"function"},{"inputs":[{"internalType":"address","name":"_u","type":"address"},{"internalType":"address","name":"_r","type":"address"}],"name":"setReferrer","outputs":[],"stateMutability":"nonpayable","type":"function"},{"inputs":[{"internalType":"uint256","name":"_s","type":"uint256"}],"name":"setSlippage","outputs":[],"stateMutability":"nonpayable","type":"function"},{"inputs":[{"internalType":"address","name":"_a","type":"address"}],"name":"setStakeContract","outputs":[],"stateMutability":"nonpayable","type":"function"},{"inputs":[{"internalType":"address","name":"_u","type":"address"},{"internalType":"uint8","name":"_lvl","type":"uint8"}],"name":"setUserDLevel","outputs":[],"stateMutability":"nonpayable","type":"function"},{"inputs":[{"internalType":"address","name":"_u","type":"address"},{"internalType":"uint8","name":"_lvl","type":"uint8"}],"name":"setUserLevel","outputs":[],"stateMutability":"nonpayable","type":"function"},{"inputs":[],"name":"stakeContract","outputs":[{"internalType":"address","name":"","type":"address"}],"stateMutability":"view","type":"function"},{"inputs":[{"internalType":"uint256","name":"_amount","type":"uint256"},{"internalType":"uint256","name":"_periodIndex","type":"uint256"}],"name":"stakeDQ","outputs":[],"stateMutability":"nonpayable","type":"function"},{"inputs":[],"name":"startTime","outputs":[{"internalType":"uint256","name":"","type":"uint256"}],"stateMutability":"view","type":"function"},{"inputs":[{"internalType":"uint256","name":"_periodIndex","type":"uint256"}],"name":"unstakeDQ","outputs":[],"stateMutability":"nonpayable","type":"function"},{"inputs":[{"internalType":"uint256","name":"_a","type":"uint256"}],"name":"withdraw","outputs":[],"stateMutability":"nonpayable","type":"function"},{"inputs":[{"internalType":"address payable","name":"_to","type":"address"},{"internalType":"uint256","name":"_amount","type":"uint256"}],"name":"withdrawBNB","outputs":[],"stateMutability":"nonpayable","type":"function"}],"evm":{"bytecode":{"linkReferences":{},"object":"6080346200017e576001600081815581546001600160a01b031990811673a0f045cde45ca1aee2033356170b46a1ff3b7202178355600583905591929091608082016001600160401b038111838210176200016a57604052828252602091681b1ae4d6e2ef50000083820152685150ae84a8cdf00000604082015269010f0cf064dd59200000606082015284845b600481106200014d575050506103e3600a554260135573274acc6397349f21179ed6258a54b2a11b28faf590818452600b835260408420818154169055600c5468010000000000000000811015620001395785810180600c5581101562000125579184939181600e94600c604098528487200191825416179055835252209060ff19825416179055604051614a439081620001848239f35b634e487b7160e01b85526032600452602485fd5b634e487b7160e01b85526041600452602485fd5b82516001600160501b03166006820155918401918691016200008d565b634e487b7160e01b84526041600452602484fd5b600080fdfe608060408181526004918236101561001657600080fd5b600092833560e01c918263055ad42e14612ebd5750816306e4661014612e8e5781630c6727fa14612e685781630cc9771c14612c6f578163117803e314612c465781631186873f14612b715781631267f4f914612a5c578163138f1c1014610d10578163197c7c10146129d75781631a186227146129af57816321a1b04414612971578163222d317714612955578382632288957e146128ed57508163248ec3261461120b57816324929d75146128d157816327b9bb9c146128a2578382632d1d79a9146128375782632e1a7d4d146127d1575081632ff2e9dc146127a957816332dadc3e146125f957816332fe7b26146125ca57816336b4134a146125ab578163392075b2146125385781633c766035146124d55781633ffcca1b1461247857816343469f07146124555781634420e486146122f157816344337ea11461229d578163452dbfa71461226e5781634773a6a91461225257816348e2219f146121ca5781634abd04df1461213d578163509484d5146120a6578163519f16401461206d578163537df3b61461201c578382635ae2afa414611fb1575081635b387f3d14611e8d5781636338663914611e3057816365df2e5114611e07578163682e481f14610d105781636991b45c14611ccc5781636f77926b14611c6b5781637225d3c914611c175783826378a1ff8f14611b9b5750816378e9792514611b7c5781637c9c347214611b4d57816383b4918b1461197057816383b5601e14610d1057816386e6c41d1461181b5781638da09c15146117ff57838263914fafd214611794575081639630498b1461131c57816398fabd3a146112ed5783826399d32fc41461128257826399dc002514611217575081639baa944d1461120b5781639bff5ddb14610a58578163a1b61a60146111df578163a2108a4314611129578163a2bdedf4146110d2578163a4a0365c146110b6578163a53f57bc1461108d578163a6895b5a14611069578163a7d1a97c1461104a578163a97af1f214610fa6578163b00b968b14610f87578163b08d244214610d38578163b0d8b72a14610d1c578163b44b5fc114610d10578163b88a802f14610ce8578163b918161114610caa578163bbadc93a14610c63578163bbddaca314610a9f578163be25a71814610a64578163c99cf44714610a58578163cbd076f8146109af578163cc68410e14610990578163cf9fcbaf1461096f578163db3543f51461090f57838263de44391a14610897578263e506b25b146107f757508163edd47fe614610581578163f043369b14610558578163f0fa55a91461051757508063f1ddb70c146104e0578063f5d7abb3146104c5578063f8171dfa14610475578063f88cc9e2146104475763fe575a8714610407575b600080fd5b346104435760203660031901126104435760209160ff9082906001600160a01b03610430612ed9565b168152600d855220541690519015158152f35b5080fd5b503461044357816003193601126104435760209051737cc3260b1e4e1d830a6a92a3b2f77257fbab169f8152f35b50346104435760203660031901126104435761048f612ed9565b6104a86000805160206149ce833981519152331461303d565b6001600160a01b03168252600e6020528120805460ff1916905580f35b50346104435781600319360112610443576020905160638152f35b50346104435760203660031901126104435760209181906001600160a01b03610507612ed9565b168152600f845220549051908152f35b83903461044357602036600319011261044357356105446000805160206149ce833981519152331461303d565b6105526103e882111561310e565b600a5580f35b50503461044357816003193601126104435760025490516001600160a01b039091168152602090f35b9190503461076e57602080600319360112610733578235926105a16134bf565b6001841015806107ec575b156107c3576003548351636866537d60e01b80825283820187905287926001600160a01b039290831691908681602481865afa9081156107b957908792918691610783575b506105fd901515614753565b602488518094819382528b898301525afa908115610779578391610748575b5085516370a0823160e01b8152338582015290858260248173570a5d26f7765ecb712c0924e4de545b89fd43df5afa91821561073e578492610709575b506106698161068b931015613b8c565b610674813033613515565b60011c6106858184600154166146a6565b33613c87565b6003541691823b15610443578451631aa1577160e11b8152339181019182526020820187905292839182908490829060400103925af180156106ff5760029260ff9492600b926106f0575b5033875252842001911660ff198254161790556001815580f35b6106f9906130a6565b386106d6565b83513d87823e3d90fd5b91508582813d8311610737575b61072081836130ec565b8101031261073357905190610669610659565b8380fd5b503d610716565b87513d86823e3d90fd5b90508481813d8311610772575b61075f81836130ec565b8101031261076e57513861061c565b8280fd5b503d610755565b86513d85823e3d90fd5b83819492503d83116107b2575b61079a81836130ec565b810103126107ae576105fd879251906105f1565b8480fd5b503d610790565b88513d87823e3d90fd5b915162461bcd60e51b8152918201526005602482015264217479706560d81b6044820152606490fd5b5060038411156105ac565b92915034610893576020366003190112610893576108136134bf565b80546001600160a01b0316908161082d575b836001815580f35b813b1561088e5782516353f1daa160e01b81523381830190815291356020830152939184918290849082906040015b03925af19081156108855750610876575b80808392610825565b61087f906130a6565b3861086d565b513d84823e3d90fd5b505050fd5b5050fd5b929150346108935782600319360112610893576108b26134bf565b80546001600160a01b03166108c8811515613b57565b803b1561088e57602484928451958693849263e8bbb75b60e01b845233908401525af19081156108855750610900575b506001815580f35b610909906130a6565b386108f8565b833461096c57602036600319011261096c57610929612ed9565b6109426000805160206149ce833981519152331461303d565b6001600160a01b0316610956811515613072565b6001600160601b0360a01b600154161760015580f35b80fd5b50503461044357816003193601126104435760209051652d79883d20008152f35b5050346104435781600319360112610443576020906011549051908152f35b505034610443578060031936011261044357610a36906109cd612ed9565b610a26602435926109ed6000805160206149ce833981519152331461303d565b670de0b6b3a764000084101580610a39575b610a089061313e565b6001600160a01b038381168752600b602052908620541615156132b4565b610a31823033613515565b6137b9565b80f35b506001600160a01b0383168652600d6020528086205460ff16156109ff565b50505050610402612ff2565b833461096c578060031936011261096c57610a8e6000805160206149ce833981519152331461303d565b610a996005546131a4565b60055580f35b90503461076e578160031936011261076e57610ab9612ed9565b90610ac2612eef565b906000805160206149ce83398151915293610ade85331461303d565b60018060a01b0380941693848752600b90602094828652610b0582858b20541615156132b4565b86895282865284848a200154610c3157811696868814610c095790610b448795949392898b5283885282858c2054161590811591610bff575b50613170565b84895281865282892054169485610bac575b84895281815282892080546001600160a01b031916891790558789528289206001018054610b969750610b88906131a4565b90558789525286200161322d565b506000805160206149ee8339815191528380a380f35b919350919380885260018489200180548015610bec579187959391610b969795936000190190558952818152610be68585858c20016132f3565b50610b56565b634e487b7160e01b8a526011875260248afd5b9050891438610b3e565b6064868686519162461bcd60e51b83528183015260248201526339b2b63360e11b6044820152fd5b835162461bcd60e51b8152808601879052600c60248201526b3430b99031b434b6323932b760a11b6044820152606490fd5b50503461044357602036600319011261044357610ca690610c8a610c85612ed9565b6147e0565b9251918252602082015260408101919091529081906060820190565b0390f35b5050346104435760203660031901126104435760209160ff9082906001600160a01b03610cd5612ed9565b168152600e855220541690519015158152f35b833461096c578060031936011261096c57610d016134bf565b610d09614394565b6001815580f35b50505050610402612f81565b50503461044357816003193601126104435760209051600f8152f35b9190503461076e57610d4936612f36565b91909392610d666000805160206149ce833981519152331461303d565b610d7183831461344e565b865b828110610d7e578780f35b6001600160a01b0380610d9a610d95848787613480565b613490565b168952600b602081815282888c205416610f7b57610dbc610d9585898c613480565b83610dcb610d95878a8a613480565b168c5282825283898d2091166001600160601b0360a01b825416179055610dfe610df9610d95868989613480565b6131c9565b82610e0d610d95868a8d613480565b16151580610f58575b610ef8575b50508088541680610e6a575b5090610e6591610e3b610d95838787613480565b9080610e4b610d95858a8d613480565b1691166000805160206149ee8339815191528b80a36131a4565b610d73565b89610e79610d95858888613480565b91610e88610d95868a8d613480565b90803b1561076e5789516301aa56d960e11b81526001600160a01b039485168d8201908152929094166020830152839182908490829060400103925af18015610eee5790610e65939291610edf575b509091610e27565b610ee8906130a6565b38610ed7565b87513d8c823e3d90fd5b82610f07610d95868a8d613480565b168b528181526001888c2001610f1d81546131a4565b905582610f2e610d95868a8d613480565b168b5252610f5088878b200182610f49610d95868989613480565b169061322d565b503880610e1b565b5082610f68610d95868a8d613480565b168b5281815282888c2054161515610e16565b505050610e65906131a4565b505034610443578160031936011261044357602090600c549051908152f35b90503461076e578160031936011261076e57356001600160a01b038116919082900361076e5760207fceac4c050cf0bd5320be38f58d0d370278667b15662191291c09d7fb144371b3916024359061100d6000805160206149ce833981519152331461303d565b81151580611040575b61101f90613b8c565b61103886808080868a5af1611032613681565b5061310e565b51908152a280f35b5047821115611016565b5050346104435781600319360112610443576020906012549051908152f35b505034610443578160031936011261044357602090611086614788565b9051908152f35b50503461044357816003193601126104435760035490516001600160a01b039091168152602090f35b5050346104435781600319360112610443576020905160288152f35b90503461076e57602036600319011261076e5735600c5481101561076e57600c6020935260018060a01b03907fdf6966c971051c3d54ec59162606531493a51404a002842f56009d7e5cf4a8c70154169051908152f35b9190503461076e578261113b36612fc2565b906111556000805160206149ce833981519152331461303d565b611165600860ff84161115613418565b84546001600160a01b0316908161117a578380f35b813b1561073357845163c3e98e6160e01b81526001600160a01b0390911695810195865260ff9092166020860152909384919082908490829060400103925af190811561088557506111d0575b80828180808380f35b6111d9906130a6565b386111c7565b90503461076e57602036600319011261076e5780359081101561076e5760209250600601549051908152f35b50505050610402612f9e565b929150346108935782600319360112610893576112326134bf565b80546001600160a01b03168061124a57836001815580f35b803b1561088e57602484928451958693849263e74b5b7360e01b845233908401525af190811561088557506108765780808392610825565b9291503461089357826003193601126108935761129d6134bf565b80546001600160a01b0316806112b557836001815580f35b803b1561088e576024849284519586938492636ebc51e160e01b845233908401525af190811561088557506108765780808392610825565b505034610443578160031936011261044357602090517327b84fc9eb5c3a19585093ad6d11292cbbab58528152f35b9190503461076e576020928360031936011261096c57823561133c6134bf565b60025483516370a0823160e01b815233818701526001600160a01b0395916024919087169088818481855afa80156116ff5785908790611763575b61138392501015613b8c565b85516323b872dd60e01b815233848201908152306020820152604081018690529091899183919082908990829060600103925af180156117595761173c575b5060025485516318160ddd60e01b81529690811688888581845afa9788156116ff57869861170d575b506c013fe2e171cda1978db80000008698116116aa575b50600684028481046006148515171561169857606490049261142484866132e6565b9184158015611579575b5087519061143b826130d0565b600282528a82019089368337600254169082511561156757528692919061149d9073570a5d26f7765ecb712c0924e4de545b89fd43df61147a82613bbe565b52898051968795869563d06ca61f60e01b87528601528401526044830190613c4a565b03817310ed43c718714eb63d5aa57b78b54704e256024e5afa90811561155d576114e46114da869594936103e8936001989161153b575b50613bbe565b51600a54906137a6565b04956114f1871515614753565b6114fb87336146a6565b855192835286888401528583015260608201527f88c033612c130a9a7761f426ac32613c1e817609cb4c219096e5a0637473ba1860803392a25551908152f35b61155791503d8089833e61154f81836130ec565b810190613bce565b386114d4565b85513d86823e3d90fd5b634e487b7160e01b8952603284528589fd5b603286029086820460321417156116865760649004801515806115fd575b806115f1575b1561142e578183541690813b156115ed5788918683928c5194859384926205cdbf60e31b8452898401525af180156115e3571561142e576115dd906130a6565b3861142e565b89513d8a823e3d90fd5b8880fd5b5081835416151561159d565b6002546001548b5163a9059cbb60e01b81529085166001600160a01b03168682019081526020810185905290918e91839187169082908e90829060400103925af1801561167c5761164f575b50611597565b61166e908d803d10611675575b61166681836130ec565b810190613566565b5038611649565b503d61165c565b8b513d8c823e3d90fd5b634e487b7160e01b8852601183528488fd5b634e487b7160e01b8652601184528286fd5b9650605a8402848104605a1485151715611698576064900496803b156117095785809184895180948193630852cd8d60e31b83528d8a8401525af180156116ff5715611402576116f9906130a6565b38611402565b87513d88823e3d90fd5b8580fd5b9097508881813d8311611735575b61172581836130ec565b81010312611709575196386113eb565b503d61171b565b61175290883d8a116116755761166681836130ec565b50386113c2565b86513d87823e3d90fd5b50508881813d831161178d575b61177a81836130ec565b8101031261170957846113839151611377565b503d611770565b929150346108935782600319360112610893576117af6134bf565b80546001600160a01b0316806117c757836001815580f35b803b1561088e57602484928451958693849263be75f46b60e01b845233908401525af190811561088557506108765780808392610825565b5050346104435781600319360112610443576020905160078152f35b9190503461076e578060031936011261076e578282359261183a6134bf565b80546001600160a01b03906118529082161515613b57565b60025484516370a0823160e01b815233848201526020918316908281602481855afa80156116ff578890879061193f575b61188f92501015613b8c565b85516323b872dd60e01b815233858201908152306020820152604081018990529091839183919082908990829060600103925af1801561175957611921575b5050815416803b1561076e578351630c51b88f60e01b8152339281019283526020830195909552602435604083015284918290849082906060015b03925af1908115610885575061090057506001815580f35b8161193792903d106116755761166681836130ec565b5038806118ce565b50508281813d8311611969575b61195681836130ec565b81010312611709578761188f9151611883565b503d61194c565b90503461076e5760209182600319360112610733578135916119906134bf565b338552600b8452818520546001600160a01b0390811615801590611b36575b6119b8906132b4565b815416936119c7851515613b57565b825163063393fd60e11b815233838201528181602481895afa8015611af9578790611b03575b6119fa9150851115613b8c565b843b15611709578251630295df8160e61b815233838201908152602081018690528790829081906040010381838a5af18015611af957611aea575b50600384029184830460031485151715611ad7578690863b156104435784516313ad7d4160e11b8152339181019182526020820185905296879182908490829060400103925af1948515611acd577faaa67eebeabbc077cc4d64aed90bb17efbcd628233e7e9207bbbfbfee0cb5afd9495611abe575b5082519485528401523392a26001815580f35b611ac7906130a6565b38611aab565b83513d88823e3d90fd5b634e487b7160e01b875260119052602486fd5b611af3906130a6565b38611a35565b84513d89823e3d90fd5b508181813d8311611b2f575b611b1981836130ec565b81010312611b2b576119fa90516119ed565b8680fd5b503d611b0f565b50336000805160206149ce833981519152146119af565b50503461044357816003193601126104435760209051734be56c5390869a3236f8545462896eb1e423d0d58152f35b5050346104435781600319360112610443576020906013549051908152f35b92915034610893578260031936011261089357611bb66134bf565b611bcf6000805160206149ce833981519152331461303d565b80546001600160a01b031680611be757836001815580f35b803b1561088e5783918351809581936399f4b25160e01b83525af190811561088557506108765780808392610825565b50503461044357602036600319011261044357611c32612ed9565b611c4b6000805160206149ce833981519152331461303d565b6001600160a01b03168252600e6020528120805460ff1916600117905580f35b505034610443576020366003190112610443576080916001600160a01b039190819083611c96612ed9565b168152600b602052209182541691600181015491600360ff60028401541692015492815194855260208501528301526060820152f35b83915034610443578160031936011261044357611cf86000805160206149ce833981519152331461303d565b6002546001600160a01b03168015611dde57928293815163095ea7b360e01b938482527310ed43c718714eb63d5aa57b78b54704e256024e918282820152600019938460248301528160448160209a8b945af18015611dd457611db7575b508351948552840152602483015282826044818773570a5d26f7765ecb712c0924e4de545b89fd43df5af1908115611dae5750611d91578280f35b81611da792903d106116755761166681836130ec565b5081808280f35b513d85823e3d90fd5b611dcd90873d89116116755761166681836130ec565b5087611d56565b85513d8a823e3d90fd5b835162461bcd60e51b8152602081840152600360248201526221647160e81b6044820152606490fd5b50503461044357816003193601126104435760015490516001600160a01b039091168152602090f35b833461096c57602036600319011261096c57611e4a612ed9565b611e636000805160206149ce833981519152331461303d565b6001600160a01b0316611e77811515613072565b6001600160601b0360a01b600254161760025580f35b83915034610443576020928360031936011261076e57813591611eae6134bf565b338452600b8552818420546001600160a01b031615801590611f9a575b611ed4906132b4565b670de0b6b3a764000083101580611f85575b611eef9061313e565b3384526010855260ff828520541615611f19575b83610d0984611f13813033613515565b336137b9565b611f21614788565b338552600f8652611f3584848720546134b2565b11611f5d5750600f610d099394338652528320611f538282546134b2565b9055829184611f03565b8490606492519162461bcd60e51b835281830152602482015263216c696d60e01b6044820152fd5b50338452600d85528184205460ff1615611ee6565b50336000805160206149ce83398151915214611ecb565b92915034610893578260031936011261089357611fcc6134bf565b80546001600160a01b031680611fe457836001815580f35b803b1561088e5760248492845195869384926324d83d0360e01b845233908401525af190811561088557506108765780808392610825565b50503461044357602036600319011261044357612037612ed9565b6120506000805160206149ce833981519152331461303d565b6001600160a01b03168252600d6020528120805460ff1916905580f35b90503461076e57602036600319011261076e5760209282906001600160a01b03612095612ed9565b168152600b85522001549051908152f35b9190503461076e57602036600319011261076e57826120c3612ed9565b6120dc6000805160206149ce833981519152331461303d565b6001600160a01b0316926120f1841515613072565b80546001600160a01b03191684178155833b1561044357602460039183855196879485936374ea738360e01b85528401525af19081156108855750612134575080f35b610a36906130a6565b9190503461076e57602036600319011261076e5760206000805160206149ce8339815191529261216e84331461303d565b600254835163a9059cbb60e01b815282810195909552903560248501528390604490829087906001600160a01b03165af190811561088557506121af575080f35b6121c69060203d81116116755761166681836130ec565b5080f35b9190503461076e57602036600319011261076e578282358015158061223f575b6121f2575080f35b83546001600160a01b031693843b1561076e5760249083855196879485936331aedf9b60e01b85528401525af1908115610885575061223057808280f35b612239906130a6565b38808280f35b5083546001600160a01b031615156121ea565b5050346104435781600319360112610443576020905160068152f35b50503461044357816003193601126104435760209051732db993b862969040cd971df8fd2a2c80ec2852038152f35b505034610443576020366003190112610443576122b8612ed9565b6122d16000805160206149ce833981519152331461303d565b6001600160a01b03168252600d6020528120805460ff1916600117905580f35b90503461076e5760209182600319360112610733578361230f612ed9565b6001600160a01b0381811695600b903388141580612442575b6123319061313e565b876123db575b33855252838320866001600160601b0360a01b825416179055612359336131c9565b8454168061237a575b8286336000805160206149ee8339815191528380a380f35b803b1561076e5783516301aa56d960e11b8152339581019586526001600160a01b039092166020860152909384919082908490829060400103925af1908115611dae57506123cc575b80838180612362565b6123d5906130a6565b386123c3565b8785528181528286862054161580159061242b575b6123f990613170565b87855281815260018686200161240f81546131a4565b905587855281815261242533888888200161322d565b50612337565b506000805160206149ce83398151915288146123f0565b5033855281815285852054831615612328565b50503461044357816003193601126104435760209051674563918244f400008152f35b833461096c57602036600319011261096c57612492612ed9565b6124ab6000805160206149ce833981519152331461303d565b6001600160a01b03166124bf811515613072565b6001600160601b0360a01b600354161760035580f35b5050346104435780600319360112610443576124ef612ed9565b9060243591821515809303610733576125176000805160206149ce833981519152331461303d565b60018060a01b03168352601060205282209060ff8019835416911617905580f35b50503461044357600260ff9161254d36612fc2565b6125696000805160206149ce833981519152959295331461303d565b16926001841015806125a0575b61257f906133e3565b6001600160a01b03168452600b602052832001805460ff1916909117905580f35b506006841115612576565b505034610443578160031936011261044357602090600a549051908152f35b505034610443578160031936011261044357602090517310ed43c718714eb63d5aa57b78b54704e256024e8152f35b90503461076e578160031936011261076e57612613612ed9565b61261b612eef565b926126356000805160206149ce833981519152331461303d565b60018060a01b039283831693848752600b9060209482865281858a20541661277c5786895282865284892080546001600160a01b03191698831698891790558893929190612682906131c9565b87151580612768575b612736575b82541694856126b2575b8388886000805160206149ee8339815191528380a380f35b868452528282209360ff600260038701549601541691813b15610733578360c492889487519889968795635c15727360e11b87528601528b6024860152604485015282606485015260848401528160a48401525af190811561272d575061271e575b808481808061269a565b612727906130a6565b38612714565b513d86823e3d90fd5b87845281865260018585200161274c81546131a4565b905587845281865261276287848787200161322d565b50612690565b50878452818652808585205416151561268b565b845162461bcd60e51b81528085018790526007602482015266616c726561647960c81b6044820152606490fd5b505034610443578160031936011261044357602090516c01431e0fae6d7217caa00000008152f35b92915034610893576020366003190112610893576127ed6134bf565b80546001600160a01b031690612804821515613b57565b813b1561088e57825163f3fef3a360e01b8152338183019081529135602083015293918491829084908290604001611909565b929150346108935782600319360112610893576128526134bf565b80546001600160a01b03168061286a57836001815580f35b803b1561088e57602484928451958693849263c122689360e01b845233908401525af190811561088557506108765780808392610825565b50503461044357816003193601126104435760209051731850933c0d64db3a56476f5bdc4191bcfd242e308152f35b5050346104435781600319360112610443576020905160088152f35b92915034610893576020366003190112610893576129096134bf565b80546001600160a01b0316908161292257836001815580f35b813b1561088e578251630615339760e51b815233818301908152913560208301529391849182908490829060400161085c565b5050346104435781600319360112610443576020905160038152f35b5050346104435760203660031901126104435760209160ff9082906001600160a01b0361299c612ed9565b1681526010855220541690519015158152f35b90503461076e578260031936011261076e575490516001600160a01b03909116815260209150f35b838334610443576020366003190112610443576000805160206149ce83398151915290612a0582331461303d565b80519163a9059cbb60e01b602084015260248301528335604483015260448252608082019082821067ffffffffffffffff831117612a4957610a369394505261357e565b634e487b7160e01b845260418552602484fd5b90503461076e57612a6c36612f36565b612a8a6000805160206149ce8339815191529694929396331461303d565b612a9581871461344e565b865b868110612aa2578780f35b612ac4600860ff612abc612ab785878a613480565b6134a4565b161115613418565b85546001600160a01b031680612ae4575b50612adf906131a4565b612a97565b88612af3610d95848b88613480565b91612b02612ab785878a613480565b90803b1561076e57885163c3e98e6160e01b81526001600160a01b03909416848b0190815260ff9092166020830152839182908490829060400103925af18015612b675790612adf9291612b58575b5090612ad5565b612b61906130a6565b38612b51565b86513d8b823e3d90fd5b50503461044357612b8136612f36565b93909192612b9e6000805160206149ce833981519152331461303d565b612ba985851461344e565b855b848110612bb6578680f35b612c229060ff600181612bcd612ab7858c8b613480565b16101580612c27575b612bdf906133e3565b612bed612ab7838a89613480565b906001600160a01b03612c04610d95858b89613480565b168a52600b6020526002868b2001911660ff198254161790556131a4565b612bab565b50612bdf600682612c3c612ab7868d8c613480565b1611159050612bd6565b505034610443578160031936011261044357602090516000805160206149ce8339815191528152f35b9190503461076e57612c8036612f36565b6000805160206149ce8339815191529593949291612c9f87331461303d565b612caa82841461344e565b875b838110612cb7578880f35b6001600160a01b0380612cce610d9584888c613480565b168a52600b60208181528a8c88858d8c8983828720541615612e03575b5050505050905060ff93600185612d06612ab7898c8c613480565b16101580612de9575b612d27575b5050505050612d22906131a4565b612cac565b8b612d3b610d95888c856003541694613480565b612d49612ab7898c8c613480565b823b156107ae578c51631aa1577160e11b8152918416828f0152871660248201529083908290604490829084905af18015612ddf5791612db1610d958f979593998d612dab612ab78f8f90612d229f91869f9d9b928793612dd0575b50613480565b99613480565b169052526002888d2001911660ff198254161790559038808b81612d14565b612dd9906130a6565b38612da5565b8b513d85823e3d90fd5b50600385612dfb612ab7898c8c613480565b161115612d0f565b8483610d959386612e2a610d95866000805160206149ee8339815191529b612e589a613480565b1689528b8b52882080546001600160a01b0319168a179055612e53610df9610d95858585613480565b613480565b169180a38a8c88858d8c89612ceb565b50503461044357602036600319011261044357602090611086612e89612ed9565b614945565b5050346104435781600319360112610443576020905173570a5d26f7765ecb712c0924e4de545b89fd43df8152f35b8490346104435781600319360112610443576020906005548152f35b600435906001600160a01b038216820361040257565b602435906001600160a01b038216820361040257565b9181601f840112156104025782359167ffffffffffffffff8311610402576020808501948460051b01011161040257565b60406003198201126104025767ffffffffffffffff916004358381116104025782612f6391600401612f05565b9390939260243591821161040257612f7d91600401612f05565b9091565b5034610402576000366003190112610402576020604051601e8152f35b5034610402576000366003190112610402576020604051670de0b6b3a76400008152f35b6040906003190112610402576004356001600160a01b0381168103610402579060243560ff811681036104025790565b5034610402576000366003190112610402576020604051600a8152f35b80548210156130275760005260206000200190600090565b634e487b7160e01b600052603260045260246000fd5b1561304457565b60405162461bcd60e51b815260206004820152600660248201526510b7bbb732b960d11b6044820152606490fd5b1561307957565b60405162461bcd60e51b815260206004820152600560248201526410b0b2323960d91b6044820152606490fd5b67ffffffffffffffff81116130ba57604052565b634e487b7160e01b600052604160045260246000fd5b6060810190811067ffffffffffffffff8211176130ba57604052565b90601f8019910116810190811067ffffffffffffffff8211176130ba57604052565b1561311557565b60405162461bcd60e51b81526020600482015260016024820152602160f81b6044820152606490fd5b1561314557565b606460405162461bcd60e51b815260206004820152600460248201526310b4b73b60e11b6044820152fd5b1561317757565b60405162461bcd60e51b815260206004820152600560248201526410b93932b360d91b6044820152606490fd5b60001981146131b35760010190565b634e487b7160e01b600052601160045260246000fd5b600c54600160401b8110156130ba576001810180600c5581101561302757600c6000527fdf6966c971051c3d54ec59162606531493a51404a002842f56009d7e5cf4a8c70180546001600160a01b0319166001600160a01b03909216919091179055565b919060018301600090828252806020526040822054156000146132ae57845494600160401b86101561329a578361328a613271886001604098999a0185558461300f565b819391549060031b600019811b9283911b169119161790565b9055549382526020522055600190565b634e487b7160e01b83526041600452602483fd5b50925050565b156132bb57565b606460405162461bcd60e51b81526020600482015260046024820152632172656760e01b6044820152fd5b919082039182116131b357565b906001820190600092818452826020526040842054908115156000146133dc57600019918083018181116133c8578254908482019182116133b45780820361337f575b5050508054801561336b5782019161334e838361300f565b909182549160031b1b191690555582526020526040812055600190565b634e487b7160e01b86526031600452602486fd5b61339f61338f613271938661300f565b90549060031b1c9283928661300f565b90558652846020526040862055388080613336565b634e487b7160e01b88526011600452602488fd5b634e487b7160e01b87526011600452602487fd5b5050505090565b156133ea57565b60405162461bcd60e51b8152602060048201526006602482015265085b195d995b60d21b6044820152606490fd5b1561341f57565b60405162461bcd60e51b815260206004820152600760248201526608511b195d995b60ca1b6044820152606490fd5b1561345557565b606460405162461bcd60e51b815260206004820152600460248201526310b632b760e11b6044820152fd5b91908110156130275760051b0190565b356001600160a01b03811681036104025790565b3560ff811681036104025790565b919082018092116131b357565b6002600054146134d0576002600055565b60405162461bcd60e51b815260206004820152601f60248201527f5265656e7472616e637947756172643a207265656e7472616e742063616c6c006044820152606490fd5b6040516323b872dd60e01b60208201526001600160a01b0391821660248201529116604482015260648101919091526135649061355f81608481015b03601f1981018352826130ec565b61357e565b565b90816020910312610402575180151581036104025790565b604051604081019080821067ffffffffffffffff8311176130ba576135f9916040526000806020948584527f5361666545524332303a206c6f772d6c6576656c2063616c6c206661696c65648685015285815191018273570a5d26f7765ecb712c0924e4de545b89fd43df5af16135f3613681565b906136c1565b805190828215928315613669575b505050156136125750565b6084906040519062461bcd60e51b82526004820152602a60248201527f5361666545524332303a204552433230206f7065726174696f6e20646964206e6044820152691bdd081cdd58d8d9595960b21b6064820152fd5b6136799350820181019101613566565b388281613607565b3d156136bc573d9067ffffffffffffffff82116130ba57604051916136b0601f8201601f1916602001846130ec565b82523d6000602084013e565b606090565b9091901561373757508051156136d45790565b73570a5d26f7765ecb712c0924e4de545b89fd43df3b156136f25790565b60405162461bcd60e51b815260206004820152601d60248201527f416464726573733a2063616c6c20746f206e6f6e2d636f6e74726163740000006044820152606490fd5b8151156137475750805190602001fd5b6040519062461bcd60e51b82528160208060048301528251908160248401526000935b82851061378d575050604492506000838284010152601f80199101168101030190fd5b848101820151868601604401529381019385935061376a565b818102929181159184041417156131b357565b90600060018060a01b039283811693848352600b602052604092600384822001918254926137e787856134b2565b905560328602861590878104603214821715613b4357606490049161380c83896132e6565b946004918254169283613866575b505050505050917fe1fffcc4923d04b559f4d29a8bfc6cda04eb5b0d3c460751c2402c5c5cc9109c939183602094613856575b505051908152a2565b61385f91613c87565b388061384d565b60038a02908a82046003141715613b1d57833b156117095788516313ad7d4160e11b81526001600160a01b038916848201908152602081019290925290869082908190604001038183885af18015613ae157613b30575b50601e8402848104601e1485151715613b1d5760649004833b15611709578851637545926560e11b81526001600160a01b03891684820190815260208101839052879082908190604001038183895af18015613b1357908791613aff575b5050833b15611709578851637935eca160e01b81526001600160a01b038916848201908152602081019290925290869082908190604001038183885af18015613ae157908691613aeb575b5050823b156107ae57875163432f779960e11b81526001600160a01b038816838201908152602081018b9052869082908190604001038183885af18015613ae157908691613acd575b505015613a82575b813b156107335786516359af312b60e01b81526001600160a01b03871682820190815260208101859052859082908190604001038183875af180156107b957908591613a6e575b5050813b156107335786516388f72e3d60e01b81526001600160a01b03871691810191825260208201939093528391839182908490829060400103925af18015613a6457613a50575b8080808061381a565b613a5a82916130a6565b61096c5780613a47565b85513d84823e3d90fd5b613a77906130a6565b6107335783386139fe565b813b15610733578651634bf71ffd60e01b81528181018a9052848160248183875af180156107b957908591613ab9575b50506139b7565b613ac2906130a6565b610733578338613ab2565b613ad6906130a6565b6107ae5784386139af565b89513d88823e3d90fd5b613af4906130a6565b6107ae578438613966565b613b08906130a6565b61170957853861391b565b8a513d89823e3d90fd5b634e487b7160e01b865260118352602486fd5b613b3c909591956130a6565b93386138bd565b634e487b7160e01b84526011600452602484fd5b15613b5e57565b60405162461bcd60e51b8152602060048201526006602482015265217374616b6560d01b6044820152606490fd5b15613b9357565b606460405162461bcd60e51b81526020600482015260046024820152630858985b60e21b6044820152fd5b8051600110156130275760400190565b90602090818382031261040257825167ffffffffffffffff93848211610402570181601f820112156104025780519384116130ba578360051b9060405194613c18858401876130ec565b85528380860192820101928311610402578301905b828210613c3b575050505090565b81518152908301908301613c2d565b90815180825260208080930193019160005b828110613c6a575050505090565b83516001600160a01b031685529381019392810192600101613c5c565b60048054600094939291906020906001600160a01b0316613ca9811515613b57565b60405163452ed4f160e01b815292839182905afa908115614389578591614347575b506001600160a01b0381161561431a576040516370a0823160e01b815230600482015260208160248173570a5d26f7765ecb712c0924e4de545b89fd43df5afa801561430f57849087906142d9575b613d2692501015613b8c565b613d338360011c846132e6565b94604051613d40816130d0565b600281526020810160403682378151156142c55773570a5d26f7765ecb712c0924e4de545b89fd43df90526002546001600160a01b0316613d8082613bbe565b5260405163095ea7b360e01b81527310ed43c718714eb63d5aa57b78b54704e256024e6004820152602481018690526020816044818673570a5d26f7765ecb712c0924e4de545b89fd43df5af1801561424d576142a6575b506040519663d06ca61f60e01b885280600489015260406024890152828880613e046044820186613c4a565b03817310ed43c718714eb63d5aa57b78b54704e256024e5afa97881561424d57613e3f6114da602498999a6103e893879161153b5750613bbe565b0490602060018060a01b0360025416604051988980926370a0823160e01b82523060048301525afa96871561429b578497614267575b5061012c42014211613b43577310ed43c718714eb63d5aa57b78b54704e256024e3b1561073357908391613ecf6040519485938493635c11d79560e01b85526004850152602484015260a0604484015260a4830190613c4a565b30606483015261012c420160848301520381837310ed43c718714eb63d5aa57b78b54704e256024e5af1801561414257614258575b506002546040516370a0823160e01b81523060048201526001600160a01b0390911694602082602481895afa801561424d578390614219575b613f4792506132e6565b9384156141ec576020829160446040518094819363095ea7b360e01b83527310ed43c718714eb63d5aa57b78b54704e256024e60048401528a60248401525af18015614142576141cd575b50600a54916103e8613fb381613fab868a60011c6137a6565b0494876137a6565b0460018060a01b0360025416936040519462e8e33760e81b865273570a5d26f7765ecb712c0924e4de545b89fd43df600487015260248601528760011c6044860152866064860152608485015260a48401523060c484015261012c420160e484015260608361010481857310ed43c718714eb63d5aa57b78b54704e256024e5af1928315614142578293614197575b50821561416c5760405163a9059cbb60e01b81526001600160a01b038581166004830152602482018590529091602091839160449183918791165af180156141425761414d575b506004546001600160a01b0316803b1561044357604051632194b4c760e21b81526001600160a01b0385166004820152602481018490524260448201529082908290606490829084905af180156141425761412e575b50506040805160019590951c85526020850193909352918301919091526001600160a01b0316907f5a8e36befe02c6aa273aeee45b943f8de299a04eeb0c9bc891a1244c1866c7ba90606090a2565b61413882916130a6565b61096c57806140df565b6040513d84823e3d90fd5b6141659060203d6020116116755761166681836130ec565b5038614089565b60405162461bcd60e51b81526020600482015260036024820152620216c760ec1b6044820152606490fd5b9092506060813d82116141c5575b816141b2606093836130ec565b8101031261044357604001519138614042565b3d91506141a5565b6141e59060203d6020116116755761166681836130ec565b5038613f92565b60405162461bcd60e51b8152602060048201526005602482015264021737761760dc1b6044820152606490fd5b506020823d602011614245575b81614233602093836130ec565b8101031261040257613f479151613f3d565b3d9150614226565b6040513d85823e3d90fd5b614261906130a6565b38613f04565b9096506020813d602011614293575b81614283602093836130ec565b8101031261073357519538613e75565b3d9150614276565b6040513d86823e3d90fd5b6142be9060203d6020116116755761166681836130ec565b5038613dd8565b634e487b7160e01b83526032600452602483fd5b50506020813d602011614307575b816142f4602093836130ec565b810103126117095783613d269151613d1a565b3d91506142e7565b6040513d88823e3d90fd5b60405162461bcd60e51b815260206004820152600560248201526410b830b4b960d91b6044820152606490fd5b90506020813d602011614381575b81614362602093836130ec565b810103126107ae57516001600160a01b03811681036107ae5738613ccb565b3d9150614355565b6040513d87823e3d90fd5b60048054600091906001600160a01b03908116906143b3821515613b57565b60409283519463063393fd60e11b8652338287015260209360249185888481855afa97881561469a578198614667575b50871561463a57813b1561096c578651630295df8160e61b815233858201908152602081018a9052829082908190604001038183875af1801561463057614621575b5090865194630992159360e41b8652338587015286868581855afa9586156145515783966145f2575b5088866144db575b505050600a870292878404600a14881517156144cb575050507fe74e5c9d4ac1fc33412485f18c159a0a391efe287ab3fd271123f30e6bacf4e39392916144a460646144bd930480976132e6565b956144ae816146df565b6144b887336146a6565b6134b2565b9082519485528401523392a2565b634e487b7160e01b825260119052fd5b809192995086101561455b57856144f1916132e6565b97803b1561076e57828091858a518094819363286e4dd560e11b8352338b8401525af18015614551578691849161453a575b505061453291600154166146a6565b388080614456565b6145459192506130a6565b61044357848238614523565b88513d85823e3d90fd5b945097969190959492823b15611b2b57855163286e4dd560e11b815233918101919091529186918391829084905af180156145e8576145d4575b506145c7827fe74e5c9d4ac1fc33412485f18c159a0a391efe287ab3fd271123f30e6bacf4e3959697600154166146a6565b82519485528401523392a2565b6145de85916130a6565b6107335738614595565b84513d87823e3d90fd5b9095508681813d831161461a575b61460a81836130ec565b810103126104025751943861444e565b503d614600565b61462a906130a6565b38614425565b88513d84823e3d90fd5b865162461bcd60e51b8152808501879052600881850152672170656e64696e6760c01b6044820152606490fd5b9097508581813d8311614693575b61467f81836130ec565b8101031261468f575196386143e3565b8780fd5b503d614675565b508651903d90823e3d90fd5b60405163a9059cbb60e01b60208201526001600160a01b03909116602482015260448101919091526135649061355f8160648101613551565b801561475057602881028181046028036131b3576064900490601e8102818104601e036131b35761356492614745606461474a930491614721816011546134b2565b601155614730836012546134b2565b6012556001546001600160a01b0316946132e6565b6132e6565b906146a6565b50565b1561475a57565b60405162461bcd60e51b815260206004820152600660248201526521707269636560d01b6044820152606490fd5b60055460001981019081116131b357674563918244f40000908181029181830414901517156131b357670de0b6b3a76400009081018091116131b357680ad78ebc5ac620000090818111156147db575090565b905090565b6004546001600160a01b03908116918261480257505050600090600090600090565b604080516321cb158360e11b8152919092166004820181905293919260208083602481855afa92831561493a5760009361490b575b508451638fc0f5eb60e01b815260048101879052958187602481865afa968715614900576000976148d1575b508190602487518095819363063393fd60e11b835260048301525afa9485156148c75750600094614896575b5050929190565b8181959293953d83116148c0575b6148ae81836130ec565b8101031261096c57505191388061488f565b503d6148a4565b513d6000823e3d90fd5b90968282813d83116148f9575b6148e881836130ec565b8101031261096c5750519581614863565b503d6148de565b86513d6000823e3d90fd5b90928382813d8311614933575b61492281836130ec565b8101031261096c5750519138614837565b503d614918565b85513d6000823e3d90fd5b6004546001600160a01b0390811691908261496257505050600090565b6024602092604051948593849263063393fd60e11b84521660048301525afa9081156149c157600091614993575090565b906020823d82116149b9575b816149ac602093836130ec565b8101031261096c57505190565b3d915061499f565b6040513d6000823e3d90fdfe000000000000000000000000274acc6397349f21179ed6258a54b2a11b28faf598ada70a1cb506dc4591465e1ee9be3fd7a2b6c73ecf3b949009718c9a351519a2646970667358221220773eaa7b51e826c9866d6d74922bb0f4c836720752eb86d67ea1d2c1e2f7e4a264736f6c63430008110033","opcodes":"PUSH1 0x80 CALLVALUE PUSH3 0x17E JUMPI PUSH1 0x1 PUSH1 0x0 DUP2 DUP2 SSTORE DUP2 SLOAD PUSH1 0x1 PUSH1 0x1 PUSH1 0xA0 SHL SUB NOT SWAP1 DUP2 AND PUSH20 0xA0F045CDE45CA1AEE2033356170B46A1FF3B7202 OR DUP4 SSTORE PUSH1 0x5 DUP4 SWAP1 SSTORE SWAP2 SWAP3 SWAP1 SWAP2 PUSH1 0x80 DUP3 ADD PUSH1 0x1 PUSH1 0x1 PUSH1 0x40 SHL SUB DUP2 GT DUP4 DUP3 LT OR PUSH3 0x16A JUMPI PUSH1 0x40 MSTORE DUP3 DUP3 MSTORE PUSH1 0x20 SWAP2 PUSH9 0x1B1AE4D6E2EF500000 DUP4 DUP3 ADD MSTORE PUSH9 0x5150AE84A8CDF00000 PUSH1 0x40 DUP3 ADD MSTORE PUSH10 0x10F0CF064DD59200000 PUSH1 0x60 DUP3 ADD MSTORE DUP5 DUP5 JUMPDEST PUSH1 0x4 DUP2 LT PUSH3 0x14D JUMPI POP POP POP PUSH2 0x3E3 PUSH1 0xA SSTORE TIMESTAMP PUSH1 0x13 SSTORE PUSH20 0x274ACC6397349F21179ED6258A54B2A11B28FAF5 SWAP1 DUP2 DUP5 MSTORE PUSH1 0xB DUP4 MSTORE PUSH1 0x40 DUP5 KECCAK256 DUP2 DUP2 SLOAD AND SWAP1 SSTORE PUSH1 0xC SLOAD PUSH9 0x10000000000000000 DUP2 LT ISZERO PUSH3 0x139 JUMPI DUP6 DUP2 ADD DUP1 PUSH1 0xC SSTORE DUP2 LT ISZERO PUSH3 0x125 JUMPI SWAP2 DUP5 SWAP4 SWAP2 DUP2 PUSH1 0xE SWAP5 PUSH1 0xC PUSH1 0x40 SWAP9 MSTORE DUP5 DUP8 KECCAK256 ADD SWAP2 DUP3 SLOAD AND OR SWAP1 SSTORE DUP4 MSTORE MSTORE KECCAK256 SWAP1 PUSH1 0xFF NOT DUP3 SLOAD AND OR SWAP1 SSTORE PUSH1 0x40 MLOAD PUSH2 0x4A43 SWAP1 DUP2 PUSH3 0x184 DUP3 CODECOPY RETURN JUMPDEST PUSH4 0x4E487B71 PUSH1 0xE0 SHL DUP6 MSTORE PUSH1 0x32 PUSH1 0x4 MSTORE PUSH1 0x24 DUP6 REVERT JUMPDEST PUSH4 0x4E487B71 PUSH1 0xE0 SHL DUP6 MSTORE PUSH1 0x41 PUSH1 0x4 MSTORE PUSH1 0x24 DUP6 REVERT JUMPDEST DUP3 MLOAD PUSH1 0x1 PUSH1 0x1 PUSH1 0x50 SHL SUB AND PUSH1 0x6 DUP3 ADD SSTORE SWAP2 DUP5 ADD SWAP2 DUP7 SWAP2 ADD PUSH3 0x8D JUMP JUMPDEST PUSH4 0x4E487B71 PUSH1 0xE0 SHL DUP5 MSTORE PUSH1 0x41 PUSH1 0x4 MSTORE PUSH1 0x24 DUP5 REVERT JUMPDEST PUSH1 0x0 DUP1 REVERT INVALID PUSH1 0x80 PUSH1 0x40 DUP2 DUP2 MSTORE PUSH1 0x4 SWAP2 DUP3 CALLDATASIZE LT ISZERO PUSH2 0x16 JUMPI PUSH1 0x0 DUP1 REVERT JUMPDEST PUSH1 0x0 SWAP3 DUP4 CALLDATALOAD PUSH1 0xE0 SHR SWAP2 DUP3 PUSH4 0x55AD42E EQ PUSH2 0x2EBD JUMPI POP DUP2 PUSH4 0x6E46610 EQ PUSH2 0x2E8E JUMPI DUP2 PUSH4 0xC6727FA EQ PUSH2 0x2E68 JUMPI DUP2 PUSH4 0xCC9771C EQ PUSH2 0x2C6F JUMPI DUP2 PUSH4 0x117803E3 EQ PUSH2 0x2C46 JUMPI DUP2 PUSH4 0x1186873F EQ PUSH2 0x2B71 JUMPI DUP2 PUSH4 0x1267F4F9 EQ PUSH2 0x2A5C JUMPI DUP2 PUSH4 0x138F1C10 EQ PUSH2 0xD10 JUMPI DUP2 PUSH4 0x197C7C10 EQ PUSH2 0x29D7 JUMPI DUP2 PUSH4 0x1A186227 EQ PUSH2 0x29AF JUMPI DUP2 PUSH4 0x21A1B044 EQ PUSH2 0x2971 JUMPI DUP2 PUSH4 0x222D3177 EQ PUSH2 0x2955 JUMPI DUP4 DUP3 PUSH4 0x2288957E EQ PUSH2 0x28ED JUMPI POP DUP2 PUSH4 0x248EC326 EQ PUSH2 0x120B JUMPI DUP2 PUSH4 0x24929D75 EQ PUSH2 0x28D1 JUMPI DUP2 PUSH4 0x27B9BB9C EQ PUSH2 0x28A2 JUMPI DUP4 DUP3 PUSH4 0x2D1D79A9 EQ PUSH2 0x2837 JUMPI DUP3 PUSH4 0x2E1A7D4D EQ PUSH2 0x27D1 JUMPI POP DUP2 PUSH4 0x2FF2E9DC EQ PUSH2 0x27A9 JUMPI DUP2 PUSH4 0x32DADC3E EQ PUSH2 0x25F9 JUMPI DUP2 PUSH4 0x32FE7B26 EQ PUSH2 0x25CA JUMPI DUP2 PUSH4 0x36B4134A EQ PUSH2 0x25AB JUMPI DUP2 PUSH4 0x392075B2 EQ PUSH2 0x2538 JUMPI DUP2 PUSH4 0x3C766035 EQ PUSH2 0x24D5 JUMPI DUP2 PUSH4 0x3FFCCA1B EQ PUSH2 0x2478 JUMPI DUP2 PUSH4 0x43469F07 EQ PUSH2 0x2455 JUMPI DUP2 PUSH4 0x4420E486 EQ PUSH2 0x22F1 JUMPI DUP2 PUSH4 0x44337EA1 EQ PUSH2 0x229D JUMPI DUP2 PUSH4 0x452DBFA7 EQ PUSH2 0x226E JUMPI DUP2 PUSH4 0x4773A6A9 EQ PUSH2 0x2252 JUMPI DUP2 PUSH4 0x48E2219F EQ PUSH2 0x21CA JUMPI DUP2 PUSH4 0x4ABD04DF EQ PUSH2 0x213D JUMPI DUP2 PUSH4 0x509484D5 EQ PUSH2 0x20A6 JUMPI DUP2 PUSH4 0x519F1640 EQ PUSH2 0x206D JUMPI DUP2 PUSH4 0x537DF3B6 EQ PUSH2 0x201C JUMPI DUP4 DUP3 PUSH4 0x5AE2AFA4 EQ PUSH2 0x1FB1 JUMPI POP DUP2 PUSH4 0x5B387F3D EQ PUSH2 0x1E8D JUMPI DUP2 PUSH4 0x63386639 EQ PUSH2 0x1E30 JUMPI DUP2 PUSH4 0x65DF2E51 EQ PUSH2 0x1E07 JUMPI DUP2 PUSH4 0x682E481F EQ PUSH2 0xD10 JUMPI DUP2 PUSH4 0x6991B45C EQ PUSH2 0x1CCC JUMPI DUP2 PUSH4 0x6F77926B EQ PUSH2 0x1C6B JUMPI DUP2 PUSH4 0x7225D3C9 EQ PUSH2 0x1C17 JUMPI DUP4 DUP3 PUSH4 0x78A1FF8F EQ PUSH2 0x1B9B JUMPI POP DUP2 PUSH4 0x78E97925 EQ PUSH2 0x1B7C JUMPI DUP2 PUSH4 0x7C9C3472 EQ PUSH2 0x1B4D JUMPI DUP2 PUSH4 0x83B4918B EQ PUSH2 0x1970 JUMPI DUP2 PUSH4 0x83B5601E EQ PUSH2 0xD10 JUMPI DUP2 PUSH4 0x86E6C41D EQ PUSH2 0x181B JUMPI DUP2 PUSH4 0x8DA09C15 EQ PUSH2 0x17FF JUMPI DUP4 DUP3 PUSH4 0x914FAFD2 EQ PUSH2 0x1794 JUMPI POP DUP2 PUSH4 0x9630498B EQ PUSH2 0x131C JUMPI DUP2 PUSH4 0x98FABD3A EQ PUSH2 0x12ED JUMPI DUP4 DUP3 PUSH4 0x99D32FC4 EQ PUSH2 0x1282 JUMPI DUP3 PUSH4 0x99DC0025 EQ PUSH2 0x1217 JUMPI POP DUP2 PUSH4 0x9BAA944D EQ PUSH2 0x120B JUMPI DUP2 PUSH4 0x9BFF5DDB EQ PUSH2 0xA58 JUMPI DUP2 PUSH4 0xA1B61A60 EQ PUSH2 0x11DF JUMPI DUP2 PUSH4 0xA2108A43 EQ PUSH2 0x1129 JUMPI DUP2 PUSH4 0xA2BDEDF4 EQ PUSH2 0x10D2 JUMPI DUP2 PUSH4 0xA4A0365C EQ PUSH2 0x10B6 JUMPI DUP2 PUSH4 0xA53F57BC EQ PUSH2 0x108D JUMPI DUP2 PUSH4 0xA6895B5A EQ PUSH2 0x1069 JUMPI DUP2 PUSH4 0xA7D1A97C EQ PUSH2 0x104A JUMPI DUP2 PUSH4 0xA97AF1F2 EQ PUSH2 0xFA6 JUMPI DUP2 PUSH4 0xB00B968B EQ PUSH2 0xF87 JUMPI DUP2 PUSH4 0xB08D2442 EQ PUSH2 0xD38 JUMPI DUP2 PUSH4 0xB0D8B72A EQ PUSH2 0xD1C JUMPI DUP2 PUSH4 0xB44B5FC1 EQ PUSH2 0xD10 JUMPI DUP2 PUSH4 0xB88A802F EQ PUSH2 0xCE8 JUMPI DUP2 PUSH4 0xB9181611 EQ PUSH2 0xCAA JUMPI DUP2 PUSH4 0xBBADC93A EQ PUSH2 0xC63 JUMPI DUP2 PUSH4 0xBBDDACA3 EQ PUSH2 0xA9F JUMPI DUP2 PUSH4 0xBE25A718 EQ PUSH2 0xA64 JUMPI DUP2 PUSH4 0xC99CF447 EQ PUSH2 0xA58 JUMPI DUP2 PUSH4 0xCBD076F8 EQ PUSH2 0x9AF JUMPI DUP2 PUSH4 0xCC68410E EQ PUSH2 0x990 JUMPI DUP2 PUSH4 0xCF9FCBAF EQ PUSH2 0x96F JUMPI DUP2 PUSH4 0xDB3543F5 EQ PUSH2 0x90F JUMPI DUP4 DUP3 PUSH4 0xDE44391A EQ PUSH2 0x897 JUMPI DUP3 PUSH4 0xE506B25B EQ PUSH2 0x7F7 JUMPI POP DUP2 PUSH4 0xEDD47FE6 EQ PUSH2 0x581 JUMPI DUP2 PUSH4 0xF043369B EQ PUSH2 0x558 JUMPI DUP2 PUSH4 0xF0FA55A9 EQ PUSH2 0x517 JUMPI POP DUP1 PUSH4 0xF1DDB70C EQ PUSH2 0x4E0 JUMPI DUP1 PUSH4 0xF5D7ABB3 EQ PUSH2 0x4C5 JUMPI DUP1 PUSH4 0xF8171DFA EQ PUSH2 0x475 JUMPI DUP1 PUSH4 0xF88CC9E2 EQ PUSH2 0x447 JUMPI PUSH4 0xFE575A87 EQ PUSH2 0x407 JUMPI JUMPDEST PUSH1 0x0 DUP1 REVERT JUMPDEST CALLVALUE PUSH2 0x443 JUMPI PUSH1 0x20 CALLDATASIZE PUSH1 0x3 NOT ADD SLT PUSH2 0x443 JUMPI PUSH1 0x20 SWAP2 PUSH1 0xFF SWAP1 DUP3 SWAP1 PUSH1 0x1 PUSH1 0x1 PUSH1 0xA0 SHL SUB PUSH2 0x430 PUSH2 0x2ED9 JUMP JUMPDEST AND DUP2 MSTORE PUSH1 0xD DUP6 MSTORE KECCAK256 SLOAD AND SWAP1 MLOAD SWAP1 ISZERO ISZERO DUP2 MSTORE RETURN JUMPDEST POP DUP1 REVERT JUMPDEST POP CALLVALUE PUSH2 0x443 JUMPI DUP2 PUSH1 0x3 NOT CALLDATASIZE ADD SLT PUSH2 0x443 JUMPI PUSH1 0x20 SWAP1 MLOAD PUSH20 0x7CC3260B1E4E1D830A6A92A3B2F77257FBAB169F DUP2 MSTORE RETURN JUMPDEST POP CALLVALUE PUSH2 0x443 JUMPI PUSH1 0x20 CALLDATASIZE PUSH1 0x3 NOT ADD SLT PUSH2 0x443 JUMPI PUSH2 0x48F PUSH2 0x2ED9 JUMP JUMPDEST PUSH2 0x4A8 PUSH1 0x0 DUP1 MLOAD PUSH1 0x20 PUSH2 0x49CE DUP4 CODECOPY DUP2 MLOAD SWAP2 MSTORE CALLER EQ PUSH2 0x303D JUMP JUMPDEST PUSH1 0x1 PUSH1 0x1 PUSH1 0xA0 SHL SUB AND DUP3 MSTORE PUSH1 0xE PUSH1 0x20 MSTORE DUP2 KECCAK256 DUP1 SLOAD PUSH1 0xFF NOT AND SWAP1 SSTORE DUP1 RETURN JUMPDEST POP CALLVALUE PUSH2 0x443 JUMPI DUP2 PUSH1 0x3 NOT CALLDATASIZE ADD SLT PUSH2 0x443 JUMPI PUSH1 0x20 SWAP1 MLOAD PUSH1 0x63 DUP2 MSTORE RETURN JUMPDEST POP CALLVALUE PUSH2 0x443 JUMPI PUSH1 0x20 CALLDATASIZE PUSH1 0x3 NOT ADD SLT PUSH2 0x443 JUMPI PUSH1 0x20 SWAP2 DUP2 SWAP1 PUSH1 0x1 PUSH1 0x1 PUSH1 0xA0 SHL SUB PUSH2 0x507 PUSH2 0x2ED9 JUMP JUMPDEST AND DUP2 MSTORE PUSH1 0xF DUP5 MSTORE KECCAK256 SLOAD SWAP1 MLOAD SWAP1 DUP2 MSTORE RETURN JUMPDEST DUP4 SWAP1 CALLVALUE PUSH2 0x443 JUMPI PUSH1 0x20 CALLDATASIZE PUSH1 0x3 NOT ADD SLT PUSH2 0x443 JUMPI CALLDATALOAD PUSH2 0x544 PUSH1 0x0 DUP1 MLOAD PUSH1 0x20 PUSH2 0x49CE DUP4 CODECOPY DUP2 MLOAD SWAP2 MSTORE CALLER EQ PUSH2 0x303D JUMP JUMPDEST PUSH2 0x552 PUSH2 0x3E8 DUP3 GT ISZERO PUSH2 0x310E JUMP JUMPDEST PUSH1 0xA SSTORE DUP1 RETURN JUMPDEST POP POP CALLVALUE PUSH2 0x443 JUMPI DUP2 PUSH1 0x3 NOT CALLDATASIZE ADD SLT PUSH2 0x443 JUMPI PUSH1 0x2 SLOAD SWAP1 MLOAD PUSH1 0x1 PUSH1 0x1 PUSH1 0xA0 SHL SUB SWAP1 SWAP2 AND DUP2 MSTORE PUSH1 0x20 SWAP1 RETURN JUMPDEST SWAP2 SWAP1 POP CALLVALUE PUSH2 0x76E JUMPI PUSH1 0x20 DUP1 PUSH1 0x3 NOT CALLDATASIZE ADD SLT PUSH2 0x733 JUMPI DUP3 CALLDATALOAD SWAP3 PUSH2 0x5A1 PUSH2 0x34BF JUMP JUMPDEST PUSH1 0x1 DUP5 LT ISZERO DUP1 PUSH2 0x7EC JUMPI JUMPDEST ISZERO PUSH2 0x7C3 JUMPI PUSH1 0x3 SLOAD DUP4 MLOAD PUSH4 0x6866537D PUSH1 0xE0 SHL DUP1 DUP3 MSTORE DUP4 DUP3 ADD DUP8 SWAP1 MSTORE DUP8 SWAP3 PUSH1 0x1 PUSH1 0x1 PUSH1 0xA0 SHL SUB SWAP3 SWAP1 DUP4 AND SWAP2 SWAP1 DUP7 DUP2 PUSH1 0x24 DUP2 DUP7 GAS STATICCALL SWAP1 DUP2 ISZERO PUSH2 0x7B9 JUMPI SWAP1 DUP8 SWAP3 SWAP2 DUP7 SWAP2 PUSH2 0x783 JUMPI JUMPDEST POP PUSH2 0x5FD SWAP1 ISZERO ISZERO PUSH2 0x4753 JUMP JUMPDEST PUSH1 0x24 DUP9 MLOAD DUP1 SWAP5 DUP2 SWAP4 DUP3 MSTORE DUP12 DUP10 DUP4 ADD MSTORE GAS STATICCALL SWAP1 DUP2 ISZERO PUSH2 0x779 JUMPI DUP4 SWAP2 PUSH2 0x748 JUMPI JUMPDEST POP DUP6 MLOAD PUSH4 0x70A08231 PUSH1 0xE0 SHL DUP2 MSTORE CALLER DUP6 DUP3 ADD MSTORE SWAP1 DUP6 DUP3 PUSH1 0x24 DUP2 PUSH20 0x570A5D26F7765ECB712C0924E4DE545B89FD43DF GAS STATICCALL SWAP2 DUP3 ISZERO PUSH2 0x73E JUMPI DUP5 SWAP3 PUSH2 0x709 JUMPI JUMPDEST POP PUSH2 0x669 DUP2 PUSH2 0x68B SWAP4 LT ISZERO PUSH2 0x3B8C JUMP JUMPDEST PUSH2 0x674 DUP2 ADDRESS CALLER PUSH2 0x3515 JUMP JUMPDEST PUSH1 0x1 SHR PUSH2 0x685 DUP2 DUP5 PUSH1 0x1 SLOAD AND PUSH2 0x46A6 JUMP JUMPDEST CALLER PUSH2 0x3C87 JUMP JUMPDEST PUSH1 0x3 SLOAD AND SWAP2 DUP3 EXTCODESIZE ISZERO PUSH2 0x443 JUMPI DUP5 MLOAD PUSH4 0x1AA15771 PUSH1 0xE1 SHL DUP2 MSTORE CALLER SWAP2 DUP2 ADD SWAP2 DUP3 MSTORE PUSH1 0x20 DUP3 ADD DUP8 SWAP1 MSTORE SWAP3 DUP4 SWAP2 DUP3 SWAP1 DUP5 SWAP1 DUP3 SWAP1 PUSH1 0x40 ADD SUB SWAP3 GAS CALL DUP1 ISZERO PUSH2 0x6FF JUMPI PUSH1 0x2 SWAP3 PUSH1 0xFF SWAP5 SWAP3 PUSH1 0xB SWAP3 PUSH2 0x6F0 JUMPI JUMPDEST POP CALLER DUP8 MSTORE MSTORE DUP5 KECCAK256 ADD SWAP2 AND PUSH1 0xFF NOT DUP3 SLOAD AND OR SWAP1 SSTORE PUSH1 0x1 DUP2 SSTORE DUP1 RETURN JUMPDEST PUSH2 0x6F9 SWAP1 PUSH2 0x30A6 JUMP JUMPDEST CODESIZE PUSH2 0x6D6 JUMP JUMPDEST DUP4 MLOAD RETURNDATASIZE DUP8 DUP3 RETURNDATACOPY RETURNDATASIZE SWAP1 REVERT JUMPDEST SWAP2 POP DUP6 DUP3 DUP2 RETURNDATASIZE DUP4 GT PUSH2 0x737 JUMPI JUMPDEST PUSH2 0x720 DUP2 DUP4 PUSH2 0x30EC JUMP JUMPDEST DUP2 ADD SUB SLT PUSH2 0x733 JUMPI SWAP1 MLOAD SWAP1 PUSH2 0x669 PUSH2 0x659 JUMP JUMPDEST DUP4 DUP1 REVERT JUMPDEST POP RETURNDATASIZE PUSH2 0x716 JUMP JUMPDEST DUP8 MLOAD RETURNDATASIZE DUP7 DUP3 RETURNDATACOPY RETURNDATASIZE SWAP1 REVERT JUMPDEST SWAP1 POP DUP5 DUP2 DUP2 RETURNDATASIZE DUP4 GT PUSH2 0x772 JUMPI JUMPDEST PUSH2 0x75F DUP2 DUP4 PUSH2 0x30EC JUMP JUMPDEST DUP2 ADD SUB SLT PUSH2 0x76E JUMPI MLOAD CODESIZE PUSH2 0x61C JUMP JUMPDEST DUP3 DUP1 REVERT JUMPDEST POP RETURNDATASIZE PUSH2 0x755 JUMP JUMPDEST DUP7 MLOAD RETURNDATASIZE DUP6 DUP3 RETURNDATACOPY RETURNDATASIZE SWAP1 REVERT JUMPDEST DUP4 DUP2 SWAP5 SWAP3 POP RETURNDATASIZE DUP4 GT PUSH2 0x7B2 JUMPI JUMPDEST PUSH2 0x79A DUP2 DUP4 PUSH2 0x30EC JUMP JUMPDEST DUP2 ADD SUB SLT PUSH2 0x7AE JUMPI PUSH2 0x5FD DUP8 SWAP3 MLOAD SWAP1 PUSH2 0x5F1 JUMP JUMPDEST DUP5 DUP1 REVERT JUMPDEST POP RETURNDATASIZE PUSH2 0x790 JUMP JUMPDEST DUP9 MLOAD RETURNDATASIZE DUP8 DUP3 RETURNDATACOPY RETURNDATASIZE SWAP1 REVERT JUMPDEST SWAP2 MLOAD PUSH3 0x461BCD PUSH1 0xE5 SHL DUP2 MSTORE SWAP2 DUP3 ADD MSTORE PUSH1 0x5 PUSH1 0x24 DUP3 ADD MSTORE PUSH5 0x2174797065 PUSH1 0xD8 SHL PUSH1 0x44 DUP3 ADD MSTORE PUSH1 0x64 SWAP1 REVERT JUMPDEST POP PUSH1 0x3 DUP5 GT ISZERO PUSH2 0x5AC JUMP JUMPDEST SWAP3 SWAP2 POP CALLVALUE PUSH2 0x893 JUMPI PUSH1 0x20 CALLDATASIZE PUSH1 0x3 NOT ADD SLT PUSH2 0x893 JUMPI PUSH2 0x813 PUSH2 0x34BF JUMP JUMPDEST DUP1 SLOAD PUSH1 0x1 PUSH1 0x1 PUSH1 0xA0 SHL SUB AND SWAP1 DUP2 PUSH2 0x82D JUMPI JUMPDEST DUP4 PUSH1 0x1 DUP2 SSTORE DUP1 RETURN JUMPDEST DUP2 EXTCODESIZE ISZERO PUSH2 0x88E JUMPI DUP3 MLOAD PUSH4 0x53F1DAA1 PUSH1 0xE0 SHL DUP2 MSTORE CALLER DUP2 DUP4 ADD SWAP1 DUP2 MSTORE SWAP2 CALLDATALOAD PUSH1 0x20 DUP4 ADD MSTORE SWAP4 SWAP2 DUP5 SWAP2 DUP3 SWAP1 DUP5 SWAP1 DUP3 SWAP1 PUSH1 0x40 ADD JUMPDEST SUB SWAP3 GAS CALL SWAP1 DUP2 ISZERO PUSH2 0x885 JUMPI POP PUSH2 0x876 JUMPI JUMPDEST DUP1 DUP1 DUP4 SWAP3 PUSH2 0x825 JUMP JUMPDEST PUSH2 0x87F SWAP1 PUSH2 0x30A6 JUMP JUMPDEST CODESIZE PUSH2 0x86D JUMP JUMPDEST MLOAD RETURNDATASIZE DUP5 DUP3 RETURNDATACOPY RETURNDATASIZE SWAP1 REVERT JUMPDEST POP POP POP REVERT JUMPDEST POP POP REVERT JUMPDEST SWAP3 SWAP2 POP CALLVALUE PUSH2 0x893 JUMPI DUP3 PUSH1 0x3 NOT CALLDATASIZE ADD SLT PUSH2 0x893 JUMPI PUSH2 0x8B2 PUSH2 0x34BF JUMP JUMPDEST DUP1 SLOAD PUSH1 0x1 PUSH1 0x1 PUSH1 0xA0 SHL SUB AND PUSH2 0x8C8 DUP2 ISZERO ISZERO PUSH2 0x3B57 JUMP JUMPDEST DUP1 EXTCODESIZE ISZERO PUSH2 0x88E JUMPI PUSH1 0x24 DUP5 SWAP3 DUP5 MLOAD SWAP6 DUP7 SWAP4 DUP5 SWAP3 PUSH4 0xE8BBB75B PUSH1 0xE0 SHL DUP5 MSTORE CALLER SWAP1 DUP5 ADD MSTORE GAS CALL SWAP1 DUP2 ISZERO PUSH2 0x885 JUMPI POP PUSH2 0x900 JUMPI JUMPDEST POP PUSH1 0x1 DUP2 SSTORE DUP1 RETURN JUMPDEST PUSH2 0x909 SWAP1 PUSH2 0x30A6 JUMP JUMPDEST CODESIZE PUSH2 0x8F8 JUMP JUMPDEST DUP4 CALLVALUE PUSH2 0x96C JUMPI PUSH1 0x20 CALLDATASIZE PUSH1 0x3 NOT ADD SLT PUSH2 0x96C JUMPI PUSH2 0x929 PUSH2 0x2ED9 JUMP JUMPDEST PUSH2 0x942 PUSH1 0x0 DUP1 MLOAD PUSH1 0x20 PUSH2 0x49CE DUP4 CODECOPY DUP2 MLOAD SWAP2 MSTORE CALLER EQ PUSH2 0x303D JUMP JUMPDEST PUSH1 0x1 PUSH1 0x1 PUSH1 0xA0 SHL SUB AND PUSH2 0x956 DUP2 ISZERO ISZERO PUSH2 0x3072 JUMP JUMPDEST PUSH1 0x1 PUSH1 0x1 PUSH1 0x60 SHL SUB PUSH1 0xA0 SHL PUSH1 0x1 SLOAD AND OR PUSH1 0x1 SSTORE DUP1 RETURN JUMPDEST DUP1 REVERT JUMPDEST POP POP CALLVALUE PUSH2 0x443 JUMPI DUP2 PUSH1 0x3 NOT CALLDATASIZE ADD SLT PUSH2 0x443 JUMPI PUSH1 0x20 SWAP1 MLOAD PUSH6 0x2D79883D2000 DUP2 MSTORE RETURN JUMPDEST POP POP CALLVALUE PUSH2 0x443 JUMPI DUP2 PUSH1 0x3 NOT CALLDATASIZE ADD SLT PUSH2 0x443 JUMPI PUSH1 0x20 SWAP1 PUSH1 0x11 SLOAD SWAP1 MLOAD SWAP1 DUP2 MSTORE RETURN JUMPDEST POP POP CALLVALUE PUSH2 0x443 JUMPI DUP1 PUSH1 0x3 NOT CALLDATASIZE ADD SLT PUSH2 0x443 JUMPI PUSH2 0xA36 SWAP1 PUSH2 0x9CD PUSH2 0x2ED9 JUMP JUMPDEST PUSH2 0xA26 PUSH1 0x24 CALLDATALOAD SWAP3 PUSH2 0x9ED PUSH1 0x0 DUP1 MLOAD PUSH1 0x20 PUSH2 0x49CE DUP4 CODECOPY DUP2 MLOAD SWAP2 MSTORE CALLER EQ PUSH2 0x303D JUMP JUMPDEST PUSH8 0xDE0B6B3A7640000 DUP5 LT ISZERO DUP1 PUSH2 0xA39 JUMPI JUMPDEST PUSH2 0xA08 SWAP1 PUSH2 0x313E JUMP JUMPDEST PUSH1 0x1 PUSH1 0x1 PUSH1 0xA0 SHL SUB DUP4 DUP2 AND DUP8 MSTORE PUSH1 0xB PUSH1 0x20 MSTORE SWAP1 DUP7 KECCAK256 SLOAD AND ISZERO ISZERO PUSH2 0x32B4 JUMP JUMPDEST PUSH2 0xA31 DUP3 ADDRESS CALLER PUSH2 0x3515 JUMP JUMPDEST PUSH2 0x37B9 JUMP JUMPDEST DUP1 RETURN JUMPDEST POP PUSH1 0x1 PUSH1 0x1 PUSH1 0xA0 SHL SUB DUP4 AND DUP7 MSTORE PUSH1 0xD PUSH1 0x20 MSTORE DUP1 DUP7 KECCAK256 SLOAD PUSH1 0xFF AND ISZERO PUSH2 0x9FF JUMP JUMPDEST POP POP POP POP PUSH2 0x402 PUSH2 0x2FF2 JUMP JUMPDEST DUP4 CALLVALUE PUSH2 0x96C JUMPI DUP1 PUSH1 0x3 NOT CALLDATASIZE ADD SLT PUSH2 0x96C JUMPI PUSH2 0xA8E PUSH1 0x0 DUP1 MLOAD PUSH1 0x20 PUSH2 0x49CE DUP4 CODECOPY DUP2 MLOAD SWAP2 MSTORE CALLER EQ PUSH2 0x303D JUMP JUMPDEST PUSH2 0xA99 PUSH1 0x5 SLOAD PUSH2 0x31A4 JUMP JUMPDEST PUSH1 0x5 SSTORE DUP1 RETURN JUMPDEST SWAP1 POP CALLVALUE PUSH2 0x76E JUMPI DUP2 PUSH1 0x3 NOT CALLDATASIZE ADD SLT PUSH2 0x76E JUMPI PUSH2 0xAB9 PUSH2 0x2ED9 JUMP JUMPDEST SWAP1 PUSH2 0xAC2 PUSH2 0x2EEF JUMP JUMPDEST SWAP1 PUSH1 0x0 DUP1 MLOAD PUSH1 0x20 PUSH2 0x49CE DUP4 CODECOPY DUP2 MLOAD SWAP2 MSTORE SWAP4 PUSH2 0xADE DUP6 CALLER EQ PUSH2 0x303D JUMP JUMPDEST PUSH1 0x1 DUP1 PUSH1 0xA0 SHL SUB DUP1 SWAP5 AND SWAP4 DUP5 DUP8 MSTORE PUSH1 0xB SWAP1 PUSH1 0x20 SWAP5 DUP3 DUP7 MSTORE PUSH2 0xB05 DUP3 DUP6 DUP12 KECCAK256 SLOAD AND ISZERO ISZERO PUSH2 0x32B4 JUMP JUMPDEST DUP7 DUP10 MSTORE DUP3 DUP7 MSTORE DUP5 DUP5 DUP11 KECCAK256 ADD SLOAD PUSH2 0xC31 JUMPI DUP2 AND SWAP7 DUP7 DUP9 EQ PUSH2 0xC09 JUMPI SWAP1 PUSH2 0xB44 DUP8 SWAP6 SWAP5 SWAP4 SWAP3 DUP10 DUP12 MSTORE DUP4 DUP9 MSTORE DUP3 DUP6 DUP13 KECCAK256 SLOAD AND ISZERO SWAP1 DUP2 ISZERO SWAP2 PUSH2 0xBFF JUMPI JUMPDEST POP PUSH2 0x3170 JUMP JUMPDEST DUP5 DUP10 MSTORE DUP2 DUP7 MSTORE DUP3 DUP10 KECCAK256 SLOAD AND SWAP5 DUP6 PUSH2 0xBAC JUMPI JUMPDEST DUP5 DUP10 MSTORE DUP2 DUP2 MSTORE DUP3 DUP10 KECCAK256 DUP1 SLOAD PUSH1 0x1 PUSH1 0x1 PUSH1 0xA0 SHL SUB NOT AND DUP10 OR SWAP1 SSTORE DUP8 DUP10 MSTORE DUP3 DUP10 KECCAK256 PUSH1 0x1 ADD DUP1 SLOAD PUSH2 0xB96 SWAP8 POP PUSH2 0xB88 SWAP1 PUSH2 0x31A4 JUMP JUMPDEST SWAP1 SSTORE DUP8 DUP10 MSTORE MSTORE DUP7 KECCAK256 ADD PUSH2 0x322D JUMP JUMPDEST POP PUSH1 0x0 DUP1 MLOAD PUSH1 0x20 PUSH2 0x49EE DUP4 CODECOPY DUP2 MLOAD SWAP2 MSTORE DUP4 DUP1 LOG3 DUP1 RETURN JUMPDEST SWAP2 SWAP4 POP SWAP2 SWAP4 DUP1 DUP9 MSTORE PUSH1 0x1 DUP5 DUP10 KECCAK256 ADD DUP1 SLOAD DUP1 ISZERO PUSH2 0xBEC JUMPI SWAP2 DUP8 SWAP6 SWAP4 SWAP2 PUSH2 0xB96 SWAP8 SWAP6 SWAP4 PUSH1 0x0 NOT ADD SWAP1 SSTORE DUP10 MSTORE DUP2 DUP2 MSTORE PUSH2 0xBE6 DUP6 DUP6 DUP6 DUP13 KECCAK256 ADD PUSH2 0x32F3 JUMP JUMPDEST POP PUSH2 0xB56 JUMP JUMPDEST PUSH4 0x4E487B71 PUSH1 0xE0 SHL DUP11 MSTORE PUSH1 0x11 DUP8 MSTORE PUSH1 0x24 DUP11 REVERT JUMPDEST SWAP1 POP DUP10 EQ CODESIZE PUSH2 0xB3E JUMP JUMPDEST PUSH1 0x64 DUP7 DUP7 DUP7 MLOAD SWAP2 PUSH3 0x461BCD PUSH1 0xE5 SHL DUP4 MSTORE DUP2 DUP4 ADD MSTORE PUSH1 0x24 DUP3 ADD MSTORE PUSH4 0x39B2B633 PUSH1 0xE1 SHL PUSH1 0x44 DUP3 ADD MSTORE REVERT JUMPDEST DUP4 MLOAD PUSH3 0x461BCD PUSH1 0xE5 SHL DUP2 MSTORE DUP1 DUP7 ADD DUP8 SWAP1 MSTORE PUSH1 0xC PUSH1 0x24 DUP3 ADD MSTORE PUSH12 0x3430B99031B434B6323932B7 PUSH1 0xA1 SHL PUSH1 0x44 DUP3 ADD MSTORE PUSH1 0x64 SWAP1 REVERT JUMPDEST POP POP CALLVALUE PUSH2 0x443 JUMPI PUSH1 0x20 CALLDATASIZE PUSH1 0x3 NOT ADD SLT PUSH2 0x443 JUMPI PUSH2 0xCA6 SWAP1 PUSH2 0xC8A PUSH2 0xC85 PUSH2 0x2ED9 JUMP JUMPDEST PUSH2 0x47E0 JUMP JUMPDEST SWAP3 MLOAD SWAP2 DUP3 MSTORE PUSH1 0x20 DUP3 ADD MSTORE PUSH1 0x40 DUP2 ADD SWAP2 SWAP1 SWAP2 MSTORE SWAP1 DUP2 SWAP1 PUSH1 0x60 DUP3 ADD SWAP1 JUMP JUMPDEST SUB SWAP1 RETURN JUMPDEST POP POP CALLVALUE PUSH2 0x443 JUMPI PUSH1 0x20 CALLDATASIZE PUSH1 0x3 NOT ADD SLT PUSH2 0x443 JUMPI PUSH1 0x20 SWAP2 PUSH1 0xFF SWAP1 DUP3 SWAP1 PUSH1 0x1 PUSH1 0x1 PUSH1 0xA0 SHL SUB PUSH2 0xCD5 PUSH2 0x2ED9 JUMP JUMPDEST AND DUP2 MSTORE PUSH1 0xE DUP6 MSTORE KECCAK256 SLOAD AND SWAP1 MLOAD SWAP1 ISZERO ISZERO DUP2 MSTORE RETURN JUMPDEST DUP4 CALLVALUE PUSH2 0x96C JUMPI DUP1 PUSH1 0x3 NOT CALLDATASIZE ADD SLT PUSH2 0x96C JUMPI PUSH2 0xD01 PUSH2 0x34BF JUMP JUMPDEST PUSH2 0xD09 PUSH2 0x4394 JUMP JUMPDEST PUSH1 0x1 DUP2 SSTORE DUP1 RETURN JUMPDEST POP POP POP POP PUSH2 0x402 PUSH2 0x2F81 JUMP JUMPDEST POP POP CALLVALUE PUSH2 0x443 JUMPI DUP2 PUSH1 0x3 NOT CALLDATASIZE ADD SLT PUSH2 0x443 JUMPI PUSH1 0x20 SWAP1 MLOAD PUSH1 0xF DUP2 MSTORE RETURN JUMPDEST SWAP2 SWAP1 POP CALLVALUE PUSH2 0x76E JUMPI PUSH2 0xD49 CALLDATASIZE PUSH2 0x2F36 JUMP JUMPDEST SWAP2 SWAP1 SWAP4 SWAP3 PUSH2 0xD66 PUSH1 0x0 DUP1 MLOAD PUSH1 0x20 PUSH2 0x49CE DUP4 CODECOPY DUP2 MLOAD SWAP2 MSTORE CALLER EQ PUSH2 0x303D JUMP JUMPDEST PUSH2 0xD71 DUP4 DUP4 EQ PUSH2 0x344E JUMP JUMPDEST DUP7 JUMPDEST DUP3 DUP2 LT PUSH2 0xD7E JUMPI DUP8 DUP1 RETURN JUMPDEST PUSH1 0x1 PUSH1 0x1 PUSH1 0xA0 SHL SUB DUP1 PUSH2 0xD9A PUSH2 0xD95 DUP5 DUP8 DUP8 PUSH2 0x3480 JUMP JUMPDEST PUSH2 0x3490 JUMP JUMPDEST AND DUP10 MSTORE PUSH1 0xB PUSH1 0x20 DUP2 DUP2 MSTORE DUP3 DUP9 DUP13 KECCAK256 SLOAD AND PUSH2 0xF7B JUMPI PUSH2 0xDBC PUSH2 0xD95 DUP6 DUP10 DUP13 PUSH2 0x3480 JUMP JUMPDEST DUP4 PUSH2 0xDCB PUSH2 0xD95 DUP8 DUP11 DUP11 PUSH2 0x3480 JUMP JUMPDEST AND DUP13 MSTORE DUP3 DUP3 MSTORE DUP4 DUP10 DUP14 KECCAK256 SWAP2 AND PUSH1 0x1 PUSH1 0x1 PUSH1 0x60 SHL SUB PUSH1 0xA0 SHL DUP3 SLOAD AND OR SWAP1 SSTORE PUSH2 0xDFE PUSH2 0xDF9 PUSH2 0xD95 DUP7 DUP10 DUP10 PUSH2 0x3480 JUMP JUMPDEST PUSH2 0x31C9 JUMP JUMPDEST DUP3 PUSH2 0xE0D PUSH2 0xD95 DUP7 DUP11 DUP14 PUSH2 0x3480 JUMP JUMPDEST AND ISZERO ISZERO DUP1 PUSH2 0xF58 JUMPI JUMPDEST PUSH2 0xEF8 JUMPI JUMPDEST POP POP DUP1 DUP9 SLOAD AND DUP1 PUSH2 0xE6A JUMPI JUMPDEST POP SWAP1 PUSH2 0xE65 SWAP2 PUSH2 0xE3B PUSH2 0xD95 DUP4 DUP8 DUP8 PUSH2 0x3480 JUMP JUMPDEST SWAP1 DUP1 PUSH2 0xE4B PUSH2 0xD95 DUP6 DUP11 DUP14 PUSH2 0x3480 JUMP JUMPDEST AND SWAP2 AND PUSH1 0x0 DUP1 MLOAD PUSH1 0x20 PUSH2 0x49EE DUP4 CODECOPY DUP2 MLOAD SWAP2 MSTORE DUP12 DUP1 LOG3 PUSH2 0x31A4 JUMP JUMPDEST PUSH2 0xD73 JUMP JUMPDEST DUP10 PUSH2 0xE79 PUSH2 0xD95 DUP6 DUP9 DUP9 PUSH2 0x3480 JUMP JUMPDEST SWAP2 PUSH2 0xE88 PUSH2 0xD95 DUP7 DUP11 DUP14 PUSH2 0x3480 JUMP JUMPDEST SWAP1 DUP1 EXTCODESIZE ISZERO PUSH2 0x76E JUMPI DUP10 MLOAD PUSH4 0x1AA56D9 PUSH1 0xE1 SHL DUP2 MSTORE PUSH1 0x1 PUSH1 0x1 PUSH1 0xA0 SHL SUB SWAP5 DUP6 AND DUP14 DUP3 ADD SWAP1 DUP2 MSTORE SWAP3 SWAP1 SWAP5 AND PUSH1 0x20 DUP4 ADD MSTORE DUP4 SWAP2 DUP3 SWAP1 DUP5 SWAP1 DUP3 SWAP1 PUSH1 0x40 ADD SUB SWAP3 GAS CALL DUP1 ISZERO PUSH2 0xEEE JUMPI SWAP1 PUSH2 0xE65 SWAP4 SWAP3 SWAP2 PUSH2 0xEDF JUMPI JUMPDEST POP SWAP1 SWAP2 PUSH2 0xE27 JUMP JUMPDEST PUSH2 0xEE8 SWAP1 PUSH2 0x30A6 JUMP JUMPDEST CODESIZE PUSH2 0xED7 JUMP JUMPDEST DUP8 MLOAD RETURNDATASIZE DUP13 DUP3 RETURNDATACOPY RETURNDATASIZE SWAP1 REVERT JUMPDEST DUP3 PUSH2 0xF07 PUSH2 0xD95 DUP7 DUP11 DUP14 PUSH2 0x3480 JUMP JUMPDEST AND DUP12 MSTORE DUP2 DUP2 MSTORE PUSH1 0x1 DUP9 DUP13 KECCAK256 ADD PUSH2 0xF1D DUP2 SLOAD PUSH2 0x31A4 JUMP JUMPDEST SWAP1 SSTORE DUP3 PUSH2 0xF2E PUSH2 0xD95 DUP7 DUP11 DUP14 PUSH2 0x3480 JUMP JUMPDEST AND DUP12 MSTORE MSTORE PUSH2 0xF50 DUP9 DUP8 DUP12 KECCAK256 ADD DUP3 PUSH2 0xF49 PUSH2 0xD95 DUP7 DUP10 DUP10 PUSH2 0x3480 JUMP JUMPDEST AND SWAP1 PUSH2 0x322D JUMP JUMPDEST POP CODESIZE DUP1 PUSH2 0xE1B JUMP JUMPDEST POP DUP3 PUSH2 0xF68 PUSH2 0xD95 DUP7 DUP11 DUP14 PUSH2 0x3480 JUMP JUMPDEST AND DUP12 MSTORE DUP2 DUP2 MSTORE DUP3 DUP9 DUP13 KECCAK256 SLOAD AND ISZERO ISZERO PUSH2 0xE16 JUMP JUMPDEST POP POP POP PUSH2 0xE65 SWAP1 PUSH2 0x31A4 JUMP JUMPDEST POP POP CALLVALUE PUSH2 0x443 JUMPI DUP2 PUSH1 0x3 NOT CALLDATASIZE ADD SLT PUSH2 0x443 JUMPI PUSH1 0x20 SWAP1 PUSH1 0xC SLOAD SWAP1 MLOAD SWAP1 DUP2 MSTORE RETURN JUMPDEST SWAP1 POP CALLVALUE PUSH2 0x76E JUMPI DUP2 PUSH1 0x3 NOT CALLDATASIZE ADD SLT PUSH2 0x76E JUMPI CALLDATALOAD PUSH1 0x1 PUSH1 0x1 PUSH1 0xA0 SHL SUB DUP2 AND SWAP2 SWAP1 DUP3 SWAP1 SUB PUSH2 0x76E JUMPI PUSH1 0x20 PUSH32 0xCEAC4C050CF0BD5320BE38F58D0D370278667B15662191291C09D7FB144371B3 SWAP2 PUSH1 0x24 CALLDATALOAD SWAP1 PUSH2 0x100D PUSH1 0x0 DUP1 MLOAD PUSH1 0x20 PUSH2 0x49CE DUP4 CODECOPY DUP2 MLOAD SWAP2 MSTORE CALLER EQ PUSH2 0x303D JUMP JUMPDEST DUP2 ISZERO ISZERO DUP1 PUSH2 0x1040 JUMPI JUMPDEST PUSH2 0x101F SWAP1 PUSH2 0x3B8C JUMP JUMPDEST PUSH2 0x1038 DUP7 DUP1 DUP1 DUP1 DUP7 DUP11 GAS CALL PUSH2 0x1032 PUSH2 0x3681 JUMP JUMPDEST POP PUSH2 0x310E JUMP JUMPDEST MLOAD SWAP1 DUP2 MSTORE LOG2 DUP1 RETURN JUMPDEST POP SELFBALANCE DUP3 GT ISZERO PUSH2 0x1016 JUMP JUMPDEST POP POP CALLVALUE PUSH2 0x443 JUMPI DUP2 PUSH1 0x3 NOT CALLDATASIZE ADD SLT PUSH2 0x443 JUMPI PUSH1 0x20 SWAP1 PUSH1 0x12 SLOAD SWAP1 MLOAD SWAP1 DUP2 MSTORE RETURN JUMPDEST POP POP CALLVALUE PUSH2 0x443 JUMPI DUP2 PUSH1 0x3 NOT CALLDATASIZE ADD SLT PUSH2 0x443 JUMPI PUSH1 0x20 SWAP1 PUSH2 0x1086 PUSH2 0x4788 JUMP JUMPDEST SWAP1 MLOAD SWAP1 DUP2 MSTORE RETURN JUMPDEST POP POP CALLVALUE PUSH2 0x443 JUMPI DUP2 PUSH1 0x3 NOT CALLDATASIZE ADD SLT PUSH2 0x443 JUMPI PUSH1 0x3 SLOAD SWAP1 MLOAD PUSH1 0x1 PUSH1 0x1 PUSH1 0xA0 SHL SUB SWAP1 SWAP2 AND DUP2 MSTORE PUSH1 0x20 SWAP1 RETURN JUMPDEST POP POP CALLVALUE PUSH2 0x443 JUMPI DUP2 PUSH1 0x3 NOT CALLDATASIZE ADD SLT PUSH2 0x443 JUMPI PUSH1 0x20 SWAP1 MLOAD PUSH1 0x28 DUP2 MSTORE RETURN JUMPDEST SWAP1 POP CALLVALUE PUSH2 0x76E JUMPI PUSH1 0x20 CALLDATASIZE PUSH1 0x3 NOT ADD SLT PUSH2 0x76E JUMPI CALLDATALOAD PUSH1 0xC SLOAD DUP2 LT ISZERO PUSH2 0x76E JUMPI PUSH1 0xC PUSH1 0x20 SWAP4 MSTORE PUSH1 0x1 DUP1 PUSH1 0xA0 SHL SUB SWAP1 PUSH32 0xDF6966C971051C3D54EC59162606531493A51404A002842F56009D7E5CF4A8C7 ADD SLOAD AND SWAP1 MLOAD SWAP1 DUP2 MSTORE RETURN JUMPDEST SWAP2 SWAP1 POP CALLVALUE PUSH2 0x76E JUMPI DUP3 PUSH2 0x113B CALLDATASIZE PUSH2 0x2FC2 JUMP JUMPDEST SWAP1 PUSH2 0x1155 PUSH1 0x0 DUP1 MLOAD PUSH1 0x20 PUSH2 0x49CE DUP4 CODECOPY DUP2 MLOAD SWAP2 MSTORE CALLER EQ PUSH2 0x303D JUMP JUMPDEST PUSH2 0x1165 PUSH1 0x8 PUSH1 0xFF DUP5 AND GT ISZERO PUSH2 0x3418 JUMP JUMPDEST DUP5 SLOAD PUSH1 0x1 PUSH1 0x1 PUSH1 0xA0 SHL SUB AND SWAP1 DUP2 PUSH2 0x117A JUMPI DUP4 DUP1 RETURN JUMPDEST DUP2 EXTCODESIZE ISZERO PUSH2 0x733 JUMPI DUP5 MLOAD PUSH4 0xC3E98E61 PUSH1 0xE0 SHL DUP2 MSTORE PUSH1 0x1 PUSH1 0x1 PUSH1 0xA0 SHL SUB SWAP1 SWAP2 AND SWAP6 DUP2 ADD SWAP6 DUP7 MSTORE PUSH1 0xFF SWAP1 SWAP3 AND PUSH1 0x20 DUP7 ADD MSTORE SWAP1 SWAP4 DUP5 SWAP2 SWAP1 DUP3 SWAP1 DUP5 SWAP1 DUP3 SWAP1 PUSH1 0x40 ADD SUB SWAP3 GAS CALL SWAP1 DUP2 ISZERO PUSH2 0x885 JUMPI POP PUSH2 0x11D0 JUMPI JUMPDEST DUP1 DUP3 DUP2 DUP1 DUP1 DUP4 DUP1 RETURN JUMPDEST PUSH2 0x11D9 SWAP1 PUSH2 0x30A6 JUMP JUMPDEST CODESIZE PUSH2 0x11C7 JUMP JUMPDEST SWAP1 POP CALLVALUE PUSH2 0x76E JUMPI PUSH1 0x20 CALLDATASIZE PUSH1 0x3 NOT ADD SLT PUSH2 0x76E JUMPI DUP1 CALLDATALOAD SWAP1 DUP2 LT ISZERO PUSH2 0x76E JUMPI PUSH1 0x20 SWAP3 POP PUSH1 0x6 ADD SLOAD SWAP1 MLOAD SWAP1 DUP2 MSTORE RETURN JUMPDEST POP POP POP POP PUSH2 0x402 PUSH2 0x2F9E JUMP JUMPDEST SWAP3 SWAP2 POP CALLVALUE PUSH2 0x893 JUMPI DUP3 PUSH1 0x3 NOT CALLDATASIZE ADD SLT PUSH2 0x893 JUMPI PUSH2 0x1232 PUSH2 0x34BF JUMP JUMPDEST DUP1 SLOAD PUSH1 0x1 PUSH1 0x1 PUSH1 0xA0 SHL SUB AND DUP1 PUSH2 0x124A JUMPI DUP4 PUSH1 0x1 DUP2 SSTORE DUP1 RETURN JUMPDEST DUP1 EXTCODESIZE ISZERO PUSH2 0x88E JUMPI PUSH1 0x24 DUP5 SWAP3 DUP5 MLOAD SWAP6 DUP7 SWAP4 DUP5 SWAP3 PUSH4 0xE74B5B73 PUSH1 0xE0 SHL DUP5 MSTORE CALLER SWAP1 DUP5 ADD MSTORE GAS CALL SWAP1 DUP2 ISZERO PUSH2 0x885 JUMPI POP PUSH2 0x876 JUMPI DUP1 DUP1 DUP4 SWAP3 PUSH2 0x825 JUMP JUMPDEST SWAP3 SWAP2 POP CALLVALUE PUSH2 0x893 JUMPI DUP3 PUSH1 0x3 NOT CALLDATASIZE ADD SLT PUSH2 0x893 JUMPI PUSH2 0x129D PUSH2 0x34BF JUMP JUMPDEST DUP1 SLOAD PUSH1 0x1 PUSH1 0x1 PUSH1 0xA0 SHL SUB AND DUP1 PUSH2 0x12B5 JUMPI DUP4 PUSH1 0x1 DUP2 SSTORE DUP1 RETURN JUMPDEST DUP1 EXTCODESIZE ISZERO PUSH2 0x88E JUMPI PUSH1 0x24 DUP5 SWAP3 DUP5 MLOAD SWAP6 DUP7 SWAP4 DUP5 SWAP3 PUSH4 0x6EBC51E1 PUSH1 0xE0 SHL DUP5 MSTORE CALLER SWAP1 DUP5 ADD MSTORE GAS CALL SWAP1 DUP2 ISZERO PUSH2 0x885 JUMPI POP PUSH2 0x876 JUMPI DUP1 DUP1 DUP4 SWAP3 PUSH2 0x825 JUMP JUMPDEST POP POP CALLVALUE PUSH2 0x443 JUMPI DUP2 PUSH1 0x3 NOT CALLDATASIZE ADD SLT PUSH2 0x443 JUMPI PUSH1 0x20 SWAP1 MLOAD PUSH20 0x27B84FC9EB5C3A19585093AD6D11292CBBAB5852 DUP2 MSTORE RETURN JUMPDEST SWAP2 SWAP1 POP CALLVALUE PUSH2 0x76E JUMPI PUSH1 0x20 SWAP3 DUP4 PUSH1 0x3 NOT CALLDATASIZE ADD SLT PUSH2 0x96C JUMPI DUP3 CALLDATALOAD PUSH2 0x133C PUSH2 0x34BF JUMP JUMPDEST PUSH1 0x2 SLOAD DUP4 MLOAD PUSH4 0x70A08231 PUSH1 0xE0 SHL DUP2 MSTORE CALLER DUP2 DUP8 ADD MSTORE PUSH1 0x1 PUSH1 0x1 PUSH1 0xA0 SHL SUB SWAP6 SWAP2 PUSH1 0x24 SWAP2 SWAP1 DUP8 AND SWAP1 DUP9 DUP2 DUP5 DUP2 DUP6 GAS STATICCALL DUP1 ISZERO PUSH2 0x16FF JUMPI DUP6 SWAP1 DUP8 SWAP1 PUSH2 0x1763 JUMPI JUMPDEST PUSH2 0x1383 SWAP3 POP LT ISZERO PUSH2 0x3B8C JUMP JUMPDEST DUP6 MLOAD PUSH4 0x23B872DD PUSH1 0xE0 SHL DUP2 MSTORE CALLER DUP5 DUP3 ADD SWAP1 DUP2 MSTORE ADDRESS PUSH1 0x20 DUP3 ADD MSTORE PUSH1 0x40 DUP2 ADD DUP7 SWAP1 MSTORE SWAP1 SWAP2 DUP10 SWAP2 DUP4 SWAP2 SWAP1 DUP3 SWAP1 DUP10 SWAP1 DUP3 SWAP1 PUSH1 0x60 ADD SUB SWAP3 GAS CALL DUP1 ISZERO PUSH2 0x1759 JUMPI PUSH2 0x173C JUMPI JUMPDEST POP PUSH1 0x2 SLOAD DUP6 MLOAD PUSH4 0x18160DDD PUSH1 0xE0 SHL DUP2 MSTORE SWAP7 SWAP1 DUP2 AND DUP9 DUP9 DUP6 DUP2 DUP5 GAS STATICCALL SWAP8 DUP9 ISZERO PUSH2 0x16FF JUMPI DUP7 SWAP9 PUSH2 0x170D JUMPI JUMPDEST POP PUSH13 0x13FE2E171CDA1978DB8000000 DUP7 SWAP9 GT PUSH2 0x16AA JUMPI JUMPDEST POP PUSH1 0x6 DUP5 MUL DUP5 DUP2 DIV PUSH1 0x6 EQ DUP6 ISZERO OR ISZERO PUSH2 0x1698 JUMPI PUSH1 0x64 SWAP1 DIV SWAP3 PUSH2 0x1424 DUP5 DUP7 PUSH2 0x32E6 JUMP JUMPDEST SWAP2 DUP5 ISZERO DUP1 ISZERO PUSH2 0x1579 JUMPI JUMPDEST POP DUP8 MLOAD SWAP1 PUSH2 0x143B DUP3 PUSH2 0x30D0 JUMP JUMPDEST PUSH1 0x2 DUP3 MSTORE DUP11 DUP3 ADD SWAP1 DUP10 CALLDATASIZE DUP4 CALLDATACOPY PUSH1 0x2 SLOAD AND SWAP1 DUP3 MLOAD ISZERO PUSH2 0x1567 JUMPI MSTORE DUP7 SWAP3 SWAP2 SWAP1 PUSH2 0x149D SWAP1 PUSH20 0x570A5D26F7765ECB712C0924E4DE545B89FD43DF PUSH2 0x147A DUP3 PUSH2 0x3BBE JUMP JUMPDEST MSTORE DUP10 DUP1 MLOAD SWAP7 DUP8 SWAP6 DUP7 SWAP6 PUSH4 0xD06CA61F PUSH1 0xE0 SHL DUP8 MSTORE DUP7 ADD MSTORE DUP5 ADD MSTORE PUSH1 0x44 DUP4 ADD SWAP1 PUSH2 0x3C4A JUMP JUMPDEST SUB DUP2 PUSH20 0x10ED43C718714EB63D5AA57B78B54704E256024E GAS STATICCALL SWAP1 DUP2 ISZERO PUSH2 0x155D JUMPI PUSH2 0x14E4 PUSH2 0x14DA DUP7 SWAP6 SWAP5 SWAP4 PUSH2 0x3E8 SWAP4 PUSH1 0x1 SWAP9 SWAP2 PUSH2 0x153B JUMPI JUMPDEST POP PUSH2 0x3BBE JUMP JUMPDEST MLOAD PUSH1 0xA SLOAD SWAP1 PUSH2 0x37A6 JUMP JUMPDEST DIV SWAP6 PUSH2 0x14F1 DUP8 ISZERO ISZERO PUSH2 0x4753 JUMP JUMPDEST PUSH2 0x14FB DUP8 CALLER PUSH2 0x46A6 JUMP JUMPDEST DUP6 MLOAD SWAP3 DUP4 MSTORE DUP7 DUP9 DUP5 ADD MSTORE DUP6 DUP4 ADD MSTORE PUSH1 0x60 DUP3 ADD MSTORE PUSH32 0x88C033612C130A9A7761F426AC32613C1E817609CB4C219096E5A0637473BA18 PUSH1 0x80 CALLER SWAP3 LOG2 SSTORE MLOAD SWAP1 DUP2 MSTORE RETURN JUMPDEST PUSH2 0x1557 SWAP2 POP RETURNDATASIZE DUP1 DUP10 DUP4 RETURNDATACOPY PUSH2 0x154F DUP2 DUP4 PUSH2 0x30EC JUMP JUMPDEST DUP2 ADD SWAP1 PUSH2 0x3BCE JUMP JUMPDEST CODESIZE PUSH2 0x14D4 JUMP JUMPDEST DUP6 MLOAD RETURNDATASIZE DUP7 DUP3 RETURNDATACOPY RETURNDATASIZE SWAP1 REVERT JUMPDEST PUSH4 0x4E487B71 PUSH1 0xE0 SHL DUP10 MSTORE PUSH1 0x32 DUP5 MSTORE DUP6 DUP10 REVERT JUMPDEST PUSH1 0x32 DUP7 MUL SWAP1 DUP7 DUP3 DIV PUSH1 0x32 EQ OR ISZERO PUSH2 0x1686 JUMPI PUSH1 0x64 SWAP1 DIV DUP1 ISZERO ISZERO DUP1 PUSH2 0x15FD JUMPI JUMPDEST DUP1 PUSH2 0x15F1 JUMPI JUMPDEST ISZERO PUSH2 0x142E JUMPI DUP2 DUP4 SLOAD AND SWAP1 DUP2 EXTCODESIZE ISZERO PUSH2 0x15ED JUMPI DUP9 SWAP2 DUP7 DUP4 SWAP3 DUP13 MLOAD SWAP5 DUP6 SWAP4 DUP5 SWAP3 PUSH3 0x5CDBF PUSH1 0xE3 SHL DUP5 MSTORE DUP10 DUP5 ADD MSTORE GAS CALL DUP1 ISZERO PUSH2 0x15E3 JUMPI ISZERO PUSH2 0x142E JUMPI PUSH2 0x15DD SWAP1 PUSH2 0x30A6 JUMP JUMPDEST CODESIZE PUSH2 0x142E JUMP JUMPDEST DUP10 MLOAD RETURNDATASIZE DUP11 DUP3 RETURNDATACOPY RETURNDATASIZE SWAP1 REVERT JUMPDEST DUP9 DUP1 REVERT JUMPDEST POP DUP2 DUP4 SLOAD AND ISZERO ISZERO PUSH2 0x159D JUMP JUMPDEST PUSH1 0x2 SLOAD PUSH1 0x1 SLOAD DUP12 MLOAD PUSH4 0xA9059CBB PUSH1 0xE0 SHL DUP2 MSTORE SWAP1 DUP6 AND PUSH1 0x1 PUSH1 0x1 PUSH1 0xA0 SHL SUB AND DUP7 DUP3 ADD SWAP1 DUP2 MSTORE PUSH1 0x20 DUP2 ADD DUP6 SWAP1 MSTORE SWAP1 SWAP2 DUP15 SWAP2 DUP4 SWAP2 DUP8 AND SWAP1 DUP3 SWAP1 DUP15 SWAP1 DUP3 SWAP1 PUSH1 0x40 ADD SUB SWAP3 GAS CALL DUP1 ISZERO PUSH2 0x167C JUMPI PUSH2 0x164F JUMPI JUMPDEST POP PUSH2 0x1597 JUMP JUMPDEST PUSH2 0x166E SWAP1 DUP14 DUP1 RETURNDATASIZE LT PUSH2 0x1675 JUMPI JUMPDEST PUSH2 0x1666 DUP2 DUP4 PUSH2 0x30EC JUMP JUMPDEST DUP2 ADD SWAP1 PUSH2 0x3566 JUMP JUMPDEST POP CODESIZE PUSH2 0x1649 JUMP JUMPDEST POP RETURNDATASIZE PUSH2 0x165C JUMP JUMPDEST DUP12 MLOAD RETURNDATASIZE DUP13 DUP3 RETURNDATACOPY RETURNDATASIZE SWAP1 REVERT JUMPDEST PUSH4 0x4E487B71 PUSH1 0xE0 SHL DUP9 MSTORE PUSH1 0x11 DUP4 MSTORE DUP5 DUP9 REVERT JUMPDEST PUSH4 0x4E487B71 PUSH1 0xE0 SHL DUP7 MSTORE PUSH1 0x11 DUP5 MSTORE DUP3 DUP7 REVERT JUMPDEST SWAP7 POP PUSH1 0x5A DUP5 MUL DUP5 DUP2 DIV PUSH1 0x5A EQ DUP6 ISZERO OR ISZERO PUSH2 0x1698 JUMPI PUSH1 0x64 SWAP1 DIV SWAP7 DUP1 EXTCODESIZE ISZERO PUSH2 0x1709 JUMPI DUP6 DUP1 SWAP2 DUP5 DUP10 MLOAD DUP1 SWAP5 DUP2 SWAP4 PUSH4 0x852CD8D PUSH1 0xE3 SHL DUP4 MSTORE DUP14 DUP11 DUP5 ADD MSTORE GAS CALL DUP1 ISZERO PUSH2 0x16FF JUMPI ISZERO PUSH2 0x1402 JUMPI PUSH2 0x16F9 SWAP1 PUSH2 0x30A6 JUMP JUMPDEST CODESIZE PUSH2 0x1402 JUMP JUMPDEST DUP8 MLOAD RETURNDATASIZE DUP9 DUP3 RETURNDATACOPY RETURNDATASIZE SWAP1 REVERT JUMPDEST DUP6 DUP1 REVERT JUMPDEST SWAP1 SWAP8 POP DUP9 DUP2 DUP2 RETURNDATASIZE DUP4 GT PUSH2 0x1735 JUMPI JUMPDEST PUSH2 0x1725 DUP2 DUP4 PUSH2 0x30EC JUMP JUMPDEST DUP2 ADD SUB SLT PUSH2 0x1709 JUMPI MLOAD SWAP7 CODESIZE PUSH2 0x13EB JUMP JUMPDEST POP RETURNDATASIZE PUSH2 0x171B JUMP JUMPDEST PUSH2 0x1752 SWAP1 DUP9 RETURNDATASIZE DUP11 GT PUSH2 0x1675 JUMPI PUSH2 0x1666 DUP2 DUP4 PUSH2 0x30EC JUMP JUMPDEST POP CODESIZE PUSH2 0x13C2 JUMP JUMPDEST DUP7 MLOAD RETURNDATASIZE DUP8 DUP3 RETURNDATACOPY RETURNDATASIZE SWAP1 REVERT JUMPDEST POP POP DUP9 DUP2 DUP2 RETURNDATASIZE DUP4 GT PUSH2 0x178D JUMPI JUMPDEST PUSH2 0x177A DUP2 DUP4 PUSH2 0x30EC JUMP JUMPDEST DUP2 ADD SUB SLT PUSH2 0x1709 JUMPI DUP5 PUSH2 0x1383 SWAP2 MLOAD PUSH2 0x1377 JUMP JUMPDEST POP RETURNDATASIZE PUSH2 0x1770 JUMP JUMPDEST SWAP3 SWAP2 POP CALLVALUE PUSH2 0x893 JUMPI DUP3 PUSH1 0x3 NOT CALLDATASIZE ADD SLT PUSH2 0x893 JUMPI PUSH2 0x17AF PUSH2 0x34BF JUMP JUMPDEST DUP1 SLOAD PUSH1 0x1 PUSH1 0x1 PUSH1 0xA0 SHL SUB AND DUP1 PUSH2 0x17C7 JUMPI DUP4 PUSH1 0x1 DUP2 SSTORE DUP1 RETURN JUMPDEST DUP1 EXTCODESIZE ISZERO PUSH2 0x88E JUMPI PUSH1 0x24 DUP5 SWAP3 DUP5 MLOAD SWAP6 DUP7 SWAP4 DUP5 SWAP3 PUSH4 0xBE75F46B PUSH1 0xE0 SHL DUP5 MSTORE CALLER SWAP1 DUP5 ADD MSTORE GAS CALL SWAP1 DUP2 ISZERO PUSH2 0x885 JUMPI POP PUSH2 0x876 JUMPI DUP1 DUP1 DUP4 SWAP3 PUSH2 0x825 JUMP JUMPDEST POP POP CALLVALUE PUSH2 0x443 JUMPI DUP2 PUSH1 0x3 NOT CALLDATASIZE ADD SLT PUSH2 0x443 JUMPI PUSH1 0x20 SWAP1 MLOAD PUSH1 0x7 DUP2 MSTORE RETURN JUMPDEST SWAP2 SWAP1 POP CALLVALUE PUSH2 0x76E JUMPI DUP1 PUSH1 0x3 NOT CALLDATASIZE ADD SLT PUSH2 0x76E JUMPI DUP3 DUP3 CALLDATALOAD SWAP3 PUSH2 0x183A PUSH2 0x34BF JUMP JUMPDEST DUP1 SLOAD PUSH1 0x1 PUSH1 0x1 PUSH1 0xA0 SHL SUB SWAP1 PUSH2 0x1852 SWAP1 DUP3 AND ISZERO ISZERO PUSH2 0x3B57 JUMP JUMPDEST PUSH1 0x2 SLOAD DUP5 MLOAD PUSH4 0x70A08231 PUSH1 0xE0 SHL DUP2 MSTORE CALLER DUP5 DUP3 ADD MSTORE PUSH1 0x20 SWAP2 DUP4 AND SWAP1 DUP3 DUP2 PUSH1 0x24 DUP2 DUP6 GAS STATICCALL DUP1 ISZERO PUSH2 0x16FF JUMPI DUP9 SWAP1 DUP8 SWAP1 PUSH2 0x193F JUMPI JUMPDEST PUSH2 0x188F SWAP3 POP LT ISZERO PUSH2 0x3B8C JUMP JUMPDEST DUP6 MLOAD PUSH4 0x23B872DD PUSH1 0xE0 SHL DUP2 MSTORE CALLER DUP6 DUP3 ADD SWAP1 DUP2 MSTORE ADDRESS PUSH1 0x20 DUP3 ADD MSTORE PUSH1 0x40 DUP2 ADD DUP10 SWAP1 MSTORE SWAP1 SWAP2 DUP4 SWAP2 DUP4 SWAP2 SWAP1 DUP3 SWAP1 DUP10 SWAP1 DUP3 SWAP1 PUSH1 0x60 ADD SUB SWAP3 GAS CALL DUP1 ISZERO PUSH2 0x1759 JUMPI PUSH2 0x1921 JUMPI JUMPDEST POP POP DUP2 SLOAD AND DUP1 EXTCODESIZE ISZERO PUSH2 0x76E JUMPI DUP4 MLOAD PUSH4 0xC51B88F PUSH1 0xE0 SHL DUP2 MSTORE CALLER SWAP3 DUP2 ADD SWAP3 DUP4 MSTORE PUSH1 0x20 DUP4 ADD SWAP6 SWAP1 SWAP6 MSTORE PUSH1 0x24 CALLDATALOAD PUSH1 0x40 DUP4 ADD MSTORE DUP5 SWAP2 DUP3 SWAP1 DUP5 SWAP1 DUP3 SWAP1 PUSH1 0x60 ADD JUMPDEST SUB SWAP3 GAS CALL SWAP1 DUP2 ISZERO PUSH2 0x885 JUMPI POP PUSH2 0x900 JUMPI POP PUSH1 0x1 DUP2 SSTORE DUP1 RETURN JUMPDEST DUP2 PUSH2 0x1937 SWAP3 SWAP1 RETURNDATASIZE LT PUSH2 0x1675 JUMPI PUSH2 0x1666 DUP2 DUP4 PUSH2 0x30EC JUMP JUMPDEST POP CODESIZE DUP1 PUSH2 0x18CE JUMP JUMPDEST POP POP DUP3 DUP2 DUP2 RETURNDATASIZE DUP4 GT PUSH2 0x1969 JUMPI JUMPDEST PUSH2 0x1956 DUP2 DUP4 PUSH2 0x30EC JUMP JUMPDEST DUP2 ADD SUB SLT PUSH2 0x1709 JUMPI DUP8 PUSH2 0x188F SWAP2 MLOAD PUSH2 0x1883 JUMP JUMPDEST POP RETURNDATASIZE PUSH2 0x194C JUMP JUMPDEST SWAP1 POP CALLVALUE PUSH2 0x76E JUMPI PUSH1 0x20 SWAP2 DUP3 PUSH1 0x3 NOT CALLDATASIZE ADD SLT PUSH2 0x733 JUMPI DUP2 CALLDATALOAD SWAP2 PUSH2 0x1990 PUSH2 0x34BF JUMP JUMPDEST CALLER DUP6 MSTORE PUSH1 0xB DUP5 MSTORE DUP2 DUP6 KECCAK256 SLOAD PUSH1 0x1 PUSH1 0x1 PUSH1 0xA0 SHL SUB SWAP1 DUP2 AND ISZERO DUP1 ISZERO SWAP1 PUSH2 0x1B36 JUMPI JUMPDEST PUSH2 0x19B8 SWAP1 PUSH2 0x32B4 JUMP JUMPDEST DUP2 SLOAD AND SWAP4 PUSH2 0x19C7 DUP6 ISZERO ISZERO PUSH2 0x3B57 JUMP JUMPDEST DUP3 MLOAD PUSH4 0x63393FD PUSH1 0xE1 SHL DUP2 MSTORE CALLER DUP4 DUP3 ADD MSTORE DUP2 DUP2 PUSH1 0x24 DUP2 DUP10 GAS STATICCALL DUP1 ISZERO PUSH2 0x1AF9 JUMPI DUP8 SWAP1 PUSH2 0x1B03 JUMPI JUMPDEST PUSH2 0x19FA SWAP2 POP DUP6 GT ISZERO PUSH2 0x3B8C JUMP JUMPDEST DUP5 EXTCODESIZE ISZERO PUSH2 0x1709 JUMPI DUP3 MLOAD PUSH4 0x295DF81 PUSH1 0xE6 SHL DUP2 MSTORE CALLER DUP4 DUP3 ADD SWAP1 DUP2 MSTORE PUSH1 0x20 DUP2 ADD DUP7 SWAP1 MSTORE DUP8 SWAP1 DUP3 SWAP1 DUP2 SWAP1 PUSH1 0x40 ADD SUB DUP2 DUP4 DUP11 GAS CALL DUP1 ISZERO PUSH2 0x1AF9 JUMPI PUSH2 0x1AEA JUMPI JUMPDEST POP PUSH1 0x3 DUP5 MUL SWAP2 DUP5 DUP4 DIV PUSH1 0x3 EQ DUP6 ISZERO OR ISZERO PUSH2 0x1AD7 JUMPI DUP7 SWAP1 DUP7 EXTCODESIZE ISZERO PUSH2 0x443 JUMPI DUP5 MLOAD PUSH4 0x13AD7D41 PUSH1 0xE1 SHL DUP2 MSTORE CALLER SWAP2 DUP2 ADD SWAP2 DUP3 MSTORE PUSH1 0x20 DUP3 ADD DUP6 SWAP1 MSTORE SWAP7 DUP8 SWAP2 DUP3 SWAP1 DUP5 SWAP1 DUP3 SWAP1 PUSH1 0x40 ADD SUB SWAP3 GAS CALL SWAP5 DUP6 ISZERO PUSH2 0x1ACD JUMPI PUSH32 0xAAA67EEBEABBC077CC4D64AED90BB17EFBCD628233E7E9207BBBFBFEE0CB5AFD SWAP5 SWAP6 PUSH2 0x1ABE JUMPI JUMPDEST POP DUP3 MLOAD SWAP5 DUP6 MSTORE DUP5 ADD MSTORE CALLER SWAP3 LOG2 PUSH1 0x1 DUP2 SSTORE DUP1 RETURN JUMPDEST PUSH2 0x1AC7 SWAP1 PUSH2 0x30A6 JUMP JUMPDEST CODESIZE PUSH2 0x1AAB JUMP JUMPDEST DUP4 MLOAD RETURNDATASIZE DUP9 DUP3 RETURNDATACOPY RETURNDATASIZE SWAP1 REVERT JUMPDEST PUSH4 0x4E487B71 PUSH1 0xE0 SHL DUP8 MSTORE PUSH1 0x11 SWAP1 MSTORE PUSH1 0x24 DUP7 REVERT JUMPDEST PUSH2 0x1AF3 SWAP1 PUSH2 0x30A6 JUMP JUMPDEST CODESIZE PUSH2 0x1A35 JUMP JUMPDEST DUP5 MLOAD RETURNDATASIZE DUP10 DUP3 RETURNDATACOPY RETURNDATASIZE SWAP1 REVERT JUMPDEST POP DUP2 DUP2 DUP2 RETURNDATASIZE DUP4 GT PUSH2 0x1B2F JUMPI JUMPDEST PUSH2 0x1B19 DUP2 DUP4 PUSH2 0x30EC JUMP JUMPDEST DUP2 ADD SUB SLT PUSH2 0x1B2B JUMPI PUSH2 0x19FA SWAP1 MLOAD PUSH2 0x19ED JUMP JUMPDEST DUP7 DUP1 REVERT JUMPDEST POP RETURNDATASIZE PUSH2 0x1B0F JUMP JUMPDEST POP CALLER PUSH1 0x0 DUP1 MLOAD PUSH1 0x20 PUSH2 0x49CE DUP4 CODECOPY DUP2 MLOAD SWAP2 MSTORE EQ PUSH2 0x19AF JUMP JUMPDEST POP POP CALLVALUE PUSH2 0x443 JUMPI DUP2 PUSH1 0x3 NOT CALLDATASIZE ADD SLT PUSH2 0x443 JUMPI PUSH1 0x20 SWAP1 MLOAD PUSH20 0x4BE56C5390869A3236F8545462896EB1E423D0D5 DUP2 MSTORE RETURN JUMPDEST POP POP CALLVALUE PUSH2 0x443 JUMPI DUP2 PUSH1 0x3 NOT CALLDATASIZE ADD SLT PUSH2 0x443 JUMPI PUSH1 0x20 SWAP1 PUSH1 0x13 SLOAD SWAP1 MLOAD SWAP1 DUP2 MSTORE RETURN JUMPDEST SWAP3 SWAP2 POP CALLVALUE PUSH2 0x893 JUMPI DUP3 PUSH1 0x3 NOT CALLDATASIZE ADD SLT PUSH2 0x893 JUMPI PUSH2 0x1BB6 PUSH2 0x34BF JUMP JUMPDEST PUSH2 0x1BCF PUSH1 0x0 DUP1 MLOAD PUSH1 0x20 PUSH2 0x49CE DUP4 CODECOPY DUP2 MLOAD SWAP2 MSTORE CALLER EQ PUSH2 0x303D JUMP JUMPDEST DUP1 SLOAD PUSH1 0x1 PUSH1 0x1 PUSH1 0xA0 SHL SUB AND DUP1 PUSH2 0x1BE7 JUMPI DUP4 PUSH1 0x1 DUP2 SSTORE DUP1 RETURN JUMPDEST DUP1 EXTCODESIZE ISZERO PUSH2 0x88E JUMPI DUP4 SWAP2 DUP4 MLOAD DUP1 SWAP6 DUP2 SWAP4 PUSH4 0x99F4B251 PUSH1 0xE0 SHL DUP4 MSTORE GAS CALL SWAP1 DUP2 ISZERO PUSH2 0x885 JUMPI POP PUSH2 0x876 JUMPI DUP1 DUP1 DUP4 SWAP3 PUSH2 0x825 JUMP JUMPDEST POP POP CALLVALUE PUSH2 0x443 JUMPI PUSH1 0x20 CALLDATASIZE PUSH1 0x3 NOT ADD SLT PUSH2 0x443 JUMPI PUSH2 0x1C32 PUSH2 0x2ED9 JUMP JUMPDEST PUSH2 0x1C4B PUSH1 0x0 DUP1 MLOAD PUSH1 0x20 PUSH2 0x49CE DUP4 CODECOPY DUP2 MLOAD SWAP2 MSTORE CALLER EQ PUSH2 0x303D JUMP JUMPDEST PUSH1 0x1 PUSH1 0x1 PUSH1 0xA0 SHL SUB AND DUP3 MSTORE PUSH1 0xE PUSH1 0x20 MSTORE DUP2 KECCAK256 DUP1 SLOAD PUSH1 0xFF NOT AND PUSH1 0x1 OR SWAP1 SSTORE DUP1 RETURN JUMPDEST POP POP CALLVALUE PUSH2 0x443 JUMPI PUSH1 0x20 CALLDATASIZE PUSH1 0x3 NOT ADD SLT PUSH2 0x443 JUMPI PUSH1 0x80 SWAP2 PUSH1 0x1 PUSH1 0x1 PUSH1 0xA0 SHL SUB SWAP2 SWAP1 DUP2 SWAP1 DUP4 PUSH2 0x1C96 PUSH2 0x2ED9 JUMP JUMPDEST AND DUP2 MSTORE PUSH1 0xB PUSH1 0x20 MSTORE KECCAK256 SWAP2 DUP3 SLOAD AND SWAP2 PUSH1 0x1 DUP2 ADD SLOAD SWAP2 PUSH1 0x3 PUSH1 0xFF PUSH1 0x2 DUP5 ADD SLOAD AND SWAP3 ADD SLOAD SWAP3 DUP2 MLOAD SWAP5 DUP6 MSTORE PUSH1 0x20 DUP6 ADD MSTORE DUP4 ADD MSTORE PUSH1 0x60 DUP3 ADD MSTORE RETURN JUMPDEST DUP4 SWAP2 POP CALLVALUE PUSH2 0x443 JUMPI DUP2 PUSH1 0x3 NOT CALLDATASIZE ADD SLT PUSH2 0x443 JUMPI PUSH2 0x1CF8 PUSH1 0x0 DUP1 MLOAD PUSH1 0x20 PUSH2 0x49CE DUP4 CODECOPY DUP2 MLOAD SWAP2 MSTORE CALLER EQ PUSH2 0x303D JUMP JUMPDEST PUSH1 0x2 SLOAD PUSH1 0x1 PUSH1 0x1 PUSH1 0xA0 SHL SUB AND DUP1 ISZERO PUSH2 0x1DDE JUMPI SWAP3 DUP3 SWAP4 DUP2 MLOAD PUSH4 0x95EA7B3 PUSH1 0xE0 SHL SWAP4 DUP5 DUP3 MSTORE PUSH20 0x10ED43C718714EB63D5AA57B78B54704E256024E SWAP2 DUP3 DUP3 DUP3 ADD MSTORE PUSH1 0x0 NOT SWAP4 DUP5 PUSH1 0x24 DUP4 ADD MSTORE DUP2 PUSH1 0x44 DUP2 PUSH1 0x20 SWAP11 DUP12 SWAP5 GAS CALL DUP1 ISZERO PUSH2 0x1DD4 JUMPI PUSH2 0x1DB7 JUMPI JUMPDEST POP DUP4 MLOAD SWAP5 DUP6 MSTORE DUP5 ADD MSTORE PUSH1 0x24 DUP4 ADD MSTORE DUP3 DUP3 PUSH1 0x44 DUP2 DUP8 PUSH20 0x570A5D26F7765ECB712C0924E4DE545B89FD43DF GAS CALL SWAP1 DUP2 ISZERO PUSH2 0x1DAE JUMPI POP PUSH2 0x1D91 JUMPI DUP3 DUP1 RETURN JUMPDEST DUP2 PUSH2 0x1DA7 SWAP3 SWAP1 RETURNDATASIZE LT PUSH2 0x1675 JUMPI PUSH2 0x1666 DUP2 DUP4 PUSH2 0x30EC JUMP JUMPDEST POP DUP2 DUP1 DUP3 DUP1 RETURN JUMPDEST MLOAD RETURNDATASIZE DUP6 DUP3 RETURNDATACOPY RETURNDATASIZE SWAP1 REVERT JUMPDEST PUSH2 0x1DCD SWAP1 DUP8 RETURNDATASIZE DUP10 GT PUSH2 0x1675 JUMPI PUSH2 0x1666 DUP2 DUP4 PUSH2 0x30EC JUMP JUMPDEST POP DUP8 PUSH2 0x1D56 JUMP JUMPDEST DUP6 MLOAD RETURNDATASIZE DUP11 DUP3 RETURNDATACOPY RETURNDATASIZE SWAP1 REVERT JUMPDEST DUP4 MLOAD PUSH3 0x461BCD PUSH1 0xE5 SHL DUP2 MSTORE PUSH1 0x20 DUP2 DUP5 ADD MSTORE PUSH1 0x3 PUSH1 0x24 DUP3 ADD MSTORE PUSH3 0x216471 PUSH1 0xE8 SHL PUSH1 0x44 DUP3 ADD MSTORE PUSH1 0x64 SWAP1 REVERT JUMPDEST POP POP CALLVALUE PUSH2 0x443 JUMPI DUP2 PUSH1 0x3 NOT CALLDATASIZE ADD SLT PUSH2 0x443 JUMPI PUSH1 0x1 SLOAD SWAP1 MLOAD PUSH1 0x1 PUSH1 0x1 PUSH1 0xA0 SHL SUB SWAP1 SWAP2 AND DUP2 MSTORE PUSH1 0x20 SWAP1 RETURN JUMPDEST DUP4 CALLVALUE PUSH2 0x96C JUMPI PUSH1 0x20 CALLDATASIZE PUSH1 0x3 NOT ADD SLT PUSH2 0x96C JUMPI PUSH2 0x1E4A PUSH2 0x2ED9 JUMP JUMPDEST PUSH2 0x1E63 PUSH1 0x0 DUP1 MLOAD PUSH1 0x20 PUSH2 0x49CE DUP4 CODECOPY DUP2 MLOAD SWAP2 MSTORE CALLER EQ PUSH2 0x303D JUMP JUMPDEST PUSH1 0x1 PUSH1 0x1 PUSH1 0xA0 SHL SUB AND PUSH2 0x1E77 DUP2 ISZERO ISZERO PUSH2 0x3072 JUMP JUMPDEST PUSH1 0x1 PUSH1 0x1 PUSH1 0x60 SHL SUB PUSH1 0xA0 SHL PUSH1 0x2 SLOAD AND OR PUSH1 0x2 SSTORE DUP1 RETURN JUMPDEST DUP4 SWAP2 POP CALLVALUE PUSH2 0x443 JUMPI PUSH1 0x20 SWAP3 DUP4 PUSH1 0x3 NOT CALLDATASIZE ADD SLT PUSH2 0x76E JUMPI DUP2 CALLDATALOAD SWAP2 PUSH2 0x1EAE PUSH2 0x34BF JUMP JUMPDEST CALLER DUP5 MSTORE PUSH1 0xB DUP6 MSTORE DUP2 DUP5 KECCAK256 SLOAD PUSH1 0x1 PUSH1 0x1 PUSH1 0xA0 SHL SUB AND ISZERO DUP1 ISZERO SWAP1 PUSH2 0x1F9A JUMPI JUMPDEST PUSH2 0x1ED4 SWAP1 PUSH2 0x32B4 JUMP JUMPDEST PUSH8 0xDE0B6B3A7640000 DUP4 LT ISZERO DUP1 PUSH2 0x1F85 JUMPI JUMPDEST PUSH2 0x1EEF SWAP1 PUSH2 0x313E JUMP JUMPDEST CALLER DUP5 MSTORE PUSH1 0x10 DUP6 MSTORE PUSH1 0xFF DUP3 DUP6 KECCAK256 SLOAD AND ISZERO PUSH2 0x1F19 JUMPI JUMPDEST DUP4 PUSH2 0xD09 DUP5 PUSH2 0x1F13 DUP2 ADDRESS CALLER PUSH2 0x3515 JUMP JUMPDEST CALLER PUSH2 0x37B9 JUMP JUMPDEST PUSH2 0x1F21 PUSH2 0x4788 JUMP JUMPDEST CALLER DUP6 MSTORE PUSH1 0xF DUP7 MSTORE PUSH2 0x1F35 DUP5 DUP5 DUP8 KECCAK256 SLOAD PUSH2 0x34B2 JUMP JUMPDEST GT PUSH2 0x1F5D JUMPI POP PUSH1 0xF PUSH2 0xD09 SWAP4 SWAP5 CALLER DUP7 MSTORE MSTORE DUP4 KECCAK256 PUSH2 0x1F53 DUP3 DUP3 SLOAD PUSH2 0x34B2 JUMP JUMPDEST SWAP1 SSTORE DUP3 SWAP2 DUP5 PUSH2 0x1F03 JUMP JUMPDEST DUP5 SWAP1 PUSH1 0x64 SWAP3 MLOAD SWAP2 PUSH3 0x461BCD PUSH1 0xE5 SHL DUP4 MSTORE DUP2 DUP4 ADD MSTORE PUSH1 0x24 DUP3 ADD MSTORE PUSH4 0x216C696D PUSH1 0xE0 SHL PUSH1 0x44 DUP3 ADD MSTORE REVERT JUMPDEST POP CALLER DUP5 MSTORE PUSH1 0xD DUP6 MSTORE DUP2 DUP5 KECCAK256 SLOAD PUSH1 0xFF AND ISZERO PUSH2 0x1EE6 JUMP JUMPDEST POP CALLER PUSH1 0x0 DUP1 MLOAD PUSH1 0x20 PUSH2 0x49CE DUP4 CODECOPY DUP2 MLOAD SWAP2 MSTORE EQ PUSH2 0x1ECB JUMP JUMPDEST SWAP3 SWAP2 POP CALLVALUE PUSH2 0x893 JUMPI DUP3 PUSH1 0x3 NOT CALLDATASIZE ADD SLT PUSH2 0x893 JUMPI PUSH2 0x1FCC PUSH2 0x34BF JUMP JUMPDEST DUP1 SLOAD PUSH1 0x1 PUSH1 0x1 PUSH1 0xA0 SHL SUB AND DUP1 PUSH2 0x1FE4 JUMPI DUP4 PUSH1 0x1 DUP2 SSTORE DUP1 RETURN JUMPDEST DUP1 EXTCODESIZE ISZERO PUSH2 0x88E JUMPI PUSH1 0x24 DUP5 SWAP3 DUP5 MLOAD SWAP6 DUP7 SWAP4 DUP5 SWAP3 PUSH4 0x24D83D03 PUSH1 0xE0 SHL DUP5 MSTORE CALLER SWAP1 DUP5 ADD MSTORE GAS CALL SWAP1 DUP2 ISZERO PUSH2 0x885 JUMPI POP PUSH2 0x876 JUMPI DUP1 DUP1 DUP4 SWAP3 PUSH2 0x825 JUMP JUMPDEST POP POP CALLVALUE PUSH2 0x443 JUMPI PUSH1 0x20 CALLDATASIZE PUSH1 0x3 NOT ADD SLT PUSH2 0x443 JUMPI PUSH2 0x2037 PUSH2 0x2ED9 JUMP JUMPDEST PUSH2 0x2050 PUSH1 0x0 DUP1 MLOAD PUSH1 0x20 PUSH2 0x49CE DUP4 CODECOPY DUP2 MLOAD SWAP2 MSTORE CALLER EQ PUSH2 0x303D JUMP JUMPDEST PUSH1 0x1 PUSH1 0x1 PUSH1 0xA0 SHL SUB AND DUP3 MSTORE PUSH1 0xD PUSH1 0x20 MSTORE DUP2 KECCAK256 DUP1 SLOAD PUSH1 0xFF NOT AND SWAP1 SSTORE DUP1 RETURN JUMPDEST SWAP1 POP CALLVALUE PUSH2 0x76E JUMPI PUSH1 0x20 CALLDATASIZE PUSH1 0x3 NOT ADD SLT PUSH2 0x76E JUMPI PUSH1 0x20 SWAP3 DUP3 SWAP1 PUSH1 0x1 PUSH1 0x1 PUSH1 0xA0 SHL SUB PUSH2 0x2095 PUSH2 0x2ED9 JUMP JUMPDEST AND DUP2 MSTORE PUSH1 0xB DUP6 MSTORE KECCAK256 ADD SLOAD SWAP1 MLOAD SWAP1 DUP2 MSTORE RETURN JUMPDEST SWAP2 SWAP1 POP CALLVALUE PUSH2 0x76E JUMPI PUSH1 0x20 CALLDATASIZE PUSH1 0x3 NOT ADD SLT PUSH2 0x76E JUMPI DUP3 PUSH2 0x20C3 PUSH2 0x2ED9 JUMP JUMPDEST PUSH2 0x20DC PUSH1 0x0 DUP1 MLOAD PUSH1 0x20 PUSH2 0x49CE DUP4 CODECOPY DUP2 MLOAD SWAP2 MSTORE CALLER EQ PUSH2 0x303D JUMP JUMPDEST PUSH1 0x1 PUSH1 0x1 PUSH1 0xA0 SHL SUB AND SWAP3 PUSH2 0x20F1 DUP5 ISZERO ISZERO PUSH2 0x3072 JUMP JUMPDEST DUP1 SLOAD PUSH1 0x1 PUSH1 0x1 PUSH1 0xA0 SHL SUB NOT AND DUP5 OR DUP2 SSTORE DUP4 EXTCODESIZE ISZERO PUSH2 0x443 JUMPI PUSH1 0x24 PUSH1 0x3 SWAP2 DUP4 DUP6 MLOAD SWAP7 DUP8 SWAP5 DUP6 SWAP4 PUSH4 0x74EA7383 PUSH1 0xE0 SHL DUP6 MSTORE DUP5 ADD MSTORE GAS CALL SWAP1 DUP2 ISZERO PUSH2 0x885 JUMPI POP PUSH2 0x2134 JUMPI POP DUP1 RETURN JUMPDEST PUSH2 0xA36 SWAP1 PUSH2 0x30A6 JUMP JUMPDEST SWAP2 SWAP1 POP CALLVALUE PUSH2 0x76E JUMPI PUSH1 0x20 CALLDATASIZE PUSH1 0x3 NOT ADD SLT PUSH2 0x76E JUMPI PUSH1 0x20 PUSH1 0x0 DUP1 MLOAD PUSH1 0x20 PUSH2 0x49CE DUP4 CODECOPY DUP2 MLOAD SWAP2 MSTORE SWAP3 PUSH2 0x216E DUP5 CALLER EQ PUSH2 0x303D JUMP JUMPDEST PUSH1 0x2 SLOAD DUP4 MLOAD PUSH4 0xA9059CBB PUSH1 0xE0 SHL DUP2 MSTORE DUP3 DUP2 ADD SWAP6 SWAP1 SWAP6 MSTORE SWAP1 CALLDATALOAD PUSH1 0x24 DUP6 ADD MSTORE DUP4 SWAP1 PUSH1 0x44 SWAP1 DUP3 SWAP1 DUP8 SWAP1 PUSH1 0x1 PUSH1 0x1 PUSH1 0xA0 SHL SUB AND GAS CALL SWAP1 DUP2 ISZERO PUSH2 0x885 JUMPI POP PUSH2 0x21AF JUMPI POP DUP1 RETURN JUMPDEST PUSH2 0x21C6 SWAP1 PUSH1 0x20 RETURNDATASIZE DUP2 GT PUSH2 0x1675 JUMPI PUSH2 0x1666 DUP2 DUP4 PUSH2 0x30EC JUMP JUMPDEST POP DUP1 RETURN JUMPDEST SWAP2 SWAP1 POP CALLVALUE PUSH2 0x76E JUMPI PUSH1 0x20 CALLDATASIZE PUSH1 0x3 NOT ADD SLT PUSH2 0x76E JUMPI DUP3 DUP3 CALLDATALOAD DUP1 ISZERO ISZERO DUP1 PUSH2 0x223F JUMPI JUMPDEST PUSH2 0x21F2 JUMPI POP DUP1 RETURN JUMPDEST DUP4 SLOAD PUSH1 0x1 PUSH1 0x1 PUSH1 0xA0 SHL SUB AND SWAP4 DUP5 EXTCODESIZE ISZERO PUSH2 0x76E JUMPI PUSH1 0x24 SWAP1 DUP4 DUP6 MLOAD SWAP7 DUP8 SWAP5 DUP6 SWAP4 PUSH4 0x31AEDF9B PUSH1 0xE0 SHL DUP6 MSTORE DUP5 ADD MSTORE GAS CALL SWAP1 DUP2 ISZERO PUSH2 0x885 JUMPI POP PUSH2 0x2230 JUMPI DUP1 DUP3 DUP1 RETURN JUMPDEST PUSH2 0x2239 SWAP1 PUSH2 0x30A6 JUMP JUMPDEST CODESIZE DUP1 DUP3 DUP1 RETURN JUMPDEST POP DUP4 SLOAD PUSH1 0x1 PUSH1 0x1 PUSH1 0xA0 SHL SUB AND ISZERO ISZERO PUSH2 0x21EA JUMP JUMPDEST POP POP CALLVALUE PUSH2 0x443 JUMPI DUP2 PUSH1 0x3 NOT CALLDATASIZE ADD SLT PUSH2 0x443 JUMPI PUSH1 0x20 SWAP1 MLOAD PUSH1 0x6 DUP2 MSTORE RETURN JUMPDEST POP POP CALLVALUE PUSH2 0x443 JUMPI DUP2 PUSH1 0x3 NOT CALLDATASIZE ADD SLT PUSH2 0x443 JUMPI PUSH1 0x20 SWAP1 MLOAD PUSH20 0x2DB993B862969040CD971DF8FD2A2C80EC285203 DUP2 MSTORE RETURN JUMPDEST POP POP CALLVALUE PUSH2 0x443 JUMPI PUSH1 0x20 CALLDATASIZE PUSH1 0x3 NOT ADD SLT PUSH2 0x443 JUMPI PUSH2 0x22B8 PUSH2 0x2ED9 JUMP JUMPDEST PUSH2 0x22D1 PUSH1 0x0 DUP1 MLOAD PUSH1 0x20 PUSH2 0x49CE DUP4 CODECOPY DUP2 MLOAD SWAP2 MSTORE CALLER EQ PUSH2 0x303D JUMP JUMPDEST PUSH1 0x1 PUSH1 0x1 PUSH1 0xA0 SHL SUB AND DUP3 MSTORE PUSH1 0xD PUSH1 0x20 MSTORE DUP2 KECCAK256 DUP1 SLOAD PUSH1 0xFF NOT AND PUSH1 0x1 OR SWAP1 SSTORE DUP1 RETURN JUMPDEST SWAP1 POP CALLVALUE PUSH2 0x76E JUMPI PUSH1 0x20 SWAP2 DUP3 PUSH1 0x3 NOT CALLDATASIZE ADD SLT PUSH2 0x733 JUMPI DUP4 PUSH2 0x230F PUSH2 0x2ED9 JUMP JUMPDEST PUSH1 0x1 PUSH1 0x1 PUSH1 0xA0 SHL SUB DUP2 DUP2 AND SWAP6 PUSH1 0xB SWAP1 CALLER DUP9 EQ ISZERO DUP1 PUSH2 0x2442 JUMPI JUMPDEST PUSH2 0x2331 SWAP1 PUSH2 0x313E JUMP JUMPDEST DUP8 PUSH2 0x23DB JUMPI JUMPDEST CALLER DUP6 MSTORE MSTORE DUP4 DUP4 KECCAK256 DUP7 PUSH1 0x1 PUSH1 0x1 PUSH1 0x60 SHL SUB PUSH1 0xA0 SHL DUP3 SLOAD AND OR SWAP1 SSTORE PUSH2 0x2359 CALLER PUSH2 0x31C9 JUMP JUMPDEST DUP5 SLOAD AND DUP1 PUSH2 0x237A JUMPI JUMPDEST DUP3 DUP7 CALLER PUSH1 0x0 DUP1 MLOAD PUSH1 0x20 PUSH2 0x49EE DUP4 CODECOPY DUP2 MLOAD SWAP2 MSTORE DUP4 DUP1 LOG3 DUP1 RETURN JUMPDEST DUP1 EXTCODESIZE ISZERO PUSH2 0x76E JUMPI DUP4 MLOAD PUSH4 0x1AA56D9 PUSH1 0xE1 SHL DUP2 MSTORE CALLER SWAP6 DUP2 ADD SWAP6 DUP7 MSTORE PUSH1 0x1 PUSH1 0x1 PUSH1 0xA0 SHL SUB SWAP1 SWAP3 AND PUSH1 0x20 DUP7 ADD MSTORE SWAP1 SWAP4 DUP5 SWAP2 SWAP1 DUP3 SWAP1 DUP5 SWAP1 DUP3 SWAP1 PUSH1 0x40 ADD SUB SWAP3 GAS CALL SWAP1 DUP2 ISZERO PUSH2 0x1DAE JUMPI POP PUSH2 0x23CC JUMPI JUMPDEST DUP1 DUP4 DUP2 DUP1 PUSH2 0x2362 JUMP JUMPDEST PUSH2 0x23D5 SWAP1 PUSH2 0x30A6 JUMP JUMPDEST CODESIZE PUSH2 0x23C3 JUMP JUMPDEST DUP8 DUP6 MSTORE DUP2 DUP2 MSTORE DUP3 DUP7 DUP7 KECCAK256 SLOAD AND ISZERO DUP1 ISZERO SWAP1 PUSH2 0x242B JUMPI JUMPDEST PUSH2 0x23F9 SWAP1 PUSH2 0x3170 JUMP JUMPDEST DUP8 DUP6 MSTORE DUP2 DUP2 MSTORE PUSH1 0x1 DUP7 DUP7 KECCAK256 ADD PUSH2 0x240F DUP2 SLOAD PUSH2 0x31A4 JUMP JUMPDEST SWAP1 SSTORE DUP8 DUP6 MSTORE DUP2 DUP2 MSTORE PUSH2 0x2425 CALLER DUP9 DUP9 DUP9 KECCAK256 ADD PUSH2 0x322D JUMP JUMPDEST POP PUSH2 0x2337 JUMP JUMPDEST POP PUSH1 0x0 DUP1 MLOAD PUSH1 0x20 PUSH2 0x49CE DUP4 CODECOPY DUP2 MLOAD SWAP2 MSTORE DUP9 EQ PUSH2 0x23F0 JUMP JUMPDEST POP CALLER DUP6 MSTORE DUP2 DUP2 MSTORE DUP6 DUP6 KECCAK256 SLOAD DUP4 AND ISZERO PUSH2 0x2328 JUMP JUMPDEST POP POP CALLVALUE PUSH2 0x443 JUMPI DUP2 PUSH1 0x3 NOT CALLDATASIZE ADD SLT PUSH2 0x443 JUMPI PUSH1 0x20 SWAP1 MLOAD PUSH8 0x4563918244F40000 DUP2 MSTORE RETURN JUMPDEST DUP4 CALLVALUE PUSH2 0x96C JUMPI PUSH1 0x20 CALLDATASIZE PUSH1 0x3 NOT ADD SLT PUSH2 0x96C JUMPI PUSH2 0x2492 PUSH2 0x2ED9 JUMP JUMPDEST PUSH2 0x24AB PUSH1 0x0 DUP1 MLOAD PUSH1 0x20 PUSH2 0x49CE DUP4 CODECOPY DUP2 MLOAD SWAP2 MSTORE CALLER EQ PUSH2 0x303D JUMP JUMPDEST PUSH1 0x1 PUSH1 0x1 PUSH1 0xA0 SHL SUB AND PUSH2 0x24BF DUP2 ISZERO ISZERO PUSH2 0x3072 JUMP JUMPDEST PUSH1 0x1 PUSH1 0x1 PUSH1 0x60 SHL SUB PUSH1 0xA0 SHL PUSH1 0x3 SLOAD AND OR PUSH1 0x3 SSTORE DUP1 RETURN JUMPDEST POP POP CALLVALUE PUSH2 0x443 JUMPI DUP1 PUSH1 0x3 NOT CALLDATASIZE ADD SLT PUSH2 0x443 JUMPI PUSH2 0x24EF PUSH2 0x2ED9 JUMP JUMPDEST SWAP1 PUSH1 0x24 CALLDATALOAD SWAP2 DUP3 ISZERO ISZERO DUP1 SWAP4 SUB PUSH2 0x733 JUMPI PUSH2 0x2517 PUSH1 0x0 DUP1 MLOAD PUSH1 0x20 PUSH2 0x49CE DUP4 CODECOPY DUP2 MLOAD SWAP2 MSTORE CALLER EQ PUSH2 0x303D JUMP JUMPDEST PUSH1 0x1 DUP1 PUSH1 0xA0 SHL SUB AND DUP4 MSTORE PUSH1 0x10 PUSH1 0x20 MSTORE DUP3 KECCAK256 SWAP1 PUSH1 0xFF DUP1 NOT DUP4 SLOAD AND SWAP2 AND OR SWAP1 SSTORE DUP1 RETURN JUMPDEST POP POP CALLVALUE PUSH2 0x443 JUMPI PUSH1 0x2 PUSH1 0xFF SWAP2 PUSH2 0x254D CALLDATASIZE PUSH2 0x2FC2 JUMP JUMPDEST PUSH2 0x2569 PUSH1 0x0 DUP1 MLOAD PUSH1 0x20 PUSH2 0x49CE DUP4 CODECOPY DUP2 MLOAD SWAP2 MSTORE SWAP6 SWAP3 SWAP6 CALLER EQ PUSH2 0x303D JUMP JUMPDEST AND SWAP3 PUSH1 0x1 DUP5 LT ISZERO DUP1 PUSH2 0x25A0 JUMPI JUMPDEST PUSH2 0x257F SWAP1 PUSH2 0x33E3 JUMP JUMPDEST PUSH1 0x1 PUSH1 0x1 PUSH1 0xA0 SHL SUB AND DUP5 MSTORE PUSH1 0xB PUSH1 0x20 MSTORE DUP4 KECCAK256 ADD DUP1 SLOAD PUSH1 0xFF NOT AND SWAP1 SWAP2 OR SWAP1 SSTORE DUP1 RETURN JUMPDEST POP PUSH1 0x6 DUP5 GT ISZERO PUSH2 0x2576 JUMP JUMPDEST POP POP CALLVALUE PUSH2 0x443 JUMPI DUP2 PUSH1 0x3 NOT CALLDATASIZE ADD SLT PUSH2 0x443 JUMPI PUSH1 0x20 SWAP1 PUSH1 0xA SLOAD SWAP1 MLOAD SWAP1 DUP2 MSTORE RETURN JUMPDEST POP POP CALLVALUE PUSH2 0x443 JUMPI DUP2 PUSH1 0x3 NOT CALLDATASIZE ADD SLT PUSH2 0x443 JUMPI PUSH1 0x20 SWAP1 MLOAD PUSH20 0x10ED43C718714EB63D5AA57B78B54704E256024E DUP2 MSTORE RETURN JUMPDEST SWAP1 POP CALLVALUE PUSH2 0x76E JUMPI DUP2 PUSH1 0x3 NOT CALLDATASIZE ADD SLT PUSH2 0x76E JUMPI PUSH2 0x2613 PUSH2 0x2ED9 JUMP JUMPDEST PUSH2 0x261B PUSH2 0x2EEF JUMP JUMPDEST SWAP3 PUSH2 0x2635 PUSH1 0x0 DUP1 MLOAD PUSH1 0x20 PUSH2 0x49CE DUP4 CODECOPY DUP2 MLOAD SWAP2 MSTORE CALLER EQ PUSH2 0x303D JUMP JUMPDEST PUSH1 0x1 DUP1 PUSH1 0xA0 SHL SUB SWAP3 DUP4 DUP4 AND SWAP4 DUP5 DUP8 MSTORE PUSH1 0xB SWAP1 PUSH1 0x20 SWAP5 DUP3 DUP7 MSTORE DUP2 DUP6 DUP11 KECCAK256 SLOAD AND PUSH2 0x277C JUMPI DUP7 DUP10 MSTORE DUP3 DUP7 MSTORE DUP5 DUP10 KECCAK256 DUP1 SLOAD PUSH1 0x1 PUSH1 0x1 PUSH1 0xA0 SHL SUB NOT AND SWAP9 DUP4 AND SWAP9 DUP10 OR SWAP1 SSTORE DUP9 SWAP4 SWAP3 SWAP2 SWAP1 PUSH2 0x2682 SWAP1 PUSH2 0x31C9 JUMP JUMPDEST DUP8 ISZERO ISZERO DUP1 PUSH2 0x2768 JUMPI JUMPDEST PUSH2 0x2736 JUMPI JUMPDEST DUP3 SLOAD AND SWAP5 DUP6 PUSH2 0x26B2 JUMPI JUMPDEST DUP4 DUP9 DUP9 PUSH1 0x0 DUP1 MLOAD PUSH1 0x20 PUSH2 0x49EE DUP4 CODECOPY DUP2 MLOAD SWAP2 MSTORE DUP4 DUP1 LOG3 DUP1 RETURN JUMPDEST DUP7 DUP5 MSTORE MSTORE DUP3 DUP3 KECCAK256 SWAP4 PUSH1 0xFF PUSH1 0x2 PUSH1 0x3 DUP8 ADD SLOAD SWAP7 ADD SLOAD AND SWAP2 DUP2 EXTCODESIZE ISZERO PUSH2 0x733 JUMPI DUP4 PUSH1 0xC4 SWAP3 DUP9 SWAP5 DUP8 MLOAD SWAP9 DUP10 SWAP7 DUP8 SWAP6 PUSH4 0x5C157273 PUSH1 0xE1 SHL DUP8 MSTORE DUP7 ADD MSTORE DUP12 PUSH1 0x24 DUP7 ADD MSTORE PUSH1 0x44 DUP6 ADD MSTORE DUP3 PUSH1 0x64 DUP6 ADD MSTORE PUSH1 0x84 DUP5 ADD MSTORE DUP2 PUSH1 0xA4 DUP5 ADD MSTORE GAS CALL SWAP1 DUP2 ISZERO PUSH2 0x272D JUMPI POP PUSH2 0x271E JUMPI JUMPDEST DUP1 DUP5 DUP2 DUP1 DUP1 PUSH2 0x269A JUMP JUMPDEST PUSH2 0x2727 SWAP1 PUSH2 0x30A6 JUMP JUMPDEST CODESIZE PUSH2 0x2714 JUMP JUMPDEST MLOAD RETURNDATASIZE DUP7 DUP3 RETURNDATACOPY RETURNDATASIZE SWAP1 REVERT JUMPDEST DUP8 DUP5 MSTORE DUP2 DUP7 MSTORE PUSH1 0x1 DUP6 DUP6 KECCAK256 ADD PUSH2 0x274C DUP2 SLOAD PUSH2 0x31A4 JUMP JUMPDEST SWAP1 SSTORE DUP8 DUP5 MSTORE DUP2 DUP7 MSTORE PUSH2 0x2762 DUP8 DUP5 DUP8 DUP8 KECCAK256 ADD PUSH2 0x322D JUMP JUMPDEST POP PUSH2 0x2690 JUMP JUMPDEST POP DUP8 DUP5 MSTORE DUP2 DUP7 MSTORE DUP1 DUP6 DUP6 KECCAK256 SLOAD AND ISZERO ISZERO PUSH2 0x268B JUMP JUMPDEST DUP5 MLOAD PUSH3 0x461BCD PUSH1 0xE5 SHL DUP2 MSTORE DUP1 DUP6 ADD DUP8 SWAP1 MSTORE PUSH1 0x7 PUSH1 0x24 DUP3 ADD MSTORE PUSH7 0x616C7265616479 PUSH1 0xC8 SHL PUSH1 0x44 DUP3 ADD MSTORE PUSH1 0x64 SWAP1 REVERT JUMPDEST POP POP CALLVALUE PUSH2 0x443 JUMPI DUP2 PUSH1 0x3 NOT CALLDATASIZE ADD SLT PUSH2 0x443 JUMPI PUSH1 0x20 SWAP1 MLOAD PUSH13 0x1431E0FAE6D7217CAA0000000 DUP2 MSTORE RETURN JUMPDEST SWAP3 SWAP2 POP CALLVALUE PUSH2 0x893 JUMPI PUSH1 0x20 CALLDATASIZE PUSH1 0x3 NOT ADD SLT PUSH2 0x893 JUMPI PUSH2 0x27ED PUSH2 0x34BF JUMP JUMPDEST DUP1 SLOAD PUSH1 0x1 PUSH1 0x1 PUSH1 0xA0 SHL SUB AND SWAP1 PUSH2 0x2804 DUP3 ISZERO ISZERO PUSH2 0x3B57 JUMP JUMPDEST DUP2 EXTCODESIZE ISZERO PUSH2 0x88E JUMPI DUP3 MLOAD PUSH4 0xF3FEF3A3 PUSH1 0xE0 SHL DUP2 MSTORE CALLER DUP2 DUP4 ADD SWAP1 DUP2 MSTORE SWAP2 CALLDATALOAD PUSH1 0x20 DUP4 ADD MSTORE SWAP4 SWAP2 DUP5 SWAP2 DUP3 SWAP1 DUP5 SWAP1 DUP3 SWAP1 PUSH1 0x40 ADD PUSH2 0x1909 JUMP JUMPDEST SWAP3 SWAP2 POP CALLVALUE PUSH2 0x893 JUMPI DUP3 PUSH1 0x3 NOT CALLDATASIZE ADD SLT PUSH2 0x893 JUMPI PUSH2 0x2852 PUSH2 0x34BF JUMP JUMPDEST DUP1 SLOAD PUSH1 0x1 PUSH1 0x1 PUSH1 0xA0 SHL SUB AND DUP1 PUSH2 0x286A JUMPI DUP4 PUSH1 0x1 DUP2 SSTORE DUP1 RETURN JUMPDEST DUP1 EXTCODESIZE ISZERO PUSH2 0x88E JUMPI PUSH1 0x24 DUP5 SWAP3 DUP5 MLOAD SWAP6 DUP7 SWAP4 DUP5 SWAP3 PUSH4 0xC1226893 PUSH1 0xE0 SHL DUP5 MSTORE CALLER SWAP1 DUP5 ADD MSTORE GAS CALL SWAP1 DUP2 ISZERO PUSH2 0x885 JUMPI POP PUSH2 0x876 JUMPI DUP1 DUP1 DUP4 SWAP3 PUSH2 0x825 JUMP JUMPDEST POP POP CALLVALUE PUSH2 0x443 JUMPI DUP2 PUSH1 0x3 NOT CALLDATASIZE ADD SLT PUSH2 0x443 JUMPI PUSH1 0x20 SWAP1 MLOAD PUSH20 0x1850933C0D64DB3A56476F5BDC4191BCFD242E30 DUP2 MSTORE RETURN JUMPDEST POP POP CALLVALUE PUSH2 0x443 JUMPI DUP2 PUSH1 0x3 NOT CALLDATASIZE ADD SLT PUSH2 0x443 JUMPI PUSH1 0x20 SWAP1 MLOAD PUSH1 0x8 DUP2 MSTORE RETURN JUMPDEST SWAP3 SWAP2 POP CALLVALUE PUSH2 0x893 JUMPI PUSH1 0x20 CALLDATASIZE PUSH1 0x3 NOT ADD SLT PUSH2 0x893 JUMPI PUSH2 0x2909 PUSH2 0x34BF JUMP JUMPDEST DUP1 SLOAD PUSH1 0x1 PUSH1 0x1 PUSH1 0xA0 SHL SUB AND SWAP1 DUP2 PUSH2 0x2922 JUMPI DUP4 PUSH1 0x1 DUP2 SSTORE DUP1 RETURN JUMPDEST DUP2 EXTCODESIZE ISZERO PUSH2 0x88E JUMPI DUP3 MLOAD PUSH4 0x6153397 PUSH1 0xE5 SHL DUP2 MSTORE CALLER DUP2 DUP4 ADD SWAP1 DUP2 MSTORE SWAP2 CALLDATALOAD PUSH1 0x20 DUP4 ADD MSTORE SWAP4 SWAP2 DUP5 SWAP2 DUP3 SWAP1 DUP5 SWAP1 DUP3 SWAP1 PUSH1 0x40 ADD PUSH2 0x85C JUMP JUMPDEST POP POP CALLVALUE PUSH2 0x443 JUMPI DUP2 PUSH1 0x3 NOT CALLDATASIZE ADD SLT PUSH2 0x443 JUMPI PUSH1 0x20 SWAP1 MLOAD PUSH1 0x3 DUP2 MSTORE RETURN JUMPDEST POP POP CALLVALUE PUSH2 0x443 JUMPI PUSH1 0x20 CALLDATASIZE PUSH1 0x3 NOT ADD SLT PUSH2 0x443 JUMPI PUSH1 0x20 SWAP2 PUSH1 0xFF SWAP1 DUP3 SWAP1 PUSH1 0x1 PUSH1 0x1 PUSH1 0xA0 SHL SUB PUSH2 0x299C PUSH2 0x2ED9 JUMP JUMPDEST AND DUP2 MSTORE PUSH1 0x10 DUP6 MSTORE KECCAK256 SLOAD AND SWAP1 MLOAD SWAP1 ISZERO ISZERO DUP2 MSTORE RETURN JUMPDEST SWAP1 POP CALLVALUE PUSH2 0x76E JUMPI DUP3 PUSH1 0x3 NOT CALLDATASIZE ADD SLT PUSH2 0x76E JUMPI SLOAD SWAP1 MLOAD PUSH1 0x1 PUSH1 0x1 PUSH1 0xA0 SHL SUB SWAP1 SWAP2 AND DUP2 MSTORE PUSH1 0x20 SWAP2 POP RETURN JUMPDEST DUP4 DUP4 CALLVALUE PUSH2 0x443 JUMPI PUSH1 0x20 CALLDATASIZE PUSH1 0x3 NOT ADD SLT PUSH2 0x443 JUMPI PUSH1 0x0 DUP1 MLOAD PUSH1 0x20 PUSH2 0x49CE DUP4 CODECOPY DUP2 MLOAD SWAP2 MSTORE SWAP1 PUSH2 0x2A05 DUP3 CALLER EQ PUSH2 0x303D JUMP JUMPDEST DUP1 MLOAD SWAP2 PUSH4 0xA9059CBB PUSH1 0xE0 SHL PUSH1 0x20 DUP5 ADD MSTORE PUSH1 0x24 DUP4 ADD MSTORE DUP4 CALLDATALOAD PUSH1 0x44 DUP4 ADD MSTORE PUSH1 0x44 DUP3 MSTORE PUSH1 0x80 DUP3 ADD SWAP1 DUP3 DUP3 LT PUSH8 0xFFFFFFFFFFFFFFFF DUP4 GT OR PUSH2 0x2A49 JUMPI PUSH2 0xA36 SWAP4 SWAP5 POP MSTORE PUSH2 0x357E JUMP JUMPDEST PUSH4 0x4E487B71 PUSH1 0xE0 SHL DUP5 MSTORE PUSH1 0x41 DUP6 MSTORE PUSH1 0x24 DUP5 REVERT JUMPDEST SWAP1 POP CALLVALUE PUSH2 0x76E JUMPI PUSH2 0x2A6C CALLDATASIZE PUSH2 0x2F36 JUMP JUMPDEST PUSH2 0x2A8A PUSH1 0x0 DUP1 MLOAD PUSH1 0x20 PUSH2 0x49CE DUP4 CODECOPY DUP2 MLOAD SWAP2 MSTORE SWAP7 SWAP5 SWAP3 SWAP4 SWAP7 CALLER EQ PUSH2 0x303D JUMP JUMPDEST PUSH2 0x2A95 DUP2 DUP8 EQ PUSH2 0x344E JUMP JUMPDEST DUP7 JUMPDEST DUP7 DUP2 LT PUSH2 0x2AA2 JUMPI DUP8 DUP1 RETURN JUMPDEST PUSH2 0x2AC4 PUSH1 0x8 PUSH1 0xFF PUSH2 0x2ABC PUSH2 0x2AB7 DUP6 DUP8 DUP11 PUSH2 0x3480 JUMP JUMPDEST PUSH2 0x34A4 JUMP JUMPDEST AND GT ISZERO PUSH2 0x3418 JUMP JUMPDEST DUP6 SLOAD PUSH1 0x1 PUSH1 0x1 PUSH1 0xA0 SHL SUB AND DUP1 PUSH2 0x2AE4 JUMPI JUMPDEST POP PUSH2 0x2ADF SWAP1 PUSH2 0x31A4 JUMP JUMPDEST PUSH2 0x2A97 JUMP JUMPDEST DUP9 PUSH2 0x2AF3 PUSH2 0xD95 DUP5 DUP12 DUP9 PUSH2 0x3480 JUMP JUMPDEST SWAP2 PUSH2 0x2B02 PUSH2 0x2AB7 DUP6 DUP8 DUP11 PUSH2 0x3480 JUMP JUMPDEST SWAP1 DUP1 EXTCODESIZE ISZERO PUSH2 0x76E JUMPI DUP9 MLOAD PUSH4 0xC3E98E61 PUSH1 0xE0 SHL DUP2 MSTORE PUSH1 0x1 PUSH1 0x1 PUSH1 0xA0 SHL SUB SWAP1 SWAP5 AND DUP5 DUP12 ADD SWAP1 DUP2 MSTORE PUSH1 0xFF SWAP1 SWAP3 AND PUSH1 0x20 DUP4 ADD MSTORE DUP4 SWAP2 DUP3 SWAP1 DUP5 SWAP1 DUP3 SWAP1 PUSH1 0x40 ADD SUB SWAP3 GAS CALL DUP1 ISZERO PUSH2 0x2B67 JUMPI SWAP1 PUSH2 0x2ADF SWAP3 SWAP2 PUSH2 0x2B58 JUMPI JUMPDEST POP SWAP1 PUSH2 0x2AD5 JUMP JUMPDEST PUSH2 0x2B61 SWAP1 PUSH2 0x30A6 JUMP JUMPDEST CODESIZE PUSH2 0x2B51 JUMP JUMPDEST DUP7 MLOAD RETURNDATASIZE DUP12 DUP3 RETURNDATACOPY RETURNDATASIZE SWAP1 REVERT JUMPDEST POP POP CALLVALUE PUSH2 0x443 JUMPI PUSH2 0x2B81 CALLDATASIZE PUSH2 0x2F36 JUMP JUMPDEST SWAP4 SWAP1 SWAP2 SWAP3 PUSH2 0x2B9E PUSH1 0x0 DUP1 MLOAD PUSH1 0x20 PUSH2 0x49CE DUP4 CODECOPY DUP2 MLOAD SWAP2 MSTORE CALLER EQ PUSH2 0x303D JUMP JUMPDEST PUSH2 0x2BA9 DUP6 DUP6 EQ PUSH2 0x344E JUMP JUMPDEST DUP6 JUMPDEST DUP5 DUP2 LT PUSH2 0x2BB6 JUMPI DUP7 DUP1 RETURN JUMPDEST PUSH2 0x2C22 SWAP1 PUSH1 0xFF PUSH1 0x1 DUP2 PUSH2 0x2BCD PUSH2 0x2AB7 DUP6 DUP13 DUP12 PUSH2 0x3480 JUMP JUMPDEST AND LT ISZERO DUP1 PUSH2 0x2C27 JUMPI JUMPDEST PUSH2 0x2BDF SWAP1 PUSH2 0x33E3 JUMP JUMPDEST PUSH2 0x2BED PUSH2 0x2AB7 DUP4 DUP11 DUP10 PUSH2 0x3480 JUMP JUMPDEST SWAP1 PUSH1 0x1 PUSH1 0x1 PUSH1 0xA0 SHL SUB PUSH2 0x2C04 PUSH2 0xD95 DUP6 DUP12 DUP10 PUSH2 0x3480 JUMP JUMPDEST AND DUP11 MSTORE PUSH1 0xB PUSH1 0x20 MSTORE PUSH1 0x2 DUP7 DUP12 KECCAK256 ADD SWAP2 AND PUSH1 0xFF NOT DUP3 SLOAD AND OR SWAP1 SSTORE PUSH2 0x31A4 JUMP JUMPDEST PUSH2 0x2BAB JUMP JUMPDEST POP PUSH2 0x2BDF PUSH1 0x6 DUP3 PUSH2 0x2C3C PUSH2 0x2AB7 DUP7 DUP14 DUP13 PUSH2 0x3480 JUMP JUMPDEST AND GT ISZERO SWAP1 POP PUSH2 0x2BD6 JUMP JUMPDEST POP POP CALLVALUE PUSH2 0x443 JUMPI DUP2 PUSH1 0x3 NOT CALLDATASIZE ADD SLT PUSH2 0x443 JUMPI PUSH1 0x20 SWAP1 MLOAD PUSH1 0x0 DUP1 MLOAD PUSH1 0x20 PUSH2 0x49CE DUP4 CODECOPY DUP2 MLOAD SWAP2 MSTORE DUP2 MSTORE RETURN JUMPDEST SWAP2 SWAP1 POP CALLVALUE PUSH2 0x76E JUMPI PUSH2 0x2C80 CALLDATASIZE PUSH2 0x2F36 JUMP JUMPDEST PUSH1 0x0 DUP1 MLOAD PUSH1 0x20 PUSH2 0x49CE DUP4 CODECOPY DUP2 MLOAD SWAP2 MSTORE SWAP6 SWAP4 SWAP5 SWAP3 SWAP2 PUSH2 0x2C9F DUP8 CALLER EQ PUSH2 0x303D JUMP JUMPDEST PUSH2 0x2CAA DUP3 DUP5 EQ PUSH2 0x344E JUMP JUMPDEST DUP8 JUMPDEST DUP4 DUP2 LT PUSH2 0x2CB7 JUMPI DUP9 DUP1 RETURN JUMPDEST PUSH1 0x1 PUSH1 0x1 PUSH1 0xA0 SHL SUB DUP1 PUSH2 0x2CCE PUSH2 0xD95 DUP5 DUP9 DUP13 PUSH2 0x3480 JUMP JUMPDEST AND DUP11 MSTORE PUSH1 0xB PUSH1 0x20 DUP2 DUP2 MSTORE DUP11 DUP13 DUP9 DUP6 DUP14 DUP13 DUP10 DUP4 DUP3 DUP8 KECCAK256 SLOAD AND ISZERO PUSH2 0x2E03 JUMPI JUMPDEST POP POP POP POP POP SWAP1 POP PUSH1 0xFF SWAP4 PUSH1 0x1 DUP6 PUSH2 0x2D06 PUSH2 0x2AB7 DUP10 DUP13 DUP13 PUSH2 0x3480 JUMP JUMPDEST AND LT ISZERO DUP1 PUSH2 0x2DE9 JUMPI JUMPDEST PUSH2 0x2D27 JUMPI JUMPDEST POP POP POP POP POP PUSH2 0x2D22 SWAP1 PUSH2 0x31A4 JUMP JUMPDEST PUSH2 0x2CAC JUMP JUMPDEST DUP12 PUSH2 0x2D3B PUSH2 0xD95 DUP9 DUP13 DUP6 PUSH1 0x3 SLOAD AND SWAP5 PUSH2 0x3480 JUMP JUMPDEST PUSH2 0x2D49 PUSH2 0x2AB7 DUP10 DUP13 DUP13 PUSH2 0x3480 JUMP JUMPDEST DUP3 EXTCODESIZE ISZERO PUSH2 0x7AE JUMPI DUP13 MLOAD PUSH4 0x1AA15771 PUSH1 0xE1 SHL DUP2 MSTORE SWAP2 DUP5 AND DUP3 DUP16 ADD MSTORE DUP8 AND PUSH1 0x24 DUP3 ADD MSTORE SWAP1 DUP4 SWAP1 DUP3 SWAP1 PUSH1 0x44 SWAP1 DUP3 SWAP1 DUP5 SWAP1 GAS CALL DUP1 ISZERO PUSH2 0x2DDF JUMPI SWAP2 PUSH2 0x2DB1 PUSH2 0xD95 DUP16 SWAP8 SWAP6 SWAP4 SWAP10 DUP14 PUSH2 0x2DAB PUSH2 0x2AB7 DUP16 DUP16 SWAP1 PUSH2 0x2D22 SWAP16 SWAP2 DUP7 SWAP16 SWAP14 SWAP12 SWAP3 DUP8 SWAP4 PUSH2 0x2DD0 JUMPI JUMPDEST POP PUSH2 0x3480 JUMP JUMPDEST SWAP10 PUSH2 0x3480 JUMP JUMPDEST AND SWAP1 MSTORE MSTORE PUSH1 0x2 DUP9 DUP14 KECCAK256 ADD SWAP2 AND PUSH1 0xFF NOT DUP3 SLOAD AND OR SWAP1 SSTORE SWAP1 CODESIZE DUP1 DUP12 DUP2 PUSH2 0x2D14 JUMP JUMPDEST PUSH2 0x2DD9 SWAP1 PUSH2 0x30A6 JUMP JUMPDEST CODESIZE PUSH2 0x2DA5 JUMP JUMPDEST DUP12 MLOAD RETURNDATASIZE DUP6 DUP3 RETURNDATACOPY RETURNDATASIZE SWAP1 REVERT JUMPDEST POP PUSH1 0x3 DUP6 PUSH2 0x2DFB PUSH2 0x2AB7 DUP10 DUP13 DUP13 PUSH2 0x3480 JUMP JUMPDEST AND GT ISZERO PUSH2 0x2D0F JUMP JUMPDEST DUP5 DUP4 PUSH2 0xD95 SWAP4 DUP7 PUSH2 0x2E2A PUSH2 0xD95 DUP7 PUSH1 0x0 DUP1 MLOAD PUSH1 0x20 PUSH2 0x49EE DUP4 CODECOPY DUP2 MLOAD SWAP2 MSTORE SWAP12 PUSH2 0x2E58 SWAP11 PUSH2 0x3480 JUMP JUMPDEST AND DUP10 MSTORE DUP12 DUP12 MSTORE DUP9 KECCAK256 DUP1 SLOAD PUSH1 0x1 PUSH1 0x1 PUSH1 0xA0 SHL SUB NOT AND DUP11 OR SWAP1 SSTORE PUSH2 0x2E53 PUSH2 0xDF9 PUSH2 0xD95 DUP6 DUP6 DUP6 PUSH2 0x3480 JUMP JUMPDEST PUSH2 0x3480 JUMP JUMPDEST AND SWAP2 DUP1 LOG3 DUP11 DUP13 DUP9 DUP6 DUP14 DUP13 DUP10 PUSH2 0x2CEB JUMP JUMPDEST POP POP CALLVALUE PUSH2 0x443 JUMPI PUSH1 0x20 CALLDATASIZE PUSH1 0x3 NOT ADD SLT PUSH2 0x443 JUMPI PUSH1 0x20 SWAP1 PUSH2 0x1086 PUSH2 0x2E89 PUSH2 0x2ED9 JUMP JUMPDEST PUSH2 0x4945 JUMP JUMPDEST POP POP CALLVALUE PUSH2 0x443 JUMPI DUP2 PUSH1 0x3 NOT CALLDATASIZE ADD SLT PUSH2 0x443 JUMPI PUSH1 0x20 SWAP1 MLOAD PUSH20 0x570A5D26F7765ECB712C0924E4DE545B89FD43DF DUP2 MSTORE RETURN JUMPDEST DUP5 SWAP1 CALLVALUE PUSH2 0x443 JUMPI DUP2 PUSH1 0x3 NOT CALLDATASIZE ADD SLT PUSH2 0x443 JUMPI PUSH1 0x20 SWAP1 PUSH1 0x5 SLOAD DUP2 MSTORE RETURN JUMPDEST PUSH1 0x4 CALLDATALOAD SWAP1 PUSH1 0x1 PUSH1 0x1 PUSH1 0xA0 SHL SUB DUP3 AND DUP3 SUB PUSH2 0x402 JUMPI JUMP JUMPDEST PUSH1 0x24 CALLDATALOAD SWAP1 PUSH1 0x1 PUSH1 0x1 PUSH1 0xA0 SHL SUB DUP3 AND DUP3 SUB PUSH2 0x402 JUMPI JUMP JUMPDEST SWAP2 DUP2 PUSH1 0x1F DUP5 ADD SLT ISZERO PUSH2 0x402 JUMPI DUP3 CALLDATALOAD SWAP2 PUSH8 0xFFFFFFFFFFFFFFFF DUP4 GT PUSH2 0x402 JUMPI PUSH1 0x20 DUP1 DUP6 ADD SWAP5 DUP5 PUSH1 0x5 SHL ADD ADD GT PUSH2 0x402 JUMPI JUMP JUMPDEST PUSH1 0x40 PUSH1 0x3 NOT DUP3 ADD SLT PUSH2 0x402 JUMPI PUSH8 0xFFFFFFFFFFFFFFFF SWAP2 PUSH1 0x4 CALLDATALOAD DUP4 DUP2 GT PUSH2 0x402 JUMPI DUP3 PUSH2 0x2F63 SWAP2 PUSH1 0x4 ADD PUSH2 0x2F05 JUMP JUMPDEST SWAP4 SWAP1 SWAP4 SWAP3 PUSH1 0x24 CALLDATALOAD SWAP2 DUP3 GT PUSH2 0x402 JUMPI PUSH2 0x2F7D SWAP2 PUSH1 0x4 ADD PUSH2 0x2F05 JUMP JUMPDEST SWAP1 SWAP2 JUMP JUMPDEST POP CALLVALUE PUSH2 0x402 JUMPI PUSH1 0x0 CALLDATASIZE PUSH1 0x3 NOT ADD SLT PUSH2 0x402 JUMPI PUSH1 0x20 PUSH1 0x40 MLOAD PUSH1 0x1E DUP2 MSTORE RETURN JUMPDEST POP CALLVALUE PUSH2 0x402 JUMPI PUSH1 0x0 CALLDATASIZE PUSH1 0x3 NOT ADD SLT PUSH2 0x402 JUMPI PUSH1 0x20 PUSH1 0x40 MLOAD PUSH8 0xDE0B6B3A7640000 DUP2 MSTORE RETURN JUMPDEST PUSH1 0x40 SWAP1 PUSH1 0x3 NOT ADD SLT PUSH2 0x402 JUMPI PUSH1 0x4 CALLDATALOAD PUSH1 0x1 PUSH1 0x1 PUSH1 0xA0 SHL SUB DUP2 AND DUP2 SUB PUSH2 0x402 JUMPI SWAP1 PUSH1 0x24 CALLDATALOAD PUSH1 0xFF DUP2 AND DUP2 SUB PUSH2 0x402 JUMPI SWAP1 JUMP JUMPDEST POP CALLVALUE PUSH2 0x402 JUMPI PUSH1 0x0 CALLDATASIZE PUSH1 0x3 NOT ADD SLT PUSH2 0x402 JUMPI PUSH1 0x20 PUSH1 0x40 MLOAD PUSH1 0xA DUP2 MSTORE RETURN JUMPDEST DUP1 SLOAD DUP3 LT ISZERO PUSH2 0x3027 JUMPI PUSH1 0x0 MSTORE PUSH1 0x20 PUSH1 0x0 KECCAK256 ADD SWAP1 PUSH1 0x0 SWAP1 JUMP JUMPDEST PUSH4 0x4E487B71 PUSH1 0xE0 SHL PUSH1 0x0 MSTORE PUSH1 0x32 PUSH1 0x4 MSTORE PUSH1 0x24 PUSH1 0x0 REVERT JUMPDEST ISZERO PUSH2 0x3044 JUMPI JUMP JUMPDEST PUSH1 0x40 MLOAD PUSH3 0x461BCD PUSH1 0xE5 SHL DUP2 MSTORE PUSH1 0x20 PUSH1 0x4 DUP3 ADD MSTORE PUSH1 0x6 PUSH1 0x24 DUP3 ADD MSTORE PUSH6 0x10B7BBB732B9 PUSH1 0xD1 SHL PUSH1 0x44 DUP3 ADD MSTORE PUSH1 0x64 SWAP1 REVERT JUMPDEST ISZERO PUSH2 0x3079 JUMPI JUMP JUMPDEST PUSH1 0x40 MLOAD PUSH3 0x461BCD PUSH1 0xE5 SHL DUP2 MSTORE PUSH1 0x20 PUSH1 0x4 DUP3 ADD MSTORE PUSH1 0x5 PUSH1 0x24 DUP3 ADD MSTORE PUSH5 0x10B0B23239 PUSH1 0xD9 SHL PUSH1 0x44 DUP3 ADD MSTORE PUSH1 0x64 SWAP1 REVERT JUMPDEST PUSH8 0xFFFFFFFFFFFFFFFF DUP2 GT PUSH2 0x30BA JUMPI PUSH1 0x40 MSTORE JUMP JUMPDEST PUSH4 0x4E487B71 PUSH1 0xE0 SHL PUSH1 0x0 MSTORE PUSH1 0x41 PUSH1 0x4 MSTORE PUSH1 0x24 PUSH1 0x0 REVERT JUMPDEST PUSH1 0x60 DUP2 ADD SWAP1 DUP2 LT PUSH8 0xFFFFFFFFFFFFFFFF DUP3 GT OR PUSH2 0x30BA JUMPI PUSH1 0x40 MSTORE JUMP JUMPDEST SWAP1 PUSH1 0x1F DUP1 NOT SWAP2 ADD AND DUP2 ADD SWAP1 DUP2 LT PUSH8 0xFFFFFFFFFFFFFFFF DUP3 GT OR PUSH2 0x30BA JUMPI PUSH1 0x40 MSTORE JUMP JUMPDEST ISZERO PUSH2 0x3115 JUMPI JUMP JUMPDEST PUSH1 0x40 MLOAD PUSH3 0x461BCD PUSH1 0xE5 SHL DUP2 MSTORE PUSH1 0x20 PUSH1 0x4 DUP3 ADD MSTORE PUSH1 0x1 PUSH1 0x24 DUP3 ADD MSTORE PUSH1 0x21 PUSH1 0xF8 SHL PUSH1 0x44 DUP3 ADD MSTORE PUSH1 0x64 SWAP1 REVERT JUMPDEST ISZERO PUSH2 0x3145 JUMPI JUMP JUMPDEST PUSH1 0x64 PUSH1 0x40 MLOAD PUSH3 0x461BCD PUSH1 0xE5 SHL DUP2 MSTORE PUSH1 0x20 PUSH1 0x4 DUP3 ADD MSTORE PUSH1 0x4 PUSH1 0x24 DUP3 ADD MSTORE PUSH4 0x10B4B73B PUSH1 0xE1 SHL PUSH1 0x44 DUP3 ADD MSTORE REVERT JUMPDEST ISZERO PUSH2 0x3177 JUMPI JUMP JUMPDEST PUSH1 0x40 MLOAD PUSH3 0x461BCD PUSH1 0xE5 SHL DUP2 MSTORE PUSH1 0x20 PUSH1 0x4 DUP3 ADD MSTORE PUSH1 0x5 PUSH1 0x24 DUP3 ADD MSTORE PUSH5 0x10B93932B3 PUSH1 0xD9 SHL PUSH1 0x44 DUP3 ADD MSTORE PUSH1 0x64 SWAP1 REVERT JUMPDEST PUSH1 0x0 NOT DUP2 EQ PUSH2 0x31B3 JUMPI PUSH1 0x1 ADD SWAP1 JUMP JUMPDEST PUSH4 0x4E487B71 PUSH1 0xE0 SHL PUSH1 0x0 MSTORE PUSH1 0x11 PUSH1 0x4 MSTORE PUSH1 0x24 PUSH1 0x0 REVERT JUMPDEST PUSH1 0xC SLOAD PUSH1 0x1 PUSH1 0x40 SHL DUP2 LT ISZERO PUSH2 0x30BA JUMPI PUSH1 0x1 DUP2 ADD DUP1 PUSH1 0xC SSTORE DUP2 LT ISZERO PUSH2 0x3027 JUMPI PUSH1 0xC PUSH1 0x0 MSTORE PUSH32 0xDF6966C971051C3D54EC59162606531493A51404A002842F56009D7E5CF4A8C7 ADD DUP1 SLOAD PUSH1 0x1 PUSH1 0x1 PUSH1 0xA0 SHL SUB NOT AND PUSH1 0x1 PUSH1 0x1 PUSH1 0xA0 SHL SUB SWAP1 SWAP3 AND SWAP2 SWAP1 SWAP2 OR SWAP1 SSTORE JUMP JUMPDEST SWAP2 SWAP1 PUSH1 0x1 DUP4 ADD PUSH1 0x0 SWAP1 DUP3 DUP3 MSTORE DUP1 PUSH1 0x20 MSTORE PUSH1 0x40 DUP3 KECCAK256 SLOAD ISZERO PUSH1 0x0 EQ PUSH2 0x32AE JUMPI DUP5 SLOAD SWAP5 PUSH1 0x1 PUSH1 0x40 SHL DUP7 LT ISZERO PUSH2 0x329A JUMPI DUP4 PUSH2 0x328A PUSH2 0x3271 DUP9 PUSH1 0x1 PUSH1 0x40 SWAP9 SWAP10 SWAP11 ADD DUP6 SSTORE DUP5 PUSH2 0x300F JUMP JUMPDEST DUP2 SWAP4 SWAP2 SLOAD SWAP1 PUSH1 0x3 SHL PUSH1 0x0 NOT DUP2 SHL SWAP3 DUP4 SWAP2 SHL AND SWAP2 NOT AND OR SWAP1 JUMP JUMPDEST SWAP1 SSTORE SLOAD SWAP4 DUP3 MSTORE PUSH1 0x20 MSTORE KECCAK256 SSTORE PUSH1 0x1 SWAP1 JUMP JUMPDEST PUSH4 0x4E487B71 PUSH1 0xE0 SHL DUP4 MSTORE PUSH1 0x41 PUSH1 0x4 MSTORE PUSH1 0x24 DUP4 REVERT JUMPDEST POP SWAP3 POP POP JUMP JUMPDEST ISZERO PUSH2 0x32BB JUMPI JUMP JUMPDEST PUSH1 0x64 PUSH1 0x40 MLOAD PUSH3 0x461BCD PUSH1 0xE5 SHL DUP2 MSTORE PUSH1 0x20 PUSH1 0x4 DUP3 ADD MSTORE PUSH1 0x4 PUSH1 0x24 DUP3 ADD MSTORE PUSH4 0x21726567 PUSH1 0xE0 SHL PUSH1 0x44 DUP3 ADD MSTORE REVERT JUMPDEST SWAP2 SWAP1 DUP3 SUB SWAP2 DUP3 GT PUSH2 0x31B3 JUMPI JUMP JUMPDEST SWAP1 PUSH1 0x1 DUP3 ADD SWAP1 PUSH1 0x0 SWAP3 DUP2 DUP5 MSTORE DUP3 PUSH1 0x20 MSTORE PUSH1 0x40 DUP5 KECCAK256 SLOAD SWAP1 DUP2 ISZERO ISZERO PUSH1 0x0 EQ PUSH2 0x33DC JUMPI PUSH1 0x0 NOT SWAP2 DUP1 DUP4 ADD DUP2 DUP2 GT PUSH2 0x33C8 JUMPI DUP3 SLOAD SWAP1 DUP5 DUP3 ADD SWAP2 DUP3 GT PUSH2 0x33B4 JUMPI DUP1 DUP3 SUB PUSH2 0x337F JUMPI JUMPDEST POP POP POP DUP1 SLOAD DUP1 ISZERO PUSH2 0x336B JUMPI DUP3 ADD SWAP2 PUSH2 0x334E DUP4 DUP4 PUSH2 0x300F JUMP JUMPDEST SWAP1 SWAP2 DUP3 SLOAD SWAP2 PUSH1 0x3 SHL SHL NOT AND SWAP1 SSTORE SSTORE DUP3 MSTORE PUSH1 0x20 MSTORE PUSH1 0x40 DUP2 KECCAK256 SSTORE PUSH1 0x1 SWAP1 JUMP JUMPDEST PUSH4 0x4E487B71 PUSH1 0xE0 SHL DUP7 MSTORE PUSH1 0x31 PUSH1 0x4 MSTORE PUSH1 0x24 DUP7 REVERT JUMPDEST PUSH2 0x339F PUSH2 0x338F PUSH2 0x3271 SWAP4 DUP7 PUSH2 0x300F JUMP JUMPDEST SWAP1 SLOAD SWAP1 PUSH1 0x3 SHL SHR SWAP3 DUP4 SWAP3 DUP7 PUSH2 0x300F JUMP JUMPDEST SWAP1 SSTORE DUP7 MSTORE DUP5 PUSH1 0x20 MSTORE PUSH1 0x40 DUP7 KECCAK256 SSTORE CODESIZE DUP1 DUP1 PUSH2 0x3336 JUMP JUMPDEST PUSH4 0x4E487B71 PUSH1 0xE0 SHL DUP9 MSTORE PUSH1 0x11 PUSH1 0x4 MSTORE PUSH1 0x24 DUP9 REVERT JUMPDEST PUSH4 0x4E487B71 PUSH1 0xE0 SHL DUP8 MSTORE PUSH1 0x11 PUSH1 0x4 MSTORE PUSH1 0x24 DUP8 REVERT JUMPDEST POP POP POP POP SWAP1 JUMP JUMPDEST ISZERO PUSH2 0x33EA JUMPI JUMP JUMPDEST PUSH1 0x40 MLOAD PUSH3 0x461BCD PUSH1 0xE5 SHL DUP2 MSTORE PUSH1 0x20 PUSH1 0x4 DUP3 ADD MSTORE PUSH1 0x6 PUSH1 0x24 DUP3 ADD MSTORE PUSH6 0x85B195D995B PUSH1 0xD2 SHL PUSH1 0x44 DUP3 ADD MSTORE PUSH1 0x64 SWAP1 REVERT JUMPDEST ISZERO PUSH2 0x341F JUMPI JUMP JUMPDEST PUSH1 0x40 MLOAD PUSH3 0x461BCD PUSH1 0xE5 SHL DUP2 MSTORE PUSH1 0x20 PUSH1 0x4 DUP3 ADD MSTORE PUSH1 0x7 PUSH1 0x24 DUP3 ADD MSTORE PUSH7 0x8511B195D995B PUSH1 0xCA SHL PUSH1 0x44 DUP3 ADD MSTORE PUSH1 0x64 SWAP1 REVERT JUMPDEST ISZERO PUSH2 0x3455 JUMPI JUMP JUMPDEST PUSH1 0x64 PUSH1 0x40 MLOAD PUSH3 0x461BCD PUSH1 0xE5 SHL DUP2 MSTORE PUSH1 0x20 PUSH1 0x4 DUP3 ADD MSTORE PUSH1 0x4 PUSH1 0x24 DUP3 ADD MSTORE PUSH4 0x10B632B7 PUSH1 0xE1 SHL PUSH1 0x44 DUP3 ADD MSTORE REVERT JUMPDEST SWAP2 SWAP1 DUP2 LT ISZERO PUSH2 0x3027 JUMPI PUSH1 0x5 SHL ADD SWAP1 JUMP JUMPDEST CALLDATALOAD PUSH1 0x1 PUSH1 0x1 PUSH1 0xA0 SHL SUB DUP2 AND DUP2 SUB PUSH2 0x402 JUMPI SWAP1 JUMP JUMPDEST CALLDATALOAD PUSH1 0xFF DUP2 AND DUP2 SUB PUSH2 0x402 JUMPI SWAP1 JUMP JUMPDEST SWAP2 SWAP1 DUP3 ADD DUP1 SWAP3 GT PUSH2 0x31B3 JUMPI JUMP JUMPDEST PUSH1 0x2 PUSH1 0x0 SLOAD EQ PUSH2 0x34D0 JUMPI PUSH1 0x2 PUSH1 0x0 SSTORE JUMP JUMPDEST PUSH1 0x40 MLOAD PUSH3 0x461BCD PUSH1 0xE5 SHL DUP2 MSTORE PUSH1 0x20 PUSH1 0x4 DUP3 ADD MSTORE PUSH1 0x1F PUSH1 0x24 DUP3 ADD MSTORE PUSH32 0x5265656E7472616E637947756172643A207265656E7472616E742063616C6C00 PUSH1 0x44 DUP3 ADD MSTORE PUSH1 0x64 SWAP1 REVERT JUMPDEST PUSH1 0x40 MLOAD PUSH4 0x23B872DD PUSH1 0xE0 SHL PUSH1 0x20 DUP3 ADD MSTORE PUSH1 0x1 PUSH1 0x1 PUSH1 0xA0 SHL SUB SWAP2 DUP3 AND PUSH1 0x24 DUP3 ADD MSTORE SWAP2 AND PUSH1 0x44 DUP3 ADD MSTORE PUSH1 0x64 DUP2 ADD SWAP2 SWAP1 SWAP2 MSTORE PUSH2 0x3564 SWAP1 PUSH2 0x355F DUP2 PUSH1 0x84 DUP2 ADD JUMPDEST SUB PUSH1 0x1F NOT DUP2 ADD DUP4 MSTORE DUP3 PUSH2 0x30EC JUMP JUMPDEST PUSH2 0x357E JUMP JUMPDEST JUMP JUMPDEST SWAP1 DUP2 PUSH1 0x20 SWAP2 SUB SLT PUSH2 0x402 JUMPI MLOAD DUP1 ISZERO ISZERO DUP2 SUB PUSH2 0x402 JUMPI SWAP1 JUMP JUMPDEST PUSH1 0x40 MLOAD PUSH1 0x40 DUP2 ADD SWAP1 DUP1 DUP3 LT PUSH8 0xFFFFFFFFFFFFFFFF DUP4 GT OR PUSH2 0x30BA JUMPI PUSH2 0x35F9 SWAP2 PUSH1 0x40 MSTORE PUSH1 0x0 DUP1 PUSH1 0x20 SWAP5 DUP6 DUP5 MSTORE PUSH32 0x5361666545524332303A206C6F772D6C6576656C2063616C6C206661696C6564 DUP7 DUP6 ADD MSTORE DUP6 DUP2 MLOAD SWAP2 ADD DUP3 PUSH20 0x570A5D26F7765ECB712C0924E4DE545B89FD43DF GAS CALL PUSH2 0x35F3 PUSH2 0x3681 JUMP JUMPDEST SWAP1 PUSH2 0x36C1 JUMP JUMPDEST DUP1 MLOAD SWAP1 DUP3 DUP3 ISZERO SWAP3 DUP4 ISZERO PUSH2 0x3669 JUMPI JUMPDEST POP POP POP ISZERO PUSH2 0x3612 JUMPI POP JUMP JUMPDEST PUSH1 0x84 SWAP1 PUSH1 0x40 MLOAD SWAP1 PUSH3 0x461BCD PUSH1 0xE5 SHL DUP3 MSTORE PUSH1 0x4 DUP3 ADD MSTORE PUSH1 0x2A PUSH1 0x24 DUP3 ADD MSTORE PUSH32 0x5361666545524332303A204552433230206F7065726174696F6E20646964206E PUSH1 0x44 DUP3 ADD MSTORE PUSH10 0x1BDD081CDD58D8D95959 PUSH1 0xB2 SHL PUSH1 0x64 DUP3 ADD MSTORE REVERT JUMPDEST PUSH2 0x3679 SWAP4 POP DUP3 ADD DUP2 ADD SWAP2 ADD PUSH2 0x3566 JUMP JUMPDEST CODESIZE DUP3 DUP2 PUSH2 0x3607 JUMP JUMPDEST RETURNDATASIZE ISZERO PUSH2 0x36BC JUMPI RETURNDATASIZE SWAP1 PUSH8 0xFFFFFFFFFFFFFFFF DUP3 GT PUSH2 0x30BA JUMPI PUSH1 0x40 MLOAD SWAP2 PUSH2 0x36B0 PUSH1 0x1F DUP3 ADD PUSH1 0x1F NOT AND PUSH1 0x20 ADD DUP5 PUSH2 0x30EC JUMP JUMPDEST DUP3 MSTORE RETURNDATASIZE PUSH1 0x0 PUSH1 0x20 DUP5 ADD RETURNDATACOPY JUMP JUMPDEST PUSH1 0x60 SWAP1 JUMP JUMPDEST SWAP1 SWAP2 SWAP1 ISZERO PUSH2 0x3737 JUMPI POP DUP1 MLOAD ISZERO PUSH2 0x36D4 JUMPI SWAP1 JUMP JUMPDEST PUSH20 0x570A5D26F7765ECB712C0924E4DE545B89FD43DF EXTCODESIZE ISZERO PUSH2 0x36F2 JUMPI SWAP1 JUMP JUMPDEST PUSH1 0x40 MLOAD PUSH3 0x461BCD PUSH1 0xE5 SHL DUP2 MSTORE PUSH1 0x20 PUSH1 0x4 DUP3 ADD MSTORE PUSH1 0x1D PUSH1 0x24 DUP3 ADD MSTORE PUSH32 0x416464726573733A2063616C6C20746F206E6F6E2D636F6E7472616374000000 PUSH1 0x44 DUP3 ADD MSTORE PUSH1 0x64 SWAP1 REVERT JUMPDEST DUP2 MLOAD ISZERO PUSH2 0x3747 JUMPI POP DUP1 MLOAD SWAP1 PUSH1 0x20 ADD REVERT JUMPDEST PUSH1 0x40 MLOAD SWAP1 PUSH3 0x461BCD PUSH1 0xE5 SHL DUP3 MSTORE DUP2 PUSH1 0x20 DUP1 PUSH1 0x4 DUP4 ADD MSTORE DUP3 MLOAD SWAP1 DUP2 PUSH1 0x24 DUP5 ADD MSTORE PUSH1 0x0 SWAP4 JUMPDEST DUP3 DUP6 LT PUSH2 0x378D JUMPI POP POP PUSH1 0x44 SWAP3 POP PUSH1 0x0 DUP4 DUP3 DUP5 ADD ADD MSTORE PUSH1 0x1F DUP1 NOT SWAP2 ADD AND DUP2 ADD SUB ADD SWAP1 REVERT JUMPDEST DUP5 DUP2 ADD DUP3 ADD MLOAD DUP7 DUP7 ADD PUSH1 0x44 ADD MSTORE SWAP4 DUP2 ADD SWAP4 DUP6 SWAP4 POP PUSH2 0x376A JUMP JUMPDEST DUP2 DUP2 MUL SWAP3 SWAP2 DUP2 ISZERO SWAP2 DUP5 DIV EQ OR ISZERO PUSH2 0x31B3 JUMPI JUMP JUMPDEST SWAP1 PUSH1 0x0 PUSH1 0x1 DUP1 PUSH1 0xA0 SHL SUB SWAP3 DUP4 DUP2 AND SWAP4 DUP5 DUP4 MSTORE PUSH1 0xB PUSH1 0x20 MSTORE PUSH1 0x40 SWAP3 PUSH1 0x3 DUP5 DUP3 KECCAK256 ADD SWAP2 DUP3 SLOAD SWAP3 PUSH2 0x37E7 DUP8 DUP6 PUSH2 0x34B2 JUMP JUMPDEST SWAP1 SSTORE PUSH1 0x32 DUP7 MUL DUP7 ISZERO SWAP1 DUP8 DUP2 DIV PUSH1 0x32 EQ DUP3 OR ISZERO PUSH2 0x3B43 JUMPI PUSH1 0x64 SWAP1 DIV SWAP2 PUSH2 0x380C DUP4 DUP10 PUSH2 0x32E6 JUMP JUMPDEST SWAP5 PUSH1 0x4 SWAP2 DUP3 SLOAD AND SWAP3 DUP4 PUSH2 0x3866 JUMPI JUMPDEST POP POP POP POP POP POP SWAP2 PUSH32 0xE1FFFCC4923D04B559F4D29A8BFC6CDA04EB5B0D3C460751C2402C5C5CC9109C SWAP4 SWAP2 DUP4 PUSH1 0x20 SWAP5 PUSH2 0x3856 JUMPI JUMPDEST POP POP MLOAD SWAP1 DUP2 MSTORE LOG2 JUMP JUMPDEST PUSH2 0x385F SWAP2 PUSH2 0x3C87 JUMP JUMPDEST CODESIZE DUP1 PUSH2 0x384D JUMP JUMPDEST PUSH1 0x3 DUP11 MUL SWAP1 DUP11 DUP3 DIV PUSH1 0x3 EQ OR ISZERO PUSH2 0x3B1D JUMPI DUP4 EXTCODESIZE ISZERO PUSH2 0x1709 JUMPI DUP9 MLOAD PUSH4 0x13AD7D41 PUSH1 0xE1 SHL DUP2 MSTORE PUSH1 0x1 PUSH1 0x1 PUSH1 0xA0 SHL SUB DUP10 AND DUP5 DUP3 ADD SWAP1 DUP2 MSTORE PUSH1 0x20 DUP2 ADD SWAP3 SWAP1 SWAP3 MSTORE SWAP1 DUP7 SWAP1 DUP3 SWAP1 DUP2 SWAP1 PUSH1 0x40 ADD SUB DUP2 DUP4 DUP9 GAS CALL DUP1 ISZERO PUSH2 0x3AE1 JUMPI PUSH2 0x3B30 JUMPI JUMPDEST POP PUSH1 0x1E DUP5 MUL DUP5 DUP2 DIV PUSH1 0x1E EQ DUP6 ISZERO OR ISZERO PUSH2 0x3B1D JUMPI PUSH1 0x64 SWAP1 DIV DUP4 EXTCODESIZE ISZERO PUSH2 0x1709 JUMPI DUP9 MLOAD PUSH4 0x75459265 PUSH1 0xE1 SHL DUP2 MSTORE PUSH1 0x1 PUSH1 0x1 PUSH1 0xA0 SHL SUB DUP10 AND DUP5 DUP3 ADD SWAP1 DUP2 MSTORE PUSH1 0x20 DUP2 ADD DUP4 SWAP1 MSTORE DUP8 SWAP1 DUP3 SWAP1 DUP2 SWAP1 PUSH1 0x40 ADD SUB DUP2 DUP4 DUP10 GAS CALL DUP1 ISZERO PUSH2 0x3B13 JUMPI SWAP1 DUP8 SWAP2 PUSH2 0x3AFF JUMPI JUMPDEST POP POP DUP4 EXTCODESIZE ISZERO PUSH2 0x1709 JUMPI DUP9 MLOAD PUSH4 0x7935ECA1 PUSH1 0xE0 SHL DUP2 MSTORE PUSH1 0x1 PUSH1 0x1 PUSH1 0xA0 SHL SUB DUP10 AND DUP5 DUP3 ADD SWAP1 DUP2 MSTORE PUSH1 0x20 DUP2 ADD SWAP3 SWAP1 SWAP3 MSTORE SWAP1 DUP7 SWAP1 DUP3 SWAP1 DUP2 SWAP1 PUSH1 0x40 ADD SUB DUP2 DUP4 DUP9 GAS CALL DUP1 ISZERO PUSH2 0x3AE1 JUMPI SWAP1 DUP7 SWAP2 PUSH2 0x3AEB JUMPI JUMPDEST POP POP DUP3 EXTCODESIZE ISZERO PUSH2 0x7AE JUMPI DUP8 MLOAD PUSH4 0x432F7799 PUSH1 0xE1 SHL DUP2 MSTORE PUSH1 0x1 PUSH1 0x1 PUSH1 0xA0 SHL SUB DUP9 AND DUP4 DUP3 ADD SWAP1 DUP2 MSTORE PUSH1 0x20 DUP2 ADD DUP12 SWAP1 MSTORE DUP7 SWAP1 DUP3 SWAP1 DUP2 SWAP1 PUSH1 0x40 ADD SUB DUP2 DUP4 DUP9 GAS CALL DUP1 ISZERO PUSH2 0x3AE1 JUMPI SWAP1 DUP7 SWAP2 PUSH2 0x3ACD JUMPI JUMPDEST POP POP ISZERO PUSH2 0x3A82 JUMPI JUMPDEST DUP2 EXTCODESIZE ISZERO PUSH2 0x733 JUMPI DUP7 MLOAD PUSH4 0x59AF312B PUSH1 0xE0 SHL DUP2 MSTORE PUSH1 0x1 PUSH1 0x1 PUSH1 0xA0 SHL SUB DUP8 AND DUP3 DUP3 ADD SWAP1 DUP2 MSTORE PUSH1 0x20 DUP2 ADD DUP6 SWAP1 MSTORE DUP6 SWAP1 DUP3 SWAP1 DUP2 SWAP1 PUSH1 0x40 ADD SUB DUP2 DUP4 DUP8 GAS CALL DUP1 ISZERO PUSH2 0x7B9 JUMPI SWAP1 DUP6 SWAP2 PUSH2 0x3A6E JUMPI JUMPDEST POP POP DUP2 EXTCODESIZE ISZERO PUSH2 0x733 JUMPI DUP7 MLOAD PUSH4 0x88F72E3D PUSH1 0xE0 SHL DUP2 MSTORE PUSH1 0x1 PUSH1 0x1 PUSH1 0xA0 SHL SUB DUP8 AND SWAP2 DUP2 ADD SWAP2 DUP3 MSTORE PUSH1 0x20 DUP3 ADD SWAP4 SWAP1 SWAP4 MSTORE DUP4 SWAP2 DUP4 SWAP2 DUP3 SWAP1 DUP5 SWAP1 DUP3 SWAP1 PUSH1 0x40 ADD SUB SWAP3 GAS CALL DUP1 ISZERO PUSH2 0x3A64 JUMPI PUSH2 0x3A50 JUMPI JUMPDEST DUP1 DUP1 DUP1 DUP1 PUSH2 0x381A JUMP JUMPDEST PUSH2 0x3A5A DUP3 SWAP2 PUSH2 0x30A6 JUMP JUMPDEST PUSH2 0x96C JUMPI DUP1 PUSH2 0x3A47 JUMP JUMPDEST DUP6 MLOAD RETURNDATASIZE DUP5 DUP3 RETURNDATACOPY RETURNDATASIZE SWAP1 REVERT JUMPDEST PUSH2 0x3A77 SWAP1 PUSH2 0x30A6 JUMP JUMPDEST PUSH2 0x733 JUMPI DUP4 CODESIZE PUSH2 0x39FE JUMP JUMPDEST DUP2 EXTCODESIZE ISZERO PUSH2 0x733 JUMPI DUP7 MLOAD PUSH4 0x4BF71FFD PUSH1 0xE0 SHL DUP2 MSTORE DUP2 DUP2 ADD DUP11 SWAP1 MSTORE DUP5 DUP2 PUSH1 0x24 DUP2 DUP4 DUP8 GAS CALL DUP1 ISZERO PUSH2 0x7B9 JUMPI SWAP1 DUP6 SWAP2 PUSH2 0x3AB9 JUMPI JUMPDEST POP POP PUSH2 0x39B7 JUMP JUMPDEST PUSH2 0x3AC2 SWAP1 PUSH2 0x30A6 JUMP JUMPDEST PUSH2 0x733 JUMPI DUP4 CODESIZE PUSH2 0x3AB2 JUMP JUMPDEST PUSH2 0x3AD6 SWAP1 PUSH2 0x30A6 JUMP JUMPDEST PUSH2 0x7AE JUMPI DUP5 CODESIZE PUSH2 0x39AF JUMP JUMPDEST DUP10 MLOAD RETURNDATASIZE DUP9 DUP3 RETURNDATACOPY RETURNDATASIZE SWAP1 REVERT JUMPDEST PUSH2 0x3AF4 SWAP1 PUSH2 0x30A6 JUMP JUMPDEST PUSH2 0x7AE JUMPI DUP5 CODESIZE PUSH2 0x3966 JUMP JUMPDEST PUSH2 0x3B08 SWAP1 PUSH2 0x30A6 JUMP JUMPDEST PUSH2 0x1709 JUMPI DUP6 CODESIZE PUSH2 0x391B JUMP JUMPDEST DUP11 MLOAD RETURNDATASIZE DUP10 DUP3 RETURNDATACOPY RETURNDATASIZE SWAP1 REVERT JUMPDEST PUSH4 0x4E487B71 PUSH1 0xE0 SHL DUP7 MSTORE PUSH1 0x11 DUP4 MSTORE PUSH1 0x24 DUP7 REVERT JUMPDEST PUSH2 0x3B3C SWAP1 SWAP6 SWAP2 SWAP6 PUSH2 0x30A6 JUMP JUMPDEST SWAP4 CODESIZE PUSH2 0x38BD JUMP JUMPDEST PUSH4 0x4E487B71 PUSH1 0xE0 SHL DUP5 MSTORE PUSH1 0x11 PUSH1 0x4 MSTORE PUSH1 0x24 DUP5 REVERT JUMPDEST ISZERO PUSH2 0x3B5E JUMPI JUMP JUMPDEST PUSH1 0x40 MLOAD PUSH3 0x461BCD PUSH1 0xE5 SHL DUP2 MSTORE PUSH1 0x20 PUSH1 0x4 DUP3 ADD MSTORE PUSH1 0x6 PUSH1 0x24 DUP3 ADD MSTORE PUSH6 0x217374616B65 PUSH1 0xD0 SHL PUSH1 0x44 DUP3 ADD MSTORE PUSH1 0x64 SWAP1 REVERT JUMPDEST ISZERO PUSH2 0x3B93 JUMPI JUMP JUMPDEST PUSH1 0x64 PUSH1 0x40 MLOAD PUSH3 0x461BCD PUSH1 0xE5 SHL DUP2 MSTORE PUSH1 0x20 PUSH1 0x4 DUP3 ADD MSTORE PUSH1 0x4 PUSH1 0x24 DUP3 ADD MSTORE PUSH4 0x858985B PUSH1 0xE2 SHL PUSH1 0x44 DUP3 ADD MSTORE REVERT JUMPDEST DUP1 MLOAD PUSH1 0x1 LT ISZERO PUSH2 0x3027 JUMPI PUSH1 0x40 ADD SWAP1 JUMP JUMPDEST SWAP1 PUSH1 0x20 SWAP1 DUP2 DUP4 DUP3 SUB SLT PUSH2 0x402 JUMPI DUP3 MLOAD PUSH8 0xFFFFFFFFFFFFFFFF SWAP4 DUP5 DUP3 GT PUSH2 0x402 JUMPI ADD DUP2 PUSH1 0x1F DUP3 ADD SLT ISZERO PUSH2 0x402 JUMPI DUP1 MLOAD SWAP4 DUP5 GT PUSH2 0x30BA JUMPI DUP4 PUSH1 0x5 SHL SWAP1 PUSH1 0x40 MLOAD SWAP5 PUSH2 0x3C18 DUP6 DUP5 ADD DUP8 PUSH2 0x30EC JUMP JUMPDEST DUP6 MSTORE DUP4 DUP1 DUP7 ADD SWAP3 DUP3 ADD ADD SWAP3 DUP4 GT PUSH2 0x402 JUMPI DUP4 ADD SWAP1 JUMPDEST DUP3 DUP3 LT PUSH2 0x3C3B JUMPI POP POP POP POP SWAP1 JUMP JUMPDEST DUP2 MLOAD DUP2 MSTORE SWAP1 DUP4 ADD SWAP1 DUP4 ADD PUSH2 0x3C2D JUMP JUMPDEST SWAP1 DUP2 MLOAD DUP1 DUP3 MSTORE PUSH1 0x20 DUP1 DUP1 SWAP4 ADD SWAP4 ADD SWAP2 PUSH1 0x0 JUMPDEST DUP3 DUP2 LT PUSH2 0x3C6A JUMPI POP POP POP POP SWAP1 JUMP JUMPDEST DUP4 MLOAD PUSH1 0x1 PUSH1 0x1 PUSH1 0xA0 SHL SUB AND DUP6 MSTORE SWAP4 DUP2 ADD SWAP4 SWAP3 DUP2 ADD SWAP3 PUSH1 0x1 ADD PUSH2 0x3C5C JUMP JUMPDEST PUSH1 0x4 DUP1 SLOAD PUSH1 0x0 SWAP5 SWAP4 SWAP3 SWAP2 SWAP1 PUSH1 0x20 SWAP1 PUSH1 0x1 PUSH1 0x1 PUSH1 0xA0 SHL SUB AND PUSH2 0x3CA9 DUP2 ISZERO ISZERO PUSH2 0x3B57 JUMP JUMPDEST PUSH1 0x40 MLOAD PUSH4 0x452ED4F1 PUSH1 0xE0 SHL DUP2 MSTORE SWAP3 DUP4 SWAP2 DUP3 SWAP1 GAS STATICCALL SWAP1 DUP2 ISZERO PUSH2 0x4389 JUMPI DUP6 SWAP2 PUSH2 0x4347 JUMPI JUMPDEST POP PUSH1 0x1 PUSH1 0x1 PUSH1 0xA0 SHL SUB DUP2 AND ISZERO PUSH2 0x431A JUMPI PUSH1 0x40 MLOAD PUSH4 0x70A08231 PUSH1 0xE0 SHL DUP2 MSTORE ADDRESS PUSH1 0x4 DUP3 ADD MSTORE PUSH1 0x20 DUP2 PUSH1 0x24 DUP2 PUSH20 0x570A5D26F7765ECB712C0924E4DE545B89FD43DF GAS STATICCALL DUP1 ISZERO PUSH2 0x430F JUMPI DUP5 SWAP1 DUP8 SWAP1 PUSH2 0x42D9 JUMPI JUMPDEST PUSH2 0x3D26 SWAP3 POP LT ISZERO PUSH2 0x3B8C JUMP JUMPDEST PUSH2 0x3D33 DUP4 PUSH1 0x1 SHR DUP5 PUSH2 0x32E6 JUMP JUMPDEST SWAP5 PUSH1 0x40 MLOAD PUSH2 0x3D40 DUP2 PUSH2 0x30D0 JUMP JUMPDEST PUSH1 0x2 DUP2 MSTORE PUSH1 0x20 DUP2 ADD PUSH1 0x40 CALLDATASIZE DUP3 CALLDATACOPY DUP2 MLOAD ISZERO PUSH2 0x42C5 JUMPI PUSH20 0x570A5D26F7765ECB712C0924E4DE545B89FD43DF SWAP1 MSTORE PUSH1 0x2 SLOAD PUSH1 0x1 PUSH1 0x1 PUSH1 0xA0 SHL SUB AND PUSH2 0x3D80 DUP3 PUSH2 0x3BBE JUMP JUMPDEST MSTORE PUSH1 0x40 MLOAD PUSH4 0x95EA7B3 PUSH1 0xE0 SHL DUP2 MSTORE PUSH20 0x10ED43C718714EB63D5AA57B78B54704E256024E PUSH1 0x4 DUP3 ADD MSTORE PUSH1 0x24 DUP2 ADD DUP7 SWAP1 MSTORE PUSH1 0x20 DUP2 PUSH1 0x44 DUP2 DUP7 PUSH20 0x570A5D26F7765ECB712C0924E4DE545B89FD43DF GAS CALL DUP1 ISZERO PUSH2 0x424D JUMPI PUSH2 0x42A6 JUMPI JUMPDEST POP PUSH1 0x40 MLOAD SWAP7 PUSH4 0xD06CA61F PUSH1 0xE0 SHL DUP9 MSTORE DUP1 PUSH1 0x4 DUP10 ADD MSTORE PUSH1 0x40 PUSH1 0x24 DUP10 ADD MSTORE DUP3 DUP9 DUP1 PUSH2 0x3E04 PUSH1 0x44 DUP3 ADD DUP7 PUSH2 0x3C4A JUMP JUMPDEST SUB DUP2 PUSH20 0x10ED43C718714EB63D5AA57B78B54704E256024E GAS STATICCALL SWAP8 DUP9 ISZERO PUSH2 0x424D JUMPI PUSH2 0x3E3F PUSH2 0x14DA PUSH1 0x24 SWAP9 SWAP10 SWAP11 PUSH2 0x3E8 SWAP4 DUP8 SWAP2 PUSH2 0x153B JUMPI POP PUSH2 0x3BBE JUMP JUMPDEST DIV SWAP1 PUSH1 0x20 PUSH1 0x1 DUP1 PUSH1 0xA0 SHL SUB PUSH1 0x2 SLOAD AND PUSH1 0x40 MLOAD SWAP9 DUP10 DUP1 SWAP3 PUSH4 0x70A08231 PUSH1 0xE0 SHL DUP3 MSTORE ADDRESS PUSH1 0x4 DUP4 ADD MSTORE GAS STATICCALL SWAP7 DUP8 ISZERO PUSH2 0x429B JUMPI DUP5 SWAP8 PUSH2 0x4267 JUMPI JUMPDEST POP PUSH2 0x12C TIMESTAMP ADD TIMESTAMP GT PUSH2 0x3B43 JUMPI PUSH20 0x10ED43C718714EB63D5AA57B78B54704E256024E EXTCODESIZE ISZERO PUSH2 0x733 JUMPI SWAP1 DUP4 SWAP2 PUSH2 0x3ECF PUSH1 0x40 MLOAD SWAP5 DUP6 SWAP4 DUP5 SWAP4 PUSH4 0x5C11D795 PUSH1 0xE0 SHL DUP6 MSTORE PUSH1 0x4 DUP6 ADD MSTORE PUSH1 0x24 DUP5 ADD MSTORE PUSH1 0xA0 PUSH1 0x44 DUP5 ADD MSTORE PUSH1 0xA4 DUP4 ADD SWAP1 PUSH2 0x3C4A JUMP JUMPDEST ADDRESS PUSH1 0x64 DUP4 ADD MSTORE PUSH2 0x12C TIMESTAMP ADD PUSH1 0x84 DUP4 ADD MSTORE SUB DUP2 DUP4 PUSH20 0x10ED43C718714EB63D5AA57B78B54704E256024E GAS CALL DUP1 ISZERO PUSH2 0x4142 JUMPI PUSH2 0x4258 JUMPI JUMPDEST POP PUSH1 0x2 SLOAD PUSH1 0x40 MLOAD PUSH4 0x70A08231 PUSH1 0xE0 SHL DUP2 MSTORE ADDRESS PUSH1 0x4 DUP3 ADD MSTORE PUSH1 0x1 PUSH1 0x1 PUSH1 0xA0 SHL SUB SWAP1 SWAP2 AND SWAP5 PUSH1 0x20 DUP3 PUSH1 0x24 DUP2 DUP10 GAS STATICCALL DUP1 ISZERO PUSH2 0x424D JUMPI DUP4 SWAP1 PUSH2 0x4219 JUMPI JUMPDEST PUSH2 0x3F47 SWAP3 POP PUSH2 0x32E6 JUMP JUMPDEST SWAP4 DUP5 ISZERO PUSH2 0x41EC JUMPI PUSH1 0x20 DUP3 SWAP2 PUSH1 0x44 PUSH1 0x40 MLOAD DUP1 SWAP5 DUP2 SWAP4 PUSH4 0x95EA7B3 PUSH1 0xE0 SHL DUP4 MSTORE PUSH20 0x10ED43C718714EB63D5AA57B78B54704E256024E PUSH1 0x4 DUP5 ADD MSTORE DUP11 PUSH1 0x24 DUP5 ADD MSTORE GAS CALL DUP1 ISZERO PUSH2 0x4142 JUMPI PUSH2 0x41CD JUMPI JUMPDEST POP PUSH1 0xA SLOAD SWAP2 PUSH2 0x3E8 PUSH2 0x3FB3 DUP2 PUSH2 0x3FAB DUP7 DUP11 PUSH1 0x1 SHR PUSH2 0x37A6 JUMP JUMPDEST DIV SWAP5 DUP8 PUSH2 0x37A6 JUMP JUMPDEST DIV PUSH1 0x1 DUP1 PUSH1 0xA0 SHL SUB PUSH1 0x2 SLOAD AND SWAP4 PUSH1 0x40 MLOAD SWAP5 PUSH3 0xE8E337 PUSH1 0xE8 SHL DUP7 MSTORE PUSH20 0x570A5D26F7765ECB712C0924E4DE545B89FD43DF PUSH1 0x4 DUP8 ADD MSTORE PUSH1 0x24 DUP7 ADD MSTORE DUP8 PUSH1 0x1 SHR PUSH1 0x44 DUP7 ADD MSTORE DUP7 PUSH1 0x64 DUP7 ADD MSTORE PUSH1 0x84 DUP6 ADD MSTORE PUSH1 0xA4 DUP5 ADD MSTORE ADDRESS PUSH1 0xC4 DUP5 ADD MSTORE PUSH2 0x12C TIMESTAMP ADD PUSH1 0xE4 DUP5 ADD MSTORE PUSH1 0x60 DUP4 PUSH2 0x104 DUP2 DUP6 PUSH20 0x10ED43C718714EB63D5AA57B78B54704E256024E GAS CALL SWAP3 DUP4 ISZERO PUSH2 0x4142 JUMPI DUP3 SWAP4 PUSH2 0x4197 JUMPI JUMPDEST POP DUP3 ISZERO PUSH2 0x416C JUMPI PUSH1 0x40 MLOAD PUSH4 0xA9059CBB PUSH1 0xE0 SHL DUP2 MSTORE PUSH1 0x1 PUSH1 0x1 PUSH1 0xA0 SHL SUB DUP6 DUP2 AND PUSH1 0x4 DUP4 ADD MSTORE PUSH1 0x24 DUP3 ADD DUP6 SWAP1 MSTORE SWAP1 SWAP2 PUSH1 0x20 SWAP2 DUP4 SWAP2 PUSH1 0x44 SWAP2 DUP4 SWAP2 DUP8 SWAP2 AND GAS CALL DUP1 ISZERO PUSH2 0x4142 JUMPI PUSH2 0x414D JUMPI JUMPDEST POP PUSH1 0x4 SLOAD PUSH1 0x1 PUSH1 0x1 PUSH1 0xA0 SHL SUB AND DUP1 EXTCODESIZE ISZERO PUSH2 0x443 JUMPI PUSH1 0x40 MLOAD PUSH4 0x2194B4C7 PUSH1 0xE2 SHL DUP2 MSTORE PUSH1 0x1 PUSH1 0x1 PUSH1 0xA0 SHL SUB DUP6 AND PUSH1 0x4 DUP3 ADD MSTORE PUSH1 0x24 DUP2 ADD DUP5 SWAP1 MSTORE TIMESTAMP PUSH1 0x44 DUP3 ADD MSTORE SWAP1 DUP3 SWAP1 DUP3 SWAP1 PUSH1 0x64 SWAP1 DUP3 SWAP1 DUP5 SWAP1 GAS CALL DUP1 ISZERO PUSH2 0x4142 JUMPI PUSH2 0x412E JUMPI JUMPDEST POP POP PUSH1 0x40 DUP1 MLOAD PUSH1 0x1 SWAP6 SWAP1 SWAP6 SHR DUP6 MSTORE PUSH1 0x20 DUP6 ADD SWAP4 SWAP1 SWAP4 MSTORE SWAP2 DUP4 ADD SWAP2 SWAP1 SWAP2 MSTORE PUSH1 0x1 PUSH1 0x1 PUSH1 0xA0 SHL SUB AND SWAP1 PUSH32 0x5A8E36BEFE02C6AA273AEEE45B943F8DE299A04EEB0C9BC891A1244C1866C7BA SWAP1 PUSH1 0x60 SWAP1 LOG2 JUMP JUMPDEST PUSH2 0x4138 DUP3 SWAP2 PUSH2 0x30A6 JUMP JUMPDEST PUSH2 0x96C JUMPI DUP1 PUSH2 0x40DF JUMP JUMPDEST PUSH1 0x40 MLOAD RETURNDATASIZE DUP5 DUP3 RETURNDATACOPY RETURNDATASIZE SWAP1 REVERT JUMPDEST PUSH2 0x4165 SWAP1 PUSH1 0x20 RETURNDATASIZE PUSH1 0x20 GT PUSH2 0x1675 JUMPI PUSH2 0x1666 DUP2 DUP4 PUSH2 0x30EC JUMP JUMPDEST POP CODESIZE PUSH2 0x4089 JUMP JUMPDEST PUSH1 0x40 MLOAD PUSH3 0x461BCD PUSH1 0xE5 SHL DUP2 MSTORE PUSH1 0x20 PUSH1 0x4 DUP3 ADD MSTORE PUSH1 0x3 PUSH1 0x24 DUP3 ADD MSTORE PUSH3 0x216C7 PUSH1 0xEC SHL PUSH1 0x44 DUP3 ADD MSTORE PUSH1 0x64 SWAP1 REVERT JUMPDEST SWAP1 SWAP3 POP PUSH1 0x60 DUP2 RETURNDATASIZE DUP3 GT PUSH2 0x41C5 JUMPI JUMPDEST DUP2 PUSH2 0x41B2 PUSH1 0x60 SWAP4 DUP4 PUSH2 0x30EC JUMP JUMPDEST DUP2 ADD SUB SLT PUSH2 0x443 JUMPI PUSH1 0x40 ADD MLOAD SWAP2 CODESIZE PUSH2 0x4042 JUMP JUMPDEST RETURNDATASIZE SWAP2 POP PUSH2 0x41A5 JUMP JUMPDEST PUSH2 0x41E5 SWAP1 PUSH1 0x20 RETURNDATASIZE PUSH1 0x20 GT PUSH2 0x1675 JUMPI PUSH2 0x1666 DUP2 DUP4 PUSH2 0x30EC JUMP JUMPDEST POP CODESIZE PUSH2 0x3F92 JUMP JUMPDEST PUSH1 0x40 MLOAD PUSH3 0x461BCD PUSH1 0xE5 SHL DUP2 MSTORE PUSH1 0x20 PUSH1 0x4 DUP3 ADD MSTORE PUSH1 0x5 PUSH1 0x24 DUP3 ADD MSTORE PUSH5 0x217377617 PUSH1 0xDC SHL PUSH1 0x44 DUP3 ADD MSTORE PUSH1 0x64 SWAP1 REVERT JUMPDEST POP PUSH1 0x20 DUP3 RETURNDATASIZE PUSH1 0x20 GT PUSH2 0x4245 JUMPI JUMPDEST DUP2 PUSH2 0x4233 PUSH1 0x20 SWAP4 DUP4 PUSH2 0x30EC JUMP JUMPDEST DUP2 ADD SUB SLT PUSH2 0x402 JUMPI PUSH2 0x3F47 SWAP2 MLOAD PUSH2 0x3F3D JUMP JUMPDEST RETURNDATASIZE SWAP2 POP PUSH2 0x4226 JUMP JUMPDEST PUSH1 0x40 MLOAD RETURNDATASIZE DUP6 DUP3 RETURNDATACOPY RETURNDATASIZE SWAP1 REVERT JUMPDEST PUSH2 0x4261 SWAP1 PUSH2 0x30A6 JUMP JUMPDEST CODESIZE PUSH2 0x3F04 JUMP JUMPDEST SWAP1 SWAP7 POP PUSH1 0x20 DUP2 RETURNDATASIZE PUSH1 0x20 GT PUSH2 0x4293 JUMPI JUMPDEST DUP2 PUSH2 0x4283 PUSH1 0x20 SWAP4 DUP4 PUSH2 0x30EC JUMP JUMPDEST DUP2 ADD SUB SLT PUSH2 0x733 JUMPI MLOAD SWAP6 CODESIZE PUSH2 0x3E75 JUMP JUMPDEST RETURNDATASIZE SWAP2 POP PUSH2 0x4276 JUMP JUMPDEST PUSH1 0x40 MLOAD RETURNDATASIZE DUP7 DUP3 RETURNDATACOPY RETURNDATASIZE SWAP1 REVERT JUMPDEST PUSH2 0x42BE SWAP1 PUSH1 0x20 RETURNDATASIZE PUSH1 0x20 GT PUSH2 0x1675 JUMPI PUSH2 0x1666 DUP2 DUP4 PUSH2 0x30EC JUMP JUMPDEST POP CODESIZE PUSH2 0x3DD8 JUMP JUMPDEST PUSH4 0x4E487B71 PUSH1 0xE0 SHL DUP4 MSTORE PUSH1 0x32 PUSH1 0x4 MSTORE PUSH1 0x24 DUP4 REVERT JUMPDEST POP POP PUSH1 0x20 DUP2 RETURNDATASIZE PUSH1 0x20 GT PUSH2 0x4307 JUMPI JUMPDEST DUP2 PUSH2 0x42F4 PUSH1 0x20 SWAP4 DUP4 PUSH2 0x30EC JUMP JUMPDEST DUP2 ADD SUB SLT PUSH2 0x1709 JUMPI DUP4 PUSH2 0x3D26 SWAP2 MLOAD PUSH2 0x3D1A JUMP JUMPDEST RETURNDATASIZE SWAP2 POP PUSH2 0x42E7 JUMP JUMPDEST PUSH1 0x40 MLOAD RETURNDATASIZE DUP9 DUP3 RETURNDATACOPY RETURNDATASIZE SWAP1 REVERT JUMPDEST PUSH1 0x40 MLOAD PUSH3 0x461BCD PUSH1 0xE5 SHL DUP2 MSTORE PUSH1 0x20 PUSH1 0x4 DUP3 ADD MSTORE PUSH1 0x5 PUSH1 0x24 DUP3 ADD MSTORE PUSH5 0x10B830B4B9 PUSH1 0xD9 SHL PUSH1 0x44 DUP3 ADD MSTORE PUSH1 0x64 SWAP1 REVERT JUMPDEST SWAP1 POP PUSH1 0x20 DUP2 RETURNDATASIZE PUSH1 0x20 GT PUSH2 0x4381 JUMPI JUMPDEST DUP2 PUSH2 0x4362 PUSH1 0x20 SWAP4 DUP4 PUSH2 0x30EC JUMP JUMPDEST DUP2 ADD SUB SLT PUSH2 0x7AE JUMPI MLOAD PUSH1 0x1 PUSH1 0x1 PUSH1 0xA0 SHL SUB DUP2 AND DUP2 SUB PUSH2 0x7AE JUMPI CODESIZE PUSH2 0x3CCB JUMP JUMPDEST RETURNDATASIZE SWAP2 POP PUSH2 0x4355 JUMP JUMPDEST PUSH1 0x40 MLOAD RETURNDATASIZE DUP8 DUP3 RETURNDATACOPY RETURNDATASIZE SWAP1 REVERT JUMPDEST PUSH1 0x4 DUP1 SLOAD PUSH1 0x0 SWAP2 SWAP1 PUSH1 0x1 PUSH1 0x1 PUSH1 0xA0 SHL SUB SWAP1 DUP2 AND SWAP1 PUSH2 0x43B3 DUP3 ISZERO ISZERO PUSH2 0x3B57 JUMP JUMPDEST PUSH1 0x40 SWAP3 DUP4 MLOAD SWAP5 PUSH4 0x63393FD PUSH1 0xE1 SHL DUP7 MSTORE CALLER DUP3 DUP8 ADD MSTORE PUSH1 0x20 SWAP4 PUSH1 0x24 SWAP2 DUP6 DUP9 DUP5 DUP2 DUP6 GAS STATICCALL SWAP8 DUP9 ISZERO PUSH2 0x469A JUMPI DUP2 SWAP9 PUSH2 0x4667 JUMPI JUMPDEST POP DUP8 ISZERO PUSH2 0x463A JUMPI DUP2 EXTCODESIZE ISZERO PUSH2 0x96C JUMPI DUP7 MLOAD PUSH4 0x295DF81 PUSH1 0xE6 SHL DUP2 MSTORE CALLER DUP6 DUP3 ADD SWAP1 DUP2 MSTORE PUSH1 0x20 DUP2 ADD DUP11 SWAP1 MSTORE DUP3 SWAP1 DUP3 SWAP1 DUP2 SWAP1 PUSH1 0x40 ADD SUB DUP2 DUP4 DUP8 GAS CALL DUP1 ISZERO PUSH2 0x4630 JUMPI PUSH2 0x4621 JUMPI JUMPDEST POP SWAP1 DUP7 MLOAD SWAP5 PUSH4 0x9921593 PUSH1 0xE4 SHL DUP7 MSTORE CALLER DUP6 DUP8 ADD MSTORE DUP7 DUP7 DUP6 DUP2 DUP6 GAS STATICCALL SWAP6 DUP7 ISZERO PUSH2 0x4551 JUMPI DUP4 SWAP7 PUSH2 0x45F2 JUMPI JUMPDEST POP DUP9 DUP7 PUSH2 0x44DB JUMPI JUMPDEST POP POP POP PUSH1 0xA DUP8 MUL SWAP3 DUP8 DUP5 DIV PUSH1 0xA EQ DUP9 ISZERO OR ISZERO PUSH2 0x44CB JUMPI POP POP POP PUSH32 0xE74E5C9D4AC1FC33412485F18C159A0A391EFE287AB3FD271123F30E6BACF4E3 SWAP4 SWAP3 SWAP2 PUSH2 0x44A4 PUSH1 0x64 PUSH2 0x44BD SWAP4 DIV DUP1 SWAP8 PUSH2 0x32E6 JUMP JUMPDEST SWAP6 PUSH2 0x44AE DUP2 PUSH2 0x46DF JUMP JUMPDEST PUSH2 0x44B8 DUP8 CALLER PUSH2 0x46A6 JUMP JUMPDEST PUSH2 0x34B2 JUMP JUMPDEST SWAP1 DUP3 MLOAD SWAP5 DUP6 MSTORE DUP5 ADD MSTORE CALLER SWAP3 LOG2 JUMP JUMPDEST PUSH4 0x4E487B71 PUSH1 0xE0 SHL DUP3 MSTORE PUSH1 0x11 SWAP1 MSTORE REVERT JUMPDEST DUP1 SWAP2 SWAP3 SWAP10 POP DUP7 LT ISZERO PUSH2 0x455B JUMPI DUP6 PUSH2 0x44F1 SWAP2 PUSH2 0x32E6 JUMP JUMPDEST SWAP8 DUP1 EXTCODESIZE ISZERO PUSH2 0x76E JUMPI DUP3 DUP1 SWAP2 DUP6 DUP11 MLOAD DUP1 SWAP5 DUP2 SWAP4 PUSH4 0x286E4DD5 PUSH1 0xE1 SHL DUP4 MSTORE CALLER DUP12 DUP5 ADD MSTORE GAS CALL DUP1 ISZERO PUSH2 0x4551 JUMPI DUP7 SWAP2 DUP5 SWAP2 PUSH2 0x453A JUMPI JUMPDEST POP POP PUSH2 0x4532 SWAP2 PUSH1 0x1 SLOAD AND PUSH2 0x46A6 JUMP JUMPDEST CODESIZE DUP1 DUP1 PUSH2 0x4456 JUMP JUMPDEST PUSH2 0x4545 SWAP2 SWAP3 POP PUSH2 0x30A6 JUMP JUMPDEST PUSH2 0x443 JUMPI DUP5 DUP3 CODESIZE PUSH2 0x4523 JUMP JUMPDEST DUP9 MLOAD RETURNDATASIZE DUP6 DUP3 RETURNDATACOPY RETURNDATASIZE SWAP1 REVERT JUMPDEST SWAP5 POP SWAP8 SWAP7 SWAP2 SWAP1 SWAP6 SWAP5 SWAP3 DUP3 EXTCODESIZE ISZERO PUSH2 0x1B2B JUMPI DUP6 MLOAD PUSH4 0x286E4DD5 PUSH1 0xE1 SHL DUP2 MSTORE CALLER SWAP2 DUP2 ADD SWAP2 SWAP1 SWAP2 MSTORE SWAP2 DUP7 SWAP2 DUP4 SWAP2 DUP3 SWAP1 DUP5 SWAP1 GAS CALL DUP1 ISZERO PUSH2 0x45E8 JUMPI PUSH2 0x45D4 JUMPI JUMPDEST POP PUSH2 0x45C7 DUP3 PUSH32 0xE74E5C9D4AC1FC33412485F18C159A0A391EFE287AB3FD271123F30E6BACF4E3 SWAP6 SWAP7 SWAP8 PUSH1 0x1 SLOAD AND PUSH2 0x46A6 JUMP JUMPDEST DUP3 MLOAD SWAP5 DUP6 MSTORE DUP5 ADD MSTORE CALLER SWAP3 LOG2 JUMP JUMPDEST PUSH2 0x45DE DUP6 SWAP2 PUSH2 0x30A6 JUMP JUMPDEST PUSH2 0x733 JUMPI CODESIZE PUSH2 0x4595 JUMP JUMPDEST DUP5 MLOAD RETURNDATASIZE DUP8 DUP3 RETURNDATACOPY RETURNDATASIZE SWAP1 REVERT JUMPDEST SWAP1 SWAP6 POP DUP7 DUP2 DUP2 RETURNDATASIZE DUP4 GT PUSH2 0x461A JUMPI JUMPDEST PUSH2 0x460A DUP2 DUP4 PUSH2 0x30EC JUMP JUMPDEST DUP2 ADD SUB SLT PUSH2 0x402 JUMPI MLOAD SWAP5 CODESIZE PUSH2 0x444E JUMP JUMPDEST POP RETURNDATASIZE PUSH2 0x4600 JUMP JUMPDEST PUSH2 0x462A SWAP1 PUSH2 0x30A6 JUMP JUMPDEST CODESIZE PUSH2 0x4425 JUMP JUMPDEST DUP9 MLOAD RETURNDATASIZE DUP5 DUP3 RETURNDATACOPY RETURNDATASIZE SWAP1 REVERT JUMPDEST DUP7 MLOAD PUSH3 0x461BCD PUSH1 0xE5 SHL DUP2 MSTORE DUP1 DUP6 ADD DUP8 SWAP1 MSTORE PUSH1 0x8 DUP2 DUP6 ADD MSTORE PUSH8 0x2170656E64696E67 PUSH1 0xC0 SHL PUSH1 0x44 DUP3 ADD MSTORE PUSH1 0x64 SWAP1 REVERT JUMPDEST SWAP1 SWAP8 POP DUP6 DUP2 DUP2 RETURNDATASIZE DUP4 GT PUSH2 0x4693 JUMPI JUMPDEST PUSH2 0x467F DUP2 DUP4 PUSH2 0x30EC JUMP JUMPDEST DUP2 ADD SUB SLT PUSH2 0x468F JUMPI MLOAD SWAP7 CODESIZE PUSH2 0x43E3 JUMP JUMPDEST DUP8 DUP1 REVERT JUMPDEST POP RETURNDATASIZE PUSH2 0x4675 JUMP JUMPDEST POP DUP7 MLOAD SWAP1 RETURNDATASIZE SWAP1 DUP3 RETURNDATACOPY RETURNDATASIZE SWAP1 REVERT JUMPDEST PUSH1 0x40 MLOAD PUSH4 0xA9059CBB PUSH1 0xE0 SHL PUSH1 0x20 DUP3 ADD MSTORE PUSH1 0x1 PUSH1 0x1 PUSH1 0xA0 SHL SUB SWAP1 SWAP2 AND PUSH1 0x24 DUP3 ADD MSTORE PUSH1 0x44 DUP2 ADD SWAP2 SWAP1 SWAP2 MSTORE PUSH2 0x3564 SWAP1 PUSH2 0x355F DUP2 PUSH1 0x64 DUP2 ADD PUSH2 0x3551 JUMP JUMPDEST DUP1 ISZERO PUSH2 0x4750 JUMPI PUSH1 0x28 DUP2 MUL DUP2 DUP2 DIV PUSH1 0x28 SUB PUSH2 0x31B3 JUMPI PUSH1 0x64 SWAP1 DIV SWAP1 PUSH1 0x1E DUP2 MUL DUP2 DUP2 DIV PUSH1 0x1E SUB PUSH2 0x31B3 JUMPI PUSH2 0x3564 SWAP3 PUSH2 0x4745 PUSH1 0x64 PUSH2 0x474A SWAP4 DIV SWAP2 PUSH2 0x4721 DUP2 PUSH1 0x11 SLOAD PUSH2 0x34B2 JUMP JUMPDEST PUSH1 0x11 SSTORE PUSH2 0x4730 DUP4 PUSH1 0x12 SLOAD PUSH2 0x34B2 JUMP JUMPDEST PUSH1 0x12 SSTORE PUSH1 0x1 SLOAD PUSH1 0x1 PUSH1 0x1 PUSH1 0xA0 SHL SUB AND SWAP5 PUSH2 0x32E6 JUMP JUMPDEST PUSH2 0x32E6 JUMP JUMPDEST SWAP1 PUSH2 0x46A6 JUMP JUMPDEST POP JUMP JUMPDEST ISZERO PUSH2 0x475A JUMPI JUMP JUMPDEST PUSH1 0x40 MLOAD PUSH3 0x461BCD PUSH1 0xE5 SHL DUP2 MSTORE PUSH1 0x20 PUSH1 0x4 DUP3 ADD MSTORE PUSH1 0x6 PUSH1 0x24 DUP3 ADD MSTORE PUSH6 0x217072696365 PUSH1 0xD0 SHL PUSH1 0x44 DUP3 ADD MSTORE PUSH1 0x64 SWAP1 REVERT JUMPDEST PUSH1 0x5 SLOAD PUSH1 0x0 NOT DUP2 ADD SWAP1 DUP2 GT PUSH2 0x31B3 JUMPI PUSH8 0x4563918244F40000 SWAP1 DUP2 DUP2 MUL SWAP2 DUP2 DUP4 DIV EQ SWAP1 ISZERO OR ISZERO PUSH2 0x31B3 JUMPI PUSH8 0xDE0B6B3A7640000 SWAP1 DUP2 ADD DUP1 SWAP2 GT PUSH2 0x31B3 JUMPI PUSH9 0xAD78EBC5AC6200000 SWAP1 DUP2 DUP2 GT ISZERO PUSH2 0x47DB JUMPI POP SWAP1 JUMP JUMPDEST SWAP1 POP SWAP1 JUMP JUMPDEST PUSH1 0x4 SLOAD PUSH1 0x1 PUSH1 0x1 PUSH1 0xA0 SHL SUB SWAP1 DUP2 AND SWAP2 DUP3 PUSH2 0x4802 JUMPI POP POP POP PUSH1 0x0 SWAP1 PUSH1 0x0 SWAP1 PUSH1 0x0 SWAP1 JUMP JUMPDEST PUSH1 0x40 DUP1 MLOAD PUSH4 0x21CB1583 PUSH1 0xE1 SHL DUP2 MSTORE SWAP2 SWAP1 SWAP3 AND PUSH1 0x4 DUP3 ADD DUP2 SWAP1 MSTORE SWAP4 SWAP2 SWAP3 PUSH1 0x20 DUP1 DUP4 PUSH1 0x24 DUP2 DUP6 GAS STATICCALL SWAP3 DUP4 ISZERO PUSH2 0x493A JUMPI PUSH1 0x0 SWAP4 PUSH2 0x490B JUMPI JUMPDEST POP DUP5 MLOAD PUSH4 0x8FC0F5EB PUSH1 0xE0 SHL DUP2 MSTORE PUSH1 0x4 DUP2 ADD DUP8 SWAP1 MSTORE SWAP6 DUP2 DUP8 PUSH1 0x24 DUP2 DUP7 GAS STATICCALL SWAP7 DUP8 ISZERO PUSH2 0x4900 JUMPI PUSH1 0x0 SWAP8 PUSH2 0x48D1 JUMPI JUMPDEST POP DUP2 SWAP1 PUSH1 0x24 DUP8 MLOAD DUP1 SWAP6 DUP2 SWAP4 PUSH4 0x63393FD PUSH1 0xE1 SHL DUP4 MSTORE PUSH1 0x4 DUP4 ADD MSTORE GAS STATICCALL SWAP5 DUP6 ISZERO PUSH2 0x48C7 JUMPI POP PUSH1 0x0 SWAP5 PUSH2 0x4896 JUMPI JUMPDEST POP POP SWAP3 SWAP2 SWAP1 JUMP JUMPDEST DUP2 DUP2 SWAP6 SWAP3 SWAP4 SWAP6 RETURNDATASIZE DUP4 GT PUSH2 0x48C0 JUMPI JUMPDEST PUSH2 0x48AE DUP2 DUP4 PUSH2 0x30EC JUMP JUMPDEST DUP2 ADD SUB SLT PUSH2 0x96C JUMPI POP MLOAD SWAP2 CODESIZE DUP1 PUSH2 0x488F JUMP JUMPDEST POP RETURNDATASIZE PUSH2 0x48A4 JUMP JUMPDEST MLOAD RETURNDATASIZE PUSH1 0x0 DUP3 RETURNDATACOPY RETURNDATASIZE SWAP1 REVERT JUMPDEST SWAP1 SWAP7 DUP3 DUP3 DUP2 RETURNDATASIZE DUP4 GT PUSH2 0x48F9 JUMPI JUMPDEST PUSH2 0x48E8 DUP2 DUP4 PUSH2 0x30EC JUMP JUMPDEST DUP2 ADD SUB SLT PUSH2 0x96C JUMPI POP MLOAD SWAP6 DUP2 PUSH2 0x4863 JUMP JUMPDEST POP RETURNDATASIZE PUSH2 0x48DE JUMP JUMPDEST DUP7 MLOAD RETURNDATASIZE PUSH1 0x0 DUP3 RETURNDATACOPY RETURNDATASIZE SWAP1 REVERT JUMPDEST SWAP1 SWAP3 DUP4 DUP3 DUP2 RETURNDATASIZE DUP4 GT PUSH2 0x4933 JUMPI JUMPDEST PUSH2 0x4922 DUP2 DUP4 PUSH2 0x30EC JUMP JUMPDEST DUP2 ADD SUB SLT PUSH2 0x96C JUMPI POP MLOAD SWAP2 CODESIZE PUSH2 0x4837 JUMP JUMPDEST POP RETURNDATASIZE PUSH2 0x4918 JUMP JUMPDEST DUP6 MLOAD RETURNDATASIZE PUSH1 0x0 DUP3 RETURNDATACOPY RETURNDATASIZE SWAP1 REVERT JUMPDEST PUSH1 0x4 SLOAD PUSH1 0x1 PUSH1 0x1 PUSH1 0xA0 SHL SUB SWAP1 DUP2 AND SWAP2 SWAP1 DUP3 PUSH2 0x4962 JUMPI POP POP POP PUSH1 0x0 SWAP1 JUMP JUMPDEST PUSH1 0x24 PUSH1 0x20 SWAP3 PUSH1 0x40 MLOAD SWAP5 DUP6 SWAP4 DUP5 SWAP3 PUSH4 0x63393FD PUSH1 0xE1 SHL DUP5 MSTORE AND PUSH1 0x4 DUP4 ADD MSTORE GAS STATICCALL SWAP1 DUP2 ISZERO PUSH2 0x49C1 JUMPI PUSH1 0x0 SWAP2 PUSH2 0x4993 JUMPI POP SWAP1 JUMP JUMPDEST SWAP1 PUSH1 0x20 DUP3 RETURNDATASIZE DUP3 GT PUSH2 0x49B9 JUMPI JUMPDEST DUP2 PUSH2 0x49AC PUSH1 0x20 SWAP4 DUP4 PUSH2 0x30EC JUMP JUMPDEST DUP2 ADD SUB SLT PUSH2 0x96C JUMPI POP MLOAD SWAP1 JUMP JUMPDEST RETURNDATASIZE SWAP2 POP PUSH2 0x499F JUMP JUMPDEST PUSH1 0x40 MLOAD RETURNDATASIZE PUSH1 0x0 DUP3 RETURNDATACOPY RETURNDATASIZE SWAP1 REVERT INVALID STOP STOP STOP STOP STOP STOP STOP STOP STOP STOP STOP STOP 0x27 0x4A 0xCC PUSH4 0x97349F21 OR SWAP15 0xD6 0x25 DUP11 SLOAD 0xB2 LOG1 SHL 0x28 STATICCALL CREATE2 SWAP9 0xAD 0xA7 EXP SHR 0xB5 MOD 0xDC GASLIMIT SWAP2 CHAINID 0x5E 0x1E 0xE9 0xBE EXTCODEHASH 0xD7 LOG2 0xB6 0xC7 RETURNDATACOPY 0xCF EXTCODESIZE SWAP5 SWAP1 MULMOD PUSH18 0x8C9A351519A2646970667358221220773EAA PUSH28 0x51E826C9866D6D74922BB0F4C836720752EB86D67EA1D2C1E2F7E4A2 PUSH5 0x736F6C6343 STOP ADDMOD GT STOP CALLER "},"methodIdentifiers":{"BURN_STOP_THRESHOLD()":"f5d7abb3","BUY_FEE()":"27b9bb9c","CLAIM_BNB_FEE()":"cf9fcbaf","DAILY_LIMIT()":"248ec326","DAO()":"98fabd3a","DAO_RATE()":"c99cf447","DIRECT_RATE()":"b44b5fc1","ENERGY_MUL()":"222d3177","FEE_FOUNDATION_RATE()":"682e481f","FEE_NODE_RATE()":"a4a0365c","FEE_PARTNER_RATE()":"83b5601e","FOUNDATION()":"65df2e51","INITIAL_SUPPLY()":"2ff2e9dc","INS()":"452dbfa7","INS_RATE()":"8da09c15","INVEST_MIN()":"9baa944d","MGR_RATE()":"138f1c10","OP()":"7c9c3472","OP_RATE()":"24929d75","OWNER()":"117803e3","PHASE_STEP()":"43469f07","ROUTER()":"32fe7b26","SEE_RATE()":"b0d8b72a","SELL_FEE()":"4773a6a9","SLIPPAGE()":"36b4134a","SOL()":"06e46610","STAKE_OP()":"f88cc9e2","WITHDRAW_FEE()":"9bff5ddb","addToBlacklist(address)":"44337ea1","adminWithdrawDQ(uint256)":"4abd04df","adminWithdrawSOL(uint256)":"197c7c10","advancePhase()":"be25a718","allUsers(uint256)":"a2bdedf4","approveRouter()":"6991b45c","authorized(address)":"b9181611","buyNode(uint256)":"edd47fe6","claimDTeam()":"99dc0025","claimFee()":"99d32fc4","claimLP()":"de44391a","claimNft()":"5ae2afa4","claimPartnerBNB()":"2d1d79a9","claimPartnerDQ()":"914fafd2","claimReward()":"b88a802f","claimStakeReward(uint256)":"e506b25b","currentPhase()":"055ad42e","dailyDeposit(address)":"f1ddb70c","depositForUser(address,uint256)":"cbd076f8","depositSOL(uint256)":"5b387f3d","depositWhiteList(address)":"21a1b044","distributeFeeToNFT(uint256)":"48e2219f","dqCard()":"a53f57bc","dqToken()":"f043369b","getAllUsersLength()":"b00b968b","getDailyLimit()":"a6895b5a","getPendingSOL(address)":"0c6727fa","getTeamSize(address)":"519f1640","getUser(address)":"6f77926b","getUserStake(address)":"bbadc93a","grantAuth(address)":"7225d3c9","importNodes(address[],uint8[])":"0cc9771c","importUser(address,address)":"32dadc3e","importUsers(address[],address[])":"b08d2442","isBlacklisted(address)":"fe575a87","mineBlock()":"78a1ff8f","nftPendingSOL()":"cc68410e","nodePrices(uint256)":"a1b61a60","partnerPendingSOL()":"a7d1a97c","register(address)":"4420e486","reinvest(uint256)":"83b4918b","removeFromBlacklist(address)":"537df3b6","revokeAuth(address)":"f8171dfa","sellDQForSOL(uint256)":"9630498b","setDQCard(address)":"3ffcca1b","setDQToken(address)":"63386639","setDepositWhiteList(address,bool)":"3c766035","setFoundation(address)":"db3543f5","setNodesDLevel(address[],uint8[])":"1267f4f9","setNodesLevel(address[],uint8[])":"1186873f","setReferrer(address,address)":"bbddaca3","setSlippage(uint256)":"f0fa55a9","setStakeContract(address)":"509484d5","setUserDLevel(address,uint8)":"a2108a43","setUserLevel(address,uint8)":"392075b2","stakeContract()":"1a186227","stakeDQ(uint256,uint256)":"86e6c41d","startTime()":"78e97925","unstakeDQ(uint256)":"2288957e","withdraw(uint256)":"2e1a7d4d","withdrawBNB(address,uint256)":"a97af1f2"}}}}}