{"src/DQC.sol":{"DQCard":{"abi":[{"inputs":[],"stateMutability":"nonpayable","type":"constructor"},{"inputs":[],"name":"ERC721EnumerableForbiddenBatchMint","type":"error"},{"inputs":[{"internalType":"address","name":"sender","type":"address"},{"internalType":"uint256","name":"tokenId","type":"uint256"},{"internalType":"address","name":"owner","type":"address"}],"name":"ERC721IncorrectOwner","type":"error"},{"inputs":[{"internalType":"address","name":"operator","type":"address"},{"internalType":"uint256","name":"tokenId","type":"uint256"}],"name":"ERC721InsufficientApproval","type":"error"},{"inputs":[{"internalType":"address","name":"approver","type":"address"}],"name":"ERC721InvalidApprover","type":"error"},{"inputs":[{"internalType":"address","name":"operator","type":"address"}],"name":"ERC721InvalidOperator","type":"error"},{"inputs":[{"internalType":"address","name":"owner","type":"address"}],"name":"ERC721InvalidOwner","type":"error"},{"inputs":[{"internalType":"address","name":"receiver","type":"address"}],"name":"ERC721InvalidReceiver","type":"error"},{"inputs":[{"internalType":"address","name":"sender","type":"address"}],"name":"ERC721InvalidSender","type":"error"},{"inputs":[{"internalType":"uint256","name":"tokenId","type":"uint256"}],"name":"ERC721NonexistentToken","type":"error"},{"inputs":[{"internalType":"address","name":"owner","type":"address"},{"internalType":"uint256","name":"index","type":"uint256"}],"name":"ERC721OutOfBoundsIndex","type":"error"},{"inputs":[{"internalType":"address","name":"owner","type":"address"}],"name":"OwnableInvalidOwner","type":"error"},{"inputs":[{"internalType":"address","name":"account","type":"address"}],"name":"OwnableUnauthorizedAccount","type":"error"},{"inputs":[{"internalType":"address","name":"token","type":"address"}],"name":"SafeERC20FailedOperation","type":"error"},{"anonymous":false,"inputs":[{"indexed":true,"internalType":"address","name":"adminContract","type":"address"}],"name":"AdminContractUpdated","type":"event"},{"anonymous":false,"inputs":[{"indexed":true,"internalType":"address","name":"owner","type":"address"},{"indexed":true,"internalType":"address","name":"approved","type":"address"},{"indexed":true,"internalType":"uint256","name":"tokenId","type":"uint256"}],"name":"Approval","type":"event"},{"anonymous":false,"inputs":[{"indexed":true,"internalType":"address","name":"owner","type":"address"},{"indexed":true,"internalType":"address","name":"operator","type":"address"},{"indexed":false,"internalType":"bool","name":"approved","type":"bool"}],"name":"ApprovalForAll","type":"event"},{"anonymous":false,"inputs":[{"indexed":true,"internalType":"address","name":"to","type":"address"},{"indexed":true,"internalType":"uint256","name":"tokenId","type":"uint256"},{"indexed":false,"internalType":"uint256","name":"cardType","type":"uint256"}],"name":"CardMinted","type":"event"},{"anonymous":false,"inputs":[{"indexed":true,"internalType":"address","name":"buyer","type":"address"},{"indexed":true,"internalType":"uint256","name":"tokenId","type":"uint256"},{"indexed":false,"internalType":"uint256","name":"cardType","type":"uint256"},{"indexed":false,"internalType":"uint256","name":"price","type":"uint256"}],"name":"CardPurchased","type":"event"},{"anonymous":false,"inputs":[{"indexed":false,"internalType":"uint8","name":"cardType","type":"uint8"},{"indexed":false,"internalType":"uint256","name":"newMax","type":"uint256"}],"name":"MaxSupplyUpdated","type":"event"},{"anonymous":false,"inputs":[{"indexed":true,"internalType":"address","name":"user","type":"address"},{"indexed":false,"internalType":"uint256","name":"performance","type":"uint256"}],"name":"NodePerformanceUpdated","type":"event"},{"anonymous":false,"inputs":[{"indexed":true,"internalType":"address","name":"previousOwner","type":"address"},{"indexed":true,"internalType":"address","name":"newOwner","type":"address"}],"name":"OwnershipTransferred","type":"event"},{"anonymous":false,"inputs":[{"indexed":true,"internalType":"address","name":"from","type":"address"},{"indexed":true,"internalType":"address","name":"to","type":"address"},{"indexed":true,"internalType":"uint256","name":"tokenId","type":"uint256"}],"name":"Transfer","type":"event"},{"anonymous":false,"inputs":[{"indexed":true,"internalType":"address","name":"treasury","type":"address"}],"name":"TreasuryUpdated","type":"event"},{"inputs":[],"name":"CARD_A","outputs":[{"internalType":"uint256","name":"","type":"uint256"}],"stateMutability":"view","type":"function"},{"inputs":[],"name":"CARD_B","outputs":[{"internalType":"uint256","name":"","type":"uint256"}],"stateMutability":"view","type":"function"},{"inputs":[],"name":"CARD_C","outputs":[{"internalType":"uint256","name":"","type":"uint256"}],"stateMutability":"view","type":"function"},{"inputs":[],"name":"MAX_A","outputs":[{"internalType":"uint256","name":"","type":"uint256"}],"stateMutability":"view","type":"function"},{"inputs":[],"name":"MAX_B","outputs":[{"internalType":"uint256","name":"","type":"uint256"}],"stateMutability":"view","type":"function"},{"inputs":[],"name":"MAX_C","outputs":[{"internalType":"uint256","name":"","type":"uint256"}],"stateMutability":"view","type":"function"},{"inputs":[],"name":"PRICE_A","outputs":[{"internalType":"uint256","name":"","type":"uint256"}],"stateMutability":"view","type":"function"},{"inputs":[],"name":"PRICE_B","outputs":[{"internalType":"uint256","name":"","type":"uint256"}],"stateMutability":"view","type":"function"},{"inputs":[],"name":"PRICE_C","outputs":[{"internalType":"uint256","name":"","type":"uint256"}],"stateMutability":"view","type":"function"},{"inputs":[],"name":"USDT","outputs":[{"internalType":"address","name":"","type":"address"}],"stateMutability":"view","type":"function"},{"inputs":[],"name":"adminContract","outputs":[{"internalType":"address","name":"","type":"address"}],"stateMutability":"view","type":"function"},{"inputs":[{"internalType":"address","name":"to","type":"address"},{"internalType":"uint256","name":"tokenId","type":"uint256"}],"name":"approve","outputs":[],"stateMutability":"nonpayable","type":"function"},{"inputs":[{"internalType":"address","name":"owner","type":"address"}],"name":"balanceOf","outputs":[{"internalType":"uint256","name":"","type":"uint256"}],"stateMutability":"view","type":"function"},{"inputs":[{"internalType":"uint256","name":"_type","type":"uint256"}],"name":"buyCard","outputs":[],"stateMutability":"nonpayable","type":"function"},{"inputs":[{"internalType":"uint256","name":"","type":"uint256"}],"name":"cardType","outputs":[{"internalType":"uint256","name":"","type":"uint256"}],"stateMutability":"view","type":"function"},{"inputs":[],"name":"coreContract","outputs":[{"internalType":"address","name":"","type":"address"}],"stateMutability":"view","type":"function"},{"inputs":[{"internalType":"uint256","name":"tokenId","type":"uint256"}],"name":"getApproved","outputs":[{"internalType":"address","name":"","type":"address"}],"stateMutability":"view","type":"function"},{"inputs":[{"internalType":"uint256","name":"_type","type":"uint256"}],"name":"getCardPrice","outputs":[{"internalType":"uint256","name":"","type":"uint256"}],"stateMutability":"pure","type":"function"},{"inputs":[{"internalType":"address","name":"_user","type":"address"}],"name":"getNodePerformance","outputs":[{"internalType":"uint256","name":"","type":"uint256"}],"stateMutability":"view","type":"function"},{"inputs":[],"name":"getRemainingSupply","outputs":[{"internalType":"uint256","name":"a","type":"uint256"},{"internalType":"uint256","name":"b","type":"uint256"},{"internalType":"uint256","name":"c","type":"uint256"}],"stateMutability":"view","type":"function"},{"inputs":[{"internalType":"address","name":"_user","type":"address"},{"internalType":"uint256","name":"_type","type":"uint256"}],"name":"getUserCardCount","outputs":[{"internalType":"uint256","name":"","type":"uint256"}],"stateMutability":"view","type":"function"},{"inputs":[{"internalType":"address","name":"owner","type":"address"},{"internalType":"address","name":"operator","type":"address"}],"name":"isApprovedForAll","outputs":[{"internalType":"bool","name":"","type":"bool"}],"stateMutability":"view","type":"function"},{"inputs":[],"name":"miningContract","outputs":[{"internalType":"address","name":"","type":"address"}],"stateMutability":"view","type":"function"},{"inputs":[{"internalType":"address[]","name":"_to","type":"address[]"},{"internalType":"uint256[]","name":"_types","type":"uint256[]"}],"name":"mintBatchByOwner","outputs":[],"stateMutability":"nonpayable","type":"function"},{"inputs":[{"internalType":"address","name":"_to","type":"address"},{"internalType":"uint256","name":"_type","type":"uint256"}],"name":"mintByOwner","outputs":[],"stateMutability":"nonpayable","type":"function"},{"inputs":[],"name":"name","outputs":[{"internalType":"string","name":"","type":"string"}],"stateMutability":"view","type":"function"},{"inputs":[],"name":"owner","outputs":[{"internalType":"address","name":"","type":"address"}],"stateMutability":"view","type":"function"},{"inputs":[{"internalType":"uint256","name":"tokenId","type":"uint256"}],"name":"ownerOf","outputs":[{"internalType":"address","name":"","type":"address"}],"stateMutability":"view","type":"function"},{"inputs":[],"name":"renounceOwnership","outputs":[],"stateMutability":"nonpayable","type":"function"},{"inputs":[{"internalType":"address","name":"from","type":"address"},{"internalType":"address","name":"to","type":"address"},{"internalType":"uint256","name":"tokenId","type":"uint256"}],"name":"safeTransferFrom","outputs":[],"stateMutability":"nonpayable","type":"function"},{"inputs":[{"internalType":"address","name":"from","type":"address"},{"internalType":"address","name":"to","type":"address"},{"internalType":"uint256","name":"tokenId","type":"uint256"},{"internalType":"bytes","name":"data","type":"bytes"}],"name":"safeTransferFrom","outputs":[],"stateMutability":"nonpayable","type":"function"},{"inputs":[{"internalType":"address","name":"_addr","type":"address"}],"name":"setAdminContract","outputs":[],"stateMutability":"nonpayable","type":"function"},{"inputs":[{"internalType":"address","name":"operator","type":"address"},{"internalType":"bool","name":"approved","type":"bool"}],"name":"setApprovalForAll","outputs":[],"stateMutability":"nonpayable","type":"function"},{"inputs":[{"internalType":"address","name":"_c","type":"address"}],"name":"setCoreContract","outputs":[],"stateMutability":"nonpayable","type":"function"},{"inputs":[{"internalType":"uint256","name":"_max","type":"uint256"}],"name":"setMaxA","outputs":[],"stateMutability":"nonpayable","type":"function"},{"inputs":[{"internalType":"uint256","name":"_max","type":"uint256"}],"name":"setMaxB","outputs":[],"stateMutability":"nonpayable","type":"function"},{"inputs":[{"internalType":"uint256","name":"_max","type":"uint256"}],"name":"setMaxC","outputs":[],"stateMutability":"nonpayable","type":"function"},{"inputs":[{"internalType":"address","name":"_m","type":"address"}],"name":"setMiningContract","outputs":[],"stateMutability":"nonpayable","type":"function"},{"inputs":[{"internalType":"address","name":"_s","type":"address"}],"name":"setStakeContract","outputs":[],"stateMutability":"nonpayable","type":"function"},{"inputs":[{"internalType":"address","name":"_treasury","type":"address"}],"name":"setTreasury","outputs":[],"stateMutability":"nonpayable","type":"function"},{"inputs":[],"name":"stakeContract","outputs":[{"internalType":"address","name":"","type":"address"}],"stateMutability":"view","type":"function"},{"inputs":[{"internalType":"bytes4","name":"interfaceId","type":"bytes4"}],"name":"supportsInterface","outputs":[{"internalType":"bool","name":"","type":"bool"}],"stateMutability":"view","type":"function"},{"inputs":[],"name":"symbol","outputs":[{"internalType":"string","name":"","type":"string"}],"stateMutability":"view","type":"function"},{"inputs":[{"internalType":"uint256","name":"index","type":"uint256"}],"name":"tokenByIndex","outputs":[{"internalType":"uint256","name":"","type":"uint256"}],"stateMutability":"view","type":"function"},{"inputs":[{"internalType":"address","name":"owner","type":"address"},{"internalType":"uint256","name":"index","type":"uint256"}],"name":"tokenOfOwnerByIndex","outputs":[{"internalType":"uint256","name":"","type":"uint256"}],"stateMutability":"view","type":"function"},{"inputs":[{"internalType":"uint256","name":"tokenId","type":"uint256"}],"name":"tokenURI","outputs":[{"internalType":"string","name":"","type":"string"}],"stateMutability":"view","type":"function"},{"inputs":[],"name":"totalA","outputs":[{"internalType":"uint256","name":"","type":"uint256"}],"stateMutability":"view","type":"function"},{"inputs":[],"name":"totalB","outputs":[{"internalType":"uint256","name":"","type":"uint256"}],"stateMutability":"view","type":"function"},{"inputs":[],"name":"totalC","outputs":[{"internalType":"uint256","name":"","type":"uint256"}],"stateMutability":"view","type":"function"},{"inputs":[],"name":"totalSupply","outputs":[{"internalType":"uint256","name":"","type":"uint256"}],"stateMutability":"view","type":"function"},{"inputs":[{"internalType":"address","name":"from","type":"address"},{"internalType":"address","name":"to","type":"address"},{"internalType":"uint256","name":"tokenId","type":"uint256"}],"name":"transferFrom","outputs":[],"stateMutability":"nonpayable","type":"function"},{"inputs":[{"internalType":"address","name":"newOwner","type":"address"}],"name":"transferOwnership","outputs":[],"stateMutability":"nonpayable","type":"function"},{"inputs":[],"name":"treasury","outputs":[{"internalType":"address","name":"","type":"address"}],"stateMutability":"view","type":"function"},{"inputs":[{"internalType":"address","name":"","type":"address"}],"name":"userNodePerformance","outputs":[{"internalType":"uint256","name":"","type":"uint256"}],"stateMutability":"view","type":"function"},{"inputs":[{"internalType":"address","name":"_token","type":"address"},{"internalType":"address","name":"_to","type":"address"},{"internalType":"uint256","name":"_amount","type":"uint256"}],"name":"withdrawToken","outputs":[],"stateMutability":"nonpayable","type":"function"}],"evm":{"bytecode":{"linkReferences":{},"object":"60806040526103e8600b556101f4600c556064600d55348015610020575f5ffd5b5073274acc6397349f21179ed6258a54b2a11b28faf56040518060400160405280600781526020016611144810d85c9960ca1b8152506040518060400160405280600381526020016244514360e81b815250815f908161008091906101c0565b50600161008d82826101c0565b5050506001600160a01b0381166100bd57604051631e4fbdf760e01b81525f600482015260240160405180910390fd5b6100c6816100cc565b5061027e565b600a80546001600160a01b038381166001600160a01b0319831681179093556040519116919082907f8be0079c531659141344cd1fd0a4f28419497f9722a3daafe3b4186f6b6457e0905f90a35050565b634e487b7160e01b5f52604160045260245ffd5b600181811c9082168061014557607f821691505b60208210810361016357634e487b7160e01b5f52602260045260245ffd5b50919050565b601f8211156101bb57828211156101bb57805f5260205f20601f840160051c602085101561019457505f5b90810190601f840160051c035f5b818110156101b7575f838201556001016101a2565b5050505b505050565b81516001600160401b038111156101d9576101d961011d565b6101ed816101e78454610131565b84610169565b6020601f82116001811461021f575f83156102085750848201515b5f19600385901b1c1916600184901b178455610277565b5f84815260208120601f198516915b8281101561024e578785015182556020948501946001909201910161022e565b508482101561026b57868401515f19600387901b60f8161c191681555b505060018360011b0184555b5050505050565b612b058061028b5f395ff3fe608060405234801561000f575f5ffd5b506004361061034d575f3560e01c8063706374f5116101c9578063c54e44eb116100fe578063e80db5db1161009e578063f26841bd11610079578063f26841bd14610714578063f2fde38b1461071d578063f6a2a9a114610730578063fcf49adf14610743575f5ffd5b8063e80db5db146106db578063e985e9c5146106ee578063f0f4426014610701575f5ffd5b8063c87b56dd116100d9578063c87b56dd1461067d578063d15dfe2d14610690578063e4b7fb7314610699578063e4cec420146106bc575f5ffd5b8063c54e44eb1461063c578063c626669314610657578063c70f5eaa1461066a575f5ffd5b806395d89b4111610169578063b629640b11610144578063b629640b146105fa578063b88d4fde14610603578063bef2813514610616578063c05c5e9414610629575f5ffd5b806395d89b41146105b7578063a22cb465146105bf578063aed1f157146105d2575f5ffd5b806373cda3e4116101a457806373cda3e4146105795780638485391a1461058a5780638da5cb5b1461059357806391564697146105a4575f5ffd5b8063706374f51461054b57806370a082311461055e578063715018a614610571575f5ffd5b806323b872dd1161029f57806352b03c2f1161023f5780636352211e1161021a5780636352211e146104ff57806363a812f9146105125780636866537d14610525578063702f532114610538575f5ffd5b806352b03c2f146104d457806353d79447146104dc57806361d027b3146104ec575f5ffd5b8063396984151161027a578063396984151461049257806342842e0e1461049b5780634f6ccce7146104ae578063509484d5146104c1575f5ffd5b806323b872dd146104595780632f745c591461046c5780633542aee21461047f575f5ffd5b806312f941341161030a57806318160ddd116102e557806318160ddd1461042d57806318a8ac7714610435578063193491b51461043d5780631a18622714610446575f5ffd5b806312f941341461040257806313eeea081461041557806315ad6f6114610425575f5ffd5b806301e336671461035157806301ffc9a71461036657806306fdde031461038e578063081812fc146103a3578063095ea7b3146103ce578063096e233e146103e1575b5f5ffd5b61036461035f36600461264b565b610762565b005b61037961037436600461269a565b6108a6565b60405190151581526020015b60405180910390f35b6103966108d0565b60405161038591906126e3565b6103b66103b13660046126f5565b61095f565b6040516001600160a01b039091168152602001610385565b6103646103dc36600461270c565b610986565b6103f46103ef36600461270c565b610995565b604051908152602001610385565b6103646104103660046126f5565b6109f1565b6103f4681b1ae4d6e2ef50000081565b6103f4600281565b6008546103f4565b6103f4600381565b6103f4600f5481565b6014546103b6906001600160a01b031681565b61036461046736600461264b565b610a73565b6103f461047a36600461270c565b610af6565b61036461048d36600461270c565b610b59565b6103f4600b5481565b6103646104a936600461264b565b610bb7565b6103f46104bc3660046126f5565b610bd1565b6103646104cf366004612734565b610c26565b6103f4600181565b6103f4685150ae84a8cdf0000081565b6011546103b6906001600160a01b031681565b6103b661050d3660046126f5565b610c87565b610364610520366004612734565b610c91565b6103f46105333660046126f5565b610d19565b610364610546366004612734565b610d6a565b610364610559366004612795565b610dcb565b6103f461056c366004612734565b610eac565b610364610ef1565b6103f469010f0cf064dd5920000081565b6103f4600c5481565b600a546001600160a01b03166103b6565b6012546103b6906001600160a01b031681565b610396610f04565b6103646105cd366004612801565b610f13565b6103f46105e0366004612734565b6001600160a01b03165f9081526017602052604090205490565b6103f4600e5481565b61036461061136600461284e565b610f1e565b6103646106243660046126f5565b610f36565b6013546103b6906001600160a01b031681565b6103b67355d398326f99059ff775485246999027b319795581565b610364610665366004612734565b610fb1565b6103646106783660046126f5565b611012565b61039661068b3660046126f5565b611402565b6103f460105481565b6106a1611473565b60408051938452602084019290925290820152606001610385565b6103f46106ca366004612734565b60176020525f908152604090205481565b6015546103b6906001600160a01b031681565b6103796106fc36600461292b565b6114b1565b61036461070f366004612734565b6114de565b6103f4600d5481565b61036461072b366004612734565b611566565b61036461073e3660046126f5565b6115a3565b6103f46107513660046126f5565b60166020525f908152604090205481565b600a546001600160a01b031633148061078557506013546001600160a01b031633145b6107aa5760405162461bcd60e51b81526004016107a19061295c565b60405180910390fd5b6001600160a01b0382166107e85760405162461bcd60e51b8152602060048201526005602482015264217a65726f60d81b60448201526064016107a1565b6001600160a01b03831661088d575f826001600160a01b0316826040515f6040518083038185875af1925050503d805f811461083f576040519150601f19603f3d011682016040523d82523d5f602084013e610844565b606091505b50509050806108875760405162461bcd60e51b815260206004820152600f60248201526e1d1c985b9cd9995c8819985a5b1959608a1b60448201526064016107a1565b50505050565b6108a16001600160a01b038416838361161e565b505050565b5f6001600160e01b0319821663780e9d6360e01b14806108ca57506108ca82611653565b92915050565b60605f80546108de9061297b565b80601f016020809104026020016040519081016040528092919081815260200182805461090a9061297b565b80156109555780601f1061092c57610100808354040283529160200191610955565b820191905f5260205f20905b81548152906001019060200180831161093857829003601f168201915b5050505050905090565b5f610969826116a2565b505f828152600460205260409020546001600160a01b03166108ca565b6109918282336116da565b5050565b5f5f5f6109a185610eac565b90505f5b818110156109e7575f6109b88783610af6565b5f818152601660205260409020549091508690036109de57836109da816129c7565b9450505b506001016109a5565b5090949350505050565b600a546001600160a01b0316331480610a1457506013546001600160a01b031633145b610a305760405162461bcd60e51b81526004016107a19061295c565b600b8190556040805160018152602081018390527fb92303fd2b1df67a887cbf19ea12a277783c2912e1ed5606d43c6c033c4d60e091015b60405180910390a150565b6001600160a01b038216610a9c57604051633250574960e11b81525f60048201526024016107a1565b5f610aa88383336116e7565b9050836001600160a01b0316816001600160a01b031614610887576040516364283d7b60e01b81526001600160a01b03808616600483015260248201849052821660448201526064016107a1565b5f610b0083610eac565b8210610b315760405163295f44f760e21b81526001600160a01b0384166004820152602481018390526044016107a1565b506001600160a01b03919091165f908152600660209081526040808320938352929052205490565b6014546001600160a01b0316331480610b7c5750600a546001600160a01b031633145b610bad5760405162461bcd60e51b8152602060048201526002602482015261216d60f01b60448201526064016107a1565b6109918282611834565b6108a183838360405180602001604052805f815250610f1e565b5f610bdb60085490565b8210610c035760405163295f44f760e21b81525f6004820152602481018390526044016107a1565b60088281548110610c1657610c166129df565b905f5260205f2001549050919050565b600a546001600160a01b0316331480610c4957506013546001600160a01b031633145b610c655760405162461bcd60e51b81526004016107a19061295c565b601480546001600160a01b0319166001600160a01b0392909216919091179055565b5f6108ca826116a2565b600a546001600160a01b0316331480610cb457506013546001600160a01b031633145b610cd05760405162461bcd60e51b81526004016107a19061295c565b601380546001600160a01b0319166001600160a01b0383169081179091556040517fa36142288b0f426e10fa5751064474c8752affb9516d10b56c3ae2cd5693e925905f90a250565b5f60018203610d325750681b1ae4d6e2ef500000919050565b60028203610d4a5750685150ae84a8cdf00000919050565b60038203610d63575069010f0cf064dd59200000919050565b505f919050565b600a546001600160a01b0316331480610d8d57506013546001600160a01b031633145b610da95760405162461bcd60e51b81526004016107a19061295c565b601280546001600160a01b0319166001600160a01b0392909216919091179055565b600a546001600160a01b0316331480610dee57506013546001600160a01b031633145b610e0a5760405162461bcd60e51b81526004016107a19061295c565b828114610e4b5760405162461bcd60e51b815260206004820152600f60248201526e0d8cadccee8d040dad2e6dac2e8c6d608b1b60448201526064016107a1565b5f5b83811015610ea557610e9d858583818110610e6a57610e6a6129df565b9050602002016020810190610e7f9190612734565b848484818110610e9157610e916129df565b90506020020135611834565b600101610e4d565b5050505050565b5f6001600160a01b038216610ed6576040516322718ad960e21b81525f60048201526024016107a1565b506001600160a01b03165f9081526003602052604090205490565b610ef9611bcf565b610f025f611bfc565b565b6060600180546108de9061297b565b610991338383611c4d565b610f29848484610a73565b6108873385858585611d0c565b600a546001600160a01b0316331480610f5957506013546001600160a01b031633145b610f755760405162461bcd60e51b81526004016107a19061295c565b600d8190556040805160038152602081018390527fb92303fd2b1df67a887cbf19ea12a277783c2912e1ed5606d43c6c033c4d60e09101610a68565b600a546001600160a01b0316331480610fd457506013546001600160a01b031633145b610ff05760405162461bcd60e51b81526004016107a19061295c565b601580546001600160a01b0319166001600160a01b0392909216919091179055565b60018110158015611024575060038111155b61105f5760405162461bcd60e51b815260206004820152600c60248201526b696e76616c6964207479706560a01b60448201526064016107a1565b6011546001600160a01b03166110a35760405162461bcd60e51b815260206004820152600960248201526821747265617375727960b81b60448201526064016107a1565b5f6001820361111657600b54600e54106110f15760405162461bcd60e51b815260206004820152600f60248201526e104818d85c99081cdbdb19081bdd5d608a1b60448201526064016107a1565b600e8054905f611100836129c7565b9190505550681b1ae4d6e2ef50000090506111ef565b6002820361118857600c54600f54106111635760405162461bcd60e51b815260206004820152600f60248201526e108818d85c99081cdbdb19081bdd5d608a1b60448201526064016107a1565b600f8054905f611172836129c7565b9190505550685150ae84a8cdf0000090506111ef565b600d54601054106111cd5760405162461bcd60e51b815260206004820152600f60248201526e10c818d85c99081cdbdb19081bdd5d608a1b60448201526064016107a1565b60108054905f6111dc836129c7565b919050555069010f0cf064dd5920000090505b60115461121d907355d398326f99059ff775485246999027b31979559033906001600160a01b031684611e33565b5f61122760085490565b6112329060016129f3565b905061123e3382611e69565b5f81815260166020908152604080832086905533835260179091528120805484929061126b9084906129f3565b9091555050335f818152601760209081526040918290205491519182525f516020612ab05f395f51905f52910160405180910390a26014546001600160a01b0316156113bf575f5f1984016112c2575060016112de565b600284036112d2575060026112de565b600384036112de575060035b60ff8116156113bd57601454604051631c903ad960e11b815233600482015260ff831660248201526001600160a01b039091169063392075b2906044015f604051808303815f87803b158015611332575f5ffd5b505af1158015611344573d5f5f3e3d5ffd5b50506015546001600160a01b03161591506113bd905057601554604051631c903ad960e11b815233600482015260ff831660248201526001600160a01b039091169063392075b2906044015f604051808303815f87803b1580156113a6575f5ffd5b505af11580156113b8573d5f5f3e3d5ffd5b505050505b505b6040805184815260208101849052829133917f043c7138120d6082be37dbbf053360a3f7ef694833241b0458183bd5f61c315991015b60405180910390a3505050565b606061140d826116a2565b505f61142360408051602081019091525f815290565b90505f8151116114415760405180602001604052805f81525061146c565b8061144b84611e82565b60405160200161145c929190612a1d565b6040516020818303038152906040525b9392505050565b5f5f5f600e54600b546114869190612a31565b9250600f54600c546114989190612a31565b9150601054600d546114aa9190612a31565b9050909192565b6001600160a01b039182165f90815260056020908152604080832093909416825291909152205460ff1690565b600a546001600160a01b031633148061150157506013546001600160a01b031633145b61151d5760405162461bcd60e51b81526004016107a19061295c565b601180546001600160a01b0319166001600160a01b0383169081179091556040517f7dae230f18360d76a040c81f050aa14eb9d6dc7901b20fc5d855e2a20fe814d1905f90a250565b61156e611bcf565b6001600160a01b03811661159757604051631e4fbdf760e01b81525f60048201526024016107a1565b6115a081611bfc565b50565b600a546001600160a01b03163314806115c657506013546001600160a01b031633145b6115e25760405162461bcd60e51b81526004016107a19061295c565b600c8190556040805160028152602081018390527fb92303fd2b1df67a887cbf19ea12a277783c2912e1ed5606d43c6c033c4d60e09101610a68565b61162b8383836001611f12565b6108a157604051635274afe760e01b81526001600160a01b03841660048201526024016107a1565b5f6001600160e01b031982166380ac58cd60e01b148061168357506001600160e01b03198216635b5e139f60e01b145b806108ca57506301ffc9a760e01b6001600160e01b03198316146108ca565b5f818152600260205260408120546001600160a01b0316806108ca57604051637e27328960e01b8152600481018490526024016107a1565b6108a18383836001611f74565b5f828152600260205260408120546001600160a01b03168015611789575f848152601660205260408120549061171c82610d19565b6001600160a01b0384165f90815260176020526040812080549293508392909190611748908490612a31565b90915550506001600160a01b0383165f818152601760209081526040918290205491519182525f516020612ab05f395f51905f52910160405180910390a250505b5f611795868686612078565b90506001600160a01b0386161561182b575f85815260166020526040812054906117be82610d19565b6001600160a01b0389165f908152601760205260408120805492935083929091906117ea9084906129f3565b90915550506001600160a01b0388165f818152601760209081526040918290205491519182525f516020612ab05f395f51905f52910160405180910390a250505b95945050505050565b60018110158015611846575060038111155b6118815760405162461bcd60e51b815260206004820152600c60248201526b696e76616c6964207479706560a01b60448201526064016107a1565b5f600182036118f457600b54600e54106118cf5760405162461bcd60e51b815260206004820152600f60248201526e104818d85c99081cdbdb19081bdd5d608a1b60448201526064016107a1565b600e8054905f6118de836129c7565b9190505550681b1ae4d6e2ef50000090506119cd565b6002820361196657600c54600f54106119415760405162461bcd60e51b815260206004820152600f60248201526e108818d85c99081cdbdb19081bdd5d608a1b60448201526064016107a1565b600f8054905f611950836129c7565b9190505550685150ae84a8cdf0000090506119cd565b600d54601054106119ab5760405162461bcd60e51b815260206004820152600f60248201526e10c818d85c99081cdbdb19081bdd5d608a1b60448201526064016107a1565b60108054905f6119ba836129c7565b919050555069010f0cf064dd5920000090505b5f6119d760085490565b6119e29060016129f3565b90506119ee8482611e69565b5f8181526016602090815260408083208690556001600160a01b0387168352601790915281208054849290611a249084906129f3565b90915550506001600160a01b0384165f818152601760209081526040918290205491519182525f516020612ab05f395f51905f52910160405180910390a26014546001600160a01b031615611b85575f5f198401611a8457506001611aa0565b60028403611a9457506002611aa0565b60038403611aa0575060035b60ff811615611b8357601454604051631c903ad960e11b81526001600160a01b03878116600483015260ff841660248301529091169063392075b2906044015f604051808303815f87803b158015611af6575f5ffd5b505af1158015611b08573d5f5f3e3d5ffd5b50506015546001600160a01b0316159150611b83905057601554604051631c903ad960e11b81526001600160a01b03878116600483015260ff841660248301529091169063392075b2906044015f604051808303815f87803b158015611b6c575f5ffd5b505af1158015611b7e573d5f5f3e3d5ffd5b505050505b505b80846001600160a01b03167fcb1c56d5745b05695241c17b7cfaece9a64f70bc32508c0997990633be8056ff85604051611bc191815260200190565b60405180910390a350505050565b600a546001600160a01b03163314610f025760405163118cdaa760e01b81523360048201526024016107a1565b600a80546001600160a01b038381166001600160a01b0319831681179093556040519116919082907f8be0079c531659141344cd1fd0a4f28419497f9722a3daafe3b4186f6b6457e0905f90a35050565b6001600160a01b038316611c765760405163a9fbf51f60e01b81525f60048201526024016107a1565b6001600160a01b038216611ca857604051630b61174360e31b81526001600160a01b03831660048201526024016107a1565b6001600160a01b038381165f81815260056020908152604080832094871680845294825291829020805460ff191686151590811790915591519182527f17307eab39ab6107e8899845ad3d59bd9653f200f220920489ca2b5937696c3191016113f5565b6001600160a01b0383163b15610ea557604051630a85bd0160e11b81526001600160a01b0384169063150b7a0290611d4e908890889087908790600401612a44565b6020604051808303815f875af1925050508015611d88575060408051601f3d908101601f19168201909252611d8591810190612a80565b60015b611def573d808015611db5576040519150601f19603f3d011682016040523d82523d5f602084013e611dba565b606091505b5080515f03611de757604051633250574960e11b81526001600160a01b03851660048201526024016107a1565b805160208201fd5b6001600160e01b03198116630a85bd0160e11b14611e2b57604051633250574960e11b81526001600160a01b03851660048201526024016107a1565b505050505050565b611e4184848484600161214b565b61088757604051635274afe760e01b81526001600160a01b03851660048201526024016107a1565b610991828260405180602001604052805f8152506121b8565b60605f611e8e836121cf565b60010190505f8167ffffffffffffffff811115611ead57611ead61283a565b6040519080825280601f01601f191660200182016040528015611ed7576020820181803683370190505b5090508181016020015b5f19016f181899199a1a9b1b9c1cb0b131b232b360811b600a86061a8153600a8504945084611ee157509392505050565b60405163a9059cbb60e01b5f8181526001600160a01b038616600452602485905291602083604481808b5af1925060015f51148316611f68578383151615611f5c573d5f823e3d81fd5b5f873b113d1516831692505b60405250949350505050565b8080611f8857506001600160a01b03821615155b15612049575f611f97846116a2565b90506001600160a01b03831615801590611fc35750826001600160a01b0316816001600160a01b031614155b8015611fd65750611fd481846114b1565b155b15611fff5760405163a9fbf51f60e01b81526001600160a01b03841660048201526024016107a1565b81156120475783856001600160a01b0316826001600160a01b03167f8c5be1e5ebec7d5bd14f71427d1e84f3dd0314c0f7b2291e5b200ac8c7c3b92560405160405180910390a45b505b50505f90815260046020526040902080546001600160a01b0319166001600160a01b0392909216919091179055565b5f5f6120858585856122a6565b90506001600160a01b0381166120e1576120dc84600880545f838152600960205260408120829055600182018355919091527ff3f7a9fe364faab93b216da50a3214154f22a0a2b415b23a84c8169e8b636ee30155565b612104565b846001600160a01b0316816001600160a01b031614612104576121048185612398565b6001600160a01b0385166121205761211b84612415565b612143565b846001600160a01b0316816001600160a01b0316146121435761214385856124bc565b949350505050565b6040516323b872dd60e01b5f8181526001600160a01b038781166004528616602452604485905291602083606481808c5af1925060015f511483166121a757838315161561219b573d5f823e3d81fd5b5f883b113d1516831692505b604052505f60605295945050505050565b6121c2838361250a565b6108a1335f858585611d0c565b5f8072184f03e93ff9f4daa797ed6e38ed64bf6a1f0160401b831061220d5772184f03e93ff9f4daa797ed6e38ed64bf6a1f0160401b830492506040015b6d04ee2d6d415b85acef81000000008310612239576d04ee2d6d415b85acef8100000000830492506020015b662386f26fc10000831061225757662386f26fc10000830492506010015b6305f5e100831061226f576305f5e100830492506008015b612710831061228357612710830492506004015b60648310612295576064830492506002015b600a83106108ca5760010192915050565b5f828152600260205260408120546001600160a01b03908116908316156122d2576122d281848661256b565b6001600160a01b0381161561230c576122ed5f855f5f611f74565b6001600160a01b0381165f90815260036020526040902080545f190190555b6001600160a01b0385161561233a576001600160a01b0385165f908152600360205260409020805460010190555b5f8481526002602052604080822080546001600160a01b0319166001600160a01b0389811691821790925591518793918516917fddf252ad1be2c89b69c2b068fc378daa952ba7f163c4a11628f55a4df523b3ef91a4949350505050565b5f6123a283610eac565b5f838152600760209081526040808320546001600160a01b03881684526006909252909120919250908183146123f7575f83815260208281526040808320548584528184208190558352600790915290208290555b5f938452600760209081526040808620869055938552525081205550565b6008545f9061242690600190612a31565b5f838152600960205260408120546008805493945090928490811061244d5761244d6129df565b905f5260205f2001549050806008838154811061246c5761246c6129df565b5f9182526020808320909101929092558281526009909152604080822084905585825281205560088054806124a3576124a3612a9b565b600190038181905f5260205f20015f9055905550505050565b5f60016124c884610eac565b6124d29190612a31565b6001600160a01b039093165f908152600660209081526040808320868452825280832085905593825260079052919091209190915550565b6001600160a01b03821661253357604051633250574960e11b81525f60048201526024016107a1565b5f61253f83835f6116e7565b90506001600160a01b038116156108a1576040516339e3563760e11b81525f60048201526024016107a1565b6125768383836125cf565b6108a1576001600160a01b0383166125a457604051637e27328960e01b8152600481018290526024016107a1565b60405163177e802f60e01b81526001600160a01b0383166004820152602481018290526044016107a1565b5f6001600160a01b038316158015906121435750826001600160a01b0316846001600160a01b03161480612608575061260884846114b1565b806121435750505f908152600460205260409020546001600160a01b03908116911614919050565b80356001600160a01b0381168114612646575f5ffd5b919050565b5f5f5f6060848603121561265d575f5ffd5b61266684612630565b925061267460208501612630565b929592945050506040919091013590565b6001600160e01b0319811681146115a0575f5ffd5b5f602082840312156126aa575f5ffd5b813561146c81612685565b5f81518084528060208401602086015e5f602082860101526020601f19601f83011685010191505092915050565b602081525f61146c60208301846126b5565b5f60208284031215612705575f5ffd5b5035919050565b5f5f6040838503121561271d575f5ffd5b61272683612630565b946020939093013593505050565b5f60208284031215612744575f5ffd5b61146c82612630565b5f5f83601f84011261275d575f5ffd5b50813567ffffffffffffffff811115612774575f5ffd5b6020830191508360208260051b850101111561278e575f5ffd5b9250929050565b5f5f5f5f604085870312156127a8575f5ffd5b843567ffffffffffffffff8111156127be575f5ffd5b6127ca8782880161274d565b909550935050602085013567ffffffffffffffff8111156127e9575f5ffd5b6127f58782880161274d565b95989497509550505050565b5f5f60408385031215612812575f5ffd5b61281b83612630565b91506020830135801515811461282f575f5ffd5b809150509250929050565b634e487b7160e01b5f52604160045260245ffd5b5f5f5f5f60808587031215612861575f5ffd5b61286a85612630565b935061287860208601612630565b925060408501359150606085013567ffffffffffffffff81111561289a575f5ffd5b8501601f810187136128aa575f5ffd5b803567ffffffffffffffff8111156128c4576128c461283a565b604051601f8201601f19908116603f0116810167ffffffffffffffff811182821017156128f3576128f361283a565b60405281815282820160200189101561290a575f5ffd5b816020840160208301375f6020838301015280935050505092959194509250565b5f5f6040838503121561293c575f5ffd5b61294583612630565b915061295360208401612630565b90509250929050565b602080825260059082015264042c2eae8d60db1b604082015260600190565b600181811c9082168061298f57607f821691505b6020821081036129ad57634e487b7160e01b5f52602260045260245ffd5b50919050565b634e487b7160e01b5f52601160045260245ffd5b5f600182016129d8576129d86129b3565b5060010190565b634e487b7160e01b5f52603260045260245ffd5b808201808211156108ca576108ca6129b3565b5f81518060208401855e5f93019283525090919050565b5f612143612a2b8386612a06565b84612a06565b818103818111156108ca576108ca6129b3565b6001600160a01b03858116825284166020820152604081018390526080606082018190525f90612a76908301846126b5565b9695505050505050565b5f60208284031215612a90575f5ffd5b815161146c81612685565b634e487b7160e01b5f52603160045260245ffdfe9cd4abe1085ce551d185745678b43e141afb71972eca37eab6d08555965f458fa2646970667358221220f5bdd85f6d38ed3a0dd6e64097ba8df8c834f5fc5d83be54964cd4f97dad409064736f6c63430008230033","opcodes":"PUSH1 0x80 PUSH1 0x40 MSTORE PUSH2 0x3E8 PUSH1 0xB SSTORE PUSH2 0x1F4 PUSH1 0xC SSTORE PUSH1 0x64 PUSH1 0xD SSTORE CALLVALUE DUP1 ISZERO PUSH2 0x20 JUMPI PUSH0 PUSH0 REVERT JUMPDEST POP PUSH20 0x274ACC6397349F21179ED6258A54B2A11B28FAF5 PUSH1 0x40 MLOAD DUP1 PUSH1 0x40 ADD PUSH1 0x40 MSTORE DUP1 PUSH1 0x7 DUP2 MSTORE PUSH1 0x20 ADD PUSH7 0x11144810D85C99 PUSH1 0xCA SHL DUP2 MSTORE POP PUSH1 0x40 MLOAD DUP1 PUSH1 0x40 ADD PUSH1 0x40 MSTORE DUP1 PUSH1 0x3 DUP2 MSTORE PUSH1 0x20 ADD PUSH3 0x445143 PUSH1 0xE8 SHL DUP2 MSTORE POP DUP2 PUSH0 SWAP1 DUP2 PUSH2 0x80 SWAP2 SWAP1 PUSH2 0x1C0 JUMP JUMPDEST POP PUSH1 0x1 PUSH2 0x8D DUP3 DUP3 PUSH2 0x1C0 JUMP JUMPDEST POP POP POP PUSH1 0x1 PUSH1 0x1 PUSH1 0xA0 SHL SUB DUP2 AND PUSH2 0xBD JUMPI PUSH1 0x40 MLOAD PUSH4 0x1E4FBDF7 PUSH1 0xE0 SHL DUP2 MSTORE PUSH0 PUSH1 0x4 DUP3 ADD MSTORE PUSH1 0x24 ADD PUSH1 0x40 MLOAD DUP1 SWAP2 SUB SWAP1 REVERT JUMPDEST PUSH2 0xC6 DUP2 PUSH2 0xCC JUMP JUMPDEST POP PUSH2 0x27E JUMP JUMPDEST PUSH1 0xA DUP1 SLOAD PUSH1 0x1 PUSH1 0x1 PUSH1 0xA0 SHL SUB DUP4 DUP2 AND PUSH1 0x1 PUSH1 0x1 PUSH1 0xA0 SHL SUB NOT DUP4 AND DUP2 OR SWAP1 SWAP4 SSTORE PUSH1 0x40 MLOAD SWAP2 AND SWAP2 SWAP1 DUP3 SWAP1 PUSH32 0x8BE0079C531659141344CD1FD0A4F28419497F9722A3DAAFE3B4186F6B6457E0 SWAP1 PUSH0 SWAP1 LOG3 POP POP JUMP JUMPDEST PUSH4 0x4E487B71 PUSH1 0xE0 SHL PUSH0 MSTORE PUSH1 0x41 PUSH1 0x4 MSTORE PUSH1 0x24 PUSH0 REVERT JUMPDEST PUSH1 0x1 DUP2 DUP2 SHR SWAP1 DUP3 AND DUP1 PUSH2 0x145 JUMPI PUSH1 0x7F DUP3 AND SWAP2 POP JUMPDEST PUSH1 0x20 DUP3 LT DUP2 SUB PUSH2 0x163 JUMPI PUSH4 0x4E487B71 PUSH1 0xE0 SHL PUSH0 MSTORE PUSH1 0x22 PUSH1 0x4 MSTORE PUSH1 0x24 PUSH0 REVERT JUMPDEST POP SWAP2 SWAP1 POP JUMP JUMPDEST PUSH1 0x1F DUP3 GT ISZERO PUSH2 0x1BB JUMPI DUP3 DUP3 GT ISZERO PUSH2 0x1BB JUMPI DUP1 PUSH0 MSTORE PUSH1 0x20 PUSH0 KECCAK256 PUSH1 0x1F DUP5 ADD PUSH1 0x5 SHR PUSH1 0x20 DUP6 LT ISZERO PUSH2 0x194 JUMPI POP PUSH0 JUMPDEST SWAP1 DUP2 ADD SWAP1 PUSH1 0x1F DUP5 ADD PUSH1 0x5 SHR SUB PUSH0 JUMPDEST DUP2 DUP2 LT ISZERO PUSH2 0x1B7 JUMPI PUSH0 DUP4 DUP3 ADD SSTORE PUSH1 0x1 ADD PUSH2 0x1A2 JUMP JUMPDEST POP POP POP JUMPDEST POP POP POP JUMP JUMPDEST DUP2 MLOAD PUSH1 0x1 PUSH1 0x1 PUSH1 0x40 SHL SUB DUP2 GT ISZERO PUSH2 0x1D9 JUMPI PUSH2 0x1D9 PUSH2 0x11D JUMP JUMPDEST PUSH2 0x1ED DUP2 PUSH2 0x1E7 DUP5 SLOAD PUSH2 0x131 JUMP JUMPDEST DUP5 PUSH2 0x169 JUMP JUMPDEST PUSH1 0x20 PUSH1 0x1F DUP3 GT PUSH1 0x1 DUP2 EQ PUSH2 0x21F JUMPI PUSH0 DUP4 ISZERO PUSH2 0x208 JUMPI POP DUP5 DUP3 ADD MLOAD JUMPDEST PUSH0 NOT PUSH1 0x3 DUP6 SWAP1 SHL SHR NOT AND PUSH1 0x1 DUP5 SWAP1 SHL OR DUP5 SSTORE PUSH2 0x277 JUMP JUMPDEST PUSH0 DUP5 DUP2 MSTORE PUSH1 0x20 DUP2 KECCAK256 PUSH1 0x1F NOT DUP6 AND SWAP2 JUMPDEST DUP3 DUP2 LT ISZERO PUSH2 0x24E JUMPI DUP8 DUP6 ADD MLOAD DUP3 SSTORE PUSH1 0x20 SWAP5 DUP6 ADD SWAP5 PUSH1 0x1 SWAP1 SWAP3 ADD SWAP2 ADD PUSH2 0x22E JUMP JUMPDEST POP DUP5 DUP3 LT ISZERO PUSH2 0x26B JUMPI DUP7 DUP5 ADD MLOAD PUSH0 NOT PUSH1 0x3 DUP8 SWAP1 SHL PUSH1 0xF8 AND SHR NOT AND DUP2 SSTORE JUMPDEST POP POP PUSH1 0x1 DUP4 PUSH1 0x1 SHL ADD DUP5 SSTORE JUMPDEST POP POP POP POP POP JUMP JUMPDEST PUSH2 0x2B05 DUP1 PUSH2 0x28B PUSH0 CODECOPY PUSH0 RETURN INVALID PUSH1 0x80 PUSH1 0x40 MSTORE CALLVALUE DUP1 ISZERO PUSH2 0xF JUMPI PUSH0 PUSH0 REVERT JUMPDEST POP PUSH1 0x4 CALLDATASIZE LT PUSH2 0x34D JUMPI PUSH0 CALLDATALOAD PUSH1 0xE0 SHR DUP1 PUSH4 0x706374F5 GT PUSH2 0x1C9 JUMPI DUP1 PUSH4 0xC54E44EB GT PUSH2 0xFE JUMPI DUP1 PUSH4 0xE80DB5DB GT PUSH2 0x9E JUMPI DUP1 PUSH4 0xF26841BD GT PUSH2 0x79 JUMPI DUP1 PUSH4 0xF26841BD EQ PUSH2 0x714 JUMPI DUP1 PUSH4 0xF2FDE38B EQ PUSH2 0x71D JUMPI DUP1 PUSH4 0xF6A2A9A1 EQ PUSH2 0x730 JUMPI DUP1 PUSH4 0xFCF49ADF EQ PUSH2 0x743 JUMPI PUSH0 PUSH0 REVERT JUMPDEST DUP1 PUSH4 0xE80DB5DB EQ PUSH2 0x6DB JUMPI DUP1 PUSH4 0xE985E9C5 EQ PUSH2 0x6EE JUMPI DUP1 PUSH4 0xF0F44260 EQ PUSH2 0x701 JUMPI PUSH0 PUSH0 REVERT JUMPDEST DUP1 PUSH4 0xC87B56DD GT PUSH2 0xD9 JUMPI DUP1 PUSH4 0xC87B56DD EQ PUSH2 0x67D JUMPI DUP1 PUSH4 0xD15DFE2D EQ PUSH2 0x690 JUMPI DUP1 PUSH4 0xE4B7FB73 EQ PUSH2 0x699 JUMPI DUP1 PUSH4 0xE4CEC420 EQ PUSH2 0x6BC JUMPI PUSH0 PUSH0 REVERT JUMPDEST DUP1 PUSH4 0xC54E44EB EQ PUSH2 0x63C JUMPI DUP1 PUSH4 0xC6266693 EQ PUSH2 0x657 JUMPI DUP1 PUSH4 0xC70F5EAA EQ PUSH2 0x66A JUMPI PUSH0 PUSH0 REVERT JUMPDEST DUP1 PUSH4 0x95D89B41 GT PUSH2 0x169 JUMPI DUP1 PUSH4 0xB629640B GT PUSH2 0x144 JUMPI DUP1 PUSH4 0xB629640B EQ PUSH2 0x5FA JUMPI DUP1 PUSH4 0xB88D4FDE EQ PUSH2 0x603 JUMPI DUP1 PUSH4 0xBEF28135 EQ PUSH2 0x616 JUMPI DUP1 PUSH4 0xC05C5E94 EQ PUSH2 0x629 JUMPI PUSH0 PUSH0 REVERT JUMPDEST DUP1 PUSH4 0x95D89B41 EQ PUSH2 0x5B7 JUMPI DUP1 PUSH4 0xA22CB465 EQ PUSH2 0x5BF JUMPI DUP1 PUSH4 0xAED1F157 EQ PUSH2 0x5D2 JUMPI PUSH0 PUSH0 REVERT JUMPDEST DUP1 PUSH4 0x73CDA3E4 GT PUSH2 0x1A4 JUMPI DUP1 PUSH4 0x73CDA3E4 EQ PUSH2 0x579 JUMPI DUP1 PUSH4 0x8485391A EQ PUSH2 0x58A JUMPI DUP1 PUSH4 0x8DA5CB5B EQ PUSH2 0x593 JUMPI DUP1 PUSH4 0x91564697 EQ PUSH2 0x5A4 JUMPI PUSH0 PUSH0 REVERT JUMPDEST DUP1 PUSH4 0x706374F5 EQ PUSH2 0x54B JUMPI DUP1 PUSH4 0x70A08231 EQ PUSH2 0x55E JUMPI DUP1 PUSH4 0x715018A6 EQ PUSH2 0x571 JUMPI PUSH0 PUSH0 REVERT JUMPDEST DUP1 PUSH4 0x23B872DD GT PUSH2 0x29F JUMPI DUP1 PUSH4 0x52B03C2F GT PUSH2 0x23F JUMPI DUP1 PUSH4 0x6352211E GT PUSH2 0x21A JUMPI DUP1 PUSH4 0x6352211E EQ PUSH2 0x4FF JUMPI DUP1 PUSH4 0x63A812F9 EQ PUSH2 0x512 JUMPI DUP1 PUSH4 0x6866537D EQ PUSH2 0x525 JUMPI DUP1 PUSH4 0x702F5321 EQ PUSH2 0x538 JUMPI PUSH0 PUSH0 REVERT JUMPDEST DUP1 PUSH4 0x52B03C2F EQ PUSH2 0x4D4 JUMPI DUP1 PUSH4 0x53D79447 EQ PUSH2 0x4DC JUMPI DUP1 PUSH4 0x61D027B3 EQ PUSH2 0x4EC JUMPI PUSH0 PUSH0 REVERT JUMPDEST DUP1 PUSH4 0x39698415 GT PUSH2 0x27A JUMPI DUP1 PUSH4 0x39698415 EQ PUSH2 0x492 JUMPI DUP1 PUSH4 0x42842E0E EQ PUSH2 0x49B JUMPI DUP1 PUSH4 0x4F6CCCE7 EQ PUSH2 0x4AE JUMPI DUP1 PUSH4 0x509484D5 EQ PUSH2 0x4C1 JUMPI PUSH0 PUSH0 REVERT JUMPDEST DUP1 PUSH4 0x23B872DD EQ PUSH2 0x459 JUMPI DUP1 PUSH4 0x2F745C59 EQ PUSH2 0x46C JUMPI DUP1 PUSH4 0x3542AEE2 EQ PUSH2 0x47F JUMPI PUSH0 PUSH0 REVERT JUMPDEST DUP1 PUSH4 0x12F94134 GT PUSH2 0x30A JUMPI DUP1 PUSH4 0x18160DDD GT PUSH2 0x2E5 JUMPI DUP1 PUSH4 0x18160DDD EQ PUSH2 0x42D JUMPI DUP1 PUSH4 0x18A8AC77 EQ PUSH2 0x435 JUMPI DUP1 PUSH4 0x193491B5 EQ PUSH2 0x43D JUMPI DUP1 PUSH4 0x1A186227 EQ PUSH2 0x446 JUMPI PUSH0 PUSH0 REVERT JUMPDEST DUP1 PUSH4 0x12F94134 EQ PUSH2 0x402 JUMPI DUP1 PUSH4 0x13EEEA08 EQ PUSH2 0x415 JUMPI DUP1 PUSH4 0x15AD6F61 EQ PUSH2 0x425 JUMPI PUSH0 PUSH0 REVERT JUMPDEST DUP1 PUSH4 0x1E33667 EQ PUSH2 0x351 JUMPI DUP1 PUSH4 0x1FFC9A7 EQ PUSH2 0x366 JUMPI DUP1 PUSH4 0x6FDDE03 EQ PUSH2 0x38E JUMPI DUP1 PUSH4 0x81812FC EQ PUSH2 0x3A3 JUMPI DUP1 PUSH4 0x95EA7B3 EQ PUSH2 0x3CE JUMPI DUP1 PUSH4 0x96E233E EQ PUSH2 0x3E1 JUMPI JUMPDEST PUSH0 PUSH0 REVERT JUMPDEST PUSH2 0x364 PUSH2 0x35F CALLDATASIZE PUSH1 0x4 PUSH2 0x264B JUMP JUMPDEST PUSH2 0x762 JUMP JUMPDEST STOP JUMPDEST PUSH2 0x379 PUSH2 0x374 CALLDATASIZE PUSH1 0x4 PUSH2 0x269A JUMP JUMPDEST PUSH2 0x8A6 JUMP JUMPDEST PUSH1 0x40 MLOAD SWAP1 ISZERO ISZERO DUP2 MSTORE PUSH1 0x20 ADD JUMPDEST PUSH1 0x40 MLOAD DUP1 SWAP2 SUB SWAP1 RETURN JUMPDEST PUSH2 0x396 PUSH2 0x8D0 JUMP JUMPDEST PUSH1 0x40 MLOAD PUSH2 0x385 SWAP2 SWAP1 PUSH2 0x26E3 JUMP JUMPDEST PUSH2 0x3B6 PUSH2 0x3B1 CALLDATASIZE PUSH1 0x4 PUSH2 0x26F5 JUMP JUMPDEST PUSH2 0x95F JUMP JUMPDEST PUSH1 0x40 MLOAD PUSH1 0x1 PUSH1 0x1 PUSH1 0xA0 SHL SUB SWAP1 SWAP2 AND DUP2 MSTORE PUSH1 0x20 ADD PUSH2 0x385 JUMP JUMPDEST PUSH2 0x364 PUSH2 0x3DC CALLDATASIZE PUSH1 0x4 PUSH2 0x270C JUMP JUMPDEST PUSH2 0x986 JUMP JUMPDEST PUSH2 0x3F4 PUSH2 0x3EF CALLDATASIZE PUSH1 0x4 PUSH2 0x270C JUMP JUMPDEST PUSH2 0x995 JUMP JUMPDEST PUSH1 0x40 MLOAD SWAP1 DUP2 MSTORE PUSH1 0x20 ADD PUSH2 0x385 JUMP JUMPDEST PUSH2 0x364 PUSH2 0x410 CALLDATASIZE PUSH1 0x4 PUSH2 0x26F5 JUMP JUMPDEST PUSH2 0x9F1 JUMP JUMPDEST PUSH2 0x3F4 PUSH9 0x1B1AE4D6E2EF500000 DUP2 JUMP JUMPDEST PUSH2 0x3F4 PUSH1 0x2 DUP2 JUMP JUMPDEST PUSH1 0x8 SLOAD PUSH2 0x3F4 JUMP JUMPDEST PUSH2 0x3F4 PUSH1 0x3 DUP2 JUMP JUMPDEST PUSH2 0x3F4 PUSH1 0xF SLOAD DUP2 JUMP JUMPDEST PUSH1 0x14 SLOAD PUSH2 0x3B6 SWAP1 PUSH1 0x1 PUSH1 0x1 PUSH1 0xA0 SHL SUB AND DUP2 JUMP JUMPDEST PUSH2 0x364 PUSH2 0x467 CALLDATASIZE PUSH1 0x4 PUSH2 0x264B JUMP JUMPDEST PUSH2 0xA73 JUMP JUMPDEST PUSH2 0x3F4 PUSH2 0x47A CALLDATASIZE PUSH1 0x4 PUSH2 0x270C JUMP JUMPDEST PUSH2 0xAF6 JUMP JUMPDEST PUSH2 0x364 PUSH2 0x48D CALLDATASIZE PUSH1 0x4 PUSH2 0x270C JUMP JUMPDEST PUSH2 0xB59 JUMP JUMPDEST PUSH2 0x3F4 PUSH1 0xB SLOAD DUP2 JUMP JUMPDEST PUSH2 0x364 PUSH2 0x4A9 CALLDATASIZE PUSH1 0x4 PUSH2 0x264B JUMP JUMPDEST PUSH2 0xBB7 JUMP JUMPDEST PUSH2 0x3F4 PUSH2 0x4BC CALLDATASIZE PUSH1 0x4 PUSH2 0x26F5 JUMP JUMPDEST PUSH2 0xBD1 JUMP JUMPDEST PUSH2 0x364 PUSH2 0x4CF CALLDATASIZE PUSH1 0x4 PUSH2 0x2734 JUMP JUMPDEST PUSH2 0xC26 JUMP JUMPDEST PUSH2 0x3F4 PUSH1 0x1 DUP2 JUMP JUMPDEST PUSH2 0x3F4 PUSH9 0x5150AE84A8CDF00000 DUP2 JUMP JUMPDEST PUSH1 0x11 SLOAD PUSH2 0x3B6 SWAP1 PUSH1 0x1 PUSH1 0x1 PUSH1 0xA0 SHL SUB AND DUP2 JUMP JUMPDEST PUSH2 0x3B6 PUSH2 0x50D CALLDATASIZE PUSH1 0x4 PUSH2 0x26F5 JUMP JUMPDEST PUSH2 0xC87 JUMP JUMPDEST PUSH2 0x364 PUSH2 0x520 CALLDATASIZE PUSH1 0x4 PUSH2 0x2734 JUMP JUMPDEST PUSH2 0xC91 JUMP JUMPDEST PUSH2 0x3F4 PUSH2 0x533 CALLDATASIZE PUSH1 0x4 PUSH2 0x26F5 JUMP JUMPDEST PUSH2 0xD19 JUMP JUMPDEST PUSH2 0x364 PUSH2 0x546 CALLDATASIZE PUSH1 0x4 PUSH2 0x2734 JUMP JUMPDEST PUSH2 0xD6A JUMP JUMPDEST PUSH2 0x364 PUSH2 0x559 CALLDATASIZE PUSH1 0x4 PUSH2 0x2795 JUMP JUMPDEST PUSH2 0xDCB JUMP JUMPDEST PUSH2 0x3F4 PUSH2 0x56C CALLDATASIZE PUSH1 0x4 PUSH2 0x2734 JUMP JUMPDEST PUSH2 0xEAC JUMP JUMPDEST PUSH2 0x364 PUSH2 0xEF1 JUMP JUMPDEST PUSH2 0x3F4 PUSH10 0x10F0CF064DD59200000 DUP2 JUMP JUMPDEST PUSH2 0x3F4 PUSH1 0xC SLOAD DUP2 JUMP JUMPDEST PUSH1 0xA SLOAD PUSH1 0x1 PUSH1 0x1 PUSH1 0xA0 SHL SUB AND PUSH2 0x3B6 JUMP JUMPDEST PUSH1 0x12 SLOAD PUSH2 0x3B6 SWAP1 PUSH1 0x1 PUSH1 0x1 PUSH1 0xA0 SHL SUB AND DUP2 JUMP JUMPDEST PUSH2 0x396 PUSH2 0xF04 JUMP JUMPDEST PUSH2 0x364 PUSH2 0x5CD CALLDATASIZE PUSH1 0x4 PUSH2 0x2801 JUMP JUMPDEST PUSH2 0xF13 JUMP JUMPDEST PUSH2 0x3F4 PUSH2 0x5E0 CALLDATASIZE PUSH1 0x4 PUSH2 0x2734 JUMP JUMPDEST PUSH1 0x1 PUSH1 0x1 PUSH1 0xA0 SHL SUB AND PUSH0 SWAP1 DUP2 MSTORE PUSH1 0x17 PUSH1 0x20 MSTORE PUSH1 0x40 SWAP1 KECCAK256 SLOAD SWAP1 JUMP JUMPDEST PUSH2 0x3F4 PUSH1 0xE SLOAD DUP2 JUMP JUMPDEST PUSH2 0x364 PUSH2 0x611 CALLDATASIZE PUSH1 0x4 PUSH2 0x284E JUMP JUMPDEST PUSH2 0xF1E JUMP JUMPDEST PUSH2 0x364 PUSH2 0x624 CALLDATASIZE PUSH1 0x4 PUSH2 0x26F5 JUMP JUMPDEST PUSH2 0xF36 JUMP JUMPDEST PUSH1 0x13 SLOAD PUSH2 0x3B6 SWAP1 PUSH1 0x1 PUSH1 0x1 PUSH1 0xA0 SHL SUB AND DUP2 JUMP JUMPDEST PUSH2 0x3B6 PUSH20 0x55D398326F99059FF775485246999027B3197955 DUP2 JUMP JUMPDEST PUSH2 0x364 PUSH2 0x665 CALLDATASIZE PUSH1 0x4 PUSH2 0x2734 JUMP JUMPDEST PUSH2 0xFB1 JUMP JUMPDEST PUSH2 0x364 PUSH2 0x678 CALLDATASIZE PUSH1 0x4 PUSH2 0x26F5 JUMP JUMPDEST PUSH2 0x1012 JUMP JUMPDEST PUSH2 0x396 PUSH2 0x68B CALLDATASIZE PUSH1 0x4 PUSH2 0x26F5 JUMP JUMPDEST PUSH2 0x1402 JUMP JUMPDEST PUSH2 0x3F4 PUSH1 0x10 SLOAD DUP2 JUMP JUMPDEST PUSH2 0x6A1 PUSH2 0x1473 JUMP JUMPDEST PUSH1 0x40 DUP1 MLOAD SWAP4 DUP5 MSTORE PUSH1 0x20 DUP5 ADD SWAP3 SWAP1 SWAP3 MSTORE SWAP1 DUP3 ADD MSTORE PUSH1 0x60 ADD PUSH2 0x385 JUMP JUMPDEST PUSH2 0x3F4 PUSH2 0x6CA CALLDATASIZE PUSH1 0x4 PUSH2 0x2734 JUMP JUMPDEST PUSH1 0x17 PUSH1 0x20 MSTORE PUSH0 SWAP1 DUP2 MSTORE PUSH1 0x40 SWAP1 KECCAK256 SLOAD DUP2 JUMP JUMPDEST PUSH1 0x15 SLOAD PUSH2 0x3B6 SWAP1 PUSH1 0x1 PUSH1 0x1 PUSH1 0xA0 SHL SUB AND DUP2 JUMP JUMPDEST PUSH2 0x379 PUSH2 0x6FC CALLDATASIZE PUSH1 0x4 PUSH2 0x292B JUMP JUMPDEST PUSH2 0x14B1 JUMP JUMPDEST PUSH2 0x364 PUSH2 0x70F CALLDATASIZE PUSH1 0x4 PUSH2 0x2734 JUMP JUMPDEST PUSH2 0x14DE JUMP JUMPDEST PUSH2 0x3F4 PUSH1 0xD SLOAD DUP2 JUMP JUMPDEST PUSH2 0x364 PUSH2 0x72B CALLDATASIZE PUSH1 0x4 PUSH2 0x2734 JUMP JUMPDEST PUSH2 0x1566 JUMP JUMPDEST PUSH2 0x364 PUSH2 0x73E CALLDATASIZE PUSH1 0x4 PUSH2 0x26F5 JUMP JUMPDEST PUSH2 0x15A3 JUMP JUMPDEST PUSH2 0x3F4 PUSH2 0x751 CALLDATASIZE PUSH1 0x4 PUSH2 0x26F5 JUMP JUMPDEST PUSH1 0x16 PUSH1 0x20 MSTORE PUSH0 SWAP1 DUP2 MSTORE PUSH1 0x40 SWAP1 KECCAK256 SLOAD DUP2 JUMP JUMPDEST PUSH1 0xA SLOAD PUSH1 0x1 PUSH1 0x1 PUSH1 0xA0 SHL SUB AND CALLER EQ DUP1 PUSH2 0x785 JUMPI POP PUSH1 0x13 SLOAD PUSH1 0x1 PUSH1 0x1 PUSH1 0xA0 SHL SUB AND CALLER EQ JUMPDEST PUSH2 0x7AA JUMPI PUSH1 0x40 MLOAD PUSH3 0x461BCD PUSH1 0xE5 SHL DUP2 MSTORE PUSH1 0x4 ADD PUSH2 0x7A1 SWAP1 PUSH2 0x295C JUMP JUMPDEST PUSH1 0x40 MLOAD DUP1 SWAP2 SUB SWAP1 REVERT JUMPDEST PUSH1 0x1 PUSH1 0x1 PUSH1 0xA0 SHL SUB DUP3 AND PUSH2 0x7E8 JUMPI PUSH1 0x40 MLOAD PUSH3 0x461BCD PUSH1 0xE5 SHL DUP2 MSTORE PUSH1 0x20 PUSH1 0x4 DUP3 ADD MSTORE PUSH1 0x5 PUSH1 0x24 DUP3 ADD MSTORE PUSH5 0x217A65726F PUSH1 0xD8 SHL PUSH1 0x44 DUP3 ADD MSTORE PUSH1 0x64 ADD PUSH2 0x7A1 JUMP JUMPDEST PUSH1 0x1 PUSH1 0x1 PUSH1 0xA0 SHL SUB DUP4 AND PUSH2 0x88D JUMPI PUSH0 DUP3 PUSH1 0x1 PUSH1 0x1 PUSH1 0xA0 SHL SUB AND DUP3 PUSH1 0x40 MLOAD PUSH0 PUSH1 0x40 MLOAD DUP1 DUP4 SUB DUP2 DUP6 DUP8 GAS CALL SWAP3 POP POP POP RETURNDATASIZE DUP1 PUSH0 DUP2 EQ PUSH2 0x83F JUMPI PUSH1 0x40 MLOAD SWAP2 POP PUSH1 0x1F NOT PUSH1 0x3F RETURNDATASIZE ADD AND DUP3 ADD PUSH1 0x40 MSTORE RETURNDATASIZE DUP3 MSTORE RETURNDATASIZE PUSH0 PUSH1 0x20 DUP5 ADD RETURNDATACOPY PUSH2 0x844 JUMP JUMPDEST PUSH1 0x60 SWAP2 POP JUMPDEST POP POP SWAP1 POP DUP1 PUSH2 0x887 JUMPI PUSH1 0x40 MLOAD PUSH3 0x461BCD PUSH1 0xE5 SHL DUP2 MSTORE PUSH1 0x20 PUSH1 0x4 DUP3 ADD MSTORE PUSH1 0xF PUSH1 0x24 DUP3 ADD MSTORE PUSH15 0x1D1C985B9CD9995C8819985A5B1959 PUSH1 0x8A SHL PUSH1 0x44 DUP3 ADD MSTORE PUSH1 0x64 ADD PUSH2 0x7A1 JUMP JUMPDEST POP POP POP POP JUMP JUMPDEST PUSH2 0x8A1 PUSH1 0x1 PUSH1 0x1 PUSH1 0xA0 SHL SUB DUP5 AND DUP4 DUP4 PUSH2 0x161E JUMP JUMPDEST POP POP POP JUMP JUMPDEST PUSH0 PUSH1 0x1 PUSH1 0x1 PUSH1 0xE0 SHL SUB NOT DUP3 AND PUSH4 0x780E9D63 PUSH1 0xE0 SHL EQ DUP1 PUSH2 0x8CA JUMPI POP PUSH2 0x8CA DUP3 PUSH2 0x1653 JUMP JUMPDEST SWAP3 SWAP2 POP POP JUMP JUMPDEST PUSH1 0x60 PUSH0 DUP1 SLOAD PUSH2 0x8DE SWAP1 PUSH2 0x297B JUMP JUMPDEST DUP1 PUSH1 0x1F ADD PUSH1 0x20 DUP1 SWAP2 DIV MUL PUSH1 0x20 ADD PUSH1 0x40 MLOAD SWAP1 DUP2 ADD PUSH1 0x40 MSTORE DUP1 SWAP3 SWAP2 SWAP1 DUP2 DUP2 MSTORE PUSH1 0x20 ADD DUP3 DUP1 SLOAD PUSH2 0x90A SWAP1 PUSH2 0x297B JUMP JUMPDEST DUP1 ISZERO PUSH2 0x955 JUMPI DUP1 PUSH1 0x1F LT PUSH2 0x92C JUMPI PUSH2 0x100 DUP1 DUP4 SLOAD DIV MUL DUP4 MSTORE SWAP2 PUSH1 0x20 ADD SWAP2 PUSH2 0x955 JUMP JUMPDEST DUP3 ADD SWAP2 SWAP1 PUSH0 MSTORE PUSH1 0x20 PUSH0 KECCAK256 SWAP1 JUMPDEST DUP2 SLOAD DUP2 MSTORE SWAP1 PUSH1 0x1 ADD SWAP1 PUSH1 0x20 ADD DUP1 DUP4 GT PUSH2 0x938 JUMPI DUP3 SWAP1 SUB PUSH1 0x1F AND DUP3 ADD SWAP2 JUMPDEST POP POP POP POP POP SWAP1 POP SWAP1 JUMP JUMPDEST PUSH0 PUSH2 0x969 DUP3 PUSH2 0x16A2 JUMP JUMPDEST POP PUSH0 DUP3 DUP2 MSTORE PUSH1 0x4 PUSH1 0x20 MSTORE PUSH1 0x40 SWAP1 KECCAK256 SLOAD PUSH1 0x1 PUSH1 0x1 PUSH1 0xA0 SHL SUB AND PUSH2 0x8CA JUMP JUMPDEST PUSH2 0x991 DUP3 DUP3 CALLER PUSH2 0x16DA JUMP JUMPDEST POP POP JUMP JUMPDEST PUSH0 PUSH0 PUSH0 PUSH2 0x9A1 DUP6 PUSH2 0xEAC JUMP JUMPDEST SWAP1 POP PUSH0 JUMPDEST DUP2 DUP2 LT ISZERO PUSH2 0x9E7 JUMPI PUSH0 PUSH2 0x9B8 DUP8 DUP4 PUSH2 0xAF6 JUMP JUMPDEST PUSH0 DUP2 DUP2 MSTORE PUSH1 0x16 PUSH1 0x20 MSTORE PUSH1 0x40 SWAP1 KECCAK256 SLOAD SWAP1 SWAP2 POP DUP7 SWAP1 SUB PUSH2 0x9DE JUMPI DUP4 PUSH2 0x9DA DUP2 PUSH2 0x29C7 JUMP JUMPDEST SWAP5 POP POP JUMPDEST POP PUSH1 0x1 ADD PUSH2 0x9A5 JUMP JUMPDEST POP SWAP1 SWAP5 SWAP4 POP POP POP POP JUMP JUMPDEST PUSH1 0xA SLOAD PUSH1 0x1 PUSH1 0x1 PUSH1 0xA0 SHL SUB AND CALLER EQ DUP1 PUSH2 0xA14 JUMPI POP PUSH1 0x13 SLOAD PUSH1 0x1 PUSH1 0x1 PUSH1 0xA0 SHL SUB AND CALLER EQ JUMPDEST PUSH2 0xA30 JUMPI PUSH1 0x40 MLOAD PUSH3 0x461BCD PUSH1 0xE5 SHL DUP2 MSTORE PUSH1 0x4 ADD PUSH2 0x7A1 SWAP1 PUSH2 0x295C JUMP JUMPDEST PUSH1 0xB DUP2 SWAP1 SSTORE PUSH1 0x40 DUP1 MLOAD PUSH1 0x1 DUP2 MSTORE PUSH1 0x20 DUP2 ADD DUP4 SWAP1 MSTORE PUSH32 0xB92303FD2B1DF67A887CBF19EA12A277783C2912E1ED5606D43C6C033C4D60E0 SWAP2 ADD JUMPDEST PUSH1 0x40 MLOAD DUP1 SWAP2 SUB SWAP1 LOG1 POP JUMP JUMPDEST PUSH1 0x1 PUSH1 0x1 PUSH1 0xA0 SHL SUB DUP3 AND PUSH2 0xA9C JUMPI PUSH1 0x40 MLOAD PUSH4 0x32505749 PUSH1 0xE1 SHL DUP2 MSTORE PUSH0 PUSH1 0x4 DUP3 ADD MSTORE PUSH1 0x24 ADD PUSH2 0x7A1 JUMP JUMPDEST PUSH0 PUSH2 0xAA8 DUP4 DUP4 CALLER PUSH2 0x16E7 JUMP JUMPDEST SWAP1 POP DUP4 PUSH1 0x1 PUSH1 0x1 PUSH1 0xA0 SHL SUB AND DUP2 PUSH1 0x1 PUSH1 0x1 PUSH1 0xA0 SHL SUB AND EQ PUSH2 0x887 JUMPI PUSH1 0x40 MLOAD PUSH4 0x64283D7B PUSH1 0xE0 SHL DUP2 MSTORE PUSH1 0x1 PUSH1 0x1 PUSH1 0xA0 SHL SUB DUP1 DUP7 AND PUSH1 0x4 DUP4 ADD MSTORE PUSH1 0x24 DUP3 ADD DUP5 SWAP1 MSTORE DUP3 AND PUSH1 0x44 DUP3 ADD MSTORE PUSH1 0x64 ADD PUSH2 0x7A1 JUMP JUMPDEST PUSH0 PUSH2 0xB00 DUP4 PUSH2 0xEAC JUMP JUMPDEST DUP3 LT PUSH2 0xB31 JUMPI PUSH1 0x40 MLOAD PUSH4 0x295F44F7 PUSH1 0xE2 SHL DUP2 MSTORE PUSH1 0x1 PUSH1 0x1 PUSH1 0xA0 SHL SUB DUP5 AND PUSH1 0x4 DUP3 ADD MSTORE PUSH1 0x24 DUP2 ADD DUP4 SWAP1 MSTORE PUSH1 0x44 ADD PUSH2 0x7A1 JUMP JUMPDEST POP PUSH1 0x1 PUSH1 0x1 PUSH1 0xA0 SHL SUB SWAP2 SWAP1 SWAP2 AND PUSH0 SWAP1 DUP2 MSTORE PUSH1 0x6 PUSH1 0x20 SWAP1 DUP2 MSTORE PUSH1 0x40 DUP1 DUP4 KECCAK256 SWAP4 DUP4 MSTORE SWAP3 SWAP1 MSTORE KECCAK256 SLOAD SWAP1 JUMP JUMPDEST PUSH1 0x14 SLOAD PUSH1 0x1 PUSH1 0x1 PUSH1 0xA0 SHL SUB AND CALLER EQ DUP1 PUSH2 0xB7C JUMPI POP PUSH1 0xA SLOAD PUSH1 0x1 PUSH1 0x1 PUSH1 0xA0 SHL SUB AND CALLER EQ JUMPDEST PUSH2 0xBAD JUMPI PUSH1 0x40 MLOAD PUSH3 0x461BCD PUSH1 0xE5 SHL DUP2 MSTORE PUSH1 0x20 PUSH1 0x4 DUP3 ADD MSTORE PUSH1 0x2 PUSH1 0x24 DUP3 ADD MSTORE PUSH2 0x216D PUSH1 0xF0 SHL PUSH1 0x44 DUP3 ADD MSTORE PUSH1 0x64 ADD PUSH2 0x7A1 JUMP JUMPDEST PUSH2 0x991 DUP3 DUP3 PUSH2 0x1834 JUMP JUMPDEST PUSH2 0x8A1 DUP4 DUP4 DUP4 PUSH1 0x40 MLOAD DUP1 PUSH1 0x20 ADD PUSH1 0x40 MSTORE DUP1 PUSH0 DUP2 MSTORE POP PUSH2 0xF1E JUMP JUMPDEST PUSH0 PUSH2 0xBDB PUSH1 0x8 SLOAD SWAP1 JUMP JUMPDEST DUP3 LT PUSH2 0xC03 JUMPI PUSH1 0x40 MLOAD PUSH4 0x295F44F7 PUSH1 0xE2 SHL DUP2 MSTORE PUSH0 PUSH1 0x4 DUP3 ADD MSTORE PUSH1 0x24 DUP2 ADD DUP4 SWAP1 MSTORE PUSH1 0x44 ADD PUSH2 0x7A1 JUMP JUMPDEST PUSH1 0x8 DUP3 DUP2 SLOAD DUP2 LT PUSH2 0xC16 JUMPI PUSH2 0xC16 PUSH2 0x29DF JUMP JUMPDEST SWAP1 PUSH0 MSTORE PUSH1 0x20 PUSH0 KECCAK256 ADD SLOAD SWAP1 POP SWAP2 SWAP1 POP JUMP JUMPDEST PUSH1 0xA SLOAD PUSH1 0x1 PUSH1 0x1 PUSH1 0xA0 SHL SUB AND CALLER EQ DUP1 PUSH2 0xC49 JUMPI POP PUSH1 0x13 SLOAD PUSH1 0x1 PUSH1 0x1 PUSH1 0xA0 SHL SUB AND CALLER EQ JUMPDEST PUSH2 0xC65 JUMPI PUSH1 0x40 MLOAD PUSH3 0x461BCD PUSH1 0xE5 SHL DUP2 MSTORE PUSH1 0x4 ADD PUSH2 0x7A1 SWAP1 PUSH2 0x295C JUMP JUMPDEST PUSH1 0x14 DUP1 SLOAD PUSH1 0x1 PUSH1 0x1 PUSH1 0xA0 SHL SUB NOT AND PUSH1 0x1 PUSH1 0x1 PUSH1 0xA0 SHL SUB SWAP3 SWAP1 SWAP3 AND SWAP2 SWAP1 SWAP2 OR SWAP1 SSTORE JUMP JUMPDEST PUSH0 PUSH2 0x8CA DUP3 PUSH2 0x16A2 JUMP JUMPDEST PUSH1 0xA SLOAD PUSH1 0x1 PUSH1 0x1 PUSH1 0xA0 SHL SUB AND CALLER EQ DUP1 PUSH2 0xCB4 JUMPI POP PUSH1 0x13 SLOAD PUSH1 0x1 PUSH1 0x1 PUSH1 0xA0 SHL SUB AND CALLER EQ JUMPDEST PUSH2 0xCD0 JUMPI PUSH1 0x40 MLOAD PUSH3 0x461BCD PUSH1 0xE5 SHL DUP2 MSTORE PUSH1 0x4 ADD PUSH2 0x7A1 SWAP1 PUSH2 0x295C JUMP JUMPDEST PUSH1 0x13 DUP1 SLOAD PUSH1 0x1 PUSH1 0x1 PUSH1 0xA0 SHL SUB NOT AND PUSH1 0x1 PUSH1 0x1 PUSH1 0xA0 SHL SUB DUP4 AND SWAP1 DUP2 OR SWAP1 SWAP2 SSTORE PUSH1 0x40 MLOAD PUSH32 0xA36142288B0F426E10FA5751064474C8752AFFB9516D10B56C3AE2CD5693E925 SWAP1 PUSH0 SWAP1 LOG2 POP JUMP JUMPDEST PUSH0 PUSH1 0x1 DUP3 SUB PUSH2 0xD32 JUMPI POP PUSH9 0x1B1AE4D6E2EF500000 SWAP2 SWAP1 POP JUMP JUMPDEST PUSH1 0x2 DUP3 SUB PUSH2 0xD4A JUMPI POP PUSH9 0x5150AE84A8CDF00000 SWAP2 SWAP1 POP JUMP JUMPDEST PUSH1 0x3 DUP3 SUB PUSH2 0xD63 JUMPI POP PUSH10 0x10F0CF064DD59200000 SWAP2 SWAP1 POP JUMP JUMPDEST POP PUSH0 SWAP2 SWAP1 POP JUMP JUMPDEST PUSH1 0xA SLOAD PUSH1 0x1 PUSH1 0x1 PUSH1 0xA0 SHL SUB AND CALLER EQ DUP1 PUSH2 0xD8D JUMPI POP PUSH1 0x13 SLOAD PUSH1 0x1 PUSH1 0x1 PUSH1 0xA0 SHL SUB AND CALLER EQ JUMPDEST PUSH2 0xDA9 JUMPI PUSH1 0x40 MLOAD PUSH3 0x461BCD PUSH1 0xE5 SHL DUP2 MSTORE PUSH1 0x4 ADD PUSH2 0x7A1 SWAP1 PUSH2 0x295C JUMP JUMPDEST PUSH1 0x12 DUP1 SLOAD PUSH1 0x1 PUSH1 0x1 PUSH1 0xA0 SHL SUB NOT AND PUSH1 0x1 PUSH1 0x1 PUSH1 0xA0 SHL SUB SWAP3 SWAP1 SWAP3 AND SWAP2 SWAP1 SWAP2 OR SWAP1 SSTORE JUMP JUMPDEST PUSH1 0xA SLOAD PUSH1 0x1 PUSH1 0x1 PUSH1 0xA0 SHL SUB AND CALLER EQ DUP1 PUSH2 0xDEE JUMPI POP PUSH1 0x13 SLOAD PUSH1 0x1 PUSH1 0x1 PUSH1 0xA0 SHL SUB AND CALLER EQ JUMPDEST PUSH2 0xE0A JUMPI PUSH1 0x40 MLOAD PUSH3 0x461BCD PUSH1 0xE5 SHL DUP2 MSTORE PUSH1 0x4 ADD PUSH2 0x7A1 SWAP1 PUSH2 0x295C JUMP JUMPDEST DUP3 DUP2 EQ PUSH2 0xE4B JUMPI PUSH1 0x40 MLOAD PUSH3 0x461BCD PUSH1 0xE5 SHL DUP2 MSTORE PUSH1 0x20 PUSH1 0x4 DUP3 ADD MSTORE PUSH1 0xF PUSH1 0x24 DUP3 ADD MSTORE PUSH15 0xD8CADCCEE8D040DAD2E6DAC2E8C6D PUSH1 0x8B SHL PUSH1 0x44 DUP3 ADD MSTORE PUSH1 0x64 ADD PUSH2 0x7A1 JUMP JUMPDEST PUSH0 JUMPDEST DUP4 DUP2 LT ISZERO PUSH2 0xEA5 JUMPI PUSH2 0xE9D DUP6 DUP6 DUP4 DUP2 DUP2 LT PUSH2 0xE6A JUMPI PUSH2 0xE6A PUSH2 0x29DF JUMP JUMPDEST SWAP1 POP PUSH1 0x20 MUL ADD PUSH1 0x20 DUP2 ADD SWAP1 PUSH2 0xE7F SWAP2 SWAP1 PUSH2 0x2734 JUMP JUMPDEST DUP5 DUP5 DUP5 DUP2 DUP2 LT PUSH2 0xE91 JUMPI PUSH2 0xE91 PUSH2 0x29DF JUMP JUMPDEST SWAP1 POP PUSH1 0x20 MUL ADD CALLDATALOAD PUSH2 0x1834 JUMP JUMPDEST PUSH1 0x1 ADD PUSH2 0xE4D JUMP JUMPDEST POP POP POP POP POP JUMP JUMPDEST PUSH0 PUSH1 0x1 PUSH1 0x1 PUSH1 0xA0 SHL SUB DUP3 AND PUSH2 0xED6 JUMPI PUSH1 0x40 MLOAD PUSH4 0x22718AD9 PUSH1 0xE2 SHL DUP2 MSTORE PUSH0 PUSH1 0x4 DUP3 ADD MSTORE PUSH1 0x24 ADD PUSH2 0x7A1 JUMP JUMPDEST POP PUSH1 0x1 PUSH1 0x1 PUSH1 0xA0 SHL SUB AND PUSH0 SWAP1 DUP2 MSTORE PUSH1 0x3 PUSH1 0x20 MSTORE PUSH1 0x40 SWAP1 KECCAK256 SLOAD SWAP1 JUMP JUMPDEST PUSH2 0xEF9 PUSH2 0x1BCF JUMP JUMPDEST PUSH2 0xF02 PUSH0 PUSH2 0x1BFC JUMP JUMPDEST JUMP JUMPDEST PUSH1 0x60 PUSH1 0x1 DUP1 SLOAD PUSH2 0x8DE SWAP1 PUSH2 0x297B JUMP JUMPDEST PUSH2 0x991 CALLER DUP4 DUP4 PUSH2 0x1C4D JUMP JUMPDEST PUSH2 0xF29 DUP5 DUP5 DUP5 PUSH2 0xA73 JUMP JUMPDEST PUSH2 0x887 CALLER DUP6 DUP6 DUP6 DUP6 PUSH2 0x1D0C JUMP JUMPDEST PUSH1 0xA SLOAD PUSH1 0x1 PUSH1 0x1 PUSH1 0xA0 SHL SUB AND CALLER EQ DUP1 PUSH2 0xF59 JUMPI POP PUSH1 0x13 SLOAD PUSH1 0x1 PUSH1 0x1 PUSH1 0xA0 SHL SUB AND CALLER EQ JUMPDEST PUSH2 0xF75 JUMPI PUSH1 0x40 MLOAD PUSH3 0x461BCD PUSH1 0xE5 SHL DUP2 MSTORE PUSH1 0x4 ADD PUSH2 0x7A1 SWAP1 PUSH2 0x295C JUMP JUMPDEST PUSH1 0xD DUP2 SWAP1 SSTORE PUSH1 0x40 DUP1 MLOAD PUSH1 0x3 DUP2 MSTORE PUSH1 0x20 DUP2 ADD DUP4 SWAP1 MSTORE PUSH32 0xB92303FD2B1DF67A887CBF19EA12A277783C2912E1ED5606D43C6C033C4D60E0 SWAP2 ADD PUSH2 0xA68 JUMP JUMPDEST PUSH1 0xA SLOAD PUSH1 0x1 PUSH1 0x1 PUSH1 0xA0 SHL SUB AND CALLER EQ DUP1 PUSH2 0xFD4 JUMPI POP PUSH1 0x13 SLOAD PUSH1 0x1 PUSH1 0x1 PUSH1 0xA0 SHL SUB AND CALLER EQ JUMPDEST PUSH2 0xFF0 JUMPI PUSH1 0x40 MLOAD PUSH3 0x461BCD PUSH1 0xE5 SHL DUP2 MSTORE PUSH1 0x4 ADD PUSH2 0x7A1 SWAP1 PUSH2 0x295C JUMP JUMPDEST PUSH1 0x15 DUP1 SLOAD PUSH1 0x1 PUSH1 0x1 PUSH1 0xA0 SHL SUB NOT AND PUSH1 0x1 PUSH1 0x1 PUSH1 0xA0 SHL SUB SWAP3 SWAP1 SWAP3 AND SWAP2 SWAP1 SWAP2 OR SWAP1 SSTORE JUMP JUMPDEST PUSH1 0x1 DUP2 LT ISZERO DUP1 ISZERO PUSH2 0x1024 JUMPI POP PUSH1 0x3 DUP2 GT ISZERO JUMPDEST PUSH2 0x105F JUMPI PUSH1 0x40 MLOAD PUSH3 0x461BCD PUSH1 0xE5 SHL DUP2 MSTORE PUSH1 0x20 PUSH1 0x4 DUP3 ADD MSTORE PUSH1 0xC PUSH1 0x24 DUP3 ADD MSTORE PUSH12 0x696E76616C69642074797065 PUSH1 0xA0 SHL PUSH1 0x44 DUP3 ADD MSTORE PUSH1 0x64 ADD PUSH2 0x7A1 JUMP JUMPDEST PUSH1 0x11 SLOAD PUSH1 0x1 PUSH1 0x1 PUSH1 0xA0 SHL SUB AND PUSH2 0x10A3 JUMPI PUSH1 0x40 MLOAD PUSH3 0x461BCD PUSH1 0xE5 SHL DUP2 MSTORE PUSH1 0x20 PUSH1 0x4 DUP3 ADD MSTORE PUSH1 0x9 PUSH1 0x24 DUP3 ADD MSTORE PUSH9 0x217472656173757279 PUSH1 0xB8 SHL PUSH1 0x44 DUP3 ADD MSTORE PUSH1 0x64 ADD PUSH2 0x7A1 JUMP JUMPDEST PUSH0 PUSH1 0x1 DUP3 SUB PUSH2 0x1116 JUMPI PUSH1 0xB SLOAD PUSH1 0xE SLOAD LT PUSH2 0x10F1 JUMPI PUSH1 0x40 MLOAD PUSH3 0x461BCD PUSH1 0xE5 SHL DUP2 MSTORE PUSH1 0x20 PUSH1 0x4 DUP3 ADD MSTORE PUSH1 0xF PUSH1 0x24 DUP3 ADD MSTORE PUSH15 0x104818D85C99081CDBDB19081BDD5D PUSH1 0x8A SHL PUSH1 0x44 DUP3 ADD MSTORE PUSH1 0x64 ADD PUSH2 0x7A1 JUMP JUMPDEST PUSH1 0xE DUP1 SLOAD SWAP1 PUSH0 PUSH2 0x1100 DUP4 PUSH2 0x29C7 JUMP JUMPDEST SWAP2 SWAP1 POP SSTORE POP PUSH9 0x1B1AE4D6E2EF500000 SWAP1 POP PUSH2 0x11EF JUMP JUMPDEST PUSH1 0x2 DUP3 SUB PUSH2 0x1188 JUMPI PUSH1 0xC SLOAD PUSH1 0xF SLOAD LT PUSH2 0x1163 JUMPI PUSH1 0x40 MLOAD PUSH3 0x461BCD PUSH1 0xE5 SHL DUP2 MSTORE PUSH1 0x20 PUSH1 0x4 DUP3 ADD MSTORE PUSH1 0xF PUSH1 0x24 DUP3 ADD MSTORE PUSH15 0x108818D85C99081CDBDB19081BDD5D PUSH1 0x8A SHL PUSH1 0x44 DUP3 ADD MSTORE PUSH1 0x64 ADD PUSH2 0x7A1 JUMP JUMPDEST PUSH1 0xF DUP1 SLOAD SWAP1 PUSH0 PUSH2 0x1172 DUP4 PUSH2 0x29C7 JUMP JUMPDEST SWAP2 SWAP1 POP SSTORE POP PUSH9 0x5150AE84A8CDF00000 SWAP1 POP PUSH2 0x11EF JUMP JUMPDEST PUSH1 0xD SLOAD PUSH1 0x10 SLOAD LT PUSH2 0x11CD JUMPI PUSH1 0x40 MLOAD PUSH3 0x461BCD PUSH1 0xE5 SHL DUP2 MSTORE PUSH1 0x20 PUSH1 0x4 DUP3 ADD MSTORE PUSH1 0xF PUSH1 0x24 DUP3 ADD MSTORE PUSH15 0x10C818D85C99081CDBDB19081BDD5D PUSH1 0x8A SHL PUSH1 0x44 DUP3 ADD MSTORE PUSH1 0x64 ADD PUSH2 0x7A1 JUMP JUMPDEST PUSH1 0x10 DUP1 SLOAD SWAP1 PUSH0 PUSH2 0x11DC DUP4 PUSH2 0x29C7 JUMP JUMPDEST SWAP2 SWAP1 POP SSTORE POP PUSH10 0x10F0CF064DD59200000 SWAP1 POP JUMPDEST PUSH1 0x11 SLOAD PUSH2 0x121D SWAP1 PUSH20 0x55D398326F99059FF775485246999027B3197955 SWAP1 CALLER SWAP1 PUSH1 0x1 PUSH1 0x1 PUSH1 0xA0 SHL SUB AND DUP5 PUSH2 0x1E33 JUMP JUMPDEST PUSH0 PUSH2 0x1227 PUSH1 0x8 SLOAD SWAP1 JUMP JUMPDEST PUSH2 0x1232 SWAP1 PUSH1 0x1 PUSH2 0x29F3 JUMP JUMPDEST SWAP1 POP PUSH2 0x123E CALLER DUP3 PUSH2 0x1E69 JUMP JUMPDEST PUSH0 DUP2 DUP2 MSTORE PUSH1 0x16 PUSH1 0x20 SWAP1 DUP2 MSTORE PUSH1 0x40 DUP1 DUP4 KECCAK256 DUP7 SWAP1 SSTORE CALLER DUP4 MSTORE PUSH1 0x17 SWAP1 SWAP2 MSTORE DUP2 KECCAK256 DUP1 SLOAD DUP5 SWAP3 SWAP1 PUSH2 0x126B SWAP1 DUP5 SWAP1 PUSH2 0x29F3 JUMP JUMPDEST SWAP1 SWAP2 SSTORE POP POP CALLER PUSH0 DUP2 DUP2 MSTORE PUSH1 0x17 PUSH1 0x20 SWAP1 DUP2 MSTORE PUSH1 0x40 SWAP2 DUP3 SWAP1 KECCAK256 SLOAD SWAP2 MLOAD SWAP2 DUP3 MSTORE PUSH0 MLOAD PUSH1 0x20 PUSH2 0x2AB0 PUSH0 CODECOPY PUSH0 MLOAD SWAP1 PUSH0 MSTORE SWAP2 ADD PUSH1 0x40 MLOAD DUP1 SWAP2 SUB SWAP1 LOG2 PUSH1 0x14 SLOAD PUSH1 0x1 PUSH1 0x1 PUSH1 0xA0 SHL SUB AND ISZERO PUSH2 0x13BF JUMPI PUSH0 PUSH0 NOT DUP5 ADD PUSH2 0x12C2 JUMPI POP PUSH1 0x1 PUSH2 0x12DE JUMP JUMPDEST PUSH1 0x2 DUP5 SUB PUSH2 0x12D2 JUMPI POP PUSH1 0x2 PUSH2 0x12DE JUMP JUMPDEST PUSH1 0x3 DUP5 SUB PUSH2 0x12DE JUMPI POP PUSH1 0x3 JUMPDEST PUSH1 0xFF DUP2 AND ISZERO PUSH2 0x13BD JUMPI PUSH1 0x14 SLOAD PUSH1 0x40 MLOAD PUSH4 0x1C903AD9 PUSH1 0xE1 SHL DUP2 MSTORE CALLER PUSH1 0x4 DUP3 ADD MSTORE PUSH1 0xFF DUP4 AND PUSH1 0x24 DUP3 ADD MSTORE PUSH1 0x1 PUSH1 0x1 PUSH1 0xA0 SHL SUB SWAP1 SWAP2 AND SWAP1 PUSH4 0x392075B2 SWAP1 PUSH1 0x44 ADD PUSH0 PUSH1 0x40 MLOAD DUP1 DUP4 SUB DUP2 PUSH0 DUP8 DUP1 EXTCODESIZE ISZERO DUP1 ISZERO PUSH2 0x1332 JUMPI PUSH0 PUSH0 REVERT JUMPDEST POP GAS CALL ISZERO DUP1 ISZERO PUSH2 0x1344 JUMPI RETURNDATASIZE PUSH0 PUSH0 RETURNDATACOPY RETURNDATASIZE PUSH0 REVERT JUMPDEST POP POP PUSH1 0x15 SLOAD PUSH1 0x1 PUSH1 0x1 PUSH1 0xA0 SHL SUB AND ISZERO SWAP2 POP PUSH2 0x13BD SWAP1 POP JUMPI PUSH1 0x15 SLOAD PUSH1 0x40 MLOAD PUSH4 0x1C903AD9 PUSH1 0xE1 SHL DUP2 MSTORE CALLER PUSH1 0x4 DUP3 ADD MSTORE PUSH1 0xFF DUP4 AND PUSH1 0x24 DUP3 ADD MSTORE PUSH1 0x1 PUSH1 0x1 PUSH1 0xA0 SHL SUB SWAP1 SWAP2 AND SWAP1 PUSH4 0x392075B2 SWAP1 PUSH1 0x44 ADD PUSH0 PUSH1 0x40 MLOAD DUP1 DUP4 SUB DUP2 PUSH0 DUP8 DUP1 EXTCODESIZE ISZERO DUP1 ISZERO PUSH2 0x13A6 JUMPI PUSH0 PUSH0 REVERT JUMPDEST POP GAS CALL ISZERO DUP1 ISZERO PUSH2 0x13B8 JUMPI RETURNDATASIZE PUSH0 PUSH0 RETURNDATACOPY RETURNDATASIZE PUSH0 REVERT JUMPDEST POP POP POP POP JUMPDEST POP JUMPDEST PUSH1 0x40 DUP1 MLOAD DUP5 DUP2 MSTORE PUSH1 0x20 DUP2 ADD DUP5 SWAP1 MSTORE DUP3 SWAP2 CALLER SWAP2 PUSH32 0x43C7138120D6082BE37DBBF053360A3F7EF694833241B0458183BD5F61C3159 SWAP2 ADD JUMPDEST PUSH1 0x40 MLOAD DUP1 SWAP2 SUB SWAP1 LOG3 POP POP POP JUMP JUMPDEST PUSH1 0x60 PUSH2 0x140D DUP3 PUSH2 0x16A2 JUMP JUMPDEST POP PUSH0 PUSH2 0x1423 PUSH1 0x40 DUP1 MLOAD PUSH1 0x20 DUP2 ADD SWAP1 SWAP2 MSTORE PUSH0 DUP2 MSTORE SWAP1 JUMP JUMPDEST SWAP1 POP PUSH0 DUP2 MLOAD GT PUSH2 0x1441 JUMPI PUSH1 0x40 MLOAD DUP1 PUSH1 0x20 ADD PUSH1 0x40 MSTORE DUP1 PUSH0 DUP2 MSTORE POP PUSH2 0x146C JUMP JUMPDEST DUP1 PUSH2 0x144B DUP5 PUSH2 0x1E82 JUMP JUMPDEST PUSH1 0x40 MLOAD PUSH1 0x20 ADD PUSH2 0x145C SWAP3 SWAP2 SWAP1 PUSH2 0x2A1D JUMP JUMPDEST PUSH1 0x40 MLOAD PUSH1 0x20 DUP2 DUP4 SUB SUB DUP2 MSTORE SWAP1 PUSH1 0x40 MSTORE JUMPDEST SWAP4 SWAP3 POP POP POP JUMP JUMPDEST PUSH0 PUSH0 PUSH0 PUSH1 0xE SLOAD PUSH1 0xB SLOAD PUSH2 0x1486 SWAP2 SWAP1 PUSH2 0x2A31 JUMP JUMPDEST SWAP3 POP PUSH1 0xF SLOAD PUSH1 0xC SLOAD PUSH2 0x1498 SWAP2 SWAP1 PUSH2 0x2A31 JUMP JUMPDEST SWAP2 POP PUSH1 0x10 SLOAD PUSH1 0xD SLOAD PUSH2 0x14AA SWAP2 SWAP1 PUSH2 0x2A31 JUMP JUMPDEST SWAP1 POP SWAP1 SWAP2 SWAP3 JUMP JUMPDEST PUSH1 0x1 PUSH1 0x1 PUSH1 0xA0 SHL SUB SWAP2 DUP3 AND PUSH0 SWAP1 DUP2 MSTORE PUSH1 0x5 PUSH1 0x20 SWAP1 DUP2 MSTORE PUSH1 0x40 DUP1 DUP4 KECCAK256 SWAP4 SWAP1 SWAP5 AND DUP3 MSTORE SWAP2 SWAP1 SWAP2 MSTORE KECCAK256 SLOAD PUSH1 0xFF AND SWAP1 JUMP JUMPDEST PUSH1 0xA SLOAD PUSH1 0x1 PUSH1 0x1 PUSH1 0xA0 SHL SUB AND CALLER EQ DUP1 PUSH2 0x1501 JUMPI POP PUSH1 0x13 SLOAD PUSH1 0x1 PUSH1 0x1 PUSH1 0xA0 SHL SUB AND CALLER EQ JUMPDEST PUSH2 0x151D JUMPI PUSH1 0x40 MLOAD PUSH3 0x461BCD PUSH1 0xE5 SHL DUP2 MSTORE PUSH1 0x4 ADD PUSH2 0x7A1 SWAP1 PUSH2 0x295C JUMP JUMPDEST PUSH1 0x11 DUP1 SLOAD PUSH1 0x1 PUSH1 0x1 PUSH1 0xA0 SHL SUB NOT AND PUSH1 0x1 PUSH1 0x1 PUSH1 0xA0 SHL SUB DUP4 AND SWAP1 DUP2 OR SWAP1 SWAP2 SSTORE PUSH1 0x40 MLOAD PUSH32 0x7DAE230F18360D76A040C81F050AA14EB9D6DC7901B20FC5D855E2A20FE814D1 SWAP1 PUSH0 SWAP1 LOG2 POP JUMP JUMPDEST PUSH2 0x156E PUSH2 0x1BCF JUMP JUMPDEST PUSH1 0x1 PUSH1 0x1 PUSH1 0xA0 SHL SUB DUP2 AND PUSH2 0x1597 JUMPI PUSH1 0x40 MLOAD PUSH4 0x1E4FBDF7 PUSH1 0xE0 SHL DUP2 MSTORE PUSH0 PUSH1 0x4 DUP3 ADD MSTORE PUSH1 0x24 ADD PUSH2 0x7A1 JUMP JUMPDEST PUSH2 0x15A0 DUP2 PUSH2 0x1BFC JUMP JUMPDEST POP JUMP JUMPDEST PUSH1 0xA SLOAD PUSH1 0x1 PUSH1 0x1 PUSH1 0xA0 SHL SUB AND CALLER EQ DUP1 PUSH2 0x15C6 JUMPI POP PUSH1 0x13 SLOAD PUSH1 0x1 PUSH1 0x1 PUSH1 0xA0 SHL SUB AND CALLER EQ JUMPDEST PUSH2 0x15E2 JUMPI PUSH1 0x40 MLOAD PUSH3 0x461BCD PUSH1 0xE5 SHL DUP2 MSTORE PUSH1 0x4 ADD PUSH2 0x7A1 SWAP1 PUSH2 0x295C JUMP JUMPDEST PUSH1 0xC DUP2 SWAP1 SSTORE PUSH1 0x40 DUP1 MLOAD PUSH1 0x2 DUP2 MSTORE PUSH1 0x20 DUP2 ADD DUP4 SWAP1 MSTORE PUSH32 0xB92303FD2B1DF67A887CBF19EA12A277783C2912E1ED5606D43C6C033C4D60E0 SWAP2 ADD PUSH2 0xA68 JUMP JUMPDEST PUSH2 0x162B DUP4 DUP4 DUP4 PUSH1 0x1 PUSH2 0x1F12 JUMP JUMPDEST PUSH2 0x8A1 JUMPI PUSH1 0x40 MLOAD PUSH4 0x5274AFE7 PUSH1 0xE0 SHL DUP2 MSTORE PUSH1 0x1 PUSH1 0x1 PUSH1 0xA0 SHL SUB DUP5 AND PUSH1 0x4 DUP3 ADD MSTORE PUSH1 0x24 ADD PUSH2 0x7A1 JUMP JUMPDEST PUSH0 PUSH1 0x1 PUSH1 0x1 PUSH1 0xE0 SHL SUB NOT DUP3 AND PUSH4 0x80AC58CD PUSH1 0xE0 SHL EQ DUP1 PUSH2 0x1683 JUMPI POP PUSH1 0x1 PUSH1 0x1 PUSH1 0xE0 SHL SUB NOT DUP3 AND PUSH4 0x5B5E139F PUSH1 0xE0 SHL EQ JUMPDEST DUP1 PUSH2 0x8CA JUMPI POP PUSH4 0x1FFC9A7 PUSH1 0xE0 SHL PUSH1 0x1 PUSH1 0x1 PUSH1 0xE0 SHL SUB NOT DUP4 AND EQ PUSH2 0x8CA JUMP JUMPDEST PUSH0 DUP2 DUP2 MSTORE PUSH1 0x2 PUSH1 0x20 MSTORE PUSH1 0x40 DUP2 KECCAK256 SLOAD PUSH1 0x1 PUSH1 0x1 PUSH1 0xA0 SHL SUB AND DUP1 PUSH2 0x8CA JUMPI PUSH1 0x40 MLOAD PUSH4 0x7E273289 PUSH1 0xE0 SHL DUP2 MSTORE PUSH1 0x4 DUP2 ADD DUP5 SWAP1 MSTORE PUSH1 0x24 ADD PUSH2 0x7A1 JUMP JUMPDEST PUSH2 0x8A1 DUP4 DUP4 DUP4 PUSH1 0x1 PUSH2 0x1F74 JUMP JUMPDEST PUSH0 DUP3 DUP2 MSTORE PUSH1 0x2 PUSH1 0x20 MSTORE PUSH1 0x40 DUP2 KECCAK256 SLOAD PUSH1 0x1 PUSH1 0x1 PUSH1 0xA0 SHL SUB AND DUP1 ISZERO PUSH2 0x1789 JUMPI PUSH0 DUP5 DUP2 MSTORE PUSH1 0x16 PUSH1 0x20 MSTORE PUSH1 0x40 DUP2 KECCAK256 SLOAD SWAP1 PUSH2 0x171C DUP3 PUSH2 0xD19 JUMP JUMPDEST PUSH1 0x1 PUSH1 0x1 PUSH1 0xA0 SHL SUB DUP5 AND PUSH0 SWAP1 DUP2 MSTORE PUSH1 0x17 PUSH1 0x20 MSTORE PUSH1 0x40 DUP2 KECCAK256 DUP1 SLOAD SWAP3 SWAP4 POP DUP4 SWAP3 SWAP1 SWAP2 SWAP1 PUSH2 0x1748 SWAP1 DUP5 SWAP1 PUSH2 0x2A31 JUMP JUMPDEST SWAP1 SWAP2 SSTORE POP POP PUSH1 0x1 PUSH1 0x1 PUSH1 0xA0 SHL SUB DUP4 AND PUSH0 DUP2 DUP2 MSTORE PUSH1 0x17 PUSH1 0x20 SWAP1 DUP2 MSTORE PUSH1 0x40 SWAP2 DUP3 SWAP1 KECCAK256 SLOAD SWAP2 MLOAD SWAP2 DUP3 MSTORE PUSH0 MLOAD PUSH1 0x20 PUSH2 0x2AB0 PUSH0 CODECOPY PUSH0 MLOAD SWAP1 PUSH0 MSTORE SWAP2 ADD PUSH1 0x40 MLOAD DUP1 SWAP2 SUB SWAP1 LOG2 POP POP JUMPDEST PUSH0 PUSH2 0x1795 DUP7 DUP7 DUP7 PUSH2 0x2078 JUMP JUMPDEST SWAP1 POP PUSH1 0x1 PUSH1 0x1 PUSH1 0xA0 SHL SUB DUP7 AND ISZERO PUSH2 0x182B JUMPI PUSH0 DUP6 DUP2 MSTORE PUSH1 0x16 PUSH1 0x20 MSTORE PUSH1 0x40 DUP2 KECCAK256 SLOAD SWAP1 PUSH2 0x17BE DUP3 PUSH2 0xD19 JUMP JUMPDEST PUSH1 0x1 PUSH1 0x1 PUSH1 0xA0 SHL SUB DUP10 AND PUSH0 SWAP1 DUP2 MSTORE PUSH1 0x17 PUSH1 0x20 MSTORE PUSH1 0x40 DUP2 KECCAK256 DUP1 SLOAD SWAP3 SWAP4 POP DUP4 SWAP3 SWAP1 SWAP2 SWAP1 PUSH2 0x17EA SWAP1 DUP5 SWAP1 PUSH2 0x29F3 JUMP JUMPDEST SWAP1 SWAP2 SSTORE POP POP PUSH1 0x1 PUSH1 0x1 PUSH1 0xA0 SHL SUB DUP9 AND PUSH0 DUP2 DUP2 MSTORE PUSH1 0x17 PUSH1 0x20 SWAP1 DUP2 MSTORE PUSH1 0x40 SWAP2 DUP3 SWAP1 KECCAK256 SLOAD SWAP2 MLOAD SWAP2 DUP3 MSTORE PUSH0 MLOAD PUSH1 0x20 PUSH2 0x2AB0 PUSH0 CODECOPY PUSH0 MLOAD SWAP1 PUSH0 MSTORE SWAP2 ADD PUSH1 0x40 MLOAD DUP1 SWAP2 SUB SWAP1 LOG2 POP POP JUMPDEST SWAP6 SWAP5 POP POP POP POP POP JUMP JUMPDEST PUSH1 0x1 DUP2 LT ISZERO DUP1 ISZERO PUSH2 0x1846 JUMPI POP PUSH1 0x3 DUP2 GT ISZERO JUMPDEST PUSH2 0x1881 JUMPI PUSH1 0x40 MLOAD PUSH3 0x461BCD PUSH1 0xE5 SHL DUP2 MSTORE PUSH1 0x20 PUSH1 0x4 DUP3 ADD MSTORE PUSH1 0xC PUSH1 0x24 DUP3 ADD MSTORE PUSH12 0x696E76616C69642074797065 PUSH1 0xA0 SHL PUSH1 0x44 DUP3 ADD MSTORE PUSH1 0x64 ADD PUSH2 0x7A1 JUMP JUMPDEST PUSH0 PUSH1 0x1 DUP3 SUB PUSH2 0x18F4 JUMPI PUSH1 0xB SLOAD PUSH1 0xE SLOAD LT PUSH2 0x18CF JUMPI PUSH1 0x40 MLOAD PUSH3 0x461BCD PUSH1 0xE5 SHL DUP2 MSTORE PUSH1 0x20 PUSH1 0x4 DUP3 ADD MSTORE PUSH1 0xF PUSH1 0x24 DUP3 ADD MSTORE PUSH15 0x104818D85C99081CDBDB19081BDD5D PUSH1 0x8A SHL PUSH1 0x44 DUP3 ADD MSTORE PUSH1 0x64 ADD PUSH2 0x7A1 JUMP JUMPDEST PUSH1 0xE DUP1 SLOAD SWAP1 PUSH0 PUSH2 0x18DE DUP4 PUSH2 0x29C7 JUMP JUMPDEST SWAP2 SWAP1 POP SSTORE POP PUSH9 0x1B1AE4D6E2EF500000 SWAP1 POP PUSH2 0x19CD JUMP JUMPDEST PUSH1 0x2 DUP3 SUB PUSH2 0x1966 JUMPI PUSH1 0xC SLOAD PUSH1 0xF SLOAD LT PUSH2 0x1941 JUMPI PUSH1 0x40 MLOAD PUSH3 0x461BCD PUSH1 0xE5 SHL DUP2 MSTORE PUSH1 0x20 PUSH1 0x4 DUP3 ADD MSTORE PUSH1 0xF PUSH1 0x24 DUP3 ADD MSTORE PUSH15 0x108818D85C99081CDBDB19081BDD5D PUSH1 0x8A SHL PUSH1 0x44 DUP3 ADD MSTORE PUSH1 0x64 ADD PUSH2 0x7A1 JUMP JUMPDEST PUSH1 0xF DUP1 SLOAD SWAP1 PUSH0 PUSH2 0x1950 DUP4 PUSH2 0x29C7 JUMP JUMPDEST SWAP2 SWAP1 POP SSTORE POP PUSH9 0x5150AE84A8CDF00000 SWAP1 POP PUSH2 0x19CD JUMP JUMPDEST PUSH1 0xD SLOAD PUSH1 0x10 SLOAD LT PUSH2 0x19AB JUMPI PUSH1 0x40 MLOAD PUSH3 0x461BCD PUSH1 0xE5 SHL DUP2 MSTORE PUSH1 0x20 PUSH1 0x4 DUP3 ADD MSTORE PUSH1 0xF PUSH1 0x24 DUP3 ADD MSTORE PUSH15 0x10C818D85C99081CDBDB19081BDD5D PUSH1 0x8A SHL PUSH1 0x44 DUP3 ADD MSTORE PUSH1 0x64 ADD PUSH2 0x7A1 JUMP JUMPDEST PUSH1 0x10 DUP1 SLOAD SWAP1 PUSH0 PUSH2 0x19BA DUP4 PUSH2 0x29C7 JUMP JUMPDEST SWAP2 SWAP1 POP SSTORE POP PUSH10 0x10F0CF064DD59200000 SWAP1 POP JUMPDEST PUSH0 PUSH2 0x19D7 PUSH1 0x8 SLOAD SWAP1 JUMP JUMPDEST PUSH2 0x19E2 SWAP1 PUSH1 0x1 PUSH2 0x29F3 JUMP JUMPDEST SWAP1 POP PUSH2 0x19EE DUP5 DUP3 PUSH2 0x1E69 JUMP JUMPDEST PUSH0 DUP2 DUP2 MSTORE PUSH1 0x16 PUSH1 0x20 SWAP1 DUP2 MSTORE PUSH1 0x40 DUP1 DUP4 KECCAK256 DUP7 SWAP1 SSTORE PUSH1 0x1 PUSH1 0x1 PUSH1 0xA0 SHL SUB DUP8 AND DUP4 MSTORE PUSH1 0x17 SWAP1 SWAP2 MSTORE DUP2 KECCAK256 DUP1 SLOAD DUP5 SWAP3 SWAP1 PUSH2 0x1A24 SWAP1 DUP5 SWAP1 PUSH2 0x29F3 JUMP JUMPDEST SWAP1 SWAP2 SSTORE POP POP PUSH1 0x1 PUSH1 0x1 PUSH1 0xA0 SHL SUB DUP5 AND PUSH0 DUP2 DUP2 MSTORE PUSH1 0x17 PUSH1 0x20 SWAP1 DUP2 MSTORE PUSH1 0x40 SWAP2 DUP3 SWAP1 KECCAK256 SLOAD SWAP2 MLOAD SWAP2 DUP3 MSTORE PUSH0 MLOAD PUSH1 0x20 PUSH2 0x2AB0 PUSH0 CODECOPY PUSH0 MLOAD SWAP1 PUSH0 MSTORE SWAP2 ADD PUSH1 0x40 MLOAD DUP1 SWAP2 SUB SWAP1 LOG2 PUSH1 0x14 SLOAD PUSH1 0x1 PUSH1 0x1 PUSH1 0xA0 SHL SUB AND ISZERO PUSH2 0x1B85 JUMPI PUSH0 PUSH0 NOT DUP5 ADD PUSH2 0x1A84 JUMPI POP PUSH1 0x1 PUSH2 0x1AA0 JUMP JUMPDEST PUSH1 0x2 DUP5 SUB PUSH2 0x1A94 JUMPI POP PUSH1 0x2 PUSH2 0x1AA0 JUMP JUMPDEST PUSH1 0x3 DUP5 SUB PUSH2 0x1AA0 JUMPI POP PUSH1 0x3 JUMPDEST PUSH1 0xFF DUP2 AND ISZERO PUSH2 0x1B83 JUMPI PUSH1 0x14 SLOAD PUSH1 0x40 MLOAD PUSH4 0x1C903AD9 PUSH1 0xE1 SHL DUP2 MSTORE PUSH1 0x1 PUSH1 0x1 PUSH1 0xA0 SHL SUB DUP8 DUP2 AND PUSH1 0x4 DUP4 ADD MSTORE PUSH1 0xFF DUP5 AND PUSH1 0x24 DUP4 ADD MSTORE SWAP1 SWAP2 AND SWAP1 PUSH4 0x392075B2 SWAP1 PUSH1 0x44 ADD PUSH0 PUSH1 0x40 MLOAD DUP1 DUP4 SUB DUP2 PUSH0 DUP8 DUP1 EXTCODESIZE ISZERO DUP1 ISZERO PUSH2 0x1AF6 JUMPI PUSH0 PUSH0 REVERT JUMPDEST POP GAS CALL ISZERO DUP1 ISZERO PUSH2 0x1B08 JUMPI RETURNDATASIZE PUSH0 PUSH0 RETURNDATACOPY RETURNDATASIZE PUSH0 REVERT JUMPDEST POP POP PUSH1 0x15 SLOAD PUSH1 0x1 PUSH1 0x1 PUSH1 0xA0 SHL SUB AND ISZERO SWAP2 POP PUSH2 0x1B83 SWAP1 POP JUMPI PUSH1 0x15 SLOAD PUSH1 0x40 MLOAD PUSH4 0x1C903AD9 PUSH1 0xE1 SHL DUP2 MSTORE PUSH1 0x1 PUSH1 0x1 PUSH1 0xA0 SHL SUB DUP8 DUP2 AND PUSH1 0x4 DUP4 ADD MSTORE PUSH1 0xFF DUP5 AND PUSH1 0x24 DUP4 ADD MSTORE SWAP1 SWAP2 AND SWAP1 PUSH4 0x392075B2 SWAP1 PUSH1 0x44 ADD PUSH0 PUSH1 0x40 MLOAD DUP1 DUP4 SUB DUP2 PUSH0 DUP8 DUP1 EXTCODESIZE ISZERO DUP1 ISZERO PUSH2 0x1B6C JUMPI PUSH0 PUSH0 REVERT JUMPDEST POP GAS CALL ISZERO DUP1 ISZERO PUSH2 0x1B7E JUMPI RETURNDATASIZE PUSH0 PUSH0 RETURNDATACOPY RETURNDATASIZE PUSH0 REVERT JUMPDEST POP POP POP POP JUMPDEST POP JUMPDEST DUP1 DUP5 PUSH1 0x1 PUSH1 0x1 PUSH1 0xA0 SHL SUB AND PUSH32 0xCB1C56D5745B05695241C17B7CFAECE9A64F70BC32508C0997990633BE8056FF DUP6 PUSH1 0x40 MLOAD PUSH2 0x1BC1 SWAP2 DUP2 MSTORE PUSH1 0x20 ADD SWAP1 JUMP JUMPDEST PUSH1 0x40 MLOAD DUP1 SWAP2 SUB SWAP1 LOG3 POP POP POP POP JUMP JUMPDEST PUSH1 0xA SLOAD PUSH1 0x1 PUSH1 0x1 PUSH1 0xA0 SHL SUB AND CALLER EQ PUSH2 0xF02 JUMPI PUSH1 0x40 MLOAD PUSH4 0x118CDAA7 PUSH1 0xE0 SHL DUP2 MSTORE CALLER PUSH1 0x4 DUP3 ADD MSTORE PUSH1 0x24 ADD PUSH2 0x7A1 JUMP JUMPDEST PUSH1 0xA DUP1 SLOAD PUSH1 0x1 PUSH1 0x1 PUSH1 0xA0 SHL SUB DUP4 DUP2 AND PUSH1 0x1 PUSH1 0x1 PUSH1 0xA0 SHL SUB NOT DUP4 AND DUP2 OR SWAP1 SWAP4 SSTORE PUSH1 0x40 MLOAD SWAP2 AND SWAP2 SWAP1 DUP3 SWAP1 PUSH32 0x8BE0079C531659141344CD1FD0A4F28419497F9722A3DAAFE3B4186F6B6457E0 SWAP1 PUSH0 SWAP1 LOG3 POP POP JUMP JUMPDEST PUSH1 0x1 PUSH1 0x1 PUSH1 0xA0 SHL SUB DUP4 AND PUSH2 0x1C76 JUMPI PUSH1 0x40 MLOAD PUSH4 0xA9FBF51F PUSH1 0xE0 SHL DUP2 MSTORE PUSH0 PUSH1 0x4 DUP3 ADD MSTORE PUSH1 0x24 ADD PUSH2 0x7A1 JUMP JUMPDEST PUSH1 0x1 PUSH1 0x1 PUSH1 0xA0 SHL SUB DUP3 AND PUSH2 0x1CA8 JUMPI PUSH1 0x40 MLOAD PUSH4 0xB611743 PUSH1 0xE3 SHL DUP2 MSTORE PUSH1 0x1 PUSH1 0x1 PUSH1 0xA0 SHL SUB DUP4 AND PUSH1 0x4 DUP3 ADD MSTORE PUSH1 0x24 ADD PUSH2 0x7A1 JUMP JUMPDEST PUSH1 0x1 PUSH1 0x1 PUSH1 0xA0 SHL SUB DUP4 DUP2 AND PUSH0 DUP2 DUP2 MSTORE PUSH1 0x5 PUSH1 0x20 SWAP1 DUP2 MSTORE PUSH1 0x40 DUP1 DUP4 KECCAK256 SWAP5 DUP8 AND DUP1 DUP5 MSTORE SWAP5 DUP3 MSTORE SWAP2 DUP3 SWAP1 KECCAK256 DUP1 SLOAD PUSH1 0xFF NOT AND DUP7 ISZERO ISZERO SWAP1 DUP2 OR SWAP1 SWAP2 SSTORE SWAP2 MLOAD SWAP2 DUP3 MSTORE PUSH32 0x17307EAB39AB6107E8899845AD3D59BD9653F200F220920489CA2B5937696C31 SWAP2 ADD PUSH2 0x13F5 JUMP JUMPDEST PUSH1 0x1 PUSH1 0x1 PUSH1 0xA0 SHL SUB DUP4 AND EXTCODESIZE ISZERO PUSH2 0xEA5 JUMPI PUSH1 0x40 MLOAD PUSH4 0xA85BD01 PUSH1 0xE1 SHL DUP2 MSTORE PUSH1 0x1 PUSH1 0x1 PUSH1 0xA0 SHL SUB DUP5 AND SWAP1 PUSH4 0x150B7A02 SWAP1 PUSH2 0x1D4E SWAP1 DUP9 SWAP1 DUP9 SWAP1 DUP8 SWAP1 DUP8 SWAP1 PUSH1 0x4 ADD PUSH2 0x2A44 JUMP JUMPDEST PUSH1 0x20 PUSH1 0x40 MLOAD DUP1 DUP4 SUB DUP2 PUSH0 DUP8 GAS CALL SWAP3 POP POP POP DUP1 ISZERO PUSH2 0x1D88 JUMPI POP PUSH1 0x40 DUP1 MLOAD PUSH1 0x1F RETURNDATASIZE SWAP1 DUP2 ADD PUSH1 0x1F NOT AND DUP3 ADD SWAP1 SWAP3 MSTORE PUSH2 0x1D85 SWAP2 DUP2 ADD SWAP1 PUSH2 0x2A80 JUMP JUMPDEST PUSH1 0x1 JUMPDEST PUSH2 0x1DEF JUMPI RETURNDATASIZE DUP1 DUP1 ISZERO PUSH2 0x1DB5 JUMPI PUSH1 0x40 MLOAD SWAP2 POP PUSH1 0x1F NOT PUSH1 0x3F RETURNDATASIZE ADD AND DUP3 ADD PUSH1 0x40 MSTORE RETURNDATASIZE DUP3 MSTORE RETURNDATASIZE PUSH0 PUSH1 0x20 DUP5 ADD RETURNDATACOPY PUSH2 0x1DBA JUMP JUMPDEST PUSH1 0x60 SWAP2 POP JUMPDEST POP DUP1 MLOAD PUSH0 SUB PUSH2 0x1DE7 JUMPI PUSH1 0x40 MLOAD PUSH4 0x32505749 PUSH1 0xE1 SHL DUP2 MSTORE PUSH1 0x1 PUSH1 0x1 PUSH1 0xA0 SHL SUB DUP6 AND PUSH1 0x4 DUP3 ADD MSTORE PUSH1 0x24 ADD PUSH2 0x7A1 JUMP JUMPDEST DUP1 MLOAD PUSH1 0x20 DUP3 ADD REVERT JUMPDEST PUSH1 0x1 PUSH1 0x1 PUSH1 0xE0 SHL SUB NOT DUP2 AND PUSH4 0xA85BD01 PUSH1 0xE1 SHL EQ PUSH2 0x1E2B JUMPI PUSH1 0x40 MLOAD PUSH4 0x32505749 PUSH1 0xE1 SHL DUP2 MSTORE PUSH1 0x1 PUSH1 0x1 PUSH1 0xA0 SHL SUB DUP6 AND PUSH1 0x4 DUP3 ADD MSTORE PUSH1 0x24 ADD PUSH2 0x7A1 JUMP JUMPDEST POP POP POP POP POP POP JUMP JUMPDEST PUSH2 0x1E41 DUP5 DUP5 DUP5 DUP5 PUSH1 0x1 PUSH2 0x214B JUMP JUMPDEST PUSH2 0x887 JUMPI PUSH1 0x40 MLOAD PUSH4 0x5274AFE7 PUSH1 0xE0 SHL DUP2 MSTORE PUSH1 0x1 PUSH1 0x1 PUSH1 0xA0 SHL SUB DUP6 AND PUSH1 0x4 DUP3 ADD MSTORE PUSH1 0x24 ADD PUSH2 0x7A1 JUMP JUMPDEST PUSH2 0x991 DUP3 DUP3 PUSH1 0x40 MLOAD DUP1 PUSH1 0x20 ADD PUSH1 0x40 MSTORE DUP1 PUSH0 DUP2 MSTORE POP PUSH2 0x21B8 JUMP JUMPDEST PUSH1 0x60 PUSH0 PUSH2 0x1E8E DUP4 PUSH2 0x21CF JUMP JUMPDEST PUSH1 0x1 ADD SWAP1 POP PUSH0 DUP2 PUSH8 0xFFFFFFFFFFFFFFFF DUP2 GT ISZERO PUSH2 0x1EAD JUMPI PUSH2 0x1EAD PUSH2 0x283A JUMP JUMPDEST PUSH1 0x40 MLOAD SWAP1 DUP1 DUP3 MSTORE DUP1 PUSH1 0x1F ADD PUSH1 0x1F NOT AND PUSH1 0x20 ADD DUP3 ADD PUSH1 0x40 MSTORE DUP1 ISZERO PUSH2 0x1ED7 JUMPI PUSH1 0x20 DUP3 ADD DUP2 DUP1 CALLDATASIZE DUP4 CALLDATACOPY ADD SWAP1 POP JUMPDEST POP SWAP1 POP DUP2 DUP2 ADD PUSH1 0x20 ADD JUMPDEST PUSH0 NOT ADD PUSH16 0x181899199A1A9B1B9C1CB0B131B232B3 PUSH1 0x81 SHL PUSH1 0xA DUP7 MOD BYTE DUP2 MSTORE8 PUSH1 0xA DUP6 DIV SWAP5 POP DUP5 PUSH2 0x1EE1 JUMPI POP SWAP4 SWAP3 POP POP POP JUMP JUMPDEST PUSH1 0x40 MLOAD PUSH4 0xA9059CBB PUSH1 0xE0 SHL PUSH0 DUP2 DUP2 MSTORE PUSH1 0x1 PUSH1 0x1 PUSH1 0xA0 SHL SUB DUP7 AND PUSH1 0x4 MSTORE PUSH1 0x24 DUP6 SWAP1 MSTORE SWAP2 PUSH1 0x20 DUP4 PUSH1 0x44 DUP2 DUP1 DUP12 GAS CALL SWAP3 POP PUSH1 0x1 PUSH0 MLOAD EQ DUP4 AND PUSH2 0x1F68 JUMPI DUP4 DUP4 ISZERO AND ISZERO PUSH2 0x1F5C JUMPI RETURNDATASIZE PUSH0 DUP3 RETURNDATACOPY RETURNDATASIZE DUP2 REVERT JUMPDEST PUSH0 DUP8 EXTCODESIZE GT RETURNDATASIZE ISZERO AND DUP4 AND SWAP3 POP JUMPDEST PUSH1 0x40 MSTORE POP SWAP5 SWAP4 POP POP POP POP JUMP JUMPDEST DUP1 DUP1 PUSH2 0x1F88 JUMPI POP PUSH1 0x1 PUSH1 0x1 PUSH1 0xA0 SHL SUB DUP3 AND ISZERO ISZERO JUMPDEST ISZERO PUSH2 0x2049 JUMPI PUSH0 PUSH2 0x1F97 DUP5 PUSH2 0x16A2 JUMP JUMPDEST SWAP1 POP PUSH1 0x1 PUSH1 0x1 PUSH1 0xA0 SHL SUB DUP4 AND ISZERO DUP1 ISZERO SWAP1 PUSH2 0x1FC3 JUMPI POP DUP3 PUSH1 0x1 PUSH1 0x1 PUSH1 0xA0 SHL SUB AND DUP2 PUSH1 0x1 PUSH1 0x1 PUSH1 0xA0 SHL SUB AND EQ ISZERO JUMPDEST DUP1 ISZERO PUSH2 0x1FD6 JUMPI POP PUSH2 0x1FD4 DUP2 DUP5 PUSH2 0x14B1 JUMP JUMPDEST ISZERO JUMPDEST ISZERO PUSH2 0x1FFF JUMPI PUSH1 0x40 MLOAD PUSH4 0xA9FBF51F PUSH1 0xE0 SHL DUP2 MSTORE PUSH1 0x1 PUSH1 0x1 PUSH1 0xA0 SHL SUB DUP5 AND PUSH1 0x4 DUP3 ADD MSTORE PUSH1 0x24 ADD PUSH2 0x7A1 JUMP JUMPDEST DUP2 ISZERO PUSH2 0x2047 JUMPI DUP4 DUP6 PUSH1 0x1 PUSH1 0x1 PUSH1 0xA0 SHL SUB AND DUP3 PUSH1 0x1 PUSH1 0x1 PUSH1 0xA0 SHL SUB AND PUSH32 0x8C5BE1E5EBEC7D5BD14F71427D1E84F3DD0314C0F7B2291E5B200AC8C7C3B925 PUSH1 0x40 MLOAD PUSH1 0x40 MLOAD DUP1 SWAP2 SUB SWAP1 LOG4 JUMPDEST POP JUMPDEST POP POP PUSH0 SWAP1 DUP2 MSTORE PUSH1 0x4 PUSH1 0x20 MSTORE PUSH1 0x40 SWAP1 KECCAK256 DUP1 SLOAD PUSH1 0x1 PUSH1 0x1 PUSH1 0xA0 SHL SUB NOT AND PUSH1 0x1 PUSH1 0x1 PUSH1 0xA0 SHL SUB SWAP3 SWAP1 SWAP3 AND SWAP2 SWAP1 SWAP2 OR SWAP1 SSTORE JUMP JUMPDEST PUSH0 PUSH0 PUSH2 0x2085 DUP6 DUP6 DUP6 PUSH2 0x22A6 JUMP JUMPDEST SWAP1 POP PUSH1 0x1 PUSH1 0x1 PUSH1 0xA0 SHL SUB DUP2 AND PUSH2 0x20E1 JUMPI PUSH2 0x20DC DUP5 PUSH1 0x8 DUP1 SLOAD PUSH0 DUP4 DUP2 MSTORE PUSH1 0x9 PUSH1 0x20 MSTORE PUSH1 0x40 DUP2 KECCAK256 DUP3 SWAP1 SSTORE PUSH1 0x1 DUP3 ADD DUP4 SSTORE SWAP2 SWAP1 SWAP2 MSTORE PUSH32 0xF3F7A9FE364FAAB93B216DA50A3214154F22A0A2B415B23A84C8169E8B636EE3 ADD SSTORE JUMP JUMPDEST PUSH2 0x2104 JUMP JUMPDEST DUP5 PUSH1 0x1 PUSH1 0x1 PUSH1 0xA0 SHL SUB AND DUP2 PUSH1 0x1 PUSH1 0x1 PUSH1 0xA0 SHL SUB AND EQ PUSH2 0x2104 JUMPI PUSH2 0x2104 DUP2 DUP6 PUSH2 0x2398 JUMP JUMPDEST PUSH1 0x1 PUSH1 0x1 PUSH1 0xA0 SHL SUB DUP6 AND PUSH2 0x2120 JUMPI PUSH2 0x211B DUP5 PUSH2 0x2415 JUMP JUMPDEST PUSH2 0x2143 JUMP JUMPDEST DUP5 PUSH1 0x1 PUSH1 0x1 PUSH1 0xA0 SHL SUB AND DUP2 PUSH1 0x1 PUSH1 0x1 PUSH1 0xA0 SHL SUB AND EQ PUSH2 0x2143 JUMPI PUSH2 0x2143 DUP6 DUP6 PUSH2 0x24BC JUMP JUMPDEST SWAP5 SWAP4 POP POP POP POP JUMP JUMPDEST PUSH1 0x40 MLOAD PUSH4 0x23B872DD PUSH1 0xE0 SHL PUSH0 DUP2 DUP2 MSTORE PUSH1 0x1 PUSH1 0x1 PUSH1 0xA0 SHL SUB DUP8 DUP2 AND PUSH1 0x4 MSTORE DUP7 AND PUSH1 0x24 MSTORE PUSH1 0x44 DUP6 SWAP1 MSTORE SWAP2 PUSH1 0x20 DUP4 PUSH1 0x64 DUP2 DUP1 DUP13 GAS CALL SWAP3 POP PUSH1 0x1 PUSH0 MLOAD EQ DUP4 AND PUSH2 0x21A7 JUMPI DUP4 DUP4 ISZERO AND ISZERO PUSH2 0x219B JUMPI RETURNDATASIZE PUSH0 DUP3 RETURNDATACOPY RETURNDATASIZE DUP2 REVERT JUMPDEST PUSH0 DUP9 EXTCODESIZE GT RETURNDATASIZE ISZERO AND DUP4 AND SWAP3 POP JUMPDEST PUSH1 0x40 MSTORE POP PUSH0 PUSH1 0x60 MSTORE SWAP6 SWAP5 POP POP POP POP POP JUMP JUMPDEST PUSH2 0x21C2 DUP4 DUP4 PUSH2 0x250A JUMP JUMPDEST PUSH2 0x8A1 CALLER PUSH0 DUP6 DUP6 DUP6 PUSH2 0x1D0C JUMP JUMPDEST PUSH0 DUP1 PUSH19 0x184F03E93FF9F4DAA797ED6E38ED64BF6A1F01 PUSH1 0x40 SHL DUP4 LT PUSH2 0x220D JUMPI PUSH19 0x184F03E93FF9F4DAA797ED6E38ED64BF6A1F01 PUSH1 0x40 SHL DUP4 DIV SWAP3 POP PUSH1 0x40 ADD JUMPDEST PUSH14 0x4EE2D6D415B85ACEF8100000000 DUP4 LT PUSH2 0x2239 JUMPI PUSH14 0x4EE2D6D415B85ACEF8100000000 DUP4 DIV SWAP3 POP PUSH1 0x20 ADD JUMPDEST PUSH7 0x2386F26FC10000 DUP4 LT PUSH2 0x2257 JUMPI PUSH7 0x2386F26FC10000 DUP4 DIV SWAP3 POP PUSH1 0x10 ADD JUMPDEST PUSH4 0x5F5E100 DUP4 LT PUSH2 0x226F JUMPI PUSH4 0x5F5E100 DUP4 DIV SWAP3 POP PUSH1 0x8 ADD JUMPDEST PUSH2 0x2710 DUP4 LT PUSH2 0x2283 JUMPI PUSH2 0x2710 DUP4 DIV SWAP3 POP PUSH1 0x4 ADD JUMPDEST PUSH1 0x64 DUP4 LT PUSH2 0x2295 JUMPI PUSH1 0x64 DUP4 DIV SWAP3 POP PUSH1 0x2 ADD JUMPDEST PUSH1 0xA DUP4 LT PUSH2 0x8CA JUMPI PUSH1 0x1 ADD SWAP3 SWAP2 POP POP JUMP JUMPDEST PUSH0 DUP3 DUP2 MSTORE PUSH1 0x2 PUSH1 0x20 MSTORE PUSH1 0x40 DUP2 KECCAK256 SLOAD PUSH1 0x1 PUSH1 0x1 PUSH1 0xA0 SHL SUB SWAP1 DUP2 AND SWAP1 DUP4 AND ISZERO PUSH2 0x22D2 JUMPI PUSH2 0x22D2 DUP2 DUP5 DUP7 PUSH2 0x256B JUMP JUMPDEST PUSH1 0x1 PUSH1 0x1 PUSH1 0xA0 SHL SUB DUP2 AND ISZERO PUSH2 0x230C JUMPI PUSH2 0x22ED PUSH0 DUP6 PUSH0 PUSH0 PUSH2 0x1F74 JUMP JUMPDEST PUSH1 0x1 PUSH1 0x1 PUSH1 0xA0 SHL SUB DUP2 AND PUSH0 SWAP1 DUP2 MSTORE PUSH1 0x3 PUSH1 0x20 MSTORE PUSH1 0x40 SWAP1 KECCAK256 DUP1 SLOAD PUSH0 NOT ADD SWAP1 SSTORE JUMPDEST PUSH1 0x1 PUSH1 0x1 PUSH1 0xA0 SHL SUB DUP6 AND ISZERO PUSH2 0x233A JUMPI PUSH1 0x1 PUSH1 0x1 PUSH1 0xA0 SHL SUB DUP6 AND PUSH0 SWAP1 DUP2 MSTORE PUSH1 0x3 PUSH1 0x20 MSTORE PUSH1 0x40 SWAP1 KECCAK256 DUP1 SLOAD PUSH1 0x1 ADD SWAP1 SSTORE JUMPDEST PUSH0 DUP5 DUP2 MSTORE PUSH1 0x2 PUSH1 0x20 MSTORE PUSH1 0x40 DUP1 DUP3 KECCAK256 DUP1 SLOAD PUSH1 0x1 PUSH1 0x1 PUSH1 0xA0 SHL SUB NOT AND PUSH1 0x1 PUSH1 0x1 PUSH1 0xA0 SHL SUB DUP10 DUP2 AND SWAP2 DUP3 OR SWAP1 SWAP3 SSTORE SWAP2 MLOAD DUP8 SWAP4 SWAP2 DUP6 AND SWAP2 PUSH32 0xDDF252AD1BE2C89B69C2B068FC378DAA952BA7F163C4A11628F55A4DF523B3EF SWAP2 LOG4 SWAP5 SWAP4 POP POP POP POP JUMP JUMPDEST PUSH0 PUSH2 0x23A2 DUP4 PUSH2 0xEAC JUMP JUMPDEST PUSH0 DUP4 DUP2 MSTORE PUSH1 0x7 PUSH1 0x20 SWAP1 DUP2 MSTORE PUSH1 0x40 DUP1 DUP4 KECCAK256 SLOAD PUSH1 0x1 PUSH1 0x1 PUSH1 0xA0 SHL SUB DUP9 AND DUP5 MSTORE PUSH1 0x6 SWAP1 SWAP3 MSTORE SWAP1 SWAP2 KECCAK256 SWAP2 SWAP3 POP SWAP1 DUP2 DUP4 EQ PUSH2 0x23F7 JUMPI PUSH0 DUP4 DUP2 MSTORE PUSH1 0x20 DUP3 DUP2 MSTORE PUSH1 0x40 DUP1 DUP4 KECCAK256 SLOAD DUP6 DUP5 MSTORE DUP2 DUP5 KECCAK256 DUP2 SWAP1 SSTORE DUP4 MSTORE PUSH1 0x7 SWAP1 SWAP2 MSTORE SWAP1 KECCAK256 DUP3 SWAP1 SSTORE JUMPDEST PUSH0 SWAP4 DUP5 MSTORE PUSH1 0x7 PUSH1 0x20 SWAP1 DUP2 MSTORE PUSH1 0x40 DUP1 DUP7 KECCAK256 DUP7 SWAP1 SSTORE SWAP4 DUP6 MSTORE MSTORE POP DUP2 KECCAK256 SSTORE POP JUMP JUMPDEST PUSH1 0x8 SLOAD PUSH0 SWAP1 PUSH2 0x2426 SWAP1 PUSH1 0x1 SWAP1 PUSH2 0x2A31 JUMP JUMPDEST PUSH0 DUP4 DUP2 MSTORE PUSH1 0x9 PUSH1 0x20 MSTORE PUSH1 0x40 DUP2 KECCAK256 SLOAD PUSH1 0x8 DUP1 SLOAD SWAP4 SWAP5 POP SWAP1 SWAP3 DUP5 SWAP1 DUP2 LT PUSH2 0x244D JUMPI PUSH2 0x244D PUSH2 0x29DF JUMP JUMPDEST SWAP1 PUSH0 MSTORE PUSH1 0x20 PUSH0 KECCAK256 ADD SLOAD SWAP1 POP DUP1 PUSH1 0x8 DUP4 DUP2 SLOAD DUP2 LT PUSH2 0x246C JUMPI PUSH2 0x246C PUSH2 0x29DF JUMP JUMPDEST PUSH0 SWAP2 DUP3 MSTORE PUSH1 0x20 DUP1 DUP4 KECCAK256 SWAP1 SWAP2 ADD SWAP3 SWAP1 SWAP3 SSTORE DUP3 DUP2 MSTORE PUSH1 0x9 SWAP1 SWAP2 MSTORE PUSH1 0x40 DUP1 DUP3 KECCAK256 DUP5 SWAP1 SSTORE DUP6 DUP3 MSTORE DUP2 KECCAK256 SSTORE PUSH1 0x8 DUP1 SLOAD DUP1 PUSH2 0x24A3 JUMPI PUSH2 0x24A3 PUSH2 0x2A9B JUMP JUMPDEST PUSH1 0x1 SWAP1 SUB DUP2 DUP2 SWAP1 PUSH0 MSTORE PUSH1 0x20 PUSH0 KECCAK256 ADD PUSH0 SWAP1 SSTORE SWAP1 SSTORE POP POP POP POP JUMP JUMPDEST PUSH0 PUSH1 0x1 PUSH2 0x24C8 DUP5 PUSH2 0xEAC JUMP JUMPDEST PUSH2 0x24D2 SWAP2 SWAP1 PUSH2 0x2A31 JUMP JUMPDEST PUSH1 0x1 PUSH1 0x1 PUSH1 0xA0 SHL SUB SWAP1 SWAP4 AND PUSH0 SWAP1 DUP2 MSTORE PUSH1 0x6 PUSH1 0x20 SWAP1 DUP2 MSTORE PUSH1 0x40 DUP1 DUP4 KECCAK256 DUP7 DUP5 MSTORE DUP3 MSTORE DUP1 DUP4 KECCAK256 DUP6 SWAP1 SSTORE SWAP4 DUP3 MSTORE PUSH1 0x7 SWAP1 MSTORE SWAP2 SWAP1 SWAP2 KECCAK256 SWAP2 SWAP1 SWAP2 SSTORE POP JUMP JUMPDEST PUSH1 0x1 PUSH1 0x1 PUSH1 0xA0 SHL SUB DUP3 AND PUSH2 0x2533 JUMPI PUSH1 0x40 MLOAD PUSH4 0x32505749 PUSH1 0xE1 SHL DUP2 MSTORE PUSH0 PUSH1 0x4 DUP3 ADD MSTORE PUSH1 0x24 ADD PUSH2 0x7A1 JUMP JUMPDEST PUSH0 PUSH2 0x253F DUP4 DUP4 PUSH0 PUSH2 0x16E7 JUMP JUMPDEST SWAP1 POP PUSH1 0x1 PUSH1 0x1 PUSH1 0xA0 SHL SUB DUP2 AND ISZERO PUSH2 0x8A1 JUMPI PUSH1 0x40 MLOAD PUSH4 0x39E35637 PUSH1 0xE1 SHL DUP2 MSTORE PUSH0 PUSH1 0x4 DUP3 ADD MSTORE PUSH1 0x24 ADD PUSH2 0x7A1 JUMP JUMPDEST PUSH2 0x2576 DUP4 DUP4 DUP4 PUSH2 0x25CF JUMP JUMPDEST PUSH2 0x8A1 JUMPI PUSH1 0x1 PUSH1 0x1 PUSH1 0xA0 SHL SUB DUP4 AND PUSH2 0x25A4 JUMPI PUSH1 0x40 MLOAD PUSH4 0x7E273289 PUSH1 0xE0 SHL DUP2 MSTORE PUSH1 0x4 DUP2 ADD DUP3 SWAP1 MSTORE PUSH1 0x24 ADD PUSH2 0x7A1 JUMP JUMPDEST PUSH1 0x40 MLOAD PUSH4 0x177E802F PUSH1 0xE0 SHL DUP2 MSTORE PUSH1 0x1 PUSH1 0x1 PUSH1 0xA0 SHL SUB DUP4 AND PUSH1 0x4 DUP3 ADD MSTORE PUSH1 0x24 DUP2 ADD DUP3 SWAP1 MSTORE PUSH1 0x44 ADD PUSH2 0x7A1 JUMP JUMPDEST PUSH0 PUSH1 0x1 PUSH1 0x1 PUSH1 0xA0 SHL SUB DUP4 AND ISZERO DUP1 ISZERO SWAP1 PUSH2 0x2143 JUMPI POP DUP3 PUSH1 0x1 PUSH1 0x1 PUSH1 0xA0 SHL SUB AND DUP5 PUSH1 0x1 PUSH1 0x1 PUSH1 0xA0 SHL SUB AND EQ DUP1 PUSH2 0x2608 JUMPI POP PUSH2 0x2608 DUP5 DUP5 PUSH2 0x14B1 JUMP JUMPDEST DUP1 PUSH2 0x2143 JUMPI POP POP PUSH0 SWAP1 DUP2 MSTORE PUSH1 0x4 PUSH1 0x20 MSTORE PUSH1 0x40 SWAP1 KECCAK256 SLOAD PUSH1 0x1 PUSH1 0x1 PUSH1 0xA0 SHL SUB SWAP1 DUP2 AND SWAP2 AND EQ SWAP2 SWAP1 POP JUMP JUMPDEST DUP1 CALLDATALOAD PUSH1 0x1 PUSH1 0x1 PUSH1 0xA0 SHL SUB DUP2 AND DUP2 EQ PUSH2 0x2646 JUMPI PUSH0 PUSH0 REVERT JUMPDEST SWAP2 SWAP1 POP JUMP JUMPDEST PUSH0 PUSH0 PUSH0 PUSH1 0x60 DUP5 DUP7 SUB SLT ISZERO PUSH2 0x265D JUMPI PUSH0 PUSH0 REVERT JUMPDEST PUSH2 0x2666 DUP5 PUSH2 0x2630 JUMP JUMPDEST SWAP3 POP PUSH2 0x2674 PUSH1 0x20 DUP6 ADD PUSH2 0x2630 JUMP JUMPDEST SWAP3 SWAP6 SWAP3 SWAP5 POP POP POP PUSH1 0x40 SWAP2 SWAP1 SWAP2 ADD CALLDATALOAD SWAP1 JUMP JUMPDEST PUSH1 0x1 PUSH1 0x1 PUSH1 0xE0 SHL SUB NOT DUP2 AND DUP2 EQ PUSH2 0x15A0 JUMPI PUSH0 PUSH0 REVERT JUMPDEST PUSH0 PUSH1 0x20 DUP3 DUP5 SUB SLT ISZERO PUSH2 0x26AA JUMPI PUSH0 PUSH0 REVERT JUMPDEST DUP2 CALLDATALOAD PUSH2 0x146C DUP2 PUSH2 0x2685 JUMP JUMPDEST PUSH0 DUP2 MLOAD DUP1 DUP5 MSTORE DUP1 PUSH1 0x20 DUP5 ADD PUSH1 0x20 DUP7 ADD MCOPY PUSH0 PUSH1 0x20 DUP3 DUP7 ADD ADD MSTORE PUSH1 0x20 PUSH1 0x1F NOT PUSH1 0x1F DUP4 ADD AND DUP6 ADD ADD SWAP2 POP POP SWAP3 SWAP2 POP POP JUMP JUMPDEST PUSH1 0x20 DUP2 MSTORE PUSH0 PUSH2 0x146C PUSH1 0x20 DUP4 ADD DUP5 PUSH2 0x26B5 JUMP JUMPDEST PUSH0 PUSH1 0x20 DUP3 DUP5 SUB SLT ISZERO PUSH2 0x2705 JUMPI PUSH0 PUSH0 REVERT JUMPDEST POP CALLDATALOAD SWAP2 SWAP1 POP JUMP JUMPDEST PUSH0 PUSH0 PUSH1 0x40 DUP4 DUP6 SUB SLT ISZERO PUSH2 0x271D JUMPI PUSH0 PUSH0 REVERT JUMPDEST PUSH2 0x2726 DUP4 PUSH2 0x2630 JUMP JUMPDEST SWAP5 PUSH1 0x20 SWAP4 SWAP1 SWAP4 ADD CALLDATALOAD SWAP4 POP POP POP JUMP JUMPDEST PUSH0 PUSH1 0x20 DUP3 DUP5 SUB SLT ISZERO PUSH2 0x2744 JUMPI PUSH0 PUSH0 REVERT JUMPDEST PUSH2 0x146C DUP3 PUSH2 0x2630 JUMP JUMPDEST PUSH0 PUSH0 DUP4 PUSH1 0x1F DUP5 ADD SLT PUSH2 0x275D JUMPI PUSH0 PUSH0 REVERT JUMPDEST POP DUP2 CALLDATALOAD PUSH8 0xFFFFFFFFFFFFFFFF DUP2 GT ISZERO PUSH2 0x2774 JUMPI PUSH0 PUSH0 REVERT JUMPDEST PUSH1 0x20 DUP4 ADD SWAP2 POP DUP4 PUSH1 0x20 DUP3 PUSH1 0x5 SHL DUP6 ADD ADD GT ISZERO PUSH2 0x278E JUMPI PUSH0 PUSH0 REVERT JUMPDEST SWAP3 POP SWAP3 SWAP1 POP JUMP JUMPDEST PUSH0 PUSH0 PUSH0 PUSH0 PUSH1 0x40 DUP6 DUP8 SUB SLT ISZERO PUSH2 0x27A8 JUMPI PUSH0 PUSH0 REVERT JUMPDEST DUP5 CALLDATALOAD PUSH8 0xFFFFFFFFFFFFFFFF DUP2 GT ISZERO PUSH2 0x27BE JUMPI PUSH0 PUSH0 REVERT JUMPDEST PUSH2 0x27CA DUP8 DUP3 DUP9 ADD PUSH2 0x274D JUMP JUMPDEST SWAP1 SWAP6 POP SWAP4 POP POP PUSH1 0x20 DUP6 ADD CALLDATALOAD PUSH8 0xFFFFFFFFFFFFFFFF DUP2 GT ISZERO PUSH2 0x27E9 JUMPI PUSH0 PUSH0 REVERT JUMPDEST PUSH2 0x27F5 DUP8 DUP3 DUP9 ADD PUSH2 0x274D JUMP JUMPDEST SWAP6 SWAP9 SWAP5 SWAP8 POP SWAP6 POP POP POP POP JUMP JUMPDEST PUSH0 PUSH0 PUSH1 0x40 DUP4 DUP6 SUB SLT ISZERO PUSH2 0x2812 JUMPI PUSH0 PUSH0 REVERT JUMPDEST PUSH2 0x281B DUP4 PUSH2 0x2630 JUMP JUMPDEST SWAP2 POP PUSH1 0x20 DUP4 ADD CALLDATALOAD DUP1 ISZERO ISZERO DUP2 EQ PUSH2 0x282F JUMPI PUSH0 PUSH0 REVERT JUMPDEST DUP1 SWAP2 POP POP SWAP3 POP SWAP3 SWAP1 POP JUMP JUMPDEST PUSH4 0x4E487B71 PUSH1 0xE0 SHL PUSH0 MSTORE PUSH1 0x41 PUSH1 0x4 MSTORE PUSH1 0x24 PUSH0 REVERT JUMPDEST PUSH0 PUSH0 PUSH0 PUSH0 PUSH1 0x80 DUP6 DUP8 SUB SLT ISZERO PUSH2 0x2861 JUMPI PUSH0 PUSH0 REVERT JUMPDEST PUSH2 0x286A DUP6 PUSH2 0x2630 JUMP JUMPDEST SWAP4 POP PUSH2 0x2878 PUSH1 0x20 DUP7 ADD PUSH2 0x2630 JUMP JUMPDEST SWAP3 POP PUSH1 0x40 DUP6 ADD CALLDATALOAD SWAP2 POP PUSH1 0x60 DUP6 ADD CALLDATALOAD PUSH8 0xFFFFFFFFFFFFFFFF DUP2 GT ISZERO PUSH2 0x289A JUMPI PUSH0 PUSH0 REVERT JUMPDEST DUP6 ADD PUSH1 0x1F DUP2 ADD DUP8 SGT PUSH2 0x28AA JUMPI PUSH0 PUSH0 REVERT JUMPDEST DUP1 CALLDATALOAD PUSH8 0xFFFFFFFFFFFFFFFF DUP2 GT ISZERO PUSH2 0x28C4 JUMPI PUSH2 0x28C4 PUSH2 0x283A JUMP JUMPDEST PUSH1 0x40 MLOAD PUSH1 0x1F DUP3 ADD PUSH1 0x1F NOT SWAP1 DUP2 AND PUSH1 0x3F ADD AND DUP2 ADD PUSH8 0xFFFFFFFFFFFFFFFF DUP2 GT DUP3 DUP3 LT OR ISZERO PUSH2 0x28F3 JUMPI PUSH2 0x28F3 PUSH2 0x283A JUMP JUMPDEST PUSH1 0x40 MSTORE DUP2 DUP2 MSTORE DUP3 DUP3 ADD PUSH1 0x20 ADD DUP10 LT ISZERO PUSH2 0x290A JUMPI PUSH0 PUSH0 REVERT JUMPDEST DUP2 PUSH1 0x20 DUP5 ADD PUSH1 0x20 DUP4 ADD CALLDATACOPY PUSH0 PUSH1 0x20 DUP4 DUP4 ADD ADD MSTORE DUP1 SWAP4 POP POP POP POP SWAP3 SWAP6 SWAP2 SWAP5 POP SWAP3 POP JUMP JUMPDEST PUSH0 PUSH0 PUSH1 0x40 DUP4 DUP6 SUB SLT ISZERO PUSH2 0x293C JUMPI PUSH0 PUSH0 REVERT JUMPDEST PUSH2 0x2945 DUP4 PUSH2 0x2630 JUMP JUMPDEST SWAP2 POP PUSH2 0x2953 PUSH1 0x20 DUP5 ADD PUSH2 0x2630 JUMP JUMPDEST SWAP1 POP SWAP3 POP SWAP3 SWAP1 POP JUMP JUMPDEST PUSH1 0x20 DUP1 DUP3 MSTORE PUSH1 0x5 SWAP1 DUP3 ADD MSTORE PUSH5 0x42C2EAE8D PUSH1 0xDB SHL PUSH1 0x40 DUP3 ADD MSTORE PUSH1 0x60 ADD SWAP1 JUMP JUMPDEST PUSH1 0x1 DUP2 DUP2 SHR SWAP1 DUP3 AND DUP1 PUSH2 0x298F JUMPI PUSH1 0x7F DUP3 AND SWAP2 POP JUMPDEST PUSH1 0x20 DUP3 LT DUP2 SUB PUSH2 0x29AD JUMPI PUSH4 0x4E487B71 PUSH1 0xE0 SHL PUSH0 MSTORE PUSH1 0x22 PUSH1 0x4 MSTORE PUSH1 0x24 PUSH0 REVERT JUMPDEST POP SWAP2 SWAP1 POP JUMP JUMPDEST PUSH4 0x4E487B71 PUSH1 0xE0 SHL PUSH0 MSTORE PUSH1 0x11 PUSH1 0x4 MSTORE PUSH1 0x24 PUSH0 REVERT JUMPDEST PUSH0 PUSH1 0x1 DUP3 ADD PUSH2 0x29D8 JUMPI PUSH2 0x29D8 PUSH2 0x29B3 JUMP JUMPDEST POP PUSH1 0x1 ADD SWAP1 JUMP JUMPDEST PUSH4 0x4E487B71 PUSH1 0xE0 SHL PUSH0 MSTORE PUSH1 0x32 PUSH1 0x4 MSTORE PUSH1 0x24 PUSH0 REVERT JUMPDEST DUP1 DUP3 ADD DUP1 DUP3 GT ISZERO PUSH2 0x8CA JUMPI PUSH2 0x8CA PUSH2 0x29B3 JUMP JUMPDEST PUSH0 DUP2 MLOAD DUP1 PUSH1 0x20 DUP5 ADD DUP6 MCOPY PUSH0 SWAP4 ADD SWAP3 DUP4 MSTORE POP SWAP1 SWAP2 SWAP1 POP JUMP JUMPDEST PUSH0 PUSH2 0x2143 PUSH2 0x2A2B DUP4 DUP7 PUSH2 0x2A06 JUMP JUMPDEST DUP5 PUSH2 0x2A06 JUMP JUMPDEST DUP2 DUP2 SUB DUP2 DUP2 GT ISZERO PUSH2 0x8CA JUMPI PUSH2 0x8CA PUSH2 0x29B3 JUMP JUMPDEST PUSH1 0x1 PUSH1 0x1 PUSH1 0xA0 SHL SUB DUP6 DUP2 AND DUP3 MSTORE DUP5 AND PUSH1 0x20 DUP3 ADD MSTORE PUSH1 0x40 DUP2 ADD DUP4 SWAP1 MSTORE PUSH1 0x80 PUSH1 0x60 DUP3 ADD DUP2 SWAP1 MSTORE PUSH0 SWAP1 PUSH2 0x2A76 SWAP1 DUP4 ADD DUP5 PUSH2 0x26B5 JUMP JUMPDEST SWAP7 SWAP6 POP POP POP POP POP POP JUMP JUMPDEST PUSH0 PUSH1 0x20 DUP3 DUP5 SUB SLT ISZERO PUSH2 0x2A90 JUMPI PUSH0 PUSH0 REVERT JUMPDEST DUP2 MLOAD PUSH2 0x146C DUP2 PUSH2 0x2685 JUMP JUMPDEST PUSH4 0x4E487B71 PUSH1 0xE0 SHL PUSH0 MSTORE PUSH1 0x31 PUSH1 0x4 MSTORE PUSH1 0x24 PUSH0 REVERT INVALID SWAP13 0xD4 0xAB RJUMPI 0x85C JUMPF 0x51D1 DUP6 PUSH21 0x5678B43E141AFB71972ECA37EAB6D08555965F458F LOG2 PUSH5 0x6970667358 0x22 SLT KECCAK256 CREATE2 0xBD 0xD8 PUSH0 PUSH14 0x38ED3A0DD6E64097BA8DF8C834F5 0xFC TSTORE DUP4 0xBE SLOAD SWAP7 0x4C 0xD4 EXTDELEGATECALL PUSH30 0xAD409064736F6C6343000823003300000000000000000000000000000000 "},"methodIdentifiers":{"CARD_A()":"52b03c2f","CARD_B()":"15ad6f61","CARD_C()":"18a8ac77","MAX_A()":"39698415","MAX_B()":"8485391a","MAX_C()":"f26841bd","PRICE_A()":"13eeea08","PRICE_B()":"53d79447","PRICE_C()":"73cda3e4","USDT()":"c54e44eb","adminContract()":"c05c5e94","approve(address,uint256)":"095ea7b3","balanceOf(address)":"70a08231","buyCard(uint256)":"c70f5eaa","cardType(uint256)":"fcf49adf","coreContract()":"e80db5db","getApproved(uint256)":"081812fc","getCardPrice(uint256)":"6866537d","getNodePerformance(address)":"aed1f157","getRemainingSupply()":"e4b7fb73","getUserCardCount(address,uint256)":"096e233e","isApprovedForAll(address,address)":"e985e9c5","miningContract()":"91564697","mintBatchByOwner(address[],uint256[])":"706374f5","mintByOwner(address,uint256)":"3542aee2","name()":"06fdde03","owner()":"8da5cb5b","ownerOf(uint256)":"6352211e","renounceOwnership()":"715018a6","safeTransferFrom(address,address,uint256)":"42842e0e","safeTransferFrom(address,address,uint256,bytes)":"b88d4fde","setAdminContract(address)":"63a812f9","setApprovalForAll(address,bool)":"a22cb465","setCoreContract(address)":"c6266693","setMaxA(uint256)":"12f94134","setMaxB(uint256)":"f6a2a9a1","setMaxC(uint256)":"bef28135","setMiningContract(address)":"702f5321","setStakeContract(address)":"509484d5","setTreasury(address)":"f0f44260","stakeContract()":"1a186227","supportsInterface(bytes4)":"01ffc9a7","symbol()":"95d89b41","tokenByIndex(uint256)":"4f6ccce7","tokenOfOwnerByIndex(address,uint256)":"2f745c59","tokenURI(uint256)":"c87b56dd","totalA()":"b629640b","totalB()":"193491b5","totalC()":"d15dfe2d","totalSupply()":"18160ddd","transferFrom(address,address,uint256)":"23b872dd","transferOwnership(address)":"f2fde38b","treasury()":"61d027b3","userNodePerformance(address)":"e4cec420","withdrawToken(address,address,uint256)":"01e33667"}}}}}