{"src/DQProject.sol":{"DQProject":{"abi":[{"inputs":[{"internalType":"address","name":"_foundationWallet","type":"address"}],"stateMutability":"nonpayable","type":"constructor"},{"anonymous":false,"inputs":[{"indexed":true,"internalType":"address","name":"partner","type":"address"}],"name":"AddPartnerWhiteList","type":"event"},{"anonymous":false,"inputs":[{"indexed":false,"internalType":"uint256","name":"release","type":"uint256"},{"indexed":false,"internalType":"uint256","name":"burn","type":"uint256"},{"indexed":false,"internalType":"uint256","name":"timestamp","type":"uint256"}],"name":"BlockMining","type":"event"},{"anonymous":false,"inputs":[{"indexed":true,"internalType":"address","name":"user","type":"address"},{"indexed":false,"internalType":"uint256","name":"cardType","type":"uint256"},{"indexed":false,"internalType":"uint256","name":"amount","type":"uint256"}],"name":"BuyNode","type":"event"},{"anonymous":false,"inputs":[{"indexed":true,"internalType":"address","name":"user","type":"address"},{"indexed":false,"internalType":"uint256","name":"amount","type":"uint256"}],"name":"ClaimDTeam","type":"event"},{"anonymous":false,"inputs":[{"indexed":true,"internalType":"address","name":"user","type":"address"},{"indexed":false,"internalType":"uint256","name":"amount","type":"uint256"}],"name":"ClaimLP","type":"event"},{"anonymous":false,"inputs":[{"indexed":true,"internalType":"address","name":"user","type":"address"},{"indexed":false,"internalType":"uint256","name":"amount","type":"uint256"}],"name":"ClaimNft","type":"event"},{"anonymous":false,"inputs":[{"indexed":true,"internalType":"address","name":"user","type":"address"},{"indexed":false,"internalType":"uint256","name":"amount","type":"uint256"}],"name":"ClaimPartner","type":"event"},{"anonymous":false,"inputs":[{"indexed":true,"internalType":"address","name":"user","type":"address"},{"indexed":false,"internalType":"uint256","name":"amount","type":"uint256"}],"name":"ClaimSingle","type":"event"},{"anonymous":false,"inputs":[{"indexed":true,"internalType":"address","name":"user","type":"address"},{"indexed":false,"internalType":"uint8","name":"newDLevel","type":"uint8"}],"name":"DLevelUp","type":"event"},{"anonymous":false,"inputs":[{"indexed":true,"internalType":"address","name":"user","type":"address"},{"indexed":false,"internalType":"uint256","name":"amount","type":"uint256"},{"indexed":false,"internalType":"uint256","name":"dqAmount","type":"uint256"},{"indexed":false,"internalType":"bool","name":"isFirst","type":"bool"}],"name":"Deposit","type":"event"},{"anonymous":false,"inputs":[{"indexed":true,"internalType":"address","name":"user","type":"address"},{"indexed":false,"internalType":"uint8","name":"newLevel","type":"uint8"}],"name":"LevelUp","type":"event"},{"anonymous":false,"inputs":[{"indexed":true,"internalType":"address","name":"user","type":"address"},{"indexed":false,"internalType":"uint256","name":"lineCount","type":"uint256"}],"name":"LineQualified","type":"event"},{"anonymous":false,"inputs":[{"indexed":true,"internalType":"address","name":"previousOwner","type":"address"},{"indexed":true,"internalType":"address","name":"newOwner","type":"address"}],"name":"OwnershipTransferred","type":"event"},{"anonymous":false,"inputs":[{"indexed":false,"internalType":"uint256","name":"newPrice","type":"uint256"}],"name":"PriceUpdated","type":"event"},{"anonymous":false,"inputs":[{"indexed":true,"internalType":"address","name":"user","type":"address"},{"indexed":true,"internalType":"address","name":"referrer","type":"address"}],"name":"Register","type":"event"},{"anonymous":false,"inputs":[{"indexed":true,"internalType":"address","name":"partner","type":"address"}],"name":"RemovePartnerWhiteList","type":"event"},{"anonymous":false,"inputs":[{"indexed":true,"internalType":"address","name":"user","type":"address"},{"indexed":true,"internalType":"address","name":"operator","type":"address"}],"name":"RestrictAddress","type":"event"},{"anonymous":false,"inputs":[{"indexed":true,"internalType":"address","name":"wallet","type":"address"}],"name":"SetFoundationWallet","type":"event"},{"anonymous":false,"inputs":[{"indexed":true,"internalType":"address","name":"user","type":"address"},{"indexed":false,"internalType":"uint256","name":"amount","type":"uint256"},{"indexed":false,"internalType":"uint256","name":"period","type":"uint256"}],"name":"StakeSingle","type":"event"},{"anonymous":false,"inputs":[{"indexed":true,"internalType":"address","name":"user","type":"address"},{"indexed":true,"internalType":"address","name":"operator","type":"address"}],"name":"UnrestrictAddress","type":"event"},{"anonymous":false,"inputs":[{"indexed":true,"internalType":"address","name":"user","type":"address"},{"indexed":false,"internalType":"uint256","name":"amount","type":"uint256"},{"indexed":false,"internalType":"uint256","name":"period","type":"uint256"}],"name":"UnstakeSingle","type":"event"},{"anonymous":false,"inputs":[{"indexed":true,"internalType":"address","name":"user","type":"address"},{"indexed":false,"internalType":"uint256","name":"amount","type":"uint256"}],"name":"Withdraw","type":"event"},{"inputs":[],"name":"BEP20_TOKEN","outputs":[{"internalType":"address","name":"","type":"address"}],"stateMutability":"view","type":"function"},{"inputs":[],"name":"BLACKHOLE","outputs":[{"internalType":"address","name":"","type":"address"}],"stateMutability":"view","type":"function"},{"inputs":[],"name":"BURN_DECREMENT","outputs":[{"internalType":"uint256","name":"","type":"uint256"}],"stateMutability":"view","type":"function"},{"inputs":[],"name":"INVEST_MAX_FINAL","outputs":[{"internalType":"uint256","name":"","type":"uint256"}],"stateMutability":"view","type":"function"},{"inputs":[],"name":"INVEST_MAX_START","outputs":[{"internalType":"uint256","name":"","type":"uint256"}],"stateMutability":"view","type":"function"},{"inputs":[],"name":"INVEST_MAX_STEP","outputs":[{"internalType":"uint256","name":"","type":"uint256"}],"stateMutability":"view","type":"function"},{"inputs":[],"name":"INVEST_MIN","outputs":[{"internalType":"uint256","name":"","type":"uint256"}],"stateMutability":"view","type":"function"},{"inputs":[],"name":"MIN_BURN_RATE","outputs":[{"internalType":"uint256","name":"","type":"uint256"}],"stateMutability":"view","type":"function"},{"inputs":[],"name":"PHASE_DURATION","outputs":[{"internalType":"uint256","name":"","type":"uint256"}],"stateMutability":"view","type":"function"},{"inputs":[{"internalType":"address","name":"_partner","type":"address"}],"name":"addPartnerWhiteList","outputs":[],"stateMutability":"nonpayable","type":"function"},{"inputs":[{"internalType":"address[]","name":"_partners","type":"address[]"}],"name":"addPartnerWhiteListBatch","outputs":[],"stateMutability":"nonpayable","type":"function"},{"inputs":[{"internalType":"uint256","name":"amount","type":"uint256"}],"name":"adminWithdrawBEP20","outputs":[],"stateMutability":"nonpayable","type":"function"},{"inputs":[],"name":"adminWithdrawBNB","outputs":[],"stateMutability":"nonpayable","type":"function"},{"inputs":[{"internalType":"uint256","name":"","type":"uint256"}],"name":"allUsers","outputs":[{"internalType":"address","name":"","type":"address"}],"stateMutability":"view","type":"function"},{"inputs":[],"name":"blockAccPerShare","outputs":[{"internalType":"uint256","name":"","type":"uint256"}],"stateMutability":"view","type":"function"},{"inputs":[],"name":"blockMining","outputs":[],"stateMutability":"nonpayable","type":"function"},{"inputs":[{"internalType":"address","name":"","type":"address"}],"name":"blockRewardDebt","outputs":[{"internalType":"uint256","name":"","type":"uint256"}],"stateMutability":"view","type":"function"},{"inputs":[],"name":"burnRate","outputs":[{"internalType":"uint256","name":"","type":"uint256"}],"stateMutability":"view","type":"function"},{"inputs":[{"internalType":"uint256","name":"_type","type":"uint256"}],"name":"buyNode","outputs":[],"stateMutability":"nonpayable","type":"function"},{"inputs":[{"internalType":"address","name":"_user","type":"address"}],"name":"canDeposit","outputs":[{"internalType":"bool","name":"","type":"bool"}],"stateMutability":"view","type":"function"},{"inputs":[{"internalType":"address","name":"_user","type":"address"}],"name":"checkNodeQualified","outputs":[{"internalType":"bool","name":"qualified","type":"bool"},{"internalType":"uint256","name":"currentLines","type":"uint256"},{"internalType":"uint256","name":"requiredLines","type":"uint256"}],"stateMutability":"view","type":"function"},{"inputs":[],"name":"claimDTeam","outputs":[],"stateMutability":"nonpayable","type":"function"},{"inputs":[],"name":"claimLP","outputs":[],"stateMutability":"nonpayable","type":"function"},{"inputs":[],"name":"claimNft","outputs":[],"stateMutability":"nonpayable","type":"function"},{"inputs":[],"name":"claimPartner","outputs":[],"stateMutability":"nonpayable","type":"function"},{"inputs":[{"internalType":"uint256","name":"","type":"uint256"}],"name":"dAccPerShare","outputs":[{"internalType":"uint256","name":"","type":"uint256"}],"stateMutability":"view","type":"function"},{"inputs":[{"internalType":"address","name":"","type":"address"}],"name":"dRewardDebt","outputs":[{"internalType":"uint256","name":"","type":"uint256"}],"stateMutability":"view","type":"function"},{"inputs":[{"internalType":"uint256","name":"","type":"uint256"}],"name":"dThresholds","outputs":[{"internalType":"uint256","name":"","type":"uint256"}],"stateMutability":"view","type":"function"},{"inputs":[{"internalType":"uint256","name":"","type":"uint256"}],"name":"dTotalUsers","outputs":[{"internalType":"uint256","name":"","type":"uint256"}],"stateMutability":"view","type":"function"},{"inputs":[],"name":"dailyReleaseRate","outputs":[{"internalType":"uint256","name":"","type":"uint256"}],"stateMutability":"view","type":"function"},{"inputs":[{"internalType":"uint256","name":"_amount","type":"uint256"}],"name":"deposit","outputs":[],"stateMutability":"nonpayable","type":"function"},{"inputs":[],"name":"dqCard","outputs":[{"internalType":"contract DQCard","name":"","type":"address"}],"stateMutability":"view","type":"function"},{"inputs":[],"name":"dqPrice","outputs":[{"internalType":"uint256","name":"","type":"uint256"}],"stateMutability":"view","type":"function"},{"inputs":[],"name":"dqToken","outputs":[{"internalType":"contract DQToken","name":"","type":"address"}],"stateMutability":"view","type":"function"},{"inputs":[],"name":"dynamicPool","outputs":[{"internalType":"uint256","name":"","type":"uint256"}],"stateMutability":"view","type":"function"},{"inputs":[],"name":"feePool","outputs":[{"internalType":"uint256","name":"","type":"uint256"}],"stateMutability":"view","type":"function"},{"inputs":[],"name":"foundationWallet","outputs":[{"internalType":"address","name":"","type":"address"}],"stateMutability":"view","type":"function"},{"inputs":[],"name":"getBEP20Balance","outputs":[{"internalType":"uint256","name":"","type":"uint256"}],"stateMutability":"view","type":"function"},{"inputs":[],"name":"getContractBalance","outputs":[{"internalType":"uint256","name":"","type":"uint256"}],"stateMutability":"view","type":"function"},{"inputs":[],"name":"getCurrentMaxInvest","outputs":[{"internalType":"uint256","name":"","type":"uint256"}],"stateMutability":"view","type":"function"},{"inputs":[{"internalType":"address","name":"_user","type":"address"}],"name":"getLPStake","outputs":[{"internalType":"uint256","name":"amount","type":"uint256"},{"internalType":"uint256","name":"startTime","type":"uint256"}],"stateMutability":"view","type":"function"},{"inputs":[],"name":"getPartnerCount","outputs":[{"internalType":"uint256","name":"","type":"uint256"}],"stateMutability":"view","type":"function"},{"inputs":[],"name":"getPartnerWhiteList","outputs":[{"internalType":"address[]","name":"","type":"address[]"}],"stateMutability":"view","type":"function"},{"inputs":[],"name":"getPrice","outputs":[{"internalType":"uint256","name":"","type":"uint256"}],"stateMutability":"view","type":"function"},{"inputs":[{"internalType":"address","name":"_user","type":"address"},{"internalType":"uint256","name":"_periodIndex","type":"uint256"}],"name":"getSingleStake","outputs":[{"internalType":"uint256","name":"amount","type":"uint256"}],"stateMutability":"view","type":"function"},{"inputs":[{"internalType":"address","name":"_user","type":"address"}],"name":"getUser","outputs":[{"internalType":"address","name":"referrer","type":"address"},{"internalType":"uint256","name":"directCount","type":"uint256"},{"internalType":"uint8","name":"level","type":"uint8"},{"internalType":"uint8","name":"dLevel","type":"uint8"},{"internalType":"uint256","name":"totalInvest","type":"uint256"},{"internalType":"uint256","name":"teamInvest","type":"uint256"},{"internalType":"uint256","name":"energy","type":"uint256"},{"internalType":"uint256","name":"directSales","type":"uint256"},{"internalType":"bool","name":"hasNode","type":"bool"},{"internalType":"bool","name":"hasDeposited","type":"bool"},{"internalType":"uint256","name":"activeLineCount","type":"uint256"}],"stateMutability":"view","type":"function"},{"inputs":[],"name":"insurancePool","outputs":[{"internalType":"uint256","name":"","type":"uint256"}],"stateMutability":"view","type":"function"},{"inputs":[{"internalType":"address","name":"_user","type":"address"}],"name":"isAddressRestricted","outputs":[{"internalType":"bool","name":"","type":"bool"}],"stateMutability":"view","type":"function"},{"inputs":[{"internalType":"address","name":"","type":"address"}],"name":"isPartnerWhite","outputs":[{"internalType":"bool","name":"","type":"bool"}],"stateMutability":"view","type":"function"},{"inputs":[{"internalType":"address","name":"","type":"address"}],"name":"isRestricted","outputs":[{"internalType":"bool","name":"","type":"bool"}],"stateMutability":"view","type":"function"},{"inputs":[],"name":"lastBlockTime","outputs":[{"internalType":"uint256","name":"","type":"uint256"}],"stateMutability":"view","type":"function"},{"inputs":[{"internalType":"uint256","name":"","type":"uint256"}],"name":"levelRates","outputs":[{"internalType":"uint256","name":"","type":"uint256"}],"stateMutability":"view","type":"function"},{"inputs":[],"name":"lpAccPerShare","outputs":[{"internalType":"uint256","name":"","type":"uint256"}],"stateMutability":"view","type":"function"},{"inputs":[],"name":"lpPool","outputs":[{"internalType":"uint256","name":"","type":"uint256"}],"stateMutability":"view","type":"function"},{"inputs":[{"internalType":"address","name":"","type":"address"}],"name":"lpStakes","outputs":[{"internalType":"uint256","name":"amount","type":"uint256"},{"internalType":"uint256","name":"startTime","type":"uint256"},{"internalType":"uint256","name":"rewardDebt","type":"uint256"}],"stateMutability":"view","type":"function"},{"inputs":[{"internalType":"uint256","name":"","type":"uint256"}],"name":"nftAccPerShare","outputs":[{"internalType":"uint256","name":"","type":"uint256"}],"stateMutability":"view","type":"function"},{"inputs":[{"internalType":"address","name":"","type":"address"},{"internalType":"uint256","name":"","type":"uint256"}],"name":"nftRewardDebt","outputs":[{"internalType":"uint256","name":"","type":"uint256"}],"stateMutability":"view","type":"function"},{"inputs":[],"name":"operationPool","outputs":[{"internalType":"uint256","name":"","type":"uint256"}],"stateMutability":"view","type":"function"},{"inputs":[],"name":"owner","outputs":[{"internalType":"address","name":"","type":"address"}],"stateMutability":"view","type":"function"},{"inputs":[],"name":"partnerAccPerShare","outputs":[{"internalType":"uint256","name":"","type":"uint256"}],"stateMutability":"view","type":"function"},{"inputs":[{"internalType":"address","name":"","type":"address"}],"name":"partnerDebt","outputs":[{"internalType":"uint256","name":"","type":"uint256"}],"stateMutability":"view","type":"function"},{"inputs":[{"internalType":"uint256","name":"","type":"uint256"}],"name":"partnerWhiteList","outputs":[{"internalType":"address","name":"","type":"address"}],"stateMutability":"view","type":"function"},{"inputs":[{"internalType":"address","name":"_referrer","type":"address"}],"name":"register","outputs":[],"stateMutability":"nonpayable","type":"function"},{"inputs":[{"internalType":"address","name":"_partner","type":"address"}],"name":"removePartnerWhiteList","outputs":[],"stateMutability":"nonpayable","type":"function"},{"inputs":[],"name":"renounceOwnership","outputs":[],"stateMutability":"nonpayable","type":"function"},{"inputs":[{"internalType":"address","name":"_user","type":"address"}],"name":"restrictAddress","outputs":[],"stateMutability":"nonpayable","type":"function"},{"inputs":[{"internalType":"address[]","name":"_users","type":"address[]"}],"name":"restrictAddressBatch","outputs":[],"stateMutability":"nonpayable","type":"function"},{"inputs":[{"internalType":"address","name":"","type":"address"}],"name":"restrictedDebt","outputs":[{"internalType":"uint256","name":"","type":"uint256"}],"stateMutability":"view","type":"function"},{"inputs":[{"internalType":"address","name":"_wallet","type":"address"}],"name":"setFoundationWallet","outputs":[],"stateMutability":"nonpayable","type":"function"},{"inputs":[{"internalType":"uint256","name":"_newPrice","type":"uint256"}],"name":"setPrice","outputs":[],"stateMutability":"nonpayable","type":"function"},{"inputs":[{"internalType":"address","name":"","type":"address"},{"internalType":"uint256","name":"","type":"uint256"}],"name":"singleStakes","outputs":[{"internalType":"uint256","name":"","type":"uint256"}],"stateMutability":"view","type":"function"},{"inputs":[{"internalType":"uint256","name":"","type":"uint256"}],"name":"stakeFeeAccPerShare","outputs":[{"internalType":"uint256","name":"","type":"uint256"}],"stateMutability":"view","type":"function"},{"inputs":[{"internalType":"uint256","name":"","type":"uint256"}],"name":"stakePeriods","outputs":[{"internalType":"uint256","name":"","type":"uint256"}],"stateMutability":"view","type":"function"},{"inputs":[{"internalType":"uint256","name":"","type":"uint256"}],"name":"stakeRates","outputs":[{"internalType":"uint256","name":"","type":"uint256"}],"stateMutability":"view","type":"function"},{"inputs":[{"internalType":"uint256","name":"_amount","type":"uint256"},{"internalType":"uint256","name":"_periodIndex","type":"uint256"}],"name":"stakeSingle","outputs":[],"stateMutability":"nonpayable","type":"function"},{"inputs":[],"name":"startTime","outputs":[{"internalType":"uint256","name":"","type":"uint256"}],"stateMutability":"view","type":"function"},{"inputs":[],"name":"totalLPShares","outputs":[{"internalType":"uint256","name":"","type":"uint256"}],"stateMutability":"view","type":"function"},{"inputs":[{"internalType":"uint256","name":"","type":"uint256"}],"name":"totalSingleStaked","outputs":[{"internalType":"uint256","name":"","type":"uint256"}],"stateMutability":"view","type":"function"},{"inputs":[{"internalType":"address","name":"newOwner","type":"address"}],"name":"transferOwnership","outputs":[],"stateMutability":"nonpayable","type":"function"},{"inputs":[{"internalType":"address","name":"_user","type":"address"}],"name":"unrestrictAddress","outputs":[],"stateMutability":"nonpayable","type":"function"},{"inputs":[{"internalType":"uint256","name":"_periodIndex","type":"uint256"}],"name":"unstakeSingle","outputs":[],"stateMutability":"nonpayable","type":"function"},{"inputs":[{"internalType":"uint256","name":"_dqAmount","type":"uint256"},{"internalType":"uint256","name":"_minOut","type":"uint256"}],"name":"withdrawDQ","outputs":[],"stateMutability":"nonpayable","type":"function"},{"stateMutability":"payable","type":"receive"}],"evm":{"bytecode":{"linkReferences":{},"object":"670de0b6b3a76400006005908155600d60065560506007908155678ac7230489e800006008819055600955680ad78ebc5ac6200000600a9081556213c680600b556101606040526000608090815260a09390935260c052600f60e052601461010052601961012052601e610140526200007b91600e9162000398565b506040805161010081018252601e815260786020820152610168918101919091526103e86060820152610fa0608082015261271060a0820152613a9860c082015261753060e0820152620000d4906015906008620003e0565b5060408051608081018252601e8152605a602082015260b49181019190915261016860608201526200010b90602490600462000417565b506040805160808101825260058152600a6020820152600f9181019190915260146060820152620001419060259060046200045a565b503480156200014f57600080fd5b5060405162008e8c38038062008e8c8339810160408190526200017291620004cf565b6200017d3362000348565b600180556040516200018f906200049c565b604051809103906000f080158015620001ac573d6000803e3d6000fd5b50600280546001600160a01b0319166001600160a01b0392909216919091179055604051620001db90620004aa565b604051809103906000f080158015620001f8573d6000803e3d6000fd5b50600380546001600160a01b03199081166001600160a01b03938416179091556004805490911691831691909117905542600c819055600d556000601d81620002496000546001600160a01b031690565b6001600160a01b0390811682526020820192909252604001600090812080546001600160a01b03191693909216929092179055600190601d90620002956000546001600160a01b031690565b6001600160a01b0316815260208101919091526040016000908120600701805460ff19169215159290921790915560001990601d90620002dd6000546001600160a01b031690565b6001600160a01b03168152602081019190915260400160002060080155601e6200030f6000546001600160a01b031690565b81546001810183556000928352602090922090910180546001600160a01b0319166001600160a01b039092169190911790555062000501565b600080546001600160a01b038381166001600160a01b0319831681178455604051919092169283917f8be0079c531659141344cd1fd0a4f28419497f9722a3daafe3b4186f6b6457e09190a35050565b8260078101928215620003ce579160200282015b82811115620003ce578251829060ff16905591602001919060010190620003ac565b50620003dc929150620004b8565b5090565b8260088101928215620003ce579160200282015b82811115620003ce578251829061ffff16905591602001919060010190620003f4565b828054828255906000526020600020908101928215620003ce5791602002820182811115620003ce578251829061ffff16905591602001919060010190620003f4565b828054828255906000526020600020908101928215620003ce5791602002820182811115620003ce578251829060ff16905591602001919060010190620003ac565b610e2e8062005dfe83390190565b6122608062006c2c83390190565b5b80821115620003dc5760008155600101620004b9565b600060208284031215620004e257600080fd5b81516001600160a01b0381168114620004fa57600080fd5b9392505050565b6158ed80620005116000396000f3fe60806040526004361061048c5760003560e01c8063939c54fc11610255578063c52f104111610144578063d92721b5116100c1578063ef57c74e11610085578063ef57c74e14610ee0578063f043369b14610ef6578063f0c9e87a14610f16578063f1f16d0514610f2b578063f2f0913014610f41578063f2fde38b14610f9857600080fd5b8063d92721b514610e48578063de40282b14610e75578063de44391a14610e95578063e4aa1efe14610eaa578063edd47fe614610ec057600080fd5b8063d02adc2a11610108578063d02adc2a14610db5578063d11c2d1d14610ddd578063d2407b4c14610dfd578063d33bce8714610e1d578063d789760e14610e3257600080fd5b8063c52f104114610d07578063c720009814610d27578063c73bd86914610d5f578063c85ea4ec14610d7f578063cee5e55314610d9557600080fd5b8063ab5e16e3116101d2578063b7b4024b11610196578063b7b4024b14610c5b578063bb89209b14610c8b578063bed9985014610ca1578063bef58b4514610cb7578063c01bc98214610cd757600080fd5b8063ab5e16e314610bac578063ac2ac06414610be5578063ae2e933b14610c05578063b547836514610c1b578063b6b55f2514610c3b57600080fd5b80639d50880f116102195780639d50880f14610b20578063a2bdedf414610b40578063a53f57bc14610b60578063a68cc6e314610b80578063ab2adc0014610b9657600080fd5b8063939c54fc14610aae57806396649b8614610ac457806398d5fdca14610ada57806399dc002514610aef5780639baa944d14610b0457600080fd5b80634ae2b8491161037c578063715018a6116102f957806378e97925116102bd57806378e97925146109ed5780637e7031fb14610a03578063889abad614610a235780638bc43ccf14610a505780638da5cb5b14610a7057806391b7f5ed14610a8e57600080fd5b8063715018a61461093957806371502e6c1461094e57806373f380811461096e57806378030765146109ab5780637879b5ef146109cd57600080fd5b80635ae2afa4116103405780635ae2afa4146107e9578063609a33a8146107fe5780636b7ae8dc146108135780636f77926b146108335780636f9fb98a1461092657600080fd5b80634ae2b8491461074d5780634bf0d3311461076357806352c57959146107935780635525f3b2146107b3578063588ab80b146107d357600080fd5b8063297324a41161040a5780633737bcb4116103ce5780633737bcb4146106b557806341ecde49146106cb5780634420e486146106f85780634529be261461071857806345335b6d1461072d57600080fd5b8063297324a4146105f45780632c9a7ea6146106095780633207313d1461061f5780633380a8c11461067257806334eb8c431461069f57600080fd5b80631591424711610451578063159142471461054457806317e702e014610564578063191b0f84146105845780631c7c74f9146105995780631cd3a4ac146105c657600080fd5b806204862914610498578063015493b4146104ba57806307bc8840146104da57806308bed0f01461051a5780630d2e3a291461052f57600080fd5b3661049357005b600080fd5b3480156104a457600080fd5b506104b86104b3366004615519565b610fb8565b005b3480156104c657600080fd5b506104b86104d5366004615557565b6113ab565b3480156104e657600080fd5b506105076104f5366004615557565b602a6020526000908152604090205481565b6040519081526020015b60405180910390f35b34801561052657600080fd5b506104b8611423565b34801561053b57600080fd5b50602854610507565b34801561055057600080fd5b5061050761055f366004615572565b611787565b34801561057057600080fd5b506104b861057f36600461559c565b6117d9565b34801561059057600080fd5b50610507611922565b3480156105a557600080fd5b506105076105b4366004615557565b60466020526000908152604090205481565b3480156105d257600080fd5b506105dc61dead81565b6040516001600160a01b039091168152602001610511565b34801561060057600080fd5b506105076119d3565b34801561061557600080fd5b5061050760065481565b34801561062b57600080fd5b5061065d61063a366004615557565b6001600160a01b03166000908152601f6020526040902080546001909101549091565b60408051928352602083019190915201610511565b34801561067e57600080fd5b5061050761068d366004615557565b602d6020526000908152604090205481565b3480156106ab57600080fd5b50610507600a5481565b3480156106c157600080fd5b5061050760225481565b3480156106d757600080fd5b506105076106e6366004615611565b60266020526000908152604090205481565b34801561070457600080fd5b506104b8610713366004615557565b611a4e565b34801561072457600080fd5b506104b8611c56565b34801561073957600080fd5b50610507610748366004615611565b611c9b565b34801561075957600080fd5b50610507600b5481565b34801561076f57600080fd5b5061078361077e366004615557565b611cb2565b6040519015158152602001610511565b34801561079f57600080fd5b506104b86107ae366004615557565b611d52565b3480156107bf57600080fd5b506104b86107ce366004615611565b611f13565b3480156107df57600080fd5b50610507602e5481565b3480156107f557600080fd5b506104b861203b565b34801561080a57600080fd5b50610507600581565b34801561081f57600080fd5b506004546105dc906001600160a01b031681565b34801561083f57600080fd5b506108bf61084e366004615557565b6001600160a01b039081166000908152601d60205260409020805460018201546002830154600384015460048501546005860154600687015460078801546008909801549690981698949760ff80861698610100968790048216989597949693959294828216949091049091169190565b604080516001600160a01b03909c168c5260208c019a909a5260ff988916998b0199909952969095166060890152608088019390935260a087019190915260c086015260e08501521515610100840152151561012083015261014082015261016001610511565b34801561093257600080fd5b5047610507565b34801561094557600080fd5b506104b86123e6565b34801561095a57600080fd5b506105dc610969366004615611565b6123f8565b34801561097a57600080fd5b5061098e610989366004615557565b612422565b604080519315158452602084019290925290820152606001610511565b3480156109b757600080fd5b506109c0612668565b604051610511919061562a565b3480156109d957600080fd5b506105076109e8366004615611565b6126ca565b3480156109f957600080fd5b50610507600c5481565b348015610a0f57600080fd5b506104b8610a1e366004615611565b6126da565b348015610a2f57600080fd5b50610507610a3e366004615611565b60276020526000908152604090205481565b348015610a5c57600080fd5b50610507610a6b366004615611565b612897565b348015610a7c57600080fd5b506000546001600160a01b03166105dc565b348015610a9a57600080fd5b506104b8610aa9366004615611565b6128b8565b348015610aba57600080fd5b5061050760085481565b348015610ad057600080fd5b5061050760475481565b348015610ae657600080fd5b50600554610507565b348015610afb57600080fd5b506104b861293c565b348015610b1057600080fd5b50610507670de0b6b3a764000081565b348015610b2c57600080fd5b50610507610b3b366004615611565b612b3d565b348015610b4c57600080fd5b506105dc610b5b366004615611565b612b4d565b348015610b6c57600080fd5b506003546105dc906001600160a01b031681565b348015610b8c57600080fd5b5061050760055481565b348015610ba257600080fd5b50610507602f5481565b348015610bb857600080fd5b50610783610bc7366004615557565b6001600160a01b03166000908152602c602052604090205460ff1690565b348015610bf157600080fd5b506104b8610c00366004615557565b612b5d565b348015610c1157600080fd5b5061050760315481565b348015610c2757600080fd5b50610507610c36366004615611565b612c37565b348015610c4757600080fd5b506104b8610c56366004615611565b612c47565b348015610c6757600080fd5b50610783610c76366004615557565b60296020526000908152604090205460ff1681565b348015610c9757600080fd5b5061050760095481565b348015610cad57600080fd5b5061050760075481565b348015610cc357600080fd5b50610507610cd2366004615611565b61313d565b348015610ce357600080fd5b50610783610cf2366004615557565b602c6020526000908152604090205460ff1681565b348015610d1357600080fd5b506104b8610d22366004615557565b61314d565b348015610d3357600080fd5b50610507610d42366004615572565b602360209081526000928352604080842090915290825290205481565b348015610d6b57600080fd5b50610507610d7a366004615611565b61329a565b348015610d8b57600080fd5b50610507600d5481565b348015610da157600080fd5b50610507610db0366004615572565b6132aa565b348015610dc157600080fd5b506105dc73570a5d26f7765ecb712c0924e4de545b89fd43df81565b348015610de957600080fd5b506104b8610df8366004615519565b6132cf565b348015610e0957600080fd5b506104b8610e1836600461559c565b61353c565b348015610e2957600080fd5b506104b861369e565b348015610e3e57600080fd5b5061050760205481565b348015610e5457600080fd5b50610507610e63366004615557565b60486020526000908152604090205481565b348015610e8157600080fd5b506104b8610e90366004615557565b61386f565b348015610ea157600080fd5b506104b861391b565b348015610eb657600080fd5b5061050760215481565b348015610ecc57600080fd5b506104b8610edb366004615611565b613aae565b348015610eec57600080fd5b5061050760305481565b348015610f0257600080fd5b506002546105dc906001600160a01b031681565b348015610f2257600080fd5b50610507601e81565b348015610f3757600080fd5b50610507602b5481565b348015610f4d57600080fd5b50610f7d610f5c366004615557565b601f6020526000908152604090208054600182015460029092015490919083565b60408051938452602084019290925290820152606001610511565b348015610fa457600080fd5b506104b8610fb3366004615557565b613fa9565b610fc061401f565b336000908152602c602052604090205460ff1615610ff95760405162461bcd60e51b8152600401610ff090615677565b60405180910390fd5b6000821161103b5760405162461bcd60e51b815260206004820152600f60248201526e0616d6f756e74206d757374203e203608c1b6044820152606401610ff0565b6002546040516370a0823160e01b815233600482015283916001600160a01b0316906370a0823190602401602060405180830381865afa158015611083573d6000803e3d6000fd5b505050506040513d601f19601f820116820180604052508101906110a791906156a6565b10156110e75760405162461bcd60e51b815260206004820152600f60248201526e696e73756666696369656e7420445160881b6044820152606401610ff0565b6000670de0b6b3a76400006005548461110091906156d5565b61110a91906156ec565b90506000606461111b8360066156d5565b61112591906156ec565b90506000611133828461570e565b9050838110156111795760405162461bcd60e51b81526020600482015260116024820152700e6d8d2e0e0c2ceca40e8dede40d0d2ced607b1b6044820152606401610ff0565b6040516370a0823160e01b8152306004820152819073570a5d26f7765ecb712c0924e4de545b89fd43df906370a0823190602401602060405180830381865afa1580156111ca573d6000803e3d6000fd5b505050506040513d601f19601f820116820180604052508101906111ee91906156a6565b10156112315760405162461bcd60e51b815260206004820152601260248201527134b739bab33334b1b4b2b73a103a37b5b2b760711b6044820152606401610ff0565b600254604051630852cd8d60e31b8152600481018790526001600160a01b03909116906342966c6890602401600060405180830381600087803b15801561127757600080fd5b505af115801561128b573d6000803e3d6000fd5b50505050600060648360326112a091906156d5565b6112aa91906156ec565b9050600060646112bb8560326156d5565b6112c591906156ec565b90506112d082614078565b80603060008282546112e29190615721565b909155505060405163a9059cbb60e01b815273570a5d26f7765ecb712c0924e4de545b89fd43df9063a9059cbb906113209033908790600401615734565b6020604051808303816000875af115801561133f573d6000803e3d6000fd5b505050506040513d601f19601f82011682018060405250810190611363919061574d565b5060405183815233907f884edad9ce6fa2440d8a54cc123490eb96d2768479d49ff9c7366125a94243649060200160405180910390a250505050506113a760018055565b5050565b6113b36140b5565b6001600160a01b0381166113d95760405162461bcd60e51b8152600401610ff09061576f565b600480546001600160a01b0319166001600160a01b0383169081179091556040517fffcc1b307a30458349a19925c1146e13eb12c58b2f165c2fed220c294e81c75890600090a250565b61142b61401f565b600d5461143b9062015180615721565b4210156114765760405162461bcd60e51b8152602060048201526009602482015268746f6f206561726c7960b81b6044820152606401610ff0565b600254604080516318160ddd60e01b815290516000926001600160a01b0316916318160ddd9160048083019260209291908290030181865afa1580156114c0573d6000803e3d6000fd5b505050506040513d601f19601f820116820180604052508101906114e491906156a6565b905060006103e8600654836114f991906156d5565b61150391906156ec565b9050600060646007548361151791906156d5565b61152191906156ec565b600254604051636e88838960e11b8152600481018390529192506001600160a01b03169063dd11071290602401600060405180830381600087803b15801561156857600080fd5b505af115801561157c573d6000803e3d6000fd5b50505050601e60075411156115b45760056007600082825461159e919061570e565b9091555050600754601e11156115b457601e6007555b60006115c0828461570e565b9050600060646115d183603c6156d5565b6115db91906156ec565b9050600060646115ec84600f6156d5565b6115f691906156ec565b9050600060646116078560056156d5565b61161191906156ec565b9050600060646116228660066156d5565b61162c91906156ec565b90506000606461163d87600e6156d5565b61164791906156ec565b60205490915015611685576020546116648664e8d4a510006156d5565b61166e91906156ec565b6047600082825461167f9190615721565b90915550505b61168e8461410f565b6005546000906116a685670de0b6b3a76400006156d5565b6116b091906156ec565b600254600480546040516340c10f1960e01b81529394506001600160a01b03928316936340c10f19936116e893921691869101615734565b600060405180830381600087803b15801561170257600080fd5b505af1158015611716573d6000803e3d6000fd5b50505050611723836144a8565b61172c826144e5565b42600d819055604080518b8152602081018b905280820192909252517f645f9de81bee922bd76dcb18c2d7a6a22ff51e3995781ee9f65134b284e774b79181900360600190a15050505050505050505061178560018055565b565b6001600160a01b038216600090815260236020526040812060248054839190859081106117b6576117b6615798565b906000526020600020015481526020019081526020016000205490505b92915050565b6117e16140b5565b60005b8181101561191d57600083838381811061180057611800615798565b90506020020160208101906118159190615557565b90506001600160a01b0381161580159061184857506001600160a01b03811660009081526029602052604090205460ff16155b1561190a576001600160a01b0381166000818152602960205260408120805460ff191660019081179091556028805491820181559091527fe16da923a2d88192e5070f37b4571d58682c0d66212ec634d495f33de3f77ab50180546001600160a01b0319169091179055602b546118c59064e8d4a51000906156ec565b6001600160a01b0382166000818152602a602052604080822093909355915190917f6f60d1feec1d600e745d46f9ea18cd8b27754026d7bb1d859bf8a22248779bf991a25b5080611915816157ae565b9150506117e4565b505050565b600080600c5442611933919061570e565b90506000600b548261194591906156ec565b9050600281101561196057670de0b6b3a76400009250505090565b60048110156119795767d02ab486cedc00009250505090565b6006811015611993576801158e460913d000009250505090565b6009546000906119a460048461570e565b6119ae91906156d5565b6008546119bb9190615721565b9050600a548111156119cc5750600a545b9392505050565b6040516370a0823160e01b815230600482015260009073570a5d26f7765ecb712c0924e4de545b89fd43df906370a0823190602401602060405180830381865afa158015611a25573d6000803e3d6000fd5b505050506040513d601f19601f82011682018060405250810190611a4991906156a6565b905090565b6001600160a01b03811615801590611a6f57506001600160a01b0381163314155b611aae5760405162461bcd60e51b815260206004820152601060248201526f34b73b30b634b2103932b332b93932b960811b6044820152606401610ff0565b336000908152601d60205260409020546001600160a01b031615611b095760405162461bcd60e51b8152602060048201526012602482015271185b1c9958591e481c9959da5cdd195c995960721b6044820152606401610ff0565b6001600160a01b0381166000908152601d602052604090206007015460ff16611b745760405162461bcd60e51b815260206004820152601d60248201527f7265666572726572206d7573742068617665206e6f64652066697273740000006044820152606401610ff0565b336000908152601d602052604080822080546001600160a01b0319166001600160a01b03851690811790915582528120600101805491611bb3836157ae565b90915550506001600160a01b0381166000908152601d60205260409020611bdd9060090133614586565b50601e805460018101825560009182527f50bb669a95c7b50b7e8a6f09454034b2b14cf2b85c730dca9a539ca82cb6e3500180546001600160a01b031916339081179091556040516001600160a01b038416927f98ada70a1cb506dc4591465e1ee9be3fd7a2b6c73ecf3b949009718c9a35151991a350565b611c5e6140b5565b600080546040516001600160a01b03909116914780156108fc02929091818181858888f19350505050158015611c98573d6000803e3d6000fd5b50565b603e8160088110611cab57600080fd5b0154905081565b6001600160a01b038181166000908152601d6020526040812054909116611cdb57506000919050565b611ce48261459b565b611cf057506000919050565b6001600160a01b0382166000908152601d6020526040902060070154610100900460ff16158015611d3d57506001600160a01b0382166000908152601d602052604090206007015460ff16155b15611d4a57506000919050565b506001919050565b611d5a6140b5565b6001600160a01b03811660009081526029602052604090205460ff16611db55760405162461bcd60e51b815260206004820152601060248201526f1b9bdd081a5b881dda1a5d195b1a5cdd60821b6044820152606401610ff0565b6001600160a01b0381166000908152602960205260408120805460ff191690555b602854811015611edb57816001600160a01b031660288281548110611dfd57611dfd615798565b6000918252602090912001546001600160a01b031603611ec95760288054611e279060019061570e565b81548110611e3757611e37615798565b600091825260209091200154602880546001600160a01b039092169183908110611e6357611e63615798565b9060005260206000200160006101000a8154816001600160a01b0302191690836001600160a01b031602179055506028805480611ea257611ea26157c7565b600082815260209020810160001990810180546001600160a01b0319169055019055611edb565b80611ed3816157ae565b915050611dd6565b506040516001600160a01b038216907f3faa13dd24593d5e2f98b7da28654ac0ee03d67cb6e0ecc5b530cf22d0de71a090600090a250565b611f1b6140b5565b6040516370a0823160e01b8152306004820152819073570a5d26f7765ecb712c0924e4de545b89fd43df906370a0823190602401602060405180830381865afa158015611f6c573d6000803e3d6000fd5b505050506040513d601f19601f82011682018060405250810190611f9091906156a6565b1015611fae5760405162461bcd60e51b8152600401610ff0906157dd565b73570a5d26f7765ecb712c0924e4de545b89fd43df63a9059cbb611fda6000546001600160a01b031690565b836040518363ffffffff1660e01b8152600401611ff8929190615734565b6020604051808303816000875af1158015612017573d6000803e3d6000fd5b505050506040513d601f19601f820116820180604052508101906113a7919061574d565b61204361401f565b336000908152602c602052604090205460ff16156120735760405162461bcd60e51b8152600401610ff090615677565b6003546040516370a0823160e01b815233600482015260009182916001600160a01b03909116906370a0823190602401602060405180830381865afa1580156120c0573d6000803e3d6000fd5b505050506040513d601f19601f820116820180604052508101906120e491906156a6565b905060006120f133612422565b50509050806121375760405162461bcd60e51b81526020600482015260126024820152711b9bd919481b9bdd081c5d585b1a599a595960721b6044820152606401610ff0565b60005b828110156122fb57600354604051632f745c5960e01b81526000916001600160a01b031690632f745c59906121759033908690600401615734565b602060405180830381865afa158015612192573d6000803e3d6000fd5b505050506040513d601f19601f820116820180604052508101906121b691906156a6565b60035460405163fcf49adf60e01b8152600481018390529192506000916001600160a01b039091169063fcf49adf90602401602060405180830381865afa158015612205573d6000803e3d6000fd5b505050506040513d601f19601f8201168201806040525081019061222991906156a6565b9050600061223860018361570e565b33600090815260356020526040812091925090826003811061225c5761225c615798565b015464e8d4a510006032846003811061227757612277615798565b015461228391906156ec565b61228d919061570e565b90506122998189615721565b975064e8d4a51000603283600381106122b4576122b4615798565b01546122c091906156ec565b33600090815260356020526040902083600381106122e0576122e0615798565b0155508392506122f391508290506157ae565b91505061213a565b506000831161231c5760405162461bcd60e51b8152600401610ff09061580b565b60055460009061233485670de0b6b3a76400006156d5565b61233e91906156ec565b6002546040516340c10f1960e01b81529192506001600160a01b0316906340c10f19906123719033908590600401615734565b600060405180830381600087803b15801561238b57600080fd5b505af115801561239f573d6000803e3d6000fd5b50506040518681523392507f30f4e2ff758c62d61bb151d75a67e6e282c1536c30d83481c7f0855937d2eae591506020015b60405180910390a25050505061178560018055565b6123ee6140b5565b611785600061463f565b6028818154811061240857600080fd5b6000918252602090912001546001600160a01b0316905081565b6003546040516370a0823160e01b81526001600160a01b03838116600483015260009283928392839216906370a0823190602401602060405180830381865afa158015612473573d6000803e3d6000fd5b505050506040513d601f19601f8201168201806040525081019061249791906156a6565b9050806000036124b257600080600093509350935050612661565b6000805b828110156125c857600354604051632f745c5960e01b81526000916001600160a01b031690632f745c59906124f1908b908690600401615734565b602060405180830381865afa15801561250e573d6000803e3d6000fd5b505050506040513d601f19601f8201168201806040525081019061253291906156a6565b60035460405163fcf49adf60e01b8152600481018390529192506000916001600160a01b039091169063fcf49adf90602401602060405180830381865afa158015612581573d6000803e3d6000fd5b505050506040513d601f19601f820116820180604052508101906125a591906156a6565b9050838111156125b3578093505b505080806125c0906157ae565b9150506124b6565b50600354604051630118a7f560e71b8152600481018390526000916001600160a01b031690638c53fa8090602401602060405180830381865afa158015612613573d6000803e3d6000fd5b505050506040513d601f19601f8201168201806040525081019061263791906156a6565b6001600160a01b0388166000908152601d6020526040902060080154818110159750955093505050505b9193909250565b606060288054806020026020016040519081016040528092919081815260200182805480156126c057602002820191906000526020600020905b81546001600160a01b031681526001909101906020018083116126a2575b5050505050905090565b600e8160078110611cab57600080fd5b6126e261401f565b60245481106127245760405162461bcd60e51b815260206004820152600e60248201526d1a5b9d985b1a59081c195c9a5bd960921b6044820152606401610ff0565b60006024828154811061273957612739615798565b6000918252602080832090910154338352602382526040808420828552909252912054909150806127975760405162461bcd60e51b81526020600482015260086024820152676e6f207374616b6560c01b6044820152606401610ff0565b6127a1338361468f565b33600090815260236020908152604080832085845282528083208390556027909152812080548392906127d590849061570e565b909155505060025460405163a9059cbb60e01b81526001600160a01b039091169063a9059cbb9061280c9033908590600401615734565b6020604051808303816000875af115801561282b573d6000803e3d6000fd5b505050506040513d601f19601f8201168201806040525081019061284f919061574d565b50604080518281526020810184905233917fb16ead3739cac2505095af2275c1f8ade1fe8f49d2d24d0e56db2198c40de15291015b60405180910390a25050611c9860018055565b602581815481106128a757600080fd5b600091825260209091200154905081565b6128c06140b5565b600081116129015760405162461bcd60e51b815260206004820152600e60248201526d07072696365206d757374203e20360941b6044820152606401610ff0565b60058190556040518181527f66cbca4f3c64fecf1dcb9ce094abcf7f68c3450a1d4e3a8e917dd621edb4ebe09060200160405180910390a150565b61294461401f565b336000908152602c602052604090205460ff16156129745760405162461bcd60e51b8152600401610ff090615677565b336000908152601d602052604090206002810154610100900460ff166129c95760405162461bcd60e51b815260206004820152600a6024820152691b9bc819081b195d995b60b21b6044820152606401610ff0565b60028101546000906129e590600190610100900460ff1661582f565b3360009081526046602052604081205460ff9290921692509064e8d4a51000603e8460088110612a1757612a17615798565b0154612a2391906156ec565b612a2d919061570e565b905060008111612a4f5760405162461bcd60e51b8152600401610ff09061580b565b64e8d4a51000603e8360088110612a6857612a68615798565b0154612a7491906156ec565b33600090815260466020526040812091909155600554612a9c83670de0b6b3a76400006156d5565b612aa691906156ec565b6002546040516340c10f1960e01b81529192506001600160a01b0316906340c10f1990612ad99033908590600401615734565b600060405180830381600087803b158015612af357600080fd5b505af1158015612b07573d6000803e3d6000fd5b50506040518481523392507f9c51ff96f57f0b34dfa1cbf09c2697e3f15ed11966aeb02dc5b7e2d95244596a91506020016123d1565b602481815481106128a757600080fd5b601e818154811061240857600080fd5b612b656140b5565b6001600160a01b038116612b8b5760405162461bcd60e51b8152600401610ff09061576f565b6001600160a01b0381166000908152602c602052604090205460ff1615612be95760405162461bcd60e51b8152602060048201526012602482015271185b1c9958591e481c995cdd1c9a58dd195960721b6044820152606401610ff0565b6001600160a01b0381166000818152602c6020526040808220805460ff19166001179055513392917f2b79879e0083ee64b9dbf5dae16865e4e581c85d4e7fb2be212dd934dba4c70f91a350565b60368160088110611cab57600080fd5b612c4f61401f565b336000908152601d60205260409020546001600160a01b031680612ca65760405162461bcd60e51b815260206004820152600e60248201526d1b9bdd081c9959da5cdd195c995960921b6044820152606401610ff0565b612caf3361459b565b612cef5760405162461bcd60e51b81526020600482015260116024820152706e6f206e6f646520696e2075706c696e6560781b6044820152606401610ff0565b336000908152601d6020526040902060070154610100900460ff16612d7057336000908152601d602052604090206007015460ff16612d705760405162461bcd60e51b815260206004820152601b60248201527f6669727374206465706f736974207265717569726573206e6f646500000000006044820152606401610ff0565b670de0b6b3a7640000821015612db85760405162461bcd60e51b815260206004820152600d60248201526c62656c6f77206d696e696d756d60981b6044820152606401610ff0565b612dc0611922565b821115612dfc5760405162461bcd60e51b815260206004820152600a6024820152690caf0c6cacac840dac2f60b31b6044820152606401610ff0565b6040516370a0823160e01b8152336004820152829073570a5d26f7765ecb712c0924e4de545b89fd43df906370a0823190602401602060405180830381865afa158015612e4d573d6000803e3d6000fd5b505050506040513d601f19601f82011682018060405250810190612e7191906156a6565b1015612e8f5760405162461bcd60e51b8152600401610ff0906157dd565b336000818152601d6020526040908190206007015490516323b872dd60e01b8152600481019290925230602483015260448201849052610100900460ff16159073570a5d26f7765ecb712c0924e4de545b89fd43df906323b872dd906064016020604051808303816000875af1158015612f0d573d6000803e3d6000fd5b505050506040513d601f19601f82011682018060405250810190612f31919061574d565b50600554600090612f4a85670de0b6b3a76400006156d5565b612f5491906156ec565b905060006064612f658660326156d5565b612f6f91906156ec565b905060006064612f808760326156d5565b612f8a91906156ec565b905081602e6000828254612f9e9190615721565b925050819055508060226000828254612fb79190615721565b925050819055508060206000828254612fd09190615721565b9091555050336000908152601d6020526040812060038101805491928992612ff9908490615721565b9091555061300a90508760066156d5565b81600501600082825461301d9190615721565b92505081905550868160060160008282546130389190615721565b909155505060078101805461ff001916610100179055613058338861476c565b61306233846147cd565b61306b336149ab565b61307433614a44565b61307d33614be7565b61308633614d6e565b6002546040516340c10f1960e01b81526001600160a01b03909116906340c10f19906130b89033908890600401615734565b600060405180830381600087803b1580156130d257600080fd5b505af11580156130e6573d6000803e3d6000fd5b5050604080518a8152602081018890528815158183015290513393507f6dbb6056a2fff319358e6dd7d0d72cb3baa992cdcc7e120fb0a32cd1601840e592509081900360600190a2505050505050611c9860018055565b60328160038110611cab57600080fd5b6131556140b5565b6001600160a01b03811661317b5760405162461bcd60e51b8152600401610ff09061576f565b6001600160a01b03811660009081526029602052604090205460ff16156131db5760405162461bcd60e51b8152602060048201526014602482015273185b1c9958591e481a5b881dda1a5d195b1a5cdd60621b6044820152606401610ff0565b6001600160a01b0381166000818152602960205260408120805460ff191660019081179091556028805491820181559091527fe16da923a2d88192e5070f37b4571d58682c0d66212ec634d495f33de3f77ab50180546001600160a01b0319169091179055602b546132539064e8d4a51000906156ec565b6001600160a01b0382166000818152602a602052604080822093909355915190917f6f60d1feec1d600e745d46f9ea18cd8b27754026d7bb1d859bf8a22248779bf991a250565b60158160088110611cab57600080fd5b603560205281600052604060002081600381106132c657600080fd5b01549150829050565b6132d761401f565b60245481106133195760405162461bcd60e51b815260206004820152600e60248201526d1a5b9d985b1a59081c195c9a5bd960921b6044820152606401610ff0565b6000821161335b5760405162461bcd60e51b815260206004820152600f60248201526e0616d6f756e74206d757374203e203608c1b6044820152606401610ff0565b6002546040516370a0823160e01b815233600482015283916001600160a01b0316906370a0823190602401602060405180830381865afa1580156133a3573d6000803e3d6000fd5b505050506040513d601f19601f820116820180604052508101906133c791906156a6565b10156134075760405162461bcd60e51b815260206004820152600f60248201526e696e73756666696369656e7420445160881b6044820152606401610ff0565b60006024828154811061341c5761341c615798565b6000918252602090912001546002546040516323b872dd60e01b8152336004820152306024820152604481018690529192506001600160a01b0316906323b872dd906064016020604051808303816000875af1158015613480573d6000803e3d6000fd5b505050506040513d601f19601f820116820180604052508101906134a4919061574d565b50336000908152602360209081526040808320848452909152812080548592906134cf908490615721565b9091555050600081815260276020526040812080548592906134f2908490615721565b9091555050604080518481526020810183905233917fe02de4328f3659a0edc63aa323f742d444274e44a7c500f4ab23e33a3e449ca8910160405180910390a2506113a760018055565b6135446140b5565b60005b8181101561191d57600083838381811061356357613563615798565b90506020020160208101906135789190615557565b6001600160a01b0316141580156135d45750602c60008484848181106135a0576135a0615798565b90506020020160208101906135b59190615557565b6001600160a01b0316815260208101919091526040016000205460ff16155b1561368c576001602c60008585858181106135f1576135f1615798565b90506020020160208101906136069190615557565b6001600160a01b031681526020810191909152604001600020805460ff19169115159190911790553383838381811061364157613641615798565b90506020020160208101906136569190615557565b6001600160a01b03167f2b79879e0083ee64b9dbf5dae16865e4e581c85d4e7fb2be212dd934dba4c70f60405160405180910390a35b80613696816157ae565b915050613547565b6136a661401f565b336000908152602c602052604090205460ff16156136d65760405162461bcd60e51b8152600401610ff090615677565b3360009081526029602052604090205460ff166137355760405162461bcd60e51b815260206004820152601860248201527f6e6f7420696e20706172746e65722077686974656c69737400000000000000006044820152606401610ff0565b336000908152602a6020526040812054602b546137589064e8d4a51000906156ec565b613762919061570e565b9050600081116137845760405162461bcd60e51b8152600401610ff09061580b565b64e8d4a51000602b5461379791906156ec565b336000908152602a60205260408120919091556005546137bf83670de0b6b3a76400006156d5565b6137c991906156ec565b6002546040516340c10f1960e01b81529192506001600160a01b0316906340c10f19906137fc9033908590600401615734565b600060405180830381600087803b15801561381657600080fd5b505af115801561382a573d6000803e3d6000fd5b50506040518481523392507ffd2c9576db62dcc8dfb3ba4874d5a4449db744e9a548e446bb88becab1221a5891506020015b60405180910390a2505061178560018055565b6138776140b5565b6001600160a01b0381166000908152602c602052604090205460ff166138d05760405162461bcd60e51b815260206004820152600e60248201526d1b9bdd081c995cdd1c9a58dd195960921b6044820152606401610ff0565b6001600160a01b0381166000818152602c6020526040808220805460ff19169055513392917f3ce0e6525151c724aaf741aac70cdac1279a46acdc86dbe6ccd1b66c26ea817091a350565b61392361401f565b336000908152602c602052604090205460ff16156139535760405162461bcd60e51b8152600401610ff090615677565b336000908152601f6020526040812060028101546021549154909164e8d4a510009161397f91906156d5565b61398991906156ec565b613993919061570e565b9050600081116139b55760405162461bcd60e51b8152600401610ff09061580b565b602154336000908152601f602052604090205464e8d4a51000916139d8916156d5565b6139e291906156ec565b336000908152601f6020526040812060020191909155600554613a0d83670de0b6b3a76400006156d5565b613a1791906156ec565b6002546040516340c10f1960e01b81529192506001600160a01b0316906340c10f1990613a4a9033908590600401615734565b600060405180830381600087803b158015613a6457600080fd5b505af1158015613a78573d6000803e3d6000fd5b50506040518481523392507f7436794b6cd88fe788cb3e86147cb3c7fce0762dc1fb3f3fc7129f4e050d8750915060200161385c565b613ab661401f565b60018110158015613ac8575060038111155b613b035760405162461bcd60e51b815260206004820152600c60248201526b696e76616c6964207479706560a01b6044820152606401610ff0565b600354604051636866537d60e01b8152600481018390526000916001600160a01b031690636866537d90602401602060405180830381865afa158015613b4d573d6000803e3d6000fd5b505050506040513d601f19601f82011682018060405250810190613b7191906156a6565b6040516370a0823160e01b8152336004820152909150819073570a5d26f7765ecb712c0924e4de545b89fd43df906370a0823190602401602060405180830381865afa158015613bc5573d6000803e3d6000fd5b505050506040513d601f19601f82011682018060405250810190613be991906156a6565b1015613c075760405162461bcd60e51b8152600401610ff0906157dd565b6040516323b872dd60e01b81523360048201523060248201526044810182905273570a5d26f7765ecb712c0924e4de545b89fd43df906323b872dd906064016020604051808303816000875af1158015613c65573d6000803e3d6000fd5b505050506040513d601f19601f82011682018060405250810190613c89919061574d565b50600354604051631aa1577160e11b81526001600160a01b0390911690633542aee290613cbc9033908690600401615734565b600060405180830381600087803b158015613cd657600080fd5b505af1158015613cea573d6000803e3d6000fd5b5050336000908152601d60205260408120600701805460ff1916600117905560228054859450909250613d1e908490615721565b925050819055508060206000828254613d379190615721565b9091555050336000908152601d60205260409020600183148015613d6457506002810154600160ff909116105b15613da45760028101805460ff191660019081179091556040519081523390600080516020615898833981519152906020015b60405180910390a2613e42565b826002148015613dba575060028181015460ff16105b15613dee576002818101805460ff191682179055604051908152339060008051602061589883398151915290602001613d97565b826003148015613e0757506002810154600360ff909116105b15613e425760028101805460ff1916600390811790915560405190815233906000805160206158988339815191529060200160405180910390a25b80546001600160a01b0316158015613e6557506000546001600160a01b03163314155b15613f685760008054338252601d602052604080832080546001600160a01b0319166001600160a01b03938416179055825490911682528120600101805491613ead836157ae565b9190505550613eee33601d6000613ecc6000546001600160a01b031690565b6001600160a01b03168152602081019190915260400160002060090190614586565b50601e805460018101825560009182527f50bb669a95c7b50b7e8a6f09454034b2b14cf2b85c730dca9a539ca82cb6e3500180546001600160a01b0319163390811790915581546040516001600160a01b03909116927f98ada70a1cb506dc4591465e1ee9be3fd7a2b6c73ecf3b949009718c9a35151991a35b613f7133614e45565b604080518481526020810184905233917f281c1baf144ef6ff8337e881c1101a16e16aa99104c7f1fd2d63b6b8b2f81d799101612884565b613fb16140b5565b6001600160a01b0381166140165760405162461bcd60e51b815260206004820152602660248201527f4f776e61626c653a206e6577206f776e657220697320746865207a65726f206160448201526564647265737360d01b6064820152608401610ff0565b611c988161463f565b6002600154036140715760405162461bcd60e51b815260206004820152601f60248201527f5265656e7472616e637947756172643a207265656e7472616e742063616c6c006044820152606401610ff0565b6002600155565b60205415611c98576020546140928264e8d4a510006156d5565b61409c91906156ec565b602160008282546140ad9190615721565b909155505050565b6000546001600160a01b031633146117855760405162461bcd60e51b815260206004820181905260248201527f4f776e61626c653a2063616c6c6572206973206e6f7420746865206f776e65726044820152606401610ff0565b604080516060810180835260035463b629640b60e01b909152915160009282916001600160a01b039091169063b629640b906064808501916020918187030181865afa158015614163573d6000803e3d6000fd5b505050506040513d601f19601f8201168201806040525081019061418791906156a6565b81526003546040805163193491b560e01b815290516020938401936001600160a01b039093169263193491b592600480820193918290030181865afa1580156141d4573d6000803e3d6000fd5b505050506040513d601f19601f820116820180604052508101906141f891906156a6565b81526003546040805163d15dfe2d60e01b815290516020938401936001600160a01b039093169263d15dfe2d92600480820193918290030181865afa158015614245573d6000803e3d6000fd5b505050506040513d601f19601f8201168201806040525081019061426991906156a6565b815250905060006040518060600160405280600360009054906101000a90046001600160a01b03166001600160a01b031663bc1e40236040518163ffffffff1660e01b8152600401602060405180830381865afa1580156142ce573d6000803e3d6000fd5b505050506040513d601f19601f820116820180604052508101906142f291906156a6565b8152600354604080516320083b8960e01b815290516020938401936001600160a01b03909316926320083b8992600480820193918290030181865afa15801561433f573d6000803e3d6000fd5b505050506040513d601f19601f8201168201806040525081019061436391906156a6565b815260035460408051633c07aac960e21b815290516020938401936001600160a01b039093169263f01eab2492600480820193918290030181865afa1580156143b0573d6000803e3d6000fd5b505050506040513d601f19601f820116820180604052508101906143d491906156a6565b90529050600f60005b60038110156144a15760008482600381106143fa576143fa615798565b6020020151111561448f5760008284836003811061441a5761441a615798565b602002015161442990886156d5565b61443391906156ec565b905084826003811061444757614447615798565b602002015161445b8264e8d4a510006156d5565b61446591906156ec565b6032836003811061447857614478615798565b0160008282546144889190615721565b9091555050505b80614499816157ae565b9150506143dd565b5050505050565b60285480156113a757806144c18364e8d4a510006156d5565b6144cb91906156ec565b602b60008282546144dc9190615721565b90915550505050565b60006144f26008836156ec565b905060005b600881101561191d5760006036826008811061451557614515615798565b01541115614574576036816008811061453057614530615798565b01546145418364e8d4a510006156d5565b61454b91906156ec565b603e826008811061455e5761455e615798565b01600082825461456e9190615721565b90915550505b8061457e816157ae565b9150506144f7565b60006119cc836001600160a01b038416614f63565b6001600160a01b038082166000908152601d6020526040812054909116815b6001600160a01b038216158015906145d25750606481105b15614635576001600160a01b0382166000908152601d602052604090206007015460ff1615614605575060019392505050565b6001600160a01b039182166000908152601d6020526040902054909116908061462d816157ae565b9150506145ba565b5060009392505050565b600080546001600160a01b038381166001600160a01b0319831681178455604051919092169283917f8be0079c531659141344cd1fd0a4f28419497f9722a3daafe3b4186f6b6457e09190a35050565b6000818152602660209081526040808320546001600160a01b03861684526023835281842085855290925282205464e8d4a51000916146cd916156d5565b6146d791906156ec565b9050801561191d576005546000906146f783670de0b6b3a76400006156d5565b61470191906156ec565b6002546040516340c10f1960e01b81529192506001600160a01b0316906340c10f19906147349087908590600401615734565b600060405180830381600087803b15801561474e57600080fd5b505af1158015614762573d6000803e3d6000fd5b5050505050505050565b815b6001600160a01b0381161561191d576001600160a01b0381166000908152601d6020526040812060040180548492906147a8908490615721565b90915550506001600160a01b039081166000908152601d60205260409020541661476e565b600060646147dc83601e6156d5565b6147e691906156ec565b9050600060646147f784600f6156d5565b61480191906156ec565b90506000606461481285601e6156d5565b61481c91906156ec565b90506000606461482d86600a6156d5565b61483791906156ec565b9050600060646148488760076156d5565b61485291906156ec565b9050600060646148638860086156d5565b61486d91906156ec565b6001600160a01b03808a166000908152601d6020526040902054919250168015614952576001600160a01b0381166000908152602c602052604090205460ff16614909576001600160a01b0381166000908152601d60205260409020600501548711614904576001600160a01b0381166000908152601d6020526040812060050180548992906148fe90849061570e565b90915550505b614921565b866030600082825461491b9190615721565b90915550505b6001600160a01b0381166000908152601d60205260408120600601805489929061494c908490615721565b90915550505b61495c8987614fb2565b614966898661515d565b61497089856152ae565b82602f60008282546149829190615721565b92505081905550816030600082825461499b9190615721565b9091555050505050505050505050565b6001600160a01b038082166000908152601d6020526040812054909116905b6001600160a01b038216158015906149e25750606481105b1561191d576001600160a01b0382166000908152601d602052604090206007015460ff1615614a1457614a1482614e45565b6001600160a01b039182166000908152601d60205260409020549091169080614a3c816157ae565b9150506149ca565b6001600160a01b0381166000908152601d60205260408120908080614a6b60098501615407565b905060005b8151811015614aeb576000601d6000848481518110614a9157614a91615798565b60200260200101516001600160a01b03166001600160a01b0316815260200190815260200160002060040154905084811115614acb578094505b614ad58185615721565b9350508080614ae3906157ae565b915050614a70565b506000614af8848461570e565b9050600069043c33c19375648000008210614b1557506006614b8a565b69014542ba12a337c000008210614b2e57506005614b8a565b686c6b935b8bbd4000008210614b4657506004614b8a565b682086ac3510526000008210614b5e57506003614b8a565b680ad78ebc5ac62000008210614b7657506002614b8a565b68056bc75e2d631000008210614b8a575060015b600286015460ff9081169082161115614bde5760028601805460ff191660ff83169081179091556040519081526001600160a01b038816906000805160206158988339815191529060200160405180910390a25b50505050505050565b6001600160a01b0381166000908152601d6020526040812090614c0983615414565b90506000805b60088160ff161015614c625760158160ff1660088110614c3157614c31615798565b01548310614c4b57614c44816001615848565b9150614c50565b614c62565b80614c5a81615861565b915050614c0f565b50600283015460ff8281166101009092041614614d68576002830154610100900460ff1615614ccf576002830154603690614ca790600190610100900460ff1661582f565b60ff1660088110614cba57614cba615798565b018054906000614cc983615880565b91905055505b60ff811615614d0d576036614ce560018361582f565b60ff1660088110614cf857614cf8615798565b018054906000614d07836157ae565b91905055505b60028301805461ff00191661010060ff8416908102919091179091556040519081526001600160a01b038516907feb7fc1b9c3df6b1bb3224f0a7f56e441755a790378c499a7584d55a4b70400149060200160405180910390a25b50505050565b6001600160a01b03811660009081526029602052604090205460ff16614d915750565b6001600160a01b0381166000908152601d60205260409020600381015469010f0cf064dd5920000090811115614dc657505050565b60285460009060141015614de457690a968163f0a57b400000614df0565b69065a4da25d3016c000005b69ffffffffffffffffffff1690508083600601541015614e105750505050565b64e8d4a51000602b54614e2391906156ec565b6001600160a01b039094166000908152602a6020526040902093909355505050565b6001600160a01b0381166000908152601d602052604081208190614e6b90600901615407565b905060005b8151811015614ee3576000601d6000848481518110614e9157614e91615798565b60200260200101516001600160a01b03166001600160a01b03168152602001908152602001600020600301541115614ed15782614ecd816157ae565b9350505b80614edb816157ae565b915050614e70565b506001600160a01b0383166000908152601d6020526040902060080154821461191d576001600160a01b0383166000818152601d602052604090819020600801849055517fb174c8e48c6b6e41c2436616412f05632a54e0fd2d4ff6dcea1b83e6dd2af38390614f569085815260200190565b60405180910390a2505050565b6000818152600183016020526040812054614faa575081546001818101845560008481526020808220909301849055845484825282860190935260409020919091556117d3565b5060006117d3565b6000614fbf600f836156ec565b6001600160a01b038085166000908152601d60205260409020549192501660015b6001600160a01b03821615801590614ff95750600f8111155b1561512b57600061500983612422565b50506001600160a01b0384166000908152601d6020526040812060010154919250906150369060036156d5565b9050600f8111156150455750600f5b8083111580156150525750815b156150e1576001600160a01b0384166000908152602c602052604090205460ff166150cf576001600160a01b0384166000908152601d602052604090206005015485116150ca576001600160a01b0384166000908152601d6020526040812060050180548792906150c490849061570e565b90915550505b6150f9565b84602f60008282546150c49190615721565b84602f60008282546150f39190615721565b90915550505b6001600160a01b039384166000908152601d60205260409020549093169282615121816157ae565b9350505050614fe0565b600f81116144a15782602f60008282546151459190615721565b90915550819050615155816157ae565b91505061512b565b6001600160a01b038083166000908152601d6020526040812054909116905b6001600160a01b03821615614d68576001600160a01b0382166000908152601d602052604081206002015460ff1690600e82600781106151be576151be615798565b01549050828111156152895760006151d6848361570e565b90506000601e6151e683896156d5565b6151f091906156ec565b6001600160a01b0387166000908152602c602052604090205490915060ff1661526b576001600160a01b0386166000908152601d60205260409020600501548111615266576001600160a01b0386166000908152601d60205260408120600501805483929061526090849061570e565b90915550505b615283565b806030600082825461527d9190615721565b90915550505b82945050505b50506001600160a01b039182166000908152601d60205260409020549091169061517c565b6001600160a01b038083166000908152601d6020526040812054909116905b6001600160a01b03821615614d68576001600160a01b0382166000908152601d602052604081206002015460ff16906006821061530c5750600a61531b565b60038260ff161061531b575060055b828111156153e257600061532f848361570e565b90506000600a61533f83896156d5565b61534991906156ec565b6001600160a01b0387166000908152602c602052604090205490915060ff166153c4576001600160a01b0386166000908152601d602052604090206005015481116153bf576001600160a01b0386166000908152601d6020526040812060050180548392906153b990849061570e565b90915550505b6153dc565b80603060008282546153d69190615721565b90915550505b82945050505b50506001600160a01b039182166000908152601d6020526040902054909116906152cd565b606060006119cc836154bd565b6001600160a01b0381166000908152601d602052604081208190819061543c90600901615407565b905060005b81518110156154b4576000601d600084848151811061546257615462615798565b60200260200101516001600160a01b03166001600160a01b031681526020019081526020016000206003015411156154a2578261549e816157ae565b9350505b806154ac816157ae565b915050615441565b50909392505050565b60608160000180548060200260200160405190810160405280929190818152602001828054801561550d57602002820191906000526020600020905b8154815260200190600101908083116154f9575b50505050509050919050565b6000806040838503121561552c57600080fd5b50508035926020909101359150565b80356001600160a01b038116811461555257600080fd5b919050565b60006020828403121561556957600080fd5b6119cc8261553b565b6000806040838503121561558557600080fd5b61558e8361553b565b946020939093013593505050565b600080602083850312156155af57600080fd5b823567ffffffffffffffff808211156155c757600080fd5b818501915085601f8301126155db57600080fd5b8135818111156155ea57600080fd5b8660208260051b85010111156155ff57600080fd5b60209290920196919550909350505050565b60006020828403121561562357600080fd5b5035919050565b6020808252825182820181905260009190848201906040850190845b8181101561566b5783516001600160a01b031683529284019291840191600101615646565b50909695505050505050565b6020808252601590820152741859191c995cdcc81a5cc81c995cdd1c9a58dd1959605a1b604082015260600190565b6000602082840312156156b857600080fd5b5051919050565b634e487b7160e01b600052601160045260246000fd5b80820281158282048414176117d3576117d36156bf565b60008261570957634e487b7160e01b600052601260045260246000fd5b500490565b818103818111156117d3576117d36156bf565b808201808211156117d3576117d36156bf565b6001600160a01b03929092168252602082015260400190565b60006020828403121561575f57600080fd5b815180151581146119cc57600080fd5b6020808252600f908201526e696e76616c6964206164647265737360881b604082015260600190565b634e487b7160e01b600052603260045260246000fd5b6000600182016157c0576157c06156bf565b5060010190565b634e487b7160e01b600052603160045260246000fd5b602080825260149082015273696e73756666696369656e742062616c616e636560601b604082015260600190565b6020808252600a90820152696e6f2070656e64696e6760b01b604082015260600190565b60ff82811682821603908111156117d3576117d36156bf565b60ff81811683821601908111156117d3576117d36156bf565b600060ff821660ff8103615877576158776156bf565b60010192915050565b60008161588f5761588f6156bf565b50600019019056fea49b8576e012f713baa7dceadb7d709aaec8773b498ecfe582d8b9c0c8fd074fa2646970667358221220f0d26e98e89bcb161833fb29d40d51aa316178389e2a88c9699a78b9a28ae21864736f6c6343000811003360806040523480156200001157600080fd5b50604051806040016040528060088152602001672228902a37b5b2b760c11b81525060405180604001604052806002815260200161445160f01b81525081600390816200005f919062000205565b5060046200006e828262000205565b50505062000090306c01431e0fae6d7217caa00000006200009660201b60201c565b620002f9565b6001600160a01b038216620000f15760405162461bcd60e51b815260206004820152601f60248201527f45524332303a206d696e7420746f20746865207a65726f206164647265737300604482015260640160405180910390fd5b8060026000828254620001059190620002d1565b90915550506001600160a01b038216600081815260208181526040808320805486019055518481527fddf252ad1be2c89b69c2b068fc378daa952ba7f163c4a11628f55a4df523b3ef910160405180910390a35050565b505050565b634e487b7160e01b600052604160045260246000fd5b600181811c908216806200018c57607f821691505b602082108103620001ad57634e487b7160e01b600052602260045260246000fd5b50919050565b601f8211156200015c57600081815260208120601f850160051c81016020861015620001dc5750805b601f850160051c820191505b81811015620001fd57828155600101620001e8565b505050505050565b81516001600160401b0381111562000221576200022162000161565b620002398162000232845462000177565b84620001b3565b602080601f831160018114620002715760008415620002585750858301515b600019600386901b1c1916600185901b178555620001fd565b600085815260208120601f198616915b82811015620002a25788860151825594840194600190910190840162000281565b5085821015620002c15787850151600019600388901b60f8161c191681555b5050505050600190811b01905550565b80820180821115620002f357634e487b7160e01b600052601160045260246000fd5b92915050565b610b2580620003096000396000f3fe608060405234801561001057600080fd5b50600436106100f55760003560e01c806340c10f1911610097578063a457c2d711610066578063a457c2d7146101fc578063a9059cbb1461020f578063dd11071214610222578063dd62ed3e1461023557600080fd5b806340c10f19146101a357806342966c68146101b857806370a08231146101cb57806395d89b41146101f457600080fd5b80631cd3a4ac116100d35780631cd3a4ac1461014d57806323b872dd1461016e578063313ce56714610181578063395093511461019057600080fd5b806306fdde03146100fa578063095ea7b31461011857806318160ddd1461013b575b600080fd5b610102610248565b60405161010f9190610956565b60405180910390f35b61012b6101263660046109c0565b6102da565b604051901515815260200161010f565b6002545b60405190815260200161010f565b61015661dead81565b6040516001600160a01b03909116815260200161010f565b61012b61017c3660046109ea565b6102f4565b6040516012815260200161010f565b61012b61019e3660046109c0565b610318565b6101b66101b13660046109c0565b61033a565b005b6101b66101c6366004610a26565b610348565b61013f6101d9366004610a3f565b6001600160a01b031660009081526020819052604090205490565b610102610355565b61012b61020a3660046109c0565b610364565b61012b61021d3660046109c0565b6103e4565b6101b6610230366004610a26565b6103f2565b61013f610243366004610a61565b6103ff565b60606003805461025790610a94565b80601f016020809104026020016040519081016040528092919081815260200182805461028390610a94565b80156102d05780601f106102a5576101008083540402835291602001916102d0565b820191906000526020600020905b8154815290600101906020018083116102b357829003601f168201915b5050505050905090565b6000336102e881858561042a565b60019150505b92915050565b60003361030285828561054f565b61030d8585856105c9565b506001949350505050565b6000336102e881858561032b83836103ff565b6103359190610ace565b61042a565b610344828261076d565b5050565b610352338261082c565b50565b60606004805461025790610a94565b6000338161037282866103ff565b9050838110156103d75760405162461bcd60e51b815260206004820152602560248201527f45524332303a2064656372656173656420616c6c6f77616e63652062656c6f77604482015264207a65726f60d81b60648201526084015b60405180910390fd5b61030d828686840361042a565b6000336102e88185856105c9565b6103523361dead836105c9565b6001600160a01b03918216600090815260016020908152604080832093909416825291909152205490565b6001600160a01b03831661048c5760405162461bcd60e51b8152602060048201526024808201527f45524332303a20617070726f76652066726f6d20746865207a65726f206164646044820152637265737360e01b60648201526084016103ce565b6001600160a01b0382166104ed5760405162461bcd60e51b815260206004820152602260248201527f45524332303a20617070726f766520746f20746865207a65726f206164647265604482015261737360f01b60648201526084016103ce565b6001600160a01b0383811660008181526001602090815260408083209487168084529482529182902085905590518481527f8c5be1e5ebec7d5bd14f71427d1e84f3dd0314c0f7b2291e5b200ac8c7c3b92591015b60405180910390a3505050565b600061055b84846103ff565b905060001981146105c357818110156105b65760405162461bcd60e51b815260206004820152601d60248201527f45524332303a20696e73756666696369656e7420616c6c6f77616e636500000060448201526064016103ce565b6105c3848484840361042a565b50505050565b6001600160a01b03831661062d5760405162461bcd60e51b815260206004820152602560248201527f45524332303a207472616e736665722066726f6d20746865207a65726f206164604482015264647265737360d81b60648201526084016103ce565b6001600160a01b03821661068f5760405162461bcd60e51b815260206004820152602360248201527f45524332303a207472616e7366657220746f20746865207a65726f206164647260448201526265737360e81b60648201526084016103ce565b6001600160a01b038316600090815260208190526040902054818110156107075760405162461bcd60e51b815260206004820152602660248201527f45524332303a207472616e7366657220616d6f756e7420657863656564732062604482015265616c616e636560d01b60648201526084016103ce565b6001600160a01b03848116600081815260208181526040808320878703905593871680835291849020805487019055925185815290927fddf252ad1be2c89b69c2b068fc378daa952ba7f163c4a11628f55a4df523b3ef910160405180910390a36105c3565b6001600160a01b0382166107c35760405162461bcd60e51b815260206004820152601f60248201527f45524332303a206d696e7420746f20746865207a65726f20616464726573730060448201526064016103ce565b80600260008282546107d59190610ace565b90915550506001600160a01b038216600081815260208181526040808320805486019055518481527fddf252ad1be2c89b69c2b068fc378daa952ba7f163c4a11628f55a4df523b3ef910160405180910390a35050565b6001600160a01b03821661088c5760405162461bcd60e51b815260206004820152602160248201527f45524332303a206275726e2066726f6d20746865207a65726f206164647265736044820152607360f81b60648201526084016103ce565b6001600160a01b038216600090815260208190526040902054818110156109005760405162461bcd60e51b815260206004820152602260248201527f45524332303a206275726e20616d6f756e7420657863656564732062616c616e604482015261636560f01b60648201526084016103ce565b6001600160a01b0383166000818152602081815260408083208686039055600280548790039055518581529192917fddf252ad1be2c89b69c2b068fc378daa952ba7f163c4a11628f55a4df523b3ef9101610542565b600060208083528351808285015260005b8181101561098357858101830151858201604001528201610967565b506000604082860101526040601f19601f8301168501019250505092915050565b80356001600160a01b03811681146109bb57600080fd5b919050565b600080604083850312156109d357600080fd5b6109dc836109a4565b946020939093013593505050565b6000806000606084860312156109ff57600080fd5b610a08846109a4565b9250610a16602085016109a4565b9150604084013590509250925092565b600060208284031215610a3857600080fd5b5035919050565b600060208284031215610a5157600080fd5b610a5a826109a4565b9392505050565b60008060408385031215610a7457600080fd5b610a7d836109a4565b9150610a8b602084016109a4565b90509250929050565b600181811c90821680610aa857607f821691505b602082108103610ac857634e487b7160e01b600052602260045260246000fd5b50919050565b808201808211156102ee57634e487b7160e01b600052601160045260246000fdfea264697066735822122061b28fdf0f93be32e839824f41b660038dfeb3bc4094211fe87a7e9071a872ff64736f6c6343000811003360806040523480156200001157600080fd5b506040518060400160405280600781526020016611144810d85c9960ca1b8152506040518060400160405280600381526020016244514360e81b81525081600090816200005f91906200018c565b5060016200006e82826200018c565b5050506200008b620000856200009160201b60201c565b62000095565b62000258565b3390565b600a80546001600160a01b038381166001600160a01b0319831681179093556040519116919082907f8be0079c531659141344cd1fd0a4f28419497f9722a3daafe3b4186f6b6457e090600090a35050565b634e487b7160e01b600052604160045260246000fd5b600181811c908216806200011257607f821691505b6020821081036200013357634e487b7160e01b600052602260045260246000fd5b50919050565b601f8211156200018757600081815260208120601f850160051c81016020861015620001625750805b601f850160051c820191505b8181101562000183578281556001016200016e565b5050505b505050565b81516001600160401b03811115620001a857620001a8620000e7565b620001c081620001b98454620000fd565b8462000139565b602080601f831160018114620001f85760008415620001df5750858301515b600019600386901b1c1916600185901b17855562000183565b600085815260208120601f198616915b82811015620002295788860151825594840194600190910190840162000208565b5085821015620002485787850151600019600388901b60f8161c191681555b5050505050600190811b01905550565b611ff880620002686000396000f3fe608060405234801561001057600080fd5b506004361061025e5760003560e01c806370a0823111610146578063b629640b116100c3578063d15dfe2d11610087578063d15dfe2d1461049b578063e985e9c5146104a4578063f01eab24146104e0578063f26841bd146104e8578063f2fde38b146104f0578063fcf49adf1461050357600080fd5b8063b629640b1461045c578063b88d4fde14610465578063bc1e402314610478578063bec6876514610480578063c87b56dd1461048857600080fd5b80638c53fa801161010a5780638c53fa801461040a5780638da5cb5b1461041d578063940e689d1461042e57806395d89b4114610441578063a22cb4651461044957600080fd5b806370a08231146103d5578063715018a6146103e857806373cda3e4146103f0578063800c33cd146103275780638485391a1461040157600080fd5b806320083b89116101df57806342842e0e116101a357806342842e0e146103715780634f6ccce71461038457806352b03c2f1461039757806353d794471461039f5780636352211e146103af5780636866537d146103c257600080fd5b806320083b891461032757806323b872dd1461032f5780632f745c59146103425780633542aee214610355578063396984151461036857600080fd5b806313eeea081161022657806313eeea08146102f657806315ad6f611461030657806318160ddd1461030e57806318a8ac7714610316578063193491b51461031e57600080fd5b806301ffc9a71461026357806306fdde031461028b578063081812fc146102a0578063095ea7b3146102cb57806310dcf285146102e0575b600080fd5b610276610271366004611aae565b610523565b60405190151581526020015b60405180910390f35b61029361054e565b6040516102829190611b1b565b6102b36102ae366004611b2e565b6105e0565b6040516001600160a01b039091168152602001610282565b6102de6102d9366004611b63565b610607565b005b6102e8601481565b604051908152602001610282565b6102e8681b1ae4d6e2ef50000081565b6102e8600281565b6008546102e8565b6102e8600381565b6102e8600c5481565b6102e8600581565b6102de61033d366004611b8d565b610721565b6102e8610350366004611b63565b610752565b6102de610363366004611b63565b6107e8565b6102e86103e881565b6102de61037f366004611b8d565b6107fe565b6102e8610392366004611b2e565b610819565b6102e8600181565b6102e8685150ae84a8cdf0000081565b6102b36103bd366004611b2e565b6108ac565b6102e86103d0366004611b2e565b61090c565b6102e86103e3366004611bc9565b61094f565b6102de6109d5565b6102e869010f0cf064dd5920000081565b6102e86101f481565b6102e8610418366004611b2e565b6109e9565b600a546001600160a01b03166102b3565b6102e861043c366004611b2e565b610a13565b610293610a3d565b6102de610457366004611be4565b610a4c565b6102e8600b5481565b6102de610473366004611c36565b610a57565b6102e8600481565b6102e8600a81565b610293610496366004611b2e565b610a8f565b6102e8600d5481565b6102766104b2366004611d12565b6001600160a01b03918216600090815260056020908152604080832093909416825291909152205460ff1690565b6102e8600681565b6102e8606481565b6102de6104fe366004611bc9565b610b03565b6102e8610511366004611b2e565b600e6020526000908152604090205481565b60006001600160e01b0319821663780e9d6360e01b1480610548575061054882610b7c565b92915050565b60606000805461055d90611d45565b80601f016020809104026020016040519081016040528092919081815260200182805461058990611d45565b80156105d65780601f106105ab576101008083540402835291602001916105d6565b820191906000526020600020905b8154815290600101906020018083116105b957829003601f168201915b5050505050905090565b60006105eb82610bcc565b506000908152600460205260409020546001600160a01b031690565b6000610612826108ac565b9050806001600160a01b0316836001600160a01b0316036106845760405162461bcd60e51b815260206004820152602160248201527f4552433732313a20617070726f76616c20746f2063757272656e74206f776e656044820152603960f91b60648201526084015b60405180910390fd5b336001600160a01b03821614806106a057506106a081336104b2565b6107125760405162461bcd60e51b815260206004820152603d60248201527f4552433732313a20617070726f76652063616c6c6572206973206e6f7420746f60448201527f6b656e206f776e6572206f7220617070726f76656420666f7220616c6c000000606482015260840161067b565b61071c8383610c2b565b505050565b61072b3382610c99565b6107475760405162461bcd60e51b815260040161067b90611d7f565b61071c838383610d18565b600061075d8361094f565b82106107bf5760405162461bcd60e51b815260206004820152602b60248201527f455243373231456e756d657261626c653a206f776e657220696e646578206f7560448201526a74206f6620626f756e647360a81b606482015260840161067b565b506001600160a01b03919091166000908152600660209081526040808320938352929052205490565b6107f0610e89565b6107fa8282610ee3565b5050565b61071c83838360405180602001604052806000815250610a57565b600061082460085490565b82106108875760405162461bcd60e51b815260206004820152602c60248201527f455243373231456e756d657261626c653a20676c6f62616c20696e646578206f60448201526b7574206f6620626f756e647360a01b606482015260840161067b565b6008828154811061089a5761089a611dcc565b90600052602060002001549050919050565b6000818152600260205260408120546001600160a01b0316806105485760405162461bcd60e51b8152602060048201526018602482015277115490cdcc8c4e881a5b9d985b1a59081d1bdad95b88125160421b604482015260640161067b565b6000600182036109265750681b1ae4d6e2ef500000919050565b6002820361093e5750685150ae84a8cdf00000919050565b5069010f0cf064dd59200000919050565b60006001600160a01b0382166109b95760405162461bcd60e51b815260206004820152602960248201527f4552433732313a2061646472657373207a65726f206973206e6f7420612076616044820152683634b21037bbb732b960b91b606482015260840161067b565b506001600160a01b031660009081526003602052604090205490565b6109dd610e89565b6109e76000611092565b565b6000600182036109fb57506005919050565b60028203610a0b5750600a919050565b506014919050565b600060018203610a2557506004919050565b60028203610a3557506005919050565b506006919050565b60606001805461055d90611d45565b6107fa3383836110e4565b610a613383610c99565b610a7d5760405162461bcd60e51b815260040161067b90611d7f565b610a89848484846111b2565b50505050565b6060610a9a82610bcc565b6000610ab160408051602081019091526000815290565b90506000815111610ad15760405180602001604052806000815250610afc565b80610adb846111e5565b604051602001610aec929190611de2565b6040516020818303038152906040525b9392505050565b610b0b610e89565b6001600160a01b038116610b705760405162461bcd60e51b815260206004820152602660248201527f4f776e61626c653a206e6577206f776e657220697320746865207a65726f206160448201526564647265737360d01b606482015260840161067b565b610b7981611092565b50565b60006001600160e01b031982166380ac58cd60e01b1480610bad57506001600160e01b03198216635b5e139f60e01b145b8061054857506301ffc9a760e01b6001600160e01b0319831614610548565b6000818152600260205260409020546001600160a01b0316610b795760405162461bcd60e51b8152602060048201526018602482015277115490cdcc8c4e881a5b9d985b1a59081d1bdad95b88125160421b604482015260640161067b565b600081815260046020526040902080546001600160a01b0319166001600160a01b0384169081179091558190610c60826108ac565b6001600160a01b03167f8c5be1e5ebec7d5bd14f71427d1e84f3dd0314c0f7b2291e5b200ac8c7c3b92560405160405180910390a45050565b600080610ca5836108ac565b9050806001600160a01b0316846001600160a01b03161480610cec57506001600160a01b0380821660009081526005602090815260408083209388168352929052205460ff165b80610d105750836001600160a01b0316610d05846105e0565b6001600160a01b0316145b949350505050565b826001600160a01b0316610d2b826108ac565b6001600160a01b031614610d515760405162461bcd60e51b815260040161067b90611e11565b6001600160a01b038216610db35760405162461bcd60e51b8152602060048201526024808201527f4552433732313a207472616e7366657220746f20746865207a65726f206164646044820152637265737360e01b606482015260840161067b565b610dc08383836001611278565b826001600160a01b0316610dd3826108ac565b6001600160a01b031614610df95760405162461bcd60e51b815260040161067b90611e11565b600081815260046020908152604080832080546001600160a01b03199081169091556001600160a01b0387811680865260038552838620805460001901905590871680865283862080546001019055868652600290945282852080549092168417909155905184937fddf252ad1be2c89b69c2b068fc378daa952ba7f163c4a11628f55a4df523b3ef91a4505050565b600a546001600160a01b031633146109e75760405162461bcd60e51b815260206004820181905260248201527f4f776e61626c653a2063616c6c6572206973206e6f7420746865206f776e6572604482015260640161067b565b60018110158015610ef5575060038111155b610f305760405162461bcd60e51b815260206004820152600c60248201526b696e76616c6964207479706560a01b604482015260640161067b565b60018103610f92576103e8600b5410610f785760405162461bcd60e51b815260206004820152600a60248201526910481cdbdb19081bdd5d60b21b604482015260640161067b565b600b8054906000610f8883611e6c565b919050555061103f565b60028103610fea576101f4600c5410610fda5760405162461bcd60e51b815260206004820152600a60248201526910881cdbdb19081bdd5d60b21b604482015260640161067b565b600c8054906000610f8883611e6c565b6064600d54106110295760405162461bcd60e51b815260206004820152600a60248201526910c81cdbdb19081bdd5d60b21b604482015260640161067b565b600d805490600061103983611e6c565b91905055505b600061104a60085490565b611055906001611e85565b90506110618382611310565b6000818152600e602090815260408083208590556001600160a01b0386168352600f9091529020610a89908261132a565b600a80546001600160a01b038381166001600160a01b0319831681179093556040519116919082907f8be0079c531659141344cd1fd0a4f28419497f9722a3daafe3b4186f6b6457e090600090a35050565b816001600160a01b0316836001600160a01b0316036111455760405162461bcd60e51b815260206004820152601960248201527f4552433732313a20617070726f766520746f2063616c6c657200000000000000604482015260640161067b565b6001600160a01b03838116600081815260056020908152604080832094871680845294825291829020805460ff191686151590811790915591519182527f17307eab39ab6107e8899845ad3d59bd9653f200f220920489ca2b5937696c31910160405180910390a3505050565b6111bd848484610d18565b6111c984848484611336565b610a895760405162461bcd60e51b815260040161067b90611e98565b606060006111f283611437565b600101905060008167ffffffffffffffff81111561121257611212611c20565b6040519080825280601f01601f19166020018201604052801561123c576020820181803683370190505b5090508181016020015b600019016f181899199a1a9b1b9c1cb0b131b232b360811b600a86061a8153600a850494508461124657509392505050565b6112848484848461150f565b60018111156112a55760405162461bcd60e51b815260040161067b90611eea565b6001600160a01b038416156112d8576001600160a01b0384166000908152600f602052604090206112d690836115ee565b505b6001600160a01b03831615610a89576001600160a01b0383166000908152600f60205260409020611309908361132a565b5050505050565b6107fa8282604051806020016040528060008152506115fa565b6000610afc838361162d565b60006001600160a01b0384163b1561142c57604051630a85bd0160e11b81526001600160a01b0385169063150b7a029061137a903390899088908890600401611f3f565b6020604051808303816000875af19250505080156113b5575060408051601f3d908101601f191682019092526113b291810190611f7c565b60015b611412573d8080156113e3576040519150601f19603f3d011682016040523d82523d6000602084013e6113e8565b606091505b50805160000361140a5760405162461bcd60e51b815260040161067b90611e98565b805181602001fd5b6001600160e01b031916630a85bd0160e11b149050610d10565b506001949350505050565b60008072184f03e93ff9f4daa797ed6e38ed64bf6a1f0160401b83106114765772184f03e93ff9f4daa797ed6e38ed64bf6a1f0160401b830492506040015b6d04ee2d6d415b85acef810000000083106114a2576d04ee2d6d415b85acef8100000000830492506020015b662386f26fc1000083106114c057662386f26fc10000830492506010015b6305f5e10083106114d8576305f5e100830492506008015b61271083106114ec57612710830492506004015b606483106114fe576064830492506002015b600a83106105485760010192915050565b60018111156115305760405162461bcd60e51b815260040161067b90611eea565b816001600160a01b03851661158c5761158781600880546000838152600960205260408120829055600182018355919091527ff3f7a9fe364faab93b216da50a3214154f22a0a2b415b23a84c8169e8b636ee30155565b6115af565b836001600160a01b0316856001600160a01b0316146115af576115af858261167c565b6001600160a01b0384166115cb576115c681611719565b611309565b846001600160a01b0316846001600160a01b0316146113095761130984826117c8565b6000610afc838361180c565b61160483836118ff565b6116116000848484611336565b61071c5760405162461bcd60e51b815260040161067b90611e98565b600081815260018301602052604081205461167457508154600181810184556000848152602080822090930184905584548482528286019093526040902091909155610548565b506000610548565b600060016116898461094f565b6116939190611f99565b6000838152600760205260409020549091508082146116e6576001600160a01b03841660009081526006602090815260408083208584528252808320548484528184208190558352600790915290208190555b5060009182526007602090815260408084208490556001600160a01b039094168352600681528383209183525290812055565b60085460009061172b90600190611f99565b6000838152600960205260408120546008805493945090928490811061175357611753611dcc565b90600052602060002001549050806008838154811061177457611774611dcc565b60009182526020808320909101929092558281526009909152604080822084905585825281205560088054806117ac576117ac611fac565b6001900381819060005260206000200160009055905550505050565b60006117d38361094f565b6001600160a01b039093166000908152600660209081526040808320868452825280832085905593825260079052919091209190915550565b600081815260018301602052604081205480156118f5576000611830600183611f99565b855490915060009061184490600190611f99565b90508181146118a957600086600001828154811061186457611864611dcc565b906000526020600020015490508087600001848154811061188757611887611dcc565b6000918252602080832090910192909255918252600188019052604090208390555b85548690806118ba576118ba611fac565b600190038181906000526020600020016000905590558560010160008681526020019081526020016000206000905560019350505050610548565b6000915050610548565b6001600160a01b0382166119555760405162461bcd60e51b815260206004820181905260248201527f4552433732313a206d696e7420746f20746865207a65726f2061646472657373604482015260640161067b565b6000818152600260205260409020546001600160a01b0316156119ba5760405162461bcd60e51b815260206004820152601c60248201527f4552433732313a20746f6b656e20616c7265616479206d696e74656400000000604482015260640161067b565b6119c8600083836001611278565b6000818152600260205260409020546001600160a01b031615611a2d5760405162461bcd60e51b815260206004820152601c60248201527f4552433732313a20746f6b656e20616c7265616479206d696e74656400000000604482015260640161067b565b6001600160a01b038216600081815260036020908152604080832080546001019055848352600290915280822080546001600160a01b0319168417905551839291907fddf252ad1be2c89b69c2b068fc378daa952ba7f163c4a11628f55a4df523b3ef908290a45050565b6001600160e01b031981168114610b7957600080fd5b600060208284031215611ac057600080fd5b8135610afc81611a98565b60005b83811015611ae6578181015183820152602001611ace565b50506000910152565b60008151808452611b07816020860160208601611acb565b601f01601f19169290920160200192915050565b602081526000610afc6020830184611aef565b600060208284031215611b4057600080fd5b5035919050565b80356001600160a01b0381168114611b5e57600080fd5b919050565b60008060408385031215611b7657600080fd5b611b7f83611b47565b946020939093013593505050565b600080600060608486031215611ba257600080fd5b611bab84611b47565b9250611bb960208501611b47565b9150604084013590509250925092565b600060208284031215611bdb57600080fd5b610afc82611b47565b60008060408385031215611bf757600080fd5b611c0083611b47565b915060208301358015158114611c1557600080fd5b809150509250929050565b634e487b7160e01b600052604160045260246000fd5b60008060008060808587031215611c4c57600080fd5b611c5585611b47565b9350611c6360208601611b47565b925060408501359150606085013567ffffffffffffffff80821115611c8757600080fd5b818701915087601f830112611c9b57600080fd5b813581811115611cad57611cad611c20565b604051601f8201601f19908116603f01168101908382118183101715611cd557611cd5611c20565b816040528281528a6020848701011115611cee57600080fd5b82602086016020830137600060208483010152809550505050505092959194509250565b60008060408385031215611d2557600080fd5b611d2e83611b47565b9150611d3c60208401611b47565b90509250929050565b600181811c90821680611d5957607f821691505b602082108103611d7957634e487b7160e01b600052602260045260246000fd5b50919050565b6020808252602d908201527f4552433732313a2063616c6c6572206973206e6f7420746f6b656e206f776e6560408201526c1c881bdc88185c1c1c9bdd9959609a1b606082015260800190565b634e487b7160e01b600052603260045260246000fd5b60008351611df4818460208801611acb565b835190830190611e08818360208801611acb565b01949350505050565b60208082526025908201527f4552433732313a207472616e736665722066726f6d20696e636f72726563742060408201526437bbb732b960d91b606082015260800190565b634e487b7160e01b600052601160045260246000fd5b600060018201611e7e57611e7e611e56565b5060010190565b8082018082111561054857610548611e56565b60208082526032908201527f4552433732313a207472616e7366657220746f206e6f6e20455243373231526560408201527131b2b4bb32b91034b6b83632b6b2b73a32b960711b606082015260800190565b60208082526035908201527f455243373231456e756d657261626c653a20636f6e7365637574697665207472604082015274185b9cd9995c9cc81b9bdd081cdd5c1c1bdc9d1959605a1b606082015260800190565b6001600160a01b0385811682528416602082015260408101839052608060608201819052600090611f7290830184611aef565b9695505050505050565b600060208284031215611f8e57600080fd5b8151610afc81611a98565b8181038181111561054857610548611e56565b634e487b7160e01b600052603160045260246000fdfea2646970667358221220f4acf8b608d29c0861471a3fca12e40e16e1f77d7f37cbe174ecfda582ffb9d664736f6c63430008110033","opcodes":"PUSH8 0xDE0B6B3A7640000 PUSH1 0x5 SWAP1 DUP2 SSTORE PUSH1 0xD PUSH1 0x6 SSTORE PUSH1 0x50 PUSH1 0x7 SWAP1 DUP2 SSTORE PUSH8 0x8AC7230489E80000 PUSH1 0x8 DUP2 SWAP1 SSTORE PUSH1 0x9 SSTORE PUSH9 0xAD78EBC5AC6200000 PUSH1 0xA SWAP1 DUP2 SSTORE PUSH3 0x13C680 PUSH1 0xB SSTORE PUSH2 0x160 PUSH1 0x40 MSTORE PUSH1 0x0 PUSH1 0x80 SWAP1 DUP2 MSTORE PUSH1 0xA0 SWAP4 SWAP1 SWAP4 MSTORE PUSH1 0xC0 MSTORE PUSH1 0xF PUSH1 0xE0 MSTORE PUSH1 0x14 PUSH2 0x100 MSTORE PUSH1 0x19 PUSH2 0x120 MSTORE PUSH1 0x1E PUSH2 0x140 MSTORE PUSH3 0x7B SWAP2 PUSH1 0xE SWAP2 PUSH3 0x398 JUMP JUMPDEST POP PUSH1 0x40 DUP1 MLOAD PUSH2 0x100 DUP2 ADD DUP3 MSTORE PUSH1 0x1E DUP2 MSTORE PUSH1 0x78 PUSH1 0x20 DUP3 ADD MSTORE PUSH2 0x168 SWAP2 DUP2 ADD SWAP2 SWAP1 SWAP2 MSTORE PUSH2 0x3E8 PUSH1 0x60 DUP3 ADD MSTORE PUSH2 0xFA0 PUSH1 0x80 DUP3 ADD MSTORE PUSH2 0x2710 PUSH1 0xA0 DUP3 ADD MSTORE PUSH2 0x3A98 PUSH1 0xC0 DUP3 ADD MSTORE PUSH2 0x7530 PUSH1 0xE0 DUP3 ADD MSTORE PUSH3 0xD4 SWAP1 PUSH1 0x15 SWAP1 PUSH1 0x8 PUSH3 0x3E0 JUMP JUMPDEST POP PUSH1 0x40 DUP1 MLOAD PUSH1 0x80 DUP2 ADD DUP3 MSTORE PUSH1 0x1E DUP2 MSTORE PUSH1 0x5A PUSH1 0x20 DUP3 ADD MSTORE PUSH1 0xB4 SWAP2 DUP2 ADD SWAP2 SWAP1 SWAP2 MSTORE PUSH2 0x168 PUSH1 0x60 DUP3 ADD MSTORE PUSH3 0x10B SWAP1 PUSH1 0x24 SWAP1 PUSH1 0x4 PUSH3 0x417 JUMP JUMPDEST POP PUSH1 0x40 DUP1 MLOAD PUSH1 0x80 DUP2 ADD DUP3 MSTORE PUSH1 0x5 DUP2 MSTORE PUSH1 0xA PUSH1 0x20 DUP3 ADD MSTORE PUSH1 0xF SWAP2 DUP2 ADD SWAP2 SWAP1 SWAP2 MSTORE PUSH1 0x14 PUSH1 0x60 DUP3 ADD MSTORE PUSH3 0x141 SWAP1 PUSH1 0x25 SWAP1 PUSH1 0x4 PUSH3 0x45A JUMP JUMPDEST POP CALLVALUE DUP1 ISZERO PUSH3 0x14F JUMPI PUSH1 0x0 DUP1 REVERT JUMPDEST POP PUSH1 0x40 MLOAD PUSH3 0x8E8C CODESIZE SUB DUP1 PUSH3 0x8E8C DUP4 CODECOPY DUP2 ADD PUSH1 0x40 DUP2 SWAP1 MSTORE PUSH3 0x172 SWAP2 PUSH3 0x4CF JUMP JUMPDEST PUSH3 0x17D CALLER PUSH3 0x348 JUMP JUMPDEST PUSH1 0x1 DUP1 SSTORE PUSH1 0x40 MLOAD PUSH3 0x18F SWAP1 PUSH3 0x49C JUMP JUMPDEST PUSH1 0x40 MLOAD DUP1 SWAP2 SUB SWAP1 PUSH1 0x0 CREATE DUP1 ISZERO DUP1 ISZERO PUSH3 0x1AC JUMPI RETURNDATASIZE PUSH1 0x0 DUP1 RETURNDATACOPY RETURNDATASIZE PUSH1 0x0 REVERT JUMPDEST POP PUSH1 0x2 DUP1 SLOAD PUSH1 0x1 PUSH1 0x1 PUSH1 0xA0 SHL SUB NOT AND PUSH1 0x1 PUSH1 0x1 PUSH1 0xA0 SHL SUB SWAP3 SWAP1 SWAP3 AND SWAP2 SWAP1 SWAP2 OR SWAP1 SSTORE PUSH1 0x40 MLOAD PUSH3 0x1DB SWAP1 PUSH3 0x4AA JUMP JUMPDEST PUSH1 0x40 MLOAD DUP1 SWAP2 SUB SWAP1 PUSH1 0x0 CREATE DUP1 ISZERO DUP1 ISZERO PUSH3 0x1F8 JUMPI RETURNDATASIZE PUSH1 0x0 DUP1 RETURNDATACOPY RETURNDATASIZE PUSH1 0x0 REVERT JUMPDEST POP PUSH1 0x3 DUP1 SLOAD PUSH1 0x1 PUSH1 0x1 PUSH1 0xA0 SHL SUB NOT SWAP1 DUP2 AND PUSH1 0x1 PUSH1 0x1 PUSH1 0xA0 SHL SUB SWAP4 DUP5 AND OR SWAP1 SWAP2 SSTORE PUSH1 0x4 DUP1 SLOAD SWAP1 SWAP2 AND SWAP2 DUP4 AND SWAP2 SWAP1 SWAP2 OR SWAP1 SSTORE TIMESTAMP PUSH1 0xC DUP2 SWAP1 SSTORE PUSH1 0xD SSTORE PUSH1 0x0 PUSH1 0x1D DUP2 PUSH3 0x249 PUSH1 0x0 SLOAD PUSH1 0x1 PUSH1 0x1 PUSH1 0xA0 SHL SUB AND SWAP1 JUMP JUMPDEST PUSH1 0x1 PUSH1 0x1 PUSH1 0xA0 SHL SUB SWAP1 DUP2 AND DUP3 MSTORE PUSH1 0x20 DUP3 ADD SWAP3 SWAP1 SWAP3 MSTORE PUSH1 0x40 ADD PUSH1 0x0 SWAP1 DUP2 KECCAK256 DUP1 SLOAD PUSH1 0x1 PUSH1 0x1 PUSH1 0xA0 SHL SUB NOT AND SWAP4 SWAP1 SWAP3 AND SWAP3 SWAP1 SWAP3 OR SWAP1 SSTORE PUSH1 0x1 SWAP1 PUSH1 0x1D SWAP1 PUSH3 0x295 PUSH1 0x0 SLOAD PUSH1 0x1 PUSH1 0x1 PUSH1 0xA0 SHL SUB AND SWAP1 JUMP JUMPDEST PUSH1 0x1 PUSH1 0x1 PUSH1 0xA0 SHL SUB AND DUP2 MSTORE PUSH1 0x20 DUP2 ADD SWAP2 SWAP1 SWAP2 MSTORE PUSH1 0x40 ADD PUSH1 0x0 SWAP1 DUP2 KECCAK256 PUSH1 0x7 ADD DUP1 SLOAD PUSH1 0xFF NOT AND SWAP3 ISZERO ISZERO SWAP3 SWAP1 SWAP3 OR SWAP1 SWAP2 SSTORE PUSH1 0x0 NOT SWAP1 PUSH1 0x1D SWAP1 PUSH3 0x2DD PUSH1 0x0 SLOAD PUSH1 0x1 PUSH1 0x1 PUSH1 0xA0 SHL SUB AND SWAP1 JUMP JUMPDEST PUSH1 0x1 PUSH1 0x1 PUSH1 0xA0 SHL SUB AND DUP2 MSTORE PUSH1 0x20 DUP2 ADD SWAP2 SWAP1 SWAP2 MSTORE PUSH1 0x40 ADD PUSH1 0x0 KECCAK256 PUSH1 0x8 ADD SSTORE PUSH1 0x1E PUSH3 0x30F PUSH1 0x0 SLOAD PUSH1 0x1 PUSH1 0x1 PUSH1 0xA0 SHL SUB AND SWAP1 JUMP JUMPDEST DUP2 SLOAD PUSH1 0x1 DUP2 ADD DUP4 SSTORE PUSH1 0x0 SWAP3 DUP4 MSTORE PUSH1 0x20 SWAP1 SWAP3 KECCAK256 SWAP1 SWAP2 ADD DUP1 SLOAD PUSH1 0x1 PUSH1 0x1 PUSH1 0xA0 SHL SUB NOT AND PUSH1 0x1 PUSH1 0x1 PUSH1 0xA0 SHL SUB SWAP1 SWAP3 AND SWAP2 SWAP1 SWAP2 OR SWAP1 SSTORE POP PUSH3 0x501 JUMP JUMPDEST PUSH1 0x0 DUP1 SLOAD PUSH1 0x1 PUSH1 0x1 PUSH1 0xA0 SHL SUB DUP4 DUP2 AND PUSH1 0x1 PUSH1 0x1 PUSH1 0xA0 SHL SUB NOT DUP4 AND DUP2 OR DUP5 SSTORE PUSH1 0x40 MLOAD SWAP2 SWAP1 SWAP3 AND SWAP3 DUP4 SWAP2 PUSH32 0x8BE0079C531659141344CD1FD0A4F28419497F9722A3DAAFE3B4186F6B6457E0 SWAP2 SWAP1 LOG3 POP POP JUMP JUMPDEST DUP3 PUSH1 0x7 DUP2 ADD SWAP3 DUP3 ISZERO PUSH3 0x3CE JUMPI SWAP2 PUSH1 0x20 MUL DUP3 ADD JUMPDEST DUP3 DUP2 GT ISZERO PUSH3 0x3CE JUMPI DUP3 MLOAD DUP3 SWAP1 PUSH1 0xFF AND SWAP1 SSTORE SWAP2 PUSH1 0x20 ADD SWAP2 SWAP1 PUSH1 0x1 ADD SWAP1 PUSH3 0x3AC JUMP JUMPDEST POP PUSH3 0x3DC SWAP3 SWAP2 POP PUSH3 0x4B8 JUMP JUMPDEST POP SWAP1 JUMP JUMPDEST DUP3 PUSH1 0x8 DUP2 ADD SWAP3 DUP3 ISZERO PUSH3 0x3CE JUMPI SWAP2 PUSH1 0x20 MUL DUP3 ADD JUMPDEST DUP3 DUP2 GT ISZERO PUSH3 0x3CE JUMPI DUP3 MLOAD DUP3 SWAP1 PUSH2 0xFFFF AND SWAP1 SSTORE SWAP2 PUSH1 0x20 ADD SWAP2 SWAP1 PUSH1 0x1 ADD SWAP1 PUSH3 0x3F4 JUMP JUMPDEST DUP3 DUP1 SLOAD DUP3 DUP3 SSTORE SWAP1 PUSH1 0x0 MSTORE PUSH1 0x20 PUSH1 0x0 KECCAK256 SWAP1 DUP2 ADD SWAP3 DUP3 ISZERO PUSH3 0x3CE JUMPI SWAP2 PUSH1 0x20 MUL DUP3 ADD DUP3 DUP2 GT ISZERO PUSH3 0x3CE JUMPI DUP3 MLOAD DUP3 SWAP1 PUSH2 0xFFFF AND SWAP1 SSTORE SWAP2 PUSH1 0x20 ADD SWAP2 SWAP1 PUSH1 0x1 ADD SWAP1 PUSH3 0x3F4 JUMP JUMPDEST DUP3 DUP1 SLOAD DUP3 DUP3 SSTORE SWAP1 PUSH1 0x0 MSTORE PUSH1 0x20 PUSH1 0x0 KECCAK256 SWAP1 DUP2 ADD SWAP3 DUP3 ISZERO PUSH3 0x3CE JUMPI SWAP2 PUSH1 0x20 MUL DUP3 ADD DUP3 DUP2 GT ISZERO PUSH3 0x3CE JUMPI DUP3 MLOAD DUP3 SWAP1 PUSH1 0xFF AND SWAP1 SSTORE SWAP2 PUSH1 0x20 ADD SWAP2 SWAP1 PUSH1 0x1 ADD SWAP1 PUSH3 0x3AC JUMP JUMPDEST PUSH2 0xE2E DUP1 PUSH3 0x5DFE DUP4 CODECOPY ADD SWAP1 JUMP JUMPDEST PUSH2 0x2260 DUP1 PUSH3 0x6C2C DUP4 CODECOPY ADD SWAP1 JUMP JUMPDEST JUMPDEST DUP1 DUP3 GT ISZERO PUSH3 0x3DC JUMPI PUSH1 0x0 DUP2 SSTORE PUSH1 0x1 ADD PUSH3 0x4B9 JUMP JUMPDEST PUSH1 0x0 PUSH1 0x20 DUP3 DUP5 SUB SLT ISZERO PUSH3 0x4E2 JUMPI PUSH1 0x0 DUP1 REVERT JUMPDEST DUP2 MLOAD PUSH1 0x1 PUSH1 0x1 PUSH1 0xA0 SHL SUB DUP2 AND DUP2 EQ PUSH3 0x4FA JUMPI PUSH1 0x0 DUP1 REVERT JUMPDEST SWAP4 SWAP3 POP POP POP JUMP JUMPDEST PUSH2 0x58ED DUP1 PUSH3 0x511 PUSH1 0x0 CODECOPY PUSH1 0x0 RETURN INVALID PUSH1 0x80 PUSH1 0x40 MSTORE PUSH1 0x4 CALLDATASIZE LT PUSH2 0x48C JUMPI PUSH1 0x0 CALLDATALOAD PUSH1 0xE0 SHR DUP1 PUSH4 0x939C54FC GT PUSH2 0x255 JUMPI DUP1 PUSH4 0xC52F1041 GT PUSH2 0x144 JUMPI DUP1 PUSH4 0xD92721B5 GT PUSH2 0xC1 JUMPI DUP1 PUSH4 0xEF57C74E GT PUSH2 0x85 JUMPI DUP1 PUSH4 0xEF57C74E EQ PUSH2 0xEE0 JUMPI DUP1 PUSH4 0xF043369B EQ PUSH2 0xEF6 JUMPI DUP1 PUSH4 0xF0C9E87A EQ PUSH2 0xF16 JUMPI DUP1 PUSH4 0xF1F16D05 EQ PUSH2 0xF2B JUMPI DUP1 PUSH4 0xF2F09130 EQ PUSH2 0xF41 JUMPI DUP1 PUSH4 0xF2FDE38B EQ PUSH2 0xF98 JUMPI PUSH1 0x0 DUP1 REVERT JUMPDEST DUP1 PUSH4 0xD92721B5 EQ PUSH2 0xE48 JUMPI DUP1 PUSH4 0xDE40282B EQ PUSH2 0xE75 JUMPI DUP1 PUSH4 0xDE44391A EQ PUSH2 0xE95 JUMPI DUP1 PUSH4 0xE4AA1EFE EQ PUSH2 0xEAA JUMPI DUP1 PUSH4 0xEDD47FE6 EQ PUSH2 0xEC0 JUMPI PUSH1 0x0 DUP1 REVERT JUMPDEST DUP1 PUSH4 0xD02ADC2A GT PUSH2 0x108 JUMPI DUP1 PUSH4 0xD02ADC2A EQ PUSH2 0xDB5 JUMPI DUP1 PUSH4 0xD11C2D1D EQ PUSH2 0xDDD JUMPI DUP1 PUSH4 0xD2407B4C EQ PUSH2 0xDFD JUMPI DUP1 PUSH4 0xD33BCE87 EQ PUSH2 0xE1D JUMPI DUP1 PUSH4 0xD789760E EQ PUSH2 0xE32 JUMPI PUSH1 0x0 DUP1 REVERT JUMPDEST DUP1 PUSH4 0xC52F1041 EQ PUSH2 0xD07 JUMPI DUP1 PUSH4 0xC7200098 EQ PUSH2 0xD27 JUMPI DUP1 PUSH4 0xC73BD869 EQ PUSH2 0xD5F JUMPI DUP1 PUSH4 0xC85EA4EC EQ PUSH2 0xD7F JUMPI DUP1 PUSH4 0xCEE5E553 EQ PUSH2 0xD95 JUMPI PUSH1 0x0 DUP1 REVERT JUMPDEST DUP1 PUSH4 0xAB5E16E3 GT PUSH2 0x1D2 JUMPI DUP1 PUSH4 0xB7B4024B GT PUSH2 0x196 JUMPI DUP1 PUSH4 0xB7B4024B EQ PUSH2 0xC5B JUMPI DUP1 PUSH4 0xBB89209B EQ PUSH2 0xC8B JUMPI DUP1 PUSH4 0xBED99850 EQ PUSH2 0xCA1 JUMPI DUP1 PUSH4 0xBEF58B45 EQ PUSH2 0xCB7 JUMPI DUP1 PUSH4 0xC01BC982 EQ PUSH2 0xCD7 JUMPI PUSH1 0x0 DUP1 REVERT JUMPDEST DUP1 PUSH4 0xAB5E16E3 EQ PUSH2 0xBAC JUMPI DUP1 PUSH4 0xAC2AC064 EQ PUSH2 0xBE5 JUMPI DUP1 PUSH4 0xAE2E933B EQ PUSH2 0xC05 JUMPI DUP1 PUSH4 0xB5478365 EQ PUSH2 0xC1B JUMPI DUP1 PUSH4 0xB6B55F25 EQ PUSH2 0xC3B JUMPI PUSH1 0x0 DUP1 REVERT JUMPDEST DUP1 PUSH4 0x9D50880F GT PUSH2 0x219 JUMPI DUP1 PUSH4 0x9D50880F EQ PUSH2 0xB20 JUMPI DUP1 PUSH4 0xA2BDEDF4 EQ PUSH2 0xB40 JUMPI DUP1 PUSH4 0xA53F57BC EQ PUSH2 0xB60 JUMPI DUP1 PUSH4 0xA68CC6E3 EQ PUSH2 0xB80 JUMPI DUP1 PUSH4 0xAB2ADC00 EQ PUSH2 0xB96 JUMPI PUSH1 0x0 DUP1 REVERT JUMPDEST DUP1 PUSH4 0x939C54FC EQ PUSH2 0xAAE JUMPI DUP1 PUSH4 0x96649B86 EQ PUSH2 0xAC4 JUMPI DUP1 PUSH4 0x98D5FDCA EQ PUSH2 0xADA JUMPI DUP1 PUSH4 0x99DC0025 EQ PUSH2 0xAEF JUMPI DUP1 PUSH4 0x9BAA944D EQ PUSH2 0xB04 JUMPI PUSH1 0x0 DUP1 REVERT JUMPDEST DUP1 PUSH4 0x4AE2B849 GT PUSH2 0x37C JUMPI DUP1 PUSH4 0x715018A6 GT PUSH2 0x2F9 JUMPI DUP1 PUSH4 0x78E97925 GT PUSH2 0x2BD JUMPI DUP1 PUSH4 0x78E97925 EQ PUSH2 0x9ED JUMPI DUP1 PUSH4 0x7E7031FB EQ PUSH2 0xA03 JUMPI DUP1 PUSH4 0x889ABAD6 EQ PUSH2 0xA23 JUMPI DUP1 PUSH4 0x8BC43CCF EQ PUSH2 0xA50 JUMPI DUP1 PUSH4 0x8DA5CB5B EQ PUSH2 0xA70 JUMPI DUP1 PUSH4 0x91B7F5ED EQ PUSH2 0xA8E JUMPI PUSH1 0x0 DUP1 REVERT JUMPDEST DUP1 PUSH4 0x715018A6 EQ PUSH2 0x939 JUMPI DUP1 PUSH4 0x71502E6C EQ PUSH2 0x94E JUMPI DUP1 PUSH4 0x73F38081 EQ PUSH2 0x96E JUMPI DUP1 PUSH4 0x78030765 EQ PUSH2 0x9AB JUMPI DUP1 PUSH4 0x7879B5EF EQ PUSH2 0x9CD JUMPI PUSH1 0x0 DUP1 REVERT JUMPDEST DUP1 PUSH4 0x5AE2AFA4 GT PUSH2 0x340 JUMPI DUP1 PUSH4 0x5AE2AFA4 EQ PUSH2 0x7E9 JUMPI DUP1 PUSH4 0x609A33A8 EQ PUSH2 0x7FE JUMPI DUP1 PUSH4 0x6B7AE8DC EQ PUSH2 0x813 JUMPI DUP1 PUSH4 0x6F77926B EQ PUSH2 0x833 JUMPI DUP1 PUSH4 0x6F9FB98A EQ PUSH2 0x926 JUMPI PUSH1 0x0 DUP1 REVERT JUMPDEST DUP1 PUSH4 0x4AE2B849 EQ PUSH2 0x74D JUMPI DUP1 PUSH4 0x4BF0D331 EQ PUSH2 0x763 JUMPI DUP1 PUSH4 0x52C57959 EQ PUSH2 0x793 JUMPI DUP1 PUSH4 0x5525F3B2 EQ PUSH2 0x7B3 JUMPI DUP1 PUSH4 0x588AB80B EQ PUSH2 0x7D3 JUMPI PUSH1 0x0 DUP1 REVERT JUMPDEST DUP1 PUSH4 0x297324A4 GT PUSH2 0x40A JUMPI DUP1 PUSH4 0x3737BCB4 GT PUSH2 0x3CE JUMPI DUP1 PUSH4 0x3737BCB4 EQ PUSH2 0x6B5 JUMPI DUP1 PUSH4 0x41ECDE49 EQ PUSH2 0x6CB JUMPI DUP1 PUSH4 0x4420E486 EQ PUSH2 0x6F8 JUMPI DUP1 PUSH4 0x4529BE26 EQ PUSH2 0x718 JUMPI DUP1 PUSH4 0x45335B6D EQ PUSH2 0x72D JUMPI PUSH1 0x0 DUP1 REVERT JUMPDEST DUP1 PUSH4 0x297324A4 EQ PUSH2 0x5F4 JUMPI DUP1 PUSH4 0x2C9A7EA6 EQ PUSH2 0x609 JUMPI DUP1 PUSH4 0x3207313D EQ PUSH2 0x61F JUMPI DUP1 PUSH4 0x3380A8C1 EQ PUSH2 0x672 JUMPI DUP1 PUSH4 0x34EB8C43 EQ PUSH2 0x69F JUMPI PUSH1 0x0 DUP1 REVERT JUMPDEST DUP1 PUSH4 0x15914247 GT PUSH2 0x451 JUMPI DUP1 PUSH4 0x15914247 EQ PUSH2 0x544 JUMPI DUP1 PUSH4 0x17E702E0 EQ PUSH2 0x564 JUMPI DUP1 PUSH4 0x191B0F84 EQ PUSH2 0x584 JUMPI DUP1 PUSH4 0x1C7C74F9 EQ PUSH2 0x599 JUMPI DUP1 PUSH4 0x1CD3A4AC EQ PUSH2 0x5C6 JUMPI PUSH1 0x0 DUP1 REVERT JUMPDEST DUP1 PUSH3 0x48629 EQ PUSH2 0x498 JUMPI DUP1 PUSH4 0x15493B4 EQ PUSH2 0x4BA JUMPI DUP1 PUSH4 0x7BC8840 EQ PUSH2 0x4DA JUMPI DUP1 PUSH4 0x8BED0F0 EQ PUSH2 0x51A JUMPI DUP1 PUSH4 0xD2E3A29 EQ PUSH2 0x52F JUMPI PUSH1 0x0 DUP1 REVERT JUMPDEST CALLDATASIZE PUSH2 0x493 JUMPI STOP JUMPDEST PUSH1 0x0 DUP1 REVERT JUMPDEST CALLVALUE DUP1 ISZERO PUSH2 0x4A4 JUMPI PUSH1 0x0 DUP1 REVERT JUMPDEST POP PUSH2 0x4B8 PUSH2 0x4B3 CALLDATASIZE PUSH1 0x4 PUSH2 0x5519 JUMP JUMPDEST PUSH2 0xFB8 JUMP JUMPDEST STOP JUMPDEST CALLVALUE DUP1 ISZERO PUSH2 0x4C6 JUMPI PUSH1 0x0 DUP1 REVERT JUMPDEST POP PUSH2 0x4B8 PUSH2 0x4D5 CALLDATASIZE PUSH1 0x4 PUSH2 0x5557 JUMP JUMPDEST PUSH2 0x13AB JUMP JUMPDEST CALLVALUE DUP1 ISZERO PUSH2 0x4E6 JUMPI PUSH1 0x0 DUP1 REVERT JUMPDEST POP PUSH2 0x507 PUSH2 0x4F5 CALLDATASIZE PUSH1 0x4 PUSH2 0x5557 JUMP JUMPDEST PUSH1 0x2A PUSH1 0x20 MSTORE PUSH1 0x0 SWAP1 DUP2 MSTORE PUSH1 0x40 SWAP1 KECCAK256 SLOAD DUP2 JUMP JUMPDEST PUSH1 0x40 MLOAD SWAP1 DUP2 MSTORE PUSH1 0x20 ADD JUMPDEST PUSH1 0x40 MLOAD DUP1 SWAP2 SUB SWAP1 RETURN JUMPDEST CALLVALUE DUP1 ISZERO PUSH2 0x526 JUMPI PUSH1 0x0 DUP1 REVERT JUMPDEST POP PUSH2 0x4B8 PUSH2 0x1423 JUMP JUMPDEST CALLVALUE DUP1 ISZERO PUSH2 0x53B JUMPI PUSH1 0x0 DUP1 REVERT JUMPDEST POP PUSH1 0x28 SLOAD PUSH2 0x507 JUMP JUMPDEST CALLVALUE DUP1 ISZERO PUSH2 0x550 JUMPI PUSH1 0x0 DUP1 REVERT JUMPDEST POP PUSH2 0x507 PUSH2 0x55F CALLDATASIZE PUSH1 0x4 PUSH2 0x5572 JUMP JUMPDEST PUSH2 0x1787 JUMP JUMPDEST CALLVALUE DUP1 ISZERO PUSH2 0x570 JUMPI PUSH1 0x0 DUP1 REVERT JUMPDEST POP PUSH2 0x4B8 PUSH2 0x57F CALLDATASIZE PUSH1 0x4 PUSH2 0x559C JUMP JUMPDEST PUSH2 0x17D9 JUMP JUMPDEST CALLVALUE DUP1 ISZERO PUSH2 0x590 JUMPI PUSH1 0x0 DUP1 REVERT JUMPDEST POP PUSH2 0x507 PUSH2 0x1922 JUMP JUMPDEST CALLVALUE DUP1 ISZERO PUSH2 0x5A5 JUMPI PUSH1 0x0 DUP1 REVERT JUMPDEST POP PUSH2 0x507 PUSH2 0x5B4 CALLDATASIZE PUSH1 0x4 PUSH2 0x5557 JUMP JUMPDEST PUSH1 0x46 PUSH1 0x20 MSTORE PUSH1 0x0 SWAP1 DUP2 MSTORE PUSH1 0x40 SWAP1 KECCAK256 SLOAD DUP2 JUMP JUMPDEST CALLVALUE DUP1 ISZERO PUSH2 0x5D2 JUMPI PUSH1 0x0 DUP1 REVERT JUMPDEST POP PUSH2 0x5DC PUSH2 0xDEAD DUP2 JUMP JUMPDEST PUSH1 0x40 MLOAD PUSH1 0x1 PUSH1 0x1 PUSH1 0xA0 SHL SUB SWAP1 SWAP2 AND DUP2 MSTORE PUSH1 0x20 ADD PUSH2 0x511 JUMP JUMPDEST CALLVALUE DUP1 ISZERO PUSH2 0x600 JUMPI PUSH1 0x0 DUP1 REVERT JUMPDEST POP PUSH2 0x507 PUSH2 0x19D3 JUMP JUMPDEST CALLVALUE DUP1 ISZERO PUSH2 0x615 JUMPI PUSH1 0x0 DUP1 REVERT JUMPDEST POP PUSH2 0x507 PUSH1 0x6 SLOAD DUP2 JUMP JUMPDEST CALLVALUE DUP1 ISZERO PUSH2 0x62B JUMPI PUSH1 0x0 DUP1 REVERT JUMPDEST POP PUSH2 0x65D PUSH2 0x63A CALLDATASIZE PUSH1 0x4 PUSH2 0x5557 JUMP JUMPDEST PUSH1 0x1 PUSH1 0x1 PUSH1 0xA0 SHL SUB AND PUSH1 0x0 SWAP1 DUP2 MSTORE PUSH1 0x1F PUSH1 0x20 MSTORE PUSH1 0x40 SWAP1 KECCAK256 DUP1 SLOAD PUSH1 0x1 SWAP1 SWAP2 ADD SLOAD SWAP1 SWAP2 JUMP JUMPDEST PUSH1 0x40 DUP1 MLOAD SWAP3 DUP4 MSTORE PUSH1 0x20 DUP4 ADD SWAP2 SWAP1 SWAP2 MSTORE ADD PUSH2 0x511 JUMP JUMPDEST CALLVALUE DUP1 ISZERO PUSH2 0x67E JUMPI PUSH1 0x0 DUP1 REVERT JUMPDEST POP PUSH2 0x507 PUSH2 0x68D CALLDATASIZE PUSH1 0x4 PUSH2 0x5557 JUMP JUMPDEST PUSH1 0x2D PUSH1 0x20 MSTORE PUSH1 0x0 SWAP1 DUP2 MSTORE PUSH1 0x40 SWAP1 KECCAK256 SLOAD DUP2 JUMP JUMPDEST CALLVALUE DUP1 ISZERO PUSH2 0x6AB JUMPI PUSH1 0x0 DUP1 REVERT JUMPDEST POP PUSH2 0x507 PUSH1 0xA SLOAD DUP2 JUMP JUMPDEST CALLVALUE DUP1 ISZERO PUSH2 0x6C1 JUMPI PUSH1 0x0 DUP1 REVERT JUMPDEST POP PUSH2 0x507 PUSH1 0x22 SLOAD DUP2 JUMP JUMPDEST CALLVALUE DUP1 ISZERO PUSH2 0x6D7 JUMPI PUSH1 0x0 DUP1 REVERT JUMPDEST POP PUSH2 0x507 PUSH2 0x6E6 CALLDATASIZE PUSH1 0x4 PUSH2 0x5611 JUMP JUMPDEST PUSH1 0x26 PUSH1 0x20 MSTORE PUSH1 0x0 SWAP1 DUP2 MSTORE PUSH1 0x40 SWAP1 KECCAK256 SLOAD DUP2 JUMP JUMPDEST CALLVALUE DUP1 ISZERO PUSH2 0x704 JUMPI PUSH1 0x0 DUP1 REVERT JUMPDEST POP PUSH2 0x4B8 PUSH2 0x713 CALLDATASIZE PUSH1 0x4 PUSH2 0x5557 JUMP JUMPDEST PUSH2 0x1A4E JUMP JUMPDEST CALLVALUE DUP1 ISZERO PUSH2 0x724 JUMPI PUSH1 0x0 DUP1 REVERT JUMPDEST POP PUSH2 0x4B8 PUSH2 0x1C56 JUMP JUMPDEST CALLVALUE DUP1 ISZERO PUSH2 0x739 JUMPI PUSH1 0x0 DUP1 REVERT JUMPDEST POP PUSH2 0x507 PUSH2 0x748 CALLDATASIZE PUSH1 0x4 PUSH2 0x5611 JUMP JUMPDEST PUSH2 0x1C9B JUMP JUMPDEST CALLVALUE DUP1 ISZERO PUSH2 0x759 JUMPI PUSH1 0x0 DUP1 REVERT JUMPDEST POP PUSH2 0x507 PUSH1 0xB SLOAD DUP2 JUMP JUMPDEST CALLVALUE DUP1 ISZERO PUSH2 0x76F JUMPI PUSH1 0x0 DUP1 REVERT JUMPDEST POP PUSH2 0x783 PUSH2 0x77E CALLDATASIZE PUSH1 0x4 PUSH2 0x5557 JUMP JUMPDEST PUSH2 0x1CB2 JUMP JUMPDEST PUSH1 0x40 MLOAD SWAP1 ISZERO ISZERO DUP2 MSTORE PUSH1 0x20 ADD PUSH2 0x511 JUMP JUMPDEST CALLVALUE DUP1 ISZERO PUSH2 0x79F JUMPI PUSH1 0x0 DUP1 REVERT JUMPDEST POP PUSH2 0x4B8 PUSH2 0x7AE CALLDATASIZE PUSH1 0x4 PUSH2 0x5557 JUMP JUMPDEST PUSH2 0x1D52 JUMP JUMPDEST CALLVALUE DUP1 ISZERO PUSH2 0x7BF JUMPI PUSH1 0x0 DUP1 REVERT JUMPDEST POP PUSH2 0x4B8 PUSH2 0x7CE CALLDATASIZE PUSH1 0x4 PUSH2 0x5611 JUMP JUMPDEST PUSH2 0x1F13 JUMP JUMPDEST CALLVALUE DUP1 ISZERO PUSH2 0x7DF JUMPI PUSH1 0x0 DUP1 REVERT JUMPDEST POP PUSH2 0x507 PUSH1 0x2E SLOAD DUP2 JUMP JUMPDEST CALLVALUE DUP1 ISZERO PUSH2 0x7F5 JUMPI PUSH1 0x0 DUP1 REVERT JUMPDEST POP PUSH2 0x4B8 PUSH2 0x203B JUMP JUMPDEST CALLVALUE DUP1 ISZERO PUSH2 0x80A JUMPI PUSH1 0x0 DUP1 REVERT JUMPDEST POP PUSH2 0x507 PUSH1 0x5 DUP2 JUMP JUMPDEST CALLVALUE DUP1 ISZERO PUSH2 0x81F JUMPI PUSH1 0x0 DUP1 REVERT JUMPDEST POP PUSH1 0x4 SLOAD PUSH2 0x5DC SWAP1 PUSH1 0x1 PUSH1 0x1 PUSH1 0xA0 SHL SUB AND DUP2 JUMP JUMPDEST CALLVALUE DUP1 ISZERO PUSH2 0x83F JUMPI PUSH1 0x0 DUP1 REVERT JUMPDEST POP PUSH2 0x8BF PUSH2 0x84E CALLDATASIZE PUSH1 0x4 PUSH2 0x5557 JUMP JUMPDEST PUSH1 0x1 PUSH1 0x1 PUSH1 0xA0 SHL SUB SWAP1 DUP2 AND PUSH1 0x0 SWAP1 DUP2 MSTORE PUSH1 0x1D PUSH1 0x20 MSTORE PUSH1 0x40 SWAP1 KECCAK256 DUP1 SLOAD PUSH1 0x1 DUP3 ADD SLOAD PUSH1 0x2 DUP4 ADD SLOAD PUSH1 0x3 DUP5 ADD SLOAD PUSH1 0x4 DUP6 ADD SLOAD PUSH1 0x5 DUP7 ADD SLOAD PUSH1 0x6 DUP8 ADD SLOAD PUSH1 0x7 DUP9 ADD SLOAD PUSH1 0x8 SWAP1 SWAP9 ADD SLOAD SWAP7 SWAP1 SWAP9 AND SWAP9 SWAP5 SWAP8 PUSH1 0xFF DUP1 DUP7 AND SWAP9 PUSH2 0x100 SWAP7 DUP8 SWAP1 DIV DUP3 AND SWAP9 SWAP6 SWAP8 SWAP5 SWAP7 SWAP4 SWAP6 SWAP3 SWAP5 DUP3 DUP3 AND SWAP5 SWAP1 SWAP2 DIV SWAP1 SWAP2 AND SWAP2 SWAP1 JUMP JUMPDEST PUSH1 0x40 DUP1 MLOAD PUSH1 0x1 PUSH1 0x1 PUSH1 0xA0 SHL SUB SWAP1 SWAP13 AND DUP13 MSTORE PUSH1 0x20 DUP13 ADD SWAP11 SWAP1 SWAP11 MSTORE PUSH1 0xFF SWAP9 DUP10 AND SWAP10 DUP12 ADD SWAP10 SWAP1 SWAP10 MSTORE SWAP7 SWAP1 SWAP6 AND PUSH1 0x60 DUP10 ADD MSTORE PUSH1 0x80 DUP9 ADD SWAP4 SWAP1 SWAP4 MSTORE PUSH1 0xA0 DUP8 ADD SWAP2 SWAP1 SWAP2 MSTORE PUSH1 0xC0 DUP7 ADD MSTORE PUSH1 0xE0 DUP6 ADD MSTORE ISZERO ISZERO PUSH2 0x100 DUP5 ADD MSTORE ISZERO ISZERO PUSH2 0x120 DUP4 ADD MSTORE PUSH2 0x140 DUP3 ADD MSTORE PUSH2 0x160 ADD PUSH2 0x511 JUMP JUMPDEST CALLVALUE DUP1 ISZERO PUSH2 0x932 JUMPI PUSH1 0x0 DUP1 REVERT JUMPDEST POP SELFBALANCE PUSH2 0x507 JUMP JUMPDEST CALLVALUE DUP1 ISZERO PUSH2 0x945 JUMPI PUSH1 0x0 DUP1 REVERT JUMPDEST POP PUSH2 0x4B8 PUSH2 0x23E6 JUMP JUMPDEST CALLVALUE DUP1 ISZERO PUSH2 0x95A JUMPI PUSH1 0x0 DUP1 REVERT JUMPDEST POP PUSH2 0x5DC PUSH2 0x969 CALLDATASIZE PUSH1 0x4 PUSH2 0x5611 JUMP JUMPDEST PUSH2 0x23F8 JUMP JUMPDEST CALLVALUE DUP1 ISZERO PUSH2 0x97A JUMPI PUSH1 0x0 DUP1 REVERT JUMPDEST POP PUSH2 0x98E PUSH2 0x989 CALLDATASIZE PUSH1 0x4 PUSH2 0x5557 JUMP JUMPDEST PUSH2 0x2422 JUMP JUMPDEST PUSH1 0x40 DUP1 MLOAD SWAP4 ISZERO ISZERO DUP5 MSTORE PUSH1 0x20 DUP5 ADD SWAP3 SWAP1 SWAP3 MSTORE SWAP1 DUP3 ADD MSTORE PUSH1 0x60 ADD PUSH2 0x511 JUMP JUMPDEST CALLVALUE DUP1 ISZERO PUSH2 0x9B7 JUMPI PUSH1 0x0 DUP1 REVERT JUMPDEST POP PUSH2 0x9C0 PUSH2 0x2668 JUMP JUMPDEST PUSH1 0x40 MLOAD PUSH2 0x511 SWAP2 SWAP1 PUSH2 0x562A JUMP JUMPDEST CALLVALUE DUP1 ISZERO PUSH2 0x9D9 JUMPI PUSH1 0x0 DUP1 REVERT JUMPDEST POP PUSH2 0x507 PUSH2 0x9E8 CALLDATASIZE PUSH1 0x4 PUSH2 0x5611 JUMP JUMPDEST PUSH2 0x26CA JUMP JUMPDEST CALLVALUE DUP1 ISZERO PUSH2 0x9F9 JUMPI PUSH1 0x0 DUP1 REVERT JUMPDEST POP PUSH2 0x507 PUSH1 0xC SLOAD DUP2 JUMP JUMPDEST CALLVALUE DUP1 ISZERO PUSH2 0xA0F JUMPI PUSH1 0x0 DUP1 REVERT JUMPDEST POP PUSH2 0x4B8 PUSH2 0xA1E CALLDATASIZE PUSH1 0x4 PUSH2 0x5611 JUMP JUMPDEST PUSH2 0x26DA JUMP JUMPDEST CALLVALUE DUP1 ISZERO PUSH2 0xA2F JUMPI PUSH1 0x0 DUP1 REVERT JUMPDEST POP PUSH2 0x507 PUSH2 0xA3E CALLDATASIZE PUSH1 0x4 PUSH2 0x5611 JUMP JUMPDEST PUSH1 0x27 PUSH1 0x20 MSTORE PUSH1 0x0 SWAP1 DUP2 MSTORE PUSH1 0x40 SWAP1 KECCAK256 SLOAD DUP2 JUMP JUMPDEST CALLVALUE DUP1 ISZERO PUSH2 0xA5C JUMPI PUSH1 0x0 DUP1 REVERT JUMPDEST POP PUSH2 0x507 PUSH2 0xA6B CALLDATASIZE PUSH1 0x4 PUSH2 0x5611 JUMP JUMPDEST PUSH2 0x2897 JUMP JUMPDEST CALLVALUE DUP1 ISZERO PUSH2 0xA7C JUMPI PUSH1 0x0 DUP1 REVERT JUMPDEST POP PUSH1 0x0 SLOAD PUSH1 0x1 PUSH1 0x1 PUSH1 0xA0 SHL SUB AND PUSH2 0x5DC JUMP JUMPDEST CALLVALUE DUP1 ISZERO PUSH2 0xA9A JUMPI PUSH1 0x0 DUP1 REVERT JUMPDEST POP PUSH2 0x4B8 PUSH2 0xAA9 CALLDATASIZE PUSH1 0x4 PUSH2 0x5611 JUMP JUMPDEST PUSH2 0x28B8 JUMP JUMPDEST CALLVALUE DUP1 ISZERO PUSH2 0xABA JUMPI PUSH1 0x0 DUP1 REVERT JUMPDEST POP PUSH2 0x507 PUSH1 0x8 SLOAD DUP2 JUMP JUMPDEST CALLVALUE DUP1 ISZERO PUSH2 0xAD0 JUMPI PUSH1 0x0 DUP1 REVERT JUMPDEST POP PUSH2 0x507 PUSH1 0x47 SLOAD DUP2 JUMP JUMPDEST CALLVALUE DUP1 ISZERO PUSH2 0xAE6 JUMPI PUSH1 0x0 DUP1 REVERT JUMPDEST POP PUSH1 0x5 SLOAD PUSH2 0x507 JUMP JUMPDEST CALLVALUE DUP1 ISZERO PUSH2 0xAFB JUMPI PUSH1 0x0 DUP1 REVERT JUMPDEST POP PUSH2 0x4B8 PUSH2 0x293C JUMP JUMPDEST CALLVALUE DUP1 ISZERO PUSH2 0xB10 JUMPI PUSH1 0x0 DUP1 REVERT JUMPDEST POP PUSH2 0x507 PUSH8 0xDE0B6B3A7640000 DUP2 JUMP JUMPDEST CALLVALUE DUP1 ISZERO PUSH2 0xB2C JUMPI PUSH1 0x0 DUP1 REVERT JUMPDEST POP PUSH2 0x507 PUSH2 0xB3B CALLDATASIZE PUSH1 0x4 PUSH2 0x5611 JUMP JUMPDEST PUSH2 0x2B3D JUMP JUMPDEST CALLVALUE DUP1 ISZERO PUSH2 0xB4C JUMPI PUSH1 0x0 DUP1 REVERT JUMPDEST POP PUSH2 0x5DC PUSH2 0xB5B CALLDATASIZE PUSH1 0x4 PUSH2 0x5611 JUMP JUMPDEST PUSH2 0x2B4D JUMP JUMPDEST CALLVALUE DUP1 ISZERO PUSH2 0xB6C JUMPI PUSH1 0x0 DUP1 REVERT JUMPDEST POP PUSH1 0x3 SLOAD PUSH2 0x5DC SWAP1 PUSH1 0x1 PUSH1 0x1 PUSH1 0xA0 SHL SUB AND DUP2 JUMP JUMPDEST CALLVALUE DUP1 ISZERO PUSH2 0xB8C JUMPI PUSH1 0x0 DUP1 REVERT JUMPDEST POP PUSH2 0x507 PUSH1 0x5 SLOAD DUP2 JUMP JUMPDEST CALLVALUE DUP1 ISZERO PUSH2 0xBA2 JUMPI PUSH1 0x0 DUP1 REVERT JUMPDEST POP PUSH2 0x507 PUSH1 0x2F SLOAD DUP2 JUMP JUMPDEST CALLVALUE DUP1 ISZERO PUSH2 0xBB8 JUMPI PUSH1 0x0 DUP1 REVERT JUMPDEST POP PUSH2 0x783 PUSH2 0xBC7 CALLDATASIZE PUSH1 0x4 PUSH2 0x5557 JUMP JUMPDEST PUSH1 0x1 PUSH1 0x1 PUSH1 0xA0 SHL SUB AND PUSH1 0x0 SWAP1 DUP2 MSTORE PUSH1 0x2C PUSH1 0x20 MSTORE PUSH1 0x40 SWAP1 KECCAK256 SLOAD PUSH1 0xFF AND SWAP1 JUMP JUMPDEST CALLVALUE DUP1 ISZERO PUSH2 0xBF1 JUMPI PUSH1 0x0 DUP1 REVERT JUMPDEST POP PUSH2 0x4B8 PUSH2 0xC00 CALLDATASIZE PUSH1 0x4 PUSH2 0x5557 JUMP JUMPDEST PUSH2 0x2B5D JUMP JUMPDEST CALLVALUE DUP1 ISZERO PUSH2 0xC11 JUMPI PUSH1 0x0 DUP1 REVERT JUMPDEST POP PUSH2 0x507 PUSH1 0x31 SLOAD DUP2 JUMP JUMPDEST CALLVALUE DUP1 ISZERO PUSH2 0xC27 JUMPI PUSH1 0x0 DUP1 REVERT JUMPDEST POP PUSH2 0x507 PUSH2 0xC36 CALLDATASIZE PUSH1 0x4 PUSH2 0x5611 JUMP JUMPDEST PUSH2 0x2C37 JUMP JUMPDEST CALLVALUE DUP1 ISZERO PUSH2 0xC47 JUMPI PUSH1 0x0 DUP1 REVERT JUMPDEST POP PUSH2 0x4B8 PUSH2 0xC56 CALLDATASIZE PUSH1 0x4 PUSH2 0x5611 JUMP JUMPDEST PUSH2 0x2C47 JUMP JUMPDEST CALLVALUE DUP1 ISZERO PUSH2 0xC67 JUMPI PUSH1 0x0 DUP1 REVERT JUMPDEST POP PUSH2 0x783 PUSH2 0xC76 CALLDATASIZE PUSH1 0x4 PUSH2 0x5557 JUMP JUMPDEST PUSH1 0x29 PUSH1 0x20 MSTORE PUSH1 0x0 SWAP1 DUP2 MSTORE PUSH1 0x40 SWAP1 KECCAK256 SLOAD PUSH1 0xFF AND DUP2 JUMP JUMPDEST CALLVALUE DUP1 ISZERO PUSH2 0xC97 JUMPI PUSH1 0x0 DUP1 REVERT JUMPDEST POP PUSH2 0x507 PUSH1 0x9 SLOAD DUP2 JUMP JUMPDEST CALLVALUE DUP1 ISZERO PUSH2 0xCAD JUMPI PUSH1 0x0 DUP1 REVERT JUMPDEST POP PUSH2 0x507 PUSH1 0x7 SLOAD DUP2 JUMP JUMPDEST CALLVALUE DUP1 ISZERO PUSH2 0xCC3 JUMPI PUSH1 0x0 DUP1 REVERT JUMPDEST POP PUSH2 0x507 PUSH2 0xCD2 CALLDATASIZE PUSH1 0x4 PUSH2 0x5611 JUMP JUMPDEST PUSH2 0x313D JUMP JUMPDEST CALLVALUE DUP1 ISZERO PUSH2 0xCE3 JUMPI PUSH1 0x0 DUP1 REVERT JUMPDEST POP PUSH2 0x783 PUSH2 0xCF2 CALLDATASIZE PUSH1 0x4 PUSH2 0x5557 JUMP JUMPDEST PUSH1 0x2C PUSH1 0x20 MSTORE PUSH1 0x0 SWAP1 DUP2 MSTORE PUSH1 0x40 SWAP1 KECCAK256 SLOAD PUSH1 0xFF AND DUP2 JUMP JUMPDEST CALLVALUE DUP1 ISZERO PUSH2 0xD13 JUMPI PUSH1 0x0 DUP1 REVERT JUMPDEST POP PUSH2 0x4B8 PUSH2 0xD22 CALLDATASIZE PUSH1 0x4 PUSH2 0x5557 JUMP JUMPDEST PUSH2 0x314D JUMP JUMPDEST CALLVALUE DUP1 ISZERO PUSH2 0xD33 JUMPI PUSH1 0x0 DUP1 REVERT JUMPDEST POP PUSH2 0x507 PUSH2 0xD42 CALLDATASIZE PUSH1 0x4 PUSH2 0x5572 JUMP JUMPDEST PUSH1 0x23 PUSH1 0x20 SWAP1 DUP2 MSTORE PUSH1 0x0 SWAP3 DUP4 MSTORE PUSH1 0x40 DUP1 DUP5 KECCAK256 SWAP1 SWAP2 MSTORE SWAP1 DUP3 MSTORE SWAP1 KECCAK256 SLOAD DUP2 JUMP JUMPDEST CALLVALUE DUP1 ISZERO PUSH2 0xD6B JUMPI PUSH1 0x0 DUP1 REVERT JUMPDEST POP PUSH2 0x507 PUSH2 0xD7A CALLDATASIZE PUSH1 0x4 PUSH2 0x5611 JUMP JUMPDEST PUSH2 0x329A JUMP JUMPDEST CALLVALUE DUP1 ISZERO PUSH2 0xD8B JUMPI PUSH1 0x0 DUP1 REVERT JUMPDEST POP PUSH2 0x507 PUSH1 0xD SLOAD DUP2 JUMP JUMPDEST CALLVALUE DUP1 ISZERO PUSH2 0xDA1 JUMPI PUSH1 0x0 DUP1 REVERT JUMPDEST POP PUSH2 0x507 PUSH2 0xDB0 CALLDATASIZE PUSH1 0x4 PUSH2 0x5572 JUMP JUMPDEST PUSH2 0x32AA JUMP JUMPDEST CALLVALUE DUP1 ISZERO PUSH2 0xDC1 JUMPI PUSH1 0x0 DUP1 REVERT JUMPDEST POP PUSH2 0x5DC PUSH20 0x570A5D26F7765ECB712C0924E4DE545B89FD43DF DUP2 JUMP JUMPDEST CALLVALUE DUP1 ISZERO PUSH2 0xDE9 JUMPI PUSH1 0x0 DUP1 REVERT JUMPDEST POP PUSH2 0x4B8 PUSH2 0xDF8 CALLDATASIZE PUSH1 0x4 PUSH2 0x5519 JUMP JUMPDEST PUSH2 0x32CF JUMP JUMPDEST CALLVALUE DUP1 ISZERO PUSH2 0xE09 JUMPI PUSH1 0x0 DUP1 REVERT JUMPDEST POP PUSH2 0x4B8 PUSH2 0xE18 CALLDATASIZE PUSH1 0x4 PUSH2 0x559C JUMP JUMPDEST PUSH2 0x353C JUMP JUMPDEST CALLVALUE DUP1 ISZERO PUSH2 0xE29 JUMPI PUSH1 0x0 DUP1 REVERT JUMPDEST POP PUSH2 0x4B8 PUSH2 0x369E JUMP JUMPDEST CALLVALUE DUP1 ISZERO PUSH2 0xE3E JUMPI PUSH1 0x0 DUP1 REVERT JUMPDEST POP PUSH2 0x507 PUSH1 0x20 SLOAD DUP2 JUMP JUMPDEST CALLVALUE DUP1 ISZERO PUSH2 0xE54 JUMPI PUSH1 0x0 DUP1 REVERT JUMPDEST POP PUSH2 0x507 PUSH2 0xE63 CALLDATASIZE PUSH1 0x4 PUSH2 0x5557 JUMP JUMPDEST PUSH1 0x48 PUSH1 0x20 MSTORE PUSH1 0x0 SWAP1 DUP2 MSTORE PUSH1 0x40 SWAP1 KECCAK256 SLOAD DUP2 JUMP JUMPDEST CALLVALUE DUP1 ISZERO PUSH2 0xE81 JUMPI PUSH1 0x0 DUP1 REVERT JUMPDEST POP PUSH2 0x4B8 PUSH2 0xE90 CALLDATASIZE PUSH1 0x4 PUSH2 0x5557 JUMP JUMPDEST PUSH2 0x386F JUMP JUMPDEST CALLVALUE DUP1 ISZERO PUSH2 0xEA1 JUMPI PUSH1 0x0 DUP1 REVERT JUMPDEST POP PUSH2 0x4B8 PUSH2 0x391B JUMP JUMPDEST CALLVALUE DUP1 ISZERO PUSH2 0xEB6 JUMPI PUSH1 0x0 DUP1 REVERT JUMPDEST POP PUSH2 0x507 PUSH1 0x21 SLOAD DUP2 JUMP JUMPDEST CALLVALUE DUP1 ISZERO PUSH2 0xECC JUMPI PUSH1 0x0 DUP1 REVERT JUMPDEST POP PUSH2 0x4B8 PUSH2 0xEDB CALLDATASIZE PUSH1 0x4 PUSH2 0x5611 JUMP JUMPDEST PUSH2 0x3AAE JUMP JUMPDEST CALLVALUE DUP1 ISZERO PUSH2 0xEEC JUMPI PUSH1 0x0 DUP1 REVERT JUMPDEST POP PUSH2 0x507 PUSH1 0x30 SLOAD DUP2 JUMP JUMPDEST CALLVALUE DUP1 ISZERO PUSH2 0xF02 JUMPI PUSH1 0x0 DUP1 REVERT JUMPDEST POP PUSH1 0x2 SLOAD PUSH2 0x5DC SWAP1 PUSH1 0x1 PUSH1 0x1 PUSH1 0xA0 SHL SUB AND DUP2 JUMP JUMPDEST CALLVALUE DUP1 ISZERO PUSH2 0xF22 JUMPI PUSH1 0x0 DUP1 REVERT JUMPDEST POP PUSH2 0x507 PUSH1 0x1E DUP2 JUMP JUMPDEST CALLVALUE DUP1 ISZERO PUSH2 0xF37 JUMPI PUSH1 0x0 DUP1 REVERT JUMPDEST POP PUSH2 0x507 PUSH1 0x2B SLOAD DUP2 JUMP JUMPDEST CALLVALUE DUP1 ISZERO PUSH2 0xF4D JUMPI PUSH1 0x0 DUP1 REVERT JUMPDEST POP PUSH2 0xF7D PUSH2 0xF5C CALLDATASIZE PUSH1 0x4 PUSH2 0x5557 JUMP JUMPDEST PUSH1 0x1F PUSH1 0x20 MSTORE PUSH1 0x0 SWAP1 DUP2 MSTORE PUSH1 0x40 SWAP1 KECCAK256 DUP1 SLOAD PUSH1 0x1 DUP3 ADD SLOAD PUSH1 0x2 SWAP1 SWAP3 ADD SLOAD SWAP1 SWAP2 SWAP1 DUP4 JUMP JUMPDEST PUSH1 0x40 DUP1 MLOAD SWAP4 DUP5 MSTORE PUSH1 0x20 DUP5 ADD SWAP3 SWAP1 SWAP3 MSTORE SWAP1 DUP3 ADD MSTORE PUSH1 0x60 ADD PUSH2 0x511 JUMP JUMPDEST CALLVALUE DUP1 ISZERO PUSH2 0xFA4 JUMPI PUSH1 0x0 DUP1 REVERT JUMPDEST POP PUSH2 0x4B8 PUSH2 0xFB3 CALLDATASIZE PUSH1 0x4 PUSH2 0x5557 JUMP JUMPDEST PUSH2 0x3FA9 JUMP JUMPDEST PUSH2 0xFC0 PUSH2 0x401F JUMP JUMPDEST CALLER PUSH1 0x0 SWAP1 DUP2 MSTORE PUSH1 0x2C PUSH1 0x20 MSTORE PUSH1 0x40 SWAP1 KECCAK256 SLOAD PUSH1 0xFF AND ISZERO PUSH2 0xFF9 JUMPI PUSH1 0x40 MLOAD PUSH3 0x461BCD PUSH1 0xE5 SHL DUP2 MSTORE PUSH1 0x4 ADD PUSH2 0xFF0 SWAP1 PUSH2 0x5677 JUMP JUMPDEST PUSH1 0x40 MLOAD DUP1 SWAP2 SUB SWAP1 REVERT JUMPDEST PUSH1 0x0 DUP3 GT PUSH2 0x103B JUMPI PUSH1 0x40 MLOAD PUSH3 0x461BCD PUSH1 0xE5 SHL DUP2 MSTORE PUSH1 0x20 PUSH1 0x4 DUP3 ADD MSTORE PUSH1 0xF PUSH1 0x24 DUP3 ADD MSTORE PUSH15 0x616D6F756E74206D757374203E203 PUSH1 0x8C SHL PUSH1 0x44 DUP3 ADD MSTORE PUSH1 0x64 ADD PUSH2 0xFF0 JUMP JUMPDEST PUSH1 0x2 SLOAD PUSH1 0x40 MLOAD PUSH4 0x70A08231 PUSH1 0xE0 SHL DUP2 MSTORE CALLER PUSH1 0x4 DUP3 ADD MSTORE DUP4 SWAP2 PUSH1 0x1 PUSH1 0x1 PUSH1 0xA0 SHL SUB AND SWAP1 PUSH4 0x70A08231 SWAP1 PUSH1 0x24 ADD PUSH1 0x20 PUSH1 0x40 MLOAD DUP1 DUP4 SUB DUP2 DUP7 GAS STATICCALL ISZERO DUP1 ISZERO PUSH2 0x1083 JUMPI RETURNDATASIZE PUSH1 0x0 DUP1 RETURNDATACOPY RETURNDATASIZE PUSH1 0x0 REVERT JUMPDEST POP POP POP POP PUSH1 0x40 MLOAD RETURNDATASIZE PUSH1 0x1F NOT PUSH1 0x1F DUP3 ADD AND DUP3 ADD DUP1 PUSH1 0x40 MSTORE POP DUP2 ADD SWAP1 PUSH2 0x10A7 SWAP2 SWAP1 PUSH2 0x56A6 JUMP JUMPDEST LT ISZERO PUSH2 0x10E7 JUMPI PUSH1 0x40 MLOAD PUSH3 0x461BCD PUSH1 0xE5 SHL DUP2 MSTORE PUSH1 0x20 PUSH1 0x4 DUP3 ADD MSTORE PUSH1 0xF PUSH1 0x24 DUP3 ADD MSTORE PUSH15 0x696E73756666696369656E74204451 PUSH1 0x88 SHL PUSH1 0x44 DUP3 ADD MSTORE PUSH1 0x64 ADD PUSH2 0xFF0 JUMP JUMPDEST PUSH1 0x0 PUSH8 0xDE0B6B3A7640000 PUSH1 0x5 SLOAD DUP5 PUSH2 0x1100 SWAP2 SWAP1 PUSH2 0x56D5 JUMP JUMPDEST PUSH2 0x110A SWAP2 SWAP1 PUSH2 0x56EC JUMP JUMPDEST SWAP1 POP PUSH1 0x0 PUSH1 0x64 PUSH2 0x111B DUP4 PUSH1 0x6 PUSH2 0x56D5 JUMP JUMPDEST PUSH2 0x1125 SWAP2 SWAP1 PUSH2 0x56EC JUMP JUMPDEST SWAP1 POP PUSH1 0x0 PUSH2 0x1133 DUP3 DUP5 PUSH2 0x570E JUMP JUMPDEST SWAP1 POP DUP4 DUP2 LT ISZERO PUSH2 0x1179 JUMPI PUSH1 0x40 MLOAD PUSH3 0x461BCD PUSH1 0xE5 SHL DUP2 MSTORE PUSH1 0x20 PUSH1 0x4 DUP3 ADD MSTORE PUSH1 0x11 PUSH1 0x24 DUP3 ADD MSTORE PUSH17 0xE6D8D2E0E0C2CECA40E8DEDE40D0D2CED PUSH1 0x7B SHL PUSH1 0x44 DUP3 ADD MSTORE PUSH1 0x64 ADD PUSH2 0xFF0 JUMP JUMPDEST PUSH1 0x40 MLOAD PUSH4 0x70A08231 PUSH1 0xE0 SHL DUP2 MSTORE ADDRESS PUSH1 0x4 DUP3 ADD MSTORE DUP2 SWAP1 PUSH20 0x570A5D26F7765ECB712C0924E4DE545B89FD43DF SWAP1 PUSH4 0x70A08231 SWAP1 PUSH1 0x24 ADD PUSH1 0x20 PUSH1 0x40 MLOAD DUP1 DUP4 SUB DUP2 DUP7 GAS STATICCALL ISZERO DUP1 ISZERO PUSH2 0x11CA JUMPI RETURNDATASIZE PUSH1 0x0 DUP1 RETURNDATACOPY RETURNDATASIZE PUSH1 0x0 REVERT JUMPDEST POP POP POP POP PUSH1 0x40 MLOAD RETURNDATASIZE PUSH1 0x1F NOT PUSH1 0x1F DUP3 ADD AND DUP3 ADD DUP1 PUSH1 0x40 MSTORE POP DUP2 ADD SWAP1 PUSH2 0x11EE SWAP2 SWAP1 PUSH2 0x56A6 JUMP JUMPDEST LT ISZERO PUSH2 0x1231 JUMPI PUSH1 0x40 MLOAD PUSH3 0x461BCD PUSH1 0xE5 SHL DUP2 MSTORE PUSH1 0x20 PUSH1 0x4 DUP3 ADD MSTORE PUSH1 0x12 PUSH1 0x24 DUP3 ADD MSTORE PUSH18 0x34B739BAB33334B1B4B2B73A103A37B5B2B7 PUSH1 0x71 SHL PUSH1 0x44 DUP3 ADD MSTORE PUSH1 0x64 ADD PUSH2 0xFF0 JUMP JUMPDEST PUSH1 0x2 SLOAD PUSH1 0x40 MLOAD PUSH4 0x852CD8D PUSH1 0xE3 SHL DUP2 MSTORE PUSH1 0x4 DUP2 ADD DUP8 SWAP1 MSTORE PUSH1 0x1 PUSH1 0x1 PUSH1 0xA0 SHL SUB SWAP1 SWAP2 AND SWAP1 PUSH4 0x42966C68 SWAP1 PUSH1 0x24 ADD PUSH1 0x0 PUSH1 0x40 MLOAD DUP1 DUP4 SUB DUP2 PUSH1 0x0 DUP8 DUP1 EXTCODESIZE ISZERO DUP1 ISZERO PUSH2 0x1277 JUMPI PUSH1 0x0 DUP1 REVERT JUMPDEST POP GAS CALL ISZERO DUP1 ISZERO PUSH2 0x128B JUMPI RETURNDATASIZE PUSH1 0x0 DUP1 RETURNDATACOPY RETURNDATASIZE PUSH1 0x0 REVERT JUMPDEST POP POP POP POP PUSH1 0x0 PUSH1 0x64 DUP4 PUSH1 0x32 PUSH2 0x12A0 SWAP2 SWAP1 PUSH2 0x56D5 JUMP JUMPDEST PUSH2 0x12AA SWAP2 SWAP1 PUSH2 0x56EC JUMP JUMPDEST SWAP1 POP PUSH1 0x0 PUSH1 0x64 PUSH2 0x12BB DUP6 PUSH1 0x32 PUSH2 0x56D5 JUMP JUMPDEST PUSH2 0x12C5 SWAP2 SWAP1 PUSH2 0x56EC JUMP JUMPDEST SWAP1 POP PUSH2 0x12D0 DUP3 PUSH2 0x4078 JUMP JUMPDEST DUP1 PUSH1 0x30 PUSH1 0x0 DUP3 DUP3 SLOAD PUSH2 0x12E2 SWAP2 SWAP1 PUSH2 0x5721 JUMP JUMPDEST SWAP1 SWAP2 SSTORE POP POP PUSH1 0x40 MLOAD PUSH4 0xA9059CBB PUSH1 0xE0 SHL DUP2 MSTORE PUSH20 0x570A5D26F7765ECB712C0924E4DE545B89FD43DF SWAP1 PUSH4 0xA9059CBB SWAP1 PUSH2 0x1320 SWAP1 CALLER SWAP1 DUP8 SWAP1 PUSH1 0x4 ADD PUSH2 0x5734 JUMP JUMPDEST PUSH1 0x20 PUSH1 0x40 MLOAD DUP1 DUP4 SUB DUP2 PUSH1 0x0 DUP8 GAS CALL ISZERO DUP1 ISZERO PUSH2 0x133F JUMPI RETURNDATASIZE PUSH1 0x0 DUP1 RETURNDATACOPY RETURNDATASIZE PUSH1 0x0 REVERT JUMPDEST POP POP POP POP PUSH1 0x40 MLOAD RETURNDATASIZE PUSH1 0x1F NOT PUSH1 0x1F DUP3 ADD AND DUP3 ADD DUP1 PUSH1 0x40 MSTORE POP DUP2 ADD SWAP1 PUSH2 0x1363 SWAP2 SWAP1 PUSH2 0x574D JUMP JUMPDEST POP PUSH1 0x40 MLOAD DUP4 DUP2 MSTORE CALLER SWAP1 PUSH32 0x884EDAD9CE6FA2440D8A54CC123490EB96D2768479D49FF9C7366125A9424364 SWAP1 PUSH1 0x20 ADD PUSH1 0x40 MLOAD DUP1 SWAP2 SUB SWAP1 LOG2 POP POP POP POP POP PUSH2 0x13A7 PUSH1 0x1 DUP1 SSTORE JUMP JUMPDEST POP POP JUMP JUMPDEST PUSH2 0x13B3 PUSH2 0x40B5 JUMP JUMPDEST PUSH1 0x1 PUSH1 0x1 PUSH1 0xA0 SHL SUB DUP2 AND PUSH2 0x13D9 JUMPI PUSH1 0x40 MLOAD PUSH3 0x461BCD PUSH1 0xE5 SHL DUP2 MSTORE PUSH1 0x4 ADD PUSH2 0xFF0 SWAP1 PUSH2 0x576F JUMP JUMPDEST PUSH1 0x4 DUP1 SLOAD PUSH1 0x1 PUSH1 0x1 PUSH1 0xA0 SHL SUB NOT AND PUSH1 0x1 PUSH1 0x1 PUSH1 0xA0 SHL SUB DUP4 AND SWAP1 DUP2 OR SWAP1 SWAP2 SSTORE PUSH1 0x40 MLOAD PUSH32 0xFFCC1B307A30458349A19925C1146E13EB12C58B2F165C2FED220C294E81C758 SWAP1 PUSH1 0x0 SWAP1 LOG2 POP JUMP JUMPDEST PUSH2 0x142B PUSH2 0x401F JUMP JUMPDEST PUSH1 0xD SLOAD PUSH2 0x143B SWAP1 PUSH3 0x15180 PUSH2 0x5721 JUMP JUMPDEST TIMESTAMP LT ISZERO PUSH2 0x1476 JUMPI PUSH1 0x40 MLOAD PUSH3 0x461BCD PUSH1 0xE5 SHL DUP2 MSTORE PUSH1 0x20 PUSH1 0x4 DUP3 ADD MSTORE PUSH1 0x9 PUSH1 0x24 DUP3 ADD MSTORE PUSH9 0x746F6F206561726C79 PUSH1 0xB8 SHL PUSH1 0x44 DUP3 ADD MSTORE PUSH1 0x64 ADD PUSH2 0xFF0 JUMP JUMPDEST PUSH1 0x2 SLOAD PUSH1 0x40 DUP1 MLOAD PUSH4 0x18160DDD PUSH1 0xE0 SHL DUP2 MSTORE SWAP1 MLOAD PUSH1 0x0 SWAP3 PUSH1 0x1 PUSH1 0x1 PUSH1 0xA0 SHL SUB AND SWAP2 PUSH4 0x18160DDD SWAP2 PUSH1 0x4 DUP1 DUP4 ADD SWAP3 PUSH1 0x20 SWAP3 SWAP2 SWAP1 DUP3 SWAP1 SUB ADD DUP2 DUP7 GAS STATICCALL ISZERO DUP1 ISZERO PUSH2 0x14C0 JUMPI RETURNDATASIZE PUSH1 0x0 DUP1 RETURNDATACOPY RETURNDATASIZE PUSH1 0x0 REVERT JUMPDEST POP POP POP POP PUSH1 0x40 MLOAD RETURNDATASIZE PUSH1 0x1F NOT PUSH1 0x1F DUP3 ADD AND DUP3 ADD DUP1 PUSH1 0x40 MSTORE POP DUP2 ADD SWAP1 PUSH2 0x14E4 SWAP2 SWAP1 PUSH2 0x56A6 JUMP JUMPDEST SWAP1 POP PUSH1 0x0 PUSH2 0x3E8 PUSH1 0x6 SLOAD DUP4 PUSH2 0x14F9 SWAP2 SWAP1 PUSH2 0x56D5 JUMP JUMPDEST PUSH2 0x1503 SWAP2 SWAP1 PUSH2 0x56EC JUMP JUMPDEST SWAP1 POP PUSH1 0x0 PUSH1 0x64 PUSH1 0x7 SLOAD DUP4 PUSH2 0x1517 SWAP2 SWAP1 PUSH2 0x56D5 JUMP JUMPDEST PUSH2 0x1521 SWAP2 SWAP1 PUSH2 0x56EC JUMP JUMPDEST PUSH1 0x2 SLOAD PUSH1 0x40 MLOAD PUSH4 0x6E888389 PUSH1 0xE1 SHL DUP2 MSTORE PUSH1 0x4 DUP2 ADD DUP4 SWAP1 MSTORE SWAP2 SWAP3 POP PUSH1 0x1 PUSH1 0x1 PUSH1 0xA0 SHL SUB AND SWAP1 PUSH4 0xDD110712 SWAP1 PUSH1 0x24 ADD PUSH1 0x0 PUSH1 0x40 MLOAD DUP1 DUP4 SUB DUP2 PUSH1 0x0 DUP8 DUP1 EXTCODESIZE ISZERO DUP1 ISZERO PUSH2 0x1568 JUMPI PUSH1 0x0 DUP1 REVERT JUMPDEST POP GAS CALL ISZERO DUP1 ISZERO PUSH2 0x157C JUMPI RETURNDATASIZE PUSH1 0x0 DUP1 RETURNDATACOPY RETURNDATASIZE PUSH1 0x0 REVERT JUMPDEST POP POP POP POP PUSH1 0x1E PUSH1 0x7 SLOAD GT ISZERO PUSH2 0x15B4 JUMPI PUSH1 0x5 PUSH1 0x7 PUSH1 0x0 DUP3 DUP3 SLOAD PUSH2 0x159E SWAP2 SWAP1 PUSH2 0x570E JUMP JUMPDEST SWAP1 SWAP2 SSTORE POP POP PUSH1 0x7 SLOAD PUSH1 0x1E GT ISZERO PUSH2 0x15B4 JUMPI PUSH1 0x1E PUSH1 0x7 SSTORE JUMPDEST PUSH1 0x0 PUSH2 0x15C0 DUP3 DUP5 PUSH2 0x570E JUMP JUMPDEST SWAP1 POP PUSH1 0x0 PUSH1 0x64 PUSH2 0x15D1 DUP4 PUSH1 0x3C PUSH2 0x56D5 JUMP JUMPDEST PUSH2 0x15DB SWAP2 SWAP1 PUSH2 0x56EC JUMP JUMPDEST SWAP1 POP PUSH1 0x0 PUSH1 0x64 PUSH2 0x15EC DUP5 PUSH1 0xF PUSH2 0x56D5 JUMP JUMPDEST PUSH2 0x15F6 SWAP2 SWAP1 PUSH2 0x56EC JUMP JUMPDEST SWAP1 POP PUSH1 0x0 PUSH1 0x64 PUSH2 0x1607 DUP6 PUSH1 0x5 PUSH2 0x56D5 JUMP JUMPDEST PUSH2 0x1611 SWAP2 SWAP1 PUSH2 0x56EC JUMP JUMPDEST SWAP1 POP PUSH1 0x0 PUSH1 0x64 PUSH2 0x1622 DUP7 PUSH1 0x6 PUSH2 0x56D5 JUMP JUMPDEST PUSH2 0x162C SWAP2 SWAP1 PUSH2 0x56EC JUMP JUMPDEST SWAP1 POP PUSH1 0x0 PUSH1 0x64 PUSH2 0x163D DUP8 PUSH1 0xE PUSH2 0x56D5 JUMP JUMPDEST PUSH2 0x1647 SWAP2 SWAP1 PUSH2 0x56EC JUMP JUMPDEST PUSH1 0x20 SLOAD SWAP1 SWAP2 POP ISZERO PUSH2 0x1685 JUMPI PUSH1 0x20 SLOAD PUSH2 0x1664 DUP7 PUSH5 0xE8D4A51000 PUSH2 0x56D5 JUMP JUMPDEST PUSH2 0x166E SWAP2 SWAP1 PUSH2 0x56EC JUMP JUMPDEST PUSH1 0x47 PUSH1 0x0 DUP3 DUP3 SLOAD PUSH2 0x167F SWAP2 SWAP1 PUSH2 0x5721 JUMP JUMPDEST SWAP1 SWAP2 SSTORE POP POP JUMPDEST PUSH2 0x168E DUP5 PUSH2 0x410F JUMP JUMPDEST PUSH1 0x5 SLOAD PUSH1 0x0 SWAP1 PUSH2 0x16A6 DUP6 PUSH8 0xDE0B6B3A7640000 PUSH2 0x56D5 JUMP JUMPDEST PUSH2 0x16B0 SWAP2 SWAP1 PUSH2 0x56EC JUMP JUMPDEST PUSH1 0x2 SLOAD PUSH1 0x4 DUP1 SLOAD PUSH1 0x40 MLOAD PUSH4 0x40C10F19 PUSH1 0xE0 SHL DUP2 MSTORE SWAP4 SWAP5 POP PUSH1 0x1 PUSH1 0x1 PUSH1 0xA0 SHL SUB SWAP3 DUP4 AND SWAP4 PUSH4 0x40C10F19 SWAP4 PUSH2 0x16E8 SWAP4 SWAP3 AND SWAP2 DUP7 SWAP2 ADD PUSH2 0x5734 JUMP JUMPDEST PUSH1 0x0 PUSH1 0x40 MLOAD DUP1 DUP4 SUB DUP2 PUSH1 0x0 DUP8 DUP1 EXTCODESIZE ISZERO DUP1 ISZERO PUSH2 0x1702 JUMPI PUSH1 0x0 DUP1 REVERT JUMPDEST POP GAS CALL ISZERO DUP1 ISZERO PUSH2 0x1716 JUMPI RETURNDATASIZE PUSH1 0x0 DUP1 RETURNDATACOPY RETURNDATASIZE PUSH1 0x0 REVERT JUMPDEST POP POP POP POP PUSH2 0x1723 DUP4 PUSH2 0x44A8 JUMP JUMPDEST PUSH2 0x172C DUP3 PUSH2 0x44E5 JUMP JUMPDEST TIMESTAMP PUSH1 0xD DUP2 SWAP1 SSTORE PUSH1 0x40 DUP1 MLOAD DUP12 DUP2 MSTORE PUSH1 0x20 DUP2 ADD DUP12 SWAP1 MSTORE DUP1 DUP3 ADD SWAP3 SWAP1 SWAP3 MSTORE MLOAD PUSH32 0x645F9DE81BEE922BD76DCB18C2D7A6A22FF51E3995781EE9F65134B284E774B7 SWAP2 DUP2 SWAP1 SUB PUSH1 0x60 ADD SWAP1 LOG1 POP POP POP POP POP POP POP POP POP POP PUSH2 0x1785 PUSH1 0x1 DUP1 SSTORE JUMP JUMPDEST JUMP JUMPDEST PUSH1 0x1 PUSH1 0x1 PUSH1 0xA0 SHL SUB DUP3 AND PUSH1 0x0 SWAP1 DUP2 MSTORE PUSH1 0x23 PUSH1 0x20 MSTORE PUSH1 0x40 DUP2 KECCAK256 PUSH1 0x24 DUP1 SLOAD DUP4 SWAP2 SWAP1 DUP6 SWAP1 DUP2 LT PUSH2 0x17B6 JUMPI PUSH2 0x17B6 PUSH2 0x5798 JUMP JUMPDEST SWAP1 PUSH1 0x0 MSTORE PUSH1 0x20 PUSH1 0x0 KECCAK256 ADD SLOAD DUP2 MSTORE PUSH1 0x20 ADD SWAP1 DUP2 MSTORE PUSH1 0x20 ADD PUSH1 0x0 KECCAK256 SLOAD SWAP1 POP JUMPDEST SWAP3 SWAP2 POP POP JUMP JUMPDEST PUSH2 0x17E1 PUSH2 0x40B5 JUMP JUMPDEST PUSH1 0x0 JUMPDEST DUP2 DUP2 LT ISZERO PUSH2 0x191D JUMPI PUSH1 0x0 DUP4 DUP4 DUP4 DUP2 DUP2 LT PUSH2 0x1800 JUMPI PUSH2 0x1800 PUSH2 0x5798 JUMP JUMPDEST SWAP1 POP PUSH1 0x20 MUL ADD PUSH1 0x20 DUP2 ADD SWAP1 PUSH2 0x1815 SWAP2 SWAP1 PUSH2 0x5557 JUMP JUMPDEST SWAP1 POP PUSH1 0x1 PUSH1 0x1 PUSH1 0xA0 SHL SUB DUP2 AND ISZERO DUP1 ISZERO SWAP1 PUSH2 0x1848 JUMPI POP PUSH1 0x1 PUSH1 0x1 PUSH1 0xA0 SHL SUB DUP2 AND PUSH1 0x0 SWAP1 DUP2 MSTORE PUSH1 0x29 PUSH1 0x20 MSTORE PUSH1 0x40 SWAP1 KECCAK256 SLOAD PUSH1 0xFF AND ISZERO JUMPDEST ISZERO PUSH2 0x190A JUMPI PUSH1 0x1 PUSH1 0x1 PUSH1 0xA0 SHL SUB DUP2 AND PUSH1 0x0 DUP2 DUP2 MSTORE PUSH1 0x29 PUSH1 0x20 MSTORE PUSH1 0x40 DUP2 KECCAK256 DUP1 SLOAD PUSH1 0xFF NOT AND PUSH1 0x1 SWAP1 DUP2 OR SWAP1 SWAP2 SSTORE PUSH1 0x28 DUP1 SLOAD SWAP2 DUP3 ADD DUP2 SSTORE SWAP1 SWAP2 MSTORE PUSH32 0xE16DA923A2D88192E5070F37B4571D58682C0D66212EC634D495F33DE3F77AB5 ADD DUP1 SLOAD PUSH1 0x1 PUSH1 0x1 PUSH1 0xA0 SHL SUB NOT AND SWAP1 SWAP2 OR SWAP1 SSTORE PUSH1 0x2B SLOAD PUSH2 0x18C5 SWAP1 PUSH5 0xE8D4A51000 SWAP1 PUSH2 0x56EC JUMP JUMPDEST PUSH1 0x1 PUSH1 0x1 PUSH1 0xA0 SHL SUB DUP3 AND PUSH1 0x0 DUP2 DUP2 MSTORE PUSH1 0x2A PUSH1 0x20 MSTORE PUSH1 0x40 DUP1 DUP3 KECCAK256 SWAP4 SWAP1 SWAP4 SSTORE SWAP2 MLOAD SWAP1 SWAP2 PUSH32 0x6F60D1FEEC1D600E745D46F9EA18CD8B27754026D7BB1D859BF8A22248779BF9 SWAP2 LOG2 JUMPDEST POP DUP1 PUSH2 0x1915 DUP2 PUSH2 0x57AE JUMP JUMPDEST SWAP2 POP POP PUSH2 0x17E4 JUMP JUMPDEST POP POP POP JUMP JUMPDEST PUSH1 0x0 DUP1 PUSH1 0xC SLOAD TIMESTAMP PUSH2 0x1933 SWAP2 SWAP1 PUSH2 0x570E JUMP JUMPDEST SWAP1 POP PUSH1 0x0 PUSH1 0xB SLOAD DUP3 PUSH2 0x1945 SWAP2 SWAP1 PUSH2 0x56EC JUMP JUMPDEST SWAP1 POP PUSH1 0x2 DUP2 LT ISZERO PUSH2 0x1960 JUMPI PUSH8 0xDE0B6B3A7640000 SWAP3 POP POP POP SWAP1 JUMP JUMPDEST PUSH1 0x4 DUP2 LT ISZERO PUSH2 0x1979 JUMPI PUSH8 0xD02AB486CEDC0000 SWAP3 POP POP POP SWAP1 JUMP JUMPDEST PUSH1 0x6 DUP2 LT ISZERO PUSH2 0x1993 JUMPI PUSH9 0x1158E460913D00000 SWAP3 POP POP POP SWAP1 JUMP JUMPDEST PUSH1 0x9 SLOAD PUSH1 0x0 SWAP1 PUSH2 0x19A4 PUSH1 0x4 DUP5 PUSH2 0x570E JUMP JUMPDEST PUSH2 0x19AE SWAP2 SWAP1 PUSH2 0x56D5 JUMP JUMPDEST PUSH1 0x8 SLOAD PUSH2 0x19BB SWAP2 SWAP1 PUSH2 0x5721 JUMP JUMPDEST SWAP1 POP PUSH1 0xA SLOAD DUP2 GT ISZERO PUSH2 0x19CC JUMPI POP PUSH1 0xA SLOAD JUMPDEST SWAP4 SWAP3 POP POP POP JUMP JUMPDEST PUSH1 0x40 MLOAD PUSH4 0x70A08231 PUSH1 0xE0 SHL DUP2 MSTORE ADDRESS PUSH1 0x4 DUP3 ADD MSTORE PUSH1 0x0 SWAP1 PUSH20 0x570A5D26F7765ECB712C0924E4DE545B89FD43DF SWAP1 PUSH4 0x70A08231 SWAP1 PUSH1 0x24 ADD PUSH1 0x20 PUSH1 0x40 MLOAD DUP1 DUP4 SUB DUP2 DUP7 GAS STATICCALL ISZERO DUP1 ISZERO PUSH2 0x1A25 JUMPI RETURNDATASIZE PUSH1 0x0 DUP1 RETURNDATACOPY RETURNDATASIZE PUSH1 0x0 REVERT JUMPDEST POP POP POP POP PUSH1 0x40 MLOAD RETURNDATASIZE PUSH1 0x1F NOT PUSH1 0x1F DUP3 ADD AND DUP3 ADD DUP1 PUSH1 0x40 MSTORE POP DUP2 ADD SWAP1 PUSH2 0x1A49 SWAP2 SWAP1 PUSH2 0x56A6 JUMP JUMPDEST SWAP1 POP SWAP1 JUMP JUMPDEST PUSH1 0x1 PUSH1 0x1 PUSH1 0xA0 SHL SUB DUP2 AND ISZERO DUP1 ISZERO SWAP1 PUSH2 0x1A6F JUMPI POP PUSH1 0x1 PUSH1 0x1 PUSH1 0xA0 SHL SUB DUP2 AND CALLER EQ ISZERO JUMPDEST PUSH2 0x1AAE JUMPI PUSH1 0x40 MLOAD PUSH3 0x461BCD PUSH1 0xE5 SHL DUP2 MSTORE PUSH1 0x20 PUSH1 0x4 DUP3 ADD MSTORE PUSH1 0x10 PUSH1 0x24 DUP3 ADD MSTORE PUSH16 0x34B73B30B634B2103932B332B93932B9 PUSH1 0x81 SHL PUSH1 0x44 DUP3 ADD MSTORE PUSH1 0x64 ADD PUSH2 0xFF0 JUMP JUMPDEST CALLER PUSH1 0x0 SWAP1 DUP2 MSTORE PUSH1 0x1D PUSH1 0x20 MSTORE PUSH1 0x40 SWAP1 KECCAK256 SLOAD PUSH1 0x1 PUSH1 0x1 PUSH1 0xA0 SHL SUB AND ISZERO PUSH2 0x1B09 JUMPI PUSH1 0x40 MLOAD PUSH3 0x461BCD PUSH1 0xE5 SHL DUP2 MSTORE PUSH1 0x20 PUSH1 0x4 DUP3 ADD MSTORE PUSH1 0x12 PUSH1 0x24 DUP3 ADD MSTORE PUSH18 0x185B1C9958591E481C9959DA5CDD195C9959 PUSH1 0x72 SHL PUSH1 0x44 DUP3 ADD MSTORE PUSH1 0x64 ADD PUSH2 0xFF0 JUMP JUMPDEST PUSH1 0x1 PUSH1 0x1 PUSH1 0xA0 SHL SUB DUP2 AND PUSH1 0x0 SWAP1 DUP2 MSTORE PUSH1 0x1D PUSH1 0x20 MSTORE PUSH1 0x40 SWAP1 KECCAK256 PUSH1 0x7 ADD SLOAD PUSH1 0xFF AND PUSH2 0x1B74 JUMPI PUSH1 0x40 MLOAD PUSH3 0x461BCD PUSH1 0xE5 SHL DUP2 MSTORE PUSH1 0x20 PUSH1 0x4 DUP3 ADD MSTORE PUSH1 0x1D PUSH1 0x24 DUP3 ADD MSTORE PUSH32 0x7265666572726572206D7573742068617665206E6F6465206669727374000000 PUSH1 0x44 DUP3 ADD MSTORE PUSH1 0x64 ADD PUSH2 0xFF0 JUMP JUMPDEST CALLER PUSH1 0x0 SWAP1 DUP2 MSTORE PUSH1 0x1D PUSH1 0x20 MSTORE PUSH1 0x40 DUP1 DUP3 KECCAK256 DUP1 SLOAD PUSH1 0x1 PUSH1 0x1 PUSH1 0xA0 SHL SUB NOT AND PUSH1 0x1 PUSH1 0x1 PUSH1 0xA0 SHL SUB DUP6 AND SWAP1 DUP2 OR SWAP1 SWAP2 SSTORE DUP3 MSTORE DUP2 KECCAK256 PUSH1 0x1 ADD DUP1 SLOAD SWAP2 PUSH2 0x1BB3 DUP4 PUSH2 0x57AE JUMP JUMPDEST SWAP1 SWAP2 SSTORE POP POP PUSH1 0x1 PUSH1 0x1 PUSH1 0xA0 SHL SUB DUP2 AND PUSH1 0x0 SWAP1 DUP2 MSTORE PUSH1 0x1D PUSH1 0x20 MSTORE PUSH1 0x40 SWAP1 KECCAK256 PUSH2 0x1BDD SWAP1 PUSH1 0x9 ADD CALLER PUSH2 0x4586 JUMP JUMPDEST POP PUSH1 0x1E DUP1 SLOAD PUSH1 0x1 DUP2 ADD DUP3 SSTORE PUSH1 0x0 SWAP2 DUP3 MSTORE PUSH32 0x50BB669A95C7B50B7E8A6F09454034B2B14CF2B85C730DCA9A539CA82CB6E350 ADD DUP1 SLOAD PUSH1 0x1 PUSH1 0x1 PUSH1 0xA0 SHL SUB NOT AND CALLER SWAP1 DUP2 OR SWAP1 SWAP2 SSTORE PUSH1 0x40 MLOAD PUSH1 0x1 PUSH1 0x1 PUSH1 0xA0 SHL SUB DUP5 AND SWAP3 PUSH32 0x98ADA70A1CB506DC4591465E1EE9BE3FD7A2B6C73ECF3B949009718C9A351519 SWAP2 LOG3 POP JUMP JUMPDEST PUSH2 0x1C5E PUSH2 0x40B5 JUMP JUMPDEST PUSH1 0x0 DUP1 SLOAD PUSH1 0x40 MLOAD PUSH1 0x1 PUSH1 0x1 PUSH1 0xA0 SHL SUB SWAP1 SWAP2 AND SWAP2 SELFBALANCE DUP1 ISZERO PUSH2 0x8FC MUL SWAP3 SWAP1 SWAP2 DUP2 DUP2 DUP2 DUP6 DUP9 DUP9 CALL SWAP4 POP POP POP POP ISZERO DUP1 ISZERO PUSH2 0x1C98 JUMPI RETURNDATASIZE PUSH1 0x0 DUP1 RETURNDATACOPY RETURNDATASIZE PUSH1 0x0 REVERT JUMPDEST POP JUMP JUMPDEST PUSH1 0x3E DUP2 PUSH1 0x8 DUP2 LT PUSH2 0x1CAB JUMPI PUSH1 0x0 DUP1 REVERT JUMPDEST ADD SLOAD SWAP1 POP DUP2 JUMP JUMPDEST PUSH1 0x1 PUSH1 0x1 PUSH1 0xA0 SHL SUB DUP2 DUP2 AND PUSH1 0x0 SWAP1 DUP2 MSTORE PUSH1 0x1D PUSH1 0x20 MSTORE PUSH1 0x40 DUP2 KECCAK256 SLOAD SWAP1 SWAP2 AND PUSH2 0x1CDB JUMPI POP PUSH1 0x0 SWAP2 SWAP1 POP JUMP JUMPDEST PUSH2 0x1CE4 DUP3 PUSH2 0x459B JUMP JUMPDEST PUSH2 0x1CF0 JUMPI POP PUSH1 0x0 SWAP2 SWAP1 POP JUMP JUMPDEST PUSH1 0x1 PUSH1 0x1 PUSH1 0xA0 SHL SUB DUP3 AND PUSH1 0x0 SWAP1 DUP2 MSTORE PUSH1 0x1D PUSH1 0x20 MSTORE PUSH1 0x40 SWAP1 KECCAK256 PUSH1 0x7 ADD SLOAD PUSH2 0x100 SWAP1 DIV PUSH1 0xFF AND ISZERO DUP1 ISZERO PUSH2 0x1D3D JUMPI POP PUSH1 0x1 PUSH1 0x1 PUSH1 0xA0 SHL SUB DUP3 AND PUSH1 0x0 SWAP1 DUP2 MSTORE PUSH1 0x1D PUSH1 0x20 MSTORE PUSH1 0x40 SWAP1 KECCAK256 PUSH1 0x7 ADD SLOAD PUSH1 0xFF AND ISZERO JUMPDEST ISZERO PUSH2 0x1D4A JUMPI POP PUSH1 0x0 SWAP2 SWAP1 POP JUMP JUMPDEST POP PUSH1 0x1 SWAP2 SWAP1 POP JUMP JUMPDEST PUSH2 0x1D5A PUSH2 0x40B5 JUMP JUMPDEST PUSH1 0x1 PUSH1 0x1 PUSH1 0xA0 SHL SUB DUP2 AND PUSH1 0x0 SWAP1 DUP2 MSTORE PUSH1 0x29 PUSH1 0x20 MSTORE PUSH1 0x40 SWAP1 KECCAK256 SLOAD PUSH1 0xFF AND PUSH2 0x1DB5 JUMPI PUSH1 0x40 MLOAD PUSH3 0x461BCD PUSH1 0xE5 SHL DUP2 MSTORE PUSH1 0x20 PUSH1 0x4 DUP3 ADD MSTORE PUSH1 0x10 PUSH1 0x24 DUP3 ADD MSTORE PUSH16 0x1B9BDD081A5B881DDA1A5D195B1A5CDD PUSH1 0x82 SHL PUSH1 0x44 DUP3 ADD MSTORE PUSH1 0x64 ADD PUSH2 0xFF0 JUMP JUMPDEST PUSH1 0x1 PUSH1 0x1 PUSH1 0xA0 SHL SUB DUP2 AND PUSH1 0x0 SWAP1 DUP2 MSTORE PUSH1 0x29 PUSH1 0x20 MSTORE PUSH1 0x40 DUP2 KECCAK256 DUP1 SLOAD PUSH1 0xFF NOT AND SWAP1 SSTORE JUMPDEST PUSH1 0x28 SLOAD DUP2 LT ISZERO PUSH2 0x1EDB JUMPI DUP2 PUSH1 0x1 PUSH1 0x1 PUSH1 0xA0 SHL SUB AND PUSH1 0x28 DUP3 DUP2 SLOAD DUP2 LT PUSH2 0x1DFD JUMPI PUSH2 0x1DFD PUSH2 0x5798 JUMP JUMPDEST PUSH1 0x0 SWAP2 DUP3 MSTORE PUSH1 0x20 SWAP1 SWAP2 KECCAK256 ADD SLOAD PUSH1 0x1 PUSH1 0x1 PUSH1 0xA0 SHL SUB AND SUB PUSH2 0x1EC9 JUMPI PUSH1 0x28 DUP1 SLOAD PUSH2 0x1E27 SWAP1 PUSH1 0x1 SWAP1 PUSH2 0x570E JUMP JUMPDEST DUP2 SLOAD DUP2 LT PUSH2 0x1E37 JUMPI PUSH2 0x1E37 PUSH2 0x5798 JUMP JUMPDEST PUSH1 0x0 SWAP2 DUP3 MSTORE PUSH1 0x20 SWAP1 SWAP2 KECCAK256 ADD SLOAD PUSH1 0x28 DUP1 SLOAD PUSH1 0x1 PUSH1 0x1 PUSH1 0xA0 SHL SUB SWAP1 SWAP3 AND SWAP2 DUP4 SWAP1 DUP2 LT PUSH2 0x1E63 JUMPI PUSH2 0x1E63 PUSH2 0x5798 JUMP JUMPDEST SWAP1 PUSH1 0x0 MSTORE PUSH1 0x20 PUSH1 0x0 KECCAK256 ADD PUSH1 0x0 PUSH2 0x100 EXP DUP2 SLOAD DUP2 PUSH1 0x1 PUSH1 0x1 PUSH1 0xA0 SHL SUB MUL NOT AND SWAP1 DUP4 PUSH1 0x1 PUSH1 0x1 PUSH1 0xA0 SHL SUB AND MUL OR SWAP1 SSTORE POP PUSH1 0x28 DUP1 SLOAD DUP1 PUSH2 0x1EA2 JUMPI PUSH2 0x1EA2 PUSH2 0x57C7 JUMP JUMPDEST PUSH1 0x0 DUP3 DUP2 MSTORE PUSH1 0x20 SWAP1 KECCAK256 DUP2 ADD PUSH1 0x0 NOT SWAP1 DUP2 ADD DUP1 SLOAD PUSH1 0x1 PUSH1 0x1 PUSH1 0xA0 SHL SUB NOT AND SWAP1 SSTORE ADD SWAP1 SSTORE PUSH2 0x1EDB JUMP JUMPDEST DUP1 PUSH2 0x1ED3 DUP2 PUSH2 0x57AE JUMP JUMPDEST SWAP2 POP POP PUSH2 0x1DD6 JUMP JUMPDEST POP PUSH1 0x40 MLOAD PUSH1 0x1 PUSH1 0x1 PUSH1 0xA0 SHL SUB DUP3 AND SWAP1 PUSH32 0x3FAA13DD24593D5E2F98B7DA28654AC0EE03D67CB6E0ECC5B530CF22D0DE71A0 SWAP1 PUSH1 0x0 SWAP1 LOG2 POP JUMP JUMPDEST PUSH2 0x1F1B PUSH2 0x40B5 JUMP JUMPDEST PUSH1 0x40 MLOAD PUSH4 0x70A08231 PUSH1 0xE0 SHL DUP2 MSTORE ADDRESS PUSH1 0x4 DUP3 ADD MSTORE DUP2 SWAP1 PUSH20 0x570A5D26F7765ECB712C0924E4DE545B89FD43DF SWAP1 PUSH4 0x70A08231 SWAP1 PUSH1 0x24 ADD PUSH1 0x20 PUSH1 0x40 MLOAD DUP1 DUP4 SUB DUP2 DUP7 GAS STATICCALL ISZERO DUP1 ISZERO PUSH2 0x1F6C JUMPI RETURNDATASIZE PUSH1 0x0 DUP1 RETURNDATACOPY RETURNDATASIZE PUSH1 0x0 REVERT JUMPDEST POP POP POP POP PUSH1 0x40 MLOAD RETURNDATASIZE PUSH1 0x1F NOT PUSH1 0x1F DUP3 ADD AND DUP3 ADD DUP1 PUSH1 0x40 MSTORE POP DUP2 ADD SWAP1 PUSH2 0x1F90 SWAP2 SWAP1 PUSH2 0x56A6 JUMP JUMPDEST LT ISZERO PUSH2 0x1FAE JUMPI PUSH1 0x40 MLOAD PUSH3 0x461BCD PUSH1 0xE5 SHL DUP2 MSTORE PUSH1 0x4 ADD PUSH2 0xFF0 SWAP1 PUSH2 0x57DD JUMP JUMPDEST PUSH20 0x570A5D26F7765ECB712C0924E4DE545B89FD43DF PUSH4 0xA9059CBB PUSH2 0x1FDA PUSH1 0x0 SLOAD PUSH1 0x1 PUSH1 0x1 PUSH1 0xA0 SHL SUB AND SWAP1 JUMP JUMPDEST DUP4 PUSH1 0x40 MLOAD DUP4 PUSH4 0xFFFFFFFF AND PUSH1 0xE0 SHL DUP2 MSTORE PUSH1 0x4 ADD PUSH2 0x1FF8 SWAP3 SWAP2 SWAP1 PUSH2 0x5734 JUMP JUMPDEST PUSH1 0x20 PUSH1 0x40 MLOAD DUP1 DUP4 SUB DUP2 PUSH1 0x0 DUP8 GAS CALL ISZERO DUP1 ISZERO PUSH2 0x2017 JUMPI RETURNDATASIZE PUSH1 0x0 DUP1 RETURNDATACOPY RETURNDATASIZE PUSH1 0x0 REVERT JUMPDEST POP POP POP POP PUSH1 0x40 MLOAD RETURNDATASIZE PUSH1 0x1F NOT PUSH1 0x1F DUP3 ADD AND DUP3 ADD DUP1 PUSH1 0x40 MSTORE POP DUP2 ADD SWAP1 PUSH2 0x13A7 SWAP2 SWAP1 PUSH2 0x574D JUMP JUMPDEST PUSH2 0x2043 PUSH2 0x401F JUMP JUMPDEST CALLER PUSH1 0x0 SWAP1 DUP2 MSTORE PUSH1 0x2C PUSH1 0x20 MSTORE PUSH1 0x40 SWAP1 KECCAK256 SLOAD PUSH1 0xFF AND ISZERO PUSH2 0x2073 JUMPI PUSH1 0x40 MLOAD PUSH3 0x461BCD PUSH1 0xE5 SHL DUP2 MSTORE PUSH1 0x4 ADD PUSH2 0xFF0 SWAP1 PUSH2 0x5677 JUMP JUMPDEST PUSH1 0x3 SLOAD PUSH1 0x40 MLOAD PUSH4 0x70A08231 PUSH1 0xE0 SHL DUP2 MSTORE CALLER PUSH1 0x4 DUP3 ADD MSTORE PUSH1 0x0 SWAP2 DUP3 SWAP2 PUSH1 0x1 PUSH1 0x1 PUSH1 0xA0 SHL SUB SWAP1 SWAP2 AND SWAP1 PUSH4 0x70A08231 SWAP1 PUSH1 0x24 ADD PUSH1 0x20 PUSH1 0x40 MLOAD DUP1 DUP4 SUB DUP2 DUP7 GAS STATICCALL ISZERO DUP1 ISZERO PUSH2 0x20C0 JUMPI RETURNDATASIZE PUSH1 0x0 DUP1 RETURNDATACOPY RETURNDATASIZE PUSH1 0x0 REVERT JUMPDEST POP POP POP POP PUSH1 0x40 MLOAD RETURNDATASIZE PUSH1 0x1F NOT PUSH1 0x1F DUP3 ADD AND DUP3 ADD DUP1 PUSH1 0x40 MSTORE POP DUP2 ADD SWAP1 PUSH2 0x20E4 SWAP2 SWAP1 PUSH2 0x56A6 JUMP JUMPDEST SWAP1 POP PUSH1 0x0 PUSH2 0x20F1 CALLER PUSH2 0x2422 JUMP JUMPDEST POP POP SWAP1 POP DUP1 PUSH2 0x2137 JUMPI PUSH1 0x40 MLOAD PUSH3 0x461BCD PUSH1 0xE5 SHL DUP2 MSTORE PUSH1 0x20 PUSH1 0x4 DUP3 ADD MSTORE PUSH1 0x12 PUSH1 0x24 DUP3 ADD MSTORE PUSH18 0x1B9BD919481B9BDD081C5D585B1A599A5959 PUSH1 0x72 SHL PUSH1 0x44 DUP3 ADD MSTORE PUSH1 0x64 ADD PUSH2 0xFF0 JUMP JUMPDEST PUSH1 0x0 JUMPDEST DUP3 DUP2 LT ISZERO PUSH2 0x22FB JUMPI PUSH1 0x3 SLOAD PUSH1 0x40 MLOAD PUSH4 0x2F745C59 PUSH1 0xE0 SHL DUP2 MSTORE PUSH1 0x0 SWAP2 PUSH1 0x1 PUSH1 0x1 PUSH1 0xA0 SHL SUB AND SWAP1 PUSH4 0x2F745C59 SWAP1 PUSH2 0x2175 SWAP1 CALLER SWAP1 DUP7 SWAP1 PUSH1 0x4 ADD PUSH2 0x5734 JUMP JUMPDEST PUSH1 0x20 PUSH1 0x40 MLOAD DUP1 DUP4 SUB DUP2 DUP7 GAS STATICCALL ISZERO DUP1 ISZERO PUSH2 0x2192 JUMPI RETURNDATASIZE PUSH1 0x0 DUP1 RETURNDATACOPY RETURNDATASIZE PUSH1 0x0 REVERT JUMPDEST POP POP POP POP PUSH1 0x40 MLOAD RETURNDATASIZE PUSH1 0x1F NOT PUSH1 0x1F DUP3 ADD AND DUP3 ADD DUP1 PUSH1 0x40 MSTORE POP DUP2 ADD SWAP1 PUSH2 0x21B6 SWAP2 SWAP1 PUSH2 0x56A6 JUMP JUMPDEST PUSH1 0x3 SLOAD PUSH1 0x40 MLOAD PUSH4 0xFCF49ADF PUSH1 0xE0 SHL DUP2 MSTORE PUSH1 0x4 DUP2 ADD DUP4 SWAP1 MSTORE SWAP2 SWAP3 POP PUSH1 0x0 SWAP2 PUSH1 0x1 PUSH1 0x1 PUSH1 0xA0 SHL SUB SWAP1 SWAP2 AND SWAP1 PUSH4 0xFCF49ADF SWAP1 PUSH1 0x24 ADD PUSH1 0x20 PUSH1 0x40 MLOAD DUP1 DUP4 SUB DUP2 DUP7 GAS STATICCALL ISZERO DUP1 ISZERO PUSH2 0x2205 JUMPI RETURNDATASIZE PUSH1 0x0 DUP1 RETURNDATACOPY RETURNDATASIZE PUSH1 0x0 REVERT JUMPDEST POP POP POP POP PUSH1 0x40 MLOAD RETURNDATASIZE PUSH1 0x1F NOT PUSH1 0x1F DUP3 ADD AND DUP3 ADD DUP1 PUSH1 0x40 MSTORE POP DUP2 ADD SWAP1 PUSH2 0x2229 SWAP2 SWAP1 PUSH2 0x56A6 JUMP JUMPDEST SWAP1 POP PUSH1 0x0 PUSH2 0x2238 PUSH1 0x1 DUP4 PUSH2 0x570E JUMP JUMPDEST CALLER PUSH1 0x0 SWAP1 DUP2 MSTORE PUSH1 0x35 PUSH1 0x20 MSTORE PUSH1 0x40 DUP2 KECCAK256 SWAP2 SWAP3 POP SWAP1 DUP3 PUSH1 0x3 DUP2 LT PUSH2 0x225C JUMPI PUSH2 0x225C PUSH2 0x5798 JUMP JUMPDEST ADD SLOAD PUSH5 0xE8D4A51000 PUSH1 0x32 DUP5 PUSH1 0x3 DUP2 LT PUSH2 0x2277 JUMPI PUSH2 0x2277 PUSH2 0x5798 JUMP JUMPDEST ADD SLOAD PUSH2 0x2283 SWAP2 SWAP1 PUSH2 0x56EC JUMP JUMPDEST PUSH2 0x228D SWAP2 SWAP1 PUSH2 0x570E JUMP JUMPDEST SWAP1 POP PUSH2 0x2299 DUP2 DUP10 PUSH2 0x5721 JUMP JUMPDEST SWAP8 POP PUSH5 0xE8D4A51000 PUSH1 0x32 DUP4 PUSH1 0x3 DUP2 LT PUSH2 0x22B4 JUMPI PUSH2 0x22B4 PUSH2 0x5798 JUMP JUMPDEST ADD SLOAD PUSH2 0x22C0 SWAP2 SWAP1 PUSH2 0x56EC JUMP JUMPDEST CALLER PUSH1 0x0 SWAP1 DUP2 MSTORE PUSH1 0x35 PUSH1 0x20 MSTORE PUSH1 0x40 SWAP1 KECCAK256 DUP4 PUSH1 0x3 DUP2 LT PUSH2 0x22E0 JUMPI PUSH2 0x22E0 PUSH2 0x5798 JUMP JUMPDEST ADD SSTORE POP DUP4 SWAP3 POP PUSH2 0x22F3 SWAP2 POP DUP3 SWAP1 POP PUSH2 0x57AE JUMP JUMPDEST SWAP2 POP POP PUSH2 0x213A JUMP JUMPDEST POP PUSH1 0x0 DUP4 GT PUSH2 0x231C JUMPI PUSH1 0x40 MLOAD PUSH3 0x461BCD PUSH1 0xE5 SHL DUP2 MSTORE PUSH1 0x4 ADD PUSH2 0xFF0 SWAP1 PUSH2 0x580B JUMP JUMPDEST PUSH1 0x5 SLOAD PUSH1 0x0 SWAP1 PUSH2 0x2334 DUP6 PUSH8 0xDE0B6B3A7640000 PUSH2 0x56D5 JUMP JUMPDEST PUSH2 0x233E SWAP2 SWAP1 PUSH2 0x56EC JUMP JUMPDEST PUSH1 0x2 SLOAD PUSH1 0x40 MLOAD PUSH4 0x40C10F19 PUSH1 0xE0 SHL DUP2 MSTORE SWAP2 SWAP3 POP PUSH1 0x1 PUSH1 0x1 PUSH1 0xA0 SHL SUB AND SWAP1 PUSH4 0x40C10F19 SWAP1 PUSH2 0x2371 SWAP1 CALLER SWAP1 DUP6 SWAP1 PUSH1 0x4 ADD PUSH2 0x5734 JUMP JUMPDEST PUSH1 0x0 PUSH1 0x40 MLOAD DUP1 DUP4 SUB DUP2 PUSH1 0x0 DUP8 DUP1 EXTCODESIZE ISZERO DUP1 ISZERO PUSH2 0x238B JUMPI PUSH1 0x0 DUP1 REVERT JUMPDEST POP GAS CALL ISZERO DUP1 ISZERO PUSH2 0x239F JUMPI RETURNDATASIZE PUSH1 0x0 DUP1 RETURNDATACOPY RETURNDATASIZE PUSH1 0x0 REVERT JUMPDEST POP POP PUSH1 0x40 MLOAD DUP7 DUP2 MSTORE CALLER SWAP3 POP PUSH32 0x30F4E2FF758C62D61BB151D75A67E6E282C1536C30D83481C7F0855937D2EAE5 SWAP2 POP PUSH1 0x20 ADD JUMPDEST PUSH1 0x40 MLOAD DUP1 SWAP2 SUB SWAP1 LOG2 POP POP POP POP PUSH2 0x1785 PUSH1 0x1 DUP1 SSTORE JUMP JUMPDEST PUSH2 0x23EE PUSH2 0x40B5 JUMP JUMPDEST PUSH2 0x1785 PUSH1 0x0 PUSH2 0x463F JUMP JUMPDEST PUSH1 0x28 DUP2 DUP2 SLOAD DUP2 LT PUSH2 0x2408 JUMPI PUSH1 0x0 DUP1 REVERT JUMPDEST PUSH1 0x0 SWAP2 DUP3 MSTORE PUSH1 0x20 SWAP1 SWAP2 KECCAK256 ADD SLOAD PUSH1 0x1 PUSH1 0x1 PUSH1 0xA0 SHL SUB AND SWAP1 POP DUP2 JUMP JUMPDEST PUSH1 0x3 SLOAD PUSH1 0x40 MLOAD PUSH4 0x70A08231 PUSH1 0xE0 SHL DUP2 MSTORE PUSH1 0x1 PUSH1 0x1 PUSH1 0xA0 SHL SUB DUP4 DUP2 AND PUSH1 0x4 DUP4 ADD MSTORE PUSH1 0x0 SWAP3 DUP4 SWAP3 DUP4 SWAP3 DUP4 SWAP3 AND SWAP1 PUSH4 0x70A08231 SWAP1 PUSH1 0x24 ADD PUSH1 0x20 PUSH1 0x40 MLOAD DUP1 DUP4 SUB DUP2 DUP7 GAS STATICCALL ISZERO DUP1 ISZERO PUSH2 0x2473 JUMPI RETURNDATASIZE PUSH1 0x0 DUP1 RETURNDATACOPY RETURNDATASIZE PUSH1 0x0 REVERT JUMPDEST POP POP POP POP PUSH1 0x40 MLOAD RETURNDATASIZE PUSH1 0x1F NOT PUSH1 0x1F DUP3 ADD AND DUP3 ADD DUP1 PUSH1 0x40 MSTORE POP DUP2 ADD SWAP1 PUSH2 0x2497 SWAP2 SWAP1 PUSH2 0x56A6 JUMP JUMPDEST SWAP1 POP DUP1 PUSH1 0x0 SUB PUSH2 0x24B2 JUMPI PUSH1 0x0 DUP1 PUSH1 0x0 SWAP4 POP SWAP4 POP SWAP4 POP POP PUSH2 0x2661 JUMP JUMPDEST PUSH1 0x0 DUP1 JUMPDEST DUP3 DUP2 LT ISZERO PUSH2 0x25C8 JUMPI PUSH1 0x3 SLOAD PUSH1 0x40 MLOAD PUSH4 0x2F745C59 PUSH1 0xE0 SHL DUP2 MSTORE PUSH1 0x0 SWAP2 PUSH1 0x1 PUSH1 0x1 PUSH1 0xA0 SHL SUB AND SWAP1 PUSH4 0x2F745C59 SWAP1 PUSH2 0x24F1 SWAP1 DUP12 SWAP1 DUP7 SWAP1 PUSH1 0x4 ADD PUSH2 0x5734 JUMP JUMPDEST PUSH1 0x20 PUSH1 0x40 MLOAD DUP1 DUP4 SUB DUP2 DUP7 GAS STATICCALL ISZERO DUP1 ISZERO PUSH2 0x250E JUMPI RETURNDATASIZE PUSH1 0x0 DUP1 RETURNDATACOPY RETURNDATASIZE PUSH1 0x0 REVERT JUMPDEST POP POP POP POP PUSH1 0x40 MLOAD RETURNDATASIZE PUSH1 0x1F NOT PUSH1 0x1F DUP3 ADD AND DUP3 ADD DUP1 PUSH1 0x40 MSTORE POP DUP2 ADD SWAP1 PUSH2 0x2532 SWAP2 SWAP1 PUSH2 0x56A6 JUMP JUMPDEST PUSH1 0x3 SLOAD PUSH1 0x40 MLOAD PUSH4 0xFCF49ADF PUSH1 0xE0 SHL DUP2 MSTORE PUSH1 0x4 DUP2 ADD DUP4 SWAP1 MSTORE SWAP2 SWAP3 POP PUSH1 0x0 SWAP2 PUSH1 0x1 PUSH1 0x1 PUSH1 0xA0 SHL SUB SWAP1 SWAP2 AND SWAP1 PUSH4 0xFCF49ADF SWAP1 PUSH1 0x24 ADD PUSH1 0x20 PUSH1 0x40 MLOAD DUP1 DUP4 SUB DUP2 DUP7 GAS STATICCALL ISZERO DUP1 ISZERO PUSH2 0x2581 JUMPI RETURNDATASIZE PUSH1 0x0 DUP1 RETURNDATACOPY RETURNDATASIZE PUSH1 0x0 REVERT JUMPDEST POP POP POP POP PUSH1 0x40 MLOAD RETURNDATASIZE PUSH1 0x1F NOT PUSH1 0x1F DUP3 ADD AND DUP3 ADD DUP1 PUSH1 0x40 MSTORE POP DUP2 ADD SWAP1 PUSH2 0x25A5 SWAP2 SWAP1 PUSH2 0x56A6 JUMP JUMPDEST SWAP1 POP DUP4 DUP2 GT ISZERO PUSH2 0x25B3 JUMPI DUP1 SWAP4 POP JUMPDEST POP POP DUP1 DUP1 PUSH2 0x25C0 SWAP1 PUSH2 0x57AE JUMP JUMPDEST SWAP2 POP POP PUSH2 0x24B6 JUMP JUMPDEST POP PUSH1 0x3 SLOAD PUSH1 0x40 MLOAD PUSH4 0x118A7F5 PUSH1 0xE7 SHL DUP2 MSTORE PUSH1 0x4 DUP2 ADD DUP4 SWAP1 MSTORE PUSH1 0x0 SWAP2 PUSH1 0x1 PUSH1 0x1 PUSH1 0xA0 SHL SUB AND SWAP1 PUSH4 0x8C53FA80 SWAP1 PUSH1 0x24 ADD PUSH1 0x20 PUSH1 0x40 MLOAD DUP1 DUP4 SUB DUP2 DUP7 GAS STATICCALL ISZERO DUP1 ISZERO PUSH2 0x2613 JUMPI RETURNDATASIZE PUSH1 0x0 DUP1 RETURNDATACOPY RETURNDATASIZE PUSH1 0x0 REVERT JUMPDEST POP POP POP POP PUSH1 0x40 MLOAD RETURNDATASIZE PUSH1 0x1F NOT PUSH1 0x1F DUP3 ADD AND DUP3 ADD DUP1 PUSH1 0x40 MSTORE POP DUP2 ADD SWAP1 PUSH2 0x2637 SWAP2 SWAP1 PUSH2 0x56A6 JUMP JUMPDEST PUSH1 0x1 PUSH1 0x1 PUSH1 0xA0 SHL SUB DUP9 AND PUSH1 0x0 SWAP1 DUP2 MSTORE PUSH1 0x1D PUSH1 0x20 MSTORE PUSH1 0x40 SWAP1 KECCAK256 PUSH1 0x8 ADD SLOAD DUP2 DUP2 LT ISZERO SWAP8 POP SWAP6 POP SWAP4 POP POP POP POP JUMPDEST SWAP2 SWAP4 SWAP1 SWAP3 POP JUMP JUMPDEST PUSH1 0x60 PUSH1 0x28 DUP1 SLOAD DUP1 PUSH1 0x20 MUL PUSH1 0x20 ADD PUSH1 0x40 MLOAD SWAP1 DUP2 ADD PUSH1 0x40 MSTORE DUP1 SWAP3 SWAP2 SWAP1 DUP2 DUP2 MSTORE PUSH1 0x20 ADD DUP3 DUP1 SLOAD DUP1 ISZERO PUSH2 0x26C0 JUMPI PUSH1 0x20 MUL DUP3 ADD SWAP2 SWAP1 PUSH1 0x0 MSTORE PUSH1 0x20 PUSH1 0x0 KECCAK256 SWAP1 JUMPDEST DUP2 SLOAD PUSH1 0x1 PUSH1 0x1 PUSH1 0xA0 SHL SUB AND DUP2 MSTORE PUSH1 0x1 SWAP1 SWAP2 ADD SWAP1 PUSH1 0x20 ADD DUP1 DUP4 GT PUSH2 0x26A2 JUMPI JUMPDEST POP POP POP POP POP SWAP1 POP SWAP1 JUMP JUMPDEST PUSH1 0xE DUP2 PUSH1 0x7 DUP2 LT PUSH2 0x1CAB JUMPI PUSH1 0x0 DUP1 REVERT JUMPDEST PUSH2 0x26E2 PUSH2 0x401F JUMP JUMPDEST PUSH1 0x24 SLOAD DUP2 LT PUSH2 0x2724 JUMPI PUSH1 0x40 MLOAD PUSH3 0x461BCD PUSH1 0xE5 SHL DUP2 MSTORE PUSH1 0x20 PUSH1 0x4 DUP3 ADD MSTORE PUSH1 0xE PUSH1 0x24 DUP3 ADD MSTORE PUSH14 0x1A5B9D985B1A59081C195C9A5BD9 PUSH1 0x92 SHL PUSH1 0x44 DUP3 ADD MSTORE PUSH1 0x64 ADD PUSH2 0xFF0 JUMP JUMPDEST PUSH1 0x0 PUSH1 0x24 DUP3 DUP2 SLOAD DUP2 LT PUSH2 0x2739 JUMPI PUSH2 0x2739 PUSH2 0x5798 JUMP JUMPDEST PUSH1 0x0 SWAP2 DUP3 MSTORE PUSH1 0x20 DUP1 DUP4 KECCAK256 SWAP1 SWAP2 ADD SLOAD CALLER DUP4 MSTORE PUSH1 0x23 DUP3 MSTORE PUSH1 0x40 DUP1 DUP5 KECCAK256 DUP3 DUP6 MSTORE SWAP1 SWAP3 MSTORE SWAP2 KECCAK256 SLOAD SWAP1 SWAP2 POP DUP1 PUSH2 0x2797 JUMPI PUSH1 0x40 MLOAD PUSH3 0x461BCD PUSH1 0xE5 SHL DUP2 MSTORE PUSH1 0x20 PUSH1 0x4 DUP3 ADD MSTORE PUSH1 0x8 PUSH1 0x24 DUP3 ADD MSTORE PUSH8 0x6E6F207374616B65 PUSH1 0xC0 SHL PUSH1 0x44 DUP3 ADD MSTORE PUSH1 0x64 ADD PUSH2 0xFF0 JUMP JUMPDEST PUSH2 0x27A1 CALLER DUP4 PUSH2 0x468F JUMP JUMPDEST CALLER PUSH1 0x0 SWAP1 DUP2 MSTORE PUSH1 0x23 PUSH1 0x20 SWAP1 DUP2 MSTORE PUSH1 0x40 DUP1 DUP4 KECCAK256 DUP6 DUP5 MSTORE DUP3 MSTORE DUP1 DUP4 KECCAK256 DUP4 SWAP1 SSTORE PUSH1 0x27 SWAP1 SWAP2 MSTORE DUP2 KECCAK256 DUP1 SLOAD DUP4 SWAP3 SWAP1 PUSH2 0x27D5 SWAP1 DUP5 SWAP1 PUSH2 0x570E JUMP JUMPDEST SWAP1 SWAP2 SSTORE POP POP PUSH1 0x2 SLOAD PUSH1 0x40 MLOAD PUSH4 0xA9059CBB PUSH1 0xE0 SHL DUP2 MSTORE PUSH1 0x1 PUSH1 0x1 PUSH1 0xA0 SHL SUB SWAP1 SWAP2 AND SWAP1 PUSH4 0xA9059CBB SWAP1 PUSH2 0x280C SWAP1 CALLER SWAP1 DUP6 SWAP1 PUSH1 0x4 ADD PUSH2 0x5734 JUMP JUMPDEST PUSH1 0x20 PUSH1 0x40 MLOAD DUP1 DUP4 SUB DUP2 PUSH1 0x0 DUP8 GAS CALL ISZERO DUP1 ISZERO PUSH2 0x282B JUMPI RETURNDATASIZE PUSH1 0x0 DUP1 RETURNDATACOPY RETURNDATASIZE PUSH1 0x0 REVERT JUMPDEST POP POP POP POP PUSH1 0x40 MLOAD RETURNDATASIZE PUSH1 0x1F NOT PUSH1 0x1F DUP3 ADD AND DUP3 ADD DUP1 PUSH1 0x40 MSTORE POP DUP2 ADD SWAP1 PUSH2 0x284F SWAP2 SWAP1 PUSH2 0x574D JUMP JUMPDEST POP PUSH1 0x40 DUP1 MLOAD DUP3 DUP2 MSTORE PUSH1 0x20 DUP2 ADD DUP5 SWAP1 MSTORE CALLER SWAP2 PUSH32 0xB16EAD3739CAC2505095AF2275C1F8ADE1FE8F49D2D24D0E56DB2198C40DE152 SWAP2 ADD JUMPDEST PUSH1 0x40 MLOAD DUP1 SWAP2 SUB SWAP1 LOG2 POP POP PUSH2 0x1C98 PUSH1 0x1 DUP1 SSTORE JUMP JUMPDEST PUSH1 0x25 DUP2 DUP2 SLOAD DUP2 LT PUSH2 0x28A7 JUMPI PUSH1 0x0 DUP1 REVERT JUMPDEST PUSH1 0x0 SWAP2 DUP3 MSTORE PUSH1 0x20 SWAP1 SWAP2 KECCAK256 ADD SLOAD SWAP1 POP DUP2 JUMP JUMPDEST PUSH2 0x28C0 PUSH2 0x40B5 JUMP JUMPDEST PUSH1 0x0 DUP2 GT PUSH2 0x2901 JUMPI PUSH1 0x40 MLOAD PUSH3 0x461BCD PUSH1 0xE5 SHL DUP2 MSTORE PUSH1 0x20 PUSH1 0x4 DUP3 ADD MSTORE PUSH1 0xE PUSH1 0x24 DUP3 ADD MSTORE PUSH14 0x7072696365206D757374203E203 PUSH1 0x94 SHL PUSH1 0x44 DUP3 ADD MSTORE PUSH1 0x64 ADD PUSH2 0xFF0 JUMP JUMPDEST PUSH1 0x5 DUP2 SWAP1 SSTORE PUSH1 0x40 MLOAD DUP2 DUP2 MSTORE PUSH32 0x66CBCA4F3C64FECF1DCB9CE094ABCF7F68C3450A1D4E3A8E917DD621EDB4EBE0 SWAP1 PUSH1 0x20 ADD PUSH1 0x40 MLOAD DUP1 SWAP2 SUB SWAP1 LOG1 POP JUMP JUMPDEST PUSH2 0x2944 PUSH2 0x401F JUMP JUMPDEST CALLER PUSH1 0x0 SWAP1 DUP2 MSTORE PUSH1 0x2C PUSH1 0x20 MSTORE PUSH1 0x40 SWAP1 KECCAK256 SLOAD PUSH1 0xFF AND ISZERO PUSH2 0x2974 JUMPI PUSH1 0x40 MLOAD PUSH3 0x461BCD PUSH1 0xE5 SHL DUP2 MSTORE PUSH1 0x4 ADD PUSH2 0xFF0 SWAP1 PUSH2 0x5677 JUMP JUMPDEST CALLER PUSH1 0x0 SWAP1 DUP2 MSTORE PUSH1 0x1D PUSH1 0x20 MSTORE PUSH1 0x40 SWAP1 KECCAK256 PUSH1 0x2 DUP2 ADD SLOAD PUSH2 0x100 SWAP1 DIV PUSH1 0xFF AND PUSH2 0x29C9 JUMPI PUSH1 0x40 MLOAD PUSH3 0x461BCD PUSH1 0xE5 SHL DUP2 MSTORE PUSH1 0x20 PUSH1 0x4 DUP3 ADD MSTORE PUSH1 0xA PUSH1 0x24 DUP3 ADD MSTORE PUSH10 0x1B9BC819081B195D995B PUSH1 0xB2 SHL PUSH1 0x44 DUP3 ADD MSTORE PUSH1 0x64 ADD PUSH2 0xFF0 JUMP JUMPDEST PUSH1 0x2 DUP2 ADD SLOAD PUSH1 0x0 SWAP1 PUSH2 0x29E5 SWAP1 PUSH1 0x1 SWAP1 PUSH2 0x100 SWAP1 DIV PUSH1 0xFF AND PUSH2 0x582F JUMP JUMPDEST CALLER PUSH1 0x0 SWAP1 DUP2 MSTORE PUSH1 0x46 PUSH1 0x20 MSTORE PUSH1 0x40 DUP2 KECCAK256 SLOAD PUSH1 0xFF SWAP3 SWAP1 SWAP3 AND SWAP3 POP SWAP1 PUSH5 0xE8D4A51000 PUSH1 0x3E DUP5 PUSH1 0x8 DUP2 LT PUSH2 0x2A17 JUMPI PUSH2 0x2A17 PUSH2 0x5798 JUMP JUMPDEST ADD SLOAD PUSH2 0x2A23 SWAP2 SWAP1 PUSH2 0x56EC JUMP JUMPDEST PUSH2 0x2A2D SWAP2 SWAP1 PUSH2 0x570E JUMP JUMPDEST SWAP1 POP PUSH1 0x0 DUP2 GT PUSH2 0x2A4F JUMPI PUSH1 0x40 MLOAD PUSH3 0x461BCD PUSH1 0xE5 SHL DUP2 MSTORE PUSH1 0x4 ADD PUSH2 0xFF0 SWAP1 PUSH2 0x580B JUMP JUMPDEST PUSH5 0xE8D4A51000 PUSH1 0x3E DUP4 PUSH1 0x8 DUP2 LT PUSH2 0x2A68 JUMPI PUSH2 0x2A68 PUSH2 0x5798 JUMP JUMPDEST ADD SLOAD PUSH2 0x2A74 SWAP2 SWAP1 PUSH2 0x56EC JUMP JUMPDEST CALLER PUSH1 0x0 SWAP1 DUP2 MSTORE PUSH1 0x46 PUSH1 0x20 MSTORE PUSH1 0x40 DUP2 KECCAK256 SWAP2 SWAP1 SWAP2 SSTORE PUSH1 0x5 SLOAD PUSH2 0x2A9C DUP4 PUSH8 0xDE0B6B3A7640000 PUSH2 0x56D5 JUMP JUMPDEST PUSH2 0x2AA6 SWAP2 SWAP1 PUSH2 0x56EC JUMP JUMPDEST PUSH1 0x2 SLOAD PUSH1 0x40 MLOAD PUSH4 0x40C10F19 PUSH1 0xE0 SHL DUP2 MSTORE SWAP2 SWAP3 POP PUSH1 0x1 PUSH1 0x1 PUSH1 0xA0 SHL SUB AND SWAP1 PUSH4 0x40C10F19 SWAP1 PUSH2 0x2AD9 SWAP1 CALLER SWAP1 DUP6 SWAP1 PUSH1 0x4 ADD PUSH2 0x5734 JUMP JUMPDEST PUSH1 0x0 PUSH1 0x40 MLOAD DUP1 DUP4 SUB DUP2 PUSH1 0x0 DUP8 DUP1 EXTCODESIZE ISZERO DUP1 ISZERO PUSH2 0x2AF3 JUMPI PUSH1 0x0 DUP1 REVERT JUMPDEST POP GAS CALL ISZERO DUP1 ISZERO PUSH2 0x2B07 JUMPI RETURNDATASIZE PUSH1 0x0 DUP1 RETURNDATACOPY RETURNDATASIZE PUSH1 0x0 REVERT JUMPDEST POP POP PUSH1 0x40 MLOAD DUP5 DUP2 MSTORE CALLER SWAP3 POP PUSH32 0x9C51FF96F57F0B34DFA1CBF09C2697E3F15ED11966AEB02DC5B7E2D95244596A SWAP2 POP PUSH1 0x20 ADD PUSH2 0x23D1 JUMP JUMPDEST PUSH1 0x24 DUP2 DUP2 SLOAD DUP2 LT PUSH2 0x28A7 JUMPI PUSH1 0x0 DUP1 REVERT JUMPDEST PUSH1 0x1E DUP2 DUP2 SLOAD DUP2 LT PUSH2 0x2408 JUMPI PUSH1 0x0 DUP1 REVERT JUMPDEST PUSH2 0x2B65 PUSH2 0x40B5 JUMP JUMPDEST PUSH1 0x1 PUSH1 0x1 PUSH1 0xA0 SHL SUB DUP2 AND PUSH2 0x2B8B JUMPI PUSH1 0x40 MLOAD PUSH3 0x461BCD PUSH1 0xE5 SHL DUP2 MSTORE PUSH1 0x4 ADD PUSH2 0xFF0 SWAP1 PUSH2 0x576F JUMP JUMPDEST PUSH1 0x1 PUSH1 0x1 PUSH1 0xA0 SHL SUB DUP2 AND PUSH1 0x0 SWAP1 DUP2 MSTORE PUSH1 0x2C PUSH1 0x20 MSTORE PUSH1 0x40 SWAP1 KECCAK256 SLOAD PUSH1 0xFF AND ISZERO PUSH2 0x2BE9 JUMPI PUSH1 0x40 MLOAD PUSH3 0x461BCD PUSH1 0xE5 SHL DUP2 MSTORE PUSH1 0x20 PUSH1 0x4 DUP3 ADD MSTORE PUSH1 0x12 PUSH1 0x24 DUP3 ADD MSTORE PUSH18 0x185B1C9958591E481C995CDD1C9A58DD1959 PUSH1 0x72 SHL PUSH1 0x44 DUP3 ADD MSTORE PUSH1 0x64 ADD PUSH2 0xFF0 JUMP JUMPDEST PUSH1 0x1 PUSH1 0x1 PUSH1 0xA0 SHL SUB DUP2 AND PUSH1 0x0 DUP2 DUP2 MSTORE PUSH1 0x2C PUSH1 0x20 MSTORE PUSH1 0x40 DUP1 DUP3 KECCAK256 DUP1 SLOAD PUSH1 0xFF NOT AND PUSH1 0x1 OR SWAP1 SSTORE MLOAD CALLER SWAP3 SWAP2 PUSH32 0x2B79879E0083EE64B9DBF5DAE16865E4E581C85D4E7FB2BE212DD934DBA4C70F SWAP2 LOG3 POP JUMP JUMPDEST PUSH1 0x36 DUP2 PUSH1 0x8 DUP2 LT PUSH2 0x1CAB JUMPI PUSH1 0x0 DUP1 REVERT JUMPDEST PUSH2 0x2C4F PUSH2 0x401F JUMP JUMPDEST CALLER PUSH1 0x0 SWAP1 DUP2 MSTORE PUSH1 0x1D PUSH1 0x20 MSTORE PUSH1 0x40 SWAP1 KECCAK256 SLOAD PUSH1 0x1 PUSH1 0x1 PUSH1 0xA0 SHL SUB AND DUP1 PUSH2 0x2CA6 JUMPI PUSH1 0x40 MLOAD PUSH3 0x461BCD PUSH1 0xE5 SHL DUP2 MSTORE PUSH1 0x20 PUSH1 0x4 DUP3 ADD MSTORE PUSH1 0xE PUSH1 0x24 DUP3 ADD MSTORE PUSH14 0x1B9BDD081C9959DA5CDD195C9959 PUSH1 0x92 SHL PUSH1 0x44 DUP3 ADD MSTORE PUSH1 0x64 ADD PUSH2 0xFF0 JUMP JUMPDEST PUSH2 0x2CAF CALLER PUSH2 0x459B JUMP JUMPDEST PUSH2 0x2CEF JUMPI PUSH1 0x40 MLOAD PUSH3 0x461BCD PUSH1 0xE5 SHL DUP2 MSTORE PUSH1 0x20 PUSH1 0x4 DUP3 ADD MSTORE PUSH1 0x11 PUSH1 0x24 DUP3 ADD MSTORE PUSH17 0x6E6F206E6F646520696E2075706C696E65 PUSH1 0x78 SHL PUSH1 0x44 DUP3 ADD MSTORE PUSH1 0x64 ADD PUSH2 0xFF0 JUMP JUMPDEST CALLER PUSH1 0x0 SWAP1 DUP2 MSTORE PUSH1 0x1D PUSH1 0x20 MSTORE PUSH1 0x40 SWAP1 KECCAK256 PUSH1 0x7 ADD SLOAD PUSH2 0x100 SWAP1 DIV PUSH1 0xFF AND PUSH2 0x2D70 JUMPI CALLER PUSH1 0x0 SWAP1 DUP2 MSTORE PUSH1 0x1D PUSH1 0x20 MSTORE PUSH1 0x40 SWAP1 KECCAK256 PUSH1 0x7 ADD SLOAD PUSH1 0xFF AND PUSH2 0x2D70 JUMPI PUSH1 0x40 MLOAD PUSH3 0x461BCD PUSH1 0xE5 SHL DUP2 MSTORE PUSH1 0x20 PUSH1 0x4 DUP3 ADD MSTORE PUSH1 0x1B PUSH1 0x24 DUP3 ADD MSTORE PUSH32 0x6669727374206465706F736974207265717569726573206E6F64650000000000 PUSH1 0x44 DUP3 ADD MSTORE PUSH1 0x64 ADD PUSH2 0xFF0 JUMP JUMPDEST PUSH8 0xDE0B6B3A7640000 DUP3 LT ISZERO PUSH2 0x2DB8 JUMPI PUSH1 0x40 MLOAD PUSH3 0x461BCD PUSH1 0xE5 SHL DUP2 MSTORE PUSH1 0x20 PUSH1 0x4 DUP3 ADD MSTORE PUSH1 0xD PUSH1 0x24 DUP3 ADD MSTORE PUSH13 0x62656C6F77206D696E696D756D PUSH1 0x98 SHL PUSH1 0x44 DUP3 ADD MSTORE PUSH1 0x64 ADD PUSH2 0xFF0 JUMP JUMPDEST PUSH2 0x2DC0 PUSH2 0x1922 JUMP JUMPDEST DUP3 GT ISZERO PUSH2 0x2DFC JUMPI PUSH1 0x40 MLOAD PUSH3 0x461BCD PUSH1 0xE5 SHL DUP2 MSTORE PUSH1 0x20 PUSH1 0x4 DUP3 ADD MSTORE PUSH1 0xA PUSH1 0x24 DUP3 ADD MSTORE PUSH10 0xCAF0C6CACAC840DAC2F PUSH1 0xB3 SHL PUSH1 0x44 DUP3 ADD MSTORE PUSH1 0x64 ADD PUSH2 0xFF0 JUMP JUMPDEST PUSH1 0x40 MLOAD PUSH4 0x70A08231 PUSH1 0xE0 SHL DUP2 MSTORE CALLER PUSH1 0x4 DUP3 ADD MSTORE DUP3 SWAP1 PUSH20 0x570A5D26F7765ECB712C0924E4DE545B89FD43DF SWAP1 PUSH4 0x70A08231 SWAP1 PUSH1 0x24 ADD PUSH1 0x20 PUSH1 0x40 MLOAD DUP1 DUP4 SUB DUP2 DUP7 GAS STATICCALL ISZERO DUP1 ISZERO PUSH2 0x2E4D JUMPI RETURNDATASIZE PUSH1 0x0 DUP1 RETURNDATACOPY RETURNDATASIZE PUSH1 0x0 REVERT JUMPDEST POP POP POP POP PUSH1 0x40 MLOAD RETURNDATASIZE PUSH1 0x1F NOT PUSH1 0x1F DUP3 ADD AND DUP3 ADD DUP1 PUSH1 0x40 MSTORE POP DUP2 ADD SWAP1 PUSH2 0x2E71 SWAP2 SWAP1 PUSH2 0x56A6 JUMP JUMPDEST LT ISZERO PUSH2 0x2E8F JUMPI PUSH1 0x40 MLOAD PUSH3 0x461BCD PUSH1 0xE5 SHL DUP2 MSTORE PUSH1 0x4 ADD PUSH2 0xFF0 SWAP1 PUSH2 0x57DD JUMP JUMPDEST CALLER PUSH1 0x0 DUP2 DUP2 MSTORE PUSH1 0x1D PUSH1 0x20 MSTORE PUSH1 0x40 SWAP1 DUP2 SWAP1 KECCAK256 PUSH1 0x7 ADD SLOAD SWAP1 MLOAD PUSH4 0x23B872DD PUSH1 0xE0 SHL DUP2 MSTORE PUSH1 0x4 DUP2 ADD SWAP3 SWAP1 SWAP3 MSTORE ADDRESS PUSH1 0x24 DUP4 ADD MSTORE PUSH1 0x44 DUP3 ADD DUP5 SWAP1 MSTORE PUSH2 0x100 SWAP1 DIV PUSH1 0xFF AND ISZERO SWAP1 PUSH20 0x570A5D26F7765ECB712C0924E4DE545B89FD43DF SWAP1 PUSH4 0x23B872DD SWAP1 PUSH1 0x64 ADD PUSH1 0x20 PUSH1 0x40 MLOAD DUP1 DUP4 SUB DUP2 PUSH1 0x0 DUP8 GAS CALL ISZERO DUP1 ISZERO PUSH2 0x2F0D JUMPI RETURNDATASIZE PUSH1 0x0 DUP1 RETURNDATACOPY RETURNDATASIZE PUSH1 0x0 REVERT JUMPDEST POP POP POP POP PUSH1 0x40 MLOAD RETURNDATASIZE PUSH1 0x1F NOT PUSH1 0x1F DUP3 ADD AND DUP3 ADD DUP1 PUSH1 0x40 MSTORE POP DUP2 ADD SWAP1 PUSH2 0x2F31 SWAP2 SWAP1 PUSH2 0x574D JUMP JUMPDEST POP PUSH1 0x5 SLOAD PUSH1 0x0 SWAP1 PUSH2 0x2F4A DUP6 PUSH8 0xDE0B6B3A7640000 PUSH2 0x56D5 JUMP JUMPDEST PUSH2 0x2F54 SWAP2 SWAP1 PUSH2 0x56EC JUMP JUMPDEST SWAP1 POP PUSH1 0x0 PUSH1 0x64 PUSH2 0x2F65 DUP7 PUSH1 0x32 PUSH2 0x56D5 JUMP JUMPDEST PUSH2 0x2F6F SWAP2 SWAP1 PUSH2 0x56EC JUMP JUMPDEST SWAP1 POP PUSH1 0x0 PUSH1 0x64 PUSH2 0x2F80 DUP8 PUSH1 0x32 PUSH2 0x56D5 JUMP JUMPDEST PUSH2 0x2F8A SWAP2 SWAP1 PUSH2 0x56EC JUMP JUMPDEST SWAP1 POP DUP2 PUSH1 0x2E PUSH1 0x0 DUP3 DUP3 SLOAD PUSH2 0x2F9E SWAP2 SWAP1 PUSH2 0x5721 JUMP JUMPDEST SWAP3 POP POP DUP2 SWAP1 SSTORE POP DUP1 PUSH1 0x22 PUSH1 0x0 DUP3 DUP3 SLOAD PUSH2 0x2FB7 SWAP2 SWAP1 PUSH2 0x5721 JUMP JUMPDEST SWAP3 POP POP DUP2 SWAP1 SSTORE POP DUP1 PUSH1 0x20 PUSH1 0x0 DUP3 DUP3 SLOAD PUSH2 0x2FD0 SWAP2 SWAP1 PUSH2 0x5721 JUMP JUMPDEST SWAP1 SWAP2 SSTORE POP POP CALLER PUSH1 0x0 SWAP1 DUP2 MSTORE PUSH1 0x1D PUSH1 0x20 MSTORE PUSH1 0x40 DUP2 KECCAK256 PUSH1 0x3 DUP2 ADD DUP1 SLOAD SWAP2 SWAP3 DUP10 SWAP3 PUSH2 0x2FF9 SWAP1 DUP5 SWAP1 PUSH2 0x5721 JUMP JUMPDEST SWAP1 SWAP2 SSTORE POP PUSH2 0x300A SWAP1 POP DUP8 PUSH1 0x6 PUSH2 0x56D5 JUMP JUMPDEST DUP2 PUSH1 0x5 ADD PUSH1 0x0 DUP3 DUP3 SLOAD PUSH2 0x301D SWAP2 SWAP1 PUSH2 0x5721 JUMP JUMPDEST SWAP3 POP POP DUP2 SWAP1 SSTORE POP DUP7 DUP2 PUSH1 0x6 ADD PUSH1 0x0 DUP3 DUP3 SLOAD PUSH2 0x3038 SWAP2 SWAP1 PUSH2 0x5721 JUMP JUMPDEST SWAP1 SWAP2 SSTORE POP POP PUSH1 0x7 DUP2 ADD DUP1 SLOAD PUSH2 0xFF00 NOT AND PUSH2 0x100 OR SWAP1 SSTORE PUSH2 0x3058 CALLER DUP9 PUSH2 0x476C JUMP JUMPDEST PUSH2 0x3062 CALLER DUP5 PUSH2 0x47CD JUMP JUMPDEST PUSH2 0x306B CALLER PUSH2 0x49AB JUMP JUMPDEST PUSH2 0x3074 CALLER PUSH2 0x4A44 JUMP JUMPDEST PUSH2 0x307D CALLER PUSH2 0x4BE7 JUMP JUMPDEST PUSH2 0x3086 CALLER PUSH2 0x4D6E JUMP JUMPDEST PUSH1 0x2 SLOAD PUSH1 0x40 MLOAD PUSH4 0x40C10F19 PUSH1 0xE0 SHL DUP2 MSTORE PUSH1 0x1 PUSH1 0x1 PUSH1 0xA0 SHL SUB SWAP1 SWAP2 AND SWAP1 PUSH4 0x40C10F19 SWAP1 PUSH2 0x30B8 SWAP1 CALLER SWAP1 DUP9 SWAP1 PUSH1 0x4 ADD PUSH2 0x5734 JUMP JUMPDEST PUSH1 0x0 PUSH1 0x40 MLOAD DUP1 DUP4 SUB DUP2 PUSH1 0x0 DUP8 DUP1 EXTCODESIZE ISZERO DUP1 ISZERO PUSH2 0x30D2 JUMPI PUSH1 0x0 DUP1 REVERT JUMPDEST POP GAS CALL ISZERO DUP1 ISZERO PUSH2 0x30E6 JUMPI RETURNDATASIZE PUSH1 0x0 DUP1 RETURNDATACOPY RETURNDATASIZE PUSH1 0x0 REVERT JUMPDEST POP POP PUSH1 0x40 DUP1 MLOAD DUP11 DUP2 MSTORE PUSH1 0x20 DUP2 ADD DUP9 SWAP1 MSTORE DUP9 ISZERO ISZERO DUP2 DUP4 ADD MSTORE SWAP1 MLOAD CALLER SWAP4 POP PUSH32 0x6DBB6056A2FFF319358E6DD7D0D72CB3BAA992CDCC7E120FB0A32CD1601840E5 SWAP3 POP SWAP1 DUP2 SWAP1 SUB PUSH1 0x60 ADD SWAP1 LOG2 POP POP POP POP POP POP PUSH2 0x1C98 PUSH1 0x1 DUP1 SSTORE JUMP JUMPDEST PUSH1 0x32 DUP2 PUSH1 0x3 DUP2 LT PUSH2 0x1CAB JUMPI PUSH1 0x0 DUP1 REVERT JUMPDEST PUSH2 0x3155 PUSH2 0x40B5 JUMP JUMPDEST PUSH1 0x1 PUSH1 0x1 PUSH1 0xA0 SHL SUB DUP2 AND PUSH2 0x317B JUMPI PUSH1 0x40 MLOAD PUSH3 0x461BCD PUSH1 0xE5 SHL DUP2 MSTORE PUSH1 0x4 ADD PUSH2 0xFF0 SWAP1 PUSH2 0x576F JUMP JUMPDEST PUSH1 0x1 PUSH1 0x1 PUSH1 0xA0 SHL SUB DUP2 AND PUSH1 0x0 SWAP1 DUP2 MSTORE PUSH1 0x29 PUSH1 0x20 MSTORE PUSH1 0x40 SWAP1 KECCAK256 SLOAD PUSH1 0xFF AND ISZERO PUSH2 0x31DB JUMPI PUSH1 0x40 MLOAD PUSH3 0x461BCD PUSH1 0xE5 SHL DUP2 MSTORE PUSH1 0x20 PUSH1 0x4 DUP3 ADD MSTORE PUSH1 0x14 PUSH1 0x24 DUP3 ADD MSTORE PUSH20 0x185B1C9958591E481A5B881DDA1A5D195B1A5CDD PUSH1 0x62 SHL PUSH1 0x44 DUP3 ADD MSTORE PUSH1 0x64 ADD PUSH2 0xFF0 JUMP JUMPDEST PUSH1 0x1 PUSH1 0x1 PUSH1 0xA0 SHL SUB DUP2 AND PUSH1 0x0 DUP2 DUP2 MSTORE PUSH1 0x29 PUSH1 0x20 MSTORE PUSH1 0x40 DUP2 KECCAK256 DUP1 SLOAD PUSH1 0xFF NOT AND PUSH1 0x1 SWAP1 DUP2 OR SWAP1 SWAP2 SSTORE PUSH1 0x28 DUP1 SLOAD SWAP2 DUP3 ADD DUP2 SSTORE SWAP1 SWAP2 MSTORE PUSH32 0xE16DA923A2D88192E5070F37B4571D58682C0D66212EC634D495F33DE3F77AB5 ADD DUP1 SLOAD PUSH1 0x1 PUSH1 0x1 PUSH1 0xA0 SHL SUB NOT AND SWAP1 SWAP2 OR SWAP1 SSTORE PUSH1 0x2B SLOAD PUSH2 0x3253 SWAP1 PUSH5 0xE8D4A51000 SWAP1 PUSH2 0x56EC JUMP JUMPDEST PUSH1 0x1 PUSH1 0x1 PUSH1 0xA0 SHL SUB DUP3 AND PUSH1 0x0 DUP2 DUP2 MSTORE PUSH1 0x2A PUSH1 0x20 MSTORE PUSH1 0x40 DUP1 DUP3 KECCAK256 SWAP4 SWAP1 SWAP4 SSTORE SWAP2 MLOAD SWAP1 SWAP2 PUSH32 0x6F60D1FEEC1D600E745D46F9EA18CD8B27754026D7BB1D859BF8A22248779BF9 SWAP2 LOG2 POP JUMP JUMPDEST PUSH1 0x15 DUP2 PUSH1 0x8 DUP2 LT PUSH2 0x1CAB JUMPI PUSH1 0x0 DUP1 REVERT JUMPDEST PUSH1 0x35 PUSH1 0x20 MSTORE DUP2 PUSH1 0x0 MSTORE PUSH1 0x40 PUSH1 0x0 KECCAK256 DUP2 PUSH1 0x3 DUP2 LT PUSH2 0x32C6 JUMPI PUSH1 0x0 DUP1 REVERT JUMPDEST ADD SLOAD SWAP2 POP DUP3 SWAP1 POP JUMP JUMPDEST PUSH2 0x32D7 PUSH2 0x401F JUMP JUMPDEST PUSH1 0x24 SLOAD DUP2 LT PUSH2 0x3319 JUMPI PUSH1 0x40 MLOAD PUSH3 0x461BCD PUSH1 0xE5 SHL DUP2 MSTORE PUSH1 0x20 PUSH1 0x4 DUP3 ADD MSTORE PUSH1 0xE PUSH1 0x24 DUP3 ADD MSTORE PUSH14 0x1A5B9D985B1A59081C195C9A5BD9 PUSH1 0x92 SHL PUSH1 0x44 DUP3 ADD MSTORE PUSH1 0x64 ADD PUSH2 0xFF0 JUMP JUMPDEST PUSH1 0x0 DUP3 GT PUSH2 0x335B JUMPI PUSH1 0x40 MLOAD PUSH3 0x461BCD PUSH1 0xE5 SHL DUP2 MSTORE PUSH1 0x20 PUSH1 0x4 DUP3 ADD MSTORE PUSH1 0xF PUSH1 0x24 DUP3 ADD MSTORE PUSH15 0x616D6F756E74206D757374203E203 PUSH1 0x8C SHL PUSH1 0x44 DUP3 ADD MSTORE PUSH1 0x64 ADD PUSH2 0xFF0 JUMP JUMPDEST PUSH1 0x2 SLOAD PUSH1 0x40 MLOAD PUSH4 0x70A08231 PUSH1 0xE0 SHL DUP2 MSTORE CALLER PUSH1 0x4 DUP3 ADD MSTORE DUP4 SWAP2 PUSH1 0x1 PUSH1 0x1 PUSH1 0xA0 SHL SUB AND SWAP1 PUSH4 0x70A08231 SWAP1 PUSH1 0x24 ADD PUSH1 0x20 PUSH1 0x40 MLOAD DUP1 DUP4 SUB DUP2 DUP7 GAS STATICCALL ISZERO DUP1 ISZERO PUSH2 0x33A3 JUMPI RETURNDATASIZE PUSH1 0x0 DUP1 RETURNDATACOPY RETURNDATASIZE PUSH1 0x0 REVERT JUMPDEST POP POP POP POP PUSH1 0x40 MLOAD RETURNDATASIZE PUSH1 0x1F NOT PUSH1 0x1F DUP3 ADD AND DUP3 ADD DUP1 PUSH1 0x40 MSTORE POP DUP2 ADD SWAP1 PUSH2 0x33C7 SWAP2 SWAP1 PUSH2 0x56A6 JUMP JUMPDEST LT ISZERO PUSH2 0x3407 JUMPI PUSH1 0x40 MLOAD PUSH3 0x461BCD PUSH1 0xE5 SHL DUP2 MSTORE PUSH1 0x20 PUSH1 0x4 DUP3 ADD MSTORE PUSH1 0xF PUSH1 0x24 DUP3 ADD MSTORE PUSH15 0x696E73756666696369656E74204451 PUSH1 0x88 SHL PUSH1 0x44 DUP3 ADD MSTORE PUSH1 0x64 ADD PUSH2 0xFF0 JUMP JUMPDEST PUSH1 0x0 PUSH1 0x24 DUP3 DUP2 SLOAD DUP2 LT PUSH2 0x341C JUMPI PUSH2 0x341C PUSH2 0x5798 JUMP JUMPDEST PUSH1 0x0 SWAP2 DUP3 MSTORE PUSH1 0x20 SWAP1 SWAP2 KECCAK256 ADD SLOAD PUSH1 0x2 SLOAD PUSH1 0x40 MLOAD PUSH4 0x23B872DD PUSH1 0xE0 SHL DUP2 MSTORE CALLER PUSH1 0x4 DUP3 ADD MSTORE ADDRESS PUSH1 0x24 DUP3 ADD MSTORE PUSH1 0x44 DUP2 ADD DUP7 SWAP1 MSTORE SWAP2 SWAP3 POP PUSH1 0x1 PUSH1 0x1 PUSH1 0xA0 SHL SUB AND SWAP1 PUSH4 0x23B872DD SWAP1 PUSH1 0x64 ADD PUSH1 0x20 PUSH1 0x40 MLOAD DUP1 DUP4 SUB DUP2 PUSH1 0x0 DUP8 GAS CALL ISZERO DUP1 ISZERO PUSH2 0x3480 JUMPI RETURNDATASIZE PUSH1 0x0 DUP1 RETURNDATACOPY RETURNDATASIZE PUSH1 0x0 REVERT JUMPDEST POP POP POP POP PUSH1 0x40 MLOAD RETURNDATASIZE PUSH1 0x1F NOT PUSH1 0x1F DUP3 ADD AND DUP3 ADD DUP1 PUSH1 0x40 MSTORE POP DUP2 ADD SWAP1 PUSH2 0x34A4 SWAP2 SWAP1 PUSH2 0x574D JUMP JUMPDEST POP CALLER PUSH1 0x0 SWAP1 DUP2 MSTORE PUSH1 0x23 PUSH1 0x20 SWAP1 DUP2 MSTORE PUSH1 0x40 DUP1 DUP4 KECCAK256 DUP5 DUP5 MSTORE SWAP1 SWAP2 MSTORE DUP2 KECCAK256 DUP1 SLOAD DUP6 SWAP3 SWAP1 PUSH2 0x34CF SWAP1 DUP5 SWAP1 PUSH2 0x5721 JUMP JUMPDEST SWAP1 SWAP2 SSTORE POP POP PUSH1 0x0 DUP2 DUP2 MSTORE PUSH1 0x27 PUSH1 0x20 MSTORE PUSH1 0x40 DUP2 KECCAK256 DUP1 SLOAD DUP6 SWAP3 SWAP1 PUSH2 0x34F2 SWAP1 DUP5 SWAP1 PUSH2 0x5721 JUMP JUMPDEST SWAP1 SWAP2 SSTORE POP POP PUSH1 0x40 DUP1 MLOAD DUP5 DUP2 MSTORE PUSH1 0x20 DUP2 ADD DUP4 SWAP1 MSTORE CALLER SWAP2 PUSH32 0xE02DE4328F3659A0EDC63AA323F742D444274E44A7C500F4AB23E33A3E449CA8 SWAP2 ADD PUSH1 0x40 MLOAD DUP1 SWAP2 SUB SWAP1 LOG2 POP PUSH2 0x13A7 PUSH1 0x1 DUP1 SSTORE JUMP JUMPDEST PUSH2 0x3544 PUSH2 0x40B5 JUMP JUMPDEST PUSH1 0x0 JUMPDEST DUP2 DUP2 LT ISZERO PUSH2 0x191D JUMPI PUSH1 0x0 DUP4 DUP4 DUP4 DUP2 DUP2 LT PUSH2 0x3563 JUMPI PUSH2 0x3563 PUSH2 0x5798 JUMP JUMPDEST SWAP1 POP PUSH1 0x20 MUL ADD PUSH1 0x20 DUP2 ADD SWAP1 PUSH2 0x3578 SWAP2 SWAP1 PUSH2 0x5557 JUMP JUMPDEST PUSH1 0x1 PUSH1 0x1 PUSH1 0xA0 SHL SUB AND EQ ISZERO DUP1 ISZERO PUSH2 0x35D4 JUMPI POP PUSH1 0x2C PUSH1 0x0 DUP5 DUP5 DUP5 DUP2 DUP2 LT PUSH2 0x35A0 JUMPI PUSH2 0x35A0 PUSH2 0x5798 JUMP JUMPDEST SWAP1 POP PUSH1 0x20 MUL ADD PUSH1 0x20 DUP2 ADD SWAP1 PUSH2 0x35B5 SWAP2 SWAP1 PUSH2 0x5557 JUMP JUMPDEST PUSH1 0x1 PUSH1 0x1 PUSH1 0xA0 SHL SUB AND DUP2 MSTORE PUSH1 0x20 DUP2 ADD SWAP2 SWAP1 SWAP2 MSTORE PUSH1 0x40 ADD PUSH1 0x0 KECCAK256 SLOAD PUSH1 0xFF AND ISZERO JUMPDEST ISZERO PUSH2 0x368C JUMPI PUSH1 0x1 PUSH1 0x2C PUSH1 0x0 DUP6 DUP6 DUP6 DUP2 DUP2 LT PUSH2 0x35F1 JUMPI PUSH2 0x35F1 PUSH2 0x5798 JUMP JUMPDEST SWAP1 POP PUSH1 0x20 MUL ADD PUSH1 0x20 DUP2 ADD SWAP1 PUSH2 0x3606 SWAP2 SWAP1 PUSH2 0x5557 JUMP JUMPDEST PUSH1 0x1 PUSH1 0x1 PUSH1 0xA0 SHL SUB AND DUP2 MSTORE PUSH1 0x20 DUP2 ADD SWAP2 SWAP1 SWAP2 MSTORE PUSH1 0x40 ADD PUSH1 0x0 KECCAK256 DUP1 SLOAD PUSH1 0xFF NOT AND SWAP2 ISZERO ISZERO SWAP2 SWAP1 SWAP2 OR SWAP1 SSTORE CALLER DUP4 DUP4 DUP4 DUP2 DUP2 LT PUSH2 0x3641 JUMPI PUSH2 0x3641 PUSH2 0x5798 JUMP JUMPDEST SWAP1 POP PUSH1 0x20 MUL ADD PUSH1 0x20 DUP2 ADD SWAP1 PUSH2 0x3656 SWAP2 SWAP1 PUSH2 0x5557 JUMP JUMPDEST PUSH1 0x1 PUSH1 0x1 PUSH1 0xA0 SHL SUB AND PUSH32 0x2B79879E0083EE64B9DBF5DAE16865E4E581C85D4E7FB2BE212DD934DBA4C70F PUSH1 0x40 MLOAD PUSH1 0x40 MLOAD DUP1 SWAP2 SUB SWAP1 LOG3 JUMPDEST DUP1 PUSH2 0x3696 DUP2 PUSH2 0x57AE JUMP JUMPDEST SWAP2 POP POP PUSH2 0x3547 JUMP JUMPDEST PUSH2 0x36A6 PUSH2 0x401F JUMP JUMPDEST CALLER PUSH1 0x0 SWAP1 DUP2 MSTORE PUSH1 0x2C PUSH1 0x20 MSTORE PUSH1 0x40 SWAP1 KECCAK256 SLOAD PUSH1 0xFF AND ISZERO PUSH2 0x36D6 JUMPI PUSH1 0x40 MLOAD PUSH3 0x461BCD PUSH1 0xE5 SHL DUP2 MSTORE PUSH1 0x4 ADD PUSH2 0xFF0 SWAP1 PUSH2 0x5677 JUMP JUMPDEST CALLER PUSH1 0x0 SWAP1 DUP2 MSTORE PUSH1 0x29 PUSH1 0x20 MSTORE PUSH1 0x40 SWAP1 KECCAK256 SLOAD PUSH1 0xFF AND PUSH2 0x3735 JUMPI PUSH1 0x40 MLOAD PUSH3 0x461BCD PUSH1 0xE5 SHL DUP2 MSTORE PUSH1 0x20 PUSH1 0x4 DUP3 ADD MSTORE PUSH1 0x18 PUSH1 0x24 DUP3 ADD MSTORE PUSH32 0x6E6F7420696E20706172746E65722077686974656C6973740000000000000000 PUSH1 0x44 DUP3 ADD MSTORE PUSH1 0x64 ADD PUSH2 0xFF0 JUMP JUMPDEST CALLER PUSH1 0x0 SWAP1 DUP2 MSTORE PUSH1 0x2A PUSH1 0x20 MSTORE PUSH1 0x40 DUP2 KECCAK256 SLOAD PUSH1 0x2B SLOAD PUSH2 0x3758 SWAP1 PUSH5 0xE8D4A51000 SWAP1 PUSH2 0x56EC JUMP JUMPDEST PUSH2 0x3762 SWAP2 SWAP1 PUSH2 0x570E JUMP JUMPDEST SWAP1 POP PUSH1 0x0 DUP2 GT PUSH2 0x3784 JUMPI PUSH1 0x40 MLOAD PUSH3 0x461BCD PUSH1 0xE5 SHL DUP2 MSTORE PUSH1 0x4 ADD PUSH2 0xFF0 SWAP1 PUSH2 0x580B JUMP JUMPDEST PUSH5 0xE8D4A51000 PUSH1 0x2B SLOAD PUSH2 0x3797 SWAP2 SWAP1 PUSH2 0x56EC JUMP JUMPDEST CALLER PUSH1 0x0 SWAP1 DUP2 MSTORE PUSH1 0x2A PUSH1 0x20 MSTORE PUSH1 0x40 DUP2 KECCAK256 SWAP2 SWAP1 SWAP2 SSTORE PUSH1 0x5 SLOAD PUSH2 0x37BF DUP4 PUSH8 0xDE0B6B3A7640000 PUSH2 0x56D5 JUMP JUMPDEST PUSH2 0x37C9 SWAP2 SWAP1 PUSH2 0x56EC JUMP JUMPDEST PUSH1 0x2 SLOAD PUSH1 0x40 MLOAD PUSH4 0x40C10F19 PUSH1 0xE0 SHL DUP2 MSTORE SWAP2 SWAP3 POP PUSH1 0x1 PUSH1 0x1 PUSH1 0xA0 SHL SUB AND SWAP1 PUSH4 0x40C10F19 SWAP1 PUSH2 0x37FC SWAP1 CALLER SWAP1 DUP6 SWAP1 PUSH1 0x4 ADD PUSH2 0x5734 JUMP JUMPDEST PUSH1 0x0 PUSH1 0x40 MLOAD DUP1 DUP4 SUB DUP2 PUSH1 0x0 DUP8 DUP1 EXTCODESIZE ISZERO DUP1 ISZERO PUSH2 0x3816 JUMPI PUSH1 0x0 DUP1 REVERT JUMPDEST POP GAS CALL ISZERO DUP1 ISZERO PUSH2 0x382A JUMPI RETURNDATASIZE PUSH1 0x0 DUP1 RETURNDATACOPY RETURNDATASIZE PUSH1 0x0 REVERT JUMPDEST POP POP PUSH1 0x40 MLOAD DUP5 DUP2 MSTORE CALLER SWAP3 POP PUSH32 0xFD2C9576DB62DCC8DFB3BA4874D5A4449DB744E9A548E446BB88BECAB1221A58 SWAP2 POP PUSH1 0x20 ADD JUMPDEST PUSH1 0x40 MLOAD DUP1 SWAP2 SUB SWAP1 LOG2 POP POP PUSH2 0x1785 PUSH1 0x1 DUP1 SSTORE JUMP JUMPDEST PUSH2 0x3877 PUSH2 0x40B5 JUMP JUMPDEST PUSH1 0x1 PUSH1 0x1 PUSH1 0xA0 SHL SUB DUP2 AND PUSH1 0x0 SWAP1 DUP2 MSTORE PUSH1 0x2C PUSH1 0x20 MSTORE PUSH1 0x40 SWAP1 KECCAK256 SLOAD PUSH1 0xFF AND PUSH2 0x38D0 JUMPI PUSH1 0x40 MLOAD PUSH3 0x461BCD PUSH1 0xE5 SHL DUP2 MSTORE PUSH1 0x20 PUSH1 0x4 DUP3 ADD MSTORE PUSH1 0xE PUSH1 0x24 DUP3 ADD MSTORE PUSH14 0x1B9BDD081C995CDD1C9A58DD1959 PUSH1 0x92 SHL PUSH1 0x44 DUP3 ADD MSTORE PUSH1 0x64 ADD PUSH2 0xFF0 JUMP JUMPDEST PUSH1 0x1 PUSH1 0x1 PUSH1 0xA0 SHL SUB DUP2 AND PUSH1 0x0 DUP2 DUP2 MSTORE PUSH1 0x2C PUSH1 0x20 MSTORE PUSH1 0x40 DUP1 DUP3 KECCAK256 DUP1 SLOAD PUSH1 0xFF NOT AND SWAP1 SSTORE MLOAD CALLER SWAP3 SWAP2 PUSH32 0x3CE0E6525151C724AAF741AAC70CDAC1279A46ACDC86DBE6CCD1B66C26EA8170 SWAP2 LOG3 POP JUMP JUMPDEST PUSH2 0x3923 PUSH2 0x401F JUMP JUMPDEST CALLER PUSH1 0x0 SWAP1 DUP2 MSTORE PUSH1 0x2C PUSH1 0x20 MSTORE PUSH1 0x40 SWAP1 KECCAK256 SLOAD PUSH1 0xFF AND ISZERO PUSH2 0x3953 JUMPI PUSH1 0x40 MLOAD PUSH3 0x461BCD PUSH1 0xE5 SHL DUP2 MSTORE PUSH1 0x4 ADD PUSH2 0xFF0 SWAP1 PUSH2 0x5677 JUMP JUMPDEST CALLER PUSH1 0x0 SWAP1 DUP2 MSTORE PUSH1 0x1F PUSH1 0x20 MSTORE PUSH1 0x40 DUP2 KECCAK256 PUSH1 0x2 DUP2 ADD SLOAD PUSH1 0x21 SLOAD SWAP2 SLOAD SWAP1 SWAP2 PUSH5 0xE8D4A51000 SWAP2 PUSH2 0x397F SWAP2 SWAP1 PUSH2 0x56D5 JUMP JUMPDEST PUSH2 0x3989 SWAP2 SWAP1 PUSH2 0x56EC JUMP JUMPDEST PUSH2 0x3993 SWAP2 SWAP1 PUSH2 0x570E JUMP JUMPDEST SWAP1 POP PUSH1 0x0 DUP2 GT PUSH2 0x39B5 JUMPI PUSH1 0x40 MLOAD PUSH3 0x461BCD PUSH1 0xE5 SHL DUP2 MSTORE PUSH1 0x4 ADD PUSH2 0xFF0 SWAP1 PUSH2 0x580B JUMP JUMPDEST PUSH1 0x21 SLOAD CALLER PUSH1 0x0 SWAP1 DUP2 MSTORE PUSH1 0x1F PUSH1 0x20 MSTORE PUSH1 0x40 SWAP1 KECCAK256 SLOAD PUSH5 0xE8D4A51000 SWAP2 PUSH2 0x39D8 SWAP2 PUSH2 0x56D5 JUMP JUMPDEST PUSH2 0x39E2 SWAP2 SWAP1 PUSH2 0x56EC JUMP JUMPDEST CALLER PUSH1 0x0 SWAP1 DUP2 MSTORE PUSH1 0x1F PUSH1 0x20 MSTORE PUSH1 0x40 DUP2 KECCAK256 PUSH1 0x2 ADD SWAP2 SWAP1 SWAP2 SSTORE PUSH1 0x5 SLOAD PUSH2 0x3A0D DUP4 PUSH8 0xDE0B6B3A7640000 PUSH2 0x56D5 JUMP JUMPDEST PUSH2 0x3A17 SWAP2 SWAP1 PUSH2 0x56EC JUMP JUMPDEST PUSH1 0x2 SLOAD PUSH1 0x40 MLOAD PUSH4 0x40C10F19 PUSH1 0xE0 SHL DUP2 MSTORE SWAP2 SWAP3 POP PUSH1 0x1 PUSH1 0x1 PUSH1 0xA0 SHL SUB AND SWAP1 PUSH4 0x40C10F19 SWAP1 PUSH2 0x3A4A SWAP1 CALLER SWAP1 DUP6 SWAP1 PUSH1 0x4 ADD PUSH2 0x5734 JUMP JUMPDEST PUSH1 0x0 PUSH1 0x40 MLOAD DUP1 DUP4 SUB DUP2 PUSH1 0x0 DUP8 DUP1 EXTCODESIZE ISZERO DUP1 ISZERO PUSH2 0x3A64 JUMPI PUSH1 0x0 DUP1 REVERT JUMPDEST POP GAS CALL ISZERO DUP1 ISZERO PUSH2 0x3A78 JUMPI RETURNDATASIZE PUSH1 0x0 DUP1 RETURNDATACOPY RETURNDATASIZE PUSH1 0x0 REVERT JUMPDEST POP POP PUSH1 0x40 MLOAD DUP5 DUP2 MSTORE CALLER SWAP3 POP PUSH32 0x7436794B6CD88FE788CB3E86147CB3C7FCE0762DC1FB3F3FC7129F4E050D8750 SWAP2 POP PUSH1 0x20 ADD PUSH2 0x385C JUMP JUMPDEST PUSH2 0x3AB6 PUSH2 0x401F JUMP JUMPDEST PUSH1 0x1 DUP2 LT ISZERO DUP1 ISZERO PUSH2 0x3AC8 JUMPI POP PUSH1 0x3 DUP2 GT ISZERO JUMPDEST PUSH2 0x3B03 JUMPI PUSH1 0x40 MLOAD PUSH3 0x461BCD PUSH1 0xE5 SHL DUP2 MSTORE PUSH1 0x20 PUSH1 0x4 DUP3 ADD MSTORE PUSH1 0xC PUSH1 0x24 DUP3 ADD MSTORE PUSH12 0x696E76616C69642074797065 PUSH1 0xA0 SHL PUSH1 0x44 DUP3 ADD MSTORE PUSH1 0x64 ADD PUSH2 0xFF0 JUMP JUMPDEST PUSH1 0x3 SLOAD PUSH1 0x40 MLOAD PUSH4 0x6866537D PUSH1 0xE0 SHL DUP2 MSTORE PUSH1 0x4 DUP2 ADD DUP4 SWAP1 MSTORE PUSH1 0x0 SWAP2 PUSH1 0x1 PUSH1 0x1 PUSH1 0xA0 SHL SUB AND SWAP1 PUSH4 0x6866537D SWAP1 PUSH1 0x24 ADD PUSH1 0x20 PUSH1 0x40 MLOAD DUP1 DUP4 SUB DUP2 DUP7 GAS STATICCALL ISZERO DUP1 ISZERO PUSH2 0x3B4D JUMPI RETURNDATASIZE PUSH1 0x0 DUP1 RETURNDATACOPY RETURNDATASIZE PUSH1 0x0 REVERT JUMPDEST POP POP POP POP PUSH1 0x40 MLOAD RETURNDATASIZE PUSH1 0x1F NOT PUSH1 0x1F DUP3 ADD AND DUP3 ADD DUP1 PUSH1 0x40 MSTORE POP DUP2 ADD SWAP1 PUSH2 0x3B71 SWAP2 SWAP1 PUSH2 0x56A6 JUMP JUMPDEST PUSH1 0x40 MLOAD PUSH4 0x70A08231 PUSH1 0xE0 SHL DUP2 MSTORE CALLER PUSH1 0x4 DUP3 ADD MSTORE SWAP1 SWAP2 POP DUP2 SWAP1 PUSH20 0x570A5D26F7765ECB712C0924E4DE545B89FD43DF SWAP1 PUSH4 0x70A08231 SWAP1 PUSH1 0x24 ADD PUSH1 0x20 PUSH1 0x40 MLOAD DUP1 DUP4 SUB DUP2 DUP7 GAS STATICCALL ISZERO DUP1 ISZERO PUSH2 0x3BC5 JUMPI RETURNDATASIZE PUSH1 0x0 DUP1 RETURNDATACOPY RETURNDATASIZE PUSH1 0x0 REVERT JUMPDEST POP POP POP POP PUSH1 0x40 MLOAD RETURNDATASIZE PUSH1 0x1F NOT PUSH1 0x1F DUP3 ADD AND DUP3 ADD DUP1 PUSH1 0x40 MSTORE POP DUP2 ADD SWAP1 PUSH2 0x3BE9 SWAP2 SWAP1 PUSH2 0x56A6 JUMP JUMPDEST LT ISZERO PUSH2 0x3C07 JUMPI PUSH1 0x40 MLOAD PUSH3 0x461BCD PUSH1 0xE5 SHL DUP2 MSTORE PUSH1 0x4 ADD PUSH2 0xFF0 SWAP1 PUSH2 0x57DD JUMP JUMPDEST PUSH1 0x40 MLOAD PUSH4 0x23B872DD PUSH1 0xE0 SHL DUP2 MSTORE CALLER PUSH1 0x4 DUP3 ADD MSTORE ADDRESS PUSH1 0x24 DUP3 ADD MSTORE PUSH1 0x44 DUP2 ADD DUP3 SWAP1 MSTORE PUSH20 0x570A5D26F7765ECB712C0924E4DE545B89FD43DF SWAP1 PUSH4 0x23B872DD SWAP1 PUSH1 0x64 ADD PUSH1 0x20 PUSH1 0x40 MLOAD DUP1 DUP4 SUB DUP2 PUSH1 0x0 DUP8 GAS CALL ISZERO DUP1 ISZERO PUSH2 0x3C65 JUMPI RETURNDATASIZE PUSH1 0x0 DUP1 RETURNDATACOPY RETURNDATASIZE PUSH1 0x0 REVERT JUMPDEST POP POP POP POP PUSH1 0x40 MLOAD RETURNDATASIZE PUSH1 0x1F NOT PUSH1 0x1F DUP3 ADD AND DUP3 ADD DUP1 PUSH1 0x40 MSTORE POP DUP2 ADD SWAP1 PUSH2 0x3C89 SWAP2 SWAP1 PUSH2 0x574D JUMP JUMPDEST POP PUSH1 0x3 SLOAD PUSH1 0x40 MLOAD PUSH4 0x1AA15771 PUSH1 0xE1 SHL DUP2 MSTORE PUSH1 0x1 PUSH1 0x1 PUSH1 0xA0 SHL SUB SWAP1 SWAP2 AND SWAP1 PUSH4 0x3542AEE2 SWAP1 PUSH2 0x3CBC SWAP1 CALLER SWAP1 DUP7 SWAP1 PUSH1 0x4 ADD PUSH2 0x5734 JUMP JUMPDEST PUSH1 0x0 PUSH1 0x40 MLOAD DUP1 DUP4 SUB DUP2 PUSH1 0x0 DUP8 DUP1 EXTCODESIZE ISZERO DUP1 ISZERO PUSH2 0x3CD6 JUMPI PUSH1 0x0 DUP1 REVERT JUMPDEST POP GAS CALL ISZERO DUP1 ISZERO PUSH2 0x3CEA JUMPI RETURNDATASIZE PUSH1 0x0 DUP1 RETURNDATACOPY RETURNDATASIZE PUSH1 0x0 REVERT JUMPDEST POP POP CALLER PUSH1 0x0 SWAP1 DUP2 MSTORE PUSH1 0x1D PUSH1 0x20 MSTORE PUSH1 0x40 DUP2 KECCAK256 PUSH1 0x7 ADD DUP1 SLOAD PUSH1 0xFF NOT AND PUSH1 0x1 OR SWAP1 SSTORE PUSH1 0x22 DUP1 SLOAD DUP6 SWAP5 POP SWAP1 SWAP3 POP PUSH2 0x3D1E SWAP1 DUP5 SWAP1 PUSH2 0x5721 JUMP JUMPDEST SWAP3 POP POP DUP2 SWAP1 SSTORE POP DUP1 PUSH1 0x20 PUSH1 0x0 DUP3 DUP3 SLOAD PUSH2 0x3D37 SWAP2 SWAP1 PUSH2 0x5721 JUMP JUMPDEST SWAP1 SWAP2 SSTORE POP POP CALLER PUSH1 0x0 SWAP1 DUP2 MSTORE PUSH1 0x1D PUSH1 0x20 MSTORE PUSH1 0x40 SWAP1 KECCAK256 PUSH1 0x1 DUP4 EQ DUP1 ISZERO PUSH2 0x3D64 JUMPI POP PUSH1 0x2 DUP2 ADD SLOAD PUSH1 0x1 PUSH1 0xFF SWAP1 SWAP2 AND LT JUMPDEST ISZERO PUSH2 0x3DA4 JUMPI PUSH1 0x2 DUP2 ADD DUP1 SLOAD PUSH1 0xFF NOT AND PUSH1 0x1 SWAP1 DUP2 OR SWAP1 SWAP2 SSTORE PUSH1 0x40 MLOAD SWAP1 DUP2 MSTORE CALLER SWAP1 PUSH1 0x0 DUP1 MLOAD PUSH1 0x20 PUSH2 0x5898 DUP4 CODECOPY DUP2 MLOAD SWAP2 MSTORE SWAP1 PUSH1 0x20 ADD JUMPDEST PUSH1 0x40 MLOAD DUP1 SWAP2 SUB SWAP1 LOG2 PUSH2 0x3E42 JUMP JUMPDEST DUP3 PUSH1 0x2 EQ DUP1 ISZERO PUSH2 0x3DBA JUMPI POP PUSH1 0x2 DUP2 DUP2 ADD SLOAD PUSH1 0xFF AND LT JUMPDEST ISZERO PUSH2 0x3DEE JUMPI PUSH1 0x2 DUP2 DUP2 ADD DUP1 SLOAD PUSH1 0xFF NOT AND DUP3 OR SWAP1 SSTORE PUSH1 0x40 MLOAD SWAP1 DUP2 MSTORE CALLER SWAP1 PUSH1 0x0 DUP1 MLOAD PUSH1 0x20 PUSH2 0x5898 DUP4 CODECOPY DUP2 MLOAD SWAP2 MSTORE SWAP1 PUSH1 0x20 ADD PUSH2 0x3D97 JUMP JUMPDEST DUP3 PUSH1 0x3 EQ DUP1 ISZERO PUSH2 0x3E07 JUMPI POP PUSH1 0x2 DUP2 ADD SLOAD PUSH1 0x3 PUSH1 0xFF SWAP1 SWAP2 AND LT JUMPDEST ISZERO PUSH2 0x3E42 JUMPI PUSH1 0x2 DUP2 ADD DUP1 SLOAD PUSH1 0xFF NOT AND PUSH1 0x3 SWAP1 DUP2 OR SWAP1 SWAP2 SSTORE PUSH1 0x40 MLOAD SWAP1 DUP2 MSTORE CALLER SWAP1 PUSH1 0x0 DUP1 MLOAD PUSH1 0x20 PUSH2 0x5898 DUP4 CODECOPY DUP2 MLOAD SWAP2 MSTORE SWAP1 PUSH1 0x20 ADD PUSH1 0x40 MLOAD DUP1 SWAP2 SUB SWAP1 LOG2 JUMPDEST DUP1 SLOAD PUSH1 0x1 PUSH1 0x1 PUSH1 0xA0 SHL SUB AND ISZERO DUP1 ISZERO PUSH2 0x3E65 JUMPI POP PUSH1 0x0 SLOAD PUSH1 0x1 PUSH1 0x1 PUSH1 0xA0 SHL SUB AND CALLER EQ ISZERO JUMPDEST ISZERO PUSH2 0x3F68 JUMPI PUSH1 0x0 DUP1 SLOAD CALLER DUP3 MSTORE PUSH1 0x1D PUSH1 0x20 MSTORE PUSH1 0x40 DUP1 DUP4 KECCAK256 DUP1 SLOAD PUSH1 0x1 PUSH1 0x1 PUSH1 0xA0 SHL SUB NOT AND PUSH1 0x1 PUSH1 0x1 PUSH1 0xA0 SHL SUB SWAP4 DUP5 AND OR SWAP1 SSTORE DUP3 SLOAD SWAP1 SWAP2 AND DUP3 MSTORE DUP2 KECCAK256 PUSH1 0x1 ADD DUP1 SLOAD SWAP2 PUSH2 0x3EAD DUP4 PUSH2 0x57AE JUMP JUMPDEST SWAP2 SWAP1 POP SSTORE POP PUSH2 0x3EEE CALLER PUSH1 0x1D PUSH1 0x0 PUSH2 0x3ECC PUSH1 0x0 SLOAD PUSH1 0x1 PUSH1 0x1 PUSH1 0xA0 SHL SUB AND SWAP1 JUMP JUMPDEST PUSH1 0x1 PUSH1 0x1 PUSH1 0xA0 SHL SUB AND DUP2 MSTORE PUSH1 0x20 DUP2 ADD SWAP2 SWAP1 SWAP2 MSTORE PUSH1 0x40 ADD PUSH1 0x0 KECCAK256 PUSH1 0x9 ADD SWAP1 PUSH2 0x4586 JUMP JUMPDEST POP PUSH1 0x1E DUP1 SLOAD PUSH1 0x1 DUP2 ADD DUP3 SSTORE PUSH1 0x0 SWAP2 DUP3 MSTORE PUSH32 0x50BB669A95C7B50B7E8A6F09454034B2B14CF2B85C730DCA9A539CA82CB6E350 ADD DUP1 SLOAD PUSH1 0x1 PUSH1 0x1 PUSH1 0xA0 SHL SUB NOT AND CALLER SWAP1 DUP2 OR SWAP1 SWAP2 SSTORE DUP2 SLOAD PUSH1 0x40 MLOAD PUSH1 0x1 PUSH1 0x1 PUSH1 0xA0 SHL SUB SWAP1 SWAP2 AND SWAP3 PUSH32 0x98ADA70A1CB506DC4591465E1EE9BE3FD7A2B6C73ECF3B949009718C9A351519 SWAP2 LOG3 JUMPDEST PUSH2 0x3F71 CALLER PUSH2 0x4E45 JUMP JUMPDEST PUSH1 0x40 DUP1 MLOAD DUP5 DUP2 MSTORE PUSH1 0x20 DUP2 ADD DUP5 SWAP1 MSTORE CALLER SWAP2 PUSH32 0x281C1BAF144EF6FF8337E881C1101A16E16AA99104C7F1FD2D63B6B8B2F81D79 SWAP2 ADD PUSH2 0x2884 JUMP JUMPDEST PUSH2 0x3FB1 PUSH2 0x40B5 JUMP JUMPDEST PUSH1 0x1 PUSH1 0x1 PUSH1 0xA0 SHL SUB DUP2 AND PUSH2 0x4016 JUMPI PUSH1 0x40 MLOAD PUSH3 0x461BCD PUSH1 0xE5 SHL DUP2 MSTORE PUSH1 0x20 PUSH1 0x4 DUP3 ADD MSTORE PUSH1 0x26 PUSH1 0x24 DUP3 ADD MSTORE PUSH32 0x4F776E61626C653A206E6577206F776E657220697320746865207A65726F2061 PUSH1 0x44 DUP3 ADD MSTORE PUSH6 0x646472657373 PUSH1 0xD0 SHL PUSH1 0x64 DUP3 ADD MSTORE PUSH1 0x84 ADD PUSH2 0xFF0 JUMP JUMPDEST PUSH2 0x1C98 DUP2 PUSH2 0x463F JUMP JUMPDEST PUSH1 0x2 PUSH1 0x1 SLOAD SUB PUSH2 0x4071 JUMPI PUSH1 0x40 MLOAD PUSH3 0x461BCD PUSH1 0xE5 SHL DUP2 MSTORE PUSH1 0x20 PUSH1 0x4 DUP3 ADD MSTORE PUSH1 0x1F PUSH1 0x24 DUP3 ADD MSTORE PUSH32 0x5265656E7472616E637947756172643A207265656E7472616E742063616C6C00 PUSH1 0x44 DUP3 ADD MSTORE PUSH1 0x64 ADD PUSH2 0xFF0 JUMP JUMPDEST PUSH1 0x2 PUSH1 0x1 SSTORE JUMP JUMPDEST PUSH1 0x20 SLOAD ISZERO PUSH2 0x1C98 JUMPI PUSH1 0x20 SLOAD PUSH2 0x4092 DUP3 PUSH5 0xE8D4A51000 PUSH2 0x56D5 JUMP JUMPDEST PUSH2 0x409C SWAP2 SWAP1 PUSH2 0x56EC JUMP JUMPDEST PUSH1 0x21 PUSH1 0x0 DUP3 DUP3 SLOAD PUSH2 0x40AD SWAP2 SWAP1 PUSH2 0x5721 JUMP JUMPDEST SWAP1 SWAP2 SSTORE POP POP POP JUMP JUMPDEST PUSH1 0x0 SLOAD PUSH1 0x1 PUSH1 0x1 PUSH1 0xA0 SHL SUB AND CALLER EQ PUSH2 0x1785 JUMPI PUSH1 0x40 MLOAD PUSH3 0x461BCD PUSH1 0xE5 SHL DUP2 MSTORE PUSH1 0x20 PUSH1 0x4 DUP3 ADD DUP2 SWAP1 MSTORE PUSH1 0x24 DUP3 ADD MSTORE PUSH32 0x4F776E61626C653A2063616C6C6572206973206E6F7420746865206F776E6572 PUSH1 0x44 DUP3 ADD MSTORE PUSH1 0x64 ADD PUSH2 0xFF0 JUMP JUMPDEST PUSH1 0x40 DUP1 MLOAD PUSH1 0x60 DUP2 ADD DUP1 DUP4 MSTORE PUSH1 0x3 SLOAD PUSH4 0xB629640B PUSH1 0xE0 SHL SWAP1 SWAP2 MSTORE SWAP2 MLOAD PUSH1 0x0 SWAP3 DUP3 SWAP2 PUSH1 0x1 PUSH1 0x1 PUSH1 0xA0 SHL SUB SWAP1 SWAP2 AND SWAP1 PUSH4 0xB629640B SWAP1 PUSH1 0x64 DUP1 DUP6 ADD SWAP2 PUSH1 0x20 SWAP2 DUP2 DUP8 SUB ADD DUP2 DUP7 GAS STATICCALL ISZERO DUP1 ISZERO PUSH2 0x4163 JUMPI RETURNDATASIZE PUSH1 0x0 DUP1 RETURNDATACOPY RETURNDATASIZE PUSH1 0x0 REVERT JUMPDEST POP POP POP POP PUSH1 0x40 MLOAD RETURNDATASIZE PUSH1 0x1F NOT PUSH1 0x1F DUP3 ADD AND DUP3 ADD DUP1 PUSH1 0x40 MSTORE POP DUP2 ADD SWAP1 PUSH2 0x4187 SWAP2 SWAP1 PUSH2 0x56A6 JUMP JUMPDEST DUP2 MSTORE PUSH1 0x3 SLOAD PUSH1 0x40 DUP1 MLOAD PUSH4 0x193491B5 PUSH1 0xE0 SHL DUP2 MSTORE SWAP1 MLOAD PUSH1 0x20 SWAP4 DUP5 ADD SWAP4 PUSH1 0x1 PUSH1 0x1 PUSH1 0xA0 SHL SUB SWAP1 SWAP4 AND SWAP3 PUSH4 0x193491B5 SWAP3 PUSH1 0x4 DUP1 DUP3 ADD SWAP4 SWAP2 DUP3 SWAP1 SUB ADD DUP2 DUP7 GAS STATICCALL ISZERO DUP1 ISZERO PUSH2 0x41D4 JUMPI RETURNDATASIZE PUSH1 0x0 DUP1 RETURNDATACOPY RETURNDATASIZE PUSH1 0x0 REVERT JUMPDEST POP POP POP POP PUSH1 0x40 MLOAD RETURNDATASIZE PUSH1 0x1F NOT PUSH1 0x1F DUP3 ADD AND DUP3 ADD DUP1 PUSH1 0x40 MSTORE POP DUP2 ADD SWAP1 PUSH2 0x41F8 SWAP2 SWAP1 PUSH2 0x56A6 JUMP JUMPDEST DUP2 MSTORE PUSH1 0x3 SLOAD PUSH1 0x40 DUP1 MLOAD PUSH4 0xD15DFE2D PUSH1 0xE0 SHL DUP2 MSTORE SWAP1 MLOAD PUSH1 0x20 SWAP4 DUP5 ADD SWAP4 PUSH1 0x1 PUSH1 0x1 PUSH1 0xA0 SHL SUB SWAP1 SWAP4 AND SWAP3 PUSH4 0xD15DFE2D SWAP3 PUSH1 0x4 DUP1 DUP3 ADD SWAP4 SWAP2 DUP3 SWAP1 SUB ADD DUP2 DUP7 GAS STATICCALL ISZERO DUP1 ISZERO PUSH2 0x4245 JUMPI RETURNDATASIZE PUSH1 0x0 DUP1 RETURNDATACOPY RETURNDATASIZE PUSH1 0x0 REVERT JUMPDEST POP POP POP POP PUSH1 0x40 MLOAD RETURNDATASIZE PUSH1 0x1F NOT PUSH1 0x1F DUP3 ADD AND DUP3 ADD DUP1 PUSH1 0x40 MSTORE POP DUP2 ADD SWAP1 PUSH2 0x4269 SWAP2 SWAP1 PUSH2 0x56A6 JUMP JUMPDEST DUP2 MSTORE POP SWAP1 POP PUSH1 0x0 PUSH1 0x40 MLOAD DUP1 PUSH1 0x60 ADD PUSH1 0x40 MSTORE DUP1 PUSH1 0x3 PUSH1 0x0 SWAP1 SLOAD SWAP1 PUSH2 0x100 EXP SWAP1 DIV PUSH1 0x1 PUSH1 0x1 PUSH1 0xA0 SHL SUB AND PUSH1 0x1 PUSH1 0x1 PUSH1 0xA0 SHL SUB AND PUSH4 0xBC1E4023 PUSH1 0x40 MLOAD DUP2 PUSH4 0xFFFFFFFF AND PUSH1 0xE0 SHL DUP2 MSTORE PUSH1 0x4 ADD PUSH1 0x20 PUSH1 0x40 MLOAD DUP1 DUP4 SUB DUP2 DUP7 GAS STATICCALL ISZERO DUP1 ISZERO PUSH2 0x42CE JUMPI RETURNDATASIZE PUSH1 0x0 DUP1 RETURNDATACOPY RETURNDATASIZE PUSH1 0x0 REVERT JUMPDEST POP POP POP POP PUSH1 0x40 MLOAD RETURNDATASIZE PUSH1 0x1F NOT PUSH1 0x1F DUP3 ADD AND DUP3 ADD DUP1 PUSH1 0x40 MSTORE POP DUP2 ADD SWAP1 PUSH2 0x42F2 SWAP2 SWAP1 PUSH2 0x56A6 JUMP JUMPDEST DUP2 MSTORE PUSH1 0x3 SLOAD PUSH1 0x40 DUP1 MLOAD PUSH4 0x20083B89 PUSH1 0xE0 SHL DUP2 MSTORE SWAP1 MLOAD PUSH1 0x20 SWAP4 DUP5 ADD SWAP4 PUSH1 0x1 PUSH1 0x1 PUSH1 0xA0 SHL SUB SWAP1 SWAP4 AND SWAP3 PUSH4 0x20083B89 SWAP3 PUSH1 0x4 DUP1 DUP3 ADD SWAP4 SWAP2 DUP3 SWAP1 SUB ADD DUP2 DUP7 GAS STATICCALL ISZERO DUP1 ISZERO PUSH2 0x433F JUMPI RETURNDATASIZE PUSH1 0x0 DUP1 RETURNDATACOPY RETURNDATASIZE PUSH1 0x0 REVERT JUMPDEST POP POP POP POP PUSH1 0x40 MLOAD RETURNDATASIZE PUSH1 0x1F NOT PUSH1 0x1F DUP3 ADD AND DUP3 ADD DUP1 PUSH1 0x40 MSTORE POP DUP2 ADD SWAP1 PUSH2 0x4363 SWAP2 SWAP1 PUSH2 0x56A6 JUMP JUMPDEST DUP2 MSTORE PUSH1 0x3 SLOAD PUSH1 0x40 DUP1 MLOAD PUSH4 0x3C07AAC9 PUSH1 0xE2 SHL DUP2 MSTORE SWAP1 MLOAD PUSH1 0x20 SWAP4 DUP5 ADD SWAP4 PUSH1 0x1 PUSH1 0x1 PUSH1 0xA0 SHL SUB SWAP1 SWAP4 AND SWAP3 PUSH4 0xF01EAB24 SWAP3 PUSH1 0x4 DUP1 DUP3 ADD SWAP4 SWAP2 DUP3 SWAP1 SUB ADD DUP2 DUP7 GAS STATICCALL ISZERO DUP1 ISZERO PUSH2 0x43B0 JUMPI RETURNDATASIZE PUSH1 0x0 DUP1 RETURNDATACOPY RETURNDATASIZE PUSH1 0x0 REVERT JUMPDEST POP POP POP POP PUSH1 0x40 MLOAD RETURNDATASIZE PUSH1 0x1F NOT PUSH1 0x1F DUP3 ADD AND DUP3 ADD DUP1 PUSH1 0x40 MSTORE POP DUP2 ADD SWAP1 PUSH2 0x43D4 SWAP2 SWAP1 PUSH2 0x56A6 JUMP JUMPDEST SWAP1 MSTORE SWAP1 POP PUSH1 0xF PUSH1 0x0 JUMPDEST PUSH1 0x3 DUP2 LT ISZERO PUSH2 0x44A1 JUMPI PUSH1 0x0 DUP5 DUP3 PUSH1 0x3 DUP2 LT PUSH2 0x43FA JUMPI PUSH2 0x43FA PUSH2 0x5798 JUMP JUMPDEST PUSH1 0x20 MUL ADD MLOAD GT ISZERO PUSH2 0x448F JUMPI PUSH1 0x0 DUP3 DUP5 DUP4 PUSH1 0x3 DUP2 LT PUSH2 0x441A JUMPI PUSH2 0x441A PUSH2 0x5798 JUMP JUMPDEST PUSH1 0x20 MUL ADD MLOAD PUSH2 0x4429 SWAP1 DUP9 PUSH2 0x56D5 JUMP JUMPDEST PUSH2 0x4433 SWAP2 SWAP1 PUSH2 0x56EC JUMP JUMPDEST SWAP1 POP DUP5 DUP3 PUSH1 0x3 DUP2 LT PUSH2 0x4447 JUMPI PUSH2 0x4447 PUSH2 0x5798 JUMP JUMPDEST PUSH1 0x20 MUL ADD MLOAD PUSH2 0x445B DUP3 PUSH5 0xE8D4A51000 PUSH2 0x56D5 JUMP JUMPDEST PUSH2 0x4465 SWAP2 SWAP1 PUSH2 0x56EC JUMP JUMPDEST PUSH1 0x32 DUP4 PUSH1 0x3 DUP2 LT PUSH2 0x4478 JUMPI PUSH2 0x4478 PUSH2 0x5798 JUMP JUMPDEST ADD PUSH1 0x0 DUP3 DUP3 SLOAD PUSH2 0x4488 SWAP2 SWAP1 PUSH2 0x5721 JUMP JUMPDEST SWAP1 SWAP2 SSTORE POP POP POP JUMPDEST DUP1 PUSH2 0x4499 DUP2 PUSH2 0x57AE JUMP JUMPDEST SWAP2 POP POP PUSH2 0x43DD JUMP JUMPDEST POP POP POP POP POP JUMP JUMPDEST PUSH1 0x28 SLOAD DUP1 ISZERO PUSH2 0x13A7 JUMPI DUP1 PUSH2 0x44C1 DUP4 PUSH5 0xE8D4A51000 PUSH2 0x56D5 JUMP JUMPDEST PUSH2 0x44CB SWAP2 SWAP1 PUSH2 0x56EC JUMP JUMPDEST PUSH1 0x2B PUSH1 0x0 DUP3 DUP3 SLOAD PUSH2 0x44DC SWAP2 SWAP1 PUSH2 0x5721 JUMP JUMPDEST SWAP1 SWAP2 SSTORE POP POP POP POP JUMP JUMPDEST PUSH1 0x0 PUSH2 0x44F2 PUSH1 0x8 DUP4 PUSH2 0x56EC JUMP JUMPDEST SWAP1 POP PUSH1 0x0 JUMPDEST PUSH1 0x8 DUP2 LT ISZERO PUSH2 0x191D JUMPI PUSH1 0x0 PUSH1 0x36 DUP3 PUSH1 0x8 DUP2 LT PUSH2 0x4515 JUMPI PUSH2 0x4515 PUSH2 0x5798 JUMP JUMPDEST ADD SLOAD GT ISZERO PUSH2 0x4574 JUMPI PUSH1 0x36 DUP2 PUSH1 0x8 DUP2 LT PUSH2 0x4530 JUMPI PUSH2 0x4530 PUSH2 0x5798 JUMP JUMPDEST ADD SLOAD PUSH2 0x4541 DUP4 PUSH5 0xE8D4A51000 PUSH2 0x56D5 JUMP JUMPDEST PUSH2 0x454B SWAP2 SWAP1 PUSH2 0x56EC JUMP JUMPDEST PUSH1 0x3E DUP3 PUSH1 0x8 DUP2 LT PUSH2 0x455E JUMPI PUSH2 0x455E PUSH2 0x5798 JUMP JUMPDEST ADD PUSH1 0x0 DUP3 DUP3 SLOAD PUSH2 0x456E SWAP2 SWAP1 PUSH2 0x5721 JUMP JUMPDEST SWAP1 SWAP2 SSTORE POP POP JUMPDEST DUP1 PUSH2 0x457E DUP2 PUSH2 0x57AE JUMP JUMPDEST SWAP2 POP POP PUSH2 0x44F7 JUMP JUMPDEST PUSH1 0x0 PUSH2 0x19CC DUP4 PUSH1 0x1 PUSH1 0x1 PUSH1 0xA0 SHL SUB DUP5 AND PUSH2 0x4F63 JUMP JUMPDEST PUSH1 0x1 PUSH1 0x1 PUSH1 0xA0 SHL SUB DUP1 DUP3 AND PUSH1 0x0 SWAP1 DUP2 MSTORE PUSH1 0x1D PUSH1 0x20 MSTORE PUSH1 0x40 DUP2 KECCAK256 SLOAD SWAP1 SWAP2 AND DUP2 JUMPDEST PUSH1 0x1 PUSH1 0x1 PUSH1 0xA0 SHL SUB DUP3 AND ISZERO DUP1 ISZERO SWAP1 PUSH2 0x45D2 JUMPI POP PUSH1 0x64 DUP2 LT JUMPDEST ISZERO PUSH2 0x4635 JUMPI PUSH1 0x1 PUSH1 0x1 PUSH1 0xA0 SHL SUB DUP3 AND PUSH1 0x0 SWAP1 DUP2 MSTORE PUSH1 0x1D PUSH1 0x20 MSTORE PUSH1 0x40 SWAP1 KECCAK256 PUSH1 0x7 ADD SLOAD PUSH1 0xFF AND ISZERO PUSH2 0x4605 JUMPI POP PUSH1 0x1 SWAP4 SWAP3 POP POP POP JUMP JUMPDEST PUSH1 0x1 PUSH1 0x1 PUSH1 0xA0 SHL SUB SWAP2 DUP3 AND PUSH1 0x0 SWAP1 DUP2 MSTORE PUSH1 0x1D PUSH1 0x20 MSTORE PUSH1 0x40 SWAP1 KECCAK256 SLOAD SWAP1 SWAP2 AND SWAP1 DUP1 PUSH2 0x462D DUP2 PUSH2 0x57AE JUMP JUMPDEST SWAP2 POP POP PUSH2 0x45BA JUMP JUMPDEST POP PUSH1 0x0 SWAP4 SWAP3 POP POP POP JUMP JUMPDEST PUSH1 0x0 DUP1 SLOAD PUSH1 0x1 PUSH1 0x1 PUSH1 0xA0 SHL SUB DUP4 DUP2 AND PUSH1 0x1 PUSH1 0x1 PUSH1 0xA0 SHL SUB NOT DUP4 AND DUP2 OR DUP5 SSTORE PUSH1 0x40 MLOAD SWAP2 SWAP1 SWAP3 AND SWAP3 DUP4 SWAP2 PUSH32 0x8BE0079C531659141344CD1FD0A4F28419497F9722A3DAAFE3B4186F6B6457E0 SWAP2 SWAP1 LOG3 POP POP JUMP JUMPDEST PUSH1 0x0 DUP2 DUP2 MSTORE PUSH1 0x26 PUSH1 0x20 SWAP1 DUP2 MSTORE PUSH1 0x40 DUP1 DUP4 KECCAK256 SLOAD PUSH1 0x1 PUSH1 0x1 PUSH1 0xA0 SHL SUB DUP7 AND DUP5 MSTORE PUSH1 0x23 DUP4 MSTORE DUP2 DUP5 KECCAK256 DUP6 DUP6 MSTORE SWAP1 SWAP3 MSTORE DUP3 KECCAK256 SLOAD PUSH5 0xE8D4A51000 SWAP2 PUSH2 0x46CD SWAP2 PUSH2 0x56D5 JUMP JUMPDEST PUSH2 0x46D7 SWAP2 SWAP1 PUSH2 0x56EC JUMP JUMPDEST SWAP1 POP DUP1 ISZERO PUSH2 0x191D JUMPI PUSH1 0x5 SLOAD PUSH1 0x0 SWAP1 PUSH2 0x46F7 DUP4 PUSH8 0xDE0B6B3A7640000 PUSH2 0x56D5 JUMP JUMPDEST PUSH2 0x4701 SWAP2 SWAP1 PUSH2 0x56EC JUMP JUMPDEST PUSH1 0x2 SLOAD PUSH1 0x40 MLOAD PUSH4 0x40C10F19 PUSH1 0xE0 SHL DUP2 MSTORE SWAP2 SWAP3 POP PUSH1 0x1 PUSH1 0x1 PUSH1 0xA0 SHL SUB AND SWAP1 PUSH4 0x40C10F19 SWAP1 PUSH2 0x4734 SWAP1 DUP8 SWAP1 DUP6 SWAP1 PUSH1 0x4 ADD PUSH2 0x5734 JUMP JUMPDEST PUSH1 0x0 PUSH1 0x40 MLOAD DUP1 DUP4 SUB DUP2 PUSH1 0x0 DUP8 DUP1 EXTCODESIZE ISZERO DUP1 ISZERO PUSH2 0x474E JUMPI PUSH1 0x0 DUP1 REVERT JUMPDEST POP GAS CALL ISZERO DUP1 ISZERO PUSH2 0x4762 JUMPI RETURNDATASIZE PUSH1 0x0 DUP1 RETURNDATACOPY RETURNDATASIZE PUSH1 0x0 REVERT JUMPDEST POP POP POP POP POP POP POP POP JUMP JUMPDEST DUP2 JUMPDEST PUSH1 0x1 PUSH1 0x1 PUSH1 0xA0 SHL SUB DUP2 AND ISZERO PUSH2 0x191D JUMPI PUSH1 0x1 PUSH1 0x1 PUSH1 0xA0 SHL SUB DUP2 AND PUSH1 0x0 SWAP1 DUP2 MSTORE PUSH1 0x1D PUSH1 0x20 MSTORE PUSH1 0x40 DUP2 KECCAK256 PUSH1 0x4 ADD DUP1 SLOAD DUP5 SWAP3 SWAP1 PUSH2 0x47A8 SWAP1 DUP5 SWAP1 PUSH2 0x5721 JUMP JUMPDEST SWAP1 SWAP2 SSTORE POP POP PUSH1 0x1 PUSH1 0x1 PUSH1 0xA0 SHL SUB SWAP1 DUP2 AND PUSH1 0x0 SWAP1 DUP2 MSTORE PUSH1 0x1D PUSH1 0x20 MSTORE PUSH1 0x40 SWAP1 KECCAK256 SLOAD AND PUSH2 0x476E JUMP JUMPDEST PUSH1 0x0 PUSH1 0x64 PUSH2 0x47DC DUP4 PUSH1 0x1E PUSH2 0x56D5 JUMP JUMPDEST PUSH2 0x47E6 SWAP2 SWAP1 PUSH2 0x56EC JUMP JUMPDEST SWAP1 POP PUSH1 0x0 PUSH1 0x64 PUSH2 0x47F7 DUP5 PUSH1 0xF PUSH2 0x56D5 JUMP JUMPDEST PUSH2 0x4801 SWAP2 SWAP1 PUSH2 0x56EC JUMP JUMPDEST SWAP1 POP PUSH1 0x0 PUSH1 0x64 PUSH2 0x4812 DUP6 PUSH1 0x1E PUSH2 0x56D5 JUMP JUMPDEST PUSH2 0x481C SWAP2 SWAP1 PUSH2 0x56EC JUMP JUMPDEST SWAP1 POP PUSH1 0x0 PUSH1 0x64 PUSH2 0x482D DUP7 PUSH1 0xA PUSH2 0x56D5 JUMP JUMPDEST PUSH2 0x4837 SWAP2 SWAP1 PUSH2 0x56EC JUMP JUMPDEST SWAP1 POP PUSH1 0x0 PUSH1 0x64 PUSH2 0x4848 DUP8 PUSH1 0x7 PUSH2 0x56D5 JUMP JUMPDEST PUSH2 0x4852 SWAP2 SWAP1 PUSH2 0x56EC JUMP JUMPDEST SWAP1 POP PUSH1 0x0 PUSH1 0x64 PUSH2 0x4863 DUP9 PUSH1 0x8 PUSH2 0x56D5 JUMP JUMPDEST PUSH2 0x486D SWAP2 SWAP1 PUSH2 0x56EC JUMP JUMPDEST PUSH1 0x1 PUSH1 0x1 PUSH1 0xA0 SHL SUB DUP1 DUP11 AND PUSH1 0x0 SWAP1 DUP2 MSTORE PUSH1 0x1D PUSH1 0x20 MSTORE PUSH1 0x40 SWAP1 KECCAK256 SLOAD SWAP2 SWAP3 POP AND DUP1 ISZERO PUSH2 0x4952 JUMPI PUSH1 0x1 PUSH1 0x1 PUSH1 0xA0 SHL SUB DUP2 AND PUSH1 0x0 SWAP1 DUP2 MSTORE PUSH1 0x2C PUSH1 0x20 MSTORE PUSH1 0x40 SWAP1 KECCAK256 SLOAD PUSH1 0xFF AND PUSH2 0x4909 JUMPI PUSH1 0x1 PUSH1 0x1 PUSH1 0xA0 SHL SUB DUP2 AND PUSH1 0x0 SWAP1 DUP2 MSTORE PUSH1 0x1D PUSH1 0x20 MSTORE PUSH1 0x40 SWAP1 KECCAK256 PUSH1 0x5 ADD SLOAD DUP8 GT PUSH2 0x4904 JUMPI PUSH1 0x1 PUSH1 0x1 PUSH1 0xA0 SHL SUB DUP2 AND PUSH1 0x0 SWAP1 DUP2 MSTORE PUSH1 0x1D PUSH1 0x20 MSTORE PUSH1 0x40 DUP2 KECCAK256 PUSH1 0x5 ADD DUP1 SLOAD DUP10 SWAP3 SWAP1 PUSH2 0x48FE SWAP1 DUP5 SWAP1 PUSH2 0x570E JUMP JUMPDEST SWAP1 SWAP2 SSTORE POP POP JUMPDEST PUSH2 0x4921 JUMP JUMPDEST DUP7 PUSH1 0x30 PUSH1 0x0 DUP3 DUP3 SLOAD PUSH2 0x491B SWAP2 SWAP1 PUSH2 0x5721 JUMP JUMPDEST SWAP1 SWAP2 SSTORE POP POP JUMPDEST PUSH1 0x1 PUSH1 0x1 PUSH1 0xA0 SHL SUB DUP2 AND PUSH1 0x0 SWAP1 DUP2 MSTORE PUSH1 0x1D PUSH1 0x20 MSTORE PUSH1 0x40 DUP2 KECCAK256 PUSH1 0x6 ADD DUP1 SLOAD DUP10 SWAP3 SWAP1 PUSH2 0x494C SWAP1 DUP5 SWAP1 PUSH2 0x5721 JUMP JUMPDEST SWAP1 SWAP2 SSTORE POP POP JUMPDEST PUSH2 0x495C DUP10 DUP8 PUSH2 0x4FB2 JUMP JUMPDEST PUSH2 0x4966 DUP10 DUP7 PUSH2 0x515D JUMP JUMPDEST PUSH2 0x4970 DUP10 DUP6 PUSH2 0x52AE JUMP JUMPDEST DUP3 PUSH1 0x2F PUSH1 0x0 DUP3 DUP3 SLOAD PUSH2 0x4982 SWAP2 SWAP1 PUSH2 0x5721 JUMP JUMPDEST SWAP3 POP POP DUP2 SWAP1 SSTORE POP DUP2 PUSH1 0x30 PUSH1 0x0 DUP3 DUP3 SLOAD PUSH2 0x499B SWAP2 SWAP1 PUSH2 0x5721 JUMP JUMPDEST SWAP1 SWAP2 SSTORE POP POP POP POP POP POP POP POP POP POP POP JUMP JUMPDEST PUSH1 0x1 PUSH1 0x1 PUSH1 0xA0 SHL SUB DUP1 DUP3 AND PUSH1 0x0 SWAP1 DUP2 MSTORE PUSH1 0x1D PUSH1 0x20 MSTORE PUSH1 0x40 DUP2 KECCAK256 SLOAD SWAP1 SWAP2 AND SWAP1 JUMPDEST PUSH1 0x1 PUSH1 0x1 PUSH1 0xA0 SHL SUB DUP3 AND ISZERO DUP1 ISZERO SWAP1 PUSH2 0x49E2 JUMPI POP PUSH1 0x64 DUP2 LT JUMPDEST ISZERO PUSH2 0x191D JUMPI PUSH1 0x1 PUSH1 0x1 PUSH1 0xA0 SHL SUB DUP3 AND PUSH1 0x0 SWAP1 DUP2 MSTORE PUSH1 0x1D PUSH1 0x20 MSTORE PUSH1 0x40 SWAP1 KECCAK256 PUSH1 0x7 ADD SLOAD PUSH1 0xFF AND ISZERO PUSH2 0x4A14 JUMPI PUSH2 0x4A14 DUP3 PUSH2 0x4E45 JUMP JUMPDEST PUSH1 0x1 PUSH1 0x1 PUSH1 0xA0 SHL SUB SWAP2 DUP3 AND PUSH1 0x0 SWAP1 DUP2 MSTORE PUSH1 0x1D PUSH1 0x20 MSTORE PUSH1 0x40 SWAP1 KECCAK256 SLOAD SWAP1 SWAP2 AND SWAP1 DUP1 PUSH2 0x4A3C DUP2 PUSH2 0x57AE JUMP JUMPDEST SWAP2 POP POP PUSH2 0x49CA JUMP JUMPDEST PUSH1 0x1 PUSH1 0x1 PUSH1 0xA0 SHL SUB DUP2 AND PUSH1 0x0 SWAP1 DUP2 MSTORE PUSH1 0x1D PUSH1 0x20 MSTORE PUSH1 0x40 DUP2 KECCAK256 SWAP1 DUP1 DUP1 PUSH2 0x4A6B PUSH1 0x9 DUP6 ADD PUSH2 0x5407 JUMP JUMPDEST SWAP1 POP PUSH1 0x0 JUMPDEST DUP2 MLOAD DUP2 LT ISZERO PUSH2 0x4AEB JUMPI PUSH1 0x0 PUSH1 0x1D PUSH1 0x0 DUP5 DUP5 DUP2 MLOAD DUP2 LT PUSH2 0x4A91 JUMPI PUSH2 0x4A91 PUSH2 0x5798 JUMP JUMPDEST PUSH1 0x20 MUL PUSH1 0x20 ADD ADD MLOAD PUSH1 0x1 PUSH1 0x1 PUSH1 0xA0 SHL SUB AND PUSH1 0x1 PUSH1 0x1 PUSH1 0xA0 SHL SUB AND DUP2 MSTORE PUSH1 0x20 ADD SWAP1 DUP2 MSTORE PUSH1 0x20 ADD PUSH1 0x0 KECCAK256 PUSH1 0x4 ADD SLOAD SWAP1 POP DUP5 DUP2 GT ISZERO PUSH2 0x4ACB JUMPI DUP1 SWAP5 POP JUMPDEST PUSH2 0x4AD5 DUP2 DUP6 PUSH2 0x5721 JUMP JUMPDEST SWAP4 POP POP DUP1 DUP1 PUSH2 0x4AE3 SWAP1 PUSH2 0x57AE JUMP JUMPDEST SWAP2 POP POP PUSH2 0x4A70 JUMP JUMPDEST POP PUSH1 0x0 PUSH2 0x4AF8 DUP5 DUP5 PUSH2 0x570E JUMP JUMPDEST SWAP1 POP PUSH1 0x0 PUSH10 0x43C33C1937564800000 DUP3 LT PUSH2 0x4B15 JUMPI POP PUSH1 0x6 PUSH2 0x4B8A JUMP JUMPDEST PUSH10 0x14542BA12A337C00000 DUP3 LT PUSH2 0x4B2E JUMPI POP PUSH1 0x5 PUSH2 0x4B8A JUMP JUMPDEST PUSH9 0x6C6B935B8BBD400000 DUP3 LT PUSH2 0x4B46 JUMPI POP PUSH1 0x4 PUSH2 0x4B8A JUMP JUMPDEST PUSH9 0x2086AC351052600000 DUP3 LT PUSH2 0x4B5E JUMPI POP PUSH1 0x3 PUSH2 0x4B8A JUMP JUMPDEST PUSH9 0xAD78EBC5AC6200000 DUP3 LT PUSH2 0x4B76 JUMPI POP PUSH1 0x2 PUSH2 0x4B8A JUMP JUMPDEST PUSH9 0x56BC75E2D63100000 DUP3 LT PUSH2 0x4B8A JUMPI POP PUSH1 0x1 JUMPDEST PUSH1 0x2 DUP7 ADD SLOAD PUSH1 0xFF SWAP1 DUP2 AND SWAP1 DUP3 AND GT ISZERO PUSH2 0x4BDE JUMPI PUSH1 0x2 DUP7 ADD DUP1 SLOAD PUSH1 0xFF NOT AND PUSH1 0xFF DUP4 AND SWAP1 DUP2 OR SWAP1 SWAP2 SSTORE PUSH1 0x40 MLOAD SWAP1 DUP2 MSTORE PUSH1 0x1 PUSH1 0x1 PUSH1 0xA0 SHL SUB DUP9 AND SWAP1 PUSH1 0x0 DUP1 MLOAD PUSH1 0x20 PUSH2 0x5898 DUP4 CODECOPY DUP2 MLOAD SWAP2 MSTORE SWAP1 PUSH1 0x20 ADD PUSH1 0x40 MLOAD DUP1 SWAP2 SUB SWAP1 LOG2 JUMPDEST POP POP POP POP POP POP POP JUMP JUMPDEST PUSH1 0x1 PUSH1 0x1 PUSH1 0xA0 SHL SUB DUP2 AND PUSH1 0x0 SWAP1 DUP2 MSTORE PUSH1 0x1D PUSH1 0x20 MSTORE PUSH1 0x40 DUP2 KECCAK256 SWAP1 PUSH2 0x4C09 DUP4 PUSH2 0x5414 JUMP JUMPDEST SWAP1 POP PUSH1 0x0 DUP1 JUMPDEST PUSH1 0x8 DUP2 PUSH1 0xFF AND LT ISZERO PUSH2 0x4C62 JUMPI PUSH1 0x15 DUP2 PUSH1 0xFF AND PUSH1 0x8 DUP2 LT PUSH2 0x4C31 JUMPI PUSH2 0x4C31 PUSH2 0x5798 JUMP JUMPDEST ADD SLOAD DUP4 LT PUSH2 0x4C4B JUMPI PUSH2 0x4C44 DUP2 PUSH1 0x1 PUSH2 0x5848 JUMP JUMPDEST SWAP2 POP PUSH2 0x4C50 JUMP JUMPDEST PUSH2 0x4C62 JUMP JUMPDEST DUP1 PUSH2 0x4C5A DUP2 PUSH2 0x5861 JUMP JUMPDEST SWAP2 POP POP PUSH2 0x4C0F JUMP JUMPDEST POP PUSH1 0x2 DUP4 ADD SLOAD PUSH1 0xFF DUP3 DUP2 AND PUSH2 0x100 SWAP1 SWAP3 DIV AND EQ PUSH2 0x4D68 JUMPI PUSH1 0x2 DUP4 ADD SLOAD PUSH2 0x100 SWAP1 DIV PUSH1 0xFF AND ISZERO PUSH2 0x4CCF JUMPI PUSH1 0x2 DUP4 ADD SLOAD PUSH1 0x36 SWAP1 PUSH2 0x4CA7 SWAP1 PUSH1 0x1 SWAP1 PUSH2 0x100 SWAP1 DIV PUSH1 0xFF AND PUSH2 0x582F JUMP JUMPDEST PUSH1 0xFF AND PUSH1 0x8 DUP2 LT PUSH2 0x4CBA JUMPI PUSH2 0x4CBA PUSH2 0x5798 JUMP JUMPDEST ADD DUP1 SLOAD SWAP1 PUSH1 0x0 PUSH2 0x4CC9 DUP4 PUSH2 0x5880 JUMP JUMPDEST SWAP2 SWAP1 POP SSTORE POP JUMPDEST PUSH1 0xFF DUP2 AND ISZERO PUSH2 0x4D0D JUMPI PUSH1 0x36 PUSH2 0x4CE5 PUSH1 0x1 DUP4 PUSH2 0x582F JUMP JUMPDEST PUSH1 0xFF AND PUSH1 0x8 DUP2 LT PUSH2 0x4CF8 JUMPI PUSH2 0x4CF8 PUSH2 0x5798 JUMP JUMPDEST ADD DUP1 SLOAD SWAP1 PUSH1 0x0 PUSH2 0x4D07 DUP4 PUSH2 0x57AE JUMP JUMPDEST SWAP2 SWAP1 POP SSTORE POP JUMPDEST PUSH1 0x2 DUP4 ADD DUP1 SLOAD PUSH2 0xFF00 NOT AND PUSH2 0x100 PUSH1 0xFF DUP5 AND SWAP1 DUP2 MUL SWAP2 SWAP1 SWAP2 OR SWAP1 SWAP2 SSTORE PUSH1 0x40 MLOAD SWAP1 DUP2 MSTORE PUSH1 0x1 PUSH1 0x1 PUSH1 0xA0 SHL SUB DUP6 AND SWAP1 PUSH32 0xEB7FC1B9C3DF6B1BB3224F0A7F56E441755A790378C499A7584D55A4B7040014 SWAP1 PUSH1 0x20 ADD PUSH1 0x40 MLOAD DUP1 SWAP2 SUB SWAP1 LOG2 JUMPDEST POP POP POP POP JUMP JUMPDEST PUSH1 0x1 PUSH1 0x1 PUSH1 0xA0 SHL SUB DUP2 AND PUSH1 0x0 SWAP1 DUP2 MSTORE PUSH1 0x29 PUSH1 0x20 MSTORE PUSH1 0x40 SWAP1 KECCAK256 SLOAD PUSH1 0xFF AND PUSH2 0x4D91 JUMPI POP JUMP JUMPDEST PUSH1 0x1 PUSH1 0x1 PUSH1 0xA0 SHL SUB DUP2 AND PUSH1 0x0 SWAP1 DUP2 MSTORE PUSH1 0x1D PUSH1 0x20 MSTORE PUSH1 0x40 SWAP1 KECCAK256 PUSH1 0x3 DUP2 ADD SLOAD PUSH10 0x10F0CF064DD59200000 SWAP1 DUP2 GT ISZERO PUSH2 0x4DC6 JUMPI POP POP POP JUMP JUMPDEST PUSH1 0x28 SLOAD PUSH1 0x0 SWAP1 PUSH1 0x14 LT ISZERO PUSH2 0x4DE4 JUMPI PUSH10 0xA968163F0A57B400000 PUSH2 0x4DF0 JUMP JUMPDEST PUSH10 0x65A4DA25D3016C00000 JUMPDEST PUSH10 0xFFFFFFFFFFFFFFFFFFFF AND SWAP1 POP DUP1 DUP4 PUSH1 0x6 ADD SLOAD LT ISZERO PUSH2 0x4E10 JUMPI POP POP POP POP JUMP JUMPDEST PUSH5 0xE8D4A51000 PUSH1 0x2B SLOAD PUSH2 0x4E23 SWAP2 SWAP1 PUSH2 0x56EC JUMP JUMPDEST PUSH1 0x1 PUSH1 0x1 PUSH1 0xA0 SHL SUB SWAP1 SWAP5 AND PUSH1 0x0 SWAP1 DUP2 MSTORE PUSH1 0x2A PUSH1 0x20 MSTORE PUSH1 0x40 SWAP1 KECCAK256 SWAP4 SWAP1 SWAP4 SSTORE POP POP POP JUMP JUMPDEST PUSH1 0x1 PUSH1 0x1 PUSH1 0xA0 SHL SUB DUP2 AND PUSH1 0x0 SWAP1 DUP2 MSTORE PUSH1 0x1D PUSH1 0x20 MSTORE PUSH1 0x40 DUP2 KECCAK256 DUP2 SWAP1 PUSH2 0x4E6B SWAP1 PUSH1 0x9 ADD PUSH2 0x5407 JUMP JUMPDEST SWAP1 POP PUSH1 0x0 JUMPDEST DUP2 MLOAD DUP2 LT ISZERO PUSH2 0x4EE3 JUMPI PUSH1 0x0 PUSH1 0x1D PUSH1 0x0 DUP5 DUP5 DUP2 MLOAD DUP2 LT PUSH2 0x4E91 JUMPI PUSH2 0x4E91 PUSH2 0x5798 JUMP JUMPDEST PUSH1 0x20 MUL PUSH1 0x20 ADD ADD MLOAD PUSH1 0x1 PUSH1 0x1 PUSH1 0xA0 SHL SUB AND PUSH1 0x1 PUSH1 0x1 PUSH1 0xA0 SHL SUB AND DUP2 MSTORE PUSH1 0x20 ADD SWAP1 DUP2 MSTORE PUSH1 0x20 ADD PUSH1 0x0 KECCAK256 PUSH1 0x3 ADD SLOAD GT ISZERO PUSH2 0x4ED1 JUMPI DUP3 PUSH2 0x4ECD DUP2 PUSH2 0x57AE JUMP JUMPDEST SWAP4 POP POP JUMPDEST DUP1 PUSH2 0x4EDB DUP2 PUSH2 0x57AE JUMP JUMPDEST SWAP2 POP POP PUSH2 0x4E70 JUMP JUMPDEST POP PUSH1 0x1 PUSH1 0x1 PUSH1 0xA0 SHL SUB DUP4 AND PUSH1 0x0 SWAP1 DUP2 MSTORE PUSH1 0x1D PUSH1 0x20 MSTORE PUSH1 0x40 SWAP1 KECCAK256 PUSH1 0x8 ADD SLOAD DUP3 EQ PUSH2 0x191D JUMPI PUSH1 0x1 PUSH1 0x1 PUSH1 0xA0 SHL SUB DUP4 AND PUSH1 0x0 DUP2 DUP2 MSTORE PUSH1 0x1D PUSH1 0x20 MSTORE PUSH1 0x40 SWAP1 DUP2 SWAP1 KECCAK256 PUSH1 0x8 ADD DUP5 SWAP1 SSTORE MLOAD PUSH32 0xB174C8E48C6B6E41C2436616412F05632A54E0FD2D4FF6DCEA1B83E6DD2AF383 SWAP1 PUSH2 0x4F56 SWAP1 DUP6 DUP2 MSTORE PUSH1 0x20 ADD SWAP1 JUMP JUMPDEST PUSH1 0x40 MLOAD DUP1 SWAP2 SUB SWAP1 LOG2 POP POP POP JUMP JUMPDEST PUSH1 0x0 DUP2 DUP2 MSTORE PUSH1 0x1 DUP4 ADD PUSH1 0x20 MSTORE PUSH1 0x40 DUP2 KECCAK256 SLOAD PUSH2 0x4FAA JUMPI POP DUP2 SLOAD PUSH1 0x1 DUP2 DUP2 ADD DUP5 SSTORE PUSH1 0x0 DUP5 DUP2 MSTORE PUSH1 0x20 DUP1 DUP3 KECCAK256 SWAP1 SWAP4 ADD DUP5 SWAP1 SSTORE DUP5 SLOAD DUP5 DUP3 MSTORE DUP3 DUP7 ADD SWAP1 SWAP4 MSTORE PUSH1 0x40 SWAP1 KECCAK256 SWAP2 SWAP1 SWAP2 SSTORE PUSH2 0x17D3 JUMP JUMPDEST POP PUSH1 0x0 PUSH2 0x17D3 JUMP JUMPDEST PUSH1 0x0 PUSH2 0x4FBF PUSH1 0xF DUP4 PUSH2 0x56EC JUMP JUMPDEST PUSH1 0x1 PUSH1 0x1 PUSH1 0xA0 SHL SUB DUP1 DUP6 AND PUSH1 0x0 SWAP1 DUP2 MSTORE PUSH1 0x1D PUSH1 0x20 MSTORE PUSH1 0x40 SWAP1 KECCAK256 SLOAD SWAP2 SWAP3 POP AND PUSH1 0x1 JUMPDEST PUSH1 0x1 PUSH1 0x1 PUSH1 0xA0 SHL SUB DUP3 AND ISZERO DUP1 ISZERO SWAP1 PUSH2 0x4FF9 JUMPI POP PUSH1 0xF DUP2 GT ISZERO JUMPDEST ISZERO PUSH2 0x512B JUMPI PUSH1 0x0 PUSH2 0x5009 DUP4 PUSH2 0x2422 JUMP JUMPDEST POP POP PUSH1 0x1 PUSH1 0x1 PUSH1 0xA0 SHL SUB DUP5 AND PUSH1 0x0 SWAP1 DUP2 MSTORE PUSH1 0x1D PUSH1 0x20 MSTORE PUSH1 0x40 DUP2 KECCAK256 PUSH1 0x1 ADD SLOAD SWAP2 SWAP3 POP SWAP1 PUSH2 0x5036 SWAP1 PUSH1 0x3 PUSH2 0x56D5 JUMP JUMPDEST SWAP1 POP PUSH1 0xF DUP2 GT ISZERO PUSH2 0x5045 JUMPI POP PUSH1 0xF JUMPDEST DUP1 DUP4 GT ISZERO DUP1 ISZERO PUSH2 0x5052 JUMPI POP DUP2 JUMPDEST ISZERO PUSH2 0x50E1 JUMPI PUSH1 0x1 PUSH1 0x1 PUSH1 0xA0 SHL SUB DUP5 AND PUSH1 0x0 SWAP1 DUP2 MSTORE PUSH1 0x2C PUSH1 0x20 MSTORE PUSH1 0x40 SWAP1 KECCAK256 SLOAD PUSH1 0xFF AND PUSH2 0x50CF JUMPI PUSH1 0x1 PUSH1 0x1 PUSH1 0xA0 SHL SUB DUP5 AND PUSH1 0x0 SWAP1 DUP2 MSTORE PUSH1 0x1D PUSH1 0x20 MSTORE PUSH1 0x40 SWAP1 KECCAK256 PUSH1 0x5 ADD SLOAD DUP6 GT PUSH2 0x50CA JUMPI PUSH1 0x1 PUSH1 0x1 PUSH1 0xA0 SHL SUB DUP5 AND PUSH1 0x0 SWAP1 DUP2 MSTORE PUSH1 0x1D PUSH1 0x20 MSTORE PUSH1 0x40 DUP2 KECCAK256 PUSH1 0x5 ADD DUP1 SLOAD DUP8 SWAP3 SWAP1 PUSH2 0x50C4 SWAP1 DUP5 SWAP1 PUSH2 0x570E JUMP JUMPDEST SWAP1 SWAP2 SSTORE POP POP JUMPDEST PUSH2 0x50F9 JUMP JUMPDEST DUP5 PUSH1 0x2F PUSH1 0x0 DUP3 DUP3 SLOAD PUSH2 0x50C4 SWAP2 SWAP1 PUSH2 0x5721 JUMP JUMPDEST DUP5 PUSH1 0x2F PUSH1 0x0 DUP3 DUP3 SLOAD PUSH2 0x50F3 SWAP2 SWAP1 PUSH2 0x5721 JUMP JUMPDEST SWAP1 SWAP2 SSTORE POP POP JUMPDEST PUSH1 0x1 PUSH1 0x1 PUSH1 0xA0 SHL SUB SWAP4 DUP5 AND PUSH1 0x0 SWAP1 DUP2 MSTORE PUSH1 0x1D PUSH1 0x20 MSTORE PUSH1 0x40 SWAP1 KECCAK256 SLOAD SWAP1 SWAP4 AND SWAP3 DUP3 PUSH2 0x5121 DUP2 PUSH2 0x57AE JUMP JUMPDEST SWAP4 POP POP POP POP PUSH2 0x4FE0 JUMP JUMPDEST PUSH1 0xF DUP2 GT PUSH2 0x44A1 JUMPI DUP3 PUSH1 0x2F PUSH1 0x0 DUP3 DUP3 SLOAD PUSH2 0x5145 SWAP2 SWAP1 PUSH2 0x5721 JUMP JUMPDEST SWAP1 SWAP2 SSTORE POP DUP2 SWAP1 POP PUSH2 0x5155 DUP2 PUSH2 0x57AE JUMP JUMPDEST SWAP2 POP POP PUSH2 0x512B JUMP JUMPDEST PUSH1 0x1 PUSH1 0x1 PUSH1 0xA0 SHL SUB DUP1 DUP4 AND PUSH1 0x0 SWAP1 DUP2 MSTORE PUSH1 0x1D PUSH1 0x20 MSTORE PUSH1 0x40 DUP2 KECCAK256 SLOAD SWAP1 SWAP2 AND SWAP1 JUMPDEST PUSH1 0x1 PUSH1 0x1 PUSH1 0xA0 SHL SUB DUP3 AND ISZERO PUSH2 0x4D68 JUMPI PUSH1 0x1 PUSH1 0x1 PUSH1 0xA0 SHL SUB DUP3 AND PUSH1 0x0 SWAP1 DUP2 MSTORE PUSH1 0x1D PUSH1 0x20 MSTORE PUSH1 0x40 DUP2 KECCAK256 PUSH1 0x2 ADD SLOAD PUSH1 0xFF AND SWAP1 PUSH1 0xE DUP3 PUSH1 0x7 DUP2 LT PUSH2 0x51BE JUMPI PUSH2 0x51BE PUSH2 0x5798 JUMP JUMPDEST ADD SLOAD SWAP1 POP DUP3 DUP2 GT ISZERO PUSH2 0x5289 JUMPI PUSH1 0x0 PUSH2 0x51D6 DUP5 DUP4 PUSH2 0x570E JUMP JUMPDEST SWAP1 POP PUSH1 0x0 PUSH1 0x1E PUSH2 0x51E6 DUP4 DUP10 PUSH2 0x56D5 JUMP JUMPDEST PUSH2 0x51F0 SWAP2 SWAP1 PUSH2 0x56EC JUMP JUMPDEST PUSH1 0x1 PUSH1 0x1 PUSH1 0xA0 SHL SUB DUP8 AND PUSH1 0x0 SWAP1 DUP2 MSTORE PUSH1 0x2C PUSH1 0x20 MSTORE PUSH1 0x40 SWAP1 KECCAK256 SLOAD SWAP1 SWAP2 POP PUSH1 0xFF AND PUSH2 0x526B JUMPI PUSH1 0x1 PUSH1 0x1 PUSH1 0xA0 SHL SUB DUP7 AND PUSH1 0x0 SWAP1 DUP2 MSTORE PUSH1 0x1D PUSH1 0x20 MSTORE PUSH1 0x40 SWAP1 KECCAK256 PUSH1 0x5 ADD SLOAD DUP2 GT PUSH2 0x5266 JUMPI PUSH1 0x1 PUSH1 0x1 PUSH1 0xA0 SHL SUB DUP7 AND PUSH1 0x0 SWAP1 DUP2 MSTORE PUSH1 0x1D PUSH1 0x20 MSTORE PUSH1 0x40 DUP2 KECCAK256 PUSH1 0x5 ADD DUP1 SLOAD DUP4 SWAP3 SWAP1 PUSH2 0x5260 SWAP1 DUP5 SWAP1 PUSH2 0x570E JUMP JUMPDEST SWAP1 SWAP2 SSTORE POP POP JUMPDEST PUSH2 0x5283 JUMP JUMPDEST DUP1 PUSH1 0x30 PUSH1 0x0 DUP3 DUP3 SLOAD PUSH2 0x527D SWAP2 SWAP1 PUSH2 0x5721 JUMP JUMPDEST SWAP1 SWAP2 SSTORE POP POP JUMPDEST DUP3 SWAP5 POP POP POP JUMPDEST POP POP PUSH1 0x1 PUSH1 0x1 PUSH1 0xA0 SHL SUB SWAP2 DUP3 AND PUSH1 0x0 SWAP1 DUP2 MSTORE PUSH1 0x1D PUSH1 0x20 MSTORE PUSH1 0x40 SWAP1 KECCAK256 SLOAD SWAP1 SWAP2 AND SWAP1 PUSH2 0x517C JUMP JUMPDEST PUSH1 0x1 PUSH1 0x1 PUSH1 0xA0 SHL SUB DUP1 DUP4 AND PUSH1 0x0 SWAP1 DUP2 MSTORE PUSH1 0x1D PUSH1 0x20 MSTORE PUSH1 0x40 DUP2 KECCAK256 SLOAD SWAP1 SWAP2 AND SWAP1 JUMPDEST PUSH1 0x1 PUSH1 0x1 PUSH1 0xA0 SHL SUB DUP3 AND ISZERO PUSH2 0x4D68 JUMPI PUSH1 0x1 PUSH1 0x1 PUSH1 0xA0 SHL SUB DUP3 AND PUSH1 0x0 SWAP1 DUP2 MSTORE PUSH1 0x1D PUSH1 0x20 MSTORE PUSH1 0x40 DUP2 KECCAK256 PUSH1 0x2 ADD SLOAD PUSH1 0xFF AND SWAP1 PUSH1 0x6 DUP3 LT PUSH2 0x530C JUMPI POP PUSH1 0xA PUSH2 0x531B JUMP JUMPDEST PUSH1 0x3 DUP3 PUSH1 0xFF AND LT PUSH2 0x531B JUMPI POP PUSH1 0x5 JUMPDEST DUP3 DUP2 GT ISZERO PUSH2 0x53E2 JUMPI PUSH1 0x0 PUSH2 0x532F DUP5 DUP4 PUSH2 0x570E JUMP JUMPDEST SWAP1 POP PUSH1 0x0 PUSH1 0xA PUSH2 0x533F DUP4 DUP10 PUSH2 0x56D5 JUMP JUMPDEST PUSH2 0x5349 SWAP2 SWAP1 PUSH2 0x56EC JUMP JUMPDEST PUSH1 0x1 PUSH1 0x1 PUSH1 0xA0 SHL SUB DUP8 AND PUSH1 0x0 SWAP1 DUP2 MSTORE PUSH1 0x2C PUSH1 0x20 MSTORE PUSH1 0x40 SWAP1 KECCAK256 SLOAD SWAP1 SWAP2 POP PUSH1 0xFF AND PUSH2 0x53C4 JUMPI PUSH1 0x1 PUSH1 0x1 PUSH1 0xA0 SHL SUB DUP7 AND PUSH1 0x0 SWAP1 DUP2 MSTORE PUSH1 0x1D PUSH1 0x20 MSTORE PUSH1 0x40 SWAP1 KECCAK256 PUSH1 0x5 ADD SLOAD DUP2 GT PUSH2 0x53BF JUMPI PUSH1 0x1 PUSH1 0x1 PUSH1 0xA0 SHL SUB DUP7 AND PUSH1 0x0 SWAP1 DUP2 MSTORE PUSH1 0x1D PUSH1 0x20 MSTORE PUSH1 0x40 DUP2 KECCAK256 PUSH1 0x5 ADD DUP1 SLOAD DUP4 SWAP3 SWAP1 PUSH2 0x53B9 SWAP1 DUP5 SWAP1 PUSH2 0x570E JUMP JUMPDEST SWAP1 SWAP2 SSTORE POP POP JUMPDEST PUSH2 0x53DC JUMP JUMPDEST DUP1 PUSH1 0x30 PUSH1 0x0 DUP3 DUP3 SLOAD PUSH2 0x53D6 SWAP2 SWAP1 PUSH2 0x5721 JUMP JUMPDEST SWAP1 SWAP2 SSTORE POP POP JUMPDEST DUP3 SWAP5 POP POP POP JUMPDEST POP POP PUSH1 0x1 PUSH1 0x1 PUSH1 0xA0 SHL SUB SWAP2 DUP3 AND PUSH1 0x0 SWAP1 DUP2 MSTORE PUSH1 0x1D PUSH1 0x20 MSTORE PUSH1 0x40 SWAP1 KECCAK256 SLOAD SWAP1 SWAP2 AND SWAP1 PUSH2 0x52CD JUMP JUMPDEST PUSH1 0x60 PUSH1 0x0 PUSH2 0x19CC DUP4 PUSH2 0x54BD JUMP JUMPDEST PUSH1 0x1 PUSH1 0x1 PUSH1 0xA0 SHL SUB DUP2 AND PUSH1 0x0 SWAP1 DUP2 MSTORE PUSH1 0x1D PUSH1 0x20 MSTORE PUSH1 0x40 DUP2 KECCAK256 DUP2 SWAP1 DUP2 SWAP1 PUSH2 0x543C SWAP1 PUSH1 0x9 ADD PUSH2 0x5407 JUMP JUMPDEST SWAP1 POP PUSH1 0x0 JUMPDEST DUP2 MLOAD DUP2 LT ISZERO PUSH2 0x54B4 JUMPI PUSH1 0x0 PUSH1 0x1D PUSH1 0x0 DUP5 DUP5 DUP2 MLOAD DUP2 LT PUSH2 0x5462 JUMPI PUSH2 0x5462 PUSH2 0x5798 JUMP JUMPDEST PUSH1 0x20 MUL PUSH1 0x20 ADD ADD MLOAD PUSH1 0x1 PUSH1 0x1 PUSH1 0xA0 SHL SUB AND PUSH1 0x1 PUSH1 0x1 PUSH1 0xA0 SHL SUB AND DUP2 MSTORE PUSH1 0x20 ADD SWAP1 DUP2 MSTORE PUSH1 0x20 ADD PUSH1 0x0 KECCAK256 PUSH1 0x3 ADD SLOAD GT ISZERO PUSH2 0x54A2 JUMPI DUP3 PUSH2 0x549E DUP2 PUSH2 0x57AE JUMP JUMPDEST SWAP4 POP POP JUMPDEST DUP1 PUSH2 0x54AC DUP2 PUSH2 0x57AE JUMP JUMPDEST SWAP2 POP POP PUSH2 0x5441 JUMP JUMPDEST POP SWAP1 SWAP4 SWAP3 POP POP POP JUMP JUMPDEST PUSH1 0x60 DUP2 PUSH1 0x0 ADD DUP1 SLOAD DUP1 PUSH1 0x20 MUL PUSH1 0x20 ADD PUSH1 0x40 MLOAD SWAP1 DUP2 ADD PUSH1 0x40 MSTORE DUP1 SWAP3 SWAP2 SWAP1 DUP2 DUP2 MSTORE PUSH1 0x20 ADD DUP3 DUP1 SLOAD DUP1 ISZERO PUSH2 0x550D JUMPI PUSH1 0x20 MUL DUP3 ADD SWAP2 SWAP1 PUSH1 0x0 MSTORE PUSH1 0x20 PUSH1 0x0 KECCAK256 SWAP1 JUMPDEST DUP2 SLOAD DUP2 MSTORE PUSH1 0x20 ADD SWAP1 PUSH1 0x1 ADD SWAP1 DUP1 DUP4 GT PUSH2 0x54F9 JUMPI JUMPDEST POP POP POP POP POP SWAP1 POP SWAP2 SWAP1 POP JUMP JUMPDEST PUSH1 0x0 DUP1 PUSH1 0x40 DUP4 DUP6 SUB SLT ISZERO PUSH2 0x552C JUMPI PUSH1 0x0 DUP1 REVERT JUMPDEST POP POP DUP1 CALLDATALOAD SWAP3 PUSH1 0x20 SWAP1 SWAP2 ADD CALLDATALOAD SWAP2 POP JUMP JUMPDEST DUP1 CALLDATALOAD PUSH1 0x1 PUSH1 0x1 PUSH1 0xA0 SHL SUB DUP2 AND DUP2 EQ PUSH2 0x5552 JUMPI PUSH1 0x0 DUP1 REVERT JUMPDEST SWAP2 SWAP1 POP JUMP JUMPDEST PUSH1 0x0 PUSH1 0x20 DUP3 DUP5 SUB SLT ISZERO PUSH2 0x5569 JUMPI PUSH1 0x0 DUP1 REVERT JUMPDEST PUSH2 0x19CC DUP3 PUSH2 0x553B JUMP JUMPDEST PUSH1 0x0 DUP1 PUSH1 0x40 DUP4 DUP6 SUB SLT ISZERO PUSH2 0x5585 JUMPI PUSH1 0x0 DUP1 REVERT JUMPDEST PUSH2 0x558E DUP4 PUSH2 0x553B JUMP JUMPDEST SWAP5 PUSH1 0x20 SWAP4 SWAP1 SWAP4 ADD CALLDATALOAD SWAP4 POP POP POP JUMP JUMPDEST PUSH1 0x0 DUP1 PUSH1 0x20 DUP4 DUP6 SUB SLT ISZERO PUSH2 0x55AF JUMPI PUSH1 0x0 DUP1 REVERT JUMPDEST DUP3 CALLDATALOAD PUSH8 0xFFFFFFFFFFFFFFFF DUP1 DUP3 GT ISZERO PUSH2 0x55C7 JUMPI PUSH1 0x0 DUP1 REVERT JUMPDEST DUP2 DUP6 ADD SWAP2 POP DUP6 PUSH1 0x1F DUP4 ADD SLT PUSH2 0x55DB JUMPI PUSH1 0x0 DUP1 REVERT JUMPDEST DUP2 CALLDATALOAD DUP2 DUP2 GT ISZERO PUSH2 0x55EA JUMPI PUSH1 0x0 DUP1 REVERT JUMPDEST DUP7 PUSH1 0x20 DUP3 PUSH1 0x5 SHL DUP6 ADD ADD GT ISZERO PUSH2 0x55FF JUMPI PUSH1 0x0 DUP1 REVERT JUMPDEST PUSH1 0x20 SWAP3 SWAP1 SWAP3 ADD SWAP7 SWAP2 SWAP6 POP SWAP1 SWAP4 POP POP POP POP JUMP JUMPDEST PUSH1 0x0 PUSH1 0x20 DUP3 DUP5 SUB SLT ISZERO PUSH2 0x5623 JUMPI PUSH1 0x0 DUP1 REVERT JUMPDEST POP CALLDATALOAD SWAP2 SWAP1 POP JUMP JUMPDEST PUSH1 0x20 DUP1 DUP3 MSTORE DUP3 MLOAD DUP3 DUP3 ADD DUP2 SWAP1 MSTORE PUSH1 0x0 SWAP2 SWAP1 DUP5 DUP3 ADD SWAP1 PUSH1 0x40 DUP6 ADD SWAP1 DUP5 JUMPDEST DUP2 DUP2 LT ISZERO PUSH2 0x566B JUMPI DUP4 MLOAD PUSH1 0x1 PUSH1 0x1 PUSH1 0xA0 SHL SUB AND DUP4 MSTORE SWAP3 DUP5 ADD SWAP3 SWAP2 DUP5 ADD SWAP2 PUSH1 0x1 ADD PUSH2 0x5646 JUMP JUMPDEST POP SWAP1 SWAP7 SWAP6 POP POP POP POP POP POP JUMP JUMPDEST PUSH1 0x20 DUP1 DUP3 MSTORE PUSH1 0x15 SWAP1 DUP3 ADD MSTORE PUSH21 0x1859191C995CDCC81A5CC81C995CDD1C9A58DD1959 PUSH1 0x5A SHL PUSH1 0x40 DUP3 ADD MSTORE PUSH1 0x60 ADD SWAP1 JUMP JUMPDEST PUSH1 0x0 PUSH1 0x20 DUP3 DUP5 SUB SLT ISZERO PUSH2 0x56B8 JUMPI PUSH1 0x0 DUP1 REVERT JUMPDEST POP MLOAD SWAP2 SWAP1 POP JUMP JUMPDEST PUSH4 0x4E487B71 PUSH1 0xE0 SHL PUSH1 0x0 MSTORE PUSH1 0x11 PUSH1 0x4 MSTORE PUSH1 0x24 PUSH1 0x0 REVERT JUMPDEST DUP1 DUP3 MUL DUP2 ISZERO DUP3 DUP3 DIV DUP5 EQ OR PUSH2 0x17D3 JUMPI PUSH2 0x17D3 PUSH2 0x56BF JUMP JUMPDEST PUSH1 0x0 DUP3 PUSH2 0x5709 JUMPI PUSH4 0x4E487B71 PUSH1 0xE0 SHL PUSH1 0x0 MSTORE PUSH1 0x12 PUSH1 0x4 MSTORE PUSH1 0x24 PUSH1 0x0 REVERT JUMPDEST POP DIV SWAP1 JUMP JUMPDEST DUP2 DUP2 SUB DUP2 DUP2 GT ISZERO PUSH2 0x17D3 JUMPI PUSH2 0x17D3 PUSH2 0x56BF JUMP JUMPDEST DUP1 DUP3 ADD DUP1 DUP3 GT ISZERO PUSH2 0x17D3 JUMPI PUSH2 0x17D3 PUSH2 0x56BF JUMP JUMPDEST PUSH1 0x1 PUSH1 0x1 PUSH1 0xA0 SHL SUB SWAP3 SWAP1 SWAP3 AND DUP3 MSTORE PUSH1 0x20 DUP3 ADD MSTORE PUSH1 0x40 ADD SWAP1 JUMP JUMPDEST PUSH1 0x0 PUSH1 0x20 DUP3 DUP5 SUB SLT ISZERO PUSH2 0x575F JUMPI PUSH1 0x0 DUP1 REVERT JUMPDEST DUP2 MLOAD DUP1 ISZERO ISZERO DUP2 EQ PUSH2 0x19CC JUMPI PUSH1 0x0 DUP1 REVERT JUMPDEST PUSH1 0x20 DUP1 DUP3 MSTORE PUSH1 0xF SWAP1 DUP3 ADD MSTORE PUSH15 0x696E76616C69642061646472657373 PUSH1 0x88 SHL PUSH1 0x40 DUP3 ADD MSTORE PUSH1 0x60 ADD SWAP1 JUMP JUMPDEST PUSH4 0x4E487B71 PUSH1 0xE0 SHL PUSH1 0x0 MSTORE PUSH1 0x32 PUSH1 0x4 MSTORE PUSH1 0x24 PUSH1 0x0 REVERT JUMPDEST PUSH1 0x0 PUSH1 0x1 DUP3 ADD PUSH2 0x57C0 JUMPI PUSH2 0x57C0 PUSH2 0x56BF JUMP JUMPDEST POP PUSH1 0x1 ADD SWAP1 JUMP JUMPDEST PUSH4 0x4E487B71 PUSH1 0xE0 SHL PUSH1 0x0 MSTORE PUSH1 0x31 PUSH1 0x4 MSTORE PUSH1 0x24 PUSH1 0x0 REVERT JUMPDEST PUSH1 0x20 DUP1 DUP3 MSTORE PUSH1 0x14 SWAP1 DUP3 ADD MSTORE PUSH20 0x696E73756666696369656E742062616C616E6365 PUSH1 0x60 SHL PUSH1 0x40 DUP3 ADD MSTORE PUSH1 0x60 ADD SWAP1 JUMP JUMPDEST PUSH1 0x20 DUP1 DUP3 MSTORE PUSH1 0xA SWAP1 DUP3 ADD MSTORE PUSH10 0x6E6F2070656E64696E67 PUSH1 0xB0 SHL PUSH1 0x40 DUP3 ADD MSTORE PUSH1 0x60 ADD SWAP1 JUMP JUMPDEST PUSH1 0xFF DUP3 DUP2 AND DUP3 DUP3 AND SUB SWAP1 DUP2 GT ISZERO PUSH2 0x17D3 JUMPI PUSH2 0x17D3 PUSH2 0x56BF JUMP JUMPDEST PUSH1 0xFF DUP2 DUP2 AND DUP4 DUP3 AND ADD SWAP1 DUP2 GT ISZERO PUSH2 0x17D3 JUMPI PUSH2 0x17D3 PUSH2 0x56BF JUMP JUMPDEST PUSH1 0x0 PUSH1 0xFF DUP3 AND PUSH1 0xFF DUP2 SUB PUSH2 0x5877 JUMPI PUSH2 0x5877 PUSH2 0x56BF JUMP JUMPDEST PUSH1 0x1 ADD SWAP3 SWAP2 POP POP JUMP JUMPDEST PUSH1 0x0 DUP2 PUSH2 0x588F JUMPI PUSH2 0x588F PUSH2 0x56BF JUMP JUMPDEST POP PUSH1 0x0 NOT ADD SWAP1 JUMP INVALID LOG4 SWAP12 DUP6 PUSH23 0xE012F713BAA7DCEADB7D709AAEC8773B498ECFE582D8B9 0xC0 0xC8 REVERT SMOD 0x4F LOG2 PUSH5 0x6970667358 0x22 SLT KECCAK256 CREATE 0xD2 PUSH15 0x98E89BCB161833FB29D40D51AA3161 PUSH25 0x389E2A88C9699A78B9A28AE21864736F6C6343000811003360 DUP1 PUSH1 0x40 MSTORE CALLVALUE DUP1 ISZERO PUSH3 0x11 JUMPI PUSH1 0x0 DUP1 REVERT JUMPDEST POP PUSH1 0x40 MLOAD DUP1 PUSH1 0x40 ADD PUSH1 0x40 MSTORE DUP1 PUSH1 0x8 DUP2 MSTORE PUSH1 0x20 ADD PUSH8 0x2228902A37B5B2B7 PUSH1 0xC1 SHL DUP2 MSTORE POP PUSH1 0x40 MLOAD DUP1 PUSH1 0x40 ADD PUSH1 0x40 MSTORE DUP1 PUSH1 0x2 DUP2 MSTORE PUSH1 0x20 ADD PUSH2 0x4451 PUSH1 0xF0 SHL DUP2 MSTORE POP DUP2 PUSH1 0x3 SWAP1 DUP2 PUSH3 0x5F SWAP2 SWAP1 PUSH3 0x205 JUMP JUMPDEST POP PUSH1 0x4 PUSH3 0x6E DUP3 DUP3 PUSH3 0x205 JUMP JUMPDEST POP POP POP PUSH3 0x90 ADDRESS PUSH13 0x1431E0FAE6D7217CAA0000000 PUSH3 0x96 PUSH1 0x20 SHL PUSH1 0x20 SHR JUMP JUMPDEST PUSH3 0x2F9 JUMP JUMPDEST PUSH1 0x1 PUSH1 0x1 PUSH1 0xA0 SHL SUB DUP3 AND PUSH3 0xF1 JUMPI PUSH1 0x40 MLOAD PUSH3 0x461BCD PUSH1 0xE5 SHL DUP2 MSTORE PUSH1 0x20 PUSH1 0x4 DUP3 ADD MSTORE PUSH1 0x1F PUSH1 0x24 DUP3 ADD MSTORE PUSH32 0x45524332303A206D696E7420746F20746865207A65726F206164647265737300 PUSH1 0x44 DUP3 ADD MSTORE PUSH1 0x64 ADD PUSH1 0x40 MLOAD DUP1 SWAP2 SUB SWAP1 REVERT JUMPDEST DUP1 PUSH1 0x2 PUSH1 0x0 DUP3 DUP3 SLOAD PUSH3 0x105 SWAP2 SWAP1 PUSH3 0x2D1 JUMP JUMPDEST SWAP1 SWAP2 SSTORE POP POP PUSH1 0x1 PUSH1 0x1 PUSH1 0xA0 SHL SUB DUP3 AND PUSH1 0x0 DUP2 DUP2 MSTORE PUSH1 0x20 DUP2 DUP2 MSTORE PUSH1 0x40 DUP1 DUP4 KECCAK256 DUP1 SLOAD DUP7 ADD SWAP1 SSTORE MLOAD DUP5 DUP2 MSTORE PUSH32 0xDDF252AD1BE2C89B69C2B068FC378DAA952BA7F163C4A11628F55A4DF523B3EF SWAP2 ADD PUSH1 0x40 MLOAD DUP1 SWAP2 SUB SWAP1 LOG3 POP POP JUMP JUMPDEST POP POP POP JUMP JUMPDEST PUSH4 0x4E487B71 PUSH1 0xE0 SHL PUSH1 0x0 MSTORE PUSH1 0x41 PUSH1 0x4 MSTORE PUSH1 0x24 PUSH1 0x0 REVERT JUMPDEST PUSH1 0x1 DUP2 DUP2 SHR SWAP1 DUP3 AND DUP1 PUSH3 0x18C JUMPI PUSH1 0x7F DUP3 AND SWAP2 POP JUMPDEST PUSH1 0x20 DUP3 LT DUP2 SUB PUSH3 0x1AD JUMPI PUSH4 0x4E487B71 PUSH1 0xE0 SHL PUSH1 0x0 MSTORE PUSH1 0x22 PUSH1 0x4 MSTORE PUSH1 0x24 PUSH1 0x0 REVERT JUMPDEST POP SWAP2 SWAP1 POP JUMP JUMPDEST PUSH1 0x1F DUP3 GT ISZERO PUSH3 0x15C JUMPI PUSH1 0x0 DUP2 DUP2 MSTORE PUSH1 0x20 DUP2 KECCAK256 PUSH1 0x1F DUP6 ADD PUSH1 0x5 SHR DUP2 ADD PUSH1 0x20 DUP7 LT ISZERO PUSH3 0x1DC JUMPI POP DUP1 JUMPDEST PUSH1 0x1F DUP6 ADD PUSH1 0x5 SHR DUP3 ADD SWAP2 POP JUMPDEST DUP2 DUP2 LT ISZERO PUSH3 0x1FD JUMPI DUP3 DUP2 SSTORE PUSH1 0x1 ADD PUSH3 0x1E8 JUMP JUMPDEST POP POP POP POP POP POP JUMP JUMPDEST DUP2 MLOAD PUSH1 0x1 PUSH1 0x1 PUSH1 0x40 SHL SUB DUP2 GT ISZERO PUSH3 0x221 JUMPI PUSH3 0x221 PUSH3 0x161 JUMP JUMPDEST PUSH3 0x239 DUP2 PUSH3 0x232 DUP5 SLOAD PUSH3 0x177 JUMP JUMPDEST DUP5 PUSH3 0x1B3 JUMP JUMPDEST PUSH1 0x20 DUP1 PUSH1 0x1F DUP4 GT PUSH1 0x1 DUP2 EQ PUSH3 0x271 JUMPI PUSH1 0x0 DUP5 ISZERO PUSH3 0x258 JUMPI POP DUP6 DUP4 ADD MLOAD JUMPDEST PUSH1 0x0 NOT PUSH1 0x3 DUP7 SWAP1 SHL SHR NOT AND PUSH1 0x1 DUP6 SWAP1 SHL OR DUP6 SSTORE PUSH3 0x1FD JUMP JUMPDEST PUSH1 0x0 DUP6 DUP2 MSTORE PUSH1 0x20 DUP2 KECCAK256 PUSH1 0x1F NOT DUP7 AND SWAP2 JUMPDEST DUP3 DUP2 LT ISZERO PUSH3 0x2A2 JUMPI DUP9 DUP7 ADD MLOAD DUP3 SSTORE SWAP5 DUP5 ADD SWAP5 PUSH1 0x1 SWAP1 SWAP2 ADD SWAP1 DUP5 ADD PUSH3 0x281 JUMP JUMPDEST POP DUP6 DUP3 LT ISZERO PUSH3 0x2C1 JUMPI DUP8 DUP6 ADD MLOAD PUSH1 0x0 NOT PUSH1 0x3 DUP9 SWAP1 SHL PUSH1 0xF8 AND SHR NOT AND DUP2 SSTORE JUMPDEST POP POP POP POP POP PUSH1 0x1 SWAP1 DUP2 SHL ADD SWAP1 SSTORE POP JUMP JUMPDEST DUP1 DUP3 ADD DUP1 DUP3 GT ISZERO PUSH3 0x2F3 JUMPI PUSH4 0x4E487B71 PUSH1 0xE0 SHL PUSH1 0x0 MSTORE PUSH1 0x11 PUSH1 0x4 MSTORE PUSH1 0x24 PUSH1 0x0 REVERT JUMPDEST SWAP3 SWAP2 POP POP JUMP JUMPDEST PUSH2 0xB25 DUP1 PUSH3 0x309 PUSH1 0x0 CODECOPY PUSH1 0x0 RETURN INVALID PUSH1 0x80 PUSH1 0x40 MSTORE CALLVALUE DUP1 ISZERO PUSH2 0x10 JUMPI PUSH1 0x0 DUP1 REVERT JUMPDEST POP PUSH1 0x4 CALLDATASIZE LT PUSH2 0xF5 JUMPI PUSH1 0x0 CALLDATALOAD PUSH1 0xE0 SHR DUP1 PUSH4 0x40C10F19 GT PUSH2 0x97 JUMPI DUP1 PUSH4 0xA457C2D7 GT PUSH2 0x66 JUMPI DUP1 PUSH4 0xA457C2D7 EQ PUSH2 0x1FC JUMPI DUP1 PUSH4 0xA9059CBB EQ PUSH2 0x20F JUMPI DUP1 PUSH4 0xDD110712 EQ PUSH2 0x222 JUMPI DUP1 PUSH4 0xDD62ED3E EQ PUSH2 0x235 JUMPI PUSH1 0x0 DUP1 REVERT JUMPDEST DUP1 PUSH4 0x40C10F19 EQ PUSH2 0x1A3 JUMPI DUP1 PUSH4 0x42966C68 EQ PUSH2 0x1B8 JUMPI DUP1 PUSH4 0x70A08231 EQ PUSH2 0x1CB JUMPI DUP1 PUSH4 0x95D89B41 EQ PUSH2 0x1F4 JUMPI PUSH1 0x0 DUP1 REVERT JUMPDEST DUP1 PUSH4 0x1CD3A4AC GT PUSH2 0xD3 JUMPI DUP1 PUSH4 0x1CD3A4AC EQ PUSH2 0x14D JUMPI DUP1 PUSH4 0x23B872DD EQ PUSH2 0x16E JUMPI DUP1 PUSH4 0x313CE567 EQ PUSH2 0x181 JUMPI DUP1 PUSH4 0x39509351 EQ PUSH2 0x190 JUMPI PUSH1 0x0 DUP1 REVERT JUMPDEST DUP1 PUSH4 0x6FDDE03 EQ PUSH2 0xFA JUMPI DUP1 PUSH4 0x95EA7B3 EQ PUSH2 0x118 JUMPI DUP1 PUSH4 0x18160DDD EQ PUSH2 0x13B JUMPI JUMPDEST PUSH1 0x0 DUP1 REVERT JUMPDEST PUSH2 0x102 PUSH2 0x248 JUMP JUMPDEST PUSH1 0x40 MLOAD PUSH2 0x10F SWAP2 SWAP1 PUSH2 0x956 JUMP JUMPDEST PUSH1 0x40 MLOAD DUP1 SWAP2 SUB SWAP1 RETURN JUMPDEST PUSH2 0x12B PUSH2 0x126 CALLDATASIZE PUSH1 0x4 PUSH2 0x9C0 JUMP JUMPDEST PUSH2 0x2DA JUMP JUMPDEST PUSH1 0x40 MLOAD SWAP1 ISZERO ISZERO DUP2 MSTORE PUSH1 0x20 ADD PUSH2 0x10F JUMP JUMPDEST PUSH1 0x2 SLOAD JUMPDEST PUSH1 0x40 MLOAD SWAP1 DUP2 MSTORE PUSH1 0x20 ADD PUSH2 0x10F JUMP JUMPDEST PUSH2 0x156 PUSH2 0xDEAD DUP2 JUMP JUMPDEST PUSH1 0x40 MLOAD PUSH1 0x1 PUSH1 0x1 PUSH1 0xA0 SHL SUB SWAP1 SWAP2 AND DUP2 MSTORE PUSH1 0x20 ADD PUSH2 0x10F JUMP JUMPDEST PUSH2 0x12B PUSH2 0x17C CALLDATASIZE PUSH1 0x4 PUSH2 0x9EA JUMP JUMPDEST PUSH2 0x2F4 JUMP JUMPDEST PUSH1 0x40 MLOAD PUSH1 0x12 DUP2 MSTORE PUSH1 0x20 ADD PUSH2 0x10F JUMP JUMPDEST PUSH2 0x12B PUSH2 0x19E CALLDATASIZE PUSH1 0x4 PUSH2 0x9C0 JUMP JUMPDEST PUSH2 0x318 JUMP JUMPDEST PUSH2 0x1B6 PUSH2 0x1B1 CALLDATASIZE PUSH1 0x4 PUSH2 0x9C0 JUMP JUMPDEST PUSH2 0x33A JUMP JUMPDEST STOP JUMPDEST PUSH2 0x1B6 PUSH2 0x1C6 CALLDATASIZE PUSH1 0x4 PUSH2 0xA26 JUMP JUMPDEST PUSH2 0x348 JUMP JUMPDEST PUSH2 0x13F PUSH2 0x1D9 CALLDATASIZE PUSH1 0x4 PUSH2 0xA3F JUMP JUMPDEST PUSH1 0x1 PUSH1 0x1 PUSH1 0xA0 SHL SUB AND PUSH1 0x0 SWAP1 DUP2 MSTORE PUSH1 0x20 DUP2 SWAP1 MSTORE PUSH1 0x40 SWAP1 KECCAK256 SLOAD SWAP1 JUMP JUMPDEST PUSH2 0x102 PUSH2 0x355 JUMP JUMPDEST PUSH2 0x12B PUSH2 0x20A CALLDATASIZE PUSH1 0x4 PUSH2 0x9C0 JUMP JUMPDEST PUSH2 0x364 JUMP JUMPDEST PUSH2 0x12B PUSH2 0x21D CALLDATASIZE PUSH1 0x4 PUSH2 0x9C0 JUMP JUMPDEST PUSH2 0x3E4 JUMP JUMPDEST PUSH2 0x1B6 PUSH2 0x230 CALLDATASIZE PUSH1 0x4 PUSH2 0xA26 JUMP JUMPDEST PUSH2 0x3F2 JUMP JUMPDEST PUSH2 0x13F PUSH2 0x243 CALLDATASIZE PUSH1 0x4 PUSH2 0xA61 JUMP JUMPDEST PUSH2 0x3FF JUMP JUMPDEST PUSH1 0x60 PUSH1 0x3 DUP1 SLOAD PUSH2 0x257 SWAP1 PUSH2 0xA94 JUMP JUMPDEST DUP1 PUSH1 0x1F ADD PUSH1 0x20 DUP1 SWAP2 DIV MUL PUSH1 0x20 ADD PUSH1 0x40 MLOAD SWAP1 DUP2 ADD PUSH1 0x40 MSTORE DUP1 SWAP3 SWAP2 SWAP1 DUP2 DUP2 MSTORE PUSH1 0x20 ADD DUP3 DUP1 SLOAD PUSH2 0x283 SWAP1 PUSH2 0xA94 JUMP JUMPDEST DUP1 ISZERO PUSH2 0x2D0 JUMPI DUP1 PUSH1 0x1F LT PUSH2 0x2A5 JUMPI PUSH2 0x100 DUP1 DUP4 SLOAD DIV MUL DUP4 MSTORE SWAP2 PUSH1 0x20 ADD SWAP2 PUSH2 0x2D0 JUMP JUMPDEST DUP3 ADD SWAP2 SWAP1 PUSH1 0x0 MSTORE PUSH1 0x20 PUSH1 0x0 KECCAK256 SWAP1 JUMPDEST DUP2 SLOAD DUP2 MSTORE SWAP1 PUSH1 0x1 ADD SWAP1 PUSH1 0x20 ADD DUP1 DUP4 GT PUSH2 0x2B3 JUMPI DUP3 SWAP1 SUB PUSH1 0x1F AND DUP3 ADD SWAP2 JUMPDEST POP POP POP POP POP SWAP1 POP SWAP1 JUMP JUMPDEST PUSH1 0x0 CALLER PUSH2 0x2E8 DUP2 DUP6 DUP6 PUSH2 0x42A JUMP JUMPDEST PUSH1 0x1 SWAP2 POP POP JUMPDEST SWAP3 SWAP2 POP POP JUMP JUMPDEST PUSH1 0x0 CALLER PUSH2 0x302 DUP6 DUP3 DUP6 PUSH2 0x54F JUMP JUMPDEST PUSH2 0x30D DUP6 DUP6 DUP6 PUSH2 0x5C9 JUMP JUMPDEST POP PUSH1 0x1 SWAP5 SWAP4 POP POP POP POP JUMP JUMPDEST PUSH1 0x0 CALLER PUSH2 0x2E8 DUP2 DUP6 DUP6 PUSH2 0x32B DUP4 DUP4 PUSH2 0x3FF JUMP JUMPDEST PUSH2 0x335 SWAP2 SWAP1 PUSH2 0xACE JUMP JUMPDEST PUSH2 0x42A JUMP JUMPDEST PUSH2 0x344 DUP3 DUP3 PUSH2 0x76D JUMP JUMPDEST POP POP JUMP JUMPDEST PUSH2 0x352 CALLER DUP3 PUSH2 0x82C JUMP JUMPDEST POP JUMP JUMPDEST PUSH1 0x60 PUSH1 0x4 DUP1 SLOAD PUSH2 0x257 SWAP1 PUSH2 0xA94 JUMP JUMPDEST PUSH1 0x0 CALLER DUP2 PUSH2 0x372 DUP3 DUP7 PUSH2 0x3FF JUMP JUMPDEST SWAP1 POP DUP4 DUP2 LT ISZERO PUSH2 0x3D7 JUMPI PUSH1 0x40 MLOAD PUSH3 0x461BCD PUSH1 0xE5 SHL DUP2 MSTORE PUSH1 0x20 PUSH1 0x4 DUP3 ADD MSTORE PUSH1 0x25 PUSH1 0x24 DUP3 ADD MSTORE PUSH32 0x45524332303A2064656372656173656420616C6C6F77616E63652062656C6F77 PUSH1 0x44 DUP3 ADD MSTORE PUSH5 0x207A65726F PUSH1 0xD8 SHL PUSH1 0x64 DUP3 ADD MSTORE PUSH1 0x84 ADD JUMPDEST PUSH1 0x40 MLOAD DUP1 SWAP2 SUB SWAP1 REVERT JUMPDEST PUSH2 0x30D DUP3 DUP7 DUP7 DUP5 SUB PUSH2 0x42A JUMP JUMPDEST PUSH1 0x0 CALLER PUSH2 0x2E8 DUP2 DUP6 DUP6 PUSH2 0x5C9 JUMP JUMPDEST PUSH2 0x352 CALLER PUSH2 0xDEAD DUP4 PUSH2 0x5C9 JUMP JUMPDEST PUSH1 0x1 PUSH1 0x1 PUSH1 0xA0 SHL SUB SWAP2 DUP3 AND PUSH1 0x0 SWAP1 DUP2 MSTORE PUSH1 0x1 PUSH1 0x20 SWAP1 DUP2 MSTORE PUSH1 0x40 DUP1 DUP4 KECCAK256 SWAP4 SWAP1 SWAP5 AND DUP3 MSTORE SWAP2 SWAP1 SWAP2 MSTORE KECCAK256 SLOAD SWAP1 JUMP JUMPDEST PUSH1 0x1 PUSH1 0x1 PUSH1 0xA0 SHL SUB DUP4 AND PUSH2 0x48C JUMPI PUSH1 0x40 MLOAD PUSH3 0x461BCD PUSH1 0xE5 SHL DUP2 MSTORE PUSH1 0x20 PUSH1 0x4 DUP3 ADD MSTORE PUSH1 0x24 DUP1 DUP3 ADD MSTORE PUSH32 0x45524332303A20617070726F76652066726F6D20746865207A65726F20616464 PUSH1 0x44 DUP3 ADD MSTORE PUSH4 0x72657373 PUSH1 0xE0 SHL PUSH1 0x64 DUP3 ADD MSTORE PUSH1 0x84 ADD PUSH2 0x3CE JUMP JUMPDEST PUSH1 0x1 PUSH1 0x1 PUSH1 0xA0 SHL SUB DUP3 AND PUSH2 0x4ED JUMPI PUSH1 0x40 MLOAD PUSH3 0x461BCD PUSH1 0xE5 SHL DUP2 MSTORE PUSH1 0x20 PUSH1 0x4 DUP3 ADD MSTORE PUSH1 0x22 PUSH1 0x24 DUP3 ADD MSTORE PUSH32 0x45524332303A20617070726F766520746F20746865207A65726F206164647265 PUSH1 0x44 DUP3 ADD MSTORE PUSH2 0x7373 PUSH1 0xF0 SHL PUSH1 0x64 DUP3 ADD MSTORE PUSH1 0x84 ADD PUSH2 0x3CE JUMP JUMPDEST PUSH1 0x1 PUSH1 0x1 PUSH1 0xA0 SHL SUB DUP4 DUP2 AND PUSH1 0x0 DUP2 DUP2 MSTORE PUSH1 0x1 PUSH1 0x20 SWAP1 DUP2 MSTORE PUSH1 0x40 DUP1 DUP4 KECCAK256 SWAP5 DUP8 AND DUP1 DUP5 MSTORE SWAP5 DUP3 MSTORE SWAP2 DUP3 SWAP1 KECCAK256 DUP6 SWAP1 SSTORE SWAP1 MLOAD DUP5 DUP2 MSTORE PUSH32 0x8C5BE1E5EBEC7D5BD14F71427D1E84F3DD0314C0F7B2291E5B200AC8C7C3B925 SWAP2 ADD JUMPDEST PUSH1 0x40 MLOAD DUP1 SWAP2 SUB SWAP1 LOG3 POP POP POP JUMP JUMPDEST PUSH1 0x0 PUSH2 0x55B DUP5 DUP5 PUSH2 0x3FF JUMP JUMPDEST SWAP1 POP PUSH1 0x0 NOT DUP2 EQ PUSH2 0x5C3 JUMPI DUP2 DUP2 LT ISZERO PUSH2 0x5B6 JUMPI PUSH1 0x40 MLOAD PUSH3 0x461BCD PUSH1 0xE5 SHL DUP2 MSTORE PUSH1 0x20 PUSH1 0x4 DUP3 ADD MSTORE PUSH1 0x1D PUSH1 0x24 DUP3 ADD MSTORE PUSH32 0x45524332303A20696E73756666696369656E7420616C6C6F77616E6365000000 PUSH1 0x44 DUP3 ADD MSTORE PUSH1 0x64 ADD PUSH2 0x3CE JUMP JUMPDEST PUSH2 0x5C3 DUP5 DUP5 DUP5 DUP5 SUB PUSH2 0x42A JUMP JUMPDEST POP POP POP POP JUMP JUMPDEST PUSH1 0x1 PUSH1 0x1 PUSH1 0xA0 SHL SUB DUP4 AND PUSH2 0x62D JUMPI PUSH1 0x40 MLOAD PUSH3 0x461BCD PUSH1 0xE5 SHL DUP2 MSTORE PUSH1 0x20 PUSH1 0x4 DUP3 ADD MSTORE PUSH1 0x25 PUSH1 0x24 DUP3 ADD MSTORE PUSH32 0x45524332303A207472616E736665722066726F6D20746865207A65726F206164 PUSH1 0x44 DUP3 ADD MSTORE PUSH5 0x6472657373 PUSH1 0xD8 SHL PUSH1 0x64 DUP3 ADD MSTORE PUSH1 0x84 ADD PUSH2 0x3CE JUMP JUMPDEST PUSH1 0x1 PUSH1 0x1 PUSH1 0xA0 SHL SUB DUP3 AND PUSH2 0x68F JUMPI PUSH1 0x40 MLOAD PUSH3 0x461BCD PUSH1 0xE5 SHL DUP2 MSTORE PUSH1 0x20 PUSH1 0x4 DUP3 ADD MSTORE PUSH1 0x23 PUSH1 0x24 DUP3 ADD MSTORE PUSH32 0x45524332303A207472616E7366657220746F20746865207A65726F2061646472 PUSH1 0x44 DUP3 ADD MSTORE PUSH3 0x657373 PUSH1 0xE8 SHL PUSH1 0x64 DUP3 ADD MSTORE PUSH1 0x84 ADD PUSH2 0x3CE JUMP JUMPDEST PUSH1 0x1 PUSH1 0x1 PUSH1 0xA0 SHL SUB DUP4 AND PUSH1 0x0 SWAP1 DUP2 MSTORE PUSH1 0x20 DUP2 SWAP1 MSTORE PUSH1 0x40 SWAP1 KECCAK256 SLOAD DUP2 DUP2 LT ISZERO PUSH2 0x707 JUMPI PUSH1 0x40 MLOAD PUSH3 0x461BCD PUSH1 0xE5 SHL DUP2 MSTORE PUSH1 0x20 PUSH1 0x4 DUP3 ADD MSTORE PUSH1 0x26 PUSH1 0x24 DUP3 ADD MSTORE PUSH32 0x45524332303A207472616E7366657220616D6F756E7420657863656564732062 PUSH1 0x44 DUP3 ADD MSTORE PUSH6 0x616C616E6365 PUSH1 0xD0 SHL PUSH1 0x64 DUP3 ADD MSTORE PUSH1 0x84 ADD PUSH2 0x3CE JUMP JUMPDEST PUSH1 0x1 PUSH1 0x1 PUSH1 0xA0 SHL SUB DUP5 DUP2 AND PUSH1 0x0 DUP2 DUP2 MSTORE PUSH1 0x20 DUP2 DUP2 MSTORE PUSH1 0x40 DUP1 DUP4 KECCAK256 DUP8 DUP8 SUB SWAP1 SSTORE SWAP4 DUP8 AND DUP1 DUP4 MSTORE SWAP2 DUP5 SWAP1 KECCAK256 DUP1 SLOAD DUP8 ADD SWAP1 SSTORE SWAP3 MLOAD DUP6 DUP2 MSTORE SWAP1 SWAP3 PUSH32 0xDDF252AD1BE2C89B69C2B068FC378DAA952BA7F163C4A11628F55A4DF523B3EF SWAP2 ADD PUSH1 0x40 MLOAD DUP1 SWAP2 SUB SWAP1 LOG3 PUSH2 0x5C3 JUMP JUMPDEST PUSH1 0x1 PUSH1 0x1 PUSH1 0xA0 SHL SUB DUP3 AND PUSH2 0x7C3 JUMPI PUSH1 0x40 MLOAD PUSH3 0x461BCD PUSH1 0xE5 SHL DUP2 MSTORE PUSH1 0x20 PUSH1 0x4 DUP3 ADD MSTORE PUSH1 0x1F PUSH1 0x24 DUP3 ADD MSTORE PUSH32 0x45524332303A206D696E7420746F20746865207A65726F206164647265737300 PUSH1 0x44 DUP3 ADD MSTORE PUSH1 0x64 ADD PUSH2 0x3CE JUMP JUMPDEST DUP1 PUSH1 0x2 PUSH1 0x0 DUP3 DUP3 SLOAD PUSH2 0x7D5 SWAP2 SWAP1 PUSH2 0xACE JUMP JUMPDEST SWAP1 SWAP2 SSTORE POP POP PUSH1 0x1 PUSH1 0x1 PUSH1 0xA0 SHL SUB DUP3 AND PUSH1 0x0 DUP2 DUP2 MSTORE PUSH1 0x20 DUP2 DUP2 MSTORE PUSH1 0x40 DUP1 DUP4 KECCAK256 DUP1 SLOAD DUP7 ADD SWAP1 SSTORE MLOAD DUP5 DUP2 MSTORE PUSH32 0xDDF252AD1BE2C89B69C2B068FC378DAA952BA7F163C4A11628F55A4DF523B3EF SWAP2 ADD PUSH1 0x40 MLOAD DUP1 SWAP2 SUB SWAP1 LOG3 POP POP JUMP JUMPDEST PUSH1 0x1 PUSH1 0x1 PUSH1 0xA0 SHL SUB DUP3 AND PUSH2 0x88C JUMPI PUSH1 0x40 MLOAD PUSH3 0x461BCD PUSH1 0xE5 SHL DUP2 MSTORE PUSH1 0x20 PUSH1 0x4 DUP3 ADD MSTORE PUSH1 0x21 PUSH1 0x24 DUP3 ADD MSTORE PUSH32 0x45524332303A206275726E2066726F6D20746865207A65726F20616464726573 PUSH1 0x44 DUP3 ADD MSTORE PUSH1 0x73 PUSH1 0xF8 SHL PUSH1 0x64 DUP3 ADD MSTORE PUSH1 0x84 ADD PUSH2 0x3CE JUMP JUMPDEST PUSH1 0x1 PUSH1 0x1 PUSH1 0xA0 SHL SUB DUP3 AND PUSH1 0x0 SWAP1 DUP2 MSTORE PUSH1 0x20 DUP2 SWAP1 MSTORE PUSH1 0x40 SWAP1 KECCAK256 SLOAD DUP2 DUP2 LT ISZERO PUSH2 0x900 JUMPI PUSH1 0x40 MLOAD PUSH3 0x461BCD PUSH1 0xE5 SHL DUP2 MSTORE PUSH1 0x20 PUSH1 0x4 DUP3 ADD MSTORE PUSH1 0x22 PUSH1 0x24 DUP3 ADD MSTORE PUSH32 0x45524332303A206275726E20616D6F756E7420657863656564732062616C616E PUSH1 0x44 DUP3 ADD MSTORE PUSH2 0x6365 PUSH1 0xF0 SHL PUSH1 0x64 DUP3 ADD MSTORE PUSH1 0x84 ADD PUSH2 0x3CE JUMP JUMPDEST PUSH1 0x1 PUSH1 0x1 PUSH1 0xA0 SHL SUB DUP4 AND PUSH1 0x0 DUP2 DUP2 MSTORE PUSH1 0x20 DUP2 DUP2 MSTORE PUSH1 0x40 DUP1 DUP4 KECCAK256 DUP7 DUP7 SUB SWAP1 SSTORE PUSH1 0x2 DUP1 SLOAD DUP8 SWAP1 SUB SWAP1 SSTORE MLOAD DUP6 DUP2 MSTORE SWAP2 SWAP3 SWAP2 PUSH32 0xDDF252AD1BE2C89B69C2B068FC378DAA952BA7F163C4A11628F55A4DF523B3EF SWAP2 ADD PUSH2 0x542 JUMP JUMPDEST PUSH1 0x0 PUSH1 0x20 DUP1 DUP4 MSTORE DUP4 MLOAD DUP1 DUP3 DUP6 ADD MSTORE PUSH1 0x0 JUMPDEST DUP2 DUP2 LT ISZERO PUSH2 0x983 JUMPI DUP6 DUP2 ADD DUP4 ADD MLOAD DUP6 DUP3 ADD PUSH1 0x40 ADD MSTORE DUP3 ADD PUSH2 0x967 JUMP JUMPDEST POP PUSH1 0x0 PUSH1 0x40 DUP3 DUP7 ADD ADD MSTORE PUSH1 0x40 PUSH1 0x1F NOT PUSH1 0x1F DUP4 ADD AND DUP6 ADD ADD SWAP3 POP POP POP SWAP3 SWAP2 POP POP JUMP JUMPDEST DUP1 CALLDATALOAD PUSH1 0x1 PUSH1 0x1 PUSH1 0xA0 SHL SUB DUP2 AND DUP2 EQ PUSH2 0x9BB JUMPI PUSH1 0x0 DUP1 REVERT JUMPDEST SWAP2 SWAP1 POP JUMP JUMPDEST PUSH1 0x0 DUP1 PUSH1 0x40 DUP4 DUP6 SUB SLT ISZERO PUSH2 0x9D3 JUMPI PUSH1 0x0 DUP1 REVERT JUMPDEST PUSH2 0x9DC DUP4 PUSH2 0x9A4 JUMP JUMPDEST SWAP5 PUSH1 0x20 SWAP4 SWAP1 SWAP4 ADD CALLDATALOAD SWAP4 POP POP POP JUMP JUMPDEST PUSH1 0x0 DUP1 PUSH1 0x0 PUSH1 0x60 DUP5 DUP7 SUB SLT ISZERO PUSH2 0x9FF JUMPI PUSH1 0x0 DUP1 REVERT JUMPDEST PUSH2 0xA08 DUP5 PUSH2 0x9A4 JUMP JUMPDEST SWAP3 POP PUSH2 0xA16 PUSH1 0x20 DUP6 ADD PUSH2 0x9A4 JUMP JUMPDEST SWAP2 POP PUSH1 0x40 DUP5 ADD CALLDATALOAD SWAP1 POP SWAP3 POP SWAP3 POP SWAP3 JUMP JUMPDEST PUSH1 0x0 PUSH1 0x20 DUP3 DUP5 SUB SLT ISZERO PUSH2 0xA38 JUMPI PUSH1 0x0 DUP1 REVERT JUMPDEST POP CALLDATALOAD SWAP2 SWAP1 POP JUMP JUMPDEST PUSH1 0x0 PUSH1 0x20 DUP3 DUP5 SUB SLT ISZERO PUSH2 0xA51 JUMPI PUSH1 0x0 DUP1 REVERT JUMPDEST PUSH2 0xA5A DUP3 PUSH2 0x9A4 JUMP JUMPDEST SWAP4 SWAP3 POP POP POP JUMP JUMPDEST PUSH1 0x0 DUP1 PUSH1 0x40 DUP4 DUP6 SUB SLT ISZERO PUSH2 0xA74 JUMPI PUSH1 0x0 DUP1 REVERT JUMPDEST PUSH2 0xA7D DUP4 PUSH2 0x9A4 JUMP JUMPDEST SWAP2 POP PUSH2 0xA8B PUSH1 0x20 DUP5 ADD PUSH2 0x9A4 JUMP JUMPDEST SWAP1 POP SWAP3 POP SWAP3 SWAP1 POP JUMP JUMPDEST PUSH1 0x1 DUP2 DUP2 SHR SWAP1 DUP3 AND DUP1 PUSH2 0xAA8 JUMPI PUSH1 0x7F DUP3 AND SWAP2 POP JUMPDEST PUSH1 0x20 DUP3 LT DUP2 SUB PUSH2 0xAC8 JUMPI PUSH4 0x4E487B71 PUSH1 0xE0 SHL PUSH1 0x0 MSTORE PUSH1 0x22 PUSH1 0x4 MSTORE PUSH1 0x24 PUSH1 0x0 REVERT JUMPDEST POP SWAP2 SWAP1 POP JUMP JUMPDEST DUP1 DUP3 ADD DUP1 DUP3 GT ISZERO PUSH2 0x2EE JUMPI PUSH4 0x4E487B71 PUSH1 0xE0 SHL PUSH1 0x0 MSTORE PUSH1 0x11 PUSH1 0x4 MSTORE PUSH1 0x24 PUSH1 0x0 REVERT INVALID LOG2 PUSH5 0x6970667358 0x22 SLT KECCAK256 PUSH2 0xB28F 0xDF 0xF SWAP4 0xBE ORIGIN 0xE8 CODECOPY DUP3 0x4F COINBASE 0xB6 PUSH1 0x3 DUP14 INVALID 0xB3 0xBC BLOCKHASH SWAP5 0x21 0x1F 0xE8 PUSH27 0x7E9071A872FF64736F6C6343000811003360806040523480156200 STOP GT JUMPI PUSH1 0x0 DUP1 REVERT JUMPDEST POP PUSH1 0x40 MLOAD DUP1 PUSH1 0x40 ADD PUSH1 0x40 MSTORE DUP1 PUSH1 0x7 DUP2 MSTORE PUSH1 0x20 ADD PUSH7 0x11144810D85C99 PUSH1 0xCA SHL DUP2 MSTORE POP PUSH1 0x40 MLOAD DUP1 PUSH1 0x40 ADD PUSH1 0x40 MSTORE DUP1 PUSH1 0x3 DUP2 MSTORE PUSH1 0x20 ADD PUSH3 0x445143 PUSH1 0xE8 SHL DUP2 MSTORE POP DUP2 PUSH1 0x0 SWAP1 DUP2 PUSH3 0x5F SWAP2 SWAP1 PUSH3 0x18C JUMP JUMPDEST POP PUSH1 0x1 PUSH3 0x6E DUP3 DUP3 PUSH3 0x18C JUMP JUMPDEST POP POP POP PUSH3 0x8B PUSH3 0x85 PUSH3 0x91 PUSH1 0x20 SHL PUSH1 0x20 SHR JUMP JUMPDEST PUSH3 0x95 JUMP JUMPDEST PUSH3 0x258 JUMP JUMPDEST CALLER SWAP1 JUMP JUMPDEST PUSH1 0xA DUP1 SLOAD PUSH1 0x1 PUSH1 0x1 PUSH1 0xA0 SHL SUB DUP4 DUP2 AND PUSH1 0x1 PUSH1 0x1 PUSH1 0xA0 SHL SUB NOT DUP4 AND DUP2 OR SWAP1 SWAP4 SSTORE PUSH1 0x40 MLOAD SWAP2 AND SWAP2 SWAP1 DUP3 SWAP1 PUSH32 0x8BE0079C531659141344CD1FD0A4F28419497F9722A3DAAFE3B4186F6B6457E0 SWAP1 PUSH1 0x0 SWAP1 LOG3 POP POP JUMP JUMPDEST PUSH4 0x4E487B71 PUSH1 0xE0 SHL PUSH1 0x0 MSTORE PUSH1 0x41 PUSH1 0x4 MSTORE PUSH1 0x24 PUSH1 0x0 REVERT JUMPDEST PUSH1 0x1 DUP2 DUP2 SHR SWAP1 DUP3 AND DUP1 PUSH3 0x112 JUMPI PUSH1 0x7F DUP3 AND SWAP2 POP JUMPDEST PUSH1 0x20 DUP3 LT DUP2 SUB PUSH3 0x133 JUMPI PUSH4 0x4E487B71 PUSH1 0xE0 SHL PUSH1 0x0 MSTORE PUSH1 0x22 PUSH1 0x4 MSTORE PUSH1 0x24 PUSH1 0x0 REVERT JUMPDEST POP SWAP2 SWAP1 POP JUMP JUMPDEST PUSH1 0x1F DUP3 GT ISZERO PUSH3 0x187 JUMPI PUSH1 0x0 DUP2 DUP2 MSTORE PUSH1 0x20 DUP2 KECCAK256 PUSH1 0x1F DUP6 ADD PUSH1 0x5 SHR DUP2 ADD PUSH1 0x20 DUP7 LT ISZERO PUSH3 0x162 JUMPI POP DUP1 JUMPDEST PUSH1 0x1F DUP6 ADD PUSH1 0x5 SHR DUP3 ADD SWAP2 POP JUMPDEST DUP2 DUP2 LT ISZERO PUSH3 0x183 JUMPI DUP3 DUP2 SSTORE PUSH1 0x1 ADD PUSH3 0x16E JUMP JUMPDEST POP POP POP JUMPDEST POP POP POP JUMP JUMPDEST DUP2 MLOAD PUSH1 0x1 PUSH1 0x1 PUSH1 0x40 SHL SUB DUP2 GT ISZERO PUSH3 0x1A8 JUMPI PUSH3 0x1A8 PUSH3 0xE7 JUMP JUMPDEST PUSH3 0x1C0 DUP2 PUSH3 0x1B9 DUP5 SLOAD PUSH3 0xFD JUMP JUMPDEST DUP5 PUSH3 0x139 JUMP JUMPDEST PUSH1 0x20 DUP1 PUSH1 0x1F DUP4 GT PUSH1 0x1 DUP2 EQ PUSH3 0x1F8 JUMPI PUSH1 0x0 DUP5 ISZERO PUSH3 0x1DF JUMPI POP DUP6 DUP4 ADD MLOAD JUMPDEST PUSH1 0x0 NOT PUSH1 0x3 DUP7 SWAP1 SHL SHR NOT AND PUSH1 0x1 DUP6 SWAP1 SHL OR DUP6 SSTORE PUSH3 0x183 JUMP JUMPDEST PUSH1 0x0 DUP6 DUP2 MSTORE PUSH1 0x20 DUP2 KECCAK256 PUSH1 0x1F NOT DUP7 AND SWAP2 JUMPDEST DUP3 DUP2 LT ISZERO PUSH3 0x229 JUMPI DUP9 DUP7 ADD MLOAD DUP3 SSTORE SWAP5 DUP5 ADD SWAP5 PUSH1 0x1 SWAP1 SWAP2 ADD SWAP1 DUP5 ADD PUSH3 0x208 JUMP JUMPDEST POP DUP6 DUP3 LT ISZERO PUSH3 0x248 JUMPI DUP8 DUP6 ADD MLOAD PUSH1 0x0 NOT PUSH1 0x3 DUP9 SWAP1 SHL PUSH1 0xF8 AND SHR NOT AND DUP2 SSTORE JUMPDEST POP POP POP POP POP PUSH1 0x1 SWAP1 DUP2 SHL ADD SWAP1 SSTORE POP JUMP JUMPDEST PUSH2 0x1FF8 DUP1 PUSH3 0x268 PUSH1 0x0 CODECOPY PUSH1 0x0 RETURN INVALID PUSH1 0x80 PUSH1 0x40 MSTORE CALLVALUE DUP1 ISZERO PUSH2 0x10 JUMPI PUSH1 0x0 DUP1 REVERT JUMPDEST POP PUSH1 0x4 CALLDATASIZE LT PUSH2 0x25E JUMPI PUSH1 0x0 CALLDATALOAD PUSH1 0xE0 SHR DUP1 PUSH4 0x70A08231 GT PUSH2 0x146 JUMPI DUP1 PUSH4 0xB629640B GT PUSH2 0xC3 JUMPI DUP1 PUSH4 0xD15DFE2D GT PUSH2 0x87 JUMPI DUP1 PUSH4 0xD15DFE2D EQ PUSH2 0x49B JUMPI DUP1 PUSH4 0xE985E9C5 EQ PUSH2 0x4A4 JUMPI DUP1 PUSH4 0xF01EAB24 EQ PUSH2 0x4E0 JUMPI DUP1 PUSH4 0xF26841BD EQ PUSH2 0x4E8 JUMPI DUP1 PUSH4 0xF2FDE38B EQ PUSH2 0x4F0 JUMPI DUP1 PUSH4 0xFCF49ADF EQ PUSH2 0x503 JUMPI PUSH1 0x0 DUP1 REVERT JUMPDEST DUP1 PUSH4 0xB629640B EQ PUSH2 0x45C JUMPI DUP1 PUSH4 0xB88D4FDE EQ PUSH2 0x465 JUMPI DUP1 PUSH4 0xBC1E4023 EQ PUSH2 0x478 JUMPI DUP1 PUSH4 0xBEC68765 EQ PUSH2 0x480 JUMPI DUP1 PUSH4 0xC87B56DD EQ PUSH2 0x488 JUMPI PUSH1 0x0 DUP1 REVERT JUMPDEST DUP1 PUSH4 0x8C53FA80 GT PUSH2 0x10A JUMPI DUP1 PUSH4 0x8C53FA80 EQ PUSH2 0x40A JUMPI DUP1 PUSH4 0x8DA5CB5B EQ PUSH2 0x41D JUMPI DUP1 PUSH4 0x940E689D EQ PUSH2 0x42E JUMPI DUP1 PUSH4 0x95D89B41 EQ PUSH2 0x441 JUMPI DUP1 PUSH4 0xA22CB465 EQ PUSH2 0x449 JUMPI PUSH1 0x0 DUP1 REVERT JUMPDEST DUP1 PUSH4 0x70A08231 EQ PUSH2 0x3D5 JUMPI DUP1 PUSH4 0x715018A6 EQ PUSH2 0x3E8 JUMPI DUP1 PUSH4 0x73CDA3E4 EQ PUSH2 0x3F0 JUMPI DUP1 PUSH4 0x800C33CD EQ PUSH2 0x327 JUMPI DUP1 PUSH4 0x8485391A EQ PUSH2 0x401 JUMPI PUSH1 0x0 DUP1 REVERT JUMPDEST DUP1 PUSH4 0x20083B89 GT PUSH2 0x1DF JUMPI DUP1 PUSH4 0x42842E0E GT PUSH2 0x1A3 JUMPI DUP1 PUSH4 0x42842E0E EQ PUSH2 0x371 JUMPI DUP1 PUSH4 0x4F6CCCE7 EQ PUSH2 0x384 JUMPI DUP1 PUSH4 0x52B03C2F EQ PUSH2 0x397 JUMPI DUP1 PUSH4 0x53D79447 EQ PUSH2 0x39F JUMPI DUP1 PUSH4 0x6352211E EQ PUSH2 0x3AF JUMPI DUP1 PUSH4 0x6866537D EQ PUSH2 0x3C2 JUMPI PUSH1 0x0 DUP1 REVERT JUMPDEST DUP1 PUSH4 0x20083B89 EQ PUSH2 0x327 JUMPI DUP1 PUSH4 0x23B872DD EQ PUSH2 0x32F JUMPI DUP1 PUSH4 0x2F745C59 EQ PUSH2 0x342 JUMPI DUP1 PUSH4 0x3542AEE2 EQ PUSH2 0x355 JUMPI DUP1 PUSH4 0x39698415 EQ PUSH2 0x368 JUMPI PUSH1 0x0 DUP1 REVERT JUMPDEST DUP1 PUSH4 0x13EEEA08 GT PUSH2 0x226 JUMPI DUP1 PUSH4 0x13EEEA08 EQ PUSH2 0x2F6 JUMPI DUP1 PUSH4 0x15AD6F61 EQ PUSH2 0x306 JUMPI DUP1 PUSH4 0x18160DDD EQ PUSH2 0x30E JUMPI DUP1 PUSH4 0x18A8AC77 EQ PUSH2 0x316 JUMPI DUP1 PUSH4 0x193491B5 EQ PUSH2 0x31E JUMPI PUSH1 0x0 DUP1 REVERT JUMPDEST DUP1 PUSH4 0x1FFC9A7 EQ PUSH2 0x263 JUMPI DUP1 PUSH4 0x6FDDE03 EQ PUSH2 0x28B JUMPI DUP1 PUSH4 0x81812FC EQ PUSH2 0x2A0 JUMPI DUP1 PUSH4 0x95EA7B3 EQ PUSH2 0x2CB JUMPI DUP1 PUSH4 0x10DCF285 EQ PUSH2 0x2E0 JUMPI JUMPDEST PUSH1 0x0 DUP1 REVERT JUMPDEST PUSH2 0x276 PUSH2 0x271 CALLDATASIZE PUSH1 0x4 PUSH2 0x1AAE JUMP JUMPDEST PUSH2 0x523 JUMP JUMPDEST PUSH1 0x40 MLOAD SWAP1 ISZERO ISZERO DUP2 MSTORE PUSH1 0x20 ADD JUMPDEST PUSH1 0x40 MLOAD DUP1 SWAP2 SUB SWAP1 RETURN JUMPDEST PUSH2 0x293 PUSH2 0x54E JUMP JUMPDEST PUSH1 0x40 MLOAD PUSH2 0x282 SWAP2 SWAP1 PUSH2 0x1B1B JUMP JUMPDEST PUSH2 0x2B3 PUSH2 0x2AE CALLDATASIZE PUSH1 0x4 PUSH2 0x1B2E JUMP JUMPDEST PUSH2 0x5E0 JUMP JUMPDEST PUSH1 0x40 MLOAD PUSH1 0x1 PUSH1 0x1 PUSH1 0xA0 SHL SUB SWAP1 SWAP2 AND DUP2 MSTORE PUSH1 0x20 ADD PUSH2 0x282 JUMP JUMPDEST PUSH2 0x2DE PUSH2 0x2D9 CALLDATASIZE PUSH1 0x4 PUSH2 0x1B63 JUMP JUMPDEST PUSH2 0x607 JUMP JUMPDEST STOP JUMPDEST PUSH2 0x2E8 PUSH1 0x14 DUP2 JUMP JUMPDEST PUSH1 0x40 MLOAD SWAP1 DUP2 MSTORE PUSH1 0x20 ADD PUSH2 0x282 JUMP JUMPDEST PUSH2 0x2E8 PUSH9 0x1B1AE4D6E2EF500000 DUP2 JUMP JUMPDEST PUSH2 0x2E8 PUSH1 0x2 DUP2 JUMP JUMPDEST PUSH1 0x8 SLOAD PUSH2 0x2E8 JUMP JUMPDEST PUSH2 0x2E8 PUSH1 0x3 DUP2 JUMP JUMPDEST PUSH2 0x2E8 PUSH1 0xC SLOAD DUP2 JUMP JUMPDEST PUSH2 0x2E8 PUSH1 0x5 DUP2 JUMP JUMPDEST PUSH2 0x2DE PUSH2 0x33D CALLDATASIZE PUSH1 0x4 PUSH2 0x1B8D JUMP JUMPDEST PUSH2 0x721 JUMP JUMPDEST PUSH2 0x2E8 PUSH2 0x350 CALLDATASIZE PUSH1 0x4 PUSH2 0x1B63 JUMP JUMPDEST PUSH2 0x752 JUMP JUMPDEST PUSH2 0x2DE PUSH2 0x363 CALLDATASIZE PUSH1 0x4 PUSH2 0x1B63 JUMP JUMPDEST PUSH2 0x7E8 JUMP JUMPDEST PUSH2 0x2E8 PUSH2 0x3E8 DUP2 JUMP JUMPDEST PUSH2 0x2DE PUSH2 0x37F CALLDATASIZE PUSH1 0x4 PUSH2 0x1B8D JUMP JUMPDEST PUSH2 0x7FE JUMP JUMPDEST PUSH2 0x2E8 PUSH2 0x392 CALLDATASIZE PUSH1 0x4 PUSH2 0x1B2E JUMP JUMPDEST PUSH2 0x819 JUMP JUMPDEST PUSH2 0x2E8 PUSH1 0x1 DUP2 JUMP JUMPDEST PUSH2 0x2E8 PUSH9 0x5150AE84A8CDF00000 DUP2 JUMP JUMPDEST PUSH2 0x2B3 PUSH2 0x3BD CALLDATASIZE PUSH1 0x4 PUSH2 0x1B2E JUMP JUMPDEST PUSH2 0x8AC JUMP JUMPDEST PUSH2 0x2E8 PUSH2 0x3D0 CALLDATASIZE PUSH1 0x4 PUSH2 0x1B2E JUMP JUMPDEST PUSH2 0x90C JUMP JUMPDEST PUSH2 0x2E8 PUSH2 0x3E3 CALLDATASIZE PUSH1 0x4 PUSH2 0x1BC9 JUMP JUMPDEST PUSH2 0x94F JUMP JUMPDEST PUSH2 0x2DE PUSH2 0x9D5 JUMP JUMPDEST PUSH2 0x2E8 PUSH10 0x10F0CF064DD59200000 DUP2 JUMP JUMPDEST PUSH2 0x2E8 PUSH2 0x1F4 DUP2 JUMP JUMPDEST PUSH2 0x2E8 PUSH2 0x418 CALLDATASIZE PUSH1 0x4 PUSH2 0x1B2E JUMP JUMPDEST PUSH2 0x9E9 JUMP JUMPDEST PUSH1 0xA SLOAD PUSH1 0x1 PUSH1 0x1 PUSH1 0xA0 SHL SUB AND PUSH2 0x2B3 JUMP JUMPDEST PUSH2 0x2E8 PUSH2 0x43C CALLDATASIZE PUSH1 0x4 PUSH2 0x1B2E JUMP JUMPDEST PUSH2 0xA13 JUMP JUMPDEST PUSH2 0x293 PUSH2 0xA3D JUMP JUMPDEST PUSH2 0x2DE PUSH2 0x457 CALLDATASIZE PUSH1 0x4 PUSH2 0x1BE4 JUMP JUMPDEST PUSH2 0xA4C JUMP JUMPDEST PUSH2 0x2E8 PUSH1 0xB SLOAD DUP2 JUMP JUMPDEST PUSH2 0x2DE PUSH2 0x473 CALLDATASIZE PUSH1 0x4 PUSH2 0x1C36 JUMP JUMPDEST PUSH2 0xA57 JUMP JUMPDEST PUSH2 0x2E8 PUSH1 0x4 DUP2 JUMP JUMPDEST PUSH2 0x2E8 PUSH1 0xA DUP2 JUMP JUMPDEST PUSH2 0x293 PUSH2 0x496 CALLDATASIZE PUSH1 0x4 PUSH2 0x1B2E JUMP JUMPDEST PUSH2 0xA8F JUMP JUMPDEST PUSH2 0x2E8 PUSH1 0xD SLOAD DUP2 JUMP JUMPDEST PUSH2 0x276 PUSH2 0x4B2 CALLDATASIZE PUSH1 0x4 PUSH2 0x1D12 JUMP JUMPDEST PUSH1 0x1 PUSH1 0x1 PUSH1 0xA0 SHL SUB SWAP2 DUP3 AND PUSH1 0x0 SWAP1 DUP2 MSTORE PUSH1 0x5 PUSH1 0x20 SWAP1 DUP2 MSTORE PUSH1 0x40 DUP1 DUP4 KECCAK256 SWAP4 SWAP1 SWAP5 AND DUP3 MSTORE SWAP2 SWAP1 SWAP2 MSTORE KECCAK256 SLOAD PUSH1 0xFF AND SWAP1 JUMP JUMPDEST PUSH2 0x2E8 PUSH1 0x6 DUP2 JUMP JUMPDEST PUSH2 0x2E8 PUSH1 0x64 DUP2 JUMP JUMPDEST PUSH2 0x2DE PUSH2 0x4FE CALLDATASIZE PUSH1 0x4 PUSH2 0x1BC9 JUMP JUMPDEST PUSH2 0xB03 JUMP JUMPDEST PUSH2 0x2E8 PUSH2 0x511 CALLDATASIZE PUSH1 0x4 PUSH2 0x1B2E JUMP JUMPDEST PUSH1 0xE PUSH1 0x20 MSTORE PUSH1 0x0 SWAP1 DUP2 MSTORE PUSH1 0x40 SWAP1 KECCAK256 SLOAD DUP2 JUMP JUMPDEST PUSH1 0x0 PUSH1 0x1 PUSH1 0x1 PUSH1 0xE0 SHL SUB NOT DUP3 AND PUSH4 0x780E9D63 PUSH1 0xE0 SHL EQ DUP1 PUSH2 0x548 JUMPI POP PUSH2 0x548 DUP3 PUSH2 0xB7C JUMP JUMPDEST SWAP3 SWAP2 POP POP JUMP JUMPDEST PUSH1 0x60 PUSH1 0x0 DUP1 SLOAD PUSH2 0x55D SWAP1 PUSH2 0x1D45 JUMP JUMPDEST DUP1 PUSH1 0x1F ADD PUSH1 0x20 DUP1 SWAP2 DIV MUL PUSH1 0x20 ADD PUSH1 0x40 MLOAD SWAP1 DUP2 ADD PUSH1 0x40 MSTORE DUP1 SWAP3 SWAP2 SWAP1 DUP2 DUP2 MSTORE PUSH1 0x20 ADD DUP3 DUP1 SLOAD PUSH2 0x589 SWAP1 PUSH2 0x1D45 JUMP JUMPDEST DUP1 ISZERO PUSH2 0x5D6 JUMPI DUP1 PUSH1 0x1F LT PUSH2 0x5AB JUMPI PUSH2 0x100 DUP1 DUP4 SLOAD DIV MUL DUP4 MSTORE SWAP2 PUSH1 0x20 ADD SWAP2 PUSH2 0x5D6 JUMP JUMPDEST DUP3 ADD SWAP2 SWAP1 PUSH1 0x0 MSTORE PUSH1 0x20 PUSH1 0x0 KECCAK256 SWAP1 JUMPDEST DUP2 SLOAD DUP2 MSTORE SWAP1 PUSH1 0x1 ADD SWAP1 PUSH1 0x20 ADD DUP1 DUP4 GT PUSH2 0x5B9 JUMPI DUP3 SWAP1 SUB PUSH1 0x1F AND DUP3 ADD SWAP2 JUMPDEST POP POP POP POP POP SWAP1 POP SWAP1 JUMP JUMPDEST PUSH1 0x0 PUSH2 0x5EB DUP3 PUSH2 0xBCC JUMP JUMPDEST POP PUSH1 0x0 SWAP1 DUP2 MSTORE PUSH1 0x4 PUSH1 0x20 MSTORE PUSH1 0x40 SWAP1 KECCAK256 SLOAD PUSH1 0x1 PUSH1 0x1 PUSH1 0xA0 SHL SUB AND SWAP1 JUMP JUMPDEST PUSH1 0x0 PUSH2 0x612 DUP3 PUSH2 0x8AC JUMP JUMPDEST SWAP1 POP DUP1 PUSH1 0x1 PUSH1 0x1 PUSH1 0xA0 SHL SUB AND DUP4 PUSH1 0x1 PUSH1 0x1 PUSH1 0xA0 SHL SUB AND SUB PUSH2 0x684 JUMPI PUSH1 0x40 MLOAD PUSH3 0x461BCD PUSH1 0xE5 SHL DUP2 MSTORE PUSH1 0x20 PUSH1 0x4 DUP3 ADD MSTORE PUSH1 0x21 PUSH1 0x24 DUP3 ADD MSTORE PUSH32 0x4552433732313A20617070726F76616C20746F2063757272656E74206F776E65 PUSH1 0x44 DUP3 ADD MSTORE PUSH1 0x39 PUSH1 0xF9 SHL PUSH1 0x64 DUP3 ADD MSTORE PUSH1 0x84 ADD JUMPDEST PUSH1 0x40 MLOAD DUP1 SWAP2 SUB SWAP1 REVERT JUMPDEST CALLER PUSH1 0x1 PUSH1 0x1 PUSH1 0xA0 SHL SUB DUP3 AND EQ DUP1 PUSH2 0x6A0 JUMPI POP PUSH2 0x6A0 DUP2 CALLER PUSH2 0x4B2 JUMP JUMPDEST PUSH2 0x712 JUMPI PUSH1 0x40 MLOAD PUSH3 0x461BCD PUSH1 0xE5 SHL DUP2 MSTORE PUSH1 0x20 PUSH1 0x4 DUP3 ADD MSTORE PUSH1 0x3D PUSH1 0x24 DUP3 ADD MSTORE PUSH32 0x4552433732313A20617070726F76652063616C6C6572206973206E6F7420746F PUSH1 0x44 DUP3 ADD MSTORE PUSH32 0x6B656E206F776E6572206F7220617070726F76656420666F7220616C6C000000 PUSH1 0x64 DUP3 ADD MSTORE PUSH1 0x84 ADD PUSH2 0x67B JUMP JUMPDEST PUSH2 0x71C DUP4 DUP4 PUSH2 0xC2B JUMP JUMPDEST POP POP POP JUMP JUMPDEST PUSH2 0x72B CALLER DUP3 PUSH2 0xC99 JUMP JUMPDEST PUSH2 0x747 JUMPI PUSH1 0x40 MLOAD PUSH3 0x461BCD PUSH1 0xE5 SHL DUP2 MSTORE PUSH1 0x4 ADD PUSH2 0x67B SWAP1 PUSH2 0x1D7F JUMP JUMPDEST PUSH2 0x71C DUP4 DUP4 DUP4 PUSH2 0xD18 JUMP JUMPDEST PUSH1 0x0 PUSH2 0x75D DUP4 PUSH2 0x94F JUMP JUMPDEST DUP3 LT PUSH2 0x7BF JUMPI PUSH1 0x40 MLOAD PUSH3 0x461BCD PUSH1 0xE5 SHL DUP2 MSTORE PUSH1 0x20 PUSH1 0x4 DUP3 ADD MSTORE PUSH1 0x2B PUSH1 0x24 DUP3 ADD MSTORE PUSH32 0x455243373231456E756D657261626C653A206F776E657220696E646578206F75 PUSH1 0x44 DUP3 ADD MSTORE PUSH11 0x74206F6620626F756E6473 PUSH1 0xA8 SHL PUSH1 0x64 DUP3 ADD MSTORE PUSH1 0x84 ADD PUSH2 0x67B JUMP JUMPDEST POP PUSH1 0x1 PUSH1 0x1 PUSH1 0xA0 SHL SUB SWAP2 SWAP1 SWAP2 AND PUSH1 0x0 SWAP1 DUP2 MSTORE PUSH1 0x6 PUSH1 0x20 SWAP1 DUP2 MSTORE PUSH1 0x40 DUP1 DUP4 KECCAK256 SWAP4 DUP4 MSTORE SWAP3 SWAP1 MSTORE KECCAK256 SLOAD SWAP1 JUMP JUMPDEST PUSH2 0x7F0 PUSH2 0xE89 JUMP JUMPDEST PUSH2 0x7FA DUP3 DUP3 PUSH2 0xEE3 JUMP JUMPDEST POP POP JUMP JUMPDEST PUSH2 0x71C DUP4 DUP4 DUP4 PUSH1 0x40 MLOAD DUP1 PUSH1 0x20 ADD PUSH1 0x40 MSTORE DUP1 PUSH1 0x0 DUP2 MSTORE POP PUSH2 0xA57 JUMP JUMPDEST PUSH1 0x0 PUSH2 0x824 PUSH1 0x8 SLOAD SWAP1 JUMP JUMPDEST DUP3 LT PUSH2 0x887 JUMPI PUSH1 0x40 MLOAD PUSH3 0x461BCD PUSH1 0xE5 SHL DUP2 MSTORE PUSH1 0x20 PUSH1 0x4 DUP3 ADD MSTORE PUSH1 0x2C PUSH1 0x24 DUP3 ADD MSTORE PUSH32 0x455243373231456E756D657261626C653A20676C6F62616C20696E646578206F PUSH1 0x44 DUP3 ADD MSTORE PUSH12 0x7574206F6620626F756E6473 PUSH1 0xA0 SHL PUSH1 0x64 DUP3 ADD MSTORE PUSH1 0x84 ADD PUSH2 0x67B JUMP JUMPDEST PUSH1 0x8 DUP3 DUP2 SLOAD DUP2 LT PUSH2 0x89A JUMPI PUSH2 0x89A PUSH2 0x1DCC JUMP JUMPDEST SWAP1 PUSH1 0x0 MSTORE PUSH1 0x20 PUSH1 0x0 KECCAK256 ADD SLOAD SWAP1 POP SWAP2 SWAP1 POP JUMP JUMPDEST PUSH1 0x0 DUP2 DUP2 MSTORE PUSH1 0x2 PUSH1 0x20 MSTORE PUSH1 0x40 DUP2 KECCAK256 SLOAD PUSH1 0x1 PUSH1 0x1 PUSH1 0xA0 SHL SUB AND DUP1 PUSH2 0x548 JUMPI PUSH1 0x40 MLOAD PUSH3 0x461BCD PUSH1 0xE5 SHL DUP2 MSTORE PUSH1 0x20 PUSH1 0x4 DUP3 ADD MSTORE PUSH1 0x18 PUSH1 0x24 DUP3 ADD MSTORE PUSH24 0x115490CDCC8C4E881A5B9D985B1A59081D1BDAD95B881251 PUSH1 0x42 SHL PUSH1 0x44 DUP3 ADD MSTORE PUSH1 0x64 ADD PUSH2 0x67B JUMP JUMPDEST PUSH1 0x0 PUSH1 0x1 DUP3 SUB PUSH2 0x926 JUMPI POP PUSH9 0x1B1AE4D6E2EF500000 SWAP2 SWAP1 POP JUMP JUMPDEST PUSH1 0x2 DUP3 SUB PUSH2 0x93E JUMPI POP PUSH9 0x5150AE84A8CDF00000 SWAP2 SWAP1 POP JUMP JUMPDEST POP PUSH10 0x10F0CF064DD59200000 SWAP2 SWAP1 POP JUMP JUMPDEST PUSH1 0x0 PUSH1 0x1 PUSH1 0x1 PUSH1 0xA0 SHL SUB DUP3 AND PUSH2 0x9B9 JUMPI PUSH1 0x40 MLOAD PUSH3 0x461BCD PUSH1 0xE5 SHL DUP2 MSTORE PUSH1 0x20 PUSH1 0x4 DUP3 ADD MSTORE PUSH1 0x29 PUSH1 0x24 DUP3 ADD MSTORE PUSH32 0x4552433732313A2061646472657373207A65726F206973206E6F742061207661 PUSH1 0x44 DUP3 ADD MSTORE PUSH9 0x3634B21037BBB732B9 PUSH1 0xB9 SHL PUSH1 0x64 DUP3 ADD MSTORE PUSH1 0x84 ADD PUSH2 0x67B JUMP JUMPDEST POP PUSH1 0x1 PUSH1 0x1 PUSH1 0xA0 SHL SUB AND PUSH1 0x0 SWAP1 DUP2 MSTORE PUSH1 0x3 PUSH1 0x20 MSTORE PUSH1 0x40 SWAP1 KECCAK256 SLOAD SWAP1 JUMP JUMPDEST PUSH2 0x9DD PUSH2 0xE89 JUMP JUMPDEST PUSH2 0x9E7 PUSH1 0x0 PUSH2 0x1092 JUMP JUMPDEST JUMP JUMPDEST PUSH1 0x0 PUSH1 0x1 DUP3 SUB PUSH2 0x9FB JUMPI POP PUSH1 0x5 SWAP2 SWAP1 POP JUMP JUMPDEST PUSH1 0x2 DUP3 SUB PUSH2 0xA0B JUMPI POP PUSH1 0xA SWAP2 SWAP1 POP JUMP JUMPDEST POP PUSH1 0x14 SWAP2 SWAP1 POP JUMP JUMPDEST PUSH1 0x0 PUSH1 0x1 DUP3 SUB PUSH2 0xA25 JUMPI POP PUSH1 0x4 SWAP2 SWAP1 POP JUMP JUMPDEST PUSH1 0x2 DUP3 SUB PUSH2 0xA35 JUMPI POP PUSH1 0x5 SWAP2 SWAP1 POP JUMP JUMPDEST POP PUSH1 0x6 SWAP2 SWAP1 POP JUMP JUMPDEST PUSH1 0x60 PUSH1 0x1 DUP1 SLOAD PUSH2 0x55D SWAP1 PUSH2 0x1D45 JUMP JUMPDEST PUSH2 0x7FA CALLER DUP4 DUP4 PUSH2 0x10E4 JUMP JUMPDEST PUSH2 0xA61 CALLER DUP4 PUSH2 0xC99 JUMP JUMPDEST PUSH2 0xA7D JUMPI PUSH1 0x40 MLOAD PUSH3 0x461BCD PUSH1 0xE5 SHL DUP2 MSTORE PUSH1 0x4 ADD PUSH2 0x67B SWAP1 PUSH2 0x1D7F JUMP JUMPDEST PUSH2 0xA89 DUP5 DUP5 DUP5 DUP5 PUSH2 0x11B2 JUMP JUMPDEST POP POP POP POP JUMP JUMPDEST PUSH1 0x60 PUSH2 0xA9A DUP3 PUSH2 0xBCC JUMP JUMPDEST PUSH1 0x0 PUSH2 0xAB1 PUSH1 0x40 DUP1 MLOAD PUSH1 0x20 DUP2 ADD SWAP1 SWAP2 MSTORE PUSH1 0x0 DUP2 MSTORE SWAP1 JUMP JUMPDEST SWAP1 POP PUSH1 0x0 DUP2 MLOAD GT PUSH2 0xAD1 JUMPI PUSH1 0x40 MLOAD DUP1 PUSH1 0x20 ADD PUSH1 0x40 MSTORE DUP1 PUSH1 0x0 DUP2 MSTORE POP PUSH2 0xAFC JUMP JUMPDEST DUP1 PUSH2 0xADB DUP5 PUSH2 0x11E5 JUMP JUMPDEST PUSH1 0x40 MLOAD PUSH1 0x20 ADD PUSH2 0xAEC SWAP3 SWAP2 SWAP1 PUSH2 0x1DE2 JUMP JUMPDEST PUSH1 0x40 MLOAD PUSH1 0x20 DUP2 DUP4 SUB SUB DUP2 MSTORE SWAP1 PUSH1 0x40 MSTORE JUMPDEST SWAP4 SWAP3 POP POP POP JUMP JUMPDEST PUSH2 0xB0B PUSH2 0xE89 JUMP JUMPDEST PUSH1 0x1 PUSH1 0x1 PUSH1 0xA0 SHL SUB DUP2 AND PUSH2 0xB70 JUMPI PUSH1 0x40 MLOAD PUSH3 0x461BCD PUSH1 0xE5 SHL DUP2 MSTORE PUSH1 0x20 PUSH1 0x4 DUP3 ADD MSTORE PUSH1 0x26 PUSH1 0x24 DUP3 ADD MSTORE PUSH32 0x4F776E61626C653A206E6577206F776E657220697320746865207A65726F2061 PUSH1 0x44 DUP3 ADD MSTORE PUSH6 0x646472657373 PUSH1 0xD0 SHL PUSH1 0x64 DUP3 ADD MSTORE PUSH1 0x84 ADD PUSH2 0x67B JUMP JUMPDEST PUSH2 0xB79 DUP2 PUSH2 0x1092 JUMP JUMPDEST POP JUMP JUMPDEST PUSH1 0x0 PUSH1 0x1 PUSH1 0x1 PUSH1 0xE0 SHL SUB NOT DUP3 AND PUSH4 0x80AC58CD PUSH1 0xE0 SHL EQ DUP1 PUSH2 0xBAD JUMPI POP PUSH1 0x1 PUSH1 0x1 PUSH1 0xE0 SHL SUB NOT DUP3 AND PUSH4 0x5B5E139F PUSH1 0xE0 SHL EQ JUMPDEST DUP1 PUSH2 0x548 JUMPI POP PUSH4 0x1FFC9A7 PUSH1 0xE0 SHL PUSH1 0x1 PUSH1 0x1 PUSH1 0xE0 SHL SUB NOT DUP4 AND EQ PUSH2 0x548 JUMP JUMPDEST PUSH1 0x0 DUP2 DUP2 MSTORE PUSH1 0x2 PUSH1 0x20 MSTORE PUSH1 0x40 SWAP1 KECCAK256 SLOAD PUSH1 0x1 PUSH1 0x1 PUSH1 0xA0 SHL SUB AND PUSH2 0xB79 JUMPI PUSH1 0x40 MLOAD PUSH3 0x461BCD PUSH1 0xE5 SHL DUP2 MSTORE PUSH1 0x20 PUSH1 0x4 DUP3 ADD MSTORE PUSH1 0x18 PUSH1 0x24 DUP3 ADD MSTORE PUSH24 0x115490CDCC8C4E881A5B9D985B1A59081D1BDAD95B881251 PUSH1 0x42 SHL PUSH1 0x44 DUP3 ADD MSTORE PUSH1 0x64 ADD PUSH2 0x67B JUMP JUMPDEST PUSH1 0x0 DUP2 DUP2 MSTORE PUSH1 0x4 PUSH1 0x20 MSTORE PUSH1 0x40 SWAP1 KECCAK256 DUP1 SLOAD PUSH1 0x1 PUSH1 0x1 PUSH1 0xA0 SHL SUB NOT AND PUSH1 0x1 PUSH1 0x1 PUSH1 0xA0 SHL SUB DUP5 AND SWAP1 DUP2 OR SWAP1 SWAP2 SSTORE DUP2 SWAP1 PUSH2 0xC60 DUP3 PUSH2 0x8AC JUMP JUMPDEST PUSH1 0x1 PUSH1 0x1 PUSH1 0xA0 SHL SUB AND PUSH32 0x8C5BE1E5EBEC7D5BD14F71427D1E84F3DD0314C0F7B2291E5B200AC8C7C3B925 PUSH1 0x40 MLOAD PUSH1 0x40 MLOAD DUP1 SWAP2 SUB SWAP1 LOG4 POP POP JUMP JUMPDEST PUSH1 0x0 DUP1 PUSH2 0xCA5 DUP4 PUSH2 0x8AC JUMP JUMPDEST SWAP1 POP DUP1 PUSH1 0x1 PUSH1 0x1 PUSH1 0xA0 SHL SUB AND DUP5 PUSH1 0x1 PUSH1 0x1 PUSH1 0xA0 SHL SUB AND EQ DUP1 PUSH2 0xCEC JUMPI POP PUSH1 0x1 PUSH1 0x1 PUSH1 0xA0 SHL SUB DUP1 DUP3 AND PUSH1 0x0 SWAP1 DUP2 MSTORE PUSH1 0x5 PUSH1 0x20 SWAP1 DUP2 MSTORE PUSH1 0x40 DUP1 DUP4 KECCAK256 SWAP4 DUP9 AND DUP4 MSTORE SWAP3 SWAP1 MSTORE KECCAK256 SLOAD PUSH1 0xFF AND JUMPDEST DUP1 PUSH2 0xD10 JUMPI POP DUP4 PUSH1 0x1 PUSH1 0x1 PUSH1 0xA0 SHL SUB AND PUSH2 0xD05 DUP5 PUSH2 0x5E0 JUMP JUMPDEST PUSH1 0x1 PUSH1 0x1 PUSH1 0xA0 SHL SUB AND EQ JUMPDEST SWAP5 SWAP4 POP POP POP POP JUMP JUMPDEST DUP3 PUSH1 0x1 PUSH1 0x1 PUSH1 0xA0 SHL SUB AND PUSH2 0xD2B DUP3 PUSH2 0x8AC JUMP JUMPDEST PUSH1 0x1 PUSH1 0x1 PUSH1 0xA0 SHL SUB AND EQ PUSH2 0xD51 JUMPI PUSH1 0x40 MLOAD PUSH3 0x461BCD PUSH1 0xE5 SHL DUP2 MSTORE PUSH1 0x4 ADD PUSH2 0x67B SWAP1 PUSH2 0x1E11 JUMP JUMPDEST PUSH1 0x1 PUSH1 0x1 PUSH1 0xA0 SHL SUB DUP3 AND PUSH2 0xDB3 JUMPI PUSH1 0x40 MLOAD PUSH3 0x461BCD PUSH1 0xE5 SHL DUP2 MSTORE PUSH1 0x20 PUSH1 0x4 DUP3 ADD MSTORE PUSH1 0x24 DUP1 DUP3 ADD MSTORE PUSH32 0x4552433732313A207472616E7366657220746F20746865207A65726F20616464 PUSH1 0x44 DUP3 ADD MSTORE PUSH4 0x72657373 PUSH1 0xE0 SHL PUSH1 0x64 DUP3 ADD MSTORE PUSH1 0x84 ADD PUSH2 0x67B JUMP JUMPDEST PUSH2 0xDC0 DUP4 DUP4 DUP4 PUSH1 0x1 PUSH2 0x1278 JUMP JUMPDEST DUP3 PUSH1 0x1 PUSH1 0x1 PUSH1 0xA0 SHL SUB AND PUSH2 0xDD3 DUP3 PUSH2 0x8AC JUMP JUMPDEST PUSH1 0x1 PUSH1 0x1 PUSH1 0xA0 SHL SUB AND EQ PUSH2 0xDF9 JUMPI PUSH1 0x40 MLOAD PUSH3 0x461BCD PUSH1 0xE5 SHL DUP2 MSTORE PUSH1 0x4 ADD PUSH2 0x67B SWAP1 PUSH2 0x1E11 JUMP JUMPDEST PUSH1 0x0 DUP2 DUP2 MSTORE PUSH1 0x4 PUSH1 0x20 SWAP1 DUP2 MSTORE PUSH1 0x40 DUP1 DUP4 KECCAK256 DUP1 SLOAD PUSH1 0x1 PUSH1 0x1 PUSH1 0xA0 SHL SUB NOT SWAP1 DUP2 AND SWAP1 SWAP2 SSTORE PUSH1 0x1 PUSH1 0x1 PUSH1 0xA0 SHL SUB DUP8 DUP2 AND DUP1 DUP7 MSTORE PUSH1 0x3 DUP6 MSTORE DUP4 DUP7 KECCAK256 DUP1 SLOAD PUSH1 0x0 NOT ADD SWAP1 SSTORE SWAP1 DUP8 AND DUP1 DUP7 MSTORE DUP4 DUP7 KECCAK256 DUP1 SLOAD PUSH1 0x1 ADD SWAP1 SSTORE DUP7 DUP7 MSTORE PUSH1 0x2 SWAP1 SWAP5 MSTORE DUP3 DUP6 KECCAK256 DUP1 SLOAD SWAP1 SWAP3 AND DUP5 OR SWAP1 SWAP2 SSTORE SWAP1 MLOAD DUP5 SWAP4 PUSH32 0xDDF252AD1BE2C89B69C2B068FC378DAA952BA7F163C4A11628F55A4DF523B3EF SWAP2 LOG4 POP POP POP JUMP JUMPDEST PUSH1 0xA SLOAD PUSH1 0x1 PUSH1 0x1 PUSH1 0xA0 SHL SUB AND CALLER EQ PUSH2 0x9E7 JUMPI PUSH1 0x40 MLOAD PUSH3 0x461BCD PUSH1 0xE5 SHL DUP2 MSTORE PUSH1 0x20 PUSH1 0x4 DUP3 ADD DUP2 SWAP1 MSTORE PUSH1 0x24 DUP3 ADD MSTORE PUSH32 0x4F776E61626C653A2063616C6C6572206973206E6F7420746865206F776E6572 PUSH1 0x44 DUP3 ADD MSTORE PUSH1 0x64 ADD PUSH2 0x67B JUMP JUMPDEST PUSH1 0x1 DUP2 LT ISZERO DUP1 ISZERO PUSH2 0xEF5 JUMPI POP PUSH1 0x3 DUP2 GT ISZERO JUMPDEST PUSH2 0xF30 JUMPI PUSH1 0x40 MLOAD PUSH3 0x461BCD PUSH1 0xE5 SHL DUP2 MSTORE PUSH1 0x20 PUSH1 0x4 DUP3 ADD MSTORE PUSH1 0xC PUSH1 0x24 DUP3 ADD MSTORE PUSH12 0x696E76616C69642074797065 PUSH1 0xA0 SHL PUSH1 0x44 DUP3 ADD MSTORE PUSH1 0x64 ADD PUSH2 0x67B JUMP JUMPDEST PUSH1 0x1 DUP2 SUB PUSH2 0xF92 JUMPI PUSH2 0x3E8 PUSH1 0xB SLOAD LT PUSH2 0xF78 JUMPI PUSH1 0x40 MLOAD PUSH3 0x461BCD PUSH1 0xE5 SHL DUP2 MSTORE PUSH1 0x20 PUSH1 0x4 DUP3 ADD MSTORE PUSH1 0xA PUSH1 0x24 DUP3 ADD MSTORE PUSH10 0x10481CDBDB19081BDD5D PUSH1 0xB2 SHL PUSH1 0x44 DUP3 ADD MSTORE PUSH1 0x64 ADD PUSH2 0x67B JUMP JUMPDEST PUSH1 0xB DUP1 SLOAD SWAP1 PUSH1 0x0 PUSH2 0xF88 DUP4 PUSH2 0x1E6C JUMP JUMPDEST SWAP2 SWAP1 POP SSTORE POP PUSH2 0x103F JUMP JUMPDEST PUSH1 0x2 DUP2 SUB PUSH2 0xFEA JUMPI PUSH2 0x1F4 PUSH1 0xC SLOAD LT PUSH2 0xFDA JUMPI PUSH1 0x40 MLOAD PUSH3 0x461BCD PUSH1 0xE5 SHL DUP2 MSTORE PUSH1 0x20 PUSH1 0x4 DUP3 ADD MSTORE PUSH1 0xA PUSH1 0x24 DUP3 ADD MSTORE PUSH10 0x10881CDBDB19081BDD5D PUSH1 0xB2 SHL PUSH1 0x44 DUP3 ADD MSTORE PUSH1 0x64 ADD PUSH2 0x67B JUMP JUMPDEST PUSH1 0xC DUP1 SLOAD SWAP1 PUSH1 0x0 PUSH2 0xF88 DUP4 PUSH2 0x1E6C JUMP JUMPDEST PUSH1 0x64 PUSH1 0xD SLOAD LT PUSH2 0x1029 JUMPI PUSH1 0x40 MLOAD PUSH3 0x461BCD PUSH1 0xE5 SHL DUP2 MSTORE PUSH1 0x20 PUSH1 0x4 DUP3 ADD MSTORE PUSH1 0xA PUSH1 0x24 DUP3 ADD MSTORE PUSH10 0x10C81CDBDB19081BDD5D PUSH1 0xB2 SHL PUSH1 0x44 DUP3 ADD MSTORE PUSH1 0x64 ADD PUSH2 0x67B JUMP JUMPDEST PUSH1 0xD DUP1 SLOAD SWAP1 PUSH1 0x0 PUSH2 0x1039 DUP4 PUSH2 0x1E6C JUMP JUMPDEST SWAP2 SWAP1 POP SSTORE POP JUMPDEST PUSH1 0x0 PUSH2 0x104A PUSH1 0x8 SLOAD SWAP1 JUMP JUMPDEST PUSH2 0x1055 SWAP1 PUSH1 0x1 PUSH2 0x1E85 JUMP JUMPDEST SWAP1 POP PUSH2 0x1061 DUP4 DUP3 PUSH2 0x1310 JUMP JUMPDEST PUSH1 0x0 DUP2 DUP2 MSTORE PUSH1 0xE PUSH1 0x20 SWAP1 DUP2 MSTORE PUSH1 0x40 DUP1 DUP4 KECCAK256 DUP6 SWAP1 SSTORE PUSH1 0x1 PUSH1 0x1 PUSH1 0xA0 SHL SUB DUP7 AND DUP4 MSTORE PUSH1 0xF SWAP1 SWAP2 MSTORE SWAP1 KECCAK256 PUSH2 0xA89 SWAP1 DUP3 PUSH2 0x132A JUMP JUMPDEST PUSH1 0xA DUP1 SLOAD PUSH1 0x1 PUSH1 0x1 PUSH1 0xA0 SHL SUB DUP4 DUP2 AND PUSH1 0x1 PUSH1 0x1 PUSH1 0xA0 SHL SUB NOT DUP4 AND DUP2 OR SWAP1 SWAP4 SSTORE PUSH1 0x40 MLOAD SWAP2 AND SWAP2 SWAP1 DUP3 SWAP1 PUSH32 0x8BE0079C531659141344CD1FD0A4F28419497F9722A3DAAFE3B4186F6B6457E0 SWAP1 PUSH1 0x0 SWAP1 LOG3 POP POP JUMP JUMPDEST DUP2 PUSH1 0x1 PUSH1 0x1 PUSH1 0xA0 SHL SUB AND DUP4 PUSH1 0x1 PUSH1 0x1 PUSH1 0xA0 SHL SUB AND SUB PUSH2 0x1145 JUMPI PUSH1 0x40 MLOAD PUSH3 0x461BCD PUSH1 0xE5 SHL DUP2 MSTORE PUSH1 0x20 PUSH1 0x4 DUP3 ADD MSTORE PUSH1 0x19 PUSH1 0x24 DUP3 ADD MSTORE PUSH32 0x4552433732313A20617070726F766520746F2063616C6C657200000000000000 PUSH1 0x44 DUP3 ADD MSTORE PUSH1 0x64 ADD PUSH2 0x67B JUMP JUMPDEST PUSH1 0x1 PUSH1 0x1 PUSH1 0xA0 SHL SUB DUP4 DUP2 AND PUSH1 0x0 DUP2 DUP2 MSTORE PUSH1 0x5 PUSH1 0x20 SWAP1 DUP2 MSTORE PUSH1 0x40 DUP1 DUP4 KECCAK256 SWAP5 DUP8 AND DUP1 DUP5 MSTORE SWAP5 DUP3 MSTORE SWAP2 DUP3 SWAP1 KECCAK256 DUP1 SLOAD PUSH1 0xFF NOT AND DUP7 ISZERO ISZERO SWAP1 DUP2 OR SWAP1 SWAP2 SSTORE SWAP2 MLOAD SWAP2 DUP3 MSTORE PUSH32 0x17307EAB39AB6107E8899845AD3D59BD9653F200F220920489CA2B5937696C31 SWAP2 ADD PUSH1 0x40 MLOAD DUP1 SWAP2 SUB SWAP1 LOG3 POP POP POP JUMP JUMPDEST PUSH2 0x11BD DUP5 DUP5 DUP5 PUSH2 0xD18 JUMP JUMPDEST PUSH2 0x11C9 DUP5 DUP5 DUP5 DUP5 PUSH2 0x1336 JUMP JUMPDEST PUSH2 0xA89 JUMPI PUSH1 0x40 MLOAD PUSH3 0x461BCD PUSH1 0xE5 SHL DUP2 MSTORE PUSH1 0x4 ADD PUSH2 0x67B SWAP1 PUSH2 0x1E98 JUMP JUMPDEST PUSH1 0x60 PUSH1 0x0 PUSH2 0x11F2 DUP4 PUSH2 0x1437 JUMP JUMPDEST PUSH1 0x1 ADD SWAP1 POP PUSH1 0x0 DUP2 PUSH8 0xFFFFFFFFFFFFFFFF DUP2 GT ISZERO PUSH2 0x1212 JUMPI PUSH2 0x1212 PUSH2 0x1C20 JUMP JUMPDEST PUSH1 0x40 MLOAD SWAP1 DUP1 DUP3 MSTORE DUP1 PUSH1 0x1F ADD PUSH1 0x1F NOT AND PUSH1 0x20 ADD DUP3 ADD PUSH1 0x40 MSTORE DUP1 ISZERO PUSH2 0x123C JUMPI PUSH1 0x20 DUP3 ADD DUP2 DUP1 CALLDATASIZE DUP4 CALLDATACOPY ADD SWAP1 POP JUMPDEST POP SWAP1 POP DUP2 DUP2 ADD PUSH1 0x20 ADD JUMPDEST PUSH1 0x0 NOT ADD PUSH16 0x181899199A1A9B1B9C1CB0B131B232B3 PUSH1 0x81 SHL PUSH1 0xA DUP7 MOD BYTE DUP2 MSTORE8 PUSH1 0xA DUP6 DIV SWAP5 POP DUP5 PUSH2 0x1246 JUMPI POP SWAP4 SWAP3 POP POP POP JUMP JUMPDEST PUSH2 0x1284 DUP5 DUP5 DUP5 DUP5 PUSH2 0x150F JUMP JUMPDEST PUSH1 0x1 DUP2 GT ISZERO PUSH2 0x12A5 JUMPI PUSH1 0x40 MLOAD PUSH3 0x461BCD PUSH1 0xE5 SHL DUP2 MSTORE PUSH1 0x4 ADD PUSH2 0x67B SWAP1 PUSH2 0x1EEA JUMP JUMPDEST PUSH1 0x1 PUSH1 0x1 PUSH1 0xA0 SHL SUB DUP5 AND ISZERO PUSH2 0x12D8 JUMPI PUSH1 0x1 PUSH1 0x1 PUSH1 0xA0 SHL SUB DUP5 AND PUSH1 0x0 SWAP1 DUP2 MSTORE PUSH1 0xF PUSH1 0x20 MSTORE PUSH1 0x40 SWAP1 KECCAK256 PUSH2 0x12D6 SWAP1 DUP4 PUSH2 0x15EE JUMP JUMPDEST POP JUMPDEST PUSH1 0x1 PUSH1 0x1 PUSH1 0xA0 SHL SUB DUP4 AND ISZERO PUSH2 0xA89 JUMPI PUSH1 0x1 PUSH1 0x1 PUSH1 0xA0 SHL SUB DUP4 AND PUSH1 0x0 SWAP1 DUP2 MSTORE PUSH1 0xF PUSH1 0x20 MSTORE PUSH1 0x40 SWAP1 KECCAK256 PUSH2 0x1309 SWAP1 DUP4 PUSH2 0x132A JUMP JUMPDEST POP POP POP POP POP JUMP JUMPDEST PUSH2 0x7FA DUP3 DUP3 PUSH1 0x40 MLOAD DUP1 PUSH1 0x20 ADD PUSH1 0x40 MSTORE DUP1 PUSH1 0x0 DUP2 MSTORE POP PUSH2 0x15FA JUMP JUMPDEST PUSH1 0x0 PUSH2 0xAFC DUP4 DUP4 PUSH2 0x162D JUMP JUMPDEST PUSH1 0x0 PUSH1 0x1 PUSH1 0x1 PUSH1 0xA0 SHL SUB DUP5 AND EXTCODESIZE ISZERO PUSH2 0x142C JUMPI PUSH1 0x40 MLOAD PUSH4 0xA85BD01 PUSH1 0xE1 SHL DUP2 MSTORE PUSH1 0x1 PUSH1 0x1 PUSH1 0xA0 SHL SUB DUP6 AND SWAP1 PUSH4 0x150B7A02 SWAP1 PUSH2 0x137A SWAP1 CALLER SWAP1 DUP10 SWAP1 DUP9 SWAP1 DUP9 SWAP1 PUSH1 0x4 ADD PUSH2 0x1F3F JUMP JUMPDEST PUSH1 0x20 PUSH1 0x40 MLOAD DUP1 DUP4 SUB DUP2 PUSH1 0x0 DUP8 GAS CALL SWAP3 POP POP POP DUP1 ISZERO PUSH2 0x13B5 JUMPI POP PUSH1 0x40 DUP1 MLOAD PUSH1 0x1F RETURNDATASIZE SWAP1 DUP2 ADD PUSH1 0x1F NOT AND DUP3 ADD SWAP1 SWAP3 MSTORE PUSH2 0x13B2 SWAP2 DUP2 ADD SWAP1 PUSH2 0x1F7C JUMP JUMPDEST PUSH1 0x1 JUMPDEST PUSH2 0x1412 JUMPI RETURNDATASIZE DUP1 DUP1 ISZERO PUSH2 0x13E3 JUMPI PUSH1 0x40 MLOAD SWAP2 POP PUSH1 0x1F NOT PUSH1 0x3F RETURNDATASIZE ADD AND DUP3 ADD PUSH1 0x40 MSTORE RETURNDATASIZE DUP3 MSTORE RETURNDATASIZE PUSH1 0x0 PUSH1 0x20 DUP5 ADD RETURNDATACOPY PUSH2 0x13E8 JUMP JUMPDEST PUSH1 0x60 SWAP2 POP JUMPDEST POP DUP1 MLOAD PUSH1 0x0 SUB PUSH2 0x140A JUMPI PUSH1 0x40 MLOAD PUSH3 0x461BCD PUSH1 0xE5 SHL DUP2 MSTORE PUSH1 0x4 ADD PUSH2 0x67B SWAP1 PUSH2 0x1E98 JUMP JUMPDEST DUP1 MLOAD DUP2 PUSH1 0x20 ADD REVERT JUMPDEST PUSH1 0x1 PUSH1 0x1 PUSH1 0xE0 SHL SUB NOT AND PUSH4 0xA85BD01 PUSH1 0xE1 SHL EQ SWAP1 POP PUSH2 0xD10 JUMP JUMPDEST POP PUSH1 0x1 SWAP5 SWAP4 POP POP POP POP JUMP JUMPDEST PUSH1 0x0 DUP1 PUSH19 0x184F03E93FF9F4DAA797ED6E38ED64BF6A1F01 PUSH1 0x40 SHL DUP4 LT PUSH2 0x1476 JUMPI PUSH19 0x184F03E93FF9F4DAA797ED6E38ED64BF6A1F01 PUSH1 0x40 SHL DUP4 DIV SWAP3 POP PUSH1 0x40 ADD JUMPDEST PUSH14 0x4EE2D6D415B85ACEF8100000000 DUP4 LT PUSH2 0x14A2 JUMPI PUSH14 0x4EE2D6D415B85ACEF8100000000 DUP4 DIV SWAP3 POP PUSH1 0x20 ADD JUMPDEST PUSH7 0x2386F26FC10000 DUP4 LT PUSH2 0x14C0 JUMPI PUSH7 0x2386F26FC10000 DUP4 DIV SWAP3 POP PUSH1 0x10 ADD JUMPDEST PUSH4 0x5F5E100 DUP4 LT PUSH2 0x14D8 JUMPI PUSH4 0x5F5E100 DUP4 DIV SWAP3 POP PUSH1 0x8 ADD JUMPDEST PUSH2 0x2710 DUP4 LT PUSH2 0x14EC JUMPI PUSH2 0x2710 DUP4 DIV SWAP3 POP PUSH1 0x4 ADD JUMPDEST PUSH1 0x64 DUP4 LT PUSH2 0x14FE JUMPI PUSH1 0x64 DUP4 DIV SWAP3 POP PUSH1 0x2 ADD JUMPDEST PUSH1 0xA DUP4 LT PUSH2 0x548 JUMPI PUSH1 0x1 ADD SWAP3 SWAP2 POP POP JUMP JUMPDEST PUSH1 0x1 DUP2 GT ISZERO PUSH2 0x1530 JUMPI PUSH1 0x40 MLOAD PUSH3 0x461BCD PUSH1 0xE5 SHL DUP2 MSTORE PUSH1 0x4 ADD PUSH2 0x67B SWAP1 PUSH2 0x1EEA JUMP JUMPDEST DUP2 PUSH1 0x1 PUSH1 0x1 PUSH1 0xA0 SHL SUB DUP6 AND PUSH2 0x158C JUMPI PUSH2 0x1587 DUP2 PUSH1 0x8 DUP1 SLOAD PUSH1 0x0 DUP4 DUP2 MSTORE PUSH1 0x9 PUSH1 0x20 MSTORE PUSH1 0x40 DUP2 KECCAK256 DUP3 SWAP1 SSTORE PUSH1 0x1 DUP3 ADD DUP4 SSTORE SWAP2 SWAP1 SWAP2 MSTORE PUSH32 0xF3F7A9FE364FAAB93B216DA50A3214154F22A0A2B415B23A84C8169E8B636EE3 ADD SSTORE JUMP JUMPDEST PUSH2 0x15AF JUMP JUMPDEST DUP4 PUSH1 0x1 PUSH1 0x1 PUSH1 0xA0 SHL SUB AND DUP6 PUSH1 0x1 PUSH1 0x1 PUSH1 0xA0 SHL SUB AND EQ PUSH2 0x15AF JUMPI PUSH2 0x15AF DUP6 DUP3 PUSH2 0x167C JUMP JUMPDEST PUSH1 0x1 PUSH1 0x1 PUSH1 0xA0 SHL SUB DUP5 AND PUSH2 0x15CB JUMPI PUSH2 0x15C6 DUP2 PUSH2 0x1719 JUMP JUMPDEST PUSH2 0x1309 JUMP JUMPDEST DUP5 PUSH1 0x1 PUSH1 0x1 PUSH1 0xA0 SHL SUB AND DUP5 PUSH1 0x1 PUSH1 0x1 PUSH1 0xA0 SHL SUB AND EQ PUSH2 0x1309 JUMPI PUSH2 0x1309 DUP5 DUP3 PUSH2 0x17C8 JUMP JUMPDEST PUSH1 0x0 PUSH2 0xAFC DUP4 DUP4 PUSH2 0x180C JUMP JUMPDEST PUSH2 0x1604 DUP4 DUP4 PUSH2 0x18FF JUMP JUMPDEST PUSH2 0x1611 PUSH1 0x0 DUP5 DUP5 DUP5 PUSH2 0x1336 JUMP JUMPDEST PUSH2 0x71C JUMPI PUSH1 0x40 MLOAD PUSH3 0x461BCD PUSH1 0xE5 SHL DUP2 MSTORE PUSH1 0x4 ADD PUSH2 0x67B SWAP1 PUSH2 0x1E98 JUMP JUMPDEST PUSH1 0x0 DUP2 DUP2 MSTORE PUSH1 0x1 DUP4 ADD PUSH1 0x20 MSTORE PUSH1 0x40 DUP2 KECCAK256 SLOAD PUSH2 0x1674 JUMPI POP DUP2 SLOAD PUSH1 0x1 DUP2 DUP2 ADD DUP5 SSTORE PUSH1 0x0 DUP5 DUP2 MSTORE PUSH1 0x20 DUP1 DUP3 KECCAK256 SWAP1 SWAP4 ADD DUP5 SWAP1 SSTORE DUP5 SLOAD DUP5 DUP3 MSTORE DUP3 DUP7 ADD SWAP1 SWAP4 MSTORE PUSH1 0x40 SWAP1 KECCAK256 SWAP2 SWAP1 SWAP2 SSTORE PUSH2 0x548 JUMP JUMPDEST POP PUSH1 0x0 PUSH2 0x548 JUMP JUMPDEST PUSH1 0x0 PUSH1 0x1 PUSH2 0x1689 DUP5 PUSH2 0x94F JUMP JUMPDEST PUSH2 0x1693 SWAP2 SWAP1 PUSH2 0x1F99 JUMP JUMPDEST PUSH1 0x0 DUP4 DUP2 MSTORE PUSH1 0x7 PUSH1 0x20 MSTORE PUSH1 0x40 SWAP1 KECCAK256 SLOAD SWAP1 SWAP2 POP DUP1 DUP3 EQ PUSH2 0x16E6 JUMPI PUSH1 0x1 PUSH1 0x1 PUSH1 0xA0 SHL SUB DUP5 AND PUSH1 0x0 SWAP1 DUP2 MSTORE PUSH1 0x6 PUSH1 0x20 SWAP1 DUP2 MSTORE PUSH1 0x40 DUP1 DUP4 KECCAK256 DUP6 DUP5 MSTORE DUP3 MSTORE DUP1 DUP4 KECCAK256 SLOAD DUP5 DUP5 MSTORE DUP2 DUP5 KECCAK256 DUP2 SWAP1 SSTORE DUP4 MSTORE PUSH1 0x7 SWAP1 SWAP2 MSTORE SWAP1 KECCAK256 DUP2 SWAP1 SSTORE JUMPDEST POP PUSH1 0x0 SWAP2 DUP3 MSTORE PUSH1 0x7 PUSH1 0x20 SWAP1 DUP2 MSTORE PUSH1 0x40 DUP1 DUP5 KECCAK256 DUP5 SWAP1 SSTORE PUSH1 0x1 PUSH1 0x1 PUSH1 0xA0 SHL SUB SWAP1 SWAP5 AND DUP4 MSTORE PUSH1 0x6 DUP2 MSTORE DUP4 DUP4 KECCAK256 SWAP2 DUP4 MSTORE MSTORE SWAP1 DUP2 KECCAK256 SSTORE JUMP JUMPDEST PUSH1 0x8 SLOAD PUSH1 0x0 SWAP1 PUSH2 0x172B SWAP1 PUSH1 0x1 SWAP1 PUSH2 0x1F99 JUMP JUMPDEST PUSH1 0x0 DUP4 DUP2 MSTORE PUSH1 0x9 PUSH1 0x20 MSTORE PUSH1 0x40 DUP2 KECCAK256 SLOAD PUSH1 0x8 DUP1 SLOAD SWAP4 SWAP5 POP SWAP1 SWAP3 DUP5 SWAP1 DUP2 LT PUSH2 0x1753 JUMPI PUSH2 0x1753 PUSH2 0x1DCC JUMP JUMPDEST SWAP1 PUSH1 0x0 MSTORE PUSH1 0x20 PUSH1 0x0 KECCAK256 ADD SLOAD SWAP1 POP DUP1 PUSH1 0x8 DUP4 DUP2 SLOAD DUP2 LT PUSH2 0x1774 JUMPI PUSH2 0x1774 PUSH2 0x1DCC JUMP JUMPDEST PUSH1 0x0 SWAP2 DUP3 MSTORE PUSH1 0x20 DUP1 DUP4 KECCAK256 SWAP1 SWAP2 ADD SWAP3 SWAP1 SWAP3 SSTORE DUP3 DUP2 MSTORE PUSH1 0x9 SWAP1 SWAP2 MSTORE PUSH1 0x40 DUP1 DUP3 KECCAK256 DUP5 SWAP1 SSTORE DUP6 DUP3 MSTORE DUP2 KECCAK256 SSTORE PUSH1 0x8 DUP1 SLOAD DUP1 PUSH2 0x17AC JUMPI PUSH2 0x17AC PUSH2 0x1FAC JUMP JUMPDEST PUSH1 0x1 SWAP1 SUB DUP2 DUP2 SWAP1 PUSH1 0x0 MSTORE PUSH1 0x20 PUSH1 0x0 KECCAK256 ADD PUSH1 0x0 SWAP1 SSTORE SWAP1 SSTORE POP POP POP POP JUMP JUMPDEST PUSH1 0x0 PUSH2 0x17D3 DUP4 PUSH2 0x94F JUMP JUMPDEST PUSH1 0x1 PUSH1 0x1 PUSH1 0xA0 SHL SUB SWAP1 SWAP4 AND PUSH1 0x0 SWAP1 DUP2 MSTORE PUSH1 0x6 PUSH1 0x20 SWAP1 DUP2 MSTORE PUSH1 0x40 DUP1 DUP4 KECCAK256 DUP7 DUP5 MSTORE DUP3 MSTORE DUP1 DUP4 KECCAK256 DUP6 SWAP1 SSTORE SWAP4 DUP3 MSTORE PUSH1 0x7 SWAP1 MSTORE SWAP2 SWAP1 SWAP2 KECCAK256 SWAP2 SWAP1 SWAP2 SSTORE POP JUMP JUMPDEST PUSH1 0x0 DUP2 DUP2 MSTORE PUSH1 0x1 DUP4 ADD PUSH1 0x20 MSTORE PUSH1 0x40 DUP2 KECCAK256 SLOAD DUP1 ISZERO PUSH2 0x18F5 JUMPI PUSH1 0x0 PUSH2 0x1830 PUSH1 0x1 DUP4 PUSH2 0x1F99 JUMP JUMPDEST DUP6 SLOAD SWAP1 SWAP2 POP PUSH1 0x0 SWAP1 PUSH2 0x1844 SWAP1 PUSH1 0x1 SWAP1 PUSH2 0x1F99 JUMP JUMPDEST SWAP1 POP DUP2 DUP2 EQ PUSH2 0x18A9 JUMPI PUSH1 0x0 DUP7 PUSH1 0x0 ADD DUP3 DUP2 SLOAD DUP2 LT PUSH2 0x1864 JUMPI PUSH2 0x1864 PUSH2 0x1DCC JUMP JUMPDEST SWAP1 PUSH1 0x0 MSTORE PUSH1 0x20 PUSH1 0x0 KECCAK256 ADD SLOAD SWAP1 POP DUP1 DUP8 PUSH1 0x0 ADD DUP5 DUP2 SLOAD DUP2 LT PUSH2 0x1887 JUMPI PUSH2 0x1887 PUSH2 0x1DCC JUMP JUMPDEST PUSH1 0x0 SWAP2 DUP3 MSTORE PUSH1 0x20 DUP1 DUP4 KECCAK256 SWAP1 SWAP2 ADD SWAP3 SWAP1 SWAP3 SSTORE SWAP2 DUP3 MSTORE PUSH1 0x1 DUP9 ADD SWAP1 MSTORE PUSH1 0x40 SWAP1 KECCAK256 DUP4 SWAP1 SSTORE JUMPDEST DUP6 SLOAD DUP7 SWAP1 DUP1 PUSH2 0x18BA JUMPI PUSH2 0x18BA PUSH2 0x1FAC JUMP JUMPDEST PUSH1 0x1 SWAP1 SUB DUP2 DUP2 SWAP1 PUSH1 0x0 MSTORE PUSH1 0x20 PUSH1 0x0 KECCAK256 ADD PUSH1 0x0 SWAP1 SSTORE SWAP1 SSTORE DUP6 PUSH1 0x1 ADD PUSH1 0x0 DUP7 DUP2 MSTORE PUSH1 0x20 ADD SWAP1 DUP2 MSTORE PUSH1 0x20 ADD PUSH1 0x0 KECCAK256 PUSH1 0x0 SWAP1 SSTORE PUSH1 0x1 SWAP4 POP POP POP POP PUSH2 0x548 JUMP JUMPDEST PUSH1 0x0 SWAP2 POP POP PUSH2 0x548 JUMP JUMPDEST PUSH1 0x1 PUSH1 0x1 PUSH1 0xA0 SHL SUB DUP3 AND PUSH2 0x1955 JUMPI PUSH1 0x40 MLOAD PUSH3 0x461BCD PUSH1 0xE5 SHL DUP2 MSTORE PUSH1 0x20 PUSH1 0x4 DUP3 ADD DUP2 SWAP1 MSTORE PUSH1 0x24 DUP3 ADD MSTORE PUSH32 0x4552433732313A206D696E7420746F20746865207A65726F2061646472657373 PUSH1 0x44 DUP3 ADD MSTORE PUSH1 0x64 ADD PUSH2 0x67B JUMP JUMPDEST PUSH1 0x0 DUP2 DUP2 MSTORE PUSH1 0x2 PUSH1 0x20 MSTORE PUSH1 0x40 SWAP1 KECCAK256 SLOAD PUSH1 0x1 PUSH1 0x1 PUSH1 0xA0 SHL SUB AND ISZERO PUSH2 0x19BA JUMPI PUSH1 0x40 MLOAD PUSH3 0x461BCD PUSH1 0xE5 SHL DUP2 MSTORE PUSH1 0x20 PUSH1 0x4 DUP3 ADD MSTORE PUSH1 0x1C PUSH1 0x24 DUP3 ADD MSTORE PUSH32 0x4552433732313A20746F6B656E20616C7265616479206D696E74656400000000 PUSH1 0x44 DUP3 ADD MSTORE PUSH1 0x64 ADD PUSH2 0x67B JUMP JUMPDEST PUSH2 0x19C8 PUSH1 0x0 DUP4 DUP4 PUSH1 0x1 PUSH2 0x1278 JUMP JUMPDEST PUSH1 0x0 DUP2 DUP2 MSTORE PUSH1 0x2 PUSH1 0x20 MSTORE PUSH1 0x40 SWAP1 KECCAK256 SLOAD PUSH1 0x1 PUSH1 0x1 PUSH1 0xA0 SHL SUB AND ISZERO PUSH2 0x1A2D JUMPI PUSH1 0x40 MLOAD PUSH3 0x461BCD PUSH1 0xE5 SHL DUP2 MSTORE PUSH1 0x20 PUSH1 0x4 DUP3 ADD MSTORE PUSH1 0x1C PUSH1 0x24 DUP3 ADD MSTORE PUSH32 0x4552433732313A20746F6B656E20616C7265616479206D696E74656400000000 PUSH1 0x44 DUP3 ADD MSTORE PUSH1 0x64 ADD PUSH2 0x67B JUMP JUMPDEST PUSH1 0x1 PUSH1 0x1 PUSH1 0xA0 SHL SUB DUP3 AND PUSH1 0x0 DUP2 DUP2 MSTORE PUSH1 0x3 PUSH1 0x20 SWAP1 DUP2 MSTORE PUSH1 0x40 DUP1 DUP4 KECCAK256 DUP1 SLOAD PUSH1 0x1 ADD SWAP1 SSTORE DUP5 DUP4 MSTORE PUSH1 0x2 SWAP1 SWAP2 MSTORE DUP1 DUP3 KECCAK256 DUP1 SLOAD PUSH1 0x1 PUSH1 0x1 PUSH1 0xA0 SHL SUB NOT AND DUP5 OR SWAP1 SSTORE MLOAD DUP4 SWAP3 SWAP2 SWAP1 PUSH32 0xDDF252AD1BE2C89B69C2B068FC378DAA952BA7F163C4A11628F55A4DF523B3EF SWAP1 DUP3 SWAP1 LOG4 POP POP JUMP JUMPDEST PUSH1 0x1 PUSH1 0x1 PUSH1 0xE0 SHL SUB NOT DUP2 AND DUP2 EQ PUSH2 0xB79 JUMPI PUSH1 0x0 DUP1 REVERT JUMPDEST PUSH1 0x0 PUSH1 0x20 DUP3 DUP5 SUB SLT ISZERO PUSH2 0x1AC0 JUMPI PUSH1 0x0 DUP1 REVERT JUMPDEST DUP2 CALLDATALOAD PUSH2 0xAFC DUP2 PUSH2 0x1A98 JUMP JUMPDEST PUSH1 0x0 JUMPDEST DUP4 DUP2 LT ISZERO PUSH2 0x1AE6 JUMPI DUP2 DUP2 ADD MLOAD DUP4 DUP3 ADD MSTORE PUSH1 0x20 ADD PUSH2 0x1ACE JUMP JUMPDEST POP POP PUSH1 0x0 SWAP2 ADD MSTORE JUMP JUMPDEST PUSH1 0x0 DUP2 MLOAD DUP1 DUP5 MSTORE PUSH2 0x1B07 DUP2 PUSH1 0x20 DUP7 ADD PUSH1 0x20 DUP7 ADD PUSH2 0x1ACB JUMP JUMPDEST PUSH1 0x1F ADD PUSH1 0x1F NOT AND SWAP3 SWAP1 SWAP3 ADD PUSH1 0x20 ADD SWAP3 SWAP2 POP POP JUMP JUMPDEST PUSH1 0x20 DUP2 MSTORE PUSH1 0x0 PUSH2 0xAFC PUSH1 0x20 DUP4 ADD DUP5 PUSH2 0x1AEF JUMP JUMPDEST PUSH1 0x0 PUSH1 0x20 DUP3 DUP5 SUB SLT ISZERO PUSH2 0x1B40 JUMPI PUSH1 0x0 DUP1 REVERT JUMPDEST POP CALLDATALOAD SWAP2 SWAP1 POP JUMP JUMPDEST DUP1 CALLDATALOAD PUSH1 0x1 PUSH1 0x1 PUSH1 0xA0 SHL SUB DUP2 AND DUP2 EQ PUSH2 0x1B5E JUMPI PUSH1 0x0 DUP1 REVERT JUMPDEST SWAP2 SWAP1 POP JUMP JUMPDEST PUSH1 0x0 DUP1 PUSH1 0x40 DUP4 DUP6 SUB SLT ISZERO PUSH2 0x1B76 JUMPI PUSH1 0x0 DUP1 REVERT JUMPDEST PUSH2 0x1B7F DUP4 PUSH2 0x1B47 JUMP JUMPDEST SWAP5 PUSH1 0x20 SWAP4 SWAP1 SWAP4 ADD CALLDATALOAD SWAP4 POP POP POP JUMP JUMPDEST PUSH1 0x0 DUP1 PUSH1 0x0 PUSH1 0x60 DUP5 DUP7 SUB SLT ISZERO PUSH2 0x1BA2 JUMPI PUSH1 0x0 DUP1 REVERT JUMPDEST PUSH2 0x1BAB DUP5 PUSH2 0x1B47 JUMP JUMPDEST SWAP3 POP PUSH2 0x1BB9 PUSH1 0x20 DUP6 ADD PUSH2 0x1B47 JUMP JUMPDEST SWAP2 POP PUSH1 0x40 DUP5 ADD CALLDATALOAD SWAP1 POP SWAP3 POP SWAP3 POP SWAP3 JUMP JUMPDEST PUSH1 0x0 PUSH1 0x20 DUP3 DUP5 SUB SLT ISZERO PUSH2 0x1BDB JUMPI PUSH1 0x0 DUP1 REVERT JUMPDEST PUSH2 0xAFC DUP3 PUSH2 0x1B47 JUMP JUMPDEST PUSH1 0x0 DUP1 PUSH1 0x40 DUP4 DUP6 SUB SLT ISZERO PUSH2 0x1BF7 JUMPI PUSH1 0x0 DUP1 REVERT JUMPDEST PUSH2 0x1C00 DUP4 PUSH2 0x1B47 JUMP JUMPDEST SWAP2 POP PUSH1 0x20 DUP4 ADD CALLDATALOAD DUP1 ISZERO ISZERO DUP2 EQ PUSH2 0x1C15 JUMPI PUSH1 0x0 DUP1 REVERT JUMPDEST DUP1 SWAP2 POP POP SWAP3 POP SWAP3 SWAP1 POP JUMP JUMPDEST PUSH4 0x4E487B71 PUSH1 0xE0 SHL PUSH1 0x0 MSTORE PUSH1 0x41 PUSH1 0x4 MSTORE PUSH1 0x24 PUSH1 0x0 REVERT JUMPDEST PUSH1 0x0 DUP1 PUSH1 0x0 DUP1 PUSH1 0x80 DUP6 DUP8 SUB SLT ISZERO PUSH2 0x1C4C JUMPI PUSH1 0x0 DUP1 REVERT JUMPDEST PUSH2 0x1C55 DUP6 PUSH2 0x1B47 JUMP JUMPDEST SWAP4 POP PUSH2 0x1C63 PUSH1 0x20 DUP7 ADD PUSH2 0x1B47 JUMP JUMPDEST SWAP3 POP PUSH1 0x40 DUP6 ADD CALLDATALOAD SWAP2 POP PUSH1 0x60 DUP6 ADD CALLDATALOAD PUSH8 0xFFFFFFFFFFFFFFFF DUP1 DUP3 GT ISZERO PUSH2 0x1C87 JUMPI PUSH1 0x0 DUP1 REVERT JUMPDEST DUP2 DUP8 ADD SWAP2 POP DUP8 PUSH1 0x1F DUP4 ADD SLT PUSH2 0x1C9B JUMPI PUSH1 0x0 DUP1 REVERT JUMPDEST DUP2 CALLDATALOAD DUP2 DUP2 GT ISZERO PUSH2 0x1CAD JUMPI PUSH2 0x1CAD PUSH2 0x1C20 JUMP JUMPDEST PUSH1 0x40 MLOAD PUSH1 0x1F DUP3 ADD PUSH1 0x1F NOT SWAP1 DUP2 AND PUSH1 0x3F ADD AND DUP2 ADD SWAP1 DUP4 DUP3 GT DUP2 DUP4 LT OR ISZERO PUSH2 0x1CD5 JUMPI PUSH2 0x1CD5 PUSH2 0x1C20 JUMP JUMPDEST DUP2 PUSH1 0x40 MSTORE DUP3 DUP2 MSTORE DUP11 PUSH1 0x20 DUP5 DUP8 ADD ADD GT ISZERO PUSH2 0x1CEE JUMPI PUSH1 0x0 DUP1 REVERT JUMPDEST DUP3 PUSH1 0x20 DUP7 ADD PUSH1 0x20 DUP4 ADD CALLDATACOPY PUSH1 0x0 PUSH1 0x20 DUP5 DUP4 ADD ADD MSTORE DUP1 SWAP6 POP POP POP POP POP POP SWAP3 SWAP6 SWAP2 SWAP5 POP SWAP3 POP JUMP JUMPDEST PUSH1 0x0 DUP1 PUSH1 0x40 DUP4 DUP6 SUB SLT ISZERO PUSH2 0x1D25 JUMPI PUSH1 0x0 DUP1 REVERT JUMPDEST PUSH2 0x1D2E DUP4 PUSH2 0x1B47 JUMP JUMPDEST SWAP2 POP PUSH2 0x1D3C PUSH1 0x20 DUP5 ADD PUSH2 0x1B47 JUMP JUMPDEST SWAP1 POP SWAP3 POP SWAP3 SWAP1 POP JUMP JUMPDEST PUSH1 0x1 DUP2 DUP2 SHR SWAP1 DUP3 AND DUP1 PUSH2 0x1D59 JUMPI PUSH1 0x7F DUP3 AND SWAP2 POP JUMPDEST PUSH1 0x20 DUP3 LT DUP2 SUB PUSH2 0x1D79 JUMPI PUSH4 0x4E487B71 PUSH1 0xE0 SHL PUSH1 0x0 MSTORE PUSH1 0x22 PUSH1 0x4 MSTORE PUSH1 0x24 PUSH1 0x0 REVERT JUMPDEST POP SWAP2 SWAP1 POP JUMP JUMPDEST PUSH1 0x20 DUP1 DUP3 MSTORE PUSH1 0x2D SWAP1 DUP3 ADD MSTORE PUSH32 0x4552433732313A2063616C6C6572206973206E6F7420746F6B656E206F776E65 PUSH1 0x40 DUP3 ADD MSTORE PUSH13 0x1C881BDC88185C1C1C9BDD9959 PUSH1 0x9A SHL PUSH1 0x60 DUP3 ADD MSTORE PUSH1 0x80 ADD SWAP1 JUMP JUMPDEST PUSH4 0x4E487B71 PUSH1 0xE0 SHL PUSH1 0x0 MSTORE PUSH1 0x32 PUSH1 0x4 MSTORE PUSH1 0x24 PUSH1 0x0 REVERT JUMPDEST PUSH1 0x0 DUP4 MLOAD PUSH2 0x1DF4 DUP2 DUP5 PUSH1 0x20 DUP9 ADD PUSH2 0x1ACB JUMP JUMPDEST DUP4 MLOAD SWAP1 DUP4 ADD SWAP1 PUSH2 0x1E08 DUP2 DUP4 PUSH1 0x20 DUP9 ADD PUSH2 0x1ACB JUMP JUMPDEST ADD SWAP5 SWAP4 POP POP POP POP JUMP JUMPDEST PUSH1 0x20 DUP1 DUP3 MSTORE PUSH1 0x25 SWAP1 DUP3 ADD MSTORE PUSH32 0x4552433732313A207472616E736665722066726F6D20696E636F727265637420 PUSH1 0x40 DUP3 ADD MSTORE PUSH5 0x37BBB732B9 PUSH1 0xD9 SHL PUSH1 0x60 DUP3 ADD MSTORE PUSH1 0x80 ADD SWAP1 JUMP JUMPDEST PUSH4 0x4E487B71 PUSH1 0xE0 SHL PUSH1 0x0 MSTORE PUSH1 0x11 PUSH1 0x4 MSTORE PUSH1 0x24 PUSH1 0x0 REVERT JUMPDEST PUSH1 0x0 PUSH1 0x1 DUP3 ADD PUSH2 0x1E7E JUMPI PUSH2 0x1E7E PUSH2 0x1E56 JUMP JUMPDEST POP PUSH1 0x1 ADD SWAP1 JUMP JUMPDEST DUP1 DUP3 ADD DUP1 DUP3 GT ISZERO PUSH2 0x548 JUMPI PUSH2 0x548 PUSH2 0x1E56 JUMP JUMPDEST PUSH1 0x20 DUP1 DUP3 MSTORE PUSH1 0x32 SWAP1 DUP3 ADD MSTORE PUSH32 0x4552433732313A207472616E7366657220746F206E6F6E204552433732315265 PUSH1 0x40 DUP3 ADD MSTORE PUSH18 0x31B2B4BB32B91034B6B83632B6B2B73A32B9 PUSH1 0x71 SHL PUSH1 0x60 DUP3 ADD MSTORE PUSH1 0x80 ADD SWAP1 JUMP JUMPDEST PUSH1 0x20 DUP1 DUP3 MSTORE PUSH1 0x35 SWAP1 DUP3 ADD MSTORE PUSH32 0x455243373231456E756D657261626C653A20636F6E7365637574697665207472 PUSH1 0x40 DUP3 ADD MSTORE PUSH21 0x185B9CD9995C9CC81B9BDD081CDD5C1C1BDC9D1959 PUSH1 0x5A SHL PUSH1 0x60 DUP3 ADD MSTORE PUSH1 0x80 ADD SWAP1 JUMP JUMPDEST PUSH1 0x1 PUSH1 0x1 PUSH1 0xA0 SHL SUB DUP6 DUP2 AND DUP3 MSTORE DUP5 AND PUSH1 0x20 DUP3 ADD MSTORE PUSH1 0x40 DUP2 ADD DUP4 SWAP1 MSTORE PUSH1 0x80 PUSH1 0x60 DUP3 ADD DUP2 SWAP1 MSTORE PUSH1 0x0 SWAP1 PUSH2 0x1F72 SWAP1 DUP4 ADD DUP5 PUSH2 0x1AEF JUMP JUMPDEST SWAP7 SWAP6 POP POP POP POP POP POP JUMP JUMPDEST PUSH1 0x0 PUSH1 0x20 DUP3 DUP5 SUB SLT ISZERO PUSH2 0x1F8E JUMPI PUSH1 0x0 DUP1 REVERT JUMPDEST DUP2 MLOAD PUSH2 0xAFC DUP2 PUSH2 0x1A98 JUMP JUMPDEST DUP2 DUP2 SUB DUP2 DUP2 GT ISZERO PUSH2 0x548 JUMPI PUSH2 0x548 PUSH2 0x1E56 JUMP JUMPDEST PUSH4 0x4E487B71 PUSH1 0xE0 SHL PUSH1 0x0 MSTORE PUSH1 0x31 PUSH1 0x4 MSTORE PUSH1 0x24 PUSH1 0x0 REVERT INVALID LOG2 PUSH5 0x6970667358 0x22 SLT KECCAK256 DELEGATECALL 0xAC 0xF8 0xB6 ADDMOD 0xD2 SWAP13 ADDMOD PUSH2 0x471A EXTCODEHASH 0xCA SLT 0xE4 0xE AND 0xE1 0xF7 PUSH30 0x7F37CBE174ECFDA582FFB9D664736F6C6343000811003300000000000000 "},"methodIdentifiers":{"BEP20_TOKEN()":"d02adc2a","BLACKHOLE()":"1cd3a4ac","BURN_DECREMENT()":"609a33a8","INVEST_MAX_FINAL()":"34eb8c43","INVEST_MAX_START()":"939c54fc","INVEST_MAX_STEP()":"bb89209b","INVEST_MIN()":"9baa944d","MIN_BURN_RATE()":"f0c9e87a","PHASE_DURATION()":"4ae2b849","addPartnerWhiteList(address)":"c52f1041","addPartnerWhiteListBatch(address[])":"17e702e0","adminWithdrawBEP20(uint256)":"5525f3b2","adminWithdrawBNB()":"4529be26","allUsers(uint256)":"a2bdedf4","blockAccPerShare()":"96649b86","blockMining()":"08bed0f0","blockRewardDebt(address)":"d92721b5","burnRate()":"bed99850","buyNode(uint256)":"edd47fe6","canDeposit(address)":"4bf0d331","checkNodeQualified(address)":"73f38081","claimDTeam()":"99dc0025","claimLP()":"de44391a","claimNft()":"5ae2afa4","claimPartner()":"d33bce87","dAccPerShare(uint256)":"45335b6d","dRewardDebt(address)":"1c7c74f9","dThresholds(uint256)":"c73bd869","dTotalUsers(uint256)":"b5478365","dailyReleaseRate()":"2c9a7ea6","deposit(uint256)":"b6b55f25","dqCard()":"a53f57bc","dqPrice()":"a68cc6e3","dqToken()":"f043369b","dynamicPool()":"588ab80b","feePool()":"ae2e933b","foundationWallet()":"6b7ae8dc","getBEP20Balance()":"297324a4","getContractBalance()":"6f9fb98a","getCurrentMaxInvest()":"191b0f84","getLPStake(address)":"3207313d","getPartnerCount()":"0d2e3a29","getPartnerWhiteList()":"78030765","getPrice()":"98d5fdca","getSingleStake(address,uint256)":"15914247","getUser(address)":"6f77926b","insurancePool()":"ab2adc00","isAddressRestricted(address)":"ab5e16e3","isPartnerWhite(address)":"b7b4024b","isRestricted(address)":"c01bc982","lastBlockTime()":"c85ea4ec","levelRates(uint256)":"7879b5ef","lpAccPerShare()":"e4aa1efe","lpPool()":"3737bcb4","lpStakes(address)":"f2f09130","nftAccPerShare(uint256)":"bef58b45","nftRewardDebt(address,uint256)":"cee5e553","operationPool()":"ef57c74e","owner()":"8da5cb5b","partnerAccPerShare()":"f1f16d05","partnerDebt(address)":"07bc8840","partnerWhiteList(uint256)":"71502e6c","register(address)":"4420e486","removePartnerWhiteList(address)":"52c57959","renounceOwnership()":"715018a6","restrictAddress(address)":"ac2ac064","restrictAddressBatch(address[])":"d2407b4c","restrictedDebt(address)":"3380a8c1","setFoundationWallet(address)":"015493b4","setPrice(uint256)":"91b7f5ed","singleStakes(address,uint256)":"c7200098","stakeFeeAccPerShare(uint256)":"41ecde49","stakePeriods(uint256)":"9d50880f","stakeRates(uint256)":"8bc43ccf","stakeSingle(uint256,uint256)":"d11c2d1d","startTime()":"78e97925","totalLPShares()":"d789760e","totalSingleStaked(uint256)":"889abad6","transferOwnership(address)":"f2fde38b","unrestrictAddress(address)":"de40282b","unstakeSingle(uint256)":"7e7031fb","withdrawDQ(uint256,uint256)":"00048629"}}}}}