{"src/DQProject.sol":{"DQProject":{"abi":[{"inputs":[{"internalType":"address","name":"_foundationWallet","type":"address"}],"stateMutability":"nonpayable","type":"constructor"},{"anonymous":false,"inputs":[{"indexed":false,"internalType":"uint256","name":"release","type":"uint256"},{"indexed":false,"internalType":"uint256","name":"burn","type":"uint256"},{"indexed":false,"internalType":"uint256","name":"timestamp","type":"uint256"}],"name":"BlockMining","type":"event"},{"anonymous":false,"inputs":[{"indexed":true,"internalType":"address","name":"user","type":"address"},{"indexed":false,"internalType":"uint256","name":"cardType","type":"uint256"},{"indexed":false,"internalType":"uint256","name":"amount","type":"uint256"}],"name":"BuyNode","type":"event"},{"anonymous":false,"inputs":[{"indexed":true,"internalType":"address","name":"user","type":"address"},{"indexed":false,"internalType":"uint256","name":"amount","type":"uint256"}],"name":"ClaimDTeam","type":"event"},{"anonymous":false,"inputs":[{"indexed":true,"internalType":"address","name":"user","type":"address"},{"indexed":false,"internalType":"uint256","name":"amount","type":"uint256"}],"name":"ClaimLP","type":"event"},{"anonymous":false,"inputs":[{"indexed":true,"internalType":"address","name":"user","type":"address"},{"indexed":false,"internalType":"uint256","name":"amount","type":"uint256"}],"name":"ClaimNft","type":"event"},{"anonymous":false,"inputs":[{"indexed":true,"internalType":"address","name":"user","type":"address"},{"indexed":false,"internalType":"uint256","name":"amount","type":"uint256"}],"name":"ClaimPartner","type":"event"},{"anonymous":false,"inputs":[{"indexed":true,"internalType":"address","name":"user","type":"address"},{"indexed":false,"internalType":"uint256","name":"amount","type":"uint256"}],"name":"ClaimSingle","type":"event"},{"anonymous":false,"inputs":[{"indexed":true,"internalType":"address","name":"user","type":"address"},{"indexed":false,"internalType":"uint8","name":"newDLevel","type":"uint8"}],"name":"DLevelUp","type":"event"},{"anonymous":false,"inputs":[{"indexed":true,"internalType":"address","name":"user","type":"address"},{"indexed":false,"internalType":"uint256","name":"amount","type":"uint256"},{"indexed":false,"internalType":"uint256","name":"dqAmount","type":"uint256"}],"name":"Deposit","type":"event"},{"anonymous":false,"inputs":[{"indexed":true,"internalType":"address","name":"user","type":"address"},{"indexed":false,"internalType":"uint8","name":"newLevel","type":"uint8"}],"name":"LevelUp","type":"event"},{"anonymous":false,"inputs":[{"indexed":true,"internalType":"address","name":"previousOwner","type":"address"},{"indexed":true,"internalType":"address","name":"newOwner","type":"address"}],"name":"OwnershipTransferred","type":"event"},{"anonymous":false,"inputs":[{"indexed":false,"internalType":"uint256","name":"newPrice","type":"uint256"}],"name":"PriceUpdated","type":"event"},{"anonymous":false,"inputs":[{"indexed":true,"internalType":"address","name":"user","type":"address"},{"indexed":true,"internalType":"address","name":"referrer","type":"address"}],"name":"Register","type":"event"},{"anonymous":false,"inputs":[{"indexed":true,"internalType":"address","name":"wallet","type":"address"}],"name":"SetFoundationWallet","type":"event"},{"anonymous":false,"inputs":[{"indexed":true,"internalType":"address","name":"user","type":"address"},{"indexed":false,"internalType":"uint256","name":"amount","type":"uint256"}],"name":"StakeLP","type":"event"},{"anonymous":false,"inputs":[{"indexed":true,"internalType":"address","name":"user","type":"address"},{"indexed":false,"internalType":"uint256","name":"amount","type":"uint256"},{"indexed":false,"internalType":"uint256","name":"period","type":"uint256"}],"name":"StakeSingle","type":"event"},{"anonymous":false,"inputs":[{"indexed":true,"internalType":"address","name":"user","type":"address"},{"indexed":false,"internalType":"uint256","name":"amount","type":"uint256"},{"indexed":false,"internalType":"uint256","name":"fee","type":"uint256"}],"name":"UnstakeLP","type":"event"},{"anonymous":false,"inputs":[{"indexed":true,"internalType":"address","name":"user","type":"address"},{"indexed":false,"internalType":"uint256","name":"amount","type":"uint256"},{"indexed":false,"internalType":"uint256","name":"period","type":"uint256"}],"name":"UnstakeSingle","type":"event"},{"anonymous":false,"inputs":[{"indexed":true,"internalType":"address","name":"user","type":"address"},{"indexed":false,"internalType":"uint256","name":"amount","type":"uint256"}],"name":"Withdraw","type":"event"},{"inputs":[],"name":"BEP20_TOKEN","outputs":[{"internalType":"address","name":"","type":"address"}],"stateMutability":"view","type":"function"},{"inputs":[],"name":"BLACKHOLE","outputs":[{"internalType":"address","name":"","type":"address"}],"stateMutability":"view","type":"function"},{"inputs":[],"name":"BURN_DECREMENT","outputs":[{"internalType":"uint256","name":"","type":"uint256"}],"stateMutability":"view","type":"function"},{"inputs":[],"name":"INVEST_MAX_FINAL","outputs":[{"internalType":"uint256","name":"","type":"uint256"}],"stateMutability":"view","type":"function"},{"inputs":[],"name":"INVEST_MAX_START","outputs":[{"internalType":"uint256","name":"","type":"uint256"}],"stateMutability":"view","type":"function"},{"inputs":[],"name":"INVEST_MAX_STEP","outputs":[{"internalType":"uint256","name":"","type":"uint256"}],"stateMutability":"view","type":"function"},{"inputs":[],"name":"INVEST_MIN","outputs":[{"internalType":"uint256","name":"","type":"uint256"}],"stateMutability":"view","type":"function"},{"inputs":[],"name":"LP_FEE_180DAYS","outputs":[{"internalType":"uint256","name":"","type":"uint256"}],"stateMutability":"view","type":"function"},{"inputs":[],"name":"LP_FEE_60DAYS","outputs":[{"internalType":"uint256","name":"","type":"uint256"}],"stateMutability":"view","type":"function"},{"inputs":[],"name":"LP_FEE_AFTER","outputs":[{"internalType":"uint256","name":"","type":"uint256"}],"stateMutability":"view","type":"function"},{"inputs":[],"name":"MIN_BURN_RATE","outputs":[{"internalType":"uint256","name":"","type":"uint256"}],"stateMutability":"view","type":"function"},{"inputs":[],"name":"PHASE_DURATION","outputs":[{"internalType":"uint256","name":"","type":"uint256"}],"stateMutability":"view","type":"function"},{"inputs":[{"internalType":"uint256","name":"amount","type":"uint256"}],"name":"adminWithdrawBEP20","outputs":[],"stateMutability":"nonpayable","type":"function"},{"inputs":[],"name":"adminWithdrawBNB","outputs":[],"stateMutability":"nonpayable","type":"function"},{"inputs":[{"internalType":"uint256","name":"","type":"uint256"}],"name":"allUsers","outputs":[{"internalType":"address","name":"","type":"address"}],"stateMutability":"view","type":"function"},{"inputs":[],"name":"blockAccPerShare","outputs":[{"internalType":"uint256","name":"","type":"uint256"}],"stateMutability":"view","type":"function"},{"inputs":[],"name":"blockMining","outputs":[],"stateMutability":"nonpayable","type":"function"},{"inputs":[{"internalType":"address","name":"","type":"address"}],"name":"blockRewardDebt","outputs":[{"internalType":"uint256","name":"","type":"uint256"}],"stateMutability":"view","type":"function"},{"inputs":[],"name":"burnRate","outputs":[{"internalType":"uint256","name":"","type":"uint256"}],"stateMutability":"view","type":"function"},{"inputs":[{"internalType":"uint256","name":"_type","type":"uint256"}],"name":"buyNode","outputs":[],"stateMutability":"nonpayable","type":"function"},{"inputs":[],"name":"buybackAndBurn","outputs":[],"stateMutability":"nonpayable","type":"function"},{"inputs":[{"internalType":"address","name":"_user","type":"address"}],"name":"canDeposit","outputs":[{"internalType":"bool","name":"","type":"bool"}],"stateMutability":"view","type":"function"},{"inputs":[],"name":"claimDTeam","outputs":[],"stateMutability":"nonpayable","type":"function"},{"inputs":[],"name":"claimLP","outputs":[],"stateMutability":"nonpayable","type":"function"},{"inputs":[],"name":"claimNft","outputs":[],"stateMutability":"nonpayable","type":"function"},{"inputs":[],"name":"claimPartner","outputs":[],"stateMutability":"nonpayable","type":"function"},{"inputs":[{"internalType":"uint256","name":"","type":"uint256"}],"name":"dAccPerShare","outputs":[{"internalType":"uint256","name":"","type":"uint256"}],"stateMutability":"view","type":"function"},{"inputs":[{"internalType":"address","name":"","type":"address"}],"name":"dRewardDebt","outputs":[{"internalType":"uint256","name":"","type":"uint256"}],"stateMutability":"view","type":"function"},{"inputs":[{"internalType":"uint256","name":"","type":"uint256"}],"name":"dThresholds","outputs":[{"internalType":"uint256","name":"","type":"uint256"}],"stateMutability":"view","type":"function"},{"inputs":[{"internalType":"uint256","name":"","type":"uint256"}],"name":"dTotalUsers","outputs":[{"internalType":"uint256","name":"","type":"uint256"}],"stateMutability":"view","type":"function"},{"inputs":[],"name":"dailyReleaseRate","outputs":[{"internalType":"uint256","name":"","type":"uint256"}],"stateMutability":"view","type":"function"},{"inputs":[{"internalType":"uint256","name":"_amount","type":"uint256"}],"name":"deposit","outputs":[],"stateMutability":"nonpayable","type":"function"},{"inputs":[],"name":"dqCard","outputs":[{"internalType":"contract DQCard","name":"","type":"address"}],"stateMutability":"view","type":"function"},{"inputs":[],"name":"dqPrice","outputs":[{"internalType":"uint256","name":"","type":"uint256"}],"stateMutability":"view","type":"function"},{"inputs":[],"name":"dqToken","outputs":[{"internalType":"contract DQToken","name":"","type":"address"}],"stateMutability":"view","type":"function"},{"inputs":[],"name":"dynamicPool","outputs":[{"internalType":"uint256","name":"","type":"uint256"}],"stateMutability":"view","type":"function"},{"inputs":[],"name":"feePool","outputs":[{"internalType":"uint256","name":"","type":"uint256"}],"stateMutability":"view","type":"function"},{"inputs":[],"name":"foundationWallet","outputs":[{"internalType":"address","name":"","type":"address"}],"stateMutability":"view","type":"function"},{"inputs":[],"name":"getBEP20Balance","outputs":[{"internalType":"uint256","name":"","type":"uint256"}],"stateMutability":"view","type":"function"},{"inputs":[],"name":"getContractBalance","outputs":[{"internalType":"uint256","name":"","type":"uint256"}],"stateMutability":"view","type":"function"},{"inputs":[],"name":"getCurrentMaxInvest","outputs":[{"internalType":"uint256","name":"","type":"uint256"}],"stateMutability":"view","type":"function"},{"inputs":[{"internalType":"address","name":"_user","type":"address"}],"name":"getLPStake","outputs":[{"internalType":"uint256","name":"amount","type":"uint256"},{"internalType":"uint256","name":"startTime","type":"uint256"}],"stateMutability":"view","type":"function"},{"inputs":[],"name":"getPrice","outputs":[{"internalType":"uint256","name":"","type":"uint256"}],"stateMutability":"view","type":"function"},{"inputs":[{"internalType":"address","name":"_user","type":"address"},{"internalType":"uint256","name":"_periodIndex","type":"uint256"}],"name":"getSingleStake","outputs":[{"internalType":"uint256","name":"amount","type":"uint256"}],"stateMutability":"view","type":"function"},{"inputs":[{"internalType":"address","name":"_user","type":"address"}],"name":"getUser","outputs":[{"internalType":"address","name":"referrer","type":"address"},{"internalType":"uint256","name":"directCount","type":"uint256"},{"internalType":"uint8","name":"level","type":"uint8"},{"internalType":"uint8","name":"dLevel","type":"uint8"},{"internalType":"uint256","name":"totalInvest","type":"uint256"},{"internalType":"uint256","name":"teamInvest","type":"uint256"},{"internalType":"uint256","name":"energy","type":"uint256"},{"internalType":"uint256","name":"directSales","type":"uint256"},{"internalType":"bool","name":"hasNode","type":"bool"}],"stateMutability":"view","type":"function"},{"inputs":[],"name":"insurancePool","outputs":[{"internalType":"uint256","name":"","type":"uint256"}],"stateMutability":"view","type":"function"},{"inputs":[{"internalType":"address","name":"","type":"address"}],"name":"isPartner","outputs":[{"internalType":"bool","name":"","type":"bool"}],"stateMutability":"view","type":"function"},{"inputs":[],"name":"lastBlockTime","outputs":[{"internalType":"uint256","name":"","type":"uint256"}],"stateMutability":"view","type":"function"},{"inputs":[{"internalType":"uint256","name":"","type":"uint256"}],"name":"levelRates","outputs":[{"internalType":"uint256","name":"","type":"uint256"}],"stateMutability":"view","type":"function"},{"inputs":[],"name":"lpAccPerShare","outputs":[{"internalType":"uint256","name":"","type":"uint256"}],"stateMutability":"view","type":"function"},{"inputs":[],"name":"lpPool","outputs":[{"internalType":"uint256","name":"","type":"uint256"}],"stateMutability":"view","type":"function"},{"inputs":[{"internalType":"address","name":"","type":"address"}],"name":"lpStakes","outputs":[{"internalType":"uint256","name":"amount","type":"uint256"},{"internalType":"uint256","name":"startTime","type":"uint256"},{"internalType":"uint256","name":"rewardDebt","type":"uint256"}],"stateMutability":"view","type":"function"},{"inputs":[{"internalType":"uint256","name":"","type":"uint256"}],"name":"nftAccPerShare","outputs":[{"internalType":"uint256","name":"","type":"uint256"}],"stateMutability":"view","type":"function"},{"inputs":[{"internalType":"address","name":"","type":"address"},{"internalType":"uint256","name":"","type":"uint256"}],"name":"nftRewardDebt","outputs":[{"internalType":"uint256","name":"","type":"uint256"}],"stateMutability":"view","type":"function"},{"inputs":[],"name":"operationPool","outputs":[{"internalType":"uint256","name":"","type":"uint256"}],"stateMutability":"view","type":"function"},{"inputs":[],"name":"owner","outputs":[{"internalType":"address","name":"","type":"address"}],"stateMutability":"view","type":"function"},{"inputs":[],"name":"partnerAccPerShare","outputs":[{"internalType":"uint256","name":"","type":"uint256"}],"stateMutability":"view","type":"function"},{"inputs":[],"name":"partnerCount","outputs":[{"internalType":"uint256","name":"","type":"uint256"}],"stateMutability":"view","type":"function"},{"inputs":[{"internalType":"address","name":"","type":"address"}],"name":"partnerDebt","outputs":[{"internalType":"uint256","name":"","type":"uint256"}],"stateMutability":"view","type":"function"},{"inputs":[{"internalType":"uint256","name":"","type":"uint256"}],"name":"partnerList","outputs":[{"internalType":"address","name":"","type":"address"}],"stateMutability":"view","type":"function"},{"inputs":[{"internalType":"address","name":"_referrer","type":"address"}],"name":"register","outputs":[],"stateMutability":"nonpayable","type":"function"},{"inputs":[],"name":"renounceOwnership","outputs":[],"stateMutability":"nonpayable","type":"function"},{"inputs":[{"internalType":"address","name":"_wallet","type":"address"}],"name":"setFoundationWallet","outputs":[],"stateMutability":"nonpayable","type":"function"},{"inputs":[{"internalType":"uint256","name":"_newPrice","type":"uint256"}],"name":"setPrice","outputs":[],"stateMutability":"nonpayable","type":"function"},{"inputs":[{"internalType":"address","name":"","type":"address"},{"internalType":"uint256","name":"","type":"uint256"}],"name":"singleStakes","outputs":[{"internalType":"uint256","name":"","type":"uint256"}],"stateMutability":"view","type":"function"},{"inputs":[{"internalType":"uint256","name":"","type":"uint256"}],"name":"stakeFeeAccPerShare","outputs":[{"internalType":"uint256","name":"","type":"uint256"}],"stateMutability":"view","type":"function"},{"inputs":[{"internalType":"uint256","name":"","type":"uint256"}],"name":"stakePeriods","outputs":[{"internalType":"uint256","name":"","type":"uint256"}],"stateMutability":"view","type":"function"},{"inputs":[{"internalType":"uint256","name":"","type":"uint256"}],"name":"stakeRates","outputs":[{"internalType":"uint256","name":"","type":"uint256"}],"stateMutability":"view","type":"function"},{"inputs":[{"internalType":"uint256","name":"_amount","type":"uint256"},{"internalType":"uint256","name":"_periodIndex","type":"uint256"}],"name":"stakeSingle","outputs":[],"stateMutability":"nonpayable","type":"function"},{"inputs":[],"name":"startTime","outputs":[{"internalType":"uint256","name":"","type":"uint256"}],"stateMutability":"view","type":"function"},{"inputs":[],"name":"totalLPShares","outputs":[{"internalType":"uint256","name":"","type":"uint256"}],"stateMutability":"view","type":"function"},{"inputs":[{"internalType":"uint256","name":"","type":"uint256"}],"name":"totalSingleStaked","outputs":[{"internalType":"uint256","name":"","type":"uint256"}],"stateMutability":"view","type":"function"},{"inputs":[{"internalType":"address","name":"newOwner","type":"address"}],"name":"transferOwnership","outputs":[],"stateMutability":"nonpayable","type":"function"},{"inputs":[{"internalType":"uint256","name":"_periodIndex","type":"uint256"}],"name":"unstakeSingle","outputs":[],"stateMutability":"nonpayable","type":"function"},{"inputs":[{"internalType":"uint256","name":"_dqAmount","type":"uint256"},{"internalType":"uint256","name":"_minOut","type":"uint256"}],"name":"withdrawDQ","outputs":[],"stateMutability":"nonpayable","type":"function"},{"stateMutability":"payable","type":"receive"}],"evm":{"bytecode":{"linkReferences":{},"object":"670de0b6b3a76400006005908155600d60065560506007908155678ac7230489e800006008819055600955680ad78ebc5ac6200000600a9081556213c680600b556101606040526000608090815260a09390935260c052600f60e052601461010052601961012052601e610140526200007b91600e916200035e565b506040805161010081018252601e815260786020820152610168918101919091526103e86060820152610fa0608082015261271060a0820152613a9860c082015261753060e0820152620000d4906015906008620003a6565b5060408051608081018252601e8152605a602082015260b49181019190915261016860608201526200010b906024906004620003dd565b506040805160808101825260058152600a6020820152600f91810191909152601460608201526200014190602590600462000420565b503480156200014f57600080fd5b5060405162007d6838038062007d68833981016040819052620001729162000495565b6200017d336200030e565b600180556040516200018f9062000462565b604051809103906000f080158015620001ac573d6000803e3d6000fd5b50600280546001600160a01b0319166001600160a01b0392909216919091179055604051620001db9062000470565b604051809103906000f080158015620001f8573d6000803e3d6000fd5b50600380546001600160a01b03199081166001600160a01b03938416179091556004805490911691831691909117905542600c819055600d556000601d81620002496000546001600160a01b031690565b6001600160a01b0390811682526020820192909252604001600090812080546001600160a01b03191693909216929092179055600190601d90620002956000546001600160a01b031690565b6001600160a01b031681526020810191909152604001600020600701805460ff1916911515919091179055601e620002d56000546001600160a01b031690565b81546001810183556000928352602090922090910180546001600160a01b0319166001600160a01b0390921691909117905550620004c7565b600080546001600160a01b038381166001600160a01b0319831681178455604051919092169283917f8be0079c531659141344cd1fd0a4f28419497f9722a3daafe3b4186f6b6457e09190a35050565b826007810192821562000394579160200282015b8281111562000394578251829060ff1690559160200191906001019062000372565b50620003a29291506200047e565b5090565b826008810192821562000394579160200282015b8281111562000394578251829061ffff16905591602001919060010190620003ba565b82805482825590600052602060002090810192821562000394579160200282018281111562000394578251829061ffff16905591602001919060010190620003ba565b82805482825590600052602060002090810192821562000394579160200282018281111562000394578251829060ff1690559160200191906001019062000372565b610e958062004cec83390190565b6121e78062005b8183390190565b5b80821115620003a257600081556001016200047f565b600060208284031215620004a857600080fd5b81516001600160a01b0381168114620004c057600080fd5b9392505050565b61481580620004d76000396000f3fe60806040526004361061043f5760003560e01c8063939c54fc11610234578063c85ea4ec1161012e578063e79d0860116100b6578063f13b874d1161007a578063f13b874d14610d29578063f1f16d0514610d49578063f2f0913014610d5f578063f2fde38b14610db6578063fb210b2014610dd657600080fd5b8063e79d086014610ca8578063edd47fe614610cbe578063ef57c74e14610cde578063f043369b14610cf4578063f0c9e87a14610d1457600080fd5b8063d33bce87116100fd578063d33bce8714610c25578063d789760e14610c3a578063d92721b514610c50578063de44391a14610c7d578063e4aa1efe14610c9257600080fd5b8063c85ea4ec14610ba7578063cee5e55314610bbd578063d02adc2a14610bdd578063d11c2d1d14610c0557600080fd5b8063a68cc6e3116101bc578063bb89209b11610180578063bb89209b14610b03578063bed9985014610b19578063bef58b4514610b2f578063c720009814610b4f578063c73bd86914610b8757600080fd5b8063a68cc6e314610a81578063ab2adc0014610a97578063ae2e933b14610aad578063b547836514610ac3578063b6b55f2514610ae357600080fd5b80639baa944d116102035780639baa944d146109f05780639d50880f14610a0c578063a065575b14610a2c578063a2bdedf414610a41578063a53f57bc14610a6157600080fd5b8063939c54fc1461099a57806396649b86146109b057806398d5fdca146109c657806399dc0025146109db57600080fd5b80634ae2b849116103455780636f9fb98a116102cd578063889abad611610291578063889abad6146108df5780638bc43ccf1461090c5780638c0f9aac1461092c5780638da5cb5b1461095c57806391b7f5ed1461097a57600080fd5b80636f9fb98a14610861578063715018a6146108745780637879b5ef1461088957806378e97925146108a95780637e7031fb146108bf57600080fd5b80635ae2afa4116103145780635ae2afa41461072f5780635c93919b14610744578063609a33a8146107595780636b7ae8dc1461076e5780636f77926b1461078e57600080fd5b80634ae2b849146106b35780634bf0d331146106c95780635525f3b2146106f9578063588ab80b1461071957600080fd5b8063297324a4116103c85780633737bcb4116103975780633737bcb41461061b57806341ecde49146106315780634420e4861461065e5780634529be261461067e57806345335b6d1461069357600080fd5b8063297324a4146105875780632c9a7ea61461059c5780633207313d146105b257806334eb8c431461060557600080fd5b806308bed0f01161040f57806308bed0f0146104e257806315914247146104f7578063191b0f84146105175780631c7c74f91461052c5780631cd3a4ac1461055957600080fd5b80620486291461044b578063015493b41461046d57806302a18ae51461048d57806307bc8840146104b557600080fd5b3661044657005b600080fd5b34801561045757600080fd5b5061046b610466366004614571565b610deb565b005b34801561047957600080fd5b5061046b6104883660046145af565b6111aa565b34801561049957600080fd5b506104a2600081565b6040519081526020015b60405180910390f35b3480156104c157600080fd5b506104a26104d03660046145af565b602c6020526000908152604090205481565b3480156104ee57600080fd5b5061046b611244565b34801561050357600080fd5b506104a26105123660046145ca565b6115dd565b34801561052357600080fd5b506104a261162f565b34801561053857600080fd5b506104a26105473660046145af565b60456020526000908152604090205481565b34801561056557600080fd5b5061056f61dead81565b6040516001600160a01b0390911681526020016104ac565b34801561059357600080fd5b506104a26116e0565b3480156105a857600080fd5b506104a260065481565b3480156105be57600080fd5b506105f06105cd3660046145af565b6001600160a01b03166000908152601f6020526040902080546001909101549091565b604080519283526020830191909152016104ac565b34801561061157600080fd5b506104a2600a5481565b34801561062757600080fd5b506104a260225481565b34801561063d57600080fd5b506104a261064c3660046145f4565b60266020526000908152604090205481565b34801561066a57600080fd5b5061046b6106793660046145af565b61175b565b34801561068a57600080fd5b5061046b6119e4565b34801561069f57600080fd5b506104a26106ae3660046145f4565b611a29565b3480156106bf57600080fd5b506104a2600b5481565b3480156106d557600080fd5b506106e96106e43660046145af565b611a40565b60405190151581526020016104ac565b34801561070557600080fd5b5061046b6107143660046145f4565b611a92565b34801561072557600080fd5b506104a2602d5481565b34801561073b57600080fd5b5061046b611bba565b34801561075057600080fd5b506104a2600a81565b34801561076557600080fd5b506104a2600581565b34801561077a57600080fd5b5060045461056f906001600160a01b031681565b34801561079a57600080fd5b5061080b6107a93660046145af565b6001600160a01b039081166000908152601d6020526040902080546001820154600283015460038401546004850154600586015460068701546007909701549590971697939660ff808516976101009095048116969395929491939192911690565b604080516001600160a01b03909a168a5260208a019890985260ff96871697890197909752949093166060870152608086019190915260a085015260c084015260e08301521515610100820152610120016104ac565b34801561086d57600080fd5b50476104a2565b34801561088057600080fd5b5061046b611ee2565b34801561089557600080fd5b506104a26108a43660046145f4565b611ef4565b3480156108b557600080fd5b506104a2600c5481565b3480156108cb57600080fd5b5061046b6108da3660046145f4565b611f04565b3480156108eb57600080fd5b506104a26108fa3660046145f4565b60276020526000908152604090205481565b34801561091857600080fd5b506104a26109273660046145f4565b6120c1565b34801561093857600080fd5b506106e96109473660046145af565b60296020526000908152604090205460ff1681565b34801561096857600080fd5b506000546001600160a01b031661056f565b34801561098657600080fd5b5061046b6109953660046145f4565b6120e2565b3480156109a657600080fd5b506104a260085481565b3480156109bc57600080fd5b506104a260465481565b3480156109d257600080fd5b506005546104a2565b3480156109e757600080fd5b5061046b612166565b3480156109fc57600080fd5b506104a2670de0b6b3a764000081565b348015610a1857600080fd5b506104a2610a273660046145f4565b612347565b348015610a3857600080fd5b506104a2601481565b348015610a4d57600080fd5b5061056f610a5c3660046145f4565b612357565b348015610a6d57600080fd5b5060035461056f906001600160a01b031681565b348015610a8d57600080fd5b506104a260055481565b348015610aa357600080fd5b506104a2602e5481565b348015610ab957600080fd5b506104a260305481565b348015610acf57600080fd5b506104a2610ade3660046145f4565b612381565b348015610aef57600080fd5b5061046b610afe3660046145f4565b612391565b348015610b0f57600080fd5b506104a260095481565b348015610b2557600080fd5b506104a260075481565b348015610b3b57600080fd5b506104a2610b4a3660046145f4565b612805565b348015610b5b57600080fd5b506104a2610b6a3660046145ca565b602360209081526000928352604080842090915290825290205481565b348015610b9357600080fd5b506104a2610ba23660046145f4565b612815565b348015610bb357600080fd5b506104a2600d5481565b348015610bc957600080fd5b506104a2610bd83660046145ca565b612825565b348015610be957600080fd5b5061056f73570a5d26f7765ecb712c0924e4de545b89fd43df81565b348015610c1157600080fd5b5061046b610c20366004614571565b61284a565b348015610c3157600080fd5b5061046b612ab7565b348015610c4657600080fd5b506104a260205481565b348015610c5c57600080fd5b506104a2610c6b3660046145af565b60476020526000908152604090205481565b348015610c8957600080fd5b5061046b612c46565b348015610c9e57600080fd5b506104a260215481565b348015610cb457600080fd5b506104a2602a5481565b348015610cca57600080fd5b5061046b610cd93660046145f4565b612da9565b348015610cea57600080fd5b506104a2602f5481565b348015610d0057600080fd5b5060025461056f906001600160a01b031681565b348015610d2057600080fd5b506104a2601e81565b348015610d3557600080fd5b5061056f610d443660046145f4565b61329b565b348015610d5557600080fd5b506104a2602b5481565b348015610d6b57600080fd5b50610d9b610d7a3660046145af565b601f6020526000908152604090208054600182015460029092015490919083565b604080519384526020840192909252908201526060016104ac565b348015610dc257600080fd5b5061046b610dd13660046145af565b6132ab565b348015610de257600080fd5b5061046b613321565b610df36133bb565b60008211610e3a5760405162461bcd60e51b815260206004820152600f60248201526e0616d6f756e74206d757374203e203608c1b60448201526064015b60405180910390fd5b6002546040516370a0823160e01b815233600482015283916001600160a01b0316906370a0823190602401602060405180830381865afa158015610e82573d6000803e3d6000fd5b505050506040513d601f19601f82011682018060405250810190610ea6919061460d565b1015610ee65760405162461bcd60e51b815260206004820152600f60248201526e696e73756666696369656e7420445160881b6044820152606401610e31565b6000670de0b6b3a764000060055484610eff919061463c565b610f099190614653565b905060006064610f1a83600661463c565b610f249190614653565b90506000610f328284614675565b905083811015610f785760405162461bcd60e51b81526020600482015260116024820152700e6d8d2e0e0c2ceca40e8dede40d0d2ced607b1b6044820152606401610e31565b6040516370a0823160e01b8152306004820152819073570a5d26f7765ecb712c0924e4de545b89fd43df906370a0823190602401602060405180830381865afa158015610fc9573d6000803e3d6000fd5b505050506040513d601f19601f82011682018060405250810190610fed919061460d565b10156110305760405162461bcd60e51b815260206004820152601260248201527134b739bab33334b1b4b2b73a103a37b5b2b760711b6044820152606401610e31565b600254604051630852cd8d60e31b8152600481018790526001600160a01b03909116906342966c6890602401600060405180830381600087803b15801561107657600080fd5b505af115801561108a573d6000803e3d6000fd5b505050506000606483603261109f919061463c565b6110a99190614653565b9050600060646110ba85603261463c565b6110c49190614653565b90506110cf82613414565b80602f60008282546110e19190614688565b909155505060405163a9059cbb60e01b815273570a5d26f7765ecb712c0924e4de545b89fd43df9063a9059cbb9061111f903390879060040161469b565b6020604051808303816000875af115801561113e573d6000803e3d6000fd5b505050506040513d601f19601f8201168201806040525081019061116291906146b4565b5060405183815233907f884edad9ce6fa2440d8a54cc123490eb96d2768479d49ff9c7366125a94243649060200160405180910390a250505050506111a660018055565b5050565b6111b2613451565b6001600160a01b0381166111fa5760405162461bcd60e51b815260206004820152600f60248201526e696e76616c6964206164647265737360881b6044820152606401610e31565b600480546001600160a01b0319166001600160a01b0383169081179091556040517fffcc1b307a30458349a19925c1146e13eb12c58b2f165c2fed220c294e81c75890600090a250565b61124c6133bb565b600d5461125c9062015180614688565b4210156112975760405162461bcd60e51b8152602060048201526009602482015268746f6f206561726c7960b81b6044820152606401610e31565b600254604080516318160ddd60e01b815290516000926001600160a01b0316916318160ddd9160048083019260209291908290030181865afa1580156112e1573d6000803e3d6000fd5b505050506040513d601f19601f82011682018060405250810190611305919061460d565b905060006103e86006548361131a919061463c565b6113249190614653565b90506000606460075483611338919061463c565b6113429190614653565b600254604051636e88838960e11b8152600481018390529192506001600160a01b03169063dd11071290602401600060405180830381600087803b15801561138957600080fd5b505af115801561139d573d6000803e3d6000fd5b50505050601e60075411156113d5576005600760008282546113bf9190614675565b9091555050600754601e11156113d557601e6007555b60006113e18284614675565b9050600060646113f283603c61463c565b6113fc9190614653565b90506000606461140d84600f61463c565b6114179190614653565b90506000606461142885600561463c565b6114329190614653565b90506000606461144386600661463c565b61144d9190614653565b90506000606461145e87600e61463c565b6114689190614653565b602054909150156114a6576020546114858664e8d4a5100061463c565b61148f9190614653565b604660008282546114a09190614688565b90915550505b6114af846134ab565b6005546000906114c785670de0b6b3a764000061463c565b6114d19190614653565b600254600480546040516340c10f1960e01b81529394506001600160a01b03928316936340c10f19936115099392169186910161469b565b600060405180830381600087803b15801561152357600080fd5b505af1158015611537573d6000803e3d6000fd5b505050506000602a54111561157957602a546115588464e8d4a5100061463c565b6115629190614653565b602b60008282546115739190614688565b90915550505b61158282613844565b42600d819055604080518b8152602081018b905280820192909252517f645f9de81bee922bd76dcb18c2d7a6a22ff51e3995781ee9f65134b284e774b79181900360600190a1505050505050505050506115db60018055565b565b6001600160a01b0382166000908152602360205260408120602480548391908590811061160c5761160c6146d6565b906000526020600020015481526020019081526020016000205490505b92915050565b600080600c54426116409190614675565b90506000600b54826116529190614653565b9050600281101561166d57670de0b6b3a76400009250505090565b60048110156116865767d02ab486cedc00009250505090565b60068110156116a0576801158e460913d000009250505090565b6009546000906116b1600484614675565b6116bb919061463c565b6008546116c89190614688565b9050600a548111156116d95750600a545b9392505050565b6040516370a0823160e01b815230600482015260009073570a5d26f7765ecb712c0924e4de545b89fd43df906370a0823190602401602060405180830381865afa158015611732573d6000803e3d6000fd5b505050506040513d601f19601f82011682018060405250810190611756919061460d565b905090565b6001600160a01b0381161580159061177c57506001600160a01b0381163314155b6117bb5760405162461bcd60e51b815260206004820152601060248201526f34b73b30b634b2103932b332b93932b960811b6044820152606401610e31565b336000908152601d60205260409020546001600160a01b0316156118165760405162461bcd60e51b8152602060048201526012602482015271185b1c9958591e481c9959da5cdd195c995960721b6044820152606401610e31565b6001600160a01b038181166000908152601d60205260409020541615158061184b57506000546001600160a01b038281169116145b6118975760405162461bcd60e51b815260206004820152601760248201527f7265666572726572206e6f7420726567697374657265640000000000000000006044820152606401610e31565b6001600160a01b0381166000908152601d602052604090206007015460ff166119025760405162461bcd60e51b815260206004820152601d60248201527f7265666572726572206d7573742068617665206e6f64652066697273740000006044820152606401610e31565b336000908152601d602052604080822080546001600160a01b0319166001600160a01b03851690811790915582528120600101805491611941836146ec565b90915550506001600160a01b0381166000908152601d6020526040902061196b90600801336138ea565b50601e805460018101825560009182527f50bb669a95c7b50b7e8a6f09454034b2b14cf2b85c730dca9a539ca82cb6e3500180546001600160a01b031916339081179091556040516001600160a01b038416927f98ada70a1cb506dc4591465e1ee9be3fd7a2b6c73ecf3b949009718c9a35151991a350565b6119ec613451565b600080546040516001600160a01b03909116914780156108fc02929091818181858888f19350505050158015611a26573d6000803e3d6000fd5b50565b603d8160088110611a3957600080fd5b0154905081565b6001600160a01b0381166000908152601d602052604081206007015460ff1680156116295750506001600160a01b039081166000908152601d6020526040808220549092168152206007015460ff1690565b611a9a613451565b6040516370a0823160e01b8152306004820152819073570a5d26f7765ecb712c0924e4de545b89fd43df906370a0823190602401602060405180830381865afa158015611aeb573d6000803e3d6000fd5b505050506040513d601f19601f82011682018060405250810190611b0f919061460d565b1015611b2d5760405162461bcd60e51b8152600401610e3190614705565b73570a5d26f7765ecb712c0924e4de545b89fd43df63a9059cbb611b596000546001600160a01b031690565b836040518363ffffffff1660e01b8152600401611b7792919061469b565b6020604051808303816000875af1158015611b96573d6000803e3d6000fd5b505050506040513d601f19601f820116820180604052508101906111a691906146b4565b611bc26133bb565b6003546040516370a0823160e01b815233600482015260009182916001600160a01b03909116906370a0823190602401602060405180830381865afa158015611c0f573d6000803e3d6000fd5b505050506040513d601f19601f82011682018060405250810190611c33919061460d565b905060005b81811015611df957600354604051632f745c5960e01b81526000916001600160a01b031690632f745c5990611c73903390869060040161469b565b602060405180830381865afa158015611c90573d6000803e3d6000fd5b505050506040513d601f19601f82011682018060405250810190611cb4919061460d565b60035460405163fcf49adf60e01b8152600481018390529192506000916001600160a01b039091169063fcf49adf90602401602060405180830381865afa158015611d03573d6000803e3d6000fd5b505050506040513d601f19601f82011682018060405250810190611d27919061460d565b90506000611d36600183614675565b336000908152603460205260408120919250908260038110611d5a57611d5a6146d6565b015464e8d4a5100060318460038110611d7557611d756146d6565b0154611d819190614653565b611d8b9190614675565b9050611d978188614688565b965064e8d4a5100060318360038110611db257611db26146d6565b0154611dbe9190614653565b3360009081526034602052604090208360038110611dde57611dde6146d6565b015550839250611df191508290506146ec565b915050611c38565b5060008211611e1a5760405162461bcd60e51b8152600401610e3190614733565b600554600090611e3284670de0b6b3a764000061463c565b611e3c9190614653565b6002546040516340c10f1960e01b81529192506001600160a01b0316906340c10f1990611e6f903390859060040161469b565b600060405180830381600087803b158015611e8957600080fd5b505af1158015611e9d573d6000803e3d6000fd5b50506040518581523392507f30f4e2ff758c62d61bb151d75a67e6e282c1536c30d83481c7f0855937d2eae5915060200160405180910390a25050506115db60018055565b611eea613451565b6115db60006138ff565b600e8160078110611a3957600080fd5b611f0c6133bb565b6024548110611f4e5760405162461bcd60e51b815260206004820152600e60248201526d1a5b9d985b1a59081c195c9a5bd960921b6044820152606401610e31565b600060248281548110611f6357611f636146d6565b600091825260208083209091015433835260238252604080842082855290925291205490915080611fc15760405162461bcd60e51b81526020600482015260086024820152676e6f207374616b6560c01b6044820152606401610e31565b611fcb338361394f565b3360009081526023602090815260408083208584528252808320839055602790915281208054839290611fff908490614675565b909155505060025460405163a9059cbb60e01b81526001600160a01b039091169063a9059cbb90612036903390859060040161469b565b6020604051808303816000875af1158015612055573d6000803e3d6000fd5b505050506040513d601f19601f8201168201806040525081019061207991906146b4565b50604080518281526020810184905233917fb16ead3739cac2505095af2275c1f8ade1fe8f49d2d24d0e56db2198c40de15291015b60405180910390a25050611a2660018055565b602581815481106120d157600080fd5b600091825260209091200154905081565b6120ea613451565b6000811161212b5760405162461bcd60e51b815260206004820152600e60248201526d07072696365206d757374203e20360941b6044820152606401610e31565b60058190556040518181527f66cbca4f3c64fecf1dcb9ce094abcf7f68c3450a1d4e3a8e917dd621edb4ebe09060200160405180910390a150565b61216e6133bb565b336000908152601d602052604090206002810154610100900460ff166121c35760405162461bcd60e51b815260206004820152600a6024820152691b9bc819081b195d995b60b21b6044820152606401610e31565b60028101546000906121df90600190610100900460ff16614757565b3360009081526045602052604081205460ff9290921692509064e8d4a51000603d8460088110612211576122116146d6565b015461221d9190614653565b6122279190614675565b9050600081116122495760405162461bcd60e51b8152600401610e3190614733565b64e8d4a51000603d8360088110612262576122626146d6565b015461226e9190614653565b3360009081526045602052604081209190915560055461229683670de0b6b3a764000061463c565b6122a09190614653565b6002546040516340c10f1960e01b81529192506001600160a01b0316906340c10f19906122d3903390859060040161469b565b600060405180830381600087803b1580156122ed57600080fd5b505af1158015612301573d6000803e3d6000fd5b50506040518481523392507f9c51ff96f57f0b34dfa1cbf09c2697e3f15ed11966aeb02dc5b7e2d95244596a915060200160405180910390a2505050506115db60018055565b602481815481106120d157600080fd5b601e818154811061236757600080fd5b6000918252602090912001546001600160a01b0316905081565b60358160088110611a3957600080fd5b6123996133bb565b336000908152601d602052604090206007015460ff166123f15760405162461bcd60e51b81526020600482015260136024820152721b5d5cdd08189d5e481b9bd91948199a5c9cdd606a1b6044820152606401610e31565b336000908152601d60205260409020546001600160a01b0316801561247b576001600160a01b0381166000908152601d602052604090206007015460ff1661247b5760405162461bcd60e51b815260206004820152601760248201527f7265666572726572206d7573742068617665206e6f64650000000000000000006044820152606401610e31565b670de0b6b3a76400008210156124c35760405162461bcd60e51b815260206004820152600d60248201526c62656c6f77206d696e696d756d60981b6044820152606401610e31565b6124cb61162f565b8211156125075760405162461bcd60e51b815260206004820152600a6024820152690caf0c6cacac840dac2f60b31b6044820152606401610e31565b6040516370a0823160e01b8152336004820152829073570a5d26f7765ecb712c0924e4de545b89fd43df906370a0823190602401602060405180830381865afa158015612558573d6000803e3d6000fd5b505050506040513d601f19601f8201168201806040525081019061257c919061460d565b101561259a5760405162461bcd60e51b8152600401610e3190614705565b6040516323b872dd60e01b81523360048201523060248201526044810183905273570a5d26f7765ecb712c0924e4de545b89fd43df906323b872dd906064016020604051808303816000875af11580156125f8573d6000803e3d6000fd5b505050506040513d601f19601f8201168201806040525081019061261c91906146b4565b5060055460009061263584670de0b6b3a764000061463c565b61263f9190614653565b90506000606461265085603261463c565b61265a9190614653565b90506000606461266b86603261463c565b6126759190614653565b905081602d60008282546126899190614688565b9250508190555080602260008282546126a29190614688565b9250508190555080602060008282546126bb9190614688565b9091555050336000908152601d60205260408120600381018054919288926126e4908490614688565b909155506126f5905086600661463c565b8160050160008282546127089190614688565b92505081905550858160060160008282546127239190614688565b9091555061273390503387613a2c565b61273d3384613a8d565b61274633613c2e565b61274f33613dd1565b61275833613f58565b6002546040516340c10f1960e01b81526001600160a01b03909116906340c10f199061278a903390889060040161469b565b600060405180830381600087803b1580156127a457600080fd5b505af11580156127b8573d6000803e3d6000fd5b505060408051898152602081018890523393507f90890809c654f11d6e72a28fa60149770a0d11ec6c92319d6ceb2bb0a4ea1a1592500160405180910390a25050505050611a2660018055565b60318160038110611a3957600080fd5b60158160088110611a3957600080fd5b6034602052816000526040600020816003811061284157600080fd5b01549150829050565b6128526133bb565b60245481106128945760405162461bcd60e51b815260206004820152600e60248201526d1a5b9d985b1a59081c195c9a5bd960921b6044820152606401610e31565b600082116128d65760405162461bcd60e51b815260206004820152600f60248201526e0616d6f756e74206d757374203e203608c1b6044820152606401610e31565b6002546040516370a0823160e01b815233600482015283916001600160a01b0316906370a0823190602401602060405180830381865afa15801561291e573d6000803e3d6000fd5b505050506040513d601f19601f82011682018060405250810190612942919061460d565b10156129825760405162461bcd60e51b815260206004820152600f60248201526e696e73756666696369656e7420445160881b6044820152606401610e31565b600060248281548110612997576129976146d6565b6000918252602090912001546002546040516323b872dd60e01b8152336004820152306024820152604481018690529192506001600160a01b0316906323b872dd906064016020604051808303816000875af11580156129fb573d6000803e3d6000fd5b505050506040513d601f19601f82011682018060405250810190612a1f91906146b4565b5033600090815260236020908152604080832084845290915281208054859290612a4a908490614688565b909155505060008181526027602052604081208054859290612a6d908490614688565b9091555050604080518481526020810183905233917fe02de4328f3659a0edc63aa323f742d444274e44a7c500f4ab23e33a3e449ca8910160405180910390a2506111a660018055565b612abf6133bb565b3360009081526029602052604090205460ff16612b0c5760405162461bcd60e51b815260206004820152600b60248201526a3737ba103830b93a3732b960a91b6044820152606401610e31565b336000908152602c6020526040812054602b54612b2f9064e8d4a5100090614653565b612b399190614675565b905060008111612b5b5760405162461bcd60e51b8152600401610e3190614733565b64e8d4a51000602b54612b6e9190614653565b336000908152602c6020526040812091909155600554612b9683670de0b6b3a764000061463c565b612ba09190614653565b6002546040516340c10f1960e01b81529192506001600160a01b0316906340c10f1990612bd3903390859060040161469b565b600060405180830381600087803b158015612bed57600080fd5b505af1158015612c01573d6000803e3d6000fd5b50506040518481523392507ffd2c9576db62dcc8dfb3ba4874d5a4449db744e9a548e446bb88becab1221a5891506020015b60405180910390a250506115db60018055565b612c4e6133bb565b336000908152601f6020526040812060028101546021549154909164e8d4a5100091612c7a919061463c565b612c849190614653565b612c8e9190614675565b905060008111612cb05760405162461bcd60e51b8152600401610e3190614733565b602154336000908152601f602052604090205464e8d4a5100091612cd39161463c565b612cdd9190614653565b336000908152601f6020526040812060020191909155600554612d0883670de0b6b3a764000061463c565b612d129190614653565b6002546040516340c10f1960e01b81529192506001600160a01b0316906340c10f1990612d45903390859060040161469b565b600060405180830381600087803b158015612d5f57600080fd5b505af1158015612d73573d6000803e3d6000fd5b50506040518481523392507f7436794b6cd88fe788cb3e86147cb3c7fce0762dc1fb3f3fc7129f4e050d87509150602001612c33565b612db16133bb565b60018110158015612dc3575060038111155b612dfe5760405162461bcd60e51b815260206004820152600c60248201526b696e76616c6964207479706560a01b6044820152606401610e31565b600354604051636866537d60e01b8152600481018390526000916001600160a01b031690636866537d90602401602060405180830381865afa158015612e48573d6000803e3d6000fd5b505050506040513d601f19601f82011682018060405250810190612e6c919061460d565b6040516370a0823160e01b8152336004820152909150819073570a5d26f7765ecb712c0924e4de545b89fd43df906370a0823190602401602060405180830381865afa158015612ec0573d6000803e3d6000fd5b505050506040513d601f19601f82011682018060405250810190612ee4919061460d565b1015612f025760405162461bcd60e51b8152600401610e3190614705565b6040516323b872dd60e01b81523360048201523060248201526044810182905273570a5d26f7765ecb712c0924e4de545b89fd43df906323b872dd906064016020604051808303816000875af1158015612f60573d6000803e3d6000fd5b505050506040513d601f19601f82011682018060405250810190612f8491906146b4565b50600354604051631aa1577160e11b81526001600160a01b0390911690633542aee290612fb7903390869060040161469b565b600060405180830381600087803b158015612fd157600080fd5b505af1158015612fe5573d6000803e3d6000fd5b5050336000908152601d60205260408120600701805460ff1916600117905560228054859450909250613019908490614688565b9250508190555080602060008282546130329190614688565b9091555050336000908152601d6020526040902060018314801561305f57506002810154600160ff909116105b1561309f5760028101805460ff1916600190811790915560405190815233906000805160206147c0833981519152906020015b60405180910390a261313d565b8260021480156130b5575060028181015460ff16105b156130e9576002818101805460ff19168217905560405190815233906000805160206147c083398151915290602001613092565b82600314801561310257506002810154600360ff909116105b1561313d5760028101805460ff1916600390811790915560405190815233906000805160206147c08339815191529060200160405180910390a25b80546001600160a01b031615801561316057506000546001600160a01b03163314155b156132635760008054338252601d602052604080832080546001600160a01b0319166001600160a01b039384161790558254909116825281206001018054916131a8836146ec565b91905055506131e933601d60006131c76000546001600160a01b031690565b6001600160a01b031681526020810191909152604001600020600801906138ea565b50601e805460018101825560009182527f50bb669a95c7b50b7e8a6f09454034b2b14cf2b85c730dca9a539ca82cb6e3500180546001600160a01b0319163390811790915581546040516001600160a01b03909116927f98ada70a1cb506dc4591465e1ee9be3fd7a2b6c73ecf3b949009718c9a35151991a35b604080518481526020810184905233917f281c1baf144ef6ff8337e881c1101a16e16aa99104c7f1fd2d63b6b8b2f81d7991016120ae565b6028818154811061236757600080fd5b6132b3613451565b6001600160a01b0381166133185760405162461bcd60e51b815260206004820152602660248201527f4f776e61626c653a206e6577206f776e657220697320746865207a65726f206160448201526564647265737360d01b6064820152608401610e31565b611a26816138ff565b613329613451565b602e5480158015906133ae57506040516370a0823160e01b8152306004820152819073570a5d26f7765ecb712c0924e4de545b89fd43df906370a0823190602401602060405180830381865afa158015613387573d6000803e3d6000fd5b505050506040513d601f19601f820116820180604052508101906133ab919061460d565b10155b15611a26576000602e5550565b60026001540361340d5760405162461bcd60e51b815260206004820152601f60248201527f5265656e7472616e637947756172643a207265656e7472616e742063616c6c006044820152606401610e31565b6002600155565b60205415611a265760205461342e8264e8d4a5100061463c565b6134389190614653565b602160008282546134499190614688565b909155505050565b6000546001600160a01b031633146115db5760405162461bcd60e51b815260206004820181905260248201527f4f776e61626c653a2063616c6c6572206973206e6f7420746865206f776e65726044820152606401610e31565b604080516060810180835260035463b629640b60e01b909152915160009282916001600160a01b039091169063b629640b906064808501916020918187030181865afa1580156134ff573d6000803e3d6000fd5b505050506040513d601f19601f82011682018060405250810190613523919061460d565b81526003546040805163193491b560e01b815290516020938401936001600160a01b039093169263193491b592600480820193918290030181865afa158015613570573d6000803e3d6000fd5b505050506040513d601f19601f82011682018060405250810190613594919061460d565b81526003546040805163d15dfe2d60e01b815290516020938401936001600160a01b039093169263d15dfe2d92600480820193918290030181865afa1580156135e1573d6000803e3d6000fd5b505050506040513d601f19601f82011682018060405250810190613605919061460d565b815250905060006040518060600160405280600360009054906101000a90046001600160a01b03166001600160a01b031663bc1e40236040518163ffffffff1660e01b8152600401602060405180830381865afa15801561366a573d6000803e3d6000fd5b505050506040513d601f19601f8201168201806040525081019061368e919061460d565b8152600354604080516320083b8960e01b815290516020938401936001600160a01b03909316926320083b8992600480820193918290030181865afa1580156136db573d6000803e3d6000fd5b505050506040513d601f19601f820116820180604052508101906136ff919061460d565b815260035460408051633c07aac960e21b815290516020938401936001600160a01b039093169263f01eab2492600480820193918290030181865afa15801561374c573d6000803e3d6000fd5b505050506040513d601f19601f82011682018060405250810190613770919061460d565b90529050600f60005b600381101561383d576000848260038110613796576137966146d6565b6020020151111561382b576000828483600381106137b6576137b66146d6565b60200201516137c5908861463c565b6137cf9190614653565b90508482600381106137e3576137e36146d6565b60200201516137f78264e8d4a5100061463c565b6138019190614653565b60318360038110613814576138146146d6565b0160008282546138249190614688565b9091555050505b80613835816146ec565b915050613779565b5050505050565b6000613851600883614653565b905060005b60088110156138e557600060358260088110613874576138746146d6565b015411156138d3576035816008811061388f5761388f6146d6565b01546138a08364e8d4a5100061463c565b6138aa9190614653565b603d82600881106138bd576138bd6146d6565b0160008282546138cd9190614688565b90915550505b806138dd816146ec565b915050613856565b505050565b60006116d9836001600160a01b038416614084565b600080546001600160a01b038381166001600160a01b0319831681178455604051919092169283917f8be0079c531659141344cd1fd0a4f28419497f9722a3daafe3b4186f6b6457e09190a35050565b6000818152602660209081526040808320546001600160a01b03861684526023835281842085855290925282205464e8d4a510009161398d9161463c565b6139979190614653565b905080156138e5576005546000906139b783670de0b6b3a764000061463c565b6139c19190614653565b6002546040516340c10f1960e01b81529192506001600160a01b0316906340c10f19906139f4908790859060040161469b565b600060405180830381600087803b158015613a0e57600080fd5b505af1158015613a22573d6000803e3d6000fd5b5050505050505050565b815b6001600160a01b038116156138e5576001600160a01b0381166000908152601d602052604081206004018054849290613a68908490614688565b90915550506001600160a01b039081166000908152601d602052604090205416613a2e565b60006064613a9c83601e61463c565b613aa69190614653565b905060006064613ab784600f61463c565b613ac19190614653565b905060006064613ad285601e61463c565b613adc9190614653565b905060006064613aed86600a61463c565b613af79190614653565b905060006064613b0887600761463c565b613b129190614653565b905060006064613b2388600861463c565b613b2d9190614653565b6001600160a01b03808a166000908152601d6020526040902054919250168015613bd5576001600160a01b0381166000908152601d60205260409020600501548711613ba4576001600160a01b0381166000908152601d602052604081206005018054899290613b9e908490614675565b90915550505b6001600160a01b0381166000908152601d602052604081206006018054899290613bcf908490614688565b90915550505b613bdf89876140d3565b613be9898661422f565b613bf38985614343565b82602e6000828254613c059190614688565b9250508190555081602f6000828254613c1e9190614688565b9091555050505050505050505050565b6001600160a01b0381166000908152601d60205260408120908080613c556008850161445f565b905060005b8151811015613cd5576000601d6000848481518110613c7b57613c7b6146d6565b60200260200101516001600160a01b03166001600160a01b0316815260200190815260200160002060040154905084811115613cb5578094505b613cbf8185614688565b9350508080613ccd906146ec565b915050613c5a565b506000613ce28484614675565b9050600069043c33c19375648000008210613cff57506006613d74565b69014542ba12a337c000008210613d1857506005613d74565b686c6b935b8bbd4000008210613d3057506004613d74565b682086ac3510526000008210613d4857506003613d74565b680ad78ebc5ac62000008210613d6057506002613d74565b68056bc75e2d631000008210613d74575060015b600286015460ff9081169082161115613dc85760028601805460ff191660ff83169081179091556040519081526001600160a01b038816906000805160206147c08339815191529060200160405180910390a25b50505050505050565b6001600160a01b0381166000908152601d6020526040812090613df38361446c565b90506000805b60088160ff161015613e4c5760158160ff1660088110613e1b57613e1b6146d6565b01548310613e3557613e2e816001614770565b9150613e3a565b613e4c565b80613e4481614789565b915050613df9565b50600283015460ff8281166101009092041614613f52576002830154610100900460ff1615613eb9576002830154603590613e9190600190610100900460ff16614757565b60ff1660088110613ea457613ea46146d6565b018054906000613eb3836147a8565b91905055505b60ff811615613ef7576035613ecf600183614757565b60ff1660088110613ee257613ee26146d6565b018054906000613ef1836146ec565b91905055505b60028301805461ff00191661010060ff8416908102919091179091556040519081526001600160a01b038516907feb7fc1b9c3df6b1bb3224f0a7f56e441755a790378c499a7584d55a4b70400149060200160405180910390a25b50505050565b6001600160a01b03811660009081526029602052604090205460ff1615613f7c5750565b6032602a5410613f895750565b6001600160a01b0381166000908152601d60205260409020600381015469010f0cf064dd5920000090811115613fbe57505050565b60006014602a5410613fda57690a968163f0a57b400000613fe6565b69065a4da25d3016c000005b69ffffffffffffffffffff16905080836006015410156140065750505050565b6001600160a01b0384166000818152602960205260408120805460ff1916600190811790915560288054918201815582527fe16da923a2d88192e5070f37b4571d58682c0d66212ec634d495f33de3f77ab50180546001600160a01b031916909217909155602a805491614079836146ec565b919050555050505050565b60008181526001830160205260408120546140cb57508154600181810184556000848152602080822090930184905584548482528286019093526040902091909155611629565b506000611629565b60006140e0600f83614653565b6001600160a01b038085166000908152601d60205260409020549192501660015b6001600160a01b0382161580159061411a5750600f8111155b156141fd576001600160a01b0382166000908152601d602052604081206001015461414690600361463c565b9050600f8111156141555750600f5b8082116141b4576001600160a01b0383166000908152601d602052604090206005015484116141af576001600160a01b0383166000908152601d6020526040812060050180548692906141a9908490614675565b90915550505b6141cc565b83602e60008282546141c69190614688565b90915550505b6001600160a01b039283166000908152601d602052604090205490921691816141f4816146ec565b92505050614101565b600f811161383d5782602e60008282546142179190614688565b90915550819050614227816146ec565b9150506141fd565b6001600160a01b038083166000908152601d6020526040812054909116905b6001600160a01b03821615613f52576001600160a01b0382166000908152601d602052604081206002015460ff1690600e8260078110614290576142906146d6565b015490508281111561431e5760006142a88483614675565b90506000601e6142b8838961463c565b6142c29190614653565b6001600160a01b0387166000908152601d60205260409020600501549091508111614318576001600160a01b0386166000908152601d602052604081206005018054839290614312908490614675565b90915550505b82945050505b50506001600160a01b039182166000908152601d60205260409020549091169061424e565b6001600160a01b038083166000908152601d6020526040812054909116905b6001600160a01b03821615613f52576001600160a01b0382166000908152601d602052604081206002015460ff1690600682106143a15750600a6143b0565b60038260ff16106143b0575060055b8281111561443a5760006143c48483614675565b90506000600a6143d4838961463c565b6143de9190614653565b6001600160a01b0387166000908152601d60205260409020600501549091508111614434576001600160a01b0386166000908152601d60205260408120600501805483929061442e908490614675565b90915550505b82945050505b50506001600160a01b039182166000908152601d602052604090205490911690614362565b606060006116d983614515565b6001600160a01b0381166000908152601d60205260408120819081906144949060080161445f565b905060005b815181101561450c576000601d60008484815181106144ba576144ba6146d6565b60200260200101516001600160a01b03166001600160a01b031681526020019081526020016000206003015411156144fa57826144f6816146ec565b9350505b80614504816146ec565b915050614499565b50909392505050565b60608160000180548060200260200160405190810160405280929190818152602001828054801561456557602002820191906000526020600020905b815481526020019060010190808311614551575b50505050509050919050565b6000806040838503121561458457600080fd5b50508035926020909101359150565b80356001600160a01b03811681146145aa57600080fd5b919050565b6000602082840312156145c157600080fd5b6116d982614593565b600080604083850312156145dd57600080fd5b6145e683614593565b946020939093013593505050565b60006020828403121561460657600080fd5b5035919050565b60006020828403121561461f57600080fd5b5051919050565b634e487b7160e01b600052601160045260246000fd5b808202811582820484141761162957611629614626565b60008261467057634e487b7160e01b600052601260045260246000fd5b500490565b8181038181111561162957611629614626565b8082018082111561162957611629614626565b6001600160a01b03929092168252602082015260400190565b6000602082840312156146c657600080fd5b815180151581146116d957600080fd5b634e487b7160e01b600052603260045260246000fd5b6000600182016146fe576146fe614626565b5060010190565b602080825260149082015273696e73756666696369656e742062616c616e636560601b604082015260600190565b6020808252600a90820152696e6f2070656e64696e6760b01b604082015260600190565b60ff828116828216039081111561162957611629614626565b60ff818116838216019081111561162957611629614626565b600060ff821660ff810361479f5761479f614626565b60010192915050565b6000816147b7576147b7614626565b50600019019056fea49b8576e012f713baa7dceadb7d709aaec8773b498ecfe582d8b9c0c8fd074fa2646970667358221220547ebdf2fa4bbaa258044471fde52b1fd7355a5a96ac8b8964fb4acaa10ed82b64736f6c6343000811003360806040523480156200001157600080fd5b50604051806040016040528060088152602001672228902a37b5b2b760c11b81525060405180604001604052806002815260200161445160f01b81525081600390816200005f919062000205565b5060046200006e828262000205565b50505062000090306c01431e0fae6d7217caa00000006200009660201b60201c565b620002f9565b6001600160a01b038216620000f15760405162461bcd60e51b815260206004820152601f60248201527f45524332303a206d696e7420746f20746865207a65726f206164647265737300604482015260640160405180910390fd5b8060026000828254620001059190620002d1565b90915550506001600160a01b038216600081815260208181526040808320805486019055518481527fddf252ad1be2c89b69c2b068fc378daa952ba7f163c4a11628f55a4df523b3ef910160405180910390a35050565b505050565b634e487b7160e01b600052604160045260246000fd5b600181811c908216806200018c57607f821691505b602082108103620001ad57634e487b7160e01b600052602260045260246000fd5b50919050565b601f8211156200015c57600081815260208120601f850160051c81016020861015620001dc5750805b601f850160051c820191505b81811015620001fd57828155600101620001e8565b505050505050565b81516001600160401b0381111562000221576200022162000161565b620002398162000232845462000177565b84620001b3565b602080601f831160018114620002715760008415620002585750858301515b600019600386901b1c1916600185901b178555620001fd565b600085815260208120601f198616915b82811015620002a25788860151825594840194600190910190840162000281565b5085821015620002c15787850151600019600388901b60f8161c191681555b5050505050600190811b01905550565b80820180821115620002f357634e487b7160e01b600052601160045260246000fd5b92915050565b610b8c80620003096000396000f3fe608060405234801561001057600080fd5b50600436106101005760003560e01c806342966c6811610097578063a9059cbb11610066578063a9059cbb1461021a578063dd1107121461022d578063dd62ed3e14610240578063fc8186841461025357600080fd5b806342966c68146101c357806370a08231146101d657806395d89b41146101ff578063a457c2d71461020757600080fd5b806323b872dd116100d357806323b872dd14610179578063313ce5671461018c578063395093511461019b57806340c10f19146101ae57600080fd5b806306fdde0314610105578063095ea7b31461012357806318160ddd146101465780631cd3a4ac14610158575b600080fd5b61010d610266565b60405161011a91906109bd565b60405180910390f35b610136610131366004610a27565b6102f8565b604051901515815260200161011a565b6002545b60405190815260200161011a565b61016161dead81565b6040516001600160a01b03909116815260200161011a565b610136610187366004610a51565b610312565b6040516012815260200161011a565b6101366101a9366004610a27565b610336565b6101c16101bc366004610a27565b610358565b005b6101c16101d1366004610a8d565b610366565b61014a6101e4366004610aa6565b6001600160a01b031660009081526020819052604090205490565b61010d610373565b610136610215366004610a27565b610382565b610136610228366004610a27565b610402565b6101c161023b366004610a8d565b610410565b61014a61024e366004610ac8565b61041d565b6101c1610261366004610a8d565b610448565b60606003805461027590610afb565b80601f01602080910402602001604051908101604052809291908181526020018280546102a190610afb565b80156102ee5780601f106102c3576101008083540402835291602001916102ee565b820191906000526020600020905b8154815290600101906020018083116102d157829003601f168201915b5050505050905090565b600033610306818585610491565b60019150505b92915050565b6000336103208582856105b6565b61032b858585610630565b506001949350505050565b600033610306818585610349838361041d565b6103539190610b35565b610491565b61036282826107d4565b5050565b6103703382610893565b50565b60606004805461027590610afb565b60003381610390828661041d565b9050838110156103f55760405162461bcd60e51b815260206004820152602560248201527f45524332303a2064656372656173656420616c6c6f77616e63652062656c6f77604482015264207a65726f60d81b60648201526084015b60405180910390fd5b61032b8286868403610491565b600033610306818585610630565b6103703361dead83610630565b6001600160a01b03918216600090815260016020908152604080832093909416825291909152205490565b3330146104875760405162461bcd60e51b815260206004820152600d60248201526c1bdb9b1e4818dbdb9d1c9858dd609a1b60448201526064016103ec565b6103703082610893565b6001600160a01b0383166104f35760405162461bcd60e51b8152602060048201526024808201527f45524332303a20617070726f76652066726f6d20746865207a65726f206164646044820152637265737360e01b60648201526084016103ec565b6001600160a01b0382166105545760405162461bcd60e51b815260206004820152602260248201527f45524332303a20617070726f766520746f20746865207a65726f206164647265604482015261737360f01b60648201526084016103ec565b6001600160a01b0383811660008181526001602090815260408083209487168084529482529182902085905590518481527f8c5be1e5ebec7d5bd14f71427d1e84f3dd0314c0f7b2291e5b200ac8c7c3b92591015b60405180910390a3505050565b60006105c2848461041d565b9050600019811461062a578181101561061d5760405162461bcd60e51b815260206004820152601d60248201527f45524332303a20696e73756666696369656e7420616c6c6f77616e636500000060448201526064016103ec565b61062a8484848403610491565b50505050565b6001600160a01b0383166106945760405162461bcd60e51b815260206004820152602560248201527f45524332303a207472616e736665722066726f6d20746865207a65726f206164604482015264647265737360d81b60648201526084016103ec565b6001600160a01b0382166106f65760405162461bcd60e51b815260206004820152602360248201527f45524332303a207472616e7366657220746f20746865207a65726f206164647260448201526265737360e81b60648201526084016103ec565b6001600160a01b0383166000908152602081905260409020548181101561076e5760405162461bcd60e51b815260206004820152602660248201527f45524332303a207472616e7366657220616d6f756e7420657863656564732062604482015265616c616e636560d01b60648201526084016103ec565b6001600160a01b03848116600081815260208181526040808320878703905593871680835291849020805487019055925185815290927fddf252ad1be2c89b69c2b068fc378daa952ba7f163c4a11628f55a4df523b3ef910160405180910390a361062a565b6001600160a01b03821661082a5760405162461bcd60e51b815260206004820152601f60248201527f45524332303a206d696e7420746f20746865207a65726f20616464726573730060448201526064016103ec565b806002600082825461083c9190610b35565b90915550506001600160a01b038216600081815260208181526040808320805486019055518481527fddf252ad1be2c89b69c2b068fc378daa952ba7f163c4a11628f55a4df523b3ef910160405180910390a35050565b6001600160a01b0382166108f35760405162461bcd60e51b815260206004820152602160248201527f45524332303a206275726e2066726f6d20746865207a65726f206164647265736044820152607360f81b60648201526084016103ec565b6001600160a01b038216600090815260208190526040902054818110156109675760405162461bcd60e51b815260206004820152602260248201527f45524332303a206275726e20616d6f756e7420657863656564732062616c616e604482015261636560f01b60648201526084016103ec565b6001600160a01b0383166000818152602081815260408083208686039055600280548790039055518581529192917fddf252ad1be2c89b69c2b068fc378daa952ba7f163c4a11628f55a4df523b3ef91016105a9565b600060208083528351808285015260005b818110156109ea578581018301518582016040015282016109ce565b506000604082860101526040601f19601f8301168501019250505092915050565b80356001600160a01b0381168114610a2257600080fd5b919050565b60008060408385031215610a3a57600080fd5b610a4383610a0b565b946020939093013593505050565b600080600060608486031215610a6657600080fd5b610a6f84610a0b565b9250610a7d60208501610a0b565b9150604084013590509250925092565b600060208284031215610a9f57600080fd5b5035919050565b600060208284031215610ab857600080fd5b610ac182610a0b565b9392505050565b60008060408385031215610adb57600080fd5b610ae483610a0b565b9150610af260208401610a0b565b90509250929050565b600181811c90821680610b0f57607f821691505b602082108103610b2f57634e487b7160e01b600052602260045260246000fd5b50919050565b8082018082111561030c57634e487b7160e01b600052601160045260246000fdfea2646970667358221220bebcd1a499859f874ad209620902597c04210e2dc96261a5539224d969b5052564736f6c6343000811003360806040523480156200001157600080fd5b506040518060400160405280600781526020016611144810d85c9960ca1b8152506040518060400160405280600381526020016244514360e81b81525081600090816200005f91906200018c565b5060016200006e82826200018c565b5050506200008b620000856200009160201b60201c565b62000095565b62000258565b3390565b600a80546001600160a01b038381166001600160a01b0319831681179093556040519116919082907f8be0079c531659141344cd1fd0a4f28419497f9722a3daafe3b4186f6b6457e090600090a35050565b634e487b7160e01b600052604160045260246000fd5b600181811c908216806200011257607f821691505b6020821081036200013357634e487b7160e01b600052602260045260246000fd5b50919050565b601f8211156200018757600081815260208120601f850160051c81016020861015620001625750805b601f850160051c820191505b8181101562000183578281556001016200016e565b5050505b505050565b81516001600160401b03811115620001a857620001a8620000e7565b620001c081620001b98454620000fd565b8462000139565b602080601f831160018114620001f85760008415620001df5750858301515b600019600386901b1c1916600185901b17855562000183565b600085815260208120601f198616915b82811015620002295788860151825594840194600190910190840162000208565b5085821015620002485787850151600019600388901b60f8161c191681555b5050505050600190811b01905550565b611f7f80620002686000396000f3fe608060405234801561001057600080fd5b50600436106102325760003560e01c80636866537d11610130578063b629640b116100b8578063e985e9c51161007c578063e985e9c514610455578063f01eab2414610491578063f26841bd14610499578063f2fde38b146104a1578063fcf49adf146104b457600080fd5b8063b629640b14610415578063b88d4fde1461041e578063bc1e402314610431578063c87b56dd14610439578063d15dfe2d1461044c57600080fd5b80638485391a116100ff5780638485391a146103cd5780638da5cb5b146103d6578063940e689d146103e757806395d89b41146103fa578063a22cb4651461040257600080fd5b80636866537d1461038e57806370a08231146103a1578063715018a6146103b457806373cda3e4146103bc57600080fd5b806320083b89116101be57806342842e0e1161018257806342842e0e1461033d5780634f6ccce71461035057806352b03c2f1461036357806353d794471461036b5780636352211e1461037b57600080fd5b806320083b89146102f357806323b872dd146102fb5780632f745c591461030e5780633542aee214610321578063396984151461033457600080fd5b806313eeea081161020557806313eeea08146102b457806315ad6f61146102d257806318160ddd146102da57806318a8ac77146102e2578063193491b5146102ea57600080fd5b806301ffc9a71461023757806306fdde031461025f578063081812fc14610274578063095ea7b31461029f575b600080fd5b61024a610245366004611a35565b6104d4565b60405190151581526020015b60405180910390f35b6102676104ff565b6040516102569190611aa2565b610287610282366004611ab5565b610591565b6040516001600160a01b039091168152602001610256565b6102b26102ad366004611aea565b6105b8565b005b6102c4681b1ae4d6e2ef50000081565b604051908152602001610256565b6102c4600281565b6008546102c4565b6102c4600381565b6102c4600c5481565b6102c4600581565b6102b2610309366004611b14565b6106d2565b6102c461031c366004611aea565b610703565b6102b261032f366004611aea565b610799565b6102c46103e881565b6102b261034b366004611b14565b6107af565b6102c461035e366004611ab5565b6107ca565b6102c4600181565b6102c4685150ae84a8cdf0000081565b610287610389366004611ab5565b61085d565b6102c461039c366004611ab5565b6108bd565b6102c46103af366004611b50565b610900565b6102b2610986565b6102c469010f0cf064dd5920000081565b6102c46101f481565b600a546001600160a01b0316610287565b6102c46103f5366004611ab5565b61099a565b6102676109c4565b6102b2610410366004611b6b565b6109d3565b6102c4600b5481565b6102b261042c366004611bbd565b6109de565b6102c4600481565b610267610447366004611ab5565b610a16565b6102c4600d5481565b61024a610463366004611c99565b6001600160a01b03918216600090815260056020908152604080832093909416825291909152205460ff1690565b6102c4600681565b6102c4606481565b6102b26104af366004611b50565b610a8a565b6102c46104c2366004611ab5565b600e6020526000908152604090205481565b60006001600160e01b0319821663780e9d6360e01b14806104f957506104f982610b03565b92915050565b60606000805461050e90611ccc565b80601f016020809104026020016040519081016040528092919081815260200182805461053a90611ccc565b80156105875780601f1061055c57610100808354040283529160200191610587565b820191906000526020600020905b81548152906001019060200180831161056a57829003601f168201915b5050505050905090565b600061059c82610b53565b506000908152600460205260409020546001600160a01b031690565b60006105c38261085d565b9050806001600160a01b0316836001600160a01b0316036106355760405162461bcd60e51b815260206004820152602160248201527f4552433732313a20617070726f76616c20746f2063757272656e74206f776e656044820152603960f91b60648201526084015b60405180910390fd5b336001600160a01b038216148061065157506106518133610463565b6106c35760405162461bcd60e51b815260206004820152603d60248201527f4552433732313a20617070726f76652063616c6c6572206973206e6f7420746f60448201527f6b656e206f776e6572206f7220617070726f76656420666f7220616c6c000000606482015260840161062c565b6106cd8383610bb2565b505050565b6106dc3382610c20565b6106f85760405162461bcd60e51b815260040161062c90611d06565b6106cd838383610c9f565b600061070e83610900565b82106107705760405162461bcd60e51b815260206004820152602b60248201527f455243373231456e756d657261626c653a206f776e657220696e646578206f7560448201526a74206f6620626f756e647360a81b606482015260840161062c565b506001600160a01b03919091166000908152600660209081526040808320938352929052205490565b6107a1610e10565b6107ab8282610e6a565b5050565b6106cd838383604051806020016040528060008152506109de565b60006107d560085490565b82106108385760405162461bcd60e51b815260206004820152602c60248201527f455243373231456e756d657261626c653a20676c6f62616c20696e646578206f60448201526b7574206f6620626f756e647360a01b606482015260840161062c565b6008828154811061084b5761084b611d53565b90600052602060002001549050919050565b6000818152600260205260408120546001600160a01b0316806104f95760405162461bcd60e51b8152602060048201526018602482015277115490cdcc8c4e881a5b9d985b1a59081d1bdad95b88125160421b604482015260640161062c565b6000600182036108d75750681b1ae4d6e2ef500000919050565b600282036108ef5750685150ae84a8cdf00000919050565b5069010f0cf064dd59200000919050565b60006001600160a01b03821661096a5760405162461bcd60e51b815260206004820152602960248201527f4552433732313a2061646472657373207a65726f206973206e6f7420612076616044820152683634b21037bbb732b960b91b606482015260840161062c565b506001600160a01b031660009081526003602052604090205490565b61098e610e10565b6109986000611019565b565b6000600182036109ac57506004919050565b600282036109bc57506005919050565b506006919050565b60606001805461050e90611ccc565b6107ab33838361106b565b6109e83383610c20565b610a045760405162461bcd60e51b815260040161062c90611d06565b610a1084848484611139565b50505050565b6060610a2182610b53565b6000610a3860408051602081019091526000815290565b90506000815111610a585760405180602001604052806000815250610a83565b80610a628461116c565b604051602001610a73929190611d69565b6040516020818303038152906040525b9392505050565b610a92610e10565b6001600160a01b038116610af75760405162461bcd60e51b815260206004820152602660248201527f4f776e61626c653a206e6577206f776e657220697320746865207a65726f206160448201526564647265737360d01b606482015260840161062c565b610b0081611019565b50565b60006001600160e01b031982166380ac58cd60e01b1480610b3457506001600160e01b03198216635b5e139f60e01b145b806104f957506301ffc9a760e01b6001600160e01b03198316146104f9565b6000818152600260205260409020546001600160a01b0316610b005760405162461bcd60e51b8152602060048201526018602482015277115490cdcc8c4e881a5b9d985b1a59081d1bdad95b88125160421b604482015260640161062c565b600081815260046020526040902080546001600160a01b0319166001600160a01b0384169081179091558190610be78261085d565b6001600160a01b03167f8c5be1e5ebec7d5bd14f71427d1e84f3dd0314c0f7b2291e5b200ac8c7c3b92560405160405180910390a45050565b600080610c2c8361085d565b9050806001600160a01b0316846001600160a01b03161480610c7357506001600160a01b0380821660009081526005602090815260408083209388168352929052205460ff165b80610c975750836001600160a01b0316610c8c84610591565b6001600160a01b0316145b949350505050565b826001600160a01b0316610cb28261085d565b6001600160a01b031614610cd85760405162461bcd60e51b815260040161062c90611d98565b6001600160a01b038216610d3a5760405162461bcd60e51b8152602060048201526024808201527f4552433732313a207472616e7366657220746f20746865207a65726f206164646044820152637265737360e01b606482015260840161062c565b610d4783838360016111ff565b826001600160a01b0316610d5a8261085d565b6001600160a01b031614610d805760405162461bcd60e51b815260040161062c90611d98565b600081815260046020908152604080832080546001600160a01b03199081169091556001600160a01b0387811680865260038552838620805460001901905590871680865283862080546001019055868652600290945282852080549092168417909155905184937fddf252ad1be2c89b69c2b068fc378daa952ba7f163c4a11628f55a4df523b3ef91a4505050565b600a546001600160a01b031633146109985760405162461bcd60e51b815260206004820181905260248201527f4f776e61626c653a2063616c6c6572206973206e6f7420746865206f776e6572604482015260640161062c565b60018110158015610e7c575060038111155b610eb75760405162461bcd60e51b815260206004820152600c60248201526b696e76616c6964207479706560a01b604482015260640161062c565b60018103610f19576103e8600b5410610eff5760405162461bcd60e51b815260206004820152600a60248201526910481cdbdb19081bdd5d60b21b604482015260640161062c565b600b8054906000610f0f83611df3565b9190505550610fc6565b60028103610f71576101f4600c5410610f615760405162461bcd60e51b815260206004820152600a60248201526910881cdbdb19081bdd5d60b21b604482015260640161062c565b600c8054906000610f0f83611df3565b6064600d5410610fb05760405162461bcd60e51b815260206004820152600a60248201526910c81cdbdb19081bdd5d60b21b604482015260640161062c565b600d8054906000610fc083611df3565b91905055505b6000610fd160085490565b610fdc906001611e0c565b9050610fe88382611297565b6000818152600e602090815260408083208590556001600160a01b0386168352600f9091529020610a1090826112b1565b600a80546001600160a01b038381166001600160a01b0319831681179093556040519116919082907f8be0079c531659141344cd1fd0a4f28419497f9722a3daafe3b4186f6b6457e090600090a35050565b816001600160a01b0316836001600160a01b0316036110cc5760405162461bcd60e51b815260206004820152601960248201527f4552433732313a20617070726f766520746f2063616c6c657200000000000000604482015260640161062c565b6001600160a01b03838116600081815260056020908152604080832094871680845294825291829020805460ff191686151590811790915591519182527f17307eab39ab6107e8899845ad3d59bd9653f200f220920489ca2b5937696c31910160405180910390a3505050565b611144848484610c9f565b611150848484846112bd565b610a105760405162461bcd60e51b815260040161062c90611e1f565b60606000611179836113be565b600101905060008167ffffffffffffffff81111561119957611199611ba7565b6040519080825280601f01601f1916602001820160405280156111c3576020820181803683370190505b5090508181016020015b600019016f181899199a1a9b1b9c1cb0b131b232b360811b600a86061a8153600a85049450846111cd57509392505050565b61120b84848484611496565b600181111561122c5760405162461bcd60e51b815260040161062c90611e71565b6001600160a01b0384161561125f576001600160a01b0384166000908152600f6020526040902061125d9083611575565b505b6001600160a01b03831615610a10576001600160a01b0383166000908152600f6020526040902061129090836112b1565b5050505050565b6107ab828260405180602001604052806000815250611581565b6000610a8383836115b4565b60006001600160a01b0384163b156113b357604051630a85bd0160e11b81526001600160a01b0385169063150b7a0290611301903390899088908890600401611ec6565b6020604051808303816000875af192505050801561133c575060408051601f3d908101601f1916820190925261133991810190611f03565b60015b611399573d80801561136a576040519150601f19603f3d011682016040523d82523d6000602084013e61136f565b606091505b5080516000036113915760405162461bcd60e51b815260040161062c90611e1f565b805181602001fd5b6001600160e01b031916630a85bd0160e11b149050610c97565b506001949350505050565b60008072184f03e93ff9f4daa797ed6e38ed64bf6a1f0160401b83106113fd5772184f03e93ff9f4daa797ed6e38ed64bf6a1f0160401b830492506040015b6d04ee2d6d415b85acef81000000008310611429576d04ee2d6d415b85acef8100000000830492506020015b662386f26fc10000831061144757662386f26fc10000830492506010015b6305f5e100831061145f576305f5e100830492506008015b612710831061147357612710830492506004015b60648310611485576064830492506002015b600a83106104f95760010192915050565b60018111156114b75760405162461bcd60e51b815260040161062c90611e71565b816001600160a01b0385166115135761150e81600880546000838152600960205260408120829055600182018355919091527ff3f7a9fe364faab93b216da50a3214154f22a0a2b415b23a84c8169e8b636ee30155565b611536565b836001600160a01b0316856001600160a01b031614611536576115368582611603565b6001600160a01b0384166115525761154d816116a0565b611290565b846001600160a01b0316846001600160a01b03161461129057611290848261174f565b6000610a838383611793565b61158b8383611886565b61159860008484846112bd565b6106cd5760405162461bcd60e51b815260040161062c90611e1f565b60008181526001830160205260408120546115fb575081546001818101845560008481526020808220909301849055845484825282860190935260409020919091556104f9565b5060006104f9565b6000600161161084610900565b61161a9190611f20565b60008381526007602052604090205490915080821461166d576001600160a01b03841660009081526006602090815260408083208584528252808320548484528184208190558352600790915290208190555b5060009182526007602090815260408084208490556001600160a01b039094168352600681528383209183525290812055565b6008546000906116b290600190611f20565b600083815260096020526040812054600880549394509092849081106116da576116da611d53565b9060005260206000200154905080600883815481106116fb576116fb611d53565b600091825260208083209091019290925582815260099091526040808220849055858252812055600880548061173357611733611f33565b6001900381819060005260206000200160009055905550505050565b600061175a83610900565b6001600160a01b039093166000908152600660209081526040808320868452825280832085905593825260079052919091209190915550565b6000818152600183016020526040812054801561187c5760006117b7600183611f20565b85549091506000906117cb90600190611f20565b90508181146118305760008660000182815481106117eb576117eb611d53565b906000526020600020015490508087600001848154811061180e5761180e611d53565b6000918252602080832090910192909255918252600188019052604090208390555b855486908061184157611841611f33565b6001900381819060005260206000200160009055905585600101600086815260200190815260200160002060009055600193505050506104f9565b60009150506104f9565b6001600160a01b0382166118dc5760405162461bcd60e51b815260206004820181905260248201527f4552433732313a206d696e7420746f20746865207a65726f2061646472657373604482015260640161062c565b6000818152600260205260409020546001600160a01b0316156119415760405162461bcd60e51b815260206004820152601c60248201527f4552433732313a20746f6b656e20616c7265616479206d696e74656400000000604482015260640161062c565b61194f6000838360016111ff565b6000818152600260205260409020546001600160a01b0316156119b45760405162461bcd60e51b815260206004820152601c60248201527f4552433732313a20746f6b656e20616c7265616479206d696e74656400000000604482015260640161062c565b6001600160a01b038216600081815260036020908152604080832080546001019055848352600290915280822080546001600160a01b0319168417905551839291907fddf252ad1be2c89b69c2b068fc378daa952ba7f163c4a11628f55a4df523b3ef908290a45050565b6001600160e01b031981168114610b0057600080fd5b600060208284031215611a4757600080fd5b8135610a8381611a1f565b60005b83811015611a6d578181015183820152602001611a55565b50506000910152565b60008151808452611a8e816020860160208601611a52565b601f01601f19169290920160200192915050565b602081526000610a836020830184611a76565b600060208284031215611ac757600080fd5b5035919050565b80356001600160a01b0381168114611ae557600080fd5b919050565b60008060408385031215611afd57600080fd5b611b0683611ace565b946020939093013593505050565b600080600060608486031215611b2957600080fd5b611b3284611ace565b9250611b4060208501611ace565b9150604084013590509250925092565b600060208284031215611b6257600080fd5b610a8382611ace565b60008060408385031215611b7e57600080fd5b611b8783611ace565b915060208301358015158114611b9c57600080fd5b809150509250929050565b634e487b7160e01b600052604160045260246000fd5b60008060008060808587031215611bd357600080fd5b611bdc85611ace565b9350611bea60208601611ace565b925060408501359150606085013567ffffffffffffffff80821115611c0e57600080fd5b818701915087601f830112611c2257600080fd5b813581811115611c3457611c34611ba7565b604051601f8201601f19908116603f01168101908382118183101715611c5c57611c5c611ba7565b816040528281528a6020848701011115611c7557600080fd5b82602086016020830137600060208483010152809550505050505092959194509250565b60008060408385031215611cac57600080fd5b611cb583611ace565b9150611cc360208401611ace565b90509250929050565b600181811c90821680611ce057607f821691505b602082108103611d0057634e487b7160e01b600052602260045260246000fd5b50919050565b6020808252602d908201527f4552433732313a2063616c6c6572206973206e6f7420746f6b656e206f776e6560408201526c1c881bdc88185c1c1c9bdd9959609a1b606082015260800190565b634e487b7160e01b600052603260045260246000fd5b60008351611d7b818460208801611a52565b835190830190611d8f818360208801611a52565b01949350505050565b60208082526025908201527f4552433732313a207472616e736665722066726f6d20696e636f72726563742060408201526437bbb732b960d91b606082015260800190565b634e487b7160e01b600052601160045260246000fd5b600060018201611e0557611e05611ddd565b5060010190565b808201808211156104f9576104f9611ddd565b60208082526032908201527f4552433732313a207472616e7366657220746f206e6f6e20455243373231526560408201527131b2b4bb32b91034b6b83632b6b2b73a32b960711b606082015260800190565b60208082526035908201527f455243373231456e756d657261626c653a20636f6e7365637574697665207472604082015274185b9cd9995c9cc81b9bdd081cdd5c1c1bdc9d1959605a1b606082015260800190565b6001600160a01b0385811682528416602082015260408101839052608060608201819052600090611ef990830184611a76565b9695505050505050565b600060208284031215611f1557600080fd5b8151610a8381611a1f565b818103818111156104f9576104f9611ddd565b634e487b7160e01b600052603160045260246000fdfea2646970667358221220bc1ffa10a4c9b5f8b17e4e43309a12f8455061f569ee1436aa616bb412db873264736f6c63430008110033","opcodes":"PUSH8 0xDE0B6B3A7640000 PUSH1 0x5 SWAP1 DUP2 SSTORE PUSH1 0xD PUSH1 0x6 SSTORE PUSH1 0x50 PUSH1 0x7 SWAP1 DUP2 SSTORE PUSH8 0x8AC7230489E80000 PUSH1 0x8 DUP2 SWAP1 SSTORE PUSH1 0x9 SSTORE PUSH9 0xAD78EBC5AC6200000 PUSH1 0xA SWAP1 DUP2 SSTORE PUSH3 0x13C680 PUSH1 0xB SSTORE PUSH2 0x160 PUSH1 0x40 MSTORE PUSH1 0x0 PUSH1 0x80 SWAP1 DUP2 MSTORE PUSH1 0xA0 SWAP4 SWAP1 SWAP4 MSTORE PUSH1 0xC0 MSTORE PUSH1 0xF PUSH1 0xE0 MSTORE PUSH1 0x14 PUSH2 0x100 MSTORE PUSH1 0x19 PUSH2 0x120 MSTORE PUSH1 0x1E PUSH2 0x140 MSTORE PUSH3 0x7B SWAP2 PUSH1 0xE SWAP2 PUSH3 0x35E JUMP JUMPDEST POP PUSH1 0x40 DUP1 MLOAD PUSH2 0x100 DUP2 ADD DUP3 MSTORE PUSH1 0x1E DUP2 MSTORE PUSH1 0x78 PUSH1 0x20 DUP3 ADD MSTORE PUSH2 0x168 SWAP2 DUP2 ADD SWAP2 SWAP1 SWAP2 MSTORE PUSH2 0x3E8 PUSH1 0x60 DUP3 ADD MSTORE PUSH2 0xFA0 PUSH1 0x80 DUP3 ADD MSTORE PUSH2 0x2710 PUSH1 0xA0 DUP3 ADD MSTORE PUSH2 0x3A98 PUSH1 0xC0 DUP3 ADD MSTORE PUSH2 0x7530 PUSH1 0xE0 DUP3 ADD MSTORE PUSH3 0xD4 SWAP1 PUSH1 0x15 SWAP1 PUSH1 0x8 PUSH3 0x3A6 JUMP JUMPDEST POP PUSH1 0x40 DUP1 MLOAD PUSH1 0x80 DUP2 ADD DUP3 MSTORE PUSH1 0x1E DUP2 MSTORE PUSH1 0x5A PUSH1 0x20 DUP3 ADD MSTORE PUSH1 0xB4 SWAP2 DUP2 ADD SWAP2 SWAP1 SWAP2 MSTORE PUSH2 0x168 PUSH1 0x60 DUP3 ADD MSTORE PUSH3 0x10B SWAP1 PUSH1 0x24 SWAP1 PUSH1 0x4 PUSH3 0x3DD JUMP JUMPDEST POP PUSH1 0x40 DUP1 MLOAD PUSH1 0x80 DUP2 ADD DUP3 MSTORE PUSH1 0x5 DUP2 MSTORE PUSH1 0xA PUSH1 0x20 DUP3 ADD MSTORE PUSH1 0xF SWAP2 DUP2 ADD SWAP2 SWAP1 SWAP2 MSTORE PUSH1 0x14 PUSH1 0x60 DUP3 ADD MSTORE PUSH3 0x141 SWAP1 PUSH1 0x25 SWAP1 PUSH1 0x4 PUSH3 0x420 JUMP JUMPDEST POP CALLVALUE DUP1 ISZERO PUSH3 0x14F JUMPI PUSH1 0x0 DUP1 REVERT JUMPDEST POP PUSH1 0x40 MLOAD PUSH3 0x7D68 CODESIZE SUB DUP1 PUSH3 0x7D68 DUP4 CODECOPY DUP2 ADD PUSH1 0x40 DUP2 SWAP1 MSTORE PUSH3 0x172 SWAP2 PUSH3 0x495 JUMP JUMPDEST PUSH3 0x17D CALLER PUSH3 0x30E JUMP JUMPDEST PUSH1 0x1 DUP1 SSTORE PUSH1 0x40 MLOAD PUSH3 0x18F SWAP1 PUSH3 0x462 JUMP JUMPDEST PUSH1 0x40 MLOAD DUP1 SWAP2 SUB SWAP1 PUSH1 0x0 CREATE DUP1 ISZERO DUP1 ISZERO PUSH3 0x1AC JUMPI RETURNDATASIZE PUSH1 0x0 DUP1 RETURNDATACOPY RETURNDATASIZE PUSH1 0x0 REVERT JUMPDEST POP PUSH1 0x2 DUP1 SLOAD PUSH1 0x1 PUSH1 0x1 PUSH1 0xA0 SHL SUB NOT AND PUSH1 0x1 PUSH1 0x1 PUSH1 0xA0 SHL SUB SWAP3 SWAP1 SWAP3 AND SWAP2 SWAP1 SWAP2 OR SWAP1 SSTORE PUSH1 0x40 MLOAD PUSH3 0x1DB SWAP1 PUSH3 0x470 JUMP JUMPDEST PUSH1 0x40 MLOAD DUP1 SWAP2 SUB SWAP1 PUSH1 0x0 CREATE DUP1 ISZERO DUP1 ISZERO PUSH3 0x1F8 JUMPI RETURNDATASIZE PUSH1 0x0 DUP1 RETURNDATACOPY RETURNDATASIZE PUSH1 0x0 REVERT JUMPDEST POP PUSH1 0x3 DUP1 SLOAD PUSH1 0x1 PUSH1 0x1 PUSH1 0xA0 SHL SUB NOT SWAP1 DUP2 AND PUSH1 0x1 PUSH1 0x1 PUSH1 0xA0 SHL SUB SWAP4 DUP5 AND OR SWAP1 SWAP2 SSTORE PUSH1 0x4 DUP1 SLOAD SWAP1 SWAP2 AND SWAP2 DUP4 AND SWAP2 SWAP1 SWAP2 OR SWAP1 SSTORE TIMESTAMP PUSH1 0xC DUP2 SWAP1 SSTORE PUSH1 0xD SSTORE PUSH1 0x0 PUSH1 0x1D DUP2 PUSH3 0x249 PUSH1 0x0 SLOAD PUSH1 0x1 PUSH1 0x1 PUSH1 0xA0 SHL SUB AND SWAP1 JUMP JUMPDEST PUSH1 0x1 PUSH1 0x1 PUSH1 0xA0 SHL SUB SWAP1 DUP2 AND DUP3 MSTORE PUSH1 0x20 DUP3 ADD SWAP3 SWAP1 SWAP3 MSTORE PUSH1 0x40 ADD PUSH1 0x0 SWAP1 DUP2 KECCAK256 DUP1 SLOAD PUSH1 0x1 PUSH1 0x1 PUSH1 0xA0 SHL SUB NOT AND SWAP4 SWAP1 SWAP3 AND SWAP3 SWAP1 SWAP3 OR SWAP1 SSTORE PUSH1 0x1 SWAP1 PUSH1 0x1D SWAP1 PUSH3 0x295 PUSH1 0x0 SLOAD PUSH1 0x1 PUSH1 0x1 PUSH1 0xA0 SHL SUB AND SWAP1 JUMP JUMPDEST PUSH1 0x1 PUSH1 0x1 PUSH1 0xA0 SHL SUB AND DUP2 MSTORE PUSH1 0x20 DUP2 ADD SWAP2 SWAP1 SWAP2 MSTORE PUSH1 0x40 ADD PUSH1 0x0 KECCAK256 PUSH1 0x7 ADD DUP1 SLOAD PUSH1 0xFF NOT AND SWAP2 ISZERO ISZERO SWAP2 SWAP1 SWAP2 OR SWAP1 SSTORE PUSH1 0x1E PUSH3 0x2D5 PUSH1 0x0 SLOAD PUSH1 0x1 PUSH1 0x1 PUSH1 0xA0 SHL SUB AND SWAP1 JUMP JUMPDEST DUP2 SLOAD PUSH1 0x1 DUP2 ADD DUP4 SSTORE PUSH1 0x0 SWAP3 DUP4 MSTORE PUSH1 0x20 SWAP1 SWAP3 KECCAK256 SWAP1 SWAP2 ADD DUP1 SLOAD PUSH1 0x1 PUSH1 0x1 PUSH1 0xA0 SHL SUB NOT AND PUSH1 0x1 PUSH1 0x1 PUSH1 0xA0 SHL SUB SWAP1 SWAP3 AND SWAP2 SWAP1 SWAP2 OR SWAP1 SSTORE POP PUSH3 0x4C7 JUMP JUMPDEST PUSH1 0x0 DUP1 SLOAD PUSH1 0x1 PUSH1 0x1 PUSH1 0xA0 SHL SUB DUP4 DUP2 AND PUSH1 0x1 PUSH1 0x1 PUSH1 0xA0 SHL SUB NOT DUP4 AND DUP2 OR DUP5 SSTORE PUSH1 0x40 MLOAD SWAP2 SWAP1 SWAP3 AND SWAP3 DUP4 SWAP2 PUSH32 0x8BE0079C531659141344CD1FD0A4F28419497F9722A3DAAFE3B4186F6B6457E0 SWAP2 SWAP1 LOG3 POP POP JUMP JUMPDEST DUP3 PUSH1 0x7 DUP2 ADD SWAP3 DUP3 ISZERO PUSH3 0x394 JUMPI SWAP2 PUSH1 0x20 MUL DUP3 ADD JUMPDEST DUP3 DUP2 GT ISZERO PUSH3 0x394 JUMPI DUP3 MLOAD DUP3 SWAP1 PUSH1 0xFF AND SWAP1 SSTORE SWAP2 PUSH1 0x20 ADD SWAP2 SWAP1 PUSH1 0x1 ADD SWAP1 PUSH3 0x372 JUMP JUMPDEST POP PUSH3 0x3A2 SWAP3 SWAP2 POP PUSH3 0x47E JUMP JUMPDEST POP SWAP1 JUMP JUMPDEST DUP3 PUSH1 0x8 DUP2 ADD SWAP3 DUP3 ISZERO PUSH3 0x394 JUMPI SWAP2 PUSH1 0x20 MUL DUP3 ADD JUMPDEST DUP3 DUP2 GT ISZERO PUSH3 0x394 JUMPI DUP3 MLOAD DUP3 SWAP1 PUSH2 0xFFFF AND SWAP1 SSTORE SWAP2 PUSH1 0x20 ADD SWAP2 SWAP1 PUSH1 0x1 ADD SWAP1 PUSH3 0x3BA JUMP JUMPDEST DUP3 DUP1 SLOAD DUP3 DUP3 SSTORE SWAP1 PUSH1 0x0 MSTORE PUSH1 0x20 PUSH1 0x0 KECCAK256 SWAP1 DUP2 ADD SWAP3 DUP3 ISZERO PUSH3 0x394 JUMPI SWAP2 PUSH1 0x20 MUL DUP3 ADD DUP3 DUP2 GT ISZERO PUSH3 0x394 JUMPI DUP3 MLOAD DUP3 SWAP1 PUSH2 0xFFFF AND SWAP1 SSTORE SWAP2 PUSH1 0x20 ADD SWAP2 SWAP1 PUSH1 0x1 ADD SWAP1 PUSH3 0x3BA JUMP JUMPDEST DUP3 DUP1 SLOAD DUP3 DUP3 SSTORE SWAP1 PUSH1 0x0 MSTORE PUSH1 0x20 PUSH1 0x0 KECCAK256 SWAP1 DUP2 ADD SWAP3 DUP3 ISZERO PUSH3 0x394 JUMPI SWAP2 PUSH1 0x20 MUL DUP3 ADD DUP3 DUP2 GT ISZERO PUSH3 0x394 JUMPI DUP3 MLOAD DUP3 SWAP1 PUSH1 0xFF AND SWAP1 SSTORE SWAP2 PUSH1 0x20 ADD SWAP2 SWAP1 PUSH1 0x1 ADD SWAP1 PUSH3 0x372 JUMP JUMPDEST PUSH2 0xE95 DUP1 PUSH3 0x4CEC DUP4 CODECOPY ADD SWAP1 JUMP JUMPDEST PUSH2 0x21E7 DUP1 PUSH3 0x5B81 DUP4 CODECOPY ADD SWAP1 JUMP JUMPDEST JUMPDEST DUP1 DUP3 GT ISZERO PUSH3 0x3A2 JUMPI PUSH1 0x0 DUP2 SSTORE PUSH1 0x1 ADD PUSH3 0x47F JUMP JUMPDEST PUSH1 0x0 PUSH1 0x20 DUP3 DUP5 SUB SLT ISZERO PUSH3 0x4A8 JUMPI PUSH1 0x0 DUP1 REVERT JUMPDEST DUP2 MLOAD PUSH1 0x1 PUSH1 0x1 PUSH1 0xA0 SHL SUB DUP2 AND DUP2 EQ PUSH3 0x4C0 JUMPI PUSH1 0x0 DUP1 REVERT JUMPDEST SWAP4 SWAP3 POP POP POP JUMP JUMPDEST PUSH2 0x4815 DUP1 PUSH3 0x4D7 PUSH1 0x0 CODECOPY PUSH1 0x0 RETURN INVALID PUSH1 0x80 PUSH1 0x40 MSTORE PUSH1 0x4 CALLDATASIZE LT PUSH2 0x43F JUMPI PUSH1 0x0 CALLDATALOAD PUSH1 0xE0 SHR DUP1 PUSH4 0x939C54FC GT PUSH2 0x234 JUMPI DUP1 PUSH4 0xC85EA4EC GT PUSH2 0x12E JUMPI DUP1 PUSH4 0xE79D0860 GT PUSH2 0xB6 JUMPI DUP1 PUSH4 0xF13B874D GT PUSH2 0x7A JUMPI DUP1 PUSH4 0xF13B874D EQ PUSH2 0xD29 JUMPI DUP1 PUSH4 0xF1F16D05 EQ PUSH2 0xD49 JUMPI DUP1 PUSH4 0xF2F09130 EQ PUSH2 0xD5F JUMPI DUP1 PUSH4 0xF2FDE38B EQ PUSH2 0xDB6 JUMPI DUP1 PUSH4 0xFB210B20 EQ PUSH2 0xDD6 JUMPI PUSH1 0x0 DUP1 REVERT JUMPDEST DUP1 PUSH4 0xE79D0860 EQ PUSH2 0xCA8 JUMPI DUP1 PUSH4 0xEDD47FE6 EQ PUSH2 0xCBE JUMPI DUP1 PUSH4 0xEF57C74E EQ PUSH2 0xCDE JUMPI DUP1 PUSH4 0xF043369B EQ PUSH2 0xCF4 JUMPI DUP1 PUSH4 0xF0C9E87A EQ PUSH2 0xD14 JUMPI PUSH1 0x0 DUP1 REVERT JUMPDEST DUP1 PUSH4 0xD33BCE87 GT PUSH2 0xFD JUMPI DUP1 PUSH4 0xD33BCE87 EQ PUSH2 0xC25 JUMPI DUP1 PUSH4 0xD789760E EQ PUSH2 0xC3A JUMPI DUP1 PUSH4 0xD92721B5 EQ PUSH2 0xC50 JUMPI DUP1 PUSH4 0xDE44391A EQ PUSH2 0xC7D JUMPI DUP1 PUSH4 0xE4AA1EFE EQ PUSH2 0xC92 JUMPI PUSH1 0x0 DUP1 REVERT JUMPDEST DUP1 PUSH4 0xC85EA4EC EQ PUSH2 0xBA7 JUMPI DUP1 PUSH4 0xCEE5E553 EQ PUSH2 0xBBD JUMPI DUP1 PUSH4 0xD02ADC2A EQ PUSH2 0xBDD JUMPI DUP1 PUSH4 0xD11C2D1D EQ PUSH2 0xC05 JUMPI PUSH1 0x0 DUP1 REVERT JUMPDEST DUP1 PUSH4 0xA68CC6E3 GT PUSH2 0x1BC JUMPI DUP1 PUSH4 0xBB89209B GT PUSH2 0x180 JUMPI DUP1 PUSH4 0xBB89209B EQ PUSH2 0xB03 JUMPI DUP1 PUSH4 0xBED99850 EQ PUSH2 0xB19 JUMPI DUP1 PUSH4 0xBEF58B45 EQ PUSH2 0xB2F JUMPI DUP1 PUSH4 0xC7200098 EQ PUSH2 0xB4F JUMPI DUP1 PUSH4 0xC73BD869 EQ PUSH2 0xB87 JUMPI PUSH1 0x0 DUP1 REVERT JUMPDEST DUP1 PUSH4 0xA68CC6E3 EQ PUSH2 0xA81 JUMPI DUP1 PUSH4 0xAB2ADC00 EQ PUSH2 0xA97 JUMPI DUP1 PUSH4 0xAE2E933B EQ PUSH2 0xAAD JUMPI DUP1 PUSH4 0xB5478365 EQ PUSH2 0xAC3 JUMPI DUP1 PUSH4 0xB6B55F25 EQ PUSH2 0xAE3 JUMPI PUSH1 0x0 DUP1 REVERT JUMPDEST DUP1 PUSH4 0x9BAA944D GT PUSH2 0x203 JUMPI DUP1 PUSH4 0x9BAA944D EQ PUSH2 0x9F0 JUMPI DUP1 PUSH4 0x9D50880F EQ PUSH2 0xA0C JUMPI DUP1 PUSH4 0xA065575B EQ PUSH2 0xA2C JUMPI DUP1 PUSH4 0xA2BDEDF4 EQ PUSH2 0xA41 JUMPI DUP1 PUSH4 0xA53F57BC EQ PUSH2 0xA61 JUMPI PUSH1 0x0 DUP1 REVERT JUMPDEST DUP1 PUSH4 0x939C54FC EQ PUSH2 0x99A JUMPI DUP1 PUSH4 0x96649B86 EQ PUSH2 0x9B0 JUMPI DUP1 PUSH4 0x98D5FDCA EQ PUSH2 0x9C6 JUMPI DUP1 PUSH4 0x99DC0025 EQ PUSH2 0x9DB JUMPI PUSH1 0x0 DUP1 REVERT JUMPDEST DUP1 PUSH4 0x4AE2B849 GT PUSH2 0x345 JUMPI DUP1 PUSH4 0x6F9FB98A GT PUSH2 0x2CD JUMPI DUP1 PUSH4 0x889ABAD6 GT PUSH2 0x291 JUMPI DUP1 PUSH4 0x889ABAD6 EQ PUSH2 0x8DF JUMPI DUP1 PUSH4 0x8BC43CCF EQ PUSH2 0x90C JUMPI DUP1 PUSH4 0x8C0F9AAC EQ PUSH2 0x92C JUMPI DUP1 PUSH4 0x8DA5CB5B EQ PUSH2 0x95C JUMPI DUP1 PUSH4 0x91B7F5ED EQ PUSH2 0x97A JUMPI PUSH1 0x0 DUP1 REVERT JUMPDEST DUP1 PUSH4 0x6F9FB98A EQ PUSH2 0x861 JUMPI DUP1 PUSH4 0x715018A6 EQ PUSH2 0x874 JUMPI DUP1 PUSH4 0x7879B5EF EQ PUSH2 0x889 JUMPI DUP1 PUSH4 0x78E97925 EQ PUSH2 0x8A9 JUMPI DUP1 PUSH4 0x7E7031FB EQ PUSH2 0x8BF JUMPI PUSH1 0x0 DUP1 REVERT JUMPDEST DUP1 PUSH4 0x5AE2AFA4 GT PUSH2 0x314 JUMPI DUP1 PUSH4 0x5AE2AFA4 EQ PUSH2 0x72F JUMPI DUP1 PUSH4 0x5C93919B EQ PUSH2 0x744 JUMPI DUP1 PUSH4 0x609A33A8 EQ PUSH2 0x759 JUMPI DUP1 PUSH4 0x6B7AE8DC EQ PUSH2 0x76E JUMPI DUP1 PUSH4 0x6F77926B EQ PUSH2 0x78E JUMPI PUSH1 0x0 DUP1 REVERT JUMPDEST DUP1 PUSH4 0x4AE2B849 EQ PUSH2 0x6B3 JUMPI DUP1 PUSH4 0x4BF0D331 EQ PUSH2 0x6C9 JUMPI DUP1 PUSH4 0x5525F3B2 EQ PUSH2 0x6F9 JUMPI DUP1 PUSH4 0x588AB80B EQ PUSH2 0x719 JUMPI PUSH1 0x0 DUP1 REVERT JUMPDEST DUP1 PUSH4 0x297324A4 GT PUSH2 0x3C8 JUMPI DUP1 PUSH4 0x3737BCB4 GT PUSH2 0x397 JUMPI DUP1 PUSH4 0x3737BCB4 EQ PUSH2 0x61B JUMPI DUP1 PUSH4 0x41ECDE49 EQ PUSH2 0x631 JUMPI DUP1 PUSH4 0x4420E486 EQ PUSH2 0x65E JUMPI DUP1 PUSH4 0x4529BE26 EQ PUSH2 0x67E JUMPI DUP1 PUSH4 0x45335B6D EQ PUSH2 0x693 JUMPI PUSH1 0x0 DUP1 REVERT JUMPDEST DUP1 PUSH4 0x297324A4 EQ PUSH2 0x587 JUMPI DUP1 PUSH4 0x2C9A7EA6 EQ PUSH2 0x59C JUMPI DUP1 PUSH4 0x3207313D EQ PUSH2 0x5B2 JUMPI DUP1 PUSH4 0x34EB8C43 EQ PUSH2 0x605 JUMPI PUSH1 0x0 DUP1 REVERT JUMPDEST DUP1 PUSH4 0x8BED0F0 GT PUSH2 0x40F JUMPI DUP1 PUSH4 0x8BED0F0 EQ PUSH2 0x4E2 JUMPI DUP1 PUSH4 0x15914247 EQ PUSH2 0x4F7 JUMPI DUP1 PUSH4 0x191B0F84 EQ PUSH2 0x517 JUMPI DUP1 PUSH4 0x1C7C74F9 EQ PUSH2 0x52C JUMPI DUP1 PUSH4 0x1CD3A4AC EQ PUSH2 0x559 JUMPI PUSH1 0x0 DUP1 REVERT JUMPDEST DUP1 PUSH3 0x48629 EQ PUSH2 0x44B JUMPI DUP1 PUSH4 0x15493B4 EQ PUSH2 0x46D JUMPI DUP1 PUSH4 0x2A18AE5 EQ PUSH2 0x48D JUMPI DUP1 PUSH4 0x7BC8840 EQ PUSH2 0x4B5 JUMPI PUSH1 0x0 DUP1 REVERT JUMPDEST CALLDATASIZE PUSH2 0x446 JUMPI STOP JUMPDEST PUSH1 0x0 DUP1 REVERT JUMPDEST CALLVALUE DUP1 ISZERO PUSH2 0x457 JUMPI PUSH1 0x0 DUP1 REVERT JUMPDEST POP PUSH2 0x46B PUSH2 0x466 CALLDATASIZE PUSH1 0x4 PUSH2 0x4571 JUMP JUMPDEST PUSH2 0xDEB JUMP JUMPDEST STOP JUMPDEST CALLVALUE DUP1 ISZERO PUSH2 0x479 JUMPI PUSH1 0x0 DUP1 REVERT JUMPDEST POP PUSH2 0x46B PUSH2 0x488 CALLDATASIZE PUSH1 0x4 PUSH2 0x45AF JUMP JUMPDEST PUSH2 0x11AA JUMP JUMPDEST CALLVALUE DUP1 ISZERO PUSH2 0x499 JUMPI PUSH1 0x0 DUP1 REVERT JUMPDEST POP PUSH2 0x4A2 PUSH1 0x0 DUP2 JUMP JUMPDEST PUSH1 0x40 MLOAD SWAP1 DUP2 MSTORE PUSH1 0x20 ADD JUMPDEST PUSH1 0x40 MLOAD DUP1 SWAP2 SUB SWAP1 RETURN JUMPDEST CALLVALUE DUP1 ISZERO PUSH2 0x4C1 JUMPI PUSH1 0x0 DUP1 REVERT JUMPDEST POP PUSH2 0x4A2 PUSH2 0x4D0 CALLDATASIZE PUSH1 0x4 PUSH2 0x45AF JUMP JUMPDEST PUSH1 0x2C PUSH1 0x20 MSTORE PUSH1 0x0 SWAP1 DUP2 MSTORE PUSH1 0x40 SWAP1 KECCAK256 SLOAD DUP2 JUMP JUMPDEST CALLVALUE DUP1 ISZERO PUSH2 0x4EE JUMPI PUSH1 0x0 DUP1 REVERT JUMPDEST POP PUSH2 0x46B PUSH2 0x1244 JUMP JUMPDEST CALLVALUE DUP1 ISZERO PUSH2 0x503 JUMPI PUSH1 0x0 DUP1 REVERT JUMPDEST POP PUSH2 0x4A2 PUSH2 0x512 CALLDATASIZE PUSH1 0x4 PUSH2 0x45CA JUMP JUMPDEST PUSH2 0x15DD JUMP JUMPDEST CALLVALUE DUP1 ISZERO PUSH2 0x523 JUMPI PUSH1 0x0 DUP1 REVERT JUMPDEST POP PUSH2 0x4A2 PUSH2 0x162F JUMP JUMPDEST CALLVALUE DUP1 ISZERO PUSH2 0x538 JUMPI PUSH1 0x0 DUP1 REVERT JUMPDEST POP PUSH2 0x4A2 PUSH2 0x547 CALLDATASIZE PUSH1 0x4 PUSH2 0x45AF JUMP JUMPDEST PUSH1 0x45 PUSH1 0x20 MSTORE PUSH1 0x0 SWAP1 DUP2 MSTORE PUSH1 0x40 SWAP1 KECCAK256 SLOAD DUP2 JUMP JUMPDEST CALLVALUE DUP1 ISZERO PUSH2 0x565 JUMPI PUSH1 0x0 DUP1 REVERT JUMPDEST POP PUSH2 0x56F PUSH2 0xDEAD DUP2 JUMP JUMPDEST PUSH1 0x40 MLOAD PUSH1 0x1 PUSH1 0x1 PUSH1 0xA0 SHL SUB SWAP1 SWAP2 AND DUP2 MSTORE PUSH1 0x20 ADD PUSH2 0x4AC JUMP JUMPDEST CALLVALUE DUP1 ISZERO PUSH2 0x593 JUMPI PUSH1 0x0 DUP1 REVERT JUMPDEST POP PUSH2 0x4A2 PUSH2 0x16E0 JUMP JUMPDEST CALLVALUE DUP1 ISZERO PUSH2 0x5A8 JUMPI PUSH1 0x0 DUP1 REVERT JUMPDEST POP PUSH2 0x4A2 PUSH1 0x6 SLOAD DUP2 JUMP JUMPDEST CALLVALUE DUP1 ISZERO PUSH2 0x5BE JUMPI PUSH1 0x0 DUP1 REVERT JUMPDEST POP PUSH2 0x5F0 PUSH2 0x5CD CALLDATASIZE PUSH1 0x4 PUSH2 0x45AF JUMP JUMPDEST PUSH1 0x1 PUSH1 0x1 PUSH1 0xA0 SHL SUB AND PUSH1 0x0 SWAP1 DUP2 MSTORE PUSH1 0x1F PUSH1 0x20 MSTORE PUSH1 0x40 SWAP1 KECCAK256 DUP1 SLOAD PUSH1 0x1 SWAP1 SWAP2 ADD SLOAD SWAP1 SWAP2 JUMP JUMPDEST PUSH1 0x40 DUP1 MLOAD SWAP3 DUP4 MSTORE PUSH1 0x20 DUP4 ADD SWAP2 SWAP1 SWAP2 MSTORE ADD PUSH2 0x4AC JUMP JUMPDEST CALLVALUE DUP1 ISZERO PUSH2 0x611 JUMPI PUSH1 0x0 DUP1 REVERT JUMPDEST POP PUSH2 0x4A2 PUSH1 0xA SLOAD DUP2 JUMP JUMPDEST CALLVALUE DUP1 ISZERO PUSH2 0x627 JUMPI PUSH1 0x0 DUP1 REVERT JUMPDEST POP PUSH2 0x4A2 PUSH1 0x22 SLOAD DUP2 JUMP JUMPDEST CALLVALUE DUP1 ISZERO PUSH2 0x63D JUMPI PUSH1 0x0 DUP1 REVERT JUMPDEST POP PUSH2 0x4A2 PUSH2 0x64C CALLDATASIZE PUSH1 0x4 PUSH2 0x45F4 JUMP JUMPDEST PUSH1 0x26 PUSH1 0x20 MSTORE PUSH1 0x0 SWAP1 DUP2 MSTORE PUSH1 0x40 SWAP1 KECCAK256 SLOAD DUP2 JUMP JUMPDEST CALLVALUE DUP1 ISZERO PUSH2 0x66A JUMPI PUSH1 0x0 DUP1 REVERT JUMPDEST POP PUSH2 0x46B PUSH2 0x679 CALLDATASIZE PUSH1 0x4 PUSH2 0x45AF JUMP JUMPDEST PUSH2 0x175B JUMP JUMPDEST CALLVALUE DUP1 ISZERO PUSH2 0x68A JUMPI PUSH1 0x0 DUP1 REVERT JUMPDEST POP PUSH2 0x46B PUSH2 0x19E4 JUMP JUMPDEST CALLVALUE DUP1 ISZERO PUSH2 0x69F JUMPI PUSH1 0x0 DUP1 REVERT JUMPDEST POP PUSH2 0x4A2 PUSH2 0x6AE CALLDATASIZE PUSH1 0x4 PUSH2 0x45F4 JUMP JUMPDEST PUSH2 0x1A29 JUMP JUMPDEST CALLVALUE DUP1 ISZERO PUSH2 0x6BF JUMPI PUSH1 0x0 DUP1 REVERT JUMPDEST POP PUSH2 0x4A2 PUSH1 0xB SLOAD DUP2 JUMP JUMPDEST CALLVALUE DUP1 ISZERO PUSH2 0x6D5 JUMPI PUSH1 0x0 DUP1 REVERT JUMPDEST POP PUSH2 0x6E9 PUSH2 0x6E4 CALLDATASIZE PUSH1 0x4 PUSH2 0x45AF JUMP JUMPDEST PUSH2 0x1A40 JUMP JUMPDEST PUSH1 0x40 MLOAD SWAP1 ISZERO ISZERO DUP2 MSTORE PUSH1 0x20 ADD PUSH2 0x4AC JUMP JUMPDEST CALLVALUE DUP1 ISZERO PUSH2 0x705 JUMPI PUSH1 0x0 DUP1 REVERT JUMPDEST POP PUSH2 0x46B PUSH2 0x714 CALLDATASIZE PUSH1 0x4 PUSH2 0x45F4 JUMP JUMPDEST PUSH2 0x1A92 JUMP JUMPDEST CALLVALUE DUP1 ISZERO PUSH2 0x725 JUMPI PUSH1 0x0 DUP1 REVERT JUMPDEST POP PUSH2 0x4A2 PUSH1 0x2D SLOAD DUP2 JUMP JUMPDEST CALLVALUE DUP1 ISZERO PUSH2 0x73B JUMPI PUSH1 0x0 DUP1 REVERT JUMPDEST POP PUSH2 0x46B PUSH2 0x1BBA JUMP JUMPDEST CALLVALUE DUP1 ISZERO PUSH2 0x750 JUMPI PUSH1 0x0 DUP1 REVERT JUMPDEST POP PUSH2 0x4A2 PUSH1 0xA DUP2 JUMP JUMPDEST CALLVALUE DUP1 ISZERO PUSH2 0x765 JUMPI PUSH1 0x0 DUP1 REVERT JUMPDEST POP PUSH2 0x4A2 PUSH1 0x5 DUP2 JUMP JUMPDEST CALLVALUE DUP1 ISZERO PUSH2 0x77A JUMPI PUSH1 0x0 DUP1 REVERT JUMPDEST POP PUSH1 0x4 SLOAD PUSH2 0x56F SWAP1 PUSH1 0x1 PUSH1 0x1 PUSH1 0xA0 SHL SUB AND DUP2 JUMP JUMPDEST CALLVALUE DUP1 ISZERO PUSH2 0x79A JUMPI PUSH1 0x0 DUP1 REVERT JUMPDEST POP PUSH2 0x80B PUSH2 0x7A9 CALLDATASIZE PUSH1 0x4 PUSH2 0x45AF JUMP JUMPDEST PUSH1 0x1 PUSH1 0x1 PUSH1 0xA0 SHL SUB SWAP1 DUP2 AND PUSH1 0x0 SWAP1 DUP2 MSTORE PUSH1 0x1D PUSH1 0x20 MSTORE PUSH1 0x40 SWAP1 KECCAK256 DUP1 SLOAD PUSH1 0x1 DUP3 ADD SLOAD PUSH1 0x2 DUP4 ADD SLOAD PUSH1 0x3 DUP5 ADD SLOAD PUSH1 0x4 DUP6 ADD SLOAD PUSH1 0x5 DUP7 ADD SLOAD PUSH1 0x6 DUP8 ADD SLOAD PUSH1 0x7 SWAP1 SWAP8 ADD SLOAD SWAP6 SWAP1 SWAP8 AND SWAP8 SWAP4 SWAP7 PUSH1 0xFF DUP1 DUP6 AND SWAP8 PUSH2 0x100 SWAP1 SWAP6 DIV DUP2 AND SWAP7 SWAP4 SWAP6 SWAP3 SWAP5 SWAP2 SWAP4 SWAP2 SWAP3 SWAP2 AND SWAP1 JUMP JUMPDEST PUSH1 0x40 DUP1 MLOAD PUSH1 0x1 PUSH1 0x1 PUSH1 0xA0 SHL SUB SWAP1 SWAP11 AND DUP11 MSTORE PUSH1 0x20 DUP11 ADD SWAP9 SWAP1 SWAP9 MSTORE PUSH1 0xFF SWAP7 DUP8 AND SWAP8 DUP10 ADD SWAP8 SWAP1 SWAP8 MSTORE SWAP5 SWAP1 SWAP4 AND PUSH1 0x60 DUP8 ADD MSTORE PUSH1 0x80 DUP7 ADD SWAP2 SWAP1 SWAP2 MSTORE PUSH1 0xA0 DUP6 ADD MSTORE PUSH1 0xC0 DUP5 ADD MSTORE PUSH1 0xE0 DUP4 ADD MSTORE ISZERO ISZERO PUSH2 0x100 DUP3 ADD MSTORE PUSH2 0x120 ADD PUSH2 0x4AC JUMP JUMPDEST CALLVALUE DUP1 ISZERO PUSH2 0x86D JUMPI PUSH1 0x0 DUP1 REVERT JUMPDEST POP SELFBALANCE PUSH2 0x4A2 JUMP JUMPDEST CALLVALUE DUP1 ISZERO PUSH2 0x880 JUMPI PUSH1 0x0 DUP1 REVERT JUMPDEST POP PUSH2 0x46B PUSH2 0x1EE2 JUMP JUMPDEST CALLVALUE DUP1 ISZERO PUSH2 0x895 JUMPI PUSH1 0x0 DUP1 REVERT JUMPDEST POP PUSH2 0x4A2 PUSH2 0x8A4 CALLDATASIZE PUSH1 0x4 PUSH2 0x45F4 JUMP JUMPDEST PUSH2 0x1EF4 JUMP JUMPDEST CALLVALUE DUP1 ISZERO PUSH2 0x8B5 JUMPI PUSH1 0x0 DUP1 REVERT JUMPDEST POP PUSH2 0x4A2 PUSH1 0xC SLOAD DUP2 JUMP JUMPDEST CALLVALUE DUP1 ISZERO PUSH2 0x8CB JUMPI PUSH1 0x0 DUP1 REVERT JUMPDEST POP PUSH2 0x46B PUSH2 0x8DA CALLDATASIZE PUSH1 0x4 PUSH2 0x45F4 JUMP JUMPDEST PUSH2 0x1F04 JUMP JUMPDEST CALLVALUE DUP1 ISZERO PUSH2 0x8EB JUMPI PUSH1 0x0 DUP1 REVERT JUMPDEST POP PUSH2 0x4A2 PUSH2 0x8FA CALLDATASIZE PUSH1 0x4 PUSH2 0x45F4 JUMP JUMPDEST PUSH1 0x27 PUSH1 0x20 MSTORE PUSH1 0x0 SWAP1 DUP2 MSTORE PUSH1 0x40 SWAP1 KECCAK256 SLOAD DUP2 JUMP JUMPDEST CALLVALUE DUP1 ISZERO PUSH2 0x918 JUMPI PUSH1 0x0 DUP1 REVERT JUMPDEST POP PUSH2 0x4A2 PUSH2 0x927 CALLDATASIZE PUSH1 0x4 PUSH2 0x45F4 JUMP JUMPDEST PUSH2 0x20C1 JUMP JUMPDEST CALLVALUE DUP1 ISZERO PUSH2 0x938 JUMPI PUSH1 0x0 DUP1 REVERT JUMPDEST POP PUSH2 0x6E9 PUSH2 0x947 CALLDATASIZE PUSH1 0x4 PUSH2 0x45AF JUMP JUMPDEST PUSH1 0x29 PUSH1 0x20 MSTORE PUSH1 0x0 SWAP1 DUP2 MSTORE PUSH1 0x40 SWAP1 KECCAK256 SLOAD PUSH1 0xFF AND DUP2 JUMP JUMPDEST CALLVALUE DUP1 ISZERO PUSH2 0x968 JUMPI PUSH1 0x0 DUP1 REVERT JUMPDEST POP PUSH1 0x0 SLOAD PUSH1 0x1 PUSH1 0x1 PUSH1 0xA0 SHL SUB AND PUSH2 0x56F JUMP JUMPDEST CALLVALUE DUP1 ISZERO PUSH2 0x986 JUMPI PUSH1 0x0 DUP1 REVERT JUMPDEST POP PUSH2 0x46B PUSH2 0x995 CALLDATASIZE PUSH1 0x4 PUSH2 0x45F4 JUMP JUMPDEST PUSH2 0x20E2 JUMP JUMPDEST CALLVALUE DUP1 ISZERO PUSH2 0x9A6 JUMPI PUSH1 0x0 DUP1 REVERT JUMPDEST POP PUSH2 0x4A2 PUSH1 0x8 SLOAD DUP2 JUMP JUMPDEST CALLVALUE DUP1 ISZERO PUSH2 0x9BC JUMPI PUSH1 0x0 DUP1 REVERT JUMPDEST POP PUSH2 0x4A2 PUSH1 0x46 SLOAD DUP2 JUMP JUMPDEST CALLVALUE DUP1 ISZERO PUSH2 0x9D2 JUMPI PUSH1 0x0 DUP1 REVERT JUMPDEST POP PUSH1 0x5 SLOAD PUSH2 0x4A2 JUMP JUMPDEST CALLVALUE DUP1 ISZERO PUSH2 0x9E7 JUMPI PUSH1 0x0 DUP1 REVERT JUMPDEST POP PUSH2 0x46B PUSH2 0x2166 JUMP JUMPDEST CALLVALUE DUP1 ISZERO PUSH2 0x9FC JUMPI PUSH1 0x0 DUP1 REVERT JUMPDEST POP PUSH2 0x4A2 PUSH8 0xDE0B6B3A7640000 DUP2 JUMP JUMPDEST CALLVALUE DUP1 ISZERO PUSH2 0xA18 JUMPI PUSH1 0x0 DUP1 REVERT JUMPDEST POP PUSH2 0x4A2 PUSH2 0xA27 CALLDATASIZE PUSH1 0x4 PUSH2 0x45F4 JUMP JUMPDEST PUSH2 0x2347 JUMP JUMPDEST CALLVALUE DUP1 ISZERO PUSH2 0xA38 JUMPI PUSH1 0x0 DUP1 REVERT JUMPDEST POP PUSH2 0x4A2 PUSH1 0x14 DUP2 JUMP JUMPDEST CALLVALUE DUP1 ISZERO PUSH2 0xA4D JUMPI PUSH1 0x0 DUP1 REVERT JUMPDEST POP PUSH2 0x56F PUSH2 0xA5C CALLDATASIZE PUSH1 0x4 PUSH2 0x45F4 JUMP JUMPDEST PUSH2 0x2357 JUMP JUMPDEST CALLVALUE DUP1 ISZERO PUSH2 0xA6D JUMPI PUSH1 0x0 DUP1 REVERT JUMPDEST POP PUSH1 0x3 SLOAD PUSH2 0x56F SWAP1 PUSH1 0x1 PUSH1 0x1 PUSH1 0xA0 SHL SUB AND DUP2 JUMP JUMPDEST CALLVALUE DUP1 ISZERO PUSH2 0xA8D JUMPI PUSH1 0x0 DUP1 REVERT JUMPDEST POP PUSH2 0x4A2 PUSH1 0x5 SLOAD DUP2 JUMP JUMPDEST CALLVALUE DUP1 ISZERO PUSH2 0xAA3 JUMPI PUSH1 0x0 DUP1 REVERT JUMPDEST POP PUSH2 0x4A2 PUSH1 0x2E SLOAD DUP2 JUMP JUMPDEST CALLVALUE DUP1 ISZERO PUSH2 0xAB9 JUMPI PUSH1 0x0 DUP1 REVERT JUMPDEST POP PUSH2 0x4A2 PUSH1 0x30 SLOAD DUP2 JUMP JUMPDEST CALLVALUE DUP1 ISZERO PUSH2 0xACF JUMPI PUSH1 0x0 DUP1 REVERT JUMPDEST POP PUSH2 0x4A2 PUSH2 0xADE CALLDATASIZE PUSH1 0x4 PUSH2 0x45F4 JUMP JUMPDEST PUSH2 0x2381 JUMP JUMPDEST CALLVALUE DUP1 ISZERO PUSH2 0xAEF JUMPI PUSH1 0x0 DUP1 REVERT JUMPDEST POP PUSH2 0x46B PUSH2 0xAFE CALLDATASIZE PUSH1 0x4 PUSH2 0x45F4 JUMP JUMPDEST PUSH2 0x2391 JUMP JUMPDEST CALLVALUE DUP1 ISZERO PUSH2 0xB0F JUMPI PUSH1 0x0 DUP1 REVERT JUMPDEST POP PUSH2 0x4A2 PUSH1 0x9 SLOAD DUP2 JUMP JUMPDEST CALLVALUE DUP1 ISZERO PUSH2 0xB25 JUMPI PUSH1 0x0 DUP1 REVERT JUMPDEST POP PUSH2 0x4A2 PUSH1 0x7 SLOAD DUP2 JUMP JUMPDEST CALLVALUE DUP1 ISZERO PUSH2 0xB3B JUMPI PUSH1 0x0 DUP1 REVERT JUMPDEST POP PUSH2 0x4A2 PUSH2 0xB4A CALLDATASIZE PUSH1 0x4 PUSH2 0x45F4 JUMP JUMPDEST PUSH2 0x2805 JUMP JUMPDEST CALLVALUE DUP1 ISZERO PUSH2 0xB5B JUMPI PUSH1 0x0 DUP1 REVERT JUMPDEST POP PUSH2 0x4A2 PUSH2 0xB6A CALLDATASIZE PUSH1 0x4 PUSH2 0x45CA JUMP JUMPDEST PUSH1 0x23 PUSH1 0x20 SWAP1 DUP2 MSTORE PUSH1 0x0 SWAP3 DUP4 MSTORE PUSH1 0x40 DUP1 DUP5 KECCAK256 SWAP1 SWAP2 MSTORE SWAP1 DUP3 MSTORE SWAP1 KECCAK256 SLOAD DUP2 JUMP JUMPDEST CALLVALUE DUP1 ISZERO PUSH2 0xB93 JUMPI PUSH1 0x0 DUP1 REVERT JUMPDEST POP PUSH2 0x4A2 PUSH2 0xBA2 CALLDATASIZE PUSH1 0x4 PUSH2 0x45F4 JUMP JUMPDEST PUSH2 0x2815 JUMP JUMPDEST CALLVALUE DUP1 ISZERO PUSH2 0xBB3 JUMPI PUSH1 0x0 DUP1 REVERT JUMPDEST POP PUSH2 0x4A2 PUSH1 0xD SLOAD DUP2 JUMP JUMPDEST CALLVALUE DUP1 ISZERO PUSH2 0xBC9 JUMPI PUSH1 0x0 DUP1 REVERT JUMPDEST POP PUSH2 0x4A2 PUSH2 0xBD8 CALLDATASIZE PUSH1 0x4 PUSH2 0x45CA JUMP JUMPDEST PUSH2 0x2825 JUMP JUMPDEST CALLVALUE DUP1 ISZERO PUSH2 0xBE9 JUMPI PUSH1 0x0 DUP1 REVERT JUMPDEST POP PUSH2 0x56F PUSH20 0x570A5D26F7765ECB712C0924E4DE545B89FD43DF DUP2 JUMP JUMPDEST CALLVALUE DUP1 ISZERO PUSH2 0xC11 JUMPI PUSH1 0x0 DUP1 REVERT JUMPDEST POP PUSH2 0x46B PUSH2 0xC20 CALLDATASIZE PUSH1 0x4 PUSH2 0x4571 JUMP JUMPDEST PUSH2 0x284A JUMP JUMPDEST CALLVALUE DUP1 ISZERO PUSH2 0xC31 JUMPI PUSH1 0x0 DUP1 REVERT JUMPDEST POP PUSH2 0x46B PUSH2 0x2AB7 JUMP JUMPDEST CALLVALUE DUP1 ISZERO PUSH2 0xC46 JUMPI PUSH1 0x0 DUP1 REVERT JUMPDEST POP PUSH2 0x4A2 PUSH1 0x20 SLOAD DUP2 JUMP JUMPDEST CALLVALUE DUP1 ISZERO PUSH2 0xC5C JUMPI PUSH1 0x0 DUP1 REVERT JUMPDEST POP PUSH2 0x4A2 PUSH2 0xC6B CALLDATASIZE PUSH1 0x4 PUSH2 0x45AF JUMP JUMPDEST PUSH1 0x47 PUSH1 0x20 MSTORE PUSH1 0x0 SWAP1 DUP2 MSTORE PUSH1 0x40 SWAP1 KECCAK256 SLOAD DUP2 JUMP JUMPDEST CALLVALUE DUP1 ISZERO PUSH2 0xC89 JUMPI PUSH1 0x0 DUP1 REVERT JUMPDEST POP PUSH2 0x46B PUSH2 0x2C46 JUMP JUMPDEST CALLVALUE DUP1 ISZERO PUSH2 0xC9E JUMPI PUSH1 0x0 DUP1 REVERT JUMPDEST POP PUSH2 0x4A2 PUSH1 0x21 SLOAD DUP2 JUMP JUMPDEST CALLVALUE DUP1 ISZERO PUSH2 0xCB4 JUMPI PUSH1 0x0 DUP1 REVERT JUMPDEST POP PUSH2 0x4A2 PUSH1 0x2A SLOAD DUP2 JUMP JUMPDEST CALLVALUE DUP1 ISZERO PUSH2 0xCCA JUMPI PUSH1 0x0 DUP1 REVERT JUMPDEST POP PUSH2 0x46B PUSH2 0xCD9 CALLDATASIZE PUSH1 0x4 PUSH2 0x45F4 JUMP JUMPDEST PUSH2 0x2DA9 JUMP JUMPDEST CALLVALUE DUP1 ISZERO PUSH2 0xCEA JUMPI PUSH1 0x0 DUP1 REVERT JUMPDEST POP PUSH2 0x4A2 PUSH1 0x2F SLOAD DUP2 JUMP JUMPDEST CALLVALUE DUP1 ISZERO PUSH2 0xD00 JUMPI PUSH1 0x0 DUP1 REVERT JUMPDEST POP PUSH1 0x2 SLOAD PUSH2 0x56F SWAP1 PUSH1 0x1 PUSH1 0x1 PUSH1 0xA0 SHL SUB AND DUP2 JUMP JUMPDEST CALLVALUE DUP1 ISZERO PUSH2 0xD20 JUMPI PUSH1 0x0 DUP1 REVERT JUMPDEST POP PUSH2 0x4A2 PUSH1 0x1E DUP2 JUMP JUMPDEST CALLVALUE DUP1 ISZERO PUSH2 0xD35 JUMPI PUSH1 0x0 DUP1 REVERT JUMPDEST POP PUSH2 0x56F PUSH2 0xD44 CALLDATASIZE PUSH1 0x4 PUSH2 0x45F4 JUMP JUMPDEST PUSH2 0x329B JUMP JUMPDEST CALLVALUE DUP1 ISZERO PUSH2 0xD55 JUMPI PUSH1 0x0 DUP1 REVERT JUMPDEST POP PUSH2 0x4A2 PUSH1 0x2B SLOAD DUP2 JUMP JUMPDEST CALLVALUE DUP1 ISZERO PUSH2 0xD6B JUMPI PUSH1 0x0 DUP1 REVERT JUMPDEST POP PUSH2 0xD9B PUSH2 0xD7A CALLDATASIZE PUSH1 0x4 PUSH2 0x45AF JUMP JUMPDEST PUSH1 0x1F PUSH1 0x20 MSTORE PUSH1 0x0 SWAP1 DUP2 MSTORE PUSH1 0x40 SWAP1 KECCAK256 DUP1 SLOAD PUSH1 0x1 DUP3 ADD SLOAD PUSH1 0x2 SWAP1 SWAP3 ADD SLOAD SWAP1 SWAP2 SWAP1 DUP4 JUMP JUMPDEST PUSH1 0x40 DUP1 MLOAD SWAP4 DUP5 MSTORE PUSH1 0x20 DUP5 ADD SWAP3 SWAP1 SWAP3 MSTORE SWAP1 DUP3 ADD MSTORE PUSH1 0x60 ADD PUSH2 0x4AC JUMP JUMPDEST CALLVALUE DUP1 ISZERO PUSH2 0xDC2 JUMPI PUSH1 0x0 DUP1 REVERT JUMPDEST POP PUSH2 0x46B PUSH2 0xDD1 CALLDATASIZE PUSH1 0x4 PUSH2 0x45AF JUMP JUMPDEST PUSH2 0x32AB JUMP JUMPDEST CALLVALUE DUP1 ISZERO PUSH2 0xDE2 JUMPI PUSH1 0x0 DUP1 REVERT JUMPDEST POP PUSH2 0x46B PUSH2 0x3321 JUMP JUMPDEST PUSH2 0xDF3 PUSH2 0x33BB JUMP JUMPDEST PUSH1 0x0 DUP3 GT PUSH2 0xE3A JUMPI PUSH1 0x40 MLOAD PUSH3 0x461BCD PUSH1 0xE5 SHL DUP2 MSTORE PUSH1 0x20 PUSH1 0x4 DUP3 ADD MSTORE PUSH1 0xF PUSH1 0x24 DUP3 ADD MSTORE PUSH15 0x616D6F756E74206D757374203E203 PUSH1 0x8C SHL PUSH1 0x44 DUP3 ADD MSTORE PUSH1 0x64 ADD JUMPDEST PUSH1 0x40 MLOAD DUP1 SWAP2 SUB SWAP1 REVERT JUMPDEST PUSH1 0x2 SLOAD PUSH1 0x40 MLOAD PUSH4 0x70A08231 PUSH1 0xE0 SHL DUP2 MSTORE CALLER PUSH1 0x4 DUP3 ADD MSTORE DUP4 SWAP2 PUSH1 0x1 PUSH1 0x1 PUSH1 0xA0 SHL SUB AND SWAP1 PUSH4 0x70A08231 SWAP1 PUSH1 0x24 ADD PUSH1 0x20 PUSH1 0x40 MLOAD DUP1 DUP4 SUB DUP2 DUP7 GAS STATICCALL ISZERO DUP1 ISZERO PUSH2 0xE82 JUMPI RETURNDATASIZE PUSH1 0x0 DUP1 RETURNDATACOPY RETURNDATASIZE PUSH1 0x0 REVERT JUMPDEST POP POP POP POP PUSH1 0x40 MLOAD RETURNDATASIZE PUSH1 0x1F NOT PUSH1 0x1F DUP3 ADD AND DUP3 ADD DUP1 PUSH1 0x40 MSTORE POP DUP2 ADD SWAP1 PUSH2 0xEA6 SWAP2 SWAP1 PUSH2 0x460D JUMP JUMPDEST LT ISZERO PUSH2 0xEE6 JUMPI PUSH1 0x40 MLOAD PUSH3 0x461BCD PUSH1 0xE5 SHL DUP2 MSTORE PUSH1 0x20 PUSH1 0x4 DUP3 ADD MSTORE PUSH1 0xF PUSH1 0x24 DUP3 ADD MSTORE PUSH15 0x696E73756666696369656E74204451 PUSH1 0x88 SHL PUSH1 0x44 DUP3 ADD MSTORE PUSH1 0x64 ADD PUSH2 0xE31 JUMP JUMPDEST PUSH1 0x0 PUSH8 0xDE0B6B3A7640000 PUSH1 0x5 SLOAD DUP5 PUSH2 0xEFF SWAP2 SWAP1 PUSH2 0x463C JUMP JUMPDEST PUSH2 0xF09 SWAP2 SWAP1 PUSH2 0x4653 JUMP JUMPDEST SWAP1 POP PUSH1 0x0 PUSH1 0x64 PUSH2 0xF1A DUP4 PUSH1 0x6 PUSH2 0x463C JUMP JUMPDEST PUSH2 0xF24 SWAP2 SWAP1 PUSH2 0x4653 JUMP JUMPDEST SWAP1 POP PUSH1 0x0 PUSH2 0xF32 DUP3 DUP5 PUSH2 0x4675 JUMP JUMPDEST SWAP1 POP DUP4 DUP2 LT ISZERO PUSH2 0xF78 JUMPI PUSH1 0x40 MLOAD PUSH3 0x461BCD PUSH1 0xE5 SHL DUP2 MSTORE PUSH1 0x20 PUSH1 0x4 DUP3 ADD MSTORE PUSH1 0x11 PUSH1 0x24 DUP3 ADD MSTORE PUSH17 0xE6D8D2E0E0C2CECA40E8DEDE40D0D2CED PUSH1 0x7B SHL PUSH1 0x44 DUP3 ADD MSTORE PUSH1 0x64 ADD PUSH2 0xE31 JUMP JUMPDEST PUSH1 0x40 MLOAD PUSH4 0x70A08231 PUSH1 0xE0 SHL DUP2 MSTORE ADDRESS PUSH1 0x4 DUP3 ADD MSTORE DUP2 SWAP1 PUSH20 0x570A5D26F7765ECB712C0924E4DE545B89FD43DF SWAP1 PUSH4 0x70A08231 SWAP1 PUSH1 0x24 ADD PUSH1 0x20 PUSH1 0x40 MLOAD DUP1 DUP4 SUB DUP2 DUP7 GAS STATICCALL ISZERO DUP1 ISZERO PUSH2 0xFC9 JUMPI RETURNDATASIZE PUSH1 0x0 DUP1 RETURNDATACOPY RETURNDATASIZE PUSH1 0x0 REVERT JUMPDEST POP POP POP POP PUSH1 0x40 MLOAD RETURNDATASIZE PUSH1 0x1F NOT PUSH1 0x1F DUP3 ADD AND DUP3 ADD DUP1 PUSH1 0x40 MSTORE POP DUP2 ADD SWAP1 PUSH2 0xFED SWAP2 SWAP1 PUSH2 0x460D JUMP JUMPDEST LT ISZERO PUSH2 0x1030 JUMPI PUSH1 0x40 MLOAD PUSH3 0x461BCD PUSH1 0xE5 SHL DUP2 MSTORE PUSH1 0x20 PUSH1 0x4 DUP3 ADD MSTORE PUSH1 0x12 PUSH1 0x24 DUP3 ADD MSTORE PUSH18 0x34B739BAB33334B1B4B2B73A103A37B5B2B7 PUSH1 0x71 SHL PUSH1 0x44 DUP3 ADD MSTORE PUSH1 0x64 ADD PUSH2 0xE31 JUMP JUMPDEST PUSH1 0x2 SLOAD PUSH1 0x40 MLOAD PUSH4 0x852CD8D PUSH1 0xE3 SHL DUP2 MSTORE PUSH1 0x4 DUP2 ADD DUP8 SWAP1 MSTORE PUSH1 0x1 PUSH1 0x1 PUSH1 0xA0 SHL SUB SWAP1 SWAP2 AND SWAP1 PUSH4 0x42966C68 SWAP1 PUSH1 0x24 ADD PUSH1 0x0 PUSH1 0x40 MLOAD DUP1 DUP4 SUB DUP2 PUSH1 0x0 DUP8 DUP1 EXTCODESIZE ISZERO DUP1 ISZERO PUSH2 0x1076 JUMPI PUSH1 0x0 DUP1 REVERT JUMPDEST POP GAS CALL ISZERO DUP1 ISZERO PUSH2 0x108A JUMPI RETURNDATASIZE PUSH1 0x0 DUP1 RETURNDATACOPY RETURNDATASIZE PUSH1 0x0 REVERT JUMPDEST POP POP POP POP PUSH1 0x0 PUSH1 0x64 DUP4 PUSH1 0x32 PUSH2 0x109F SWAP2 SWAP1 PUSH2 0x463C JUMP JUMPDEST PUSH2 0x10A9 SWAP2 SWAP1 PUSH2 0x4653 JUMP JUMPDEST SWAP1 POP PUSH1 0x0 PUSH1 0x64 PUSH2 0x10BA DUP6 PUSH1 0x32 PUSH2 0x463C JUMP JUMPDEST PUSH2 0x10C4 SWAP2 SWAP1 PUSH2 0x4653 JUMP JUMPDEST SWAP1 POP PUSH2 0x10CF DUP3 PUSH2 0x3414 JUMP JUMPDEST DUP1 PUSH1 0x2F PUSH1 0x0 DUP3 DUP3 SLOAD PUSH2 0x10E1 SWAP2 SWAP1 PUSH2 0x4688 JUMP JUMPDEST SWAP1 SWAP2 SSTORE POP POP PUSH1 0x40 MLOAD PUSH4 0xA9059CBB PUSH1 0xE0 SHL DUP2 MSTORE PUSH20 0x570A5D26F7765ECB712C0924E4DE545B89FD43DF SWAP1 PUSH4 0xA9059CBB SWAP1 PUSH2 0x111F SWAP1 CALLER SWAP1 DUP8 SWAP1 PUSH1 0x4 ADD PUSH2 0x469B JUMP JUMPDEST PUSH1 0x20 PUSH1 0x40 MLOAD DUP1 DUP4 SUB DUP2 PUSH1 0x0 DUP8 GAS CALL ISZERO DUP1 ISZERO PUSH2 0x113E JUMPI RETURNDATASIZE PUSH1 0x0 DUP1 RETURNDATACOPY RETURNDATASIZE PUSH1 0x0 REVERT JUMPDEST POP POP POP POP PUSH1 0x40 MLOAD RETURNDATASIZE PUSH1 0x1F NOT PUSH1 0x1F DUP3 ADD AND DUP3 ADD DUP1 PUSH1 0x40 MSTORE POP DUP2 ADD SWAP1 PUSH2 0x1162 SWAP2 SWAP1 PUSH2 0x46B4 JUMP JUMPDEST POP PUSH1 0x40 MLOAD DUP4 DUP2 MSTORE CALLER SWAP1 PUSH32 0x884EDAD9CE6FA2440D8A54CC123490EB96D2768479D49FF9C7366125A9424364 SWAP1 PUSH1 0x20 ADD PUSH1 0x40 MLOAD DUP1 SWAP2 SUB SWAP1 LOG2 POP POP POP POP POP PUSH2 0x11A6 PUSH1 0x1 DUP1 SSTORE JUMP JUMPDEST POP POP JUMP JUMPDEST PUSH2 0x11B2 PUSH2 0x3451 JUMP JUMPDEST PUSH1 0x1 PUSH1 0x1 PUSH1 0xA0 SHL SUB DUP2 AND PUSH2 0x11FA JUMPI PUSH1 0x40 MLOAD PUSH3 0x461BCD PUSH1 0xE5 SHL DUP2 MSTORE PUSH1 0x20 PUSH1 0x4 DUP3 ADD MSTORE PUSH1 0xF PUSH1 0x24 DUP3 ADD MSTORE PUSH15 0x696E76616C69642061646472657373 PUSH1 0x88 SHL PUSH1 0x44 DUP3 ADD MSTORE PUSH1 0x64 ADD PUSH2 0xE31 JUMP JUMPDEST PUSH1 0x4 DUP1 SLOAD PUSH1 0x1 PUSH1 0x1 PUSH1 0xA0 SHL SUB NOT AND PUSH1 0x1 PUSH1 0x1 PUSH1 0xA0 SHL SUB DUP4 AND SWAP1 DUP2 OR SWAP1 SWAP2 SSTORE PUSH1 0x40 MLOAD PUSH32 0xFFCC1B307A30458349A19925C1146E13EB12C58B2F165C2FED220C294E81C758 SWAP1 PUSH1 0x0 SWAP1 LOG2 POP JUMP JUMPDEST PUSH2 0x124C PUSH2 0x33BB JUMP JUMPDEST PUSH1 0xD SLOAD PUSH2 0x125C SWAP1 PUSH3 0x15180 PUSH2 0x4688 JUMP JUMPDEST TIMESTAMP LT ISZERO PUSH2 0x1297 JUMPI PUSH1 0x40 MLOAD PUSH3 0x461BCD PUSH1 0xE5 SHL DUP2 MSTORE PUSH1 0x20 PUSH1 0x4 DUP3 ADD MSTORE PUSH1 0x9 PUSH1 0x24 DUP3 ADD MSTORE PUSH9 0x746F6F206561726C79 PUSH1 0xB8 SHL PUSH1 0x44 DUP3 ADD MSTORE PUSH1 0x64 ADD PUSH2 0xE31 JUMP JUMPDEST PUSH1 0x2 SLOAD PUSH1 0x40 DUP1 MLOAD PUSH4 0x18160DDD PUSH1 0xE0 SHL DUP2 MSTORE SWAP1 MLOAD PUSH1 0x0 SWAP3 PUSH1 0x1 PUSH1 0x1 PUSH1 0xA0 SHL SUB AND SWAP2 PUSH4 0x18160DDD SWAP2 PUSH1 0x4 DUP1 DUP4 ADD SWAP3 PUSH1 0x20 SWAP3 SWAP2 SWAP1 DUP3 SWAP1 SUB ADD DUP2 DUP7 GAS STATICCALL ISZERO DUP1 ISZERO PUSH2 0x12E1 JUMPI RETURNDATASIZE PUSH1 0x0 DUP1 RETURNDATACOPY RETURNDATASIZE PUSH1 0x0 REVERT JUMPDEST POP POP POP POP PUSH1 0x40 MLOAD RETURNDATASIZE PUSH1 0x1F NOT PUSH1 0x1F DUP3 ADD AND DUP3 ADD DUP1 PUSH1 0x40 MSTORE POP DUP2 ADD SWAP1 PUSH2 0x1305 SWAP2 SWAP1 PUSH2 0x460D JUMP JUMPDEST SWAP1 POP PUSH1 0x0 PUSH2 0x3E8 PUSH1 0x6 SLOAD DUP4 PUSH2 0x131A SWAP2 SWAP1 PUSH2 0x463C JUMP JUMPDEST PUSH2 0x1324 SWAP2 SWAP1 PUSH2 0x4653 JUMP JUMPDEST SWAP1 POP PUSH1 0x0 PUSH1 0x64 PUSH1 0x7 SLOAD DUP4 PUSH2 0x1338 SWAP2 SWAP1 PUSH2 0x463C JUMP JUMPDEST PUSH2 0x1342 SWAP2 SWAP1 PUSH2 0x4653 JUMP JUMPDEST PUSH1 0x2 SLOAD PUSH1 0x40 MLOAD PUSH4 0x6E888389 PUSH1 0xE1 SHL DUP2 MSTORE PUSH1 0x4 DUP2 ADD DUP4 SWAP1 MSTORE SWAP2 SWAP3 POP PUSH1 0x1 PUSH1 0x1 PUSH1 0xA0 SHL SUB AND SWAP1 PUSH4 0xDD110712 SWAP1 PUSH1 0x24 ADD PUSH1 0x0 PUSH1 0x40 MLOAD DUP1 DUP4 SUB DUP2 PUSH1 0x0 DUP8 DUP1 EXTCODESIZE ISZERO DUP1 ISZERO PUSH2 0x1389 JUMPI PUSH1 0x0 DUP1 REVERT JUMPDEST POP GAS CALL ISZERO DUP1 ISZERO PUSH2 0x139D JUMPI RETURNDATASIZE PUSH1 0x0 DUP1 RETURNDATACOPY RETURNDATASIZE PUSH1 0x0 REVERT JUMPDEST POP POP POP POP PUSH1 0x1E PUSH1 0x7 SLOAD GT ISZERO PUSH2 0x13D5 JUMPI PUSH1 0x5 PUSH1 0x7 PUSH1 0x0 DUP3 DUP3 SLOAD PUSH2 0x13BF SWAP2 SWAP1 PUSH2 0x4675 JUMP JUMPDEST SWAP1 SWAP2 SSTORE POP POP PUSH1 0x7 SLOAD PUSH1 0x1E GT ISZERO PUSH2 0x13D5 JUMPI PUSH1 0x1E PUSH1 0x7 SSTORE JUMPDEST PUSH1 0x0 PUSH2 0x13E1 DUP3 DUP5 PUSH2 0x4675 JUMP JUMPDEST SWAP1 POP PUSH1 0x0 PUSH1 0x64 PUSH2 0x13F2 DUP4 PUSH1 0x3C PUSH2 0x463C JUMP JUMPDEST PUSH2 0x13FC SWAP2 SWAP1 PUSH2 0x4653 JUMP JUMPDEST SWAP1 POP PUSH1 0x0 PUSH1 0x64 PUSH2 0x140D DUP5 PUSH1 0xF PUSH2 0x463C JUMP JUMPDEST PUSH2 0x1417 SWAP2 SWAP1 PUSH2 0x4653 JUMP JUMPDEST SWAP1 POP PUSH1 0x0 PUSH1 0x64 PUSH2 0x1428 DUP6 PUSH1 0x5 PUSH2 0x463C JUMP JUMPDEST PUSH2 0x1432 SWAP2 SWAP1 PUSH2 0x4653 JUMP JUMPDEST SWAP1 POP PUSH1 0x0 PUSH1 0x64 PUSH2 0x1443 DUP7 PUSH1 0x6 PUSH2 0x463C JUMP JUMPDEST PUSH2 0x144D SWAP2 SWAP1 PUSH2 0x4653 JUMP JUMPDEST SWAP1 POP PUSH1 0x0 PUSH1 0x64 PUSH2 0x145E DUP8 PUSH1 0xE PUSH2 0x463C JUMP JUMPDEST PUSH2 0x1468 SWAP2 SWAP1 PUSH2 0x4653 JUMP JUMPDEST PUSH1 0x20 SLOAD SWAP1 SWAP2 POP ISZERO PUSH2 0x14A6 JUMPI PUSH1 0x20 SLOAD PUSH2 0x1485 DUP7 PUSH5 0xE8D4A51000 PUSH2 0x463C JUMP JUMPDEST PUSH2 0x148F SWAP2 SWAP1 PUSH2 0x4653 JUMP JUMPDEST PUSH1 0x46 PUSH1 0x0 DUP3 DUP3 SLOAD PUSH2 0x14A0 SWAP2 SWAP1 PUSH2 0x4688 JUMP JUMPDEST SWAP1 SWAP2 SSTORE POP POP JUMPDEST PUSH2 0x14AF DUP5 PUSH2 0x34AB JUMP JUMPDEST PUSH1 0x5 SLOAD PUSH1 0x0 SWAP1 PUSH2 0x14C7 DUP6 PUSH8 0xDE0B6B3A7640000 PUSH2 0x463C JUMP JUMPDEST PUSH2 0x14D1 SWAP2 SWAP1 PUSH2 0x4653 JUMP JUMPDEST PUSH1 0x2 SLOAD PUSH1 0x4 DUP1 SLOAD PUSH1 0x40 MLOAD PUSH4 0x40C10F19 PUSH1 0xE0 SHL DUP2 MSTORE SWAP4 SWAP5 POP PUSH1 0x1 PUSH1 0x1 PUSH1 0xA0 SHL SUB SWAP3 DUP4 AND SWAP4 PUSH4 0x40C10F19 SWAP4 PUSH2 0x1509 SWAP4 SWAP3 AND SWAP2 DUP7 SWAP2 ADD PUSH2 0x469B JUMP JUMPDEST PUSH1 0x0 PUSH1 0x40 MLOAD DUP1 DUP4 SUB DUP2 PUSH1 0x0 DUP8 DUP1 EXTCODESIZE ISZERO DUP1 ISZERO PUSH2 0x1523 JUMPI PUSH1 0x0 DUP1 REVERT JUMPDEST POP GAS CALL ISZERO DUP1 ISZERO PUSH2 0x1537 JUMPI RETURNDATASIZE PUSH1 0x0 DUP1 RETURNDATACOPY RETURNDATASIZE PUSH1 0x0 REVERT JUMPDEST POP POP POP POP PUSH1 0x0 PUSH1 0x2A SLOAD GT ISZERO PUSH2 0x1579 JUMPI PUSH1 0x2A SLOAD PUSH2 0x1558 DUP5 PUSH5 0xE8D4A51000 PUSH2 0x463C JUMP JUMPDEST PUSH2 0x1562 SWAP2 SWAP1 PUSH2 0x4653 JUMP JUMPDEST PUSH1 0x2B PUSH1 0x0 DUP3 DUP3 SLOAD PUSH2 0x1573 SWAP2 SWAP1 PUSH2 0x4688 JUMP JUMPDEST SWAP1 SWAP2 SSTORE POP POP JUMPDEST PUSH2 0x1582 DUP3 PUSH2 0x3844 JUMP JUMPDEST TIMESTAMP PUSH1 0xD DUP2 SWAP1 SSTORE PUSH1 0x40 DUP1 MLOAD DUP12 DUP2 MSTORE PUSH1 0x20 DUP2 ADD DUP12 SWAP1 MSTORE DUP1 DUP3 ADD SWAP3 SWAP1 SWAP3 MSTORE MLOAD PUSH32 0x645F9DE81BEE922BD76DCB18C2D7A6A22FF51E3995781EE9F65134B284E774B7 SWAP2 DUP2 SWAP1 SUB PUSH1 0x60 ADD SWAP1 LOG1 POP POP POP POP POP POP POP POP POP POP PUSH2 0x15DB PUSH1 0x1 DUP1 SSTORE JUMP JUMPDEST JUMP JUMPDEST PUSH1 0x1 PUSH1 0x1 PUSH1 0xA0 SHL SUB DUP3 AND PUSH1 0x0 SWAP1 DUP2 MSTORE PUSH1 0x23 PUSH1 0x20 MSTORE PUSH1 0x40 DUP2 KECCAK256 PUSH1 0x24 DUP1 SLOAD DUP4 SWAP2 SWAP1 DUP6 SWAP1 DUP2 LT PUSH2 0x160C JUMPI PUSH2 0x160C PUSH2 0x46D6 JUMP JUMPDEST SWAP1 PUSH1 0x0 MSTORE PUSH1 0x20 PUSH1 0x0 KECCAK256 ADD SLOAD DUP2 MSTORE PUSH1 0x20 ADD SWAP1 DUP2 MSTORE PUSH1 0x20 ADD PUSH1 0x0 KECCAK256 SLOAD SWAP1 POP JUMPDEST SWAP3 SWAP2 POP POP JUMP JUMPDEST PUSH1 0x0 DUP1 PUSH1 0xC SLOAD TIMESTAMP PUSH2 0x1640 SWAP2 SWAP1 PUSH2 0x4675 JUMP JUMPDEST SWAP1 POP PUSH1 0x0 PUSH1 0xB SLOAD DUP3 PUSH2 0x1652 SWAP2 SWAP1 PUSH2 0x4653 JUMP JUMPDEST SWAP1 POP PUSH1 0x2 DUP2 LT ISZERO PUSH2 0x166D JUMPI PUSH8 0xDE0B6B3A7640000 SWAP3 POP POP POP SWAP1 JUMP JUMPDEST PUSH1 0x4 DUP2 LT ISZERO PUSH2 0x1686 JUMPI PUSH8 0xD02AB486CEDC0000 SWAP3 POP POP POP SWAP1 JUMP JUMPDEST PUSH1 0x6 DUP2 LT ISZERO PUSH2 0x16A0 JUMPI PUSH9 0x1158E460913D00000 SWAP3 POP POP POP SWAP1 JUMP JUMPDEST PUSH1 0x9 SLOAD PUSH1 0x0 SWAP1 PUSH2 0x16B1 PUSH1 0x4 DUP5 PUSH2 0x4675 JUMP JUMPDEST PUSH2 0x16BB SWAP2 SWAP1 PUSH2 0x463C JUMP JUMPDEST PUSH1 0x8 SLOAD PUSH2 0x16C8 SWAP2 SWAP1 PUSH2 0x4688 JUMP JUMPDEST SWAP1 POP PUSH1 0xA SLOAD DUP2 GT ISZERO PUSH2 0x16D9 JUMPI POP PUSH1 0xA SLOAD JUMPDEST SWAP4 SWAP3 POP POP POP JUMP JUMPDEST PUSH1 0x40 MLOAD PUSH4 0x70A08231 PUSH1 0xE0 SHL DUP2 MSTORE ADDRESS PUSH1 0x4 DUP3 ADD MSTORE PUSH1 0x0 SWAP1 PUSH20 0x570A5D26F7765ECB712C0924E4DE545B89FD43DF SWAP1 PUSH4 0x70A08231 SWAP1 PUSH1 0x24 ADD PUSH1 0x20 PUSH1 0x40 MLOAD DUP1 DUP4 SUB DUP2 DUP7 GAS STATICCALL ISZERO DUP1 ISZERO PUSH2 0x1732 JUMPI RETURNDATASIZE PUSH1 0x0 DUP1 RETURNDATACOPY RETURNDATASIZE PUSH1 0x0 REVERT JUMPDEST POP POP POP POP PUSH1 0x40 MLOAD RETURNDATASIZE PUSH1 0x1F NOT PUSH1 0x1F DUP3 ADD AND DUP3 ADD DUP1 PUSH1 0x40 MSTORE POP DUP2 ADD SWAP1 PUSH2 0x1756 SWAP2 SWAP1 PUSH2 0x460D JUMP JUMPDEST SWAP1 POP SWAP1 JUMP JUMPDEST PUSH1 0x1 PUSH1 0x1 PUSH1 0xA0 SHL SUB DUP2 AND ISZERO DUP1 ISZERO SWAP1 PUSH2 0x177C JUMPI POP PUSH1 0x1 PUSH1 0x1 PUSH1 0xA0 SHL SUB DUP2 AND CALLER EQ ISZERO JUMPDEST PUSH2 0x17BB JUMPI PUSH1 0x40 MLOAD PUSH3 0x461BCD PUSH1 0xE5 SHL DUP2 MSTORE PUSH1 0x20 PUSH1 0x4 DUP3 ADD MSTORE PUSH1 0x10 PUSH1 0x24 DUP3 ADD MSTORE PUSH16 0x34B73B30B634B2103932B332B93932B9 PUSH1 0x81 SHL PUSH1 0x44 DUP3 ADD MSTORE PUSH1 0x64 ADD PUSH2 0xE31 JUMP JUMPDEST CALLER PUSH1 0x0 SWAP1 DUP2 MSTORE PUSH1 0x1D PUSH1 0x20 MSTORE PUSH1 0x40 SWAP1 KECCAK256 SLOAD PUSH1 0x1 PUSH1 0x1 PUSH1 0xA0 SHL SUB AND ISZERO PUSH2 0x1816 JUMPI PUSH1 0x40 MLOAD PUSH3 0x461BCD PUSH1 0xE5 SHL DUP2 MSTORE PUSH1 0x20 PUSH1 0x4 DUP3 ADD MSTORE PUSH1 0x12 PUSH1 0x24 DUP3 ADD MSTORE PUSH18 0x185B1C9958591E481C9959DA5CDD195C9959 PUSH1 0x72 SHL PUSH1 0x44 DUP3 ADD MSTORE PUSH1 0x64 ADD PUSH2 0xE31 JUMP JUMPDEST PUSH1 0x1 PUSH1 0x1 PUSH1 0xA0 SHL SUB DUP2 DUP2 AND PUSH1 0x0 SWAP1 DUP2 MSTORE PUSH1 0x1D PUSH1 0x20 MSTORE PUSH1 0x40 SWAP1 KECCAK256 SLOAD AND ISZERO ISZERO DUP1 PUSH2 0x184B JUMPI POP PUSH1 0x0 SLOAD PUSH1 0x1 PUSH1 0x1 PUSH1 0xA0 SHL SUB DUP3 DUP2 AND SWAP2 AND EQ JUMPDEST PUSH2 0x1897 JUMPI PUSH1 0x40 MLOAD PUSH3 0x461BCD PUSH1 0xE5 SHL DUP2 MSTORE PUSH1 0x20 PUSH1 0x4 DUP3 ADD MSTORE PUSH1 0x17 PUSH1 0x24 DUP3 ADD MSTORE PUSH32 0x7265666572726572206E6F742072656769737465726564000000000000000000 PUSH1 0x44 DUP3 ADD MSTORE PUSH1 0x64 ADD PUSH2 0xE31 JUMP JUMPDEST PUSH1 0x1 PUSH1 0x1 PUSH1 0xA0 SHL SUB DUP2 AND PUSH1 0x0 SWAP1 DUP2 MSTORE PUSH1 0x1D PUSH1 0x20 MSTORE PUSH1 0x40 SWAP1 KECCAK256 PUSH1 0x7 ADD SLOAD PUSH1 0xFF AND PUSH2 0x1902 JUMPI PUSH1 0x40 MLOAD PUSH3 0x461BCD PUSH1 0xE5 SHL DUP2 MSTORE PUSH1 0x20 PUSH1 0x4 DUP3 ADD MSTORE PUSH1 0x1D PUSH1 0x24 DUP3 ADD MSTORE PUSH32 0x7265666572726572206D7573742068617665206E6F6465206669727374000000 PUSH1 0x44 DUP3 ADD MSTORE PUSH1 0x64 ADD PUSH2 0xE31 JUMP JUMPDEST CALLER PUSH1 0x0 SWAP1 DUP2 MSTORE PUSH1 0x1D PUSH1 0x20 MSTORE PUSH1 0x40 DUP1 DUP3 KECCAK256 DUP1 SLOAD PUSH1 0x1 PUSH1 0x1 PUSH1 0xA0 SHL SUB NOT AND PUSH1 0x1 PUSH1 0x1 PUSH1 0xA0 SHL SUB DUP6 AND SWAP1 DUP2 OR SWAP1 SWAP2 SSTORE DUP3 MSTORE DUP2 KECCAK256 PUSH1 0x1 ADD DUP1 SLOAD SWAP2 PUSH2 0x1941 DUP4 PUSH2 0x46EC JUMP JUMPDEST SWAP1 SWAP2 SSTORE POP POP PUSH1 0x1 PUSH1 0x1 PUSH1 0xA0 SHL SUB DUP2 AND PUSH1 0x0 SWAP1 DUP2 MSTORE PUSH1 0x1D PUSH1 0x20 MSTORE PUSH1 0x40 SWAP1 KECCAK256 PUSH2 0x196B SWAP1 PUSH1 0x8 ADD CALLER PUSH2 0x38EA JUMP JUMPDEST POP PUSH1 0x1E DUP1 SLOAD PUSH1 0x1 DUP2 ADD DUP3 SSTORE PUSH1 0x0 SWAP2 DUP3 MSTORE PUSH32 0x50BB669A95C7B50B7E8A6F09454034B2B14CF2B85C730DCA9A539CA82CB6E350 ADD DUP1 SLOAD PUSH1 0x1 PUSH1 0x1 PUSH1 0xA0 SHL SUB NOT AND CALLER SWAP1 DUP2 OR SWAP1 SWAP2 SSTORE PUSH1 0x40 MLOAD PUSH1 0x1 PUSH1 0x1 PUSH1 0xA0 SHL SUB DUP5 AND SWAP3 PUSH32 0x98ADA70A1CB506DC4591465E1EE9BE3FD7A2B6C73ECF3B949009718C9A351519 SWAP2 LOG3 POP JUMP JUMPDEST PUSH2 0x19EC PUSH2 0x3451 JUMP JUMPDEST PUSH1 0x0 DUP1 SLOAD PUSH1 0x40 MLOAD PUSH1 0x1 PUSH1 0x1 PUSH1 0xA0 SHL SUB SWAP1 SWAP2 AND SWAP2 SELFBALANCE DUP1 ISZERO PUSH2 0x8FC MUL SWAP3 SWAP1 SWAP2 DUP2 DUP2 DUP2 DUP6 DUP9 DUP9 CALL SWAP4 POP POP POP POP ISZERO DUP1 ISZERO PUSH2 0x1A26 JUMPI RETURNDATASIZE PUSH1 0x0 DUP1 RETURNDATACOPY RETURNDATASIZE PUSH1 0x0 REVERT JUMPDEST POP JUMP JUMPDEST PUSH1 0x3D DUP2 PUSH1 0x8 DUP2 LT PUSH2 0x1A39 JUMPI PUSH1 0x0 DUP1 REVERT JUMPDEST ADD SLOAD SWAP1 POP DUP2 JUMP JUMPDEST PUSH1 0x1 PUSH1 0x1 PUSH1 0xA0 SHL SUB DUP2 AND PUSH1 0x0 SWAP1 DUP2 MSTORE PUSH1 0x1D PUSH1 0x20 MSTORE PUSH1 0x40 DUP2 KECCAK256 PUSH1 0x7 ADD SLOAD PUSH1 0xFF AND DUP1 ISZERO PUSH2 0x1629 JUMPI POP POP PUSH1 0x1 PUSH1 0x1 PUSH1 0xA0 SHL SUB SWAP1 DUP2 AND PUSH1 0x0 SWAP1 DUP2 MSTORE PUSH1 0x1D PUSH1 0x20 MSTORE PUSH1 0x40 DUP1 DUP3 KECCAK256 SLOAD SWAP1 SWAP3 AND DUP2 MSTORE KECCAK256 PUSH1 0x7 ADD SLOAD PUSH1 0xFF AND SWAP1 JUMP JUMPDEST PUSH2 0x1A9A PUSH2 0x3451 JUMP JUMPDEST PUSH1 0x40 MLOAD PUSH4 0x70A08231 PUSH1 0xE0 SHL DUP2 MSTORE ADDRESS PUSH1 0x4 DUP3 ADD MSTORE DUP2 SWAP1 PUSH20 0x570A5D26F7765ECB712C0924E4DE545B89FD43DF SWAP1 PUSH4 0x70A08231 SWAP1 PUSH1 0x24 ADD PUSH1 0x20 PUSH1 0x40 MLOAD DUP1 DUP4 SUB DUP2 DUP7 GAS STATICCALL ISZERO DUP1 ISZERO PUSH2 0x1AEB JUMPI RETURNDATASIZE PUSH1 0x0 DUP1 RETURNDATACOPY RETURNDATASIZE PUSH1 0x0 REVERT JUMPDEST POP POP POP POP PUSH1 0x40 MLOAD RETURNDATASIZE PUSH1 0x1F NOT PUSH1 0x1F DUP3 ADD AND DUP3 ADD DUP1 PUSH1 0x40 MSTORE POP DUP2 ADD SWAP1 PUSH2 0x1B0F SWAP2 SWAP1 PUSH2 0x460D JUMP JUMPDEST LT ISZERO PUSH2 0x1B2D JUMPI PUSH1 0x40 MLOAD PUSH3 0x461BCD PUSH1 0xE5 SHL DUP2 MSTORE PUSH1 0x4 ADD PUSH2 0xE31 SWAP1 PUSH2 0x4705 JUMP JUMPDEST PUSH20 0x570A5D26F7765ECB712C0924E4DE545B89FD43DF PUSH4 0xA9059CBB PUSH2 0x1B59 PUSH1 0x0 SLOAD PUSH1 0x1 PUSH1 0x1 PUSH1 0xA0 SHL SUB AND SWAP1 JUMP JUMPDEST DUP4 PUSH1 0x40 MLOAD DUP4 PUSH4 0xFFFFFFFF AND PUSH1 0xE0 SHL DUP2 MSTORE PUSH1 0x4 ADD PUSH2 0x1B77 SWAP3 SWAP2 SWAP1 PUSH2 0x469B JUMP JUMPDEST PUSH1 0x20 PUSH1 0x40 MLOAD DUP1 DUP4 SUB DUP2 PUSH1 0x0 DUP8 GAS CALL ISZERO DUP1 ISZERO PUSH2 0x1B96 JUMPI RETURNDATASIZE PUSH1 0x0 DUP1 RETURNDATACOPY RETURNDATASIZE PUSH1 0x0 REVERT JUMPDEST POP POP POP POP PUSH1 0x40 MLOAD RETURNDATASIZE PUSH1 0x1F NOT PUSH1 0x1F DUP3 ADD AND DUP3 ADD DUP1 PUSH1 0x40 MSTORE POP DUP2 ADD SWAP1 PUSH2 0x11A6 SWAP2 SWAP1 PUSH2 0x46B4 JUMP JUMPDEST PUSH2 0x1BC2 PUSH2 0x33BB JUMP JUMPDEST PUSH1 0x3 SLOAD PUSH1 0x40 MLOAD PUSH4 0x70A08231 PUSH1 0xE0 SHL DUP2 MSTORE CALLER PUSH1 0x4 DUP3 ADD MSTORE PUSH1 0x0 SWAP2 DUP3 SWAP2 PUSH1 0x1 PUSH1 0x1 PUSH1 0xA0 SHL SUB SWAP1 SWAP2 AND SWAP1 PUSH4 0x70A08231 SWAP1 PUSH1 0x24 ADD PUSH1 0x20 PUSH1 0x40 MLOAD DUP1 DUP4 SUB DUP2 DUP7 GAS STATICCALL ISZERO DUP1 ISZERO PUSH2 0x1C0F JUMPI RETURNDATASIZE PUSH1 0x0 DUP1 RETURNDATACOPY RETURNDATASIZE PUSH1 0x0 REVERT JUMPDEST POP POP POP POP PUSH1 0x40 MLOAD RETURNDATASIZE PUSH1 0x1F NOT PUSH1 0x1F DUP3 ADD AND DUP3 ADD DUP1 PUSH1 0x40 MSTORE POP DUP2 ADD SWAP1 PUSH2 0x1C33 SWAP2 SWAP1 PUSH2 0x460D JUMP JUMPDEST SWAP1 POP PUSH1 0x0 JUMPDEST DUP2 DUP2 LT ISZERO PUSH2 0x1DF9 JUMPI PUSH1 0x3 SLOAD PUSH1 0x40 MLOAD PUSH4 0x2F745C59 PUSH1 0xE0 SHL DUP2 MSTORE PUSH1 0x0 SWAP2 PUSH1 0x1 PUSH1 0x1 PUSH1 0xA0 SHL SUB AND SWAP1 PUSH4 0x2F745C59 SWAP1 PUSH2 0x1C73 SWAP1 CALLER SWAP1 DUP7 SWAP1 PUSH1 0x4 ADD PUSH2 0x469B JUMP JUMPDEST PUSH1 0x20 PUSH1 0x40 MLOAD DUP1 DUP4 SUB DUP2 DUP7 GAS STATICCALL ISZERO DUP1 ISZERO PUSH2 0x1C90 JUMPI RETURNDATASIZE PUSH1 0x0 DUP1 RETURNDATACOPY RETURNDATASIZE PUSH1 0x0 REVERT JUMPDEST POP POP POP POP PUSH1 0x40 MLOAD RETURNDATASIZE PUSH1 0x1F NOT PUSH1 0x1F DUP3 ADD AND DUP3 ADD DUP1 PUSH1 0x40 MSTORE POP DUP2 ADD SWAP1 PUSH2 0x1CB4 SWAP2 SWAP1 PUSH2 0x460D JUMP JUMPDEST PUSH1 0x3 SLOAD PUSH1 0x40 MLOAD PUSH4 0xFCF49ADF PUSH1 0xE0 SHL DUP2 MSTORE PUSH1 0x4 DUP2 ADD DUP4 SWAP1 MSTORE SWAP2 SWAP3 POP PUSH1 0x0 SWAP2 PUSH1 0x1 PUSH1 0x1 PUSH1 0xA0 SHL SUB SWAP1 SWAP2 AND SWAP1 PUSH4 0xFCF49ADF SWAP1 PUSH1 0x24 ADD PUSH1 0x20 PUSH1 0x40 MLOAD DUP1 DUP4 SUB DUP2 DUP7 GAS STATICCALL ISZERO DUP1 ISZERO PUSH2 0x1D03 JUMPI RETURNDATASIZE PUSH1 0x0 DUP1 RETURNDATACOPY RETURNDATASIZE PUSH1 0x0 REVERT JUMPDEST POP POP POP POP PUSH1 0x40 MLOAD RETURNDATASIZE PUSH1 0x1F NOT PUSH1 0x1F DUP3 ADD AND DUP3 ADD DUP1 PUSH1 0x40 MSTORE POP DUP2 ADD SWAP1 PUSH2 0x1D27 SWAP2 SWAP1 PUSH2 0x460D JUMP JUMPDEST SWAP1 POP PUSH1 0x0 PUSH2 0x1D36 PUSH1 0x1 DUP4 PUSH2 0x4675 JUMP JUMPDEST CALLER PUSH1 0x0 SWAP1 DUP2 MSTORE PUSH1 0x34 PUSH1 0x20 MSTORE PUSH1 0x40 DUP2 KECCAK256 SWAP2 SWAP3 POP SWAP1 DUP3 PUSH1 0x3 DUP2 LT PUSH2 0x1D5A JUMPI PUSH2 0x1D5A PUSH2 0x46D6 JUMP JUMPDEST ADD SLOAD PUSH5 0xE8D4A51000 PUSH1 0x31 DUP5 PUSH1 0x3 DUP2 LT PUSH2 0x1D75 JUMPI PUSH2 0x1D75 PUSH2 0x46D6 JUMP JUMPDEST ADD SLOAD PUSH2 0x1D81 SWAP2 SWAP1 PUSH2 0x4653 JUMP JUMPDEST PUSH2 0x1D8B SWAP2 SWAP1 PUSH2 0x4675 JUMP JUMPDEST SWAP1 POP PUSH2 0x1D97 DUP2 DUP9 PUSH2 0x4688 JUMP JUMPDEST SWAP7 POP PUSH5 0xE8D4A51000 PUSH1 0x31 DUP4 PUSH1 0x3 DUP2 LT PUSH2 0x1DB2 JUMPI PUSH2 0x1DB2 PUSH2 0x46D6 JUMP JUMPDEST ADD SLOAD PUSH2 0x1DBE SWAP2 SWAP1 PUSH2 0x4653 JUMP JUMPDEST CALLER PUSH1 0x0 SWAP1 DUP2 MSTORE PUSH1 0x34 PUSH1 0x20 MSTORE PUSH1 0x40 SWAP1 KECCAK256 DUP4 PUSH1 0x3 DUP2 LT PUSH2 0x1DDE JUMPI PUSH2 0x1DDE PUSH2 0x46D6 JUMP JUMPDEST ADD SSTORE POP DUP4 SWAP3 POP PUSH2 0x1DF1 SWAP2 POP DUP3 SWAP1 POP PUSH2 0x46EC JUMP JUMPDEST SWAP2 POP POP PUSH2 0x1C38 JUMP JUMPDEST POP PUSH1 0x0 DUP3 GT PUSH2 0x1E1A JUMPI PUSH1 0x40 MLOAD PUSH3 0x461BCD PUSH1 0xE5 SHL DUP2 MSTORE PUSH1 0x4 ADD PUSH2 0xE31 SWAP1 PUSH2 0x4733 JUMP JUMPDEST PUSH1 0x5 SLOAD PUSH1 0x0 SWAP1 PUSH2 0x1E32 DUP5 PUSH8 0xDE0B6B3A7640000 PUSH2 0x463C JUMP JUMPDEST PUSH2 0x1E3C SWAP2 SWAP1 PUSH2 0x4653 JUMP JUMPDEST PUSH1 0x2 SLOAD PUSH1 0x40 MLOAD PUSH4 0x40C10F19 PUSH1 0xE0 SHL DUP2 MSTORE SWAP2 SWAP3 POP PUSH1 0x1 PUSH1 0x1 PUSH1 0xA0 SHL SUB AND SWAP1 PUSH4 0x40C10F19 SWAP1 PUSH2 0x1E6F SWAP1 CALLER SWAP1 DUP6 SWAP1 PUSH1 0x4 ADD PUSH2 0x469B JUMP JUMPDEST PUSH1 0x0 PUSH1 0x40 MLOAD DUP1 DUP4 SUB DUP2 PUSH1 0x0 DUP8 DUP1 EXTCODESIZE ISZERO DUP1 ISZERO PUSH2 0x1E89 JUMPI PUSH1 0x0 DUP1 REVERT JUMPDEST POP GAS CALL ISZERO DUP1 ISZERO PUSH2 0x1E9D JUMPI RETURNDATASIZE PUSH1 0x0 DUP1 RETURNDATACOPY RETURNDATASIZE PUSH1 0x0 REVERT JUMPDEST POP POP PUSH1 0x40 MLOAD DUP6 DUP2 MSTORE CALLER SWAP3 POP PUSH32 0x30F4E2FF758C62D61BB151D75A67E6E282C1536C30D83481C7F0855937D2EAE5 SWAP2 POP PUSH1 0x20 ADD PUSH1 0x40 MLOAD DUP1 SWAP2 SUB SWAP1 LOG2 POP POP POP PUSH2 0x15DB PUSH1 0x1 DUP1 SSTORE JUMP JUMPDEST PUSH2 0x1EEA PUSH2 0x3451 JUMP JUMPDEST PUSH2 0x15DB PUSH1 0x0 PUSH2 0x38FF JUMP JUMPDEST PUSH1 0xE DUP2 PUSH1 0x7 DUP2 LT PUSH2 0x1A39 JUMPI PUSH1 0x0 DUP1 REVERT JUMPDEST PUSH2 0x1F0C PUSH2 0x33BB JUMP JUMPDEST PUSH1 0x24 SLOAD DUP2 LT PUSH2 0x1F4E JUMPI PUSH1 0x40 MLOAD PUSH3 0x461BCD PUSH1 0xE5 SHL DUP2 MSTORE PUSH1 0x20 PUSH1 0x4 DUP3 ADD MSTORE PUSH1 0xE PUSH1 0x24 DUP3 ADD MSTORE PUSH14 0x1A5B9D985B1A59081C195C9A5BD9 PUSH1 0x92 SHL PUSH1 0x44 DUP3 ADD MSTORE PUSH1 0x64 ADD PUSH2 0xE31 JUMP JUMPDEST PUSH1 0x0 PUSH1 0x24 DUP3 DUP2 SLOAD DUP2 LT PUSH2 0x1F63 JUMPI PUSH2 0x1F63 PUSH2 0x46D6 JUMP JUMPDEST PUSH1 0x0 SWAP2 DUP3 MSTORE PUSH1 0x20 DUP1 DUP4 KECCAK256 SWAP1 SWAP2 ADD SLOAD CALLER DUP4 MSTORE PUSH1 0x23 DUP3 MSTORE PUSH1 0x40 DUP1 DUP5 KECCAK256 DUP3 DUP6 MSTORE SWAP1 SWAP3 MSTORE SWAP2 KECCAK256 SLOAD SWAP1 SWAP2 POP DUP1 PUSH2 0x1FC1 JUMPI PUSH1 0x40 MLOAD PUSH3 0x461BCD PUSH1 0xE5 SHL DUP2 MSTORE PUSH1 0x20 PUSH1 0x4 DUP3 ADD MSTORE PUSH1 0x8 PUSH1 0x24 DUP3 ADD MSTORE PUSH8 0x6E6F207374616B65 PUSH1 0xC0 SHL PUSH1 0x44 DUP3 ADD MSTORE PUSH1 0x64 ADD PUSH2 0xE31 JUMP JUMPDEST PUSH2 0x1FCB CALLER DUP4 PUSH2 0x394F JUMP JUMPDEST CALLER PUSH1 0x0 SWAP1 DUP2 MSTORE PUSH1 0x23 PUSH1 0x20 SWAP1 DUP2 MSTORE PUSH1 0x40 DUP1 DUP4 KECCAK256 DUP6 DUP5 MSTORE DUP3 MSTORE DUP1 DUP4 KECCAK256 DUP4 SWAP1 SSTORE PUSH1 0x27 SWAP1 SWAP2 MSTORE DUP2 KECCAK256 DUP1 SLOAD DUP4 SWAP3 SWAP1 PUSH2 0x1FFF SWAP1 DUP5 SWAP1 PUSH2 0x4675 JUMP JUMPDEST SWAP1 SWAP2 SSTORE POP POP PUSH1 0x2 SLOAD PUSH1 0x40 MLOAD PUSH4 0xA9059CBB PUSH1 0xE0 SHL DUP2 MSTORE PUSH1 0x1 PUSH1 0x1 PUSH1 0xA0 SHL SUB SWAP1 SWAP2 AND SWAP1 PUSH4 0xA9059CBB SWAP1 PUSH2 0x2036 SWAP1 CALLER SWAP1 DUP6 SWAP1 PUSH1 0x4 ADD PUSH2 0x469B JUMP JUMPDEST PUSH1 0x20 PUSH1 0x40 MLOAD DUP1 DUP4 SUB DUP2 PUSH1 0x0 DUP8 GAS CALL ISZERO DUP1 ISZERO PUSH2 0x2055 JUMPI RETURNDATASIZE PUSH1 0x0 DUP1 RETURNDATACOPY RETURNDATASIZE PUSH1 0x0 REVERT JUMPDEST POP POP POP POP PUSH1 0x40 MLOAD RETURNDATASIZE PUSH1 0x1F NOT PUSH1 0x1F DUP3 ADD AND DUP3 ADD DUP1 PUSH1 0x40 MSTORE POP DUP2 ADD SWAP1 PUSH2 0x2079 SWAP2 SWAP1 PUSH2 0x46B4 JUMP JUMPDEST POP PUSH1 0x40 DUP1 MLOAD DUP3 DUP2 MSTORE PUSH1 0x20 DUP2 ADD DUP5 SWAP1 MSTORE CALLER SWAP2 PUSH32 0xB16EAD3739CAC2505095AF2275C1F8ADE1FE8F49D2D24D0E56DB2198C40DE152 SWAP2 ADD JUMPDEST PUSH1 0x40 MLOAD DUP1 SWAP2 SUB SWAP1 LOG2 POP POP PUSH2 0x1A26 PUSH1 0x1 DUP1 SSTORE JUMP JUMPDEST PUSH1 0x25 DUP2 DUP2 SLOAD DUP2 LT PUSH2 0x20D1 JUMPI PUSH1 0x0 DUP1 REVERT JUMPDEST PUSH1 0x0 SWAP2 DUP3 MSTORE PUSH1 0x20 SWAP1 SWAP2 KECCAK256 ADD SLOAD SWAP1 POP DUP2 JUMP JUMPDEST PUSH2 0x20EA PUSH2 0x3451 JUMP JUMPDEST PUSH1 0x0 DUP2 GT PUSH2 0x212B JUMPI PUSH1 0x40 MLOAD PUSH3 0x461BCD PUSH1 0xE5 SHL DUP2 MSTORE PUSH1 0x20 PUSH1 0x4 DUP3 ADD MSTORE PUSH1 0xE PUSH1 0x24 DUP3 ADD MSTORE PUSH14 0x7072696365206D757374203E203 PUSH1 0x94 SHL PUSH1 0x44 DUP3 ADD MSTORE PUSH1 0x64 ADD PUSH2 0xE31 JUMP JUMPDEST PUSH1 0x5 DUP2 SWAP1 SSTORE PUSH1 0x40 MLOAD DUP2 DUP2 MSTORE PUSH32 0x66CBCA4F3C64FECF1DCB9CE094ABCF7F68C3450A1D4E3A8E917DD621EDB4EBE0 SWAP1 PUSH1 0x20 ADD PUSH1 0x40 MLOAD DUP1 SWAP2 SUB SWAP1 LOG1 POP JUMP JUMPDEST PUSH2 0x216E PUSH2 0x33BB JUMP JUMPDEST CALLER PUSH1 0x0 SWAP1 DUP2 MSTORE PUSH1 0x1D PUSH1 0x20 MSTORE PUSH1 0x40 SWAP1 KECCAK256 PUSH1 0x2 DUP2 ADD SLOAD PUSH2 0x100 SWAP1 DIV PUSH1 0xFF AND PUSH2 0x21C3 JUMPI PUSH1 0x40 MLOAD PUSH3 0x461BCD PUSH1 0xE5 SHL DUP2 MSTORE PUSH1 0x20 PUSH1 0x4 DUP3 ADD MSTORE PUSH1 0xA PUSH1 0x24 DUP3 ADD MSTORE PUSH10 0x1B9BC819081B195D995B PUSH1 0xB2 SHL PUSH1 0x44 DUP3 ADD MSTORE PUSH1 0x64 ADD PUSH2 0xE31 JUMP JUMPDEST PUSH1 0x2 DUP2 ADD SLOAD PUSH1 0x0 SWAP1 PUSH2 0x21DF SWAP1 PUSH1 0x1 SWAP1 PUSH2 0x100 SWAP1 DIV PUSH1 0xFF AND PUSH2 0x4757 JUMP JUMPDEST CALLER PUSH1 0x0 SWAP1 DUP2 MSTORE PUSH1 0x45 PUSH1 0x20 MSTORE PUSH1 0x40 DUP2 KECCAK256 SLOAD PUSH1 0xFF SWAP3 SWAP1 SWAP3 AND SWAP3 POP SWAP1 PUSH5 0xE8D4A51000 PUSH1 0x3D DUP5 PUSH1 0x8 DUP2 LT PUSH2 0x2211 JUMPI PUSH2 0x2211 PUSH2 0x46D6 JUMP JUMPDEST ADD SLOAD PUSH2 0x221D SWAP2 SWAP1 PUSH2 0x4653 JUMP JUMPDEST PUSH2 0x2227 SWAP2 SWAP1 PUSH2 0x4675 JUMP JUMPDEST SWAP1 POP PUSH1 0x0 DUP2 GT PUSH2 0x2249 JUMPI PUSH1 0x40 MLOAD PUSH3 0x461BCD PUSH1 0xE5 SHL DUP2 MSTORE PUSH1 0x4 ADD PUSH2 0xE31 SWAP1 PUSH2 0x4733 JUMP JUMPDEST PUSH5 0xE8D4A51000 PUSH1 0x3D DUP4 PUSH1 0x8 DUP2 LT PUSH2 0x2262 JUMPI PUSH2 0x2262 PUSH2 0x46D6 JUMP JUMPDEST ADD SLOAD PUSH2 0x226E SWAP2 SWAP1 PUSH2 0x4653 JUMP JUMPDEST CALLER PUSH1 0x0 SWAP1 DUP2 MSTORE PUSH1 0x45 PUSH1 0x20 MSTORE PUSH1 0x40 DUP2 KECCAK256 SWAP2 SWAP1 SWAP2 SSTORE PUSH1 0x5 SLOAD PUSH2 0x2296 DUP4 PUSH8 0xDE0B6B3A7640000 PUSH2 0x463C JUMP JUMPDEST PUSH2 0x22A0 SWAP2 SWAP1 PUSH2 0x4653 JUMP JUMPDEST PUSH1 0x2 SLOAD PUSH1 0x40 MLOAD PUSH4 0x40C10F19 PUSH1 0xE0 SHL DUP2 MSTORE SWAP2 SWAP3 POP PUSH1 0x1 PUSH1 0x1 PUSH1 0xA0 SHL SUB AND SWAP1 PUSH4 0x40C10F19 SWAP1 PUSH2 0x22D3 SWAP1 CALLER SWAP1 DUP6 SWAP1 PUSH1 0x4 ADD PUSH2 0x469B JUMP JUMPDEST PUSH1 0x0 PUSH1 0x40 MLOAD DUP1 DUP4 SUB DUP2 PUSH1 0x0 DUP8 DUP1 EXTCODESIZE ISZERO DUP1 ISZERO PUSH2 0x22ED JUMPI PUSH1 0x0 DUP1 REVERT JUMPDEST POP GAS CALL ISZERO DUP1 ISZERO PUSH2 0x2301 JUMPI RETURNDATASIZE PUSH1 0x0 DUP1 RETURNDATACOPY RETURNDATASIZE PUSH1 0x0 REVERT JUMPDEST POP POP PUSH1 0x40 MLOAD DUP5 DUP2 MSTORE CALLER SWAP3 POP PUSH32 0x9C51FF96F57F0B34DFA1CBF09C2697E3F15ED11966AEB02DC5B7E2D95244596A SWAP2 POP PUSH1 0x20 ADD PUSH1 0x40 MLOAD DUP1 SWAP2 SUB SWAP1 LOG2 POP POP POP POP PUSH2 0x15DB PUSH1 0x1 DUP1 SSTORE JUMP JUMPDEST PUSH1 0x24 DUP2 DUP2 SLOAD DUP2 LT PUSH2 0x20D1 JUMPI PUSH1 0x0 DUP1 REVERT JUMPDEST PUSH1 0x1E DUP2 DUP2 SLOAD DUP2 LT PUSH2 0x2367 JUMPI PUSH1 0x0 DUP1 REVERT JUMPDEST PUSH1 0x0 SWAP2 DUP3 MSTORE PUSH1 0x20 SWAP1 SWAP2 KECCAK256 ADD SLOAD PUSH1 0x1 PUSH1 0x1 PUSH1 0xA0 SHL SUB AND SWAP1 POP DUP2 JUMP JUMPDEST PUSH1 0x35 DUP2 PUSH1 0x8 DUP2 LT PUSH2 0x1A39 JUMPI PUSH1 0x0 DUP1 REVERT JUMPDEST PUSH2 0x2399 PUSH2 0x33BB JUMP JUMPDEST CALLER PUSH1 0x0 SWAP1 DUP2 MSTORE PUSH1 0x1D PUSH1 0x20 MSTORE PUSH1 0x40 SWAP1 KECCAK256 PUSH1 0x7 ADD SLOAD PUSH1 0xFF AND PUSH2 0x23F1 JUMPI PUSH1 0x40 MLOAD PUSH3 0x461BCD PUSH1 0xE5 SHL DUP2 MSTORE PUSH1 0x20 PUSH1 0x4 DUP3 ADD MSTORE PUSH1 0x13 PUSH1 0x24 DUP3 ADD MSTORE PUSH19 0x1B5D5CDD08189D5E481B9BD91948199A5C9CDD PUSH1 0x6A SHL PUSH1 0x44 DUP3 ADD MSTORE PUSH1 0x64 ADD PUSH2 0xE31 JUMP JUMPDEST CALLER PUSH1 0x0 SWAP1 DUP2 MSTORE PUSH1 0x1D PUSH1 0x20 MSTORE PUSH1 0x40 SWAP1 KECCAK256 SLOAD PUSH1 0x1 PUSH1 0x1 PUSH1 0xA0 SHL SUB AND DUP1 ISZERO PUSH2 0x247B JUMPI PUSH1 0x1 PUSH1 0x1 PUSH1 0xA0 SHL SUB DUP2 AND PUSH1 0x0 SWAP1 DUP2 MSTORE PUSH1 0x1D PUSH1 0x20 MSTORE PUSH1 0x40 SWAP1 KECCAK256 PUSH1 0x7 ADD SLOAD PUSH1 0xFF AND PUSH2 0x247B JUMPI PUSH1 0x40 MLOAD PUSH3 0x461BCD PUSH1 0xE5 SHL DUP2 MSTORE PUSH1 0x20 PUSH1 0x4 DUP3 ADD MSTORE PUSH1 0x17 PUSH1 0x24 DUP3 ADD MSTORE PUSH32 0x7265666572726572206D7573742068617665206E6F6465000000000000000000 PUSH1 0x44 DUP3 ADD MSTORE PUSH1 0x64 ADD PUSH2 0xE31 JUMP JUMPDEST PUSH8 0xDE0B6B3A7640000 DUP3 LT ISZERO PUSH2 0x24C3 JUMPI PUSH1 0x40 MLOAD PUSH3 0x461BCD PUSH1 0xE5 SHL DUP2 MSTORE PUSH1 0x20 PUSH1 0x4 DUP3 ADD MSTORE PUSH1 0xD PUSH1 0x24 DUP3 ADD MSTORE PUSH13 0x62656C6F77206D696E696D756D PUSH1 0x98 SHL PUSH1 0x44 DUP3 ADD MSTORE PUSH1 0x64 ADD PUSH2 0xE31 JUMP JUMPDEST PUSH2 0x24CB PUSH2 0x162F JUMP JUMPDEST DUP3 GT ISZERO PUSH2 0x2507 JUMPI PUSH1 0x40 MLOAD PUSH3 0x461BCD PUSH1 0xE5 SHL DUP2 MSTORE PUSH1 0x20 PUSH1 0x4 DUP3 ADD MSTORE PUSH1 0xA PUSH1 0x24 DUP3 ADD MSTORE PUSH10 0xCAF0C6CACAC840DAC2F PUSH1 0xB3 SHL PUSH1 0x44 DUP3 ADD MSTORE PUSH1 0x64 ADD PUSH2 0xE31 JUMP JUMPDEST PUSH1 0x40 MLOAD PUSH4 0x70A08231 PUSH1 0xE0 SHL DUP2 MSTORE CALLER PUSH1 0x4 DUP3 ADD MSTORE DUP3 SWAP1 PUSH20 0x570A5D26F7765ECB712C0924E4DE545B89FD43DF SWAP1 PUSH4 0x70A08231 SWAP1 PUSH1 0x24 ADD PUSH1 0x20 PUSH1 0x40 MLOAD DUP1 DUP4 SUB DUP2 DUP7 GAS STATICCALL ISZERO DUP1 ISZERO PUSH2 0x2558 JUMPI RETURNDATASIZE PUSH1 0x0 DUP1 RETURNDATACOPY RETURNDATASIZE PUSH1 0x0 REVERT JUMPDEST POP POP POP POP PUSH1 0x40 MLOAD RETURNDATASIZE PUSH1 0x1F NOT PUSH1 0x1F DUP3 ADD AND DUP3 ADD DUP1 PUSH1 0x40 MSTORE POP DUP2 ADD SWAP1 PUSH2 0x257C SWAP2 SWAP1 PUSH2 0x460D JUMP JUMPDEST LT ISZERO PUSH2 0x259A JUMPI PUSH1 0x40 MLOAD PUSH3 0x461BCD PUSH1 0xE5 SHL DUP2 MSTORE PUSH1 0x4 ADD PUSH2 0xE31 SWAP1 PUSH2 0x4705 JUMP JUMPDEST PUSH1 0x40 MLOAD PUSH4 0x23B872DD PUSH1 0xE0 SHL DUP2 MSTORE CALLER PUSH1 0x4 DUP3 ADD MSTORE ADDRESS PUSH1 0x24 DUP3 ADD MSTORE PUSH1 0x44 DUP2 ADD DUP4 SWAP1 MSTORE PUSH20 0x570A5D26F7765ECB712C0924E4DE545B89FD43DF SWAP1 PUSH4 0x23B872DD SWAP1 PUSH1 0x64 ADD PUSH1 0x20 PUSH1 0x40 MLOAD DUP1 DUP4 SUB DUP2 PUSH1 0x0 DUP8 GAS CALL ISZERO DUP1 ISZERO PUSH2 0x25F8 JUMPI RETURNDATASIZE PUSH1 0x0 DUP1 RETURNDATACOPY RETURNDATASIZE PUSH1 0x0 REVERT JUMPDEST POP POP POP POP PUSH1 0x40 MLOAD RETURNDATASIZE PUSH1 0x1F NOT PUSH1 0x1F DUP3 ADD AND DUP3 ADD DUP1 PUSH1 0x40 MSTORE POP DUP2 ADD SWAP1 PUSH2 0x261C SWAP2 SWAP1 PUSH2 0x46B4 JUMP JUMPDEST POP PUSH1 0x5 SLOAD PUSH1 0x0 SWAP1 PUSH2 0x2635 DUP5 PUSH8 0xDE0B6B3A7640000 PUSH2 0x463C JUMP JUMPDEST PUSH2 0x263F SWAP2 SWAP1 PUSH2 0x4653 JUMP JUMPDEST SWAP1 POP PUSH1 0x0 PUSH1 0x64 PUSH2 0x2650 DUP6 PUSH1 0x32 PUSH2 0x463C JUMP JUMPDEST PUSH2 0x265A SWAP2 SWAP1 PUSH2 0x4653 JUMP JUMPDEST SWAP1 POP PUSH1 0x0 PUSH1 0x64 PUSH2 0x266B DUP7 PUSH1 0x32 PUSH2 0x463C JUMP JUMPDEST PUSH2 0x2675 SWAP2 SWAP1 PUSH2 0x4653 JUMP JUMPDEST SWAP1 POP DUP2 PUSH1 0x2D PUSH1 0x0 DUP3 DUP3 SLOAD PUSH2 0x2689 SWAP2 SWAP1 PUSH2 0x4688 JUMP JUMPDEST SWAP3 POP POP DUP2 SWAP1 SSTORE POP DUP1 PUSH1 0x22 PUSH1 0x0 DUP3 DUP3 SLOAD PUSH2 0x26A2 SWAP2 SWAP1 PUSH2 0x4688 JUMP JUMPDEST SWAP3 POP POP DUP2 SWAP1 SSTORE POP DUP1 PUSH1 0x20 PUSH1 0x0 DUP3 DUP3 SLOAD PUSH2 0x26BB SWAP2 SWAP1 PUSH2 0x4688 JUMP JUMPDEST SWAP1 SWAP2 SSTORE POP POP CALLER PUSH1 0x0 SWAP1 DUP2 MSTORE PUSH1 0x1D PUSH1 0x20 MSTORE PUSH1 0x40 DUP2 KECCAK256 PUSH1 0x3 DUP2 ADD DUP1 SLOAD SWAP2 SWAP3 DUP9 SWAP3 PUSH2 0x26E4 SWAP1 DUP5 SWAP1 PUSH2 0x4688 JUMP JUMPDEST SWAP1 SWAP2 SSTORE POP PUSH2 0x26F5 SWAP1 POP DUP7 PUSH1 0x6 PUSH2 0x463C JUMP JUMPDEST DUP2 PUSH1 0x5 ADD PUSH1 0x0 DUP3 DUP3 SLOAD PUSH2 0x2708 SWAP2 SWAP1 PUSH2 0x4688 JUMP JUMPDEST SWAP3 POP POP DUP2 SWAP1 SSTORE POP DUP6 DUP2 PUSH1 0x6 ADD PUSH1 0x0 DUP3 DUP3 SLOAD PUSH2 0x2723 SWAP2 SWAP1 PUSH2 0x4688 JUMP JUMPDEST SWAP1 SWAP2 SSTORE POP PUSH2 0x2733 SWAP1 POP CALLER DUP8 PUSH2 0x3A2C JUMP JUMPDEST PUSH2 0x273D CALLER DUP5 PUSH2 0x3A8D JUMP JUMPDEST PUSH2 0x2746 CALLER PUSH2 0x3C2E JUMP JUMPDEST PUSH2 0x274F CALLER PUSH2 0x3DD1 JUMP JUMPDEST PUSH2 0x2758 CALLER PUSH2 0x3F58 JUMP JUMPDEST PUSH1 0x2 SLOAD PUSH1 0x40 MLOAD PUSH4 0x40C10F19 PUSH1 0xE0 SHL DUP2 MSTORE PUSH1 0x1 PUSH1 0x1 PUSH1 0xA0 SHL SUB SWAP1 SWAP2 AND SWAP1 PUSH4 0x40C10F19 SWAP1 PUSH2 0x278A SWAP1 CALLER SWAP1 DUP9 SWAP1 PUSH1 0x4 ADD PUSH2 0x469B JUMP JUMPDEST PUSH1 0x0 PUSH1 0x40 MLOAD DUP1 DUP4 SUB DUP2 PUSH1 0x0 DUP8 DUP1 EXTCODESIZE ISZERO DUP1 ISZERO PUSH2 0x27A4 JUMPI PUSH1 0x0 DUP1 REVERT JUMPDEST POP GAS CALL ISZERO DUP1 ISZERO PUSH2 0x27B8 JUMPI RETURNDATASIZE PUSH1 0x0 DUP1 RETURNDATACOPY RETURNDATASIZE PUSH1 0x0 REVERT JUMPDEST POP POP PUSH1 0x40 DUP1 MLOAD DUP10 DUP2 MSTORE PUSH1 0x20 DUP2 ADD DUP9 SWAP1 MSTORE CALLER SWAP4 POP PUSH32 0x90890809C654F11D6E72A28FA60149770A0D11EC6C92319D6CEB2BB0A4EA1A15 SWAP3 POP ADD PUSH1 0x40 MLOAD DUP1 SWAP2 SUB SWAP1 LOG2 POP POP POP POP POP PUSH2 0x1A26 PUSH1 0x1 DUP1 SSTORE JUMP JUMPDEST PUSH1 0x31 DUP2 PUSH1 0x3 DUP2 LT PUSH2 0x1A39 JUMPI PUSH1 0x0 DUP1 REVERT JUMPDEST PUSH1 0x15 DUP2 PUSH1 0x8 DUP2 LT PUSH2 0x1A39 JUMPI PUSH1 0x0 DUP1 REVERT JUMPDEST PUSH1 0x34 PUSH1 0x20 MSTORE DUP2 PUSH1 0x0 MSTORE PUSH1 0x40 PUSH1 0x0 KECCAK256 DUP2 PUSH1 0x3 DUP2 LT PUSH2 0x2841 JUMPI PUSH1 0x0 DUP1 REVERT JUMPDEST ADD SLOAD SWAP2 POP DUP3 SWAP1 POP JUMP JUMPDEST PUSH2 0x2852 PUSH2 0x33BB JUMP JUMPDEST PUSH1 0x24 SLOAD DUP2 LT PUSH2 0x2894 JUMPI PUSH1 0x40 MLOAD PUSH3 0x461BCD PUSH1 0xE5 SHL DUP2 MSTORE PUSH1 0x20 PUSH1 0x4 DUP3 ADD MSTORE PUSH1 0xE PUSH1 0x24 DUP3 ADD MSTORE PUSH14 0x1A5B9D985B1A59081C195C9A5BD9 PUSH1 0x92 SHL PUSH1 0x44 DUP3 ADD MSTORE PUSH1 0x64 ADD PUSH2 0xE31 JUMP JUMPDEST PUSH1 0x0 DUP3 GT PUSH2 0x28D6 JUMPI PUSH1 0x40 MLOAD PUSH3 0x461BCD PUSH1 0xE5 SHL DUP2 MSTORE PUSH1 0x20 PUSH1 0x4 DUP3 ADD MSTORE PUSH1 0xF PUSH1 0x24 DUP3 ADD MSTORE PUSH15 0x616D6F756E74206D757374203E203 PUSH1 0x8C SHL PUSH1 0x44 DUP3 ADD MSTORE PUSH1 0x64 ADD PUSH2 0xE31 JUMP JUMPDEST PUSH1 0x2 SLOAD PUSH1 0x40 MLOAD PUSH4 0x70A08231 PUSH1 0xE0 SHL DUP2 MSTORE CALLER PUSH1 0x4 DUP3 ADD MSTORE DUP4 SWAP2 PUSH1 0x1 PUSH1 0x1 PUSH1 0xA0 SHL SUB AND SWAP1 PUSH4 0x70A08231 SWAP1 PUSH1 0x24 ADD PUSH1 0x20 PUSH1 0x40 MLOAD DUP1 DUP4 SUB DUP2 DUP7 GAS STATICCALL ISZERO DUP1 ISZERO PUSH2 0x291E JUMPI RETURNDATASIZE PUSH1 0x0 DUP1 RETURNDATACOPY RETURNDATASIZE PUSH1 0x0 REVERT JUMPDEST POP POP POP POP PUSH1 0x40 MLOAD RETURNDATASIZE PUSH1 0x1F NOT PUSH1 0x1F DUP3 ADD AND DUP3 ADD DUP1 PUSH1 0x40 MSTORE POP DUP2 ADD SWAP1 PUSH2 0x2942 SWAP2 SWAP1 PUSH2 0x460D JUMP JUMPDEST LT ISZERO PUSH2 0x2982 JUMPI PUSH1 0x40 MLOAD PUSH3 0x461BCD PUSH1 0xE5 SHL DUP2 MSTORE PUSH1 0x20 PUSH1 0x4 DUP3 ADD MSTORE PUSH1 0xF PUSH1 0x24 DUP3 ADD MSTORE PUSH15 0x696E73756666696369656E74204451 PUSH1 0x88 SHL PUSH1 0x44 DUP3 ADD MSTORE PUSH1 0x64 ADD PUSH2 0xE31 JUMP JUMPDEST PUSH1 0x0 PUSH1 0x24 DUP3 DUP2 SLOAD DUP2 LT PUSH2 0x2997 JUMPI PUSH2 0x2997 PUSH2 0x46D6 JUMP JUMPDEST PUSH1 0x0 SWAP2 DUP3 MSTORE PUSH1 0x20 SWAP1 SWAP2 KECCAK256 ADD SLOAD PUSH1 0x2 SLOAD PUSH1 0x40 MLOAD PUSH4 0x23B872DD PUSH1 0xE0 SHL DUP2 MSTORE CALLER PUSH1 0x4 DUP3 ADD MSTORE ADDRESS PUSH1 0x24 DUP3 ADD MSTORE PUSH1 0x44 DUP2 ADD DUP7 SWAP1 MSTORE SWAP2 SWAP3 POP PUSH1 0x1 PUSH1 0x1 PUSH1 0xA0 SHL SUB AND SWAP1 PUSH4 0x23B872DD SWAP1 PUSH1 0x64 ADD PUSH1 0x20 PUSH1 0x40 MLOAD DUP1 DUP4 SUB DUP2 PUSH1 0x0 DUP8 GAS CALL ISZERO DUP1 ISZERO PUSH2 0x29FB JUMPI RETURNDATASIZE PUSH1 0x0 DUP1 RETURNDATACOPY RETURNDATASIZE PUSH1 0x0 REVERT JUMPDEST POP POP POP POP PUSH1 0x40 MLOAD RETURNDATASIZE PUSH1 0x1F NOT PUSH1 0x1F DUP3 ADD AND DUP3 ADD DUP1 PUSH1 0x40 MSTORE POP DUP2 ADD SWAP1 PUSH2 0x2A1F SWAP2 SWAP1 PUSH2 0x46B4 JUMP JUMPDEST POP CALLER PUSH1 0x0 SWAP1 DUP2 MSTORE PUSH1 0x23 PUSH1 0x20 SWAP1 DUP2 MSTORE PUSH1 0x40 DUP1 DUP4 KECCAK256 DUP5 DUP5 MSTORE SWAP1 SWAP2 MSTORE DUP2 KECCAK256 DUP1 SLOAD DUP6 SWAP3 SWAP1 PUSH2 0x2A4A SWAP1 DUP5 SWAP1 PUSH2 0x4688 JUMP JUMPDEST SWAP1 SWAP2 SSTORE POP POP PUSH1 0x0 DUP2 DUP2 MSTORE PUSH1 0x27 PUSH1 0x20 MSTORE PUSH1 0x40 DUP2 KECCAK256 DUP1 SLOAD DUP6 SWAP3 SWAP1 PUSH2 0x2A6D SWAP1 DUP5 SWAP1 PUSH2 0x4688 JUMP JUMPDEST SWAP1 SWAP2 SSTORE POP POP PUSH1 0x40 DUP1 MLOAD DUP5 DUP2 MSTORE PUSH1 0x20 DUP2 ADD DUP4 SWAP1 MSTORE CALLER SWAP2 PUSH32 0xE02DE4328F3659A0EDC63AA323F742D444274E44A7C500F4AB23E33A3E449CA8 SWAP2 ADD PUSH1 0x40 MLOAD DUP1 SWAP2 SUB SWAP1 LOG2 POP PUSH2 0x11A6 PUSH1 0x1 DUP1 SSTORE JUMP JUMPDEST PUSH2 0x2ABF PUSH2 0x33BB JUMP JUMPDEST CALLER PUSH1 0x0 SWAP1 DUP2 MSTORE PUSH1 0x29 PUSH1 0x20 MSTORE PUSH1 0x40 SWAP1 KECCAK256 SLOAD PUSH1 0xFF AND PUSH2 0x2B0C JUMPI PUSH1 0x40 MLOAD PUSH3 0x461BCD PUSH1 0xE5 SHL DUP2 MSTORE PUSH1 0x20 PUSH1 0x4 DUP3 ADD MSTORE PUSH1 0xB PUSH1 0x24 DUP3 ADD MSTORE PUSH11 0x3737BA103830B93A3732B9 PUSH1 0xA9 SHL PUSH1 0x44 DUP3 ADD MSTORE PUSH1 0x64 ADD PUSH2 0xE31 JUMP JUMPDEST CALLER PUSH1 0x0 SWAP1 DUP2 MSTORE PUSH1 0x2C PUSH1 0x20 MSTORE PUSH1 0x40 DUP2 KECCAK256 SLOAD PUSH1 0x2B SLOAD PUSH2 0x2B2F SWAP1 PUSH5 0xE8D4A51000 SWAP1 PUSH2 0x4653 JUMP JUMPDEST PUSH2 0x2B39 SWAP2 SWAP1 PUSH2 0x4675 JUMP JUMPDEST SWAP1 POP PUSH1 0x0 DUP2 GT PUSH2 0x2B5B JUMPI PUSH1 0x40 MLOAD PUSH3 0x461BCD PUSH1 0xE5 SHL DUP2 MSTORE PUSH1 0x4 ADD PUSH2 0xE31 SWAP1 PUSH2 0x4733 JUMP JUMPDEST PUSH5 0xE8D4A51000 PUSH1 0x2B SLOAD PUSH2 0x2B6E SWAP2 SWAP1 PUSH2 0x4653 JUMP JUMPDEST CALLER PUSH1 0x0 SWAP1 DUP2 MSTORE PUSH1 0x2C PUSH1 0x20 MSTORE PUSH1 0x40 DUP2 KECCAK256 SWAP2 SWAP1 SWAP2 SSTORE PUSH1 0x5 SLOAD PUSH2 0x2B96 DUP4 PUSH8 0xDE0B6B3A7640000 PUSH2 0x463C JUMP JUMPDEST PUSH2 0x2BA0 SWAP2 SWAP1 PUSH2 0x4653 JUMP JUMPDEST PUSH1 0x2 SLOAD PUSH1 0x40 MLOAD PUSH4 0x40C10F19 PUSH1 0xE0 SHL DUP2 MSTORE SWAP2 SWAP3 POP PUSH1 0x1 PUSH1 0x1 PUSH1 0xA0 SHL SUB AND SWAP1 PUSH4 0x40C10F19 SWAP1 PUSH2 0x2BD3 SWAP1 CALLER SWAP1 DUP6 SWAP1 PUSH1 0x4 ADD PUSH2 0x469B JUMP JUMPDEST PUSH1 0x0 PUSH1 0x40 MLOAD DUP1 DUP4 SUB DUP2 PUSH1 0x0 DUP8 DUP1 EXTCODESIZE ISZERO DUP1 ISZERO PUSH2 0x2BED JUMPI PUSH1 0x0 DUP1 REVERT JUMPDEST POP GAS CALL ISZERO DUP1 ISZERO PUSH2 0x2C01 JUMPI RETURNDATASIZE PUSH1 0x0 DUP1 RETURNDATACOPY RETURNDATASIZE PUSH1 0x0 REVERT JUMPDEST POP POP PUSH1 0x40 MLOAD DUP5 DUP2 MSTORE CALLER SWAP3 POP PUSH32 0xFD2C9576DB62DCC8DFB3BA4874D5A4449DB744E9A548E446BB88BECAB1221A58 SWAP2 POP PUSH1 0x20 ADD JUMPDEST PUSH1 0x40 MLOAD DUP1 SWAP2 SUB SWAP1 LOG2 POP POP PUSH2 0x15DB PUSH1 0x1 DUP1 SSTORE JUMP JUMPDEST PUSH2 0x2C4E PUSH2 0x33BB JUMP JUMPDEST CALLER PUSH1 0x0 SWAP1 DUP2 MSTORE PUSH1 0x1F PUSH1 0x20 MSTORE PUSH1 0x40 DUP2 KECCAK256 PUSH1 0x2 DUP2 ADD SLOAD PUSH1 0x21 SLOAD SWAP2 SLOAD SWAP1 SWAP2 PUSH5 0xE8D4A51000 SWAP2 PUSH2 0x2C7A SWAP2 SWAP1 PUSH2 0x463C JUMP JUMPDEST PUSH2 0x2C84 SWAP2 SWAP1 PUSH2 0x4653 JUMP JUMPDEST PUSH2 0x2C8E SWAP2 SWAP1 PUSH2 0x4675 JUMP JUMPDEST SWAP1 POP PUSH1 0x0 DUP2 GT PUSH2 0x2CB0 JUMPI PUSH1 0x40 MLOAD PUSH3 0x461BCD PUSH1 0xE5 SHL DUP2 MSTORE PUSH1 0x4 ADD PUSH2 0xE31 SWAP1 PUSH2 0x4733 JUMP JUMPDEST PUSH1 0x21 SLOAD CALLER PUSH1 0x0 SWAP1 DUP2 MSTORE PUSH1 0x1F PUSH1 0x20 MSTORE PUSH1 0x40 SWAP1 KECCAK256 SLOAD PUSH5 0xE8D4A51000 SWAP2 PUSH2 0x2CD3 SWAP2 PUSH2 0x463C JUMP JUMPDEST PUSH2 0x2CDD SWAP2 SWAP1 PUSH2 0x4653 JUMP JUMPDEST CALLER PUSH1 0x0 SWAP1 DUP2 MSTORE PUSH1 0x1F PUSH1 0x20 MSTORE PUSH1 0x40 DUP2 KECCAK256 PUSH1 0x2 ADD SWAP2 SWAP1 SWAP2 SSTORE PUSH1 0x5 SLOAD PUSH2 0x2D08 DUP4 PUSH8 0xDE0B6B3A7640000 PUSH2 0x463C JUMP JUMPDEST PUSH2 0x2D12 SWAP2 SWAP1 PUSH2 0x4653 JUMP JUMPDEST PUSH1 0x2 SLOAD PUSH1 0x40 MLOAD PUSH4 0x40C10F19 PUSH1 0xE0 SHL DUP2 MSTORE SWAP2 SWAP3 POP PUSH1 0x1 PUSH1 0x1 PUSH1 0xA0 SHL SUB AND SWAP1 PUSH4 0x40C10F19 SWAP1 PUSH2 0x2D45 SWAP1 CALLER SWAP1 DUP6 SWAP1 PUSH1 0x4 ADD PUSH2 0x469B JUMP JUMPDEST PUSH1 0x0 PUSH1 0x40 MLOAD DUP1 DUP4 SUB DUP2 PUSH1 0x0 DUP8 DUP1 EXTCODESIZE ISZERO DUP1 ISZERO PUSH2 0x2D5F JUMPI PUSH1 0x0 DUP1 REVERT JUMPDEST POP GAS CALL ISZERO DUP1 ISZERO PUSH2 0x2D73 JUMPI RETURNDATASIZE PUSH1 0x0 DUP1 RETURNDATACOPY RETURNDATASIZE PUSH1 0x0 REVERT JUMPDEST POP POP PUSH1 0x40 MLOAD DUP5 DUP2 MSTORE CALLER SWAP3 POP PUSH32 0x7436794B6CD88FE788CB3E86147CB3C7FCE0762DC1FB3F3FC7129F4E050D8750 SWAP2 POP PUSH1 0x20 ADD PUSH2 0x2C33 JUMP JUMPDEST PUSH2 0x2DB1 PUSH2 0x33BB JUMP JUMPDEST PUSH1 0x1 DUP2 LT ISZERO DUP1 ISZERO PUSH2 0x2DC3 JUMPI POP PUSH1 0x3 DUP2 GT ISZERO JUMPDEST PUSH2 0x2DFE JUMPI PUSH1 0x40 MLOAD PUSH3 0x461BCD PUSH1 0xE5 SHL DUP2 MSTORE PUSH1 0x20 PUSH1 0x4 DUP3 ADD MSTORE PUSH1 0xC PUSH1 0x24 DUP3 ADD MSTORE PUSH12 0x696E76616C69642074797065 PUSH1 0xA0 SHL PUSH1 0x44 DUP3 ADD MSTORE PUSH1 0x64 ADD PUSH2 0xE31 JUMP JUMPDEST PUSH1 0x3 SLOAD PUSH1 0x40 MLOAD PUSH4 0x6866537D PUSH1 0xE0 SHL DUP2 MSTORE PUSH1 0x4 DUP2 ADD DUP4 SWAP1 MSTORE PUSH1 0x0 SWAP2 PUSH1 0x1 PUSH1 0x1 PUSH1 0xA0 SHL SUB AND SWAP1 PUSH4 0x6866537D SWAP1 PUSH1 0x24 ADD PUSH1 0x20 PUSH1 0x40 MLOAD DUP1 DUP4 SUB DUP2 DUP7 GAS STATICCALL ISZERO DUP1 ISZERO PUSH2 0x2E48 JUMPI RETURNDATASIZE PUSH1 0x0 DUP1 RETURNDATACOPY RETURNDATASIZE PUSH1 0x0 REVERT JUMPDEST POP POP POP POP PUSH1 0x40 MLOAD RETURNDATASIZE PUSH1 0x1F NOT PUSH1 0x1F DUP3 ADD AND DUP3 ADD DUP1 PUSH1 0x40 MSTORE POP DUP2 ADD SWAP1 PUSH2 0x2E6C SWAP2 SWAP1 PUSH2 0x460D JUMP JUMPDEST PUSH1 0x40 MLOAD PUSH4 0x70A08231 PUSH1 0xE0 SHL DUP2 MSTORE CALLER PUSH1 0x4 DUP3 ADD MSTORE SWAP1 SWAP2 POP DUP2 SWAP1 PUSH20 0x570A5D26F7765ECB712C0924E4DE545B89FD43DF SWAP1 PUSH4 0x70A08231 SWAP1 PUSH1 0x24 ADD PUSH1 0x20 PUSH1 0x40 MLOAD DUP1 DUP4 SUB DUP2 DUP7 GAS STATICCALL ISZERO DUP1 ISZERO PUSH2 0x2EC0 JUMPI RETURNDATASIZE PUSH1 0x0 DUP1 RETURNDATACOPY RETURNDATASIZE PUSH1 0x0 REVERT JUMPDEST POP POP POP POP PUSH1 0x40 MLOAD RETURNDATASIZE PUSH1 0x1F NOT PUSH1 0x1F DUP3 ADD AND DUP3 ADD DUP1 PUSH1 0x40 MSTORE POP DUP2 ADD SWAP1 PUSH2 0x2EE4 SWAP2 SWAP1 PUSH2 0x460D JUMP JUMPDEST LT ISZERO PUSH2 0x2F02 JUMPI PUSH1 0x40 MLOAD PUSH3 0x461BCD PUSH1 0xE5 SHL DUP2 MSTORE PUSH1 0x4 ADD PUSH2 0xE31 SWAP1 PUSH2 0x4705 JUMP JUMPDEST PUSH1 0x40 MLOAD PUSH4 0x23B872DD PUSH1 0xE0 SHL DUP2 MSTORE CALLER PUSH1 0x4 DUP3 ADD MSTORE ADDRESS PUSH1 0x24 DUP3 ADD MSTORE PUSH1 0x44 DUP2 ADD DUP3 SWAP1 MSTORE PUSH20 0x570A5D26F7765ECB712C0924E4DE545B89FD43DF SWAP1 PUSH4 0x23B872DD SWAP1 PUSH1 0x64 ADD PUSH1 0x20 PUSH1 0x40 MLOAD DUP1 DUP4 SUB DUP2 PUSH1 0x0 DUP8 GAS CALL ISZERO DUP1 ISZERO PUSH2 0x2F60 JUMPI RETURNDATASIZE PUSH1 0x0 DUP1 RETURNDATACOPY RETURNDATASIZE PUSH1 0x0 REVERT JUMPDEST POP POP POP POP PUSH1 0x40 MLOAD RETURNDATASIZE PUSH1 0x1F NOT PUSH1 0x1F DUP3 ADD AND DUP3 ADD DUP1 PUSH1 0x40 MSTORE POP DUP2 ADD SWAP1 PUSH2 0x2F84 SWAP2 SWAP1 PUSH2 0x46B4 JUMP JUMPDEST POP PUSH1 0x3 SLOAD PUSH1 0x40 MLOAD PUSH4 0x1AA15771 PUSH1 0xE1 SHL DUP2 MSTORE PUSH1 0x1 PUSH1 0x1 PUSH1 0xA0 SHL SUB SWAP1 SWAP2 AND SWAP1 PUSH4 0x3542AEE2 SWAP1 PUSH2 0x2FB7 SWAP1 CALLER SWAP1 DUP7 SWAP1 PUSH1 0x4 ADD PUSH2 0x469B JUMP JUMPDEST PUSH1 0x0 PUSH1 0x40 MLOAD DUP1 DUP4 SUB DUP2 PUSH1 0x0 DUP8 DUP1 EXTCODESIZE ISZERO DUP1 ISZERO PUSH2 0x2FD1 JUMPI PUSH1 0x0 DUP1 REVERT JUMPDEST POP GAS CALL ISZERO DUP1 ISZERO PUSH2 0x2FE5 JUMPI RETURNDATASIZE PUSH1 0x0 DUP1 RETURNDATACOPY RETURNDATASIZE PUSH1 0x0 REVERT JUMPDEST POP POP CALLER PUSH1 0x0 SWAP1 DUP2 MSTORE PUSH1 0x1D PUSH1 0x20 MSTORE PUSH1 0x40 DUP2 KECCAK256 PUSH1 0x7 ADD DUP1 SLOAD PUSH1 0xFF NOT AND PUSH1 0x1 OR SWAP1 SSTORE PUSH1 0x22 DUP1 SLOAD DUP6 SWAP5 POP SWAP1 SWAP3 POP PUSH2 0x3019 SWAP1 DUP5 SWAP1 PUSH2 0x4688 JUMP JUMPDEST SWAP3 POP POP DUP2 SWAP1 SSTORE POP DUP1 PUSH1 0x20 PUSH1 0x0 DUP3 DUP3 SLOAD PUSH2 0x3032 SWAP2 SWAP1 PUSH2 0x4688 JUMP JUMPDEST SWAP1 SWAP2 SSTORE POP POP CALLER PUSH1 0x0 SWAP1 DUP2 MSTORE PUSH1 0x1D PUSH1 0x20 MSTORE PUSH1 0x40 SWAP1 KECCAK256 PUSH1 0x1 DUP4 EQ DUP1 ISZERO PUSH2 0x305F JUMPI POP PUSH1 0x2 DUP2 ADD SLOAD PUSH1 0x1 PUSH1 0xFF SWAP1 SWAP2 AND LT JUMPDEST ISZERO PUSH2 0x309F JUMPI PUSH1 0x2 DUP2 ADD DUP1 SLOAD PUSH1 0xFF NOT AND PUSH1 0x1 SWAP1 DUP2 OR SWAP1 SWAP2 SSTORE PUSH1 0x40 MLOAD SWAP1 DUP2 MSTORE CALLER SWAP1 PUSH1 0x0 DUP1 MLOAD PUSH1 0x20 PUSH2 0x47C0 DUP4 CODECOPY DUP2 MLOAD SWAP2 MSTORE SWAP1 PUSH1 0x20 ADD JUMPDEST PUSH1 0x40 MLOAD DUP1 SWAP2 SUB SWAP1 LOG2 PUSH2 0x313D JUMP JUMPDEST DUP3 PUSH1 0x2 EQ DUP1 ISZERO PUSH2 0x30B5 JUMPI POP PUSH1 0x2 DUP2 DUP2 ADD SLOAD PUSH1 0xFF AND LT JUMPDEST ISZERO PUSH2 0x30E9 JUMPI PUSH1 0x2 DUP2 DUP2 ADD DUP1 SLOAD PUSH1 0xFF NOT AND DUP3 OR SWAP1 SSTORE PUSH1 0x40 MLOAD SWAP1 DUP2 MSTORE CALLER SWAP1 PUSH1 0x0 DUP1 MLOAD PUSH1 0x20 PUSH2 0x47C0 DUP4 CODECOPY DUP2 MLOAD SWAP2 MSTORE SWAP1 PUSH1 0x20 ADD PUSH2 0x3092 JUMP JUMPDEST DUP3 PUSH1 0x3 EQ DUP1 ISZERO PUSH2 0x3102 JUMPI POP PUSH1 0x2 DUP2 ADD SLOAD PUSH1 0x3 PUSH1 0xFF SWAP1 SWAP2 AND LT JUMPDEST ISZERO PUSH2 0x313D JUMPI PUSH1 0x2 DUP2 ADD DUP1 SLOAD PUSH1 0xFF NOT AND PUSH1 0x3 SWAP1 DUP2 OR SWAP1 SWAP2 SSTORE PUSH1 0x40 MLOAD SWAP1 DUP2 MSTORE CALLER SWAP1 PUSH1 0x0 DUP1 MLOAD PUSH1 0x20 PUSH2 0x47C0 DUP4 CODECOPY DUP2 MLOAD SWAP2 MSTORE SWAP1 PUSH1 0x20 ADD PUSH1 0x40 MLOAD DUP1 SWAP2 SUB SWAP1 LOG2 JUMPDEST DUP1 SLOAD PUSH1 0x1 PUSH1 0x1 PUSH1 0xA0 SHL SUB AND ISZERO DUP1 ISZERO PUSH2 0x3160 JUMPI POP PUSH1 0x0 SLOAD PUSH1 0x1 PUSH1 0x1 PUSH1 0xA0 SHL SUB AND CALLER EQ ISZERO JUMPDEST ISZERO PUSH2 0x3263 JUMPI PUSH1 0x0 DUP1 SLOAD CALLER DUP3 MSTORE PUSH1 0x1D PUSH1 0x20 MSTORE PUSH1 0x40 DUP1 DUP4 KECCAK256 DUP1 SLOAD PUSH1 0x1 PUSH1 0x1 PUSH1 0xA0 SHL SUB NOT AND PUSH1 0x1 PUSH1 0x1 PUSH1 0xA0 SHL SUB SWAP4 DUP5 AND OR SWAP1 SSTORE DUP3 SLOAD SWAP1 SWAP2 AND DUP3 MSTORE DUP2 KECCAK256 PUSH1 0x1 ADD DUP1 SLOAD SWAP2 PUSH2 0x31A8 DUP4 PUSH2 0x46EC JUMP JUMPDEST SWAP2 SWAP1 POP SSTORE POP PUSH2 0x31E9 CALLER PUSH1 0x1D PUSH1 0x0 PUSH2 0x31C7 PUSH1 0x0 SLOAD PUSH1 0x1 PUSH1 0x1 PUSH1 0xA0 SHL SUB AND SWAP1 JUMP JUMPDEST PUSH1 0x1 PUSH1 0x1 PUSH1 0xA0 SHL SUB AND DUP2 MSTORE PUSH1 0x20 DUP2 ADD SWAP2 SWAP1 SWAP2 MSTORE PUSH1 0x40 ADD PUSH1 0x0 KECCAK256 PUSH1 0x8 ADD SWAP1 PUSH2 0x38EA JUMP JUMPDEST POP PUSH1 0x1E DUP1 SLOAD PUSH1 0x1 DUP2 ADD DUP3 SSTORE PUSH1 0x0 SWAP2 DUP3 MSTORE PUSH32 0x50BB669A95C7B50B7E8A6F09454034B2B14CF2B85C730DCA9A539CA82CB6E350 ADD DUP1 SLOAD PUSH1 0x1 PUSH1 0x1 PUSH1 0xA0 SHL SUB NOT AND CALLER SWAP1 DUP2 OR SWAP1 SWAP2 SSTORE DUP2 SLOAD PUSH1 0x40 MLOAD PUSH1 0x1 PUSH1 0x1 PUSH1 0xA0 SHL SUB SWAP1 SWAP2 AND SWAP3 PUSH32 0x98ADA70A1CB506DC4591465E1EE9BE3FD7A2B6C73ECF3B949009718C9A351519 SWAP2 LOG3 JUMPDEST PUSH1 0x40 DUP1 MLOAD DUP5 DUP2 MSTORE PUSH1 0x20 DUP2 ADD DUP5 SWAP1 MSTORE CALLER SWAP2 PUSH32 0x281C1BAF144EF6FF8337E881C1101A16E16AA99104C7F1FD2D63B6B8B2F81D79 SWAP2 ADD PUSH2 0x20AE JUMP JUMPDEST PUSH1 0x28 DUP2 DUP2 SLOAD DUP2 LT PUSH2 0x2367 JUMPI PUSH1 0x0 DUP1 REVERT JUMPDEST PUSH2 0x32B3 PUSH2 0x3451 JUMP JUMPDEST PUSH1 0x1 PUSH1 0x1 PUSH1 0xA0 SHL SUB DUP2 AND PUSH2 0x3318 JUMPI PUSH1 0x40 MLOAD PUSH3 0x461BCD PUSH1 0xE5 SHL DUP2 MSTORE PUSH1 0x20 PUSH1 0x4 DUP3 ADD MSTORE PUSH1 0x26 PUSH1 0x24 DUP3 ADD MSTORE PUSH32 0x4F776E61626C653A206E6577206F776E657220697320746865207A65726F2061 PUSH1 0x44 DUP3 ADD MSTORE PUSH6 0x646472657373 PUSH1 0xD0 SHL PUSH1 0x64 DUP3 ADD MSTORE PUSH1 0x84 ADD PUSH2 0xE31 JUMP JUMPDEST PUSH2 0x1A26 DUP2 PUSH2 0x38FF JUMP JUMPDEST PUSH2 0x3329 PUSH2 0x3451 JUMP JUMPDEST PUSH1 0x2E SLOAD DUP1 ISZERO DUP1 ISZERO SWAP1 PUSH2 0x33AE JUMPI POP PUSH1 0x40 MLOAD PUSH4 0x70A08231 PUSH1 0xE0 SHL DUP2 MSTORE ADDRESS PUSH1 0x4 DUP3 ADD MSTORE DUP2 SWAP1 PUSH20 0x570A5D26F7765ECB712C0924E4DE545B89FD43DF SWAP1 PUSH4 0x70A08231 SWAP1 PUSH1 0x24 ADD PUSH1 0x20 PUSH1 0x40 MLOAD DUP1 DUP4 SUB DUP2 DUP7 GAS STATICCALL ISZERO DUP1 ISZERO PUSH2 0x3387 JUMPI RETURNDATASIZE PUSH1 0x0 DUP1 RETURNDATACOPY RETURNDATASIZE PUSH1 0x0 REVERT JUMPDEST POP POP POP POP PUSH1 0x40 MLOAD RETURNDATASIZE PUSH1 0x1F NOT PUSH1 0x1F DUP3 ADD AND DUP3 ADD DUP1 PUSH1 0x40 MSTORE POP DUP2 ADD SWAP1 PUSH2 0x33AB SWAP2 SWAP1 PUSH2 0x460D JUMP JUMPDEST LT ISZERO JUMPDEST ISZERO PUSH2 0x1A26 JUMPI PUSH1 0x0 PUSH1 0x2E SSTORE POP JUMP JUMPDEST PUSH1 0x2 PUSH1 0x1 SLOAD SUB PUSH2 0x340D JUMPI PUSH1 0x40 MLOAD PUSH3 0x461BCD PUSH1 0xE5 SHL DUP2 MSTORE PUSH1 0x20 PUSH1 0x4 DUP3 ADD MSTORE PUSH1 0x1F PUSH1 0x24 DUP3 ADD MSTORE PUSH32 0x5265656E7472616E637947756172643A207265656E7472616E742063616C6C00 PUSH1 0x44 DUP3 ADD MSTORE PUSH1 0x64 ADD PUSH2 0xE31 JUMP JUMPDEST PUSH1 0x2 PUSH1 0x1 SSTORE JUMP JUMPDEST PUSH1 0x20 SLOAD ISZERO PUSH2 0x1A26 JUMPI PUSH1 0x20 SLOAD PUSH2 0x342E DUP3 PUSH5 0xE8D4A51000 PUSH2 0x463C JUMP JUMPDEST PUSH2 0x3438 SWAP2 SWAP1 PUSH2 0x4653 JUMP JUMPDEST PUSH1 0x21 PUSH1 0x0 DUP3 DUP3 SLOAD PUSH2 0x3449 SWAP2 SWAP1 PUSH2 0x4688 JUMP JUMPDEST SWAP1 SWAP2 SSTORE POP POP POP JUMP JUMPDEST PUSH1 0x0 SLOAD PUSH1 0x1 PUSH1 0x1 PUSH1 0xA0 SHL SUB AND CALLER EQ PUSH2 0x15DB JUMPI PUSH1 0x40 MLOAD PUSH3 0x461BCD PUSH1 0xE5 SHL DUP2 MSTORE PUSH1 0x20 PUSH1 0x4 DUP3 ADD DUP2 SWAP1 MSTORE PUSH1 0x24 DUP3 ADD MSTORE PUSH32 0x4F776E61626C653A2063616C6C6572206973206E6F7420746865206F776E6572 PUSH1 0x44 DUP3 ADD MSTORE PUSH1 0x64 ADD PUSH2 0xE31 JUMP JUMPDEST PUSH1 0x40 DUP1 MLOAD PUSH1 0x60 DUP2 ADD DUP1 DUP4 MSTORE PUSH1 0x3 SLOAD PUSH4 0xB629640B PUSH1 0xE0 SHL SWAP1 SWAP2 MSTORE SWAP2 MLOAD PUSH1 0x0 SWAP3 DUP3 SWAP2 PUSH1 0x1 PUSH1 0x1 PUSH1 0xA0 SHL SUB SWAP1 SWAP2 AND SWAP1 PUSH4 0xB629640B SWAP1 PUSH1 0x64 DUP1 DUP6 ADD SWAP2 PUSH1 0x20 SWAP2 DUP2 DUP8 SUB ADD DUP2 DUP7 GAS STATICCALL ISZERO DUP1 ISZERO PUSH2 0x34FF JUMPI RETURNDATASIZE PUSH1 0x0 DUP1 RETURNDATACOPY RETURNDATASIZE PUSH1 0x0 REVERT JUMPDEST POP POP POP POP PUSH1 0x40 MLOAD RETURNDATASIZE PUSH1 0x1F NOT PUSH1 0x1F DUP3 ADD AND DUP3 ADD DUP1 PUSH1 0x40 MSTORE POP DUP2 ADD SWAP1 PUSH2 0x3523 SWAP2 SWAP1 PUSH2 0x460D JUMP JUMPDEST DUP2 MSTORE PUSH1 0x3 SLOAD PUSH1 0x40 DUP1 MLOAD PUSH4 0x193491B5 PUSH1 0xE0 SHL DUP2 MSTORE SWAP1 MLOAD PUSH1 0x20 SWAP4 DUP5 ADD SWAP4 PUSH1 0x1 PUSH1 0x1 PUSH1 0xA0 SHL SUB SWAP1 SWAP4 AND SWAP3 PUSH4 0x193491B5 SWAP3 PUSH1 0x4 DUP1 DUP3 ADD SWAP4 SWAP2 DUP3 SWAP1 SUB ADD DUP2 DUP7 GAS STATICCALL ISZERO DUP1 ISZERO PUSH2 0x3570 JUMPI RETURNDATASIZE PUSH1 0x0 DUP1 RETURNDATACOPY RETURNDATASIZE PUSH1 0x0 REVERT JUMPDEST POP POP POP POP PUSH1 0x40 MLOAD RETURNDATASIZE PUSH1 0x1F NOT PUSH1 0x1F DUP3 ADD AND DUP3 ADD DUP1 PUSH1 0x40 MSTORE POP DUP2 ADD SWAP1 PUSH2 0x3594 SWAP2 SWAP1 PUSH2 0x460D JUMP JUMPDEST DUP2 MSTORE PUSH1 0x3 SLOAD PUSH1 0x40 DUP1 MLOAD PUSH4 0xD15DFE2D PUSH1 0xE0 SHL DUP2 MSTORE SWAP1 MLOAD PUSH1 0x20 SWAP4 DUP5 ADD SWAP4 PUSH1 0x1 PUSH1 0x1 PUSH1 0xA0 SHL SUB SWAP1 SWAP4 AND SWAP3 PUSH4 0xD15DFE2D SWAP3 PUSH1 0x4 DUP1 DUP3 ADD SWAP4 SWAP2 DUP3 SWAP1 SUB ADD DUP2 DUP7 GAS STATICCALL ISZERO DUP1 ISZERO PUSH2 0x35E1 JUMPI RETURNDATASIZE PUSH1 0x0 DUP1 RETURNDATACOPY RETURNDATASIZE PUSH1 0x0 REVERT JUMPDEST POP POP POP POP PUSH1 0x40 MLOAD RETURNDATASIZE PUSH1 0x1F NOT PUSH1 0x1F DUP3 ADD AND DUP3 ADD DUP1 PUSH1 0x40 MSTORE POP DUP2 ADD SWAP1 PUSH2 0x3605 SWAP2 SWAP1 PUSH2 0x460D JUMP JUMPDEST DUP2 MSTORE POP SWAP1 POP PUSH1 0x0 PUSH1 0x40 MLOAD DUP1 PUSH1 0x60 ADD PUSH1 0x40 MSTORE DUP1 PUSH1 0x3 PUSH1 0x0 SWAP1 SLOAD SWAP1 PUSH2 0x100 EXP SWAP1 DIV PUSH1 0x1 PUSH1 0x1 PUSH1 0xA0 SHL SUB AND PUSH1 0x1 PUSH1 0x1 PUSH1 0xA0 SHL SUB AND PUSH4 0xBC1E4023 PUSH1 0x40 MLOAD DUP2 PUSH4 0xFFFFFFFF AND PUSH1 0xE0 SHL DUP2 MSTORE PUSH1 0x4 ADD PUSH1 0x20 PUSH1 0x40 MLOAD DUP1 DUP4 SUB DUP2 DUP7 GAS STATICCALL ISZERO DUP1 ISZERO PUSH2 0x366A JUMPI RETURNDATASIZE PUSH1 0x0 DUP1 RETURNDATACOPY RETURNDATASIZE PUSH1 0x0 REVERT JUMPDEST POP POP POP POP PUSH1 0x40 MLOAD RETURNDATASIZE PUSH1 0x1F NOT PUSH1 0x1F DUP3 ADD AND DUP3 ADD DUP1 PUSH1 0x40 MSTORE POP DUP2 ADD SWAP1 PUSH2 0x368E SWAP2 SWAP1 PUSH2 0x460D JUMP JUMPDEST DUP2 MSTORE PUSH1 0x3 SLOAD PUSH1 0x40 DUP1 MLOAD PUSH4 0x20083B89 PUSH1 0xE0 SHL DUP2 MSTORE SWAP1 MLOAD PUSH1 0x20 SWAP4 DUP5 ADD SWAP4 PUSH1 0x1 PUSH1 0x1 PUSH1 0xA0 SHL SUB SWAP1 SWAP4 AND SWAP3 PUSH4 0x20083B89 SWAP3 PUSH1 0x4 DUP1 DUP3 ADD SWAP4 SWAP2 DUP3 SWAP1 SUB ADD DUP2 DUP7 GAS STATICCALL ISZERO DUP1 ISZERO PUSH2 0x36DB JUMPI RETURNDATASIZE PUSH1 0x0 DUP1 RETURNDATACOPY RETURNDATASIZE PUSH1 0x0 REVERT JUMPDEST POP POP POP POP PUSH1 0x40 MLOAD RETURNDATASIZE PUSH1 0x1F NOT PUSH1 0x1F DUP3 ADD AND DUP3 ADD DUP1 PUSH1 0x40 MSTORE POP DUP2 ADD SWAP1 PUSH2 0x36FF SWAP2 SWAP1 PUSH2 0x460D JUMP JUMPDEST DUP2 MSTORE PUSH1 0x3 SLOAD PUSH1 0x40 DUP1 MLOAD PUSH4 0x3C07AAC9 PUSH1 0xE2 SHL DUP2 MSTORE SWAP1 MLOAD PUSH1 0x20 SWAP4 DUP5 ADD SWAP4 PUSH1 0x1 PUSH1 0x1 PUSH1 0xA0 SHL SUB SWAP1 SWAP4 AND SWAP3 PUSH4 0xF01EAB24 SWAP3 PUSH1 0x4 DUP1 DUP3 ADD SWAP4 SWAP2 DUP3 SWAP1 SUB ADD DUP2 DUP7 GAS STATICCALL ISZERO DUP1 ISZERO PUSH2 0x374C JUMPI RETURNDATASIZE PUSH1 0x0 DUP1 RETURNDATACOPY RETURNDATASIZE PUSH1 0x0 REVERT JUMPDEST POP POP POP POP PUSH1 0x40 MLOAD RETURNDATASIZE PUSH1 0x1F NOT PUSH1 0x1F DUP3 ADD AND DUP3 ADD DUP1 PUSH1 0x40 MSTORE POP DUP2 ADD SWAP1 PUSH2 0x3770 SWAP2 SWAP1 PUSH2 0x460D JUMP JUMPDEST SWAP1 MSTORE SWAP1 POP PUSH1 0xF PUSH1 0x0 JUMPDEST PUSH1 0x3 DUP2 LT ISZERO PUSH2 0x383D JUMPI PUSH1 0x0 DUP5 DUP3 PUSH1 0x3 DUP2 LT PUSH2 0x3796 JUMPI PUSH2 0x3796 PUSH2 0x46D6 JUMP JUMPDEST PUSH1 0x20 MUL ADD MLOAD GT ISZERO PUSH2 0x382B JUMPI PUSH1 0x0 DUP3 DUP5 DUP4 PUSH1 0x3 DUP2 LT PUSH2 0x37B6 JUMPI PUSH2 0x37B6 PUSH2 0x46D6 JUMP JUMPDEST PUSH1 0x20 MUL ADD MLOAD PUSH2 0x37C5 SWAP1 DUP9 PUSH2 0x463C JUMP JUMPDEST PUSH2 0x37CF SWAP2 SWAP1 PUSH2 0x4653 JUMP JUMPDEST SWAP1 POP DUP5 DUP3 PUSH1 0x3 DUP2 LT PUSH2 0x37E3 JUMPI PUSH2 0x37E3 PUSH2 0x46D6 JUMP JUMPDEST PUSH1 0x20 MUL ADD MLOAD PUSH2 0x37F7 DUP3 PUSH5 0xE8D4A51000 PUSH2 0x463C JUMP JUMPDEST PUSH2 0x3801 SWAP2 SWAP1 PUSH2 0x4653 JUMP JUMPDEST PUSH1 0x31 DUP4 PUSH1 0x3 DUP2 LT PUSH2 0x3814 JUMPI PUSH2 0x3814 PUSH2 0x46D6 JUMP JUMPDEST ADD PUSH1 0x0 DUP3 DUP3 SLOAD PUSH2 0x3824 SWAP2 SWAP1 PUSH2 0x4688 JUMP JUMPDEST SWAP1 SWAP2 SSTORE POP POP POP JUMPDEST DUP1 PUSH2 0x3835 DUP2 PUSH2 0x46EC JUMP JUMPDEST SWAP2 POP POP PUSH2 0x3779 JUMP JUMPDEST POP POP POP POP POP JUMP JUMPDEST PUSH1 0x0 PUSH2 0x3851 PUSH1 0x8 DUP4 PUSH2 0x4653 JUMP JUMPDEST SWAP1 POP PUSH1 0x0 JUMPDEST PUSH1 0x8 DUP2 LT ISZERO PUSH2 0x38E5 JUMPI PUSH1 0x0 PUSH1 0x35 DUP3 PUSH1 0x8 DUP2 LT PUSH2 0x3874 JUMPI PUSH2 0x3874 PUSH2 0x46D6 JUMP JUMPDEST ADD SLOAD GT ISZERO PUSH2 0x38D3 JUMPI PUSH1 0x35 DUP2 PUSH1 0x8 DUP2 LT PUSH2 0x388F JUMPI PUSH2 0x388F PUSH2 0x46D6 JUMP JUMPDEST ADD SLOAD PUSH2 0x38A0 DUP4 PUSH5 0xE8D4A51000 PUSH2 0x463C JUMP JUMPDEST PUSH2 0x38AA SWAP2 SWAP1 PUSH2 0x4653 JUMP JUMPDEST PUSH1 0x3D DUP3 PUSH1 0x8 DUP2 LT PUSH2 0x38BD JUMPI PUSH2 0x38BD PUSH2 0x46D6 JUMP JUMPDEST ADD PUSH1 0x0 DUP3 DUP3 SLOAD PUSH2 0x38CD SWAP2 SWAP1 PUSH2 0x4688 JUMP JUMPDEST SWAP1 SWAP2 SSTORE POP POP JUMPDEST DUP1 PUSH2 0x38DD DUP2 PUSH2 0x46EC JUMP JUMPDEST SWAP2 POP POP PUSH2 0x3856 JUMP JUMPDEST POP POP POP JUMP JUMPDEST PUSH1 0x0 PUSH2 0x16D9 DUP4 PUSH1 0x1 PUSH1 0x1 PUSH1 0xA0 SHL SUB DUP5 AND PUSH2 0x4084 JUMP JUMPDEST PUSH1 0x0 DUP1 SLOAD PUSH1 0x1 PUSH1 0x1 PUSH1 0xA0 SHL SUB DUP4 DUP2 AND PUSH1 0x1 PUSH1 0x1 PUSH1 0xA0 SHL SUB NOT DUP4 AND DUP2 OR DUP5 SSTORE PUSH1 0x40 MLOAD SWAP2 SWAP1 SWAP3 AND SWAP3 DUP4 SWAP2 PUSH32 0x8BE0079C531659141344CD1FD0A4F28419497F9722A3DAAFE3B4186F6B6457E0 SWAP2 SWAP1 LOG3 POP POP JUMP JUMPDEST PUSH1 0x0 DUP2 DUP2 MSTORE PUSH1 0x26 PUSH1 0x20 SWAP1 DUP2 MSTORE PUSH1 0x40 DUP1 DUP4 KECCAK256 SLOAD PUSH1 0x1 PUSH1 0x1 PUSH1 0xA0 SHL SUB DUP7 AND DUP5 MSTORE PUSH1 0x23 DUP4 MSTORE DUP2 DUP5 KECCAK256 DUP6 DUP6 MSTORE SWAP1 SWAP3 MSTORE DUP3 KECCAK256 SLOAD PUSH5 0xE8D4A51000 SWAP2 PUSH2 0x398D SWAP2 PUSH2 0x463C JUMP JUMPDEST PUSH2 0x3997 SWAP2 SWAP1 PUSH2 0x4653 JUMP JUMPDEST SWAP1 POP DUP1 ISZERO PUSH2 0x38E5 JUMPI PUSH1 0x5 SLOAD PUSH1 0x0 SWAP1 PUSH2 0x39B7 DUP4 PUSH8 0xDE0B6B3A7640000 PUSH2 0x463C JUMP JUMPDEST PUSH2 0x39C1 SWAP2 SWAP1 PUSH2 0x4653 JUMP JUMPDEST PUSH1 0x2 SLOAD PUSH1 0x40 MLOAD PUSH4 0x40C10F19 PUSH1 0xE0 SHL DUP2 MSTORE SWAP2 SWAP3 POP PUSH1 0x1 PUSH1 0x1 PUSH1 0xA0 SHL SUB AND SWAP1 PUSH4 0x40C10F19 SWAP1 PUSH2 0x39F4 SWAP1 DUP8 SWAP1 DUP6 SWAP1 PUSH1 0x4 ADD PUSH2 0x469B JUMP JUMPDEST PUSH1 0x0 PUSH1 0x40 MLOAD DUP1 DUP4 SUB DUP2 PUSH1 0x0 DUP8 DUP1 EXTCODESIZE ISZERO DUP1 ISZERO PUSH2 0x3A0E JUMPI PUSH1 0x0 DUP1 REVERT JUMPDEST POP GAS CALL ISZERO DUP1 ISZERO PUSH2 0x3A22 JUMPI RETURNDATASIZE PUSH1 0x0 DUP1 RETURNDATACOPY RETURNDATASIZE PUSH1 0x0 REVERT JUMPDEST POP POP POP POP POP POP POP POP JUMP JUMPDEST DUP2 JUMPDEST PUSH1 0x1 PUSH1 0x1 PUSH1 0xA0 SHL SUB DUP2 AND ISZERO PUSH2 0x38E5 JUMPI PUSH1 0x1 PUSH1 0x1 PUSH1 0xA0 SHL SUB DUP2 AND PUSH1 0x0 SWAP1 DUP2 MSTORE PUSH1 0x1D PUSH1 0x20 MSTORE PUSH1 0x40 DUP2 KECCAK256 PUSH1 0x4 ADD DUP1 SLOAD DUP5 SWAP3 SWAP1 PUSH2 0x3A68 SWAP1 DUP5 SWAP1 PUSH2 0x4688 JUMP JUMPDEST SWAP1 SWAP2 SSTORE POP POP PUSH1 0x1 PUSH1 0x1 PUSH1 0xA0 SHL SUB SWAP1 DUP2 AND PUSH1 0x0 SWAP1 DUP2 MSTORE PUSH1 0x1D PUSH1 0x20 MSTORE PUSH1 0x40 SWAP1 KECCAK256 SLOAD AND PUSH2 0x3A2E JUMP JUMPDEST PUSH1 0x0 PUSH1 0x64 PUSH2 0x3A9C DUP4 PUSH1 0x1E PUSH2 0x463C JUMP JUMPDEST PUSH2 0x3AA6 SWAP2 SWAP1 PUSH2 0x4653 JUMP JUMPDEST SWAP1 POP PUSH1 0x0 PUSH1 0x64 PUSH2 0x3AB7 DUP5 PUSH1 0xF PUSH2 0x463C JUMP JUMPDEST PUSH2 0x3AC1 SWAP2 SWAP1 PUSH2 0x4653 JUMP JUMPDEST SWAP1 POP PUSH1 0x0 PUSH1 0x64 PUSH2 0x3AD2 DUP6 PUSH1 0x1E PUSH2 0x463C JUMP JUMPDEST PUSH2 0x3ADC SWAP2 SWAP1 PUSH2 0x4653 JUMP JUMPDEST SWAP1 POP PUSH1 0x0 PUSH1 0x64 PUSH2 0x3AED DUP7 PUSH1 0xA PUSH2 0x463C JUMP JUMPDEST PUSH2 0x3AF7 SWAP2 SWAP1 PUSH2 0x4653 JUMP JUMPDEST SWAP1 POP PUSH1 0x0 PUSH1 0x64 PUSH2 0x3B08 DUP8 PUSH1 0x7 PUSH2 0x463C JUMP JUMPDEST PUSH2 0x3B12 SWAP2 SWAP1 PUSH2 0x4653 JUMP JUMPDEST SWAP1 POP PUSH1 0x0 PUSH1 0x64 PUSH2 0x3B23 DUP9 PUSH1 0x8 PUSH2 0x463C JUMP JUMPDEST PUSH2 0x3B2D SWAP2 SWAP1 PUSH2 0x4653 JUMP JUMPDEST PUSH1 0x1 PUSH1 0x1 PUSH1 0xA0 SHL SUB DUP1 DUP11 AND PUSH1 0x0 SWAP1 DUP2 MSTORE PUSH1 0x1D PUSH1 0x20 MSTORE PUSH1 0x40 SWAP1 KECCAK256 SLOAD SWAP2 SWAP3 POP AND DUP1 ISZERO PUSH2 0x3BD5 JUMPI PUSH1 0x1 PUSH1 0x1 PUSH1 0xA0 SHL SUB DUP2 AND PUSH1 0x0 SWAP1 DUP2 MSTORE PUSH1 0x1D PUSH1 0x20 MSTORE PUSH1 0x40 SWAP1 KECCAK256 PUSH1 0x5 ADD SLOAD DUP8 GT PUSH2 0x3BA4 JUMPI PUSH1 0x1 PUSH1 0x1 PUSH1 0xA0 SHL SUB DUP2 AND PUSH1 0x0 SWAP1 DUP2 MSTORE PUSH1 0x1D PUSH1 0x20 MSTORE PUSH1 0x40 DUP2 KECCAK256 PUSH1 0x5 ADD DUP1 SLOAD DUP10 SWAP3 SWAP1 PUSH2 0x3B9E SWAP1 DUP5 SWAP1 PUSH2 0x4675 JUMP JUMPDEST SWAP1 SWAP2 SSTORE POP POP JUMPDEST PUSH1 0x1 PUSH1 0x1 PUSH1 0xA0 SHL SUB DUP2 AND PUSH1 0x0 SWAP1 DUP2 MSTORE PUSH1 0x1D PUSH1 0x20 MSTORE PUSH1 0x40 DUP2 KECCAK256 PUSH1 0x6 ADD DUP1 SLOAD DUP10 SWAP3 SWAP1 PUSH2 0x3BCF SWAP1 DUP5 SWAP1 PUSH2 0x4688 JUMP JUMPDEST SWAP1 SWAP2 SSTORE POP POP JUMPDEST PUSH2 0x3BDF DUP10 DUP8 PUSH2 0x40D3 JUMP JUMPDEST PUSH2 0x3BE9 DUP10 DUP7 PUSH2 0x422F JUMP JUMPDEST PUSH2 0x3BF3 DUP10 DUP6 PUSH2 0x4343 JUMP JUMPDEST DUP3 PUSH1 0x2E PUSH1 0x0 DUP3 DUP3 SLOAD PUSH2 0x3C05 SWAP2 SWAP1 PUSH2 0x4688 JUMP JUMPDEST SWAP3 POP POP DUP2 SWAP1 SSTORE POP DUP2 PUSH1 0x2F PUSH1 0x0 DUP3 DUP3 SLOAD PUSH2 0x3C1E SWAP2 SWAP1 PUSH2 0x4688 JUMP JUMPDEST SWAP1 SWAP2 SSTORE POP POP POP POP POP POP POP POP POP POP POP JUMP JUMPDEST PUSH1 0x1 PUSH1 0x1 PUSH1 0xA0 SHL SUB DUP2 AND PUSH1 0x0 SWAP1 DUP2 MSTORE PUSH1 0x1D PUSH1 0x20 MSTORE PUSH1 0x40 DUP2 KECCAK256 SWAP1 DUP1 DUP1 PUSH2 0x3C55 PUSH1 0x8 DUP6 ADD PUSH2 0x445F JUMP JUMPDEST SWAP1 POP PUSH1 0x0 JUMPDEST DUP2 MLOAD DUP2 LT ISZERO PUSH2 0x3CD5 JUMPI PUSH1 0x0 PUSH1 0x1D PUSH1 0x0 DUP5 DUP5 DUP2 MLOAD DUP2 LT PUSH2 0x3C7B JUMPI PUSH2 0x3C7B PUSH2 0x46D6 JUMP JUMPDEST PUSH1 0x20 MUL PUSH1 0x20 ADD ADD MLOAD PUSH1 0x1 PUSH1 0x1 PUSH1 0xA0 SHL SUB AND PUSH1 0x1 PUSH1 0x1 PUSH1 0xA0 SHL SUB AND DUP2 MSTORE PUSH1 0x20 ADD SWAP1 DUP2 MSTORE PUSH1 0x20 ADD PUSH1 0x0 KECCAK256 PUSH1 0x4 ADD SLOAD SWAP1 POP DUP5 DUP2 GT ISZERO PUSH2 0x3CB5 JUMPI DUP1 SWAP5 POP JUMPDEST PUSH2 0x3CBF DUP2 DUP6 PUSH2 0x4688 JUMP JUMPDEST SWAP4 POP POP DUP1 DUP1 PUSH2 0x3CCD SWAP1 PUSH2 0x46EC JUMP JUMPDEST SWAP2 POP POP PUSH2 0x3C5A JUMP JUMPDEST POP PUSH1 0x0 PUSH2 0x3CE2 DUP5 DUP5 PUSH2 0x4675 JUMP JUMPDEST SWAP1 POP PUSH1 0x0 PUSH10 0x43C33C1937564800000 DUP3 LT PUSH2 0x3CFF JUMPI POP PUSH1 0x6 PUSH2 0x3D74 JUMP JUMPDEST PUSH10 0x14542BA12A337C00000 DUP3 LT PUSH2 0x3D18 JUMPI POP PUSH1 0x5 PUSH2 0x3D74 JUMP JUMPDEST PUSH9 0x6C6B935B8BBD400000 DUP3 LT PUSH2 0x3D30 JUMPI POP PUSH1 0x4 PUSH2 0x3D74 JUMP JUMPDEST PUSH9 0x2086AC351052600000 DUP3 LT PUSH2 0x3D48 JUMPI POP PUSH1 0x3 PUSH2 0x3D74 JUMP JUMPDEST PUSH9 0xAD78EBC5AC6200000 DUP3 LT PUSH2 0x3D60 JUMPI POP PUSH1 0x2 PUSH2 0x3D74 JUMP JUMPDEST PUSH9 0x56BC75E2D63100000 DUP3 LT PUSH2 0x3D74 JUMPI POP PUSH1 0x1 JUMPDEST PUSH1 0x2 DUP7 ADD SLOAD PUSH1 0xFF SWAP1 DUP2 AND SWAP1 DUP3 AND GT ISZERO PUSH2 0x3DC8 JUMPI PUSH1 0x2 DUP7 ADD DUP1 SLOAD PUSH1 0xFF NOT AND PUSH1 0xFF DUP4 AND SWAP1 DUP2 OR SWAP1 SWAP2 SSTORE PUSH1 0x40 MLOAD SWAP1 DUP2 MSTORE PUSH1 0x1 PUSH1 0x1 PUSH1 0xA0 SHL SUB DUP9 AND SWAP1 PUSH1 0x0 DUP1 MLOAD PUSH1 0x20 PUSH2 0x47C0 DUP4 CODECOPY DUP2 MLOAD SWAP2 MSTORE SWAP1 PUSH1 0x20 ADD PUSH1 0x40 MLOAD DUP1 SWAP2 SUB SWAP1 LOG2 JUMPDEST POP POP POP POP POP POP POP JUMP JUMPDEST PUSH1 0x1 PUSH1 0x1 PUSH1 0xA0 SHL SUB DUP2 AND PUSH1 0x0 SWAP1 DUP2 MSTORE PUSH1 0x1D PUSH1 0x20 MSTORE PUSH1 0x40 DUP2 KECCAK256 SWAP1 PUSH2 0x3DF3 DUP4 PUSH2 0x446C JUMP JUMPDEST SWAP1 POP PUSH1 0x0 DUP1 JUMPDEST PUSH1 0x8 DUP2 PUSH1 0xFF AND LT ISZERO PUSH2 0x3E4C JUMPI PUSH1 0x15 DUP2 PUSH1 0xFF AND PUSH1 0x8 DUP2 LT PUSH2 0x3E1B JUMPI PUSH2 0x3E1B PUSH2 0x46D6 JUMP JUMPDEST ADD SLOAD DUP4 LT PUSH2 0x3E35 JUMPI PUSH2 0x3E2E DUP2 PUSH1 0x1 PUSH2 0x4770 JUMP JUMPDEST SWAP2 POP PUSH2 0x3E3A JUMP JUMPDEST PUSH2 0x3E4C JUMP JUMPDEST DUP1 PUSH2 0x3E44 DUP2 PUSH2 0x4789 JUMP JUMPDEST SWAP2 POP POP PUSH2 0x3DF9 JUMP JUMPDEST POP PUSH1 0x2 DUP4 ADD SLOAD PUSH1 0xFF DUP3 DUP2 AND PUSH2 0x100 SWAP1 SWAP3 DIV AND EQ PUSH2 0x3F52 JUMPI PUSH1 0x2 DUP4 ADD SLOAD PUSH2 0x100 SWAP1 DIV PUSH1 0xFF AND ISZERO PUSH2 0x3EB9 JUMPI PUSH1 0x2 DUP4 ADD SLOAD PUSH1 0x35 SWAP1 PUSH2 0x3E91 SWAP1 PUSH1 0x1 SWAP1 PUSH2 0x100 SWAP1 DIV PUSH1 0xFF AND PUSH2 0x4757 JUMP JUMPDEST PUSH1 0xFF AND PUSH1 0x8 DUP2 LT PUSH2 0x3EA4 JUMPI PUSH2 0x3EA4 PUSH2 0x46D6 JUMP JUMPDEST ADD DUP1 SLOAD SWAP1 PUSH1 0x0 PUSH2 0x3EB3 DUP4 PUSH2 0x47A8 JUMP JUMPDEST SWAP2 SWAP1 POP SSTORE POP JUMPDEST PUSH1 0xFF DUP2 AND ISZERO PUSH2 0x3EF7 JUMPI PUSH1 0x35 PUSH2 0x3ECF PUSH1 0x1 DUP4 PUSH2 0x4757 JUMP JUMPDEST PUSH1 0xFF AND PUSH1 0x8 DUP2 LT PUSH2 0x3EE2 JUMPI PUSH2 0x3EE2 PUSH2 0x46D6 JUMP JUMPDEST ADD DUP1 SLOAD SWAP1 PUSH1 0x0 PUSH2 0x3EF1 DUP4 PUSH2 0x46EC JUMP JUMPDEST SWAP2 SWAP1 POP SSTORE POP JUMPDEST PUSH1 0x2 DUP4 ADD DUP1 SLOAD PUSH2 0xFF00 NOT AND PUSH2 0x100 PUSH1 0xFF DUP5 AND SWAP1 DUP2 MUL SWAP2 SWAP1 SWAP2 OR SWAP1 SWAP2 SSTORE PUSH1 0x40 MLOAD SWAP1 DUP2 MSTORE PUSH1 0x1 PUSH1 0x1 PUSH1 0xA0 SHL SUB DUP6 AND SWAP1 PUSH32 0xEB7FC1B9C3DF6B1BB3224F0A7F56E441755A790378C499A7584D55A4B7040014 SWAP1 PUSH1 0x20 ADD PUSH1 0x40 MLOAD DUP1 SWAP2 SUB SWAP1 LOG2 JUMPDEST POP POP POP POP JUMP JUMPDEST PUSH1 0x1 PUSH1 0x1 PUSH1 0xA0 SHL SUB DUP2 AND PUSH1 0x0 SWAP1 DUP2 MSTORE PUSH1 0x29 PUSH1 0x20 MSTORE PUSH1 0x40 SWAP1 KECCAK256 SLOAD PUSH1 0xFF AND ISZERO PUSH2 0x3F7C JUMPI POP JUMP JUMPDEST PUSH1 0x32 PUSH1 0x2A SLOAD LT PUSH2 0x3F89 JUMPI POP JUMP JUMPDEST PUSH1 0x1 PUSH1 0x1 PUSH1 0xA0 SHL SUB DUP2 AND PUSH1 0x0 SWAP1 DUP2 MSTORE PUSH1 0x1D PUSH1 0x20 MSTORE PUSH1 0x40 SWAP1 KECCAK256 PUSH1 0x3 DUP2 ADD SLOAD PUSH10 0x10F0CF064DD59200000 SWAP1 DUP2 GT ISZERO PUSH2 0x3FBE JUMPI POP POP POP JUMP JUMPDEST PUSH1 0x0 PUSH1 0x14 PUSH1 0x2A SLOAD LT PUSH2 0x3FDA JUMPI PUSH10 0xA968163F0A57B400000 PUSH2 0x3FE6 JUMP JUMPDEST PUSH10 0x65A4DA25D3016C00000 JUMPDEST PUSH10 0xFFFFFFFFFFFFFFFFFFFF AND SWAP1 POP DUP1 DUP4 PUSH1 0x6 ADD SLOAD LT ISZERO PUSH2 0x4006 JUMPI POP POP POP POP JUMP JUMPDEST PUSH1 0x1 PUSH1 0x1 PUSH1 0xA0 SHL SUB DUP5 AND PUSH1 0x0 DUP2 DUP2 MSTORE PUSH1 0x29 PUSH1 0x20 MSTORE PUSH1 0x40 DUP2 KECCAK256 DUP1 SLOAD PUSH1 0xFF NOT AND PUSH1 0x1 SWAP1 DUP2 OR SWAP1 SWAP2 SSTORE PUSH1 0x28 DUP1 SLOAD SWAP2 DUP3 ADD DUP2 SSTORE DUP3 MSTORE PUSH32 0xE16DA923A2D88192E5070F37B4571D58682C0D66212EC634D495F33DE3F77AB5 ADD DUP1 SLOAD PUSH1 0x1 PUSH1 0x1 PUSH1 0xA0 SHL SUB NOT AND SWAP1 SWAP3 OR SWAP1 SWAP2 SSTORE PUSH1 0x2A DUP1 SLOAD SWAP2 PUSH2 0x4079 DUP4 PUSH2 0x46EC JUMP JUMPDEST SWAP2 SWAP1 POP SSTORE POP POP POP POP POP JUMP JUMPDEST PUSH1 0x0 DUP2 DUP2 MSTORE PUSH1 0x1 DUP4 ADD PUSH1 0x20 MSTORE PUSH1 0x40 DUP2 KECCAK256 SLOAD PUSH2 0x40CB JUMPI POP DUP2 SLOAD PUSH1 0x1 DUP2 DUP2 ADD DUP5 SSTORE PUSH1 0x0 DUP5 DUP2 MSTORE PUSH1 0x20 DUP1 DUP3 KECCAK256 SWAP1 SWAP4 ADD DUP5 SWAP1 SSTORE DUP5 SLOAD DUP5 DUP3 MSTORE DUP3 DUP7 ADD SWAP1 SWAP4 MSTORE PUSH1 0x40 SWAP1 KECCAK256 SWAP2 SWAP1 SWAP2 SSTORE PUSH2 0x1629 JUMP JUMPDEST POP PUSH1 0x0 PUSH2 0x1629 JUMP JUMPDEST PUSH1 0x0 PUSH2 0x40E0 PUSH1 0xF DUP4 PUSH2 0x4653 JUMP JUMPDEST PUSH1 0x1 PUSH1 0x1 PUSH1 0xA0 SHL SUB DUP1 DUP6 AND PUSH1 0x0 SWAP1 DUP2 MSTORE PUSH1 0x1D PUSH1 0x20 MSTORE PUSH1 0x40 SWAP1 KECCAK256 SLOAD SWAP2 SWAP3 POP AND PUSH1 0x1 JUMPDEST PUSH1 0x1 PUSH1 0x1 PUSH1 0xA0 SHL SUB DUP3 AND ISZERO DUP1 ISZERO SWAP1 PUSH2 0x411A JUMPI POP PUSH1 0xF DUP2 GT ISZERO JUMPDEST ISZERO PUSH2 0x41FD JUMPI PUSH1 0x1 PUSH1 0x1 PUSH1 0xA0 SHL SUB DUP3 AND PUSH1 0x0 SWAP1 DUP2 MSTORE PUSH1 0x1D PUSH1 0x20 MSTORE PUSH1 0x40 DUP2 KECCAK256 PUSH1 0x1 ADD SLOAD PUSH2 0x4146 SWAP1 PUSH1 0x3 PUSH2 0x463C JUMP JUMPDEST SWAP1 POP PUSH1 0xF DUP2 GT ISZERO PUSH2 0x4155 JUMPI POP PUSH1 0xF JUMPDEST DUP1 DUP3 GT PUSH2 0x41B4 JUMPI PUSH1 0x1 PUSH1 0x1 PUSH1 0xA0 SHL SUB DUP4 AND PUSH1 0x0 SWAP1 DUP2 MSTORE PUSH1 0x1D PUSH1 0x20 MSTORE PUSH1 0x40 SWAP1 KECCAK256 PUSH1 0x5 ADD SLOAD DUP5 GT PUSH2 0x41AF JUMPI PUSH1 0x1 PUSH1 0x1 PUSH1 0xA0 SHL SUB DUP4 AND PUSH1 0x0 SWAP1 DUP2 MSTORE PUSH1 0x1D PUSH1 0x20 MSTORE PUSH1 0x40 DUP2 KECCAK256 PUSH1 0x5 ADD DUP1 SLOAD DUP7 SWAP3 SWAP1 PUSH2 0x41A9 SWAP1 DUP5 SWAP1 PUSH2 0x4675 JUMP JUMPDEST SWAP1 SWAP2 SSTORE POP POP JUMPDEST PUSH2 0x41CC JUMP JUMPDEST DUP4 PUSH1 0x2E PUSH1 0x0 DUP3 DUP3 SLOAD PUSH2 0x41C6 SWAP2 SWAP1 PUSH2 0x4688 JUMP JUMPDEST SWAP1 SWAP2 SSTORE POP POP JUMPDEST PUSH1 0x1 PUSH1 0x1 PUSH1 0xA0 SHL SUB SWAP3 DUP4 AND PUSH1 0x0 SWAP1 DUP2 MSTORE PUSH1 0x1D PUSH1 0x20 MSTORE PUSH1 0x40 SWAP1 KECCAK256 SLOAD SWAP1 SWAP3 AND SWAP2 DUP2 PUSH2 0x41F4 DUP2 PUSH2 0x46EC JUMP JUMPDEST SWAP3 POP POP POP PUSH2 0x4101 JUMP JUMPDEST PUSH1 0xF DUP2 GT PUSH2 0x383D JUMPI DUP3 PUSH1 0x2E PUSH1 0x0 DUP3 DUP3 SLOAD PUSH2 0x4217 SWAP2 SWAP1 PUSH2 0x4688 JUMP JUMPDEST SWAP1 SWAP2 SSTORE POP DUP2 SWAP1 POP PUSH2 0x4227 DUP2 PUSH2 0x46EC JUMP JUMPDEST SWAP2 POP POP PUSH2 0x41FD JUMP JUMPDEST PUSH1 0x1 PUSH1 0x1 PUSH1 0xA0 SHL SUB DUP1 DUP4 AND PUSH1 0x0 SWAP1 DUP2 MSTORE PUSH1 0x1D PUSH1 0x20 MSTORE PUSH1 0x40 DUP2 KECCAK256 SLOAD SWAP1 SWAP2 AND SWAP1 JUMPDEST PUSH1 0x1 PUSH1 0x1 PUSH1 0xA0 SHL SUB DUP3 AND ISZERO PUSH2 0x3F52 JUMPI PUSH1 0x1 PUSH1 0x1 PUSH1 0xA0 SHL SUB DUP3 AND PUSH1 0x0 SWAP1 DUP2 MSTORE PUSH1 0x1D PUSH1 0x20 MSTORE PUSH1 0x40 DUP2 KECCAK256 PUSH1 0x2 ADD SLOAD PUSH1 0xFF AND SWAP1 PUSH1 0xE DUP3 PUSH1 0x7 DUP2 LT PUSH2 0x4290 JUMPI PUSH2 0x4290 PUSH2 0x46D6 JUMP JUMPDEST ADD SLOAD SWAP1 POP DUP3 DUP2 GT ISZERO PUSH2 0x431E JUMPI PUSH1 0x0 PUSH2 0x42A8 DUP5 DUP4 PUSH2 0x4675 JUMP JUMPDEST SWAP1 POP PUSH1 0x0 PUSH1 0x1E PUSH2 0x42B8 DUP4 DUP10 PUSH2 0x463C JUMP JUMPDEST PUSH2 0x42C2 SWAP2 SWAP1 PUSH2 0x4653 JUMP JUMPDEST PUSH1 0x1 PUSH1 0x1 PUSH1 0xA0 SHL SUB DUP8 AND PUSH1 0x0 SWAP1 DUP2 MSTORE PUSH1 0x1D PUSH1 0x20 MSTORE PUSH1 0x40 SWAP1 KECCAK256 PUSH1 0x5 ADD SLOAD SWAP1 SWAP2 POP DUP2 GT PUSH2 0x4318 JUMPI PUSH1 0x1 PUSH1 0x1 PUSH1 0xA0 SHL SUB DUP7 AND PUSH1 0x0 SWAP1 DUP2 MSTORE PUSH1 0x1D PUSH1 0x20 MSTORE PUSH1 0x40 DUP2 KECCAK256 PUSH1 0x5 ADD DUP1 SLOAD DUP4 SWAP3 SWAP1 PUSH2 0x4312 SWAP1 DUP5 SWAP1 PUSH2 0x4675 JUMP JUMPDEST SWAP1 SWAP2 SSTORE POP POP JUMPDEST DUP3 SWAP5 POP POP POP JUMPDEST POP POP PUSH1 0x1 PUSH1 0x1 PUSH1 0xA0 SHL SUB SWAP2 DUP3 AND PUSH1 0x0 SWAP1 DUP2 MSTORE PUSH1 0x1D PUSH1 0x20 MSTORE PUSH1 0x40 SWAP1 KECCAK256 SLOAD SWAP1 SWAP2 AND SWAP1 PUSH2 0x424E JUMP JUMPDEST PUSH1 0x1 PUSH1 0x1 PUSH1 0xA0 SHL SUB DUP1 DUP4 AND PUSH1 0x0 SWAP1 DUP2 MSTORE PUSH1 0x1D PUSH1 0x20 MSTORE PUSH1 0x40 DUP2 KECCAK256 SLOAD SWAP1 SWAP2 AND SWAP1 JUMPDEST PUSH1 0x1 PUSH1 0x1 PUSH1 0xA0 SHL SUB DUP3 AND ISZERO PUSH2 0x3F52 JUMPI PUSH1 0x1 PUSH1 0x1 PUSH1 0xA0 SHL SUB DUP3 AND PUSH1 0x0 SWAP1 DUP2 MSTORE PUSH1 0x1D PUSH1 0x20 MSTORE PUSH1 0x40 DUP2 KECCAK256 PUSH1 0x2 ADD SLOAD PUSH1 0xFF AND SWAP1 PUSH1 0x6 DUP3 LT PUSH2 0x43A1 JUMPI POP PUSH1 0xA PUSH2 0x43B0 JUMP JUMPDEST PUSH1 0x3 DUP3 PUSH1 0xFF AND LT PUSH2 0x43B0 JUMPI POP PUSH1 0x5 JUMPDEST DUP3 DUP2 GT ISZERO PUSH2 0x443A JUMPI PUSH1 0x0 PUSH2 0x43C4 DUP5 DUP4 PUSH2 0x4675 JUMP JUMPDEST SWAP1 POP PUSH1 0x0 PUSH1 0xA PUSH2 0x43D4 DUP4 DUP10 PUSH2 0x463C JUMP JUMPDEST PUSH2 0x43DE SWAP2 SWAP1 PUSH2 0x4653 JUMP JUMPDEST PUSH1 0x1 PUSH1 0x1 PUSH1 0xA0 SHL SUB DUP8 AND PUSH1 0x0 SWAP1 DUP2 MSTORE PUSH1 0x1D PUSH1 0x20 MSTORE PUSH1 0x40 SWAP1 KECCAK256 PUSH1 0x5 ADD SLOAD SWAP1 SWAP2 POP DUP2 GT PUSH2 0x4434 JUMPI PUSH1 0x1 PUSH1 0x1 PUSH1 0xA0 SHL SUB DUP7 AND PUSH1 0x0 SWAP1 DUP2 MSTORE PUSH1 0x1D PUSH1 0x20 MSTORE PUSH1 0x40 DUP2 KECCAK256 PUSH1 0x5 ADD DUP1 SLOAD DUP4 SWAP3 SWAP1 PUSH2 0x442E SWAP1 DUP5 SWAP1 PUSH2 0x4675 JUMP JUMPDEST SWAP1 SWAP2 SSTORE POP POP JUMPDEST DUP3 SWAP5 POP POP POP JUMPDEST POP POP PUSH1 0x1 PUSH1 0x1 PUSH1 0xA0 SHL SUB SWAP2 DUP3 AND PUSH1 0x0 SWAP1 DUP2 MSTORE PUSH1 0x1D PUSH1 0x20 MSTORE PUSH1 0x40 SWAP1 KECCAK256 SLOAD SWAP1 SWAP2 AND SWAP1 PUSH2 0x4362 JUMP JUMPDEST PUSH1 0x60 PUSH1 0x0 PUSH2 0x16D9 DUP4 PUSH2 0x4515 JUMP JUMPDEST PUSH1 0x1 PUSH1 0x1 PUSH1 0xA0 SHL SUB DUP2 AND PUSH1 0x0 SWAP1 DUP2 MSTORE PUSH1 0x1D PUSH1 0x20 MSTORE PUSH1 0x40 DUP2 KECCAK256 DUP2 SWAP1 DUP2 SWAP1 PUSH2 0x4494 SWAP1 PUSH1 0x8 ADD PUSH2 0x445F JUMP JUMPDEST SWAP1 POP PUSH1 0x0 JUMPDEST DUP2 MLOAD DUP2 LT ISZERO PUSH2 0x450C JUMPI PUSH1 0x0 PUSH1 0x1D PUSH1 0x0 DUP5 DUP5 DUP2 MLOAD DUP2 LT PUSH2 0x44BA JUMPI PUSH2 0x44BA PUSH2 0x46D6 JUMP JUMPDEST PUSH1 0x20 MUL PUSH1 0x20 ADD ADD MLOAD PUSH1 0x1 PUSH1 0x1 PUSH1 0xA0 SHL SUB AND PUSH1 0x1 PUSH1 0x1 PUSH1 0xA0 SHL SUB AND DUP2 MSTORE PUSH1 0x20 ADD SWAP1 DUP2 MSTORE PUSH1 0x20 ADD PUSH1 0x0 KECCAK256 PUSH1 0x3 ADD SLOAD GT ISZERO PUSH2 0x44FA JUMPI DUP3 PUSH2 0x44F6 DUP2 PUSH2 0x46EC JUMP JUMPDEST SWAP4 POP POP JUMPDEST DUP1 PUSH2 0x4504 DUP2 PUSH2 0x46EC JUMP JUMPDEST SWAP2 POP POP PUSH2 0x4499 JUMP JUMPDEST POP SWAP1 SWAP4 SWAP3 POP POP POP JUMP JUMPDEST PUSH1 0x60 DUP2 PUSH1 0x0 ADD DUP1 SLOAD DUP1 PUSH1 0x20 MUL PUSH1 0x20 ADD PUSH1 0x40 MLOAD SWAP1 DUP2 ADD PUSH1 0x40 MSTORE DUP1 SWAP3 SWAP2 SWAP1 DUP2 DUP2 MSTORE PUSH1 0x20 ADD DUP3 DUP1 SLOAD DUP1 ISZERO PUSH2 0x4565 JUMPI PUSH1 0x20 MUL DUP3 ADD SWAP2 SWAP1 PUSH1 0x0 MSTORE PUSH1 0x20 PUSH1 0x0 KECCAK256 SWAP1 JUMPDEST DUP2 SLOAD DUP2 MSTORE PUSH1 0x20 ADD SWAP1 PUSH1 0x1 ADD SWAP1 DUP1 DUP4 GT PUSH2 0x4551 JUMPI JUMPDEST POP POP POP POP POP SWAP1 POP SWAP2 SWAP1 POP JUMP JUMPDEST PUSH1 0x0 DUP1 PUSH1 0x40 DUP4 DUP6 SUB SLT ISZERO PUSH2 0x4584 JUMPI PUSH1 0x0 DUP1 REVERT JUMPDEST POP POP DUP1 CALLDATALOAD SWAP3 PUSH1 0x20 SWAP1 SWAP2 ADD CALLDATALOAD SWAP2 POP JUMP JUMPDEST DUP1 CALLDATALOAD PUSH1 0x1 PUSH1 0x1 PUSH1 0xA0 SHL SUB DUP2 AND DUP2 EQ PUSH2 0x45AA JUMPI PUSH1 0x0 DUP1 REVERT JUMPDEST SWAP2 SWAP1 POP JUMP JUMPDEST PUSH1 0x0 PUSH1 0x20 DUP3 DUP5 SUB SLT ISZERO PUSH2 0x45C1 JUMPI PUSH1 0x0 DUP1 REVERT JUMPDEST PUSH2 0x16D9 DUP3 PUSH2 0x4593 JUMP JUMPDEST PUSH1 0x0 DUP1 PUSH1 0x40 DUP4 DUP6 SUB SLT ISZERO PUSH2 0x45DD JUMPI PUSH1 0x0 DUP1 REVERT JUMPDEST PUSH2 0x45E6 DUP4 PUSH2 0x4593 JUMP JUMPDEST SWAP5 PUSH1 0x20 SWAP4 SWAP1 SWAP4 ADD CALLDATALOAD SWAP4 POP POP POP JUMP JUMPDEST PUSH1 0x0 PUSH1 0x20 DUP3 DUP5 SUB SLT ISZERO PUSH2 0x4606 JUMPI PUSH1 0x0 DUP1 REVERT JUMPDEST POP CALLDATALOAD SWAP2 SWAP1 POP JUMP JUMPDEST PUSH1 0x0 PUSH1 0x20 DUP3 DUP5 SUB SLT ISZERO PUSH2 0x461F JUMPI PUSH1 0x0 DUP1 REVERT JUMPDEST POP MLOAD SWAP2 SWAP1 POP JUMP JUMPDEST PUSH4 0x4E487B71 PUSH1 0xE0 SHL PUSH1 0x0 MSTORE PUSH1 0x11 PUSH1 0x4 MSTORE PUSH1 0x24 PUSH1 0x0 REVERT JUMPDEST DUP1 DUP3 MUL DUP2 ISZERO DUP3 DUP3 DIV DUP5 EQ OR PUSH2 0x1629 JUMPI PUSH2 0x1629 PUSH2 0x4626 JUMP JUMPDEST PUSH1 0x0 DUP3 PUSH2 0x4670 JUMPI PUSH4 0x4E487B71 PUSH1 0xE0 SHL PUSH1 0x0 MSTORE PUSH1 0x12 PUSH1 0x4 MSTORE PUSH1 0x24 PUSH1 0x0 REVERT JUMPDEST POP DIV SWAP1 JUMP JUMPDEST DUP2 DUP2 SUB DUP2 DUP2 GT ISZERO PUSH2 0x1629 JUMPI PUSH2 0x1629 PUSH2 0x4626 JUMP JUMPDEST DUP1 DUP3 ADD DUP1 DUP3 GT ISZERO PUSH2 0x1629 JUMPI PUSH2 0x1629 PUSH2 0x4626 JUMP JUMPDEST PUSH1 0x1 PUSH1 0x1 PUSH1 0xA0 SHL SUB SWAP3 SWAP1 SWAP3 AND DUP3 MSTORE PUSH1 0x20 DUP3 ADD MSTORE PUSH1 0x40 ADD SWAP1 JUMP JUMPDEST PUSH1 0x0 PUSH1 0x20 DUP3 DUP5 SUB SLT ISZERO PUSH2 0x46C6 JUMPI PUSH1 0x0 DUP1 REVERT JUMPDEST DUP2 MLOAD DUP1 ISZERO ISZERO DUP2 EQ PUSH2 0x16D9 JUMPI PUSH1 0x0 DUP1 REVERT JUMPDEST PUSH4 0x4E487B71 PUSH1 0xE0 SHL PUSH1 0x0 MSTORE PUSH1 0x32 PUSH1 0x4 MSTORE PUSH1 0x24 PUSH1 0x0 REVERT JUMPDEST PUSH1 0x0 PUSH1 0x1 DUP3 ADD PUSH2 0x46FE JUMPI PUSH2 0x46FE PUSH2 0x4626 JUMP JUMPDEST POP PUSH1 0x1 ADD SWAP1 JUMP JUMPDEST PUSH1 0x20 DUP1 DUP3 MSTORE PUSH1 0x14 SWAP1 DUP3 ADD MSTORE PUSH20 0x696E73756666696369656E742062616C616E6365 PUSH1 0x60 SHL PUSH1 0x40 DUP3 ADD MSTORE PUSH1 0x60 ADD SWAP1 JUMP JUMPDEST PUSH1 0x20 DUP1 DUP3 MSTORE PUSH1 0xA SWAP1 DUP3 ADD MSTORE PUSH10 0x6E6F2070656E64696E67 PUSH1 0xB0 SHL PUSH1 0x40 DUP3 ADD MSTORE PUSH1 0x60 ADD SWAP1 JUMP JUMPDEST PUSH1 0xFF DUP3 DUP2 AND DUP3 DUP3 AND SUB SWAP1 DUP2 GT ISZERO PUSH2 0x1629 JUMPI PUSH2 0x1629 PUSH2 0x4626 JUMP JUMPDEST PUSH1 0xFF DUP2 DUP2 AND DUP4 DUP3 AND ADD SWAP1 DUP2 GT ISZERO PUSH2 0x1629 JUMPI PUSH2 0x1629 PUSH2 0x4626 JUMP JUMPDEST PUSH1 0x0 PUSH1 0xFF DUP3 AND PUSH1 0xFF DUP2 SUB PUSH2 0x479F JUMPI PUSH2 0x479F PUSH2 0x4626 JUMP JUMPDEST PUSH1 0x1 ADD SWAP3 SWAP2 POP POP JUMP JUMPDEST PUSH1 0x0 DUP2 PUSH2 0x47B7 JUMPI PUSH2 0x47B7 PUSH2 0x4626 JUMP JUMPDEST POP PUSH1 0x0 NOT ADD SWAP1 JUMP INVALID LOG4 SWAP12 DUP6 PUSH23 0xE012F713BAA7DCEADB7D709AAEC8773B498ECFE582D8B9 0xC0 0xC8 REVERT SMOD 0x4F LOG2 PUSH5 0x6970667358 0x22 SLT KECCAK256 SLOAD PUSH31 0xBDF2FA4BBAA258044471FDE52B1FD7355A5A96AC8B8964FB4ACAA10ED82B64 PUSH20 0x6F6C634300081100336080604052348015620000 GT JUMPI PUSH1 0x0 DUP1 REVERT JUMPDEST POP PUSH1 0x40 MLOAD DUP1 PUSH1 0x40 ADD PUSH1 0x40 MSTORE DUP1 PUSH1 0x8 DUP2 MSTORE PUSH1 0x20 ADD PUSH8 0x2228902A37B5B2B7 PUSH1 0xC1 SHL DUP2 MSTORE POP PUSH1 0x40 MLOAD DUP1 PUSH1 0x40 ADD PUSH1 0x40 MSTORE DUP1 PUSH1 0x2 DUP2 MSTORE PUSH1 0x20 ADD PUSH2 0x4451 PUSH1 0xF0 SHL DUP2 MSTORE POP DUP2 PUSH1 0x3 SWAP1 DUP2 PUSH3 0x5F SWAP2 SWAP1 PUSH3 0x205 JUMP JUMPDEST POP PUSH1 0x4 PUSH3 0x6E DUP3 DUP3 PUSH3 0x205 JUMP JUMPDEST POP POP POP PUSH3 0x90 ADDRESS PUSH13 0x1431E0FAE6D7217CAA0000000 PUSH3 0x96 PUSH1 0x20 SHL PUSH1 0x20 SHR JUMP JUMPDEST PUSH3 0x2F9 JUMP JUMPDEST PUSH1 0x1 PUSH1 0x1 PUSH1 0xA0 SHL SUB DUP3 AND PUSH3 0xF1 JUMPI PUSH1 0x40 MLOAD PUSH3 0x461BCD PUSH1 0xE5 SHL DUP2 MSTORE PUSH1 0x20 PUSH1 0x4 DUP3 ADD MSTORE PUSH1 0x1F PUSH1 0x24 DUP3 ADD MSTORE PUSH32 0x45524332303A206D696E7420746F20746865207A65726F206164647265737300 PUSH1 0x44 DUP3 ADD MSTORE PUSH1 0x64 ADD PUSH1 0x40 MLOAD DUP1 SWAP2 SUB SWAP1 REVERT JUMPDEST DUP1 PUSH1 0x2 PUSH1 0x0 DUP3 DUP3 SLOAD PUSH3 0x105 SWAP2 SWAP1 PUSH3 0x2D1 JUMP JUMPDEST SWAP1 SWAP2 SSTORE POP POP PUSH1 0x1 PUSH1 0x1 PUSH1 0xA0 SHL SUB DUP3 AND PUSH1 0x0 DUP2 DUP2 MSTORE PUSH1 0x20 DUP2 DUP2 MSTORE PUSH1 0x40 DUP1 DUP4 KECCAK256 DUP1 SLOAD DUP7 ADD SWAP1 SSTORE MLOAD DUP5 DUP2 MSTORE PUSH32 0xDDF252AD1BE2C89B69C2B068FC378DAA952BA7F163C4A11628F55A4DF523B3EF SWAP2 ADD PUSH1 0x40 MLOAD DUP1 SWAP2 SUB SWAP1 LOG3 POP POP JUMP JUMPDEST POP POP POP JUMP JUMPDEST PUSH4 0x4E487B71 PUSH1 0xE0 SHL PUSH1 0x0 MSTORE PUSH1 0x41 PUSH1 0x4 MSTORE PUSH1 0x24 PUSH1 0x0 REVERT JUMPDEST PUSH1 0x1 DUP2 DUP2 SHR SWAP1 DUP3 AND DUP1 PUSH3 0x18C JUMPI PUSH1 0x7F DUP3 AND SWAP2 POP JUMPDEST PUSH1 0x20 DUP3 LT DUP2 SUB PUSH3 0x1AD JUMPI PUSH4 0x4E487B71 PUSH1 0xE0 SHL PUSH1 0x0 MSTORE PUSH1 0x22 PUSH1 0x4 MSTORE PUSH1 0x24 PUSH1 0x0 REVERT JUMPDEST POP SWAP2 SWAP1 POP JUMP JUMPDEST PUSH1 0x1F DUP3 GT ISZERO PUSH3 0x15C JUMPI PUSH1 0x0 DUP2 DUP2 MSTORE PUSH1 0x20 DUP2 KECCAK256 PUSH1 0x1F DUP6 ADD PUSH1 0x5 SHR DUP2 ADD PUSH1 0x20 DUP7 LT ISZERO PUSH3 0x1DC JUMPI POP DUP1 JUMPDEST PUSH1 0x1F DUP6 ADD PUSH1 0x5 SHR DUP3 ADD SWAP2 POP JUMPDEST DUP2 DUP2 LT ISZERO PUSH3 0x1FD JUMPI DUP3 DUP2 SSTORE PUSH1 0x1 ADD PUSH3 0x1E8 JUMP JUMPDEST POP POP POP POP POP POP JUMP JUMPDEST DUP2 MLOAD PUSH1 0x1 PUSH1 0x1 PUSH1 0x40 SHL SUB DUP2 GT ISZERO PUSH3 0x221 JUMPI PUSH3 0x221 PUSH3 0x161 JUMP JUMPDEST PUSH3 0x239 DUP2 PUSH3 0x232 DUP5 SLOAD PUSH3 0x177 JUMP JUMPDEST DUP5 PUSH3 0x1B3 JUMP JUMPDEST PUSH1 0x20 DUP1 PUSH1 0x1F DUP4 GT PUSH1 0x1 DUP2 EQ PUSH3 0x271 JUMPI PUSH1 0x0 DUP5 ISZERO PUSH3 0x258 JUMPI POP DUP6 DUP4 ADD MLOAD JUMPDEST PUSH1 0x0 NOT PUSH1 0x3 DUP7 SWAP1 SHL SHR NOT AND PUSH1 0x1 DUP6 SWAP1 SHL OR DUP6 SSTORE PUSH3 0x1FD JUMP JUMPDEST PUSH1 0x0 DUP6 DUP2 MSTORE PUSH1 0x20 DUP2 KECCAK256 PUSH1 0x1F NOT DUP7 AND SWAP2 JUMPDEST DUP3 DUP2 LT ISZERO PUSH3 0x2A2 JUMPI DUP9 DUP7 ADD MLOAD DUP3 SSTORE SWAP5 DUP5 ADD SWAP5 PUSH1 0x1 SWAP1 SWAP2 ADD SWAP1 DUP5 ADD PUSH3 0x281 JUMP JUMPDEST POP DUP6 DUP3 LT ISZERO PUSH3 0x2C1 JUMPI DUP8 DUP6 ADD MLOAD PUSH1 0x0 NOT PUSH1 0x3 DUP9 SWAP1 SHL PUSH1 0xF8 AND SHR NOT AND DUP2 SSTORE JUMPDEST POP POP POP POP POP PUSH1 0x1 SWAP1 DUP2 SHL ADD SWAP1 SSTORE POP JUMP JUMPDEST DUP1 DUP3 ADD DUP1 DUP3 GT ISZERO PUSH3 0x2F3 JUMPI PUSH4 0x4E487B71 PUSH1 0xE0 SHL PUSH1 0x0 MSTORE PUSH1 0x11 PUSH1 0x4 MSTORE PUSH1 0x24 PUSH1 0x0 REVERT JUMPDEST SWAP3 SWAP2 POP POP JUMP JUMPDEST PUSH2 0xB8C DUP1 PUSH3 0x309 PUSH1 0x0 CODECOPY PUSH1 0x0 RETURN INVALID PUSH1 0x80 PUSH1 0x40 MSTORE CALLVALUE DUP1 ISZERO PUSH2 0x10 JUMPI PUSH1 0x0 DUP1 REVERT JUMPDEST POP PUSH1 0x4 CALLDATASIZE LT PUSH2 0x100 JUMPI PUSH1 0x0 CALLDATALOAD PUSH1 0xE0 SHR DUP1 PUSH4 0x42966C68 GT PUSH2 0x97 JUMPI DUP1 PUSH4 0xA9059CBB GT PUSH2 0x66 JUMPI DUP1 PUSH4 0xA9059CBB EQ PUSH2 0x21A JUMPI DUP1 PUSH4 0xDD110712 EQ PUSH2 0x22D JUMPI DUP1 PUSH4 0xDD62ED3E EQ PUSH2 0x240 JUMPI DUP1 PUSH4 0xFC818684 EQ PUSH2 0x253 JUMPI PUSH1 0x0 DUP1 REVERT JUMPDEST DUP1 PUSH4 0x42966C68 EQ PUSH2 0x1C3 JUMPI DUP1 PUSH4 0x70A08231 EQ PUSH2 0x1D6 JUMPI DUP1 PUSH4 0x95D89B41 EQ PUSH2 0x1FF JUMPI DUP1 PUSH4 0xA457C2D7 EQ PUSH2 0x207 JUMPI PUSH1 0x0 DUP1 REVERT JUMPDEST DUP1 PUSH4 0x23B872DD GT PUSH2 0xD3 JUMPI DUP1 PUSH4 0x23B872DD EQ PUSH2 0x179 JUMPI DUP1 PUSH4 0x313CE567 EQ PUSH2 0x18C JUMPI DUP1 PUSH4 0x39509351 EQ PUSH2 0x19B JUMPI DUP1 PUSH4 0x40C10F19 EQ PUSH2 0x1AE JUMPI PUSH1 0x0 DUP1 REVERT JUMPDEST DUP1 PUSH4 0x6FDDE03 EQ PUSH2 0x105 JUMPI DUP1 PUSH4 0x95EA7B3 EQ PUSH2 0x123 JUMPI DUP1 PUSH4 0x18160DDD EQ PUSH2 0x146 JUMPI DUP1 PUSH4 0x1CD3A4AC EQ PUSH2 0x158 JUMPI JUMPDEST PUSH1 0x0 DUP1 REVERT JUMPDEST PUSH2 0x10D PUSH2 0x266 JUMP JUMPDEST PUSH1 0x40 MLOAD PUSH2 0x11A SWAP2 SWAP1 PUSH2 0x9BD JUMP JUMPDEST PUSH1 0x40 MLOAD DUP1 SWAP2 SUB SWAP1 RETURN JUMPDEST PUSH2 0x136 PUSH2 0x131 CALLDATASIZE PUSH1 0x4 PUSH2 0xA27 JUMP JUMPDEST PUSH2 0x2F8 JUMP JUMPDEST PUSH1 0x40 MLOAD SWAP1 ISZERO ISZERO DUP2 MSTORE PUSH1 0x20 ADD PUSH2 0x11A JUMP JUMPDEST PUSH1 0x2 SLOAD JUMPDEST PUSH1 0x40 MLOAD SWAP1 DUP2 MSTORE PUSH1 0x20 ADD PUSH2 0x11A JUMP JUMPDEST PUSH2 0x161 PUSH2 0xDEAD DUP2 JUMP JUMPDEST PUSH1 0x40 MLOAD PUSH1 0x1 PUSH1 0x1 PUSH1 0xA0 SHL SUB SWAP1 SWAP2 AND DUP2 MSTORE PUSH1 0x20 ADD PUSH2 0x11A JUMP JUMPDEST PUSH2 0x136 PUSH2 0x187 CALLDATASIZE PUSH1 0x4 PUSH2 0xA51 JUMP JUMPDEST PUSH2 0x312 JUMP JUMPDEST PUSH1 0x40 MLOAD PUSH1 0x12 DUP2 MSTORE PUSH1 0x20 ADD PUSH2 0x11A JUMP JUMPDEST PUSH2 0x136 PUSH2 0x1A9 CALLDATASIZE PUSH1 0x4 PUSH2 0xA27 JUMP JUMPDEST PUSH2 0x336 JUMP JUMPDEST PUSH2 0x1C1 PUSH2 0x1BC CALLDATASIZE PUSH1 0x4 PUSH2 0xA27 JUMP JUMPDEST PUSH2 0x358 JUMP JUMPDEST STOP JUMPDEST PUSH2 0x1C1 PUSH2 0x1D1 CALLDATASIZE PUSH1 0x4 PUSH2 0xA8D JUMP JUMPDEST PUSH2 0x366 JUMP JUMPDEST PUSH2 0x14A PUSH2 0x1E4 CALLDATASIZE PUSH1 0x4 PUSH2 0xAA6 JUMP JUMPDEST PUSH1 0x1 PUSH1 0x1 PUSH1 0xA0 SHL SUB AND PUSH1 0x0 SWAP1 DUP2 MSTORE PUSH1 0x20 DUP2 SWAP1 MSTORE PUSH1 0x40 SWAP1 KECCAK256 SLOAD SWAP1 JUMP JUMPDEST PUSH2 0x10D PUSH2 0x373 JUMP JUMPDEST PUSH2 0x136 PUSH2 0x215 CALLDATASIZE PUSH1 0x4 PUSH2 0xA27 JUMP JUMPDEST PUSH2 0x382 JUMP JUMPDEST PUSH2 0x136 PUSH2 0x228 CALLDATASIZE PUSH1 0x4 PUSH2 0xA27 JUMP JUMPDEST PUSH2 0x402 JUMP JUMPDEST PUSH2 0x1C1 PUSH2 0x23B CALLDATASIZE PUSH1 0x4 PUSH2 0xA8D JUMP JUMPDEST PUSH2 0x410 JUMP JUMPDEST PUSH2 0x14A PUSH2 0x24E CALLDATASIZE PUSH1 0x4 PUSH2 0xAC8 JUMP JUMPDEST PUSH2 0x41D JUMP JUMPDEST PUSH2 0x1C1 PUSH2 0x261 CALLDATASIZE PUSH1 0x4 PUSH2 0xA8D JUMP JUMPDEST PUSH2 0x448 JUMP JUMPDEST PUSH1 0x60 PUSH1 0x3 DUP1 SLOAD PUSH2 0x275 SWAP1 PUSH2 0xAFB JUMP JUMPDEST DUP1 PUSH1 0x1F ADD PUSH1 0x20 DUP1 SWAP2 DIV MUL PUSH1 0x20 ADD PUSH1 0x40 MLOAD SWAP1 DUP2 ADD PUSH1 0x40 MSTORE DUP1 SWAP3 SWAP2 SWAP1 DUP2 DUP2 MSTORE PUSH1 0x20 ADD DUP3 DUP1 SLOAD PUSH2 0x2A1 SWAP1 PUSH2 0xAFB JUMP JUMPDEST DUP1 ISZERO PUSH2 0x2EE JUMPI DUP1 PUSH1 0x1F LT PUSH2 0x2C3 JUMPI PUSH2 0x100 DUP1 DUP4 SLOAD DIV MUL DUP4 MSTORE SWAP2 PUSH1 0x20 ADD SWAP2 PUSH2 0x2EE JUMP JUMPDEST DUP3 ADD SWAP2 SWAP1 PUSH1 0x0 MSTORE PUSH1 0x20 PUSH1 0x0 KECCAK256 SWAP1 JUMPDEST DUP2 SLOAD DUP2 MSTORE SWAP1 PUSH1 0x1 ADD SWAP1 PUSH1 0x20 ADD DUP1 DUP4 GT PUSH2 0x2D1 JUMPI DUP3 SWAP1 SUB PUSH1 0x1F AND DUP3 ADD SWAP2 JUMPDEST POP POP POP POP POP SWAP1 POP SWAP1 JUMP JUMPDEST PUSH1 0x0 CALLER PUSH2 0x306 DUP2 DUP6 DUP6 PUSH2 0x491 JUMP JUMPDEST PUSH1 0x1 SWAP2 POP POP JUMPDEST SWAP3 SWAP2 POP POP JUMP JUMPDEST PUSH1 0x0 CALLER PUSH2 0x320 DUP6 DUP3 DUP6 PUSH2 0x5B6 JUMP JUMPDEST PUSH2 0x32B DUP6 DUP6 DUP6 PUSH2 0x630 JUMP JUMPDEST POP PUSH1 0x1 SWAP5 SWAP4 POP POP POP POP JUMP JUMPDEST PUSH1 0x0 CALLER PUSH2 0x306 DUP2 DUP6 DUP6 PUSH2 0x349 DUP4 DUP4 PUSH2 0x41D JUMP JUMPDEST PUSH2 0x353 SWAP2 SWAP1 PUSH2 0xB35 JUMP JUMPDEST PUSH2 0x491 JUMP JUMPDEST PUSH2 0x362 DUP3 DUP3 PUSH2 0x7D4 JUMP JUMPDEST POP POP JUMP JUMPDEST PUSH2 0x370 CALLER DUP3 PUSH2 0x893 JUMP JUMPDEST POP JUMP JUMPDEST PUSH1 0x60 PUSH1 0x4 DUP1 SLOAD PUSH2 0x275 SWAP1 PUSH2 0xAFB JUMP JUMPDEST PUSH1 0x0 CALLER DUP2 PUSH2 0x390 DUP3 DUP7 PUSH2 0x41D JUMP JUMPDEST SWAP1 POP DUP4 DUP2 LT ISZERO PUSH2 0x3F5 JUMPI PUSH1 0x40 MLOAD PUSH3 0x461BCD PUSH1 0xE5 SHL DUP2 MSTORE PUSH1 0x20 PUSH1 0x4 DUP3 ADD MSTORE PUSH1 0x25 PUSH1 0x24 DUP3 ADD MSTORE PUSH32 0x45524332303A2064656372656173656420616C6C6F77616E63652062656C6F77 PUSH1 0x44 DUP3 ADD MSTORE PUSH5 0x207A65726F PUSH1 0xD8 SHL PUSH1 0x64 DUP3 ADD MSTORE PUSH1 0x84 ADD JUMPDEST PUSH1 0x40 MLOAD DUP1 SWAP2 SUB SWAP1 REVERT JUMPDEST PUSH2 0x32B DUP3 DUP7 DUP7 DUP5 SUB PUSH2 0x491 JUMP JUMPDEST PUSH1 0x0 CALLER PUSH2 0x306 DUP2 DUP6 DUP6 PUSH2 0x630 JUMP JUMPDEST PUSH2 0x370 CALLER PUSH2 0xDEAD DUP4 PUSH2 0x630 JUMP JUMPDEST PUSH1 0x1 PUSH1 0x1 PUSH1 0xA0 SHL SUB SWAP2 DUP3 AND PUSH1 0x0 SWAP1 DUP2 MSTORE PUSH1 0x1 PUSH1 0x20 SWAP1 DUP2 MSTORE PUSH1 0x40 DUP1 DUP4 KECCAK256 SWAP4 SWAP1 SWAP5 AND DUP3 MSTORE SWAP2 SWAP1 SWAP2 MSTORE KECCAK256 SLOAD SWAP1 JUMP JUMPDEST CALLER ADDRESS EQ PUSH2 0x487 JUMPI PUSH1 0x40 MLOAD PUSH3 0x461BCD PUSH1 0xE5 SHL DUP2 MSTORE PUSH1 0x20 PUSH1 0x4 DUP3 ADD MSTORE PUSH1 0xD PUSH1 0x24 DUP3 ADD MSTORE PUSH13 0x1BDB9B1E4818DBDB9D1C9858DD PUSH1 0x9A SHL PUSH1 0x44 DUP3 ADD MSTORE PUSH1 0x64 ADD PUSH2 0x3EC JUMP JUMPDEST PUSH2 0x370 ADDRESS DUP3 PUSH2 0x893 JUMP JUMPDEST PUSH1 0x1 PUSH1 0x1 PUSH1 0xA0 SHL SUB DUP4 AND PUSH2 0x4F3 JUMPI PUSH1 0x40 MLOAD PUSH3 0x461BCD PUSH1 0xE5 SHL DUP2 MSTORE PUSH1 0x20 PUSH1 0x4 DUP3 ADD MSTORE PUSH1 0x24 DUP1 DUP3 ADD MSTORE PUSH32 0x45524332303A20617070726F76652066726F6D20746865207A65726F20616464 PUSH1 0x44 DUP3 ADD MSTORE PUSH4 0x72657373 PUSH1 0xE0 SHL PUSH1 0x64 DUP3 ADD MSTORE PUSH1 0x84 ADD PUSH2 0x3EC JUMP JUMPDEST PUSH1 0x1 PUSH1 0x1 PUSH1 0xA0 SHL SUB DUP3 AND PUSH2 0x554 JUMPI PUSH1 0x40 MLOAD PUSH3 0x461BCD PUSH1 0xE5 SHL DUP2 MSTORE PUSH1 0x20 PUSH1 0x4 DUP3 ADD MSTORE PUSH1 0x22 PUSH1 0x24 DUP3 ADD MSTORE PUSH32 0x45524332303A20617070726F766520746F20746865207A65726F206164647265 PUSH1 0x44 DUP3 ADD MSTORE PUSH2 0x7373 PUSH1 0xF0 SHL PUSH1 0x64 DUP3 ADD MSTORE PUSH1 0x84 ADD PUSH2 0x3EC JUMP JUMPDEST PUSH1 0x1 PUSH1 0x1 PUSH1 0xA0 SHL SUB DUP4 DUP2 AND PUSH1 0x0 DUP2 DUP2 MSTORE PUSH1 0x1 PUSH1 0x20 SWAP1 DUP2 MSTORE PUSH1 0x40 DUP1 DUP4 KECCAK256 SWAP5 DUP8 AND DUP1 DUP5 MSTORE SWAP5 DUP3 MSTORE SWAP2 DUP3 SWAP1 KECCAK256 DUP6 SWAP1 SSTORE SWAP1 MLOAD DUP5 DUP2 MSTORE PUSH32 0x8C5BE1E5EBEC7D5BD14F71427D1E84F3DD0314C0F7B2291E5B200AC8C7C3B925 SWAP2 ADD JUMPDEST PUSH1 0x40 MLOAD DUP1 SWAP2 SUB SWAP1 LOG3 POP POP POP JUMP JUMPDEST PUSH1 0x0 PUSH2 0x5C2 DUP5 DUP5 PUSH2 0x41D JUMP JUMPDEST SWAP1 POP PUSH1 0x0 NOT DUP2 EQ PUSH2 0x62A JUMPI DUP2 DUP2 LT ISZERO PUSH2 0x61D JUMPI PUSH1 0x40 MLOAD PUSH3 0x461BCD PUSH1 0xE5 SHL DUP2 MSTORE PUSH1 0x20 PUSH1 0x4 DUP3 ADD MSTORE PUSH1 0x1D PUSH1 0x24 DUP3 ADD MSTORE PUSH32 0x45524332303A20696E73756666696369656E7420616C6C6F77616E6365000000 PUSH1 0x44 DUP3 ADD MSTORE PUSH1 0x64 ADD PUSH2 0x3EC JUMP JUMPDEST PUSH2 0x62A DUP5 DUP5 DUP5 DUP5 SUB PUSH2 0x491 JUMP JUMPDEST POP POP POP POP JUMP JUMPDEST PUSH1 0x1 PUSH1 0x1 PUSH1 0xA0 SHL SUB DUP4 AND PUSH2 0x694 JUMPI PUSH1 0x40 MLOAD PUSH3 0x461BCD PUSH1 0xE5 SHL DUP2 MSTORE PUSH1 0x20 PUSH1 0x4 DUP3 ADD MSTORE PUSH1 0x25 PUSH1 0x24 DUP3 ADD MSTORE PUSH32 0x45524332303A207472616E736665722066726F6D20746865207A65726F206164 PUSH1 0x44 DUP3 ADD MSTORE PUSH5 0x6472657373 PUSH1 0xD8 SHL PUSH1 0x64 DUP3 ADD MSTORE PUSH1 0x84 ADD PUSH2 0x3EC JUMP JUMPDEST PUSH1 0x1 PUSH1 0x1 PUSH1 0xA0 SHL SUB DUP3 AND PUSH2 0x6F6 JUMPI PUSH1 0x40 MLOAD PUSH3 0x461BCD PUSH1 0xE5 SHL DUP2 MSTORE PUSH1 0x20 PUSH1 0x4 DUP3 ADD MSTORE PUSH1 0x23 PUSH1 0x24 DUP3 ADD MSTORE PUSH32 0x45524332303A207472616E7366657220746F20746865207A65726F2061646472 PUSH1 0x44 DUP3 ADD MSTORE PUSH3 0x657373 PUSH1 0xE8 SHL PUSH1 0x64 DUP3 ADD MSTORE PUSH1 0x84 ADD PUSH2 0x3EC JUMP JUMPDEST PUSH1 0x1 PUSH1 0x1 PUSH1 0xA0 SHL SUB DUP4 AND PUSH1 0x0 SWAP1 DUP2 MSTORE PUSH1 0x20 DUP2 SWAP1 MSTORE PUSH1 0x40 SWAP1 KECCAK256 SLOAD DUP2 DUP2 LT ISZERO PUSH2 0x76E JUMPI PUSH1 0x40 MLOAD PUSH3 0x461BCD PUSH1 0xE5 SHL DUP2 MSTORE PUSH1 0x20 PUSH1 0x4 DUP3 ADD MSTORE PUSH1 0x26 PUSH1 0x24 DUP3 ADD MSTORE PUSH32 0x45524332303A207472616E7366657220616D6F756E7420657863656564732062 PUSH1 0x44 DUP3 ADD MSTORE PUSH6 0x616C616E6365 PUSH1 0xD0 SHL PUSH1 0x64 DUP3 ADD MSTORE PUSH1 0x84 ADD PUSH2 0x3EC JUMP JUMPDEST PUSH1 0x1 PUSH1 0x1 PUSH1 0xA0 SHL SUB DUP5 DUP2 AND PUSH1 0x0 DUP2 DUP2 MSTORE PUSH1 0x20 DUP2 DUP2 MSTORE PUSH1 0x40 DUP1 DUP4 KECCAK256 DUP8 DUP8 SUB SWAP1 SSTORE SWAP4 DUP8 AND DUP1 DUP4 MSTORE SWAP2 DUP5 SWAP1 KECCAK256 DUP1 SLOAD DUP8 ADD SWAP1 SSTORE SWAP3 MLOAD DUP6 DUP2 MSTORE SWAP1 SWAP3 PUSH32 0xDDF252AD1BE2C89B69C2B068FC378DAA952BA7F163C4A11628F55A4DF523B3EF SWAP2 ADD PUSH1 0x40 MLOAD DUP1 SWAP2 SUB SWAP1 LOG3 PUSH2 0x62A JUMP JUMPDEST PUSH1 0x1 PUSH1 0x1 PUSH1 0xA0 SHL SUB DUP3 AND PUSH2 0x82A JUMPI PUSH1 0x40 MLOAD PUSH3 0x461BCD PUSH1 0xE5 SHL DUP2 MSTORE PUSH1 0x20 PUSH1 0x4 DUP3 ADD MSTORE PUSH1 0x1F PUSH1 0x24 DUP3 ADD MSTORE PUSH32 0x45524332303A206D696E7420746F20746865207A65726F206164647265737300 PUSH1 0x44 DUP3 ADD MSTORE PUSH1 0x64 ADD PUSH2 0x3EC JUMP JUMPDEST DUP1 PUSH1 0x2 PUSH1 0x0 DUP3 DUP3 SLOAD PUSH2 0x83C SWAP2 SWAP1 PUSH2 0xB35 JUMP JUMPDEST SWAP1 SWAP2 SSTORE POP POP PUSH1 0x1 PUSH1 0x1 PUSH1 0xA0 SHL SUB DUP3 AND PUSH1 0x0 DUP2 DUP2 MSTORE PUSH1 0x20 DUP2 DUP2 MSTORE PUSH1 0x40 DUP1 DUP4 KECCAK256 DUP1 SLOAD DUP7 ADD SWAP1 SSTORE MLOAD DUP5 DUP2 MSTORE PUSH32 0xDDF252AD1BE2C89B69C2B068FC378DAA952BA7F163C4A11628F55A4DF523B3EF SWAP2 ADD PUSH1 0x40 MLOAD DUP1 SWAP2 SUB SWAP1 LOG3 POP POP JUMP JUMPDEST PUSH1 0x1 PUSH1 0x1 PUSH1 0xA0 SHL SUB DUP3 AND PUSH2 0x8F3 JUMPI PUSH1 0x40 MLOAD PUSH3 0x461BCD PUSH1 0xE5 SHL DUP2 MSTORE PUSH1 0x20 PUSH1 0x4 DUP3 ADD MSTORE PUSH1 0x21 PUSH1 0x24 DUP3 ADD MSTORE PUSH32 0x45524332303A206275726E2066726F6D20746865207A65726F20616464726573 PUSH1 0x44 DUP3 ADD MSTORE PUSH1 0x73 PUSH1 0xF8 SHL PUSH1 0x64 DUP3 ADD MSTORE PUSH1 0x84 ADD PUSH2 0x3EC JUMP JUMPDEST PUSH1 0x1 PUSH1 0x1 PUSH1 0xA0 SHL SUB DUP3 AND PUSH1 0x0 SWAP1 DUP2 MSTORE PUSH1 0x20 DUP2 SWAP1 MSTORE PUSH1 0x40 SWAP1 KECCAK256 SLOAD DUP2 DUP2 LT ISZERO PUSH2 0x967 JUMPI PUSH1 0x40 MLOAD PUSH3 0x461BCD PUSH1 0xE5 SHL DUP2 MSTORE PUSH1 0x20 PUSH1 0x4 DUP3 ADD MSTORE PUSH1 0x22 PUSH1 0x24 DUP3 ADD MSTORE PUSH32 0x45524332303A206275726E20616D6F756E7420657863656564732062616C616E PUSH1 0x44 DUP3 ADD MSTORE PUSH2 0x6365 PUSH1 0xF0 SHL PUSH1 0x64 DUP3 ADD MSTORE PUSH1 0x84 ADD PUSH2 0x3EC JUMP JUMPDEST PUSH1 0x1 PUSH1 0x1 PUSH1 0xA0 SHL SUB DUP4 AND PUSH1 0x0 DUP2 DUP2 MSTORE PUSH1 0x20 DUP2 DUP2 MSTORE PUSH1 0x40 DUP1 DUP4 KECCAK256 DUP7 DUP7 SUB SWAP1 SSTORE PUSH1 0x2 DUP1 SLOAD DUP8 SWAP1 SUB SWAP1 SSTORE MLOAD DUP6 DUP2 MSTORE SWAP2 SWAP3 SWAP2 PUSH32 0xDDF252AD1BE2C89B69C2B068FC378DAA952BA7F163C4A11628F55A4DF523B3EF SWAP2 ADD PUSH2 0x5A9 JUMP JUMPDEST PUSH1 0x0 PUSH1 0x20 DUP1 DUP4 MSTORE DUP4 MLOAD DUP1 DUP3 DUP6 ADD MSTORE PUSH1 0x0 JUMPDEST DUP2 DUP2 LT ISZERO PUSH2 0x9EA JUMPI DUP6 DUP2 ADD DUP4 ADD MLOAD DUP6 DUP3 ADD PUSH1 0x40 ADD MSTORE DUP3 ADD PUSH2 0x9CE JUMP JUMPDEST POP PUSH1 0x0 PUSH1 0x40 DUP3 DUP7 ADD ADD MSTORE PUSH1 0x40 PUSH1 0x1F NOT PUSH1 0x1F DUP4 ADD AND DUP6 ADD ADD SWAP3 POP POP POP SWAP3 SWAP2 POP POP JUMP JUMPDEST DUP1 CALLDATALOAD PUSH1 0x1 PUSH1 0x1 PUSH1 0xA0 SHL SUB DUP2 AND DUP2 EQ PUSH2 0xA22 JUMPI PUSH1 0x0 DUP1 REVERT JUMPDEST SWAP2 SWAP1 POP JUMP JUMPDEST PUSH1 0x0 DUP1 PUSH1 0x40 DUP4 DUP6 SUB SLT ISZERO PUSH2 0xA3A JUMPI PUSH1 0x0 DUP1 REVERT JUMPDEST PUSH2 0xA43 DUP4 PUSH2 0xA0B JUMP JUMPDEST SWAP5 PUSH1 0x20 SWAP4 SWAP1 SWAP4 ADD CALLDATALOAD SWAP4 POP POP POP JUMP JUMPDEST PUSH1 0x0 DUP1 PUSH1 0x0 PUSH1 0x60 DUP5 DUP7 SUB SLT ISZERO PUSH2 0xA66 JUMPI PUSH1 0x0 DUP1 REVERT JUMPDEST PUSH2 0xA6F DUP5 PUSH2 0xA0B JUMP JUMPDEST SWAP3 POP PUSH2 0xA7D PUSH1 0x20 DUP6 ADD PUSH2 0xA0B JUMP JUMPDEST SWAP2 POP PUSH1 0x40 DUP5 ADD CALLDATALOAD SWAP1 POP SWAP3 POP SWAP3 POP SWAP3 JUMP JUMPDEST PUSH1 0x0 PUSH1 0x20 DUP3 DUP5 SUB SLT ISZERO PUSH2 0xA9F JUMPI PUSH1 0x0 DUP1 REVERT JUMPDEST POP CALLDATALOAD SWAP2 SWAP1 POP JUMP JUMPDEST PUSH1 0x0 PUSH1 0x20 DUP3 DUP5 SUB SLT ISZERO PUSH2 0xAB8 JUMPI PUSH1 0x0 DUP1 REVERT JUMPDEST PUSH2 0xAC1 DUP3 PUSH2 0xA0B JUMP JUMPDEST SWAP4 SWAP3 POP POP POP JUMP JUMPDEST PUSH1 0x0 DUP1 PUSH1 0x40 DUP4 DUP6 SUB SLT ISZERO PUSH2 0xADB JUMPI PUSH1 0x0 DUP1 REVERT JUMPDEST PUSH2 0xAE4 DUP4 PUSH2 0xA0B JUMP JUMPDEST SWAP2 POP PUSH2 0xAF2 PUSH1 0x20 DUP5 ADD PUSH2 0xA0B JUMP JUMPDEST SWAP1 POP SWAP3 POP SWAP3 SWAP1 POP JUMP JUMPDEST PUSH1 0x1 DUP2 DUP2 SHR SWAP1 DUP3 AND DUP1 PUSH2 0xB0F JUMPI PUSH1 0x7F DUP3 AND SWAP2 POP JUMPDEST PUSH1 0x20 DUP3 LT DUP2 SUB PUSH2 0xB2F JUMPI PUSH4 0x4E487B71 PUSH1 0xE0 SHL PUSH1 0x0 MSTORE PUSH1 0x22 PUSH1 0x4 MSTORE PUSH1 0x24 PUSH1 0x0 REVERT JUMPDEST POP SWAP2 SWAP1 POP JUMP JUMPDEST DUP1 DUP3 ADD DUP1 DUP3 GT ISZERO PUSH2 0x30C JUMPI PUSH4 0x4E487B71 PUSH1 0xE0 SHL PUSH1 0x0 MSTORE PUSH1 0x11 PUSH1 0x4 MSTORE PUSH1 0x24 PUSH1 0x0 REVERT INVALID LOG2 PUSH5 0x6970667358 0x22 SLT KECCAK256 0xBE 0xBC 0xD1 LOG4 SWAP10 DUP6 SWAP16 DUP8 0x4A 0xD2 MULMOD PUSH3 0x90259 PUSH29 0x4210E2DC96261A5539224D969B5052564736F6C634300081100336080 PUSH1 0x40 MSTORE CALLVALUE DUP1 ISZERO PUSH3 0x11 JUMPI PUSH1 0x0 DUP1 REVERT JUMPDEST POP PUSH1 0x40 MLOAD DUP1 PUSH1 0x40 ADD PUSH1 0x40 MSTORE DUP1 PUSH1 0x7 DUP2 MSTORE PUSH1 0x20 ADD PUSH7 0x11144810D85C99 PUSH1 0xCA SHL DUP2 MSTORE POP PUSH1 0x40 MLOAD DUP1 PUSH1 0x40 ADD PUSH1 0x40 MSTORE DUP1 PUSH1 0x3 DUP2 MSTORE PUSH1 0x20 ADD PUSH3 0x445143 PUSH1 0xE8 SHL DUP2 MSTORE POP DUP2 PUSH1 0x0 SWAP1 DUP2 PUSH3 0x5F SWAP2 SWAP1 PUSH3 0x18C JUMP JUMPDEST POP PUSH1 0x1 PUSH3 0x6E DUP3 DUP3 PUSH3 0x18C JUMP JUMPDEST POP POP POP PUSH3 0x8B PUSH3 0x85 PUSH3 0x91 PUSH1 0x20 SHL PUSH1 0x20 SHR JUMP JUMPDEST PUSH3 0x95 JUMP JUMPDEST PUSH3 0x258 JUMP JUMPDEST CALLER SWAP1 JUMP JUMPDEST PUSH1 0xA DUP1 SLOAD PUSH1 0x1 PUSH1 0x1 PUSH1 0xA0 SHL SUB DUP4 DUP2 AND PUSH1 0x1 PUSH1 0x1 PUSH1 0xA0 SHL SUB NOT DUP4 AND DUP2 OR SWAP1 SWAP4 SSTORE PUSH1 0x40 MLOAD SWAP2 AND SWAP2 SWAP1 DUP3 SWAP1 PUSH32 0x8BE0079C531659141344CD1FD0A4F28419497F9722A3DAAFE3B4186F6B6457E0 SWAP1 PUSH1 0x0 SWAP1 LOG3 POP POP JUMP JUMPDEST PUSH4 0x4E487B71 PUSH1 0xE0 SHL PUSH1 0x0 MSTORE PUSH1 0x41 PUSH1 0x4 MSTORE PUSH1 0x24 PUSH1 0x0 REVERT JUMPDEST PUSH1 0x1 DUP2 DUP2 SHR SWAP1 DUP3 AND DUP1 PUSH3 0x112 JUMPI PUSH1 0x7F DUP3 AND SWAP2 POP JUMPDEST PUSH1 0x20 DUP3 LT DUP2 SUB PUSH3 0x133 JUMPI PUSH4 0x4E487B71 PUSH1 0xE0 SHL PUSH1 0x0 MSTORE PUSH1 0x22 PUSH1 0x4 MSTORE PUSH1 0x24 PUSH1 0x0 REVERT JUMPDEST POP SWAP2 SWAP1 POP JUMP JUMPDEST PUSH1 0x1F DUP3 GT ISZERO PUSH3 0x187 JUMPI PUSH1 0x0 DUP2 DUP2 MSTORE PUSH1 0x20 DUP2 KECCAK256 PUSH1 0x1F DUP6 ADD PUSH1 0x5 SHR DUP2 ADD PUSH1 0x20 DUP7 LT ISZERO PUSH3 0x162 JUMPI POP DUP1 JUMPDEST PUSH1 0x1F DUP6 ADD PUSH1 0x5 SHR DUP3 ADD SWAP2 POP JUMPDEST DUP2 DUP2 LT ISZERO PUSH3 0x183 JUMPI DUP3 DUP2 SSTORE PUSH1 0x1 ADD PUSH3 0x16E JUMP JUMPDEST POP POP POP JUMPDEST POP POP POP JUMP JUMPDEST DUP2 MLOAD PUSH1 0x1 PUSH1 0x1 PUSH1 0x40 SHL SUB DUP2 GT ISZERO PUSH3 0x1A8 JUMPI PUSH3 0x1A8 PUSH3 0xE7 JUMP JUMPDEST PUSH3 0x1C0 DUP2 PUSH3 0x1B9 DUP5 SLOAD PUSH3 0xFD JUMP JUMPDEST DUP5 PUSH3 0x139 JUMP JUMPDEST PUSH1 0x20 DUP1 PUSH1 0x1F DUP4 GT PUSH1 0x1 DUP2 EQ PUSH3 0x1F8 JUMPI PUSH1 0x0 DUP5 ISZERO PUSH3 0x1DF JUMPI POP DUP6 DUP4 ADD MLOAD JUMPDEST PUSH1 0x0 NOT PUSH1 0x3 DUP7 SWAP1 SHL SHR NOT AND PUSH1 0x1 DUP6 SWAP1 SHL OR DUP6 SSTORE PUSH3 0x183 JUMP JUMPDEST PUSH1 0x0 DUP6 DUP2 MSTORE PUSH1 0x20 DUP2 KECCAK256 PUSH1 0x1F NOT DUP7 AND SWAP2 JUMPDEST DUP3 DUP2 LT ISZERO PUSH3 0x229 JUMPI DUP9 DUP7 ADD MLOAD DUP3 SSTORE SWAP5 DUP5 ADD SWAP5 PUSH1 0x1 SWAP1 SWAP2 ADD SWAP1 DUP5 ADD PUSH3 0x208 JUMP JUMPDEST POP DUP6 DUP3 LT ISZERO PUSH3 0x248 JUMPI DUP8 DUP6 ADD MLOAD PUSH1 0x0 NOT PUSH1 0x3 DUP9 SWAP1 SHL PUSH1 0xF8 AND SHR NOT AND DUP2 SSTORE JUMPDEST POP POP POP POP POP PUSH1 0x1 SWAP1 DUP2 SHL ADD SWAP1 SSTORE POP JUMP JUMPDEST PUSH2 0x1F7F DUP1 PUSH3 0x268 PUSH1 0x0 CODECOPY PUSH1 0x0 RETURN INVALID PUSH1 0x80 PUSH1 0x40 MSTORE CALLVALUE DUP1 ISZERO PUSH2 0x10 JUMPI PUSH1 0x0 DUP1 REVERT JUMPDEST POP PUSH1 0x4 CALLDATASIZE LT PUSH2 0x232 JUMPI PUSH1 0x0 CALLDATALOAD PUSH1 0xE0 SHR DUP1 PUSH4 0x6866537D GT PUSH2 0x130 JUMPI DUP1 PUSH4 0xB629640B GT PUSH2 0xB8 JUMPI DUP1 PUSH4 0xE985E9C5 GT PUSH2 0x7C JUMPI DUP1 PUSH4 0xE985E9C5 EQ PUSH2 0x455 JUMPI DUP1 PUSH4 0xF01EAB24 EQ PUSH2 0x491 JUMPI DUP1 PUSH4 0xF26841BD EQ PUSH2 0x499 JUMPI DUP1 PUSH4 0xF2FDE38B EQ PUSH2 0x4A1 JUMPI DUP1 PUSH4 0xFCF49ADF EQ PUSH2 0x4B4 JUMPI PUSH1 0x0 DUP1 REVERT JUMPDEST DUP1 PUSH4 0xB629640B EQ PUSH2 0x415 JUMPI DUP1 PUSH4 0xB88D4FDE EQ PUSH2 0x41E JUMPI DUP1 PUSH4 0xBC1E4023 EQ PUSH2 0x431 JUMPI DUP1 PUSH4 0xC87B56DD EQ PUSH2 0x439 JUMPI DUP1 PUSH4 0xD15DFE2D EQ PUSH2 0x44C JUMPI PUSH1 0x0 DUP1 REVERT JUMPDEST DUP1 PUSH4 0x8485391A GT PUSH2 0xFF JUMPI DUP1 PUSH4 0x8485391A EQ PUSH2 0x3CD JUMPI DUP1 PUSH4 0x8DA5CB5B EQ PUSH2 0x3D6 JUMPI DUP1 PUSH4 0x940E689D EQ PUSH2 0x3E7 JUMPI DUP1 PUSH4 0x95D89B41 EQ PUSH2 0x3FA JUMPI DUP1 PUSH4 0xA22CB465 EQ PUSH2 0x402 JUMPI PUSH1 0x0 DUP1 REVERT JUMPDEST DUP1 PUSH4 0x6866537D EQ PUSH2 0x38E JUMPI DUP1 PUSH4 0x70A08231 EQ PUSH2 0x3A1 JUMPI DUP1 PUSH4 0x715018A6 EQ PUSH2 0x3B4 JUMPI DUP1 PUSH4 0x73CDA3E4 EQ PUSH2 0x3BC JUMPI PUSH1 0x0 DUP1 REVERT JUMPDEST DUP1 PUSH4 0x20083B89 GT PUSH2 0x1BE JUMPI DUP1 PUSH4 0x42842E0E GT PUSH2 0x182 JUMPI DUP1 PUSH4 0x42842E0E EQ PUSH2 0x33D JUMPI DUP1 PUSH4 0x4F6CCCE7 EQ PUSH2 0x350 JUMPI DUP1 PUSH4 0x52B03C2F EQ PUSH2 0x363 JUMPI DUP1 PUSH4 0x53D79447 EQ PUSH2 0x36B JUMPI DUP1 PUSH4 0x6352211E EQ PUSH2 0x37B JUMPI PUSH1 0x0 DUP1 REVERT JUMPDEST DUP1 PUSH4 0x20083B89 EQ PUSH2 0x2F3 JUMPI DUP1 PUSH4 0x23B872DD EQ PUSH2 0x2FB JUMPI DUP1 PUSH4 0x2F745C59 EQ PUSH2 0x30E JUMPI DUP1 PUSH4 0x3542AEE2 EQ PUSH2 0x321 JUMPI DUP1 PUSH4 0x39698415 EQ PUSH2 0x334 JUMPI PUSH1 0x0 DUP1 REVERT JUMPDEST DUP1 PUSH4 0x13EEEA08 GT PUSH2 0x205 JUMPI DUP1 PUSH4 0x13EEEA08 EQ PUSH2 0x2B4 JUMPI DUP1 PUSH4 0x15AD6F61 EQ PUSH2 0x2D2 JUMPI DUP1 PUSH4 0x18160DDD EQ PUSH2 0x2DA JUMPI DUP1 PUSH4 0x18A8AC77 EQ PUSH2 0x2E2 JUMPI DUP1 PUSH4 0x193491B5 EQ PUSH2 0x2EA JUMPI PUSH1 0x0 DUP1 REVERT JUMPDEST DUP1 PUSH4 0x1FFC9A7 EQ PUSH2 0x237 JUMPI DUP1 PUSH4 0x6FDDE03 EQ PUSH2 0x25F JUMPI DUP1 PUSH4 0x81812FC EQ PUSH2 0x274 JUMPI DUP1 PUSH4 0x95EA7B3 EQ PUSH2 0x29F JUMPI JUMPDEST PUSH1 0x0 DUP1 REVERT JUMPDEST PUSH2 0x24A PUSH2 0x245 CALLDATASIZE PUSH1 0x4 PUSH2 0x1A35 JUMP JUMPDEST PUSH2 0x4D4 JUMP JUMPDEST PUSH1 0x40 MLOAD SWAP1 ISZERO ISZERO DUP2 MSTORE PUSH1 0x20 ADD JUMPDEST PUSH1 0x40 MLOAD DUP1 SWAP2 SUB SWAP1 RETURN JUMPDEST PUSH2 0x267 PUSH2 0x4FF JUMP JUMPDEST PUSH1 0x40 MLOAD PUSH2 0x256 SWAP2 SWAP1 PUSH2 0x1AA2 JUMP JUMPDEST PUSH2 0x287 PUSH2 0x282 CALLDATASIZE PUSH1 0x4 PUSH2 0x1AB5 JUMP JUMPDEST PUSH2 0x591 JUMP JUMPDEST PUSH1 0x40 MLOAD PUSH1 0x1 PUSH1 0x1 PUSH1 0xA0 SHL SUB SWAP1 SWAP2 AND DUP2 MSTORE PUSH1 0x20 ADD PUSH2 0x256 JUMP JUMPDEST PUSH2 0x2B2 PUSH2 0x2AD CALLDATASIZE PUSH1 0x4 PUSH2 0x1AEA JUMP JUMPDEST PUSH2 0x5B8 JUMP JUMPDEST STOP JUMPDEST PUSH2 0x2C4 PUSH9 0x1B1AE4D6E2EF500000 DUP2 JUMP JUMPDEST PUSH1 0x40 MLOAD SWAP1 DUP2 MSTORE PUSH1 0x20 ADD PUSH2 0x256 JUMP JUMPDEST PUSH2 0x2C4 PUSH1 0x2 DUP2 JUMP JUMPDEST PUSH1 0x8 SLOAD PUSH2 0x2C4 JUMP JUMPDEST PUSH2 0x2C4 PUSH1 0x3 DUP2 JUMP JUMPDEST PUSH2 0x2C4 PUSH1 0xC SLOAD DUP2 JUMP JUMPDEST PUSH2 0x2C4 PUSH1 0x5 DUP2 JUMP JUMPDEST PUSH2 0x2B2 PUSH2 0x309 CALLDATASIZE PUSH1 0x4 PUSH2 0x1B14 JUMP JUMPDEST PUSH2 0x6D2 JUMP JUMPDEST PUSH2 0x2C4 PUSH2 0x31C CALLDATASIZE PUSH1 0x4 PUSH2 0x1AEA JUMP JUMPDEST PUSH2 0x703 JUMP JUMPDEST PUSH2 0x2B2 PUSH2 0x32F CALLDATASIZE PUSH1 0x4 PUSH2 0x1AEA JUMP JUMPDEST PUSH2 0x799 JUMP JUMPDEST PUSH2 0x2C4 PUSH2 0x3E8 DUP2 JUMP JUMPDEST PUSH2 0x2B2 PUSH2 0x34B CALLDATASIZE PUSH1 0x4 PUSH2 0x1B14 JUMP JUMPDEST PUSH2 0x7AF JUMP JUMPDEST PUSH2 0x2C4 PUSH2 0x35E CALLDATASIZE PUSH1 0x4 PUSH2 0x1AB5 JUMP JUMPDEST PUSH2 0x7CA JUMP JUMPDEST PUSH2 0x2C4 PUSH1 0x1 DUP2 JUMP JUMPDEST PUSH2 0x2C4 PUSH9 0x5150AE84A8CDF00000 DUP2 JUMP JUMPDEST PUSH2 0x287 PUSH2 0x389 CALLDATASIZE PUSH1 0x4 PUSH2 0x1AB5 JUMP JUMPDEST PUSH2 0x85D JUMP JUMPDEST PUSH2 0x2C4 PUSH2 0x39C CALLDATASIZE PUSH1 0x4 PUSH2 0x1AB5 JUMP JUMPDEST PUSH2 0x8BD JUMP JUMPDEST PUSH2 0x2C4 PUSH2 0x3AF CALLDATASIZE PUSH1 0x4 PUSH2 0x1B50 JUMP JUMPDEST PUSH2 0x900 JUMP JUMPDEST PUSH2 0x2B2 PUSH2 0x986 JUMP JUMPDEST PUSH2 0x2C4 PUSH10 0x10F0CF064DD59200000 DUP2 JUMP JUMPDEST PUSH2 0x2C4 PUSH2 0x1F4 DUP2 JUMP JUMPDEST PUSH1 0xA SLOAD PUSH1 0x1 PUSH1 0x1 PUSH1 0xA0 SHL SUB AND PUSH2 0x287 JUMP JUMPDEST PUSH2 0x2C4 PUSH2 0x3F5 CALLDATASIZE PUSH1 0x4 PUSH2 0x1AB5 JUMP JUMPDEST PUSH2 0x99A JUMP JUMPDEST PUSH2 0x267 PUSH2 0x9C4 JUMP JUMPDEST PUSH2 0x2B2 PUSH2 0x410 CALLDATASIZE PUSH1 0x4 PUSH2 0x1B6B JUMP JUMPDEST PUSH2 0x9D3 JUMP JUMPDEST PUSH2 0x2C4 PUSH1 0xB SLOAD DUP2 JUMP JUMPDEST PUSH2 0x2B2 PUSH2 0x42C CALLDATASIZE PUSH1 0x4 PUSH2 0x1BBD JUMP JUMPDEST PUSH2 0x9DE JUMP JUMPDEST PUSH2 0x2C4 PUSH1 0x4 DUP2 JUMP JUMPDEST PUSH2 0x267 PUSH2 0x447 CALLDATASIZE PUSH1 0x4 PUSH2 0x1AB5 JUMP JUMPDEST PUSH2 0xA16 JUMP JUMPDEST PUSH2 0x2C4 PUSH1 0xD SLOAD DUP2 JUMP JUMPDEST PUSH2 0x24A PUSH2 0x463 CALLDATASIZE PUSH1 0x4 PUSH2 0x1C99 JUMP JUMPDEST PUSH1 0x1 PUSH1 0x1 PUSH1 0xA0 SHL SUB SWAP2 DUP3 AND PUSH1 0x0 SWAP1 DUP2 MSTORE PUSH1 0x5 PUSH1 0x20 SWAP1 DUP2 MSTORE PUSH1 0x40 DUP1 DUP4 KECCAK256 SWAP4 SWAP1 SWAP5 AND DUP3 MSTORE SWAP2 SWAP1 SWAP2 MSTORE KECCAK256 SLOAD PUSH1 0xFF AND SWAP1 JUMP JUMPDEST PUSH2 0x2C4 PUSH1 0x6 DUP2 JUMP JUMPDEST PUSH2 0x2C4 PUSH1 0x64 DUP2 JUMP JUMPDEST PUSH2 0x2B2 PUSH2 0x4AF CALLDATASIZE PUSH1 0x4 PUSH2 0x1B50 JUMP JUMPDEST PUSH2 0xA8A JUMP JUMPDEST PUSH2 0x2C4 PUSH2 0x4C2 CALLDATASIZE PUSH1 0x4 PUSH2 0x1AB5 JUMP JUMPDEST PUSH1 0xE PUSH1 0x20 MSTORE PUSH1 0x0 SWAP1 DUP2 MSTORE PUSH1 0x40 SWAP1 KECCAK256 SLOAD DUP2 JUMP JUMPDEST PUSH1 0x0 PUSH1 0x1 PUSH1 0x1 PUSH1 0xE0 SHL SUB NOT DUP3 AND PUSH4 0x780E9D63 PUSH1 0xE0 SHL EQ DUP1 PUSH2 0x4F9 JUMPI POP PUSH2 0x4F9 DUP3 PUSH2 0xB03 JUMP JUMPDEST SWAP3 SWAP2 POP POP JUMP JUMPDEST PUSH1 0x60 PUSH1 0x0 DUP1 SLOAD PUSH2 0x50E SWAP1 PUSH2 0x1CCC JUMP JUMPDEST DUP1 PUSH1 0x1F ADD PUSH1 0x20 DUP1 SWAP2 DIV MUL PUSH1 0x20 ADD PUSH1 0x40 MLOAD SWAP1 DUP2 ADD PUSH1 0x40 MSTORE DUP1 SWAP3 SWAP2 SWAP1 DUP2 DUP2 MSTORE PUSH1 0x20 ADD DUP3 DUP1 SLOAD PUSH2 0x53A SWAP1 PUSH2 0x1CCC JUMP JUMPDEST DUP1 ISZERO PUSH2 0x587 JUMPI DUP1 PUSH1 0x1F LT PUSH2 0x55C JUMPI PUSH2 0x100 DUP1 DUP4 SLOAD DIV MUL DUP4 MSTORE SWAP2 PUSH1 0x20 ADD SWAP2 PUSH2 0x587 JUMP JUMPDEST DUP3 ADD SWAP2 SWAP1 PUSH1 0x0 MSTORE PUSH1 0x20 PUSH1 0x0 KECCAK256 SWAP1 JUMPDEST DUP2 SLOAD DUP2 MSTORE SWAP1 PUSH1 0x1 ADD SWAP1 PUSH1 0x20 ADD DUP1 DUP4 GT PUSH2 0x56A JUMPI DUP3 SWAP1 SUB PUSH1 0x1F AND DUP3 ADD SWAP2 JUMPDEST POP POP POP POP POP SWAP1 POP SWAP1 JUMP JUMPDEST PUSH1 0x0 PUSH2 0x59C DUP3 PUSH2 0xB53 JUMP JUMPDEST POP PUSH1 0x0 SWAP1 DUP2 MSTORE PUSH1 0x4 PUSH1 0x20 MSTORE PUSH1 0x40 SWAP1 KECCAK256 SLOAD PUSH1 0x1 PUSH1 0x1 PUSH1 0xA0 SHL SUB AND SWAP1 JUMP JUMPDEST PUSH1 0x0 PUSH2 0x5C3 DUP3 PUSH2 0x85D JUMP JUMPDEST SWAP1 POP DUP1 PUSH1 0x1 PUSH1 0x1 PUSH1 0xA0 SHL SUB AND DUP4 PUSH1 0x1 PUSH1 0x1 PUSH1 0xA0 SHL SUB AND SUB PUSH2 0x635 JUMPI PUSH1 0x40 MLOAD PUSH3 0x461BCD PUSH1 0xE5 SHL DUP2 MSTORE PUSH1 0x20 PUSH1 0x4 DUP3 ADD MSTORE PUSH1 0x21 PUSH1 0x24 DUP3 ADD MSTORE PUSH32 0x4552433732313A20617070726F76616C20746F2063757272656E74206F776E65 PUSH1 0x44 DUP3 ADD MSTORE PUSH1 0x39 PUSH1 0xF9 SHL PUSH1 0x64 DUP3 ADD MSTORE PUSH1 0x84 ADD JUMPDEST PUSH1 0x40 MLOAD DUP1 SWAP2 SUB SWAP1 REVERT JUMPDEST CALLER PUSH1 0x1 PUSH1 0x1 PUSH1 0xA0 SHL SUB DUP3 AND EQ DUP1 PUSH2 0x651 JUMPI POP PUSH2 0x651 DUP2 CALLER PUSH2 0x463 JUMP JUMPDEST PUSH2 0x6C3 JUMPI PUSH1 0x40 MLOAD PUSH3 0x461BCD PUSH1 0xE5 SHL DUP2 MSTORE PUSH1 0x20 PUSH1 0x4 DUP3 ADD MSTORE PUSH1 0x3D PUSH1 0x24 DUP3 ADD MSTORE PUSH32 0x4552433732313A20617070726F76652063616C6C6572206973206E6F7420746F PUSH1 0x44 DUP3 ADD MSTORE PUSH32 0x6B656E206F776E6572206F7220617070726F76656420666F7220616C6C000000 PUSH1 0x64 DUP3 ADD MSTORE PUSH1 0x84 ADD PUSH2 0x62C JUMP JUMPDEST PUSH2 0x6CD DUP4 DUP4 PUSH2 0xBB2 JUMP JUMPDEST POP POP POP JUMP JUMPDEST PUSH2 0x6DC CALLER DUP3 PUSH2 0xC20 JUMP JUMPDEST PUSH2 0x6F8 JUMPI PUSH1 0x40 MLOAD PUSH3 0x461BCD PUSH1 0xE5 SHL DUP2 MSTORE PUSH1 0x4 ADD PUSH2 0x62C SWAP1 PUSH2 0x1D06 JUMP JUMPDEST PUSH2 0x6CD DUP4 DUP4 DUP4 PUSH2 0xC9F JUMP JUMPDEST PUSH1 0x0 PUSH2 0x70E DUP4 PUSH2 0x900 JUMP JUMPDEST DUP3 LT PUSH2 0x770 JUMPI PUSH1 0x40 MLOAD PUSH3 0x461BCD PUSH1 0xE5 SHL DUP2 MSTORE PUSH1 0x20 PUSH1 0x4 DUP3 ADD MSTORE PUSH1 0x2B PUSH1 0x24 DUP3 ADD MSTORE PUSH32 0x455243373231456E756D657261626C653A206F776E657220696E646578206F75 PUSH1 0x44 DUP3 ADD MSTORE PUSH11 0x74206F6620626F756E6473 PUSH1 0xA8 SHL PUSH1 0x64 DUP3 ADD MSTORE PUSH1 0x84 ADD PUSH2 0x62C JUMP JUMPDEST POP PUSH1 0x1 PUSH1 0x1 PUSH1 0xA0 SHL SUB SWAP2 SWAP1 SWAP2 AND PUSH1 0x0 SWAP1 DUP2 MSTORE PUSH1 0x6 PUSH1 0x20 SWAP1 DUP2 MSTORE PUSH1 0x40 DUP1 DUP4 KECCAK256 SWAP4 DUP4 MSTORE SWAP3 SWAP1 MSTORE KECCAK256 SLOAD SWAP1 JUMP JUMPDEST PUSH2 0x7A1 PUSH2 0xE10 JUMP JUMPDEST PUSH2 0x7AB DUP3 DUP3 PUSH2 0xE6A JUMP JUMPDEST POP POP JUMP JUMPDEST PUSH2 0x6CD DUP4 DUP4 DUP4 PUSH1 0x40 MLOAD DUP1 PUSH1 0x20 ADD PUSH1 0x40 MSTORE DUP1 PUSH1 0x0 DUP2 MSTORE POP PUSH2 0x9DE JUMP JUMPDEST PUSH1 0x0 PUSH2 0x7D5 PUSH1 0x8 SLOAD SWAP1 JUMP JUMPDEST DUP3 LT PUSH2 0x838 JUMPI PUSH1 0x40 MLOAD PUSH3 0x461BCD PUSH1 0xE5 SHL DUP2 MSTORE PUSH1 0x20 PUSH1 0x4 DUP3 ADD MSTORE PUSH1 0x2C PUSH1 0x24 DUP3 ADD MSTORE PUSH32 0x455243373231456E756D657261626C653A20676C6F62616C20696E646578206F PUSH1 0x44 DUP3 ADD MSTORE PUSH12 0x7574206F6620626F756E6473 PUSH1 0xA0 SHL PUSH1 0x64 DUP3 ADD MSTORE PUSH1 0x84 ADD PUSH2 0x62C JUMP JUMPDEST PUSH1 0x8 DUP3 DUP2 SLOAD DUP2 LT PUSH2 0x84B JUMPI PUSH2 0x84B PUSH2 0x1D53 JUMP JUMPDEST SWAP1 PUSH1 0x0 MSTORE PUSH1 0x20 PUSH1 0x0 KECCAK256 ADD SLOAD SWAP1 POP SWAP2 SWAP1 POP JUMP JUMPDEST PUSH1 0x0 DUP2 DUP2 MSTORE PUSH1 0x2 PUSH1 0x20 MSTORE PUSH1 0x40 DUP2 KECCAK256 SLOAD PUSH1 0x1 PUSH1 0x1 PUSH1 0xA0 SHL SUB AND DUP1 PUSH2 0x4F9 JUMPI PUSH1 0x40 MLOAD PUSH3 0x461BCD PUSH1 0xE5 SHL DUP2 MSTORE PUSH1 0x20 PUSH1 0x4 DUP3 ADD MSTORE PUSH1 0x18 PUSH1 0x24 DUP3 ADD MSTORE PUSH24 0x115490CDCC8C4E881A5B9D985B1A59081D1BDAD95B881251 PUSH1 0x42 SHL PUSH1 0x44 DUP3 ADD MSTORE PUSH1 0x64 ADD PUSH2 0x62C JUMP JUMPDEST PUSH1 0x0 PUSH1 0x1 DUP3 SUB PUSH2 0x8D7 JUMPI POP PUSH9 0x1B1AE4D6E2EF500000 SWAP2 SWAP1 POP JUMP JUMPDEST PUSH1 0x2 DUP3 SUB PUSH2 0x8EF JUMPI POP PUSH9 0x5150AE84A8CDF00000 SWAP2 SWAP1 POP JUMP JUMPDEST POP PUSH10 0x10F0CF064DD59200000 SWAP2 SWAP1 POP JUMP JUMPDEST PUSH1 0x0 PUSH1 0x1 PUSH1 0x1 PUSH1 0xA0 SHL SUB DUP3 AND PUSH2 0x96A JUMPI PUSH1 0x40 MLOAD PUSH3 0x461BCD PUSH1 0xE5 SHL DUP2 MSTORE PUSH1 0x20 PUSH1 0x4 DUP3 ADD MSTORE PUSH1 0x29 PUSH1 0x24 DUP3 ADD MSTORE PUSH32 0x4552433732313A2061646472657373207A65726F206973206E6F742061207661 PUSH1 0x44 DUP3 ADD MSTORE PUSH9 0x3634B21037BBB732B9 PUSH1 0xB9 SHL PUSH1 0x64 DUP3 ADD MSTORE PUSH1 0x84 ADD PUSH2 0x62C JUMP JUMPDEST POP PUSH1 0x1 PUSH1 0x1 PUSH1 0xA0 SHL SUB AND PUSH1 0x0 SWAP1 DUP2 MSTORE PUSH1 0x3 PUSH1 0x20 MSTORE PUSH1 0x40 SWAP1 KECCAK256 SLOAD SWAP1 JUMP JUMPDEST PUSH2 0x98E PUSH2 0xE10 JUMP JUMPDEST PUSH2 0x998 PUSH1 0x0 PUSH2 0x1019 JUMP JUMPDEST JUMP JUMPDEST PUSH1 0x0 PUSH1 0x1 DUP3 SUB PUSH2 0x9AC JUMPI POP PUSH1 0x4 SWAP2 SWAP1 POP JUMP JUMPDEST PUSH1 0x2 DUP3 SUB PUSH2 0x9BC JUMPI POP PUSH1 0x5 SWAP2 SWAP1 POP JUMP JUMPDEST POP PUSH1 0x6 SWAP2 SWAP1 POP JUMP JUMPDEST PUSH1 0x60 PUSH1 0x1 DUP1 SLOAD PUSH2 0x50E SWAP1 PUSH2 0x1CCC JUMP JUMPDEST PUSH2 0x7AB CALLER DUP4 DUP4 PUSH2 0x106B JUMP JUMPDEST PUSH2 0x9E8 CALLER DUP4 PUSH2 0xC20 JUMP JUMPDEST PUSH2 0xA04 JUMPI PUSH1 0x40 MLOAD PUSH3 0x461BCD PUSH1 0xE5 SHL DUP2 MSTORE PUSH1 0x4 ADD PUSH2 0x62C SWAP1 PUSH2 0x1D06 JUMP JUMPDEST PUSH2 0xA10 DUP5 DUP5 DUP5 DUP5 PUSH2 0x1139 JUMP JUMPDEST POP POP POP POP JUMP JUMPDEST PUSH1 0x60 PUSH2 0xA21 DUP3 PUSH2 0xB53 JUMP JUMPDEST PUSH1 0x0 PUSH2 0xA38 PUSH1 0x40 DUP1 MLOAD PUSH1 0x20 DUP2 ADD SWAP1 SWAP2 MSTORE PUSH1 0x0 DUP2 MSTORE SWAP1 JUMP JUMPDEST SWAP1 POP PUSH1 0x0 DUP2 MLOAD GT PUSH2 0xA58 JUMPI PUSH1 0x40 MLOAD DUP1 PUSH1 0x20 ADD PUSH1 0x40 MSTORE DUP1 PUSH1 0x0 DUP2 MSTORE POP PUSH2 0xA83 JUMP JUMPDEST DUP1 PUSH2 0xA62 DUP5 PUSH2 0x116C JUMP JUMPDEST PUSH1 0x40 MLOAD PUSH1 0x20 ADD PUSH2 0xA73 SWAP3 SWAP2 SWAP1 PUSH2 0x1D69 JUMP JUMPDEST PUSH1 0x40 MLOAD PUSH1 0x20 DUP2 DUP4 SUB SUB DUP2 MSTORE SWAP1 PUSH1 0x40 MSTORE JUMPDEST SWAP4 SWAP3 POP POP POP JUMP JUMPDEST PUSH2 0xA92 PUSH2 0xE10 JUMP JUMPDEST PUSH1 0x1 PUSH1 0x1 PUSH1 0xA0 SHL SUB DUP2 AND PUSH2 0xAF7 JUMPI PUSH1 0x40 MLOAD PUSH3 0x461BCD PUSH1 0xE5 SHL DUP2 MSTORE PUSH1 0x20 PUSH1 0x4 DUP3 ADD MSTORE PUSH1 0x26 PUSH1 0x24 DUP3 ADD MSTORE PUSH32 0x4F776E61626C653A206E6577206F776E657220697320746865207A65726F2061 PUSH1 0x44 DUP3 ADD MSTORE PUSH6 0x646472657373 PUSH1 0xD0 SHL PUSH1 0x64 DUP3 ADD MSTORE PUSH1 0x84 ADD PUSH2 0x62C JUMP JUMPDEST PUSH2 0xB00 DUP2 PUSH2 0x1019 JUMP JUMPDEST POP JUMP JUMPDEST PUSH1 0x0 PUSH1 0x1 PUSH1 0x1 PUSH1 0xE0 SHL SUB NOT DUP3 AND PUSH4 0x80AC58CD PUSH1 0xE0 SHL EQ DUP1 PUSH2 0xB34 JUMPI POP PUSH1 0x1 PUSH1 0x1 PUSH1 0xE0 SHL SUB NOT DUP3 AND PUSH4 0x5B5E139F PUSH1 0xE0 SHL EQ JUMPDEST DUP1 PUSH2 0x4F9 JUMPI POP PUSH4 0x1FFC9A7 PUSH1 0xE0 SHL PUSH1 0x1 PUSH1 0x1 PUSH1 0xE0 SHL SUB NOT DUP4 AND EQ PUSH2 0x4F9 JUMP JUMPDEST PUSH1 0x0 DUP2 DUP2 MSTORE PUSH1 0x2 PUSH1 0x20 MSTORE PUSH1 0x40 SWAP1 KECCAK256 SLOAD PUSH1 0x1 PUSH1 0x1 PUSH1 0xA0 SHL SUB AND PUSH2 0xB00 JUMPI PUSH1 0x40 MLOAD PUSH3 0x461BCD PUSH1 0xE5 SHL DUP2 MSTORE PUSH1 0x20 PUSH1 0x4 DUP3 ADD MSTORE PUSH1 0x18 PUSH1 0x24 DUP3 ADD MSTORE PUSH24 0x115490CDCC8C4E881A5B9D985B1A59081D1BDAD95B881251 PUSH1 0x42 SHL PUSH1 0x44 DUP3 ADD MSTORE PUSH1 0x64 ADD PUSH2 0x62C JUMP JUMPDEST PUSH1 0x0 DUP2 DUP2 MSTORE PUSH1 0x4 PUSH1 0x20 MSTORE PUSH1 0x40 SWAP1 KECCAK256 DUP1 SLOAD PUSH1 0x1 PUSH1 0x1 PUSH1 0xA0 SHL SUB NOT AND PUSH1 0x1 PUSH1 0x1 PUSH1 0xA0 SHL SUB DUP5 AND SWAP1 DUP2 OR SWAP1 SWAP2 SSTORE DUP2 SWAP1 PUSH2 0xBE7 DUP3 PUSH2 0x85D JUMP JUMPDEST PUSH1 0x1 PUSH1 0x1 PUSH1 0xA0 SHL SUB AND PUSH32 0x8C5BE1E5EBEC7D5BD14F71427D1E84F3DD0314C0F7B2291E5B200AC8C7C3B925 PUSH1 0x40 MLOAD PUSH1 0x40 MLOAD DUP1 SWAP2 SUB SWAP1 LOG4 POP POP JUMP JUMPDEST PUSH1 0x0 DUP1 PUSH2 0xC2C DUP4 PUSH2 0x85D JUMP JUMPDEST SWAP1 POP DUP1 PUSH1 0x1 PUSH1 0x1 PUSH1 0xA0 SHL SUB AND DUP5 PUSH1 0x1 PUSH1 0x1 PUSH1 0xA0 SHL SUB AND EQ DUP1 PUSH2 0xC73 JUMPI POP PUSH1 0x1 PUSH1 0x1 PUSH1 0xA0 SHL SUB DUP1 DUP3 AND PUSH1 0x0 SWAP1 DUP2 MSTORE PUSH1 0x5 PUSH1 0x20 SWAP1 DUP2 MSTORE PUSH1 0x40 DUP1 DUP4 KECCAK256 SWAP4 DUP9 AND DUP4 MSTORE SWAP3 SWAP1 MSTORE KECCAK256 SLOAD PUSH1 0xFF AND JUMPDEST DUP1 PUSH2 0xC97 JUMPI POP DUP4 PUSH1 0x1 PUSH1 0x1 PUSH1 0xA0 SHL SUB AND PUSH2 0xC8C DUP5 PUSH2 0x591 JUMP JUMPDEST PUSH1 0x1 PUSH1 0x1 PUSH1 0xA0 SHL SUB AND EQ JUMPDEST SWAP5 SWAP4 POP POP POP POP JUMP JUMPDEST DUP3 PUSH1 0x1 PUSH1 0x1 PUSH1 0xA0 SHL SUB AND PUSH2 0xCB2 DUP3 PUSH2 0x85D JUMP JUMPDEST PUSH1 0x1 PUSH1 0x1 PUSH1 0xA0 SHL SUB AND EQ PUSH2 0xCD8 JUMPI PUSH1 0x40 MLOAD PUSH3 0x461BCD PUSH1 0xE5 SHL DUP2 MSTORE PUSH1 0x4 ADD PUSH2 0x62C SWAP1 PUSH2 0x1D98 JUMP JUMPDEST PUSH1 0x1 PUSH1 0x1 PUSH1 0xA0 SHL SUB DUP3 AND PUSH2 0xD3A JUMPI PUSH1 0x40 MLOAD PUSH3 0x461BCD PUSH1 0xE5 SHL DUP2 MSTORE PUSH1 0x20 PUSH1 0x4 DUP3 ADD MSTORE PUSH1 0x24 DUP1 DUP3 ADD MSTORE PUSH32 0x4552433732313A207472616E7366657220746F20746865207A65726F20616464 PUSH1 0x44 DUP3 ADD MSTORE PUSH4 0x72657373 PUSH1 0xE0 SHL PUSH1 0x64 DUP3 ADD MSTORE PUSH1 0x84 ADD PUSH2 0x62C JUMP JUMPDEST PUSH2 0xD47 DUP4 DUP4 DUP4 PUSH1 0x1 PUSH2 0x11FF JUMP JUMPDEST DUP3 PUSH1 0x1 PUSH1 0x1 PUSH1 0xA0 SHL SUB AND PUSH2 0xD5A DUP3 PUSH2 0x85D JUMP JUMPDEST PUSH1 0x1 PUSH1 0x1 PUSH1 0xA0 SHL SUB AND EQ PUSH2 0xD80 JUMPI PUSH1 0x40 MLOAD PUSH3 0x461BCD PUSH1 0xE5 SHL DUP2 MSTORE PUSH1 0x4 ADD PUSH2 0x62C SWAP1 PUSH2 0x1D98 JUMP JUMPDEST PUSH1 0x0 DUP2 DUP2 MSTORE PUSH1 0x4 PUSH1 0x20 SWAP1 DUP2 MSTORE PUSH1 0x40 DUP1 DUP4 KECCAK256 DUP1 SLOAD PUSH1 0x1 PUSH1 0x1 PUSH1 0xA0 SHL SUB NOT SWAP1 DUP2 AND SWAP1 SWAP2 SSTORE PUSH1 0x1 PUSH1 0x1 PUSH1 0xA0 SHL SUB DUP8 DUP2 AND DUP1 DUP7 MSTORE PUSH1 0x3 DUP6 MSTORE DUP4 DUP7 KECCAK256 DUP1 SLOAD PUSH1 0x0 NOT ADD SWAP1 SSTORE SWAP1 DUP8 AND DUP1 DUP7 MSTORE DUP4 DUP7 KECCAK256 DUP1 SLOAD PUSH1 0x1 ADD SWAP1 SSTORE DUP7 DUP7 MSTORE PUSH1 0x2 SWAP1 SWAP5 MSTORE DUP3 DUP6 KECCAK256 DUP1 SLOAD SWAP1 SWAP3 AND DUP5 OR SWAP1 SWAP2 SSTORE SWAP1 MLOAD DUP5 SWAP4 PUSH32 0xDDF252AD1BE2C89B69C2B068FC378DAA952BA7F163C4A11628F55A4DF523B3EF SWAP2 LOG4 POP POP POP JUMP JUMPDEST PUSH1 0xA SLOAD PUSH1 0x1 PUSH1 0x1 PUSH1 0xA0 SHL SUB AND CALLER EQ PUSH2 0x998 JUMPI PUSH1 0x40 MLOAD PUSH3 0x461BCD PUSH1 0xE5 SHL DUP2 MSTORE PUSH1 0x20 PUSH1 0x4 DUP3 ADD DUP2 SWAP1 MSTORE PUSH1 0x24 DUP3 ADD MSTORE PUSH32 0x4F776E61626C653A2063616C6C6572206973206E6F7420746865206F776E6572 PUSH1 0x44 DUP3 ADD MSTORE PUSH1 0x64 ADD PUSH2 0x62C JUMP JUMPDEST PUSH1 0x1 DUP2 LT ISZERO DUP1 ISZERO PUSH2 0xE7C JUMPI POP PUSH1 0x3 DUP2 GT ISZERO JUMPDEST PUSH2 0xEB7 JUMPI PUSH1 0x40 MLOAD PUSH3 0x461BCD PUSH1 0xE5 SHL DUP2 MSTORE PUSH1 0x20 PUSH1 0x4 DUP3 ADD MSTORE PUSH1 0xC PUSH1 0x24 DUP3 ADD MSTORE PUSH12 0x696E76616C69642074797065 PUSH1 0xA0 SHL PUSH1 0x44 DUP3 ADD MSTORE PUSH1 0x64 ADD PUSH2 0x62C JUMP JUMPDEST PUSH1 0x1 DUP2 SUB PUSH2 0xF19 JUMPI PUSH2 0x3E8 PUSH1 0xB SLOAD LT PUSH2 0xEFF JUMPI PUSH1 0x40 MLOAD PUSH3 0x461BCD PUSH1 0xE5 SHL DUP2 MSTORE PUSH1 0x20 PUSH1 0x4 DUP3 ADD MSTORE PUSH1 0xA PUSH1 0x24 DUP3 ADD MSTORE PUSH10 0x10481CDBDB19081BDD5D PUSH1 0xB2 SHL PUSH1 0x44 DUP3 ADD MSTORE PUSH1 0x64 ADD PUSH2 0x62C JUMP JUMPDEST PUSH1 0xB DUP1 SLOAD SWAP1 PUSH1 0x0 PUSH2 0xF0F DUP4 PUSH2 0x1DF3 JUMP JUMPDEST SWAP2 SWAP1 POP SSTORE POP PUSH2 0xFC6 JUMP JUMPDEST PUSH1 0x2 DUP2 SUB PUSH2 0xF71 JUMPI PUSH2 0x1F4 PUSH1 0xC SLOAD LT PUSH2 0xF61 JUMPI PUSH1 0x40 MLOAD PUSH3 0x461BCD PUSH1 0xE5 SHL DUP2 MSTORE PUSH1 0x20 PUSH1 0x4 DUP3 ADD MSTORE PUSH1 0xA PUSH1 0x24 DUP3 ADD MSTORE PUSH10 0x10881CDBDB19081BDD5D PUSH1 0xB2 SHL PUSH1 0x44 DUP3 ADD MSTORE PUSH1 0x64 ADD PUSH2 0x62C JUMP JUMPDEST PUSH1 0xC DUP1 SLOAD SWAP1 PUSH1 0x0 PUSH2 0xF0F DUP4 PUSH2 0x1DF3 JUMP JUMPDEST PUSH1 0x64 PUSH1 0xD SLOAD LT PUSH2 0xFB0 JUMPI PUSH1 0x40 MLOAD PUSH3 0x461BCD PUSH1 0xE5 SHL DUP2 MSTORE PUSH1 0x20 PUSH1 0x4 DUP3 ADD MSTORE PUSH1 0xA PUSH1 0x24 DUP3 ADD MSTORE PUSH10 0x10C81CDBDB19081BDD5D PUSH1 0xB2 SHL PUSH1 0x44 DUP3 ADD MSTORE PUSH1 0x64 ADD PUSH2 0x62C JUMP JUMPDEST PUSH1 0xD DUP1 SLOAD SWAP1 PUSH1 0x0 PUSH2 0xFC0 DUP4 PUSH2 0x1DF3 JUMP JUMPDEST SWAP2 SWAP1 POP SSTORE POP JUMPDEST PUSH1 0x0 PUSH2 0xFD1 PUSH1 0x8 SLOAD SWAP1 JUMP JUMPDEST PUSH2 0xFDC SWAP1 PUSH1 0x1 PUSH2 0x1E0C JUMP JUMPDEST SWAP1 POP PUSH2 0xFE8 DUP4 DUP3 PUSH2 0x1297 JUMP JUMPDEST PUSH1 0x0 DUP2 DUP2 MSTORE PUSH1 0xE PUSH1 0x20 SWAP1 DUP2 MSTORE PUSH1 0x40 DUP1 DUP4 KECCAK256 DUP6 SWAP1 SSTORE PUSH1 0x1 PUSH1 0x1 PUSH1 0xA0 SHL SUB DUP7 AND DUP4 MSTORE PUSH1 0xF SWAP1 SWAP2 MSTORE SWAP1 KECCAK256 PUSH2 0xA10 SWAP1 DUP3 PUSH2 0x12B1 JUMP JUMPDEST PUSH1 0xA DUP1 SLOAD PUSH1 0x1 PUSH1 0x1 PUSH1 0xA0 SHL SUB DUP4 DUP2 AND PUSH1 0x1 PUSH1 0x1 PUSH1 0xA0 SHL SUB NOT DUP4 AND DUP2 OR SWAP1 SWAP4 SSTORE PUSH1 0x40 MLOAD SWAP2 AND SWAP2 SWAP1 DUP3 SWAP1 PUSH32 0x8BE0079C531659141344CD1FD0A4F28419497F9722A3DAAFE3B4186F6B6457E0 SWAP1 PUSH1 0x0 SWAP1 LOG3 POP POP JUMP JUMPDEST DUP2 PUSH1 0x1 PUSH1 0x1 PUSH1 0xA0 SHL SUB AND DUP4 PUSH1 0x1 PUSH1 0x1 PUSH1 0xA0 SHL SUB AND SUB PUSH2 0x10CC JUMPI PUSH1 0x40 MLOAD PUSH3 0x461BCD PUSH1 0xE5 SHL DUP2 MSTORE PUSH1 0x20 PUSH1 0x4 DUP3 ADD MSTORE PUSH1 0x19 PUSH1 0x24 DUP3 ADD MSTORE PUSH32 0x4552433732313A20617070726F766520746F2063616C6C657200000000000000 PUSH1 0x44 DUP3 ADD MSTORE PUSH1 0x64 ADD PUSH2 0x62C JUMP JUMPDEST PUSH1 0x1 PUSH1 0x1 PUSH1 0xA0 SHL SUB DUP4 DUP2 AND PUSH1 0x0 DUP2 DUP2 MSTORE PUSH1 0x5 PUSH1 0x20 SWAP1 DUP2 MSTORE PUSH1 0x40 DUP1 DUP4 KECCAK256 SWAP5 DUP8 AND DUP1 DUP5 MSTORE SWAP5 DUP3 MSTORE SWAP2 DUP3 SWAP1 KECCAK256 DUP1 SLOAD PUSH1 0xFF NOT AND DUP7 ISZERO ISZERO SWAP1 DUP2 OR SWAP1 SWAP2 SSTORE SWAP2 MLOAD SWAP2 DUP3 MSTORE PUSH32 0x17307EAB39AB6107E8899845AD3D59BD9653F200F220920489CA2B5937696C31 SWAP2 ADD PUSH1 0x40 MLOAD DUP1 SWAP2 SUB SWAP1 LOG3 POP POP POP JUMP JUMPDEST PUSH2 0x1144 DUP5 DUP5 DUP5 PUSH2 0xC9F JUMP JUMPDEST PUSH2 0x1150 DUP5 DUP5 DUP5 DUP5 PUSH2 0x12BD JUMP JUMPDEST PUSH2 0xA10 JUMPI PUSH1 0x40 MLOAD PUSH3 0x461BCD PUSH1 0xE5 SHL DUP2 MSTORE PUSH1 0x4 ADD PUSH2 0x62C SWAP1 PUSH2 0x1E1F JUMP JUMPDEST PUSH1 0x60 PUSH1 0x0 PUSH2 0x1179 DUP4 PUSH2 0x13BE JUMP JUMPDEST PUSH1 0x1 ADD SWAP1 POP PUSH1 0x0 DUP2 PUSH8 0xFFFFFFFFFFFFFFFF DUP2 GT ISZERO PUSH2 0x1199 JUMPI PUSH2 0x1199 PUSH2 0x1BA7 JUMP JUMPDEST PUSH1 0x40 MLOAD SWAP1 DUP1 DUP3 MSTORE DUP1 PUSH1 0x1F ADD PUSH1 0x1F NOT AND PUSH1 0x20 ADD DUP3 ADD PUSH1 0x40 MSTORE DUP1 ISZERO PUSH2 0x11C3 JUMPI PUSH1 0x20 DUP3 ADD DUP2 DUP1 CALLDATASIZE DUP4 CALLDATACOPY ADD SWAP1 POP JUMPDEST POP SWAP1 POP DUP2 DUP2 ADD PUSH1 0x20 ADD JUMPDEST PUSH1 0x0 NOT ADD PUSH16 0x181899199A1A9B1B9C1CB0B131B232B3 PUSH1 0x81 SHL PUSH1 0xA DUP7 MOD BYTE DUP2 MSTORE8 PUSH1 0xA DUP6 DIV SWAP5 POP DUP5 PUSH2 0x11CD JUMPI POP SWAP4 SWAP3 POP POP POP JUMP JUMPDEST PUSH2 0x120B DUP5 DUP5 DUP5 DUP5 PUSH2 0x1496 JUMP JUMPDEST PUSH1 0x1 DUP2 GT ISZERO PUSH2 0x122C JUMPI PUSH1 0x40 MLOAD PUSH3 0x461BCD PUSH1 0xE5 SHL DUP2 MSTORE PUSH1 0x4 ADD PUSH2 0x62C SWAP1 PUSH2 0x1E71 JUMP JUMPDEST PUSH1 0x1 PUSH1 0x1 PUSH1 0xA0 SHL SUB DUP5 AND ISZERO PUSH2 0x125F JUMPI PUSH1 0x1 PUSH1 0x1 PUSH1 0xA0 SHL SUB DUP5 AND PUSH1 0x0 SWAP1 DUP2 MSTORE PUSH1 0xF PUSH1 0x20 MSTORE PUSH1 0x40 SWAP1 KECCAK256 PUSH2 0x125D SWAP1 DUP4 PUSH2 0x1575 JUMP JUMPDEST POP JUMPDEST PUSH1 0x1 PUSH1 0x1 PUSH1 0xA0 SHL SUB DUP4 AND ISZERO PUSH2 0xA10 JUMPI PUSH1 0x1 PUSH1 0x1 PUSH1 0xA0 SHL SUB DUP4 AND PUSH1 0x0 SWAP1 DUP2 MSTORE PUSH1 0xF PUSH1 0x20 MSTORE PUSH1 0x40 SWAP1 KECCAK256 PUSH2 0x1290 SWAP1 DUP4 PUSH2 0x12B1 JUMP JUMPDEST POP POP POP POP POP JUMP JUMPDEST PUSH2 0x7AB DUP3 DUP3 PUSH1 0x40 MLOAD DUP1 PUSH1 0x20 ADD PUSH1 0x40 MSTORE DUP1 PUSH1 0x0 DUP2 MSTORE POP PUSH2 0x1581 JUMP JUMPDEST PUSH1 0x0 PUSH2 0xA83 DUP4 DUP4 PUSH2 0x15B4 JUMP JUMPDEST PUSH1 0x0 PUSH1 0x1 PUSH1 0x1 PUSH1 0xA0 SHL SUB DUP5 AND EXTCODESIZE ISZERO PUSH2 0x13B3 JUMPI PUSH1 0x40 MLOAD PUSH4 0xA85BD01 PUSH1 0xE1 SHL DUP2 MSTORE PUSH1 0x1 PUSH1 0x1 PUSH1 0xA0 SHL SUB DUP6 AND SWAP1 PUSH4 0x150B7A02 SWAP1 PUSH2 0x1301 SWAP1 CALLER SWAP1 DUP10 SWAP1 DUP9 SWAP1 DUP9 SWAP1 PUSH1 0x4 ADD PUSH2 0x1EC6 JUMP JUMPDEST PUSH1 0x20 PUSH1 0x40 MLOAD DUP1 DUP4 SUB DUP2 PUSH1 0x0 DUP8 GAS CALL SWAP3 POP POP POP DUP1 ISZERO PUSH2 0x133C JUMPI POP PUSH1 0x40 DUP1 MLOAD PUSH1 0x1F RETURNDATASIZE SWAP1 DUP2 ADD PUSH1 0x1F NOT AND DUP3 ADD SWAP1 SWAP3 MSTORE PUSH2 0x1339 SWAP2 DUP2 ADD SWAP1 PUSH2 0x1F03 JUMP JUMPDEST PUSH1 0x1 JUMPDEST PUSH2 0x1399 JUMPI RETURNDATASIZE DUP1 DUP1 ISZERO PUSH2 0x136A JUMPI PUSH1 0x40 MLOAD SWAP2 POP PUSH1 0x1F NOT PUSH1 0x3F RETURNDATASIZE ADD AND DUP3 ADD PUSH1 0x40 MSTORE RETURNDATASIZE DUP3 MSTORE RETURNDATASIZE PUSH1 0x0 PUSH1 0x20 DUP5 ADD RETURNDATACOPY PUSH2 0x136F JUMP JUMPDEST PUSH1 0x60 SWAP2 POP JUMPDEST POP DUP1 MLOAD PUSH1 0x0 SUB PUSH2 0x1391 JUMPI PUSH1 0x40 MLOAD PUSH3 0x461BCD PUSH1 0xE5 SHL DUP2 MSTORE PUSH1 0x4 ADD PUSH2 0x62C SWAP1 PUSH2 0x1E1F JUMP JUMPDEST DUP1 MLOAD DUP2 PUSH1 0x20 ADD REVERT JUMPDEST PUSH1 0x1 PUSH1 0x1 PUSH1 0xE0 SHL SUB NOT AND PUSH4 0xA85BD01 PUSH1 0xE1 SHL EQ SWAP1 POP PUSH2 0xC97 JUMP JUMPDEST POP PUSH1 0x1 SWAP5 SWAP4 POP POP POP POP JUMP JUMPDEST PUSH1 0x0 DUP1 PUSH19 0x184F03E93FF9F4DAA797ED6E38ED64BF6A1F01 PUSH1 0x40 SHL DUP4 LT PUSH2 0x13FD JUMPI PUSH19 0x184F03E93FF9F4DAA797ED6E38ED64BF6A1F01 PUSH1 0x40 SHL DUP4 DIV SWAP3 POP PUSH1 0x40 ADD JUMPDEST PUSH14 0x4EE2D6D415B85ACEF8100000000 DUP4 LT PUSH2 0x1429 JUMPI PUSH14 0x4EE2D6D415B85ACEF8100000000 DUP4 DIV SWAP3 POP PUSH1 0x20 ADD JUMPDEST PUSH7 0x2386F26FC10000 DUP4 LT PUSH2 0x1447 JUMPI PUSH7 0x2386F26FC10000 DUP4 DIV SWAP3 POP PUSH1 0x10 ADD JUMPDEST PUSH4 0x5F5E100 DUP4 LT PUSH2 0x145F JUMPI PUSH4 0x5F5E100 DUP4 DIV SWAP3 POP PUSH1 0x8 ADD JUMPDEST PUSH2 0x2710 DUP4 LT PUSH2 0x1473 JUMPI PUSH2 0x2710 DUP4 DIV SWAP3 POP PUSH1 0x4 ADD JUMPDEST PUSH1 0x64 DUP4 LT PUSH2 0x1485 JUMPI PUSH1 0x64 DUP4 DIV SWAP3 POP PUSH1 0x2 ADD JUMPDEST PUSH1 0xA DUP4 LT PUSH2 0x4F9 JUMPI PUSH1 0x1 ADD SWAP3 SWAP2 POP POP JUMP JUMPDEST PUSH1 0x1 DUP2 GT ISZERO PUSH2 0x14B7 JUMPI PUSH1 0x40 MLOAD PUSH3 0x461BCD PUSH1 0xE5 SHL DUP2 MSTORE PUSH1 0x4 ADD PUSH2 0x62C SWAP1 PUSH2 0x1E71 JUMP JUMPDEST DUP2 PUSH1 0x1 PUSH1 0x1 PUSH1 0xA0 SHL SUB DUP6 AND PUSH2 0x1513 JUMPI PUSH2 0x150E DUP2 PUSH1 0x8 DUP1 SLOAD PUSH1 0x0 DUP4 DUP2 MSTORE PUSH1 0x9 PUSH1 0x20 MSTORE PUSH1 0x40 DUP2 KECCAK256 DUP3 SWAP1 SSTORE PUSH1 0x1 DUP3 ADD DUP4 SSTORE SWAP2 SWAP1 SWAP2 MSTORE PUSH32 0xF3F7A9FE364FAAB93B216DA50A3214154F22A0A2B415B23A84C8169E8B636EE3 ADD SSTORE JUMP JUMPDEST PUSH2 0x1536 JUMP JUMPDEST DUP4 PUSH1 0x1 PUSH1 0x1 PUSH1 0xA0 SHL SUB AND DUP6 PUSH1 0x1 PUSH1 0x1 PUSH1 0xA0 SHL SUB AND EQ PUSH2 0x1536 JUMPI PUSH2 0x1536 DUP6 DUP3 PUSH2 0x1603 JUMP JUMPDEST PUSH1 0x1 PUSH1 0x1 PUSH1 0xA0 SHL SUB DUP5 AND PUSH2 0x1552 JUMPI PUSH2 0x154D DUP2 PUSH2 0x16A0 JUMP JUMPDEST PUSH2 0x1290 JUMP JUMPDEST DUP5 PUSH1 0x1 PUSH1 0x1 PUSH1 0xA0 SHL SUB AND DUP5 PUSH1 0x1 PUSH1 0x1 PUSH1 0xA0 SHL SUB AND EQ PUSH2 0x1290 JUMPI PUSH2 0x1290 DUP5 DUP3 PUSH2 0x174F JUMP JUMPDEST PUSH1 0x0 PUSH2 0xA83 DUP4 DUP4 PUSH2 0x1793 JUMP JUMPDEST PUSH2 0x158B DUP4 DUP4 PUSH2 0x1886 JUMP JUMPDEST PUSH2 0x1598 PUSH1 0x0 DUP5 DUP5 DUP5 PUSH2 0x12BD JUMP JUMPDEST PUSH2 0x6CD JUMPI PUSH1 0x40 MLOAD PUSH3 0x461BCD PUSH1 0xE5 SHL DUP2 MSTORE PUSH1 0x4 ADD PUSH2 0x62C SWAP1 PUSH2 0x1E1F JUMP JUMPDEST PUSH1 0x0 DUP2 DUP2 MSTORE PUSH1 0x1 DUP4 ADD PUSH1 0x20 MSTORE PUSH1 0x40 DUP2 KECCAK256 SLOAD PUSH2 0x15FB JUMPI POP DUP2 SLOAD PUSH1 0x1 DUP2 DUP2 ADD DUP5 SSTORE PUSH1 0x0 DUP5 DUP2 MSTORE PUSH1 0x20 DUP1 DUP3 KECCAK256 SWAP1 SWAP4 ADD DUP5 SWAP1 SSTORE DUP5 SLOAD DUP5 DUP3 MSTORE DUP3 DUP7 ADD SWAP1 SWAP4 MSTORE PUSH1 0x40 SWAP1 KECCAK256 SWAP2 SWAP1 SWAP2 SSTORE PUSH2 0x4F9 JUMP JUMPDEST POP PUSH1 0x0 PUSH2 0x4F9 JUMP JUMPDEST PUSH1 0x0 PUSH1 0x1 PUSH2 0x1610 DUP5 PUSH2 0x900 JUMP JUMPDEST PUSH2 0x161A SWAP2 SWAP1 PUSH2 0x1F20 JUMP JUMPDEST PUSH1 0x0 DUP4 DUP2 MSTORE PUSH1 0x7 PUSH1 0x20 MSTORE PUSH1 0x40 SWAP1 KECCAK256 SLOAD SWAP1 SWAP2 POP DUP1 DUP3 EQ PUSH2 0x166D JUMPI PUSH1 0x1 PUSH1 0x1 PUSH1 0xA0 SHL SUB DUP5 AND PUSH1 0x0 SWAP1 DUP2 MSTORE PUSH1 0x6 PUSH1 0x20 SWAP1 DUP2 MSTORE PUSH1 0x40 DUP1 DUP4 KECCAK256 DUP6 DUP5 MSTORE DUP3 MSTORE DUP1 DUP4 KECCAK256 SLOAD DUP5 DUP5 MSTORE DUP2 DUP5 KECCAK256 DUP2 SWAP1 SSTORE DUP4 MSTORE PUSH1 0x7 SWAP1 SWAP2 MSTORE SWAP1 KECCAK256 DUP2 SWAP1 SSTORE JUMPDEST POP PUSH1 0x0 SWAP2 DUP3 MSTORE PUSH1 0x7 PUSH1 0x20 SWAP1 DUP2 MSTORE PUSH1 0x40 DUP1 DUP5 KECCAK256 DUP5 SWAP1 SSTORE PUSH1 0x1 PUSH1 0x1 PUSH1 0xA0 SHL SUB SWAP1 SWAP5 AND DUP4 MSTORE PUSH1 0x6 DUP2 MSTORE DUP4 DUP4 KECCAK256 SWAP2 DUP4 MSTORE MSTORE SWAP1 DUP2 KECCAK256 SSTORE JUMP JUMPDEST PUSH1 0x8 SLOAD PUSH1 0x0 SWAP1 PUSH2 0x16B2 SWAP1 PUSH1 0x1 SWAP1 PUSH2 0x1F20 JUMP JUMPDEST PUSH1 0x0 DUP4 DUP2 MSTORE PUSH1 0x9 PUSH1 0x20 MSTORE PUSH1 0x40 DUP2 KECCAK256 SLOAD PUSH1 0x8 DUP1 SLOAD SWAP4 SWAP5 POP SWAP1 SWAP3 DUP5 SWAP1 DUP2 LT PUSH2 0x16DA JUMPI PUSH2 0x16DA PUSH2 0x1D53 JUMP JUMPDEST SWAP1 PUSH1 0x0 MSTORE PUSH1 0x20 PUSH1 0x0 KECCAK256 ADD SLOAD SWAP1 POP DUP1 PUSH1 0x8 DUP4 DUP2 SLOAD DUP2 LT PUSH2 0x16FB JUMPI PUSH2 0x16FB PUSH2 0x1D53 JUMP JUMPDEST PUSH1 0x0 SWAP2 DUP3 MSTORE PUSH1 0x20 DUP1 DUP4 KECCAK256 SWAP1 SWAP2 ADD SWAP3 SWAP1 SWAP3 SSTORE DUP3 DUP2 MSTORE PUSH1 0x9 SWAP1 SWAP2 MSTORE PUSH1 0x40 DUP1 DUP3 KECCAK256 DUP5 SWAP1 SSTORE DUP6 DUP3 MSTORE DUP2 KECCAK256 SSTORE PUSH1 0x8 DUP1 SLOAD DUP1 PUSH2 0x1733 JUMPI PUSH2 0x1733 PUSH2 0x1F33 JUMP JUMPDEST PUSH1 0x1 SWAP1 SUB DUP2 DUP2 SWAP1 PUSH1 0x0 MSTORE PUSH1 0x20 PUSH1 0x0 KECCAK256 ADD PUSH1 0x0 SWAP1 SSTORE SWAP1 SSTORE POP POP POP POP JUMP JUMPDEST PUSH1 0x0 PUSH2 0x175A DUP4 PUSH2 0x900 JUMP JUMPDEST PUSH1 0x1 PUSH1 0x1 PUSH1 0xA0 SHL SUB SWAP1 SWAP4 AND PUSH1 0x0 SWAP1 DUP2 MSTORE PUSH1 0x6 PUSH1 0x20 SWAP1 DUP2 MSTORE PUSH1 0x40 DUP1 DUP4 KECCAK256 DUP7 DUP5 MSTORE DUP3 MSTORE DUP1 DUP4 KECCAK256 DUP6 SWAP1 SSTORE SWAP4 DUP3 MSTORE PUSH1 0x7 SWAP1 MSTORE SWAP2 SWAP1 SWAP2 KECCAK256 SWAP2 SWAP1 SWAP2 SSTORE POP JUMP JUMPDEST PUSH1 0x0 DUP2 DUP2 MSTORE PUSH1 0x1 DUP4 ADD PUSH1 0x20 MSTORE PUSH1 0x40 DUP2 KECCAK256 SLOAD DUP1 ISZERO PUSH2 0x187C JUMPI PUSH1 0x0 PUSH2 0x17B7 PUSH1 0x1 DUP4 PUSH2 0x1F20 JUMP JUMPDEST DUP6 SLOAD SWAP1 SWAP2 POP PUSH1 0x0 SWAP1 PUSH2 0x17CB SWAP1 PUSH1 0x1 SWAP1 PUSH2 0x1F20 JUMP JUMPDEST SWAP1 POP DUP2 DUP2 EQ PUSH2 0x1830 JUMPI PUSH1 0x0 DUP7 PUSH1 0x0 ADD DUP3 DUP2 SLOAD DUP2 LT PUSH2 0x17EB JUMPI PUSH2 0x17EB PUSH2 0x1D53 JUMP JUMPDEST SWAP1 PUSH1 0x0 MSTORE PUSH1 0x20 PUSH1 0x0 KECCAK256 ADD SLOAD SWAP1 POP DUP1 DUP8 PUSH1 0x0 ADD DUP5 DUP2 SLOAD DUP2 LT PUSH2 0x180E JUMPI PUSH2 0x180E PUSH2 0x1D53 JUMP JUMPDEST PUSH1 0x0 SWAP2 DUP3 MSTORE PUSH1 0x20 DUP1 DUP4 KECCAK256 SWAP1 SWAP2 ADD SWAP3 SWAP1 SWAP3 SSTORE SWAP2 DUP3 MSTORE PUSH1 0x1 DUP9 ADD SWAP1 MSTORE PUSH1 0x40 SWAP1 KECCAK256 DUP4 SWAP1 SSTORE JUMPDEST DUP6 SLOAD DUP7 SWAP1 DUP1 PUSH2 0x1841 JUMPI PUSH2 0x1841 PUSH2 0x1F33 JUMP JUMPDEST PUSH1 0x1 SWAP1 SUB DUP2 DUP2 SWAP1 PUSH1 0x0 MSTORE PUSH1 0x20 PUSH1 0x0 KECCAK256 ADD PUSH1 0x0 SWAP1 SSTORE SWAP1 SSTORE DUP6 PUSH1 0x1 ADD PUSH1 0x0 DUP7 DUP2 MSTORE PUSH1 0x20 ADD SWAP1 DUP2 MSTORE PUSH1 0x20 ADD PUSH1 0x0 KECCAK256 PUSH1 0x0 SWAP1 SSTORE PUSH1 0x1 SWAP4 POP POP POP POP PUSH2 0x4F9 JUMP JUMPDEST PUSH1 0x0 SWAP2 POP POP PUSH2 0x4F9 JUMP JUMPDEST PUSH1 0x1 PUSH1 0x1 PUSH1 0xA0 SHL SUB DUP3 AND PUSH2 0x18DC JUMPI PUSH1 0x40 MLOAD PUSH3 0x461BCD PUSH1 0xE5 SHL DUP2 MSTORE PUSH1 0x20 PUSH1 0x4 DUP3 ADD DUP2 SWAP1 MSTORE PUSH1 0x24 DUP3 ADD MSTORE PUSH32 0x4552433732313A206D696E7420746F20746865207A65726F2061646472657373 PUSH1 0x44 DUP3 ADD MSTORE PUSH1 0x64 ADD PUSH2 0x62C JUMP JUMPDEST PUSH1 0x0 DUP2 DUP2 MSTORE PUSH1 0x2 PUSH1 0x20 MSTORE PUSH1 0x40 SWAP1 KECCAK256 SLOAD PUSH1 0x1 PUSH1 0x1 PUSH1 0xA0 SHL SUB AND ISZERO PUSH2 0x1941 JUMPI PUSH1 0x40 MLOAD PUSH3 0x461BCD PUSH1 0xE5 SHL DUP2 MSTORE PUSH1 0x20 PUSH1 0x4 DUP3 ADD MSTORE PUSH1 0x1C PUSH1 0x24 DUP3 ADD MSTORE PUSH32 0x4552433732313A20746F6B656E20616C7265616479206D696E74656400000000 PUSH1 0x44 DUP3 ADD MSTORE PUSH1 0x64 ADD PUSH2 0x62C JUMP JUMPDEST PUSH2 0x194F PUSH1 0x0 DUP4 DUP4 PUSH1 0x1 PUSH2 0x11FF JUMP JUMPDEST PUSH1 0x0 DUP2 DUP2 MSTORE PUSH1 0x2 PUSH1 0x20 MSTORE PUSH1 0x40 SWAP1 KECCAK256 SLOAD PUSH1 0x1 PUSH1 0x1 PUSH1 0xA0 SHL SUB AND ISZERO PUSH2 0x19B4 JUMPI PUSH1 0x40 MLOAD PUSH3 0x461BCD PUSH1 0xE5 SHL DUP2 MSTORE PUSH1 0x20 PUSH1 0x4 DUP3 ADD MSTORE PUSH1 0x1C PUSH1 0x24 DUP3 ADD MSTORE PUSH32 0x4552433732313A20746F6B656E20616C7265616479206D696E74656400000000 PUSH1 0x44 DUP3 ADD MSTORE PUSH1 0x64 ADD PUSH2 0x62C JUMP JUMPDEST PUSH1 0x1 PUSH1 0x1 PUSH1 0xA0 SHL SUB DUP3 AND PUSH1 0x0 DUP2 DUP2 MSTORE PUSH1 0x3 PUSH1 0x20 SWAP1 DUP2 MSTORE PUSH1 0x40 DUP1 DUP4 KECCAK256 DUP1 SLOAD PUSH1 0x1 ADD SWAP1 SSTORE DUP5 DUP4 MSTORE PUSH1 0x2 SWAP1 SWAP2 MSTORE DUP1 DUP3 KECCAK256 DUP1 SLOAD PUSH1 0x1 PUSH1 0x1 PUSH1 0xA0 SHL SUB NOT AND DUP5 OR SWAP1 SSTORE MLOAD DUP4 SWAP3 SWAP2 SWAP1 PUSH32 0xDDF252AD1BE2C89B69C2B068FC378DAA952BA7F163C4A11628F55A4DF523B3EF SWAP1 DUP3 SWAP1 LOG4 POP POP JUMP JUMPDEST PUSH1 0x1 PUSH1 0x1 PUSH1 0xE0 SHL SUB NOT DUP2 AND DUP2 EQ PUSH2 0xB00 JUMPI PUSH1 0x0 DUP1 REVERT JUMPDEST PUSH1 0x0 PUSH1 0x20 DUP3 DUP5 SUB SLT ISZERO PUSH2 0x1A47 JUMPI PUSH1 0x0 DUP1 REVERT JUMPDEST DUP2 CALLDATALOAD PUSH2 0xA83 DUP2 PUSH2 0x1A1F JUMP JUMPDEST PUSH1 0x0 JUMPDEST DUP4 DUP2 LT ISZERO PUSH2 0x1A6D JUMPI DUP2 DUP2 ADD MLOAD DUP4 DUP3 ADD MSTORE PUSH1 0x20 ADD PUSH2 0x1A55 JUMP JUMPDEST POP POP PUSH1 0x0 SWAP2 ADD MSTORE JUMP JUMPDEST PUSH1 0x0 DUP2 MLOAD DUP1 DUP5 MSTORE PUSH2 0x1A8E DUP2 PUSH1 0x20 DUP7 ADD PUSH1 0x20 DUP7 ADD PUSH2 0x1A52 JUMP JUMPDEST PUSH1 0x1F ADD PUSH1 0x1F NOT AND SWAP3 SWAP1 SWAP3 ADD PUSH1 0x20 ADD SWAP3 SWAP2 POP POP JUMP JUMPDEST PUSH1 0x20 DUP2 MSTORE PUSH1 0x0 PUSH2 0xA83 PUSH1 0x20 DUP4 ADD DUP5 PUSH2 0x1A76 JUMP JUMPDEST PUSH1 0x0 PUSH1 0x20 DUP3 DUP5 SUB SLT ISZERO PUSH2 0x1AC7 JUMPI PUSH1 0x0 DUP1 REVERT JUMPDEST POP CALLDATALOAD SWAP2 SWAP1 POP JUMP JUMPDEST DUP1 CALLDATALOAD PUSH1 0x1 PUSH1 0x1 PUSH1 0xA0 SHL SUB DUP2 AND DUP2 EQ PUSH2 0x1AE5 JUMPI PUSH1 0x0 DUP1 REVERT JUMPDEST SWAP2 SWAP1 POP JUMP JUMPDEST PUSH1 0x0 DUP1 PUSH1 0x40 DUP4 DUP6 SUB SLT ISZERO PUSH2 0x1AFD JUMPI PUSH1 0x0 DUP1 REVERT JUMPDEST PUSH2 0x1B06 DUP4 PUSH2 0x1ACE JUMP JUMPDEST SWAP5 PUSH1 0x20 SWAP4 SWAP1 SWAP4 ADD CALLDATALOAD SWAP4 POP POP POP JUMP JUMPDEST PUSH1 0x0 DUP1 PUSH1 0x0 PUSH1 0x60 DUP5 DUP7 SUB SLT ISZERO PUSH2 0x1B29 JUMPI PUSH1 0x0 DUP1 REVERT JUMPDEST PUSH2 0x1B32 DUP5 PUSH2 0x1ACE JUMP JUMPDEST SWAP3 POP PUSH2 0x1B40 PUSH1 0x20 DUP6 ADD PUSH2 0x1ACE JUMP JUMPDEST SWAP2 POP PUSH1 0x40 DUP5 ADD CALLDATALOAD SWAP1 POP SWAP3 POP SWAP3 POP SWAP3 JUMP JUMPDEST PUSH1 0x0 PUSH1 0x20 DUP3 DUP5 SUB SLT ISZERO PUSH2 0x1B62 JUMPI PUSH1 0x0 DUP1 REVERT JUMPDEST PUSH2 0xA83 DUP3 PUSH2 0x1ACE JUMP JUMPDEST PUSH1 0x0 DUP1 PUSH1 0x40 DUP4 DUP6 SUB SLT ISZERO PUSH2 0x1B7E JUMPI PUSH1 0x0 DUP1 REVERT JUMPDEST PUSH2 0x1B87 DUP4 PUSH2 0x1ACE JUMP JUMPDEST SWAP2 POP PUSH1 0x20 DUP4 ADD CALLDATALOAD DUP1 ISZERO ISZERO DUP2 EQ PUSH2 0x1B9C JUMPI PUSH1 0x0 DUP1 REVERT JUMPDEST DUP1 SWAP2 POP POP SWAP3 POP SWAP3 SWAP1 POP JUMP JUMPDEST PUSH4 0x4E487B71 PUSH1 0xE0 SHL PUSH1 0x0 MSTORE PUSH1 0x41 PUSH1 0x4 MSTORE PUSH1 0x24 PUSH1 0x0 REVERT JUMPDEST PUSH1 0x0 DUP1 PUSH1 0x0 DUP1 PUSH1 0x80 DUP6 DUP8 SUB SLT ISZERO PUSH2 0x1BD3 JUMPI PUSH1 0x0 DUP1 REVERT JUMPDEST PUSH2 0x1BDC DUP6 PUSH2 0x1ACE JUMP JUMPDEST SWAP4 POP PUSH2 0x1BEA PUSH1 0x20 DUP7 ADD PUSH2 0x1ACE JUMP JUMPDEST SWAP3 POP PUSH1 0x40 DUP6 ADD CALLDATALOAD SWAP2 POP PUSH1 0x60 DUP6 ADD CALLDATALOAD PUSH8 0xFFFFFFFFFFFFFFFF DUP1 DUP3 GT ISZERO PUSH2 0x1C0E JUMPI PUSH1 0x0 DUP1 REVERT JUMPDEST DUP2 DUP8 ADD SWAP2 POP DUP8 PUSH1 0x1F DUP4 ADD SLT PUSH2 0x1C22 JUMPI PUSH1 0x0 DUP1 REVERT JUMPDEST DUP2 CALLDATALOAD DUP2 DUP2 GT ISZERO PUSH2 0x1C34 JUMPI PUSH2 0x1C34 PUSH2 0x1BA7 JUMP JUMPDEST PUSH1 0x40 MLOAD PUSH1 0x1F DUP3 ADD PUSH1 0x1F NOT SWAP1 DUP2 AND PUSH1 0x3F ADD AND DUP2 ADD SWAP1 DUP4 DUP3 GT DUP2 DUP4 LT OR ISZERO PUSH2 0x1C5C JUMPI PUSH2 0x1C5C PUSH2 0x1BA7 JUMP JUMPDEST DUP2 PUSH1 0x40 MSTORE DUP3 DUP2 MSTORE DUP11 PUSH1 0x20 DUP5 DUP8 ADD ADD GT ISZERO PUSH2 0x1C75 JUMPI PUSH1 0x0 DUP1 REVERT JUMPDEST DUP3 PUSH1 0x20 DUP7 ADD PUSH1 0x20 DUP4 ADD CALLDATACOPY PUSH1 0x0 PUSH1 0x20 DUP5 DUP4 ADD ADD MSTORE DUP1 SWAP6 POP POP POP POP POP POP SWAP3 SWAP6 SWAP2 SWAP5 POP SWAP3 POP JUMP JUMPDEST PUSH1 0x0 DUP1 PUSH1 0x40 DUP4 DUP6 SUB SLT ISZERO PUSH2 0x1CAC JUMPI PUSH1 0x0 DUP1 REVERT JUMPDEST PUSH2 0x1CB5 DUP4 PUSH2 0x1ACE JUMP JUMPDEST SWAP2 POP PUSH2 0x1CC3 PUSH1 0x20 DUP5 ADD PUSH2 0x1ACE JUMP JUMPDEST SWAP1 POP SWAP3 POP SWAP3 SWAP1 POP JUMP JUMPDEST PUSH1 0x1 DUP2 DUP2 SHR SWAP1 DUP3 AND DUP1 PUSH2 0x1CE0 JUMPI PUSH1 0x7F DUP3 AND SWAP2 POP JUMPDEST PUSH1 0x20 DUP3 LT DUP2 SUB PUSH2 0x1D00 JUMPI PUSH4 0x4E487B71 PUSH1 0xE0 SHL PUSH1 0x0 MSTORE PUSH1 0x22 PUSH1 0x4 MSTORE PUSH1 0x24 PUSH1 0x0 REVERT JUMPDEST POP SWAP2 SWAP1 POP JUMP JUMPDEST PUSH1 0x20 DUP1 DUP3 MSTORE PUSH1 0x2D SWAP1 DUP3 ADD MSTORE PUSH32 0x4552433732313A2063616C6C6572206973206E6F7420746F6B656E206F776E65 PUSH1 0x40 DUP3 ADD MSTORE PUSH13 0x1C881BDC88185C1C1C9BDD9959 PUSH1 0x9A SHL PUSH1 0x60 DUP3 ADD MSTORE PUSH1 0x80 ADD SWAP1 JUMP JUMPDEST PUSH4 0x4E487B71 PUSH1 0xE0 SHL PUSH1 0x0 MSTORE PUSH1 0x32 PUSH1 0x4 MSTORE PUSH1 0x24 PUSH1 0x0 REVERT JUMPDEST PUSH1 0x0 DUP4 MLOAD PUSH2 0x1D7B DUP2 DUP5 PUSH1 0x20 DUP9 ADD PUSH2 0x1A52 JUMP JUMPDEST DUP4 MLOAD SWAP1 DUP4 ADD SWAP1 PUSH2 0x1D8F DUP2 DUP4 PUSH1 0x20 DUP9 ADD PUSH2 0x1A52 JUMP JUMPDEST ADD SWAP5 SWAP4 POP POP POP POP JUMP JUMPDEST PUSH1 0x20 DUP1 DUP3 MSTORE PUSH1 0x25 SWAP1 DUP3 ADD MSTORE PUSH32 0x4552433732313A207472616E736665722066726F6D20696E636F727265637420 PUSH1 0x40 DUP3 ADD MSTORE PUSH5 0x37BBB732B9 PUSH1 0xD9 SHL PUSH1 0x60 DUP3 ADD MSTORE PUSH1 0x80 ADD SWAP1 JUMP JUMPDEST PUSH4 0x4E487B71 PUSH1 0xE0 SHL PUSH1 0x0 MSTORE PUSH1 0x11 PUSH1 0x4 MSTORE PUSH1 0x24 PUSH1 0x0 REVERT JUMPDEST PUSH1 0x0 PUSH1 0x1 DUP3 ADD PUSH2 0x1E05 JUMPI PUSH2 0x1E05 PUSH2 0x1DDD JUMP JUMPDEST POP PUSH1 0x1 ADD SWAP1 JUMP JUMPDEST DUP1 DUP3 ADD DUP1 DUP3 GT ISZERO PUSH2 0x4F9 JUMPI PUSH2 0x4F9 PUSH2 0x1DDD JUMP JUMPDEST PUSH1 0x20 DUP1 DUP3 MSTORE PUSH1 0x32 SWAP1 DUP3 ADD MSTORE PUSH32 0x4552433732313A207472616E7366657220746F206E6F6E204552433732315265 PUSH1 0x40 DUP3 ADD MSTORE PUSH18 0x31B2B4BB32B91034B6B83632B6B2B73A32B9 PUSH1 0x71 SHL PUSH1 0x60 DUP3 ADD MSTORE PUSH1 0x80 ADD SWAP1 JUMP JUMPDEST PUSH1 0x20 DUP1 DUP3 MSTORE PUSH1 0x35 SWAP1 DUP3 ADD MSTORE PUSH32 0x455243373231456E756D657261626C653A20636F6E7365637574697665207472 PUSH1 0x40 DUP3 ADD MSTORE PUSH21 0x185B9CD9995C9CC81B9BDD081CDD5C1C1BDC9D1959 PUSH1 0x5A SHL PUSH1 0x60 DUP3 ADD MSTORE PUSH1 0x80 ADD SWAP1 JUMP JUMPDEST PUSH1 0x1 PUSH1 0x1 PUSH1 0xA0 SHL SUB DUP6 DUP2 AND DUP3 MSTORE DUP5 AND PUSH1 0x20 DUP3 ADD MSTORE PUSH1 0x40 DUP2 ADD DUP4 SWAP1 MSTORE PUSH1 0x80 PUSH1 0x60 DUP3 ADD DUP2 SWAP1 MSTORE PUSH1 0x0 SWAP1 PUSH2 0x1EF9 SWAP1 DUP4 ADD DUP5 PUSH2 0x1A76 JUMP JUMPDEST SWAP7 SWAP6 POP POP POP POP POP POP JUMP JUMPDEST PUSH1 0x0 PUSH1 0x20 DUP3 DUP5 SUB SLT ISZERO PUSH2 0x1F15 JUMPI PUSH1 0x0 DUP1 REVERT JUMPDEST DUP2 MLOAD PUSH2 0xA83 DUP2 PUSH2 0x1A1F JUMP JUMPDEST DUP2 DUP2 SUB DUP2 DUP2 GT ISZERO PUSH2 0x4F9 JUMPI PUSH2 0x4F9 PUSH2 0x1DDD JUMP JUMPDEST PUSH4 0x4E487B71 PUSH1 0xE0 SHL PUSH1 0x0 MSTORE PUSH1 0x31 PUSH1 0x4 MSTORE PUSH1 0x24 PUSH1 0x0 REVERT INVALID LOG2 PUSH5 0x6970667358 0x22 SLT KECCAK256 0xBC 0x1F STATICCALL LT LOG4 0xC9 0xB5 0xF8 0xB1 PUSH31 0x4E43309A12F8455061F569EE1436AA616BB412DB873264736F6C6343000811 STOP CALLER "},"methodIdentifiers":{"BEP20_TOKEN()":"d02adc2a","BLACKHOLE()":"1cd3a4ac","BURN_DECREMENT()":"609a33a8","INVEST_MAX_FINAL()":"34eb8c43","INVEST_MAX_START()":"939c54fc","INVEST_MAX_STEP()":"bb89209b","INVEST_MIN()":"9baa944d","LP_FEE_180DAYS()":"5c93919b","LP_FEE_60DAYS()":"a065575b","LP_FEE_AFTER()":"02a18ae5","MIN_BURN_RATE()":"f0c9e87a","PHASE_DURATION()":"4ae2b849","adminWithdrawBEP20(uint256)":"5525f3b2","adminWithdrawBNB()":"4529be26","allUsers(uint256)":"a2bdedf4","blockAccPerShare()":"96649b86","blockMining()":"08bed0f0","blockRewardDebt(address)":"d92721b5","burnRate()":"bed99850","buyNode(uint256)":"edd47fe6","buybackAndBurn()":"fb210b20","canDeposit(address)":"4bf0d331","claimDTeam()":"99dc0025","claimLP()":"de44391a","claimNft()":"5ae2afa4","claimPartner()":"d33bce87","dAccPerShare(uint256)":"45335b6d","dRewardDebt(address)":"1c7c74f9","dThresholds(uint256)":"c73bd869","dTotalUsers(uint256)":"b5478365","dailyReleaseRate()":"2c9a7ea6","deposit(uint256)":"b6b55f25","dqCard()":"a53f57bc","dqPrice()":"a68cc6e3","dqToken()":"f043369b","dynamicPool()":"588ab80b","feePool()":"ae2e933b","foundationWallet()":"6b7ae8dc","getBEP20Balance()":"297324a4","getContractBalance()":"6f9fb98a","getCurrentMaxInvest()":"191b0f84","getLPStake(address)":"3207313d","getPrice()":"98d5fdca","getSingleStake(address,uint256)":"15914247","getUser(address)":"6f77926b","insurancePool()":"ab2adc00","isPartner(address)":"8c0f9aac","lastBlockTime()":"c85ea4ec","levelRates(uint256)":"7879b5ef","lpAccPerShare()":"e4aa1efe","lpPool()":"3737bcb4","lpStakes(address)":"f2f09130","nftAccPerShare(uint256)":"bef58b45","nftRewardDebt(address,uint256)":"cee5e553","operationPool()":"ef57c74e","owner()":"8da5cb5b","partnerAccPerShare()":"f1f16d05","partnerCount()":"e79d0860","partnerDebt(address)":"07bc8840","partnerList(uint256)":"f13b874d","register(address)":"4420e486","renounceOwnership()":"715018a6","setFoundationWallet(address)":"015493b4","setPrice(uint256)":"91b7f5ed","singleStakes(address,uint256)":"c7200098","stakeFeeAccPerShare(uint256)":"41ecde49","stakePeriods(uint256)":"9d50880f","stakeRates(uint256)":"8bc43ccf","stakeSingle(uint256,uint256)":"d11c2d1d","startTime()":"78e97925","totalLPShares()":"d789760e","totalSingleStaked(uint256)":"889abad6","transferOwnership(address)":"f2fde38b","unstakeSingle(uint256)":"7e7031fb","withdrawDQ(uint256,uint256)":"00048629"}}}}}