{
  "_format": "hh-sol-artifact-1",
  "contractName": "DQCard",
  "sourceName": "src/DQC.sol",
  "abi": [
    {
      "inputs": [],
      "stateMutability": "nonpayable",
      "type": "constructor"
    },
    {
      "inputs": [],
      "name": "ERC721EnumerableForbiddenBatchMint",
      "type": "error"
    },
    {
      "inputs": [
        {
          "internalType": "address",
          "name": "sender",
          "type": "address"
        },
        {
          "internalType": "uint256",
          "name": "tokenId",
          "type": "uint256"
        },
        {
          "internalType": "address",
          "name": "owner",
          "type": "address"
        }
      ],
      "name": "ERC721IncorrectOwner",
      "type": "error"
    },
    {
      "inputs": [
        {
          "internalType": "address",
          "name": "operator",
          "type": "address"
        },
        {
          "internalType": "uint256",
          "name": "tokenId",
          "type": "uint256"
        }
      ],
      "name": "ERC721InsufficientApproval",
      "type": "error"
    },
    {
      "inputs": [
        {
          "internalType": "address",
          "name": "approver",
          "type": "address"
        }
      ],
      "name": "ERC721InvalidApprover",
      "type": "error"
    },
    {
      "inputs": [
        {
          "internalType": "address",
          "name": "operator",
          "type": "address"
        }
      ],
      "name": "ERC721InvalidOperator",
      "type": "error"
    },
    {
      "inputs": [
        {
          "internalType": "address",
          "name": "owner",
          "type": "address"
        }
      ],
      "name": "ERC721InvalidOwner",
      "type": "error"
    },
    {
      "inputs": [
        {
          "internalType": "address",
          "name": "receiver",
          "type": "address"
        }
      ],
      "name": "ERC721InvalidReceiver",
      "type": "error"
    },
    {
      "inputs": [
        {
          "internalType": "address",
          "name": "sender",
          "type": "address"
        }
      ],
      "name": "ERC721InvalidSender",
      "type": "error"
    },
    {
      "inputs": [
        {
          "internalType": "uint256",
          "name": "tokenId",
          "type": "uint256"
        }
      ],
      "name": "ERC721NonexistentToken",
      "type": "error"
    },
    {
      "inputs": [
        {
          "internalType": "address",
          "name": "owner",
          "type": "address"
        },
        {
          "internalType": "uint256",
          "name": "index",
          "type": "uint256"
        }
      ],
      "name": "ERC721OutOfBoundsIndex",
      "type": "error"
    },
    {
      "inputs": [
        {
          "internalType": "address",
          "name": "owner",
          "type": "address"
        }
      ],
      "name": "OwnableInvalidOwner",
      "type": "error"
    },
    {
      "inputs": [
        {
          "internalType": "address",
          "name": "account",
          "type": "address"
        }
      ],
      "name": "OwnableUnauthorizedAccount",
      "type": "error"
    },
    {
      "inputs": [
        {
          "internalType": "address",
          "name": "token",
          "type": "address"
        }
      ],
      "name": "SafeERC20FailedOperation",
      "type": "error"
    },
    {
      "anonymous": false,
      "inputs": [
        {
          "indexed": true,
          "internalType": "address",
          "name": "adminContract",
          "type": "address"
        }
      ],
      "name": "AdminContractUpdated",
      "type": "event"
    },
    {
      "anonymous": false,
      "inputs": [
        {
          "indexed": true,
          "internalType": "address",
          "name": "owner",
          "type": "address"
        },
        {
          "indexed": true,
          "internalType": "address",
          "name": "approved",
          "type": "address"
        },
        {
          "indexed": true,
          "internalType": "uint256",
          "name": "tokenId",
          "type": "uint256"
        }
      ],
      "name": "Approval",
      "type": "event"
    },
    {
      "anonymous": false,
      "inputs": [
        {
          "indexed": true,
          "internalType": "address",
          "name": "owner",
          "type": "address"
        },
        {
          "indexed": true,
          "internalType": "address",
          "name": "operator",
          "type": "address"
        },
        {
          "indexed": false,
          "internalType": "bool",
          "name": "approved",
          "type": "bool"
        }
      ],
      "name": "ApprovalForAll",
      "type": "event"
    },
    {
      "anonymous": false,
      "inputs": [
        {
          "indexed": true,
          "internalType": "address",
          "name": "to",
          "type": "address"
        },
        {
          "indexed": true,
          "internalType": "uint256",
          "name": "tokenId",
          "type": "uint256"
        },
        {
          "indexed": false,
          "internalType": "uint256",
          "name": "cardType",
          "type": "uint256"
        }
      ],
      "name": "CardMinted",
      "type": "event"
    },
    {
      "anonymous": false,
      "inputs": [
        {
          "indexed": true,
          "internalType": "address",
          "name": "buyer",
          "type": "address"
        },
        {
          "indexed": true,
          "internalType": "uint256",
          "name": "tokenId",
          "type": "uint256"
        },
        {
          "indexed": false,
          "internalType": "uint256",
          "name": "cardType",
          "type": "uint256"
        },
        {
          "indexed": false,
          "internalType": "uint256",
          "name": "price",
          "type": "uint256"
        }
      ],
      "name": "CardPurchased",
      "type": "event"
    },
    {
      "anonymous": false,
      "inputs": [
        {
          "indexed": false,
          "internalType": "uint8",
          "name": "cardType",
          "type": "uint8"
        },
        {
          "indexed": false,
          "internalType": "uint256",
          "name": "newMax",
          "type": "uint256"
        }
      ],
      "name": "MaxSupplyUpdated",
      "type": "event"
    },
    {
      "anonymous": false,
      "inputs": [
        {
          "indexed": true,
          "internalType": "address",
          "name": "user",
          "type": "address"
        },
        {
          "indexed": false,
          "internalType": "uint256",
          "name": "performance",
          "type": "uint256"
        }
      ],
      "name": "NodePerformanceUpdated",
      "type": "event"
    },
    {
      "anonymous": false,
      "inputs": [
        {
          "indexed": true,
          "internalType": "address",
          "name": "previousOwner",
          "type": "address"
        },
        {
          "indexed": true,
          "internalType": "address",
          "name": "newOwner",
          "type": "address"
        }
      ],
      "name": "OwnershipTransferred",
      "type": "event"
    },
    {
      "anonymous": false,
      "inputs": [
        {
          "indexed": true,
          "internalType": "address",
          "name": "from",
          "type": "address"
        },
        {
          "indexed": true,
          "internalType": "address",
          "name": "to",
          "type": "address"
        },
        {
          "indexed": true,
          "internalType": "uint256",
          "name": "tokenId",
          "type": "uint256"
        }
      ],
      "name": "Transfer",
      "type": "event"
    },
    {
      "anonymous": false,
      "inputs": [
        {
          "indexed": true,
          "internalType": "address",
          "name": "treasury",
          "type": "address"
        }
      ],
      "name": "TreasuryUpdated",
      "type": "event"
    },
    {
      "inputs": [],
      "name": "CARD_A",
      "outputs": [
        {
          "internalType": "uint256",
          "name": "",
          "type": "uint256"
        }
      ],
      "stateMutability": "view",
      "type": "function"
    },
    {
      "inputs": [],
      "name": "CARD_B",
      "outputs": [
        {
          "internalType": "uint256",
          "name": "",
          "type": "uint256"
        }
      ],
      "stateMutability": "view",
      "type": "function"
    },
    {
      "inputs": [],
      "name": "CARD_C",
      "outputs": [
        {
          "internalType": "uint256",
          "name": "",
          "type": "uint256"
        }
      ],
      "stateMutability": "view",
      "type": "function"
    },
    {
      "inputs": [],
      "name": "MAX_A",
      "outputs": [
        {
          "internalType": "uint256",
          "name": "",
          "type": "uint256"
        }
      ],
      "stateMutability": "view",
      "type": "function"
    },
    {
      "inputs": [],
      "name": "MAX_B",
      "outputs": [
        {
          "internalType": "uint256",
          "name": "",
          "type": "uint256"
        }
      ],
      "stateMutability": "view",
      "type": "function"
    },
    {
      "inputs": [],
      "name": "MAX_C",
      "outputs": [
        {
          "internalType": "uint256",
          "name": "",
          "type": "uint256"
        }
      ],
      "stateMutability": "view",
      "type": "function"
    },
    {
      "inputs": [],
      "name": "PRICE_A",
      "outputs": [
        {
          "internalType": "uint256",
          "name": "",
          "type": "uint256"
        }
      ],
      "stateMutability": "view",
      "type": "function"
    },
    {
      "inputs": [],
      "name": "PRICE_B",
      "outputs": [
        {
          "internalType": "uint256",
          "name": "",
          "type": "uint256"
        }
      ],
      "stateMutability": "view",
      "type": "function"
    },
    {
      "inputs": [],
      "name": "PRICE_C",
      "outputs": [
        {
          "internalType": "uint256",
          "name": "",
          "type": "uint256"
        }
      ],
      "stateMutability": "view",
      "type": "function"
    },
    {
      "inputs": [],
      "name": "USDT",
      "outputs": [
        {
          "internalType": "address",
          "name": "",
          "type": "address"
        }
      ],
      "stateMutability": "view",
      "type": "function"
    },
    {
      "inputs": [],
      "name": "adminContract",
      "outputs": [
        {
          "internalType": "address",
          "name": "",
          "type": "address"
        }
      ],
      "stateMutability": "view",
      "type": "function"
    },
    {
      "inputs": [
        {
          "internalType": "address",
          "name": "to",
          "type": "address"
        },
        {
          "internalType": "uint256",
          "name": "tokenId",
          "type": "uint256"
        }
      ],
      "name": "approve",
      "outputs": [],
      "stateMutability": "nonpayable",
      "type": "function"
    },
    {
      "inputs": [
        {
          "internalType": "address",
          "name": "owner",
          "type": "address"
        }
      ],
      "name": "balanceOf",
      "outputs": [
        {
          "internalType": "uint256",
          "name": "",
          "type": "uint256"
        }
      ],
      "stateMutability": "view",
      "type": "function"
    },
    {
      "inputs": [
        {
          "internalType": "uint256",
          "name": "_type",
          "type": "uint256"
        }
      ],
      "name": "buyCard",
      "outputs": [],
      "stateMutability": "nonpayable",
      "type": "function"
    },
    {
      "inputs": [
        {
          "internalType": "uint256",
          "name": "",
          "type": "uint256"
        }
      ],
      "name": "cardType",
      "outputs": [
        {
          "internalType": "uint256",
          "name": "",
          "type": "uint256"
        }
      ],
      "stateMutability": "view",
      "type": "function"
    },
    {
      "inputs": [],
      "name": "coreContract",
      "outputs": [
        {
          "internalType": "address",
          "name": "",
          "type": "address"
        }
      ],
      "stateMutability": "view",
      "type": "function"
    },
    {
      "inputs": [
        {
          "internalType": "uint256",
          "name": "tokenId",
          "type": "uint256"
        }
      ],
      "name": "getApproved",
      "outputs": [
        {
          "internalType": "address",
          "name": "",
          "type": "address"
        }
      ],
      "stateMutability": "view",
      "type": "function"
    },
    {
      "inputs": [
        {
          "internalType": "uint256",
          "name": "_type",
          "type": "uint256"
        }
      ],
      "name": "getCardPrice",
      "outputs": [
        {
          "internalType": "uint256",
          "name": "",
          "type": "uint256"
        }
      ],
      "stateMutability": "pure",
      "type": "function"
    },
    {
      "inputs": [
        {
          "internalType": "address",
          "name": "_user",
          "type": "address"
        }
      ],
      "name": "getNodePerformance",
      "outputs": [
        {
          "internalType": "uint256",
          "name": "",
          "type": "uint256"
        }
      ],
      "stateMutability": "view",
      "type": "function"
    },
    {
      "inputs": [],
      "name": "getRemainingSupply",
      "outputs": [
        {
          "internalType": "uint256",
          "name": "a",
          "type": "uint256"
        },
        {
          "internalType": "uint256",
          "name": "b",
          "type": "uint256"
        },
        {
          "internalType": "uint256",
          "name": "c",
          "type": "uint256"
        }
      ],
      "stateMutability": "view",
      "type": "function"
    },
    {
      "inputs": [
        {
          "internalType": "address",
          "name": "_user",
          "type": "address"
        },
        {
          "internalType": "uint256",
          "name": "_type",
          "type": "uint256"
        }
      ],
      "name": "getUserCardCount",
      "outputs": [
        {
          "internalType": "uint256",
          "name": "",
          "type": "uint256"
        }
      ],
      "stateMutability": "view",
      "type": "function"
    },
    {
      "inputs": [
        {
          "internalType": "address",
          "name": "owner",
          "type": "address"
        },
        {
          "internalType": "address",
          "name": "operator",
          "type": "address"
        }
      ],
      "name": "isApprovedForAll",
      "outputs": [
        {
          "internalType": "bool",
          "name": "",
          "type": "bool"
        }
      ],
      "stateMutability": "view",
      "type": "function"
    },
    {
      "inputs": [],
      "name": "miningContract",
      "outputs": [
        {
          "internalType": "address",
          "name": "",
          "type": "address"
        }
      ],
      "stateMutability": "view",
      "type": "function"
    },
    {
      "inputs": [
        {
          "internalType": "address[]",
          "name": "_to",
          "type": "address[]"
        },
        {
          "internalType": "uint256[]",
          "name": "_types",
          "type": "uint256[]"
        }
      ],
      "name": "mintBatchByOwner",
      "outputs": [],
      "stateMutability": "nonpayable",
      "type": "function"
    },
    {
      "inputs": [
        {
          "internalType": "address",
          "name": "_to",
          "type": "address"
        },
        {
          "internalType": "uint256",
          "name": "_type",
          "type": "uint256"
        }
      ],
      "name": "mintByOwner",
      "outputs": [],
      "stateMutability": "nonpayable",
      "type": "function"
    },
    {
      "inputs": [],
      "name": "name",
      "outputs": [
        {
          "internalType": "string",
          "name": "",
          "type": "string"
        }
      ],
      "stateMutability": "view",
      "type": "function"
    },
    {
      "inputs": [],
      "name": "owner",
      "outputs": [
        {
          "internalType": "address",
          "name": "",
          "type": "address"
        }
      ],
      "stateMutability": "view",
      "type": "function"
    },
    {
      "inputs": [
        {
          "internalType": "uint256",
          "name": "tokenId",
          "type": "uint256"
        }
      ],
      "name": "ownerOf",
      "outputs": [
        {
          "internalType": "address",
          "name": "",
          "type": "address"
        }
      ],
      "stateMutability": "view",
      "type": "function"
    },
    {
      "inputs": [],
      "name": "renounceOwnership",
      "outputs": [],
      "stateMutability": "nonpayable",
      "type": "function"
    },
    {
      "inputs": [
        {
          "internalType": "address",
          "name": "from",
          "type": "address"
        },
        {
          "internalType": "address",
          "name": "to",
          "type": "address"
        },
        {
          "internalType": "uint256",
          "name": "tokenId",
          "type": "uint256"
        }
      ],
      "name": "safeTransferFrom",
      "outputs": [],
      "stateMutability": "nonpayable",
      "type": "function"
    },
    {
      "inputs": [
        {
          "internalType": "address",
          "name": "from",
          "type": "address"
        },
        {
          "internalType": "address",
          "name": "to",
          "type": "address"
        },
        {
          "internalType": "uint256",
          "name": "tokenId",
          "type": "uint256"
        },
        {
          "internalType": "bytes",
          "name": "data",
          "type": "bytes"
        }
      ],
      "name": "safeTransferFrom",
      "outputs": [],
      "stateMutability": "nonpayable",
      "type": "function"
    },
    {
      "inputs": [
        {
          "internalType": "address",
          "name": "_addr",
          "type": "address"
        }
      ],
      "name": "setAdminContract",
      "outputs": [],
      "stateMutability": "nonpayable",
      "type": "function"
    },
    {
      "inputs": [
        {
          "internalType": "address",
          "name": "operator",
          "type": "address"
        },
        {
          "internalType": "bool",
          "name": "approved",
          "type": "bool"
        }
      ],
      "name": "setApprovalForAll",
      "outputs": [],
      "stateMutability": "nonpayable",
      "type": "function"
    },
    {
      "inputs": [
        {
          "internalType": "address",
          "name": "_c",
          "type": "address"
        }
      ],
      "name": "setCoreContract",
      "outputs": [],
      "stateMutability": "nonpayable",
      "type": "function"
    },
    {
      "inputs": [
        {
          "internalType": "uint256",
          "name": "_max",
          "type": "uint256"
        }
      ],
      "name": "setMaxA",
      "outputs": [],
      "stateMutability": "nonpayable",
      "type": "function"
    },
    {
      "inputs": [
        {
          "internalType": "uint256",
          "name": "_max",
          "type": "uint256"
        }
      ],
      "name": "setMaxB",
      "outputs": [],
      "stateMutability": "nonpayable",
      "type": "function"
    },
    {
      "inputs": [
        {
          "internalType": "uint256",
          "name": "_max",
          "type": "uint256"
        }
      ],
      "name": "setMaxC",
      "outputs": [],
      "stateMutability": "nonpayable",
      "type": "function"
    },
    {
      "inputs": [
        {
          "internalType": "address",
          "name": "_m",
          "type": "address"
        }
      ],
      "name": "setMiningContract",
      "outputs": [],
      "stateMutability": "nonpayable",
      "type": "function"
    },
    {
      "inputs": [
        {
          "internalType": "address",
          "name": "_s",
          "type": "address"
        }
      ],
      "name": "setStakeContract",
      "outputs": [],
      "stateMutability": "nonpayable",
      "type": "function"
    },
    {
      "inputs": [
        {
          "internalType": "address",
          "name": "_treasury",
          "type": "address"
        }
      ],
      "name": "setTreasury",
      "outputs": [],
      "stateMutability": "nonpayable",
      "type": "function"
    },
    {
      "inputs": [],
      "name": "stakeContract",
      "outputs": [
        {
          "internalType": "address",
          "name": "",
          "type": "address"
        }
      ],
      "stateMutability": "view",
      "type": "function"
    },
    {
      "inputs": [
        {
          "internalType": "bytes4",
          "name": "interfaceId",
          "type": "bytes4"
        }
      ],
      "name": "supportsInterface",
      "outputs": [
        {
          "internalType": "bool",
          "name": "",
          "type": "bool"
        }
      ],
      "stateMutability": "view",
      "type": "function"
    },
    {
      "inputs": [],
      "name": "symbol",
      "outputs": [
        {
          "internalType": "string",
          "name": "",
          "type": "string"
        }
      ],
      "stateMutability": "view",
      "type": "function"
    },
    {
      "inputs": [
        {
          "internalType": "uint256",
          "name": "index",
          "type": "uint256"
        }
      ],
      "name": "tokenByIndex",
      "outputs": [
        {
          "internalType": "uint256",
          "name": "",
          "type": "uint256"
        }
      ],
      "stateMutability": "view",
      "type": "function"
    },
    {
      "inputs": [
        {
          "internalType": "address",
          "name": "owner",
          "type": "address"
        },
        {
          "internalType": "uint256",
          "name": "index",
          "type": "uint256"
        }
      ],
      "name": "tokenOfOwnerByIndex",
      "outputs": [
        {
          "internalType": "uint256",
          "name": "",
          "type": "uint256"
        }
      ],
      "stateMutability": "view",
      "type": "function"
    },
    {
      "inputs": [
        {
          "internalType": "uint256",
          "name": "tokenId",
          "type": "uint256"
        }
      ],
      "name": "tokenURI",
      "outputs": [
        {
          "internalType": "string",
          "name": "",
          "type": "string"
        }
      ],
      "stateMutability": "view",
      "type": "function"
    },
    {
      "inputs": [],
      "name": "totalA",
      "outputs": [
        {
          "internalType": "uint256",
          "name": "",
          "type": "uint256"
        }
      ],
      "stateMutability": "view",
      "type": "function"
    },
    {
      "inputs": [],
      "name": "totalB",
      "outputs": [
        {
          "internalType": "uint256",
          "name": "",
          "type": "uint256"
        }
      ],
      "stateMutability": "view",
      "type": "function"
    },
    {
      "inputs": [],
      "name": "totalC",
      "outputs": [
        {
          "internalType": "uint256",
          "name": "",
          "type": "uint256"
        }
      ],
      "stateMutability": "view",
      "type": "function"
    },
    {
      "inputs": [],
      "name": "totalSupply",
      "outputs": [
        {
          "internalType": "uint256",
          "name": "",
          "type": "uint256"
        }
      ],
      "stateMutability": "view",
      "type": "function"
    },
    {
      "inputs": [
        {
          "internalType": "address",
          "name": "from",
          "type": "address"
        },
        {
          "internalType": "address",
          "name": "to",
          "type": "address"
        },
        {
          "internalType": "uint256",
          "name": "tokenId",
          "type": "uint256"
        }
      ],
      "name": "transferFrom",
      "outputs": [],
      "stateMutability": "nonpayable",
      "type": "function"
    },
    {
      "inputs": [
        {
          "internalType": "address",
          "name": "newOwner",
          "type": "address"
        }
      ],
      "name": "transferOwnership",
      "outputs": [],
      "stateMutability": "nonpayable",
      "type": "function"
    },
    {
      "inputs": [],
      "name": "treasury",
      "outputs": [
        {
          "internalType": "address",
          "name": "",
          "type": "address"
        }
      ],
      "stateMutability": "view",
      "type": "function"
    },
    {
      "inputs": [
        {
          "internalType": "address",
          "name": "",
          "type": "address"
        }
      ],
      "name": "userNodePerformance",
      "outputs": [
        {
          "internalType": "uint256",
          "name": "",
          "type": "uint256"
        }
      ],
      "stateMutability": "view",
      "type": "function"
    },
    {
      "inputs": [
        {
          "internalType": "address",
          "name": "_token",
          "type": "address"
        },
        {
          "internalType": "address",
          "name": "_to",
          "type": "address"
        },
        {
          "internalType": "uint256",
          "name": "_amount",
          "type": "uint256"
        }
      ],
      "name": "withdrawToken",
      "outputs": [],
      "stateMutability": "nonpayable",
      "type": "function"
    }
  ],
  "bytecode": "0x60806040526103e8600b556101f4600c556064600d55348015610020575f5ffd5b5073274acc6397349f21179ed6258a54b2a11b28faf56040518060400160405280600781526020016611144810d85c9960ca1b8152506040518060400160405280600381526020016244514360e81b815250815f908161008091906101c0565b50600161008d82826101c0565b5050506001600160a01b0381166100bd57604051631e4fbdf760e01b81525f600482015260240160405180910390fd5b6100c6816100cc565b5061027e565b600a80546001600160a01b038381166001600160a01b0319831681179093556040519116919082907f8be0079c531659141344cd1fd0a4f28419497f9722a3daafe3b4186f6b6457e0905f90a35050565b634e487b7160e01b5f52604160045260245ffd5b600181811c9082168061014557607f821691505b60208210810361016357634e487b7160e01b5f52602260045260245ffd5b50919050565b601f8211156101bb57828211156101bb57805f5260205f20601f840160051c602085101561019457505f5b90810190601f840160051c035f5b818110156101b7575f838201556001016101a2565b5050505b505050565b81516001600160401b038111156101d9576101d961011d565b6101ed816101e78454610131565b84610169565b6020601f82116001811461021f575f83156102085750848201515b5f19600385901b1c1916600184901b178455610277565b5f84815260208120601f198516915b8281101561024e578785015182556020948501946001909201910161022e565b508482101561026b57868401515f19600387901b60f8161c191681555b505060018360011b0184555b5050505050565b612b058061028b5f395ff3fe608060405234801561000f575f5ffd5b506004361061034d575f3560e01c8063706374f5116101c9578063c54e44eb116100fe578063e80db5db1161009e578063f26841bd11610079578063f26841bd14610714578063f2fde38b1461071d578063f6a2a9a114610730578063fcf49adf14610743575f5ffd5b8063e80db5db146106db578063e985e9c5146106ee578063f0f4426014610701575f5ffd5b8063c87b56dd116100d9578063c87b56dd1461067d578063d15dfe2d14610690578063e4b7fb7314610699578063e4cec420146106bc575f5ffd5b8063c54e44eb1461063c578063c626669314610657578063c70f5eaa1461066a575f5ffd5b806395d89b4111610169578063b629640b11610144578063b629640b146105fa578063b88d4fde14610603578063bef2813514610616578063c05c5e9414610629575f5ffd5b806395d89b41146105b7578063a22cb465146105bf578063aed1f157146105d2575f5ffd5b806373cda3e4116101a457806373cda3e4146105795780638485391a1461058a5780638da5cb5b1461059357806391564697146105a4575f5ffd5b8063706374f51461054b57806370a082311461055e578063715018a614610571575f5ffd5b806323b872dd1161029f57806352b03c2f1161023f5780636352211e1161021a5780636352211e146104ff57806363a812f9146105125780636866537d14610525578063702f532114610538575f5ffd5b806352b03c2f146104d457806353d79447146104dc57806361d027b3146104ec575f5ffd5b8063396984151161027a578063396984151461049257806342842e0e1461049b5780634f6ccce7146104ae578063509484d5146104c1575f5ffd5b806323b872dd146104595780632f745c591461046c5780633542aee21461047f575f5ffd5b806312f941341161030a57806318160ddd116102e557806318160ddd1461042d57806318a8ac7714610435578063193491b51461043d5780631a18622714610446575f5ffd5b806312f941341461040257806313eeea081461041557806315ad6f6114610425575f5ffd5b806301e336671461035157806301ffc9a71461036657806306fdde031461038e578063081812fc146103a3578063095ea7b3146103ce578063096e233e146103e1575b5f5ffd5b61036461035f36600461264b565b610762565b005b61037961037436600461269a565b6108a6565b60405190151581526020015b60405180910390f35b6103966108d0565b60405161038591906126e3565b6103b66103b13660046126f5565b61095f565b6040516001600160a01b039091168152602001610385565b6103646103dc36600461270c565b610986565b6103f46103ef36600461270c565b610995565b604051908152602001610385565b6103646104103660046126f5565b6109f1565b6103f4681b1ae4d6e2ef50000081565b6103f4600281565b6008546103f4565b6103f4600381565b6103f4600f5481565b6014546103b6906001600160a01b031681565b61036461046736600461264b565b610a73565b6103f461047a36600461270c565b610af6565b61036461048d36600461270c565b610b59565b6103f4600b5481565b6103646104a936600461264b565b610bb7565b6103f46104bc3660046126f5565b610bd1565b6103646104cf366004612734565b610c26565b6103f4600181565b6103f4685150ae84a8cdf0000081565b6011546103b6906001600160a01b031681565b6103b661050d3660046126f5565b610c87565b610364610520366004612734565b610c91565b6103f46105333660046126f5565b610d19565b610364610546366004612734565b610d6a565b610364610559366004612795565b610dcb565b6103f461056c366004612734565b610eac565b610364610ef1565b6103f469010f0cf064dd5920000081565b6103f4600c5481565b600a546001600160a01b03166103b6565b6012546103b6906001600160a01b031681565b610396610f04565b6103646105cd366004612801565b610f13565b6103f46105e0366004612734565b6001600160a01b03165f9081526017602052604090205490565b6103f4600e5481565b61036461061136600461284e565b610f1e565b6103646106243660046126f5565b610f36565b6013546103b6906001600160a01b031681565b6103b67355d398326f99059ff775485246999027b319795581565b610364610665366004612734565b610fb1565b6103646106783660046126f5565b611012565b61039661068b3660046126f5565b611402565b6103f460105481565b6106a1611473565b60408051938452602084019290925290820152606001610385565b6103f46106ca366004612734565b60176020525f908152604090205481565b6015546103b6906001600160a01b031681565b6103796106fc36600461292b565b6114b1565b61036461070f366004612734565b6114de565b6103f4600d5481565b61036461072b366004612734565b611566565b61036461073e3660046126f5565b6115a3565b6103f46107513660046126f5565b60166020525f908152604090205481565b600a546001600160a01b031633148061078557506013546001600160a01b031633145b6107aa5760405162461bcd60e51b81526004016107a19061295c565b60405180910390fd5b6001600160a01b0382166107e85760405162461bcd60e51b8152602060048201526005602482015264217a65726f60d81b60448201526064016107a1565b6001600160a01b03831661088d575f826001600160a01b0316826040515f6040518083038185875af1925050503d805f811461083f576040519150601f19603f3d011682016040523d82523d5f602084013e610844565b606091505b50509050806108875760405162461bcd60e51b815260206004820152600f60248201526e1d1c985b9cd9995c8819985a5b1959608a1b60448201526064016107a1565b50505050565b6108a16001600160a01b038416838361161e565b505050565b5f6001600160e01b0319821663780e9d6360e01b14806108ca57506108ca82611653565b92915050565b60605f80546108de9061297b565b80601f016020809104026020016040519081016040528092919081815260200182805461090a9061297b565b80156109555780601f1061092c57610100808354040283529160200191610955565b820191905f5260205f20905b81548152906001019060200180831161093857829003601f168201915b5050505050905090565b5f610969826116a2565b505f828152600460205260409020546001600160a01b03166108ca565b6109918282336116da565b5050565b5f5f5f6109a185610eac565b90505f5b818110156109e7575f6109b88783610af6565b5f818152601660205260409020549091508690036109de57836109da816129c7565b9450505b506001016109a5565b5090949350505050565b600a546001600160a01b0316331480610a1457506013546001600160a01b031633145b610a305760405162461bcd60e51b81526004016107a19061295c565b600b8190556040805160018152602081018390527fb92303fd2b1df67a887cbf19ea12a277783c2912e1ed5606d43c6c033c4d60e091015b60405180910390a150565b6001600160a01b038216610a9c57604051633250574960e11b81525f60048201526024016107a1565b5f610aa88383336116e7565b9050836001600160a01b0316816001600160a01b031614610887576040516364283d7b60e01b81526001600160a01b03808616600483015260248201849052821660448201526064016107a1565b5f610b0083610eac565b8210610b315760405163295f44f760e21b81526001600160a01b0384166004820152602481018390526044016107a1565b506001600160a01b03919091165f908152600660209081526040808320938352929052205490565b6014546001600160a01b0316331480610b7c5750600a546001600160a01b031633145b610bad5760405162461bcd60e51b8152602060048201526002602482015261216d60f01b60448201526064016107a1565b6109918282611834565b6108a183838360405180602001604052805f815250610f1e565b5f610bdb60085490565b8210610c035760405163295f44f760e21b81525f6004820152602481018390526044016107a1565b60088281548110610c1657610c166129df565b905f5260205f2001549050919050565b600a546001600160a01b0316331480610c4957506013546001600160a01b031633145b610c655760405162461bcd60e51b81526004016107a19061295c565b601480546001600160a01b0319166001600160a01b0392909216919091179055565b5f6108ca826116a2565b600a546001600160a01b0316331480610cb457506013546001600160a01b031633145b610cd05760405162461bcd60e51b81526004016107a19061295c565b601380546001600160a01b0319166001600160a01b0383169081179091556040517fa36142288b0f426e10fa5751064474c8752affb9516d10b56c3ae2cd5693e925905f90a250565b5f60018203610d325750681b1ae4d6e2ef500000919050565b60028203610d4a5750685150ae84a8cdf00000919050565b60038203610d63575069010f0cf064dd59200000919050565b505f919050565b600a546001600160a01b0316331480610d8d57506013546001600160a01b031633145b610da95760405162461bcd60e51b81526004016107a19061295c565b601280546001600160a01b0319166001600160a01b0392909216919091179055565b600a546001600160a01b0316331480610dee57506013546001600160a01b031633145b610e0a5760405162461bcd60e51b81526004016107a19061295c565b828114610e4b5760405162461bcd60e51b815260206004820152600f60248201526e0d8cadccee8d040dad2e6dac2e8c6d608b1b60448201526064016107a1565b5f5b83811015610ea557610e9d858583818110610e6a57610e6a6129df565b9050602002016020810190610e7f9190612734565b848484818110610e9157610e916129df565b90506020020135611834565b600101610e4d565b5050505050565b5f6001600160a01b038216610ed6576040516322718ad960e21b81525f60048201526024016107a1565b506001600160a01b03165f9081526003602052604090205490565b610ef9611bcf565b610f025f611bfc565b565b6060600180546108de9061297b565b610991338383611c4d565b610f29848484610a73565b6108873385858585611d0c565b600a546001600160a01b0316331480610f5957506013546001600160a01b031633145b610f755760405162461bcd60e51b81526004016107a19061295c565b600d8190556040805160038152602081018390527fb92303fd2b1df67a887cbf19ea12a277783c2912e1ed5606d43c6c033c4d60e09101610a68565b600a546001600160a01b0316331480610fd457506013546001600160a01b031633145b610ff05760405162461bcd60e51b81526004016107a19061295c565b601580546001600160a01b0319166001600160a01b0392909216919091179055565b60018110158015611024575060038111155b61105f5760405162461bcd60e51b815260206004820152600c60248201526b696e76616c6964207479706560a01b60448201526064016107a1565b6011546001600160a01b03166110a35760405162461bcd60e51b815260206004820152600960248201526821747265617375727960b81b60448201526064016107a1565b5f6001820361111657600b54600e54106110f15760405162461bcd60e51b815260206004820152600f60248201526e104818d85c99081cdbdb19081bdd5d608a1b60448201526064016107a1565b600e8054905f611100836129c7565b9190505550681b1ae4d6e2ef50000090506111ef565b6002820361118857600c54600f54106111635760405162461bcd60e51b815260206004820152600f60248201526e108818d85c99081cdbdb19081bdd5d608a1b60448201526064016107a1565b600f8054905f611172836129c7565b9190505550685150ae84a8cdf0000090506111ef565b600d54601054106111cd5760405162461bcd60e51b815260206004820152600f60248201526e10c818d85c99081cdbdb19081bdd5d608a1b60448201526064016107a1565b60108054905f6111dc836129c7565b919050555069010f0cf064dd5920000090505b60115461121d907355d398326f99059ff775485246999027b31979559033906001600160a01b031684611e33565b5f61122760085490565b6112329060016129f3565b905061123e3382611e69565b5f81815260166020908152604080832086905533835260179091528120805484929061126b9084906129f3565b9091555050335f818152601760209081526040918290205491519182525f516020612ab05f395f51905f52910160405180910390a26014546001600160a01b0316156113bf575f5f1984016112c2575060016112de565b600284036112d2575060026112de565b600384036112de575060035b60ff8116156113bd57601454604051631c903ad960e11b815233600482015260ff831660248201526001600160a01b039091169063392075b2906044015f604051808303815f87803b158015611332575f5ffd5b505af1158015611344573d5f5f3e3d5ffd5b50506015546001600160a01b03161591506113bd905057601554604051631c903ad960e11b815233600482015260ff831660248201526001600160a01b039091169063392075b2906044015f604051808303815f87803b1580156113a6575f5ffd5b505af11580156113b8573d5f5f3e3d5ffd5b505050505b505b6040805184815260208101849052829133917f043c7138120d6082be37dbbf053360a3f7ef694833241b0458183bd5f61c315991015b60405180910390a3505050565b606061140d826116a2565b505f61142360408051602081019091525f815290565b90505f8151116114415760405180602001604052805f81525061146c565b8061144b84611e82565b60405160200161145c929190612a1d565b6040516020818303038152906040525b9392505050565b5f5f5f600e54600b546114869190612a31565b9250600f54600c546114989190612a31565b9150601054600d546114aa9190612a31565b9050909192565b6001600160a01b039182165f90815260056020908152604080832093909416825291909152205460ff1690565b600a546001600160a01b031633148061150157506013546001600160a01b031633145b61151d5760405162461bcd60e51b81526004016107a19061295c565b601180546001600160a01b0319166001600160a01b0383169081179091556040517f7dae230f18360d76a040c81f050aa14eb9d6dc7901b20fc5d855e2a20fe814d1905f90a250565b61156e611bcf565b6001600160a01b03811661159757604051631e4fbdf760e01b81525f60048201526024016107a1565b6115a081611bfc565b50565b600a546001600160a01b03163314806115c657506013546001600160a01b031633145b6115e25760405162461bcd60e51b81526004016107a19061295c565b600c8190556040805160028152602081018390527fb92303fd2b1df67a887cbf19ea12a277783c2912e1ed5606d43c6c033c4d60e09101610a68565b61162b8383836001611f12565b6108a157604051635274afe760e01b81526001600160a01b03841660048201526024016107a1565b5f6001600160e01b031982166380ac58cd60e01b148061168357506001600160e01b03198216635b5e139f60e01b145b806108ca57506301ffc9a760e01b6001600160e01b03198316146108ca565b5f818152600260205260408120546001600160a01b0316806108ca57604051637e27328960e01b8152600481018490526024016107a1565b6108a18383836001611f74565b5f828152600260205260408120546001600160a01b03168015611789575f848152601660205260408120549061171c82610d19565b6001600160a01b0384165f90815260176020526040812080549293508392909190611748908490612a31565b90915550506001600160a01b0383165f818152601760209081526040918290205491519182525f516020612ab05f395f51905f52910160405180910390a250505b5f611795868686612078565b90506001600160a01b0386161561182b575f85815260166020526040812054906117be82610d19565b6001600160a01b0389165f908152601760205260408120805492935083929091906117ea9084906129f3565b90915550506001600160a01b0388165f818152601760209081526040918290205491519182525f516020612ab05f395f51905f52910160405180910390a250505b95945050505050565b60018110158015611846575060038111155b6118815760405162461bcd60e51b815260206004820152600c60248201526b696e76616c6964207479706560a01b60448201526064016107a1565b5f600182036118f457600b54600e54106118cf5760405162461bcd60e51b815260206004820152600f60248201526e104818d85c99081cdbdb19081bdd5d608a1b60448201526064016107a1565b600e8054905f6118de836129c7565b9190505550681b1ae4d6e2ef50000090506119cd565b6002820361196657600c54600f54106119415760405162461bcd60e51b815260206004820152600f60248201526e108818d85c99081cdbdb19081bdd5d608a1b60448201526064016107a1565b600f8054905f611950836129c7565b9190505550685150ae84a8cdf0000090506119cd565b600d54601054106119ab5760405162461bcd60e51b815260206004820152600f60248201526e10c818d85c99081cdbdb19081bdd5d608a1b60448201526064016107a1565b60108054905f6119ba836129c7565b919050555069010f0cf064dd5920000090505b5f6119d760085490565b6119e29060016129f3565b90506119ee8482611e69565b5f8181526016602090815260408083208690556001600160a01b0387168352601790915281208054849290611a249084906129f3565b90915550506001600160a01b0384165f818152601760209081526040918290205491519182525f516020612ab05f395f51905f52910160405180910390a26014546001600160a01b031615611b85575f5f198401611a8457506001611aa0565b60028403611a9457506002611aa0565b60038403611aa0575060035b60ff811615611b8357601454604051631c903ad960e11b81526001600160a01b03878116600483015260ff841660248301529091169063392075b2906044015f604051808303815f87803b158015611af6575f5ffd5b505af1158015611b08573d5f5f3e3d5ffd5b50506015546001600160a01b0316159150611b83905057601554604051631c903ad960e11b81526001600160a01b03878116600483015260ff841660248301529091169063392075b2906044015f604051808303815f87803b158015611b6c575f5ffd5b505af1158015611b7e573d5f5f3e3d5ffd5b505050505b505b80846001600160a01b03167fcb1c56d5745b05695241c17b7cfaece9a64f70bc32508c0997990633be8056ff85604051611bc191815260200190565b60405180910390a350505050565b600a546001600160a01b03163314610f025760405163118cdaa760e01b81523360048201526024016107a1565b600a80546001600160a01b038381166001600160a01b0319831681179093556040519116919082907f8be0079c531659141344cd1fd0a4f28419497f9722a3daafe3b4186f6b6457e0905f90a35050565b6001600160a01b038316611c765760405163a9fbf51f60e01b81525f60048201526024016107a1565b6001600160a01b038216611ca857604051630b61174360e31b81526001600160a01b03831660048201526024016107a1565b6001600160a01b038381165f81815260056020908152604080832094871680845294825291829020805460ff191686151590811790915591519182527f17307eab39ab6107e8899845ad3d59bd9653f200f220920489ca2b5937696c3191016113f5565b6001600160a01b0383163b15610ea557604051630a85bd0160e11b81526001600160a01b0384169063150b7a0290611d4e908890889087908790600401612a44565b6020604051808303815f875af1925050508015611d88575060408051601f3d908101601f19168201909252611d8591810190612a80565b60015b611def573d808015611db5576040519150601f19603f3d011682016040523d82523d5f602084013e611dba565b606091505b5080515f03611de757604051633250574960e11b81526001600160a01b03851660048201526024016107a1565b805160208201fd5b6001600160e01b03198116630a85bd0160e11b14611e2b57604051633250574960e11b81526001600160a01b03851660048201526024016107a1565b505050505050565b611e4184848484600161214b565b61088757604051635274afe760e01b81526001600160a01b03851660048201526024016107a1565b610991828260405180602001604052805f8152506121b8565b60605f611e8e836121cf565b60010190505f8167ffffffffffffffff811115611ead57611ead61283a565b6040519080825280601f01601f191660200182016040528015611ed7576020820181803683370190505b5090508181016020015b5f19016f181899199a1a9b1b9c1cb0b131b232b360811b600a86061a8153600a8504945084611ee157509392505050565b60405163a9059cbb60e01b5f8181526001600160a01b038616600452602485905291602083604481808b5af1925060015f51148316611f68578383151615611f5c573d5f823e3d81fd5b5f873b113d1516831692505b60405250949350505050565b8080611f8857506001600160a01b03821615155b15612049575f611f97846116a2565b90506001600160a01b03831615801590611fc35750826001600160a01b0316816001600160a01b031614155b8015611fd65750611fd481846114b1565b155b15611fff5760405163a9fbf51f60e01b81526001600160a01b03841660048201526024016107a1565b81156120475783856001600160a01b0316826001600160a01b03167f8c5be1e5ebec7d5bd14f71427d1e84f3dd0314c0f7b2291e5b200ac8c7c3b92560405160405180910390a45b505b50505f90815260046020526040902080546001600160a01b0319166001600160a01b0392909216919091179055565b5f5f6120858585856122a6565b90506001600160a01b0381166120e1576120dc84600880545f838152600960205260408120829055600182018355919091527ff3f7a9fe364faab93b216da50a3214154f22a0a2b415b23a84c8169e8b636ee30155565b612104565b846001600160a01b0316816001600160a01b031614612104576121048185612398565b6001600160a01b0385166121205761211b84612415565b612143565b846001600160a01b0316816001600160a01b0316146121435761214385856124bc565b949350505050565b6040516323b872dd60e01b5f8181526001600160a01b038781166004528616602452604485905291602083606481808c5af1925060015f511483166121a757838315161561219b573d5f823e3d81fd5b5f883b113d1516831692505b604052505f60605295945050505050565b6121c2838361250a565b6108a1335f858585611d0c565b5f8072184f03e93ff9f4daa797ed6e38ed64bf6a1f0160401b831061220d5772184f03e93ff9f4daa797ed6e38ed64bf6a1f0160401b830492506040015b6d04ee2d6d415b85acef81000000008310612239576d04ee2d6d415b85acef8100000000830492506020015b662386f26fc10000831061225757662386f26fc10000830492506010015b6305f5e100831061226f576305f5e100830492506008015b612710831061228357612710830492506004015b60648310612295576064830492506002015b600a83106108ca5760010192915050565b5f828152600260205260408120546001600160a01b03908116908316156122d2576122d281848661256b565b6001600160a01b0381161561230c576122ed5f855f5f611f74565b6001600160a01b0381165f90815260036020526040902080545f190190555b6001600160a01b0385161561233a576001600160a01b0385165f908152600360205260409020805460010190555b5f8481526002602052604080822080546001600160a01b0319166001600160a01b0389811691821790925591518793918516917fddf252ad1be2c89b69c2b068fc378daa952ba7f163c4a11628f55a4df523b3ef91a4949350505050565b5f6123a283610eac565b5f838152600760209081526040808320546001600160a01b03881684526006909252909120919250908183146123f7575f83815260208281526040808320548584528184208190558352600790915290208290555b5f938452600760209081526040808620869055938552525081205550565b6008545f9061242690600190612a31565b5f838152600960205260408120546008805493945090928490811061244d5761244d6129df565b905f5260205f2001549050806008838154811061246c5761246c6129df565b5f9182526020808320909101929092558281526009909152604080822084905585825281205560088054806124a3576124a3612a9b565b600190038181905f5260205f20015f9055905550505050565b5f60016124c884610eac565b6124d29190612a31565b6001600160a01b039093165f908152600660209081526040808320868452825280832085905593825260079052919091209190915550565b6001600160a01b03821661253357604051633250574960e11b81525f60048201526024016107a1565b5f61253f83835f6116e7565b90506001600160a01b038116156108a1576040516339e3563760e11b81525f60048201526024016107a1565b6125768383836125cf565b6108a1576001600160a01b0383166125a457604051637e27328960e01b8152600481018290526024016107a1565b60405163177e802f60e01b81526001600160a01b0383166004820152602481018290526044016107a1565b5f6001600160a01b038316158015906121435750826001600160a01b0316846001600160a01b03161480612608575061260884846114b1565b806121435750505f908152600460205260409020546001600160a01b03908116911614919050565b80356001600160a01b0381168114612646575f5ffd5b919050565b5f5f5f6060848603121561265d575f5ffd5b61266684612630565b925061267460208501612630565b929592945050506040919091013590565b6001600160e01b0319811681146115a0575f5ffd5b5f602082840312156126aa575f5ffd5b813561146c81612685565b5f81518084528060208401602086015e5f602082860101526020601f19601f83011685010191505092915050565b602081525f61146c60208301846126b5565b5f60208284031215612705575f5ffd5b5035919050565b5f5f6040838503121561271d575f5ffd5b61272683612630565b946020939093013593505050565b5f60208284031215612744575f5ffd5b61146c82612630565b5f5f83601f84011261275d575f5ffd5b50813567ffffffffffffffff811115612774575f5ffd5b6020830191508360208260051b850101111561278e575f5ffd5b9250929050565b5f5f5f5f604085870312156127a8575f5ffd5b843567ffffffffffffffff8111156127be575f5ffd5b6127ca8782880161274d565b909550935050602085013567ffffffffffffffff8111156127e9575f5ffd5b6127f58782880161274d565b95989497509550505050565b5f5f60408385031215612812575f5ffd5b61281b83612630565b91506020830135801515811461282f575f5ffd5b809150509250929050565b634e487b7160e01b5f52604160045260245ffd5b5f5f5f5f60808587031215612861575f5ffd5b61286a85612630565b935061287860208601612630565b925060408501359150606085013567ffffffffffffffff81111561289a575f5ffd5b8501601f810187136128aa575f5ffd5b803567ffffffffffffffff8111156128c4576128c461283a565b604051601f8201601f19908116603f0116810167ffffffffffffffff811182821017156128f3576128f361283a565b60405281815282820160200189101561290a575f5ffd5b816020840160208301375f6020838301015280935050505092959194509250565b5f5f6040838503121561293c575f5ffd5b61294583612630565b915061295360208401612630565b90509250929050565b602080825260059082015264042c2eae8d60db1b604082015260600190565b600181811c9082168061298f57607f821691505b6020821081036129ad57634e487b7160e01b5f52602260045260245ffd5b50919050565b634e487b7160e01b5f52601160045260245ffd5b5f600182016129d8576129d86129b3565b5060010190565b634e487b7160e01b5f52603260045260245ffd5b808201808211156108ca576108ca6129b3565b5f81518060208401855e5f93019283525090919050565b5f612143612a2b8386612a06565b84612a06565b818103818111156108ca576108ca6129b3565b6001600160a01b03858116825284166020820152604081018390526080606082018190525f90612a76908301846126b5565b9695505050505050565b5f60208284031215612a90575f5ffd5b815161146c81612685565b634e487b7160e01b5f52603160045260245ffdfe9cd4abe1085ce551d185745678b43e141afb71972eca37eab6d08555965f458fa2646970667358221220f5bdd85f6d38ed3a0dd6e64097ba8df8c834f5fc5d83be54964cd4f97dad409064736f6c63430008230033",
  "linkReferences": {},
  "deployedLinkReferences": {}
}