{
  "_format": "hh-sol-artifact-1",
  "contractName": "DQMiningStakeVault",
  "sourceName": "src/DQMiningStakeVault.sol",
  "abi": [
    {
      "inputs": [
        {
          "internalType": "address",
          "name": "_stakeCore",
          "type": "address"
        },
        {
          "internalType": "address",
          "name": "_dqToken",
          "type": "address"
        },
        {
          "internalType": "address",
          "name": "_coreContract",
          "type": "address"
        },
        {
          "internalType": "address",
          "name": "_foundation",
          "type": "address"
        },
        {
          "internalType": "address",
          "name": "_partner",
          "type": "address"
        },
        {
          "internalType": "address",
          "name": "_fixedNode",
          "type": "address"
        }
      ],
      "stateMutability": "nonpayable",
      "type": "constructor"
    },
    {
      "inputs": [
        {
          "internalType": "address",
          "name": "owner",
          "type": "address"
        }
      ],
      "name": "OwnableInvalidOwner",
      "type": "error"
    },
    {
      "inputs": [
        {
          "internalType": "address",
          "name": "account",
          "type": "address"
        }
      ],
      "name": "OwnableUnauthorizedAccount",
      "type": "error"
    },
    {
      "inputs": [],
      "name": "ReentrancyGuardReentrantCall",
      "type": "error"
    },
    {
      "inputs": [
        {
          "internalType": "address",
          "name": "token",
          "type": "address"
        }
      ],
      "name": "SafeERC20FailedOperation",
      "type": "error"
    },
    {
      "anonymous": false,
      "inputs": [
        {
          "indexed": true,
          "internalType": "address",
          "name": "user",
          "type": "address"
        },
        {
          "indexed": false,
          "internalType": "uint256",
          "name": "reward",
          "type": "uint256"
        }
      ],
      "name": "LPRewardClaimed",
      "type": "event"
    },
    {
      "anonymous": false,
      "inputs": [
        {
          "indexed": true,
          "internalType": "address",
          "name": "previousOwner",
          "type": "address"
        },
        {
          "indexed": true,
          "internalType": "address",
          "name": "newOwner",
          "type": "address"
        }
      ],
      "name": "OwnershipTransferred",
      "type": "event"
    },
    {
      "anonymous": false,
      "inputs": [
        {
          "indexed": false,
          "internalType": "uint256",
          "name": "amount",
          "type": "uint256"
        }
      ],
      "name": "SellFeeDistributed",
      "type": "event"
    },
    {
      "anonymous": false,
      "inputs": [
        {
          "indexed": true,
          "internalType": "address",
          "name": "user",
          "type": "address"
        },
        {
          "indexed": false,
          "internalType": "uint8",
          "name": "level",
          "type": "uint8"
        },
        {
          "indexed": false,
          "internalType": "uint256",
          "name": "amount",
          "type": "uint256"
        }
      ],
      "name": "StakeRewardClaimed",
      "type": "event"
    },
    {
      "anonymous": false,
      "inputs": [
        {
          "indexed": true,
          "internalType": "address",
          "name": "user",
          "type": "address"
        },
        {
          "indexed": false,
          "internalType": "uint8",
          "name": "level",
          "type": "uint8"
        },
        {
          "indexed": false,
          "internalType": "uint256",
          "name": "amount",
          "type": "uint256"
        }
      ],
      "name": "Staked",
      "type": "event"
    },
    {
      "anonymous": false,
      "inputs": [
        {
          "indexed": true,
          "internalType": "address",
          "name": "user",
          "type": "address"
        },
        {
          "indexed": false,
          "internalType": "uint8",
          "name": "level",
          "type": "uint8"
        },
        {
          "indexed": false,
          "internalType": "uint256",
          "name": "amount",
          "type": "uint256"
        }
      ],
      "name": "Unstaked",
      "type": "event"
    },
    {
      "inputs": [],
      "name": "CLAIM_FEE",
      "outputs": [
        {
          "internalType": "uint256",
          "name": "",
          "type": "uint256"
        }
      ],
      "stateMutability": "view",
      "type": "function"
    },
    {
      "inputs": [],
      "name": "FIXED_NODE",
      "outputs": [
        {
          "internalType": "address",
          "name": "",
          "type": "address"
        }
      ],
      "stateMutability": "view",
      "type": "function"
    },
    {
      "inputs": [],
      "name": "FOUNDATION",
      "outputs": [
        {
          "internalType": "address",
          "name": "",
          "type": "address"
        }
      ],
      "stateMutability": "view",
      "type": "function"
    },
    {
      "inputs": [],
      "name": "PARTNER",
      "outputs": [
        {
          "internalType": "address",
          "name": "",
          "type": "address"
        }
      ],
      "stateMutability": "view",
      "type": "function"
    },
    {
      "inputs": [],
      "name": "claimLPReward",
      "outputs": [],
      "stateMutability": "nonpayable",
      "type": "function"
    },
    {
      "inputs": [
        {
          "internalType": "uint8",
          "name": "_level",
          "type": "uint8"
        }
      ],
      "name": "claimStakeReward",
      "outputs": [],
      "stateMutability": "nonpayable",
      "type": "function"
    },
    {
      "inputs": [],
      "name": "coreContract",
      "outputs": [
        {
          "internalType": "address",
          "name": "",
          "type": "address"
        }
      ],
      "stateMutability": "view",
      "type": "function"
    },
    {
      "inputs": [
        {
          "internalType": "uint256",
          "name": "_amount",
          "type": "uint256"
        }
      ],
      "name": "distributeSellFee",
      "outputs": [],
      "stateMutability": "nonpayable",
      "type": "function"
    },
    {
      "inputs": [
        {
          "internalType": "uint256",
          "name": "_amount",
          "type": "uint256"
        }
      ],
      "name": "distributeSellFeeFromCore",
      "outputs": [],
      "stateMutability": "nonpayable",
      "type": "function"
    },
    {
      "inputs": [],
      "name": "dqToken",
      "outputs": [
        {
          "internalType": "address",
          "name": "",
          "type": "address"
        }
      ],
      "stateMutability": "view",
      "type": "function"
    },
    {
      "inputs": [
        {
          "internalType": "address",
          "name": "_user",
          "type": "address"
        }
      ],
      "name": "getStakeInfo",
      "outputs": [
        {
          "internalType": "uint256[4]",
          "name": "amounts",
          "type": "uint256[4]"
        },
        {
          "internalType": "uint256[4]",
          "name": "times",
          "type": "uint256[4]"
        },
        {
          "internalType": "uint256[4]",
          "name": "pendingRewards",
          "type": "uint256[4]"
        }
      ],
      "stateMutability": "view",
      "type": "function"
    },
    {
      "inputs": [],
      "name": "owner",
      "outputs": [
        {
          "internalType": "address",
          "name": "",
          "type": "address"
        }
      ],
      "stateMutability": "view",
      "type": "function"
    },
    {
      "inputs": [],
      "name": "renounceOwnership",
      "outputs": [],
      "stateMutability": "nonpayable",
      "type": "function"
    },
    {
      "inputs": [
        {
          "internalType": "uint256",
          "name": "",
          "type": "uint256"
        }
      ],
      "name": "sA",
      "outputs": [
        {
          "internalType": "uint256",
          "name": "",
          "type": "uint256"
        }
      ],
      "stateMutability": "view",
      "type": "function"
    },
    {
      "inputs": [
        {
          "internalType": "address",
          "name": "",
          "type": "address"
        },
        {
          "internalType": "uint8",
          "name": "",
          "type": "uint8"
        }
      ],
      "name": "sAmt",
      "outputs": [
        {
          "internalType": "uint256",
          "name": "",
          "type": "uint256"
        }
      ],
      "stateMutability": "view",
      "type": "function"
    },
    {
      "inputs": [
        {
          "internalType": "address",
          "name": "",
          "type": "address"
        },
        {
          "internalType": "uint8",
          "name": "",
          "type": "uint8"
        }
      ],
      "name": "sDebt",
      "outputs": [
        {
          "internalType": "uint256",
          "name": "",
          "type": "uint256"
        }
      ],
      "stateMutability": "view",
      "type": "function"
    },
    {
      "inputs": [
        {
          "internalType": "uint256[4]",
          "name": "_weights",
          "type": "uint256[4]"
        }
      ],
      "name": "setStakeWeights",
      "outputs": [],
      "stateMutability": "nonpayable",
      "type": "function"
    },
    {
      "inputs": [
        {
          "internalType": "uint8",
          "name": "_level",
          "type": "uint8"
        },
        {
          "internalType": "uint256",
          "name": "_amount",
          "type": "uint256"
        }
      ],
      "name": "stake",
      "outputs": [],
      "stateMutability": "nonpayable",
      "type": "function"
    },
    {
      "inputs": [],
      "name": "stakeCore",
      "outputs": [
        {
          "internalType": "address",
          "name": "",
          "type": "address"
        }
      ],
      "stateMutability": "view",
      "type": "function"
    },
    {
      "inputs": [
        {
          "internalType": "uint256",
          "name": "",
          "type": "uint256"
        }
      ],
      "name": "stakeDurations",
      "outputs": [
        {
          "internalType": "uint256",
          "name": "",
          "type": "uint256"
        }
      ],
      "stateMutability": "view",
      "type": "function"
    },
    {
      "inputs": [
        {
          "internalType": "address",
          "name": "",
          "type": "address"
        },
        {
          "internalType": "uint8",
          "name": "",
          "type": "uint8"
        }
      ],
      "name": "stakeTime",
      "outputs": [
        {
          "internalType": "uint256",
          "name": "",
          "type": "uint256"
        }
      ],
      "stateMutability": "view",
      "type": "function"
    },
    {
      "inputs": [
        {
          "internalType": "uint256",
          "name": "",
          "type": "uint256"
        }
      ],
      "name": "stakeWeights",
      "outputs": [
        {
          "internalType": "uint256",
          "name": "",
          "type": "uint256"
        }
      ],
      "stateMutability": "view",
      "type": "function"
    },
    {
      "inputs": [
        {
          "internalType": "uint256",
          "name": "",
          "type": "uint256"
        }
      ],
      "name": "tS",
      "outputs": [
        {
          "internalType": "uint256",
          "name": "",
          "type": "uint256"
        }
      ],
      "stateMutability": "view",
      "type": "function"
    },
    {
      "inputs": [],
      "name": "totalSellFee",
      "outputs": [
        {
          "internalType": "uint256",
          "name": "",
          "type": "uint256"
        }
      ],
      "stateMutability": "view",
      "type": "function"
    },
    {
      "inputs": [
        {
          "internalType": "address",
          "name": "newOwner",
          "type": "address"
        }
      ],
      "name": "transferOwnership",
      "outputs": [],
      "stateMutability": "nonpayable",
      "type": "function"
    },
    {
      "inputs": [
        {
          "internalType": "uint8",
          "name": "_level",
          "type": "uint8"
        },
        {
          "internalType": "uint256",
          "name": "_amount",
          "type": "uint256"
        }
      ],
      "name": "unstake",
      "outputs": [],
      "stateMutability": "nonpayable",
      "type": "function"
    },
    {
      "inputs": [
        {
          "internalType": "address",
          "name": "_token",
          "type": "address"
        },
        {
          "internalType": "address",
          "name": "_to",
          "type": "address"
        },
        {
          "internalType": "uint256",
          "name": "_amount",
          "type": "uint256"
        }
      ],
      "name": "withdrawToken",
      "outputs": [],
      "stateMutability": "nonpayable",
      "type": "function"
    },
    {
      "stateMutability": "payable",
      "type": "receive"
    }
  ],
  "bytecode": "0x6101c060405262278d006101409081526276a7006101605262ed4e00610180526301da9c006101a05260019061003590826101b9565b506040805160808101825260018152600260208201526004918101919091526008606082015260059061006890826101e5565b50348015610074575f5ffd5b5060405161234d38038061234d83398101604081905261009391610223565b33806100b957604051631e4fbdf760e01b81525f60048201526024015b60405180910390fd5b6100c28161016a565b5060017f9b779b17422d0df92223018b32b4d1fa46e071723d6817e2486d003becc55f00556001600160a01b0386161580159061010757506001600160a01b03851615155b61013b5760405162461bcd60e51b8152602060048201526005602482015264217a65726f60d81b60448201526064016100b0565b6001600160a01b0395861660805293851660a05291841660c052831660e0528216610100521661012052610293565b5f80546001600160a01b038381166001600160a01b0319831681178455604051919092169283917f8be0079c531659141344cd1fd0a4f28419497f9722a3daafe3b4186f6b6457e09190a35050565b815f5b60048110156101df57815163ffffffff16838201556020909101906001016101bc565b50505050565b815f5b60048110156101df57815160ff16838201556020909101906001016101e8565b80516001600160a01b038116811461021e575f5ffd5b919050565b5f5f5f5f5f5f60c08789031215610238575f5ffd5b61024187610208565b955061024f60208801610208565b945061025d60408801610208565b935061026b60608801610208565b925061027960808801610208565b915061028760a08801610208565b90509295509295509295565b60805160a05160c05160e0516101005161012051611ff56103585f395f818161028501526119ca01525f8181610540015261197601525f8181610226015261192201525f818161050d015281816108ff01528181610d3b01528181610ff8015281816111e201526113a301525f8181610573015281816106ab01528181610ae701528181610f53015281816110d50152818161190001528181611954015281816119a80152611a0001525f81816102ee015281816106dd01526114460152611ff55ff3fe608060405260043610610198575f3560e01c8063b25b73b1116100e7578063e2a0f47111610087578063e80db5db11610062578063e80db5db146104fc578063ebebcf3d1461052f578063f043369b14610562578063f2fde38b14610595575f5ffd5b8063e2a0f471146104b4578063e41e4fc6146104d3578063e547bb91146104e8575f5ffd5b8063cc8b571e116100c2578063cc8b571e14610421578063d12a242f14610457578063dd752e5514610476578063de3e3eff14610495575f5ffd5b8063b25b73b1146103b5578063b4545b9e146103d4578063c3453153146103f3575f5ffd5b806371c9d54f1161015257806389cc1a171161012d57806389cc1a171461032f5780638da5cb5b1461034e5780639d9241ec1461036a578063b0663b9b1461037f575f5ffd5b806371c9d54f146102a757806384aab02f146102dd57806386e630a914610310575f5ffd5b806301e33667146101a3578063316eab51146101c45780635587206c146101f657806365df2e5114610215578063715018a6146102605780637182808c14610274575f5ffd5b3661019f57005b5f5ffd5b3480156101ae575f5ffd5b506101c26101bd366004611ced565b6105b4565b005b3480156101cf575f5ffd5b506101e36101de366004611d27565b61065f565b6040519081526020015b60405180910390f35b348015610201575f5ffd5b506101c2610210366004611d3e565b610675565b348015610220575f5ffd5b506102487f000000000000000000000000000000000000000000000000000000000000000081565b6040516001600160a01b0390911681526020016101ed565b34801561026b575f5ffd5b506101c261068d565b34801561027f575f5ffd5b506102487f000000000000000000000000000000000000000000000000000000000000000081565b3480156102b2575f5ffd5b506101e36102c1366004611d73565b600b60209081525f928352604080842090915290825290205481565b3480156102e8575f5ffd5b506102487f000000000000000000000000000000000000000000000000000000000000000081565b34801561031b575f5ffd5b506101c261032a366004611d27565b6106a0565b34801561033a575f5ffd5b506101e3610349366004611d27565b6108c4565b348015610359575f5ffd5b505f546001600160a01b0316610248565b348015610375575f5ffd5b506101e360145481565b34801561038a575f5ffd5b506101e3610399366004611d73565b600a60209081525f928352604080842090915290825290205481565b3480156103c0575f5ffd5b506101e36103cf366004611d27565b6108d3565b3480156103df575f5ffd5b506101c26103ee366004611da4565b6108e2565b3480156103fe575f5ffd5b5061041261040d366004611dcc565b610b63565b6040516101ed93929190611e0e565b34801561042c575f5ffd5b506101e361043b366004611d73565b600960209081525f928352604080842090915290825290205481565b348015610462575f5ffd5b506101c2610471366004611e40565b610d1e565b348015610481575f5ffd5b506101c2610490366004611da4565b610fdb565b3480156104a0575f5ffd5b506101e36104af366004611d27565b6111c8565b3480156104bf575f5ffd5b506101c26104ce366004611d27565b6111d7565b3480156104de575f5ffd5b506101e36103e881565b3480156104f3575f5ffd5b506101c2611386565b348015610507575f5ffd5b506102487f000000000000000000000000000000000000000000000000000000000000000081565b34801561053a575f5ffd5b506102487f000000000000000000000000000000000000000000000000000000000000000081565b34801561056d575f5ffd5b506102487f000000000000000000000000000000000000000000000000000000000000000081565b3480156105a0575f5ffd5b506101c26105af366004611dcc565b611a7b565b6105bc611ab5565b6001600160a01b0382166105ff5760405162461bcd60e51b8152602060048201526005602482015264217a65726f60d81b60448201526064015b60405180910390fd5b6001600160a01b038316610646576040516001600160a01b0383169082156108fc029083905f818181858888f19350505050158015610640573d5f5f3e3d5ffd5b50505050565b61065a6001600160a01b0384168383611ae1565b505050565b600c816004811061066e575f80fd5b0154905081565b61067d611ab5565b60056106898282611e8a565b5050565b610695611ab5565b61069e5f611b16565b565b336001600160a01b037f00000000000000000000000000000000000000000000000000000000000000001614806106ff5750336001600160a01b037f000000000000000000000000000000000000000000000000000000000000000016145b6107355760405162461bcd60e51b815260206004820152600760248201526610b1b0b63632b960c91b60448201526064016105f6565b5f81116107545760405162461bcd60e51b81526004016105f690611eaa565b5f805b60048160ff1610156107b15760058160ff166004811061077957610779611ecb565b0154600c8260ff166004811061079157610791611ecb565b015461079d9190611e6d565b6107a79083611edf565b9150600101610757565b508015610876575f5b60048160ff161015610870575f600c8260ff16600481106107dd576107dd611ecb565b01541115610868575f60058260ff16600481106107fc576107fc611ecb565b0154600c8360ff166004811061081457610814611ecb565b01546108209190611e6d565b90505f8361082e8387611e6d565b6108389190611ef2565b90508060108460ff166004811061085157610851611ecb565b015f8282546108609190611edf565b909155505050505b6001016107ba565b5061088d565b8160145f8282546108879190611edf565b90915550505b6040518281527ffcb311358b80cb26e817b389b814ccc075bc1ab7b1f4e87cc3b7f4a4829b96ba9060200160405180910390a15050565b6010816004811061066e575f80fd5b6005816004811061066e575f80fd5b6108ea611b65565b60405163fe575a8760e01b81523360048201527f00000000000000000000000000000000000000000000000000000000000000006001600160a01b03169063fe575a8790602401602060405180830381865afa15801561094c573d5f5f3e3d5ffd5b505050506040513d601f19601f820116820180604052508101906109709190611f11565b1561098d5760405162461bcd60e51b81526004016105f690611f30565b60048260ff16106109b05760405162461bcd60e51b81526004016105f690611f55565b335f90815260096020908152604080832060ff86168452909152902054811115610a075760405162461bcd60e51b81526020600482015260086024820152672162616c616e636560c01b60448201526064016105f6565b335f908152600a6020908152604080832060ff86168085529252909120549060019060048110610a3957610a39611ecb565b0154610a459082611edf565b421015610a7c5760405162461bcd60e51b81526020600482015260056024820152642174696d6560d81b60448201526064016105f6565b335f90815260096020908152604080832060ff8716845290915281208054849290610aa8908490611f75565b90915550829050600c60ff851660048110610ac557610ac5611ecb565b015f828254610ad49190611f75565b90915550610b0e90506001600160a01b037f0000000000000000000000000000000000000000000000000000000000000000163384611ae1565b6040805160ff851681526020810184905233917f9bda9a567fe5ce9bcfb637505de9a1dc9d112a34e25a8524026e3d869f95b471910160405180910390a25061068960015f516020611fa05f395f51905f5255565b610b6b611cb4565b610b73611cb4565b610b7b611cb4565b5f5b60048160ff161015610d16576001600160a01b0385165f90815260096020908152604080832060ff851680855292529091205490859060048110610bc357610bc3611ecb565b602090810291909101919091526001600160a01b0386165f908152600a8252604080822060ff8516808452935290205490849060048110610c0657610c06611ecb565b60200201525f600c60ff831660048110610c2257610c22611ecb565b0154118015610c5557506001600160a01b0385165f90815260096020908152604080832060ff8516845290915290205415155b15610d0e576001600160a01b0385165f908152600b6020908152604080832060ff851680855292529091205490600c9060048110610c9557610c95611ecb565b015460108360ff1660048110610cad57610cad611ecb565b01546001600160a01b0388165f90815260096020908152604080832060ff88168452909152902054610cdf9190611e6d565b610ce99190611ef2565b610cf39190611f75565b828260ff1660048110610d0857610d08611ecb565b60200201525b600101610b7d565b509193909250565b610d26611b65565b60405163fe575a8760e01b81523360048201527f00000000000000000000000000000000000000000000000000000000000000006001600160a01b03169063fe575a8790602401602060405180830381865afa158015610d88573d5f5f3e3d5ffd5b505050506040513d601f19601f82011682018060405250810190610dac9190611f11565b15610dc95760405162461bcd60e51b81526004016105f690611f30565b60048160ff1610610dec5760405162461bcd60e51b81526004016105f690611f55565b335f90815260096020908152604080832060ff85168452909152902054610e3e5760405162461bcd60e51b8152602060048201526006602482015265217374616b6560d01b60448201526064016105f6565b335f908152600b6020908152604080832060ff8516808552925282205490600c9060048110610e6f57610e6f611ecb565b015460108460ff1660048110610e8757610e87611ecb565b0154335f90815260096020908152604080832060ff89168452909152902054610eb09190611e6d565b610eba9190611ef2565b610ec49190611f75565b90508015610fc157600c8260ff1660048110610ee257610ee2611ecb565b015460108360ff1660048110610efa57610efa611ecb565b0154335f90815260096020908152604080832060ff88168452909152902054610f239190611e6d565b610f2d9190611ef2565b335f818152600b6020908152604080832060ff88168452909152902091909155610f82907f00000000000000000000000000000000000000000000000000000000000000006001600160a01b03169083611ae1565b6040805160ff841681526020810183905233917fd20db637571188c4bd8c6d6b5b9e35b9ac58f43ead08852698be4c152e513a9a910160405180910390a25b50610fd860015f516020611fa05f395f51905f5255565b50565b610fe3611b65565b60405163fe575a8760e01b81523360048201527f00000000000000000000000000000000000000000000000000000000000000006001600160a01b03169063fe575a8790602401602060405180830381865afa158015611045573d5f5f3e3d5ffd5b505050506040513d601f19601f820116820180604052508101906110699190611f11565b156110865760405162461bcd60e51b81526004016105f690611f30565b60048260ff16106110a95760405162461bcd60e51b81526004016105f690611f55565b5f81116110c85760405162461bcd60e51b81526004016105f690611eaa565b6110fd6001600160a01b037f000000000000000000000000000000000000000000000000000000000000000016333084611b80565b335f90815260096020908152604080832060ff8616845290915281208054839290611129908490611edf565b90915550819050600c60ff84166004811061114657611146611ecb565b015f8282546111559190611edf565b9091555050335f818152600a6020908152604080832060ff87168085529083529281902042905580519283529082018490527f3cf14181ae25669a913d72411736fc5c01f538fa503e963b0b2e56bcefb3edaf910160405180910390a261068960015f516020611fa05f395f51905f5255565b6001816004811061066e575f80fd5b336001600160a01b037f000000000000000000000000000000000000000000000000000000000000000016148061121757505f546001600160a01b031633145b61124b5760405162461bcd60e51b815260206004820152600560248201526421636f726560d81b60448201526064016105f6565b5f811161126a5760405162461bcd60e51b81526004016105f690611eaa565b5f805b60048160ff1610156112c75760058160ff166004811061128f5761128f611ecb565b0154600c8260ff16600481106112a7576112a7611ecb565b01546112b39190611e6d565b6112bd9083611edf565b915060010161126d565b508015610876575f5b60048160ff161015610870575f600c8260ff16600481106112f3576112f3611ecb565b0154111561137e575f60058260ff166004811061131257611312611ecb565b0154600c8360ff166004811061132a5761132a611ecb565b01546113369190611e6d565b90505f836113448387611e6d565b61134e9190611ef2565b90508060108460ff166004811061136757611367611ecb565b015f8282546113769190611edf565b909155505050505b6001016112d0565b61138e611b65565b60405163fe575a8760e01b81523360048201527f00000000000000000000000000000000000000000000000000000000000000006001600160a01b03169063fe575a8790602401602060405180830381865afa1580156113f0573d5f5f3e3d5ffd5b505050506040513d601f19601f820116820180604052508101906114149190611f11565b156114315760405162461bcd60e51b81526004016105f690611f30565b60405163e02ae09f60e01b81523360048201527f0000000000000000000000000000000000000000000000000000000000000000905f906001600160a01b0383169063e02ae09f90602401602060405180830381865afa158015611497573d5f5f3e3d5ffd5b505050506040513d601f19601f820116820180604052508101906114bb9190611f88565b604051639728ec8360e01b81523360048201529091505f906001600160a01b03841690639728ec8390602401602060405180830381865afa158015611502573d5f5f3e3d5ffd5b505050506040513d601f19601f820116820180604052508101906115269190611f88565b90505f82118061153557505f81115b6115675760405162461bcd60e51b81526020600482015260036024820152620216c760ec1b60448201526064016105f6565b5f836001600160a01b031663132c4feb6040518163ffffffff1660e01b8152600401602060405180830381865afa1580156115a4573d5f5f3e3d5ffd5b505050506040513d601f19601f820116820180604052508101906115c89190611f88565b90505f846001600160a01b031663a1f9ae026040518163ffffffff1660e01b8152600401602060405180830381865afa158015611607573d5f5f3e3d5ffd5b505050506040513d601f19601f8201168201806040525081019061162b9190611f88565b90505f82118061163a57505f81115b61166f5760405162461bcd60e51b8152602060048201526006602482015265085d1bdd185b60d21b60448201526064016105f6565b5f856001600160a01b031663c1c87aa06040518163ffffffff1660e01b8152600401602060405180830381865afa1580156116ac573d5f5f3e3d5ffd5b505050506040513d601f19601f820116820180604052508101906116d09190611f88565b90505f85158015906116e157505f84115b15611789575f846116f28489611e6d565b6116fc9190611ef2565b604051637192171560e11b81523360048201529091505f906001600160a01b038a169063e3242e2a90602401602060405180830381865afa158015611743573d5f5f3e3d5ffd5b505050506040513d601f19601f820116820180604052508101906117679190611f88565b6117719083611f75565b90508015611786576117838184611edf565b92505b50505b5f8511801561179757505f83115b1561183f575f836117a88488611e6d565b6117b29190611ef2565b60405163a30a4dcf60e01b81523360048201529091505f906001600160a01b038a169063a30a4dcf90602401602060405180830381865afa1580156117f9573d5f5f3e3d5ffd5b505050506040513d601f19601f8201168201806040525081019061181d9190611f88565b6118279083611f75565b9050801561183c576118398184611edf565b92505b50505b5f81116118785760405162461bcd60e51b8152602060048201526007602482015266085c995dd85c9960ca1b60448201526064016105f6565b5f6127106118886103e884611e6d565b6118929190611ef2565b90505f61189f8284611f75565b905081156119f3575f60646118b584601e611e6d565b6118bf9190611ef2565b90505f60646118cf85601e611e6d565b6118d99190611ef2565b90505f816118e78487611f75565b6118f19190611f75565b90506119476001600160a01b037f0000000000000000000000000000000000000000000000000000000000000000167f000000000000000000000000000000000000000000000000000000000000000085611ae1565b61199b6001600160a01b037f0000000000000000000000000000000000000000000000000000000000000000167f000000000000000000000000000000000000000000000000000000000000000084611ae1565b6119ef6001600160a01b037f0000000000000000000000000000000000000000000000000000000000000000167f000000000000000000000000000000000000000000000000000000000000000083611ae1565b5050505b611a276001600160a01b037f0000000000000000000000000000000000000000000000000000000000000000163383611ae1565b60405181815233907f48bd4abc164782b90453c75dca68259b451843daa67a638b16f37e45f4a9f2059060200160405180910390a250505050505050505061069e60015f516020611fa05f395f51905f5255565b611a83611ab5565b6001600160a01b038116611aac57604051631e4fbdf760e01b81525f60048201526024016105f6565b610fd881611b16565b5f546001600160a01b0316331461069e5760405163118cdaa760e01b81523360048201526024016105f6565b611aee8383836001611bb6565b61065a57604051635274afe760e01b81526001600160a01b03841660048201526024016105f6565b5f80546001600160a01b038381166001600160a01b0319831681178455604051919092169283917f8be0079c531659141344cd1fd0a4f28419497f9722a3daafe3b4186f6b6457e09190a35050565b611b6d611c18565b60025f516020611fa05f395f51905f5255565b611b8e848484846001611c47565b61064057604051635274afe760e01b81526001600160a01b03851660048201526024016105f6565b60405163a9059cbb60e01b5f8181526001600160a01b038616600452602485905291602083604481808b5af1925060015f51148316611c0c578383151615611c00573d5f823e3d81fd5b5f873b113d1516831692505b60405250949350505050565b5f516020611fa05f395f51905f525460020361069e57604051633ee5aeb560e01b815260040160405180910390fd5b6040516323b872dd60e01b5f8181526001600160a01b038781166004528616602452604485905291602083606481808c5af1925060015f51148316611ca3578383151615611c97573d5f823e3d81fd5b5f883b113d1516831692505b604052505f60605295945050505050565b60405180608001604052806004906020820280368337509192915050565b80356001600160a01b0381168114611ce8575f5ffd5b919050565b5f5f5f60608486031215611cff575f5ffd5b611d0884611cd2565b9250611d1660208501611cd2565b929592945050506040919091013590565b5f60208284031215611d37575f5ffd5b5035919050565b5f60808284031215611d4e575f5ffd5b82608083011115611d5d575f5ffd5b50919050565b803560ff81168114611ce8575f5ffd5b5f5f60408385031215611d84575f5ffd5b611d8d83611cd2565b9150611d9b60208401611d63565b90509250929050565b5f5f60408385031215611db5575f5ffd5b611dbe83611d63565b946020939093013593505050565b5f60208284031215611ddc575f5ffd5b611de582611cd2565b9392505050565b805f5b6004811015610640578151845260209384019390910190600101611def565b6101808101611e1d8286611dec565b611e2a6080830185611dec565b611e38610100830184611dec565b949350505050565b5f60208284031215611e50575f5ffd5b611de582611d63565b634e487b7160e01b5f52601160045260245ffd5b8082028115828204841417611e8457611e84611e59565b92915050565b815f5b600481101561064057813583820155602090910190600101611e8d565b60208082526007908201526608585b5bdd5b9d60ca1b604082015260600190565b634e487b7160e01b5f52603260045260245ffd5b80820180821115611e8457611e84611e59565b5f82611f0c57634e487b7160e01b5f52601260045260245ffd5b500490565b5f60208284031215611f21575f5ffd5b81518015158114611de5575f5ffd5b6020808252600b908201526a189b1858dadb1a5cdd195960aa1b604082015260600190565b602080825260069082015265085b195d995b60d21b604082015260600190565b81810381811115611e8457611e84611e59565b5f60208284031215611f98575f5ffd5b505191905056fe9b779b17422d0df92223018b32b4d1fa46e071723d6817e2486d003becc55f00a2646970667358221220679c7369711932a00e86e11f0ea08410a9f83e6a595a0a0c541afc25f170e55c64736f6c63430008230033",
  "linkReferences": {},
  "deployedLinkReferences": {}
}