{
  "_format": "hh-sol-artifact-1",
  "contractName": "DQMiningStakeV3",
  "sourceName": "src/DQMS.sol",
  "abi": [
    {
      "inputs": [],
      "stateMutability": "nonpayable",
      "type": "constructor"
    },
    {
      "anonymous": false,
      "inputs": [
        {
          "indexed": true,
          "internalType": "address",
          "name": "u",
          "type": "address"
        },
        {
          "indexed": false,
          "internalType": "uint256",
          "name": "a",
          "type": "uint256"
        }
      ],
      "name": "ClaimReward",
      "type": "event"
    },
    {
      "anonymous": false,
      "inputs": [
        {
          "indexed": true,
          "internalType": "address",
          "name": "u",
          "type": "address"
        },
        {
          "indexed": false,
          "internalType": "uint256",
          "name": "a",
          "type": "uint256"
        }
      ],
      "name": "Deposit",
      "type": "event"
    },
    {
      "anonymous": false,
      "inputs": [
        {
          "indexed": true,
          "internalType": "address",
          "name": "u",
          "type": "address"
        },
        {
          "indexed": false,
          "internalType": "uint256",
          "name": "e",
          "type": "uint256"
        }
      ],
      "name": "EnergyChanged",
      "type": "event"
    },
    {
      "anonymous": false,
      "inputs": [
        {
          "indexed": true,
          "internalType": "address",
          "name": "u",
          "type": "address"
        },
        {
          "indexed": false,
          "internalType": "uint256",
          "name": "a",
          "type": "uint256"
        }
      ],
      "name": "LPRemoved",
      "type": "event"
    },
    {
      "anonymous": false,
      "inputs": [
        {
          "indexed": true,
          "internalType": "address",
          "name": "u",
          "type": "address"
        },
        {
          "indexed": false,
          "internalType": "uint256",
          "name": "a",
          "type": "uint256"
        },
        {
          "indexed": false,
          "internalType": "uint256",
          "name": "i",
          "type": "uint256"
        }
      ],
      "name": "Stake",
      "type": "event"
    },
    {
      "anonymous": false,
      "inputs": [
        {
          "indexed": true,
          "internalType": "address",
          "name": "u",
          "type": "address"
        },
        {
          "indexed": false,
          "internalType": "uint256",
          "name": "v",
          "type": "uint256"
        }
      ],
      "name": "TeamInvestChanged",
      "type": "event"
    },
    {
      "anonymous": false,
      "inputs": [
        {
          "indexed": true,
          "internalType": "address",
          "name": "u",
          "type": "address"
        },
        {
          "indexed": false,
          "internalType": "uint256",
          "name": "a",
          "type": "uint256"
        },
        {
          "indexed": false,
          "internalType": "uint256",
          "name": "i",
          "type": "uint256"
        }
      ],
      "name": "Unstake",
      "type": "event"
    },
    {
      "inputs": [],
      "name": "BD",
      "outputs": [
        {
          "internalType": "uint256",
          "name": "",
          "type": "uint256"
        }
      ],
      "stateMutability": "view",
      "type": "function"
    },
    {
      "inputs": [],
      "name": "CLAIM_GAS_FEE",
      "outputs": [
        {
          "internalType": "uint256",
          "name": "",
          "type": "uint256"
        }
      ],
      "stateMutability": "view",
      "type": "function"
    },
    {
      "inputs": [],
      "name": "DQ_CARD",
      "outputs": [
        {
          "internalType": "address",
          "name": "",
          "type": "address"
        }
      ],
      "stateMutability": "view",
      "type": "function"
    },
    {
      "inputs": [],
      "name": "DQ_TOKEN",
      "outputs": [
        {
          "internalType": "address",
          "name": "",
          "type": "address"
        }
      ],
      "stateMutability": "view",
      "type": "function"
    },
    {
      "inputs": [],
      "name": "D_LEVEL_RATE",
      "outputs": [
        {
          "internalType": "uint256",
          "name": "",
          "type": "uint256"
        }
      ],
      "stateMutability": "view",
      "type": "function"
    },
    {
      "inputs": [],
      "name": "F180",
      "outputs": [
        {
          "internalType": "uint256",
          "name": "",
          "type": "uint256"
        }
      ],
      "stateMutability": "view",
      "type": "function"
    },
    {
      "inputs": [],
      "name": "F60",
      "outputs": [
        {
          "internalType": "uint256",
          "name": "",
          "type": "uint256"
        }
      ],
      "stateMutability": "view",
      "type": "function"
    },
    {
      "inputs": [],
      "name": "FOUNDATION",
      "outputs": [
        {
          "internalType": "address",
          "name": "",
          "type": "address"
        }
      ],
      "stateMutability": "view",
      "type": "function"
    },
    {
      "inputs": [],
      "name": "FOUNDATION_RATE",
      "outputs": [
        {
          "internalType": "uint256",
          "name": "",
          "type": "uint256"
        }
      ],
      "stateMutability": "view",
      "type": "function"
    },
    {
      "inputs": [],
      "name": "IB",
      "outputs": [
        {
          "internalType": "uint256",
          "name": "",
          "type": "uint256"
        }
      ],
      "stateMutability": "view",
      "type": "function"
    },
    {
      "inputs": [],
      "name": "INITIAL_SUPPLY",
      "outputs": [
        {
          "internalType": "uint256",
          "name": "",
          "type": "uint256"
        }
      ],
      "stateMutability": "view",
      "type": "function"
    },
    {
      "inputs": [],
      "name": "LP_RATE",
      "outputs": [
        {
          "internalType": "uint256",
          "name": "",
          "type": "uint256"
        }
      ],
      "stateMutability": "view",
      "type": "function"
    },
    {
      "inputs": [],
      "name": "MB",
      "outputs": [
        {
          "internalType": "uint256",
          "name": "",
          "type": "uint256"
        }
      ],
      "stateMutability": "view",
      "type": "function"
    },
    {
      "inputs": [],
      "name": "NFT_RATE",
      "outputs": [
        {
          "internalType": "uint256",
          "name": "",
          "type": "uint256"
        }
      ],
      "stateMutability": "view",
      "type": "function"
    },
    {
      "inputs": [],
      "name": "OWNER",
      "outputs": [
        {
          "internalType": "address",
          "name": "",
          "type": "address"
        }
      ],
      "stateMutability": "view",
      "type": "function"
    },
    {
      "inputs": [],
      "name": "PARTNER",
      "outputs": [
        {
          "internalType": "address",
          "name": "",
          "type": "address"
        }
      ],
      "stateMutability": "view",
      "type": "function"
    },
    {
      "inputs": [],
      "name": "ROUTER",
      "outputs": [
        {
          "internalType": "address",
          "name": "",
          "type": "address"
        }
      ],
      "stateMutability": "view",
      "type": "function"
    },
    {
      "inputs": [],
      "name": "RT",
      "outputs": [
        {
          "internalType": "uint256",
          "name": "",
          "type": "uint256"
        }
      ],
      "stateMutability": "view",
      "type": "function"
    },
    {
      "inputs": [],
      "name": "SOL",
      "outputs": [
        {
          "internalType": "address",
          "name": "",
          "type": "address"
        }
      ],
      "stateMutability": "view",
      "type": "function"
    },
    {
      "inputs": [
        {
          "internalType": "uint256",
          "name": "",
          "type": "uint256"
        }
      ],
      "name": "SP",
      "outputs": [
        {
          "internalType": "uint256",
          "name": "",
          "type": "uint256"
        }
      ],
      "stateMutability": "view",
      "type": "function"
    },
    {
      "inputs": [
        {
          "internalType": "address",
          "name": "_p",
          "type": "address"
        },
        {
          "internalType": "address",
          "name": "_c",
          "type": "address"
        }
      ],
      "name": "addChild",
      "outputs": [],
      "stateMutability": "nonpayable",
      "type": "function"
    },
    {
      "inputs": [
        {
          "internalType": "address",
          "name": "_u",
          "type": "address"
        },
        {
          "internalType": "uint256",
          "name": "_a",
          "type": "uint256"
        }
      ],
      "name": "addDirectSales",
      "outputs": [],
      "stateMutability": "nonpayable",
      "type": "function"
    },
    {
      "inputs": [
        {
          "internalType": "address",
          "name": "_u",
          "type": "address"
        },
        {
          "internalType": "uint256",
          "name": "_a",
          "type": "uint256"
        }
      ],
      "name": "addEnergy",
      "outputs": [],
      "stateMutability": "nonpayable",
      "type": "function"
    },
    {
      "inputs": [
        {
          "internalType": "address",
          "name": "_u",
          "type": "address"
        },
        {
          "internalType": "uint256",
          "name": "_a",
          "type": "uint256"
        },
        {
          "internalType": "uint256",
          "name": "_t",
          "type": "uint256"
        }
      ],
      "name": "addLP",
      "outputs": [],
      "stateMutability": "nonpayable",
      "type": "function"
    },
    {
      "inputs": [
        {
          "internalType": "uint256",
          "name": "_amount",
          "type": "uint256"
        }
      ],
      "name": "addPendingBurn",
      "outputs": [],
      "stateMutability": "nonpayable",
      "type": "function"
    },
    {
      "inputs": [
        {
          "internalType": "address",
          "name": "_u",
          "type": "address"
        },
        {
          "internalType": "uint256",
          "name": "_a",
          "type": "uint256"
        }
      ],
      "name": "addPendingSOL",
      "outputs": [],
      "stateMutability": "nonpayable",
      "type": "function"
    },
    {
      "inputs": [
        {
          "internalType": "address",
          "name": "_u",
          "type": "address"
        },
        {
          "internalType": "uint256",
          "name": "_a",
          "type": "uint256"
        }
      ],
      "name": "addTeamInvest",
      "outputs": [],
      "stateMutability": "nonpayable",
      "type": "function"
    },
    {
      "inputs": [
        {
          "internalType": "address",
          "name": "_u",
          "type": "address"
        }
      ],
      "name": "adminWithdrawLP",
      "outputs": [],
      "stateMutability": "nonpayable",
      "type": "function"
    },
    {
      "inputs": [
        {
          "internalType": "address",
          "name": "u",
          "type": "address"
        },
        {
          "internalType": "bool",
          "name": "s",
          "type": "bool"
        }
      ],
      "name": "bl",
      "outputs": [],
      "stateMutability": "nonpayable",
      "type": "function"
    },
    {
      "inputs": [],
      "name": "br",
      "outputs": [
        {
          "internalType": "uint256",
          "name": "",
          "type": "uint256"
        }
      ],
      "stateMutability": "view",
      "type": "function"
    },
    {
      "inputs": [
        {
          "internalType": "address",
          "name": "_u",
          "type": "address"
        }
      ],
      "name": "claimD",
      "outputs": [],
      "stateMutability": "nonpayable",
      "type": "function"
    },
    {
      "inputs": [],
      "name": "claimDLevelReward",
      "outputs": [],
      "stateMutability": "payable",
      "type": "function"
    },
    {
      "inputs": [
        {
          "internalType": "address",
          "name": "_u",
          "type": "address"
        }
      ],
      "name": "claimFee",
      "outputs": [],
      "stateMutability": "nonpayable",
      "type": "function"
    },
    {
      "inputs": [],
      "name": "claimGasFee",
      "outputs": [
        {
          "internalType": "uint256",
          "name": "",
          "type": "uint256"
        }
      ],
      "stateMutability": "view",
      "type": "function"
    },
    {
      "inputs": [
        {
          "internalType": "address",
          "name": "_u",
          "type": "address"
        }
      ],
      "name": "claimLP",
      "outputs": [],
      "stateMutability": "nonpayable",
      "type": "function"
    },
    {
      "inputs": [
        {
          "internalType": "address",
          "name": "_u",
          "type": "address"
        }
      ],
      "name": "claimNft",
      "outputs": [],
      "stateMutability": "nonpayable",
      "type": "function"
    },
    {
      "inputs": [
        {
          "internalType": "address",
          "name": "_u",
          "type": "address"
        }
      ],
      "name": "claimPbnb",
      "outputs": [],
      "stateMutability": "nonpayable",
      "type": "function"
    },
    {
      "inputs": [
        {
          "internalType": "address",
          "name": "_u",
          "type": "address"
        }
      ],
      "name": "claimPdq",
      "outputs": [],
      "stateMutability": "nonpayable",
      "type": "function"
    },
    {
      "inputs": [
        {
          "internalType": "address",
          "name": "_u",
          "type": "address"
        }
      ],
      "name": "claimStakeReward",
      "outputs": [],
      "stateMutability": "nonpayable",
      "type": "function"
    },
    {
      "inputs": [
        {
          "internalType": "address",
          "name": "_u",
          "type": "address"
        }
      ],
      "name": "clearUserLPRemovalFee",
      "outputs": [],
      "stateMutability": "nonpayable",
      "type": "function"
    },
    {
      "inputs": [
        {
          "internalType": "address",
          "name": "_u",
          "type": "address"
        },
        {
          "internalType": "uint256",
          "name": "_i",
          "type": "uint256"
        }
      ],
      "name": "clmS",
      "outputs": [],
      "stateMutability": "nonpayable",
      "type": "function"
    },
    {
      "inputs": [
        {
          "internalType": "uint256",
          "name": "",
          "type": "uint256"
        }
      ],
      "name": "dLevelAccReward",
      "outputs": [
        {
          "internalType": "uint256",
          "name": "",
          "type": "uint256"
        }
      ],
      "stateMutability": "view",
      "type": "function"
    },
    {
      "inputs": [
        {
          "internalType": "uint256",
          "name": "",
          "type": "uint256"
        }
      ],
      "name": "dLevelCount",
      "outputs": [
        {
          "internalType": "uint256",
          "name": "",
          "type": "uint256"
        }
      ],
      "stateMutability": "view",
      "type": "function"
    },
    {
      "inputs": [
        {
          "internalType": "address",
          "name": "",
          "type": "address"
        }
      ],
      "name": "dLevelRewardDebt",
      "outputs": [
        {
          "internalType": "uint256",
          "name": "",
          "type": "uint256"
        }
      ],
      "stateMutability": "view",
      "type": "function"
    },
    {
      "inputs": [],
      "name": "dc",
      "outputs": [
        {
          "internalType": "contract IDQCard",
          "name": "",
          "type": "address"
        }
      ],
      "stateMutability": "view",
      "type": "function"
    },
    {
      "inputs": [
        {
          "internalType": "address",
          "name": "",
          "type": "address"
        }
      ],
      "name": "dd",
      "outputs": [
        {
          "internalType": "uint256",
          "name": "",
          "type": "uint256"
        }
      ],
      "stateMutability": "view",
      "type": "function"
    },
    {
      "inputs": [
        {
          "internalType": "uint256",
          "name": "_amount",
          "type": "uint256"
        }
      ],
      "name": "distDQFee",
      "outputs": [],
      "stateMutability": "nonpayable",
      "type": "function"
    },
    {
      "inputs": [
        {
          "internalType": "uint256",
          "name": "_f",
          "type": "uint256"
        }
      ],
      "name": "distLP",
      "outputs": [],
      "stateMutability": "nonpayable",
      "type": "function"
    },
    {
      "inputs": [
        {
          "internalType": "uint256",
          "name": "_f",
          "type": "uint256"
        }
      ],
      "name": "distNFT",
      "outputs": [],
      "stateMutability": "payable",
      "type": "function"
    },
    {
      "inputs": [
        {
          "internalType": "uint256",
          "name": "_f",
          "type": "uint256"
        }
      ],
      "name": "distP",
      "outputs": [],
      "stateMutability": "nonpayable",
      "type": "function"
    },
    {
      "inputs": [
        {
          "internalType": "address",
          "name": "_u",
          "type": "address"
        },
        {
          "internalType": "uint256",
          "name": "_a",
          "type": "uint256"
        }
      ],
      "name": "distReward",
      "outputs": [],
      "stateMutability": "nonpayable",
      "type": "function"
    },
    {
      "inputs": [
        {
          "internalType": "address",
          "name": "",
          "type": "address"
        }
      ],
      "name": "dl",
      "outputs": [
        {
          "internalType": "uint8",
          "name": "",
          "type": "uint8"
        }
      ],
      "stateMutability": "view",
      "type": "function"
    },
    {
      "inputs": [],
      "name": "dq",
      "outputs": [
        {
          "internalType": "contract IDQToken",
          "name": "",
          "type": "address"
        }
      ],
      "stateMutability": "view",
      "type": "function"
    },
    {
      "inputs": [],
      "name": "energyMul",
      "outputs": [
        {
          "internalType": "uint256",
          "name": "",
          "type": "uint256"
        }
      ],
      "stateMutability": "view",
      "type": "function"
    },
    {
      "inputs": [],
      "name": "feeRecipient",
      "outputs": [
        {
          "internalType": "address",
          "name": "",
          "type": "address"
        }
      ],
      "stateMutability": "view",
      "type": "function"
    },
    {
      "inputs": [
        {
          "internalType": "address",
          "name": "_u",
          "type": "address"
        }
      ],
      "name": "forceRemoveLP",
      "outputs": [],
      "stateMutability": "nonpayable",
      "type": "function"
    },
    {
      "inputs": [],
      "name": "fp",
      "outputs": [
        {
          "internalType": "uint256",
          "name": "",
          "type": "uint256"
        }
      ],
      "stateMutability": "view",
      "type": "function"
    },
    {
      "inputs": [
        {
          "internalType": "address",
          "name": "_u",
          "type": "address"
        },
        {
          "internalType": "uint256",
          "name": "_i",
          "type": "uint256"
        }
      ],
      "name": "getChild",
      "outputs": [
        {
          "internalType": "address",
          "name": "",
          "type": "address"
        }
      ],
      "stateMutability": "view",
      "type": "function"
    },
    {
      "inputs": [
        {
          "internalType": "address",
          "name": "_u",
          "type": "address"
        }
      ],
      "name": "getChildCount",
      "outputs": [
        {
          "internalType": "uint256",
          "name": "",
          "type": "uint256"
        }
      ],
      "stateMutability": "view",
      "type": "function"
    },
    {
      "inputs": [
        {
          "internalType": "address",
          "name": "_u",
          "type": "address"
        }
      ],
      "name": "getDLevel",
      "outputs": [
        {
          "internalType": "uint8",
          "name": "",
          "type": "uint8"
        }
      ],
      "stateMutability": "view",
      "type": "function"
    },
    {
      "inputs": [
        {
          "internalType": "address",
          "name": "_u",
          "type": "address"
        }
      ],
      "name": "getDLevelReward",
      "outputs": [
        {
          "internalType": "uint256",
          "name": "",
          "type": "uint256"
        }
      ],
      "stateMutability": "view",
      "type": "function"
    },
    {
      "inputs": [
        {
          "internalType": "address",
          "name": "_u",
          "type": "address"
        }
      ],
      "name": "getDirectSales",
      "outputs": [
        {
          "internalType": "uint256",
          "name": "",
          "type": "uint256"
        }
      ],
      "stateMutability": "view",
      "type": "function"
    },
    {
      "inputs": [
        {
          "internalType": "address",
          "name": "_u",
          "type": "address"
        }
      ],
      "name": "getEnergy",
      "outputs": [
        {
          "internalType": "uint256",
          "name": "",
          "type": "uint256"
        }
      ],
      "stateMutability": "view",
      "type": "function"
    },
    {
      "inputs": [
        {
          "internalType": "address",
          "name": "_u",
          "type": "address"
        }
      ],
      "name": "getPartnerReward",
      "outputs": [
        {
          "internalType": "uint256",
          "name": "dqReward",
          "type": "uint256"
        },
        {
          "internalType": "uint256",
          "name": "solReward",
          "type": "uint256"
        }
      ],
      "stateMutability": "view",
      "type": "function"
    },
    {
      "inputs": [
        {
          "internalType": "address",
          "name": "_u",
          "type": "address"
        }
      ],
      "name": "getPendingSOL",
      "outputs": [
        {
          "internalType": "uint256",
          "name": "",
          "type": "uint256"
        }
      ],
      "stateMutability": "view",
      "type": "function"
    },
    {
      "inputs": [
        {
          "internalType": "address",
          "name": "_u",
          "type": "address"
        },
        {
          "internalType": "uint256",
          "name": "_i",
          "type": "uint256"
        }
      ],
      "name": "getStk",
      "outputs": [
        {
          "internalType": "uint256",
          "name": "",
          "type": "uint256"
        },
        {
          "internalType": "uint256",
          "name": "",
          "type": "uint256"
        }
      ],
      "stateMutability": "view",
      "type": "function"
    },
    {
      "inputs": [
        {
          "internalType": "address",
          "name": "_u",
          "type": "address"
        }
      ],
      "name": "getTeamInvest",
      "outputs": [
        {
          "internalType": "uint256",
          "name": "",
          "type": "uint256"
        }
      ],
      "stateMutability": "view",
      "type": "function"
    },
    {
      "inputs": [
        {
          "internalType": "address",
          "name": "_u",
          "type": "address"
        }
      ],
      "name": "getUserLPRemovalFee",
      "outputs": [
        {
          "internalType": "uint256",
          "name": "",
          "type": "uint256"
        }
      ],
      "stateMutability": "view",
      "type": "function"
    },
    {
      "inputs": [
        {
          "internalType": "address",
          "name": "_u",
          "type": "address"
        }
      ],
      "name": "getValidAddressCount",
      "outputs": [
        {
          "internalType": "uint256",
          "name": "",
          "type": "uint256"
        }
      ],
      "stateMutability": "view",
      "type": "function"
    },
    {
      "inputs": [
        {
          "internalType": "address",
          "name": "_u",
          "type": "address"
        },
        {
          "internalType": "address",
          "name": "_r",
          "type": "address"
        },
        {
          "internalType": "uint256",
          "name": "_total",
          "type": "uint256"
        },
        {
          "internalType": "uint256",
          "name": "_team",
          "type": "uint256"
        },
        {
          "internalType": "uint8",
          "name": "_level",
          "type": "uint8"
        },
        {
          "internalType": "uint256",
          "name": "_energy",
          "type": "uint256"
        }
      ],
      "name": "importUser",
      "outputs": [],
      "stateMutability": "nonpayable",
      "type": "function"
    },
    {
      "inputs": [
        {
          "internalType": "address",
          "name": "",
          "type": "address"
        }
      ],
      "name": "isB",
      "outputs": [
        {
          "internalType": "bool",
          "name": "",
          "type": "bool"
        }
      ],
      "stateMutability": "view",
      "type": "function"
    },
    {
      "inputs": [
        {
          "internalType": "uint8",
          "name": "",
          "type": "uint8"
        },
        {
          "internalType": "address",
          "name": "",
          "type": "address"
        }
      ],
      "name": "isDLevel",
      "outputs": [
        {
          "internalType": "bool",
          "name": "",
          "type": "bool"
        }
      ],
      "stateMutability": "view",
      "type": "function"
    },
    {
      "inputs": [],
      "name": "lA",
      "outputs": [
        {
          "internalType": "uint256",
          "name": "",
          "type": "uint256"
        }
      ],
      "stateMutability": "view",
      "type": "function"
    },
    {
      "inputs": [
        {
          "internalType": "address",
          "name": "",
          "type": "address"
        }
      ],
      "name": "lF",
      "outputs": [
        {
          "internalType": "uint256",
          "name": "",
          "type": "uint256"
        }
      ],
      "stateMutability": "view",
      "type": "function"
    },
    {
      "inputs": [
        {
          "internalType": "address",
          "name": "",
          "type": "address"
        }
      ],
      "name": "lpD",
      "outputs": [
        {
          "internalType": "uint256",
          "name": "",
          "type": "uint256"
        }
      ],
      "stateMutability": "view",
      "type": "function"
    },
    {
      "inputs": [],
      "name": "lpPair",
      "outputs": [
        {
          "internalType": "address",
          "name": "",
          "type": "address"
        }
      ],
      "stateMutability": "view",
      "type": "function"
    },
    {
      "inputs": [
        {
          "internalType": "address",
          "name": "",
          "type": "address"
        }
      ],
      "name": "lpS",
      "outputs": [
        {
          "internalType": "uint256",
          "name": "",
          "type": "uint256"
        }
      ],
      "stateMutability": "view",
      "type": "function"
    },
    {
      "inputs": [
        {
          "internalType": "address",
          "name": "",
          "type": "address"
        }
      ],
      "name": "lpT",
      "outputs": [
        {
          "internalType": "uint256",
          "name": "",
          "type": "uint256"
        }
      ],
      "stateMutability": "view",
      "type": "function"
    },
    {
      "inputs": [],
      "name": "lt",
      "outputs": [
        {
          "internalType": "uint256",
          "name": "",
          "type": "uint256"
        }
      ],
      "stateMutability": "view",
      "type": "function"
    },
    {
      "inputs": [],
      "name": "mc",
      "outputs": [
        {
          "internalType": "address",
          "name": "",
          "type": "address"
        }
      ],
      "stateMutability": "view",
      "type": "function"
    },
    {
      "inputs": [
        {
          "internalType": "uint256",
          "name": "",
          "type": "uint256"
        }
      ],
      "name": "mgrRates",
      "outputs": [
        {
          "internalType": "uint8",
          "name": "",
          "type": "uint8"
        }
      ],
      "stateMutability": "view",
      "type": "function"
    },
    {
      "inputs": [
        {
          "internalType": "uint256",
          "name": "",
          "type": "uint256"
        }
      ],
      "name": "mgrThresh",
      "outputs": [
        {
          "internalType": "uint256",
          "name": "",
          "type": "uint256"
        }
      ],
      "stateMutability": "view",
      "type": "function"
    },
    {
      "inputs": [],
      "name": "mine",
      "outputs": [],
      "stateMutability": "nonpayable",
      "type": "function"
    },
    {
      "inputs": [],
      "name": "miningContract",
      "outputs": [
        {
          "internalType": "address",
          "name": "",
          "type": "address"
        }
      ],
      "stateMutability": "view",
      "type": "function"
    },
    {
      "inputs": [
        {
          "internalType": "uint256",
          "name": "",
          "type": "uint256"
        }
      ],
      "name": "nA",
      "outputs": [
        {
          "internalType": "uint256",
          "name": "",
          "type": "uint256"
        }
      ],
      "stateMutability": "view",
      "type": "function"
    },
    {
      "inputs": [
        {
          "internalType": "address",
          "name": "",
          "type": "address"
        }
      ],
      "name": "nD0",
      "outputs": [
        {
          "internalType": "uint256",
          "name": "",
          "type": "uint256"
        }
      ],
      "stateMutability": "view",
      "type": "function"
    },
    {
      "inputs": [
        {
          "internalType": "address",
          "name": "",
          "type": "address"
        }
      ],
      "name": "nD1",
      "outputs": [
        {
          "internalType": "uint256",
          "name": "",
          "type": "uint256"
        }
      ],
      "stateMutability": "view",
      "type": "function"
    },
    {
      "inputs": [
        {
          "internalType": "address",
          "name": "",
          "type": "address"
        }
      ],
      "name": "nD2",
      "outputs": [
        {
          "internalType": "uint256",
          "name": "",
          "type": "uint256"
        }
      ],
      "stateMutability": "view",
      "type": "function"
    },
    {
      "inputs": [
        {
          "internalType": "uint256",
          "name": "",
          "type": "uint256"
        }
      ],
      "name": "nodePrices",
      "outputs": [
        {
          "internalType": "uint256",
          "name": "",
          "type": "uint256"
        }
      ],
      "stateMutability": "view",
      "type": "function"
    },
    {
      "inputs": [
        {
          "internalType": "uint256",
          "name": "",
          "type": "uint256"
        }
      ],
      "name": "nodeReq",
      "outputs": [
        {
          "internalType": "uint256",
          "name": "",
          "type": "uint256"
        }
      ],
      "stateMutability": "view",
      "type": "function"
    },
    {
      "inputs": [
        {
          "internalType": "address",
          "name": "_u",
          "type": "address"
        },
        {
          "internalType": "uint256",
          "name": "_amount",
          "type": "uint256"
        }
      ],
      "name": "notifyLPRemoved",
      "outputs": [],
      "stateMutability": "nonpayable",
      "type": "function"
    },
    {
      "inputs": [],
      "name": "pBA",
      "outputs": [
        {
          "internalType": "uint256",
          "name": "",
          "type": "uint256"
        }
      ],
      "stateMutability": "view",
      "type": "function"
    },
    {
      "inputs": [],
      "name": "pDA",
      "outputs": [
        {
          "internalType": "uint256",
          "name": "",
          "type": "uint256"
        }
      ],
      "stateMutability": "view",
      "type": "function"
    },
    {
      "inputs": [],
      "name": "pendingBurnAmount",
      "outputs": [
        {
          "internalType": "uint256",
          "name": "",
          "type": "uint256"
        }
      ],
      "stateMutability": "view",
      "type": "function"
    },
    {
      "inputs": [
        {
          "internalType": "address",
          "name": "_user",
          "type": "address"
        },
        {
          "internalType": "uint8",
          "name": "_newLevel",
          "type": "uint8"
        }
      ],
      "name": "registerDLevel",
      "outputs": [],
      "stateMutability": "nonpayable",
      "type": "function"
    },
    {
      "inputs": [
        {
          "internalType": "address",
          "name": "_u",
          "type": "address"
        },
        {
          "internalType": "address",
          "name": "_r",
          "type": "address"
        }
      ],
      "name": "registerUser",
      "outputs": [],
      "stateMutability": "nonpayable",
      "type": "function"
    },
    {
      "inputs": [],
      "name": "releasedSupply",
      "outputs": [
        {
          "internalType": "uint256",
          "name": "",
          "type": "uint256"
        }
      ],
      "stateMutability": "view",
      "type": "function"
    },
    {
      "inputs": [
        {
          "internalType": "address",
          "name": "_p",
          "type": "address"
        },
        {
          "internalType": "address",
          "name": "_c",
          "type": "address"
        }
      ],
      "name": "removeChild",
      "outputs": [],
      "stateMutability": "nonpayable",
      "type": "function"
    },
    {
      "inputs": [
        {
          "internalType": "uint256",
          "name": "",
          "type": "uint256"
        }
      ],
      "name": "sA",
      "outputs": [
        {
          "internalType": "uint256",
          "name": "",
          "type": "uint256"
        }
      ],
      "stateMutability": "view",
      "type": "function"
    },
    {
      "inputs": [
        {
          "internalType": "address",
          "name": "",
          "type": "address"
        },
        {
          "internalType": "uint256",
          "name": "",
          "type": "uint256"
        }
      ],
      "name": "sAmt",
      "outputs": [
        {
          "internalType": "uint256",
          "name": "",
          "type": "uint256"
        }
      ],
      "stateMutability": "view",
      "type": "function"
    },
    {
      "inputs": [
        {
          "internalType": "address",
          "name": "",
          "type": "address"
        },
        {
          "internalType": "uint256",
          "name": "",
          "type": "uint256"
        }
      ],
      "name": "sDebt",
      "outputs": [
        {
          "internalType": "uint256",
          "name": "",
          "type": "uint256"
        }
      ],
      "stateMutability": "view",
      "type": "function"
    },
    {
      "inputs": [
        {
          "internalType": "address",
          "name": "_dq",
          "type": "address"
        },
        {
          "internalType": "address",
          "name": "_dc",
          "type": "address"
        },
        {
          "internalType": "address",
          "name": "_lpPair",
          "type": "address"
        }
      ],
      "name": "setAddresses",
      "outputs": [],
      "stateMutability": "nonpayable",
      "type": "function"
    },
    {
      "inputs": [
        {
          "internalType": "uint256",
          "name": "_fee",
          "type": "uint256"
        }
      ],
      "name": "setClaimGasFee",
      "outputs": [],
      "stateMutability": "nonpayable",
      "type": "function"
    },
    {
      "inputs": [
        {
          "internalType": "address",
          "name": "_user",
          "type": "address"
        },
        {
          "internalType": "uint8",
          "name": "_newLevel",
          "type": "uint8"
        }
      ],
      "name": "setDLevelByOwner",
      "outputs": [],
      "stateMutability": "nonpayable",
      "type": "function"
    },
    {
      "inputs": [
        {
          "internalType": "address",
          "name": "_addr",
          "type": "address"
        }
      ],
      "name": "setDQCard",
      "outputs": [],
      "stateMutability": "nonpayable",
      "type": "function"
    },
    {
      "inputs": [
        {
          "internalType": "address",
          "name": "_u",
          "type": "address"
        },
        {
          "internalType": "uint256",
          "name": "_e",
          "type": "uint256"
        }
      ],
      "name": "setEnergy",
      "outputs": [],
      "stateMutability": "nonpayable",
      "type": "function"
    },
    {
      "inputs": [
        {
          "internalType": "uint256",
          "name": "_m",
          "type": "uint256"
        }
      ],
      "name": "setEnergyMul",
      "outputs": [],
      "stateMutability": "nonpayable",
      "type": "function"
    },
    {
      "inputs": [
        {
          "internalType": "address",
          "name": "_addr",
          "type": "address"
        }
      ],
      "name": "setFeeRecipient",
      "outputs": [],
      "stateMutability": "nonpayable",
      "type": "function"
    },
    {
      "inputs": [
        {
          "internalType": "address",
          "name": "_pair",
          "type": "address"
        }
      ],
      "name": "setLpPair",
      "outputs": [],
      "stateMutability": "nonpayable",
      "type": "function"
    },
    {
      "inputs": [
        {
          "internalType": "address",
          "name": "a",
          "type": "address"
        }
      ],
      "name": "setM",
      "outputs": [],
      "stateMutability": "nonpayable",
      "type": "function"
    },
    {
      "inputs": [
        {
          "internalType": "address",
          "name": "_addr",
          "type": "address"
        }
      ],
      "name": "setMiningContract",
      "outputs": [],
      "stateMutability": "nonpayable",
      "type": "function"
    },
    {
      "inputs": [
        {
          "internalType": "address",
          "name": "_u",
          "type": "address"
        },
        {
          "internalType": "uint256",
          "name": "_p",
          "type": "uint256"
        }
      ],
      "name": "setPendingSOL",
      "outputs": [],
      "stateMutability": "nonpayable",
      "type": "function"
    },
    {
      "inputs": [
        {
          "internalType": "address",
          "name": "_u",
          "type": "address"
        },
        {
          "internalType": "uint256",
          "name": "_v",
          "type": "uint256"
        }
      ],
      "name": "setTeamInvest",
      "outputs": [],
      "stateMutability": "nonpayable",
      "type": "function"
    },
    {
      "inputs": [
        {
          "internalType": "address",
          "name": "_u",
          "type": "address"
        },
        {
          "internalType": "uint256",
          "name": "_c",
          "type": "uint256"
        }
      ],
      "name": "setValidAddress",
      "outputs": [],
      "stateMutability": "nonpayable",
      "type": "function"
    },
    {
      "inputs": [
        {
          "internalType": "address",
          "name": "_u",
          "type": "address"
        },
        {
          "internalType": "uint256",
          "name": "_a",
          "type": "uint256"
        },
        {
          "internalType": "uint256",
          "name": "_i",
          "type": "uint256"
        }
      ],
      "name": "stake",
      "outputs": [],
      "stateMutability": "nonpayable",
      "type": "function"
    },
    {
      "inputs": [
        {
          "internalType": "address",
          "name": "_u",
          "type": "address"
        },
        {
          "internalType": "uint256",
          "name": "_a",
          "type": "uint256"
        }
      ],
      "name": "subEnergy",
      "outputs": [],
      "stateMutability": "nonpayable",
      "type": "function"
    },
    {
      "inputs": [
        {
          "internalType": "address",
          "name": "_u",
          "type": "address"
        },
        {
          "internalType": "uint256",
          "name": "_amount",
          "type": "uint256"
        }
      ],
      "name": "subPendingBurn",
      "outputs": [],
      "stateMutability": "nonpayable",
      "type": "function"
    },
    {
      "inputs": [
        {
          "internalType": "address",
          "name": "_u",
          "type": "address"
        },
        {
          "internalType": "uint256",
          "name": "_a",
          "type": "uint256"
        }
      ],
      "name": "subPendingSOL",
      "outputs": [],
      "stateMutability": "nonpayable",
      "type": "function"
    },
    {
      "inputs": [],
      "name": "tLP",
      "outputs": [
        {
          "internalType": "uint256",
          "name": "",
          "type": "uint256"
        }
      ],
      "stateMutability": "view",
      "type": "function"
    },
    {
      "inputs": [
        {
          "internalType": "uint256",
          "name": "",
          "type": "uint256"
        }
      ],
      "name": "tS",
      "outputs": [
        {
          "internalType": "uint256",
          "name": "",
          "type": "uint256"
        }
      ],
      "stateMutability": "view",
      "type": "function"
    },
    {
      "inputs": [
        {
          "internalType": "address",
          "name": "_u",
          "type": "address"
        },
        {
          "internalType": "uint256",
          "name": "_i",
          "type": "uint256"
        }
      ],
      "name": "unstake",
      "outputs": [],
      "stateMutability": "nonpayable",
      "type": "function"
    },
    {
      "inputs": [
        {
          "internalType": "address",
          "name": "_u",
          "type": "address"
        },
        {
          "internalType": "uint256",
          "name": "_a",
          "type": "uint256"
        }
      ],
      "name": "updateTeam",
      "outputs": [],
      "stateMutability": "nonpayable",
      "type": "function"
    },
    {
      "inputs": [
        {
          "internalType": "address",
          "name": "_u",
          "type": "address"
        }
      ],
      "name": "updateValidAddress",
      "outputs": [],
      "stateMutability": "nonpayable",
      "type": "function"
    },
    {
      "inputs": [
        {
          "internalType": "address",
          "name": "",
          "type": "address"
        }
      ],
      "name": "userDLevel",
      "outputs": [
        {
          "internalType": "uint8",
          "name": "",
          "type": "uint8"
        }
      ],
      "stateMutability": "view",
      "type": "function"
    },
    {
      "inputs": [
        {
          "internalType": "address",
          "name": "",
          "type": "address"
        }
      ],
      "name": "userDirectSales",
      "outputs": [
        {
          "internalType": "uint256",
          "name": "",
          "type": "uint256"
        }
      ],
      "stateMutability": "view",
      "type": "function"
    },
    {
      "inputs": [
        {
          "internalType": "address",
          "name": "",
          "type": "address"
        }
      ],
      "name": "userEnergy",
      "outputs": [
        {
          "internalType": "uint256",
          "name": "",
          "type": "uint256"
        }
      ],
      "stateMutability": "view",
      "type": "function"
    },
    {
      "inputs": [
        {
          "internalType": "address",
          "name": "",
          "type": "address"
        }
      ],
      "name": "userLPRemovalFee",
      "outputs": [
        {
          "internalType": "uint256",
          "name": "",
          "type": "uint256"
        }
      ],
      "stateMutability": "view",
      "type": "function"
    },
    {
      "inputs": [
        {
          "internalType": "address",
          "name": "",
          "type": "address"
        }
      ],
      "name": "userLevel",
      "outputs": [
        {
          "internalType": "uint8",
          "name": "",
          "type": "uint8"
        }
      ],
      "stateMutability": "view",
      "type": "function"
    },
    {
      "inputs": [
        {
          "internalType": "address",
          "name": "",
          "type": "address"
        },
        {
          "internalType": "uint256",
          "name": "",
          "type": "uint256"
        }
      ],
      "name": "userNftF",
      "outputs": [
        {
          "internalType": "uint256",
          "name": "",
          "type": "uint256"
        }
      ],
      "stateMutability": "view",
      "type": "function"
    },
    {
      "inputs": [
        {
          "internalType": "address",
          "name": "",
          "type": "address"
        }
      ],
      "name": "userPBD",
      "outputs": [
        {
          "internalType": "uint256",
          "name": "",
          "type": "uint256"
        }
      ],
      "stateMutability": "view",
      "type": "function"
    },
    {
      "inputs": [
        {
          "internalType": "address",
          "name": "",
          "type": "address"
        }
      ],
      "name": "userPDD",
      "outputs": [
        {
          "internalType": "uint256",
          "name": "",
          "type": "uint256"
        }
      ],
      "stateMutability": "view",
      "type": "function"
    },
    {
      "inputs": [
        {
          "internalType": "address",
          "name": "",
          "type": "address"
        }
      ],
      "name": "userPendingSOL",
      "outputs": [
        {
          "internalType": "uint256",
          "name": "",
          "type": "uint256"
        }
      ],
      "stateMutability": "view",
      "type": "function"
    },
    {
      "inputs": [
        {
          "internalType": "address",
          "name": "",
          "type": "address"
        }
      ],
      "name": "userReferrer",
      "outputs": [
        {
          "internalType": "address",
          "name": "",
          "type": "address"
        }
      ],
      "stateMutability": "view",
      "type": "function"
    },
    {
      "inputs": [
        {
          "internalType": "address",
          "name": "",
          "type": "address"
        }
      ],
      "name": "userTeamInvest",
      "outputs": [
        {
          "internalType": "uint256",
          "name": "",
          "type": "uint256"
        }
      ],
      "stateMutability": "view",
      "type": "function"
    },
    {
      "inputs": [
        {
          "internalType": "address",
          "name": "",
          "type": "address"
        }
      ],
      "name": "userTotalInvest",
      "outputs": [
        {
          "internalType": "uint256",
          "name": "",
          "type": "uint256"
        }
      ],
      "stateMutability": "view",
      "type": "function"
    },
    {
      "inputs": [
        {
          "internalType": "address",
          "name": "",
          "type": "address"
        }
      ],
      "name": "userValidAddressCount",
      "outputs": [
        {
          "internalType": "uint256",
          "name": "",
          "type": "uint256"
        }
      ],
      "stateMutability": "view",
      "type": "function"
    },
    {
      "inputs": [
        {
          "internalType": "address",
          "name": "_u",
          "type": "address"
        },
        {
          "internalType": "uint256",
          "name": "_a",
          "type": "uint256"
        }
      ],
      "name": "withdraw",
      "outputs": [],
      "stateMutability": "nonpayable",
      "type": "function"
    },
    {
      "inputs": [],
      "name": "withdrawBNB",
      "outputs": [],
      "stateMutability": "nonpayable",
      "type": "function"
    },
    {
      "inputs": [
        {
          "internalType": "uint256",
          "name": "_amount",
          "type": "uint256"
        }
      ],
      "name": "withdrawDQ",
      "outputs": [],
      "stateMutability": "nonpayable",
      "type": "function"
    },
    {
      "inputs": [
        {
          "internalType": "address",
          "name": "_u",
          "type": "address"
        }
      ],
      "name": "withdrawLP",
      "outputs": [],
      "stateMutability": "nonpayable",
      "type": "function"
    },
    {
      "inputs": [
        {
          "internalType": "address",
          "name": "_u",
          "type": "address"
        }
      ],
      "name": "withdrawLPByM",
      "outputs": [],
      "stateMutability": "nonpayable",
      "type": "function"
    },
    {
      "inputs": [
        {
          "internalType": "uint256",
          "name": "_amount",
          "type": "uint256"
        }
      ],
      "name": "withdrawSOL",
      "outputs": [],
      "stateMutability": "nonpayable",
      "type": "function"
    },
    {
      "stateMutability": "payable",
      "type": "receive"
    }
  ],
  "bytecode": "0x652d79883d2000600955610100604052601e6080908152605a60a05260b460c05261016860e0526200003690600b90600462000192565b50611f4060395560036048556040805160c0810182526064815260c86020820152610258918101919091526107d060608201526117706080820152614e2060a082015262000089906049906006620001e8565b506040805160c08101825260058152600a6020820152600f918101919091526014606082015260196080820152601e60a0820152620000cd90604f9060066200021e565b506040805160808101825260008152681b1ae4d6e2ef5000006020820152685150ae84a8cdf000009181019190915269010f0cf064dd5920000060608201526200011c906050906004620002b3565b50604080516080810182526000815260056020820152600a918101919091526014606082015262000152906054906004620002ef565b503480156200016057600080fd5b506001600055600680546001600160a01b03191673274acc6397349f21179ed6258a54b2a11b28faf51790556200033c565b828054828255906000526020600020908101928215620001d6579160200282015b82811115620001d6578251829061ffff16905591602001919060010190620001b3565b50620001e492915062000325565b5090565b8260068101928215620001d65791602002820182811115620001d6578251829061ffff16905591602001919060010190620001b3565b600183019183908215620001d65791602002820160005b838211156200027557835183826101000a81548160ff021916908360ff160217905550926020019260010160208160000104928301926001030262000235565b8015620002a45782816101000a81549060ff021916905560010160208160000104928301926001030262000275565b5050620001e492915062000325565b8260048101928215620001d6579160200282015b82811115620001d657825182906001600160501b0316905591602001919060010190620002c7565b8260048101928215620001d6579160200282015b82811115620001d6578251829060ff1690559160200191906001019062000303565b5b80821115620001e4576000815560010162000326565b616157806200034c6000396000f3fe6080604052600436106108205760003560e01c80638652d31c1161041f578063c122689311610229578063d79d89461161012e578063e7e043d5116100b6578063f3fef3a311610085578063f3fef3a314611ae8578063f54f83b214611b08578063f6f3435914611b28578063fa058d8314611b55578063fc04771a14611b6b57600080fd5b8063e7e043d514611a60578063e8bbb75b14611a80578063ea8b24ca14611aa0578063ebebcf3d14611ac057600080fd5b8063e1d214fc116100fd578063e1d214fc146119ca578063e55f27a8146119e0578063e62420d914611a00578063e74b5b7314611a20578063e74b981b14611a4057600080fd5b8063d79d894614611948578063d8a531a614611968578063db228a3b14611988578063df0babc71461199d57600080fd5b8063c9f9b745116101b1578063ce86703a11610180578063ce86703a1461186a578063d296cc4314611897578063d3c6bc4b146118cf578063d6f4496a146118ef578063d76ebb7b1461190f57600080fd5b8063c9f9b745146117dd578063cae9eae914611815578063cb65819814611835578063cb7956b01461184a57600080fd5b8063c5d3293e116101f8578063c5d3293e14611747578063c5d43fee14611767578063c663618914611787578063c71a83f4146117a7578063c8891784146117c757600080fd5b8063c1226893146116c7578063c2a672e0146116e7578063c3e98e6114611707578063c579535a1461172757600080fd5b80639f77fb591161032f578063a862b852116102b7578063b1d78e0e11610286578063b1d78e0e14611617578063b813c62714611644578063b82ae4e61461165a578063ba9194c41461167a578063be75f46b146116a757600080fd5b8063a862b852146115a1578063ab4ef895146115c1578063ad82659c146115d7578063b01ba306146115f757600080fd5b8063a28ee081116102fe578063a28ee08114611516578063a35f942a1461152c578063a577e0401461154c578063a5f98b621461156c578063a7f7879b1461158157600080fd5b80639f77fb591461149d578063a11d5942146114b3578063a1b61a60146114e0578063a22ca2a61461150057600080fd5b80638fc0f5eb116103b257806399f4b2511161038157806399f4b251146113d85780639a9eeefb146113ed5780639ab362ea1461141a5780639bd769aa146114505780639d4c8eed1461147d57600080fd5b80638fc0f5eb1461131c57806391564697146113525780639658c1e01461137257806399215930146113a257600080fd5b80638b298b5a116103ee5780638b298b5a146112895780638bd0ba67146112b95780638c650b1b146112d95780638f62b56e146112ef57600080fd5b80638652d31c14611209578063865eef321461122957806388f72e3d1461124957806389cc1a171461126957600080fd5b806343962b061161062b5780636e8e8af5116105305780637c1a6b0d116104b85780638273124711610487578063827312471461113f578063827a7c141461116f578063834cc1ea1461118f57806383fb0651146111af57806385860799146111dc57600080fd5b80637c1a6b0d146110b45780637c3fcc38146110d45780637f45db641461110a5780638152cb161461111f57600080fd5b806372288a97116104ff57806372288a97146110145780637243e7461461103457806374ea7383146110545780637935eca1146110745780637a89e2691461109457600080fd5b80636e8e8af514610f925780636ebc51e114610fbf5780636f3ca9ff14610fdf578063702f532114610ff457600080fd5b80635733101b116105b35780635a4a6c8d116105825780635a4a6c8d14610ed45780635dcbb65a14610ef457806365df2e5114610f145780636c7bb9a914610f3c5780636c8857c114610f5c57600080fd5b80635733101b14610e5f57806357c8e9f314610e67578063589a36c214610e9457806359af312b14610eb457600080fd5b80634bf71ffd116105fa5780634bf71ffd14610db25780634e0be99114610dd257806350dc9baa14610df257806350f5b30b14610e1257806353f1daa114610e3f57600080fd5b806343962b0614610d27578063452ed4f114610d5d5780634690484014610d7d5780634a63e22214610d9d57600080fd5b806324d83d031161073157806331aedf9b116106b9578063363bf96411610688578063363bf96414610c8e57806337cbe1b214610cae5780633de47a9314610cc45780633e4c7b0214610cda5780633ffcca1b14610d0757600080fd5b806331aedf9b14610bee578063321776a814610c01578063327cf9be14610c4c57806332fe7b2614610c6657600080fd5b80632aa36e9d116107005780632aa36e9d14610b425780632e2678d414610b775780632e30e85b14610b975780632ff2e9dc14610bad578063316eab5114610bce57600080fd5b806324d83d0314610aa0578063259256b314610ac0578063275afa8214610ae0578063280e31cc14610b0057600080fd5b80630d88d8b8116107b45780631956c092116107835780631956c092146109f15780631d111d1314610a1e57806320c36ca114610a33578063226d587214610a53578063230fb41e14610a8057600080fd5b80630d88d8b8146109625780630db576a414610982578063117803e3146109a25780631346b315146109c457600080fd5b80630691cc6a116107f05780630691cc6a146108b657806306e46610146108cc5780630c51b88f1461090c5780630c6727fa1461092c57600080fd5b80622e6df81461082c57806301990eee1461084e57806301a74937146108765780630354adb21461089657600080fd5b3661082757005b600080fd5b34801561083857600080fd5b5061084c610847366004615c26565b611b80565b005b34801561085a57600080fd5b50610863603281565b6040519081526020015b60405180910390f35b34801561088257600080fd5b5061084c610891366004615c5b565b611c95565b3480156108a257600080fd5b5061084c6108b1366004615c76565b611d40565b3480156108c257600080fd5b5061086360395481565b3480156108d857600080fd5b506108f473570a5d26f7765ecb712c0924e4de545b89fd43df81565b6040516001600160a01b03909116815260200161086d565b34801561091857600080fd5b5061084c610927366004615ca9565b611dc3565b34801561093857600080fd5b50610863610947366004615c5b565b6001600160a01b031660009081526040602081905290205490565b34801561096e57600080fd5b5061084c61097d366004615ced565b611ece565b34801561098e57600080fd5b5061084c61099d366004615c5b565b612070565b3480156109ae57600080fd5b506108f460008051602061610283398151915281565b3480156109d057600080fd5b506108636109df366004615c5b565b60326020526000908152604090205481565b3480156109fd57600080fd5b50610863610a0c366004615c5b565b60176020526000908152604090205481565b348015610a2a57600080fd5b5061084c61215c565b348015610a3f57600080fd5b5061084c610a4e366004615d17565b6121e1565b348015610a5f57600080fd5b50610863610a6e366004615c5b565b603e6020526000908152604090205481565b348015610a8c57600080fd5b5061084c610a9b366004615c26565b612260565b348015610aac57600080fd5b5061084c610abb366004615c5b565b6122b8565b348015610acc57600080fd5b5061084c610adb366004615c26565b61255c565b348015610aec57600080fd5b5061084c610afb366004615d17565b61264f565b348015610b0c57600080fd5b50610b30610b1b366004615c5b565b60456020526000908152604090205460ff1681565b60405160ff909116815260200161086d565b348015610b4e57600080fd5b50610b62610b5d366004615d17565b6126f8565b6040805192835260208301919091520161086d565b348015610b8357600080fd5b50610863610b92366004615c26565b6127ac565b348015610ba357600080fd5b5061086360095481565b348015610bb957600080fd5b506108636c01431e0fae6d7217caa000000081565b348015610bda57600080fd5b50610863610be9366004615c26565b6127c3565b61084c610bfc366004615c26565b6127d3565b348015610c0d57600080fd5b50610c3c610c1c366004615d41565b602d60209081526000928352604080842090915290825290205460ff1681565b604051901515815260200161086d565b348015610c5857600080fd5b50610863652d79883d200081565b348015610c7257600080fd5b506108f47310ed43c718714eb63d5aa57b78b54704e256024e81565b348015610c9a57600080fd5b5061084c610ca9366004615d5d565b612b9a565b348015610cba57600080fd5b5061086360315481565b348015610cd057600080fd5b5061086360145481565b348015610ce657600080fd5b50610863610cf5366004615c5b565b60426020526000908152604090205481565b348015610d1357600080fd5b5061084c610d22366004615c5b565b612c85565b348015610d3357600080fd5b50610863610d42366004615c5b565b6001600160a01b03166000908152603e602052604090205490565b348015610d6957600080fd5b506005546108f4906001600160a01b031681565b348015610d8957600080fd5b506006546108f4906001600160a01b031681565b348015610da957600080fd5b50610863601481565b348015610dbe57600080fd5b5061084c610dcd366004615c5b565b612d04565b348015610dde57600080fd5b5061084c610ded366004615c76565b612f29565b348015610dfe57600080fd5b5061084c610e0d366004615c5b565b612f75565b348015610e1e57600080fd5b50610863610e2d366004615c5b565b60336020526000908152604090205481565b348015610e4b57600080fd5b5061084c610e5a366004615d17565b612fb9565b61084c613026565b348015610e7357600080fd5b50610863610e82366004615c5b565b60366020526000908152604090205481565b348015610ea057600080fd5b5061084c610eaf366004615dae565b613184565b348015610ec057600080fd5b5061084c610ecf366004615d17565b6131dc565b348015610ee057600080fd5b50610863610eef366004615c26565b6132ad565b348015610f0057600080fd5b50610863610f0f366004615c26565b6132bd565b348015610f2057600080fd5b506108f473a0f045cde45ca1aee2033356170b46a1ff3b720281565b348015610f4857600080fd5b50610b30610f57366004615c26565b6132de565b348015610f6857600080fd5b50610863610f77366004615c5b565b6001600160a01b031660009081526041602052604090205490565b348015610f9e57600080fd5b50610863610fad366004615c5b565b603b6020526000908152604090205481565b348015610fcb57600080fd5b5061084c610fda366004615c5b565b613308565b348015610feb57600080fd5b50610863600a81565b34801561100057600080fd5b5061084c61100f366004615c5b565b61357b565b34801561102057600080fd5b50610b6261102f366004615c5b565b6135ca565b34801561104057600080fd5b5061086361104f366004615c5b565b613644565b34801561106057600080fd5b5061084c61106f366004615c26565b6136bc565b34801561108057600080fd5b5061084c61108f366004615d17565b61371b565b3480156110a057600080fd5b5061084c6110af366004615d17565b613761565b3480156110c057600080fd5b506007546108f4906001600160a01b031681565b3480156110e057600080fd5b506108f46110ef366004615c5b565b6043602052600090815260409020546001600160a01b031681565b34801561111657600080fd5b50610863603c81565b34801561112b57600080fd5b5061084c61113a366004615c5b565b61383b565b34801561114b57600080fd5b50610c3c61115a366004615c5b565b60476020526000908152604090205460ff1681565b34801561117b57600080fd5b5061084c61118a366004615c26565b6138b3565b34801561119b57600080fd5b5061084c6111aa366004615d17565b6139b7565b3480156111bb57600080fd5b506108636111ca366004615c5b565b603f6020526000908152604090205481565b3480156111e857600080fd5b506108636111f7366004615c5b565b60446020526000908152604090205481565b34801561121557600080fd5b5061084c611224366004615ca9565b613b70565b34801561123557600080fd5b5061084c611244366004615d17565b613c34565b34801561125557600080fd5b5061084c611264366004615d17565b613c86565b34801561127557600080fd5b50610863611284366004615c26565b613cd8565b34801561129557600080fd5b50610b306112a4366004615c5b565b60386020526000908152604090205460ff1681565b3480156112c557600080fd5b5061084c6112d4366004615c76565b613ce8565b3480156112e557600080fd5b50610863603c5481565b3480156112fb57600080fd5b5061086361130a366004615c5b565b603d6020526000908152604090205481565b34801561132857600080fd5b50610863611337366004615c5b565b6001600160a01b03166000908152603d602052604090205490565b34801561135e57600080fd5b506004546108f4906001600160a01b031681565b34801561137e57600080fd5b50610b3061138d366004615c5b565b602e6020526000908152604090205460ff1681565b3480156113ae57600080fd5b506108636113bd366004615c5b565b6001600160a01b031660009081526042602052604090205490565b3480156113e457600080fd5b5061084c613d34565b3480156113f957600080fd5b50610863611408366004615c5b565b60376020526000908152604090205481565b34801561142657600080fd5b50610863611435366004615c5b565b6001600160a01b03166000908152603f602052604090205490565b34801561145c57600080fd5b5061086361146b366004615c5b565b60166020526000908152604090205481565b34801561148957600080fd5b50610863611498366004615c5b565b613ede565b3480156114a957600080fd5b50610863611f4081565b3480156114bf57600080fd5b506108636114ce366004615c5b565b60416020526000908152604090205481565b3480156114ec57600080fd5b506108636114fb366004615c26565b613f05565b34801561150c57600080fd5b50610863603a5481565b34801561152257600080fd5b5061086360485481565b34801561153857600080fd5b5061084c611547366004615c5b565b613f15565b34801561155857600080fd5b5061084c611567366004615d17565b613fe6565b34801561157857600080fd5b5061086360af81565b34801561158d57600080fd5b5061086361159c366004615c26565b614076565b3480156115ad57600080fd5b5061084c6115bc366004615c26565b614086565b3480156115cd57600080fd5b50610863610bb881565b3480156115e357600080fd5b506002546108f4906001600160a01b031681565b34801561160357600080fd5b5061084c611612366004615d17565b61416f565b34801561162357600080fd5b50610863611632366004615c5b565b60186020526000908152604090205481565b34801561165057600080fd5b50610863600a5481565b34801561166657600080fd5b5061084c611675366004615de5565b6141b5565b34801561168657600080fd5b50610863611695366004615c5b565b60346020526000908152604090205481565b3480156116b357600080fd5b5061084c6116c2366004615c5b565b614271565b3480156116d357600080fd5b5061084c6116e2366004615c5b565b614321565b3480156116f357600080fd5b5061084c611702366004615d17565b6143d1565b34801561171357600080fd5b5061084c611722366004615ced565b614516565b34801561173357600080fd5b5061084c611742366004615c5b565b614626565b34801561175357600080fd5b50610863611762366004615c26565b614689565b34801561177357600080fd5b5061084c611782366004615d17565b614699565b34801561179357600080fd5b5061084c6117a2366004615d17565b614710565b3480156117b357600080fd5b5061084c6117c2366004615c26565b614756565b3480156117d357600080fd5b50610863605a5481565b3480156117e957600080fd5b506108636117f8366004615d17565b605960209081526000928352604080842090915290825290205481565b34801561182157600080fd5b5061084c611830366004615d17565b614788565b34801561184157600080fd5b50610863600581565b34801561185657600080fd5b506003546108f4906001600160a01b031681565b34801561187657600080fd5b50610863611885366004615c5b565b60406020819052600091825290205481565b3480156118a357600080fd5b506108636118b2366004615d17565b605860209081526000928352604080842090915290825290205481565b3480156118db57600080fd5b5061084c6118ea366004615c26565b6147ff565b3480156118fb57600080fd5b5061084c61190a366004615c5b565b614867565b34801561191b57600080fd5b50610b3061192a366004615c5b565b6001600160a01b03166000908152602e602052604090205460ff1690565b34801561195457600080fd5b50610863611963366004615d17565b6148b6565b34801561197457600080fd5b506008546108f4906001600160a01b031681565b34801561199457600080fd5b50610863600f81565b3480156119a957600080fd5b506108636119b8366004615c5b565b602f6020526000908152604090205481565b3480156119d657600080fd5b5061086360155481565b3480156119ec57600080fd5b5061084c6119fb366004615c5b565b6148db565b348015611a0c57600080fd5b506108f4611a1b366004615d17565b614905565b348015611a2c57600080fd5b5061084c611a3b366004615c5b565b614927565b348015611a4c57600080fd5b5061084c611a5b366004615c5b565b614a46565b348015611a6c57600080fd5b506001546108f4906001600160a01b031681565b348015611a8c57600080fd5b5061084c611a9b366004615c5b565b614a95565b348015611aac57600080fd5b5061084c611abb366004615d17565b614b9b565b348015611acc57600080fd5b506108f473803b79b608455808c2f752c588804c3f5bf676a381565b348015611af457600080fd5b5061084c611b03366004615d17565b614c3c565b348015611b1457600080fd5b50610863611b23366004615c26565b614ceb565b348015611b3457600080fd5b50610863611b43366004615c5b565b60356020526000908152604090205481565b348015611b6157600080fd5b5061086360305481565b348015611b7757600080fd5b50610863600d81565b6003546001600160a01b03163314611bb35760405162461bcd60e51b8152600401611baa90615e44565b60405180910390fd5b8015611c92576000611bc6600283615e77565b905060005b6004811015611c5a57600060108260048110611be957611be9615e99565b01541115611c485760108160048110611c0457611c04615e99565b0154611c158364e8d4a51000615eaf565b611c1f9190615e77565b600c8260048110611c3257611c32615e99565b016000828254611c429190615ec6565b90915550505b80611c5281615ed9565b915050611bcb565b50611c9073803b79b608455808c2f752c588804c3f5bf676a3611c7d8385615ef2565b6001546001600160a01b03169190614cfb565b505b50565b3360008051602061610283398151915214611cc25760405162461bcd60e51b8152600401611baa90615f05565b6001600160a01b038116600090815260166020526040902054611d0f5760405162461bcd60e51b815260206004820152600560248201526406e6f204c560dc1b6044820152606401611baa565b6001600160a01b03166000908152601660209081526040808320839055601782528083208390556018909152812055565b6004546001600160a01b03163314611d6a5760405162461bcd60e51b8152600401611baa90615f25565b6001600160a01b03828116600090815260436020526040902080546001600160a01b031916918316918217905515611c90576001600160a01b0381166000908152604660205260409020611dbe9083614d4d565b505050565b6003546001600160a01b03163314611ded5760405162461bcd60e51b8152600401611baa90615e44565b60048110611e225760405162461bcd60e51b8152602060048201526002602482015261216960f01b6044820152606401611baa565b6001600160a01b038316600090815260586020908152604080832084845290915281208054849290611e55908490615ec6565b9091555082905060108260048110611e6f57611e6f615e99565b016000828254611e7f9190615ec6565b909155505060408051838152602081018390526001600160a01b038516917f5af417134f72a9d41143ace85b0a26dce6f550f894f2cbc1eeee8810603d91b691015b60405180910390a2505050565b3360008051602061610283398151915214611efb5760405162461bcd60e51b8152600401611baa90615f05565b6001600160a01b0382166000908152602e602052604090205460ff168015801590611f2a575060088160ff1611155b15611fc05760ff8082166000908152602d602090815260408083206001600160a01b03881684529091529020541615611fc05760ff81166000908152602d602090815260408083206001600160a01b03871684529091529020805460ff19169055601d611f98600183615f46565b60ff1660088110611fab57611fab615e99565b018054906000611fba83615f5f565b91905055505b60008260ff16118015611fd7575060088260ff1611155b15611dbe5760ff82166000908152602d602090815260408083206001600160a01b03871684529091529020805460ff19166001908117909155601d9061201d9084615f46565b60ff166008811061203057612030615e99565b01805490600061203f83615ed9565b90915550506001600160a01b0383166000908152602e60205260409020805460ff841660ff19909116179055505050565b336000805160206161028339815191521461209d5760405162461bcd60e51b8152600401611baa90615f05565b6001600160a01b0381166120c35760405162461bcd60e51b8152600401611baa90615f76565b6001600160a01b0381166000908152601660205260409020548061210f5760405162461bcd60e51b81526020600482015260036024820152620216c760ec1b6044820152606401611baa565b6001600160a01b0382166000908152601660209081526040808320839055601782528083208390556018909152812081905560158054839290612153908490615ef2565b90915550505050565b33600080516020616102833981519152146121895760405162461bcd60e51b8152600401611baa90615f05565b47806121a75760405162461bcd60e51b8152600401611baa90615f95565b6006546040516001600160a01b039091169082156108fc029083906000818181858888f19350505050158015611c90573d6000803e3d6000fd5b6004546001600160a01b0316331461220b5760405162461bcd60e51b8152600401611baa90615f25565b60008111801561223357506001600160a01b0382166000908152604060208190529020548111155b15611c90576001600160a01b03821660009081526040602081905281208054839290612153908490615ef2565b6003546001600160a01b0316331461228a5760405162461bcd60e51b8152600401611baa90615e44565b8015611c925761229f8164e8d4a51000615eaf565b603060008282546122b09190615ec6565b909155505050565b6003546001600160a01b031633146122e25760405162461bcd60e51b8152600401611baa90615e44565b6008546040516370a0823160e01b81526001600160a01b03838116600483015260009216906370a0823190602401602060405180830381865afa15801561232d573d6000803e3d6000fd5b505050506040513d601f19601f820116820180604052508101906123519190615fb3565b90506000805b8281101561250057600854604051632f745c5960e01b81526001600160a01b03868116600483015260248201849052600092169063fcf49adf908290632f745c5990604401602060405180830381865afa1580156123b9573d6000803e3d6000fd5b505050506040513d601f19601f820116820180604052508101906123dd9190615fb3565b6040518263ffffffff1660e01b81526004016123fb91815260200190565b602060405180830381865afa158015612418573d6000803e3d6000fd5b505050506040513d601f19601f8201168201806040525081019061243c9190615fb3565b905080600103612482576001600160a01b0385166000908152601c602052604081200154601960005b01546124719190615ef2565b61247b9084615ec6565b92506124ed565b806002036124af576001600160a01b0385166000908152601c602052604090206001015460196001612465565b806003036124ed576001600160a01b0385166000908152601c6020526040902060020154601b546124e09190615ef2565b6124ea9084615ec6565b92505b50806124f881615ed9565b915050612357565b508015611dbe576019546001600160a01b0384166000908152601c60209081526040808320938455601a546001850155601b546002909401939093558290529081208054839290612552908490615ec6565b9091555050505050565b33600080516020616102833981519152146125895760405162461bcd60e51b8152600401611baa90615f05565b600081116125a95760405162461bcd60e51b8152600401611baa90615fcc565b6001546040516370a0823160e01b81523060048201526000916001600160a01b0316906370a0823190602401602060405180830381865afa1580156125f2573d6000803e3d6000fd5b505050506040513d601f19601f820116820180604052508101906126169190615fb3565b9050808211156126385760405162461bcd60e51b8152600401611baa90615f95565b600154611c90906001600160a01b03163384614cfb565b6004546001600160a01b031633146126795760405162461bcd60e51b8152600401611baa90615f25565b6001600160a01b0382166000908152603d6020526040812080548392906126a1908490615ec6565b90915550506001600160a01b0382166000818152603d60209081526040918290205491519182527f27bf157905718b64ccf52ef99d6fb057abea9cda88264eebee01c2dd5b07735e91015b60405180910390a25050565b6001600160a01b03821660009081526059602090815260408083208484529091528120548190819064e8d4a51000600c866004811061273957612739615e99565b01546001600160a01b03881660009081526058602090815260408083208a84529091529020546127699190615eaf565b6127739190615e77565b61277d9190615ef2565b6001600160a01b0395909516600090815260586020908152604080832096835295905293909320549492505050565b601d81600881106127bc57600080fd5b0154905081565b601081600481106127bc57600080fd5b6003546001600160a01b031633146127fd5760405162461bcd60e51b8152600401611baa90615e44565b8015611c92576008546040805163027ddd4160e31b815290516000926001600160a01b0316916313eeea089160048083019260209291908290030181865afa15801561284d573d6000803e3d6000fd5b505050506040513d601f19601f820116820180604052508101906128719190615fb3565b600860009054906101000a90046001600160a01b03166001600160a01b031663b629640b6040518163ffffffff1660e01b8152600401602060405180830381865afa1580156128c4573d6000803e3d6000fd5b505050506040513d601f19601f820116820180604052508101906128e89190615fb3565b6128f29190615eaf565b90506000600860009054906101000a90046001600160a01b03166001600160a01b03166353d794476040518163ffffffff1660e01b8152600401602060405180830381865afa158015612949573d6000803e3d6000fd5b505050506040513d601f19601f8201168201806040525081019061296d9190615fb3565b600860009054906101000a90046001600160a01b03166001600160a01b031663193491b56040518163ffffffff1660e01b8152600401602060405180830381865afa1580156129c0573d6000803e3d6000fd5b505050506040513d601f19601f820116820180604052508101906129e49190615fb3565b6129ee9190615eaf565b90506000600860009054906101000a90046001600160a01b03166001600160a01b03166373cda3e46040518163ffffffff1660e01b8152600401602060405180830381865afa158015612a45573d6000803e3d6000fd5b505050506040513d601f19601f82011682018060405250810190612a699190615fb3565b600860009054906101000a90046001600160a01b03166001600160a01b031663d15dfe2d6040518163ffffffff1660e01b8152600401602060405180830381865afa158015612abc573d6000803e3d6000fd5b505050506040513d601f19601f82011682018060405250810190612ae09190615fb3565b612aea9190615eaf565b90508215612b245782612b028564e8d4a51000615eaf565b612b0c9190615e77565b60198054600090612b1e908490615ec6565b90915550505b8115612b5c5781612b3a8564e8d4a51000615eaf565b612b449190615e77565b601a8054600090612b56908490615ec6565b90915550505b8015612b945780612b728564e8d4a51000615eaf565b612b7c9190615e77565b601b8054600090612b8e908490615ec6565b90915550505b50505050565b3360008051602061610283398151915214612bc75760405162461bcd60e51b8152600401611baa90615f05565b6001600160a01b03831615612c0257600780546001600160a01b0385166001600160a01b031991821681179092556001805490911690911790555b6001600160a01b03821615612c3d57600880546001600160a01b0384166001600160a01b031991821681179092556002805490911690911790555b6005546001600160a01b0316158015612c5e57506001600160a01b03811615155b15611dbe57600580546001600160a01b0383166001600160a01b0319909116179055505050565b3360008051602061610283398151915214612cb25760405162461bcd60e51b8152600401611baa90615f05565b6001600160a01b038116612cd85760405162461bcd60e51b8152600401611baa90615f76565b600880546001600160a01b039092166001600160a01b0319928316811790915560028054909216179055565b6004546001600160a01b03163314612d2e5760405162461bcd60e51b8152600401611baa90615f25565b6008546040516370a0823160e01b81526001600160a01b03838116600483015260009216906370a0823190602401602060405180830381865afa158015612d79573d6000803e3d6000fd5b505050506040513d601f19601f82011682018060405250810190612d9d9190615fb3565b905080600003612dab575050565b6000805b82811015612eb557600854604051632f745c5960e01b81526001600160a01b03868116600483015260248201849052600092169063fcf49adf908290632f745c5990604401602060405180830381865afa158015612e11573d6000803e3d6000fd5b505050506040513d601f19601f82011682018060405250810190612e359190615fb3565b6040518263ffffffff1660e01b8152600401612e5391815260200190565b602060405180830381865afa158015612e70573d6000803e3d6000fd5b505050506040513d601f19601f82011682018060405250810190612e949190615fb3565b905082811115612ea2578092505b5080612ead81615ed9565b915050612daf565b50600081118015612ef1575060548160048110612ed457612ed4615e99565b01546001600160a01b0384166000908152603f6020526040902054105b15611dbe5760548160048110612f0957612f09615e99565b01546001600160a01b0384166000908152603f6020526040902055505050565b6004546001600160a01b03163314612f535760405162461bcd60e51b8152600401611baa90615f25565b6001600160a01b0382166000908152604660205260409020611dbe9082614d62565b6004546001600160a01b03163314612f9f5760405162461bcd60e51b8152600401611baa90615f25565b6001600160a01b0316600090815260426020526040812055565b6003546001600160a01b03163314612fe35760405162461bcd60e51b8152600401611baa90615e44565b6001600160a01b03821660009081526047602052604090205460ff161561301c5760405162461bcd60e51b8152600401611baa90615fea565b611c908282614d77565b61302e614e94565b3360009081526047602052604090205460ff161561305e5760405162461bcd60e51b8152600401611baa90615fea565b336000908152602e602052604090205460ff16806130a35760405162461bcd60e51b8152602060048201526002602482015261085960f21b6044820152606401611baa565b6009543410156130de5760405162461bcd60e51b8152600401611baa906020808252600490820152632166656560e01b604082015260600190565b336000908152602f602052604081205460256130fb600185615f46565b60ff166008811061310e5761310e615e99565b015461311a9190615ef2565b9050801561317657602561312f600184615f46565b60ff166008811061314257613142615e99565b0154336000908152602f60209081526040808320939093558290529081208054839290613170908490615ec6565b90915550505b50506131826001600055565b565b33600080516020616102833981519152146131b15760405162461bcd60e51b8152600401611baa90615f05565b6001600160a01b03919091166000908152604760205260409020805460ff1916911515919091179055565b6004546001600160a01b031633146132065760405162461bcd60e51b8152600401611baa90615f25565b8015611c90576001600160a01b0380831660009081526043602052604090205416806132325750611c90565b60006064613241846032615eaf565b61324b9190615e77565b9050613258828583614eed565b6000606461326783601e615eaf565b6132719190615e77565b905061327d8582614f8f565b6000606461328c84600f615eaf565b6132969190615e77565b90506132a58685836001615177565b505050505050565b601981600381106127bc57600080fd5b600b81815481106132cd57600080fd5b600091825260209091200154905081565b604f81600681106132ee57600080fd5b60209182820401919006915054906101000a900460ff1681565b6003546001600160a01b031633146133325760405162461bcd60e51b8152600401611baa90615e44565b6008546040516370a0823160e01b81526001600160a01b03838116600483015260009216906370a0823190602401602060405180830381865afa15801561337d573d6000803e3d6000fd5b505050506040513d601f19601f820116820180604052508101906133a19190615fb3565b90506000805b8281101561352c57600854604051632f745c5960e01b81526001600160a01b03868116600483015260248201849052600092169063fcf49adf908290632f745c5990604401602060405180830381865afa158015613409573d6000803e3d6000fd5b505050506040513d601f19601f8201168201806040525081019061342d9190615fb3565b6040518263ffffffff1660e01b815260040161344b91815260200190565b602060405180830381865afa158015613468573d6000803e3d6000fd5b505050506040513d601f19601f8201168201806040525081019061348c9190615fb3565b9050806001036134c0576001600160a01b0385166000908152603460205260409020546134b99084615ec6565b9250613519565b806002036134eb576001600160a01b0385166000908152603560205260409020546134b99084615ec6565b80600303613519576001600160a01b0385166000908152603660205260409020546135169084615ec6565b92505b508061352481615ed9565b9150506133a7565b508015611dbe576001600160a01b038316600090815260346020908152604080832083905560358252808320839055603682528083208390559081905281208054839290612552908490615ec6565b33600080516020616102833981519152146135a85760405162461bcd60e51b8152600401611baa90615f05565b600480546001600160a01b0319166001600160a01b0392909216919091179055565b6001600160a01b0381166000908152603260205260408120546030548291906135f99064e8d4a5100090615e77565b6136039190615ef2565b6001600160a01b038416600090815260336020526040902054603154919350906136339064e8d4a5100090615e77565b61363d9190615ef2565b9050915091565b6001600160a01b0381166000908152602e602052604081205460ff168082036136705750600092915050565b6001600160a01b0383166000908152602f60205260409020546025613696600184615f46565b60ff16600881106136a9576136a9615e99565b01546136b59190615ef2565b9392505050565b6004546001600160a01b03163314806136e2575033600080516020616102833981519152145b6137165760405162461bcd60e51b8152602060048201526005602482015264042c2eae8d60db1b6044820152606401611baa565b604855565b6004546001600160a01b031633146137455760405162461bcd60e51b8152600401611baa90615f25565b6001600160a01b039091166000908152603e6020526040902055565b6004546001600160a01b0316331461378b5760405162461bcd60e51b8152600401611baa90615f25565b6001600160a01b0382166000908152603d60205260409020548111156137c9576001600160a01b0382166000908152603d60205260408120556137f1565b6001600160a01b0382166000908152603d6020526040812080548392906126a1908490615ef2565b6001600160a01b0382166000818152603d60209081526040918290205491519182527f27bf157905718b64ccf52ef99d6fb057abea9cda88264eebee01c2dd5b07735e91016126ec565b3360009081526047602052604090205460ff161561386b5760405162461bcd60e51b8152600401611baa90615fea565b60005b6004811015611c9057336000908152605860209081526040808320848452909152902054156138a1576138a13382614d77565b806138ab81615ed9565b91505061386e565b33600080516020616102833981519152146138e05760405162461bcd60e51b8152600401611baa90615f05565b600081116139005760405162461bcd60e51b8152600401611baa90615fcc565b6040516370a0823160e01b815230600482015260009073570a5d26f7765ecb712c0924e4de545b89fd43df906370a0823190602401602060405180830381865afa158015613952573d6000803e3d6000fd5b505050506040513d601f19601f820116820180604052508101906139769190615fb3565b9050808211156139985760405162461bcd60e51b8152600401611baa90615f95565b611c9073570a5d26f7765ecb712c0924e4de545b89fd43df3384614cfb565b33600080516020616102833981519152146139e45760405162461bcd60e51b8152600401611baa90615f05565b6001600160a01b038216613a0a5760405162461bcd60e51b8152600401611baa90615f76565b60008111613a2a5760405162461bcd60e51b8152600401611baa90615fcc565b6001600160a01b038216600090815260166020526040902054811115613a7d5760405162461bcd60e51b81526020600482015260086024820152672162616c616e636560c01b6044820152606401611baa565b6000613a898383615500565b6001600160a01b038416600090815260166020526040812080549293508492909190613ab6908490615ef2565b90915550508015613aef576001600160a01b03831660009081526042602052604081208054839290613ae9908490615ec6565b90915550505b6001600160a01b0383166000908152601660205260408120549003613b35576001600160a01b038316600090815260176020908152604080832083905560189091528120555b826001600160a01b03167f4d56ba0e2aefaff6b9c6ff6079c000e9e2f3e1fdb0f3df37fc71466016df493f83604051611ec191815260200190565b6003546001600160a01b03163314613b9a5760405162461bcd60e51b8152600401611baa90615e44565b6001600160a01b03831660009081526016602052604081208054849290613bc2908490615ec6565b90915550506001600160a01b0383166000908152601860205260409020548111613c04576001600160a01b038316600090815260186020526040902054613c06565b805b6001600160a01b03841660009081526018602052604081209190915560158054849290612552908490615ec6565b6004546001600160a01b03163314613c5e5760405162461bcd60e51b8152600401611baa90615f25565b6001600160a01b03821660009081526041602052604081208054839290612153908490615ec6565b6004546001600160a01b03163314613cb05760405162461bcd60e51b8152600401611baa90615f25565b6001600160a01b03821660009081526040602081905281208054839290612153908490615ec6565b600c81600481106127bc57600080fd5b6004546001600160a01b03163314613d125760405162461bcd60e51b8152600401611baa90615f25565b6001600160a01b0382166000908152604660205260409020611dbe9082614d4d565b6003546001600160a01b03163314613d5e5760405162461bcd60e51b8152600401611baa90615e44565b603a54613d6e9062015180615ec6565b421015613da55760405162461bcd60e51b81526020600482015260056024820152642174696d6560d81b6044820152606401611baa565b6000610bb860395411613dba57610bb8613dc9565b6032603954613dc99190615ef2565b603981905542603a556001546040516370a0823160e01b815230600482015291925060009161271091600d916001600160a01b03909116906370a0823190602401602060405180830381865afa158015613e27573d6000803e3d6000fd5b505050506040513d601f19601f82011682018060405250810190613e4b9190615fb3565b613e559190615eaf565b613e5f9190615e77565b90508015611c905760015460405163a9059cbb60e01b815261dead6004820152602481018390526001600160a01b039091169063a9059cbb906044016020604051808303816000875af1158015613eba573d6000803e3d6000fd5b505050506040513d601f19601f82011682018060405250810190611dbe9190616006565b6001600160a01b0381166000908152604660205260408120613eff9061558b565b92915050565b605081600481106127bc57600080fd5b3360008051602061610283398151915214613f425760405162461bcd60e51b8152600401611baa90615f05565b6005546001600160a01b031615613f895760405162461bcd60e51b815260206004820152600b60248201526a185b1c9958591e481cd95d60aa1b6044820152606401611baa565b6001600160a01b038116613fc45760405162461bcd60e51b8152602060048201526002602482015261021360f41b6044820152606401611baa565b600580546001600160a01b0319166001600160a01b0392909216919091179055565b6004546001600160a01b031633146140105760405162461bcd60e51b8152600401611baa90615f25565b6001600160a01b03821660009081526040602081905290205481111561404e576001600160a01b038216600090815260406020819052812055611c90565b6001600160a01b03821660009081526040602081905281208054839290612153908490615ef2565b602581600881106127bc57600080fd5b6004546001600160a01b03163314806140a957506007546001600160a01b031633145b6140dd5760405162461bcd60e51b8152602060048201526005602482015264042c2eae8d60db1b6044820152606401611baa565b600060646140ec83605e615eaf565b6140f69190615e77565b905080605a600082825461410a9190615ec6565b90915550508015611c9057600754604051630852cd8d60e31b8152600481018390526001600160a01b03909116906342966c6890602401600060405180830381600087803b15801561415b57600080fd5b505af11580156132a5573d6000803e3d6000fd5b6004546001600160a01b031633146141995760405162461bcd60e51b8152600401611baa90615f25565b6001600160a01b039091166000908152603f6020526040902055565b6004546001600160a01b031633146141df5760405162461bcd60e51b8152600401611baa90615f25565b6001600160a01b03868116600090815260436020908152604080832080546001600160a01b031916948a16948517905560448252808320889055603e825280832087905560458252808320805460ff191660ff8816179055603d9091529020829055156132a5576001600160a01b03851660009081526046602052604090206142689087614d4d565b50505050505050565b6003546001600160a01b0316331461429b5760405162461bcd60e51b8152600401611baa90615e44565b6001600160a01b0381166000908152603260205260408120546030546142c79064e8d4a5100090615e77565b6142d19190615ef2565b90508015611c905764e8d4a510006030546142ec9190615e77565b6001600160a01b0383166000908152603260209081526040808320939093558290529081208054839290612153908490615ec6565b6003546001600160a01b0316331461434b5760405162461bcd60e51b8152600401611baa90615e44565b6001600160a01b0381166000908152603360205260408120546031546143779064e8d4a5100090615e77565b6143819190615ef2565b90508015611c905764e8d4a5100060315461439c9190615e77565b6001600160a01b0383166000908152603360209081526040808320939093558290529081208054839290612153908490615ec6565b6003546001600160a01b031633146143fb5760405162461bcd60e51b8152600401611baa90615e44565b600481106144305760405162461bcd60e51b8152602060048201526002602482015261216960f01b6044820152606401611baa565b6001600160a01b0382166000908152605860209081526040808320848452909152902054806144715760405162461bcd60e51b8152600401611baa90615fcc565b6001600160a01b038316600090815260586020908152604080832085845290915281205580601083600481106144a9576144a9615e99565b0160008282546144b99190615ef2565b90915550506001546144d5906001600160a01b03168483614cfb565b60408051828152602081018490526001600160a01b038516917ff960dbf9e5d0682f7a298ed974e33a28b4464914b7a2bfac12ae419a9afeb2809101611ec1565b6003546001600160a01b031633146145405760405162461bcd60e51b8152600401611baa90615e44565b60ff811615611c90576001600160a01b0382166000908152602e602052604090205460ff16156145a2576001600160a01b0382166000818152602e602090815260408083205460ff168352602d825280832093835292905220805460ff191690555b6001600160a01b0382166000818152602e60209081526040808320805460ff871660ff199182168117909255908452602d835281842094845293909152902080549091166001908117909155601d906145fb9083615f46565b60ff166008811061460e5761460e615e99565b01805490600061461d83615ed9565b91905055505050565b6003546001600160a01b031633146146505760405162461bcd60e51b8152600401611baa90615e44565b6001600160a01b03811660009081526047602052604090205460ff1615611cc25760405162461bcd60e51b8152600401611baa90615fea565b605481600481106127bc57600080fd5b6004546001600160a01b031633146146c35760405162461bcd60e51b8152600401611baa90615f25565b6001600160a01b0382166000818152603d602052604090819020839055517f27bf157905718b64ccf52ef99d6fb057abea9cda88264eebee01c2dd5b07735e906126ec9084815260200190565b6004546001600160a01b0316331461473a5760405162461bcd60e51b8152600401611baa90615f25565b6001600160a01b03909116600090815260406020819052902055565b33600080516020616102833981519152146147835760405162461bcd60e51b8152600401611baa90615f05565b600955565b6004546001600160a01b031633146147b25760405162461bcd60e51b8152600401611baa90615f25565b6001600160a01b0382166000818152603e602052604090819020839055517f3ee8d2ba081cc1285c74565158c4311f33a0e81c7fbef54f437af73e64ac4d8e906126ec9084815260200190565b6003546001600160a01b031633146148295760405162461bcd60e51b8152600401611baa90615e44565b8015806148365750601554155b611c925760155461484c8264e8d4a51000615eaf565b6148569190615e77565b601460008282546122b09190615ec6565b33600080516020616102833981519152146148945760405162461bcd60e51b8152600401611baa90615f05565b600380546001600160a01b0319166001600160a01b0392909216919091179055565b601c60205281600052604060002081600381106148d257600080fd5b01549150829050565b6003546001600160a01b03163314611cc25760405162461bcd60e51b8152600401611baa90615e44565b6001600160a01b03821660009081526046602052604081206136b59083615595565b6003546001600160a01b031633146149515760405162461bcd60e51b8152600401611baa90615e44565b6001600160a01b0381166000908152602e602052604090205460ff168015806149995750601d614982600183615f46565b60ff166008811061499557614995615e99565b0154155b156149a2575050565b6001600160a01b0382166000908152602f602052604081205460256149c8600185615f46565b60ff16600881106149db576149db615e99565b01546149e79190615ef2565b90508015611dbe5760256149fc600184615f46565b60ff1660088110614a0f57614a0f615e99565b01546001600160a01b0384166000908152602f60209081526040808320939093558290529081208054839290612552908490615ec6565b3360008051602061610283398151915214614a735760405162461bcd60e51b8152600401611baa90615f05565b600680546001600160a01b0319166001600160a01b0392909216919091179055565b6003546001600160a01b03163314614abf5760405162461bcd60e51b8152600401611baa90615e44565b6001600160a01b03811660009081526016602052604090205415611c92576001600160a01b038116600090815260176020908152604080832054601690925282205460145464e8d4a5100091614b1491615eaf565b614b1e9190615e77565b614b289190615ef2565b90508015611c90576001600160a01b03821660009081526016602052604090205460145464e8d4a5100091614b5c91615eaf565b614b669190615e77565b6001600160a01b0383166000908152601760209081526040808320939093558290529081208054839290612153908490615ec6565b6004546001600160a01b03163314614bc55760405162461bcd60e51b8152600401611baa90615f25565b6001600160a01b0382166000908152603e602052604081208054839290614bed908490615ec6565b90915550506001600160a01b0382166000818152603e60209081526040918290205491519182527f3ee8d2ba081cc1285c74565158c4311f33a0e81c7fbef54f437af73e64ac4d8e91016126ec565b6003546001600160a01b03163314614c665760405162461bcd60e51b8152600401611baa90615e44565b6001600160a01b038216600090815260406020819052902054811115614c9e5760405162461bcd60e51b8152600401611baa90615f95565b6001600160a01b03821660009081526040602081905281208054839290614cc6908490615ef2565b90915550611c90905073570a5d26f7765ecb712c0924e4de545b89fd43df8383614cfb565b604981600681106127bc57600080fd5b604080516001600160a01b038416602482015260448082018490528251808303909101815260649091019091526020810180516001600160e01b031663a9059cbb60e01b179052611dbe9084906155a1565b60006136b5836001600160a01b038416615676565b60006136b5836001600160a01b0384166156c5565b6001600160a01b038216600090815260596020908152604080832084845290915281205464e8d4a51000600c8460048110614db457614db4615e99565b01546001600160a01b0386166000908152605860209081526040808320888452909152902054614de49190615eaf565b614dee9190615e77565b614df89190615ef2565b90508015611dbe5764e8d4a51000600c8360048110614e1957614e19615e99565b01546001600160a01b0385166000908152605860209081526040808320878452909152902054614e499190615eaf565b614e539190615e77565b6001600160a01b0384166000818152605960209081526040808320878452825280832094909455918152908290529081208054839290612552908490615ec6565b600260005403614ee65760405162461bcd60e51b815260206004820152601f60248201527f5265656e7472616e637947756172643a207265656e7472616e742063616c6c006044820152606401611baa565b6002600055565b60006064614efc83601e615eaf565b614f069190615e77565b9050614f11846157b8565b8015614f3557506001600160a01b0384166000908152603d60205260409020548111155b15612b94576001600160a01b0384166000908152603d602052604081208054839290614f62908490615ef2565b90915550506001600160a01b03841660009081526040602081905281208054839290612b8e908490615ec6565b6001600160a01b0382811660009081526043602052604080822054815160c081019283905293169290604f906006908285855b825461010083900a900460ff16815260206001928301818104948501949093039092029101808411614fc2575094955060009450600193505050505b60068160ff16116132a5576001600160a01b038416156132a557600061502385615983565b9050600061503082615a51565b905060008160ff1611801561504b57508060ff168360ff1610155b156151455760008561505e600184615f46565b60ff166006811061507157615071615e99565b6020020151905060008560ff168260ff161161508e576000615098565b6150988683615f46565b9050600060646150ab60ff84168c615eaf565b6150b59190615e77565b90506000811180156150df57506001600160a01b0389166000908152603d60205260409020548111155b1561513f576001600160a01b0389166000908152603d60205260408120805483929061510c908490615ef2565b90915550506001600160a01b03891660009081526040602081905281208054839290615139908490615ec6565b90915550505b50909450505b50506001600160a01b03938416600090815260436020526040902054909316928061516f81616023565b915050614ffe565b600f8160ff16118061519057506001600160a01b038316155b612b94576001600160a01b03831660009081526041602052604090205482906001118015906151c3575060038260ff1611155b80156151d357506151d3846157b8565b80156151f757506001600160a01b0384166000908152603d60205260409020548111155b1561525c576001600160a01b0384166000908152603d602052604081208054839290615224908490615ef2565b90915550506001600160a01b03841660009081526040602081905281208054839290615251908490615ec6565b909155506154c79050565b6001600160a01b038416600090815260416020526040902054600211801590615289575060068260ff1611155b80156152995750615299846157b8565b80156152bd57506001600160a01b0384166000908152603d60205260409020548111155b156152ea576001600160a01b0384166000908152603d602052604081208054839290615224908490615ef2565b6001600160a01b038416600090815260416020526040902054600311801590615317575060098260ff1611155b80156153275750615327846157b8565b801561534b57506001600160a01b0384166000908152603d60205260409020548111155b15615378576001600160a01b0384166000908152603d602052604081208054839290615224908490615ef2565b6001600160a01b0384166000908152604160205260409020546004118015906153a55750600c8260ff1611155b80156153b557506153b5846157b8565b80156153d957506001600160a01b0384166000908152603d60205260409020548111155b15615406576001600160a01b0384166000908152603d602052604081208054839290615224908490615ef2565b6001600160a01b0384166000908152604160205260409020546005118015906154335750600f8260ff1611155b80156154435750615443846157b8565b801561546757506001600160a01b0384166000908152603d60205260409020548111155b156154c7576001600160a01b0384166000908152603d602052604081208054839290615494908490615ef2565b90915550506001600160a01b038416600090815260406020819052812080548392906154c1908490615ec6565b90915550505b6001600160a01b038085166000908152604360205260409020546154f991879116856154f4866001616042565b615177565b5050505050565b6001600160a01b03821660009081526018602052604081205480820361553f57606461552d601485615eaf565b6155379190615e77565b915050613eff565b624f1a0061554d8242615ef2565b101561556057606461552d601485615eaf565b62ed4e0061556e8242615ef2565b101561558157606461552d600a85615eaf565b5060009392505050565b6000613eff825490565b60006136b58383615ad9565b60006155f6826040518060400160405280602081526020017f5361666545524332303a206c6f772d6c6576656c2063616c6c206661696c6564815250856001600160a01b0316615b039092919063ffffffff16565b90508051600014806156175750808060200190518101906156179190616006565b611dbe5760405162461bcd60e51b815260206004820152602a60248201527f5361666545524332303a204552433230206f7065726174696f6e20646964206e6044820152691bdd081cdd58d8d9595960b21b6064820152608401611baa565b60008181526001830160205260408120546156bd57508154600181810184556000848152602080822090930184905584548482528286019093526040902091909155613eff565b506000613eff565b600081815260018301602052604081205480156157ae5760006156e9600183615ef2565b85549091506000906156fd90600190615ef2565b905081811461576257600086600001828154811061571d5761571d615e99565b906000526020600020015490508087600001848154811061574057615740615e99565b6000918252602080832090910192909255918252600188019052604090208390555b85548690806157735761577361605b565b600190038181906000526020600020016000905590558560010160008681526020019081526020016000206000905560019350505050613eff565b6000915050613eff565b6008546040516370a0823160e01b81526001600160a01b03838116600483015260009283929116906370a0823190602401602060405180830381865afa158015615806573d6000803e3d6000fd5b505050506040513d601f19601f8201168201806040525081019061582a9190615fb3565b90508060000361583d5750600092915050565b6000805b8281101561594757600854604051632f745c5960e01b81526001600160a01b03878116600483015260248201849052600092169063fcf49adf908290632f745c5990604401602060405180830381865afa1580156158a3573d6000803e3d6000fd5b505050506040513d601f19601f820116820180604052508101906158c79190615fb3565b6040518263ffffffff1660e01b81526004016158e591815260200190565b602060405180830381865afa158015615902573d6000803e3d6000fd5b505050506040513d601f19601f820116820180604052508101906159269190615fb3565b905082811115615934578092505b508061593f81615ed9565b915050615841565b506054816004811061595b5761595b615e99565b01546001600160a01b039094166000908152603f602052604090205493909310159392505050565b6001600160a01b0381166000908152603e602052604081205481805b6001600160a01b03851660009081526046602052604090206159c09061558b565b811015615a30576001600160a01b0385166000908152604660205260408120603e9082906159ee9085615595565b6001600160a01b03166001600160a01b0316815260200190815260200160002054905082811115615a1d578092505b5080615a2881615ed9565b91505061599f565b50808211615a3f576000615a49565b615a498183615ef2565b949350505050565b6040805160c081019182905260009182919060499060069082845b815481526020019060010190808311615a6c5750939450600693505050505b60018160ff16106155815781615aa2600183615f46565b60ff1660068110615ab557615ab5615e99565b60200201518410615ac7579392505050565b80615ad181616071565b915050615a8b565b6000826000018281548110615af057615af0615e99565b9060005260206000200154905092915050565b6060615a49848460008585600080866001600160a01b03168587604051615b2a91906160b2565b60006040518083038185875af1925050503d8060008114615b67576040519150601f19603f3d011682016040523d82523d6000602084013e615b6c565b606091505b5091509150615b7d87838387615b88565b979650505050505050565b60608315615bf7578251600003615bf0576001600160a01b0385163b615bf05760405162461bcd60e51b815260206004820152601d60248201527f416464726573733a2063616c6c20746f206e6f6e2d636f6e74726163740000006044820152606401611baa565b5081615a49565b615a498383815115615c0c5781518083602001fd5b8060405162461bcd60e51b8152600401611baa91906160ce565b600060208284031215615c3857600080fd5b5035919050565b80356001600160a01b0381168114615c5657600080fd5b919050565b600060208284031215615c6d57600080fd5b6136b582615c3f565b60008060408385031215615c8957600080fd5b615c9283615c3f565b9150615ca060208401615c3f565b90509250929050565b600080600060608486031215615cbe57600080fd5b615cc784615c3f565b95602085013595506040909401359392505050565b803560ff81168114615c5657600080fd5b60008060408385031215615d0057600080fd5b615d0983615c3f565b9150615ca060208401615cdc565b60008060408385031215615d2a57600080fd5b615d3383615c3f565b946020939093013593505050565b60008060408385031215615d5457600080fd5b615c9283615cdc565b600080600060608486031215615d7257600080fd5b615d7b84615c3f565b9250615d8960208501615c3f565b9150615d9760408501615c3f565b90509250925092565b8015158114611c9257600080fd5b60008060408385031215615dc157600080fd5b615dca83615c3f565b91506020830135615dda81615da0565b809150509250929050565b60008060008060008060c08789031215615dfe57600080fd5b615e0787615c3f565b9550615e1560208801615c3f565b94506040870135935060608701359250615e3160808801615cdc565b915060a087013590509295509295509295565b6020808252600390820152620216f760ec1b604082015260600190565b634e487b7160e01b600052601160045260246000fd5b600082615e9457634e487b7160e01b600052601260045260246000fd5b500490565b634e487b7160e01b600052603260045260246000fd5b8082028115828204841417613eff57613eff615e61565b80820180821115613eff57613eff615e61565b600060018201615eeb57615eeb615e61565b5060010190565b81810381811115613eff57613eff615e61565b60208082526006908201526510b7bbb732b960d11b604082015260600190565b602080825260079082015266216d696e696e6760c81b604082015260600190565b60ff8281168282160390811115613eff57613eff615e61565b600081615f6e57615f6e615e61565b506000190190565b60208082526005908201526410b0b2323960d91b604082015260600190565b6020808252600490820152630858985b60e21b604082015260600190565b600060208284031215615fc557600080fd5b5051919050565b60208082526004908201526308585b5d60e21b604082015260600190565b602080825260029082015261189b60f21b604082015260600190565b60006020828403121561601857600080fd5b81516136b581615da0565b600060ff821660ff810361603957616039615e61565b60010192915050565b60ff8181168382160190811115613eff57613eff615e61565b634e487b7160e01b600052603160045260246000fd5b600060ff82168061608457616084615e61565b6000190192915050565b60005b838110156160a9578181015183820152602001616091565b50506000910152565b600082516160c481846020870161608e565b9190910192915050565b60208152600082518060208401526160ed81604085016020870161608e565b601f01601f1916919091016040019291505056fe000000000000000000000000274acc6397349f21179ed6258a54b2a11b28faf5a2646970667358221220f3244f1a63d80b0e10a058b42fcb6bf90daf6b3d8850f63a3385f08bbeadd9eb64736f6c63430008140033",
  "linkReferences": {},
  "deployedLinkReferences": {}
}