{
  "_format": "hh-sol-artifact-1",
  "contractName": "DQCard",
  "sourceName": "src/DQProject.sol",
  "abi": [
    {
      "inputs": [],
      "stateMutability": "nonpayable",
      "type": "constructor"
    },
    {
      "anonymous": false,
      "inputs": [
        {
          "indexed": true,
          "internalType": "address",
          "name": "owner",
          "type": "address"
        },
        {
          "indexed": true,
          "internalType": "address",
          "name": "approved",
          "type": "address"
        },
        {
          "indexed": true,
          "internalType": "uint256",
          "name": "tokenId",
          "type": "uint256"
        }
      ],
      "name": "Approval",
      "type": "event"
    },
    {
      "anonymous": false,
      "inputs": [
        {
          "indexed": true,
          "internalType": "address",
          "name": "owner",
          "type": "address"
        },
        {
          "indexed": true,
          "internalType": "address",
          "name": "operator",
          "type": "address"
        },
        {
          "indexed": false,
          "internalType": "bool",
          "name": "approved",
          "type": "bool"
        }
      ],
      "name": "ApprovalForAll",
      "type": "event"
    },
    {
      "anonymous": false,
      "inputs": [
        {
          "indexed": true,
          "internalType": "address",
          "name": "previousOwner",
          "type": "address"
        },
        {
          "indexed": true,
          "internalType": "address",
          "name": "newOwner",
          "type": "address"
        }
      ],
      "name": "OwnershipTransferred",
      "type": "event"
    },
    {
      "anonymous": false,
      "inputs": [
        {
          "indexed": true,
          "internalType": "address",
          "name": "from",
          "type": "address"
        },
        {
          "indexed": true,
          "internalType": "address",
          "name": "to",
          "type": "address"
        },
        {
          "indexed": true,
          "internalType": "uint256",
          "name": "tokenId",
          "type": "uint256"
        }
      ],
      "name": "Transfer",
      "type": "event"
    },
    {
      "inputs": [],
      "name": "CARD_A",
      "outputs": [
        {
          "internalType": "uint256",
          "name": "",
          "type": "uint256"
        }
      ],
      "stateMutability": "view",
      "type": "function"
    },
    {
      "inputs": [],
      "name": "CARD_B",
      "outputs": [
        {
          "internalType": "uint256",
          "name": "",
          "type": "uint256"
        }
      ],
      "stateMutability": "view",
      "type": "function"
    },
    {
      "inputs": [],
      "name": "CARD_C",
      "outputs": [
        {
          "internalType": "uint256",
          "name": "",
          "type": "uint256"
        }
      ],
      "stateMutability": "view",
      "type": "function"
    },
    {
      "inputs": [],
      "name": "LINE_A",
      "outputs": [
        {
          "internalType": "uint256",
          "name": "",
          "type": "uint256"
        }
      ],
      "stateMutability": "view",
      "type": "function"
    },
    {
      "inputs": [],
      "name": "LINE_B",
      "outputs": [
        {
          "internalType": "uint256",
          "name": "",
          "type": "uint256"
        }
      ],
      "stateMutability": "view",
      "type": "function"
    },
    {
      "inputs": [],
      "name": "LINE_C",
      "outputs": [
        {
          "internalType": "uint256",
          "name": "",
          "type": "uint256"
        }
      ],
      "stateMutability": "view",
      "type": "function"
    },
    {
      "inputs": [],
      "name": "MAX_A",
      "outputs": [
        {
          "internalType": "uint256",
          "name": "",
          "type": "uint256"
        }
      ],
      "stateMutability": "view",
      "type": "function"
    },
    {
      "inputs": [],
      "name": "MAX_B",
      "outputs": [
        {
          "internalType": "uint256",
          "name": "",
          "type": "uint256"
        }
      ],
      "stateMutability": "view",
      "type": "function"
    },
    {
      "inputs": [],
      "name": "MAX_C",
      "outputs": [
        {
          "internalType": "uint256",
          "name": "",
          "type": "uint256"
        }
      ],
      "stateMutability": "view",
      "type": "function"
    },
    {
      "inputs": [],
      "name": "PRICE_A",
      "outputs": [
        {
          "internalType": "uint256",
          "name": "",
          "type": "uint256"
        }
      ],
      "stateMutability": "view",
      "type": "function"
    },
    {
      "inputs": [],
      "name": "PRICE_B",
      "outputs": [
        {
          "internalType": "uint256",
          "name": "",
          "type": "uint256"
        }
      ],
      "stateMutability": "view",
      "type": "function"
    },
    {
      "inputs": [],
      "name": "PRICE_C",
      "outputs": [
        {
          "internalType": "uint256",
          "name": "",
          "type": "uint256"
        }
      ],
      "stateMutability": "view",
      "type": "function"
    },
    {
      "inputs": [],
      "name": "WEIGHT_A",
      "outputs": [
        {
          "internalType": "uint256",
          "name": "",
          "type": "uint256"
        }
      ],
      "stateMutability": "view",
      "type": "function"
    },
    {
      "inputs": [],
      "name": "WEIGHT_B",
      "outputs": [
        {
          "internalType": "uint256",
          "name": "",
          "type": "uint256"
        }
      ],
      "stateMutability": "view",
      "type": "function"
    },
    {
      "inputs": [],
      "name": "WEIGHT_C",
      "outputs": [
        {
          "internalType": "uint256",
          "name": "",
          "type": "uint256"
        }
      ],
      "stateMutability": "view",
      "type": "function"
    },
    {
      "inputs": [
        {
          "internalType": "address",
          "name": "to",
          "type": "address"
        },
        {
          "internalType": "uint256",
          "name": "tokenId",
          "type": "uint256"
        }
      ],
      "name": "approve",
      "outputs": [],
      "stateMutability": "nonpayable",
      "type": "function"
    },
    {
      "inputs": [
        {
          "internalType": "address",
          "name": "owner",
          "type": "address"
        }
      ],
      "name": "balanceOf",
      "outputs": [
        {
          "internalType": "uint256",
          "name": "",
          "type": "uint256"
        }
      ],
      "stateMutability": "view",
      "type": "function"
    },
    {
      "inputs": [
        {
          "internalType": "uint256",
          "name": "",
          "type": "uint256"
        }
      ],
      "name": "cardType",
      "outputs": [
        {
          "internalType": "uint256",
          "name": "",
          "type": "uint256"
        }
      ],
      "stateMutability": "view",
      "type": "function"
    },
    {
      "inputs": [
        {
          "internalType": "uint256",
          "name": "tokenId",
          "type": "uint256"
        }
      ],
      "name": "getApproved",
      "outputs": [
        {
          "internalType": "address",
          "name": "",
          "type": "address"
        }
      ],
      "stateMutability": "view",
      "type": "function"
    },
    {
      "inputs": [
        {
          "internalType": "uint256",
          "name": "_type",
          "type": "uint256"
        }
      ],
      "name": "getCardPrice",
      "outputs": [
        {
          "internalType": "uint256",
          "name": "",
          "type": "uint256"
        }
      ],
      "stateMutability": "pure",
      "type": "function"
    },
    {
      "inputs": [
        {
          "internalType": "uint256",
          "name": "_type",
          "type": "uint256"
        }
      ],
      "name": "getCardWeight",
      "outputs": [
        {
          "internalType": "uint256",
          "name": "",
          "type": "uint256"
        }
      ],
      "stateMutability": "pure",
      "type": "function"
    },
    {
      "inputs": [
        {
          "internalType": "uint256",
          "name": "_type",
          "type": "uint256"
        }
      ],
      "name": "getRequiredLines",
      "outputs": [
        {
          "internalType": "uint256",
          "name": "",
          "type": "uint256"
        }
      ],
      "stateMutability": "pure",
      "type": "function"
    },
    {
      "inputs": [
        {
          "internalType": "address",
          "name": "owner",
          "type": "address"
        },
        {
          "internalType": "address",
          "name": "operator",
          "type": "address"
        }
      ],
      "name": "isApprovedForAll",
      "outputs": [
        {
          "internalType": "bool",
          "name": "",
          "type": "bool"
        }
      ],
      "stateMutability": "view",
      "type": "function"
    },
    {
      "inputs": [
        {
          "internalType": "address",
          "name": "to",
          "type": "address"
        },
        {
          "internalType": "uint256",
          "name": "_type",
          "type": "uint256"
        }
      ],
      "name": "mintByOwner",
      "outputs": [],
      "stateMutability": "nonpayable",
      "type": "function"
    },
    {
      "inputs": [],
      "name": "name",
      "outputs": [
        {
          "internalType": "string",
          "name": "",
          "type": "string"
        }
      ],
      "stateMutability": "view",
      "type": "function"
    },
    {
      "inputs": [],
      "name": "owner",
      "outputs": [
        {
          "internalType": "address",
          "name": "",
          "type": "address"
        }
      ],
      "stateMutability": "view",
      "type": "function"
    },
    {
      "inputs": [
        {
          "internalType": "uint256",
          "name": "tokenId",
          "type": "uint256"
        }
      ],
      "name": "ownerOf",
      "outputs": [
        {
          "internalType": "address",
          "name": "",
          "type": "address"
        }
      ],
      "stateMutability": "view",
      "type": "function"
    },
    {
      "inputs": [],
      "name": "renounceOwnership",
      "outputs": [],
      "stateMutability": "nonpayable",
      "type": "function"
    },
    {
      "inputs": [
        {
          "internalType": "address",
          "name": "from",
          "type": "address"
        },
        {
          "internalType": "address",
          "name": "to",
          "type": "address"
        },
        {
          "internalType": "uint256",
          "name": "tokenId",
          "type": "uint256"
        }
      ],
      "name": "safeTransferFrom",
      "outputs": [],
      "stateMutability": "nonpayable",
      "type": "function"
    },
    {
      "inputs": [
        {
          "internalType": "address",
          "name": "from",
          "type": "address"
        },
        {
          "internalType": "address",
          "name": "to",
          "type": "address"
        },
        {
          "internalType": "uint256",
          "name": "tokenId",
          "type": "uint256"
        },
        {
          "internalType": "bytes",
          "name": "data",
          "type": "bytes"
        }
      ],
      "name": "safeTransferFrom",
      "outputs": [],
      "stateMutability": "nonpayable",
      "type": "function"
    },
    {
      "inputs": [
        {
          "internalType": "address",
          "name": "operator",
          "type": "address"
        },
        {
          "internalType": "bool",
          "name": "approved",
          "type": "bool"
        }
      ],
      "name": "setApprovalForAll",
      "outputs": [],
      "stateMutability": "nonpayable",
      "type": "function"
    },
    {
      "inputs": [
        {
          "internalType": "bytes4",
          "name": "interfaceId",
          "type": "bytes4"
        }
      ],
      "name": "supportsInterface",
      "outputs": [
        {
          "internalType": "bool",
          "name": "",
          "type": "bool"
        }
      ],
      "stateMutability": "view",
      "type": "function"
    },
    {
      "inputs": [],
      "name": "symbol",
      "outputs": [
        {
          "internalType": "string",
          "name": "",
          "type": "string"
        }
      ],
      "stateMutability": "view",
      "type": "function"
    },
    {
      "inputs": [
        {
          "internalType": "uint256",
          "name": "index",
          "type": "uint256"
        }
      ],
      "name": "tokenByIndex",
      "outputs": [
        {
          "internalType": "uint256",
          "name": "",
          "type": "uint256"
        }
      ],
      "stateMutability": "view",
      "type": "function"
    },
    {
      "inputs": [
        {
          "internalType": "address",
          "name": "owner",
          "type": "address"
        },
        {
          "internalType": "uint256",
          "name": "index",
          "type": "uint256"
        }
      ],
      "name": "tokenOfOwnerByIndex",
      "outputs": [
        {
          "internalType": "uint256",
          "name": "",
          "type": "uint256"
        }
      ],
      "stateMutability": "view",
      "type": "function"
    },
    {
      "inputs": [
        {
          "internalType": "uint256",
          "name": "tokenId",
          "type": "uint256"
        }
      ],
      "name": "tokenURI",
      "outputs": [
        {
          "internalType": "string",
          "name": "",
          "type": "string"
        }
      ],
      "stateMutability": "view",
      "type": "function"
    },
    {
      "inputs": [],
      "name": "totalA",
      "outputs": [
        {
          "internalType": "uint256",
          "name": "",
          "type": "uint256"
        }
      ],
      "stateMutability": "view",
      "type": "function"
    },
    {
      "inputs": [],
      "name": "totalB",
      "outputs": [
        {
          "internalType": "uint256",
          "name": "",
          "type": "uint256"
        }
      ],
      "stateMutability": "view",
      "type": "function"
    },
    {
      "inputs": [],
      "name": "totalC",
      "outputs": [
        {
          "internalType": "uint256",
          "name": "",
          "type": "uint256"
        }
      ],
      "stateMutability": "view",
      "type": "function"
    },
    {
      "inputs": [],
      "name": "totalSupply",
      "outputs": [
        {
          "internalType": "uint256",
          "name": "",
          "type": "uint256"
        }
      ],
      "stateMutability": "view",
      "type": "function"
    },
    {
      "inputs": [
        {
          "internalType": "address",
          "name": "from",
          "type": "address"
        },
        {
          "internalType": "address",
          "name": "to",
          "type": "address"
        },
        {
          "internalType": "uint256",
          "name": "tokenId",
          "type": "uint256"
        }
      ],
      "name": "transferFrom",
      "outputs": [],
      "stateMutability": "nonpayable",
      "type": "function"
    },
    {
      "inputs": [
        {
          "internalType": "address",
          "name": "newOwner",
          "type": "address"
        }
      ],
      "name": "transferOwnership",
      "outputs": [],
      "stateMutability": "nonpayable",
      "type": "function"
    }
  ],
  "bytecode": "0x60803462000354576001600160401b03906040818101838111838210176200033e578152600782526020916611144810d85c9960ca1b83820152815193828501858110828211176200033e578352600385526244514360e81b8486015281518181116200033e576000948554916001948584811c9416801562000333575b838510146200031f578190601f94858111620002cc575b508390858311600114620002685789926200025c575b5050600019600383901b1c191690851b1786555b8651928311620002485783548481811c911680156200023d575b828210146200022957828111620001e1575b50809183116001146200017a5750849582939495926200016e575b5050600019600383901b1c191690821b1790555b600a8054336001600160a01b03198216811790925591519290916001600160a01b0316907f8be0079c531659141344cd1fd0a4f28419497f9722a3daafe3b4186f6b6457e09080a3611ca990816200035a8239f35b01519050388062000105565b90601f198316968487528287209287905b898210620001c9575050838596979810620001af575b505050811b01905562000119565b015160001960f88460031b161c19169055388080620001a1565b8087859682949686015181550195019301906200018b565b8487528187208380860160051c8201928487106200021f575b0160051c019085905b82811062000213575050620000ea565b88815501859062000203565b92508192620001fa565b634e487b7160e01b87526022600452602487fd5b90607f1690620000d8565b634e487b7160e01b86526041600452602486fd5b015190503880620000aa565b898052848a208894509190601f1984168b5b87828210620002b557505084116200029b575b505050811b018655620000be565b015160001960f88460031b161c191690553880806200028d565b8385015186558b979095019493840193016200027a565b9091508880528389208580850160051c82019286861062000315575b918991869594930160051c01915b8281106200030657505062000094565b8b8155859450899101620002f6565b92508192620002e8565b634e487b7160e01b88526022600452602488fd5b93607f16936200007d565b634e487b7160e01b600052604160045260246000fd5b600080fdfe60806040818152600480361015610016575b600080fd5b600092833560e01c90816301ffc9a7146110be5750806306fdde0314610ff3578063081812fc14610fd3578063095ea7b314610e6657806310dcf28514610e4a57806313eeea0814610e2657806315ad6f6114610e0a57806318160ddd14610deb57806318a8ac7714610dcf578063193491b514610db057806320083b891461077f57806323b872dd14610d8b5780632f745c5914610cdf5780633542aee2146109a8578063396984151461098b57806342842e0e146109575780634f6ccce7146108c457806352b03c2f146108a857806353d79447146108845780636352211e146108535780636866537d1461083357806370a082311461080d578063715018a6146107b057806373cda3e41461078b578063800c33cd1461077f5780638485391a146107625780638c53fa80146107425780638da5cb5b14610719578063940e689d146106f257806395d89b41146105dc578063a22cb4651461050d578063b629640b146104ee578063b88d4fde14610438578063bc1e40231461041c578063bec6876514610400578063c87b56dd14610390578063d15dfe2d14610371578063e985e9c514610323578063f01eab2414610307578063f26841bd146102e7578063f2fde38b1461021c5763fcf49adf146101f257600080fd5b34610218576020366003190112610218576020928291358152600e845220549051908152f35b8280fd5b503461021857602036600319011261021857610236611184565b9061023f611272565b6001600160a01b03918216928315610295575050600a54826bffffffffffffffffffffffff60a01b821617600a55167f8be0079c531659141344cd1fd0a4f28419497f9722a3daafe3b4186f6b6457e08380a380f35b906020608492519162461bcd60e51b8352820152602660248201527f4f776e61626c653a206e6577206f776e657220697320746865207a65726f206160448201526564647265737360d01b6064820152fd5b5050346103035781600319360112610303576020905160648152f35b5080fd5b5050346103035781600319360112610303576020905160068152f35b50503461030357806003193601126103035760ff81602093610343611184565b61034b61119a565b6001600160a01b0391821683526005875283832091168252855220549151911615158152f35b505034610303578160031936011261030357602090600d549051908152f35b50919034610303576020366003190112610303576103cf6103ca6103fc9435600052600260205260018060a01b0360406000205416151590565b611341565b8181516103db81611202565b528051916103e883611202565b825251918291602083526020830190611144565b0390f35b50503461030357816003193601126103035760209051600a8152f35b5090346102185782600319360112610218576020925051908152f35b50903461021857608036600319011261021857610453611184565b9061045c61119a565b604435906064359467ffffffffffffffff86116104ea57366023870112156104ea578501359361049761048e86611256565b94519485611234565b8484528636602487890101116104e7576020866104df9760246104e49a0183890137860101526104cf6104ca84336114ca565b6113f1565b6104da838383611592565b611934565b6114a6565b80f35b80fd5b8680fd5b505034610303578160031936011261030357602090600b549051908152f35b509034610218578060031936011261021857610527611184565b90602435918215158093036105d8576001600160a01b0316923384146105965750338452600560205280842083855260205280842060ff1981541660ff8416179055519081527f17307eab39ab6107e8899845ad3d59bd9653f200f220920489ca2b5937696c3160203392a380f35b6020606492519162461bcd60e51b8352820152601960248201527f4552433732313a20617070726f766520746f2063616c6c6572000000000000006044820152fd5b8480fd5b5091346104e757806003193601126104e7578151918160019283549384811c918186169586156106e8575b60209687851081146106d5578899509688969785829a5291826000146106ae575050600114610653575b5050506103fc9291610644910385611234565b51928284938452830190611144565b91908693508083527fb10e2d527612073b26eecdfd717e6a320cf44b4afac2b0732d9fcbe2b7fa0cf65b82841061069657505050820101816106446103fc610631565b8054848a01860152889550879490930192810161067d565b60ff19168782015293151560051b8601909301935084925061064491506103fc9050610631565b634e487b7160e01b835260228a52602483fd5b92607f1692610607565b5091346104e75760203660031901126104e7575061071260209235611c15565b9051908152f35b505034610303578160031936011261030357600a5490516001600160a01b039091168152602090f35b5091346104e75760203660031901126104e7575061071260209235611c34565b505034610303578160031936011261030357602090516101f48152f35b505050506100116111b0565b5050346103035781600319360112610303576020905169010f0cf064dd592000008152f35b83346104e757806003193601126104e7576107c9611272565b600a80546001600160a01b0319811690915581906001600160a01b03167f8be0079c531659141344cd1fd0a4f28419497f9722a3daafe3b4186f6b6457e08280a380f35b5050346103035760203660031901126103035760209061071261082e611184565b6112ca565b5091346104e75760203660031901126104e7575061071260209235611bdd565b5091346104e75760203660031901126104e757506108736020923561138d565b90516001600160a01b039091168152f35b50503461030357816003193601126103035760209051685150ae84a8cdf000008152f35b5050346103035781600319360112610303576020905160018152f35b5082346104e75760203660031901126104e757508035906008548210156108ff576020836108f1846119bf565b91905490519160031b1c8152f35b608490602084519162461bcd60e51b8352820152602c60248201527f455243373231456e756d657261626c653a20676c6f62616c20696e646578206f60448201526b7574206f6620626f756e647360a01b6064820152fd5b505034610303576104df6104e49161096e366111cd565b9192519261097b84611202565b8684526104cf6104ca84336114ca565b505034610303578160031936011261030357602090516103e88152f35b509190346103035780600319360112610303576109c3611184565b9060249384356109d1611272565b600181101580610cd4575b15610ca35760018103610c0257600b546103e8811015610bd3576109ff90611a24565b600b555b6008546001810194858211610bc157845191610a1e83611202565b8783526001600160a01b038216988915610b8057600088815260026020526040902054610a57906001600160a01b031615155b15611a33565b8789526020956009875282888b2055600160401b831015610b6f5750506104df899388879694818c9d610b6b9d610af0838e600f9e8f9083610abb610aa2610b569f836008556119bf565b819391549060031b600019811b9283911b169119161790565b9055610ac6896112ca565b87875260068252838720818852825284848820558487526007825283872055868652528320611a7f565b50600083815260026020526040902054610b14906001600160a01b03161515610a51565b81815260038b528c81208054600101905582815260028b528c812080546001600160a01b03191683179055600080516020611c548339815191528180a4611818565b858852600e8352848820558652528320611a7f565b5080f35b634e487b7160e01b8a526041905288fd5b856020606492818a519362461bcd60e51b85528401528201527f4552433732313a206d696e7420746f20746865207a65726f20616464726573736044820152fd5b634e487b7160e01b8752601184528787fd5b835162461bcd60e51b8152602081850152600a818901526910481cdbdb19081bdd5d60b21b6044820152606490fd5b60028103610c5757600c546101f4811015610c2857610c2090611a24565b600c55610a03565b835162461bcd60e51b8152602081850152600a818901526910881cdbdb19081bdd5d60b21b6044820152606490fd5b600d546064811015610c7457610c6c90611a24565b600d55610a03565b835162461bcd60e51b8152602081850152600a818901526910c81cdbdb19081bdd5d60b21b6044820152606490fd5b50600c856020606494519362461bcd60e51b85528401528201526b696e76616c6964207479706560a01b6044820152fd5b5060038111156109dc565b5091346104e757816003193601126104e757610cf9611184565b60243590610d06816112ca565b821015610d34576001600160a01b031682526006602090815283832091835290815290829020548251908152f35b835162461bcd60e51b8152602081870152602b60248201527f455243373231456e756d657261626c653a206f776e657220696e646578206f7560448201526a74206f6620626f756e647360a81b6064820152608490fd5b83346104e7576104e4610d9d366111cd565b91610dab6104ca84336114ca565b611592565b505034610303578160031936011261030357602090600c549051908152f35b5050346103035781600319360112610303576020905160038152f35b5050346103035781600319360112610303576020906008549051908152f35b5050346103035781600319360112610303576020905160028152f35b50503461030357816003193601126103035760209051681b1ae4d6e2ef5000008152f35b5050346103035781600319360112610303576020905160148152f35b5034610218578160031936011261021857610e7f611184565b6024359290916001600160a01b0391908280610e9a8761138d565b16941693808514610f8657803314908115610f67575b5015610eff57848652602052842080546001600160a01b03191683179055610ed78361138d565b167f8c5be1e5ebec7d5bd14f71427d1e84f3dd0314c0f7b2291e5b200ac8c7c3b9258480a480f35b6020608492519162461bcd60e51b8352820152603d60248201527f4552433732313a20617070726f76652063616c6c6572206973206e6f7420746f60448201527f6b656e206f776e6572206f7220617070726f76656420666f7220616c6c0000006064820152fd5b90508652600560205281862033875260205260ff828720541638610eb0565b506020608492519162461bcd60e51b8352820152602160248201527f4552433732313a20617070726f76616c20746f2063757272656e74206f776e656044820152603960f91b6064820152fd5b5091346104e75760203660031901126104e75750610873602092356113b3565b5091346104e757806003193601126104e75781519181825492600184811c918186169586156110b4575b60209687851081146106d5578899509688969785829a5291826000146106ae575050600114611059575050506103fc9291610644910385611234565b91908693508280527f290decd9548b62a8d60345a988386fc84ba6bc95484008f6362f93160ef3e5635b82841061109c57505050820101816106446103fc610631565b8054848a018601528895508794909301928101611083565b92607f169261101d565b92505034610218576020366003190112610218573563ffffffff60e01b8116809103610218576020925063780e9d6360e01b8114908115611101575b5015158152f35b6380ac58cd60e01b811491508115611133575b8115611122575b50386110fa565b6301ffc9a760e01b1490503861111b565b635b5e139f60e01b81149150611114565b919082519283825260005b848110611170575050826000602080949584010152601f8019910116010190565b60208183018101518483018201520161114f565b600435906001600160a01b038216820361001157565b602435906001600160a01b038216820361001157565b503461001157600036600319011261001157602060405160058152f35b6060906003190112610011576001600160a01b0390600435828116810361001157916024359081168103610011579060443590565b6020810190811067ffffffffffffffff82111761121e57604052565b634e487b7160e01b600052604160045260246000fd5b90601f8019910116810190811067ffffffffffffffff82111761121e57604052565b67ffffffffffffffff811161121e57601f01601f191660200190565b600a546001600160a01b0316330361128657565b606460405162461bcd60e51b815260206004820152602060248201527f4f776e61626c653a2063616c6c6572206973206e6f7420746865206f776e65726044820152fd5b6001600160a01b031680156112ea57600052600360205260406000205490565b60405162461bcd60e51b815260206004820152602960248201527f4552433732313a2061646472657373207a65726f206973206e6f7420612076616044820152683634b21037bbb732b960b91b6064820152608490fd5b1561134857565b60405162461bcd60e51b815260206004820152601860248201527f4552433732313a20696e76616c696420746f6b656e20494400000000000000006044820152606490fd5b6000908152600260205260409020546001600160a01b03166113b0811515611341565b90565b6000818152600260205260409020546113d6906001600160a01b03161515611341565b6000908152600460205260409020546001600160a01b031690565b156113f857565b60405162461bcd60e51b815260206004820152602d60248201527f4552433732313a2063616c6c6572206973206e6f7420746f6b656e206f776e6560448201526c1c881bdc88185c1c1c9bdd9959609a1b6064820152608490fd5b60809060208152603260208201527f4552433732313a207472616e7366657220746f206e6f6e20455243373231526560408201527131b2b4bb32b91034b6b83632b6b2b73a32b960711b60608201520190565b156114ad57565b60405162461bcd60e51b8152806114c660048201611453565b0390fd5b906001600160a01b0380806114de8461138d565b16931691838314938415611511575b5083156114fb575b50505090565b611507919293506113b3565b16143880806114f5565b909350600052600560205260406000208260005260205260ff6040600020541692386114ed565b1561153f57565b60405162461bcd60e51b815260206004820152602560248201527f4552433732313a207472616e736665722066726f6d20696e636f72726563742060448201526437bbb732b960d91b6064820152608490fd5b906115b7906115a08461138d565b6001600160a01b0384811693909182168414611538565b8082169384156117c75783159081156116fa57506008549286600052600960205283604060002055600160401b84101561121e578661160e610aa2866001600080516020611c5483398151915298016008556119bf565b90555b8486036116c7575b50156116aa575b61164d83600092868452600f60205261163c8860408620611a7f565b506116468861138d565b1614611538565b8481526004602052604081206bffffffffffffffffffffffff60a01b9081815416905583825260036020526040822060001981540190558482526040822060018154019055858252600260205284604083209182541617905580a4565b82600052600f6020526116c1856040600020611aed565b50611620565b6116d0906112ca565b60406000878152600660205281812083825260205288828220558881526007602052205538611619565b858503611718575b50600080516020611c5483398151915292611611565b611721906112ca565b6000198101939084116117b157600080516020611c5483398151915293600090888252602090600782526040918284205482810361177a575b508a84528383812055888452600681528284209184525281205592611702565b898552600682528385208386528252838520548a86526006835284862082875283528085872055855260078252838520553861175a565b634e487b7160e01b600052601160045260246000fd5b60405162461bcd60e51b8152602060048201526024808201527f4552433732313a207472616e7366657220746f20746865207a65726f206164646044820152637265737360e01b6064820152608490fd5b9192600092909190803b1561192a57611866946040518092630a85bd0160e11b9485835233600484015287602484015260448301526080606483015281878160209a8b966084830190611144565b03926001600160a01b03165af18491816118ea575b506118d9575050503d6000146118d1573d61189581611256565b906118a36040519283611234565b81528091833d92013e5b805191826118ce5760405162461bcd60e51b8152806114c660048201611453565b01fd5b5060606118ad565b6001600160e01b0319161492509050565b9091508581813d8311611923575b6119028183611234565b810103126105d857516001600160e01b0319811681036105d857903861187b565b503d6118f8565b5050915050600190565b9293600093909291803b156119b45794849161198e9660405180948193630a85bd0160e11b9788845233600485015260018060a01b0380921660248501526044840152608060648401528260209b8c976084830190611144565b0393165af18491816118ea57506118d9575050503d6000146118d1573d61189581611256565b505050915050600190565b6008548110156119f65760086000527ff3f7a9fe364faab93b216da50a3214154f22a0a2b415b23a84c8169e8b636ee30190600090565b634e487b7160e01b600052603260045260246000fd5b80548210156119f65760005260206000200190600090565b60001981146117b15760010190565b15611a3a57565b60405162461bcd60e51b815260206004820152601c60248201527f4552433732313a20746f6b656e20616c7265616479206d696e746564000000006044820152606490fd5b91906001830160009082825280602052604082205415600014611ae757845494600160401b861015611ad35783611ac3610aa2886001604098999a01855584611a0c565b9055549382526020522055600190565b634e487b7160e01b83526041600452602483fd5b50925050565b90600182019060009281845282602052604084205490811515600014611bd65760001991808301818111611bc257825490848201918211611bae57808203611b79575b50505080548015611b6557820191611b488383611a0c565b909182549160031b1b191690555582526020526040812055600190565b634e487b7160e01b86526031600452602486fd5b611b99611b89610aa29386611a0c565b90549060031b1c92839286611a0c565b90558652846020526040862055388080611b30565b634e487b7160e01b88526011600452602488fd5b634e487b7160e01b87526011600452602487fd5b5050505090565b60018114611c0757600214611bfa5769010f0cf064dd5920000090565b685150ae84a8cdf0000090565b50681b1ae4d6e2ef50000090565b60018114611c2e57600214611c2957600690565b600590565b50600490565b60018114611c4d57600214611c4857601490565b600a90565b5060059056feddf252ad1be2c89b69c2b068fc378daa952ba7f163c4a11628f55a4df523b3efa2646970667358221220da1aaf160e051452a60566c520f8d39d2746464a5fad5b9ab53bc86bc3b7dde264736f6c63430008110033",
  "linkReferences": {},
  "deployedLinkReferences": {}
}