{
  "_format": "hh-sol-artifact-1",
  "contractName": "DQCard",
  "sourceName": "src/DQProject.sol",
  "abi": [
    {
      "inputs": [],
      "stateMutability": "nonpayable",
      "type": "constructor"
    },
    {
      "anonymous": false,
      "inputs": [
        {
          "indexed": true,
          "internalType": "address",
          "name": "owner",
          "type": "address"
        },
        {
          "indexed": true,
          "internalType": "address",
          "name": "approved",
          "type": "address"
        },
        {
          "indexed": true,
          "internalType": "uint256",
          "name": "tokenId",
          "type": "uint256"
        }
      ],
      "name": "Approval",
      "type": "event"
    },
    {
      "anonymous": false,
      "inputs": [
        {
          "indexed": true,
          "internalType": "address",
          "name": "owner",
          "type": "address"
        },
        {
          "indexed": true,
          "internalType": "address",
          "name": "operator",
          "type": "address"
        },
        {
          "indexed": false,
          "internalType": "bool",
          "name": "approved",
          "type": "bool"
        }
      ],
      "name": "ApprovalForAll",
      "type": "event"
    },
    {
      "anonymous": false,
      "inputs": [
        {
          "indexed": true,
          "internalType": "address",
          "name": "previousOwner",
          "type": "address"
        },
        {
          "indexed": true,
          "internalType": "address",
          "name": "newOwner",
          "type": "address"
        }
      ],
      "name": "OwnershipTransferred",
      "type": "event"
    },
    {
      "anonymous": false,
      "inputs": [
        {
          "indexed": true,
          "internalType": "address",
          "name": "from",
          "type": "address"
        },
        {
          "indexed": true,
          "internalType": "address",
          "name": "to",
          "type": "address"
        },
        {
          "indexed": true,
          "internalType": "uint256",
          "name": "tokenId",
          "type": "uint256"
        }
      ],
      "name": "Transfer",
      "type": "event"
    },
    {
      "inputs": [],
      "name": "CARD_A",
      "outputs": [
        {
          "internalType": "uint256",
          "name": "",
          "type": "uint256"
        }
      ],
      "stateMutability": "view",
      "type": "function"
    },
    {
      "inputs": [],
      "name": "CARD_B",
      "outputs": [
        {
          "internalType": "uint256",
          "name": "",
          "type": "uint256"
        }
      ],
      "stateMutability": "view",
      "type": "function"
    },
    {
      "inputs": [],
      "name": "CARD_C",
      "outputs": [
        {
          "internalType": "uint256",
          "name": "",
          "type": "uint256"
        }
      ],
      "stateMutability": "view",
      "type": "function"
    },
    {
      "inputs": [],
      "name": "MAX_A",
      "outputs": [
        {
          "internalType": "uint256",
          "name": "",
          "type": "uint256"
        }
      ],
      "stateMutability": "view",
      "type": "function"
    },
    {
      "inputs": [],
      "name": "MAX_B",
      "outputs": [
        {
          "internalType": "uint256",
          "name": "",
          "type": "uint256"
        }
      ],
      "stateMutability": "view",
      "type": "function"
    },
    {
      "inputs": [],
      "name": "MAX_C",
      "outputs": [
        {
          "internalType": "uint256",
          "name": "",
          "type": "uint256"
        }
      ],
      "stateMutability": "view",
      "type": "function"
    },
    {
      "inputs": [],
      "name": "PRICE_A",
      "outputs": [
        {
          "internalType": "uint256",
          "name": "",
          "type": "uint256"
        }
      ],
      "stateMutability": "view",
      "type": "function"
    },
    {
      "inputs": [],
      "name": "PRICE_B",
      "outputs": [
        {
          "internalType": "uint256",
          "name": "",
          "type": "uint256"
        }
      ],
      "stateMutability": "view",
      "type": "function"
    },
    {
      "inputs": [],
      "name": "PRICE_C",
      "outputs": [
        {
          "internalType": "uint256",
          "name": "",
          "type": "uint256"
        }
      ],
      "stateMutability": "view",
      "type": "function"
    },
    {
      "inputs": [],
      "name": "WEIGHT_A",
      "outputs": [
        {
          "internalType": "uint256",
          "name": "",
          "type": "uint256"
        }
      ],
      "stateMutability": "view",
      "type": "function"
    },
    {
      "inputs": [],
      "name": "WEIGHT_B",
      "outputs": [
        {
          "internalType": "uint256",
          "name": "",
          "type": "uint256"
        }
      ],
      "stateMutability": "view",
      "type": "function"
    },
    {
      "inputs": [],
      "name": "WEIGHT_C",
      "outputs": [
        {
          "internalType": "uint256",
          "name": "",
          "type": "uint256"
        }
      ],
      "stateMutability": "view",
      "type": "function"
    },
    {
      "inputs": [
        {
          "internalType": "address",
          "name": "to",
          "type": "address"
        },
        {
          "internalType": "uint256",
          "name": "tokenId",
          "type": "uint256"
        }
      ],
      "name": "approve",
      "outputs": [],
      "stateMutability": "nonpayable",
      "type": "function"
    },
    {
      "inputs": [
        {
          "internalType": "address",
          "name": "owner",
          "type": "address"
        }
      ],
      "name": "balanceOf",
      "outputs": [
        {
          "internalType": "uint256",
          "name": "",
          "type": "uint256"
        }
      ],
      "stateMutability": "view",
      "type": "function"
    },
    {
      "inputs": [
        {
          "internalType": "uint256",
          "name": "",
          "type": "uint256"
        }
      ],
      "name": "cardType",
      "outputs": [
        {
          "internalType": "uint256",
          "name": "",
          "type": "uint256"
        }
      ],
      "stateMutability": "view",
      "type": "function"
    },
    {
      "inputs": [
        {
          "internalType": "uint256",
          "name": "tokenId",
          "type": "uint256"
        }
      ],
      "name": "getApproved",
      "outputs": [
        {
          "internalType": "address",
          "name": "",
          "type": "address"
        }
      ],
      "stateMutability": "view",
      "type": "function"
    },
    {
      "inputs": [
        {
          "internalType": "uint256",
          "name": "_type",
          "type": "uint256"
        }
      ],
      "name": "getCardPrice",
      "outputs": [
        {
          "internalType": "uint256",
          "name": "",
          "type": "uint256"
        }
      ],
      "stateMutability": "pure",
      "type": "function"
    },
    {
      "inputs": [
        {
          "internalType": "uint256",
          "name": "_type",
          "type": "uint256"
        }
      ],
      "name": "getCardWeight",
      "outputs": [
        {
          "internalType": "uint256",
          "name": "",
          "type": "uint256"
        }
      ],
      "stateMutability": "pure",
      "type": "function"
    },
    {
      "inputs": [
        {
          "internalType": "address",
          "name": "owner",
          "type": "address"
        },
        {
          "internalType": "address",
          "name": "operator",
          "type": "address"
        }
      ],
      "name": "isApprovedForAll",
      "outputs": [
        {
          "internalType": "bool",
          "name": "",
          "type": "bool"
        }
      ],
      "stateMutability": "view",
      "type": "function"
    },
    {
      "inputs": [
        {
          "internalType": "address",
          "name": "to",
          "type": "address"
        },
        {
          "internalType": "uint256",
          "name": "_type",
          "type": "uint256"
        }
      ],
      "name": "mintByOwner",
      "outputs": [],
      "stateMutability": "nonpayable",
      "type": "function"
    },
    {
      "inputs": [],
      "name": "name",
      "outputs": [
        {
          "internalType": "string",
          "name": "",
          "type": "string"
        }
      ],
      "stateMutability": "view",
      "type": "function"
    },
    {
      "inputs": [],
      "name": "owner",
      "outputs": [
        {
          "internalType": "address",
          "name": "",
          "type": "address"
        }
      ],
      "stateMutability": "view",
      "type": "function"
    },
    {
      "inputs": [
        {
          "internalType": "uint256",
          "name": "tokenId",
          "type": "uint256"
        }
      ],
      "name": "ownerOf",
      "outputs": [
        {
          "internalType": "address",
          "name": "",
          "type": "address"
        }
      ],
      "stateMutability": "view",
      "type": "function"
    },
    {
      "inputs": [],
      "name": "renounceOwnership",
      "outputs": [],
      "stateMutability": "nonpayable",
      "type": "function"
    },
    {
      "inputs": [
        {
          "internalType": "address",
          "name": "from",
          "type": "address"
        },
        {
          "internalType": "address",
          "name": "to",
          "type": "address"
        },
        {
          "internalType": "uint256",
          "name": "tokenId",
          "type": "uint256"
        }
      ],
      "name": "safeTransferFrom",
      "outputs": [],
      "stateMutability": "nonpayable",
      "type": "function"
    },
    {
      "inputs": [
        {
          "internalType": "address",
          "name": "from",
          "type": "address"
        },
        {
          "internalType": "address",
          "name": "to",
          "type": "address"
        },
        {
          "internalType": "uint256",
          "name": "tokenId",
          "type": "uint256"
        },
        {
          "internalType": "bytes",
          "name": "data",
          "type": "bytes"
        }
      ],
      "name": "safeTransferFrom",
      "outputs": [],
      "stateMutability": "nonpayable",
      "type": "function"
    },
    {
      "inputs": [
        {
          "internalType": "address",
          "name": "operator",
          "type": "address"
        },
        {
          "internalType": "bool",
          "name": "approved",
          "type": "bool"
        }
      ],
      "name": "setApprovalForAll",
      "outputs": [],
      "stateMutability": "nonpayable",
      "type": "function"
    },
    {
      "inputs": [
        {
          "internalType": "bytes4",
          "name": "interfaceId",
          "type": "bytes4"
        }
      ],
      "name": "supportsInterface",
      "outputs": [
        {
          "internalType": "bool",
          "name": "",
          "type": "bool"
        }
      ],
      "stateMutability": "view",
      "type": "function"
    },
    {
      "inputs": [],
      "name": "symbol",
      "outputs": [
        {
          "internalType": "string",
          "name": "",
          "type": "string"
        }
      ],
      "stateMutability": "view",
      "type": "function"
    },
    {
      "inputs": [
        {
          "internalType": "uint256",
          "name": "index",
          "type": "uint256"
        }
      ],
      "name": "tokenByIndex",
      "outputs": [
        {
          "internalType": "uint256",
          "name": "",
          "type": "uint256"
        }
      ],
      "stateMutability": "view",
      "type": "function"
    },
    {
      "inputs": [
        {
          "internalType": "address",
          "name": "owner",
          "type": "address"
        },
        {
          "internalType": "uint256",
          "name": "index",
          "type": "uint256"
        }
      ],
      "name": "tokenOfOwnerByIndex",
      "outputs": [
        {
          "internalType": "uint256",
          "name": "",
          "type": "uint256"
        }
      ],
      "stateMutability": "view",
      "type": "function"
    },
    {
      "inputs": [
        {
          "internalType": "uint256",
          "name": "tokenId",
          "type": "uint256"
        }
      ],
      "name": "tokenURI",
      "outputs": [
        {
          "internalType": "string",
          "name": "",
          "type": "string"
        }
      ],
      "stateMutability": "view",
      "type": "function"
    },
    {
      "inputs": [],
      "name": "totalA",
      "outputs": [
        {
          "internalType": "uint256",
          "name": "",
          "type": "uint256"
        }
      ],
      "stateMutability": "view",
      "type": "function"
    },
    {
      "inputs": [],
      "name": "totalB",
      "outputs": [
        {
          "internalType": "uint256",
          "name": "",
          "type": "uint256"
        }
      ],
      "stateMutability": "view",
      "type": "function"
    },
    {
      "inputs": [],
      "name": "totalC",
      "outputs": [
        {
          "internalType": "uint256",
          "name": "",
          "type": "uint256"
        }
      ],
      "stateMutability": "view",
      "type": "function"
    },
    {
      "inputs": [],
      "name": "totalSupply",
      "outputs": [
        {
          "internalType": "uint256",
          "name": "",
          "type": "uint256"
        }
      ],
      "stateMutability": "view",
      "type": "function"
    },
    {
      "inputs": [
        {
          "internalType": "address",
          "name": "from",
          "type": "address"
        },
        {
          "internalType": "address",
          "name": "to",
          "type": "address"
        },
        {
          "internalType": "uint256",
          "name": "tokenId",
          "type": "uint256"
        }
      ],
      "name": "transferFrom",
      "outputs": [],
      "stateMutability": "nonpayable",
      "type": "function"
    },
    {
      "inputs": [
        {
          "internalType": "address",
          "name": "newOwner",
          "type": "address"
        }
      ],
      "name": "transferOwnership",
      "outputs": [],
      "stateMutability": "nonpayable",
      "type": "function"
    }
  ],
  "bytecode": "0x60806040523480156200001157600080fd5b506040518060400160405280600781526020016611144810d85c9960ca1b8152506040518060400160405280600381526020016244514360e81b81525081600090816200005f91906200018c565b5060016200006e82826200018c565b5050506200008b620000856200009160201b60201c565b62000095565b62000258565b3390565b600a80546001600160a01b038381166001600160a01b0319831681179093556040519116919082907f8be0079c531659141344cd1fd0a4f28419497f9722a3daafe3b4186f6b6457e090600090a35050565b634e487b7160e01b600052604160045260246000fd5b600181811c908216806200011257607f821691505b6020821081036200013357634e487b7160e01b600052602260045260246000fd5b50919050565b601f8211156200018757600081815260208120601f850160051c81016020861015620001625750805b601f850160051c820191505b8181101562000183578281556001016200016e565b5050505b505050565b81516001600160401b03811115620001a857620001a8620000e7565b620001c081620001b98454620000fd565b8462000139565b602080601f831160018114620001f85760008415620001df5750858301515b600019600386901b1c1916600185901b17855562000183565b600085815260208120601f198616915b82811015620002295788860151825594840194600190910190840162000208565b5085821015620002485787850151600019600388901b60f8161c191681555b5050505050600190811b01905550565b611f7f80620002686000396000f3fe608060405234801561001057600080fd5b50600436106102325760003560e01c80636866537d11610130578063b629640b116100b8578063e985e9c51161007c578063e985e9c514610455578063f01eab2414610491578063f26841bd14610499578063f2fde38b146104a1578063fcf49adf146104b457600080fd5b8063b629640b14610415578063b88d4fde1461041e578063bc1e402314610431578063c87b56dd14610439578063d15dfe2d1461044c57600080fd5b80638485391a116100ff5780638485391a146103cd5780638da5cb5b146103d6578063940e689d146103e757806395d89b41146103fa578063a22cb4651461040257600080fd5b80636866537d1461038e57806370a08231146103a1578063715018a6146103b457806373cda3e4146103bc57600080fd5b806320083b89116101be57806342842e0e1161018257806342842e0e1461033d5780634f6ccce71461035057806352b03c2f1461036357806353d794471461036b5780636352211e1461037b57600080fd5b806320083b89146102f357806323b872dd146102fb5780632f745c591461030e5780633542aee214610321578063396984151461033457600080fd5b806313eeea081161020557806313eeea08146102b457806315ad6f61146102d257806318160ddd146102da57806318a8ac77146102e2578063193491b5146102ea57600080fd5b806301ffc9a71461023757806306fdde031461025f578063081812fc14610274578063095ea7b31461029f575b600080fd5b61024a610245366004611a35565b6104d4565b60405190151581526020015b60405180910390f35b6102676104ff565b6040516102569190611aa2565b610287610282366004611ab5565b610591565b6040516001600160a01b039091168152602001610256565b6102b26102ad366004611aea565b6105b8565b005b6102c4681b1ae4d6e2ef50000081565b604051908152602001610256565b6102c4600281565b6008546102c4565b6102c4600381565b6102c4600c5481565b6102c4600581565b6102b2610309366004611b14565b6106d2565b6102c461031c366004611aea565b610703565b6102b261032f366004611aea565b610799565b6102c46103e881565b6102b261034b366004611b14565b6107af565b6102c461035e366004611ab5565b6107ca565b6102c4600181565b6102c4685150ae84a8cdf0000081565b610287610389366004611ab5565b61085d565b6102c461039c366004611ab5565b6108bd565b6102c46103af366004611b50565b610900565b6102b2610986565b6102c469010f0cf064dd5920000081565b6102c46101f481565b600a546001600160a01b0316610287565b6102c46103f5366004611ab5565b61099a565b6102676109c4565b6102b2610410366004611b6b565b6109d3565b6102c4600b5481565b6102b261042c366004611bbd565b6109de565b6102c4600481565b610267610447366004611ab5565b610a16565b6102c4600d5481565b61024a610463366004611c99565b6001600160a01b03918216600090815260056020908152604080832093909416825291909152205460ff1690565b6102c4600681565b6102c4606481565b6102b26104af366004611b50565b610a8a565b6102c46104c2366004611ab5565b600e6020526000908152604090205481565b60006001600160e01b0319821663780e9d6360e01b14806104f957506104f982610b03565b92915050565b60606000805461050e90611ccc565b80601f016020809104026020016040519081016040528092919081815260200182805461053a90611ccc565b80156105875780601f1061055c57610100808354040283529160200191610587565b820191906000526020600020905b81548152906001019060200180831161056a57829003601f168201915b5050505050905090565b600061059c82610b53565b506000908152600460205260409020546001600160a01b031690565b60006105c38261085d565b9050806001600160a01b0316836001600160a01b0316036106355760405162461bcd60e51b815260206004820152602160248201527f4552433732313a20617070726f76616c20746f2063757272656e74206f776e656044820152603960f91b60648201526084015b60405180910390fd5b336001600160a01b038216148061065157506106518133610463565b6106c35760405162461bcd60e51b815260206004820152603d60248201527f4552433732313a20617070726f76652063616c6c6572206973206e6f7420746f60448201527f6b656e206f776e6572206f7220617070726f76656420666f7220616c6c000000606482015260840161062c565b6106cd8383610bb2565b505050565b6106dc3382610c20565b6106f85760405162461bcd60e51b815260040161062c90611d06565b6106cd838383610c9f565b600061070e83610900565b82106107705760405162461bcd60e51b815260206004820152602b60248201527f455243373231456e756d657261626c653a206f776e657220696e646578206f7560448201526a74206f6620626f756e647360a81b606482015260840161062c565b506001600160a01b03919091166000908152600660209081526040808320938352929052205490565b6107a1610e10565b6107ab8282610e6a565b5050565b6106cd838383604051806020016040528060008152506109de565b60006107d560085490565b82106108385760405162461bcd60e51b815260206004820152602c60248201527f455243373231456e756d657261626c653a20676c6f62616c20696e646578206f60448201526b7574206f6620626f756e647360a01b606482015260840161062c565b6008828154811061084b5761084b611d53565b90600052602060002001549050919050565b6000818152600260205260408120546001600160a01b0316806104f95760405162461bcd60e51b8152602060048201526018602482015277115490cdcc8c4e881a5b9d985b1a59081d1bdad95b88125160421b604482015260640161062c565b6000600182036108d75750681b1ae4d6e2ef500000919050565b600282036108ef5750685150ae84a8cdf00000919050565b5069010f0cf064dd59200000919050565b60006001600160a01b03821661096a5760405162461bcd60e51b815260206004820152602960248201527f4552433732313a2061646472657373207a65726f206973206e6f7420612076616044820152683634b21037bbb732b960b91b606482015260840161062c565b506001600160a01b031660009081526003602052604090205490565b61098e610e10565b6109986000611019565b565b6000600182036109ac57506004919050565b600282036109bc57506005919050565b506006919050565b60606001805461050e90611ccc565b6107ab33838361106b565b6109e83383610c20565b610a045760405162461bcd60e51b815260040161062c90611d06565b610a1084848484611139565b50505050565b6060610a2182610b53565b6000610a3860408051602081019091526000815290565b90506000815111610a585760405180602001604052806000815250610a83565b80610a628461116c565b604051602001610a73929190611d69565b6040516020818303038152906040525b9392505050565b610a92610e10565b6001600160a01b038116610af75760405162461bcd60e51b815260206004820152602660248201527f4f776e61626c653a206e6577206f776e657220697320746865207a65726f206160448201526564647265737360d01b606482015260840161062c565b610b0081611019565b50565b60006001600160e01b031982166380ac58cd60e01b1480610b3457506001600160e01b03198216635b5e139f60e01b145b806104f957506301ffc9a760e01b6001600160e01b03198316146104f9565b6000818152600260205260409020546001600160a01b0316610b005760405162461bcd60e51b8152602060048201526018602482015277115490cdcc8c4e881a5b9d985b1a59081d1bdad95b88125160421b604482015260640161062c565b600081815260046020526040902080546001600160a01b0319166001600160a01b0384169081179091558190610be78261085d565b6001600160a01b03167f8c5be1e5ebec7d5bd14f71427d1e84f3dd0314c0f7b2291e5b200ac8c7c3b92560405160405180910390a45050565b600080610c2c8361085d565b9050806001600160a01b0316846001600160a01b03161480610c7357506001600160a01b0380821660009081526005602090815260408083209388168352929052205460ff165b80610c975750836001600160a01b0316610c8c84610591565b6001600160a01b0316145b949350505050565b826001600160a01b0316610cb28261085d565b6001600160a01b031614610cd85760405162461bcd60e51b815260040161062c90611d98565b6001600160a01b038216610d3a5760405162461bcd60e51b8152602060048201526024808201527f4552433732313a207472616e7366657220746f20746865207a65726f206164646044820152637265737360e01b606482015260840161062c565b610d4783838360016111ff565b826001600160a01b0316610d5a8261085d565b6001600160a01b031614610d805760405162461bcd60e51b815260040161062c90611d98565b600081815260046020908152604080832080546001600160a01b03199081169091556001600160a01b0387811680865260038552838620805460001901905590871680865283862080546001019055868652600290945282852080549092168417909155905184937fddf252ad1be2c89b69c2b068fc378daa952ba7f163c4a11628f55a4df523b3ef91a4505050565b600a546001600160a01b031633146109985760405162461bcd60e51b815260206004820181905260248201527f4f776e61626c653a2063616c6c6572206973206e6f7420746865206f776e6572604482015260640161062c565b60018110158015610e7c575060038111155b610eb75760405162461bcd60e51b815260206004820152600c60248201526b696e76616c6964207479706560a01b604482015260640161062c565b60018103610f19576103e8600b5410610eff5760405162461bcd60e51b815260206004820152600a60248201526910481cdbdb19081bdd5d60b21b604482015260640161062c565b600b8054906000610f0f83611df3565b9190505550610fc6565b60028103610f71576101f4600c5410610f615760405162461bcd60e51b815260206004820152600a60248201526910881cdbdb19081bdd5d60b21b604482015260640161062c565b600c8054906000610f0f83611df3565b6064600d5410610fb05760405162461bcd60e51b815260206004820152600a60248201526910c81cdbdb19081bdd5d60b21b604482015260640161062c565b600d8054906000610fc083611df3565b91905055505b6000610fd160085490565b610fdc906001611e0c565b9050610fe88382611297565b6000818152600e602090815260408083208590556001600160a01b0386168352600f9091529020610a1090826112b1565b600a80546001600160a01b038381166001600160a01b0319831681179093556040519116919082907f8be0079c531659141344cd1fd0a4f28419497f9722a3daafe3b4186f6b6457e090600090a35050565b816001600160a01b0316836001600160a01b0316036110cc5760405162461bcd60e51b815260206004820152601960248201527f4552433732313a20617070726f766520746f2063616c6c657200000000000000604482015260640161062c565b6001600160a01b03838116600081815260056020908152604080832094871680845294825291829020805460ff191686151590811790915591519182527f17307eab39ab6107e8899845ad3d59bd9653f200f220920489ca2b5937696c31910160405180910390a3505050565b611144848484610c9f565b611150848484846112bd565b610a105760405162461bcd60e51b815260040161062c90611e1f565b60606000611179836113be565b600101905060008167ffffffffffffffff81111561119957611199611ba7565b6040519080825280601f01601f1916602001820160405280156111c3576020820181803683370190505b5090508181016020015b600019016f181899199a1a9b1b9c1cb0b131b232b360811b600a86061a8153600a85049450846111cd57509392505050565b61120b84848484611496565b600181111561122c5760405162461bcd60e51b815260040161062c90611e71565b6001600160a01b0384161561125f576001600160a01b0384166000908152600f6020526040902061125d9083611575565b505b6001600160a01b03831615610a10576001600160a01b0383166000908152600f6020526040902061129090836112b1565b5050505050565b6107ab828260405180602001604052806000815250611581565b6000610a8383836115b4565b60006001600160a01b0384163b156113b357604051630a85bd0160e11b81526001600160a01b0385169063150b7a0290611301903390899088908890600401611ec6565b6020604051808303816000875af192505050801561133c575060408051601f3d908101601f1916820190925261133991810190611f03565b60015b611399573d80801561136a576040519150601f19603f3d011682016040523d82523d6000602084013e61136f565b606091505b5080516000036113915760405162461bcd60e51b815260040161062c90611e1f565b805181602001fd5b6001600160e01b031916630a85bd0160e11b149050610c97565b506001949350505050565b60008072184f03e93ff9f4daa797ed6e38ed64bf6a1f0160401b83106113fd5772184f03e93ff9f4daa797ed6e38ed64bf6a1f0160401b830492506040015b6d04ee2d6d415b85acef81000000008310611429576d04ee2d6d415b85acef8100000000830492506020015b662386f26fc10000831061144757662386f26fc10000830492506010015b6305f5e100831061145f576305f5e100830492506008015b612710831061147357612710830492506004015b60648310611485576064830492506002015b600a83106104f95760010192915050565b60018111156114b75760405162461bcd60e51b815260040161062c90611e71565b816001600160a01b0385166115135761150e81600880546000838152600960205260408120829055600182018355919091527ff3f7a9fe364faab93b216da50a3214154f22a0a2b415b23a84c8169e8b636ee30155565b611536565b836001600160a01b0316856001600160a01b031614611536576115368582611603565b6001600160a01b0384166115525761154d816116a0565b611290565b846001600160a01b0316846001600160a01b03161461129057611290848261174f565b6000610a838383611793565b61158b8383611886565b61159860008484846112bd565b6106cd5760405162461bcd60e51b815260040161062c90611e1f565b60008181526001830160205260408120546115fb575081546001818101845560008481526020808220909301849055845484825282860190935260409020919091556104f9565b5060006104f9565b6000600161161084610900565b61161a9190611f20565b60008381526007602052604090205490915080821461166d576001600160a01b03841660009081526006602090815260408083208584528252808320548484528184208190558352600790915290208190555b5060009182526007602090815260408084208490556001600160a01b039094168352600681528383209183525290812055565b6008546000906116b290600190611f20565b600083815260096020526040812054600880549394509092849081106116da576116da611d53565b9060005260206000200154905080600883815481106116fb576116fb611d53565b600091825260208083209091019290925582815260099091526040808220849055858252812055600880548061173357611733611f33565b6001900381819060005260206000200160009055905550505050565b600061175a83610900565b6001600160a01b039093166000908152600660209081526040808320868452825280832085905593825260079052919091209190915550565b6000818152600183016020526040812054801561187c5760006117b7600183611f20565b85549091506000906117cb90600190611f20565b90508181146118305760008660000182815481106117eb576117eb611d53565b906000526020600020015490508087600001848154811061180e5761180e611d53565b6000918252602080832090910192909255918252600188019052604090208390555b855486908061184157611841611f33565b6001900381819060005260206000200160009055905585600101600086815260200190815260200160002060009055600193505050506104f9565b60009150506104f9565b6001600160a01b0382166118dc5760405162461bcd60e51b815260206004820181905260248201527f4552433732313a206d696e7420746f20746865207a65726f2061646472657373604482015260640161062c565b6000818152600260205260409020546001600160a01b0316156119415760405162461bcd60e51b815260206004820152601c60248201527f4552433732313a20746f6b656e20616c7265616479206d696e74656400000000604482015260640161062c565b61194f6000838360016111ff565b6000818152600260205260409020546001600160a01b0316156119b45760405162461bcd60e51b815260206004820152601c60248201527f4552433732313a20746f6b656e20616c7265616479206d696e74656400000000604482015260640161062c565b6001600160a01b038216600081815260036020908152604080832080546001019055848352600290915280822080546001600160a01b0319168417905551839291907fddf252ad1be2c89b69c2b068fc378daa952ba7f163c4a11628f55a4df523b3ef908290a45050565b6001600160e01b031981168114610b0057600080fd5b600060208284031215611a4757600080fd5b8135610a8381611a1f565b60005b83811015611a6d578181015183820152602001611a55565b50506000910152565b60008151808452611a8e816020860160208601611a52565b601f01601f19169290920160200192915050565b602081526000610a836020830184611a76565b600060208284031215611ac757600080fd5b5035919050565b80356001600160a01b0381168114611ae557600080fd5b919050565b60008060408385031215611afd57600080fd5b611b0683611ace565b946020939093013593505050565b600080600060608486031215611b2957600080fd5b611b3284611ace565b9250611b4060208501611ace565b9150604084013590509250925092565b600060208284031215611b6257600080fd5b610a8382611ace565b60008060408385031215611b7e57600080fd5b611b8783611ace565b915060208301358015158114611b9c57600080fd5b809150509250929050565b634e487b7160e01b600052604160045260246000fd5b60008060008060808587031215611bd357600080fd5b611bdc85611ace565b9350611bea60208601611ace565b925060408501359150606085013567ffffffffffffffff80821115611c0e57600080fd5b818701915087601f830112611c2257600080fd5b813581811115611c3457611c34611ba7565b604051601f8201601f19908116603f01168101908382118183101715611c5c57611c5c611ba7565b816040528281528a6020848701011115611c7557600080fd5b82602086016020830137600060208483010152809550505050505092959194509250565b60008060408385031215611cac57600080fd5b611cb583611ace565b9150611cc360208401611ace565b90509250929050565b600181811c90821680611ce057607f821691505b602082108103611d0057634e487b7160e01b600052602260045260246000fd5b50919050565b6020808252602d908201527f4552433732313a2063616c6c6572206973206e6f7420746f6b656e206f776e6560408201526c1c881bdc88185c1c1c9bdd9959609a1b606082015260800190565b634e487b7160e01b600052603260045260246000fd5b60008351611d7b818460208801611a52565b835190830190611d8f818360208801611a52565b01949350505050565b60208082526025908201527f4552433732313a207472616e736665722066726f6d20696e636f72726563742060408201526437bbb732b960d91b606082015260800190565b634e487b7160e01b600052601160045260246000fd5b600060018201611e0557611e05611ddd565b5060010190565b808201808211156104f9576104f9611ddd565b60208082526032908201527f4552433732313a207472616e7366657220746f206e6f6e20455243373231526560408201527131b2b4bb32b91034b6b83632b6b2b73a32b960711b606082015260800190565b60208082526035908201527f455243373231456e756d657261626c653a20636f6e7365637574697665207472604082015274185b9cd9995c9cc81b9bdd081cdd5c1c1bdc9d1959605a1b606082015260800190565b6001600160a01b0385811682528416602082015260408101839052608060608201819052600090611ef990830184611a76565b9695505050505050565b600060208284031215611f1557600080fd5b8151610a8381611a1f565b818103818111156104f9576104f9611ddd565b634e487b7160e01b600052603160045260246000fdfea2646970667358221220bc1ffa10a4c9b5f8b17e4e43309a12f8455061f569ee1436aa616bb412db873264736f6c63430008110033",
  "linkReferences": {},
  "deployedLinkReferences": {}
}