{
  "_format": "hh-sol-artifact-1",
  "contractName": "DQCard",
  "sourceName": "src/DQProject.sol",
  "abi": [
    {
      "inputs": [],
      "stateMutability": "nonpayable",
      "type": "constructor"
    },
    {
      "anonymous": false,
      "inputs": [
        {
          "indexed": true,
          "internalType": "address",
          "name": "owner",
          "type": "address"
        },
        {
          "indexed": true,
          "internalType": "address",
          "name": "approved",
          "type": "address"
        },
        {
          "indexed": true,
          "internalType": "uint256",
          "name": "tokenId",
          "type": "uint256"
        }
      ],
      "name": "Approval",
      "type": "event"
    },
    {
      "anonymous": false,
      "inputs": [
        {
          "indexed": true,
          "internalType": "address",
          "name": "owner",
          "type": "address"
        },
        {
          "indexed": true,
          "internalType": "address",
          "name": "operator",
          "type": "address"
        },
        {
          "indexed": false,
          "internalType": "bool",
          "name": "approved",
          "type": "bool"
        }
      ],
      "name": "ApprovalForAll",
      "type": "event"
    },
    {
      "anonymous": false,
      "inputs": [
        {
          "indexed": true,
          "internalType": "address",
          "name": "previousOwner",
          "type": "address"
        },
        {
          "indexed": true,
          "internalType": "address",
          "name": "newOwner",
          "type": "address"
        }
      ],
      "name": "OwnershipTransferred",
      "type": "event"
    },
    {
      "anonymous": false,
      "inputs": [
        {
          "indexed": true,
          "internalType": "address",
          "name": "from",
          "type": "address"
        },
        {
          "indexed": true,
          "internalType": "address",
          "name": "to",
          "type": "address"
        },
        {
          "indexed": true,
          "internalType": "uint256",
          "name": "tokenId",
          "type": "uint256"
        }
      ],
      "name": "Transfer",
      "type": "event"
    },
    {
      "inputs": [],
      "name": "CARD_A",
      "outputs": [
        {
          "internalType": "uint256",
          "name": "",
          "type": "uint256"
        }
      ],
      "stateMutability": "view",
      "type": "function"
    },
    {
      "inputs": [],
      "name": "CARD_B",
      "outputs": [
        {
          "internalType": "uint256",
          "name": "",
          "type": "uint256"
        }
      ],
      "stateMutability": "view",
      "type": "function"
    },
    {
      "inputs": [],
      "name": "CARD_C",
      "outputs": [
        {
          "internalType": "uint256",
          "name": "",
          "type": "uint256"
        }
      ],
      "stateMutability": "view",
      "type": "function"
    },
    {
      "inputs": [],
      "name": "LINE_A",
      "outputs": [
        {
          "internalType": "uint256",
          "name": "",
          "type": "uint256"
        }
      ],
      "stateMutability": "view",
      "type": "function"
    },
    {
      "inputs": [],
      "name": "LINE_B",
      "outputs": [
        {
          "internalType": "uint256",
          "name": "",
          "type": "uint256"
        }
      ],
      "stateMutability": "view",
      "type": "function"
    },
    {
      "inputs": [],
      "name": "LINE_C",
      "outputs": [
        {
          "internalType": "uint256",
          "name": "",
          "type": "uint256"
        }
      ],
      "stateMutability": "view",
      "type": "function"
    },
    {
      "inputs": [],
      "name": "MAX_A",
      "outputs": [
        {
          "internalType": "uint256",
          "name": "",
          "type": "uint256"
        }
      ],
      "stateMutability": "view",
      "type": "function"
    },
    {
      "inputs": [],
      "name": "MAX_B",
      "outputs": [
        {
          "internalType": "uint256",
          "name": "",
          "type": "uint256"
        }
      ],
      "stateMutability": "view",
      "type": "function"
    },
    {
      "inputs": [],
      "name": "MAX_C",
      "outputs": [
        {
          "internalType": "uint256",
          "name": "",
          "type": "uint256"
        }
      ],
      "stateMutability": "view",
      "type": "function"
    },
    {
      "inputs": [],
      "name": "PRICE_A",
      "outputs": [
        {
          "internalType": "uint256",
          "name": "",
          "type": "uint256"
        }
      ],
      "stateMutability": "view",
      "type": "function"
    },
    {
      "inputs": [],
      "name": "PRICE_B",
      "outputs": [
        {
          "internalType": "uint256",
          "name": "",
          "type": "uint256"
        }
      ],
      "stateMutability": "view",
      "type": "function"
    },
    {
      "inputs": [],
      "name": "PRICE_C",
      "outputs": [
        {
          "internalType": "uint256",
          "name": "",
          "type": "uint256"
        }
      ],
      "stateMutability": "view",
      "type": "function"
    },
    {
      "inputs": [],
      "name": "WEIGHT_A",
      "outputs": [
        {
          "internalType": "uint256",
          "name": "",
          "type": "uint256"
        }
      ],
      "stateMutability": "view",
      "type": "function"
    },
    {
      "inputs": [],
      "name": "WEIGHT_B",
      "outputs": [
        {
          "internalType": "uint256",
          "name": "",
          "type": "uint256"
        }
      ],
      "stateMutability": "view",
      "type": "function"
    },
    {
      "inputs": [],
      "name": "WEIGHT_C",
      "outputs": [
        {
          "internalType": "uint256",
          "name": "",
          "type": "uint256"
        }
      ],
      "stateMutability": "view",
      "type": "function"
    },
    {
      "inputs": [
        {
          "internalType": "address",
          "name": "to",
          "type": "address"
        },
        {
          "internalType": "uint256",
          "name": "tokenId",
          "type": "uint256"
        }
      ],
      "name": "approve",
      "outputs": [],
      "stateMutability": "nonpayable",
      "type": "function"
    },
    {
      "inputs": [
        {
          "internalType": "address",
          "name": "owner",
          "type": "address"
        }
      ],
      "name": "balanceOf",
      "outputs": [
        {
          "internalType": "uint256",
          "name": "",
          "type": "uint256"
        }
      ],
      "stateMutability": "view",
      "type": "function"
    },
    {
      "inputs": [
        {
          "internalType": "uint256",
          "name": "",
          "type": "uint256"
        }
      ],
      "name": "cardType",
      "outputs": [
        {
          "internalType": "uint256",
          "name": "",
          "type": "uint256"
        }
      ],
      "stateMutability": "view",
      "type": "function"
    },
    {
      "inputs": [
        {
          "internalType": "uint256",
          "name": "tokenId",
          "type": "uint256"
        }
      ],
      "name": "getApproved",
      "outputs": [
        {
          "internalType": "address",
          "name": "",
          "type": "address"
        }
      ],
      "stateMutability": "view",
      "type": "function"
    },
    {
      "inputs": [
        {
          "internalType": "uint256",
          "name": "_type",
          "type": "uint256"
        }
      ],
      "name": "getCardPrice",
      "outputs": [
        {
          "internalType": "uint256",
          "name": "",
          "type": "uint256"
        }
      ],
      "stateMutability": "pure",
      "type": "function"
    },
    {
      "inputs": [
        {
          "internalType": "uint256",
          "name": "_type",
          "type": "uint256"
        }
      ],
      "name": "getCardWeight",
      "outputs": [
        {
          "internalType": "uint256",
          "name": "",
          "type": "uint256"
        }
      ],
      "stateMutability": "pure",
      "type": "function"
    },
    {
      "inputs": [
        {
          "internalType": "uint256",
          "name": "_type",
          "type": "uint256"
        }
      ],
      "name": "getRequiredLines",
      "outputs": [
        {
          "internalType": "uint256",
          "name": "",
          "type": "uint256"
        }
      ],
      "stateMutability": "pure",
      "type": "function"
    },
    {
      "inputs": [
        {
          "internalType": "address",
          "name": "owner",
          "type": "address"
        },
        {
          "internalType": "address",
          "name": "operator",
          "type": "address"
        }
      ],
      "name": "isApprovedForAll",
      "outputs": [
        {
          "internalType": "bool",
          "name": "",
          "type": "bool"
        }
      ],
      "stateMutability": "view",
      "type": "function"
    },
    {
      "inputs": [
        {
          "internalType": "address",
          "name": "to",
          "type": "address"
        },
        {
          "internalType": "uint256",
          "name": "_type",
          "type": "uint256"
        }
      ],
      "name": "mintByOwner",
      "outputs": [],
      "stateMutability": "nonpayable",
      "type": "function"
    },
    {
      "inputs": [],
      "name": "name",
      "outputs": [
        {
          "internalType": "string",
          "name": "",
          "type": "string"
        }
      ],
      "stateMutability": "view",
      "type": "function"
    },
    {
      "inputs": [],
      "name": "owner",
      "outputs": [
        {
          "internalType": "address",
          "name": "",
          "type": "address"
        }
      ],
      "stateMutability": "view",
      "type": "function"
    },
    {
      "inputs": [
        {
          "internalType": "uint256",
          "name": "tokenId",
          "type": "uint256"
        }
      ],
      "name": "ownerOf",
      "outputs": [
        {
          "internalType": "address",
          "name": "",
          "type": "address"
        }
      ],
      "stateMutability": "view",
      "type": "function"
    },
    {
      "inputs": [],
      "name": "renounceOwnership",
      "outputs": [],
      "stateMutability": "nonpayable",
      "type": "function"
    },
    {
      "inputs": [
        {
          "internalType": "address",
          "name": "from",
          "type": "address"
        },
        {
          "internalType": "address",
          "name": "to",
          "type": "address"
        },
        {
          "internalType": "uint256",
          "name": "tokenId",
          "type": "uint256"
        }
      ],
      "name": "safeTransferFrom",
      "outputs": [],
      "stateMutability": "nonpayable",
      "type": "function"
    },
    {
      "inputs": [
        {
          "internalType": "address",
          "name": "from",
          "type": "address"
        },
        {
          "internalType": "address",
          "name": "to",
          "type": "address"
        },
        {
          "internalType": "uint256",
          "name": "tokenId",
          "type": "uint256"
        },
        {
          "internalType": "bytes",
          "name": "data",
          "type": "bytes"
        }
      ],
      "name": "safeTransferFrom",
      "outputs": [],
      "stateMutability": "nonpayable",
      "type": "function"
    },
    {
      "inputs": [
        {
          "internalType": "address",
          "name": "operator",
          "type": "address"
        },
        {
          "internalType": "bool",
          "name": "approved",
          "type": "bool"
        }
      ],
      "name": "setApprovalForAll",
      "outputs": [],
      "stateMutability": "nonpayable",
      "type": "function"
    },
    {
      "inputs": [
        {
          "internalType": "bytes4",
          "name": "interfaceId",
          "type": "bytes4"
        }
      ],
      "name": "supportsInterface",
      "outputs": [
        {
          "internalType": "bool",
          "name": "",
          "type": "bool"
        }
      ],
      "stateMutability": "view",
      "type": "function"
    },
    {
      "inputs": [],
      "name": "symbol",
      "outputs": [
        {
          "internalType": "string",
          "name": "",
          "type": "string"
        }
      ],
      "stateMutability": "view",
      "type": "function"
    },
    {
      "inputs": [
        {
          "internalType": "uint256",
          "name": "index",
          "type": "uint256"
        }
      ],
      "name": "tokenByIndex",
      "outputs": [
        {
          "internalType": "uint256",
          "name": "",
          "type": "uint256"
        }
      ],
      "stateMutability": "view",
      "type": "function"
    },
    {
      "inputs": [
        {
          "internalType": "address",
          "name": "owner",
          "type": "address"
        },
        {
          "internalType": "uint256",
          "name": "index",
          "type": "uint256"
        }
      ],
      "name": "tokenOfOwnerByIndex",
      "outputs": [
        {
          "internalType": "uint256",
          "name": "",
          "type": "uint256"
        }
      ],
      "stateMutability": "view",
      "type": "function"
    },
    {
      "inputs": [
        {
          "internalType": "uint256",
          "name": "tokenId",
          "type": "uint256"
        }
      ],
      "name": "tokenURI",
      "outputs": [
        {
          "internalType": "string",
          "name": "",
          "type": "string"
        }
      ],
      "stateMutability": "view",
      "type": "function"
    },
    {
      "inputs": [],
      "name": "totalA",
      "outputs": [
        {
          "internalType": "uint256",
          "name": "",
          "type": "uint256"
        }
      ],
      "stateMutability": "view",
      "type": "function"
    },
    {
      "inputs": [],
      "name": "totalB",
      "outputs": [
        {
          "internalType": "uint256",
          "name": "",
          "type": "uint256"
        }
      ],
      "stateMutability": "view",
      "type": "function"
    },
    {
      "inputs": [],
      "name": "totalC",
      "outputs": [
        {
          "internalType": "uint256",
          "name": "",
          "type": "uint256"
        }
      ],
      "stateMutability": "view",
      "type": "function"
    },
    {
      "inputs": [],
      "name": "totalSupply",
      "outputs": [
        {
          "internalType": "uint256",
          "name": "",
          "type": "uint256"
        }
      ],
      "stateMutability": "view",
      "type": "function"
    },
    {
      "inputs": [
        {
          "internalType": "address",
          "name": "from",
          "type": "address"
        },
        {
          "internalType": "address",
          "name": "to",
          "type": "address"
        },
        {
          "internalType": "uint256",
          "name": "tokenId",
          "type": "uint256"
        }
      ],
      "name": "transferFrom",
      "outputs": [],
      "stateMutability": "nonpayable",
      "type": "function"
    },
    {
      "inputs": [
        {
          "internalType": "address",
          "name": "newOwner",
          "type": "address"
        }
      ],
      "name": "transferOwnership",
      "outputs": [],
      "stateMutability": "nonpayable",
      "type": "function"
    }
  ],
  "bytecode": "0x60806040523480156200001157600080fd5b506040518060400160405280600781526020016611144810d85c9960ca1b8152506040518060400160405280600381526020016244514360e81b81525081600090816200005f91906200018c565b5060016200006e82826200018c565b5050506200008b620000856200009160201b60201c565b62000095565b62000258565b3390565b600a80546001600160a01b038381166001600160a01b0319831681179093556040519116919082907f8be0079c531659141344cd1fd0a4f28419497f9722a3daafe3b4186f6b6457e090600090a35050565b634e487b7160e01b600052604160045260246000fd5b600181811c908216806200011257607f821691505b6020821081036200013357634e487b7160e01b600052602260045260246000fd5b50919050565b601f8211156200018757600081815260208120601f850160051c81016020861015620001625750805b601f850160051c820191505b8181101562000183578281556001016200016e565b5050505b505050565b81516001600160401b03811115620001a857620001a8620000e7565b620001c081620001b98454620000fd565b8462000139565b602080601f831160018114620001f85760008415620001df5750858301515b600019600386901b1c1916600185901b17855562000183565b600085815260208120601f198616915b82811015620002295788860151825594840194600190910190840162000208565b5085821015620002485787850151600019600388901b60f8161c191681555b5050505050600190811b01905550565b611ff880620002686000396000f3fe608060405234801561001057600080fd5b506004361061025e5760003560e01c806370a0823111610146578063b629640b116100c3578063d15dfe2d11610087578063d15dfe2d1461049b578063e985e9c5146104a4578063f01eab24146104e0578063f26841bd146104e8578063f2fde38b146104f0578063fcf49adf1461050357600080fd5b8063b629640b1461045c578063b88d4fde14610465578063bc1e402314610478578063bec6876514610480578063c87b56dd1461048857600080fd5b80638c53fa801161010a5780638c53fa801461040a5780638da5cb5b1461041d578063940e689d1461042e57806395d89b4114610441578063a22cb4651461044957600080fd5b806370a08231146103d5578063715018a6146103e857806373cda3e4146103f0578063800c33cd146103275780638485391a1461040157600080fd5b806320083b89116101df57806342842e0e116101a357806342842e0e146103715780634f6ccce71461038457806352b03c2f1461039757806353d794471461039f5780636352211e146103af5780636866537d146103c257600080fd5b806320083b891461032757806323b872dd1461032f5780632f745c59146103425780633542aee214610355578063396984151461036857600080fd5b806313eeea081161022657806313eeea08146102f657806315ad6f611461030657806318160ddd1461030e57806318a8ac7714610316578063193491b51461031e57600080fd5b806301ffc9a71461026357806306fdde031461028b578063081812fc146102a0578063095ea7b3146102cb57806310dcf285146102e0575b600080fd5b610276610271366004611aae565b610523565b60405190151581526020015b60405180910390f35b61029361054e565b6040516102829190611b1b565b6102b36102ae366004611b2e565b6105e0565b6040516001600160a01b039091168152602001610282565b6102de6102d9366004611b63565b610607565b005b6102e8601481565b604051908152602001610282565b6102e8681b1ae4d6e2ef50000081565b6102e8600281565b6008546102e8565b6102e8600381565b6102e8600c5481565b6102e8600581565b6102de61033d366004611b8d565b610721565b6102e8610350366004611b63565b610752565b6102de610363366004611b63565b6107e8565b6102e86103e881565b6102de61037f366004611b8d565b6107fe565b6102e8610392366004611b2e565b610819565b6102e8600181565b6102e8685150ae84a8cdf0000081565b6102b36103bd366004611b2e565b6108ac565b6102e86103d0366004611b2e565b61090c565b6102e86103e3366004611bc9565b61094f565b6102de6109d5565b6102e869010f0cf064dd5920000081565b6102e86101f481565b6102e8610418366004611b2e565b6109e9565b600a546001600160a01b03166102b3565b6102e861043c366004611b2e565b610a13565b610293610a3d565b6102de610457366004611be4565b610a4c565b6102e8600b5481565b6102de610473366004611c36565b610a57565b6102e8600481565b6102e8600a81565b610293610496366004611b2e565b610a8f565b6102e8600d5481565b6102766104b2366004611d12565b6001600160a01b03918216600090815260056020908152604080832093909416825291909152205460ff1690565b6102e8600681565b6102e8606481565b6102de6104fe366004611bc9565b610b03565b6102e8610511366004611b2e565b600e6020526000908152604090205481565b60006001600160e01b0319821663780e9d6360e01b1480610548575061054882610b7c565b92915050565b60606000805461055d90611d45565b80601f016020809104026020016040519081016040528092919081815260200182805461058990611d45565b80156105d65780601f106105ab576101008083540402835291602001916105d6565b820191906000526020600020905b8154815290600101906020018083116105b957829003601f168201915b5050505050905090565b60006105eb82610bcc565b506000908152600460205260409020546001600160a01b031690565b6000610612826108ac565b9050806001600160a01b0316836001600160a01b0316036106845760405162461bcd60e51b815260206004820152602160248201527f4552433732313a20617070726f76616c20746f2063757272656e74206f776e656044820152603960f91b60648201526084015b60405180910390fd5b336001600160a01b03821614806106a057506106a081336104b2565b6107125760405162461bcd60e51b815260206004820152603d60248201527f4552433732313a20617070726f76652063616c6c6572206973206e6f7420746f60448201527f6b656e206f776e6572206f7220617070726f76656420666f7220616c6c000000606482015260840161067b565b61071c8383610c2b565b505050565b61072b3382610c99565b6107475760405162461bcd60e51b815260040161067b90611d7f565b61071c838383610d18565b600061075d8361094f565b82106107bf5760405162461bcd60e51b815260206004820152602b60248201527f455243373231456e756d657261626c653a206f776e657220696e646578206f7560448201526a74206f6620626f756e647360a81b606482015260840161067b565b506001600160a01b03919091166000908152600660209081526040808320938352929052205490565b6107f0610e89565b6107fa8282610ee3565b5050565b61071c83838360405180602001604052806000815250610a57565b600061082460085490565b82106108875760405162461bcd60e51b815260206004820152602c60248201527f455243373231456e756d657261626c653a20676c6f62616c20696e646578206f60448201526b7574206f6620626f756e647360a01b606482015260840161067b565b6008828154811061089a5761089a611dcc565b90600052602060002001549050919050565b6000818152600260205260408120546001600160a01b0316806105485760405162461bcd60e51b8152602060048201526018602482015277115490cdcc8c4e881a5b9d985b1a59081d1bdad95b88125160421b604482015260640161067b565b6000600182036109265750681b1ae4d6e2ef500000919050565b6002820361093e5750685150ae84a8cdf00000919050565b5069010f0cf064dd59200000919050565b60006001600160a01b0382166109b95760405162461bcd60e51b815260206004820152602960248201527f4552433732313a2061646472657373207a65726f206973206e6f7420612076616044820152683634b21037bbb732b960b91b606482015260840161067b565b506001600160a01b031660009081526003602052604090205490565b6109dd610e89565b6109e76000611092565b565b6000600182036109fb57506005919050565b60028203610a0b5750600a919050565b506014919050565b600060018203610a2557506004919050565b60028203610a3557506005919050565b506006919050565b60606001805461055d90611d45565b6107fa3383836110e4565b610a613383610c99565b610a7d5760405162461bcd60e51b815260040161067b90611d7f565b610a89848484846111b2565b50505050565b6060610a9a82610bcc565b6000610ab160408051602081019091526000815290565b90506000815111610ad15760405180602001604052806000815250610afc565b80610adb846111e5565b604051602001610aec929190611de2565b6040516020818303038152906040525b9392505050565b610b0b610e89565b6001600160a01b038116610b705760405162461bcd60e51b815260206004820152602660248201527f4f776e61626c653a206e6577206f776e657220697320746865207a65726f206160448201526564647265737360d01b606482015260840161067b565b610b7981611092565b50565b60006001600160e01b031982166380ac58cd60e01b1480610bad57506001600160e01b03198216635b5e139f60e01b145b8061054857506301ffc9a760e01b6001600160e01b0319831614610548565b6000818152600260205260409020546001600160a01b0316610b795760405162461bcd60e51b8152602060048201526018602482015277115490cdcc8c4e881a5b9d985b1a59081d1bdad95b88125160421b604482015260640161067b565b600081815260046020526040902080546001600160a01b0319166001600160a01b0384169081179091558190610c60826108ac565b6001600160a01b03167f8c5be1e5ebec7d5bd14f71427d1e84f3dd0314c0f7b2291e5b200ac8c7c3b92560405160405180910390a45050565b600080610ca5836108ac565b9050806001600160a01b0316846001600160a01b03161480610cec57506001600160a01b0380821660009081526005602090815260408083209388168352929052205460ff165b80610d105750836001600160a01b0316610d05846105e0565b6001600160a01b0316145b949350505050565b826001600160a01b0316610d2b826108ac565b6001600160a01b031614610d515760405162461bcd60e51b815260040161067b90611e11565b6001600160a01b038216610db35760405162461bcd60e51b8152602060048201526024808201527f4552433732313a207472616e7366657220746f20746865207a65726f206164646044820152637265737360e01b606482015260840161067b565b610dc08383836001611278565b826001600160a01b0316610dd3826108ac565b6001600160a01b031614610df95760405162461bcd60e51b815260040161067b90611e11565b600081815260046020908152604080832080546001600160a01b03199081169091556001600160a01b0387811680865260038552838620805460001901905590871680865283862080546001019055868652600290945282852080549092168417909155905184937fddf252ad1be2c89b69c2b068fc378daa952ba7f163c4a11628f55a4df523b3ef91a4505050565b600a546001600160a01b031633146109e75760405162461bcd60e51b815260206004820181905260248201527f4f776e61626c653a2063616c6c6572206973206e6f7420746865206f776e6572604482015260640161067b565b60018110158015610ef5575060038111155b610f305760405162461bcd60e51b815260206004820152600c60248201526b696e76616c6964207479706560a01b604482015260640161067b565b60018103610f92576103e8600b5410610f785760405162461bcd60e51b815260206004820152600a60248201526910481cdbdb19081bdd5d60b21b604482015260640161067b565b600b8054906000610f8883611e6c565b919050555061103f565b60028103610fea576101f4600c5410610fda5760405162461bcd60e51b815260206004820152600a60248201526910881cdbdb19081bdd5d60b21b604482015260640161067b565b600c8054906000610f8883611e6c565b6064600d54106110295760405162461bcd60e51b815260206004820152600a60248201526910c81cdbdb19081bdd5d60b21b604482015260640161067b565b600d805490600061103983611e6c565b91905055505b600061104a60085490565b611055906001611e85565b90506110618382611310565b6000818152600e602090815260408083208590556001600160a01b0386168352600f9091529020610a89908261132a565b600a80546001600160a01b038381166001600160a01b0319831681179093556040519116919082907f8be0079c531659141344cd1fd0a4f28419497f9722a3daafe3b4186f6b6457e090600090a35050565b816001600160a01b0316836001600160a01b0316036111455760405162461bcd60e51b815260206004820152601960248201527f4552433732313a20617070726f766520746f2063616c6c657200000000000000604482015260640161067b565b6001600160a01b03838116600081815260056020908152604080832094871680845294825291829020805460ff191686151590811790915591519182527f17307eab39ab6107e8899845ad3d59bd9653f200f220920489ca2b5937696c31910160405180910390a3505050565b6111bd848484610d18565b6111c984848484611336565b610a895760405162461bcd60e51b815260040161067b90611e98565b606060006111f283611437565b600101905060008167ffffffffffffffff81111561121257611212611c20565b6040519080825280601f01601f19166020018201604052801561123c576020820181803683370190505b5090508181016020015b600019016f181899199a1a9b1b9c1cb0b131b232b360811b600a86061a8153600a850494508461124657509392505050565b6112848484848461150f565b60018111156112a55760405162461bcd60e51b815260040161067b90611eea565b6001600160a01b038416156112d8576001600160a01b0384166000908152600f602052604090206112d690836115ee565b505b6001600160a01b03831615610a89576001600160a01b0383166000908152600f60205260409020611309908361132a565b5050505050565b6107fa8282604051806020016040528060008152506115fa565b6000610afc838361162d565b60006001600160a01b0384163b1561142c57604051630a85bd0160e11b81526001600160a01b0385169063150b7a029061137a903390899088908890600401611f3f565b6020604051808303816000875af19250505080156113b5575060408051601f3d908101601f191682019092526113b291810190611f7c565b60015b611412573d8080156113e3576040519150601f19603f3d011682016040523d82523d6000602084013e6113e8565b606091505b50805160000361140a5760405162461bcd60e51b815260040161067b90611e98565b805181602001fd5b6001600160e01b031916630a85bd0160e11b149050610d10565b506001949350505050565b60008072184f03e93ff9f4daa797ed6e38ed64bf6a1f0160401b83106114765772184f03e93ff9f4daa797ed6e38ed64bf6a1f0160401b830492506040015b6d04ee2d6d415b85acef810000000083106114a2576d04ee2d6d415b85acef8100000000830492506020015b662386f26fc1000083106114c057662386f26fc10000830492506010015b6305f5e10083106114d8576305f5e100830492506008015b61271083106114ec57612710830492506004015b606483106114fe576064830492506002015b600a83106105485760010192915050565b60018111156115305760405162461bcd60e51b815260040161067b90611eea565b816001600160a01b03851661158c5761158781600880546000838152600960205260408120829055600182018355919091527ff3f7a9fe364faab93b216da50a3214154f22a0a2b415b23a84c8169e8b636ee30155565b6115af565b836001600160a01b0316856001600160a01b0316146115af576115af858261167c565b6001600160a01b0384166115cb576115c681611719565b611309565b846001600160a01b0316846001600160a01b0316146113095761130984826117c8565b6000610afc838361180c565b61160483836118ff565b6116116000848484611336565b61071c5760405162461bcd60e51b815260040161067b90611e98565b600081815260018301602052604081205461167457508154600181810184556000848152602080822090930184905584548482528286019093526040902091909155610548565b506000610548565b600060016116898461094f565b6116939190611f99565b6000838152600760205260409020549091508082146116e6576001600160a01b03841660009081526006602090815260408083208584528252808320548484528184208190558352600790915290208190555b5060009182526007602090815260408084208490556001600160a01b039094168352600681528383209183525290812055565b60085460009061172b90600190611f99565b6000838152600960205260408120546008805493945090928490811061175357611753611dcc565b90600052602060002001549050806008838154811061177457611774611dcc565b60009182526020808320909101929092558281526009909152604080822084905585825281205560088054806117ac576117ac611fac565b6001900381819060005260206000200160009055905550505050565b60006117d38361094f565b6001600160a01b039093166000908152600660209081526040808320868452825280832085905593825260079052919091209190915550565b600081815260018301602052604081205480156118f5576000611830600183611f99565b855490915060009061184490600190611f99565b90508181146118a957600086600001828154811061186457611864611dcc565b906000526020600020015490508087600001848154811061188757611887611dcc565b6000918252602080832090910192909255918252600188019052604090208390555b85548690806118ba576118ba611fac565b600190038181906000526020600020016000905590558560010160008681526020019081526020016000206000905560019350505050610548565b6000915050610548565b6001600160a01b0382166119555760405162461bcd60e51b815260206004820181905260248201527f4552433732313a206d696e7420746f20746865207a65726f2061646472657373604482015260640161067b565b6000818152600260205260409020546001600160a01b0316156119ba5760405162461bcd60e51b815260206004820152601c60248201527f4552433732313a20746f6b656e20616c7265616479206d696e74656400000000604482015260640161067b565b6119c8600083836001611278565b6000818152600260205260409020546001600160a01b031615611a2d5760405162461bcd60e51b815260206004820152601c60248201527f4552433732313a20746f6b656e20616c7265616479206d696e74656400000000604482015260640161067b565b6001600160a01b038216600081815260036020908152604080832080546001019055848352600290915280822080546001600160a01b0319168417905551839291907fddf252ad1be2c89b69c2b068fc378daa952ba7f163c4a11628f55a4df523b3ef908290a45050565b6001600160e01b031981168114610b7957600080fd5b600060208284031215611ac057600080fd5b8135610afc81611a98565b60005b83811015611ae6578181015183820152602001611ace565b50506000910152565b60008151808452611b07816020860160208601611acb565b601f01601f19169290920160200192915050565b602081526000610afc6020830184611aef565b600060208284031215611b4057600080fd5b5035919050565b80356001600160a01b0381168114611b5e57600080fd5b919050565b60008060408385031215611b7657600080fd5b611b7f83611b47565b946020939093013593505050565b600080600060608486031215611ba257600080fd5b611bab84611b47565b9250611bb960208501611b47565b9150604084013590509250925092565b600060208284031215611bdb57600080fd5b610afc82611b47565b60008060408385031215611bf757600080fd5b611c0083611b47565b915060208301358015158114611c1557600080fd5b809150509250929050565b634e487b7160e01b600052604160045260246000fd5b60008060008060808587031215611c4c57600080fd5b611c5585611b47565b9350611c6360208601611b47565b925060408501359150606085013567ffffffffffffffff80821115611c8757600080fd5b818701915087601f830112611c9b57600080fd5b813581811115611cad57611cad611c20565b604051601f8201601f19908116603f01168101908382118183101715611cd557611cd5611c20565b816040528281528a6020848701011115611cee57600080fd5b82602086016020830137600060208483010152809550505050505092959194509250565b60008060408385031215611d2557600080fd5b611d2e83611b47565b9150611d3c60208401611b47565b90509250929050565b600181811c90821680611d5957607f821691505b602082108103611d7957634e487b7160e01b600052602260045260246000fd5b50919050565b6020808252602d908201527f4552433732313a2063616c6c6572206973206e6f7420746f6b656e206f776e6560408201526c1c881bdc88185c1c1c9bdd9959609a1b606082015260800190565b634e487b7160e01b600052603260045260246000fd5b60008351611df4818460208801611acb565b835190830190611e08818360208801611acb565b01949350505050565b60208082526025908201527f4552433732313a207472616e736665722066726f6d20696e636f72726563742060408201526437bbb732b960d91b606082015260800190565b634e487b7160e01b600052601160045260246000fd5b600060018201611e7e57611e7e611e56565b5060010190565b8082018082111561054857610548611e56565b60208082526032908201527f4552433732313a207472616e7366657220746f206e6f6e20455243373231526560408201527131b2b4bb32b91034b6b83632b6b2b73a32b960711b606082015260800190565b60208082526035908201527f455243373231456e756d657261626c653a20636f6e7365637574697665207472604082015274185b9cd9995c9cc81b9bdd081cdd5c1c1bdc9d1959605a1b606082015260800190565b6001600160a01b0385811682528416602082015260408101839052608060608201819052600090611f7290830184611aef565b9695505050505050565b600060208284031215611f8e57600080fd5b8151610afc81611a98565b8181038181111561054857610548611e56565b634e487b7160e01b600052603160045260246000fdfea2646970667358221220419d23d4f725b4227e144bba1bba9e264dcdc434c9e33c8dc14d2ed0cd5d2cf364736f6c63430008110033",
  "linkReferences": {},
  "deployedLinkReferences": {}
}