{
  "_format": "hh-sol-artifact-1",
  "contractName": "DQToken",
  "sourceName": "src/DQT.sol",
  "abi": [
    {
      "inputs": [
        {
          "internalType": "address",
          "name": "_owner",
          "type": "address"
        },
        {
          "internalType": "address",
          "name": "_buyFeeReceiver",
          "type": "address"
        },
        {
          "internalType": "address",
          "name": "_sellFeeReceiver",
          "type": "address"
        }
      ],
      "stateMutability": "nonpayable",
      "type": "constructor"
    },
    {
      "anonymous": false,
      "inputs": [
        {
          "indexed": true,
          "internalType": "address",
          "name": "owner",
          "type": "address"
        },
        {
          "indexed": true,
          "internalType": "address",
          "name": "spender",
          "type": "address"
        },
        {
          "indexed": false,
          "internalType": "uint256",
          "name": "value",
          "type": "uint256"
        }
      ],
      "name": "Approval",
      "type": "event"
    },
    {
      "anonymous": false,
      "inputs": [
        {
          "indexed": true,
          "internalType": "address",
          "name": "previousOwner",
          "type": "address"
        },
        {
          "indexed": true,
          "internalType": "address",
          "name": "newOwner",
          "type": "address"
        }
      ],
      "name": "OwnershipTransferred",
      "type": "event"
    },
    {
      "anonymous": false,
      "inputs": [
        {
          "indexed": true,
          "internalType": "address",
          "name": "from",
          "type": "address"
        },
        {
          "indexed": true,
          "internalType": "address",
          "name": "to",
          "type": "address"
        },
        {
          "indexed": false,
          "internalType": "uint256",
          "name": "value",
          "type": "uint256"
        }
      ],
      "name": "Transfer",
      "type": "event"
    },
    {
      "inputs": [],
      "name": "BURN_ADDRESS",
      "outputs": [
        {
          "internalType": "address",
          "name": "",
          "type": "address"
        }
      ],
      "stateMutability": "view",
      "type": "function"
    },
    {
      "inputs": [],
      "name": "BURN_TARGET",
      "outputs": [
        {
          "internalType": "uint256",
          "name": "",
          "type": "uint256"
        }
      ],
      "stateMutability": "view",
      "type": "function"
    },
    {
      "inputs": [],
      "name": "BUY_BURN_RATE",
      "outputs": [
        {
          "internalType": "uint256",
          "name": "",
          "type": "uint256"
        }
      ],
      "stateMutability": "view",
      "type": "function"
    },
    {
      "inputs": [],
      "name": "BUY_FEE_RATE",
      "outputs": [
        {
          "internalType": "uint256",
          "name": "",
          "type": "uint256"
        }
      ],
      "stateMutability": "view",
      "type": "function"
    },
    {
      "inputs": [],
      "name": "SELL_FEE_RATE",
      "outputs": [
        {
          "internalType": "uint256",
          "name": "",
          "type": "uint256"
        }
      ],
      "stateMutability": "view",
      "type": "function"
    },
    {
      "inputs": [],
      "name": "SELL_TO_PAIR_RATE",
      "outputs": [
        {
          "internalType": "uint256",
          "name": "",
          "type": "uint256"
        }
      ],
      "stateMutability": "view",
      "type": "function"
    },
    {
      "inputs": [],
      "name": "TOTAL_SUPPLY",
      "outputs": [
        {
          "internalType": "uint256",
          "name": "",
          "type": "uint256"
        }
      ],
      "stateMutability": "view",
      "type": "function"
    },
    {
      "inputs": [
        {
          "internalType": "address",
          "name": "owner",
          "type": "address"
        },
        {
          "internalType": "address",
          "name": "spender",
          "type": "address"
        }
      ],
      "name": "allowance",
      "outputs": [
        {
          "internalType": "uint256",
          "name": "",
          "type": "uint256"
        }
      ],
      "stateMutability": "view",
      "type": "function"
    },
    {
      "inputs": [
        {
          "internalType": "address",
          "name": "spender",
          "type": "address"
        },
        {
          "internalType": "uint256",
          "name": "amount",
          "type": "uint256"
        }
      ],
      "name": "approve",
      "outputs": [
        {
          "internalType": "bool",
          "name": "",
          "type": "bool"
        }
      ],
      "stateMutability": "nonpayable",
      "type": "function"
    },
    {
      "inputs": [
        {
          "internalType": "address",
          "name": "account",
          "type": "address"
        }
      ],
      "name": "balanceOf",
      "outputs": [
        {
          "internalType": "uint256",
          "name": "",
          "type": "uint256"
        }
      ],
      "stateMutability": "view",
      "type": "function"
    },
    {
      "inputs": [
        {
          "internalType": "uint256",
          "name": "amount",
          "type": "uint256"
        }
      ],
      "name": "burn",
      "outputs": [],
      "stateMutability": "nonpayable",
      "type": "function"
    },
    {
      "inputs": [],
      "name": "burnedSupply",
      "outputs": [
        {
          "internalType": "uint256",
          "name": "",
          "type": "uint256"
        }
      ],
      "stateMutability": "view",
      "type": "function"
    },
    {
      "inputs": [],
      "name": "buyFeeEnabled",
      "outputs": [
        {
          "internalType": "bool",
          "name": "",
          "type": "bool"
        }
      ],
      "stateMutability": "view",
      "type": "function"
    },
    {
      "inputs": [],
      "name": "buyFeeReceiver",
      "outputs": [
        {
          "internalType": "address",
          "name": "",
          "type": "address"
        }
      ],
      "stateMutability": "view",
      "type": "function"
    },
    {
      "inputs": [],
      "name": "circulatingSupply",
      "outputs": [
        {
          "internalType": "uint256",
          "name": "",
          "type": "uint256"
        }
      ],
      "stateMutability": "view",
      "type": "function"
    },
    {
      "inputs": [],
      "name": "decimals",
      "outputs": [
        {
          "internalType": "uint8",
          "name": "",
          "type": "uint8"
        }
      ],
      "stateMutability": "view",
      "type": "function"
    },
    {
      "inputs": [
        {
          "internalType": "address",
          "name": "spender",
          "type": "address"
        },
        {
          "internalType": "uint256",
          "name": "subtractedValue",
          "type": "uint256"
        }
      ],
      "name": "decreaseAllowance",
      "outputs": [
        {
          "internalType": "bool",
          "name": "",
          "type": "bool"
        }
      ],
      "stateMutability": "nonpayable",
      "type": "function"
    },
    {
      "inputs": [
        {
          "internalType": "address",
          "name": "spender",
          "type": "address"
        },
        {
          "internalType": "uint256",
          "name": "addedValue",
          "type": "uint256"
        }
      ],
      "name": "increaseAllowance",
      "outputs": [
        {
          "internalType": "bool",
          "name": "",
          "type": "bool"
        }
      ],
      "stateMutability": "nonpayable",
      "type": "function"
    },
    {
      "inputs": [
        {
          "internalType": "address",
          "name": "",
          "type": "address"
        }
      ],
      "name": "isBlacklisted",
      "outputs": [
        {
          "internalType": "bool",
          "name": "",
          "type": "bool"
        }
      ],
      "stateMutability": "view",
      "type": "function"
    },
    {
      "inputs": [
        {
          "internalType": "address",
          "name": "",
          "type": "address"
        }
      ],
      "name": "isExcluded",
      "outputs": [
        {
          "internalType": "bool",
          "name": "",
          "type": "bool"
        }
      ],
      "stateMutability": "view",
      "type": "function"
    },
    {
      "inputs": [
        {
          "internalType": "address",
          "name": "",
          "type": "address"
        }
      ],
      "name": "isPair",
      "outputs": [
        {
          "internalType": "bool",
          "name": "",
          "type": "bool"
        }
      ],
      "stateMutability": "view",
      "type": "function"
    },
    {
      "inputs": [],
      "name": "miningStake",
      "outputs": [
        {
          "internalType": "address",
          "name": "",
          "type": "address"
        }
      ],
      "stateMutability": "view",
      "type": "function"
    },
    {
      "inputs": [],
      "name": "name",
      "outputs": [
        {
          "internalType": "string",
          "name": "",
          "type": "string"
        }
      ],
      "stateMutability": "view",
      "type": "function"
    },
    {
      "inputs": [],
      "name": "owner",
      "outputs": [
        {
          "internalType": "address",
          "name": "",
          "type": "address"
        }
      ],
      "stateMutability": "view",
      "type": "function"
    },
    {
      "inputs": [],
      "name": "sellFeeEnabled",
      "outputs": [
        {
          "internalType": "bool",
          "name": "",
          "type": "bool"
        }
      ],
      "stateMutability": "view",
      "type": "function"
    },
    {
      "inputs": [],
      "name": "sellFeeReceiver",
      "outputs": [
        {
          "internalType": "address",
          "name": "",
          "type": "address"
        }
      ],
      "stateMutability": "view",
      "type": "function"
    },
    {
      "inputs": [
        {
          "internalType": "address",
          "name": "_account",
          "type": "address"
        },
        {
          "internalType": "bool",
          "name": "_status",
          "type": "bool"
        }
      ],
      "name": "setBlacklisted",
      "outputs": [],
      "stateMutability": "nonpayable",
      "type": "function"
    },
    {
      "inputs": [
        {
          "internalType": "address",
          "name": "_addr",
          "type": "address"
        }
      ],
      "name": "setBuyFeeReceiver",
      "outputs": [],
      "stateMutability": "nonpayable",
      "type": "function"
    },
    {
      "inputs": [
        {
          "internalType": "address",
          "name": "_account",
          "type": "address"
        },
        {
          "internalType": "bool",
          "name": "_status",
          "type": "bool"
        }
      ],
      "name": "setExcluded",
      "outputs": [],
      "stateMutability": "nonpayable",
      "type": "function"
    },
    {
      "inputs": [
        {
          "internalType": "bool",
          "name": "_buyFee",
          "type": "bool"
        },
        {
          "internalType": "bool",
          "name": "_sellFee",
          "type": "bool"
        }
      ],
      "name": "setFeeStatus",
      "outputs": [],
      "stateMutability": "nonpayable",
      "type": "function"
    },
    {
      "inputs": [
        {
          "internalType": "address",
          "name": "_addr",
          "type": "address"
        }
      ],
      "name": "setMiningStake",
      "outputs": [],
      "stateMutability": "nonpayable",
      "type": "function"
    },
    {
      "inputs": [
        {
          "internalType": "address",
          "name": "_pair",
          "type": "address"
        },
        {
          "internalType": "bool",
          "name": "_status",
          "type": "bool"
        }
      ],
      "name": "setPair",
      "outputs": [],
      "stateMutability": "nonpayable",
      "type": "function"
    },
    {
      "inputs": [
        {
          "internalType": "address",
          "name": "_addr",
          "type": "address"
        }
      ],
      "name": "setSellFeeReceiver",
      "outputs": [],
      "stateMutability": "nonpayable",
      "type": "function"
    },
    {
      "inputs": [],
      "name": "symbol",
      "outputs": [
        {
          "internalType": "string",
          "name": "",
          "type": "string"
        }
      ],
      "stateMutability": "view",
      "type": "function"
    },
    {
      "inputs": [],
      "name": "totalSupply",
      "outputs": [
        {
          "internalType": "uint256",
          "name": "",
          "type": "uint256"
        }
      ],
      "stateMutability": "view",
      "type": "function"
    },
    {
      "inputs": [
        {
          "internalType": "address",
          "name": "to",
          "type": "address"
        },
        {
          "internalType": "uint256",
          "name": "amount",
          "type": "uint256"
        }
      ],
      "name": "transfer",
      "outputs": [
        {
          "internalType": "bool",
          "name": "",
          "type": "bool"
        }
      ],
      "stateMutability": "nonpayable",
      "type": "function"
    },
    {
      "inputs": [
        {
          "internalType": "address",
          "name": "from",
          "type": "address"
        },
        {
          "internalType": "address",
          "name": "to",
          "type": "address"
        },
        {
          "internalType": "uint256",
          "name": "amount",
          "type": "uint256"
        }
      ],
      "name": "transferFrom",
      "outputs": [
        {
          "internalType": "bool",
          "name": "",
          "type": "bool"
        }
      ],
      "stateMutability": "nonpayable",
      "type": "function"
    },
    {
      "inputs": [
        {
          "internalType": "address",
          "name": "newOwner",
          "type": "address"
        }
      ],
      "name": "transferOwnership",
      "outputs": [],
      "stateMutability": "nonpayable",
      "type": "function"
    }
  ],
  "bytecode": "0x60806040526006805461ffff19166101011790553480156200002057600080fd5b506040516200197c3803806200197c83398101604081905262000043916200034e565b604051806040016040528060088152602001672228902a37b5b2b760c11b81525060405180604001604052806002815260200161445160f01b81525081600390816200009091906200043c565b5060046200009f82826200043c565b5050506001600160a01b038316620000ee5760405162461bcd60e51b815260206004820152600d60248201526c6f776e6572206973207a65726f60981b60448201526064015b60405180910390fd5b6001600160a01b038216620001465760405162461bcd60e51b815260206004820152601660248201527f6275794665655265636569766572206973207a65726f000000000000000000006044820152606401620000e5565b6001600160a01b0381166200019e5760405162461bcd60e51b815260206004820152601760248201527f73656c6c4665655265636569766572206973207a65726f0000000000000000006044820152606401620000e5565b600680546001600160a01b03808616620100000262010000600160b01b031990921691909117909155600780548483166001600160a01b031991821617909155600880549284169290911691909117905562000208836c01431e0fae6d7217caa000000062000269565b6001600160a01b039283166000908152600b60205260408082208054600160ff199182168117909255948616835281832080548616821790559290941681528381208054841683179055308152929092208054909116909117905562000530565b6001600160a01b038216620002c15760405162461bcd60e51b815260206004820152601f60248201527f45524332303a206d696e7420746f20746865207a65726f2061646472657373006044820152606401620000e5565b8060026000828254620002d5919062000508565b90915550506001600160a01b038216600081815260208181526040808320805486019055518481527fddf252ad1be2c89b69c2b068fc378daa952ba7f163c4a11628f55a4df523b3ef910160405180910390a35050565b505050565b80516001600160a01b03811681146200034957600080fd5b919050565b6000806000606084860312156200036457600080fd5b6200036f8462000331565b92506200037f6020850162000331565b91506200038f6040850162000331565b90509250925092565b634e487b7160e01b600052604160045260246000fd5b600181811c90821680620003c357607f821691505b602082108103620003e457634e487b7160e01b600052602260045260246000fd5b50919050565b601f8211156200032c57600081815260208120601f850160051c81016020861015620004135750805b601f850160051c820191505b8181101562000434578281556001016200041f565b505050505050565b81516001600160401b0381111562000458576200045862000398565b6200047081620004698454620003ae565b84620003ea565b602080601f831160018114620004a857600084156200048f5750858301515b600019600386901b1c1916600185901b17855562000434565b600085815260208120601f198616915b82811015620004d957888601518255948401946001909101908401620004b8565b5085821015620004f85787850151600019600388901b60f8161c191681555b5050505050600190811b01905550565b808201808211156200052a57634e487b7160e01b600052601160045260246000fd5b92915050565b61143c80620005406000396000f3fe608060405234801561001057600080fd5b50600436106102325760003560e01c8063902d55a511610130578063d6471430116100b8578063f2fde38b1161007c578063f2fde38b146104bd578063f356cf90146104d0578063f660fa0b146104e2578063fccc2813146104ea578063fe575a87146104f357600080fd5b8063d647143014610461578063dd62ed3e14610474578063e5e31b1314610487578063e85074d6146103f5578063f1e692e5146104aa57600080fd5b806399cde47a116100ff57806399cde47a146103fd578063a457c2d714610405578063a9059cbb14610418578063cba0e9961461042b578063d01dd6d21461044e57600080fd5b8063902d55a5146103d15780639358928b146103e557806395d89b41146103ed578063973e8c09146103f557600080fd5b806342966c68116101be57806370a082311161018257806370a082311461035c578063729f0c6e1461038557806386a22eff14610398578063871d0719146103ab5780638da5cb5b146103b857600080fd5b806342966c68146103125780634730824d1461032557806355d0a1d0146103385780635ecea08e146103415780636d0e43781461035457600080fd5b80632836be24116102055780632836be241461029d5780632bbd46ad146102b2578063313ce567146102dd57806339509351146102ec5780634292a23f146102ff57600080fd5b806306fdde0314610237578063095ea7b31461025557806318160ddd1461027857806323b872dd1461028a575b600080fd5b61023f610516565b60405161024c91906111a3565b60405180910390f35b61026861026336600461120d565b6105a8565b604051901515815260200161024c565b6002545b60405190815260200161024c565b610268610298366004611237565b6105c2565b6102b06102ab366004611283565b6105e6565b005b6007546102c5906001600160a01b031681565b6040516001600160a01b03909116815260200161024c565b6040516012815260200161024c565b6102686102fa36600461120d565b61064a565b6102b061030d3660046112b6565b61066c565b6102b06103203660046112d2565b6106c0565b6009546102c5906001600160a01b031681565b61027c60055481565b6102b061034f3660046112eb565b6106e4565b61027c610736565b61027c61036a3660046112eb565b6001600160a01b031660009081526020819052604090205490565b6102b06103933660046112eb565b61075d565b6102b06103a6366004611283565b6107af565b6006546102689060ff1681565b6006546102c5906201000090046001600160a01b031681565b61027c6c01431e0fae6d7217caa000000081565b61027c61080a565b61023f61084b565b61027c600681565b61027c605e81565b61026861041336600461120d565b61085a565b61026861042636600461120d565b6108d5565b6102686104393660046112eb565b600b6020526000908152604090205460ff1681565b6102b061045c366004611283565b6108e3565b6008546102c5906001600160a01b031681565b61027c61048236600461130d565b61093e565b6102686104953660046112eb565b600a6020526000908152604090205460ff1681565b6102b06104b83660046112eb565b610969565b6102b06104cb3660046112eb565b6109bb565b60065461026890610100900460ff1681565b61027c605a81565b6102c561dead81565b6102686105013660046112eb565b600c6020526000908152604090205460ff1681565b60606003805461052590611337565b80601f016020809104026020016040519081016040528092919081815260200182805461055190611337565b801561059e5780601f106105735761010080835404028352916020019161059e565b820191906000526020600020905b81548152906001019060200180831161058157829003601f168201915b5050505050905090565b6000336105b6818585610a68565b60019150505b92915050565b6000336105d0858285610b8c565b6105db858585610c06565b506001949350505050565b6006546201000090046001600160a01b0316331461061f5760405162461bcd60e51b815260040161061690611371565b60405180910390fd5b6001600160a01b03919091166000908152600b60205260409020805460ff1916911515919091179055565b6000336105b681858561065d838361093e565b61066791906113a7565b610a68565b6006546201000090046001600160a01b0316331461069c5760405162461bcd60e51b815260040161061690611371565b6006805461ffff191692151561ff0019169290921761010091151591909102179055565b6106ca3382610d5a565b80600560008282546106dc91906113a7565b909155505050565b6006546201000090046001600160a01b031633146107145760405162461bcd60e51b815260040161061690611371565b600880546001600160a01b0319166001600160a01b0392909216919091179055565b60646107506c01431e0fae6d7217caa000000060636113ba565b61075a91906113d1565b81565b6006546201000090046001600160a01b0316331461078d5760405162461bcd60e51b815260040161061690611371565b600780546001600160a01b0319166001600160a01b0392909216919091179055565b6006546201000090046001600160a01b031633146107df5760405162461bcd60e51b815260040161061690611371565b6001600160a01b03919091166000908152600a60205260409020805460ff1916911515919091179055565b61dead600090815260208190527f44ad89ba62b98ff34f51403ac22759b55759460c0bb5521eb4b6ee3cff49cf835460025461084691906113f3565b905090565b60606004805461052590611337565b60003381610868828661093e565b9050838110156108c85760405162461bcd60e51b815260206004820152602560248201527f45524332303a2064656372656173656420616c6c6f77616e63652062656c6f77604482015264207a65726f60d81b6064820152608401610616565b6105db8286868403610a68565b6000336105b6818585610c06565b6006546201000090046001600160a01b031633146109135760405162461bcd60e51b815260040161061690611371565b6001600160a01b03919091166000908152600c60205260409020805460ff1916911515919091179055565b6001600160a01b03918216600090815260016020908152604080832093909416825291909152205490565b6006546201000090046001600160a01b031633146109995760405162461bcd60e51b815260040161061690611371565b600980546001600160a01b0319166001600160a01b0392909216919091179055565b6006546201000090046001600160a01b031633146109eb5760405162461bcd60e51b815260040161061690611371565b6001600160a01b0381166109fe57600080fd5b6006546040516001600160a01b038084169262010000900416907f8be0079c531659141344cd1fd0a4f28419497f9722a3daafe3b4186f6b6457e090600090a3600680546001600160a01b03909216620100000262010000600160b01b0319909216919091179055565b6001600160a01b038316610aca5760405162461bcd60e51b8152602060048201526024808201527f45524332303a20617070726f76652066726f6d20746865207a65726f206164646044820152637265737360e01b6064820152608401610616565b6001600160a01b038216610b2b5760405162461bcd60e51b815260206004820152602260248201527f45524332303a20617070726f766520746f20746865207a65726f206164647265604482015261737360f01b6064820152608401610616565b6001600160a01b0383811660008181526001602090815260408083209487168084529482529182902085905590518481527f8c5be1e5ebec7d5bd14f71427d1e84f3dd0314c0f7b2291e5b200ac8c7c3b925910160405180910390a3505050565b6000610b98848461093e565b90506000198114610c005781811015610bf35760405162461bcd60e51b815260206004820152601d60248201527f45524332303a20696e73756666696369656e7420616c6c6f77616e63650000006044820152606401610616565b610c008484848403610a68565b50505050565b6001600160a01b0383166000908152600c602052604090205460ff16158015610c4857506001600160a01b0382166000908152600c602052604090205460ff16155b610c825760405162461bcd60e51b815260206004820152600b60248201526a109b1858dadb1a5cdd195960aa1b6044820152606401610616565b6001600160a01b0383166000908152600b602052604090205460ff1680610cc157506001600160a01b0382166000908152600b602052604090205460ff165b15610cd657610cd1838383610e8c565b505050565b6001600160a01b0383166000908152600a602052604090205460ff168015610d00575060065460ff165b15610d1057610cd1838383611030565b6001600160a01b0382166000908152600a602052604090205460ff168015610d3f5750600654610100900460ff165b15610d4f57610cd1838383611137565b610cd1838383610e8c565b6001600160a01b038216610dba5760405162461bcd60e51b815260206004820152602160248201527f45524332303a206275726e2066726f6d20746865207a65726f206164647265736044820152607360f81b6064820152608401610616565b6001600160a01b03821660009081526020819052604090205481811015610e2e5760405162461bcd60e51b815260206004820152602260248201527f45524332303a206275726e20616d6f756e7420657863656564732062616c616e604482015261636560f01b6064820152608401610616565b6001600160a01b0383166000818152602081815260408083208686039055600280548790039055518581529192917fddf252ad1be2c89b69c2b068fc378daa952ba7f163c4a11628f55a4df523b3ef910160405180910390a3505050565b6001600160a01b038316610ef05760405162461bcd60e51b815260206004820152602560248201527f45524332303a207472616e736665722066726f6d20746865207a65726f206164604482015264647265737360d81b6064820152608401610616565b6001600160a01b038216610f525760405162461bcd60e51b815260206004820152602360248201527f45524332303a207472616e7366657220746f20746865207a65726f206164647260448201526265737360e81b6064820152608401610616565b6001600160a01b03831660009081526020819052604090205481811015610fca5760405162461bcd60e51b815260206004820152602660248201527f45524332303a207472616e7366657220616d6f756e7420657863656564732062604482015265616c616e636560d01b6064820152608401610616565b6001600160a01b03848116600081815260208181526040808320878703905593871680835291849020805487019055925185815290927fddf252ad1be2c89b69c2b068fc378daa952ba7f163c4a11628f55a4df523b3ef910160405180910390a3610c00565b6000606461103f605a846113ba565b61104991906113d1565b90506000606461105a6006856113ba565b61106491906113d1565b905060008161107384866113f3565b61107d91906113f3565b9050801561109057611090868683610e8c565b6000831180156110c4575060646110b56c01431e0fae6d7217caa000000060636113ba565b6110bf91906113d1565b600554105b156110f3576110d68661dead85610e8c565b82600560008282546110e891906113a7565b909155506111119050565b8215611111576007546111119087906001600160a01b031685610e8c565b811561112f5760075461112f9087906001600160a01b031684610e8c565b505050505050565b600060646111466006846113ba565b61115091906113d1565b905060006064611161605e856113ba565b61116b91906113d1565b9050801561117e5761117e858583610e8c565b811561119c5760085461119c9086906001600160a01b031684610e8c565b5050505050565b600060208083528351808285015260005b818110156111d0578581018301518582016040015282016111b4565b506000604082860101526040601f19601f8301168501019250505092915050565b80356001600160a01b038116811461120857600080fd5b919050565b6000806040838503121561122057600080fd5b611229836111f1565b946020939093013593505050565b60008060006060848603121561124c57600080fd5b611255846111f1565b9250611263602085016111f1565b9150604084013590509250925092565b8035801515811461120857600080fd5b6000806040838503121561129657600080fd5b61129f836111f1565b91506112ad60208401611273565b90509250929050565b600080604083850312156112c957600080fd5b61129f83611273565b6000602082840312156112e457600080fd5b5035919050565b6000602082840312156112fd57600080fd5b611306826111f1565b9392505050565b6000806040838503121561132057600080fd5b611329836111f1565b91506112ad602084016111f1565b600181811c9082168061134b57607f821691505b60208210810361136b57634e487b7160e01b600052602260045260246000fd5b50919050565b60208082526006908201526510b7bbb732b960d11b604082015260600190565b634e487b7160e01b600052601160045260246000fd5b808201808211156105bc576105bc611391565b80820281158282048414176105bc576105bc611391565b6000826113ee57634e487b7160e01b600052601260045260246000fd5b500490565b818103818111156105bc576105bc61139156fea2646970667358221220fe1141bf6295f1db46ccc2826e949ea12d6177153494022070171cd83a3f9a0d64736f6c63430008140033",
  "linkReferences": {},
  "deployedLinkReferences": {}
}